{
	"contracts/poll_system.sol": {
		"polls_system": {
			"abi": [
				{
					"inputs": [
						{
							"internalType": "string",
							"name": "question",
							"type": "string"
						}
					],
					"name": "CreatePoll",
					"outputs": [],
					"stateMutability": "nonpayable",
					"type": "function"
				},
				{
					"inputs": [
						{
							"internalType": "uint256",
							"name": "id",
							"type": "uint256"
						},
						{
							"internalType": "string",
							"name": "name",
							"type": "string"
						}
					],
					"name": "createVoter",
					"outputs": [],
					"stateMutability": "nonpayable",
					"type": "function"
				},
				{
					"inputs": [],
					"name": "getPolls",
					"outputs": [
						{
							"internalType": "uint256",
							"name": "",
							"type": "uint256"
						}
					],
					"stateMutability": "view",
					"type": "function"
				},
				{
					"inputs": [
						{
							"internalType": "address",
							"name": "pollid",
							"type": "address"
						},
						{
							"internalType": "uint256",
							"name": "voterid",
							"type": "uint256"
						},
						{
							"internalType": "uint256",
							"name": "ans",
							"type": "uint256"
						}
					],
					"name": "poll_ans",
					"outputs": [],
					"stateMutability": "nonpayable",
					"type": "function"
				},
				{
					"inputs": [
						{
							"internalType": "address",
							"name": "",
							"type": "address"
						}
					],
					"name": "polls",
					"outputs": [
						{
							"internalType": "address",
							"name": "poll_id",
							"type": "address"
						},
						{
							"internalType": "string",
							"name": "question",
							"type": "string"
						},
						{
							"internalType": "uint256",
							"name": "total_ans",
							"type": "uint256"
						},
						{
							"internalType": "uint256",
							"name": "y_count",
							"type": "uint256"
						},
						{
							"internalType": "uint256",
							"name": "n_count",
							"type": "uint256"
						}
					],
					"stateMutability": "view",
					"type": "function"
				},
				{
					"inputs": [
						{
							"internalType": "uint256",
							"name": "",
							"type": "uint256"
						}
					],
					"name": "voter",
					"outputs": [
						{
							"internalType": "uint256",
							"name": "voter_id",
							"type": "uint256"
						},
						{
							"internalType": "string",
							"name": "name",
							"type": "string"
						},
						{
							"internalType": "uint256",
							"name": "ans_poll",
							"type": "uint256"
						},
						{
							"internalType": "uint256",
							"name": "ans_poll_y",
							"type": "uint256"
						},
						{
							"internalType": "uint256",
							"name": "ans_poll_n",
							"type": "uint256"
						}
					],
					"stateMutability": "view",
					"type": "function"
				}
			],
			"devdoc": {
				"kind": "dev",
				"methods": {},
				"version": 1
			},
			"evm": {
				"assembly": "    /* \"contracts/poll_system.sol\":73:2097  contract polls_system {... */\n  mstore(0x40, 0x80)\n  callvalue\n  dup1\n  iszero\n  tag_1\n  jumpi\n  0x00\n  dup1\n  revert\ntag_1:\n  pop\n  dataSize(sub_0)\n  dup1\n  dataOffset(sub_0)\n  0x00\n  codecopy\n  0x00\n  return\nstop\n\nsub_0: assembly {\n        /* \"contracts/poll_system.sol\":73:2097  contract polls_system {... */\n      mstore(0x40, 0x80)\n      callvalue\n      dup1\n      iszero\n      tag_1\n      jumpi\n      0x00\n      dup1\n      revert\n    tag_1:\n      pop\n      jumpi(tag_2, lt(calldatasize, 0x04))\n      shr(0xe0, calldataload(0x00))\n      dup1\n      0x120fe89b\n      eq\n      tag_3\n      jumpi\n      dup1\n      0x5f7687a2\n      eq\n      tag_4\n      jumpi\n      dup1\n      0xab8ed1ba\n      eq\n      tag_5\n      jumpi\n      dup1\n      0xbf14c6d2\n      eq\n      tag_6\n      jumpi\n      dup1\n      0xc3589e77\n      eq\n      tag_7\n      jumpi\n      dup1\n      0xc3dfae97\n      eq\n      tag_8\n      jumpi\n    tag_2:\n      0x00\n      dup1\n      revert\n        /* \"contracts/poll_system.sol\":2012:2094  function getPolls() public view returns (uint) {... */\n    tag_3:\n      tag_9\n      tag_10\n      jump\t// in\n    tag_9:\n      mload(0x40)\n      tag_11\n      swap2\n      swap1\n      tag_12\n      jump\t// in\n    tag_11:\n      mload(0x40)\n      dup1\n      swap2\n      sub\n      swap1\n      return\n        /* \"contracts/poll_system.sol\":703:1166  function CreatePoll(string memory question) public {... */\n    tag_4:\n      tag_13\n      0x04\n      dup1\n      calldatasize\n      sub\n      dup2\n      add\n      swap1\n      tag_14\n      swap2\n      swap1\n      tag_15\n      jump\t// in\n    tag_14:\n      tag_16\n      jump\t// in\n    tag_13:\n      stop\n        /* \"contracts/poll_system.sol\":616:655  mapping(uint => voterInfo) public voter */\n    tag_5:\n      tag_17\n      0x04\n      dup1\n      calldatasize\n      sub\n      dup2\n      add\n      swap1\n      tag_18\n      swap2\n      swap1\n      tag_19\n      jump\t// in\n    tag_18:\n      tag_20\n      jump\t// in\n    tag_17:\n      mload(0x40)\n      tag_21\n      swap6\n      swap5\n      swap4\n      swap3\n      swap2\n      swap1\n      tag_22\n      jump\t// in\n    tag_21:\n      mload(0x40)\n      dup1\n      swap2\n      sub\n      swap1\n      return\n        /* \"contracts/poll_system.sol\":1172:1462  function createVoter(uint id, string memory name) public {... */\n    tag_6:\n      tag_23\n      0x04\n      dup1\n      calldatasize\n      sub\n      dup2\n      add\n      swap1\n      tag_24\n      swap2\n      swap1\n      tag_25\n      jump\t// in\n    tag_24:\n      tag_26\n      jump\t// in\n    tag_23:\n      stop\n        /* \"contracts/poll_system.sol\":1468:2000  function poll_ans(address pollid, uint voterid, uint ans) public {... */\n    tag_7:\n      tag_27\n      0x04\n      dup1\n      calldatasize\n      sub\n      dup2\n      add\n      swap1\n      tag_28\n      swap2\n      swap1\n      tag_29\n      jump\t// in\n    tag_28:\n      tag_30\n      jump\t// in\n    tag_27:\n      stop\n        /* \"contracts/poll_system.sol\":569:610  mapping(address => pollInfo) public polls */\n    tag_8:\n      tag_31\n      0x04\n      dup1\n      calldatasize\n      sub\n      dup2\n      add\n      swap1\n      tag_32\n      swap2\n      swap1\n      tag_33\n      jump\t// in\n    tag_32:\n      tag_34\n      jump\t// in\n    tag_31:\n      mload(0x40)\n      tag_35\n      swap6\n      swap5\n      swap4\n      swap3\n      swap2\n      swap1\n      tag_36\n      jump\t// in\n    tag_35:\n      mload(0x40)\n      dup1\n      swap2\n      sub\n      swap1\n      return\n        /* \"contracts/poll_system.sol\":2012:2094  function getPolls() public view returns (uint) {... */\n    tag_10:\n        /* \"contracts/poll_system.sol\":2053:2057  uint */\n      0x00\n        /* \"contracts/poll_system.sol\":2076:2087  polls_count */\n      dup1\n      sload\n        /* \"contracts/poll_system.sol\":2069:2087  return polls_count */\n      swap1\n      pop\n        /* \"contracts/poll_system.sol\":2012:2094  function getPolls() public view returns (uint) {... */\n      swap1\n      jump\t// out\n        /* \"contracts/poll_system.sol\":703:1166  function CreatePoll(string memory question) public {... */\n    tag_16:\n        /* \"contracts/poll_system.sol\":801:811  msg.sender */\n      caller\n        /* \"contracts/poll_system.sol\":772:811  polls[msg.sender].poll_id != msg.sender */\n      0xffffffffffffffffffffffffffffffffffffffff\n      and\n        /* \"contracts/poll_system.sol\":772:777  polls */\n      0x01\n        /* \"contracts/poll_system.sol\":772:789  polls[msg.sender] */\n      0x00\n        /* \"contracts/poll_system.sol\":778:788  msg.sender */\n      caller\n        /* \"contracts/poll_system.sol\":772:789  polls[msg.sender] */\n      0xffffffffffffffffffffffffffffffffffffffff\n      and\n      0xffffffffffffffffffffffffffffffffffffffff\n      and\n      dup2\n      mstore\n      0x20\n      add\n      swap1\n      dup2\n      mstore\n      0x20\n      add\n      0x00\n      keccak256\n        /* \"contracts/poll_system.sol\":772:797  polls[msg.sender].poll_id */\n      0x00\n      add\n      0x00\n      swap1\n      sload\n      swap1\n      0x0100\n      exp\n      swap1\n      div\n      0xffffffffffffffffffffffffffffffffffffffff\n      and\n        /* \"contracts/poll_system.sol\":772:811  polls[msg.sender].poll_id != msg.sender */\n      0xffffffffffffffffffffffffffffffffffffffff\n      and\n      sub\n        /* \"contracts/poll_system.sol\":764:880  require(polls[msg.sender].poll_id != msg.sender, \"not able to added a new poll because your poll is already exist.\") */\n      tag_39\n      jumpi\n      mload(0x40)\n      0x08c379a000000000000000000000000000000000000000000000000000000000\n      dup2\n      mstore\n      0x04\n      add\n      tag_40\n      swap1\n      tag_41\n      jump\t// in\n    tag_40:\n      mload(0x40)\n      dup1\n      swap2\n      sub\n      swap1\n      revert\n    tag_39:\n        /* \"contracts/poll_system.sol\":890:906  uint total_count */\n      0x00\n        /* \"contracts/poll_system.sol\":909:914  polls */\n      0x01\n        /* \"contracts/poll_system.sol\":909:926  polls[msg.sender] */\n      0x00\n        /* \"contracts/poll_system.sol\":915:925  msg.sender */\n      caller\n        /* \"contracts/poll_system.sol\":909:926  polls[msg.sender] */\n      0xffffffffffffffffffffffffffffffffffffffff\n      and\n      0xffffffffffffffffffffffffffffffffffffffff\n      and\n      dup2\n      mstore\n      0x20\n      add\n      swap1\n      dup2\n      mstore\n      0x20\n      add\n      0x00\n      keccak256\n        /* \"contracts/poll_system.sol\":909:936  polls[msg.sender].total_ans */\n      0x02\n      add\n      sload\n        /* \"contracts/poll_system.sol\":890:936  uint total_count = polls[msg.sender].total_ans */\n      swap1\n      pop\n        /* \"contracts/poll_system.sol\":946:960  uint yes_count */\n      0x00\n        /* \"contracts/poll_system.sol\":963:968  polls */\n      0x01\n        /* \"contracts/poll_system.sol\":963:980  polls[msg.sender] */\n      0x00\n        /* \"contracts/poll_system.sol\":969:979  msg.sender */\n      caller\n        /* \"contracts/poll_system.sol\":963:980  polls[msg.sender] */\n      0xffffffffffffffffffffffffffffffffffffffff\n      and\n      0xffffffffffffffffffffffffffffffffffffffff\n      and\n      dup2\n      mstore\n      0x20\n      add\n      swap1\n      dup2\n      mstore\n      0x20\n      add\n      0x00\n      keccak256\n        /* \"contracts/poll_system.sol\":963:988  polls[msg.sender].y_count */\n      0x03\n      add\n      sload\n        /* \"contracts/poll_system.sol\":946:988  uint yes_count = polls[msg.sender].y_count */\n      swap1\n      pop\n        /* \"contracts/poll_system.sol\":998:1011  uint no_count */\n      0x00\n        /* \"contracts/poll_system.sol\":1014:1019  polls */\n      0x01\n        /* \"contracts/poll_system.sol\":1014:1031  polls[msg.sender] */\n      0x00\n        /* \"contracts/poll_system.sol\":1020:1030  msg.sender */\n      caller\n        /* \"contracts/poll_system.sol\":1014:1031  polls[msg.sender] */\n      0xffffffffffffffffffffffffffffffffffffffff\n      and\n      0xffffffffffffffffffffffffffffffffffffffff\n      and\n      dup2\n      mstore\n      0x20\n      add\n      swap1\n      dup2\n      mstore\n      0x20\n      add\n      0x00\n      keccak256\n        /* \"contracts/poll_system.sol\":1014:1039  polls[msg.sender].n_count */\n      0x04\n      add\n      sload\n        /* \"contracts/poll_system.sol\":998:1039  uint no_count = polls[msg.sender].n_count */\n      swap1\n      pop\n        /* \"contracts/poll_system.sol\":1069:1133  pollInfo(msg.sender, question, total_count, yes_count, no_count) */\n      mload(0x40)\n      dup1\n      0xa0\n      add\n      0x40\n      mstore\n      dup1\n        /* \"contracts/poll_system.sol\":1078:1088  msg.sender */\n      caller\n        /* \"contracts/poll_system.sol\":1069:1133  pollInfo(msg.sender, question, total_count, yes_count, no_count) */\n      0xffffffffffffffffffffffffffffffffffffffff\n      and\n      dup2\n      mstore\n      0x20\n      add\n        /* \"contracts/poll_system.sol\":1090:1098  question */\n      dup6\n        /* \"contracts/poll_system.sol\":1069:1133  pollInfo(msg.sender, question, total_count, yes_count, no_count) */\n      dup2\n      mstore\n      0x20\n      add\n        /* \"contracts/poll_system.sol\":1100:1111  total_count */\n      dup5\n        /* \"contracts/poll_system.sol\":1069:1133  pollInfo(msg.sender, question, total_count, yes_count, no_count) */\n      dup2\n      mstore\n      0x20\n      add\n        /* \"contracts/poll_system.sol\":1113:1122  yes_count */\n      dup4\n        /* \"contracts/poll_system.sol\":1069:1133  pollInfo(msg.sender, question, total_count, yes_count, no_count) */\n      dup2\n      mstore\n      0x20\n      add\n        /* \"contracts/poll_system.sol\":1124:1132  no_count */\n      dup3\n        /* \"contracts/poll_system.sol\":1069:1133  pollInfo(msg.sender, question, total_count, yes_count, no_count) */\n      dup2\n      mstore\n      pop\n        /* \"contracts/poll_system.sol\":1049:1054  polls */\n      0x01\n        /* \"contracts/poll_system.sol\":1049:1066  polls[msg.sender] */\n      0x00\n        /* \"contracts/poll_system.sol\":1055:1065  msg.sender */\n      caller\n        /* \"contracts/poll_system.sol\":1049:1066  polls[msg.sender] */\n      0xffffffffffffffffffffffffffffffffffffffff\n      and\n      0xffffffffffffffffffffffffffffffffffffffff\n      and\n      dup2\n      mstore\n      0x20\n      add\n      swap1\n      dup2\n      mstore\n      0x20\n      add\n      0x00\n      keccak256\n        /* \"contracts/poll_system.sol\":1049:1133  polls[msg.sender] = pollInfo(msg.sender, question, total_count, yes_count, no_count) */\n      0x00\n      dup3\n      add\n      mload\n      dup2\n      0x00\n      add\n      exp(0x0100, 0x00)\n      dup2\n      sload\n      dup2\n      0xffffffffffffffffffffffffffffffffffffffff\n      mul\n      not\n      and\n      swap1\n      dup4\n      0xffffffffffffffffffffffffffffffffffffffff\n      and\n      mul\n      or\n      swap1\n      sstore\n      pop\n      0x20\n      dup3\n      add\n      mload\n      dup2\n      0x01\n      add\n      swap1\n      dup2\n      tag_42\n      swap2\n      swap1\n      tag_43\n      jump\t// in\n    tag_42:\n      pop\n      0x40\n      dup3\n      add\n      mload\n      dup2\n      0x02\n      add\n      sstore\n      0x60\n      dup3\n      add\n      mload\n      dup2\n      0x03\n      add\n      sstore\n      0x80\n      dup3\n      add\n      mload\n      dup2\n      0x04\n      add\n      sstore\n      swap1\n      pop\n      pop\n        /* \"contracts/poll_system.sol\":1158:1159  1 */\n      0x01\n        /* \"contracts/poll_system.sol\":1143:1154  polls_count */\n      0x00\n      dup1\n        /* \"contracts/poll_system.sol\":1143:1159  polls_count += 1 */\n      dup3\n      dup3\n      sload\n      tag_44\n      swap2\n      swap1\n      tag_45\n      jump\t// in\n    tag_44:\n      swap3\n      pop\n      pop\n      dup2\n      swap1\n      sstore\n      pop\n        /* \"contracts/poll_system.sol\":754:1166  {... */\n      pop\n      pop\n      pop\n        /* \"contracts/poll_system.sol\":703:1166  function CreatePoll(string memory question) public {... */\n      pop\n      jump\t// out\n        /* \"contracts/poll_system.sol\":616:655  mapping(uint => voterInfo) public voter */\n    tag_20:\n      mstore(0x20, 0x02)\n      dup1\n      0x00\n      mstore\n      keccak256(0x00, 0x40)\n      0x00\n      swap2\n      pop\n      swap1\n      pop\n      dup1\n      0x00\n      add\n      sload\n      swap1\n      dup1\n      0x01\n      add\n      dup1\n      sload\n      tag_46\n      swap1\n      tag_47\n      jump\t// in\n    tag_46:\n      dup1\n      0x1f\n      add\n      0x20\n      dup1\n      swap2\n      div\n      mul\n      0x20\n      add\n      mload(0x40)\n      swap1\n      dup2\n      add\n      0x40\n      mstore\n      dup1\n      swap3\n      swap2\n      swap1\n      dup2\n      dup2\n      mstore\n      0x20\n      add\n      dup3\n      dup1\n      sload\n      tag_48\n      swap1\n      tag_47\n      jump\t// in\n    tag_48:\n      dup1\n      iszero\n      tag_49\n      jumpi\n      dup1\n      0x1f\n      lt\n      tag_50\n      jumpi\n      0x0100\n      dup1\n      dup4\n      sload\n      div\n      mul\n      dup4\n      mstore\n      swap2\n      0x20\n      add\n      swap2\n      jump(tag_49)\n    tag_50:\n      dup3\n      add\n      swap2\n      swap1\n      0x00\n      mstore\n      keccak256(0x00, 0x20)\n      swap1\n    tag_51:\n      dup2\n      sload\n      dup2\n      mstore\n      swap1\n      0x01\n      add\n      swap1\n      0x20\n      add\n      dup1\n      dup4\n      gt\n      tag_51\n      jumpi\n      dup3\n      swap1\n      sub\n      0x1f\n      and\n      dup3\n      add\n      swap2\n    tag_49:\n      pop\n      pop\n      pop\n      pop\n      pop\n      swap1\n      dup1\n      0x02\n      add\n      sload\n      swap1\n      dup1\n      0x03\n      add\n      sload\n      swap1\n      dup1\n      0x04\n      add\n      sload\n      swap1\n      pop\n      dup6\n      jump\t// out\n        /* \"contracts/poll_system.sol\":1172:1462  function createVoter(uint id, string memory name) public {... */\n    tag_26:\n        /* \"contracts/poll_system.sol\":1239:1254  uint voter_poll */\n      0x00\n        /* \"contracts/poll_system.sol\":1257:1262  voter */\n      0x02\n        /* \"contracts/poll_system.sol\":1257:1266  voter[id] */\n      0x00\n        /* \"contracts/poll_system.sol\":1263:1265  id */\n      dup5\n        /* \"contracts/poll_system.sol\":1257:1266  voter[id] */\n      dup2\n      mstore\n      0x20\n      add\n      swap1\n      dup2\n      mstore\n      0x20\n      add\n      0x00\n      keccak256\n        /* \"contracts/poll_system.sol\":1257:1275  voter[id].ans_poll */\n      0x02\n      add\n      sload\n        /* \"contracts/poll_system.sol\":1239:1275  uint voter_poll = voter[id].ans_poll */\n      swap1\n      pop\n        /* \"contracts/poll_system.sol\":1285:1302  uint voter_poll_y */\n      0x00\n        /* \"contracts/poll_system.sol\":1304:1309  voter */\n      0x02\n        /* \"contracts/poll_system.sol\":1304:1313  voter[id] */\n      0x00\n        /* \"contracts/poll_system.sol\":1310:1312  id */\n      dup6\n        /* \"contracts/poll_system.sol\":1304:1313  voter[id] */\n      dup2\n      mstore\n      0x20\n      add\n      swap1\n      dup2\n      mstore\n      0x20\n      add\n      0x00\n      keccak256\n        /* \"contracts/poll_system.sol\":1304:1324  voter[id].ans_poll_y */\n      0x03\n      add\n      sload\n        /* \"contracts/poll_system.sol\":1285:1324  uint voter_poll_y= voter[id].ans_poll_y */\n      swap1\n      pop\n        /* \"contracts/poll_system.sol\":1334:1351  uint voter_poll_n */\n      0x00\n        /* \"contracts/poll_system.sol\":1354:1359  voter */\n      0x02\n        /* \"contracts/poll_system.sol\":1354:1363  voter[id] */\n      0x00\n        /* \"contracts/poll_system.sol\":1360:1362  id */\n      dup7\n        /* \"contracts/poll_system.sol\":1354:1363  voter[id] */\n      dup2\n      mstore\n      0x20\n      add\n      swap1\n      dup2\n      mstore\n      0x20\n      add\n      0x00\n      keccak256\n        /* \"contracts/poll_system.sol\":1354:1374  voter[id].ans_poll_n */\n      0x04\n      add\n      sload\n        /* \"contracts/poll_system.sol\":1334:1374  uint voter_poll_n = voter[id].ans_poll_n */\n      swap1\n      pop\n        /* \"contracts/poll_system.sol\":1396:1455  voterInfo(id, name, voter_poll, voter_poll_y, voter_poll_n) */\n      mload(0x40)\n      dup1\n      0xa0\n      add\n      0x40\n      mstore\n      dup1\n        /* \"contracts/poll_system.sol\":1406:1408  id */\n      dup7\n        /* \"contracts/poll_system.sol\":1396:1455  voterInfo(id, name, voter_poll, voter_poll_y, voter_poll_n) */\n      dup2\n      mstore\n      0x20\n      add\n        /* \"contracts/poll_system.sol\":1410:1414  name */\n      dup6\n        /* \"contracts/poll_system.sol\":1396:1455  voterInfo(id, name, voter_poll, voter_poll_y, voter_poll_n) */\n      dup2\n      mstore\n      0x20\n      add\n        /* \"contracts/poll_system.sol\":1416:1426  voter_poll */\n      dup5\n        /* \"contracts/poll_system.sol\":1396:1455  voterInfo(id, name, voter_poll, voter_poll_y, voter_poll_n) */\n      dup2\n      mstore\n      0x20\n      add\n        /* \"contracts/poll_system.sol\":1428:1440  voter_poll_y */\n      dup4\n        /* \"contracts/poll_system.sol\":1396:1455  voterInfo(id, name, voter_poll, voter_poll_y, voter_poll_n) */\n      dup2\n      mstore\n      0x20\n      add\n        /* \"contracts/poll_system.sol\":1442:1454  voter_poll_n */\n      dup3\n        /* \"contracts/poll_system.sol\":1396:1455  voterInfo(id, name, voter_poll, voter_poll_y, voter_poll_n) */\n      dup2\n      mstore\n      pop\n        /* \"contracts/poll_system.sol\":1384:1389  voter */\n      0x02\n        /* \"contracts/poll_system.sol\":1384:1393  voter[id] */\n      0x00\n        /* \"contracts/poll_system.sol\":1390:1392  id */\n      dup8\n        /* \"contracts/poll_system.sol\":1384:1393  voter[id] */\n      dup2\n      mstore\n      0x20\n      add\n      swap1\n      dup2\n      mstore\n      0x20\n      add\n      0x00\n      keccak256\n        /* \"contracts/poll_system.sol\":1384:1455  voter[id] = voterInfo(id, name, voter_poll, voter_poll_y, voter_poll_n) */\n      0x00\n      dup3\n      add\n      mload\n      dup2\n      0x00\n      add\n      sstore\n      0x20\n      dup3\n      add\n      mload\n      dup2\n      0x01\n      add\n      swap1\n      dup2\n      tag_53\n      swap2\n      swap1\n      tag_43\n      jump\t// in\n    tag_53:\n      pop\n      0x40\n      dup3\n      add\n      mload\n      dup2\n      0x02\n      add\n      sstore\n      0x60\n      dup3\n      add\n      mload\n      dup2\n      0x03\n      add\n      sstore\n      0x80\n      dup3\n      add\n      mload\n      dup2\n      0x04\n      add\n      sstore\n      swap1\n      pop\n      pop\n        /* \"contracts/poll_system.sol\":1229:1462  {... */\n      pop\n      pop\n      pop\n        /* \"contracts/poll_system.sol\":1172:1462  function createVoter(uint id, string memory name) public {... */\n      pop\n      pop\n      jump\t// out\n        /* \"contracts/poll_system.sol\":1468:2000  function poll_ans(address pollid, uint voterid, uint ans) public {... */\n    tag_30:\n        /* \"contracts/poll_system.sol\":1588:1589  1 */\n      0x01\n        /* \"contracts/poll_system.sol\":1581:1584  ans */\n      dup2\n        /* \"contracts/poll_system.sol\":1581:1589  ans == 1 */\n      sub\n        /* \"contracts/poll_system.sol\":1578:1829  if(ans == 1){... */\n      tag_55\n      jumpi\n        /* \"contracts/poll_system.sol\":1610:1611  1 */\n      0x01\n        /* \"contracts/poll_system.sol\":1604:1611  ans = 1 */\n      swap1\n      pop\n        /* \"contracts/poll_system.sol\":1650:1651  1 */\n      0x01\n        /* \"contracts/poll_system.sol\":1625:1630  polls */\n      dup1\n        /* \"contracts/poll_system.sol\":1625:1638  polls[pollid] */\n      0x00\n        /* \"contracts/poll_system.sol\":1631:1637  pollid */\n      dup6\n        /* \"contracts/poll_system.sol\":1625:1638  polls[pollid] */\n      0xffffffffffffffffffffffffffffffffffffffff\n      and\n      0xffffffffffffffffffffffffffffffffffffffff\n      and\n      dup2\n      mstore\n      0x20\n      add\n      swap1\n      dup2\n      mstore\n      0x20\n      add\n      0x00\n      keccak256\n        /* \"contracts/poll_system.sol\":1625:1646  polls[pollid].y_count */\n      0x03\n      add\n      0x00\n        /* \"contracts/poll_system.sol\":1625:1651  polls[pollid].y_count += 1 */\n      dup3\n      dup3\n      sload\n      tag_56\n      swap2\n      swap1\n      tag_45\n      jump\t// in\n    tag_56:\n      swap3\n      pop\n      pop\n      dup2\n      swap1\n      sstore\n      pop\n        /* \"contracts/poll_system.sol\":1694:1695  1 */\n      0x01\n        /* \"contracts/poll_system.sol\":1665:1670  voter */\n      0x02\n        /* \"contracts/poll_system.sol\":1665:1679  voter[voterid] */\n      0x00\n        /* \"contracts/poll_system.sol\":1671:1678  voterid */\n      dup5\n        /* \"contracts/poll_system.sol\":1665:1679  voter[voterid] */\n      dup2\n      mstore\n      0x20\n      add\n      swap1\n      dup2\n      mstore\n      0x20\n      add\n      0x00\n      keccak256\n        /* \"contracts/poll_system.sol\":1665:1690  voter[voterid].ans_poll_y */\n      0x03\n      add\n      0x00\n        /* \"contracts/poll_system.sol\":1665:1695  voter[voterid].ans_poll_y += 1 */\n      dup3\n      dup3\n      sload\n      tag_57\n      swap2\n      swap1\n      tag_45\n      jump\t// in\n    tag_57:\n      swap3\n      pop\n      pop\n      dup2\n      swap1\n      sstore\n      pop\n        /* \"contracts/poll_system.sol\":1578:1829  if(ans == 1){... */\n      jump(tag_58)\n    tag_55:\n        /* \"contracts/poll_system.sol\":1733:1734  0 */\n      0x00\n        /* \"contracts/poll_system.sol\":1727:1734  ans = 0 */\n      swap1\n      pop\n        /* \"contracts/poll_system.sol\":1773:1774  1 */\n      0x01\n        /* \"contracts/poll_system.sol\":1748:1753  polls */\n      dup1\n        /* \"contracts/poll_system.sol\":1748:1761  polls[pollid] */\n      0x00\n        /* \"contracts/poll_system.sol\":1754:1760  pollid */\n      dup6\n        /* \"contracts/poll_system.sol\":1748:1761  polls[pollid] */\n      0xffffffffffffffffffffffffffffffffffffffff\n      and\n      0xffffffffffffffffffffffffffffffffffffffff\n      and\n      dup2\n      mstore\n      0x20\n      add\n      swap1\n      dup2\n      mstore\n      0x20\n      add\n      0x00\n      keccak256\n        /* \"contracts/poll_system.sol\":1748:1769  polls[pollid].n_count */\n      0x04\n      add\n      0x00\n        /* \"contracts/poll_system.sol\":1748:1774  polls[pollid].n_count += 1 */\n      dup3\n      dup3\n      sload\n      tag_59\n      swap2\n      swap1\n      tag_45\n      jump\t// in\n    tag_59:\n      swap3\n      pop\n      pop\n      dup2\n      swap1\n      sstore\n      pop\n        /* \"contracts/poll_system.sol\":1817:1818  1 */\n      0x01\n        /* \"contracts/poll_system.sol\":1788:1793  voter */\n      0x02\n        /* \"contracts/poll_system.sol\":1788:1802  voter[voterid] */\n      0x00\n        /* \"contracts/poll_system.sol\":1794:1801  voterid */\n      dup5\n        /* \"contracts/poll_system.sol\":1788:1802  voter[voterid] */\n      dup2\n      mstore\n      0x20\n      add\n      swap1\n      dup2\n      mstore\n      0x20\n      add\n      0x00\n      keccak256\n        /* \"contracts/poll_system.sol\":1788:1813  voter[voterid].ans_poll_n */\n      0x04\n      add\n      0x00\n        /* \"contracts/poll_system.sol\":1788:1818  voter[voterid].ans_poll_n += 1 */\n      dup3\n      dup3\n      sload\n      tag_60\n      swap2\n      swap1\n      tag_45\n      jump\t// in\n    tag_60:\n      swap3\n      pop\n      pop\n      dup2\n      swap1\n      sstore\n      pop\n        /* \"contracts/poll_system.sol\":1578:1829  if(ans == 1){... */\n    tag_58:\n        /* \"contracts/poll_system.sol\":1860:1917  pollAns(polls[pollid].question, ans, voter[voterid].name) */\n      mload(0x40)\n      dup1\n      0x60\n      add\n      0x40\n      mstore\n      dup1\n        /* \"contracts/poll_system.sol\":1868:1873  polls */\n      0x01\n        /* \"contracts/poll_system.sol\":1868:1881  polls[pollid] */\n      0x00\n        /* \"contracts/poll_system.sol\":1874:1880  pollid */\n      dup7\n        /* \"contracts/poll_system.sol\":1868:1881  polls[pollid] */\n      0xffffffffffffffffffffffffffffffffffffffff\n      and\n      0xffffffffffffffffffffffffffffffffffffffff\n      and\n      dup2\n      mstore\n      0x20\n      add\n      swap1\n      dup2\n      mstore\n      0x20\n      add\n      0x00\n      keccak256\n        /* \"contracts/poll_system.sol\":1868:1890  polls[pollid].question */\n      0x01\n      add\n        /* \"contracts/poll_system.sol\":1860:1917  pollAns(polls[pollid].question, ans, voter[voterid].name) */\n      dup1\n      sload\n      tag_61\n      swap1\n      tag_47\n      jump\t// in\n    tag_61:\n      dup1\n      0x1f\n      add\n      0x20\n      dup1\n      swap2\n      div\n      mul\n      0x20\n      add\n      mload(0x40)\n      swap1\n      dup2\n      add\n      0x40\n      mstore\n      dup1\n      swap3\n      swap2\n      swap1\n      dup2\n      dup2\n      mstore\n      0x20\n      add\n      dup3\n      dup1\n      sload\n      tag_62\n      swap1\n      tag_47\n      jump\t// in\n    tag_62:\n      dup1\n      iszero\n      tag_63\n      jumpi\n      dup1\n      0x1f\n      lt\n      tag_64\n      jumpi\n      0x0100\n      dup1\n      dup4\n      sload\n      div\n      mul\n      dup4\n      mstore\n      swap2\n      0x20\n      add\n      swap2\n      jump(tag_63)\n    tag_64:\n      dup3\n      add\n      swap2\n      swap1\n      0x00\n      mstore\n      keccak256(0x00, 0x20)\n      swap1\n    tag_65:\n      dup2\n      sload\n      dup2\n      mstore\n      swap1\n      0x01\n      add\n      swap1\n      0x20\n      add\n      dup1\n      dup4\n      gt\n      tag_65\n      jumpi\n      dup3\n      swap1\n      sub\n      0x1f\n      and\n      dup3\n      add\n      swap2\n    tag_63:\n      pop\n      pop\n      pop\n      pop\n      pop\n      dup2\n      mstore\n      0x20\n      add\n        /* \"contracts/poll_system.sol\":1892:1895  ans */\n      dup3\n        /* \"contracts/poll_system.sol\":1860:1917  pollAns(polls[pollid].question, ans, voter[voterid].name) */\n      dup2\n      mstore\n      0x20\n      add\n        /* \"contracts/poll_system.sol\":1897:1902  voter */\n      0x02\n        /* \"contracts/poll_system.sol\":1897:1911  voter[voterid] */\n      0x00\n        /* \"contracts/poll_system.sol\":1903:1910  voterid */\n      dup6\n        /* \"contracts/poll_system.sol\":1897:1911  voter[voterid] */\n      dup2\n      mstore\n      0x20\n      add\n      swap1\n      dup2\n      mstore\n      0x20\n      add\n      0x00\n      keccak256\n        /* \"contracts/poll_system.sol\":1897:1916  voter[voterid].name */\n      0x01\n      add\n        /* \"contracts/poll_system.sol\":1860:1917  pollAns(polls[pollid].question, ans, voter[voterid].name) */\n      dup1\n      sload\n      tag_66\n      swap1\n      tag_47\n      jump\t// in\n    tag_66:\n      dup1\n      0x1f\n      add\n      0x20\n      dup1\n      swap2\n      div\n      mul\n      0x20\n      add\n      mload(0x40)\n      swap1\n      dup2\n      add\n      0x40\n      mstore\n      dup1\n      swap3\n      swap2\n      swap1\n      dup2\n      dup2\n      mstore\n      0x20\n      add\n      dup3\n      dup1\n      sload\n      tag_67\n      swap1\n      tag_47\n      jump\t// in\n    tag_67:\n      dup1\n      iszero\n      tag_68\n      jumpi\n      dup1\n      0x1f\n      lt\n      tag_69\n      jumpi\n      0x0100\n      dup1\n      dup4\n      sload\n      div\n      mul\n      dup4\n      mstore\n      swap2\n      0x20\n      add\n      swap2\n      jump(tag_68)\n    tag_69:\n      dup3\n      add\n      swap2\n      swap1\n      0x00\n      mstore\n      keccak256(0x00, 0x20)\n      swap1\n    tag_70:\n      dup2\n      sload\n      dup2\n      mstore\n      swap1\n      0x01\n      add\n      swap1\n      0x20\n      add\n      dup1\n      dup4\n      gt\n      tag_70\n      jumpi\n      dup3\n      swap1\n      sub\n      0x1f\n      and\n      dup3\n      add\n      swap2\n    tag_68:\n      pop\n      pop\n      pop\n      pop\n      pop\n      dup2\n      mstore\n      pop\n        /* \"contracts/poll_system.sol\":1838:1848  pollAnswer */\n      0x03\n        /* \"contracts/poll_system.sol\":1838:1857  pollAnswer[voterid] */\n      0x00\n        /* \"contracts/poll_system.sol\":1849:1856  voterid */\n      dup5\n        /* \"contracts/poll_system.sol\":1838:1857  pollAnswer[voterid] */\n      dup2\n      mstore\n      0x20\n      add\n      swap1\n      dup2\n      mstore\n      0x20\n      add\n      0x00\n      keccak256\n        /* \"contracts/poll_system.sol\":1838:1917  pollAnswer[voterid] = pollAns(polls[pollid].question, ans, voter[voterid].name) */\n      0x00\n      dup3\n      add\n      mload\n      dup2\n      0x00\n      add\n      swap1\n      dup2\n      tag_71\n      swap2\n      swap1\n      tag_43\n      jump\t// in\n    tag_71:\n      pop\n      0x20\n      dup3\n      add\n      mload\n      dup2\n      0x01\n      add\n      sstore\n      0x40\n      dup3\n      add\n      mload\n      dup2\n      0x02\n      add\n      swap1\n      dup2\n      tag_72\n      swap2\n      swap1\n      tag_43\n      jump\t// in\n    tag_72:\n      pop\n      swap1\n      pop\n      pop\n        /* \"contracts/poll_system.sol\":1954:1955  1 */\n      0x01\n        /* \"contracts/poll_system.sol\":1927:1932  polls */\n      dup1\n        /* \"contracts/poll_system.sol\":1927:1940  polls[pollid] */\n      0x00\n        /* \"contracts/poll_system.sol\":1933:1939  pollid */\n      dup6\n        /* \"contracts/poll_system.sol\":1927:1940  polls[pollid] */\n      0xffffffffffffffffffffffffffffffffffffffff\n      and\n      0xffffffffffffffffffffffffffffffffffffffff\n      and\n      dup2\n      mstore\n      0x20\n      add\n      swap1\n      dup2\n      mstore\n      0x20\n      add\n      0x00\n      keccak256\n        /* \"contracts/poll_system.sol\":1927:1950  polls[pollid].total_ans */\n      0x02\n      add\n      0x00\n        /* \"contracts/poll_system.sol\":1927:1955  polls[pollid].total_ans += 1 */\n      dup3\n      dup3\n      sload\n      tag_73\n      swap2\n      swap1\n      tag_45\n      jump\t// in\n    tag_73:\n      swap3\n      pop\n      pop\n      dup2\n      swap1\n      sstore\n      pop\n        /* \"contracts/poll_system.sol\":1992:1993  1 */\n      0x01\n        /* \"contracts/poll_system.sol\":1965:1970  voter */\n      0x02\n        /* \"contracts/poll_system.sol\":1965:1979  voter[voterid] */\n      0x00\n        /* \"contracts/poll_system.sol\":1971:1978  voterid */\n      dup5\n        /* \"contracts/poll_system.sol\":1965:1979  voter[voterid] */\n      dup2\n      mstore\n      0x20\n      add\n      swap1\n      dup2\n      mstore\n      0x20\n      add\n      0x00\n      keccak256\n        /* \"contracts/poll_system.sol\":1965:1988  voter[voterid].ans_poll */\n      0x02\n      add\n      0x00\n        /* \"contracts/poll_system.sol\":1965:1993  voter[voterid].ans_poll += 1 */\n      dup3\n      dup3\n      sload\n      tag_74\n      swap2\n      swap1\n      tag_45\n      jump\t// in\n    tag_74:\n      swap3\n      pop\n      pop\n      dup2\n      swap1\n      sstore\n      pop\n        /* \"contracts/poll_system.sol\":1468:2000  function poll_ans(address pollid, uint voterid, uint ans) public {... */\n      pop\n      pop\n      pop\n      jump\t// out\n        /* \"contracts/poll_system.sol\":569:610  mapping(address => pollInfo) public polls */\n    tag_34:\n      mstore(0x20, 0x01)\n      dup1\n      0x00\n      mstore\n      keccak256(0x00, 0x40)\n      0x00\n      swap2\n      pop\n      swap1\n      pop\n      dup1\n      0x00\n      add\n      0x00\n      swap1\n      sload\n      swap1\n      0x0100\n      exp\n      swap1\n      div\n      0xffffffffffffffffffffffffffffffffffffffff\n      and\n      swap1\n      dup1\n      0x01\n      add\n      dup1\n      sload\n      tag_75\n      swap1\n      tag_47\n      jump\t// in\n    tag_75:\n      dup1\n      0x1f\n      add\n      0x20\n      dup1\n      swap2\n      div\n      mul\n      0x20\n      add\n      mload(0x40)\n      swap1\n      dup2\n      add\n      0x40\n      mstore\n      dup1\n      swap3\n      swap2\n      swap1\n      dup2\n      dup2\n      mstore\n      0x20\n      add\n      dup3\n      dup1\n      sload\n      tag_76\n      swap1\n      tag_47\n      jump\t// in\n    tag_76:\n      dup1\n      iszero\n      tag_77\n      jumpi\n      dup1\n      0x1f\n      lt\n      tag_78\n      jumpi\n      0x0100\n      dup1\n      dup4\n      sload\n      div\n      mul\n      dup4\n      mstore\n      swap2\n      0x20\n      add\n      swap2\n      jump(tag_77)\n    tag_78:\n      dup3\n      add\n      swap2\n      swap1\n      0x00\n      mstore\n      keccak256(0x00, 0x20)\n      swap1\n    tag_79:\n      dup2\n      sload\n      dup2\n      mstore\n      swap1\n      0x01\n      add\n      swap1\n      0x20\n      add\n      dup1\n      dup4\n      gt\n      tag_79\n      jumpi\n      dup3\n      swap1\n      sub\n      0x1f\n      and\n      dup3\n      add\n      swap2\n    tag_77:\n      pop\n      pop\n      pop\n      pop\n      pop\n      swap1\n      dup1\n      0x02\n      add\n      sload\n      swap1\n      dup1\n      0x03\n      add\n      sload\n      swap1\n      dup1\n      0x04\n      add\n      sload\n      swap1\n      pop\n      dup6\n      jump\t// out\n        /* \"#utility.yul\":7:84   */\n    tag_80:\n        /* \"#utility.yul\":44:51   */\n      0x00\n        /* \"#utility.yul\":73:78   */\n      dup2\n        /* \"#utility.yul\":62:78   */\n      swap1\n      pop\n        /* \"#utility.yul\":7:84   */\n      swap2\n      swap1\n      pop\n      jump\t// out\n        /* \"#utility.yul\":90:208   */\n    tag_81:\n        /* \"#utility.yul\":177:201   */\n      tag_128\n        /* \"#utility.yul\":195:200   */\n      dup2\n        /* \"#utility.yul\":177:201   */\n      tag_80\n      jump\t// in\n    tag_128:\n        /* \"#utility.yul\":172:175   */\n      dup3\n        /* \"#utility.yul\":165:202   */\n      mstore\n        /* \"#utility.yul\":90:208   */\n      pop\n      pop\n      jump\t// out\n        /* \"#utility.yul\":214:436   */\n    tag_12:\n        /* \"#utility.yul\":307:311   */\n      0x00\n        /* \"#utility.yul\":345:347   */\n      0x20\n        /* \"#utility.yul\":334:343   */\n      dup3\n        /* \"#utility.yul\":330:348   */\n      add\n        /* \"#utility.yul\":322:348   */\n      swap1\n      pop\n        /* \"#utility.yul\":358:429   */\n      tag_130\n        /* \"#utility.yul\":426:427   */\n      0x00\n        /* \"#utility.yul\":415:424   */\n      dup4\n        /* \"#utility.yul\":411:428   */\n      add\n        /* \"#utility.yul\":402:408   */\n      dup5\n        /* \"#utility.yul\":358:429   */\n      tag_81\n      jump\t// in\n    tag_130:\n        /* \"#utility.yul\":214:436   */\n      swap3\n      swap2\n      pop\n      pop\n      jump\t// out\n        /* \"#utility.yul\":442:517   */\n    tag_82:\n        /* \"#utility.yul\":475:481   */\n      0x00\n        /* \"#utility.yul\":508:510   */\n      0x40\n        /* \"#utility.yul\":502:511   */\n      mload\n        /* \"#utility.yul\":492:511   */\n      swap1\n      pop\n        /* \"#utility.yul\":442:517   */\n      swap1\n      jump\t// out\n        /* \"#utility.yul\":523:640   */\n    tag_83:\n        /* \"#utility.yul\":632:633   */\n      0x00\n        /* \"#utility.yul\":629:630   */\n      dup1\n        /* \"#utility.yul\":622:634   */\n      revert\n        /* \"#utility.yul\":646:763   */\n    tag_84:\n        /* \"#utility.yul\":755:756   */\n      0x00\n        /* \"#utility.yul\":752:753   */\n      dup1\n        /* \"#utility.yul\":745:757   */\n      revert\n        /* \"#utility.yul\":769:886   */\n    tag_85:\n        /* \"#utility.yul\":878:879   */\n      0x00\n        /* \"#utility.yul\":875:876   */\n      dup1\n        /* \"#utility.yul\":868:880   */\n      revert\n        /* \"#utility.yul\":892:1009   */\n    tag_86:\n        /* \"#utility.yul\":1001:1002   */\n      0x00\n        /* \"#utility.yul\":998:999   */\n      dup1\n        /* \"#utility.yul\":991:1003   */\n      revert\n        /* \"#utility.yul\":1015:1117   */\n    tag_87:\n        /* \"#utility.yul\":1056:1062   */\n      0x00\n        /* \"#utility.yul\":1107:1109   */\n      0x1f\n        /* \"#utility.yul\":1103:1110   */\n      not\n        /* \"#utility.yul\":1098:1100   */\n      0x1f\n        /* \"#utility.yul\":1091:1096   */\n      dup4\n        /* \"#utility.yul\":1087:1101   */\n      add\n        /* \"#utility.yul\":1083:1111   */\n      and\n        /* \"#utility.yul\":1073:1111   */\n      swap1\n      pop\n        /* \"#utility.yul\":1015:1117   */\n      swap2\n      swap1\n      pop\n      jump\t// out\n        /* \"#utility.yul\":1123:1303   */\n    tag_88:\n        /* \"#utility.yul\":1171:1248   */\n      0x4e487b7100000000000000000000000000000000000000000000000000000000\n        /* \"#utility.yul\":1168:1169   */\n      0x00\n        /* \"#utility.yul\":1161:1249   */\n      mstore\n        /* \"#utility.yul\":1268:1272   */\n      0x41\n        /* \"#utility.yul\":1265:1266   */\n      0x04\n        /* \"#utility.yul\":1258:1273   */\n      mstore\n        /* \"#utility.yul\":1292:1296   */\n      0x24\n        /* \"#utility.yul\":1289:1290   */\n      0x00\n        /* \"#utility.yul\":1282:1297   */\n      revert\n        /* \"#utility.yul\":1309:1590   */\n    tag_89:\n        /* \"#utility.yul\":1392:1419   */\n      tag_139\n        /* \"#utility.yul\":1414:1418   */\n      dup3\n        /* \"#utility.yul\":1392:1419   */\n      tag_87\n      jump\t// in\n    tag_139:\n        /* \"#utility.yul\":1384:1390   */\n      dup2\n        /* \"#utility.yul\":1380:1420   */\n      add\n        /* \"#utility.yul\":1522:1528   */\n      dup2\n        /* \"#utility.yul\":1510:1520   */\n      dup2\n        /* \"#utility.yul\":1507:1529   */\n      lt\n        /* \"#utility.yul\":1486:1504   */\n      0xffffffffffffffff\n        /* \"#utility.yul\":1474:1484   */\n      dup3\n        /* \"#utility.yul\":1471:1505   */\n      gt\n        /* \"#utility.yul\":1468:1530   */\n      or\n        /* \"#utility.yul\":1465:1553   */\n      iszero\n      tag_140\n      jumpi\n        /* \"#utility.yul\":1533:1551   */\n      tag_141\n      tag_88\n      jump\t// in\n    tag_141:\n        /* \"#utility.yul\":1465:1553   */\n    tag_140:\n        /* \"#utility.yul\":1573:1583   */\n      dup1\n        /* \"#utility.yul\":1569:1571   */\n      0x40\n        /* \"#utility.yul\":1562:1584   */\n      mstore\n        /* \"#utility.yul\":1352:1590   */\n      pop\n        /* \"#utility.yul\":1309:1590   */\n      pop\n      pop\n      jump\t// out\n        /* \"#utility.yul\":1596:1725   */\n    tag_90:\n        /* \"#utility.yul\":1630:1636   */\n      0x00\n        /* \"#utility.yul\":1657:1677   */\n      tag_143\n      tag_82\n      jump\t// in\n    tag_143:\n        /* \"#utility.yul\":1647:1677   */\n      swap1\n      pop\n        /* \"#utility.yul\":1686:1719   */\n      tag_144\n        /* \"#utility.yul\":1714:1718   */\n      dup3\n        /* \"#utility.yul\":1706:1712   */\n      dup3\n        /* \"#utility.yul\":1686:1719   */\n      tag_89\n      jump\t// in\n    tag_144:\n        /* \"#utility.yul\":1596:1725   */\n      swap2\n      swap1\n      pop\n      jump\t// out\n        /* \"#utility.yul\":1731:2039   */\n    tag_91:\n        /* \"#utility.yul\":1793:1797   */\n      0x00\n        /* \"#utility.yul\":1883:1901   */\n      0xffffffffffffffff\n        /* \"#utility.yul\":1875:1881   */\n      dup3\n        /* \"#utility.yul\":1872:1902   */\n      gt\n        /* \"#utility.yul\":1869:1925   */\n      iszero\n      tag_146\n      jumpi\n        /* \"#utility.yul\":1905:1923   */\n      tag_147\n      tag_88\n      jump\t// in\n    tag_147:\n        /* \"#utility.yul\":1869:1925   */\n    tag_146:\n        /* \"#utility.yul\":1943:1972   */\n      tag_148\n        /* \"#utility.yul\":1965:1971   */\n      dup3\n        /* \"#utility.yul\":1943:1972   */\n      tag_87\n      jump\t// in\n    tag_148:\n        /* \"#utility.yul\":1935:1972   */\n      swap1\n      pop\n        /* \"#utility.yul\":2027:2031   */\n      0x20\n        /* \"#utility.yul\":2021:2025   */\n      dup2\n        /* \"#utility.yul\":2017:2032   */\n      add\n        /* \"#utility.yul\":2009:2032   */\n      swap1\n      pop\n        /* \"#utility.yul\":1731:2039   */\n      swap2\n      swap1\n      pop\n      jump\t// out\n        /* \"#utility.yul\":2045:2191   */\n    tag_92:\n        /* \"#utility.yul\":2142:2148   */\n      dup3\n        /* \"#utility.yul\":2137:2140   */\n      dup2\n        /* \"#utility.yul\":2132:2135   */\n      dup4\n        /* \"#utility.yul\":2119:2149   */\n      calldatacopy\n        /* \"#utility.yul\":2183:2184   */\n      0x00\n        /* \"#utility.yul\":2174:2180   */\n      dup4\n        /* \"#utility.yul\":2169:2172   */\n      dup4\n        /* \"#utility.yul\":2165:2181   */\n      add\n        /* \"#utility.yul\":2158:2185   */\n      mstore\n        /* \"#utility.yul\":2045:2191   */\n      pop\n      pop\n      pop\n      jump\t// out\n        /* \"#utility.yul\":2197:2622   */\n    tag_93:\n        /* \"#utility.yul\":2275:2280   */\n      0x00\n        /* \"#utility.yul\":2300:2366   */\n      tag_151\n        /* \"#utility.yul\":2316:2365   */\n      tag_152\n        /* \"#utility.yul\":2358:2364   */\n      dup5\n        /* \"#utility.yul\":2316:2365   */\n      tag_91\n      jump\t// in\n    tag_152:\n        /* \"#utility.yul\":2300:2366   */\n      tag_90\n      jump\t// in\n    tag_151:\n        /* \"#utility.yul\":2291:2366   */\n      swap1\n      pop\n        /* \"#utility.yul\":2389:2395   */\n      dup3\n        /* \"#utility.yul\":2382:2387   */\n      dup2\n        /* \"#utility.yul\":2375:2396   */\n      mstore\n        /* \"#utility.yul\":2427:2431   */\n      0x20\n        /* \"#utility.yul\":2420:2425   */\n      dup2\n        /* \"#utility.yul\":2416:2432   */\n      add\n        /* \"#utility.yul\":2465:2468   */\n      dup5\n        /* \"#utility.yul\":2456:2462   */\n      dup5\n        /* \"#utility.yul\":2451:2454   */\n      dup5\n        /* \"#utility.yul\":2447:2463   */\n      add\n        /* \"#utility.yul\":2444:2469   */\n      gt\n        /* \"#utility.yul\":2441:2553   */\n      iszero\n      tag_153\n      jumpi\n        /* \"#utility.yul\":2472:2551   */\n      tag_154\n      tag_86\n      jump\t// in\n    tag_154:\n        /* \"#utility.yul\":2441:2553   */\n    tag_153:\n        /* \"#utility.yul\":2562:2616   */\n      tag_155\n        /* \"#utility.yul\":2609:2615   */\n      dup5\n        /* \"#utility.yul\":2604:2607   */\n      dup3\n        /* \"#utility.yul\":2599:2602   */\n      dup6\n        /* \"#utility.yul\":2562:2616   */\n      tag_92\n      jump\t// in\n    tag_155:\n        /* \"#utility.yul\":2281:2622   */\n      pop\n        /* \"#utility.yul\":2197:2622   */\n      swap4\n      swap3\n      pop\n      pop\n      pop\n      jump\t// out\n        /* \"#utility.yul\":2642:2982   */\n    tag_94:\n        /* \"#utility.yul\":2698:2703   */\n      0x00\n        /* \"#utility.yul\":2747:2750   */\n      dup3\n        /* \"#utility.yul\":2740:2744   */\n      0x1f\n        /* \"#utility.yul\":2732:2738   */\n      dup4\n        /* \"#utility.yul\":2728:2745   */\n      add\n        /* \"#utility.yul\":2724:2751   */\n      slt\n        /* \"#utility.yul\":2714:2836   */\n      tag_157\n      jumpi\n        /* \"#utility.yul\":2755:2834   */\n      tag_158\n      tag_85\n      jump\t// in\n    tag_158:\n        /* \"#utility.yul\":2714:2836   */\n    tag_157:\n        /* \"#utility.yul\":2872:2878   */\n      dup2\n        /* \"#utility.yul\":2859:2879   */\n      calldataload\n        /* \"#utility.yul\":2897:2976   */\n      tag_159\n        /* \"#utility.yul\":2972:2975   */\n      dup5\n        /* \"#utility.yul\":2964:2970   */\n      dup3\n        /* \"#utility.yul\":2957:2961   */\n      0x20\n        /* \"#utility.yul\":2949:2955   */\n      dup7\n        /* \"#utility.yul\":2945:2962   */\n      add\n        /* \"#utility.yul\":2897:2976   */\n      tag_93\n      jump\t// in\n    tag_159:\n        /* \"#utility.yul\":2888:2976   */\n      swap2\n      pop\n        /* \"#utility.yul\":2704:2982   */\n      pop\n        /* \"#utility.yul\":2642:2982   */\n      swap3\n      swap2\n      pop\n      pop\n      jump\t// out\n        /* \"#utility.yul\":2988:3497   */\n    tag_15:\n        /* \"#utility.yul\":3057:3063   */\n      0x00\n        /* \"#utility.yul\":3106:3108   */\n      0x20\n        /* \"#utility.yul\":3094:3103   */\n      dup3\n        /* \"#utility.yul\":3085:3092   */\n      dup5\n        /* \"#utility.yul\":3081:3104   */\n      sub\n        /* \"#utility.yul\":3077:3109   */\n      slt\n        /* \"#utility.yul\":3074:3193   */\n      iszero\n      tag_161\n      jumpi\n        /* \"#utility.yul\":3112:3191   */\n      tag_162\n      tag_83\n      jump\t// in\n    tag_162:\n        /* \"#utility.yul\":3074:3193   */\n    tag_161:\n        /* \"#utility.yul\":3260:3261   */\n      0x00\n        /* \"#utility.yul\":3249:3258   */\n      dup3\n        /* \"#utility.yul\":3245:3262   */\n      add\n        /* \"#utility.yul\":3232:3263   */\n      calldataload\n        /* \"#utility.yul\":3290:3308   */\n      0xffffffffffffffff\n        /* \"#utility.yul\":3282:3288   */\n      dup2\n        /* \"#utility.yul\":3279:3309   */\n      gt\n        /* \"#utility.yul\":3276:3393   */\n      iszero\n      tag_163\n      jumpi\n        /* \"#utility.yul\":3312:3391   */\n      tag_164\n      tag_84\n      jump\t// in\n    tag_164:\n        /* \"#utility.yul\":3276:3393   */\n    tag_163:\n        /* \"#utility.yul\":3417:3480   */\n      tag_165\n        /* \"#utility.yul\":3472:3479   */\n      dup5\n        /* \"#utility.yul\":3463:3469   */\n      dup3\n        /* \"#utility.yul\":3452:3461   */\n      dup6\n        /* \"#utility.yul\":3448:3470   */\n      add\n        /* \"#utility.yul\":3417:3480   */\n      tag_94\n      jump\t// in\n    tag_165:\n        /* \"#utility.yul\":3407:3480   */\n      swap2\n      pop\n        /* \"#utility.yul\":3203:3490   */\n      pop\n        /* \"#utility.yul\":2988:3497   */\n      swap3\n      swap2\n      pop\n      pop\n      jump\t// out\n        /* \"#utility.yul\":3503:3625   */\n    tag_95:\n        /* \"#utility.yul\":3576:3600   */\n      tag_167\n        /* \"#utility.yul\":3594:3599   */\n      dup2\n        /* \"#utility.yul\":3576:3600   */\n      tag_80\n      jump\t// in\n    tag_167:\n        /* \"#utility.yul\":3569:3574   */\n      dup2\n        /* \"#utility.yul\":3566:3601   */\n      eq\n        /* \"#utility.yul\":3556:3619   */\n      tag_168\n      jumpi\n        /* \"#utility.yul\":3615:3616   */\n      0x00\n        /* \"#utility.yul\":3612:3613   */\n      dup1\n        /* \"#utility.yul\":3605:3617   */\n      revert\n        /* \"#utility.yul\":3556:3619   */\n    tag_168:\n        /* \"#utility.yul\":3503:3625   */\n      pop\n      jump\t// out\n        /* \"#utility.yul\":3631:3770   */\n    tag_96:\n        /* \"#utility.yul\":3677:3682   */\n      0x00\n        /* \"#utility.yul\":3715:3721   */\n      dup2\n        /* \"#utility.yul\":3702:3722   */\n      calldataload\n        /* \"#utility.yul\":3693:3722   */\n      swap1\n      pop\n        /* \"#utility.yul\":3731:3764   */\n      tag_170\n        /* \"#utility.yul\":3758:3763   */\n      dup2\n        /* \"#utility.yul\":3731:3764   */\n      tag_95\n      jump\t// in\n    tag_170:\n        /* \"#utility.yul\":3631:3770   */\n      swap3\n      swap2\n      pop\n      pop\n      jump\t// out\n        /* \"#utility.yul\":3776:4105   */\n    tag_19:\n        /* \"#utility.yul\":3835:3841   */\n      0x00\n        /* \"#utility.yul\":3884:3886   */\n      0x20\n        /* \"#utility.yul\":3872:3881   */\n      dup3\n        /* \"#utility.yul\":3863:3870   */\n      dup5\n        /* \"#utility.yul\":3859:3882   */\n      sub\n        /* \"#utility.yul\":3855:3887   */\n      slt\n        /* \"#utility.yul\":3852:3971   */\n      iszero\n      tag_172\n      jumpi\n        /* \"#utility.yul\":3890:3969   */\n      tag_173\n      tag_83\n      jump\t// in\n    tag_173:\n        /* \"#utility.yul\":3852:3971   */\n    tag_172:\n        /* \"#utility.yul\":4010:4011   */\n      0x00\n        /* \"#utility.yul\":4035:4088   */\n      tag_174\n        /* \"#utility.yul\":4080:4087   */\n      dup5\n        /* \"#utility.yul\":4071:4077   */\n      dup3\n        /* \"#utility.yul\":4060:4069   */\n      dup6\n        /* \"#utility.yul\":4056:4078   */\n      add\n        /* \"#utility.yul\":4035:4088   */\n      tag_96\n      jump\t// in\n    tag_174:\n        /* \"#utility.yul\":4025:4088   */\n      swap2\n      pop\n        /* \"#utility.yul\":3981:4098   */\n      pop\n        /* \"#utility.yul\":3776:4105   */\n      swap3\n      swap2\n      pop\n      pop\n      jump\t// out\n        /* \"#utility.yul\":4111:4210   */\n    tag_97:\n        /* \"#utility.yul\":4163:4169   */\n      0x00\n        /* \"#utility.yul\":4197:4202   */\n      dup2\n        /* \"#utility.yul\":4191:4203   */\n      mload\n        /* \"#utility.yul\":4181:4203   */\n      swap1\n      pop\n        /* \"#utility.yul\":4111:4210   */\n      swap2\n      swap1\n      pop\n      jump\t// out\n        /* \"#utility.yul\":4216:4385   */\n    tag_98:\n        /* \"#utility.yul\":4300:4311   */\n      0x00\n        /* \"#utility.yul\":4334:4340   */\n      dup3\n        /* \"#utility.yul\":4329:4332   */\n      dup3\n        /* \"#utility.yul\":4322:4341   */\n      mstore\n        /* \"#utility.yul\":4374:4378   */\n      0x20\n        /* \"#utility.yul\":4369:4372   */\n      dup3\n        /* \"#utility.yul\":4365:4379   */\n      add\n        /* \"#utility.yul\":4350:4379   */\n      swap1\n      pop\n        /* \"#utility.yul\":4216:4385   */\n      swap3\n      swap2\n      pop\n      pop\n      jump\t// out\n        /* \"#utility.yul\":4391:4637   */\n    tag_99:\n        /* \"#utility.yul\":4472:4473   */\n      0x00\n        /* \"#utility.yul\":4482:4595   */\n    tag_178:\n        /* \"#utility.yul\":4496:4502   */\n      dup4\n        /* \"#utility.yul\":4493:4494   */\n      dup2\n        /* \"#utility.yul\":4490:4503   */\n      lt\n        /* \"#utility.yul\":4482:4595   */\n      iszero\n      tag_180\n      jumpi\n        /* \"#utility.yul\":4581:4582   */\n      dup1\n        /* \"#utility.yul\":4576:4579   */\n      dup3\n        /* \"#utility.yul\":4572:4583   */\n      add\n        /* \"#utility.yul\":4566:4584   */\n      mload\n        /* \"#utility.yul\":4562:4563   */\n      dup2\n        /* \"#utility.yul\":4557:4560   */\n      dup5\n        /* \"#utility.yul\":4553:4564   */\n      add\n        /* \"#utility.yul\":4546:4585   */\n      mstore\n        /* \"#utility.yul\":4518:4520   */\n      0x20\n        /* \"#utility.yul\":4515:4516   */\n      dup2\n        /* \"#utility.yul\":4511:4521   */\n      add\n        /* \"#utility.yul\":4506:4521   */\n      swap1\n      pop\n        /* \"#utility.yul\":4482:4595   */\n      jump(tag_178)\n    tag_180:\n        /* \"#utility.yul\":4629:4630   */\n      0x00\n        /* \"#utility.yul\":4620:4626   */\n      dup5\n        /* \"#utility.yul\":4615:4618   */\n      dup5\n        /* \"#utility.yul\":4611:4627   */\n      add\n        /* \"#utility.yul\":4604:4631   */\n      mstore\n        /* \"#utility.yul\":4453:4637   */\n      pop\n        /* \"#utility.yul\":4391:4637   */\n      pop\n      pop\n      pop\n      jump\t// out\n        /* \"#utility.yul\":4643:5020   */\n    tag_100:\n        /* \"#utility.yul\":4731:4734   */\n      0x00\n        /* \"#utility.yul\":4759:4798   */\n      tag_182\n        /* \"#utility.yul\":4792:4797   */\n      dup3\n        /* \"#utility.yul\":4759:4798   */\n      tag_97\n      jump\t// in\n    tag_182:\n        /* \"#utility.yul\":4814:4885   */\n      tag_183\n        /* \"#utility.yul\":4878:4884   */\n      dup2\n        /* \"#utility.yul\":4873:4876   */\n      dup6\n        /* \"#utility.yul\":4814:4885   */\n      tag_98\n      jump\t// in\n    tag_183:\n        /* \"#utility.yul\":4807:4885   */\n      swap4\n      pop\n        /* \"#utility.yul\":4894:4959   */\n      tag_184\n        /* \"#utility.yul\":4952:4958   */\n      dup2\n        /* \"#utility.yul\":4947:4950   */\n      dup6\n        /* \"#utility.yul\":4940:4944   */\n      0x20\n        /* \"#utility.yul\":4933:4938   */\n      dup7\n        /* \"#utility.yul\":4929:4945   */\n      add\n        /* \"#utility.yul\":4894:4959   */\n      tag_99\n      jump\t// in\n    tag_184:\n        /* \"#utility.yul\":4984:5013   */\n      tag_185\n        /* \"#utility.yul\":5006:5012   */\n      dup2\n        /* \"#utility.yul\":4984:5013   */\n      tag_87\n      jump\t// in\n    tag_185:\n        /* \"#utility.yul\":4979:4982   */\n      dup5\n        /* \"#utility.yul\":4975:5014   */\n      add\n        /* \"#utility.yul\":4968:5014   */\n      swap2\n      pop\n        /* \"#utility.yul\":4735:5020   */\n      pop\n        /* \"#utility.yul\":4643:5020   */\n      swap3\n      swap2\n      pop\n      pop\n      jump\t// out\n        /* \"#utility.yul\":5026:5781   */\n    tag_22:\n        /* \"#utility.yul\":5251:5255   */\n      0x00\n        /* \"#utility.yul\":5289:5292   */\n      0xa0\n        /* \"#utility.yul\":5278:5287   */\n      dup3\n        /* \"#utility.yul\":5274:5293   */\n      add\n        /* \"#utility.yul\":5266:5293   */\n      swap1\n      pop\n        /* \"#utility.yul\":5303:5374   */\n      tag_187\n        /* \"#utility.yul\":5371:5372   */\n      0x00\n        /* \"#utility.yul\":5360:5369   */\n      dup4\n        /* \"#utility.yul\":5356:5373   */\n      add\n        /* \"#utility.yul\":5347:5353   */\n      dup9\n        /* \"#utility.yul\":5303:5374   */\n      tag_81\n      jump\t// in\n    tag_187:\n        /* \"#utility.yul\":5421:5430   */\n      dup2\n        /* \"#utility.yul\":5415:5419   */\n      dup2\n        /* \"#utility.yul\":5411:5431   */\n      sub\n        /* \"#utility.yul\":5406:5408   */\n      0x20\n        /* \"#utility.yul\":5395:5404   */\n      dup4\n        /* \"#utility.yul\":5391:5409   */\n      add\n        /* \"#utility.yul\":5384:5432   */\n      mstore\n        /* \"#utility.yul\":5449:5527   */\n      tag_188\n        /* \"#utility.yul\":5522:5526   */\n      dup2\n        /* \"#utility.yul\":5513:5519   */\n      dup8\n        /* \"#utility.yul\":5449:5527   */\n      tag_100\n      jump\t// in\n    tag_188:\n        /* \"#utility.yul\":5441:5527   */\n      swap1\n      pop\n        /* \"#utility.yul\":5537:5609   */\n      tag_189\n        /* \"#utility.yul\":5605:5607   */\n      0x40\n        /* \"#utility.yul\":5594:5603   */\n      dup4\n        /* \"#utility.yul\":5590:5608   */\n      add\n        /* \"#utility.yul\":5581:5587   */\n      dup7\n        /* \"#utility.yul\":5537:5609   */\n      tag_81\n      jump\t// in\n    tag_189:\n        /* \"#utility.yul\":5619:5691   */\n      tag_190\n        /* \"#utility.yul\":5687:5689   */\n      0x60\n        /* \"#utility.yul\":5676:5685   */\n      dup4\n        /* \"#utility.yul\":5672:5690   */\n      add\n        /* \"#utility.yul\":5663:5669   */\n      dup6\n        /* \"#utility.yul\":5619:5691   */\n      tag_81\n      jump\t// in\n    tag_190:\n        /* \"#utility.yul\":5701:5774   */\n      tag_191\n        /* \"#utility.yul\":5769:5772   */\n      0x80\n        /* \"#utility.yul\":5758:5767   */\n      dup4\n        /* \"#utility.yul\":5754:5773   */\n      add\n        /* \"#utility.yul\":5745:5751   */\n      dup5\n        /* \"#utility.yul\":5701:5774   */\n      tag_81\n      jump\t// in\n    tag_191:\n        /* \"#utility.yul\":5026:5781   */\n      swap7\n      swap6\n      pop\n      pop\n      pop\n      pop\n      pop\n      pop\n      jump\t// out\n        /* \"#utility.yul\":5787:6441   */\n    tag_25:\n        /* \"#utility.yul\":5865:5871   */\n      0x00\n        /* \"#utility.yul\":5873:5879   */\n      dup1\n        /* \"#utility.yul\":5922:5924   */\n      0x40\n        /* \"#utility.yul\":5910:5919   */\n      dup4\n        /* \"#utility.yul\":5901:5908   */\n      dup6\n        /* \"#utility.yul\":5897:5920   */\n      sub\n        /* \"#utility.yul\":5893:5925   */\n      slt\n        /* \"#utility.yul\":5890:6009   */\n      iszero\n      tag_193\n      jumpi\n        /* \"#utility.yul\":5928:6007   */\n      tag_194\n      tag_83\n      jump\t// in\n    tag_194:\n        /* \"#utility.yul\":5890:6009   */\n    tag_193:\n        /* \"#utility.yul\":6048:6049   */\n      0x00\n        /* \"#utility.yul\":6073:6126   */\n      tag_195\n        /* \"#utility.yul\":6118:6125   */\n      dup6\n        /* \"#utility.yul\":6109:6115   */\n      dup3\n        /* \"#utility.yul\":6098:6107   */\n      dup7\n        /* \"#utility.yul\":6094:6116   */\n      add\n        /* \"#utility.yul\":6073:6126   */\n      tag_96\n      jump\t// in\n    tag_195:\n        /* \"#utility.yul\":6063:6126   */\n      swap3\n      pop\n        /* \"#utility.yul\":6019:6136   */\n      pop\n        /* \"#utility.yul\":6203:6205   */\n      0x20\n        /* \"#utility.yul\":6192:6201   */\n      dup4\n        /* \"#utility.yul\":6188:6206   */\n      add\n        /* \"#utility.yul\":6175:6207   */\n      calldataload\n        /* \"#utility.yul\":6234:6252   */\n      0xffffffffffffffff\n        /* \"#utility.yul\":6226:6232   */\n      dup2\n        /* \"#utility.yul\":6223:6253   */\n      gt\n        /* \"#utility.yul\":6220:6337   */\n      iszero\n      tag_196\n      jumpi\n        /* \"#utility.yul\":6256:6335   */\n      tag_197\n      tag_84\n      jump\t// in\n    tag_197:\n        /* \"#utility.yul\":6220:6337   */\n    tag_196:\n        /* \"#utility.yul\":6361:6424   */\n      tag_198\n        /* \"#utility.yul\":6416:6423   */\n      dup6\n        /* \"#utility.yul\":6407:6413   */\n      dup3\n        /* \"#utility.yul\":6396:6405   */\n      dup7\n        /* \"#utility.yul\":6392:6414   */\n      add\n        /* \"#utility.yul\":6361:6424   */\n      tag_94\n      jump\t// in\n    tag_198:\n        /* \"#utility.yul\":6351:6424   */\n      swap2\n      pop\n        /* \"#utility.yul\":6146:6434   */\n      pop\n        /* \"#utility.yul\":5787:6441   */\n      swap3\n      pop\n      swap3\n      swap1\n      pop\n      jump\t// out\n        /* \"#utility.yul\":6447:6573   */\n    tag_101:\n        /* \"#utility.yul\":6484:6491   */\n      0x00\n        /* \"#utility.yul\":6524:6566   */\n      0xffffffffffffffffffffffffffffffffffffffff\n        /* \"#utility.yul\":6517:6522   */\n      dup3\n        /* \"#utility.yul\":6513:6567   */\n      and\n        /* \"#utility.yul\":6502:6567   */\n      swap1\n      pop\n        /* \"#utility.yul\":6447:6573   */\n      swap2\n      swap1\n      pop\n      jump\t// out\n        /* \"#utility.yul\":6579:6675   */\n    tag_102:\n        /* \"#utility.yul\":6616:6623   */\n      0x00\n        /* \"#utility.yul\":6645:6669   */\n      tag_201\n        /* \"#utility.yul\":6663:6668   */\n      dup3\n        /* \"#utility.yul\":6645:6669   */\n      tag_101\n      jump\t// in\n    tag_201:\n        /* \"#utility.yul\":6634:6669   */\n      swap1\n      pop\n        /* \"#utility.yul\":6579:6675   */\n      swap2\n      swap1\n      pop\n      jump\t// out\n        /* \"#utility.yul\":6681:6803   */\n    tag_103:\n        /* \"#utility.yul\":6754:6778   */\n      tag_203\n        /* \"#utility.yul\":6772:6777   */\n      dup2\n        /* \"#utility.yul\":6754:6778   */\n      tag_102\n      jump\t// in\n    tag_203:\n        /* \"#utility.yul\":6747:6752   */\n      dup2\n        /* \"#utility.yul\":6744:6779   */\n      eq\n        /* \"#utility.yul\":6734:6797   */\n      tag_204\n      jumpi\n        /* \"#utility.yul\":6793:6794   */\n      0x00\n        /* \"#utility.yul\":6790:6791   */\n      dup1\n        /* \"#utility.yul\":6783:6795   */\n      revert\n        /* \"#utility.yul\":6734:6797   */\n    tag_204:\n        /* \"#utility.yul\":6681:6803   */\n      pop\n      jump\t// out\n        /* \"#utility.yul\":6809:6948   */\n    tag_104:\n        /* \"#utility.yul\":6855:6860   */\n      0x00\n        /* \"#utility.yul\":6893:6899   */\n      dup2\n        /* \"#utility.yul\":6880:6900   */\n      calldataload\n        /* \"#utility.yul\":6871:6900   */\n      swap1\n      pop\n        /* \"#utility.yul\":6909:6942   */\n      tag_206\n        /* \"#utility.yul\":6936:6941   */\n      dup2\n        /* \"#utility.yul\":6909:6942   */\n      tag_103\n      jump\t// in\n    tag_206:\n        /* \"#utility.yul\":6809:6948   */\n      swap3\n      swap2\n      pop\n      pop\n      jump\t// out\n        /* \"#utility.yul\":6954:7573   */\n    tag_29:\n        /* \"#utility.yul\":7031:7037   */\n      0x00\n        /* \"#utility.yul\":7039:7045   */\n      dup1\n        /* \"#utility.yul\":7047:7053   */\n      0x00\n        /* \"#utility.yul\":7096:7098   */\n      0x60\n        /* \"#utility.yul\":7084:7093   */\n      dup5\n        /* \"#utility.yul\":7075:7082   */\n      dup7\n        /* \"#utility.yul\":7071:7094   */\n      sub\n        /* \"#utility.yul\":7067:7099   */\n      slt\n        /* \"#utility.yul\":7064:7183   */\n      iszero\n      tag_208\n      jumpi\n        /* \"#utility.yul\":7102:7181   */\n      tag_209\n      tag_83\n      jump\t// in\n    tag_209:\n        /* \"#utility.yul\":7064:7183   */\n    tag_208:\n        /* \"#utility.yul\":7222:7223   */\n      0x00\n        /* \"#utility.yul\":7247:7300   */\n      tag_210\n        /* \"#utility.yul\":7292:7299   */\n      dup7\n        /* \"#utility.yul\":7283:7289   */\n      dup3\n        /* \"#utility.yul\":7272:7281   */\n      dup8\n        /* \"#utility.yul\":7268:7290   */\n      add\n        /* \"#utility.yul\":7247:7300   */\n      tag_104\n      jump\t// in\n    tag_210:\n        /* \"#utility.yul\":7237:7300   */\n      swap4\n      pop\n        /* \"#utility.yul\":7193:7310   */\n      pop\n        /* \"#utility.yul\":7349:7351   */\n      0x20\n        /* \"#utility.yul\":7375:7428   */\n      tag_211\n        /* \"#utility.yul\":7420:7427   */\n      dup7\n        /* \"#utility.yul\":7411:7417   */\n      dup3\n        /* \"#utility.yul\":7400:7409   */\n      dup8\n        /* \"#utility.yul\":7396:7418   */\n      add\n        /* \"#utility.yul\":7375:7428   */\n      tag_96\n      jump\t// in\n    tag_211:\n        /* \"#utility.yul\":7365:7428   */\n      swap3\n      pop\n        /* \"#utility.yul\":7320:7438   */\n      pop\n        /* \"#utility.yul\":7477:7479   */\n      0x40\n        /* \"#utility.yul\":7503:7556   */\n      tag_212\n        /* \"#utility.yul\":7548:7555   */\n      dup7\n        /* \"#utility.yul\":7539:7545   */\n      dup3\n        /* \"#utility.yul\":7528:7537   */\n      dup8\n        /* \"#utility.yul\":7524:7546   */\n      add\n        /* \"#utility.yul\":7503:7556   */\n      tag_96\n      jump\t// in\n    tag_212:\n        /* \"#utility.yul\":7493:7556   */\n      swap2\n      pop\n        /* \"#utility.yul\":7448:7566   */\n      pop\n        /* \"#utility.yul\":6954:7573   */\n      swap3\n      pop\n      swap3\n      pop\n      swap3\n      jump\t// out\n        /* \"#utility.yul\":7579:7908   */\n    tag_33:\n        /* \"#utility.yul\":7638:7644   */\n      0x00\n        /* \"#utility.yul\":7687:7689   */\n      0x20\n        /* \"#utility.yul\":7675:7684   */\n      dup3\n        /* \"#utility.yul\":7666:7673   */\n      dup5\n        /* \"#utility.yul\":7662:7685   */\n      sub\n        /* \"#utility.yul\":7658:7690   */\n      slt\n        /* \"#utility.yul\":7655:7774   */\n      iszero\n      tag_214\n      jumpi\n        /* \"#utility.yul\":7693:7772   */\n      tag_215\n      tag_83\n      jump\t// in\n    tag_215:\n        /* \"#utility.yul\":7655:7774   */\n    tag_214:\n        /* \"#utility.yul\":7813:7814   */\n      0x00\n        /* \"#utility.yul\":7838:7891   */\n      tag_216\n        /* \"#utility.yul\":7883:7890   */\n      dup5\n        /* \"#utility.yul\":7874:7880   */\n      dup3\n        /* \"#utility.yul\":7863:7872   */\n      dup6\n        /* \"#utility.yul\":7859:7881   */\n      add\n        /* \"#utility.yul\":7838:7891   */\n      tag_104\n      jump\t// in\n    tag_216:\n        /* \"#utility.yul\":7828:7891   */\n      swap2\n      pop\n        /* \"#utility.yul\":7784:7901   */\n      pop\n        /* \"#utility.yul\":7579:7908   */\n      swap3\n      swap2\n      pop\n      pop\n      jump\t// out\n        /* \"#utility.yul\":7914:8032   */\n    tag_105:\n        /* \"#utility.yul\":8001:8025   */\n      tag_218\n        /* \"#utility.yul\":8019:8024   */\n      dup2\n        /* \"#utility.yul\":8001:8025   */\n      tag_102\n      jump\t// in\n    tag_218:\n        /* \"#utility.yul\":7996:7999   */\n      dup3\n        /* \"#utility.yul\":7989:8026   */\n      mstore\n        /* \"#utility.yul\":7914:8032   */\n      pop\n      pop\n      jump\t// out\n        /* \"#utility.yul\":8038:8793   */\n    tag_36:\n        /* \"#utility.yul\":8263:8267   */\n      0x00\n        /* \"#utility.yul\":8301:8304   */\n      0xa0\n        /* \"#utility.yul\":8290:8299   */\n      dup3\n        /* \"#utility.yul\":8286:8305   */\n      add\n        /* \"#utility.yul\":8278:8305   */\n      swap1\n      pop\n        /* \"#utility.yul\":8315:8386   */\n      tag_220\n        /* \"#utility.yul\":8383:8384   */\n      0x00\n        /* \"#utility.yul\":8372:8381   */\n      dup4\n        /* \"#utility.yul\":8368:8385   */\n      add\n        /* \"#utility.yul\":8359:8365   */\n      dup9\n        /* \"#utility.yul\":8315:8386   */\n      tag_105\n      jump\t// in\n    tag_220:\n        /* \"#utility.yul\":8433:8442   */\n      dup2\n        /* \"#utility.yul\":8427:8431   */\n      dup2\n        /* \"#utility.yul\":8423:8443   */\n      sub\n        /* \"#utility.yul\":8418:8420   */\n      0x20\n        /* \"#utility.yul\":8407:8416   */\n      dup4\n        /* \"#utility.yul\":8403:8421   */\n      add\n        /* \"#utility.yul\":8396:8444   */\n      mstore\n        /* \"#utility.yul\":8461:8539   */\n      tag_221\n        /* \"#utility.yul\":8534:8538   */\n      dup2\n        /* \"#utility.yul\":8525:8531   */\n      dup8\n        /* \"#utility.yul\":8461:8539   */\n      tag_100\n      jump\t// in\n    tag_221:\n        /* \"#utility.yul\":8453:8539   */\n      swap1\n      pop\n        /* \"#utility.yul\":8549:8621   */\n      tag_222\n        /* \"#utility.yul\":8617:8619   */\n      0x40\n        /* \"#utility.yul\":8606:8615   */\n      dup4\n        /* \"#utility.yul\":8602:8620   */\n      add\n        /* \"#utility.yul\":8593:8599   */\n      dup7\n        /* \"#utility.yul\":8549:8621   */\n      tag_81\n      jump\t// in\n    tag_222:\n        /* \"#utility.yul\":8631:8703   */\n      tag_223\n        /* \"#utility.yul\":8699:8701   */\n      0x60\n        /* \"#utility.yul\":8688:8697   */\n      dup4\n        /* \"#utility.yul\":8684:8702   */\n      add\n        /* \"#utility.yul\":8675:8681   */\n      dup6\n        /* \"#utility.yul\":8631:8703   */\n      tag_81\n      jump\t// in\n    tag_223:\n        /* \"#utility.yul\":8713:8786   */\n      tag_224\n        /* \"#utility.yul\":8781:8784   */\n      0x80\n        /* \"#utility.yul\":8770:8779   */\n      dup4\n        /* \"#utility.yul\":8766:8785   */\n      add\n        /* \"#utility.yul\":8757:8763   */\n      dup5\n        /* \"#utility.yul\":8713:8786   */\n      tag_81\n      jump\t// in\n    tag_224:\n        /* \"#utility.yul\":8038:8793   */\n      swap7\n      swap6\n      pop\n      pop\n      pop\n      pop\n      pop\n      pop\n      jump\t// out\n        /* \"#utility.yul\":8799:9050   */\n    tag_106:\n        /* \"#utility.yul\":8939:8973   */\n      0x6e6f742061626c6520746f2061646465642061206e657720706f6c6c20626563\n        /* \"#utility.yul\":8935:8936   */\n      0x00\n        /* \"#utility.yul\":8927:8933   */\n      dup3\n        /* \"#utility.yul\":8923:8937   */\n      add\n        /* \"#utility.yul\":8916:8974   */\n      mstore\n        /* \"#utility.yul\":9008:9042   */\n      0x6175736520796f757220706f6c6c20697320616c72656164792065786973742e\n        /* \"#utility.yul\":9003:9005   */\n      0x20\n        /* \"#utility.yul\":8995:9001   */\n      dup3\n        /* \"#utility.yul\":8991:9006   */\n      add\n        /* \"#utility.yul\":8984:9043   */\n      mstore\n        /* \"#utility.yul\":8799:9050   */\n      pop\n      jump\t// out\n        /* \"#utility.yul\":9056:9422   */\n    tag_107:\n        /* \"#utility.yul\":9198:9201   */\n      0x00\n        /* \"#utility.yul\":9219:9286   */\n      tag_227\n        /* \"#utility.yul\":9283:9285   */\n      0x40\n        /* \"#utility.yul\":9278:9281   */\n      dup4\n        /* \"#utility.yul\":9219:9286   */\n      tag_98\n      jump\t// in\n    tag_227:\n        /* \"#utility.yul\":9212:9286   */\n      swap2\n      pop\n        /* \"#utility.yul\":9295:9388   */\n      tag_228\n        /* \"#utility.yul\":9384:9387   */\n      dup3\n        /* \"#utility.yul\":9295:9388   */\n      tag_106\n      jump\t// in\n    tag_228:\n        /* \"#utility.yul\":9413:9415   */\n      0x40\n        /* \"#utility.yul\":9408:9411   */\n      dup3\n        /* \"#utility.yul\":9404:9416   */\n      add\n        /* \"#utility.yul\":9397:9416   */\n      swap1\n      pop\n        /* \"#utility.yul\":9056:9422   */\n      swap2\n      swap1\n      pop\n      jump\t// out\n        /* \"#utility.yul\":9428:9847   */\n    tag_41:\n        /* \"#utility.yul\":9594:9598   */\n      0x00\n        /* \"#utility.yul\":9632:9634   */\n      0x20\n        /* \"#utility.yul\":9621:9630   */\n      dup3\n        /* \"#utility.yul\":9617:9635   */\n      add\n        /* \"#utility.yul\":9609:9635   */\n      swap1\n      pop\n        /* \"#utility.yul\":9681:9690   */\n      dup2\n        /* \"#utility.yul\":9675:9679   */\n      dup2\n        /* \"#utility.yul\":9671:9691   */\n      sub\n        /* \"#utility.yul\":9667:9668   */\n      0x00\n        /* \"#utility.yul\":9656:9665   */\n      dup4\n        /* \"#utility.yul\":9652:9669   */\n      add\n        /* \"#utility.yul\":9645:9692   */\n      mstore\n        /* \"#utility.yul\":9709:9840   */\n      tag_230\n        /* \"#utility.yul\":9835:9839   */\n      dup2\n        /* \"#utility.yul\":9709:9840   */\n      tag_107\n      jump\t// in\n    tag_230:\n        /* \"#utility.yul\":9701:9840   */\n      swap1\n      pop\n        /* \"#utility.yul\":9428:9847   */\n      swap2\n      swap1\n      pop\n      jump\t// out\n        /* \"#utility.yul\":9853:10033   */\n    tag_108:\n        /* \"#utility.yul\":9901:9978   */\n      0x4e487b7100000000000000000000000000000000000000000000000000000000\n        /* \"#utility.yul\":9898:9899   */\n      0x00\n        /* \"#utility.yul\":9891:9979   */\n      mstore\n        /* \"#utility.yul\":9998:10002   */\n      0x22\n        /* \"#utility.yul\":9995:9996   */\n      0x04\n        /* \"#utility.yul\":9988:10003   */\n      mstore\n        /* \"#utility.yul\":10022:10026   */\n      0x24\n        /* \"#utility.yul\":10019:10020   */\n      0x00\n        /* \"#utility.yul\":10012:10027   */\n      revert\n        /* \"#utility.yul\":10039:10359   */\n    tag_47:\n        /* \"#utility.yul\":10083:10089   */\n      0x00\n        /* \"#utility.yul\":10120:10121   */\n      0x02\n        /* \"#utility.yul\":10114:10118   */\n      dup3\n        /* \"#utility.yul\":10110:10122   */\n      div\n        /* \"#utility.yul\":10100:10122   */\n      swap1\n      pop\n        /* \"#utility.yul\":10167:10168   */\n      0x01\n        /* \"#utility.yul\":10161:10165   */\n      dup3\n        /* \"#utility.yul\":10157:10169   */\n      and\n        /* \"#utility.yul\":10188:10206   */\n      dup1\n        /* \"#utility.yul\":10178:10259   */\n      tag_233\n      jumpi\n        /* \"#utility.yul\":10244:10248   */\n      0x7f\n        /* \"#utility.yul\":10236:10242   */\n      dup3\n        /* \"#utility.yul\":10232:10249   */\n      and\n        /* \"#utility.yul\":10222:10249   */\n      swap2\n      pop\n        /* \"#utility.yul\":10178:10259   */\n    tag_233:\n        /* \"#utility.yul\":10306:10308   */\n      0x20\n        /* \"#utility.yul\":10298:10304   */\n      dup3\n        /* \"#utility.yul\":10295:10309   */\n      lt\n        /* \"#utility.yul\":10275:10293   */\n      dup2\n        /* \"#utility.yul\":10272:10310   */\n      sub\n        /* \"#utility.yul\":10269:10353   */\n      tag_234\n      jumpi\n        /* \"#utility.yul\":10325:10343   */\n      tag_235\n      tag_108\n      jump\t// in\n    tag_235:\n        /* \"#utility.yul\":10269:10353   */\n    tag_234:\n        /* \"#utility.yul\":10090:10359   */\n      pop\n        /* \"#utility.yul\":10039:10359   */\n      swap2\n      swap1\n      pop\n      jump\t// out\n        /* \"#utility.yul\":10365:10506   */\n    tag_109:\n        /* \"#utility.yul\":10414:10418   */\n      0x00\n        /* \"#utility.yul\":10437:10440   */\n      dup2\n        /* \"#utility.yul\":10429:10440   */\n      swap1\n      pop\n        /* \"#utility.yul\":10460:10463   */\n      dup2\n        /* \"#utility.yul\":10457:10458   */\n      0x00\n        /* \"#utility.yul\":10450:10464   */\n      mstore\n        /* \"#utility.yul\":10494:10498   */\n      0x20\n        /* \"#utility.yul\":10491:10492   */\n      0x00\n        /* \"#utility.yul\":10481:10499   */\n      keccak256\n        /* \"#utility.yul\":10473:10499   */\n      swap1\n      pop\n        /* \"#utility.yul\":10365:10506   */\n      swap2\n      swap1\n      pop\n      jump\t// out\n        /* \"#utility.yul\":10512:10605   */\n    tag_110:\n        /* \"#utility.yul\":10549:10555   */\n      0x00\n        /* \"#utility.yul\":10596:10598   */\n      0x20\n        /* \"#utility.yul\":10591:10593   */\n      0x1f\n        /* \"#utility.yul\":10584:10589   */\n      dup4\n        /* \"#utility.yul\":10580:10594   */\n      add\n        /* \"#utility.yul\":10576:10599   */\n      div\n        /* \"#utility.yul\":10566:10599   */\n      swap1\n      pop\n        /* \"#utility.yul\":10512:10605   */\n      swap2\n      swap1\n      pop\n      jump\t// out\n        /* \"#utility.yul\":10611:10718   */\n    tag_111:\n        /* \"#utility.yul\":10655:10663   */\n      0x00\n        /* \"#utility.yul\":10705:10710   */\n      dup3\n        /* \"#utility.yul\":10699:10703   */\n      dup3\n        /* \"#utility.yul\":10695:10711   */\n      shl\n        /* \"#utility.yul\":10674:10711   */\n      swap1\n      pop\n        /* \"#utility.yul\":10611:10718   */\n      swap3\n      swap2\n      pop\n      pop\n      jump\t// out\n        /* \"#utility.yul\":10724:11117   */\n    tag_112:\n        /* \"#utility.yul\":10793:10799   */\n      0x00\n        /* \"#utility.yul\":10843:10844   */\n      0x08\n        /* \"#utility.yul\":10831:10841   */\n      dup4\n        /* \"#utility.yul\":10827:10845   */\n      mul\n        /* \"#utility.yul\":10866:10963   */\n      tag_240\n        /* \"#utility.yul\":10896:10962   */\n      0xffffffffffffffffffffffffffffffffffffffffffffffffffffffffffffffff\n        /* \"#utility.yul\":10885:10894   */\n      dup3\n        /* \"#utility.yul\":10866:10963   */\n      tag_111\n      jump\t// in\n    tag_240:\n        /* \"#utility.yul\":10984:11023   */\n      tag_241\n        /* \"#utility.yul\":11014:11022   */\n      dup7\n        /* \"#utility.yul\":11003:11012   */\n      dup4\n        /* \"#utility.yul\":10984:11023   */\n      tag_111\n      jump\t// in\n    tag_241:\n        /* \"#utility.yul\":10972:11023   */\n      swap6\n      pop\n        /* \"#utility.yul\":11056:11060   */\n      dup1\n        /* \"#utility.yul\":11052:11061   */\n      not\n        /* \"#utility.yul\":11045:11050   */\n      dup5\n        /* \"#utility.yul\":11041:11062   */\n      and\n        /* \"#utility.yul\":11032:11062   */\n      swap4\n      pop\n        /* \"#utility.yul\":11105:11109   */\n      dup1\n        /* \"#utility.yul\":11095:11103   */\n      dup7\n        /* \"#utility.yul\":11091:11110   */\n      and\n        /* \"#utility.yul\":11084:11089   */\n      dup5\n        /* \"#utility.yul\":11081:11111   */\n      or\n        /* \"#utility.yul\":11071:11111   */\n      swap3\n      pop\n        /* \"#utility.yul\":10800:11117   */\n      pop\n      pop\n        /* \"#utility.yul\":10724:11117   */\n      swap4\n      swap3\n      pop\n      pop\n      pop\n      jump\t// out\n        /* \"#utility.yul\":11123:11183   */\n    tag_113:\n        /* \"#utility.yul\":11151:11154   */\n      0x00\n        /* \"#utility.yul\":11172:11177   */\n      dup2\n        /* \"#utility.yul\":11165:11177   */\n      swap1\n      pop\n        /* \"#utility.yul\":11123:11183   */\n      swap2\n      swap1\n      pop\n      jump\t// out\n        /* \"#utility.yul\":11189:11331   */\n    tag_114:\n        /* \"#utility.yul\":11239:11248   */\n      0x00\n        /* \"#utility.yul\":11272:11325   */\n      tag_244\n        /* \"#utility.yul\":11290:11324   */\n      tag_245\n        /* \"#utility.yul\":11299:11323   */\n      tag_246\n        /* \"#utility.yul\":11317:11322   */\n      dup5\n        /* \"#utility.yul\":11299:11323   */\n      tag_80\n      jump\t// in\n    tag_246:\n        /* \"#utility.yul\":11290:11324   */\n      tag_113\n      jump\t// in\n    tag_245:\n        /* \"#utility.yul\":11272:11325   */\n      tag_80\n      jump\t// in\n    tag_244:\n        /* \"#utility.yul\":11259:11325   */\n      swap1\n      pop\n        /* \"#utility.yul\":11189:11331   */\n      swap2\n      swap1\n      pop\n      jump\t// out\n        /* \"#utility.yul\":11337:11412   */\n    tag_115:\n        /* \"#utility.yul\":11380:11383   */\n      0x00\n        /* \"#utility.yul\":11401:11406   */\n      dup2\n        /* \"#utility.yul\":11394:11406   */\n      swap1\n      pop\n        /* \"#utility.yul\":11337:11412   */\n      swap2\n      swap1\n      pop\n      jump\t// out\n        /* \"#utility.yul\":11418:11687   */\n    tag_116:\n        /* \"#utility.yul\":11528:11567   */\n      tag_249\n        /* \"#utility.yul\":11559:11566   */\n      dup4\n        /* \"#utility.yul\":11528:11567   */\n      tag_114\n      jump\t// in\n    tag_249:\n        /* \"#utility.yul\":11589:11680   */\n      tag_250\n        /* \"#utility.yul\":11638:11679   */\n      tag_251\n        /* \"#utility.yul\":11662:11678   */\n      dup3\n        /* \"#utility.yul\":11638:11679   */\n      tag_115\n      jump\t// in\n    tag_251:\n        /* \"#utility.yul\":11630:11636   */\n      dup5\n        /* \"#utility.yul\":11623:11627   */\n      dup5\n        /* \"#utility.yul\":11617:11628   */\n      sload\n        /* \"#utility.yul\":11589:11680   */\n      tag_112\n      jump\t// in\n    tag_250:\n        /* \"#utility.yul\":11583:11587   */\n      dup3\n        /* \"#utility.yul\":11576:11681   */\n      sstore\n        /* \"#utility.yul\":11494:11687   */\n      pop\n        /* \"#utility.yul\":11418:11687   */\n      pop\n      pop\n      pop\n      jump\t// out\n        /* \"#utility.yul\":11693:11766   */\n    tag_117:\n        /* \"#utility.yul\":11738:11741   */\n      0x00\n        /* \"#utility.yul\":11693:11766   */\n      swap1\n      jump\t// out\n        /* \"#utility.yul\":11772:11961   */\n    tag_118:\n        /* \"#utility.yul\":11849:11881   */\n      tag_254\n      tag_117\n      jump\t// in\n    tag_254:\n        /* \"#utility.yul\":11890:11955   */\n      tag_255\n        /* \"#utility.yul\":11948:11954   */\n      dup2\n        /* \"#utility.yul\":11940:11946   */\n      dup5\n        /* \"#utility.yul\":11934:11938   */\n      dup5\n        /* \"#utility.yul\":11890:11955   */\n      tag_116\n      jump\t// in\n    tag_255:\n        /* \"#utility.yul\":11825:11961   */\n      pop\n        /* \"#utility.yul\":11772:11961   */\n      pop\n      pop\n      jump\t// out\n        /* \"#utility.yul\":11967:12153   */\n    tag_119:\n        /* \"#utility.yul\":12027:12147   */\n    tag_257:\n        /* \"#utility.yul\":12044:12047   */\n      dup2\n        /* \"#utility.yul\":12037:12042   */\n      dup2\n        /* \"#utility.yul\":12034:12048   */\n      lt\n        /* \"#utility.yul\":12027:12147   */\n      iszero\n      tag_259\n      jumpi\n        /* \"#utility.yul\":12098:12137   */\n      tag_260\n        /* \"#utility.yul\":12135:12136   */\n      0x00\n        /* \"#utility.yul\":12128:12133   */\n      dup3\n        /* \"#utility.yul\":12098:12137   */\n      tag_118\n      jump\t// in\n    tag_260:\n        /* \"#utility.yul\":12071:12072   */\n      0x01\n        /* \"#utility.yul\":12064:12069   */\n      dup2\n        /* \"#utility.yul\":12060:12073   */\n      add\n        /* \"#utility.yul\":12051:12073   */\n      swap1\n      pop\n        /* \"#utility.yul\":12027:12147   */\n      jump(tag_257)\n    tag_259:\n        /* \"#utility.yul\":11967:12153   */\n      pop\n      pop\n      jump\t// out\n        /* \"#utility.yul\":12159:12702   */\n    tag_120:\n        /* \"#utility.yul\":12260:12262   */\n      0x1f\n        /* \"#utility.yul\":12255:12258   */\n      dup3\n        /* \"#utility.yul\":12252:12263   */\n      gt\n        /* \"#utility.yul\":12249:12695   */\n      iszero\n      tag_262\n      jumpi\n        /* \"#utility.yul\":12294:12332   */\n      tag_263\n        /* \"#utility.yul\":12326:12331   */\n      dup2\n        /* \"#utility.yul\":12294:12332   */\n      tag_109\n      jump\t// in\n    tag_263:\n        /* \"#utility.yul\":12378:12407   */\n      tag_264\n        /* \"#utility.yul\":12396:12406   */\n      dup5\n        /* \"#utility.yul\":12378:12407   */\n      tag_110\n      jump\t// in\n    tag_264:\n        /* \"#utility.yul\":12368:12376   */\n      dup2\n        /* \"#utility.yul\":12364:12408   */\n      add\n        /* \"#utility.yul\":12561:12563   */\n      0x20\n        /* \"#utility.yul\":12549:12559   */\n      dup6\n        /* \"#utility.yul\":12546:12564   */\n      lt\n        /* \"#utility.yul\":12543:12592   */\n      iszero\n      tag_265\n      jumpi\n        /* \"#utility.yul\":12582:12590   */\n      dup2\n        /* \"#utility.yul\":12567:12590   */\n      swap1\n      pop\n        /* \"#utility.yul\":12543:12592   */\n    tag_265:\n        /* \"#utility.yul\":12605:12685   */\n      tag_266\n        /* \"#utility.yul\":12661:12683   */\n      tag_267\n        /* \"#utility.yul\":12679:12682   */\n      dup6\n        /* \"#utility.yul\":12661:12683   */\n      tag_110\n      jump\t// in\n    tag_267:\n        /* \"#utility.yul\":12651:12659   */\n      dup4\n        /* \"#utility.yul\":12647:12684   */\n      add\n        /* \"#utility.yul\":12634:12645   */\n      dup3\n        /* \"#utility.yul\":12605:12685   */\n      tag_119\n      jump\t// in\n    tag_266:\n        /* \"#utility.yul\":12264:12695   */\n      pop\n      pop\n        /* \"#utility.yul\":12249:12695   */\n    tag_262:\n        /* \"#utility.yul\":12159:12702   */\n      pop\n      pop\n      pop\n      jump\t// out\n        /* \"#utility.yul\":12708:12825   */\n    tag_121:\n        /* \"#utility.yul\":12762:12770   */\n      0x00\n        /* \"#utility.yul\":12812:12817   */\n      dup3\n        /* \"#utility.yul\":12806:12810   */\n      dup3\n        /* \"#utility.yul\":12802:12818   */\n      shr\n        /* \"#utility.yul\":12781:12818   */\n      swap1\n      pop\n        /* \"#utility.yul\":12708:12825   */\n      swap3\n      swap2\n      pop\n      pop\n      jump\t// out\n        /* \"#utility.yul\":12831:13000   */\n    tag_122:\n        /* \"#utility.yul\":12875:12881   */\n      0x00\n        /* \"#utility.yul\":12908:12959   */\n      tag_270\n        /* \"#utility.yul\":12956:12957   */\n      0x00\n        /* \"#utility.yul\":12952:12958   */\n      not\n        /* \"#utility.yul\":12944:12949   */\n      dup5\n        /* \"#utility.yul\":12941:12942   */\n      0x08\n        /* \"#utility.yul\":12937:12950   */\n      mul\n        /* \"#utility.yul\":12908:12959   */\n      tag_121\n      jump\t// in\n    tag_270:\n        /* \"#utility.yul\":12904:12960   */\n      not\n        /* \"#utility.yul\":12989:12993   */\n      dup1\n        /* \"#utility.yul\":12983:12987   */\n      dup4\n        /* \"#utility.yul\":12979:12994   */\n      and\n        /* \"#utility.yul\":12969:12994   */\n      swap2\n      pop\n        /* \"#utility.yul\":12882:13000   */\n      pop\n        /* \"#utility.yul\":12831:13000   */\n      swap3\n      swap2\n      pop\n      pop\n      jump\t// out\n        /* \"#utility.yul\":13005:13300   */\n    tag_123:\n        /* \"#utility.yul\":13081:13085   */\n      0x00\n        /* \"#utility.yul\":13227:13256   */\n      tag_272\n        /* \"#utility.yul\":13252:13255   */\n      dup4\n        /* \"#utility.yul\":13246:13250   */\n      dup4\n        /* \"#utility.yul\":13227:13256   */\n      tag_122\n      jump\t// in\n    tag_272:\n        /* \"#utility.yul\":13219:13256   */\n      swap2\n      pop\n        /* \"#utility.yul\":13289:13292   */\n      dup3\n        /* \"#utility.yul\":13286:13287   */\n      0x02\n        /* \"#utility.yul\":13282:13293   */\n      mul\n        /* \"#utility.yul\":13276:13280   */\n      dup3\n        /* \"#utility.yul\":13273:13294   */\n      or\n        /* \"#utility.yul\":13265:13294   */\n      swap1\n      pop\n        /* \"#utility.yul\":13005:13300   */\n      swap3\n      swap2\n      pop\n      pop\n      jump\t// out\n        /* \"#utility.yul\":13305:14700   */\n    tag_43:\n        /* \"#utility.yul\":13422:13459   */\n      tag_274\n        /* \"#utility.yul\":13455:13458   */\n      dup3\n        /* \"#utility.yul\":13422:13459   */\n      tag_97\n      jump\t// in\n    tag_274:\n        /* \"#utility.yul\":13524:13542   */\n      0xffffffffffffffff\n        /* \"#utility.yul\":13516:13522   */\n      dup2\n        /* \"#utility.yul\":13513:13543   */\n      gt\n        /* \"#utility.yul\":13510:13566   */\n      iszero\n      tag_275\n      jumpi\n        /* \"#utility.yul\":13546:13564   */\n      tag_276\n      tag_88\n      jump\t// in\n    tag_276:\n        /* \"#utility.yul\":13510:13566   */\n    tag_275:\n        /* \"#utility.yul\":13590:13628   */\n      tag_277\n        /* \"#utility.yul\":13622:13626   */\n      dup3\n        /* \"#utility.yul\":13616:13627   */\n      sload\n        /* \"#utility.yul\":13590:13628   */\n      tag_47\n      jump\t// in\n    tag_277:\n        /* \"#utility.yul\":13675:13742   */\n      tag_278\n        /* \"#utility.yul\":13735:13741   */\n      dup3\n        /* \"#utility.yul\":13727:13733   */\n      dup3\n        /* \"#utility.yul\":13721:13725   */\n      dup6\n        /* \"#utility.yul\":13675:13742   */\n      tag_120\n      jump\t// in\n    tag_278:\n        /* \"#utility.yul\":13769:13770   */\n      0x00\n        /* \"#utility.yul\":13793:13797   */\n      0x20\n        /* \"#utility.yul\":13780:13797   */\n      swap1\n      pop\n        /* \"#utility.yul\":13825:13827   */\n      0x1f\n        /* \"#utility.yul\":13817:13823   */\n      dup4\n        /* \"#utility.yul\":13814:13828   */\n      gt\n        /* \"#utility.yul\":13842:13843   */\n      0x01\n        /* \"#utility.yul\":13837:14455   */\n      dup2\n      eq\n      tag_280\n      jumpi\n        /* \"#utility.yul\":14499:14500   */\n      0x00\n        /* \"#utility.yul\":14516:14522   */\n      dup5\n        /* \"#utility.yul\":14513:14590   */\n      iszero\n      tag_281\n      jumpi\n        /* \"#utility.yul\":14565:14574   */\n      dup3\n        /* \"#utility.yul\":14560:14563   */\n      dup8\n        /* \"#utility.yul\":14556:14575   */\n      add\n        /* \"#utility.yul\":14550:14576   */\n      mload\n        /* \"#utility.yul\":14541:14576   */\n      swap1\n      pop\n        /* \"#utility.yul\":14513:14590   */\n    tag_281:\n        /* \"#utility.yul\":14616:14683   */\n      tag_282\n        /* \"#utility.yul\":14676:14682   */\n      dup6\n        /* \"#utility.yul\":14669:14674   */\n      dup3\n        /* \"#utility.yul\":14616:14683   */\n      tag_123\n      jump\t// in\n    tag_282:\n        /* \"#utility.yul\":14610:14614   */\n      dup7\n        /* \"#utility.yul\":14603:14684   */\n      sstore\n        /* \"#utility.yul\":14472:14694   */\n      pop\n        /* \"#utility.yul\":13807:14694   */\n      jump(tag_279)\n        /* \"#utility.yul\":13837:14455   */\n    tag_280:\n        /* \"#utility.yul\":13889:13893   */\n      0x1f\n        /* \"#utility.yul\":13885:13894   */\n      not\n        /* \"#utility.yul\":13877:13883   */\n      dup5\n        /* \"#utility.yul\":13873:13895   */\n      and\n        /* \"#utility.yul\":13923:13960   */\n      tag_283\n        /* \"#utility.yul\":13955:13959   */\n      dup7\n        /* \"#utility.yul\":13923:13960   */\n      tag_109\n      jump\t// in\n    tag_283:\n        /* \"#utility.yul\":13982:13983   */\n      0x00\n        /* \"#utility.yul\":13996:14204   */\n    tag_284:\n        /* \"#utility.yul\":14010:14017   */\n      dup3\n        /* \"#utility.yul\":14007:14008   */\n      dup2\n        /* \"#utility.yul\":14004:14018   */\n      lt\n        /* \"#utility.yul\":13996:14204   */\n      iszero\n      tag_286\n      jumpi\n        /* \"#utility.yul\":14089:14098   */\n      dup5\n        /* \"#utility.yul\":14084:14087   */\n      dup10\n        /* \"#utility.yul\":14080:14099   */\n      add\n        /* \"#utility.yul\":14074:14100   */\n      mload\n        /* \"#utility.yul\":14066:14072   */\n      dup3\n        /* \"#utility.yul\":14059:14101   */\n      sstore\n        /* \"#utility.yul\":14140:14141   */\n      0x01\n        /* \"#utility.yul\":14132:14138   */\n      dup3\n        /* \"#utility.yul\":14128:14142   */\n      add\n        /* \"#utility.yul\":14118:14142   */\n      swap2\n      pop\n        /* \"#utility.yul\":14187:14189   */\n      0x20\n        /* \"#utility.yul\":14176:14185   */\n      dup6\n        /* \"#utility.yul\":14172:14190   */\n      add\n        /* \"#utility.yul\":14159:14190   */\n      swap5\n      pop\n        /* \"#utility.yul\":14033:14037   */\n      0x20\n        /* \"#utility.yul\":14030:14031   */\n      dup2\n        /* \"#utility.yul\":14026:14038   */\n      add\n        /* \"#utility.yul\":14021:14038   */\n      swap1\n      pop\n        /* \"#utility.yul\":13996:14204   */\n      jump(tag_284)\n    tag_286:\n        /* \"#utility.yul\":14232:14238   */\n      dup7\n        /* \"#utility.yul\":14223:14230   */\n      dup4\n        /* \"#utility.yul\":14220:14239   */\n      lt\n        /* \"#utility.yul\":14217:14396   */\n      iszero\n      tag_287\n      jumpi\n        /* \"#utility.yul\":14290:14299   */\n      dup5\n        /* \"#utility.yul\":14285:14288   */\n      dup10\n        /* \"#utility.yul\":14281:14300   */\n      add\n        /* \"#utility.yul\":14275:14301   */\n      mload\n        /* \"#utility.yul\":14333:14381   */\n      tag_288\n        /* \"#utility.yul\":14375:14379   */\n      0x1f\n        /* \"#utility.yul\":14367:14373   */\n      dup10\n        /* \"#utility.yul\":14363:14380   */\n      and\n        /* \"#utility.yul\":14352:14361   */\n      dup3\n        /* \"#utility.yul\":14333:14381   */\n      tag_122\n      jump\t// in\n    tag_288:\n        /* \"#utility.yul\":14325:14331   */\n      dup4\n        /* \"#utility.yul\":14318:14382   */\n      sstore\n        /* \"#utility.yul\":14240:14396   */\n      pop\n        /* \"#utility.yul\":14217:14396   */\n    tag_287:\n        /* \"#utility.yul\":14442:14443   */\n      0x01\n        /* \"#utility.yul\":14438:14439   */\n      0x02\n        /* \"#utility.yul\":14430:14436   */\n      dup9\n        /* \"#utility.yul\":14426:14440   */\n      mul\n        /* \"#utility.yul\":14422:14444   */\n      add\n        /* \"#utility.yul\":14416:14420   */\n      dup9\n        /* \"#utility.yul\":14409:14445   */\n      sstore\n        /* \"#utility.yul\":13844:14455   */\n      pop\n      pop\n      pop\n        /* \"#utility.yul\":13807:14694   */\n    tag_279:\n      pop\n        /* \"#utility.yul\":13397:14700   */\n      pop\n      pop\n      pop\n        /* \"#utility.yul\":13305:14700   */\n      pop\n      pop\n      jump\t// out\n        /* \"#utility.yul\":14706:14886   */\n    tag_124:\n        /* \"#utility.yul\":14754:14831   */\n      0x4e487b7100000000000000000000000000000000000000000000000000000000\n        /* \"#utility.yul\":14751:14752   */\n      0x00\n        /* \"#utility.yul\":14744:14832   */\n      mstore\n        /* \"#utility.yul\":14851:14855   */\n      0x11\n        /* \"#utility.yul\":14848:14849   */\n      0x04\n        /* \"#utility.yul\":14841:14856   */\n      mstore\n        /* \"#utility.yul\":14875:14879   */\n      0x24\n        /* \"#utility.yul\":14872:14873   */\n      0x00\n        /* \"#utility.yul\":14865:14880   */\n      revert\n        /* \"#utility.yul\":14892:15083   */\n    tag_45:\n        /* \"#utility.yul\":14932:14935   */\n      0x00\n        /* \"#utility.yul\":14951:14971   */\n      tag_291\n        /* \"#utility.yul\":14969:14970   */\n      dup3\n        /* \"#utility.yul\":14951:14971   */\n      tag_80\n      jump\t// in\n    tag_291:\n        /* \"#utility.yul\":14946:14971   */\n      swap2\n      pop\n        /* \"#utility.yul\":14985:15005   */\n      tag_292\n        /* \"#utility.yul\":15003:15004   */\n      dup4\n        /* \"#utility.yul\":14985:15005   */\n      tag_80\n      jump\t// in\n    tag_292:\n        /* \"#utility.yul\":14980:15005   */\n      swap3\n      pop\n        /* \"#utility.yul\":15028:15029   */\n      dup3\n        /* \"#utility.yul\":15025:15026   */\n      dup3\n        /* \"#utility.yul\":15021:15030   */\n      add\n        /* \"#utility.yul\":15014:15030   */\n      swap1\n      pop\n        /* \"#utility.yul\":15049:15052   */\n      dup1\n        /* \"#utility.yul\":15046:15047   */\n      dup3\n        /* \"#utility.yul\":15043:15053   */\n      gt\n        /* \"#utility.yul\":15040:15076   */\n      iszero\n      tag_293\n      jumpi\n        /* \"#utility.yul\":15056:15074   */\n      tag_294\n      tag_124\n      jump\t// in\n    tag_294:\n        /* \"#utility.yul\":15040:15076   */\n    tag_293:\n        /* \"#utility.yul\":14892:15083   */\n      swap3\n      swap2\n      pop\n      pop\n      jump\t// out\n\n    auxdata: 0xa2646970667358221220c950e104b608c134ee1184b030e5f07d6716641ffaec762cc5699db17a13a10864736f6c63430008120033\n}\n",
				"bytecode": {
					"linkReferences": {},
					"object": "608060405234801561001057600080fd5b506112ab806100206000396000f3fe608060405234801561001057600080fd5b50600436106100625760003560e01c8063120fe89b146100675780635f7687a214610085578063ab8ed1ba146100a1578063bf14c6d2146100d5578063c3589e77146100f1578063c3dfae971461010d575b600080fd5b61006f610141565b60405161007c9190610a0f565b60405180910390f35b61009f600480360381019061009a9190610b84565b61014a565b005b6100bb60048036038101906100b69190610bf9565b610408565b6040516100cc959493929190610ca5565b60405180910390f35b6100ef60048036038101906100ea9190610cff565b6104c6565b005b61010b60048036038101906101069190610db9565b610599565b005b61012760048036038101906101229190610e0c565b610918565b604051610138959493929190610e48565b60405180910390f35b60008054905090565b3373ffffffffffffffffffffffffffffffffffffffff16600160003373ffffffffffffffffffffffffffffffffffffffff1673ffffffffffffffffffffffffffffffffffffffff16815260200190815260200160002060000160009054906101000a900473ffffffffffffffffffffffffffffffffffffffff1673ffffffffffffffffffffffffffffffffffffffff160361021a576040517f08c379a000000000000000000000000000000000000000000000000000000000815260040161021190610f14565b60405180910390fd5b6000600160003373ffffffffffffffffffffffffffffffffffffffff1673ffffffffffffffffffffffffffffffffffffffff1681526020019081526020016000206002015490506000600160003373ffffffffffffffffffffffffffffffffffffffff1673ffffffffffffffffffffffffffffffffffffffff1681526020019081526020016000206003015490506000600160003373ffffffffffffffffffffffffffffffffffffffff1673ffffffffffffffffffffffffffffffffffffffff1681526020019081526020016000206004015490506040518060a001604052803373ffffffffffffffffffffffffffffffffffffffff16815260200185815260200184815260200183815260200182815250600160003373ffffffffffffffffffffffffffffffffffffffff1673ffffffffffffffffffffffffffffffffffffffff16815260200190815260200160002060008201518160000160006101000a81548173ffffffffffffffffffffffffffffffffffffffff021916908373ffffffffffffffffffffffffffffffffffffffff16021790555060208201518160010190816103c79190611140565b5060408201518160020155606082015181600301556080820151816004015590505060016000808282546103fb9190611241565b9250508190555050505050565b600260205280600052604060002060009150905080600001549080600101805461043190610f63565b80601f016020809104026020016040519081016040528092919081815260200182805461045d90610f63565b80156104aa5780601f1061047f576101008083540402835291602001916104aa565b820191906000526020600020905b81548152906001019060200180831161048d57829003601f168201915b5050505050908060020154908060030154908060040154905085565b6000600260008481526020019081526020016000206002015490506000600260008581526020019081526020016000206003015490506000600260008681526020019081526020016000206004015490506040518060a0016040528086815260200185815260200184815260200183815260200182815250600260008781526020019081526020016000206000820151816000015560208201518160010190816105709190611140565b506040820151816002015560608201518160030155608082015181600401559050505050505050565b60018103610631576001905060018060008573ffffffffffffffffffffffffffffffffffffffff1673ffffffffffffffffffffffffffffffffffffffff16815260200190815260200160002060030160008282546105f79190611241565b9250508190555060016002600084815260200190815260200160002060030160008282546106259190611241565b925050819055506106bd565b6000905060018060008573ffffffffffffffffffffffffffffffffffffffff1673ffffffffffffffffffffffffffffffffffffffff16815260200190815260200160002060040160008282546106879190611241565b9250508190555060016002600084815260200190815260200160002060040160008282546106b59190611241565b925050819055505b6040518060600160405280600160008673ffffffffffffffffffffffffffffffffffffffff1673ffffffffffffffffffffffffffffffffffffffff168152602001908152602001600020600101805461071590610f63565b80601f016020809104026020016040519081016040528092919081815260200182805461074190610f63565b801561078e5780601f106107635761010080835404028352916020019161078e565b820191906000526020600020905b81548152906001019060200180831161077157829003601f168201915b505050505081526020018281526020016002600085815260200190815260200160002060010180546107bf90610f63565b80601f01602080910402602001604051908101604052809291908181526020018280546107eb90610f63565b80156108385780601f1061080d57610100808354040283529160200191610838565b820191906000526020600020905b81548152906001019060200180831161081b57829003601f168201915b50505050508152506003600084815260200190815260200160002060008201518160000190816108689190611140565b506020820151816001015560408201518160020190816108889190611140565b5090505060018060008573ffffffffffffffffffffffffffffffffffffffff1673ffffffffffffffffffffffffffffffffffffffff16815260200190815260200160002060020160008282546108de9190611241565b92505081905550600160026000848152602001908152602001600020600201600082825461090c9190611241565b92505081905550505050565b60016020528060005260406000206000915090508060000160009054906101000a900473ffffffffffffffffffffffffffffffffffffffff169080600101805461096190610f63565b80601f016020809104026020016040519081016040528092919081815260200182805461098d90610f63565b80156109da5780601f106109af576101008083540402835291602001916109da565b820191906000526020600020905b8154815290600101906020018083116109bd57829003601f168201915b5050505050908060020154908060030154908060040154905085565b6000819050919050565b610a09816109f6565b82525050565b6000602082019050610a246000830184610a00565b92915050565b6000604051905090565b600080fd5b600080fd5b600080fd5b600080fd5b6000601f19601f8301169050919050565b7f4e487b7100000000000000000000000000000000000000000000000000000000600052604160045260246000fd5b610a9182610a48565b810181811067ffffffffffffffff82111715610ab057610aaf610a59565b5b80604052505050565b6000610ac3610a2a565b9050610acf8282610a88565b919050565b600067ffffffffffffffff821115610aef57610aee610a59565b5b610af882610a48565b9050602081019050919050565b82818337600083830152505050565b6000610b27610b2284610ad4565b610ab9565b905082815260208101848484011115610b4357610b42610a43565b5b610b4e848285610b05565b509392505050565b600082601f830112610b6b57610b6a610a3e565b5b8135610b7b848260208601610b14565b91505092915050565b600060208284031215610b9a57610b99610a34565b5b600082013567ffffffffffffffff811115610bb857610bb7610a39565b5b610bc484828501610b56565b91505092915050565b610bd6816109f6565b8114610be157600080fd5b50565b600081359050610bf381610bcd565b92915050565b600060208284031215610c0f57610c0e610a34565b5b6000610c1d84828501610be4565b91505092915050565b600081519050919050565b600082825260208201905092915050565b60005b83811015610c60578082015181840152602081019050610c45565b60008484015250505050565b6000610c7782610c26565b610c818185610c31565b9350610c91818560208601610c42565b610c9a81610a48565b840191505092915050565b600060a082019050610cba6000830188610a00565b8181036020830152610ccc8187610c6c565b9050610cdb6040830186610a00565b610ce86060830185610a00565b610cf56080830184610a00565b9695505050505050565b60008060408385031215610d1657610d15610a34565b5b6000610d2485828601610be4565b925050602083013567ffffffffffffffff811115610d4557610d44610a39565b5b610d5185828601610b56565b9150509250929050565b600073ffffffffffffffffffffffffffffffffffffffff82169050919050565b6000610d8682610d5b565b9050919050565b610d9681610d7b565b8114610da157600080fd5b50565b600081359050610db381610d8d565b92915050565b600080600060608486031215610dd257610dd1610a34565b5b6000610de086828701610da4565b9350506020610df186828701610be4565b9250506040610e0286828701610be4565b9150509250925092565b600060208284031215610e2257610e21610a34565b5b6000610e3084828501610da4565b91505092915050565b610e4281610d7b565b82525050565b600060a082019050610e5d6000830188610e39565b8181036020830152610e6f8187610c6c565b9050610e7e6040830186610a00565b610e8b6060830185610a00565b610e986080830184610a00565b9695505050505050565b7f6e6f742061626c6520746f2061646465642061206e657720706f6c6c2062656360008201527f6175736520796f757220706f6c6c20697320616c72656164792065786973742e602082015250565b6000610efe604083610c31565b9150610f0982610ea2565b604082019050919050565b60006020820190508181036000830152610f2d81610ef1565b9050919050565b7f4e487b7100000000000000000000000000000000000000000000000000000000600052602260045260246000fd5b60006002820490506001821680610f7b57607f821691505b602082108103610f8e57610f8d610f34565b5b50919050565b60008190508160005260206000209050919050565b60006020601f8301049050919050565b600082821b905092915050565b600060088302610ff67fffffffffffffffffffffffffffffffffffffffffffffffffffffffffffffffff82610fb9565b6110008683610fb9565b95508019841693508086168417925050509392505050565b6000819050919050565b600061103d611038611033846109f6565b611018565b6109f6565b9050919050565b6000819050919050565b61105783611022565b61106b61106382611044565b848454610fc6565b825550505050565b600090565b611080611073565b61108b81848461104e565b505050565b5b818110156110af576110a4600082611078565b600181019050611091565b5050565b601f8211156110f4576110c581610f94565b6110ce84610fa9565b810160208510156110dd578190505b6110f16110e985610fa9565b830182611090565b50505b505050565b600082821c905092915050565b6000611117600019846008026110f9565b1980831691505092915050565b60006111308383611106565b9150826002028217905092915050565b61114982610c26565b67ffffffffffffffff81111561116257611161610a59565b5b61116c8254610f63565b6111778282856110b3565b600060209050601f8311600181146111aa5760008415611198578287015190505b6111a28582611124565b86555061120a565b601f1984166111b886610f94565b60005b828110156111e0578489015182556001820191506020850194506020810190506111bb565b868310156111fd57848901516111f9601f891682611106565b8355505b6001600288020188555050505b505050505050565b7f4e487b7100000000000000000000000000000000000000000000000000000000600052601160045260246000fd5b600061124c826109f6565b9150611257836109f6565b925082820190508082111561126f5761126e611212565b5b9291505056fea2646970667358221220c950e104b608c134ee1184b030e5f07d6716641ffaec762cc5699db17a13a10864736f6c63430008120033",
					"opcodes": "PUSH1 0x80 PUSH1 0x40 MSTORE CALLVALUE DUP1 ISZERO PUSH2 0x10 JUMPI PUSH1 0x0 DUP1 REVERT JUMPDEST POP PUSH2 0x12AB DUP1 PUSH2 0x20 PUSH1 0x0 CODECOPY PUSH1 0x0 RETURN INVALID PUSH1 0x80 PUSH1 0x40 MSTORE CALLVALUE DUP1 ISZERO PUSH2 0x10 JUMPI PUSH1 0x0 DUP1 REVERT JUMPDEST POP PUSH1 0x4 CALLDATASIZE LT PUSH2 0x62 JUMPI PUSH1 0x0 CALLDATALOAD PUSH1 0xE0 SHR DUP1 PUSH4 0x120FE89B EQ PUSH2 0x67 JUMPI DUP1 PUSH4 0x5F7687A2 EQ PUSH2 0x85 JUMPI DUP1 PUSH4 0xAB8ED1BA EQ PUSH2 0xA1 JUMPI DUP1 PUSH4 0xBF14C6D2 EQ PUSH2 0xD5 JUMPI DUP1 PUSH4 0xC3589E77 EQ PUSH2 0xF1 JUMPI DUP1 PUSH4 0xC3DFAE97 EQ PUSH2 0x10D JUMPI JUMPDEST PUSH1 0x0 DUP1 REVERT JUMPDEST PUSH2 0x6F PUSH2 0x141 JUMP JUMPDEST PUSH1 0x40 MLOAD PUSH2 0x7C SWAP2 SWAP1 PUSH2 0xA0F JUMP JUMPDEST PUSH1 0x40 MLOAD DUP1 SWAP2 SUB SWAP1 RETURN JUMPDEST PUSH2 0x9F PUSH1 0x4 DUP1 CALLDATASIZE SUB DUP2 ADD SWAP1 PUSH2 0x9A SWAP2 SWAP1 PUSH2 0xB84 JUMP JUMPDEST PUSH2 0x14A JUMP JUMPDEST STOP JUMPDEST PUSH2 0xBB PUSH1 0x4 DUP1 CALLDATASIZE SUB DUP2 ADD SWAP1 PUSH2 0xB6 SWAP2 SWAP1 PUSH2 0xBF9 JUMP JUMPDEST PUSH2 0x408 JUMP JUMPDEST PUSH1 0x40 MLOAD PUSH2 0xCC SWAP6 SWAP5 SWAP4 SWAP3 SWAP2 SWAP1 PUSH2 0xCA5 JUMP JUMPDEST PUSH1 0x40 MLOAD DUP1 SWAP2 SUB SWAP1 RETURN JUMPDEST PUSH2 0xEF PUSH1 0x4 DUP1 CALLDATASIZE SUB DUP2 ADD SWAP1 PUSH2 0xEA SWAP2 SWAP1 PUSH2 0xCFF JUMP JUMPDEST PUSH2 0x4C6 JUMP JUMPDEST STOP JUMPDEST PUSH2 0x10B PUSH1 0x4 DUP1 CALLDATASIZE SUB DUP2 ADD SWAP1 PUSH2 0x106 SWAP2 SWAP1 PUSH2 0xDB9 JUMP JUMPDEST PUSH2 0x599 JUMP JUMPDEST STOP JUMPDEST PUSH2 0x127 PUSH1 0x4 DUP1 CALLDATASIZE SUB DUP2 ADD SWAP1 PUSH2 0x122 SWAP2 SWAP1 PUSH2 0xE0C JUMP JUMPDEST PUSH2 0x918 JUMP JUMPDEST PUSH1 0x40 MLOAD PUSH2 0x138 SWAP6 SWAP5 SWAP4 SWAP3 SWAP2 SWAP1 PUSH2 0xE48 JUMP JUMPDEST PUSH1 0x40 MLOAD DUP1 SWAP2 SUB SWAP1 RETURN JUMPDEST PUSH1 0x0 DUP1 SLOAD SWAP1 POP SWAP1 JUMP JUMPDEST CALLER PUSH20 0xFFFFFFFFFFFFFFFFFFFFFFFFFFFFFFFFFFFFFFFF AND PUSH1 0x1 PUSH1 0x0 CALLER PUSH20 0xFFFFFFFFFFFFFFFFFFFFFFFFFFFFFFFFFFFFFFFF AND PUSH20 0xFFFFFFFFFFFFFFFFFFFFFFFFFFFFFFFFFFFFFFFF AND DUP2 MSTORE PUSH1 0x20 ADD SWAP1 DUP2 MSTORE PUSH1 0x20 ADD PUSH1 0x0 KECCAK256 PUSH1 0x0 ADD PUSH1 0x0 SWAP1 SLOAD SWAP1 PUSH2 0x100 EXP SWAP1 DIV PUSH20 0xFFFFFFFFFFFFFFFFFFFFFFFFFFFFFFFFFFFFFFFF AND PUSH20 0xFFFFFFFFFFFFFFFFFFFFFFFFFFFFFFFFFFFFFFFF AND SUB PUSH2 0x21A JUMPI PUSH1 0x40 MLOAD PUSH32 0x8C379A000000000000000000000000000000000000000000000000000000000 DUP2 MSTORE PUSH1 0x4 ADD PUSH2 0x211 SWAP1 PUSH2 0xF14 JUMP JUMPDEST PUSH1 0x40 MLOAD DUP1 SWAP2 SUB SWAP1 REVERT JUMPDEST PUSH1 0x0 PUSH1 0x1 PUSH1 0x0 CALLER PUSH20 0xFFFFFFFFFFFFFFFFFFFFFFFFFFFFFFFFFFFFFFFF AND PUSH20 0xFFFFFFFFFFFFFFFFFFFFFFFFFFFFFFFFFFFFFFFF AND DUP2 MSTORE PUSH1 0x20 ADD SWAP1 DUP2 MSTORE PUSH1 0x20 ADD PUSH1 0x0 KECCAK256 PUSH1 0x2 ADD SLOAD SWAP1 POP PUSH1 0x0 PUSH1 0x1 PUSH1 0x0 CALLER PUSH20 0xFFFFFFFFFFFFFFFFFFFFFFFFFFFFFFFFFFFFFFFF AND PUSH20 0xFFFFFFFFFFFFFFFFFFFFFFFFFFFFFFFFFFFFFFFF AND DUP2 MSTORE PUSH1 0x20 ADD SWAP1 DUP2 MSTORE PUSH1 0x20 ADD PUSH1 0x0 KECCAK256 PUSH1 0x3 ADD SLOAD SWAP1 POP PUSH1 0x0 PUSH1 0x1 PUSH1 0x0 CALLER PUSH20 0xFFFFFFFFFFFFFFFFFFFFFFFFFFFFFFFFFFFFFFFF AND PUSH20 0xFFFFFFFFFFFFFFFFFFFFFFFFFFFFFFFFFFFFFFFF AND DUP2 MSTORE PUSH1 0x20 ADD SWAP1 DUP2 MSTORE PUSH1 0x20 ADD PUSH1 0x0 KECCAK256 PUSH1 0x4 ADD SLOAD SWAP1 POP PUSH1 0x40 MLOAD DUP1 PUSH1 0xA0 ADD PUSH1 0x40 MSTORE DUP1 CALLER PUSH20 0xFFFFFFFFFFFFFFFFFFFFFFFFFFFFFFFFFFFFFFFF AND DUP2 MSTORE PUSH1 0x20 ADD DUP6 DUP2 MSTORE PUSH1 0x20 ADD DUP5 DUP2 MSTORE PUSH1 0x20 ADD DUP4 DUP2 MSTORE PUSH1 0x20 ADD DUP3 DUP2 MSTORE POP PUSH1 0x1 PUSH1 0x0 CALLER PUSH20 0xFFFFFFFFFFFFFFFFFFFFFFFFFFFFFFFFFFFFFFFF AND PUSH20 0xFFFFFFFFFFFFFFFFFFFFFFFFFFFFFFFFFFFFFFFF AND DUP2 MSTORE PUSH1 0x20 ADD SWAP1 DUP2 MSTORE PUSH1 0x20 ADD PUSH1 0x0 KECCAK256 PUSH1 0x0 DUP3 ADD MLOAD DUP2 PUSH1 0x0 ADD PUSH1 0x0 PUSH2 0x100 EXP DUP2 SLOAD DUP2 PUSH20 0xFFFFFFFFFFFFFFFFFFFFFFFFFFFFFFFFFFFFFFFF MUL NOT AND SWAP1 DUP4 PUSH20 0xFFFFFFFFFFFFFFFFFFFFFFFFFFFFFFFFFFFFFFFF AND MUL OR SWAP1 SSTORE POP PUSH1 0x20 DUP3 ADD MLOAD DUP2 PUSH1 0x1 ADD SWAP1 DUP2 PUSH2 0x3C7 SWAP2 SWAP1 PUSH2 0x1140 JUMP JUMPDEST POP PUSH1 0x40 DUP3 ADD MLOAD DUP2 PUSH1 0x2 ADD SSTORE PUSH1 0x60 DUP3 ADD MLOAD DUP2 PUSH1 0x3 ADD SSTORE PUSH1 0x80 DUP3 ADD MLOAD DUP2 PUSH1 0x4 ADD SSTORE SWAP1 POP POP PUSH1 0x1 PUSH1 0x0 DUP1 DUP3 DUP3 SLOAD PUSH2 0x3FB SWAP2 SWAP1 PUSH2 0x1241 JUMP JUMPDEST SWAP3 POP POP DUP2 SWAP1 SSTORE POP POP POP POP POP JUMP JUMPDEST PUSH1 0x2 PUSH1 0x20 MSTORE DUP1 PUSH1 0x0 MSTORE PUSH1 0x40 PUSH1 0x0 KECCAK256 PUSH1 0x0 SWAP2 POP SWAP1 POP DUP1 PUSH1 0x0 ADD SLOAD SWAP1 DUP1 PUSH1 0x1 ADD DUP1 SLOAD PUSH2 0x431 SWAP1 PUSH2 0xF63 JUMP JUMPDEST DUP1 PUSH1 0x1F ADD PUSH1 0x20 DUP1 SWAP2 DIV MUL PUSH1 0x20 ADD PUSH1 0x40 MLOAD SWAP1 DUP2 ADD PUSH1 0x40 MSTORE DUP1 SWAP3 SWAP2 SWAP1 DUP2 DUP2 MSTORE PUSH1 0x20 ADD DUP3 DUP1 SLOAD PUSH2 0x45D SWAP1 PUSH2 0xF63 JUMP JUMPDEST DUP1 ISZERO PUSH2 0x4AA JUMPI DUP1 PUSH1 0x1F LT PUSH2 0x47F JUMPI PUSH2 0x100 DUP1 DUP4 SLOAD DIV MUL DUP4 MSTORE SWAP2 PUSH1 0x20 ADD SWAP2 PUSH2 0x4AA JUMP JUMPDEST DUP3 ADD SWAP2 SWAP1 PUSH1 0x0 MSTORE PUSH1 0x20 PUSH1 0x0 KECCAK256 SWAP1 JUMPDEST DUP2 SLOAD DUP2 MSTORE SWAP1 PUSH1 0x1 ADD SWAP1 PUSH1 0x20 ADD DUP1 DUP4 GT PUSH2 0x48D JUMPI DUP3 SWAP1 SUB PUSH1 0x1F AND DUP3 ADD SWAP2 JUMPDEST POP POP POP POP POP SWAP1 DUP1 PUSH1 0x2 ADD SLOAD SWAP1 DUP1 PUSH1 0x3 ADD SLOAD SWAP1 DUP1 PUSH1 0x4 ADD SLOAD SWAP1 POP DUP6 JUMP JUMPDEST PUSH1 0x0 PUSH1 0x2 PUSH1 0x0 DUP5 DUP2 MSTORE PUSH1 0x20 ADD SWAP1 DUP2 MSTORE PUSH1 0x20 ADD PUSH1 0x0 KECCAK256 PUSH1 0x2 ADD SLOAD SWAP1 POP PUSH1 0x0 PUSH1 0x2 PUSH1 0x0 DUP6 DUP2 MSTORE PUSH1 0x20 ADD SWAP1 DUP2 MSTORE PUSH1 0x20 ADD PUSH1 0x0 KECCAK256 PUSH1 0x3 ADD SLOAD SWAP1 POP PUSH1 0x0 PUSH1 0x2 PUSH1 0x0 DUP7 DUP2 MSTORE PUSH1 0x20 ADD SWAP1 DUP2 MSTORE PUSH1 0x20 ADD PUSH1 0x0 KECCAK256 PUSH1 0x4 ADD SLOAD SWAP1 POP PUSH1 0x40 MLOAD DUP1 PUSH1 0xA0 ADD PUSH1 0x40 MSTORE DUP1 DUP7 DUP2 MSTORE PUSH1 0x20 ADD DUP6 DUP2 MSTORE PUSH1 0x20 ADD DUP5 DUP2 MSTORE PUSH1 0x20 ADD DUP4 DUP2 MSTORE PUSH1 0x20 ADD DUP3 DUP2 MSTORE POP PUSH1 0x2 PUSH1 0x0 DUP8 DUP2 MSTORE PUSH1 0x20 ADD SWAP1 DUP2 MSTORE PUSH1 0x20 ADD PUSH1 0x0 KECCAK256 PUSH1 0x0 DUP3 ADD MLOAD DUP2 PUSH1 0x0 ADD SSTORE PUSH1 0x20 DUP3 ADD MLOAD DUP2 PUSH1 0x1 ADD SWAP1 DUP2 PUSH2 0x570 SWAP2 SWAP1 PUSH2 0x1140 JUMP JUMPDEST POP PUSH1 0x40 DUP3 ADD MLOAD DUP2 PUSH1 0x2 ADD SSTORE PUSH1 0x60 DUP3 ADD MLOAD DUP2 PUSH1 0x3 ADD SSTORE PUSH1 0x80 DUP3 ADD MLOAD DUP2 PUSH1 0x4 ADD SSTORE SWAP1 POP POP POP POP POP POP POP JUMP JUMPDEST PUSH1 0x1 DUP2 SUB PUSH2 0x631 JUMPI PUSH1 0x1 SWAP1 POP PUSH1 0x1 DUP1 PUSH1 0x0 DUP6 PUSH20 0xFFFFFFFFFFFFFFFFFFFFFFFFFFFFFFFFFFFFFFFF AND PUSH20 0xFFFFFFFFFFFFFFFFFFFFFFFFFFFFFFFFFFFFFFFF AND DUP2 MSTORE PUSH1 0x20 ADD SWAP1 DUP2 MSTORE PUSH1 0x20 ADD PUSH1 0x0 KECCAK256 PUSH1 0x3 ADD PUSH1 0x0 DUP3 DUP3 SLOAD PUSH2 0x5F7 SWAP2 SWAP1 PUSH2 0x1241 JUMP JUMPDEST SWAP3 POP POP DUP2 SWAP1 SSTORE POP PUSH1 0x1 PUSH1 0x2 PUSH1 0x0 DUP5 DUP2 MSTORE PUSH1 0x20 ADD SWAP1 DUP2 MSTORE PUSH1 0x20 ADD PUSH1 0x0 KECCAK256 PUSH1 0x3 ADD PUSH1 0x0 DUP3 DUP3 SLOAD PUSH2 0x625 SWAP2 SWAP1 PUSH2 0x1241 JUMP JUMPDEST SWAP3 POP POP DUP2 SWAP1 SSTORE POP PUSH2 0x6BD JUMP JUMPDEST PUSH1 0x0 SWAP1 POP PUSH1 0x1 DUP1 PUSH1 0x0 DUP6 PUSH20 0xFFFFFFFFFFFFFFFFFFFFFFFFFFFFFFFFFFFFFFFF AND PUSH20 0xFFFFFFFFFFFFFFFFFFFFFFFFFFFFFFFFFFFFFFFF AND DUP2 MSTORE PUSH1 0x20 ADD SWAP1 DUP2 MSTORE PUSH1 0x20 ADD PUSH1 0x0 KECCAK256 PUSH1 0x4 ADD PUSH1 0x0 DUP3 DUP3 SLOAD PUSH2 0x687 SWAP2 SWAP1 PUSH2 0x1241 JUMP JUMPDEST SWAP3 POP POP DUP2 SWAP1 SSTORE POP PUSH1 0x1 PUSH1 0x2 PUSH1 0x0 DUP5 DUP2 MSTORE PUSH1 0x20 ADD SWAP1 DUP2 MSTORE PUSH1 0x20 ADD PUSH1 0x0 KECCAK256 PUSH1 0x4 ADD PUSH1 0x0 DUP3 DUP3 SLOAD PUSH2 0x6B5 SWAP2 SWAP1 PUSH2 0x1241 JUMP JUMPDEST SWAP3 POP POP DUP2 SWAP1 SSTORE POP JUMPDEST PUSH1 0x40 MLOAD DUP1 PUSH1 0x60 ADD PUSH1 0x40 MSTORE DUP1 PUSH1 0x1 PUSH1 0x0 DUP7 PUSH20 0xFFFFFFFFFFFFFFFFFFFFFFFFFFFFFFFFFFFFFFFF AND PUSH20 0xFFFFFFFFFFFFFFFFFFFFFFFFFFFFFFFFFFFFFFFF AND DUP2 MSTORE PUSH1 0x20 ADD SWAP1 DUP2 MSTORE PUSH1 0x20 ADD PUSH1 0x0 KECCAK256 PUSH1 0x1 ADD DUP1 SLOAD PUSH2 0x715 SWAP1 PUSH2 0xF63 JUMP JUMPDEST DUP1 PUSH1 0x1F ADD PUSH1 0x20 DUP1 SWAP2 DIV MUL PUSH1 0x20 ADD PUSH1 0x40 MLOAD SWAP1 DUP2 ADD PUSH1 0x40 MSTORE DUP1 SWAP3 SWAP2 SWAP1 DUP2 DUP2 MSTORE PUSH1 0x20 ADD DUP3 DUP1 SLOAD PUSH2 0x741 SWAP1 PUSH2 0xF63 JUMP JUMPDEST DUP1 ISZERO PUSH2 0x78E JUMPI DUP1 PUSH1 0x1F LT PUSH2 0x763 JUMPI PUSH2 0x100 DUP1 DUP4 SLOAD DIV MUL DUP4 MSTORE SWAP2 PUSH1 0x20 ADD SWAP2 PUSH2 0x78E JUMP JUMPDEST DUP3 ADD SWAP2 SWAP1 PUSH1 0x0 MSTORE PUSH1 0x20 PUSH1 0x0 KECCAK256 SWAP1 JUMPDEST DUP2 SLOAD DUP2 MSTORE SWAP1 PUSH1 0x1 ADD SWAP1 PUSH1 0x20 ADD DUP1 DUP4 GT PUSH2 0x771 JUMPI DUP3 SWAP1 SUB PUSH1 0x1F AND DUP3 ADD SWAP2 JUMPDEST POP POP POP POP POP DUP2 MSTORE PUSH1 0x20 ADD DUP3 DUP2 MSTORE PUSH1 0x20 ADD PUSH1 0x2 PUSH1 0x0 DUP6 DUP2 MSTORE PUSH1 0x20 ADD SWAP1 DUP2 MSTORE PUSH1 0x20 ADD PUSH1 0x0 KECCAK256 PUSH1 0x1 ADD DUP1 SLOAD PUSH2 0x7BF SWAP1 PUSH2 0xF63 JUMP JUMPDEST DUP1 PUSH1 0x1F ADD PUSH1 0x20 DUP1 SWAP2 DIV MUL PUSH1 0x20 ADD PUSH1 0x40 MLOAD SWAP1 DUP2 ADD PUSH1 0x40 MSTORE DUP1 SWAP3 SWAP2 SWAP1 DUP2 DUP2 MSTORE PUSH1 0x20 ADD DUP3 DUP1 SLOAD PUSH2 0x7EB SWAP1 PUSH2 0xF63 JUMP JUMPDEST DUP1 ISZERO PUSH2 0x838 JUMPI DUP1 PUSH1 0x1F LT PUSH2 0x80D JUMPI PUSH2 0x100 DUP1 DUP4 SLOAD DIV MUL DUP4 MSTORE SWAP2 PUSH1 0x20 ADD SWAP2 PUSH2 0x838 JUMP JUMPDEST DUP3 ADD SWAP2 SWAP1 PUSH1 0x0 MSTORE PUSH1 0x20 PUSH1 0x0 KECCAK256 SWAP1 JUMPDEST DUP2 SLOAD DUP2 MSTORE SWAP1 PUSH1 0x1 ADD SWAP1 PUSH1 0x20 ADD DUP1 DUP4 GT PUSH2 0x81B JUMPI DUP3 SWAP1 SUB PUSH1 0x1F AND DUP3 ADD SWAP2 JUMPDEST POP POP POP POP POP DUP2 MSTORE POP PUSH1 0x3 PUSH1 0x0 DUP5 DUP2 MSTORE PUSH1 0x20 ADD SWAP1 DUP2 MSTORE PUSH1 0x20 ADD PUSH1 0x0 KECCAK256 PUSH1 0x0 DUP3 ADD MLOAD DUP2 PUSH1 0x0 ADD SWAP1 DUP2 PUSH2 0x868 SWAP2 SWAP1 PUSH2 0x1140 JUMP JUMPDEST POP PUSH1 0x20 DUP3 ADD MLOAD DUP2 PUSH1 0x1 ADD SSTORE PUSH1 0x40 DUP3 ADD MLOAD DUP2 PUSH1 0x2 ADD SWAP1 DUP2 PUSH2 0x888 SWAP2 SWAP1 PUSH2 0x1140 JUMP JUMPDEST POP SWAP1 POP POP PUSH1 0x1 DUP1 PUSH1 0x0 DUP6 PUSH20 0xFFFFFFFFFFFFFFFFFFFFFFFFFFFFFFFFFFFFFFFF AND PUSH20 0xFFFFFFFFFFFFFFFFFFFFFFFFFFFFFFFFFFFFFFFF AND DUP2 MSTORE PUSH1 0x20 ADD SWAP1 DUP2 MSTORE PUSH1 0x20 ADD PUSH1 0x0 KECCAK256 PUSH1 0x2 ADD PUSH1 0x0 DUP3 DUP3 SLOAD PUSH2 0x8DE SWAP2 SWAP1 PUSH2 0x1241 JUMP JUMPDEST SWAP3 POP POP DUP2 SWAP1 SSTORE POP PUSH1 0x1 PUSH1 0x2 PUSH1 0x0 DUP5 DUP2 MSTORE PUSH1 0x20 ADD SWAP1 DUP2 MSTORE PUSH1 0x20 ADD PUSH1 0x0 KECCAK256 PUSH1 0x2 ADD PUSH1 0x0 DUP3 DUP3 SLOAD PUSH2 0x90C SWAP2 SWAP1 PUSH2 0x1241 JUMP JUMPDEST SWAP3 POP POP DUP2 SWAP1 SSTORE POP POP POP POP JUMP JUMPDEST PUSH1 0x1 PUSH1 0x20 MSTORE DUP1 PUSH1 0x0 MSTORE PUSH1 0x40 PUSH1 0x0 KECCAK256 PUSH1 0x0 SWAP2 POP SWAP1 POP DUP1 PUSH1 0x0 ADD PUSH1 0x0 SWAP1 SLOAD SWAP1 PUSH2 0x100 EXP SWAP1 DIV PUSH20 0xFFFFFFFFFFFFFFFFFFFFFFFFFFFFFFFFFFFFFFFF AND SWAP1 DUP1 PUSH1 0x1 ADD DUP1 SLOAD PUSH2 0x961 SWAP1 PUSH2 0xF63 JUMP JUMPDEST DUP1 PUSH1 0x1F ADD PUSH1 0x20 DUP1 SWAP2 DIV MUL PUSH1 0x20 ADD PUSH1 0x40 MLOAD SWAP1 DUP2 ADD PUSH1 0x40 MSTORE DUP1 SWAP3 SWAP2 SWAP1 DUP2 DUP2 MSTORE PUSH1 0x20 ADD DUP3 DUP1 SLOAD PUSH2 0x98D SWAP1 PUSH2 0xF63 JUMP JUMPDEST DUP1 ISZERO PUSH2 0x9DA JUMPI DUP1 PUSH1 0x1F LT PUSH2 0x9AF JUMPI PUSH2 0x100 DUP1 DUP4 SLOAD DIV MUL DUP4 MSTORE SWAP2 PUSH1 0x20 ADD SWAP2 PUSH2 0x9DA JUMP JUMPDEST DUP3 ADD SWAP2 SWAP1 PUSH1 0x0 MSTORE PUSH1 0x20 PUSH1 0x0 KECCAK256 SWAP1 JUMPDEST DUP2 SLOAD DUP2 MSTORE SWAP1 PUSH1 0x1 ADD SWAP1 PUSH1 0x20 ADD DUP1 DUP4 GT PUSH2 0x9BD JUMPI DUP3 SWAP1 SUB PUSH1 0x1F AND DUP3 ADD SWAP2 JUMPDEST POP POP POP POP POP SWAP1 DUP1 PUSH1 0x2 ADD SLOAD SWAP1 DUP1 PUSH1 0x3 ADD SLOAD SWAP1 DUP1 PUSH1 0x4 ADD SLOAD SWAP1 POP DUP6 JUMP JUMPDEST PUSH1 0x0 DUP2 SWAP1 POP SWAP2 SWAP1 POP JUMP JUMPDEST PUSH2 0xA09 DUP2 PUSH2 0x9F6 JUMP JUMPDEST DUP3 MSTORE POP POP JUMP JUMPDEST PUSH1 0x0 PUSH1 0x20 DUP3 ADD SWAP1 POP PUSH2 0xA24 PUSH1 0x0 DUP4 ADD DUP5 PUSH2 0xA00 JUMP JUMPDEST SWAP3 SWAP2 POP POP JUMP JUMPDEST PUSH1 0x0 PUSH1 0x40 MLOAD SWAP1 POP SWAP1 JUMP JUMPDEST PUSH1 0x0 DUP1 REVERT JUMPDEST PUSH1 0x0 DUP1 REVERT JUMPDEST PUSH1 0x0 DUP1 REVERT JUMPDEST PUSH1 0x0 DUP1 REVERT JUMPDEST PUSH1 0x0 PUSH1 0x1F NOT PUSH1 0x1F DUP4 ADD AND SWAP1 POP SWAP2 SWAP1 POP JUMP JUMPDEST PUSH32 0x4E487B7100000000000000000000000000000000000000000000000000000000 PUSH1 0x0 MSTORE PUSH1 0x41 PUSH1 0x4 MSTORE PUSH1 0x24 PUSH1 0x0 REVERT JUMPDEST PUSH2 0xA91 DUP3 PUSH2 0xA48 JUMP JUMPDEST DUP2 ADD DUP2 DUP2 LT PUSH8 0xFFFFFFFFFFFFFFFF DUP3 GT OR ISZERO PUSH2 0xAB0 JUMPI PUSH2 0xAAF PUSH2 0xA59 JUMP JUMPDEST JUMPDEST DUP1 PUSH1 0x40 MSTORE POP POP POP JUMP JUMPDEST PUSH1 0x0 PUSH2 0xAC3 PUSH2 0xA2A JUMP JUMPDEST SWAP1 POP PUSH2 0xACF DUP3 DUP3 PUSH2 0xA88 JUMP JUMPDEST SWAP2 SWAP1 POP JUMP JUMPDEST PUSH1 0x0 PUSH8 0xFFFFFFFFFFFFFFFF DUP3 GT ISZERO PUSH2 0xAEF JUMPI PUSH2 0xAEE PUSH2 0xA59 JUMP JUMPDEST JUMPDEST PUSH2 0xAF8 DUP3 PUSH2 0xA48 JUMP JUMPDEST SWAP1 POP PUSH1 0x20 DUP2 ADD SWAP1 POP SWAP2 SWAP1 POP JUMP JUMPDEST DUP3 DUP2 DUP4 CALLDATACOPY PUSH1 0x0 DUP4 DUP4 ADD MSTORE POP POP POP JUMP JUMPDEST PUSH1 0x0 PUSH2 0xB27 PUSH2 0xB22 DUP5 PUSH2 0xAD4 JUMP JUMPDEST PUSH2 0xAB9 JUMP JUMPDEST SWAP1 POP DUP3 DUP2 MSTORE PUSH1 0x20 DUP2 ADD DUP5 DUP5 DUP5 ADD GT ISZERO PUSH2 0xB43 JUMPI PUSH2 0xB42 PUSH2 0xA43 JUMP JUMPDEST JUMPDEST PUSH2 0xB4E DUP5 DUP3 DUP6 PUSH2 0xB05 JUMP JUMPDEST POP SWAP4 SWAP3 POP POP POP JUMP JUMPDEST PUSH1 0x0 DUP3 PUSH1 0x1F DUP4 ADD SLT PUSH2 0xB6B JUMPI PUSH2 0xB6A PUSH2 0xA3E JUMP JUMPDEST JUMPDEST DUP2 CALLDATALOAD PUSH2 0xB7B DUP5 DUP3 PUSH1 0x20 DUP7 ADD PUSH2 0xB14 JUMP JUMPDEST SWAP2 POP POP SWAP3 SWAP2 POP POP JUMP JUMPDEST PUSH1 0x0 PUSH1 0x20 DUP3 DUP5 SUB SLT ISZERO PUSH2 0xB9A JUMPI PUSH2 0xB99 PUSH2 0xA34 JUMP JUMPDEST JUMPDEST PUSH1 0x0 DUP3 ADD CALLDATALOAD PUSH8 0xFFFFFFFFFFFFFFFF DUP2 GT ISZERO PUSH2 0xBB8 JUMPI PUSH2 0xBB7 PUSH2 0xA39 JUMP JUMPDEST JUMPDEST PUSH2 0xBC4 DUP5 DUP3 DUP6 ADD PUSH2 0xB56 JUMP JUMPDEST SWAP2 POP POP SWAP3 SWAP2 POP POP JUMP JUMPDEST PUSH2 0xBD6 DUP2 PUSH2 0x9F6 JUMP JUMPDEST DUP2 EQ PUSH2 0xBE1 JUMPI PUSH1 0x0 DUP1 REVERT JUMPDEST POP JUMP JUMPDEST PUSH1 0x0 DUP2 CALLDATALOAD SWAP1 POP PUSH2 0xBF3 DUP2 PUSH2 0xBCD JUMP JUMPDEST SWAP3 SWAP2 POP POP JUMP JUMPDEST PUSH1 0x0 PUSH1 0x20 DUP3 DUP5 SUB SLT ISZERO PUSH2 0xC0F JUMPI PUSH2 0xC0E PUSH2 0xA34 JUMP JUMPDEST JUMPDEST PUSH1 0x0 PUSH2 0xC1D DUP5 DUP3 DUP6 ADD PUSH2 0xBE4 JUMP JUMPDEST SWAP2 POP POP SWAP3 SWAP2 POP POP JUMP JUMPDEST PUSH1 0x0 DUP2 MLOAD SWAP1 POP SWAP2 SWAP1 POP JUMP JUMPDEST PUSH1 0x0 DUP3 DUP3 MSTORE PUSH1 0x20 DUP3 ADD SWAP1 POP SWAP3 SWAP2 POP POP JUMP JUMPDEST PUSH1 0x0 JUMPDEST DUP4 DUP2 LT ISZERO PUSH2 0xC60 JUMPI DUP1 DUP3 ADD MLOAD DUP2 DUP5 ADD MSTORE PUSH1 0x20 DUP2 ADD SWAP1 POP PUSH2 0xC45 JUMP JUMPDEST PUSH1 0x0 DUP5 DUP5 ADD MSTORE POP POP POP POP JUMP JUMPDEST PUSH1 0x0 PUSH2 0xC77 DUP3 PUSH2 0xC26 JUMP JUMPDEST PUSH2 0xC81 DUP2 DUP6 PUSH2 0xC31 JUMP JUMPDEST SWAP4 POP PUSH2 0xC91 DUP2 DUP6 PUSH1 0x20 DUP7 ADD PUSH2 0xC42 JUMP JUMPDEST PUSH2 0xC9A DUP2 PUSH2 0xA48 JUMP JUMPDEST DUP5 ADD SWAP2 POP POP SWAP3 SWAP2 POP POP JUMP JUMPDEST PUSH1 0x0 PUSH1 0xA0 DUP3 ADD SWAP1 POP PUSH2 0xCBA PUSH1 0x0 DUP4 ADD DUP9 PUSH2 0xA00 JUMP JUMPDEST DUP2 DUP2 SUB PUSH1 0x20 DUP4 ADD MSTORE PUSH2 0xCCC DUP2 DUP8 PUSH2 0xC6C JUMP JUMPDEST SWAP1 POP PUSH2 0xCDB PUSH1 0x40 DUP4 ADD DUP7 PUSH2 0xA00 JUMP JUMPDEST PUSH2 0xCE8 PUSH1 0x60 DUP4 ADD DUP6 PUSH2 0xA00 JUMP JUMPDEST PUSH2 0xCF5 PUSH1 0x80 DUP4 ADD DUP5 PUSH2 0xA00 JUMP JUMPDEST SWAP7 SWAP6 POP POP POP POP POP POP JUMP JUMPDEST PUSH1 0x0 DUP1 PUSH1 0x40 DUP4 DUP6 SUB SLT ISZERO PUSH2 0xD16 JUMPI PUSH2 0xD15 PUSH2 0xA34 JUMP JUMPDEST JUMPDEST PUSH1 0x0 PUSH2 0xD24 DUP6 DUP3 DUP7 ADD PUSH2 0xBE4 JUMP JUMPDEST SWAP3 POP POP PUSH1 0x20 DUP4 ADD CALLDATALOAD PUSH8 0xFFFFFFFFFFFFFFFF DUP2 GT ISZERO PUSH2 0xD45 JUMPI PUSH2 0xD44 PUSH2 0xA39 JUMP JUMPDEST JUMPDEST PUSH2 0xD51 DUP6 DUP3 DUP7 ADD PUSH2 0xB56 JUMP JUMPDEST SWAP2 POP POP SWAP3 POP SWAP3 SWAP1 POP JUMP JUMPDEST PUSH1 0x0 PUSH20 0xFFFFFFFFFFFFFFFFFFFFFFFFFFFFFFFFFFFFFFFF DUP3 AND SWAP1 POP SWAP2 SWAP1 POP JUMP JUMPDEST PUSH1 0x0 PUSH2 0xD86 DUP3 PUSH2 0xD5B JUMP JUMPDEST SWAP1 POP SWAP2 SWAP1 POP JUMP JUMPDEST PUSH2 0xD96 DUP2 PUSH2 0xD7B JUMP JUMPDEST DUP2 EQ PUSH2 0xDA1 JUMPI PUSH1 0x0 DUP1 REVERT JUMPDEST POP JUMP JUMPDEST PUSH1 0x0 DUP2 CALLDATALOAD SWAP1 POP PUSH2 0xDB3 DUP2 PUSH2 0xD8D JUMP JUMPDEST SWAP3 SWAP2 POP POP JUMP JUMPDEST PUSH1 0x0 DUP1 PUSH1 0x0 PUSH1 0x60 DUP5 DUP7 SUB SLT ISZERO PUSH2 0xDD2 JUMPI PUSH2 0xDD1 PUSH2 0xA34 JUMP JUMPDEST JUMPDEST PUSH1 0x0 PUSH2 0xDE0 DUP7 DUP3 DUP8 ADD PUSH2 0xDA4 JUMP JUMPDEST SWAP4 POP POP PUSH1 0x20 PUSH2 0xDF1 DUP7 DUP3 DUP8 ADD PUSH2 0xBE4 JUMP JUMPDEST SWAP3 POP POP PUSH1 0x40 PUSH2 0xE02 DUP7 DUP3 DUP8 ADD PUSH2 0xBE4 JUMP JUMPDEST SWAP2 POP POP SWAP3 POP SWAP3 POP SWAP3 JUMP JUMPDEST PUSH1 0x0 PUSH1 0x20 DUP3 DUP5 SUB SLT ISZERO PUSH2 0xE22 JUMPI PUSH2 0xE21 PUSH2 0xA34 JUMP JUMPDEST JUMPDEST PUSH1 0x0 PUSH2 0xE30 DUP5 DUP3 DUP6 ADD PUSH2 0xDA4 JUMP JUMPDEST SWAP2 POP POP SWAP3 SWAP2 POP POP JUMP JUMPDEST PUSH2 0xE42 DUP2 PUSH2 0xD7B JUMP JUMPDEST DUP3 MSTORE POP POP JUMP JUMPDEST PUSH1 0x0 PUSH1 0xA0 DUP3 ADD SWAP1 POP PUSH2 0xE5D PUSH1 0x0 DUP4 ADD DUP9 PUSH2 0xE39 JUMP JUMPDEST DUP2 DUP2 SUB PUSH1 0x20 DUP4 ADD MSTORE PUSH2 0xE6F DUP2 DUP8 PUSH2 0xC6C JUMP JUMPDEST SWAP1 POP PUSH2 0xE7E PUSH1 0x40 DUP4 ADD DUP7 PUSH2 0xA00 JUMP JUMPDEST PUSH2 0xE8B PUSH1 0x60 DUP4 ADD DUP6 PUSH2 0xA00 JUMP JUMPDEST PUSH2 0xE98 PUSH1 0x80 DUP4 ADD DUP5 PUSH2 0xA00 JUMP JUMPDEST SWAP7 SWAP6 POP POP POP POP POP POP JUMP JUMPDEST PUSH32 0x6E6F742061626C6520746F2061646465642061206E657720706F6C6C20626563 PUSH1 0x0 DUP3 ADD MSTORE PUSH32 0x6175736520796F757220706F6C6C20697320616C72656164792065786973742E PUSH1 0x20 DUP3 ADD MSTORE POP JUMP JUMPDEST PUSH1 0x0 PUSH2 0xEFE PUSH1 0x40 DUP4 PUSH2 0xC31 JUMP JUMPDEST SWAP2 POP PUSH2 0xF09 DUP3 PUSH2 0xEA2 JUMP JUMPDEST PUSH1 0x40 DUP3 ADD SWAP1 POP SWAP2 SWAP1 POP JUMP JUMPDEST PUSH1 0x0 PUSH1 0x20 DUP3 ADD SWAP1 POP DUP2 DUP2 SUB PUSH1 0x0 DUP4 ADD MSTORE PUSH2 0xF2D DUP2 PUSH2 0xEF1 JUMP JUMPDEST SWAP1 POP SWAP2 SWAP1 POP JUMP JUMPDEST PUSH32 0x4E487B7100000000000000000000000000000000000000000000000000000000 PUSH1 0x0 MSTORE PUSH1 0x22 PUSH1 0x4 MSTORE PUSH1 0x24 PUSH1 0x0 REVERT JUMPDEST PUSH1 0x0 PUSH1 0x2 DUP3 DIV SWAP1 POP PUSH1 0x1 DUP3 AND DUP1 PUSH2 0xF7B JUMPI PUSH1 0x7F DUP3 AND SWAP2 POP JUMPDEST PUSH1 0x20 DUP3 LT DUP2 SUB PUSH2 0xF8E JUMPI PUSH2 0xF8D PUSH2 0xF34 JUMP JUMPDEST JUMPDEST POP SWAP2 SWAP1 POP JUMP JUMPDEST PUSH1 0x0 DUP2 SWAP1 POP DUP2 PUSH1 0x0 MSTORE PUSH1 0x20 PUSH1 0x0 KECCAK256 SWAP1 POP SWAP2 SWAP1 POP JUMP JUMPDEST PUSH1 0x0 PUSH1 0x20 PUSH1 0x1F DUP4 ADD DIV SWAP1 POP SWAP2 SWAP1 POP JUMP JUMPDEST PUSH1 0x0 DUP3 DUP3 SHL SWAP1 POP SWAP3 SWAP2 POP POP JUMP JUMPDEST PUSH1 0x0 PUSH1 0x8 DUP4 MUL PUSH2 0xFF6 PUSH32 0xFFFFFFFFFFFFFFFFFFFFFFFFFFFFFFFFFFFFFFFFFFFFFFFFFFFFFFFFFFFFFFFF DUP3 PUSH2 0xFB9 JUMP JUMPDEST PUSH2 0x1000 DUP7 DUP4 PUSH2 0xFB9 JUMP JUMPDEST SWAP6 POP DUP1 NOT DUP5 AND SWAP4 POP DUP1 DUP7 AND DUP5 OR SWAP3 POP POP POP SWAP4 SWAP3 POP POP POP JUMP JUMPDEST PUSH1 0x0 DUP2 SWAP1 POP SWAP2 SWAP1 POP JUMP JUMPDEST PUSH1 0x0 PUSH2 0x103D PUSH2 0x1038 PUSH2 0x1033 DUP5 PUSH2 0x9F6 JUMP JUMPDEST PUSH2 0x1018 JUMP JUMPDEST PUSH2 0x9F6 JUMP JUMPDEST SWAP1 POP SWAP2 SWAP1 POP JUMP JUMPDEST PUSH1 0x0 DUP2 SWAP1 POP SWAP2 SWAP1 POP JUMP JUMPDEST PUSH2 0x1057 DUP4 PUSH2 0x1022 JUMP JUMPDEST PUSH2 0x106B PUSH2 0x1063 DUP3 PUSH2 0x1044 JUMP JUMPDEST DUP5 DUP5 SLOAD PUSH2 0xFC6 JUMP JUMPDEST DUP3 SSTORE POP POP POP POP JUMP JUMPDEST PUSH1 0x0 SWAP1 JUMP JUMPDEST PUSH2 0x1080 PUSH2 0x1073 JUMP JUMPDEST PUSH2 0x108B DUP2 DUP5 DUP5 PUSH2 0x104E JUMP JUMPDEST POP POP POP JUMP JUMPDEST JUMPDEST DUP2 DUP2 LT ISZERO PUSH2 0x10AF JUMPI PUSH2 0x10A4 PUSH1 0x0 DUP3 PUSH2 0x1078 JUMP JUMPDEST PUSH1 0x1 DUP2 ADD SWAP1 POP PUSH2 0x1091 JUMP JUMPDEST POP POP JUMP JUMPDEST PUSH1 0x1F DUP3 GT ISZERO PUSH2 0x10F4 JUMPI PUSH2 0x10C5 DUP2 PUSH2 0xF94 JUMP JUMPDEST PUSH2 0x10CE DUP5 PUSH2 0xFA9 JUMP JUMPDEST DUP2 ADD PUSH1 0x20 DUP6 LT ISZERO PUSH2 0x10DD JUMPI DUP2 SWAP1 POP JUMPDEST PUSH2 0x10F1 PUSH2 0x10E9 DUP6 PUSH2 0xFA9 JUMP JUMPDEST DUP4 ADD DUP3 PUSH2 0x1090 JUMP JUMPDEST POP POP JUMPDEST POP POP POP JUMP JUMPDEST PUSH1 0x0 DUP3 DUP3 SHR SWAP1 POP SWAP3 SWAP2 POP POP JUMP JUMPDEST PUSH1 0x0 PUSH2 0x1117 PUSH1 0x0 NOT DUP5 PUSH1 0x8 MUL PUSH2 0x10F9 JUMP JUMPDEST NOT DUP1 DUP4 AND SWAP2 POP POP SWAP3 SWAP2 POP POP JUMP JUMPDEST PUSH1 0x0 PUSH2 0x1130 DUP4 DUP4 PUSH2 0x1106 JUMP JUMPDEST SWAP2 POP DUP3 PUSH1 0x2 MUL DUP3 OR SWAP1 POP SWAP3 SWAP2 POP POP JUMP JUMPDEST PUSH2 0x1149 DUP3 PUSH2 0xC26 JUMP JUMPDEST PUSH8 0xFFFFFFFFFFFFFFFF DUP2 GT ISZERO PUSH2 0x1162 JUMPI PUSH2 0x1161 PUSH2 0xA59 JUMP JUMPDEST JUMPDEST PUSH2 0x116C DUP3 SLOAD PUSH2 0xF63 JUMP JUMPDEST PUSH2 0x1177 DUP3 DUP3 DUP6 PUSH2 0x10B3 JUMP JUMPDEST PUSH1 0x0 PUSH1 0x20 SWAP1 POP PUSH1 0x1F DUP4 GT PUSH1 0x1 DUP2 EQ PUSH2 0x11AA JUMPI PUSH1 0x0 DUP5 ISZERO PUSH2 0x1198 JUMPI DUP3 DUP8 ADD MLOAD SWAP1 POP JUMPDEST PUSH2 0x11A2 DUP6 DUP3 PUSH2 0x1124 JUMP JUMPDEST DUP7 SSTORE POP PUSH2 0x120A JUMP JUMPDEST PUSH1 0x1F NOT DUP5 AND PUSH2 0x11B8 DUP7 PUSH2 0xF94 JUMP JUMPDEST PUSH1 0x0 JUMPDEST DUP3 DUP2 LT ISZERO PUSH2 0x11E0 JUMPI DUP5 DUP10 ADD MLOAD DUP3 SSTORE PUSH1 0x1 DUP3 ADD SWAP2 POP PUSH1 0x20 DUP6 ADD SWAP5 POP PUSH1 0x20 DUP2 ADD SWAP1 POP PUSH2 0x11BB JUMP JUMPDEST DUP7 DUP4 LT ISZERO PUSH2 0x11FD JUMPI DUP5 DUP10 ADD MLOAD PUSH2 0x11F9 PUSH1 0x1F DUP10 AND DUP3 PUSH2 0x1106 JUMP JUMPDEST DUP4 SSTORE POP JUMPDEST PUSH1 0x1 PUSH1 0x2 DUP9 MUL ADD DUP9 SSTORE POP POP POP JUMPDEST POP POP POP POP POP POP JUMP JUMPDEST PUSH32 0x4E487B7100000000000000000000000000000000000000000000000000000000 PUSH1 0x0 MSTORE PUSH1 0x11 PUSH1 0x4 MSTORE PUSH1 0x24 PUSH1 0x0 REVERT JUMPDEST PUSH1 0x0 PUSH2 0x124C DUP3 PUSH2 0x9F6 JUMP JUMPDEST SWAP2 POP PUSH2 0x1257 DUP4 PUSH2 0x9F6 JUMP JUMPDEST SWAP3 POP DUP3 DUP3 ADD SWAP1 POP DUP1 DUP3 GT ISZERO PUSH2 0x126F JUMPI PUSH2 0x126E PUSH2 0x1212 JUMP JUMPDEST JUMPDEST SWAP3 SWAP2 POP POP JUMP INVALID LOG2 PUSH5 0x6970667358 0x22 SLT KECCAK256 0xC9 POP 0xE1 DIV 0xB6 ADDMOD 0xC1 CALLVALUE 0xEE GT DUP5 0xB0 ADDRESS 0xE5 CREATE PUSH30 0x6716641FFAEC762CC5699DB17A13A10864736F6C63430008120033000000 "
				},
				"gasEstimates": {
					"creation": {
						"codeDepositCost": "955800",
						"executionCost": "994",
						"totalCost": "956794"
					},
					"external": {
						"CreatePoll(string)": "infinite",
						"createVoter(uint256,string)": "infinite",
						"getPolls()": "2415",
						"poll_ans(address,uint256,uint256)": "infinite",
						"polls(address)": "infinite",
						"voter(uint256)": "infinite"
					}
				},
				"methodIdentifiers": {
					"CreatePoll(string)": "5f7687a2",
					"createVoter(uint256,string)": "bf14c6d2",
					"getPolls()": "120fe89b",
					"poll_ans(address,uint256,uint256)": "c3589e77",
					"polls(address)": "c3dfae97",
					"voter(uint256)": "ab8ed1ba"
				}
			},
			"storageLayout": {
				"storage": [
					{
						"astId": 3,
						"contract": "contracts/poll_system.sol:polls_system",
						"label": "polls_count",
						"offset": 0,
						"slot": "0",
						"type": "t_uint256"
					},
					{
						"astId": 37,
						"contract": "contracts/poll_system.sol:polls_system",
						"label": "polls",
						"offset": 0,
						"slot": "1",
						"type": "t_mapping(t_address,t_struct(pollInfo)14_storage)"
					},
					{
						"astId": 42,
						"contract": "contracts/poll_system.sol:polls_system",
						"label": "voter",
						"offset": 0,
						"slot": "2",
						"type": "t_mapping(t_uint256,t_struct(voterInfo)25_storage)"
					},
					{
						"astId": 47,
						"contract": "contracts/poll_system.sol:polls_system",
						"label": "pollAnswer",
						"offset": 0,
						"slot": "3",
						"type": "t_mapping(t_uint256,t_struct(pollAns)32_storage)"
					}
				],
				"types": {
					"t_address": {
						"encoding": "inplace",
						"label": "address",
						"numberOfBytes": "20"
					},
					"t_mapping(t_address,t_struct(pollInfo)14_storage)": {
						"encoding": "mapping",
						"key": "t_address",
						"label": "mapping(address => struct polls_system.pollInfo)",
						"numberOfBytes": "32",
						"value": "t_struct(pollInfo)14_storage"
					},
					"t_mapping(t_uint256,t_struct(pollAns)32_storage)": {
						"encoding": "mapping",
						"key": "t_uint256",
						"label": "mapping(uint256 => struct polls_system.pollAns)",
						"numberOfBytes": "32",
						"value": "t_struct(pollAns)32_storage"
					},
					"t_mapping(t_uint256,t_struct(voterInfo)25_storage)": {
						"encoding": "mapping",
						"key": "t_uint256",
						"label": "mapping(uint256 => struct polls_system.voterInfo)",
						"numberOfBytes": "32",
						"value": "t_struct(voterInfo)25_storage"
					},
					"t_string_storage": {
						"encoding": "bytes",
						"label": "string",
						"numberOfBytes": "32"
					},
					"t_struct(pollAns)32_storage": {
						"encoding": "inplace",
						"label": "struct polls_system.pollAns",
						"members": [
							{
								"astId": 27,
								"contract": "contracts/poll_system.sol:polls_system",
								"label": "que",
								"offset": 0,
								"slot": "0",
								"type": "t_string_storage"
							},
							{
								"astId": 29,
								"contract": "contracts/poll_system.sol:polls_system",
								"label": "answer",
								"offset": 0,
								"slot": "1",
								"type": "t_uint256"
							},
							{
								"astId": 31,
								"contract": "contracts/poll_system.sol:polls_system",
								"label": "voter_name",
								"offset": 0,
								"slot": "2",
								"type": "t_string_storage"
							}
						],
						"numberOfBytes": "96"
					},
					"t_struct(pollInfo)14_storage": {
						"encoding": "inplace",
						"label": "struct polls_system.pollInfo",
						"members": [
							{
								"astId": 5,
								"contract": "contracts/poll_system.sol:polls_system",
								"label": "poll_id",
								"offset": 0,
								"slot": "0",
								"type": "t_address"
							},
							{
								"astId": 7,
								"contract": "contracts/poll_system.sol:polls_system",
								"label": "question",
								"offset": 0,
								"slot": "1",
								"type": "t_string_storage"
							},
							{
								"astId": 9,
								"contract": "contracts/poll_system.sol:polls_system",
								"label": "total_ans",
								"offset": 0,
								"slot": "2",
								"type": "t_uint256"
							},
							{
								"astId": 11,
								"contract": "contracts/poll_system.sol:polls_system",
								"label": "y_count",
								"offset": 0,
								"slot": "3",
								"type": "t_uint256"
							},
							{
								"astId": 13,
								"contract": "contracts/poll_system.sol:polls_system",
								"label": "n_count",
								"offset": 0,
								"slot": "4",
								"type": "t_uint256"
							}
						],
						"numberOfBytes": "160"
					},
					"t_struct(voterInfo)25_storage": {
						"encoding": "inplace",
						"label": "struct polls_system.voterInfo",
						"members": [
							{
								"astId": 16,
								"contract": "contracts/poll_system.sol:polls_system",
								"label": "voter_id",
								"offset": 0,
								"slot": "0",
								"type": "t_uint256"
							},
							{
								"astId": 18,
								"contract": "contracts/poll_system.sol:polls_system",
								"label": "name",
								"offset": 0,
								"slot": "1",
								"type": "t_string_storage"
							},
							{
								"astId": 20,
								"contract": "contracts/poll_system.sol:polls_system",
								"label": "ans_poll",
								"offset": 0,
								"slot": "2",
								"type": "t_uint256"
							},
							{
								"astId": 22,
								"contract": "contracts/poll_system.sol:polls_system",
								"label": "ans_poll_y",
								"offset": 0,
								"slot": "3",
								"type": "t_uint256"
							},
							{
								"astId": 24,
								"contract": "contracts/poll_system.sol:polls_system",
								"label": "ans_poll_n",
								"offset": 0,
								"slot": "4",
								"type": "t_uint256"
							}
						],
						"numberOfBytes": "160"
					},
					"t_uint256": {
						"encoding": "inplace",
						"label": "uint256",
						"numberOfBytes": "32"
					}
				}
			},
			"userdoc": {
				"kind": "user",
				"methods": {},
				"version": 1
			}
		}
	}
}