{
	"contracts/student_attendance.sol": {
		"attendance_result": {
			"abi": [
				{
					"inputs": [
						{
							"internalType": "uint256",
							"name": "id",
							"type": "uint256"
						},
						{
							"internalType": "string",
							"name": "name",
							"type": "string"
						},
						{
							"internalType": "string",
							"name": "std",
							"type": "string"
						}
					],
					"name": "createStudent",
					"outputs": [],
					"stateMutability": "nonpayable",
					"type": "function"
				},
				{
					"inputs": [
						{
							"internalType": "uint256",
							"name": "",
							"type": "uint256"
						}
					],
					"name": "student",
					"outputs": [
						{
							"internalType": "uint256",
							"name": "roll_no",
							"type": "uint256"
						},
						{
							"internalType": "string",
							"name": "name",
							"type": "string"
						},
						{
							"internalType": "string",
							"name": "std",
							"type": "string"
						},
						{
							"internalType": "uint256",
							"name": "total_a",
							"type": "uint256"
						},
						{
							"internalType": "uint256",
							"name": "total_p",
							"type": "uint256"
						}
					],
					"stateMutability": "view",
					"type": "function"
				},
				{
					"inputs": [
						{
							"internalType": "uint256",
							"name": "roll_no",
							"type": "uint256"
						},
						{
							"internalType": "uint256",
							"name": "attendance",
							"type": "uint256"
						}
					],
					"name": "studentAttendance",
					"outputs": [],
					"stateMutability": "nonpayable",
					"type": "function"
				}
			],
			"devdoc": {
				"kind": "dev",
				"methods": {},
				"version": 1
			},
			"evm": {
				"assembly": "    /* \"contracts/student_attendance.sol\":73:1031  contract attendance_result {... */\n  mstore(0x40, 0x80)\n  callvalue\n  dup1\n  iszero\n  tag_1\n  jumpi\n  0x00\n  dup1\n  revert\ntag_1:\n  pop\n  dataSize(sub_0)\n  dup1\n  dataOffset(sub_0)\n  0x00\n  codecopy\n  0x00\n  return\nstop\n\nsub_0: assembly {\n        /* \"contracts/student_attendance.sol\":73:1031  contract attendance_result {... */\n      mstore(0x40, 0x80)\n      callvalue\n      dup1\n      iszero\n      tag_1\n      jumpi\n      0x00\n      dup1\n      revert\n    tag_1:\n      pop\n      jumpi(tag_2, lt(calldatasize, 0x04))\n      shr(0xe0, calldataload(0x00))\n      dup1\n      0x35f34232\n      eq\n      tag_3\n      jumpi\n      dup1\n      0x49f15e9e\n      eq\n      tag_4\n      jumpi\n      dup1\n      0xc0713b9c\n      eq\n      tag_5\n      jumpi\n    tag_2:\n      0x00\n      dup1\n      revert\n        /* \"contracts/student_attendance.sol\":246:290  mapping (uint => studentInfo) public student */\n    tag_3:\n      tag_6\n      0x04\n      dup1\n      calldatasize\n      sub\n      dup2\n      add\n      swap1\n      tag_7\n      swap2\n      swap1\n      tag_8\n      jump\t// in\n    tag_7:\n      tag_9\n      jump\t// in\n    tag_6:\n      mload(0x40)\n      tag_10\n      swap6\n      swap5\n      swap4\n      swap3\n      swap2\n      swap1\n      tag_11\n      jump\t// in\n    tag_10:\n      mload(0x40)\n      dup1\n      swap2\n      sub\n      swap1\n      return\n        /* \"contracts/student_attendance.sol\":297:515  function createStudent(uint id, string memory name, string memory std) public {... */\n    tag_4:\n      tag_12\n      0x04\n      dup1\n      calldatasize\n      sub\n      dup2\n      add\n      swap1\n      tag_13\n      swap2\n      swap1\n      tag_14\n      jump\t// in\n    tag_13:\n      tag_15\n      jump\t// in\n    tag_12:\n      stop\n        /* \"contracts/student_attendance.sol\":521:1026  function studentAttendance(uint roll_no, uint attendance) public {... */\n    tag_5:\n      tag_16\n      0x04\n      dup1\n      calldatasize\n      sub\n      dup2\n      add\n      swap1\n      tag_17\n      swap2\n      swap1\n      tag_18\n      jump\t// in\n    tag_17:\n      tag_19\n      jump\t// in\n    tag_16:\n      stop\n        /* \"contracts/student_attendance.sol\":246:290  mapping (uint => studentInfo) public student */\n    tag_9:\n      mstore(0x20, 0x00)\n      dup1\n      0x00\n      mstore\n      keccak256(0x00, 0x40)\n      0x00\n      swap2\n      pop\n      swap1\n      pop\n      dup1\n      0x00\n      add\n      sload\n      swap1\n      dup1\n      0x01\n      add\n      dup1\n      sload\n      tag_20\n      swap1\n      tag_21\n      jump\t// in\n    tag_20:\n      dup1\n      0x1f\n      add\n      0x20\n      dup1\n      swap2\n      div\n      mul\n      0x20\n      add\n      mload(0x40)\n      swap1\n      dup2\n      add\n      0x40\n      mstore\n      dup1\n      swap3\n      swap2\n      swap1\n      dup2\n      dup2\n      mstore\n      0x20\n      add\n      dup3\n      dup1\n      sload\n      tag_22\n      swap1\n      tag_21\n      jump\t// in\n    tag_22:\n      dup1\n      iszero\n      tag_23\n      jumpi\n      dup1\n      0x1f\n      lt\n      tag_24\n      jumpi\n      0x0100\n      dup1\n      dup4\n      sload\n      div\n      mul\n      dup4\n      mstore\n      swap2\n      0x20\n      add\n      swap2\n      jump(tag_23)\n    tag_24:\n      dup3\n      add\n      swap2\n      swap1\n      0x00\n      mstore\n      keccak256(0x00, 0x20)\n      swap1\n    tag_25:\n      dup2\n      sload\n      dup2\n      mstore\n      swap1\n      0x01\n      add\n      swap1\n      0x20\n      add\n      dup1\n      dup4\n      gt\n      tag_25\n      jumpi\n      dup3\n      swap1\n      sub\n      0x1f\n      and\n      dup3\n      add\n      swap2\n    tag_23:\n      pop\n      pop\n      pop\n      pop\n      pop\n      swap1\n      dup1\n      0x02\n      add\n      dup1\n      sload\n      tag_26\n      swap1\n      tag_21\n      jump\t// in\n    tag_26:\n      dup1\n      0x1f\n      add\n      0x20\n      dup1\n      swap2\n      div\n      mul\n      0x20\n      add\n      mload(0x40)\n      swap1\n      dup2\n      add\n      0x40\n      mstore\n      dup1\n      swap3\n      swap2\n      swap1\n      dup2\n      dup2\n      mstore\n      0x20\n      add\n      dup3\n      dup1\n      sload\n      tag_27\n      swap1\n      tag_21\n      jump\t// in\n    tag_27:\n      dup1\n      iszero\n      tag_28\n      jumpi\n      dup1\n      0x1f\n      lt\n      tag_29\n      jumpi\n      0x0100\n      dup1\n      dup4\n      sload\n      div\n      mul\n      dup4\n      mstore\n      swap2\n      0x20\n      add\n      swap2\n      jump(tag_28)\n    tag_29:\n      dup3\n      add\n      swap2\n      swap1\n      0x00\n      mstore\n      keccak256(0x00, 0x20)\n      swap1\n    tag_30:\n      dup2\n      sload\n      dup2\n      mstore\n      swap1\n      0x01\n      add\n      swap1\n      0x20\n      add\n      dup1\n      dup4\n      gt\n      tag_30\n      jumpi\n      dup3\n      swap1\n      sub\n      0x1f\n      and\n      dup3\n      add\n      swap2\n    tag_28:\n      pop\n      pop\n      pop\n      pop\n      pop\n      swap1\n      dup1\n      0x03\n      add\n      sload\n      swap1\n      dup1\n      0x04\n      add\n      sload\n      swap1\n      pop\n      dup6\n      jump\t// out\n        /* \"contracts/student_attendance.sol\":297:515  function createStudent(uint id, string memory name, string memory std) public {... */\n    tag_15:\n        /* \"contracts/student_attendance.sol\":385:391  uint a */\n      0x00\n        /* \"contracts/student_attendance.sol\":394:401  student */\n      dup1\n        /* \"contracts/student_attendance.sol\":394:405  student[id] */\n      0x00\n        /* \"contracts/student_attendance.sol\":402:404  id */\n      dup6\n        /* \"contracts/student_attendance.sol\":394:405  student[id] */\n      dup2\n      mstore\n      0x20\n      add\n      swap1\n      dup2\n      mstore\n      0x20\n      add\n      0x00\n      keccak256\n        /* \"contracts/student_attendance.sol\":394:413  student[id].total_a */\n      0x03\n      add\n      sload\n        /* \"contracts/student_attendance.sol\":385:413  uint a = student[id].total_a */\n      swap1\n      pop\n        /* \"contracts/student_attendance.sol\":423:429  uint p */\n      0x00\n        /* \"contracts/student_attendance.sol\":432:439  student */\n      dup1\n        /* \"contracts/student_attendance.sol\":432:443  student[id] */\n      0x00\n        /* \"contracts/student_attendance.sol\":440:442  id */\n      dup7\n        /* \"contracts/student_attendance.sol\":432:443  student[id] */\n      dup2\n      mstore\n      0x20\n      add\n      swap1\n      dup2\n      mstore\n      0x20\n      add\n      0x00\n      keccak256\n        /* \"contracts/student_attendance.sol\":432:451  student[id].total_p */\n      0x04\n      add\n      sload\n        /* \"contracts/student_attendance.sol\":423:451  uint p = student[id].total_p */\n      swap1\n      pop\n        /* \"contracts/student_attendance.sol\":476:508  studentInfo(id, name, std, a, p) */\n      mload(0x40)\n      dup1\n      0xa0\n      add\n      0x40\n      mstore\n      dup1\n        /* \"contracts/student_attendance.sol\":488:490  id */\n      dup7\n        /* \"contracts/student_attendance.sol\":476:508  studentInfo(id, name, std, a, p) */\n      dup2\n      mstore\n      0x20\n      add\n        /* \"contracts/student_attendance.sol\":492:496  name */\n      dup6\n        /* \"contracts/student_attendance.sol\":476:508  studentInfo(id, name, std, a, p) */\n      dup2\n      mstore\n      0x20\n      add\n        /* \"contracts/student_attendance.sol\":498:501  std */\n      dup5\n        /* \"contracts/student_attendance.sol\":476:508  studentInfo(id, name, std, a, p) */\n      dup2\n      mstore\n      0x20\n      add\n        /* \"contracts/student_attendance.sol\":503:504  a */\n      dup4\n        /* \"contracts/student_attendance.sol\":476:508  studentInfo(id, name, std, a, p) */\n      dup2\n      mstore\n      0x20\n      add\n        /* \"contracts/student_attendance.sol\":506:507  p */\n      dup3\n        /* \"contracts/student_attendance.sol\":476:508  studentInfo(id, name, std, a, p) */\n      dup2\n      mstore\n      pop\n        /* \"contracts/student_attendance.sol\":462:469  student */\n      0x00\n        /* \"contracts/student_attendance.sol\":462:473  student[id] */\n      dup1\n        /* \"contracts/student_attendance.sol\":470:472  id */\n      dup8\n        /* \"contracts/student_attendance.sol\":462:473  student[id] */\n      dup2\n      mstore\n      0x20\n      add\n      swap1\n      dup2\n      mstore\n      0x20\n      add\n      0x00\n      keccak256\n        /* \"contracts/student_attendance.sol\":462:508  student[id] = studentInfo(id, name, std, a, p) */\n      0x00\n      dup3\n      add\n      mload\n      dup2\n      0x00\n      add\n      sstore\n      0x20\n      dup3\n      add\n      mload\n      dup2\n      0x01\n      add\n      swap1\n      dup2\n      tag_32\n      swap2\n      swap1\n      tag_33\n      jump\t// in\n    tag_32:\n      pop\n      0x40\n      dup3\n      add\n      mload\n      dup2\n      0x02\n      add\n      swap1\n      dup2\n      tag_34\n      swap2\n      swap1\n      tag_33\n      jump\t// in\n    tag_34:\n      pop\n      0x60\n      dup3\n      add\n      mload\n      dup2\n      0x03\n      add\n      sstore\n      0x80\n      dup3\n      add\n      mload\n      dup2\n      0x04\n      add\n      sstore\n      swap1\n      pop\n      pop\n        /* \"contracts/student_attendance.sol\":375:515  {... */\n      pop\n      pop\n        /* \"contracts/student_attendance.sol\":297:515  function createStudent(uint id, string memory name, string memory std) public {... */\n      pop\n      pop\n      pop\n      jump\t// out\n        /* \"contracts/student_attendance.sol\":521:1026  function studentAttendance(uint roll_no, uint attendance) public {... */\n    tag_19:\n        /* \"contracts/student_attendance.sol\":613:614  1 */\n      0x01\n        /* \"contracts/student_attendance.sol\":599:609  attendance */\n      dup2\n        /* \"contracts/student_attendance.sol\":599:614  attendance == 1 */\n      sub\n        /* \"contracts/student_attendance.sol\":596:803  if(attendance == 1) {... */\n      tag_36\n      jumpi\n        /* \"contracts/student_attendance.sol\":661:662  1 */\n      0x01\n        /* \"contracts/student_attendance.sol\":633:640  student */\n      0x00\n        /* \"contracts/student_attendance.sol\":633:649  student[roll_no] */\n      dup1\n        /* \"contracts/student_attendance.sol\":641:648  roll_no */\n      dup5\n        /* \"contracts/student_attendance.sol\":633:649  student[roll_no] */\n      dup2\n      mstore\n      0x20\n      add\n      swap1\n      dup2\n      mstore\n      0x20\n      add\n      0x00\n      keccak256\n        /* \"contracts/student_attendance.sol\":633:657  student[roll_no].total_a */\n      0x03\n      add\n      sload\n        /* \"contracts/student_attendance.sol\":633:662  student[roll_no].total_a >= 1 */\n      lt\n        /* \"contracts/student_attendance.sol\":630:793  if(student[roll_no].total_a >= 1){... */\n      tag_37\n      jumpi\n        /* \"contracts/student_attendance.sol\":709:710  1 */\n      0x01\n        /* \"contracts/student_attendance.sol\":681:688  student */\n      0x00\n        /* \"contracts/student_attendance.sol\":681:697  student[roll_no] */\n      dup1\n        /* \"contracts/student_attendance.sol\":689:696  roll_no */\n      dup5\n        /* \"contracts/student_attendance.sol\":681:697  student[roll_no] */\n      dup2\n      mstore\n      0x20\n      add\n      swap1\n      dup2\n      mstore\n      0x20\n      add\n      0x00\n      keccak256\n        /* \"contracts/student_attendance.sol\":681:705  student[roll_no].total_a */\n      0x03\n      add\n      0x00\n        /* \"contracts/student_attendance.sol\":681:710  student[roll_no].total_a += 1 */\n      dup3\n      dup3\n      sload\n      tag_38\n      swap2\n      swap1\n      tag_39\n      jump\t// in\n    tag_38:\n      swap3\n      pop\n      pop\n      dup2\n      swap1\n      sstore\n      pop\n        /* \"contracts/student_attendance.sol\":630:793  if(student[roll_no].total_a >= 1){... */\n      jump(tag_40)\n    tag_37:\n        /* \"contracts/student_attendance.sol\":777:778  1 */\n      0x01\n        /* \"contracts/student_attendance.sol\":750:757  student */\n      0x00\n        /* \"contracts/student_attendance.sol\":750:766  student[roll_no] */\n      dup1\n        /* \"contracts/student_attendance.sol\":758:765  roll_no */\n      dup5\n        /* \"contracts/student_attendance.sol\":750:766  student[roll_no] */\n      dup2\n      mstore\n      0x20\n      add\n      swap1\n      dup2\n      mstore\n      0x20\n      add\n      0x00\n      keccak256\n        /* \"contracts/student_attendance.sol\":750:774  student[roll_no].total_a */\n      0x03\n      add\n        /* \"contracts/student_attendance.sol\":750:778  student[roll_no].total_a = 1 */\n      dup2\n      swap1\n      sstore\n      pop\n        /* \"contracts/student_attendance.sol\":630:793  if(student[roll_no].total_a >= 1){... */\n    tag_40:\n        /* \"contracts/student_attendance.sol\":596:803  if(attendance == 1) {... */\n    tag_36:\n        /* \"contracts/student_attendance.sol\":830:831  0 */\n      0x00\n        /* \"contracts/student_attendance.sol\":816:826  attendance */\n      dup2\n        /* \"contracts/student_attendance.sol\":816:831  attendance == 0 */\n      sub\n        /* \"contracts/student_attendance.sol\":813:1020  if(attendance == 0) {... */\n      tag_41\n      jumpi\n        /* \"contracts/student_attendance.sol\":878:879  1 */\n      0x01\n        /* \"contracts/student_attendance.sol\":850:857  student */\n      0x00\n        /* \"contracts/student_attendance.sol\":850:866  student[roll_no] */\n      dup1\n        /* \"contracts/student_attendance.sol\":858:865  roll_no */\n      dup5\n        /* \"contracts/student_attendance.sol\":850:866  student[roll_no] */\n      dup2\n      mstore\n      0x20\n      add\n      swap1\n      dup2\n      mstore\n      0x20\n      add\n      0x00\n      keccak256\n        /* \"contracts/student_attendance.sol\":850:874  student[roll_no].total_p */\n      0x04\n      add\n      sload\n        /* \"contracts/student_attendance.sol\":850:879  student[roll_no].total_p >= 1 */\n      lt\n        /* \"contracts/student_attendance.sol\":847:1010  if(student[roll_no].total_p >= 1) {... */\n      tag_42\n      jumpi\n        /* \"contracts/student_attendance.sol\":927:928  1 */\n      0x01\n        /* \"contracts/student_attendance.sol\":899:906  student */\n      0x00\n        /* \"contracts/student_attendance.sol\":899:915  student[roll_no] */\n      dup1\n        /* \"contracts/student_attendance.sol\":907:914  roll_no */\n      dup5\n        /* \"contracts/student_attendance.sol\":899:915  student[roll_no] */\n      dup2\n      mstore\n      0x20\n      add\n      swap1\n      dup2\n      mstore\n      0x20\n      add\n      0x00\n      keccak256\n        /* \"contracts/student_attendance.sol\":899:923  student[roll_no].total_p */\n      0x04\n      add\n      0x00\n        /* \"contracts/student_attendance.sol\":899:928  student[roll_no].total_p += 1 */\n      dup3\n      dup3\n      sload\n      tag_43\n      swap2\n      swap1\n      tag_39\n      jump\t// in\n    tag_43:\n      swap3\n      pop\n      pop\n      dup2\n      swap1\n      sstore\n      pop\n        /* \"contracts/student_attendance.sol\":847:1010  if(student[roll_no].total_p >= 1) {... */\n      jump(tag_44)\n    tag_42:\n        /* \"contracts/student_attendance.sol\":994:995  1 */\n      0x01\n        /* \"contracts/student_attendance.sol\":967:974  student */\n      0x00\n        /* \"contracts/student_attendance.sol\":967:983  student[roll_no] */\n      dup1\n        /* \"contracts/student_attendance.sol\":975:982  roll_no */\n      dup5\n        /* \"contracts/student_attendance.sol\":967:983  student[roll_no] */\n      dup2\n      mstore\n      0x20\n      add\n      swap1\n      dup2\n      mstore\n      0x20\n      add\n      0x00\n      keccak256\n        /* \"contracts/student_attendance.sol\":967:991  student[roll_no].total_p */\n      0x04\n      add\n        /* \"contracts/student_attendance.sol\":967:995  student[roll_no].total_p = 1 */\n      dup2\n      swap1\n      sstore\n      pop\n        /* \"contracts/student_attendance.sol\":847:1010  if(student[roll_no].total_p >= 1) {... */\n    tag_44:\n        /* \"contracts/student_attendance.sol\":813:1020  if(attendance == 0) {... */\n    tag_41:\n        /* \"contracts/student_attendance.sol\":521:1026  function studentAttendance(uint roll_no, uint attendance) public {... */\n      pop\n      pop\n      jump\t// out\n        /* \"#utility.yul\":7:82   */\n    tag_45:\n        /* \"#utility.yul\":40:46   */\n      0x00\n        /* \"#utility.yul\":73:75   */\n      0x40\n        /* \"#utility.yul\":67:76   */\n      mload\n        /* \"#utility.yul\":57:76   */\n      swap1\n      pop\n        /* \"#utility.yul\":7:82   */\n      swap1\n      jump\t// out\n        /* \"#utility.yul\":88:205   */\n    tag_46:\n        /* \"#utility.yul\":197:198   */\n      0x00\n        /* \"#utility.yul\":194:195   */\n      dup1\n        /* \"#utility.yul\":187:199   */\n      revert\n        /* \"#utility.yul\":211:328   */\n    tag_47:\n        /* \"#utility.yul\":320:321   */\n      0x00\n        /* \"#utility.yul\":317:318   */\n      dup1\n        /* \"#utility.yul\":310:322   */\n      revert\n        /* \"#utility.yul\":334:411   */\n    tag_48:\n        /* \"#utility.yul\":371:378   */\n      0x00\n        /* \"#utility.yul\":400:405   */\n      dup2\n        /* \"#utility.yul\":389:405   */\n      swap1\n      pop\n        /* \"#utility.yul\":334:411   */\n      swap2\n      swap1\n      pop\n      jump\t// out\n        /* \"#utility.yul\":417:539   */\n    tag_49:\n        /* \"#utility.yul\":490:514   */\n      tag_89\n        /* \"#utility.yul\":508:513   */\n      dup2\n        /* \"#utility.yul\":490:514   */\n      tag_48\n      jump\t// in\n    tag_89:\n        /* \"#utility.yul\":483:488   */\n      dup2\n        /* \"#utility.yul\":480:515   */\n      eq\n        /* \"#utility.yul\":470:533   */\n      tag_90\n      jumpi\n        /* \"#utility.yul\":529:530   */\n      0x00\n        /* \"#utility.yul\":526:527   */\n      dup1\n        /* \"#utility.yul\":519:531   */\n      revert\n        /* \"#utility.yul\":470:533   */\n    tag_90:\n        /* \"#utility.yul\":417:539   */\n      pop\n      jump\t// out\n        /* \"#utility.yul\":545:684   */\n    tag_50:\n        /* \"#utility.yul\":591:596   */\n      0x00\n        /* \"#utility.yul\":629:635   */\n      dup2\n        /* \"#utility.yul\":616:636   */\n      calldataload\n        /* \"#utility.yul\":607:636   */\n      swap1\n      pop\n        /* \"#utility.yul\":645:678   */\n      tag_92\n        /* \"#utility.yul\":672:677   */\n      dup2\n        /* \"#utility.yul\":645:678   */\n      tag_49\n      jump\t// in\n    tag_92:\n        /* \"#utility.yul\":545:684   */\n      swap3\n      swap2\n      pop\n      pop\n      jump\t// out\n        /* \"#utility.yul\":690:1019   */\n    tag_8:\n        /* \"#utility.yul\":749:755   */\n      0x00\n        /* \"#utility.yul\":798:800   */\n      0x20\n        /* \"#utility.yul\":786:795   */\n      dup3\n        /* \"#utility.yul\":777:784   */\n      dup5\n        /* \"#utility.yul\":773:796   */\n      sub\n        /* \"#utility.yul\":769:801   */\n      slt\n        /* \"#utility.yul\":766:885   */\n      iszero\n      tag_94\n      jumpi\n        /* \"#utility.yul\":804:883   */\n      tag_95\n      tag_46\n      jump\t// in\n    tag_95:\n        /* \"#utility.yul\":766:885   */\n    tag_94:\n        /* \"#utility.yul\":924:925   */\n      0x00\n        /* \"#utility.yul\":949:1002   */\n      tag_96\n        /* \"#utility.yul\":994:1001   */\n      dup5\n        /* \"#utility.yul\":985:991   */\n      dup3\n        /* \"#utility.yul\":974:983   */\n      dup6\n        /* \"#utility.yul\":970:992   */\n      add\n        /* \"#utility.yul\":949:1002   */\n      tag_50\n      jump\t// in\n    tag_96:\n        /* \"#utility.yul\":939:1002   */\n      swap2\n      pop\n        /* \"#utility.yul\":895:1012   */\n      pop\n        /* \"#utility.yul\":690:1019   */\n      swap3\n      swap2\n      pop\n      pop\n      jump\t// out\n        /* \"#utility.yul\":1025:1143   */\n    tag_51:\n        /* \"#utility.yul\":1112:1136   */\n      tag_98\n        /* \"#utility.yul\":1130:1135   */\n      dup2\n        /* \"#utility.yul\":1112:1136   */\n      tag_48\n      jump\t// in\n    tag_98:\n        /* \"#utility.yul\":1107:1110   */\n      dup3\n        /* \"#utility.yul\":1100:1137   */\n      mstore\n        /* \"#utility.yul\":1025:1143   */\n      pop\n      pop\n      jump\t// out\n        /* \"#utility.yul\":1149:1248   */\n    tag_52:\n        /* \"#utility.yul\":1201:1207   */\n      0x00\n        /* \"#utility.yul\":1235:1240   */\n      dup2\n        /* \"#utility.yul\":1229:1241   */\n      mload\n        /* \"#utility.yul\":1219:1241   */\n      swap1\n      pop\n        /* \"#utility.yul\":1149:1248   */\n      swap2\n      swap1\n      pop\n      jump\t// out\n        /* \"#utility.yul\":1254:1423   */\n    tag_53:\n        /* \"#utility.yul\":1338:1349   */\n      0x00\n        /* \"#utility.yul\":1372:1378   */\n      dup3\n        /* \"#utility.yul\":1367:1370   */\n      dup3\n        /* \"#utility.yul\":1360:1379   */\n      mstore\n        /* \"#utility.yul\":1412:1416   */\n      0x20\n        /* \"#utility.yul\":1407:1410   */\n      dup3\n        /* \"#utility.yul\":1403:1417   */\n      add\n        /* \"#utility.yul\":1388:1417   */\n      swap1\n      pop\n        /* \"#utility.yul\":1254:1423   */\n      swap3\n      swap2\n      pop\n      pop\n      jump\t// out\n        /* \"#utility.yul\":1429:1675   */\n    tag_54:\n        /* \"#utility.yul\":1510:1511   */\n      0x00\n        /* \"#utility.yul\":1520:1633   */\n    tag_102:\n        /* \"#utility.yul\":1534:1540   */\n      dup4\n        /* \"#utility.yul\":1531:1532   */\n      dup2\n        /* \"#utility.yul\":1528:1541   */\n      lt\n        /* \"#utility.yul\":1520:1633   */\n      iszero\n      tag_104\n      jumpi\n        /* \"#utility.yul\":1619:1620   */\n      dup1\n        /* \"#utility.yul\":1614:1617   */\n      dup3\n        /* \"#utility.yul\":1610:1621   */\n      add\n        /* \"#utility.yul\":1604:1622   */\n      mload\n        /* \"#utility.yul\":1600:1601   */\n      dup2\n        /* \"#utility.yul\":1595:1598   */\n      dup5\n        /* \"#utility.yul\":1591:1602   */\n      add\n        /* \"#utility.yul\":1584:1623   */\n      mstore\n        /* \"#utility.yul\":1556:1558   */\n      0x20\n        /* \"#utility.yul\":1553:1554   */\n      dup2\n        /* \"#utility.yul\":1549:1559   */\n      add\n        /* \"#utility.yul\":1544:1559   */\n      swap1\n      pop\n        /* \"#utility.yul\":1520:1633   */\n      jump(tag_102)\n    tag_104:\n        /* \"#utility.yul\":1667:1668   */\n      0x00\n        /* \"#utility.yul\":1658:1664   */\n      dup5\n        /* \"#utility.yul\":1653:1656   */\n      dup5\n        /* \"#utility.yul\":1649:1665   */\n      add\n        /* \"#utility.yul\":1642:1669   */\n      mstore\n        /* \"#utility.yul\":1491:1675   */\n      pop\n        /* \"#utility.yul\":1429:1675   */\n      pop\n      pop\n      pop\n      jump\t// out\n        /* \"#utility.yul\":1681:1783   */\n    tag_55:\n        /* \"#utility.yul\":1722:1728   */\n      0x00\n        /* \"#utility.yul\":1773:1775   */\n      0x1f\n        /* \"#utility.yul\":1769:1776   */\n      not\n        /* \"#utility.yul\":1764:1766   */\n      0x1f\n        /* \"#utility.yul\":1757:1762   */\n      dup4\n        /* \"#utility.yul\":1753:1767   */\n      add\n        /* \"#utility.yul\":1749:1777   */\n      and\n        /* \"#utility.yul\":1739:1777   */\n      swap1\n      pop\n        /* \"#utility.yul\":1681:1783   */\n      swap2\n      swap1\n      pop\n      jump\t// out\n        /* \"#utility.yul\":1789:2166   */\n    tag_56:\n        /* \"#utility.yul\":1877:1880   */\n      0x00\n        /* \"#utility.yul\":1905:1944   */\n      tag_107\n        /* \"#utility.yul\":1938:1943   */\n      dup3\n        /* \"#utility.yul\":1905:1944   */\n      tag_52\n      jump\t// in\n    tag_107:\n        /* \"#utility.yul\":1960:2031   */\n      tag_108\n        /* \"#utility.yul\":2024:2030   */\n      dup2\n        /* \"#utility.yul\":2019:2022   */\n      dup6\n        /* \"#utility.yul\":1960:2031   */\n      tag_53\n      jump\t// in\n    tag_108:\n        /* \"#utility.yul\":1953:2031   */\n      swap4\n      pop\n        /* \"#utility.yul\":2040:2105   */\n      tag_109\n        /* \"#utility.yul\":2098:2104   */\n      dup2\n        /* \"#utility.yul\":2093:2096   */\n      dup6\n        /* \"#utility.yul\":2086:2090   */\n      0x20\n        /* \"#utility.yul\":2079:2084   */\n      dup7\n        /* \"#utility.yul\":2075:2091   */\n      add\n        /* \"#utility.yul\":2040:2105   */\n      tag_54\n      jump\t// in\n    tag_109:\n        /* \"#utility.yul\":2130:2159   */\n      tag_110\n        /* \"#utility.yul\":2152:2158   */\n      dup2\n        /* \"#utility.yul\":2130:2159   */\n      tag_55\n      jump\t// in\n    tag_110:\n        /* \"#utility.yul\":2125:2128   */\n      dup5\n        /* \"#utility.yul\":2121:2160   */\n      add\n        /* \"#utility.yul\":2114:2160   */\n      swap2\n      pop\n        /* \"#utility.yul\":1881:2166   */\n      pop\n        /* \"#utility.yul\":1789:2166   */\n      swap3\n      swap2\n      pop\n      pop\n      jump\t// out\n        /* \"#utility.yul\":2172:3018   */\n    tag_11:\n        /* \"#utility.yul\":2417:2421   */\n      0x00\n        /* \"#utility.yul\":2455:2458   */\n      0xa0\n        /* \"#utility.yul\":2444:2453   */\n      dup3\n        /* \"#utility.yul\":2440:2459   */\n      add\n        /* \"#utility.yul\":2432:2459   */\n      swap1\n      pop\n        /* \"#utility.yul\":2469:2540   */\n      tag_112\n        /* \"#utility.yul\":2537:2538   */\n      0x00\n        /* \"#utility.yul\":2526:2535   */\n      dup4\n        /* \"#utility.yul\":2522:2539   */\n      add\n        /* \"#utility.yul\":2513:2519   */\n      dup9\n        /* \"#utility.yul\":2469:2540   */\n      tag_51\n      jump\t// in\n    tag_112:\n        /* \"#utility.yul\":2587:2596   */\n      dup2\n        /* \"#utility.yul\":2581:2585   */\n      dup2\n        /* \"#utility.yul\":2577:2597   */\n      sub\n        /* \"#utility.yul\":2572:2574   */\n      0x20\n        /* \"#utility.yul\":2561:2570   */\n      dup4\n        /* \"#utility.yul\":2557:2575   */\n      add\n        /* \"#utility.yul\":2550:2598   */\n      mstore\n        /* \"#utility.yul\":2615:2693   */\n      tag_113\n        /* \"#utility.yul\":2688:2692   */\n      dup2\n        /* \"#utility.yul\":2679:2685   */\n      dup8\n        /* \"#utility.yul\":2615:2693   */\n      tag_56\n      jump\t// in\n    tag_113:\n        /* \"#utility.yul\":2607:2693   */\n      swap1\n      pop\n        /* \"#utility.yul\":2740:2749   */\n      dup2\n        /* \"#utility.yul\":2734:2738   */\n      dup2\n        /* \"#utility.yul\":2730:2750   */\n      sub\n        /* \"#utility.yul\":2725:2727   */\n      0x40\n        /* \"#utility.yul\":2714:2723   */\n      dup4\n        /* \"#utility.yul\":2710:2728   */\n      add\n        /* \"#utility.yul\":2703:2751   */\n      mstore\n        /* \"#utility.yul\":2768:2846   */\n      tag_114\n        /* \"#utility.yul\":2841:2845   */\n      dup2\n        /* \"#utility.yul\":2832:2838   */\n      dup7\n        /* \"#utility.yul\":2768:2846   */\n      tag_56\n      jump\t// in\n    tag_114:\n        /* \"#utility.yul\":2760:2846   */\n      swap1\n      pop\n        /* \"#utility.yul\":2856:2928   */\n      tag_115\n        /* \"#utility.yul\":2924:2926   */\n      0x60\n        /* \"#utility.yul\":2913:2922   */\n      dup4\n        /* \"#utility.yul\":2909:2927   */\n      add\n        /* \"#utility.yul\":2900:2906   */\n      dup6\n        /* \"#utility.yul\":2856:2928   */\n      tag_51\n      jump\t// in\n    tag_115:\n        /* \"#utility.yul\":2938:3011   */\n      tag_116\n        /* \"#utility.yul\":3006:3009   */\n      0x80\n        /* \"#utility.yul\":2995:3004   */\n      dup4\n        /* \"#utility.yul\":2991:3010   */\n      add\n        /* \"#utility.yul\":2982:2988   */\n      dup5\n        /* \"#utility.yul\":2938:3011   */\n      tag_51\n      jump\t// in\n    tag_116:\n        /* \"#utility.yul\":2172:3018   */\n      swap7\n      swap6\n      pop\n      pop\n      pop\n      pop\n      pop\n      pop\n      jump\t// out\n        /* \"#utility.yul\":3024:3141   */\n    tag_57:\n        /* \"#utility.yul\":3133:3134   */\n      0x00\n        /* \"#utility.yul\":3130:3131   */\n      dup1\n        /* \"#utility.yul\":3123:3135   */\n      revert\n        /* \"#utility.yul\":3147:3264   */\n    tag_58:\n        /* \"#utility.yul\":3256:3257   */\n      0x00\n        /* \"#utility.yul\":3253:3254   */\n      dup1\n        /* \"#utility.yul\":3246:3258   */\n      revert\n        /* \"#utility.yul\":3270:3450   */\n    tag_59:\n        /* \"#utility.yul\":3318:3395   */\n      0x4e487b7100000000000000000000000000000000000000000000000000000000\n        /* \"#utility.yul\":3315:3316   */\n      0x00\n        /* \"#utility.yul\":3308:3396   */\n      mstore\n        /* \"#utility.yul\":3415:3419   */\n      0x41\n        /* \"#utility.yul\":3412:3413   */\n      0x04\n        /* \"#utility.yul\":3405:3420   */\n      mstore\n        /* \"#utility.yul\":3439:3443   */\n      0x24\n        /* \"#utility.yul\":3436:3437   */\n      0x00\n        /* \"#utility.yul\":3429:3444   */\n      revert\n        /* \"#utility.yul\":3456:3737   */\n    tag_60:\n        /* \"#utility.yul\":3539:3566   */\n      tag_121\n        /* \"#utility.yul\":3561:3565   */\n      dup3\n        /* \"#utility.yul\":3539:3566   */\n      tag_55\n      jump\t// in\n    tag_121:\n        /* \"#utility.yul\":3531:3537   */\n      dup2\n        /* \"#utility.yul\":3527:3567   */\n      add\n        /* \"#utility.yul\":3669:3675   */\n      dup2\n        /* \"#utility.yul\":3657:3667   */\n      dup2\n        /* \"#utility.yul\":3654:3676   */\n      lt\n        /* \"#utility.yul\":3633:3651   */\n      0xffffffffffffffff\n        /* \"#utility.yul\":3621:3631   */\n      dup3\n        /* \"#utility.yul\":3618:3652   */\n      gt\n        /* \"#utility.yul\":3615:3677   */\n      or\n        /* \"#utility.yul\":3612:3700   */\n      iszero\n      tag_122\n      jumpi\n        /* \"#utility.yul\":3680:3698   */\n      tag_123\n      tag_59\n      jump\t// in\n    tag_123:\n        /* \"#utility.yul\":3612:3700   */\n    tag_122:\n        /* \"#utility.yul\":3720:3730   */\n      dup1\n        /* \"#utility.yul\":3716:3718   */\n      0x40\n        /* \"#utility.yul\":3709:3731   */\n      mstore\n        /* \"#utility.yul\":3499:3737   */\n      pop\n        /* \"#utility.yul\":3456:3737   */\n      pop\n      pop\n      jump\t// out\n        /* \"#utility.yul\":3743:3872   */\n    tag_61:\n        /* \"#utility.yul\":3777:3783   */\n      0x00\n        /* \"#utility.yul\":3804:3824   */\n      tag_125\n      tag_45\n      jump\t// in\n    tag_125:\n        /* \"#utility.yul\":3794:3824   */\n      swap1\n      pop\n        /* \"#utility.yul\":3833:3866   */\n      tag_126\n        /* \"#utility.yul\":3861:3865   */\n      dup3\n        /* \"#utility.yul\":3853:3859   */\n      dup3\n        /* \"#utility.yul\":3833:3866   */\n      tag_60\n      jump\t// in\n    tag_126:\n        /* \"#utility.yul\":3743:3872   */\n      swap2\n      swap1\n      pop\n      jump\t// out\n        /* \"#utility.yul\":3878:4186   */\n    tag_62:\n        /* \"#utility.yul\":3940:3944   */\n      0x00\n        /* \"#utility.yul\":4030:4048   */\n      0xffffffffffffffff\n        /* \"#utility.yul\":4022:4028   */\n      dup3\n        /* \"#utility.yul\":4019:4049   */\n      gt\n        /* \"#utility.yul\":4016:4072   */\n      iszero\n      tag_128\n      jumpi\n        /* \"#utility.yul\":4052:4070   */\n      tag_129\n      tag_59\n      jump\t// in\n    tag_129:\n        /* \"#utility.yul\":4016:4072   */\n    tag_128:\n        /* \"#utility.yul\":4090:4119   */\n      tag_130\n        /* \"#utility.yul\":4112:4118   */\n      dup3\n        /* \"#utility.yul\":4090:4119   */\n      tag_55\n      jump\t// in\n    tag_130:\n        /* \"#utility.yul\":4082:4119   */\n      swap1\n      pop\n        /* \"#utility.yul\":4174:4178   */\n      0x20\n        /* \"#utility.yul\":4168:4172   */\n      dup2\n        /* \"#utility.yul\":4164:4179   */\n      add\n        /* \"#utility.yul\":4156:4179   */\n      swap1\n      pop\n        /* \"#utility.yul\":3878:4186   */\n      swap2\n      swap1\n      pop\n      jump\t// out\n        /* \"#utility.yul\":4192:4338   */\n    tag_63:\n        /* \"#utility.yul\":4289:4295   */\n      dup3\n        /* \"#utility.yul\":4284:4287   */\n      dup2\n        /* \"#utility.yul\":4279:4282   */\n      dup4\n        /* \"#utility.yul\":4266:4296   */\n      calldatacopy\n        /* \"#utility.yul\":4330:4331   */\n      0x00\n        /* \"#utility.yul\":4321:4327   */\n      dup4\n        /* \"#utility.yul\":4316:4319   */\n      dup4\n        /* \"#utility.yul\":4312:4328   */\n      add\n        /* \"#utility.yul\":4305:4332   */\n      mstore\n        /* \"#utility.yul\":4192:4338   */\n      pop\n      pop\n      pop\n      jump\t// out\n        /* \"#utility.yul\":4344:4769   */\n    tag_64:\n        /* \"#utility.yul\":4422:4427   */\n      0x00\n        /* \"#utility.yul\":4447:4513   */\n      tag_133\n        /* \"#utility.yul\":4463:4512   */\n      tag_134\n        /* \"#utility.yul\":4505:4511   */\n      dup5\n        /* \"#utility.yul\":4463:4512   */\n      tag_62\n      jump\t// in\n    tag_134:\n        /* \"#utility.yul\":4447:4513   */\n      tag_61\n      jump\t// in\n    tag_133:\n        /* \"#utility.yul\":4438:4513   */\n      swap1\n      pop\n        /* \"#utility.yul\":4536:4542   */\n      dup3\n        /* \"#utility.yul\":4529:4534   */\n      dup2\n        /* \"#utility.yul\":4522:4543   */\n      mstore\n        /* \"#utility.yul\":4574:4578   */\n      0x20\n        /* \"#utility.yul\":4567:4572   */\n      dup2\n        /* \"#utility.yul\":4563:4579   */\n      add\n        /* \"#utility.yul\":4612:4615   */\n      dup5\n        /* \"#utility.yul\":4603:4609   */\n      dup5\n        /* \"#utility.yul\":4598:4601   */\n      dup5\n        /* \"#utility.yul\":4594:4610   */\n      add\n        /* \"#utility.yul\":4591:4616   */\n      gt\n        /* \"#utility.yul\":4588:4700   */\n      iszero\n      tag_135\n      jumpi\n        /* \"#utility.yul\":4619:4698   */\n      tag_136\n      tag_58\n      jump\t// in\n    tag_136:\n        /* \"#utility.yul\":4588:4700   */\n    tag_135:\n        /* \"#utility.yul\":4709:4763   */\n      tag_137\n        /* \"#utility.yul\":4756:4762   */\n      dup5\n        /* \"#utility.yul\":4751:4754   */\n      dup3\n        /* \"#utility.yul\":4746:4749   */\n      dup6\n        /* \"#utility.yul\":4709:4763   */\n      tag_63\n      jump\t// in\n    tag_137:\n        /* \"#utility.yul\":4428:4769   */\n      pop\n        /* \"#utility.yul\":4344:4769   */\n      swap4\n      swap3\n      pop\n      pop\n      pop\n      jump\t// out\n        /* \"#utility.yul\":4789:5129   */\n    tag_65:\n        /* \"#utility.yul\":4845:4850   */\n      0x00\n        /* \"#utility.yul\":4894:4897   */\n      dup3\n        /* \"#utility.yul\":4887:4891   */\n      0x1f\n        /* \"#utility.yul\":4879:4885   */\n      dup4\n        /* \"#utility.yul\":4875:4892   */\n      add\n        /* \"#utility.yul\":4871:4898   */\n      slt\n        /* \"#utility.yul\":4861:4983   */\n      tag_139\n      jumpi\n        /* \"#utility.yul\":4902:4981   */\n      tag_140\n      tag_57\n      jump\t// in\n    tag_140:\n        /* \"#utility.yul\":4861:4983   */\n    tag_139:\n        /* \"#utility.yul\":5019:5025   */\n      dup2\n        /* \"#utility.yul\":5006:5026   */\n      calldataload\n        /* \"#utility.yul\":5044:5123   */\n      tag_141\n        /* \"#utility.yul\":5119:5122   */\n      dup5\n        /* \"#utility.yul\":5111:5117   */\n      dup3\n        /* \"#utility.yul\":5104:5108   */\n      0x20\n        /* \"#utility.yul\":5096:5102   */\n      dup7\n        /* \"#utility.yul\":5092:5109   */\n      add\n        /* \"#utility.yul\":5044:5123   */\n      tag_64\n      jump\t// in\n    tag_141:\n        /* \"#utility.yul\":5035:5123   */\n      swap2\n      pop\n        /* \"#utility.yul\":4851:5129   */\n      pop\n        /* \"#utility.yul\":4789:5129   */\n      swap3\n      swap2\n      pop\n      pop\n      jump\t// out\n        /* \"#utility.yul\":5135:6114   */\n    tag_14:\n        /* \"#utility.yul\":5232:5238   */\n      0x00\n        /* \"#utility.yul\":5240:5246   */\n      dup1\n        /* \"#utility.yul\":5248:5254   */\n      0x00\n        /* \"#utility.yul\":5297:5299   */\n      0x60\n        /* \"#utility.yul\":5285:5294   */\n      dup5\n        /* \"#utility.yul\":5276:5283   */\n      dup7\n        /* \"#utility.yul\":5272:5295   */\n      sub\n        /* \"#utility.yul\":5268:5300   */\n      slt\n        /* \"#utility.yul\":5265:5384   */\n      iszero\n      tag_143\n      jumpi\n        /* \"#utility.yul\":5303:5382   */\n      tag_144\n      tag_46\n      jump\t// in\n    tag_144:\n        /* \"#utility.yul\":5265:5384   */\n    tag_143:\n        /* \"#utility.yul\":5423:5424   */\n      0x00\n        /* \"#utility.yul\":5448:5501   */\n      tag_145\n        /* \"#utility.yul\":5493:5500   */\n      dup7\n        /* \"#utility.yul\":5484:5490   */\n      dup3\n        /* \"#utility.yul\":5473:5482   */\n      dup8\n        /* \"#utility.yul\":5469:5491   */\n      add\n        /* \"#utility.yul\":5448:5501   */\n      tag_50\n      jump\t// in\n    tag_145:\n        /* \"#utility.yul\":5438:5501   */\n      swap4\n      pop\n        /* \"#utility.yul\":5394:5511   */\n      pop\n        /* \"#utility.yul\":5578:5580   */\n      0x20\n        /* \"#utility.yul\":5567:5576   */\n      dup5\n        /* \"#utility.yul\":5563:5581   */\n      add\n        /* \"#utility.yul\":5550:5582   */\n      calldataload\n        /* \"#utility.yul\":5609:5627   */\n      0xffffffffffffffff\n        /* \"#utility.yul\":5601:5607   */\n      dup2\n        /* \"#utility.yul\":5598:5628   */\n      gt\n        /* \"#utility.yul\":5595:5712   */\n      iszero\n      tag_146\n      jumpi\n        /* \"#utility.yul\":5631:5710   */\n      tag_147\n      tag_47\n      jump\t// in\n    tag_147:\n        /* \"#utility.yul\":5595:5712   */\n    tag_146:\n        /* \"#utility.yul\":5736:5799   */\n      tag_148\n        /* \"#utility.yul\":5791:5798   */\n      dup7\n        /* \"#utility.yul\":5782:5788   */\n      dup3\n        /* \"#utility.yul\":5771:5780   */\n      dup8\n        /* \"#utility.yul\":5767:5789   */\n      add\n        /* \"#utility.yul\":5736:5799   */\n      tag_65\n      jump\t// in\n    tag_148:\n        /* \"#utility.yul\":5726:5799   */\n      swap3\n      pop\n        /* \"#utility.yul\":5521:5809   */\n      pop\n        /* \"#utility.yul\":5876:5878   */\n      0x40\n        /* \"#utility.yul\":5865:5874   */\n      dup5\n        /* \"#utility.yul\":5861:5879   */\n      add\n        /* \"#utility.yul\":5848:5880   */\n      calldataload\n        /* \"#utility.yul\":5907:5925   */\n      0xffffffffffffffff\n        /* \"#utility.yul\":5899:5905   */\n      dup2\n        /* \"#utility.yul\":5896:5926   */\n      gt\n        /* \"#utility.yul\":5893:6010   */\n      iszero\n      tag_149\n      jumpi\n        /* \"#utility.yul\":5929:6008   */\n      tag_150\n      tag_47\n      jump\t// in\n    tag_150:\n        /* \"#utility.yul\":5893:6010   */\n    tag_149:\n        /* \"#utility.yul\":6034:6097   */\n      tag_151\n        /* \"#utility.yul\":6089:6096   */\n      dup7\n        /* \"#utility.yul\":6080:6086   */\n      dup3\n        /* \"#utility.yul\":6069:6078   */\n      dup8\n        /* \"#utility.yul\":6065:6087   */\n      add\n        /* \"#utility.yul\":6034:6097   */\n      tag_65\n      jump\t// in\n    tag_151:\n        /* \"#utility.yul\":6024:6097   */\n      swap2\n      pop\n        /* \"#utility.yul\":5819:6107   */\n      pop\n        /* \"#utility.yul\":5135:6114   */\n      swap3\n      pop\n      swap3\n      pop\n      swap3\n      jump\t// out\n        /* \"#utility.yul\":6120:6594   */\n    tag_18:\n        /* \"#utility.yul\":6188:6194   */\n      0x00\n        /* \"#utility.yul\":6196:6202   */\n      dup1\n        /* \"#utility.yul\":6245:6247   */\n      0x40\n        /* \"#utility.yul\":6233:6242   */\n      dup4\n        /* \"#utility.yul\":6224:6231   */\n      dup6\n        /* \"#utility.yul\":6220:6243   */\n      sub\n        /* \"#utility.yul\":6216:6248   */\n      slt\n        /* \"#utility.yul\":6213:6332   */\n      iszero\n      tag_153\n      jumpi\n        /* \"#utility.yul\":6251:6330   */\n      tag_154\n      tag_46\n      jump\t// in\n    tag_154:\n        /* \"#utility.yul\":6213:6332   */\n    tag_153:\n        /* \"#utility.yul\":6371:6372   */\n      0x00\n        /* \"#utility.yul\":6396:6449   */\n      tag_155\n        /* \"#utility.yul\":6441:6448   */\n      dup6\n        /* \"#utility.yul\":6432:6438   */\n      dup3\n        /* \"#utility.yul\":6421:6430   */\n      dup7\n        /* \"#utility.yul\":6417:6439   */\n      add\n        /* \"#utility.yul\":6396:6449   */\n      tag_50\n      jump\t// in\n    tag_155:\n        /* \"#utility.yul\":6386:6449   */\n      swap3\n      pop\n        /* \"#utility.yul\":6342:6459   */\n      pop\n        /* \"#utility.yul\":6498:6500   */\n      0x20\n        /* \"#utility.yul\":6524:6577   */\n      tag_156\n        /* \"#utility.yul\":6569:6576   */\n      dup6\n        /* \"#utility.yul\":6560:6566   */\n      dup3\n        /* \"#utility.yul\":6549:6558   */\n      dup7\n        /* \"#utility.yul\":6545:6567   */\n      add\n        /* \"#utility.yul\":6524:6577   */\n      tag_50\n      jump\t// in\n    tag_156:\n        /* \"#utility.yul\":6514:6577   */\n      swap2\n      pop\n        /* \"#utility.yul\":6469:6587   */\n      pop\n        /* \"#utility.yul\":6120:6594   */\n      swap3\n      pop\n      swap3\n      swap1\n      pop\n      jump\t// out\n        /* \"#utility.yul\":6600:6780   */\n    tag_66:\n        /* \"#utility.yul\":6648:6725   */\n      0x4e487b7100000000000000000000000000000000000000000000000000000000\n        /* \"#utility.yul\":6645:6646   */\n      0x00\n        /* \"#utility.yul\":6638:6726   */\n      mstore\n        /* \"#utility.yul\":6745:6749   */\n      0x22\n        /* \"#utility.yul\":6742:6743   */\n      0x04\n        /* \"#utility.yul\":6735:6750   */\n      mstore\n        /* \"#utility.yul\":6769:6773   */\n      0x24\n        /* \"#utility.yul\":6766:6767   */\n      0x00\n        /* \"#utility.yul\":6759:6774   */\n      revert\n        /* \"#utility.yul\":6786:7106   */\n    tag_21:\n        /* \"#utility.yul\":6830:6836   */\n      0x00\n        /* \"#utility.yul\":6867:6868   */\n      0x02\n        /* \"#utility.yul\":6861:6865   */\n      dup3\n        /* \"#utility.yul\":6857:6869   */\n      div\n        /* \"#utility.yul\":6847:6869   */\n      swap1\n      pop\n        /* \"#utility.yul\":6914:6915   */\n      0x01\n        /* \"#utility.yul\":6908:6912   */\n      dup3\n        /* \"#utility.yul\":6904:6916   */\n      and\n        /* \"#utility.yul\":6935:6953   */\n      dup1\n        /* \"#utility.yul\":6925:7006   */\n      tag_159\n      jumpi\n        /* \"#utility.yul\":6991:6995   */\n      0x7f\n        /* \"#utility.yul\":6983:6989   */\n      dup3\n        /* \"#utility.yul\":6979:6996   */\n      and\n        /* \"#utility.yul\":6969:6996   */\n      swap2\n      pop\n        /* \"#utility.yul\":6925:7006   */\n    tag_159:\n        /* \"#utility.yul\":7053:7055   */\n      0x20\n        /* \"#utility.yul\":7045:7051   */\n      dup3\n        /* \"#utility.yul\":7042:7056   */\n      lt\n        /* \"#utility.yul\":7022:7040   */\n      dup2\n        /* \"#utility.yul\":7019:7057   */\n      sub\n        /* \"#utility.yul\":7016:7100   */\n      tag_160\n      jumpi\n        /* \"#utility.yul\":7072:7090   */\n      tag_161\n      tag_66\n      jump\t// in\n    tag_161:\n        /* \"#utility.yul\":7016:7100   */\n    tag_160:\n        /* \"#utility.yul\":6837:7106   */\n      pop\n        /* \"#utility.yul\":6786:7106   */\n      swap2\n      swap1\n      pop\n      jump\t// out\n        /* \"#utility.yul\":7112:7253   */\n    tag_67:\n        /* \"#utility.yul\":7161:7165   */\n      0x00\n        /* \"#utility.yul\":7184:7187   */\n      dup2\n        /* \"#utility.yul\":7176:7187   */\n      swap1\n      pop\n        /* \"#utility.yul\":7207:7210   */\n      dup2\n        /* \"#utility.yul\":7204:7205   */\n      0x00\n        /* \"#utility.yul\":7197:7211   */\n      mstore\n        /* \"#utility.yul\":7241:7245   */\n      0x20\n        /* \"#utility.yul\":7238:7239   */\n      0x00\n        /* \"#utility.yul\":7228:7246   */\n      keccak256\n        /* \"#utility.yul\":7220:7246   */\n      swap1\n      pop\n        /* \"#utility.yul\":7112:7253   */\n      swap2\n      swap1\n      pop\n      jump\t// out\n        /* \"#utility.yul\":7259:7352   */\n    tag_68:\n        /* \"#utility.yul\":7296:7302   */\n      0x00\n        /* \"#utility.yul\":7343:7345   */\n      0x20\n        /* \"#utility.yul\":7338:7340   */\n      0x1f\n        /* \"#utility.yul\":7331:7336   */\n      dup4\n        /* \"#utility.yul\":7327:7341   */\n      add\n        /* \"#utility.yul\":7323:7346   */\n      div\n        /* \"#utility.yul\":7313:7346   */\n      swap1\n      pop\n        /* \"#utility.yul\":7259:7352   */\n      swap2\n      swap1\n      pop\n      jump\t// out\n        /* \"#utility.yul\":7358:7465   */\n    tag_69:\n        /* \"#utility.yul\":7402:7410   */\n      0x00\n        /* \"#utility.yul\":7452:7457   */\n      dup3\n        /* \"#utility.yul\":7446:7450   */\n      dup3\n        /* \"#utility.yul\":7442:7458   */\n      shl\n        /* \"#utility.yul\":7421:7458   */\n      swap1\n      pop\n        /* \"#utility.yul\":7358:7465   */\n      swap3\n      swap2\n      pop\n      pop\n      jump\t// out\n        /* \"#utility.yul\":7471:7864   */\n    tag_70:\n        /* \"#utility.yul\":7540:7546   */\n      0x00\n        /* \"#utility.yul\":7590:7591   */\n      0x08\n        /* \"#utility.yul\":7578:7588   */\n      dup4\n        /* \"#utility.yul\":7574:7592   */\n      mul\n        /* \"#utility.yul\":7613:7710   */\n      tag_166\n        /* \"#utility.yul\":7643:7709   */\n      0xffffffffffffffffffffffffffffffffffffffffffffffffffffffffffffffff\n        /* \"#utility.yul\":7632:7641   */\n      dup3\n        /* \"#utility.yul\":7613:7710   */\n      tag_69\n      jump\t// in\n    tag_166:\n        /* \"#utility.yul\":7731:7770   */\n      tag_167\n        /* \"#utility.yul\":7761:7769   */\n      dup7\n        /* \"#utility.yul\":7750:7759   */\n      dup4\n        /* \"#utility.yul\":7731:7770   */\n      tag_69\n      jump\t// in\n    tag_167:\n        /* \"#utility.yul\":7719:7770   */\n      swap6\n      pop\n        /* \"#utility.yul\":7803:7807   */\n      dup1\n        /* \"#utility.yul\":7799:7808   */\n      not\n        /* \"#utility.yul\":7792:7797   */\n      dup5\n        /* \"#utility.yul\":7788:7809   */\n      and\n        /* \"#utility.yul\":7779:7809   */\n      swap4\n      pop\n        /* \"#utility.yul\":7852:7856   */\n      dup1\n        /* \"#utility.yul\":7842:7850   */\n      dup7\n        /* \"#utility.yul\":7838:7857   */\n      and\n        /* \"#utility.yul\":7831:7836   */\n      dup5\n        /* \"#utility.yul\":7828:7858   */\n      or\n        /* \"#utility.yul\":7818:7858   */\n      swap3\n      pop\n        /* \"#utility.yul\":7547:7864   */\n      pop\n      pop\n        /* \"#utility.yul\":7471:7864   */\n      swap4\n      swap3\n      pop\n      pop\n      pop\n      jump\t// out\n        /* \"#utility.yul\":7870:7930   */\n    tag_71:\n        /* \"#utility.yul\":7898:7901   */\n      0x00\n        /* \"#utility.yul\":7919:7924   */\n      dup2\n        /* \"#utility.yul\":7912:7924   */\n      swap1\n      pop\n        /* \"#utility.yul\":7870:7930   */\n      swap2\n      swap1\n      pop\n      jump\t// out\n        /* \"#utility.yul\":7936:8078   */\n    tag_72:\n        /* \"#utility.yul\":7986:7995   */\n      0x00\n        /* \"#utility.yul\":8019:8072   */\n      tag_170\n        /* \"#utility.yul\":8037:8071   */\n      tag_171\n        /* \"#utility.yul\":8046:8070   */\n      tag_172\n        /* \"#utility.yul\":8064:8069   */\n      dup5\n        /* \"#utility.yul\":8046:8070   */\n      tag_48\n      jump\t// in\n    tag_172:\n        /* \"#utility.yul\":8037:8071   */\n      tag_71\n      jump\t// in\n    tag_171:\n        /* \"#utility.yul\":8019:8072   */\n      tag_48\n      jump\t// in\n    tag_170:\n        /* \"#utility.yul\":8006:8072   */\n      swap1\n      pop\n        /* \"#utility.yul\":7936:8078   */\n      swap2\n      swap1\n      pop\n      jump\t// out\n        /* \"#utility.yul\":8084:8159   */\n    tag_73:\n        /* \"#utility.yul\":8127:8130   */\n      0x00\n        /* \"#utility.yul\":8148:8153   */\n      dup2\n        /* \"#utility.yul\":8141:8153   */\n      swap1\n      pop\n        /* \"#utility.yul\":8084:8159   */\n      swap2\n      swap1\n      pop\n      jump\t// out\n        /* \"#utility.yul\":8165:8434   */\n    tag_74:\n        /* \"#utility.yul\":8275:8314   */\n      tag_175\n        /* \"#utility.yul\":8306:8313   */\n      dup4\n        /* \"#utility.yul\":8275:8314   */\n      tag_72\n      jump\t// in\n    tag_175:\n        /* \"#utility.yul\":8336:8427   */\n      tag_176\n        /* \"#utility.yul\":8385:8426   */\n      tag_177\n        /* \"#utility.yul\":8409:8425   */\n      dup3\n        /* \"#utility.yul\":8385:8426   */\n      tag_73\n      jump\t// in\n    tag_177:\n        /* \"#utility.yul\":8377:8383   */\n      dup5\n        /* \"#utility.yul\":8370:8374   */\n      dup5\n        /* \"#utility.yul\":8364:8375   */\n      sload\n        /* \"#utility.yul\":8336:8427   */\n      tag_70\n      jump\t// in\n    tag_176:\n        /* \"#utility.yul\":8330:8334   */\n      dup3\n        /* \"#utility.yul\":8323:8428   */\n      sstore\n        /* \"#utility.yul\":8241:8434   */\n      pop\n        /* \"#utility.yul\":8165:8434   */\n      pop\n      pop\n      pop\n      jump\t// out\n        /* \"#utility.yul\":8440:8513   */\n    tag_75:\n        /* \"#utility.yul\":8485:8488   */\n      0x00\n        /* \"#utility.yul\":8440:8513   */\n      swap1\n      jump\t// out\n        /* \"#utility.yul\":8519:8708   */\n    tag_76:\n        /* \"#utility.yul\":8596:8628   */\n      tag_180\n      tag_75\n      jump\t// in\n    tag_180:\n        /* \"#utility.yul\":8637:8702   */\n      tag_181\n        /* \"#utility.yul\":8695:8701   */\n      dup2\n        /* \"#utility.yul\":8687:8693   */\n      dup5\n        /* \"#utility.yul\":8681:8685   */\n      dup5\n        /* \"#utility.yul\":8637:8702   */\n      tag_74\n      jump\t// in\n    tag_181:\n        /* \"#utility.yul\":8572:8708   */\n      pop\n        /* \"#utility.yul\":8519:8708   */\n      pop\n      pop\n      jump\t// out\n        /* \"#utility.yul\":8714:8900   */\n    tag_77:\n        /* \"#utility.yul\":8774:8894   */\n    tag_183:\n        /* \"#utility.yul\":8791:8794   */\n      dup2\n        /* \"#utility.yul\":8784:8789   */\n      dup2\n        /* \"#utility.yul\":8781:8795   */\n      lt\n        /* \"#utility.yul\":8774:8894   */\n      iszero\n      tag_185\n      jumpi\n        /* \"#utility.yul\":8845:8884   */\n      tag_186\n        /* \"#utility.yul\":8882:8883   */\n      0x00\n        /* \"#utility.yul\":8875:8880   */\n      dup3\n        /* \"#utility.yul\":8845:8884   */\n      tag_76\n      jump\t// in\n    tag_186:\n        /* \"#utility.yul\":8818:8819   */\n      0x01\n        /* \"#utility.yul\":8811:8816   */\n      dup2\n        /* \"#utility.yul\":8807:8820   */\n      add\n        /* \"#utility.yul\":8798:8820   */\n      swap1\n      pop\n        /* \"#utility.yul\":8774:8894   */\n      jump(tag_183)\n    tag_185:\n        /* \"#utility.yul\":8714:8900   */\n      pop\n      pop\n      jump\t// out\n        /* \"#utility.yul\":8906:9449   */\n    tag_78:\n        /* \"#utility.yul\":9007:9009   */\n      0x1f\n        /* \"#utility.yul\":9002:9005   */\n      dup3\n        /* \"#utility.yul\":8999:9010   */\n      gt\n        /* \"#utility.yul\":8996:9442   */\n      iszero\n      tag_188\n      jumpi\n        /* \"#utility.yul\":9041:9079   */\n      tag_189\n        /* \"#utility.yul\":9073:9078   */\n      dup2\n        /* \"#utility.yul\":9041:9079   */\n      tag_67\n      jump\t// in\n    tag_189:\n        /* \"#utility.yul\":9125:9154   */\n      tag_190\n        /* \"#utility.yul\":9143:9153   */\n      dup5\n        /* \"#utility.yul\":9125:9154   */\n      tag_68\n      jump\t// in\n    tag_190:\n        /* \"#utility.yul\":9115:9123   */\n      dup2\n        /* \"#utility.yul\":9111:9155   */\n      add\n        /* \"#utility.yul\":9308:9310   */\n      0x20\n        /* \"#utility.yul\":9296:9306   */\n      dup6\n        /* \"#utility.yul\":9293:9311   */\n      lt\n        /* \"#utility.yul\":9290:9339   */\n      iszero\n      tag_191\n      jumpi\n        /* \"#utility.yul\":9329:9337   */\n      dup2\n        /* \"#utility.yul\":9314:9337   */\n      swap1\n      pop\n        /* \"#utility.yul\":9290:9339   */\n    tag_191:\n        /* \"#utility.yul\":9352:9432   */\n      tag_192\n        /* \"#utility.yul\":9408:9430   */\n      tag_193\n        /* \"#utility.yul\":9426:9429   */\n      dup6\n        /* \"#utility.yul\":9408:9430   */\n      tag_68\n      jump\t// in\n    tag_193:\n        /* \"#utility.yul\":9398:9406   */\n      dup4\n        /* \"#utility.yul\":9394:9431   */\n      add\n        /* \"#utility.yul\":9381:9392   */\n      dup3\n        /* \"#utility.yul\":9352:9432   */\n      tag_77\n      jump\t// in\n    tag_192:\n        /* \"#utility.yul\":9011:9442   */\n      pop\n      pop\n        /* \"#utility.yul\":8996:9442   */\n    tag_188:\n        /* \"#utility.yul\":8906:9449   */\n      pop\n      pop\n      pop\n      jump\t// out\n        /* \"#utility.yul\":9455:9572   */\n    tag_79:\n        /* \"#utility.yul\":9509:9517   */\n      0x00\n        /* \"#utility.yul\":9559:9564   */\n      dup3\n        /* \"#utility.yul\":9553:9557   */\n      dup3\n        /* \"#utility.yul\":9549:9565   */\n      shr\n        /* \"#utility.yul\":9528:9565   */\n      swap1\n      pop\n        /* \"#utility.yul\":9455:9572   */\n      swap3\n      swap2\n      pop\n      pop\n      jump\t// out\n        /* \"#utility.yul\":9578:9747   */\n    tag_80:\n        /* \"#utility.yul\":9622:9628   */\n      0x00\n        /* \"#utility.yul\":9655:9706   */\n      tag_196\n        /* \"#utility.yul\":9703:9704   */\n      0x00\n        /* \"#utility.yul\":9699:9705   */\n      not\n        /* \"#utility.yul\":9691:9696   */\n      dup5\n        /* \"#utility.yul\":9688:9689   */\n      0x08\n        /* \"#utility.yul\":9684:9697   */\n      mul\n        /* \"#utility.yul\":9655:9706   */\n      tag_79\n      jump\t// in\n    tag_196:\n        /* \"#utility.yul\":9651:9707   */\n      not\n        /* \"#utility.yul\":9736:9740   */\n      dup1\n        /* \"#utility.yul\":9730:9734   */\n      dup4\n        /* \"#utility.yul\":9726:9741   */\n      and\n        /* \"#utility.yul\":9716:9741   */\n      swap2\n      pop\n        /* \"#utility.yul\":9629:9747   */\n      pop\n        /* \"#utility.yul\":9578:9747   */\n      swap3\n      swap2\n      pop\n      pop\n      jump\t// out\n        /* \"#utility.yul\":9752:10047   */\n    tag_81:\n        /* \"#utility.yul\":9828:9832   */\n      0x00\n        /* \"#utility.yul\":9974:10003   */\n      tag_198\n        /* \"#utility.yul\":9999:10002   */\n      dup4\n        /* \"#utility.yul\":9993:9997   */\n      dup4\n        /* \"#utility.yul\":9974:10003   */\n      tag_80\n      jump\t// in\n    tag_198:\n        /* \"#utility.yul\":9966:10003   */\n      swap2\n      pop\n        /* \"#utility.yul\":10036:10039   */\n      dup3\n        /* \"#utility.yul\":10033:10034   */\n      0x02\n        /* \"#utility.yul\":10029:10040   */\n      mul\n        /* \"#utility.yul\":10023:10027   */\n      dup3\n        /* \"#utility.yul\":10020:10041   */\n      or\n        /* \"#utility.yul\":10012:10041   */\n      swap1\n      pop\n        /* \"#utility.yul\":9752:10047   */\n      swap3\n      swap2\n      pop\n      pop\n      jump\t// out\n        /* \"#utility.yul\":10052:11447   */\n    tag_33:\n        /* \"#utility.yul\":10169:10206   */\n      tag_200\n        /* \"#utility.yul\":10202:10205   */\n      dup3\n        /* \"#utility.yul\":10169:10206   */\n      tag_52\n      jump\t// in\n    tag_200:\n        /* \"#utility.yul\":10271:10289   */\n      0xffffffffffffffff\n        /* \"#utility.yul\":10263:10269   */\n      dup2\n        /* \"#utility.yul\":10260:10290   */\n      gt\n        /* \"#utility.yul\":10257:10313   */\n      iszero\n      tag_201\n      jumpi\n        /* \"#utility.yul\":10293:10311   */\n      tag_202\n      tag_59\n      jump\t// in\n    tag_202:\n        /* \"#utility.yul\":10257:10313   */\n    tag_201:\n        /* \"#utility.yul\":10337:10375   */\n      tag_203\n        /* \"#utility.yul\":10369:10373   */\n      dup3\n        /* \"#utility.yul\":10363:10374   */\n      sload\n        /* \"#utility.yul\":10337:10375   */\n      tag_21\n      jump\t// in\n    tag_203:\n        /* \"#utility.yul\":10422:10489   */\n      tag_204\n        /* \"#utility.yul\":10482:10488   */\n      dup3\n        /* \"#utility.yul\":10474:10480   */\n      dup3\n        /* \"#utility.yul\":10468:10472   */\n      dup6\n        /* \"#utility.yul\":10422:10489   */\n      tag_78\n      jump\t// in\n    tag_204:\n        /* \"#utility.yul\":10516:10517   */\n      0x00\n        /* \"#utility.yul\":10540:10544   */\n      0x20\n        /* \"#utility.yul\":10527:10544   */\n      swap1\n      pop\n        /* \"#utility.yul\":10572:10574   */\n      0x1f\n        /* \"#utility.yul\":10564:10570   */\n      dup4\n        /* \"#utility.yul\":10561:10575   */\n      gt\n        /* \"#utility.yul\":10589:10590   */\n      0x01\n        /* \"#utility.yul\":10584:11202   */\n      dup2\n      eq\n      tag_206\n      jumpi\n        /* \"#utility.yul\":11246:11247   */\n      0x00\n        /* \"#utility.yul\":11263:11269   */\n      dup5\n        /* \"#utility.yul\":11260:11337   */\n      iszero\n      tag_207\n      jumpi\n        /* \"#utility.yul\":11312:11321   */\n      dup3\n        /* \"#utility.yul\":11307:11310   */\n      dup8\n        /* \"#utility.yul\":11303:11322   */\n      add\n        /* \"#utility.yul\":11297:11323   */\n      mload\n        /* \"#utility.yul\":11288:11323   */\n      swap1\n      pop\n        /* \"#utility.yul\":11260:11337   */\n    tag_207:\n        /* \"#utility.yul\":11363:11430   */\n      tag_208\n        /* \"#utility.yul\":11423:11429   */\n      dup6\n        /* \"#utility.yul\":11416:11421   */\n      dup3\n        /* \"#utility.yul\":11363:11430   */\n      tag_81\n      jump\t// in\n    tag_208:\n        /* \"#utility.yul\":11357:11361   */\n      dup7\n        /* \"#utility.yul\":11350:11431   */\n      sstore\n        /* \"#utility.yul\":11219:11441   */\n      pop\n        /* \"#utility.yul\":10554:11441   */\n      jump(tag_205)\n        /* \"#utility.yul\":10584:11202   */\n    tag_206:\n        /* \"#utility.yul\":10636:10640   */\n      0x1f\n        /* \"#utility.yul\":10632:10641   */\n      not\n        /* \"#utility.yul\":10624:10630   */\n      dup5\n        /* \"#utility.yul\":10620:10642   */\n      and\n        /* \"#utility.yul\":10670:10707   */\n      tag_209\n        /* \"#utility.yul\":10702:10706   */\n      dup7\n        /* \"#utility.yul\":10670:10707   */\n      tag_67\n      jump\t// in\n    tag_209:\n        /* \"#utility.yul\":10729:10730   */\n      0x00\n        /* \"#utility.yul\":10743:10951   */\n    tag_210:\n        /* \"#utility.yul\":10757:10764   */\n      dup3\n        /* \"#utility.yul\":10754:10755   */\n      dup2\n        /* \"#utility.yul\":10751:10765   */\n      lt\n        /* \"#utility.yul\":10743:10951   */\n      iszero\n      tag_212\n      jumpi\n        /* \"#utility.yul\":10836:10845   */\n      dup5\n        /* \"#utility.yul\":10831:10834   */\n      dup10\n        /* \"#utility.yul\":10827:10846   */\n      add\n        /* \"#utility.yul\":10821:10847   */\n      mload\n        /* \"#utility.yul\":10813:10819   */\n      dup3\n        /* \"#utility.yul\":10806:10848   */\n      sstore\n        /* \"#utility.yul\":10887:10888   */\n      0x01\n        /* \"#utility.yul\":10879:10885   */\n      dup3\n        /* \"#utility.yul\":10875:10889   */\n      add\n        /* \"#utility.yul\":10865:10889   */\n      swap2\n      pop\n        /* \"#utility.yul\":10934:10936   */\n      0x20\n        /* \"#utility.yul\":10923:10932   */\n      dup6\n        /* \"#utility.yul\":10919:10937   */\n      add\n        /* \"#utility.yul\":10906:10937   */\n      swap5\n      pop\n        /* \"#utility.yul\":10780:10784   */\n      0x20\n        /* \"#utility.yul\":10777:10778   */\n      dup2\n        /* \"#utility.yul\":10773:10785   */\n      add\n        /* \"#utility.yul\":10768:10785   */\n      swap1\n      pop\n        /* \"#utility.yul\":10743:10951   */\n      jump(tag_210)\n    tag_212:\n        /* \"#utility.yul\":10979:10985   */\n      dup7\n        /* \"#utility.yul\":10970:10977   */\n      dup4\n        /* \"#utility.yul\":10967:10986   */\n      lt\n        /* \"#utility.yul\":10964:11143   */\n      iszero\n      tag_213\n      jumpi\n        /* \"#utility.yul\":11037:11046   */\n      dup5\n        /* \"#utility.yul\":11032:11035   */\n      dup10\n        /* \"#utility.yul\":11028:11047   */\n      add\n        /* \"#utility.yul\":11022:11048   */\n      mload\n        /* \"#utility.yul\":11080:11128   */\n      tag_214\n        /* \"#utility.yul\":11122:11126   */\n      0x1f\n        /* \"#utility.yul\":11114:11120   */\n      dup10\n        /* \"#utility.yul\":11110:11127   */\n      and\n        /* \"#utility.yul\":11099:11108   */\n      dup3\n        /* \"#utility.yul\":11080:11128   */\n      tag_80\n      jump\t// in\n    tag_214:\n        /* \"#utility.yul\":11072:11078   */\n      dup4\n        /* \"#utility.yul\":11065:11129   */\n      sstore\n        /* \"#utility.yul\":10987:11143   */\n      pop\n        /* \"#utility.yul\":10964:11143   */\n    tag_213:\n        /* \"#utility.yul\":11189:11190   */\n      0x01\n        /* \"#utility.yul\":11185:11186   */\n      0x02\n        /* \"#utility.yul\":11177:11183   */\n      dup9\n        /* \"#utility.yul\":11173:11187   */\n      mul\n        /* \"#utility.yul\":11169:11191   */\n      add\n        /* \"#utility.yul\":11163:11167   */\n      dup9\n        /* \"#utility.yul\":11156:11192   */\n      sstore\n        /* \"#utility.yul\":10591:11202   */\n      pop\n      pop\n      pop\n        /* \"#utility.yul\":10554:11441   */\n    tag_205:\n      pop\n        /* \"#utility.yul\":10144:11447   */\n      pop\n      pop\n      pop\n        /* \"#utility.yul\":10052:11447   */\n      pop\n      pop\n      jump\t// out\n        /* \"#utility.yul\":11453:11633   */\n    tag_82:\n        /* \"#utility.yul\":11501:11578   */\n      0x4e487b7100000000000000000000000000000000000000000000000000000000\n        /* \"#utility.yul\":11498:11499   */\n      0x00\n        /* \"#utility.yul\":11491:11579   */\n      mstore\n        /* \"#utility.yul\":11598:11602   */\n      0x11\n        /* \"#utility.yul\":11595:11596   */\n      0x04\n        /* \"#utility.yul\":11588:11603   */\n      mstore\n        /* \"#utility.yul\":11622:11626   */\n      0x24\n        /* \"#utility.yul\":11619:11620   */\n      0x00\n        /* \"#utility.yul\":11612:11627   */\n      revert\n        /* \"#utility.yul\":11639:11830   */\n    tag_39:\n        /* \"#utility.yul\":11679:11682   */\n      0x00\n        /* \"#utility.yul\":11698:11718   */\n      tag_217\n        /* \"#utility.yul\":11716:11717   */\n      dup3\n        /* \"#utility.yul\":11698:11718   */\n      tag_48\n      jump\t// in\n    tag_217:\n        /* \"#utility.yul\":11693:11718   */\n      swap2\n      pop\n        /* \"#utility.yul\":11732:11752   */\n      tag_218\n        /* \"#utility.yul\":11750:11751   */\n      dup4\n        /* \"#utility.yul\":11732:11752   */\n      tag_48\n      jump\t// in\n    tag_218:\n        /* \"#utility.yul\":11727:11752   */\n      swap3\n      pop\n        /* \"#utility.yul\":11775:11776   */\n      dup3\n        /* \"#utility.yul\":11772:11773   */\n      dup3\n        /* \"#utility.yul\":11768:11777   */\n      add\n        /* \"#utility.yul\":11761:11777   */\n      swap1\n      pop\n        /* \"#utility.yul\":11796:11799   */\n      dup1\n        /* \"#utility.yul\":11793:11794   */\n      dup3\n        /* \"#utility.yul\":11790:11800   */\n      gt\n        /* \"#utility.yul\":11787:11823   */\n      iszero\n      tag_219\n      jumpi\n        /* \"#utility.yul\":11803:11821   */\n      tag_220\n      tag_82\n      jump\t// in\n    tag_220:\n        /* \"#utility.yul\":11787:11823   */\n    tag_219:\n        /* \"#utility.yul\":11639:11830   */\n      swap3\n      swap2\n      pop\n      pop\n      jump\t// out\n\n    auxdata: 0xa2646970667358221220a5a40fdc39b641a1c53056c5650d1e604082d324fa7aebab83b560c15b10d61764736f6c63430008120033\n}\n",
				"bytecode": {
					"linkReferences": {},
					"object": "608060405234801561001057600080fd5b50610a93806100206000396000f3fe608060405234801561001057600080fd5b50600436106100415760003560e01c806335f342321461004657806349f15e9e1461007a578063c0713b9c14610096575b600080fd5b610060600480360381019061005b91906103ef565b6100b2565b6040516100719594939291906104bb565b60405180910390f35b610094600480360381019061008f9190610651565b6101f8565b005b6100b060048036038101906100ab91906106dc565b6102b9565b005b60006020528060005260406000206000915090508060000154908060010180546100db9061074b565b80601f01602080910402602001604051908101604052809291908181526020018280546101079061074b565b80156101545780601f1061012957610100808354040283529160200191610154565b820191906000526020600020905b81548152906001019060200180831161013757829003601f168201915b5050505050908060020180546101699061074b565b80601f01602080910402602001604051908101604052809291908181526020018280546101959061074b565b80156101e25780601f106101b7576101008083540402835291602001916101e2565b820191906000526020600020905b8154815290600101906020018083116101c557829003601f168201915b5050505050908060030154908060040154905085565b600080600085815260200190815260200160002060030154905060008060008681526020019081526020016000206004015490506040518060a00160405280868152602001858152602001848152602001838152602001828152506000808781526020019081526020016000206000820151816000015560208201518160010190816102849190610928565b50604082015181600201908161029a9190610928565b5060608201518160030155608082015181600401559050505050505050565b6001810361032d576001600080848152602001908152602001600020600301541061031057600160008084815260200190815260200160002060030160008282546103049190610a29565b9250508190555061032c565b6001600080848152602001908152602001600020600301819055505b5b600081036103a1576001600080848152602001908152602001600020600401541061038457600160008084815260200190815260200160002060040160008282546103789190610a29565b925050819055506103a0565b6001600080848152602001908152602001600020600401819055505b5b5050565b6000604051905090565b600080fd5b600080fd5b6000819050919050565b6103cc816103b9565b81146103d757600080fd5b50565b6000813590506103e9816103c3565b92915050565b600060208284031215610405576104046103af565b5b6000610413848285016103da565b91505092915050565b610425816103b9565b82525050565b600081519050919050565b600082825260208201905092915050565b60005b8381101561046557808201518184015260208101905061044a565b60008484015250505050565b6000601f19601f8301169050919050565b600061048d8261042b565b6104978185610436565b93506104a7818560208601610447565b6104b081610471565b840191505092915050565b600060a0820190506104d0600083018861041c565b81810360208301526104e28187610482565b905081810360408301526104f68186610482565b9050610505606083018561041c565b610512608083018461041c565b9695505050505050565b600080fd5b600080fd5b7f4e487b7100000000000000000000000000000000000000000000000000000000600052604160045260246000fd5b61055e82610471565b810181811067ffffffffffffffff8211171561057d5761057c610526565b5b80604052505050565b60006105906103a5565b905061059c8282610555565b919050565b600067ffffffffffffffff8211156105bc576105bb610526565b5b6105c582610471565b9050602081019050919050565b82818337600083830152505050565b60006105f46105ef846105a1565b610586565b9050828152602081018484840111156106105761060f610521565b5b61061b8482856105d2565b509392505050565b600082601f8301126106385761063761051c565b5b81356106488482602086016105e1565b91505092915050565b60008060006060848603121561066a576106696103af565b5b6000610678868287016103da565b935050602084013567ffffffffffffffff811115610699576106986103b4565b5b6106a586828701610623565b925050604084013567ffffffffffffffff8111156106c6576106c56103b4565b5b6106d286828701610623565b9150509250925092565b600080604083850312156106f3576106f26103af565b5b6000610701858286016103da565b9250506020610712858286016103da565b9150509250929050565b7f4e487b7100000000000000000000000000000000000000000000000000000000600052602260045260246000fd5b6000600282049050600182168061076357607f821691505b6020821081036107765761077561071c565b5b50919050565b60008190508160005260206000209050919050565b60006020601f8301049050919050565b600082821b905092915050565b6000600883026107de7fffffffffffffffffffffffffffffffffffffffffffffffffffffffffffffffff826107a1565b6107e886836107a1565b95508019841693508086168417925050509392505050565b6000819050919050565b600061082561082061081b846103b9565b610800565b6103b9565b9050919050565b6000819050919050565b61083f8361080a565b61085361084b8261082c565b8484546107ae565b825550505050565b600090565b61086861085b565b610873818484610836565b505050565b5b818110156108975761088c600082610860565b600181019050610879565b5050565b601f8211156108dc576108ad8161077c565b6108b684610791565b810160208510156108c5578190505b6108d96108d185610791565b830182610878565b50505b505050565b600082821c905092915050565b60006108ff600019846008026108e1565b1980831691505092915050565b600061091883836108ee565b9150826002028217905092915050565b6109318261042b565b67ffffffffffffffff81111561094a57610949610526565b5b610954825461074b565b61095f82828561089b565b600060209050601f8311600181146109925760008415610980578287015190505b61098a858261090c565b8655506109f2565b601f1984166109a08661077c565b60005b828110156109c8578489015182556001820191506020850194506020810190506109a3565b868310156109e557848901516109e1601f8916826108ee565b8355505b6001600288020188555050505b505050505050565b7f4e487b7100000000000000000000000000000000000000000000000000000000600052601160045260246000fd5b6000610a34826103b9565b9150610a3f836103b9565b9250828201905080821115610a5757610a566109fa565b5b9291505056fea2646970667358221220a5a40fdc39b641a1c53056c5650d1e604082d324fa7aebab83b560c15b10d61764736f6c63430008120033",
					"opcodes": "PUSH1 0x80 PUSH1 0x40 MSTORE CALLVALUE DUP1 ISZERO PUSH2 0x10 JUMPI PUSH1 0x0 DUP1 REVERT JUMPDEST POP PUSH2 0xA93 DUP1 PUSH2 0x20 PUSH1 0x0 CODECOPY PUSH1 0x0 RETURN INVALID PUSH1 0x80 PUSH1 0x40 MSTORE CALLVALUE DUP1 ISZERO PUSH2 0x10 JUMPI PUSH1 0x0 DUP1 REVERT JUMPDEST POP PUSH1 0x4 CALLDATASIZE LT PUSH2 0x41 JUMPI PUSH1 0x0 CALLDATALOAD PUSH1 0xE0 SHR DUP1 PUSH4 0x35F34232 EQ PUSH2 0x46 JUMPI DUP1 PUSH4 0x49F15E9E EQ PUSH2 0x7A JUMPI DUP1 PUSH4 0xC0713B9C EQ PUSH2 0x96 JUMPI JUMPDEST PUSH1 0x0 DUP1 REVERT JUMPDEST PUSH2 0x60 PUSH1 0x4 DUP1 CALLDATASIZE SUB DUP2 ADD SWAP1 PUSH2 0x5B SWAP2 SWAP1 PUSH2 0x3EF JUMP JUMPDEST PUSH2 0xB2 JUMP JUMPDEST PUSH1 0x40 MLOAD PUSH2 0x71 SWAP6 SWAP5 SWAP4 SWAP3 SWAP2 SWAP1 PUSH2 0x4BB JUMP JUMPDEST PUSH1 0x40 MLOAD DUP1 SWAP2 SUB SWAP1 RETURN JUMPDEST PUSH2 0x94 PUSH1 0x4 DUP1 CALLDATASIZE SUB DUP2 ADD SWAP1 PUSH2 0x8F SWAP2 SWAP1 PUSH2 0x651 JUMP JUMPDEST PUSH2 0x1F8 JUMP JUMPDEST STOP JUMPDEST PUSH2 0xB0 PUSH1 0x4 DUP1 CALLDATASIZE SUB DUP2 ADD SWAP1 PUSH2 0xAB SWAP2 SWAP1 PUSH2 0x6DC JUMP JUMPDEST PUSH2 0x2B9 JUMP JUMPDEST STOP JUMPDEST PUSH1 0x0 PUSH1 0x20 MSTORE DUP1 PUSH1 0x0 MSTORE PUSH1 0x40 PUSH1 0x0 KECCAK256 PUSH1 0x0 SWAP2 POP SWAP1 POP DUP1 PUSH1 0x0 ADD SLOAD SWAP1 DUP1 PUSH1 0x1 ADD DUP1 SLOAD PUSH2 0xDB SWAP1 PUSH2 0x74B JUMP JUMPDEST DUP1 PUSH1 0x1F ADD PUSH1 0x20 DUP1 SWAP2 DIV MUL PUSH1 0x20 ADD PUSH1 0x40 MLOAD SWAP1 DUP2 ADD PUSH1 0x40 MSTORE DUP1 SWAP3 SWAP2 SWAP1 DUP2 DUP2 MSTORE PUSH1 0x20 ADD DUP3 DUP1 SLOAD PUSH2 0x107 SWAP1 PUSH2 0x74B JUMP JUMPDEST DUP1 ISZERO PUSH2 0x154 JUMPI DUP1 PUSH1 0x1F LT PUSH2 0x129 JUMPI PUSH2 0x100 DUP1 DUP4 SLOAD DIV MUL DUP4 MSTORE SWAP2 PUSH1 0x20 ADD SWAP2 PUSH2 0x154 JUMP JUMPDEST DUP3 ADD SWAP2 SWAP1 PUSH1 0x0 MSTORE PUSH1 0x20 PUSH1 0x0 KECCAK256 SWAP1 JUMPDEST DUP2 SLOAD DUP2 MSTORE SWAP1 PUSH1 0x1 ADD SWAP1 PUSH1 0x20 ADD DUP1 DUP4 GT PUSH2 0x137 JUMPI DUP3 SWAP1 SUB PUSH1 0x1F AND DUP3 ADD SWAP2 JUMPDEST POP POP POP POP POP SWAP1 DUP1 PUSH1 0x2 ADD DUP1 SLOAD PUSH2 0x169 SWAP1 PUSH2 0x74B JUMP JUMPDEST DUP1 PUSH1 0x1F ADD PUSH1 0x20 DUP1 SWAP2 DIV MUL PUSH1 0x20 ADD PUSH1 0x40 MLOAD SWAP1 DUP2 ADD PUSH1 0x40 MSTORE DUP1 SWAP3 SWAP2 SWAP1 DUP2 DUP2 MSTORE PUSH1 0x20 ADD DUP3 DUP1 SLOAD PUSH2 0x195 SWAP1 PUSH2 0x74B JUMP JUMPDEST DUP1 ISZERO PUSH2 0x1E2 JUMPI DUP1 PUSH1 0x1F LT PUSH2 0x1B7 JUMPI PUSH2 0x100 DUP1 DUP4 SLOAD DIV MUL DUP4 MSTORE SWAP2 PUSH1 0x20 ADD SWAP2 PUSH2 0x1E2 JUMP JUMPDEST DUP3 ADD SWAP2 SWAP1 PUSH1 0x0 MSTORE PUSH1 0x20 PUSH1 0x0 KECCAK256 SWAP1 JUMPDEST DUP2 SLOAD DUP2 MSTORE SWAP1 PUSH1 0x1 ADD SWAP1 PUSH1 0x20 ADD DUP1 DUP4 GT PUSH2 0x1C5 JUMPI DUP3 SWAP1 SUB PUSH1 0x1F AND DUP3 ADD SWAP2 JUMPDEST POP POP POP POP POP SWAP1 DUP1 PUSH1 0x3 ADD SLOAD SWAP1 DUP1 PUSH1 0x4 ADD SLOAD SWAP1 POP DUP6 JUMP JUMPDEST PUSH1 0x0 DUP1 PUSH1 0x0 DUP6 DUP2 MSTORE PUSH1 0x20 ADD SWAP1 DUP2 MSTORE PUSH1 0x20 ADD PUSH1 0x0 KECCAK256 PUSH1 0x3 ADD SLOAD SWAP1 POP PUSH1 0x0 DUP1 PUSH1 0x0 DUP7 DUP2 MSTORE PUSH1 0x20 ADD SWAP1 DUP2 MSTORE PUSH1 0x20 ADD PUSH1 0x0 KECCAK256 PUSH1 0x4 ADD SLOAD SWAP1 POP PUSH1 0x40 MLOAD DUP1 PUSH1 0xA0 ADD PUSH1 0x40 MSTORE DUP1 DUP7 DUP2 MSTORE PUSH1 0x20 ADD DUP6 DUP2 MSTORE PUSH1 0x20 ADD DUP5 DUP2 MSTORE PUSH1 0x20 ADD DUP4 DUP2 MSTORE PUSH1 0x20 ADD DUP3 DUP2 MSTORE POP PUSH1 0x0 DUP1 DUP8 DUP2 MSTORE PUSH1 0x20 ADD SWAP1 DUP2 MSTORE PUSH1 0x20 ADD PUSH1 0x0 KECCAK256 PUSH1 0x0 DUP3 ADD MLOAD DUP2 PUSH1 0x0 ADD SSTORE PUSH1 0x20 DUP3 ADD MLOAD DUP2 PUSH1 0x1 ADD SWAP1 DUP2 PUSH2 0x284 SWAP2 SWAP1 PUSH2 0x928 JUMP JUMPDEST POP PUSH1 0x40 DUP3 ADD MLOAD DUP2 PUSH1 0x2 ADD SWAP1 DUP2 PUSH2 0x29A SWAP2 SWAP1 PUSH2 0x928 JUMP JUMPDEST POP PUSH1 0x60 DUP3 ADD MLOAD DUP2 PUSH1 0x3 ADD SSTORE PUSH1 0x80 DUP3 ADD MLOAD DUP2 PUSH1 0x4 ADD SSTORE SWAP1 POP POP POP POP POP POP POP JUMP JUMPDEST PUSH1 0x1 DUP2 SUB PUSH2 0x32D JUMPI PUSH1 0x1 PUSH1 0x0 DUP1 DUP5 DUP2 MSTORE PUSH1 0x20 ADD SWAP1 DUP2 MSTORE PUSH1 0x20 ADD PUSH1 0x0 KECCAK256 PUSH1 0x3 ADD SLOAD LT PUSH2 0x310 JUMPI PUSH1 0x1 PUSH1 0x0 DUP1 DUP5 DUP2 MSTORE PUSH1 0x20 ADD SWAP1 DUP2 MSTORE PUSH1 0x20 ADD PUSH1 0x0 KECCAK256 PUSH1 0x3 ADD PUSH1 0x0 DUP3 DUP3 SLOAD PUSH2 0x304 SWAP2 SWAP1 PUSH2 0xA29 JUMP JUMPDEST SWAP3 POP POP DUP2 SWAP1 SSTORE POP PUSH2 0x32C JUMP JUMPDEST PUSH1 0x1 PUSH1 0x0 DUP1 DUP5 DUP2 MSTORE PUSH1 0x20 ADD SWAP1 DUP2 MSTORE PUSH1 0x20 ADD PUSH1 0x0 KECCAK256 PUSH1 0x3 ADD DUP2 SWAP1 SSTORE POP JUMPDEST JUMPDEST PUSH1 0x0 DUP2 SUB PUSH2 0x3A1 JUMPI PUSH1 0x1 PUSH1 0x0 DUP1 DUP5 DUP2 MSTORE PUSH1 0x20 ADD SWAP1 DUP2 MSTORE PUSH1 0x20 ADD PUSH1 0x0 KECCAK256 PUSH1 0x4 ADD SLOAD LT PUSH2 0x384 JUMPI PUSH1 0x1 PUSH1 0x0 DUP1 DUP5 DUP2 MSTORE PUSH1 0x20 ADD SWAP1 DUP2 MSTORE PUSH1 0x20 ADD PUSH1 0x0 KECCAK256 PUSH1 0x4 ADD PUSH1 0x0 DUP3 DUP3 SLOAD PUSH2 0x378 SWAP2 SWAP1 PUSH2 0xA29 JUMP JUMPDEST SWAP3 POP POP DUP2 SWAP1 SSTORE POP PUSH2 0x3A0 JUMP JUMPDEST PUSH1 0x1 PUSH1 0x0 DUP1 DUP5 DUP2 MSTORE PUSH1 0x20 ADD SWAP1 DUP2 MSTORE PUSH1 0x20 ADD PUSH1 0x0 KECCAK256 PUSH1 0x4 ADD DUP2 SWAP1 SSTORE POP JUMPDEST JUMPDEST POP POP JUMP JUMPDEST PUSH1 0x0 PUSH1 0x40 MLOAD SWAP1 POP SWAP1 JUMP JUMPDEST PUSH1 0x0 DUP1 REVERT JUMPDEST PUSH1 0x0 DUP1 REVERT JUMPDEST PUSH1 0x0 DUP2 SWAP1 POP SWAP2 SWAP1 POP JUMP JUMPDEST PUSH2 0x3CC DUP2 PUSH2 0x3B9 JUMP JUMPDEST DUP2 EQ PUSH2 0x3D7 JUMPI PUSH1 0x0 DUP1 REVERT JUMPDEST POP JUMP JUMPDEST PUSH1 0x0 DUP2 CALLDATALOAD SWAP1 POP PUSH2 0x3E9 DUP2 PUSH2 0x3C3 JUMP JUMPDEST SWAP3 SWAP2 POP POP JUMP JUMPDEST PUSH1 0x0 PUSH1 0x20 DUP3 DUP5 SUB SLT ISZERO PUSH2 0x405 JUMPI PUSH2 0x404 PUSH2 0x3AF JUMP JUMPDEST JUMPDEST PUSH1 0x0 PUSH2 0x413 DUP5 DUP3 DUP6 ADD PUSH2 0x3DA JUMP JUMPDEST SWAP2 POP POP SWAP3 SWAP2 POP POP JUMP JUMPDEST PUSH2 0x425 DUP2 PUSH2 0x3B9 JUMP JUMPDEST DUP3 MSTORE POP POP JUMP JUMPDEST PUSH1 0x0 DUP2 MLOAD SWAP1 POP SWAP2 SWAP1 POP JUMP JUMPDEST PUSH1 0x0 DUP3 DUP3 MSTORE PUSH1 0x20 DUP3 ADD SWAP1 POP SWAP3 SWAP2 POP POP JUMP JUMPDEST PUSH1 0x0 JUMPDEST DUP4 DUP2 LT ISZERO PUSH2 0x465 JUMPI DUP1 DUP3 ADD MLOAD DUP2 DUP5 ADD MSTORE PUSH1 0x20 DUP2 ADD SWAP1 POP PUSH2 0x44A JUMP JUMPDEST PUSH1 0x0 DUP5 DUP5 ADD MSTORE POP POP POP POP JUMP JUMPDEST PUSH1 0x0 PUSH1 0x1F NOT PUSH1 0x1F DUP4 ADD AND SWAP1 POP SWAP2 SWAP1 POP JUMP JUMPDEST PUSH1 0x0 PUSH2 0x48D DUP3 PUSH2 0x42B JUMP JUMPDEST PUSH2 0x497 DUP2 DUP6 PUSH2 0x436 JUMP JUMPDEST SWAP4 POP PUSH2 0x4A7 DUP2 DUP6 PUSH1 0x20 DUP7 ADD PUSH2 0x447 JUMP JUMPDEST PUSH2 0x4B0 DUP2 PUSH2 0x471 JUMP JUMPDEST DUP5 ADD SWAP2 POP POP SWAP3 SWAP2 POP POP JUMP JUMPDEST PUSH1 0x0 PUSH1 0xA0 DUP3 ADD SWAP1 POP PUSH2 0x4D0 PUSH1 0x0 DUP4 ADD DUP9 PUSH2 0x41C JUMP JUMPDEST DUP2 DUP2 SUB PUSH1 0x20 DUP4 ADD MSTORE PUSH2 0x4E2 DUP2 DUP8 PUSH2 0x482 JUMP JUMPDEST SWAP1 POP DUP2 DUP2 SUB PUSH1 0x40 DUP4 ADD MSTORE PUSH2 0x4F6 DUP2 DUP7 PUSH2 0x482 JUMP JUMPDEST SWAP1 POP PUSH2 0x505 PUSH1 0x60 DUP4 ADD DUP6 PUSH2 0x41C JUMP JUMPDEST PUSH2 0x512 PUSH1 0x80 DUP4 ADD DUP5 PUSH2 0x41C JUMP JUMPDEST SWAP7 SWAP6 POP POP POP POP POP POP JUMP JUMPDEST PUSH1 0x0 DUP1 REVERT JUMPDEST PUSH1 0x0 DUP1 REVERT JUMPDEST PUSH32 0x4E487B7100000000000000000000000000000000000000000000000000000000 PUSH1 0x0 MSTORE PUSH1 0x41 PUSH1 0x4 MSTORE PUSH1 0x24 PUSH1 0x0 REVERT JUMPDEST PUSH2 0x55E DUP3 PUSH2 0x471 JUMP JUMPDEST DUP2 ADD DUP2 DUP2 LT PUSH8 0xFFFFFFFFFFFFFFFF DUP3 GT OR ISZERO PUSH2 0x57D JUMPI PUSH2 0x57C PUSH2 0x526 JUMP JUMPDEST JUMPDEST DUP1 PUSH1 0x40 MSTORE POP POP POP JUMP JUMPDEST PUSH1 0x0 PUSH2 0x590 PUSH2 0x3A5 JUMP JUMPDEST SWAP1 POP PUSH2 0x59C DUP3 DUP3 PUSH2 0x555 JUMP JUMPDEST SWAP2 SWAP1 POP JUMP JUMPDEST PUSH1 0x0 PUSH8 0xFFFFFFFFFFFFFFFF DUP3 GT ISZERO PUSH2 0x5BC JUMPI PUSH2 0x5BB PUSH2 0x526 JUMP JUMPDEST JUMPDEST PUSH2 0x5C5 DUP3 PUSH2 0x471 JUMP JUMPDEST SWAP1 POP PUSH1 0x20 DUP2 ADD SWAP1 POP SWAP2 SWAP1 POP JUMP JUMPDEST DUP3 DUP2 DUP4 CALLDATACOPY PUSH1 0x0 DUP4 DUP4 ADD MSTORE POP POP POP JUMP JUMPDEST PUSH1 0x0 PUSH2 0x5F4 PUSH2 0x5EF DUP5 PUSH2 0x5A1 JUMP JUMPDEST PUSH2 0x586 JUMP JUMPDEST SWAP1 POP DUP3 DUP2 MSTORE PUSH1 0x20 DUP2 ADD DUP5 DUP5 DUP5 ADD GT ISZERO PUSH2 0x610 JUMPI PUSH2 0x60F PUSH2 0x521 JUMP JUMPDEST JUMPDEST PUSH2 0x61B DUP5 DUP3 DUP6 PUSH2 0x5D2 JUMP JUMPDEST POP SWAP4 SWAP3 POP POP POP JUMP JUMPDEST PUSH1 0x0 DUP3 PUSH1 0x1F DUP4 ADD SLT PUSH2 0x638 JUMPI PUSH2 0x637 PUSH2 0x51C JUMP JUMPDEST JUMPDEST DUP2 CALLDATALOAD PUSH2 0x648 DUP5 DUP3 PUSH1 0x20 DUP7 ADD PUSH2 0x5E1 JUMP JUMPDEST SWAP2 POP POP SWAP3 SWAP2 POP POP JUMP JUMPDEST PUSH1 0x0 DUP1 PUSH1 0x0 PUSH1 0x60 DUP5 DUP7 SUB SLT ISZERO PUSH2 0x66A JUMPI PUSH2 0x669 PUSH2 0x3AF JUMP JUMPDEST JUMPDEST PUSH1 0x0 PUSH2 0x678 DUP7 DUP3 DUP8 ADD PUSH2 0x3DA JUMP JUMPDEST SWAP4 POP POP PUSH1 0x20 DUP5 ADD CALLDATALOAD PUSH8 0xFFFFFFFFFFFFFFFF DUP2 GT ISZERO PUSH2 0x699 JUMPI PUSH2 0x698 PUSH2 0x3B4 JUMP JUMPDEST JUMPDEST PUSH2 0x6A5 DUP7 DUP3 DUP8 ADD PUSH2 0x623 JUMP JUMPDEST SWAP3 POP POP PUSH1 0x40 DUP5 ADD CALLDATALOAD PUSH8 0xFFFFFFFFFFFFFFFF DUP2 GT ISZERO PUSH2 0x6C6 JUMPI PUSH2 0x6C5 PUSH2 0x3B4 JUMP JUMPDEST JUMPDEST PUSH2 0x6D2 DUP7 DUP3 DUP8 ADD PUSH2 0x623 JUMP JUMPDEST SWAP2 POP POP SWAP3 POP SWAP3 POP SWAP3 JUMP JUMPDEST PUSH1 0x0 DUP1 PUSH1 0x40 DUP4 DUP6 SUB SLT ISZERO PUSH2 0x6F3 JUMPI PUSH2 0x6F2 PUSH2 0x3AF JUMP JUMPDEST JUMPDEST PUSH1 0x0 PUSH2 0x701 DUP6 DUP3 DUP7 ADD PUSH2 0x3DA JUMP JUMPDEST SWAP3 POP POP PUSH1 0x20 PUSH2 0x712 DUP6 DUP3 DUP7 ADD PUSH2 0x3DA JUMP JUMPDEST SWAP2 POP POP SWAP3 POP SWAP3 SWAP1 POP JUMP JUMPDEST PUSH32 0x4E487B7100000000000000000000000000000000000000000000000000000000 PUSH1 0x0 MSTORE PUSH1 0x22 PUSH1 0x4 MSTORE PUSH1 0x24 PUSH1 0x0 REVERT JUMPDEST PUSH1 0x0 PUSH1 0x2 DUP3 DIV SWAP1 POP PUSH1 0x1 DUP3 AND DUP1 PUSH2 0x763 JUMPI PUSH1 0x7F DUP3 AND SWAP2 POP JUMPDEST PUSH1 0x20 DUP3 LT DUP2 SUB PUSH2 0x776 JUMPI PUSH2 0x775 PUSH2 0x71C JUMP JUMPDEST JUMPDEST POP SWAP2 SWAP1 POP JUMP JUMPDEST PUSH1 0x0 DUP2 SWAP1 POP DUP2 PUSH1 0x0 MSTORE PUSH1 0x20 PUSH1 0x0 KECCAK256 SWAP1 POP SWAP2 SWAP1 POP JUMP JUMPDEST PUSH1 0x0 PUSH1 0x20 PUSH1 0x1F DUP4 ADD DIV SWAP1 POP SWAP2 SWAP1 POP JUMP JUMPDEST PUSH1 0x0 DUP3 DUP3 SHL SWAP1 POP SWAP3 SWAP2 POP POP JUMP JUMPDEST PUSH1 0x0 PUSH1 0x8 DUP4 MUL PUSH2 0x7DE PUSH32 0xFFFFFFFFFFFFFFFFFFFFFFFFFFFFFFFFFFFFFFFFFFFFFFFFFFFFFFFFFFFFFFFF DUP3 PUSH2 0x7A1 JUMP JUMPDEST PUSH2 0x7E8 DUP7 DUP4 PUSH2 0x7A1 JUMP JUMPDEST SWAP6 POP DUP1 NOT DUP5 AND SWAP4 POP DUP1 DUP7 AND DUP5 OR SWAP3 POP POP POP SWAP4 SWAP3 POP POP POP JUMP JUMPDEST PUSH1 0x0 DUP2 SWAP1 POP SWAP2 SWAP1 POP JUMP JUMPDEST PUSH1 0x0 PUSH2 0x825 PUSH2 0x820 PUSH2 0x81B DUP5 PUSH2 0x3B9 JUMP JUMPDEST PUSH2 0x800 JUMP JUMPDEST PUSH2 0x3B9 JUMP JUMPDEST SWAP1 POP SWAP2 SWAP1 POP JUMP JUMPDEST PUSH1 0x0 DUP2 SWAP1 POP SWAP2 SWAP1 POP JUMP JUMPDEST PUSH2 0x83F DUP4 PUSH2 0x80A JUMP JUMPDEST PUSH2 0x853 PUSH2 0x84B DUP3 PUSH2 0x82C JUMP JUMPDEST DUP5 DUP5 SLOAD PUSH2 0x7AE JUMP JUMPDEST DUP3 SSTORE POP POP POP POP JUMP JUMPDEST PUSH1 0x0 SWAP1 JUMP JUMPDEST PUSH2 0x868 PUSH2 0x85B JUMP JUMPDEST PUSH2 0x873 DUP2 DUP5 DUP5 PUSH2 0x836 JUMP JUMPDEST POP POP POP JUMP JUMPDEST JUMPDEST DUP2 DUP2 LT ISZERO PUSH2 0x897 JUMPI PUSH2 0x88C PUSH1 0x0 DUP3 PUSH2 0x860 JUMP JUMPDEST PUSH1 0x1 DUP2 ADD SWAP1 POP PUSH2 0x879 JUMP JUMPDEST POP POP JUMP JUMPDEST PUSH1 0x1F DUP3 GT ISZERO PUSH2 0x8DC JUMPI PUSH2 0x8AD DUP2 PUSH2 0x77C JUMP JUMPDEST PUSH2 0x8B6 DUP5 PUSH2 0x791 JUMP JUMPDEST DUP2 ADD PUSH1 0x20 DUP6 LT ISZERO PUSH2 0x8C5 JUMPI DUP2 SWAP1 POP JUMPDEST PUSH2 0x8D9 PUSH2 0x8D1 DUP6 PUSH2 0x791 JUMP JUMPDEST DUP4 ADD DUP3 PUSH2 0x878 JUMP JUMPDEST POP POP JUMPDEST POP POP POP JUMP JUMPDEST PUSH1 0x0 DUP3 DUP3 SHR SWAP1 POP SWAP3 SWAP2 POP POP JUMP JUMPDEST PUSH1 0x0 PUSH2 0x8FF PUSH1 0x0 NOT DUP5 PUSH1 0x8 MUL PUSH2 0x8E1 JUMP JUMPDEST NOT DUP1 DUP4 AND SWAP2 POP POP SWAP3 SWAP2 POP POP JUMP JUMPDEST PUSH1 0x0 PUSH2 0x918 DUP4 DUP4 PUSH2 0x8EE JUMP JUMPDEST SWAP2 POP DUP3 PUSH1 0x2 MUL DUP3 OR SWAP1 POP SWAP3 SWAP2 POP POP JUMP JUMPDEST PUSH2 0x931 DUP3 PUSH2 0x42B JUMP JUMPDEST PUSH8 0xFFFFFFFFFFFFFFFF DUP2 GT ISZERO PUSH2 0x94A JUMPI PUSH2 0x949 PUSH2 0x526 JUMP JUMPDEST JUMPDEST PUSH2 0x954 DUP3 SLOAD PUSH2 0x74B JUMP JUMPDEST PUSH2 0x95F DUP3 DUP3 DUP6 PUSH2 0x89B JUMP JUMPDEST PUSH1 0x0 PUSH1 0x20 SWAP1 POP PUSH1 0x1F DUP4 GT PUSH1 0x1 DUP2 EQ PUSH2 0x992 JUMPI PUSH1 0x0 DUP5 ISZERO PUSH2 0x980 JUMPI DUP3 DUP8 ADD MLOAD SWAP1 POP JUMPDEST PUSH2 0x98A DUP6 DUP3 PUSH2 0x90C JUMP JUMPDEST DUP7 SSTORE POP PUSH2 0x9F2 JUMP JUMPDEST PUSH1 0x1F NOT DUP5 AND PUSH2 0x9A0 DUP7 PUSH2 0x77C JUMP JUMPDEST PUSH1 0x0 JUMPDEST DUP3 DUP2 LT ISZERO PUSH2 0x9C8 JUMPI DUP5 DUP10 ADD MLOAD DUP3 SSTORE PUSH1 0x1 DUP3 ADD SWAP2 POP PUSH1 0x20 DUP6 ADD SWAP5 POP PUSH1 0x20 DUP2 ADD SWAP1 POP PUSH2 0x9A3 JUMP JUMPDEST DUP7 DUP4 LT ISZERO PUSH2 0x9E5 JUMPI DUP5 DUP10 ADD MLOAD PUSH2 0x9E1 PUSH1 0x1F DUP10 AND DUP3 PUSH2 0x8EE JUMP JUMPDEST DUP4 SSTORE POP JUMPDEST PUSH1 0x1 PUSH1 0x2 DUP9 MUL ADD DUP9 SSTORE POP POP POP JUMPDEST POP POP POP POP POP POP JUMP JUMPDEST PUSH32 0x4E487B7100000000000000000000000000000000000000000000000000000000 PUSH1 0x0 MSTORE PUSH1 0x11 PUSH1 0x4 MSTORE PUSH1 0x24 PUSH1 0x0 REVERT JUMPDEST PUSH1 0x0 PUSH2 0xA34 DUP3 PUSH2 0x3B9 JUMP JUMPDEST SWAP2 POP PUSH2 0xA3F DUP4 PUSH2 0x3B9 JUMP JUMPDEST SWAP3 POP DUP3 DUP3 ADD SWAP1 POP DUP1 DUP3 GT ISZERO PUSH2 0xA57 JUMPI PUSH2 0xA56 PUSH2 0x9FA JUMP JUMPDEST JUMPDEST SWAP3 SWAP2 POP POP JUMP INVALID LOG2 PUSH5 0x6970667358 0x22 SLT KECCAK256 0xA5 LOG4 0xF 0xDC CODECOPY 0xB6 COINBASE LOG1 0xC5 ADDRESS JUMP 0xC5 PUSH6 0xD1E604082D3 0x24 STATICCALL PUSH27 0xEBAB83B560C15B10D61764736F6C63430008120033000000000000 "
				},
				"gasEstimates": {
					"creation": {
						"codeDepositCost": "541400",
						"executionCost": "575",
						"totalCost": "541975"
					},
					"external": {
						"createStudent(uint256,string,string)": "infinite",
						"student(uint256)": "infinite",
						"studentAttendance(uint256,uint256)": "infinite"
					}
				},
				"methodIdentifiers": {
					"createStudent(uint256,string,string)": "49f15e9e",
					"student(uint256)": "35f34232",
					"studentAttendance(uint256,uint256)": "c0713b9c"
				}
			},
			"storageLayout": {
				"storage": [
					{
						"astId": 17,
						"contract": "contracts/student_attendance.sol:attendance_result",
						"label": "student",
						"offset": 0,
						"slot": "0",
						"type": "t_mapping(t_uint256,t_struct(studentInfo)12_storage)"
					}
				],
				"types": {
					"t_mapping(t_uint256,t_struct(studentInfo)12_storage)": {
						"encoding": "mapping",
						"key": "t_uint256",
						"label": "mapping(uint256 => struct attendance_result.studentInfo)",
						"numberOfBytes": "32",
						"value": "t_struct(studentInfo)12_storage"
					},
					"t_string_storage": {
						"encoding": "bytes",
						"label": "string",
						"numberOfBytes": "32"
					},
					"t_struct(studentInfo)12_storage": {
						"encoding": "inplace",
						"label": "struct attendance_result.studentInfo",
						"members": [
							{
								"astId": 3,
								"contract": "contracts/student_attendance.sol:attendance_result",
								"label": "roll_no",
								"offset": 0,
								"slot": "0",
								"type": "t_uint256"
							},
							{
								"astId": 5,
								"contract": "contracts/student_attendance.sol:attendance_result",
								"label": "name",
								"offset": 0,
								"slot": "1",
								"type": "t_string_storage"
							},
							{
								"astId": 7,
								"contract": "contracts/student_attendance.sol:attendance_result",
								"label": "std",
								"offset": 0,
								"slot": "2",
								"type": "t_string_storage"
							},
							{
								"astId": 9,
								"contract": "contracts/student_attendance.sol:attendance_result",
								"label": "total_a",
								"offset": 0,
								"slot": "3",
								"type": "t_uint256"
							},
							{
								"astId": 11,
								"contract": "contracts/student_attendance.sol:attendance_result",
								"label": "total_p",
								"offset": 0,
								"slot": "4",
								"type": "t_uint256"
							}
						],
						"numberOfBytes": "160"
					},
					"t_uint256": {
						"encoding": "inplace",
						"label": "uint256",
						"numberOfBytes": "32"
					}
				}
			},
			"userdoc": {
				"kind": "user",
				"methods": {},
				"version": 1
			}
		}
	}
}