{
	"contracts/todo-list.sol": {
		"ToDolist": {
			"abi": [
				{
					"inputs": [
						{
							"internalType": "uint256",
							"name": "t_num",
							"type": "uint256"
						},
						{
							"internalType": "string",
							"name": "t_name",
							"type": "string"
						},
						{
							"internalType": "string",
							"name": "t_desc",
							"type": "string"
						}
					],
					"name": "AddTask",
					"outputs": [],
					"stateMutability": "nonpayable",
					"type": "function"
				},
				{
					"inputs": [
						{
							"internalType": "uint256",
							"name": "task_num",
							"type": "uint256"
						}
					],
					"name": "CompleteTask",
					"outputs": [],
					"stateMutability": "nonpayable",
					"type": "function"
				},
				{
					"inputs": [
						{
							"internalType": "uint256",
							"name": "task_num",
							"type": "uint256"
						}
					],
					"name": "GetTask",
					"outputs": [
						{
							"internalType": "string",
							"name": "",
							"type": "string"
						},
						{
							"internalType": "string",
							"name": "",
							"type": "string"
						},
						{
							"internalType": "enum ToDolist.TaskStatus",
							"name": "",
							"type": "uint8"
						}
					],
					"stateMutability": "view",
					"type": "function"
				},
				{
					"inputs": [
						{
							"internalType": "uint256",
							"name": "task_num",
							"type": "uint256"
						}
					],
					"name": "ProcessTask",
					"outputs": [],
					"stateMutability": "nonpayable",
					"type": "function"
				}
			],
			"devdoc": {
				"kind": "dev",
				"methods": {},
				"version": 1
			},
			"evm": {
				"assembly": "    /* \"contracts/todo-list.sol\":70:917  contract ToDolist {... */\n  mstore(0x40, 0x80)\n  callvalue\n  dup1\n  iszero\n  tag_1\n  jumpi\n  0x00\n  dup1\n  revert\ntag_1:\n  pop\n  dataSize(sub_0)\n  dup1\n  dataOffset(sub_0)\n  0x00\n  codecopy\n  0x00\n  return\nstop\n\nsub_0: assembly {\n        /* \"contracts/todo-list.sol\":70:917  contract ToDolist {... */\n      mstore(0x40, 0x80)\n      callvalue\n      dup1\n      iszero\n      tag_1\n      jumpi\n      0x00\n      dup1\n      revert\n    tag_1:\n      pop\n      jumpi(tag_2, lt(calldatasize, 0x04))\n      shr(0xe0, calldataload(0x00))\n      dup1\n      0x38099187\n      eq\n      tag_3\n      jumpi\n      dup1\n      0x50675ed6\n      eq\n      tag_4\n      jumpi\n      dup1\n      0xae75aa69\n      eq\n      tag_5\n      jumpi\n      dup1\n      0xda4c0b53\n      eq\n      tag_6\n      jumpi\n    tag_2:\n      0x00\n      dup1\n      revert\n        /* \"contracts/todo-list.sol\":287:444  function AddTask(uint t_num, string memory t_name, string memory t_desc) public {... */\n    tag_3:\n      tag_7\n      0x04\n      dup1\n      calldatasize\n      sub\n      dup2\n      add\n      swap1\n      tag_8\n      swap2\n      swap1\n      tag_9\n      jump\t// in\n    tag_8:\n      tag_10\n      jump\t// in\n    tag_7:\n      stop\n        /* \"contracts/todo-list.sol\":450:685  function GetTask(uint task_num) public view returns(string memory, string memory, TaskStatus) {... */\n    tag_4:\n      tag_11\n      0x04\n      dup1\n      calldatasize\n      sub\n      dup2\n      add\n      swap1\n      tag_12\n      swap2\n      swap1\n      tag_13\n      jump\t// in\n    tag_12:\n      tag_14\n      jump\t// in\n    tag_11:\n      mload(0x40)\n      tag_15\n      swap4\n      swap3\n      swap2\n      swap1\n      tag_16\n      jump\t// in\n    tag_15:\n      mload(0x40)\n      dup1\n      swap2\n      sub\n      swap1\n      return\n        /* \"contracts/todo-list.sol\":805:914  function CompleteTask(uint task_num) public {... */\n    tag_5:\n      tag_17\n      0x04\n      dup1\n      calldatasize\n      sub\n      dup2\n      add\n      swap1\n      tag_18\n      swap2\n      swap1\n      tag_13\n      jump\t// in\n    tag_18:\n      tag_19\n      jump\t// in\n    tag_17:\n      stop\n        /* \"contracts/todo-list.sol\":691:799  function ProcessTask(uint task_num) public {... */\n    tag_6:\n      tag_20\n      0x04\n      dup1\n      calldatasize\n      sub\n      dup2\n      add\n      swap1\n      tag_21\n      swap2\n      swap1\n      tag_13\n      jump\t// in\n    tag_21:\n      tag_22\n      jump\t// in\n    tag_20:\n      stop\n        /* \"contracts/todo-list.sol\":287:444  function AddTask(uint t_num, string memory t_name, string memory t_desc) public {... */\n    tag_10:\n        /* \"contracts/todo-list.sol\":396:437  listinfo(t_name, t_desc, TaskStatus.todo) */\n      mload(0x40)\n      dup1\n      0x60\n      add\n      0x40\n      mstore\n      dup1\n        /* \"contracts/todo-list.sol\":405:411  t_name */\n      dup4\n        /* \"contracts/todo-list.sol\":396:437  listinfo(t_name, t_desc, TaskStatus.todo) */\n      dup2\n      mstore\n      0x20\n      add\n        /* \"contracts/todo-list.sol\":413:419  t_desc */\n      dup3\n        /* \"contracts/todo-list.sol\":396:437  listinfo(t_name, t_desc, TaskStatus.todo) */\n      dup2\n      mstore\n      0x20\n      add\n        /* \"contracts/todo-list.sol\":421:436  TaskStatus.todo */\n      0x00\n        /* \"contracts/todo-list.sol\":396:437  listinfo(t_name, t_desc, TaskStatus.todo) */\n      0x02\n      dup2\n      gt\n      iszero\n      tag_24\n      jumpi\n      tag_25\n      tag_26\n      jump\t// in\n    tag_25:\n    tag_24:\n      dup2\n      mstore\n      pop\n        /* \"contracts/todo-list.sol\":377:386  todolists */\n      0x00\n        /* \"contracts/todo-list.sol\":377:393  todolists[t_num] */\n      dup1\n        /* \"contracts/todo-list.sol\":387:392  t_num */\n      dup6\n        /* \"contracts/todo-list.sol\":377:393  todolists[t_num] */\n      dup2\n      mstore\n      0x20\n      add\n      swap1\n      dup2\n      mstore\n      0x20\n      add\n      0x00\n      keccak256\n        /* \"contracts/todo-list.sol\":377:437  todolists[t_num] = listinfo(t_name, t_desc, TaskStatus.todo) */\n      0x00\n      dup3\n      add\n      mload\n      dup2\n      0x00\n      add\n      swap1\n      dup2\n      tag_27\n      swap2\n      swap1\n      tag_28\n      jump\t// in\n    tag_27:\n      pop\n      0x20\n      dup3\n      add\n      mload\n      dup2\n      0x01\n      add\n      swap1\n      dup2\n      tag_29\n      swap2\n      swap1\n      tag_28\n      jump\t// in\n    tag_29:\n      pop\n      0x40\n      dup3\n      add\n      mload\n      dup2\n      0x02\n      add\n      exp(0x0100, 0x00)\n      dup2\n      sload\n      dup2\n      0xff\n      mul\n      not\n      and\n      swap1\n      dup4\n      0x02\n      dup2\n      gt\n      iszero\n      tag_30\n      jumpi\n      tag_31\n      tag_26\n      jump\t// in\n    tag_31:\n    tag_30:\n      mul\n      or\n      swap1\n      sstore\n      pop\n      swap1\n      pop\n      pop\n        /* \"contracts/todo-list.sol\":287:444  function AddTask(uint t_num, string memory t_name, string memory t_desc) public {... */\n      pop\n      pop\n      pop\n      jump\t// out\n        /* \"contracts/todo-list.sol\":450:685  function GetTask(uint task_num) public view returns(string memory, string memory, TaskStatus) {... */\n    tag_14:\n        /* \"contracts/todo-list.sol\":502:515  string memory */\n      0x60\n        /* \"contracts/todo-list.sol\":517:530  string memory */\n      dup1\n        /* \"contracts/todo-list.sol\":532:542  TaskStatus */\n      0x00\n        /* \"contracts/todo-list.sol\":562:571  todolists */\n      dup1\n        /* \"contracts/todo-list.sol\":562:581  todolists[task_num] */\n      0x00\n        /* \"contracts/todo-list.sol\":572:580  task_num */\n      dup6\n        /* \"contracts/todo-list.sol\":562:581  todolists[task_num] */\n      dup2\n      mstore\n      0x20\n      add\n      swap1\n      dup2\n      mstore\n      0x20\n      add\n      0x00\n      keccak256\n        /* \"contracts/todo-list.sol\":562:586  todolists[task_num].task */\n      0x00\n      add\n        /* \"contracts/todo-list.sol\":604:613  todolists */\n      0x00\n        /* \"contracts/todo-list.sol\":604:623  todolists[task_num] */\n      dup1\n        /* \"contracts/todo-list.sol\":614:622  task_num */\n      dup7\n        /* \"contracts/todo-list.sol\":604:623  todolists[task_num] */\n      dup2\n      mstore\n      0x20\n      add\n      swap1\n      dup2\n      mstore\n      0x20\n      add\n      0x00\n      keccak256\n        /* \"contracts/todo-list.sol\":604:633  todolists[task_num].task_desc */\n      0x01\n      add\n        /* \"contracts/todo-list.sol\":651:660  todolists */\n      0x00\n        /* \"contracts/todo-list.sol\":651:670  todolists[task_num] */\n      dup1\n        /* \"contracts/todo-list.sol\":661:669  task_num */\n      dup8\n        /* \"contracts/todo-list.sol\":651:670  todolists[task_num] */\n      dup2\n      mstore\n      0x20\n      add\n      swap1\n      dup2\n      mstore\n      0x20\n      add\n      0x00\n      keccak256\n        /* \"contracts/todo-list.sol\":651:677  todolists[task_num].status */\n      0x02\n      add\n      0x00\n      swap1\n      sload\n      swap1\n      0x0100\n      exp\n      swap1\n      div\n      0xff\n      and\n        /* \"contracts/todo-list.sol\":554:678  return (todolists[task_num].task,... */\n      dup3\n      dup1\n      sload\n      tag_33\n      swap1\n      tag_34\n      jump\t// in\n    tag_33:\n      dup1\n      0x1f\n      add\n      0x20\n      dup1\n      swap2\n      div\n      mul\n      0x20\n      add\n      mload(0x40)\n      swap1\n      dup2\n      add\n      0x40\n      mstore\n      dup1\n      swap3\n      swap2\n      swap1\n      dup2\n      dup2\n      mstore\n      0x20\n      add\n      dup3\n      dup1\n      sload\n      tag_35\n      swap1\n      tag_34\n      jump\t// in\n    tag_35:\n      dup1\n      iszero\n      tag_36\n      jumpi\n      dup1\n      0x1f\n      lt\n      tag_37\n      jumpi\n      0x0100\n      dup1\n      dup4\n      sload\n      div\n      mul\n      dup4\n      mstore\n      swap2\n      0x20\n      add\n      swap2\n      jump(tag_36)\n    tag_37:\n      dup3\n      add\n      swap2\n      swap1\n      0x00\n      mstore\n      keccak256(0x00, 0x20)\n      swap1\n    tag_38:\n      dup2\n      sload\n      dup2\n      mstore\n      swap1\n      0x01\n      add\n      swap1\n      0x20\n      add\n      dup1\n      dup4\n      gt\n      tag_38\n      jumpi\n      dup3\n      swap1\n      sub\n      0x1f\n      and\n      dup3\n      add\n      swap2\n    tag_36:\n      pop\n      pop\n      pop\n      pop\n      pop\n      swap3\n      pop\n      dup2\n      dup1\n      sload\n      tag_39\n      swap1\n      tag_34\n      jump\t// in\n    tag_39:\n      dup1\n      0x1f\n      add\n      0x20\n      dup1\n      swap2\n      div\n      mul\n      0x20\n      add\n      mload(0x40)\n      swap1\n      dup2\n      add\n      0x40\n      mstore\n      dup1\n      swap3\n      swap2\n      swap1\n      dup2\n      dup2\n      mstore\n      0x20\n      add\n      dup3\n      dup1\n      sload\n      tag_40\n      swap1\n      tag_34\n      jump\t// in\n    tag_40:\n      dup1\n      iszero\n      tag_41\n      jumpi\n      dup1\n      0x1f\n      lt\n      tag_42\n      jumpi\n      0x0100\n      dup1\n      dup4\n      sload\n      div\n      mul\n      dup4\n      mstore\n      swap2\n      0x20\n      add\n      swap2\n      jump(tag_41)\n    tag_42:\n      dup3\n      add\n      swap2\n      swap1\n      0x00\n      mstore\n      keccak256(0x00, 0x20)\n      swap1\n    tag_43:\n      dup2\n      sload\n      dup2\n      mstore\n      swap1\n      0x01\n      add\n      swap1\n      0x20\n      add\n      dup1\n      dup4\n      gt\n      tag_43\n      jumpi\n      dup3\n      swap1\n      sub\n      0x1f\n      and\n      dup3\n      add\n      swap2\n    tag_41:\n      pop\n      pop\n      pop\n      pop\n      pop\n      swap2\n      pop\n      swap3\n      pop\n      swap3\n      pop\n      swap3\n      pop\n        /* \"contracts/todo-list.sol\":450:685  function GetTask(uint task_num) public view returns(string memory, string memory, TaskStatus) {... */\n      swap2\n      swap4\n      swap1\n      swap3\n      pop\n      jump\t// out\n        /* \"contracts/todo-list.sol\":805:914  function CompleteTask(uint task_num) public {... */\n    tag_19:\n        /* \"contracts/todo-list.sol\":888:907  TaskStatus.complete */\n      0x02\n        /* \"contracts/todo-list.sol\":859:868  todolists */\n      0x00\n        /* \"contracts/todo-list.sol\":859:878  todolists[task_num] */\n      dup1\n        /* \"contracts/todo-list.sol\":869:877  task_num */\n      dup4\n        /* \"contracts/todo-list.sol\":859:878  todolists[task_num] */\n      dup2\n      mstore\n      0x20\n      add\n      swap1\n      dup2\n      mstore\n      0x20\n      add\n      0x00\n      keccak256\n        /* \"contracts/todo-list.sol\":859:885  todolists[task_num].status */\n      0x02\n      add\n      0x00\n        /* \"contracts/todo-list.sol\":859:907  todolists[task_num].status = TaskStatus.complete */\n      0x0100\n      exp\n      dup2\n      sload\n      dup2\n      0xff\n      mul\n      not\n      and\n      swap1\n      dup4\n      0x02\n      dup2\n      gt\n      iszero\n      tag_45\n      jumpi\n      tag_46\n      tag_26\n      jump\t// in\n    tag_46:\n    tag_45:\n      mul\n      or\n      swap1\n      sstore\n      pop\n        /* \"contracts/todo-list.sol\":805:914  function CompleteTask(uint task_num) public {... */\n      pop\n      jump\t// out\n        /* \"contracts/todo-list.sol\":691:799  function ProcessTask(uint task_num) public {... */\n    tag_22:\n        /* \"contracts/todo-list.sol\":773:792  TaskStatus.proccess */\n      0x01\n        /* \"contracts/todo-list.sol\":744:753  todolists */\n      0x00\n        /* \"contracts/todo-list.sol\":744:763  todolists[task_num] */\n      dup1\n        /* \"contracts/todo-list.sol\":754:762  task_num */\n      dup4\n        /* \"contracts/todo-list.sol\":744:763  todolists[task_num] */\n      dup2\n      mstore\n      0x20\n      add\n      swap1\n      dup2\n      mstore\n      0x20\n      add\n      0x00\n      keccak256\n        /* \"contracts/todo-list.sol\":744:770  todolists[task_num].status */\n      0x02\n      add\n      0x00\n        /* \"contracts/todo-list.sol\":744:792  todolists[task_num].status = TaskStatus.proccess */\n      0x0100\n      exp\n      dup2\n      sload\n      dup2\n      0xff\n      mul\n      not\n      and\n      swap1\n      dup4\n      0x02\n      dup2\n      gt\n      iszero\n      tag_48\n      jumpi\n      tag_49\n      tag_26\n      jump\t// in\n    tag_49:\n    tag_48:\n      mul\n      or\n      swap1\n      sstore\n      pop\n        /* \"contracts/todo-list.sol\":691:799  function ProcessTask(uint task_num) public {... */\n      pop\n      jump\t// out\n        /* \"#utility.yul\":7:82   */\n    tag_50:\n        /* \"#utility.yul\":40:46   */\n      0x00\n        /* \"#utility.yul\":73:75   */\n      0x40\n        /* \"#utility.yul\":67:76   */\n      mload\n        /* \"#utility.yul\":57:76   */\n      swap1\n      pop\n        /* \"#utility.yul\":7:82   */\n      swap1\n      jump\t// out\n        /* \"#utility.yul\":88:205   */\n    tag_51:\n        /* \"#utility.yul\":197:198   */\n      0x00\n        /* \"#utility.yul\":194:195   */\n      dup1\n        /* \"#utility.yul\":187:199   */\n      revert\n        /* \"#utility.yul\":211:328   */\n    tag_52:\n        /* \"#utility.yul\":320:321   */\n      0x00\n        /* \"#utility.yul\":317:318   */\n      dup1\n        /* \"#utility.yul\":310:322   */\n      revert\n        /* \"#utility.yul\":334:411   */\n    tag_53:\n        /* \"#utility.yul\":371:378   */\n      0x00\n        /* \"#utility.yul\":400:405   */\n      dup2\n        /* \"#utility.yul\":389:405   */\n      swap1\n      pop\n        /* \"#utility.yul\":334:411   */\n      swap2\n      swap1\n      pop\n      jump\t// out\n        /* \"#utility.yul\":417:539   */\n    tag_54:\n        /* \"#utility.yul\":490:514   */\n      tag_96\n        /* \"#utility.yul\":508:513   */\n      dup2\n        /* \"#utility.yul\":490:514   */\n      tag_53\n      jump\t// in\n    tag_96:\n        /* \"#utility.yul\":483:488   */\n      dup2\n        /* \"#utility.yul\":480:515   */\n      eq\n        /* \"#utility.yul\":470:533   */\n      tag_97\n      jumpi\n        /* \"#utility.yul\":529:530   */\n      0x00\n        /* \"#utility.yul\":526:527   */\n      dup1\n        /* \"#utility.yul\":519:531   */\n      revert\n        /* \"#utility.yul\":470:533   */\n    tag_97:\n        /* \"#utility.yul\":417:539   */\n      pop\n      jump\t// out\n        /* \"#utility.yul\":545:684   */\n    tag_55:\n        /* \"#utility.yul\":591:596   */\n      0x00\n        /* \"#utility.yul\":629:635   */\n      dup2\n        /* \"#utility.yul\":616:636   */\n      calldataload\n        /* \"#utility.yul\":607:636   */\n      swap1\n      pop\n        /* \"#utility.yul\":645:678   */\n      tag_99\n        /* \"#utility.yul\":672:677   */\n      dup2\n        /* \"#utility.yul\":645:678   */\n      tag_54\n      jump\t// in\n    tag_99:\n        /* \"#utility.yul\":545:684   */\n      swap3\n      swap2\n      pop\n      pop\n      jump\t// out\n        /* \"#utility.yul\":690:807   */\n    tag_56:\n        /* \"#utility.yul\":799:800   */\n      0x00\n        /* \"#utility.yul\":796:797   */\n      dup1\n        /* \"#utility.yul\":789:801   */\n      revert\n        /* \"#utility.yul\":813:930   */\n    tag_57:\n        /* \"#utility.yul\":922:923   */\n      0x00\n        /* \"#utility.yul\":919:920   */\n      dup1\n        /* \"#utility.yul\":912:924   */\n      revert\n        /* \"#utility.yul\":936:1038   */\n    tag_58:\n        /* \"#utility.yul\":977:983   */\n      0x00\n        /* \"#utility.yul\":1028:1030   */\n      0x1f\n        /* \"#utility.yul\":1024:1031   */\n      not\n        /* \"#utility.yul\":1019:1021   */\n      0x1f\n        /* \"#utility.yul\":1012:1017   */\n      dup4\n        /* \"#utility.yul\":1008:1022   */\n      add\n        /* \"#utility.yul\":1004:1032   */\n      and\n        /* \"#utility.yul\":994:1032   */\n      swap1\n      pop\n        /* \"#utility.yul\":936:1038   */\n      swap2\n      swap1\n      pop\n      jump\t// out\n        /* \"#utility.yul\":1044:1224   */\n    tag_59:\n        /* \"#utility.yul\":1092:1169   */\n      0x4e487b7100000000000000000000000000000000000000000000000000000000\n        /* \"#utility.yul\":1089:1090   */\n      0x00\n        /* \"#utility.yul\":1082:1170   */\n      mstore\n        /* \"#utility.yul\":1189:1193   */\n      0x41\n        /* \"#utility.yul\":1186:1187   */\n      0x04\n        /* \"#utility.yul\":1179:1194   */\n      mstore\n        /* \"#utility.yul\":1213:1217   */\n      0x24\n        /* \"#utility.yul\":1210:1211   */\n      0x00\n        /* \"#utility.yul\":1203:1218   */\n      revert\n        /* \"#utility.yul\":1230:1511   */\n    tag_60:\n        /* \"#utility.yul\":1313:1340   */\n      tag_105\n        /* \"#utility.yul\":1335:1339   */\n      dup3\n        /* \"#utility.yul\":1313:1340   */\n      tag_58\n      jump\t// in\n    tag_105:\n        /* \"#utility.yul\":1305:1311   */\n      dup2\n        /* \"#utility.yul\":1301:1341   */\n      add\n        /* \"#utility.yul\":1443:1449   */\n      dup2\n        /* \"#utility.yul\":1431:1441   */\n      dup2\n        /* \"#utility.yul\":1428:1450   */\n      lt\n        /* \"#utility.yul\":1407:1425   */\n      0xffffffffffffffff\n        /* \"#utility.yul\":1395:1405   */\n      dup3\n        /* \"#utility.yul\":1392:1426   */\n      gt\n        /* \"#utility.yul\":1389:1451   */\n      or\n        /* \"#utility.yul\":1386:1474   */\n      iszero\n      tag_106\n      jumpi\n        /* \"#utility.yul\":1454:1472   */\n      tag_107\n      tag_59\n      jump\t// in\n    tag_107:\n        /* \"#utility.yul\":1386:1474   */\n    tag_106:\n        /* \"#utility.yul\":1494:1504   */\n      dup1\n        /* \"#utility.yul\":1490:1492   */\n      0x40\n        /* \"#utility.yul\":1483:1505   */\n      mstore\n        /* \"#utility.yul\":1273:1511   */\n      pop\n        /* \"#utility.yul\":1230:1511   */\n      pop\n      pop\n      jump\t// out\n        /* \"#utility.yul\":1517:1646   */\n    tag_61:\n        /* \"#utility.yul\":1551:1557   */\n      0x00\n        /* \"#utility.yul\":1578:1598   */\n      tag_109\n      tag_50\n      jump\t// in\n    tag_109:\n        /* \"#utility.yul\":1568:1598   */\n      swap1\n      pop\n        /* \"#utility.yul\":1607:1640   */\n      tag_110\n        /* \"#utility.yul\":1635:1639   */\n      dup3\n        /* \"#utility.yul\":1627:1633   */\n      dup3\n        /* \"#utility.yul\":1607:1640   */\n      tag_60\n      jump\t// in\n    tag_110:\n        /* \"#utility.yul\":1517:1646   */\n      swap2\n      swap1\n      pop\n      jump\t// out\n        /* \"#utility.yul\":1652:1960   */\n    tag_62:\n        /* \"#utility.yul\":1714:1718   */\n      0x00\n        /* \"#utility.yul\":1804:1822   */\n      0xffffffffffffffff\n        /* \"#utility.yul\":1796:1802   */\n      dup3\n        /* \"#utility.yul\":1793:1823   */\n      gt\n        /* \"#utility.yul\":1790:1846   */\n      iszero\n      tag_112\n      jumpi\n        /* \"#utility.yul\":1826:1844   */\n      tag_113\n      tag_59\n      jump\t// in\n    tag_113:\n        /* \"#utility.yul\":1790:1846   */\n    tag_112:\n        /* \"#utility.yul\":1864:1893   */\n      tag_114\n        /* \"#utility.yul\":1886:1892   */\n      dup3\n        /* \"#utility.yul\":1864:1893   */\n      tag_58\n      jump\t// in\n    tag_114:\n        /* \"#utility.yul\":1856:1893   */\n      swap1\n      pop\n        /* \"#utility.yul\":1948:1952   */\n      0x20\n        /* \"#utility.yul\":1942:1946   */\n      dup2\n        /* \"#utility.yul\":1938:1953   */\n      add\n        /* \"#utility.yul\":1930:1953   */\n      swap1\n      pop\n        /* \"#utility.yul\":1652:1960   */\n      swap2\n      swap1\n      pop\n      jump\t// out\n        /* \"#utility.yul\":1966:2112   */\n    tag_63:\n        /* \"#utility.yul\":2063:2069   */\n      dup3\n        /* \"#utility.yul\":2058:2061   */\n      dup2\n        /* \"#utility.yul\":2053:2056   */\n      dup4\n        /* \"#utility.yul\":2040:2070   */\n      calldatacopy\n        /* \"#utility.yul\":2104:2105   */\n      0x00\n        /* \"#utility.yul\":2095:2101   */\n      dup4\n        /* \"#utility.yul\":2090:2093   */\n      dup4\n        /* \"#utility.yul\":2086:2102   */\n      add\n        /* \"#utility.yul\":2079:2106   */\n      mstore\n        /* \"#utility.yul\":1966:2112   */\n      pop\n      pop\n      pop\n      jump\t// out\n        /* \"#utility.yul\":2118:2543   */\n    tag_64:\n        /* \"#utility.yul\":2196:2201   */\n      0x00\n        /* \"#utility.yul\":2221:2287   */\n      tag_117\n        /* \"#utility.yul\":2237:2286   */\n      tag_118\n        /* \"#utility.yul\":2279:2285   */\n      dup5\n        /* \"#utility.yul\":2237:2286   */\n      tag_62\n      jump\t// in\n    tag_118:\n        /* \"#utility.yul\":2221:2287   */\n      tag_61\n      jump\t// in\n    tag_117:\n        /* \"#utility.yul\":2212:2287   */\n      swap1\n      pop\n        /* \"#utility.yul\":2310:2316   */\n      dup3\n        /* \"#utility.yul\":2303:2308   */\n      dup2\n        /* \"#utility.yul\":2296:2317   */\n      mstore\n        /* \"#utility.yul\":2348:2352   */\n      0x20\n        /* \"#utility.yul\":2341:2346   */\n      dup2\n        /* \"#utility.yul\":2337:2353   */\n      add\n        /* \"#utility.yul\":2386:2389   */\n      dup5\n        /* \"#utility.yul\":2377:2383   */\n      dup5\n        /* \"#utility.yul\":2372:2375   */\n      dup5\n        /* \"#utility.yul\":2368:2384   */\n      add\n        /* \"#utility.yul\":2365:2390   */\n      gt\n        /* \"#utility.yul\":2362:2474   */\n      iszero\n      tag_119\n      jumpi\n        /* \"#utility.yul\":2393:2472   */\n      tag_120\n      tag_57\n      jump\t// in\n    tag_120:\n        /* \"#utility.yul\":2362:2474   */\n    tag_119:\n        /* \"#utility.yul\":2483:2537   */\n      tag_121\n        /* \"#utility.yul\":2530:2536   */\n      dup5\n        /* \"#utility.yul\":2525:2528   */\n      dup3\n        /* \"#utility.yul\":2520:2523   */\n      dup6\n        /* \"#utility.yul\":2483:2537   */\n      tag_63\n      jump\t// in\n    tag_121:\n        /* \"#utility.yul\":2202:2543   */\n      pop\n        /* \"#utility.yul\":2118:2543   */\n      swap4\n      swap3\n      pop\n      pop\n      pop\n      jump\t// out\n        /* \"#utility.yul\":2563:2903   */\n    tag_65:\n        /* \"#utility.yul\":2619:2624   */\n      0x00\n        /* \"#utility.yul\":2668:2671   */\n      dup3\n        /* \"#utility.yul\":2661:2665   */\n      0x1f\n        /* \"#utility.yul\":2653:2659   */\n      dup4\n        /* \"#utility.yul\":2649:2666   */\n      add\n        /* \"#utility.yul\":2645:2672   */\n      slt\n        /* \"#utility.yul\":2635:2757   */\n      tag_123\n      jumpi\n        /* \"#utility.yul\":2676:2755   */\n      tag_124\n      tag_56\n      jump\t// in\n    tag_124:\n        /* \"#utility.yul\":2635:2757   */\n    tag_123:\n        /* \"#utility.yul\":2793:2799   */\n      dup2\n        /* \"#utility.yul\":2780:2800   */\n      calldataload\n        /* \"#utility.yul\":2818:2897   */\n      tag_125\n        /* \"#utility.yul\":2893:2896   */\n      dup5\n        /* \"#utility.yul\":2885:2891   */\n      dup3\n        /* \"#utility.yul\":2878:2882   */\n      0x20\n        /* \"#utility.yul\":2870:2876   */\n      dup7\n        /* \"#utility.yul\":2866:2883   */\n      add\n        /* \"#utility.yul\":2818:2897   */\n      tag_64\n      jump\t// in\n    tag_125:\n        /* \"#utility.yul\":2809:2897   */\n      swap2\n      pop\n        /* \"#utility.yul\":2625:2903   */\n      pop\n        /* \"#utility.yul\":2563:2903   */\n      swap3\n      swap2\n      pop\n      pop\n      jump\t// out\n        /* \"#utility.yul\":2909:3888   */\n    tag_9:\n        /* \"#utility.yul\":3006:3012   */\n      0x00\n        /* \"#utility.yul\":3014:3020   */\n      dup1\n        /* \"#utility.yul\":3022:3028   */\n      0x00\n        /* \"#utility.yul\":3071:3073   */\n      0x60\n        /* \"#utility.yul\":3059:3068   */\n      dup5\n        /* \"#utility.yul\":3050:3057   */\n      dup7\n        /* \"#utility.yul\":3046:3069   */\n      sub\n        /* \"#utility.yul\":3042:3074   */\n      slt\n        /* \"#utility.yul\":3039:3158   */\n      iszero\n      tag_127\n      jumpi\n        /* \"#utility.yul\":3077:3156   */\n      tag_128\n      tag_51\n      jump\t// in\n    tag_128:\n        /* \"#utility.yul\":3039:3158   */\n    tag_127:\n        /* \"#utility.yul\":3197:3198   */\n      0x00\n        /* \"#utility.yul\":3222:3275   */\n      tag_129\n        /* \"#utility.yul\":3267:3274   */\n      dup7\n        /* \"#utility.yul\":3258:3264   */\n      dup3\n        /* \"#utility.yul\":3247:3256   */\n      dup8\n        /* \"#utility.yul\":3243:3265   */\n      add\n        /* \"#utility.yul\":3222:3275   */\n      tag_55\n      jump\t// in\n    tag_129:\n        /* \"#utility.yul\":3212:3275   */\n      swap4\n      pop\n        /* \"#utility.yul\":3168:3285   */\n      pop\n        /* \"#utility.yul\":3352:3354   */\n      0x20\n        /* \"#utility.yul\":3341:3350   */\n      dup5\n        /* \"#utility.yul\":3337:3355   */\n      add\n        /* \"#utility.yul\":3324:3356   */\n      calldataload\n        /* \"#utility.yul\":3383:3401   */\n      0xffffffffffffffff\n        /* \"#utility.yul\":3375:3381   */\n      dup2\n        /* \"#utility.yul\":3372:3402   */\n      gt\n        /* \"#utility.yul\":3369:3486   */\n      iszero\n      tag_130\n      jumpi\n        /* \"#utility.yul\":3405:3484   */\n      tag_131\n      tag_52\n      jump\t// in\n    tag_131:\n        /* \"#utility.yul\":3369:3486   */\n    tag_130:\n        /* \"#utility.yul\":3510:3573   */\n      tag_132\n        /* \"#utility.yul\":3565:3572   */\n      dup7\n        /* \"#utility.yul\":3556:3562   */\n      dup3\n        /* \"#utility.yul\":3545:3554   */\n      dup8\n        /* \"#utility.yul\":3541:3563   */\n      add\n        /* \"#utility.yul\":3510:3573   */\n      tag_65\n      jump\t// in\n    tag_132:\n        /* \"#utility.yul\":3500:3573   */\n      swap3\n      pop\n        /* \"#utility.yul\":3295:3583   */\n      pop\n        /* \"#utility.yul\":3650:3652   */\n      0x40\n        /* \"#utility.yul\":3639:3648   */\n      dup5\n        /* \"#utility.yul\":3635:3653   */\n      add\n        /* \"#utility.yul\":3622:3654   */\n      calldataload\n        /* \"#utility.yul\":3681:3699   */\n      0xffffffffffffffff\n        /* \"#utility.yul\":3673:3679   */\n      dup2\n        /* \"#utility.yul\":3670:3700   */\n      gt\n        /* \"#utility.yul\":3667:3784   */\n      iszero\n      tag_133\n      jumpi\n        /* \"#utility.yul\":3703:3782   */\n      tag_134\n      tag_52\n      jump\t// in\n    tag_134:\n        /* \"#utility.yul\":3667:3784   */\n    tag_133:\n        /* \"#utility.yul\":3808:3871   */\n      tag_135\n        /* \"#utility.yul\":3863:3870   */\n      dup7\n        /* \"#utility.yul\":3854:3860   */\n      dup3\n        /* \"#utility.yul\":3843:3852   */\n      dup8\n        /* \"#utility.yul\":3839:3861   */\n      add\n        /* \"#utility.yul\":3808:3871   */\n      tag_65\n      jump\t// in\n    tag_135:\n        /* \"#utility.yul\":3798:3871   */\n      swap2\n      pop\n        /* \"#utility.yul\":3593:3881   */\n      pop\n        /* \"#utility.yul\":2909:3888   */\n      swap3\n      pop\n      swap3\n      pop\n      swap3\n      jump\t// out\n        /* \"#utility.yul\":3894:4223   */\n    tag_13:\n        /* \"#utility.yul\":3953:3959   */\n      0x00\n        /* \"#utility.yul\":4002:4004   */\n      0x20\n        /* \"#utility.yul\":3990:3999   */\n      dup3\n        /* \"#utility.yul\":3981:3988   */\n      dup5\n        /* \"#utility.yul\":3977:4000   */\n      sub\n        /* \"#utility.yul\":3973:4005   */\n      slt\n        /* \"#utility.yul\":3970:4089   */\n      iszero\n      tag_137\n      jumpi\n        /* \"#utility.yul\":4008:4087   */\n      tag_138\n      tag_51\n      jump\t// in\n    tag_138:\n        /* \"#utility.yul\":3970:4089   */\n    tag_137:\n        /* \"#utility.yul\":4128:4129   */\n      0x00\n        /* \"#utility.yul\":4153:4206   */\n      tag_139\n        /* \"#utility.yul\":4198:4205   */\n      dup5\n        /* \"#utility.yul\":4189:4195   */\n      dup3\n        /* \"#utility.yul\":4178:4187   */\n      dup6\n        /* \"#utility.yul\":4174:4196   */\n      add\n        /* \"#utility.yul\":4153:4206   */\n      tag_55\n      jump\t// in\n    tag_139:\n        /* \"#utility.yul\":4143:4206   */\n      swap2\n      pop\n        /* \"#utility.yul\":4099:4216   */\n      pop\n        /* \"#utility.yul\":3894:4223   */\n      swap3\n      swap2\n      pop\n      pop\n      jump\t// out\n        /* \"#utility.yul\":4229:4328   */\n    tag_66:\n        /* \"#utility.yul\":4281:4287   */\n      0x00\n        /* \"#utility.yul\":4315:4320   */\n      dup2\n        /* \"#utility.yul\":4309:4321   */\n      mload\n        /* \"#utility.yul\":4299:4321   */\n      swap1\n      pop\n        /* \"#utility.yul\":4229:4328   */\n      swap2\n      swap1\n      pop\n      jump\t// out\n        /* \"#utility.yul\":4334:4503   */\n    tag_67:\n        /* \"#utility.yul\":4418:4429   */\n      0x00\n        /* \"#utility.yul\":4452:4458   */\n      dup3\n        /* \"#utility.yul\":4447:4450   */\n      dup3\n        /* \"#utility.yul\":4440:4459   */\n      mstore\n        /* \"#utility.yul\":4492:4496   */\n      0x20\n        /* \"#utility.yul\":4487:4490   */\n      dup3\n        /* \"#utility.yul\":4483:4497   */\n      add\n        /* \"#utility.yul\":4468:4497   */\n      swap1\n      pop\n        /* \"#utility.yul\":4334:4503   */\n      swap3\n      swap2\n      pop\n      pop\n      jump\t// out\n        /* \"#utility.yul\":4509:4755   */\n    tag_68:\n        /* \"#utility.yul\":4590:4591   */\n      0x00\n        /* \"#utility.yul\":4600:4713   */\n    tag_143:\n        /* \"#utility.yul\":4614:4620   */\n      dup4\n        /* \"#utility.yul\":4611:4612   */\n      dup2\n        /* \"#utility.yul\":4608:4621   */\n      lt\n        /* \"#utility.yul\":4600:4713   */\n      iszero\n      tag_145\n      jumpi\n        /* \"#utility.yul\":4699:4700   */\n      dup1\n        /* \"#utility.yul\":4694:4697   */\n      dup3\n        /* \"#utility.yul\":4690:4701   */\n      add\n        /* \"#utility.yul\":4684:4702   */\n      mload\n        /* \"#utility.yul\":4680:4681   */\n      dup2\n        /* \"#utility.yul\":4675:4678   */\n      dup5\n        /* \"#utility.yul\":4671:4682   */\n      add\n        /* \"#utility.yul\":4664:4703   */\n      mstore\n        /* \"#utility.yul\":4636:4638   */\n      0x20\n        /* \"#utility.yul\":4633:4634   */\n      dup2\n        /* \"#utility.yul\":4629:4639   */\n      add\n        /* \"#utility.yul\":4624:4639   */\n      swap1\n      pop\n        /* \"#utility.yul\":4600:4713   */\n      jump(tag_143)\n    tag_145:\n        /* \"#utility.yul\":4747:4748   */\n      0x00\n        /* \"#utility.yul\":4738:4744   */\n      dup5\n        /* \"#utility.yul\":4733:4736   */\n      dup5\n        /* \"#utility.yul\":4729:4745   */\n      add\n        /* \"#utility.yul\":4722:4749   */\n      mstore\n        /* \"#utility.yul\":4571:4755   */\n      pop\n        /* \"#utility.yul\":4509:4755   */\n      pop\n      pop\n      pop\n      jump\t// out\n        /* \"#utility.yul\":4761:5138   */\n    tag_69:\n        /* \"#utility.yul\":4849:4852   */\n      0x00\n        /* \"#utility.yul\":4877:4916   */\n      tag_147\n        /* \"#utility.yul\":4910:4915   */\n      dup3\n        /* \"#utility.yul\":4877:4916   */\n      tag_66\n      jump\t// in\n    tag_147:\n        /* \"#utility.yul\":4932:5003   */\n      tag_148\n        /* \"#utility.yul\":4996:5002   */\n      dup2\n        /* \"#utility.yul\":4991:4994   */\n      dup6\n        /* \"#utility.yul\":4932:5003   */\n      tag_67\n      jump\t// in\n    tag_148:\n        /* \"#utility.yul\":4925:5003   */\n      swap4\n      pop\n        /* \"#utility.yul\":5012:5077   */\n      tag_149\n        /* \"#utility.yul\":5070:5076   */\n      dup2\n        /* \"#utility.yul\":5065:5068   */\n      dup6\n        /* \"#utility.yul\":5058:5062   */\n      0x20\n        /* \"#utility.yul\":5051:5056   */\n      dup7\n        /* \"#utility.yul\":5047:5063   */\n      add\n        /* \"#utility.yul\":5012:5077   */\n      tag_68\n      jump\t// in\n    tag_149:\n        /* \"#utility.yul\":5102:5131   */\n      tag_150\n        /* \"#utility.yul\":5124:5130   */\n      dup2\n        /* \"#utility.yul\":5102:5131   */\n      tag_58\n      jump\t// in\n    tag_150:\n        /* \"#utility.yul\":5097:5100   */\n      dup5\n        /* \"#utility.yul\":5093:5132   */\n      add\n        /* \"#utility.yul\":5086:5132   */\n      swap2\n      pop\n        /* \"#utility.yul\":4853:5138   */\n      pop\n        /* \"#utility.yul\":4761:5138   */\n      swap3\n      swap2\n      pop\n      pop\n      jump\t// out\n        /* \"#utility.yul\":5144:5324   */\n    tag_26:\n        /* \"#utility.yul\":5192:5269   */\n      0x4e487b7100000000000000000000000000000000000000000000000000000000\n        /* \"#utility.yul\":5189:5190   */\n      0x00\n        /* \"#utility.yul\":5182:5270   */\n      mstore\n        /* \"#utility.yul\":5289:5293   */\n      0x21\n        /* \"#utility.yul\":5286:5287   */\n      0x04\n        /* \"#utility.yul\":5279:5294   */\n      mstore\n        /* \"#utility.yul\":5313:5317   */\n      0x24\n        /* \"#utility.yul\":5310:5311   */\n      0x00\n        /* \"#utility.yul\":5303:5318   */\n      revert\n        /* \"#utility.yul\":5330:5447   */\n    tag_70:\n        /* \"#utility.yul\":5415:5416   */\n      0x03\n        /* \"#utility.yul\":5408:5413   */\n      dup2\n        /* \"#utility.yul\":5405:5417   */\n      lt\n        /* \"#utility.yul\":5395:5441   */\n      tag_153\n      jumpi\n        /* \"#utility.yul\":5421:5439   */\n      tag_154\n      tag_26\n      jump\t// in\n    tag_154:\n        /* \"#utility.yul\":5395:5441   */\n    tag_153:\n        /* \"#utility.yul\":5330:5447   */\n      pop\n      jump\t// out\n        /* \"#utility.yul\":5453:5588   */\n    tag_71:\n        /* \"#utility.yul\":5502:5509   */\n      0x00\n        /* \"#utility.yul\":5531:5536   */\n      dup2\n        /* \"#utility.yul\":5520:5536   */\n      swap1\n      pop\n        /* \"#utility.yul\":5537:5582   */\n      tag_156\n        /* \"#utility.yul\":5576:5581   */\n      dup3\n        /* \"#utility.yul\":5537:5582   */\n      tag_70\n      jump\t// in\n    tag_156:\n        /* \"#utility.yul\":5453:5588   */\n      swap2\n      swap1\n      pop\n      jump\t// out\n        /* \"#utility.yul\":5594:5729   */\n    tag_72:\n        /* \"#utility.yul\":5654:5663   */\n      0x00\n        /* \"#utility.yul\":5687:5723   */\n      tag_158\n        /* \"#utility.yul\":5717:5722   */\n      dup3\n        /* \"#utility.yul\":5687:5723   */\n      tag_71\n      jump\t// in\n    tag_158:\n        /* \"#utility.yul\":5674:5723   */\n      swap1\n      pop\n        /* \"#utility.yul\":5594:5729   */\n      swap2\n      swap1\n      pop\n      jump\t// out\n        /* \"#utility.yul\":5735:5886   */\n    tag_73:\n        /* \"#utility.yul\":5832:5879   */\n      tag_160\n        /* \"#utility.yul\":5873:5878   */\n      dup2\n        /* \"#utility.yul\":5832:5879   */\n      tag_72\n      jump\t// in\n    tag_160:\n        /* \"#utility.yul\":5827:5830   */\n      dup3\n        /* \"#utility.yul\":5820:5880   */\n      mstore\n        /* \"#utility.yul\":5735:5886   */\n      pop\n      pop\n      jump\t// out\n        /* \"#utility.yul\":5892:6536   */\n    tag_16:\n        /* \"#utility.yul\":6091:6095   */\n      0x00\n        /* \"#utility.yul\":6129:6131   */\n      0x60\n        /* \"#utility.yul\":6118:6127   */\n      dup3\n        /* \"#utility.yul\":6114:6132   */\n      add\n        /* \"#utility.yul\":6106:6132   */\n      swap1\n      pop\n        /* \"#utility.yul\":6178:6187   */\n      dup2\n        /* \"#utility.yul\":6172:6176   */\n      dup2\n        /* \"#utility.yul\":6168:6188   */\n      sub\n        /* \"#utility.yul\":6164:6165   */\n      0x00\n        /* \"#utility.yul\":6153:6162   */\n      dup4\n        /* \"#utility.yul\":6149:6166   */\n      add\n        /* \"#utility.yul\":6142:6189   */\n      mstore\n        /* \"#utility.yul\":6206:6284   */\n      tag_162\n        /* \"#utility.yul\":6279:6283   */\n      dup2\n        /* \"#utility.yul\":6270:6276   */\n      dup7\n        /* \"#utility.yul\":6206:6284   */\n      tag_69\n      jump\t// in\n    tag_162:\n        /* \"#utility.yul\":6198:6284   */\n      swap1\n      pop\n        /* \"#utility.yul\":6331:6340   */\n      dup2\n        /* \"#utility.yul\":6325:6329   */\n      dup2\n        /* \"#utility.yul\":6321:6341   */\n      sub\n        /* \"#utility.yul\":6316:6318   */\n      0x20\n        /* \"#utility.yul\":6305:6314   */\n      dup4\n        /* \"#utility.yul\":6301:6319   */\n      add\n        /* \"#utility.yul\":6294:6342   */\n      mstore\n        /* \"#utility.yul\":6359:6437   */\n      tag_163\n        /* \"#utility.yul\":6432:6436   */\n      dup2\n        /* \"#utility.yul\":6423:6429   */\n      dup6\n        /* \"#utility.yul\":6359:6437   */\n      tag_69\n      jump\t// in\n    tag_163:\n        /* \"#utility.yul\":6351:6437   */\n      swap1\n      pop\n        /* \"#utility.yul\":6447:6529   */\n      tag_164\n        /* \"#utility.yul\":6525:6527   */\n      0x40\n        /* \"#utility.yul\":6514:6523   */\n      dup4\n        /* \"#utility.yul\":6510:6528   */\n      add\n        /* \"#utility.yul\":6501:6507   */\n      dup5\n        /* \"#utility.yul\":6447:6529   */\n      tag_73\n      jump\t// in\n    tag_164:\n        /* \"#utility.yul\":5892:6536   */\n      swap5\n      swap4\n      pop\n      pop\n      pop\n      pop\n      jump\t// out\n        /* \"#utility.yul\":6542:6722   */\n    tag_74:\n        /* \"#utility.yul\":6590:6667   */\n      0x4e487b7100000000000000000000000000000000000000000000000000000000\n        /* \"#utility.yul\":6587:6588   */\n      0x00\n        /* \"#utility.yul\":6580:6668   */\n      mstore\n        /* \"#utility.yul\":6687:6691   */\n      0x22\n        /* \"#utility.yul\":6684:6685   */\n      0x04\n        /* \"#utility.yul\":6677:6692   */\n      mstore\n        /* \"#utility.yul\":6711:6715   */\n      0x24\n        /* \"#utility.yul\":6708:6709   */\n      0x00\n        /* \"#utility.yul\":6701:6716   */\n      revert\n        /* \"#utility.yul\":6728:7048   */\n    tag_34:\n        /* \"#utility.yul\":6772:6778   */\n      0x00\n        /* \"#utility.yul\":6809:6810   */\n      0x02\n        /* \"#utility.yul\":6803:6807   */\n      dup3\n        /* \"#utility.yul\":6799:6811   */\n      div\n        /* \"#utility.yul\":6789:6811   */\n      swap1\n      pop\n        /* \"#utility.yul\":6856:6857   */\n      0x01\n        /* \"#utility.yul\":6850:6854   */\n      dup3\n        /* \"#utility.yul\":6846:6858   */\n      and\n        /* \"#utility.yul\":6877:6895   */\n      dup1\n        /* \"#utility.yul\":6867:6948   */\n      tag_167\n      jumpi\n        /* \"#utility.yul\":6933:6937   */\n      0x7f\n        /* \"#utility.yul\":6925:6931   */\n      dup3\n        /* \"#utility.yul\":6921:6938   */\n      and\n        /* \"#utility.yul\":6911:6938   */\n      swap2\n      pop\n        /* \"#utility.yul\":6867:6948   */\n    tag_167:\n        /* \"#utility.yul\":6995:6997   */\n      0x20\n        /* \"#utility.yul\":6987:6993   */\n      dup3\n        /* \"#utility.yul\":6984:6998   */\n      lt\n        /* \"#utility.yul\":6964:6982   */\n      dup2\n        /* \"#utility.yul\":6961:6999   */\n      sub\n        /* \"#utility.yul\":6958:7042   */\n      tag_168\n      jumpi\n        /* \"#utility.yul\":7014:7032   */\n      tag_169\n      tag_74\n      jump\t// in\n    tag_169:\n        /* \"#utility.yul\":6958:7042   */\n    tag_168:\n        /* \"#utility.yul\":6779:7048   */\n      pop\n        /* \"#utility.yul\":6728:7048   */\n      swap2\n      swap1\n      pop\n      jump\t// out\n        /* \"#utility.yul\":7054:7195   */\n    tag_75:\n        /* \"#utility.yul\":7103:7107   */\n      0x00\n        /* \"#utility.yul\":7126:7129   */\n      dup2\n        /* \"#utility.yul\":7118:7129   */\n      swap1\n      pop\n        /* \"#utility.yul\":7149:7152   */\n      dup2\n        /* \"#utility.yul\":7146:7147   */\n      0x00\n        /* \"#utility.yul\":7139:7153   */\n      mstore\n        /* \"#utility.yul\":7183:7187   */\n      0x20\n        /* \"#utility.yul\":7180:7181   */\n      0x00\n        /* \"#utility.yul\":7170:7188   */\n      keccak256\n        /* \"#utility.yul\":7162:7188   */\n      swap1\n      pop\n        /* \"#utility.yul\":7054:7195   */\n      swap2\n      swap1\n      pop\n      jump\t// out\n        /* \"#utility.yul\":7201:7294   */\n    tag_76:\n        /* \"#utility.yul\":7238:7244   */\n      0x00\n        /* \"#utility.yul\":7285:7287   */\n      0x20\n        /* \"#utility.yul\":7280:7282   */\n      0x1f\n        /* \"#utility.yul\":7273:7278   */\n      dup4\n        /* \"#utility.yul\":7269:7283   */\n      add\n        /* \"#utility.yul\":7265:7288   */\n      div\n        /* \"#utility.yul\":7255:7288   */\n      swap1\n      pop\n        /* \"#utility.yul\":7201:7294   */\n      swap2\n      swap1\n      pop\n      jump\t// out\n        /* \"#utility.yul\":7300:7407   */\n    tag_77:\n        /* \"#utility.yul\":7344:7352   */\n      0x00\n        /* \"#utility.yul\":7394:7399   */\n      dup3\n        /* \"#utility.yul\":7388:7392   */\n      dup3\n        /* \"#utility.yul\":7384:7400   */\n      shl\n        /* \"#utility.yul\":7363:7400   */\n      swap1\n      pop\n        /* \"#utility.yul\":7300:7407   */\n      swap3\n      swap2\n      pop\n      pop\n      jump\t// out\n        /* \"#utility.yul\":7413:7806   */\n    tag_78:\n        /* \"#utility.yul\":7482:7488   */\n      0x00\n        /* \"#utility.yul\":7532:7533   */\n      0x08\n        /* \"#utility.yul\":7520:7530   */\n      dup4\n        /* \"#utility.yul\":7516:7534   */\n      mul\n        /* \"#utility.yul\":7555:7652   */\n      tag_174\n        /* \"#utility.yul\":7585:7651   */\n      0xffffffffffffffffffffffffffffffffffffffffffffffffffffffffffffffff\n        /* \"#utility.yul\":7574:7583   */\n      dup3\n        /* \"#utility.yul\":7555:7652   */\n      tag_77\n      jump\t// in\n    tag_174:\n        /* \"#utility.yul\":7673:7712   */\n      tag_175\n        /* \"#utility.yul\":7703:7711   */\n      dup7\n        /* \"#utility.yul\":7692:7701   */\n      dup4\n        /* \"#utility.yul\":7673:7712   */\n      tag_77\n      jump\t// in\n    tag_175:\n        /* \"#utility.yul\":7661:7712   */\n      swap6\n      pop\n        /* \"#utility.yul\":7745:7749   */\n      dup1\n        /* \"#utility.yul\":7741:7750   */\n      not\n        /* \"#utility.yul\":7734:7739   */\n      dup5\n        /* \"#utility.yul\":7730:7751   */\n      and\n        /* \"#utility.yul\":7721:7751   */\n      swap4\n      pop\n        /* \"#utility.yul\":7794:7798   */\n      dup1\n        /* \"#utility.yul\":7784:7792   */\n      dup7\n        /* \"#utility.yul\":7780:7799   */\n      and\n        /* \"#utility.yul\":7773:7778   */\n      dup5\n        /* \"#utility.yul\":7770:7800   */\n      or\n        /* \"#utility.yul\":7760:7800   */\n      swap3\n      pop\n        /* \"#utility.yul\":7489:7806   */\n      pop\n      pop\n        /* \"#utility.yul\":7413:7806   */\n      swap4\n      swap3\n      pop\n      pop\n      pop\n      jump\t// out\n        /* \"#utility.yul\":7812:7872   */\n    tag_79:\n        /* \"#utility.yul\":7840:7843   */\n      0x00\n        /* \"#utility.yul\":7861:7866   */\n      dup2\n        /* \"#utility.yul\":7854:7866   */\n      swap1\n      pop\n        /* \"#utility.yul\":7812:7872   */\n      swap2\n      swap1\n      pop\n      jump\t// out\n        /* \"#utility.yul\":7878:8020   */\n    tag_80:\n        /* \"#utility.yul\":7928:7937   */\n      0x00\n        /* \"#utility.yul\":7961:8014   */\n      tag_178\n        /* \"#utility.yul\":7979:8013   */\n      tag_179\n        /* \"#utility.yul\":7988:8012   */\n      tag_180\n        /* \"#utility.yul\":8006:8011   */\n      dup5\n        /* \"#utility.yul\":7988:8012   */\n      tag_53\n      jump\t// in\n    tag_180:\n        /* \"#utility.yul\":7979:8013   */\n      tag_79\n      jump\t// in\n    tag_179:\n        /* \"#utility.yul\":7961:8014   */\n      tag_53\n      jump\t// in\n    tag_178:\n        /* \"#utility.yul\":7948:8014   */\n      swap1\n      pop\n        /* \"#utility.yul\":7878:8020   */\n      swap2\n      swap1\n      pop\n      jump\t// out\n        /* \"#utility.yul\":8026:8101   */\n    tag_81:\n        /* \"#utility.yul\":8069:8072   */\n      0x00\n        /* \"#utility.yul\":8090:8095   */\n      dup2\n        /* \"#utility.yul\":8083:8095   */\n      swap1\n      pop\n        /* \"#utility.yul\":8026:8101   */\n      swap2\n      swap1\n      pop\n      jump\t// out\n        /* \"#utility.yul\":8107:8376   */\n    tag_82:\n        /* \"#utility.yul\":8217:8256   */\n      tag_183\n        /* \"#utility.yul\":8248:8255   */\n      dup4\n        /* \"#utility.yul\":8217:8256   */\n      tag_80\n      jump\t// in\n    tag_183:\n        /* \"#utility.yul\":8278:8369   */\n      tag_184\n        /* \"#utility.yul\":8327:8368   */\n      tag_185\n        /* \"#utility.yul\":8351:8367   */\n      dup3\n        /* \"#utility.yul\":8327:8368   */\n      tag_81\n      jump\t// in\n    tag_185:\n        /* \"#utility.yul\":8319:8325   */\n      dup5\n        /* \"#utility.yul\":8312:8316   */\n      dup5\n        /* \"#utility.yul\":8306:8317   */\n      sload\n        /* \"#utility.yul\":8278:8369   */\n      tag_78\n      jump\t// in\n    tag_184:\n        /* \"#utility.yul\":8272:8276   */\n      dup3\n        /* \"#utility.yul\":8265:8370   */\n      sstore\n        /* \"#utility.yul\":8183:8376   */\n      pop\n        /* \"#utility.yul\":8107:8376   */\n      pop\n      pop\n      pop\n      jump\t// out\n        /* \"#utility.yul\":8382:8455   */\n    tag_83:\n        /* \"#utility.yul\":8427:8430   */\n      0x00\n        /* \"#utility.yul\":8382:8455   */\n      swap1\n      jump\t// out\n        /* \"#utility.yul\":8461:8650   */\n    tag_84:\n        /* \"#utility.yul\":8538:8570   */\n      tag_188\n      tag_83\n      jump\t// in\n    tag_188:\n        /* \"#utility.yul\":8579:8644   */\n      tag_189\n        /* \"#utility.yul\":8637:8643   */\n      dup2\n        /* \"#utility.yul\":8629:8635   */\n      dup5\n        /* \"#utility.yul\":8623:8627   */\n      dup5\n        /* \"#utility.yul\":8579:8644   */\n      tag_82\n      jump\t// in\n    tag_189:\n        /* \"#utility.yul\":8514:8650   */\n      pop\n        /* \"#utility.yul\":8461:8650   */\n      pop\n      pop\n      jump\t// out\n        /* \"#utility.yul\":8656:8842   */\n    tag_85:\n        /* \"#utility.yul\":8716:8836   */\n    tag_191:\n        /* \"#utility.yul\":8733:8736   */\n      dup2\n        /* \"#utility.yul\":8726:8731   */\n      dup2\n        /* \"#utility.yul\":8723:8737   */\n      lt\n        /* \"#utility.yul\":8716:8836   */\n      iszero\n      tag_193\n      jumpi\n        /* \"#utility.yul\":8787:8826   */\n      tag_194\n        /* \"#utility.yul\":8824:8825   */\n      0x00\n        /* \"#utility.yul\":8817:8822   */\n      dup3\n        /* \"#utility.yul\":8787:8826   */\n      tag_84\n      jump\t// in\n    tag_194:\n        /* \"#utility.yul\":8760:8761   */\n      0x01\n        /* \"#utility.yul\":8753:8758   */\n      dup2\n        /* \"#utility.yul\":8749:8762   */\n      add\n        /* \"#utility.yul\":8740:8762   */\n      swap1\n      pop\n        /* \"#utility.yul\":8716:8836   */\n      jump(tag_191)\n    tag_193:\n        /* \"#utility.yul\":8656:8842   */\n      pop\n      pop\n      jump\t// out\n        /* \"#utility.yul\":8848:9391   */\n    tag_86:\n        /* \"#utility.yul\":8949:8951   */\n      0x1f\n        /* \"#utility.yul\":8944:8947   */\n      dup3\n        /* \"#utility.yul\":8941:8952   */\n      gt\n        /* \"#utility.yul\":8938:9384   */\n      iszero\n      tag_196\n      jumpi\n        /* \"#utility.yul\":8983:9021   */\n      tag_197\n        /* \"#utility.yul\":9015:9020   */\n      dup2\n        /* \"#utility.yul\":8983:9021   */\n      tag_75\n      jump\t// in\n    tag_197:\n        /* \"#utility.yul\":9067:9096   */\n      tag_198\n        /* \"#utility.yul\":9085:9095   */\n      dup5\n        /* \"#utility.yul\":9067:9096   */\n      tag_76\n      jump\t// in\n    tag_198:\n        /* \"#utility.yul\":9057:9065   */\n      dup2\n        /* \"#utility.yul\":9053:9097   */\n      add\n        /* \"#utility.yul\":9250:9252   */\n      0x20\n        /* \"#utility.yul\":9238:9248   */\n      dup6\n        /* \"#utility.yul\":9235:9253   */\n      lt\n        /* \"#utility.yul\":9232:9281   */\n      iszero\n      tag_199\n      jumpi\n        /* \"#utility.yul\":9271:9279   */\n      dup2\n        /* \"#utility.yul\":9256:9279   */\n      swap1\n      pop\n        /* \"#utility.yul\":9232:9281   */\n    tag_199:\n        /* \"#utility.yul\":9294:9374   */\n      tag_200\n        /* \"#utility.yul\":9350:9372   */\n      tag_201\n        /* \"#utility.yul\":9368:9371   */\n      dup6\n        /* \"#utility.yul\":9350:9372   */\n      tag_76\n      jump\t// in\n    tag_201:\n        /* \"#utility.yul\":9340:9348   */\n      dup4\n        /* \"#utility.yul\":9336:9373   */\n      add\n        /* \"#utility.yul\":9323:9334   */\n      dup3\n        /* \"#utility.yul\":9294:9374   */\n      tag_85\n      jump\t// in\n    tag_200:\n        /* \"#utility.yul\":8953:9384   */\n      pop\n      pop\n        /* \"#utility.yul\":8938:9384   */\n    tag_196:\n        /* \"#utility.yul\":8848:9391   */\n      pop\n      pop\n      pop\n      jump\t// out\n        /* \"#utility.yul\":9397:9514   */\n    tag_87:\n        /* \"#utility.yul\":9451:9459   */\n      0x00\n        /* \"#utility.yul\":9501:9506   */\n      dup3\n        /* \"#utility.yul\":9495:9499   */\n      dup3\n        /* \"#utility.yul\":9491:9507   */\n      shr\n        /* \"#utility.yul\":9470:9507   */\n      swap1\n      pop\n        /* \"#utility.yul\":9397:9514   */\n      swap3\n      swap2\n      pop\n      pop\n      jump\t// out\n        /* \"#utility.yul\":9520:9689   */\n    tag_88:\n        /* \"#utility.yul\":9564:9570   */\n      0x00\n        /* \"#utility.yul\":9597:9648   */\n      tag_204\n        /* \"#utility.yul\":9645:9646   */\n      0x00\n        /* \"#utility.yul\":9641:9647   */\n      not\n        /* \"#utility.yul\":9633:9638   */\n      dup5\n        /* \"#utility.yul\":9630:9631   */\n      0x08\n        /* \"#utility.yul\":9626:9639   */\n      mul\n        /* \"#utility.yul\":9597:9648   */\n      tag_87\n      jump\t// in\n    tag_204:\n        /* \"#utility.yul\":9593:9649   */\n      not\n        /* \"#utility.yul\":9678:9682   */\n      dup1\n        /* \"#utility.yul\":9672:9676   */\n      dup4\n        /* \"#utility.yul\":9668:9683   */\n      and\n        /* \"#utility.yul\":9658:9683   */\n      swap2\n      pop\n        /* \"#utility.yul\":9571:9689   */\n      pop\n        /* \"#utility.yul\":9520:9689   */\n      swap3\n      swap2\n      pop\n      pop\n      jump\t// out\n        /* \"#utility.yul\":9694:9989   */\n    tag_89:\n        /* \"#utility.yul\":9770:9774   */\n      0x00\n        /* \"#utility.yul\":9916:9945   */\n      tag_206\n        /* \"#utility.yul\":9941:9944   */\n      dup4\n        /* \"#utility.yul\":9935:9939   */\n      dup4\n        /* \"#utility.yul\":9916:9945   */\n      tag_88\n      jump\t// in\n    tag_206:\n        /* \"#utility.yul\":9908:9945   */\n      swap2\n      pop\n        /* \"#utility.yul\":9978:9981   */\n      dup3\n        /* \"#utility.yul\":9975:9976   */\n      0x02\n        /* \"#utility.yul\":9971:9982   */\n      mul\n        /* \"#utility.yul\":9965:9969   */\n      dup3\n        /* \"#utility.yul\":9962:9983   */\n      or\n        /* \"#utility.yul\":9954:9983   */\n      swap1\n      pop\n        /* \"#utility.yul\":9694:9989   */\n      swap3\n      swap2\n      pop\n      pop\n      jump\t// out\n        /* \"#utility.yul\":9994:11389   */\n    tag_28:\n        /* \"#utility.yul\":10111:10148   */\n      tag_208\n        /* \"#utility.yul\":10144:10147   */\n      dup3\n        /* \"#utility.yul\":10111:10148   */\n      tag_66\n      jump\t// in\n    tag_208:\n        /* \"#utility.yul\":10213:10231   */\n      0xffffffffffffffff\n        /* \"#utility.yul\":10205:10211   */\n      dup2\n        /* \"#utility.yul\":10202:10232   */\n      gt\n        /* \"#utility.yul\":10199:10255   */\n      iszero\n      tag_209\n      jumpi\n        /* \"#utility.yul\":10235:10253   */\n      tag_210\n      tag_59\n      jump\t// in\n    tag_210:\n        /* \"#utility.yul\":10199:10255   */\n    tag_209:\n        /* \"#utility.yul\":10279:10317   */\n      tag_211\n        /* \"#utility.yul\":10311:10315   */\n      dup3\n        /* \"#utility.yul\":10305:10316   */\n      sload\n        /* \"#utility.yul\":10279:10317   */\n      tag_34\n      jump\t// in\n    tag_211:\n        /* \"#utility.yul\":10364:10431   */\n      tag_212\n        /* \"#utility.yul\":10424:10430   */\n      dup3\n        /* \"#utility.yul\":10416:10422   */\n      dup3\n        /* \"#utility.yul\":10410:10414   */\n      dup6\n        /* \"#utility.yul\":10364:10431   */\n      tag_86\n      jump\t// in\n    tag_212:\n        /* \"#utility.yul\":10458:10459   */\n      0x00\n        /* \"#utility.yul\":10482:10486   */\n      0x20\n        /* \"#utility.yul\":10469:10486   */\n      swap1\n      pop\n        /* \"#utility.yul\":10514:10516   */\n      0x1f\n        /* \"#utility.yul\":10506:10512   */\n      dup4\n        /* \"#utility.yul\":10503:10517   */\n      gt\n        /* \"#utility.yul\":10531:10532   */\n      0x01\n        /* \"#utility.yul\":10526:11144   */\n      dup2\n      eq\n      tag_214\n      jumpi\n        /* \"#utility.yul\":11188:11189   */\n      0x00\n        /* \"#utility.yul\":11205:11211   */\n      dup5\n        /* \"#utility.yul\":11202:11279   */\n      iszero\n      tag_215\n      jumpi\n        /* \"#utility.yul\":11254:11263   */\n      dup3\n        /* \"#utility.yul\":11249:11252   */\n      dup8\n        /* \"#utility.yul\":11245:11264   */\n      add\n        /* \"#utility.yul\":11239:11265   */\n      mload\n        /* \"#utility.yul\":11230:11265   */\n      swap1\n      pop\n        /* \"#utility.yul\":11202:11279   */\n    tag_215:\n        /* \"#utility.yul\":11305:11372   */\n      tag_216\n        /* \"#utility.yul\":11365:11371   */\n      dup6\n        /* \"#utility.yul\":11358:11363   */\n      dup3\n        /* \"#utility.yul\":11305:11372   */\n      tag_89\n      jump\t// in\n    tag_216:\n        /* \"#utility.yul\":11299:11303   */\n      dup7\n        /* \"#utility.yul\":11292:11373   */\n      sstore\n        /* \"#utility.yul\":11161:11383   */\n      pop\n        /* \"#utility.yul\":10496:11383   */\n      jump(tag_213)\n        /* \"#utility.yul\":10526:11144   */\n    tag_214:\n        /* \"#utility.yul\":10578:10582   */\n      0x1f\n        /* \"#utility.yul\":10574:10583   */\n      not\n        /* \"#utility.yul\":10566:10572   */\n      dup5\n        /* \"#utility.yul\":10562:10584   */\n      and\n        /* \"#utility.yul\":10612:10649   */\n      tag_217\n        /* \"#utility.yul\":10644:10648   */\n      dup7\n        /* \"#utility.yul\":10612:10649   */\n      tag_75\n      jump\t// in\n    tag_217:\n        /* \"#utility.yul\":10671:10672   */\n      0x00\n        /* \"#utility.yul\":10685:10893   */\n    tag_218:\n        /* \"#utility.yul\":10699:10706   */\n      dup3\n        /* \"#utility.yul\":10696:10697   */\n      dup2\n        /* \"#utility.yul\":10693:10707   */\n      lt\n        /* \"#utility.yul\":10685:10893   */\n      iszero\n      tag_220\n      jumpi\n        /* \"#utility.yul\":10778:10787   */\n      dup5\n        /* \"#utility.yul\":10773:10776   */\n      dup10\n        /* \"#utility.yul\":10769:10788   */\n      add\n        /* \"#utility.yul\":10763:10789   */\n      mload\n        /* \"#utility.yul\":10755:10761   */\n      dup3\n        /* \"#utility.yul\":10748:10790   */\n      sstore\n        /* \"#utility.yul\":10829:10830   */\n      0x01\n        /* \"#utility.yul\":10821:10827   */\n      dup3\n        /* \"#utility.yul\":10817:10831   */\n      add\n        /* \"#utility.yul\":10807:10831   */\n      swap2\n      pop\n        /* \"#utility.yul\":10876:10878   */\n      0x20\n        /* \"#utility.yul\":10865:10874   */\n      dup6\n        /* \"#utility.yul\":10861:10879   */\n      add\n        /* \"#utility.yul\":10848:10879   */\n      swap5\n      pop\n        /* \"#utility.yul\":10722:10726   */\n      0x20\n        /* \"#utility.yul\":10719:10720   */\n      dup2\n        /* \"#utility.yul\":10715:10727   */\n      add\n        /* \"#utility.yul\":10710:10727   */\n      swap1\n      pop\n        /* \"#utility.yul\":10685:10893   */\n      jump(tag_218)\n    tag_220:\n        /* \"#utility.yul\":10921:10927   */\n      dup7\n        /* \"#utility.yul\":10912:10919   */\n      dup4\n        /* \"#utility.yul\":10909:10928   */\n      lt\n        /* \"#utility.yul\":10906:11085   */\n      iszero\n      tag_221\n      jumpi\n        /* \"#utility.yul\":10979:10988   */\n      dup5\n        /* \"#utility.yul\":10974:10977   */\n      dup10\n        /* \"#utility.yul\":10970:10989   */\n      add\n        /* \"#utility.yul\":10964:10990   */\n      mload\n        /* \"#utility.yul\":11022:11070   */\n      tag_222\n        /* \"#utility.yul\":11064:11068   */\n      0x1f\n        /* \"#utility.yul\":11056:11062   */\n      dup10\n        /* \"#utility.yul\":11052:11069   */\n      and\n        /* \"#utility.yul\":11041:11050   */\n      dup3\n        /* \"#utility.yul\":11022:11070   */\n      tag_88\n      jump\t// in\n    tag_222:\n        /* \"#utility.yul\":11014:11020   */\n      dup4\n        /* \"#utility.yul\":11007:11071   */\n      sstore\n        /* \"#utility.yul\":10929:11085   */\n      pop\n        /* \"#utility.yul\":10906:11085   */\n    tag_221:\n        /* \"#utility.yul\":11131:11132   */\n      0x01\n        /* \"#utility.yul\":11127:11128   */\n      0x02\n        /* \"#utility.yul\":11119:11125   */\n      dup9\n        /* \"#utility.yul\":11115:11129   */\n      mul\n        /* \"#utility.yul\":11111:11133   */\n      add\n        /* \"#utility.yul\":11105:11109   */\n      dup9\n        /* \"#utility.yul\":11098:11134   */\n      sstore\n        /* \"#utility.yul\":10533:11144   */\n      pop\n      pop\n      pop\n        /* \"#utility.yul\":10496:11383   */\n    tag_213:\n      pop\n        /* \"#utility.yul\":10086:11389   */\n      pop\n      pop\n      pop\n        /* \"#utility.yul\":9994:11389   */\n      pop\n      pop\n      jump\t// out\n\n    auxdata: 0xa26469706673582212200cb70315a6fdcd8c97325abee0e818715f74c80a481f0a18a02add3314994b9264736f6c63430008120033\n}\n",
				"bytecode": {
					"linkReferences": {},
					"object": "608060405234801561001057600080fd5b50610a0b806100206000396000f3fe608060405234801561001057600080fd5b506004361061004c5760003560e01c8063380991871461005157806350675ed61461006d578063ae75aa691461009f578063da4c0b53146100bb575b600080fd5b61006b60048036038101906100669190610504565b6100d7565b005b6100876004803603810190610082919061058f565b61017b565b604051610096939291906106b2565b60405180910390f35b6100b960048036038101906100b4919061058f565b6102f2565b005b6100d560048036038101906100d0919061058f565b610333565b005b6040518060600160405280838152602001828152602001600060028111156101025761010161063b565b5b815250600080858152602001908152602001600020600082015181600001908161012c9190610903565b5060208201518160010190816101429190610903565b5060408201518160020160006101000a81548160ff0219169083600281111561016e5761016d61063b565b5b0217905550905050505050565b606080600080600085815260200190815260200160002060000160008086815260200190815260200160002060010160008087815260200190815260200160002060020160009054906101000a900460ff168280546101d990610726565b80601f016020809104026020016040519081016040528092919081815260200182805461020590610726565b80156102525780601f1061022757610100808354040283529160200191610252565b820191906000526020600020905b81548152906001019060200180831161023557829003601f168201915b5050505050925081805461026590610726565b80601f016020809104026020016040519081016040528092919081815260200182805461029190610726565b80156102de5780601f106102b3576101008083540402835291602001916102de565b820191906000526020600020905b8154815290600101906020018083116102c157829003601f168201915b505050505091509250925092509193909250565b600260008083815260200190815260200160002060020160006101000a81548160ff0219169083600281111561032b5761032a61063b565b5b021790555050565b600160008083815260200190815260200160002060020160006101000a81548160ff0219169083600281111561036c5761036b61063b565b5b021790555050565b6000604051905090565b600080fd5b600080fd5b6000819050919050565b61039b81610388565b81146103a657600080fd5b50565b6000813590506103b881610392565b92915050565b600080fd5b600080fd5b6000601f19601f8301169050919050565b7f4e487b7100000000000000000000000000000000000000000000000000000000600052604160045260246000fd5b610411826103c8565b810181811067ffffffffffffffff821117156104305761042f6103d9565b5b80604052505050565b6000610443610374565b905061044f8282610408565b919050565b600067ffffffffffffffff82111561046f5761046e6103d9565b5b610478826103c8565b9050602081019050919050565b82818337600083830152505050565b60006104a76104a284610454565b610439565b9050828152602081018484840111156104c3576104c26103c3565b5b6104ce848285610485565b509392505050565b600082601f8301126104eb576104ea6103be565b5b81356104fb848260208601610494565b91505092915050565b60008060006060848603121561051d5761051c61037e565b5b600061052b868287016103a9565b935050602084013567ffffffffffffffff81111561054c5761054b610383565b5b610558868287016104d6565b925050604084013567ffffffffffffffff81111561057957610578610383565b5b610585868287016104d6565b9150509250925092565b6000602082840312156105a5576105a461037e565b5b60006105b3848285016103a9565b91505092915050565b600081519050919050565b600082825260208201905092915050565b60005b838110156105f65780820151818401526020810190506105db565b60008484015250505050565b600061060d826105bc565b61061781856105c7565b93506106278185602086016105d8565b610630816103c8565b840191505092915050565b7f4e487b7100000000000000000000000000000000000000000000000000000000600052602160045260246000fd5b6003811061067b5761067a61063b565b5b50565b600081905061068c8261066a565b919050565b600061069c8261067e565b9050919050565b6106ac81610691565b82525050565b600060608201905081810360008301526106cc8186610602565b905081810360208301526106e08185610602565b90506106ef60408301846106a3565b949350505050565b7f4e487b7100000000000000000000000000000000000000000000000000000000600052602260045260246000fd5b6000600282049050600182168061073e57607f821691505b602082108103610751576107506106f7565b5b50919050565b60008190508160005260206000209050919050565b60006020601f8301049050919050565b600082821b905092915050565b6000600883026107b97fffffffffffffffffffffffffffffffffffffffffffffffffffffffffffffffff8261077c565b6107c3868361077c565b95508019841693508086168417925050509392505050565b6000819050919050565b60006108006107fb6107f684610388565b6107db565b610388565b9050919050565b6000819050919050565b61081a836107e5565b61082e61082682610807565b848454610789565b825550505050565b600090565b610843610836565b61084e818484610811565b505050565b5b818110156108725761086760008261083b565b600181019050610854565b5050565b601f8211156108b75761088881610757565b6108918461076c565b810160208510156108a0578190505b6108b46108ac8561076c565b830182610853565b50505b505050565b600082821c905092915050565b60006108da600019846008026108bc565b1980831691505092915050565b60006108f383836108c9565b9150826002028217905092915050565b61090c826105bc565b67ffffffffffffffff811115610925576109246103d9565b5b61092f8254610726565b61093a828285610876565b600060209050601f83116001811461096d576000841561095b578287015190505b61096585826108e7565b8655506109cd565b601f19841661097b86610757565b60005b828110156109a35784890151825560018201915060208501945060208101905061097e565b868310156109c057848901516109bc601f8916826108c9565b8355505b6001600288020188555050505b50505050505056fea26469706673582212200cb70315a6fdcd8c97325abee0e818715f74c80a481f0a18a02add3314994b9264736f6c63430008120033",
					"opcodes": "PUSH1 0x80 PUSH1 0x40 MSTORE CALLVALUE DUP1 ISZERO PUSH2 0x10 JUMPI PUSH1 0x0 DUP1 REVERT JUMPDEST POP PUSH2 0xA0B DUP1 PUSH2 0x20 PUSH1 0x0 CODECOPY PUSH1 0x0 RETURN INVALID PUSH1 0x80 PUSH1 0x40 MSTORE CALLVALUE DUP1 ISZERO PUSH2 0x10 JUMPI PUSH1 0x0 DUP1 REVERT JUMPDEST POP PUSH1 0x4 CALLDATASIZE LT PUSH2 0x4C JUMPI PUSH1 0x0 CALLDATALOAD PUSH1 0xE0 SHR DUP1 PUSH4 0x38099187 EQ PUSH2 0x51 JUMPI DUP1 PUSH4 0x50675ED6 EQ PUSH2 0x6D JUMPI DUP1 PUSH4 0xAE75AA69 EQ PUSH2 0x9F JUMPI DUP1 PUSH4 0xDA4C0B53 EQ PUSH2 0xBB JUMPI JUMPDEST PUSH1 0x0 DUP1 REVERT JUMPDEST PUSH2 0x6B PUSH1 0x4 DUP1 CALLDATASIZE SUB DUP2 ADD SWAP1 PUSH2 0x66 SWAP2 SWAP1 PUSH2 0x504 JUMP JUMPDEST PUSH2 0xD7 JUMP JUMPDEST STOP JUMPDEST PUSH2 0x87 PUSH1 0x4 DUP1 CALLDATASIZE SUB DUP2 ADD SWAP1 PUSH2 0x82 SWAP2 SWAP1 PUSH2 0x58F JUMP JUMPDEST PUSH2 0x17B JUMP JUMPDEST PUSH1 0x40 MLOAD PUSH2 0x96 SWAP4 SWAP3 SWAP2 SWAP1 PUSH2 0x6B2 JUMP JUMPDEST PUSH1 0x40 MLOAD DUP1 SWAP2 SUB SWAP1 RETURN JUMPDEST PUSH2 0xB9 PUSH1 0x4 DUP1 CALLDATASIZE SUB DUP2 ADD SWAP1 PUSH2 0xB4 SWAP2 SWAP1 PUSH2 0x58F JUMP JUMPDEST PUSH2 0x2F2 JUMP JUMPDEST STOP JUMPDEST PUSH2 0xD5 PUSH1 0x4 DUP1 CALLDATASIZE SUB DUP2 ADD SWAP1 PUSH2 0xD0 SWAP2 SWAP1 PUSH2 0x58F JUMP JUMPDEST PUSH2 0x333 JUMP JUMPDEST STOP JUMPDEST PUSH1 0x40 MLOAD DUP1 PUSH1 0x60 ADD PUSH1 0x40 MSTORE DUP1 DUP4 DUP2 MSTORE PUSH1 0x20 ADD DUP3 DUP2 MSTORE PUSH1 0x20 ADD PUSH1 0x0 PUSH1 0x2 DUP2 GT ISZERO PUSH2 0x102 JUMPI PUSH2 0x101 PUSH2 0x63B JUMP JUMPDEST JUMPDEST DUP2 MSTORE POP PUSH1 0x0 DUP1 DUP6 DUP2 MSTORE PUSH1 0x20 ADD SWAP1 DUP2 MSTORE PUSH1 0x20 ADD PUSH1 0x0 KECCAK256 PUSH1 0x0 DUP3 ADD MLOAD DUP2 PUSH1 0x0 ADD SWAP1 DUP2 PUSH2 0x12C SWAP2 SWAP1 PUSH2 0x903 JUMP JUMPDEST POP PUSH1 0x20 DUP3 ADD MLOAD DUP2 PUSH1 0x1 ADD SWAP1 DUP2 PUSH2 0x142 SWAP2 SWAP1 PUSH2 0x903 JUMP JUMPDEST POP PUSH1 0x40 DUP3 ADD MLOAD DUP2 PUSH1 0x2 ADD PUSH1 0x0 PUSH2 0x100 EXP DUP2 SLOAD DUP2 PUSH1 0xFF MUL NOT AND SWAP1 DUP4 PUSH1 0x2 DUP2 GT ISZERO PUSH2 0x16E JUMPI PUSH2 0x16D PUSH2 0x63B JUMP JUMPDEST JUMPDEST MUL OR SWAP1 SSTORE POP SWAP1 POP POP POP POP POP JUMP JUMPDEST PUSH1 0x60 DUP1 PUSH1 0x0 DUP1 PUSH1 0x0 DUP6 DUP2 MSTORE PUSH1 0x20 ADD SWAP1 DUP2 MSTORE PUSH1 0x20 ADD PUSH1 0x0 KECCAK256 PUSH1 0x0 ADD PUSH1 0x0 DUP1 DUP7 DUP2 MSTORE PUSH1 0x20 ADD SWAP1 DUP2 MSTORE PUSH1 0x20 ADD PUSH1 0x0 KECCAK256 PUSH1 0x1 ADD PUSH1 0x0 DUP1 DUP8 DUP2 MSTORE PUSH1 0x20 ADD SWAP1 DUP2 MSTORE PUSH1 0x20 ADD PUSH1 0x0 KECCAK256 PUSH1 0x2 ADD PUSH1 0x0 SWAP1 SLOAD SWAP1 PUSH2 0x100 EXP SWAP1 DIV PUSH1 0xFF AND DUP3 DUP1 SLOAD PUSH2 0x1D9 SWAP1 PUSH2 0x726 JUMP JUMPDEST DUP1 PUSH1 0x1F ADD PUSH1 0x20 DUP1 SWAP2 DIV MUL PUSH1 0x20 ADD PUSH1 0x40 MLOAD SWAP1 DUP2 ADD PUSH1 0x40 MSTORE DUP1 SWAP3 SWAP2 SWAP1 DUP2 DUP2 MSTORE PUSH1 0x20 ADD DUP3 DUP1 SLOAD PUSH2 0x205 SWAP1 PUSH2 0x726 JUMP JUMPDEST DUP1 ISZERO PUSH2 0x252 JUMPI DUP1 PUSH1 0x1F LT PUSH2 0x227 JUMPI PUSH2 0x100 DUP1 DUP4 SLOAD DIV MUL DUP4 MSTORE SWAP2 PUSH1 0x20 ADD SWAP2 PUSH2 0x252 JUMP JUMPDEST DUP3 ADD SWAP2 SWAP1 PUSH1 0x0 MSTORE PUSH1 0x20 PUSH1 0x0 KECCAK256 SWAP1 JUMPDEST DUP2 SLOAD DUP2 MSTORE SWAP1 PUSH1 0x1 ADD SWAP1 PUSH1 0x20 ADD DUP1 DUP4 GT PUSH2 0x235 JUMPI DUP3 SWAP1 SUB PUSH1 0x1F AND DUP3 ADD SWAP2 JUMPDEST POP POP POP POP POP SWAP3 POP DUP2 DUP1 SLOAD PUSH2 0x265 SWAP1 PUSH2 0x726 JUMP JUMPDEST DUP1 PUSH1 0x1F ADD PUSH1 0x20 DUP1 SWAP2 DIV MUL PUSH1 0x20 ADD PUSH1 0x40 MLOAD SWAP1 DUP2 ADD PUSH1 0x40 MSTORE DUP1 SWAP3 SWAP2 SWAP1 DUP2 DUP2 MSTORE PUSH1 0x20 ADD DUP3 DUP1 SLOAD PUSH2 0x291 SWAP1 PUSH2 0x726 JUMP JUMPDEST DUP1 ISZERO PUSH2 0x2DE JUMPI DUP1 PUSH1 0x1F LT PUSH2 0x2B3 JUMPI PUSH2 0x100 DUP1 DUP4 SLOAD DIV MUL DUP4 MSTORE SWAP2 PUSH1 0x20 ADD SWAP2 PUSH2 0x2DE JUMP JUMPDEST DUP3 ADD SWAP2 SWAP1 PUSH1 0x0 MSTORE PUSH1 0x20 PUSH1 0x0 KECCAK256 SWAP1 JUMPDEST DUP2 SLOAD DUP2 MSTORE SWAP1 PUSH1 0x1 ADD SWAP1 PUSH1 0x20 ADD DUP1 DUP4 GT PUSH2 0x2C1 JUMPI DUP3 SWAP1 SUB PUSH1 0x1F AND DUP3 ADD SWAP2 JUMPDEST POP POP POP POP POP SWAP2 POP SWAP3 POP SWAP3 POP SWAP3 POP SWAP2 SWAP4 SWAP1 SWAP3 POP JUMP JUMPDEST PUSH1 0x2 PUSH1 0x0 DUP1 DUP4 DUP2 MSTORE PUSH1 0x20 ADD SWAP1 DUP2 MSTORE PUSH1 0x20 ADD PUSH1 0x0 KECCAK256 PUSH1 0x2 ADD PUSH1 0x0 PUSH2 0x100 EXP DUP2 SLOAD DUP2 PUSH1 0xFF MUL NOT AND SWAP1 DUP4 PUSH1 0x2 DUP2 GT ISZERO PUSH2 0x32B JUMPI PUSH2 0x32A PUSH2 0x63B JUMP JUMPDEST JUMPDEST MUL OR SWAP1 SSTORE POP POP JUMP JUMPDEST PUSH1 0x1 PUSH1 0x0 DUP1 DUP4 DUP2 MSTORE PUSH1 0x20 ADD SWAP1 DUP2 MSTORE PUSH1 0x20 ADD PUSH1 0x0 KECCAK256 PUSH1 0x2 ADD PUSH1 0x0 PUSH2 0x100 EXP DUP2 SLOAD DUP2 PUSH1 0xFF MUL NOT AND SWAP1 DUP4 PUSH1 0x2 DUP2 GT ISZERO PUSH2 0x36C JUMPI PUSH2 0x36B PUSH2 0x63B JUMP JUMPDEST JUMPDEST MUL OR SWAP1 SSTORE POP POP JUMP JUMPDEST PUSH1 0x0 PUSH1 0x40 MLOAD SWAP1 POP SWAP1 JUMP JUMPDEST PUSH1 0x0 DUP1 REVERT JUMPDEST PUSH1 0x0 DUP1 REVERT JUMPDEST PUSH1 0x0 DUP2 SWAP1 POP SWAP2 SWAP1 POP JUMP JUMPDEST PUSH2 0x39B DUP2 PUSH2 0x388 JUMP JUMPDEST DUP2 EQ PUSH2 0x3A6 JUMPI PUSH1 0x0 DUP1 REVERT JUMPDEST POP JUMP JUMPDEST PUSH1 0x0 DUP2 CALLDATALOAD SWAP1 POP PUSH2 0x3B8 DUP2 PUSH2 0x392 JUMP JUMPDEST SWAP3 SWAP2 POP POP JUMP JUMPDEST PUSH1 0x0 DUP1 REVERT JUMPDEST PUSH1 0x0 DUP1 REVERT JUMPDEST PUSH1 0x0 PUSH1 0x1F NOT PUSH1 0x1F DUP4 ADD AND SWAP1 POP SWAP2 SWAP1 POP JUMP JUMPDEST PUSH32 0x4E487B7100000000000000000000000000000000000000000000000000000000 PUSH1 0x0 MSTORE PUSH1 0x41 PUSH1 0x4 MSTORE PUSH1 0x24 PUSH1 0x0 REVERT JUMPDEST PUSH2 0x411 DUP3 PUSH2 0x3C8 JUMP JUMPDEST DUP2 ADD DUP2 DUP2 LT PUSH8 0xFFFFFFFFFFFFFFFF DUP3 GT OR ISZERO PUSH2 0x430 JUMPI PUSH2 0x42F PUSH2 0x3D9 JUMP JUMPDEST JUMPDEST DUP1 PUSH1 0x40 MSTORE POP POP POP JUMP JUMPDEST PUSH1 0x0 PUSH2 0x443 PUSH2 0x374 JUMP JUMPDEST SWAP1 POP PUSH2 0x44F DUP3 DUP3 PUSH2 0x408 JUMP JUMPDEST SWAP2 SWAP1 POP JUMP JUMPDEST PUSH1 0x0 PUSH8 0xFFFFFFFFFFFFFFFF DUP3 GT ISZERO PUSH2 0x46F JUMPI PUSH2 0x46E PUSH2 0x3D9 JUMP JUMPDEST JUMPDEST PUSH2 0x478 DUP3 PUSH2 0x3C8 JUMP JUMPDEST SWAP1 POP PUSH1 0x20 DUP2 ADD SWAP1 POP SWAP2 SWAP1 POP JUMP JUMPDEST DUP3 DUP2 DUP4 CALLDATACOPY PUSH1 0x0 DUP4 DUP4 ADD MSTORE POP POP POP JUMP JUMPDEST PUSH1 0x0 PUSH2 0x4A7 PUSH2 0x4A2 DUP5 PUSH2 0x454 JUMP JUMPDEST PUSH2 0x439 JUMP JUMPDEST SWAP1 POP DUP3 DUP2 MSTORE PUSH1 0x20 DUP2 ADD DUP5 DUP5 DUP5 ADD GT ISZERO PUSH2 0x4C3 JUMPI PUSH2 0x4C2 PUSH2 0x3C3 JUMP JUMPDEST JUMPDEST PUSH2 0x4CE DUP5 DUP3 DUP6 PUSH2 0x485 JUMP JUMPDEST POP SWAP4 SWAP3 POP POP POP JUMP JUMPDEST PUSH1 0x0 DUP3 PUSH1 0x1F DUP4 ADD SLT PUSH2 0x4EB JUMPI PUSH2 0x4EA PUSH2 0x3BE JUMP JUMPDEST JUMPDEST DUP2 CALLDATALOAD PUSH2 0x4FB DUP5 DUP3 PUSH1 0x20 DUP7 ADD PUSH2 0x494 JUMP JUMPDEST SWAP2 POP POP SWAP3 SWAP2 POP POP JUMP JUMPDEST PUSH1 0x0 DUP1 PUSH1 0x0 PUSH1 0x60 DUP5 DUP7 SUB SLT ISZERO PUSH2 0x51D JUMPI PUSH2 0x51C PUSH2 0x37E JUMP JUMPDEST JUMPDEST PUSH1 0x0 PUSH2 0x52B DUP7 DUP3 DUP8 ADD PUSH2 0x3A9 JUMP JUMPDEST SWAP4 POP POP PUSH1 0x20 DUP5 ADD CALLDATALOAD PUSH8 0xFFFFFFFFFFFFFFFF DUP2 GT ISZERO PUSH2 0x54C JUMPI PUSH2 0x54B PUSH2 0x383 JUMP JUMPDEST JUMPDEST PUSH2 0x558 DUP7 DUP3 DUP8 ADD PUSH2 0x4D6 JUMP JUMPDEST SWAP3 POP POP PUSH1 0x40 DUP5 ADD CALLDATALOAD PUSH8 0xFFFFFFFFFFFFFFFF DUP2 GT ISZERO PUSH2 0x579 JUMPI PUSH2 0x578 PUSH2 0x383 JUMP JUMPDEST JUMPDEST PUSH2 0x585 DUP7 DUP3 DUP8 ADD PUSH2 0x4D6 JUMP JUMPDEST SWAP2 POP POP SWAP3 POP SWAP3 POP SWAP3 JUMP JUMPDEST PUSH1 0x0 PUSH1 0x20 DUP3 DUP5 SUB SLT ISZERO PUSH2 0x5A5 JUMPI PUSH2 0x5A4 PUSH2 0x37E JUMP JUMPDEST JUMPDEST PUSH1 0x0 PUSH2 0x5B3 DUP5 DUP3 DUP6 ADD PUSH2 0x3A9 JUMP JUMPDEST SWAP2 POP POP SWAP3 SWAP2 POP POP JUMP JUMPDEST PUSH1 0x0 DUP2 MLOAD SWAP1 POP SWAP2 SWAP1 POP JUMP JUMPDEST PUSH1 0x0 DUP3 DUP3 MSTORE PUSH1 0x20 DUP3 ADD SWAP1 POP SWAP3 SWAP2 POP POP JUMP JUMPDEST PUSH1 0x0 JUMPDEST DUP4 DUP2 LT ISZERO PUSH2 0x5F6 JUMPI DUP1 DUP3 ADD MLOAD DUP2 DUP5 ADD MSTORE PUSH1 0x20 DUP2 ADD SWAP1 POP PUSH2 0x5DB JUMP JUMPDEST PUSH1 0x0 DUP5 DUP5 ADD MSTORE POP POP POP POP JUMP JUMPDEST PUSH1 0x0 PUSH2 0x60D DUP3 PUSH2 0x5BC JUMP JUMPDEST PUSH2 0x617 DUP2 DUP6 PUSH2 0x5C7 JUMP JUMPDEST SWAP4 POP PUSH2 0x627 DUP2 DUP6 PUSH1 0x20 DUP7 ADD PUSH2 0x5D8 JUMP JUMPDEST PUSH2 0x630 DUP2 PUSH2 0x3C8 JUMP JUMPDEST DUP5 ADD SWAP2 POP POP SWAP3 SWAP2 POP POP JUMP JUMPDEST PUSH32 0x4E487B7100000000000000000000000000000000000000000000000000000000 PUSH1 0x0 MSTORE PUSH1 0x21 PUSH1 0x4 MSTORE PUSH1 0x24 PUSH1 0x0 REVERT JUMPDEST PUSH1 0x3 DUP2 LT PUSH2 0x67B JUMPI PUSH2 0x67A PUSH2 0x63B JUMP JUMPDEST JUMPDEST POP JUMP JUMPDEST PUSH1 0x0 DUP2 SWAP1 POP PUSH2 0x68C DUP3 PUSH2 0x66A JUMP JUMPDEST SWAP2 SWAP1 POP JUMP JUMPDEST PUSH1 0x0 PUSH2 0x69C DUP3 PUSH2 0x67E JUMP JUMPDEST SWAP1 POP SWAP2 SWAP1 POP JUMP JUMPDEST PUSH2 0x6AC DUP2 PUSH2 0x691 JUMP JUMPDEST DUP3 MSTORE POP POP JUMP JUMPDEST PUSH1 0x0 PUSH1 0x60 DUP3 ADD SWAP1 POP DUP2 DUP2 SUB PUSH1 0x0 DUP4 ADD MSTORE PUSH2 0x6CC DUP2 DUP7 PUSH2 0x602 JUMP JUMPDEST SWAP1 POP DUP2 DUP2 SUB PUSH1 0x20 DUP4 ADD MSTORE PUSH2 0x6E0 DUP2 DUP6 PUSH2 0x602 JUMP JUMPDEST SWAP1 POP PUSH2 0x6EF PUSH1 0x40 DUP4 ADD DUP5 PUSH2 0x6A3 JUMP JUMPDEST SWAP5 SWAP4 POP POP POP POP JUMP JUMPDEST PUSH32 0x4E487B7100000000000000000000000000000000000000000000000000000000 PUSH1 0x0 MSTORE PUSH1 0x22 PUSH1 0x4 MSTORE PUSH1 0x24 PUSH1 0x0 REVERT JUMPDEST PUSH1 0x0 PUSH1 0x2 DUP3 DIV SWAP1 POP PUSH1 0x1 DUP3 AND DUP1 PUSH2 0x73E JUMPI PUSH1 0x7F DUP3 AND SWAP2 POP JUMPDEST PUSH1 0x20 DUP3 LT DUP2 SUB PUSH2 0x751 JUMPI PUSH2 0x750 PUSH2 0x6F7 JUMP JUMPDEST JUMPDEST POP SWAP2 SWAP1 POP JUMP JUMPDEST PUSH1 0x0 DUP2 SWAP1 POP DUP2 PUSH1 0x0 MSTORE PUSH1 0x20 PUSH1 0x0 KECCAK256 SWAP1 POP SWAP2 SWAP1 POP JUMP JUMPDEST PUSH1 0x0 PUSH1 0x20 PUSH1 0x1F DUP4 ADD DIV SWAP1 POP SWAP2 SWAP1 POP JUMP JUMPDEST PUSH1 0x0 DUP3 DUP3 SHL SWAP1 POP SWAP3 SWAP2 POP POP JUMP JUMPDEST PUSH1 0x0 PUSH1 0x8 DUP4 MUL PUSH2 0x7B9 PUSH32 0xFFFFFFFFFFFFFFFFFFFFFFFFFFFFFFFFFFFFFFFFFFFFFFFFFFFFFFFFFFFFFFFF DUP3 PUSH2 0x77C JUMP JUMPDEST PUSH2 0x7C3 DUP7 DUP4 PUSH2 0x77C JUMP JUMPDEST SWAP6 POP DUP1 NOT DUP5 AND SWAP4 POP DUP1 DUP7 AND DUP5 OR SWAP3 POP POP POP SWAP4 SWAP3 POP POP POP JUMP JUMPDEST PUSH1 0x0 DUP2 SWAP1 POP SWAP2 SWAP1 POP JUMP JUMPDEST PUSH1 0x0 PUSH2 0x800 PUSH2 0x7FB PUSH2 0x7F6 DUP5 PUSH2 0x388 JUMP JUMPDEST PUSH2 0x7DB JUMP JUMPDEST PUSH2 0x388 JUMP JUMPDEST SWAP1 POP SWAP2 SWAP1 POP JUMP JUMPDEST PUSH1 0x0 DUP2 SWAP1 POP SWAP2 SWAP1 POP JUMP JUMPDEST PUSH2 0x81A DUP4 PUSH2 0x7E5 JUMP JUMPDEST PUSH2 0x82E PUSH2 0x826 DUP3 PUSH2 0x807 JUMP JUMPDEST DUP5 DUP5 SLOAD PUSH2 0x789 JUMP JUMPDEST DUP3 SSTORE POP POP POP POP JUMP JUMPDEST PUSH1 0x0 SWAP1 JUMP JUMPDEST PUSH2 0x843 PUSH2 0x836 JUMP JUMPDEST PUSH2 0x84E DUP2 DUP5 DUP5 PUSH2 0x811 JUMP JUMPDEST POP POP POP JUMP JUMPDEST JUMPDEST DUP2 DUP2 LT ISZERO PUSH2 0x872 JUMPI PUSH2 0x867 PUSH1 0x0 DUP3 PUSH2 0x83B JUMP JUMPDEST PUSH1 0x1 DUP2 ADD SWAP1 POP PUSH2 0x854 JUMP JUMPDEST POP POP JUMP JUMPDEST PUSH1 0x1F DUP3 GT ISZERO PUSH2 0x8B7 JUMPI PUSH2 0x888 DUP2 PUSH2 0x757 JUMP JUMPDEST PUSH2 0x891 DUP5 PUSH2 0x76C JUMP JUMPDEST DUP2 ADD PUSH1 0x20 DUP6 LT ISZERO PUSH2 0x8A0 JUMPI DUP2 SWAP1 POP JUMPDEST PUSH2 0x8B4 PUSH2 0x8AC DUP6 PUSH2 0x76C JUMP JUMPDEST DUP4 ADD DUP3 PUSH2 0x853 JUMP JUMPDEST POP POP JUMPDEST POP POP POP JUMP JUMPDEST PUSH1 0x0 DUP3 DUP3 SHR SWAP1 POP SWAP3 SWAP2 POP POP JUMP JUMPDEST PUSH1 0x0 PUSH2 0x8DA PUSH1 0x0 NOT DUP5 PUSH1 0x8 MUL PUSH2 0x8BC JUMP JUMPDEST NOT DUP1 DUP4 AND SWAP2 POP POP SWAP3 SWAP2 POP POP JUMP JUMPDEST PUSH1 0x0 PUSH2 0x8F3 DUP4 DUP4 PUSH2 0x8C9 JUMP JUMPDEST SWAP2 POP DUP3 PUSH1 0x2 MUL DUP3 OR SWAP1 POP SWAP3 SWAP2 POP POP JUMP JUMPDEST PUSH2 0x90C DUP3 PUSH2 0x5BC JUMP JUMPDEST PUSH8 0xFFFFFFFFFFFFFFFF DUP2 GT ISZERO PUSH2 0x925 JUMPI PUSH2 0x924 PUSH2 0x3D9 JUMP JUMPDEST JUMPDEST PUSH2 0x92F DUP3 SLOAD PUSH2 0x726 JUMP JUMPDEST PUSH2 0x93A DUP3 DUP3 DUP6 PUSH2 0x876 JUMP JUMPDEST PUSH1 0x0 PUSH1 0x20 SWAP1 POP PUSH1 0x1F DUP4 GT PUSH1 0x1 DUP2 EQ PUSH2 0x96D JUMPI PUSH1 0x0 DUP5 ISZERO PUSH2 0x95B JUMPI DUP3 DUP8 ADD MLOAD SWAP1 POP JUMPDEST PUSH2 0x965 DUP6 DUP3 PUSH2 0x8E7 JUMP JUMPDEST DUP7 SSTORE POP PUSH2 0x9CD JUMP JUMPDEST PUSH1 0x1F NOT DUP5 AND PUSH2 0x97B DUP7 PUSH2 0x757 JUMP JUMPDEST PUSH1 0x0 JUMPDEST DUP3 DUP2 LT ISZERO PUSH2 0x9A3 JUMPI DUP5 DUP10 ADD MLOAD DUP3 SSTORE PUSH1 0x1 DUP3 ADD SWAP2 POP PUSH1 0x20 DUP6 ADD SWAP5 POP PUSH1 0x20 DUP2 ADD SWAP1 POP PUSH2 0x97E JUMP JUMPDEST DUP7 DUP4 LT ISZERO PUSH2 0x9C0 JUMPI DUP5 DUP10 ADD MLOAD PUSH2 0x9BC PUSH1 0x1F DUP10 AND DUP3 PUSH2 0x8C9 JUMP JUMPDEST DUP4 SSTORE POP JUMPDEST PUSH1 0x1 PUSH1 0x2 DUP9 MUL ADD DUP9 SSTORE POP POP POP JUMPDEST POP POP POP POP POP POP JUMP INVALID LOG2 PUSH5 0x6970667358 0x22 SLT KECCAK256 0xC 0xB7 SUB ISZERO 0xA6 REVERT 0xCD DUP13 SWAP8 ORIGIN GAS 0xBE 0xE0 0xE8 XOR PUSH18 0x5F74C80A481F0A18A02ADD3314994B926473 PUSH16 0x6C634300081200330000000000000000 "
				},
				"gasEstimates": {
					"creation": {
						"codeDepositCost": "514200",
						"executionCost": "549",
						"totalCost": "514749"
					},
					"external": {
						"AddTask(uint256,string,string)": "infinite",
						"CompleteTask(uint256)": "24799",
						"GetTask(uint256)": "infinite",
						"ProcessTask(uint256)": "24821"
					}
				},
				"methodIdentifiers": {
					"AddTask(uint256,string,string)": "38099187",
					"CompleteTask(uint256)": "ae75aa69",
					"GetTask(uint256)": "50675ed6",
					"ProcessTask(uint256)": "da4c0b53"
				}
			},
			"storageLayout": {
				"storage": [
					{
						"astId": 18,
						"contract": "contracts/todo-list.sol:ToDolist",
						"label": "todolists",
						"offset": 0,
						"slot": "0",
						"type": "t_mapping(t_uint256,t_struct(listinfo)13_storage)"
					}
				],
				"types": {
					"t_enum(TaskStatus)5": {
						"encoding": "inplace",
						"label": "enum ToDolist.TaskStatus",
						"numberOfBytes": "1"
					},
					"t_mapping(t_uint256,t_struct(listinfo)13_storage)": {
						"encoding": "mapping",
						"key": "t_uint256",
						"label": "mapping(uint256 => struct ToDolist.listinfo)",
						"numberOfBytes": "32",
						"value": "t_struct(listinfo)13_storage"
					},
					"t_string_storage": {
						"encoding": "bytes",
						"label": "string",
						"numberOfBytes": "32"
					},
					"t_struct(listinfo)13_storage": {
						"encoding": "inplace",
						"label": "struct ToDolist.listinfo",
						"members": [
							{
								"astId": 7,
								"contract": "contracts/todo-list.sol:ToDolist",
								"label": "task",
								"offset": 0,
								"slot": "0",
								"type": "t_string_storage"
							},
							{
								"astId": 9,
								"contract": "contracts/todo-list.sol:ToDolist",
								"label": "task_desc",
								"offset": 0,
								"slot": "1",
								"type": "t_string_storage"
							},
							{
								"astId": 12,
								"contract": "contracts/todo-list.sol:ToDolist",
								"label": "status",
								"offset": 0,
								"slot": "2",
								"type": "t_enum(TaskStatus)5"
							}
						],
						"numberOfBytes": "96"
					},
					"t_uint256": {
						"encoding": "inplace",
						"label": "uint256",
						"numberOfBytes": "32"
					}
				}
			},
			"userdoc": {
				"kind": "user",
				"methods": {},
				"version": 1
			}
		}
	}
}