{
	"contracts/event_org.sol": {
		"eventorg": {
			"abi": [
				{
					"inputs": [
						{
							"internalType": "uint256",
							"name": "eventid",
							"type": "uint256"
						},
						{
							"internalType": "string",
							"name": "organiser",
							"type": "string"
						},
						{
							"internalType": "string",
							"name": "eventname",
							"type": "string"
						},
						{
							"internalType": "uint256",
							"name": "eventticket",
							"type": "uint256"
						},
						{
							"internalType": "string",
							"name": "evnetcity",
							"type": "string"
						},
						{
							"internalType": "uint256",
							"name": "eventfee",
							"type": "uint256"
						}
					],
					"name": "CreateEvent",
					"outputs": [],
					"stateMutability": "nonpayable",
					"type": "function"
				},
				{
					"inputs": [
						{
							"internalType": "uint256",
							"name": "",
							"type": "uint256"
						}
					],
					"name": "eventData",
					"outputs": [
						{
							"internalType": "string",
							"name": "organiser",
							"type": "string"
						},
						{
							"internalType": "string",
							"name": "eventname",
							"type": "string"
						},
						{
							"internalType": "uint256",
							"name": "eventdate",
							"type": "uint256"
						},
						{
							"internalType": "uint256",
							"name": "eventticket",
							"type": "uint256"
						},
						{
							"internalType": "uint256",
							"name": "eventRemticket",
							"type": "uint256"
						},
						{
							"internalType": "string",
							"name": "evnetcity",
							"type": "string"
						},
						{
							"internalType": "uint256",
							"name": "eventfee",
							"type": "uint256"
						}
					],
					"stateMutability": "view",
					"type": "function"
				},
				{
					"inputs": [
						{
							"internalType": "uint256",
							"name": "eventid",
							"type": "uint256"
						},
						{
							"internalType": "uint256",
							"name": "ticket",
							"type": "uint256"
						}
					],
					"name": "joinEvent",
					"outputs": [],
					"stateMutability": "payable",
					"type": "function"
				}
			],
			"devdoc": {
				"kind": "dev",
				"methods": {},
				"version": 1
			},
			"evm": {
				"assembly": "    /* \"contracts/event_org.sol\":71:3084  contract eventorg {... */\n  mstore(0x40, 0x80)\n  callvalue\n  dup1\n  iszero\n  tag_1\n  jumpi\n  0x00\n  dup1\n  revert\ntag_1:\n  pop\n  dataSize(sub_0)\n  dup1\n  dataOffset(sub_0)\n  0x00\n  codecopy\n  0x00\n  return\nstop\n\nsub_0: assembly {\n        /* \"contracts/event_org.sol\":71:3084  contract eventorg {... */\n      mstore(0x40, 0x80)\n      jumpi(tag_1, lt(calldatasize, 0x04))\n      shr(0xe0, calldataload(0x00))\n      dup1\n      0xb824fbf0\n      eq\n      tag_2\n      jumpi\n      dup1\n      0xc3321363\n      eq\n      tag_3\n      jumpi\n      dup1\n      0xf4533749\n      eq\n      tag_4\n      jumpi\n    tag_1:\n      0x00\n      dup1\n      revert\n        /* \"contracts/event_org.sol\":807:1386  function CreateEvent(... */\n    tag_2:\n      callvalue\n      dup1\n      iszero\n      tag_5\n      jumpi\n      0x00\n      dup1\n      revert\n    tag_5:\n      pop\n      tag_6\n      0x04\n      dup1\n      calldatasize\n      sub\n      dup2\n      add\n      swap1\n      tag_7\n      swap2\n      swap1\n      tag_8\n      jump\t// in\n    tag_7:\n      tag_9\n      jump\t// in\n    tag_6:\n      stop\n        /* \"contracts/event_org.sol\":754:800  mapping(uint256 => eventInfo) public eventData */\n    tag_3:\n      callvalue\n      dup1\n      iszero\n      tag_10\n      jumpi\n      0x00\n      dup1\n      revert\n    tag_10:\n      pop\n      tag_11\n      0x04\n      dup1\n      calldatasize\n      sub\n      dup2\n      add\n      swap1\n      tag_12\n      swap2\n      swap1\n      tag_13\n      jump\t// in\n    tag_12:\n      tag_14\n      jump\t// in\n    tag_11:\n      mload(0x40)\n      tag_15\n      swap8\n      swap7\n      swap6\n      swap5\n      swap4\n      swap3\n      swap2\n      swap1\n      tag_16\n      jump\t// in\n    tag_15:\n      mload(0x40)\n      dup1\n      swap2\n      sub\n      swap1\n      return\n        /* \"contracts/event_org.sol\":2006:2258  function joinEvent(uint eventid, uint ticket) payable public {... */\n    tag_4:\n      tag_17\n      0x04\n      dup1\n      calldatasize\n      sub\n      dup2\n      add\n      swap1\n      tag_18\n      swap2\n      swap1\n      tag_19\n      jump\t// in\n    tag_18:\n      tag_20\n      jump\t// in\n    tag_17:\n      stop\n        /* \"contracts/event_org.sol\":807:1386  function CreateEvent(... */\n    tag_9:\n        /* \"contracts/event_org.sol\":1030:1052  uint256 eventremticket */\n      0x00\n        /* \"contracts/event_org.sol\":1055:1066  eventticket */\n      dup4\n        /* \"contracts/event_org.sol\":1030:1066  uint256 eventremticket = eventticket */\n      swap1\n      pop\n        /* \"contracts/event_org.sol\":1076:1092  uint256 timetamp */\n      0x00\n        /* \"contracts/event_org.sol\":1095:1110  block.timestamp */\n      timestamp\n        /* \"contracts/event_org.sol\":1076:1110  uint256 timetamp = block.timestamp */\n      swap1\n      pop\n        /* \"contracts/event_org.sol\":1141:1326  eventInfo(... */\n      mload(0x40)\n      dup1\n      0xe0\n      add\n      0x40\n      mstore\n      dup1\n        /* \"contracts/event_org.sol\":1164:1173  organiser */\n      dup9\n        /* \"contracts/event_org.sol\":1141:1326  eventInfo(... */\n      dup2\n      mstore\n      0x20\n      add\n        /* \"contracts/event_org.sol\":1187:1196  eventname */\n      dup8\n        /* \"contracts/event_org.sol\":1141:1326  eventInfo(... */\n      dup2\n      mstore\n      0x20\n      add\n        /* \"contracts/event_org.sol\":1210:1218  timetamp */\n      dup3\n        /* \"contracts/event_org.sol\":1141:1326  eventInfo(... */\n      dup2\n      mstore\n      0x20\n      add\n        /* \"contracts/event_org.sol\":1232:1243  eventticket */\n      dup7\n        /* \"contracts/event_org.sol\":1141:1326  eventInfo(... */\n      dup2\n      mstore\n      0x20\n      add\n        /* \"contracts/event_org.sol\":1257:1271  eventremticket */\n      dup4\n        /* \"contracts/event_org.sol\":1141:1326  eventInfo(... */\n      dup2\n      mstore\n      0x20\n      add\n        /* \"contracts/event_org.sol\":1285:1294  evnetcity */\n      dup6\n        /* \"contracts/event_org.sol\":1141:1326  eventInfo(... */\n      dup2\n      mstore\n      0x20\n      add\n        /* \"contracts/event_org.sol\":1308:1316  eventfee */\n      dup5\n        /* \"contracts/event_org.sol\":1141:1326  eventInfo(... */\n      dup2\n      mstore\n      pop\n        /* \"contracts/event_org.sol\":1120:1129  eventData */\n      0x02\n        /* \"contracts/event_org.sol\":1120:1138  eventData[eventid] */\n      0x00\n        /* \"contracts/event_org.sol\":1130:1137  eventid */\n      dup11\n        /* \"contracts/event_org.sol\":1120:1138  eventData[eventid] */\n      dup2\n      mstore\n      0x20\n      add\n      swap1\n      dup2\n      mstore\n      0x20\n      add\n      0x00\n      keccak256\n        /* \"contracts/event_org.sol\":1120:1326  eventData[eventid] = eventInfo(... */\n      0x00\n      dup3\n      add\n      mload\n      dup2\n      0x00\n      add\n      swap1\n      dup2\n      tag_22\n      swap2\n      swap1\n      tag_23\n      jump\t// in\n    tag_22:\n      pop\n      0x20\n      dup3\n      add\n      mload\n      dup2\n      0x01\n      add\n      swap1\n      dup2\n      tag_24\n      swap2\n      swap1\n      tag_23\n      jump\t// in\n    tag_24:\n      pop\n      0x40\n      dup3\n      add\n      mload\n      dup2\n      0x02\n      add\n      sstore\n      0x60\n      dup3\n      add\n      mload\n      dup2\n      0x03\n      add\n      sstore\n      0x80\n      dup3\n      add\n      mload\n      dup2\n      0x04\n      add\n      sstore\n      0xa0\n      dup3\n      add\n      mload\n      dup2\n      0x05\n      add\n      swap1\n      dup2\n      tag_25\n      swap2\n      swap1\n      tag_23\n      jump\t// in\n    tag_25:\n      pop\n      0xc0\n      dup3\n      add\n      mload\n      dup2\n      0x06\n      add\n      sstore\n      swap1\n      pop\n      pop\n        /* \"contracts/event_org.sol\":1020:1386  {... */\n      pop\n      pop\n        /* \"contracts/event_org.sol\":807:1386  function CreateEvent(... */\n      pop\n      pop\n      pop\n      pop\n      pop\n      pop\n      jump\t// out\n        /* \"contracts/event_org.sol\":754:800  mapping(uint256 => eventInfo) public eventData */\n    tag_14:\n      mstore(0x20, 0x02)\n      dup1\n      0x00\n      mstore\n      keccak256(0x00, 0x40)\n      0x00\n      swap2\n      pop\n      swap1\n      pop\n      dup1\n      0x00\n      add\n      dup1\n      sload\n      tag_26\n      swap1\n      tag_27\n      jump\t// in\n    tag_26:\n      dup1\n      0x1f\n      add\n      0x20\n      dup1\n      swap2\n      div\n      mul\n      0x20\n      add\n      mload(0x40)\n      swap1\n      dup2\n      add\n      0x40\n      mstore\n      dup1\n      swap3\n      swap2\n      swap1\n      dup2\n      dup2\n      mstore\n      0x20\n      add\n      dup3\n      dup1\n      sload\n      tag_28\n      swap1\n      tag_27\n      jump\t// in\n    tag_28:\n      dup1\n      iszero\n      tag_29\n      jumpi\n      dup1\n      0x1f\n      lt\n      tag_30\n      jumpi\n      0x0100\n      dup1\n      dup4\n      sload\n      div\n      mul\n      dup4\n      mstore\n      swap2\n      0x20\n      add\n      swap2\n      jump(tag_29)\n    tag_30:\n      dup3\n      add\n      swap2\n      swap1\n      0x00\n      mstore\n      keccak256(0x00, 0x20)\n      swap1\n    tag_31:\n      dup2\n      sload\n      dup2\n      mstore\n      swap1\n      0x01\n      add\n      swap1\n      0x20\n      add\n      dup1\n      dup4\n      gt\n      tag_31\n      jumpi\n      dup3\n      swap1\n      sub\n      0x1f\n      and\n      dup3\n      add\n      swap2\n    tag_29:\n      pop\n      pop\n      pop\n      pop\n      pop\n      swap1\n      dup1\n      0x01\n      add\n      dup1\n      sload\n      tag_32\n      swap1\n      tag_27\n      jump\t// in\n    tag_32:\n      dup1\n      0x1f\n      add\n      0x20\n      dup1\n      swap2\n      div\n      mul\n      0x20\n      add\n      mload(0x40)\n      swap1\n      dup2\n      add\n      0x40\n      mstore\n      dup1\n      swap3\n      swap2\n      swap1\n      dup2\n      dup2\n      mstore\n      0x20\n      add\n      dup3\n      dup1\n      sload\n      tag_33\n      swap1\n      tag_27\n      jump\t// in\n    tag_33:\n      dup1\n      iszero\n      tag_34\n      jumpi\n      dup1\n      0x1f\n      lt\n      tag_35\n      jumpi\n      0x0100\n      dup1\n      dup4\n      sload\n      div\n      mul\n      dup4\n      mstore\n      swap2\n      0x20\n      add\n      swap2\n      jump(tag_34)\n    tag_35:\n      dup3\n      add\n      swap2\n      swap1\n      0x00\n      mstore\n      keccak256(0x00, 0x20)\n      swap1\n    tag_36:\n      dup2\n      sload\n      dup2\n      mstore\n      swap1\n      0x01\n      add\n      swap1\n      0x20\n      add\n      dup1\n      dup4\n      gt\n      tag_36\n      jumpi\n      dup3\n      swap1\n      sub\n      0x1f\n      and\n      dup3\n      add\n      swap2\n    tag_34:\n      pop\n      pop\n      pop\n      pop\n      pop\n      swap1\n      dup1\n      0x02\n      add\n      sload\n      swap1\n      dup1\n      0x03\n      add\n      sload\n      swap1\n      dup1\n      0x04\n      add\n      sload\n      swap1\n      dup1\n      0x05\n      add\n      dup1\n      sload\n      tag_37\n      swap1\n      tag_27\n      jump\t// in\n    tag_37:\n      dup1\n      0x1f\n      add\n      0x20\n      dup1\n      swap2\n      div\n      mul\n      0x20\n      add\n      mload(0x40)\n      swap1\n      dup2\n      add\n      0x40\n      mstore\n      dup1\n      swap3\n      swap2\n      swap1\n      dup2\n      dup2\n      mstore\n      0x20\n      add\n      dup3\n      dup1\n      sload\n      tag_38\n      swap1\n      tag_27\n      jump\t// in\n    tag_38:\n      dup1\n      iszero\n      tag_39\n      jumpi\n      dup1\n      0x1f\n      lt\n      tag_40\n      jumpi\n      0x0100\n      dup1\n      dup4\n      sload\n      div\n      mul\n      dup4\n      mstore\n      swap2\n      0x20\n      add\n      swap2\n      jump(tag_39)\n    tag_40:\n      dup3\n      add\n      swap2\n      swap1\n      0x00\n      mstore\n      keccak256(0x00, 0x20)\n      swap1\n    tag_41:\n      dup2\n      sload\n      dup2\n      mstore\n      swap1\n      0x01\n      add\n      swap1\n      0x20\n      add\n      dup1\n      dup4\n      gt\n      tag_41\n      jumpi\n      dup3\n      swap1\n      sub\n      0x1f\n      and\n      dup3\n      add\n      swap2\n    tag_39:\n      pop\n      pop\n      pop\n      pop\n      pop\n      swap1\n      dup1\n      0x06\n      add\n      sload\n      swap1\n      pop\n      dup8\n      jump\t// out\n        /* \"contracts/event_org.sol\":2006:2258  function joinEvent(uint eventid, uint ticket) payable public {... */\n    tag_20:\n        /* \"contracts/event_org.sol\":2085:2094  eventData */\n      0x02\n        /* \"contracts/event_org.sol\":2085:2103  eventData[eventid] */\n      0x00\n        /* \"contracts/event_org.sol\":2095:2102  eventid */\n      dup4\n        /* \"contracts/event_org.sol\":2085:2103  eventData[eventid] */\n      dup2\n      mstore\n      0x20\n      add\n      swap1\n      dup2\n      mstore\n      0x20\n      add\n      0x00\n      keccak256\n        /* \"contracts/event_org.sol\":2085:2112  eventData[eventid].eventfee */\n      0x06\n      add\n      sload\n        /* \"contracts/event_org.sol\":2077:2082  e_fee */\n      0x01\n        /* \"contracts/event_org.sol\":2077:2112  e_fee = eventData[eventid].eventfee */\n      dup2\n      swap1\n      sstore\n      pop\n        /* \"contracts/event_org.sol\":2142:2148  ticket */\n      dup1\n        /* \"contracts/event_org.sol\":2134:2139  e_fee */\n      sload(0x01)\n        /* \"contracts/event_org.sol\":2134:2148  e_fee * ticket */\n      tag_43\n      swap2\n      swap1\n      tag_44\n      jump\t// in\n    tag_43:\n        /* \"contracts/event_org.sol\":2122:2131  pay_ether */\n      0x00\n        /* \"contracts/event_org.sol\":2122:2148  pay_ether = e_fee * ticket */\n      dup2\n      swap1\n      sstore\n      pop\n        /* \"contracts/event_org.sol\":2179:2188  pay_ether */\n      sload(0x00)\n        /* \"contracts/event_org.sol\":2166:2175  msg.value */\n      callvalue\n        /* \"contracts/event_org.sol\":2166:2188  msg.value == pay_ether */\n      eq\n        /* \"contracts/event_org.sol\":2158:2211  require(msg.value == pay_ether ,\"Fees Not full pay.\") */\n      tag_45\n      jumpi\n      mload(0x40)\n      0x08c379a000000000000000000000000000000000000000000000000000000000\n      dup2\n      mstore\n      0x04\n      add\n      tag_46\n      swap1\n      tag_47\n      jump\t// in\n    tag_46:\n      mload(0x40)\n      dup1\n      swap2\n      sub\n      swap1\n      revert\n    tag_45:\n        /* \"contracts/event_org.sol\":2244:2251  eventid */\n      dup2\n        /* \"contracts/event_org.sol\":2222:2229  tickets */\n      0x03\n        /* \"contracts/event_org.sol\":2222:2241  tickets[msg.sender] */\n      0x00\n        /* \"contracts/event_org.sol\":2230:2240  msg.sender */\n      caller\n        /* \"contracts/event_org.sol\":2222:2241  tickets[msg.sender] */\n      0xffffffffffffffffffffffffffffffffffffffff\n      and\n      0xffffffffffffffffffffffffffffffffffffffff\n      and\n      dup2\n      mstore\n      0x20\n      add\n      swap1\n      dup2\n      mstore\n      0x20\n      add\n      0x00\n      keccak256\n        /* \"contracts/event_org.sol\":2222:2251  tickets[msg.sender] = eventid */\n      dup2\n      swap1\n      sstore\n      pop\n        /* \"contracts/event_org.sol\":2006:2258  function joinEvent(uint eventid, uint ticket) payable public {... */\n      pop\n      pop\n      jump\t// out\n        /* \"#utility.yul\":7:82   */\n    tag_48:\n        /* \"#utility.yul\":40:46   */\n      0x00\n        /* \"#utility.yul\":73:75   */\n      0x40\n        /* \"#utility.yul\":67:76   */\n      mload\n        /* \"#utility.yul\":57:76   */\n      swap1\n      pop\n        /* \"#utility.yul\":7:82   */\n      swap1\n      jump\t// out\n        /* \"#utility.yul\":88:205   */\n    tag_49:\n        /* \"#utility.yul\":197:198   */\n      0x00\n        /* \"#utility.yul\":194:195   */\n      dup1\n        /* \"#utility.yul\":187:199   */\n      revert\n        /* \"#utility.yul\":211:328   */\n    tag_50:\n        /* \"#utility.yul\":320:321   */\n      0x00\n        /* \"#utility.yul\":317:318   */\n      dup1\n        /* \"#utility.yul\":310:322   */\n      revert\n        /* \"#utility.yul\":334:411   */\n    tag_51:\n        /* \"#utility.yul\":371:378   */\n      0x00\n        /* \"#utility.yul\":400:405   */\n      dup2\n        /* \"#utility.yul\":389:405   */\n      swap1\n      pop\n        /* \"#utility.yul\":334:411   */\n      swap2\n      swap1\n      pop\n      jump\t// out\n        /* \"#utility.yul\":417:539   */\n    tag_52:\n        /* \"#utility.yul\":490:514   */\n      tag_94\n        /* \"#utility.yul\":508:513   */\n      dup2\n        /* \"#utility.yul\":490:514   */\n      tag_51\n      jump\t// in\n    tag_94:\n        /* \"#utility.yul\":483:488   */\n      dup2\n        /* \"#utility.yul\":480:515   */\n      eq\n        /* \"#utility.yul\":470:533   */\n      tag_95\n      jumpi\n        /* \"#utility.yul\":529:530   */\n      0x00\n        /* \"#utility.yul\":526:527   */\n      dup1\n        /* \"#utility.yul\":519:531   */\n      revert\n        /* \"#utility.yul\":470:533   */\n    tag_95:\n        /* \"#utility.yul\":417:539   */\n      pop\n      jump\t// out\n        /* \"#utility.yul\":545:684   */\n    tag_53:\n        /* \"#utility.yul\":591:596   */\n      0x00\n        /* \"#utility.yul\":629:635   */\n      dup2\n        /* \"#utility.yul\":616:636   */\n      calldataload\n        /* \"#utility.yul\":607:636   */\n      swap1\n      pop\n        /* \"#utility.yul\":645:678   */\n      tag_97\n        /* \"#utility.yul\":672:677   */\n      dup2\n        /* \"#utility.yul\":645:678   */\n      tag_52\n      jump\t// in\n    tag_97:\n        /* \"#utility.yul\":545:684   */\n      swap3\n      swap2\n      pop\n      pop\n      jump\t// out\n        /* \"#utility.yul\":690:807   */\n    tag_54:\n        /* \"#utility.yul\":799:800   */\n      0x00\n        /* \"#utility.yul\":796:797   */\n      dup1\n        /* \"#utility.yul\":789:801   */\n      revert\n        /* \"#utility.yul\":813:930   */\n    tag_55:\n        /* \"#utility.yul\":922:923   */\n      0x00\n        /* \"#utility.yul\":919:920   */\n      dup1\n        /* \"#utility.yul\":912:924   */\n      revert\n        /* \"#utility.yul\":936:1038   */\n    tag_56:\n        /* \"#utility.yul\":977:983   */\n      0x00\n        /* \"#utility.yul\":1028:1030   */\n      0x1f\n        /* \"#utility.yul\":1024:1031   */\n      not\n        /* \"#utility.yul\":1019:1021   */\n      0x1f\n        /* \"#utility.yul\":1012:1017   */\n      dup4\n        /* \"#utility.yul\":1008:1022   */\n      add\n        /* \"#utility.yul\":1004:1032   */\n      and\n        /* \"#utility.yul\":994:1032   */\n      swap1\n      pop\n        /* \"#utility.yul\":936:1038   */\n      swap2\n      swap1\n      pop\n      jump\t// out\n        /* \"#utility.yul\":1044:1224   */\n    tag_57:\n        /* \"#utility.yul\":1092:1169   */\n      0x4e487b7100000000000000000000000000000000000000000000000000000000\n        /* \"#utility.yul\":1089:1090   */\n      0x00\n        /* \"#utility.yul\":1082:1170   */\n      mstore\n        /* \"#utility.yul\":1189:1193   */\n      0x41\n        /* \"#utility.yul\":1186:1187   */\n      0x04\n        /* \"#utility.yul\":1179:1194   */\n      mstore\n        /* \"#utility.yul\":1213:1217   */\n      0x24\n        /* \"#utility.yul\":1210:1211   */\n      0x00\n        /* \"#utility.yul\":1203:1218   */\n      revert\n        /* \"#utility.yul\":1230:1511   */\n    tag_58:\n        /* \"#utility.yul\":1313:1340   */\n      tag_103\n        /* \"#utility.yul\":1335:1339   */\n      dup3\n        /* \"#utility.yul\":1313:1340   */\n      tag_56\n      jump\t// in\n    tag_103:\n        /* \"#utility.yul\":1305:1311   */\n      dup2\n        /* \"#utility.yul\":1301:1341   */\n      add\n        /* \"#utility.yul\":1443:1449   */\n      dup2\n        /* \"#utility.yul\":1431:1441   */\n      dup2\n        /* \"#utility.yul\":1428:1450   */\n      lt\n        /* \"#utility.yul\":1407:1425   */\n      0xffffffffffffffff\n        /* \"#utility.yul\":1395:1405   */\n      dup3\n        /* \"#utility.yul\":1392:1426   */\n      gt\n        /* \"#utility.yul\":1389:1451   */\n      or\n        /* \"#utility.yul\":1386:1474   */\n      iszero\n      tag_104\n      jumpi\n        /* \"#utility.yul\":1454:1472   */\n      tag_105\n      tag_57\n      jump\t// in\n    tag_105:\n        /* \"#utility.yul\":1386:1474   */\n    tag_104:\n        /* \"#utility.yul\":1494:1504   */\n      dup1\n        /* \"#utility.yul\":1490:1492   */\n      0x40\n        /* \"#utility.yul\":1483:1505   */\n      mstore\n        /* \"#utility.yul\":1273:1511   */\n      pop\n        /* \"#utility.yul\":1230:1511   */\n      pop\n      pop\n      jump\t// out\n        /* \"#utility.yul\":1517:1646   */\n    tag_59:\n        /* \"#utility.yul\":1551:1557   */\n      0x00\n        /* \"#utility.yul\":1578:1598   */\n      tag_107\n      tag_48\n      jump\t// in\n    tag_107:\n        /* \"#utility.yul\":1568:1598   */\n      swap1\n      pop\n        /* \"#utility.yul\":1607:1640   */\n      tag_108\n        /* \"#utility.yul\":1635:1639   */\n      dup3\n        /* \"#utility.yul\":1627:1633   */\n      dup3\n        /* \"#utility.yul\":1607:1640   */\n      tag_58\n      jump\t// in\n    tag_108:\n        /* \"#utility.yul\":1517:1646   */\n      swap2\n      swap1\n      pop\n      jump\t// out\n        /* \"#utility.yul\":1652:1960   */\n    tag_60:\n        /* \"#utility.yul\":1714:1718   */\n      0x00\n        /* \"#utility.yul\":1804:1822   */\n      0xffffffffffffffff\n        /* \"#utility.yul\":1796:1802   */\n      dup3\n        /* \"#utility.yul\":1793:1823   */\n      gt\n        /* \"#utility.yul\":1790:1846   */\n      iszero\n      tag_110\n      jumpi\n        /* \"#utility.yul\":1826:1844   */\n      tag_111\n      tag_57\n      jump\t// in\n    tag_111:\n        /* \"#utility.yul\":1790:1846   */\n    tag_110:\n        /* \"#utility.yul\":1864:1893   */\n      tag_112\n        /* \"#utility.yul\":1886:1892   */\n      dup3\n        /* \"#utility.yul\":1864:1893   */\n      tag_56\n      jump\t// in\n    tag_112:\n        /* \"#utility.yul\":1856:1893   */\n      swap1\n      pop\n        /* \"#utility.yul\":1948:1952   */\n      0x20\n        /* \"#utility.yul\":1942:1946   */\n      dup2\n        /* \"#utility.yul\":1938:1953   */\n      add\n        /* \"#utility.yul\":1930:1953   */\n      swap1\n      pop\n        /* \"#utility.yul\":1652:1960   */\n      swap2\n      swap1\n      pop\n      jump\t// out\n        /* \"#utility.yul\":1966:2112   */\n    tag_61:\n        /* \"#utility.yul\":2063:2069   */\n      dup3\n        /* \"#utility.yul\":2058:2061   */\n      dup2\n        /* \"#utility.yul\":2053:2056   */\n      dup4\n        /* \"#utility.yul\":2040:2070   */\n      calldatacopy\n        /* \"#utility.yul\":2104:2105   */\n      0x00\n        /* \"#utility.yul\":2095:2101   */\n      dup4\n        /* \"#utility.yul\":2090:2093   */\n      dup4\n        /* \"#utility.yul\":2086:2102   */\n      add\n        /* \"#utility.yul\":2079:2106   */\n      mstore\n        /* \"#utility.yul\":1966:2112   */\n      pop\n      pop\n      pop\n      jump\t// out\n        /* \"#utility.yul\":2118:2543   */\n    tag_62:\n        /* \"#utility.yul\":2196:2201   */\n      0x00\n        /* \"#utility.yul\":2221:2287   */\n      tag_115\n        /* \"#utility.yul\":2237:2286   */\n      tag_116\n        /* \"#utility.yul\":2279:2285   */\n      dup5\n        /* \"#utility.yul\":2237:2286   */\n      tag_60\n      jump\t// in\n    tag_116:\n        /* \"#utility.yul\":2221:2287   */\n      tag_59\n      jump\t// in\n    tag_115:\n        /* \"#utility.yul\":2212:2287   */\n      swap1\n      pop\n        /* \"#utility.yul\":2310:2316   */\n      dup3\n        /* \"#utility.yul\":2303:2308   */\n      dup2\n        /* \"#utility.yul\":2296:2317   */\n      mstore\n        /* \"#utility.yul\":2348:2352   */\n      0x20\n        /* \"#utility.yul\":2341:2346   */\n      dup2\n        /* \"#utility.yul\":2337:2353   */\n      add\n        /* \"#utility.yul\":2386:2389   */\n      dup5\n        /* \"#utility.yul\":2377:2383   */\n      dup5\n        /* \"#utility.yul\":2372:2375   */\n      dup5\n        /* \"#utility.yul\":2368:2384   */\n      add\n        /* \"#utility.yul\":2365:2390   */\n      gt\n        /* \"#utility.yul\":2362:2474   */\n      iszero\n      tag_117\n      jumpi\n        /* \"#utility.yul\":2393:2472   */\n      tag_118\n      tag_55\n      jump\t// in\n    tag_118:\n        /* \"#utility.yul\":2362:2474   */\n    tag_117:\n        /* \"#utility.yul\":2483:2537   */\n      tag_119\n        /* \"#utility.yul\":2530:2536   */\n      dup5\n        /* \"#utility.yul\":2525:2528   */\n      dup3\n        /* \"#utility.yul\":2520:2523   */\n      dup6\n        /* \"#utility.yul\":2483:2537   */\n      tag_61\n      jump\t// in\n    tag_119:\n        /* \"#utility.yul\":2202:2543   */\n      pop\n        /* \"#utility.yul\":2118:2543   */\n      swap4\n      swap3\n      pop\n      pop\n      pop\n      jump\t// out\n        /* \"#utility.yul\":2563:2903   */\n    tag_63:\n        /* \"#utility.yul\":2619:2624   */\n      0x00\n        /* \"#utility.yul\":2668:2671   */\n      dup3\n        /* \"#utility.yul\":2661:2665   */\n      0x1f\n        /* \"#utility.yul\":2653:2659   */\n      dup4\n        /* \"#utility.yul\":2649:2666   */\n      add\n        /* \"#utility.yul\":2645:2672   */\n      slt\n        /* \"#utility.yul\":2635:2757   */\n      tag_121\n      jumpi\n        /* \"#utility.yul\":2676:2755   */\n      tag_122\n      tag_54\n      jump\t// in\n    tag_122:\n        /* \"#utility.yul\":2635:2757   */\n    tag_121:\n        /* \"#utility.yul\":2793:2799   */\n      dup2\n        /* \"#utility.yul\":2780:2800   */\n      calldataload\n        /* \"#utility.yul\":2818:2897   */\n      tag_123\n        /* \"#utility.yul\":2893:2896   */\n      dup5\n        /* \"#utility.yul\":2885:2891   */\n      dup3\n        /* \"#utility.yul\":2878:2882   */\n      0x20\n        /* \"#utility.yul\":2870:2876   */\n      dup7\n        /* \"#utility.yul\":2866:2883   */\n      add\n        /* \"#utility.yul\":2818:2897   */\n      tag_62\n      jump\t// in\n    tag_123:\n        /* \"#utility.yul\":2809:2897   */\n      swap2\n      pop\n        /* \"#utility.yul\":2625:2903   */\n      pop\n        /* \"#utility.yul\":2563:2903   */\n      swap3\n      swap2\n      pop\n      pop\n      jump\t// out\n        /* \"#utility.yul\":2909:4506   */\n    tag_8:\n        /* \"#utility.yul\":3043:3049   */\n      0x00\n        /* \"#utility.yul\":3051:3057   */\n      dup1\n        /* \"#utility.yul\":3059:3065   */\n      0x00\n        /* \"#utility.yul\":3067:3073   */\n      dup1\n        /* \"#utility.yul\":3075:3081   */\n      0x00\n        /* \"#utility.yul\":3083:3089   */\n      dup1\n        /* \"#utility.yul\":3132:3135   */\n      0xc0\n        /* \"#utility.yul\":3120:3129   */\n      dup8\n        /* \"#utility.yul\":3111:3118   */\n      dup10\n        /* \"#utility.yul\":3107:3130   */\n      sub\n        /* \"#utility.yul\":3103:3136   */\n      slt\n        /* \"#utility.yul\":3100:3220   */\n      iszero\n      tag_125\n      jumpi\n        /* \"#utility.yul\":3139:3218   */\n      tag_126\n      tag_49\n      jump\t// in\n    tag_126:\n        /* \"#utility.yul\":3100:3220   */\n    tag_125:\n        /* \"#utility.yul\":3259:3260   */\n      0x00\n        /* \"#utility.yul\":3284:3337   */\n      tag_127\n        /* \"#utility.yul\":3329:3336   */\n      dup10\n        /* \"#utility.yul\":3320:3326   */\n      dup3\n        /* \"#utility.yul\":3309:3318   */\n      dup11\n        /* \"#utility.yul\":3305:3327   */\n      add\n        /* \"#utility.yul\":3284:3337   */\n      tag_53\n      jump\t// in\n    tag_127:\n        /* \"#utility.yul\":3274:3337   */\n      swap7\n      pop\n        /* \"#utility.yul\":3230:3347   */\n      pop\n        /* \"#utility.yul\":3414:3416   */\n      0x20\n        /* \"#utility.yul\":3403:3412   */\n      dup8\n        /* \"#utility.yul\":3399:3417   */\n      add\n        /* \"#utility.yul\":3386:3418   */\n      calldataload\n        /* \"#utility.yul\":3445:3463   */\n      0xffffffffffffffff\n        /* \"#utility.yul\":3437:3443   */\n      dup2\n        /* \"#utility.yul\":3434:3464   */\n      gt\n        /* \"#utility.yul\":3431:3548   */\n      iszero\n      tag_128\n      jumpi\n        /* \"#utility.yul\":3467:3546   */\n      tag_129\n      tag_50\n      jump\t// in\n    tag_129:\n        /* \"#utility.yul\":3431:3548   */\n    tag_128:\n        /* \"#utility.yul\":3572:3635   */\n      tag_130\n        /* \"#utility.yul\":3627:3634   */\n      dup10\n        /* \"#utility.yul\":3618:3624   */\n      dup3\n        /* \"#utility.yul\":3607:3616   */\n      dup11\n        /* \"#utility.yul\":3603:3625   */\n      add\n        /* \"#utility.yul\":3572:3635   */\n      tag_63\n      jump\t// in\n    tag_130:\n        /* \"#utility.yul\":3562:3635   */\n      swap6\n      pop\n        /* \"#utility.yul\":3357:3645   */\n      pop\n        /* \"#utility.yul\":3712:3714   */\n      0x40\n        /* \"#utility.yul\":3701:3710   */\n      dup8\n        /* \"#utility.yul\":3697:3715   */\n      add\n        /* \"#utility.yul\":3684:3716   */\n      calldataload\n        /* \"#utility.yul\":3743:3761   */\n      0xffffffffffffffff\n        /* \"#utility.yul\":3735:3741   */\n      dup2\n        /* \"#utility.yul\":3732:3762   */\n      gt\n        /* \"#utility.yul\":3729:3846   */\n      iszero\n      tag_131\n      jumpi\n        /* \"#utility.yul\":3765:3844   */\n      tag_132\n      tag_50\n      jump\t// in\n    tag_132:\n        /* \"#utility.yul\":3729:3846   */\n    tag_131:\n        /* \"#utility.yul\":3870:3933   */\n      tag_133\n        /* \"#utility.yul\":3925:3932   */\n      dup10\n        /* \"#utility.yul\":3916:3922   */\n      dup3\n        /* \"#utility.yul\":3905:3914   */\n      dup11\n        /* \"#utility.yul\":3901:3923   */\n      add\n        /* \"#utility.yul\":3870:3933   */\n      tag_63\n      jump\t// in\n    tag_133:\n        /* \"#utility.yul\":3860:3933   */\n      swap5\n      pop\n        /* \"#utility.yul\":3655:3943   */\n      pop\n        /* \"#utility.yul\":3982:3984   */\n      0x60\n        /* \"#utility.yul\":4008:4061   */\n      tag_134\n        /* \"#utility.yul\":4053:4060   */\n      dup10\n        /* \"#utility.yul\":4044:4050   */\n      dup3\n        /* \"#utility.yul\":4033:4042   */\n      dup11\n        /* \"#utility.yul\":4029:4051   */\n      add\n        /* \"#utility.yul\":4008:4061   */\n      tag_53\n      jump\t// in\n    tag_134:\n        /* \"#utility.yul\":3998:4061   */\n      swap4\n      pop\n        /* \"#utility.yul\":3953:4071   */\n      pop\n        /* \"#utility.yul\":4138:4141   */\n      0x80\n        /* \"#utility.yul\":4127:4136   */\n      dup8\n        /* \"#utility.yul\":4123:4142   */\n      add\n        /* \"#utility.yul\":4110:4143   */\n      calldataload\n        /* \"#utility.yul\":4170:4188   */\n      0xffffffffffffffff\n        /* \"#utility.yul\":4162:4168   */\n      dup2\n        /* \"#utility.yul\":4159:4189   */\n      gt\n        /* \"#utility.yul\":4156:4273   */\n      iszero\n      tag_135\n      jumpi\n        /* \"#utility.yul\":4192:4271   */\n      tag_136\n      tag_50\n      jump\t// in\n    tag_136:\n        /* \"#utility.yul\":4156:4273   */\n    tag_135:\n        /* \"#utility.yul\":4297:4360   */\n      tag_137\n        /* \"#utility.yul\":4352:4359   */\n      dup10\n        /* \"#utility.yul\":4343:4349   */\n      dup3\n        /* \"#utility.yul\":4332:4341   */\n      dup11\n        /* \"#utility.yul\":4328:4350   */\n      add\n        /* \"#utility.yul\":4297:4360   */\n      tag_63\n      jump\t// in\n    tag_137:\n        /* \"#utility.yul\":4287:4360   */\n      swap3\n      pop\n        /* \"#utility.yul\":4081:4370   */\n      pop\n        /* \"#utility.yul\":4409:4412   */\n      0xa0\n        /* \"#utility.yul\":4436:4489   */\n      tag_138\n        /* \"#utility.yul\":4481:4488   */\n      dup10\n        /* \"#utility.yul\":4472:4478   */\n      dup3\n        /* \"#utility.yul\":4461:4470   */\n      dup11\n        /* \"#utility.yul\":4457:4479   */\n      add\n        /* \"#utility.yul\":4436:4489   */\n      tag_53\n      jump\t// in\n    tag_138:\n        /* \"#utility.yul\":4426:4489   */\n      swap2\n      pop\n        /* \"#utility.yul\":4380:4499   */\n      pop\n        /* \"#utility.yul\":2909:4506   */\n      swap3\n      swap6\n      pop\n      swap3\n      swap6\n      pop\n      swap3\n      swap6\n      jump\t// out\n        /* \"#utility.yul\":4512:4841   */\n    tag_13:\n        /* \"#utility.yul\":4571:4577   */\n      0x00\n        /* \"#utility.yul\":4620:4622   */\n      0x20\n        /* \"#utility.yul\":4608:4617   */\n      dup3\n        /* \"#utility.yul\":4599:4606   */\n      dup5\n        /* \"#utility.yul\":4595:4618   */\n      sub\n        /* \"#utility.yul\":4591:4623   */\n      slt\n        /* \"#utility.yul\":4588:4707   */\n      iszero\n      tag_140\n      jumpi\n        /* \"#utility.yul\":4626:4705   */\n      tag_141\n      tag_49\n      jump\t// in\n    tag_141:\n        /* \"#utility.yul\":4588:4707   */\n    tag_140:\n        /* \"#utility.yul\":4746:4747   */\n      0x00\n        /* \"#utility.yul\":4771:4824   */\n      tag_142\n        /* \"#utility.yul\":4816:4823   */\n      dup5\n        /* \"#utility.yul\":4807:4813   */\n      dup3\n        /* \"#utility.yul\":4796:4805   */\n      dup6\n        /* \"#utility.yul\":4792:4814   */\n      add\n        /* \"#utility.yul\":4771:4824   */\n      tag_53\n      jump\t// in\n    tag_142:\n        /* \"#utility.yul\":4761:4824   */\n      swap2\n      pop\n        /* \"#utility.yul\":4717:4834   */\n      pop\n        /* \"#utility.yul\":4512:4841   */\n      swap3\n      swap2\n      pop\n      pop\n      jump\t// out\n        /* \"#utility.yul\":4847:4946   */\n    tag_64:\n        /* \"#utility.yul\":4899:4905   */\n      0x00\n        /* \"#utility.yul\":4933:4938   */\n      dup2\n        /* \"#utility.yul\":4927:4939   */\n      mload\n        /* \"#utility.yul\":4917:4939   */\n      swap1\n      pop\n        /* \"#utility.yul\":4847:4946   */\n      swap2\n      swap1\n      pop\n      jump\t// out\n        /* \"#utility.yul\":4952:5121   */\n    tag_65:\n        /* \"#utility.yul\":5036:5047   */\n      0x00\n        /* \"#utility.yul\":5070:5076   */\n      dup3\n        /* \"#utility.yul\":5065:5068   */\n      dup3\n        /* \"#utility.yul\":5058:5077   */\n      mstore\n        /* \"#utility.yul\":5110:5114   */\n      0x20\n        /* \"#utility.yul\":5105:5108   */\n      dup3\n        /* \"#utility.yul\":5101:5115   */\n      add\n        /* \"#utility.yul\":5086:5115   */\n      swap1\n      pop\n        /* \"#utility.yul\":4952:5121   */\n      swap3\n      swap2\n      pop\n      pop\n      jump\t// out\n        /* \"#utility.yul\":5127:5373   */\n    tag_66:\n        /* \"#utility.yul\":5208:5209   */\n      0x00\n        /* \"#utility.yul\":5218:5331   */\n    tag_146:\n        /* \"#utility.yul\":5232:5238   */\n      dup4\n        /* \"#utility.yul\":5229:5230   */\n      dup2\n        /* \"#utility.yul\":5226:5239   */\n      lt\n        /* \"#utility.yul\":5218:5331   */\n      iszero\n      tag_148\n      jumpi\n        /* \"#utility.yul\":5317:5318   */\n      dup1\n        /* \"#utility.yul\":5312:5315   */\n      dup3\n        /* \"#utility.yul\":5308:5319   */\n      add\n        /* \"#utility.yul\":5302:5320   */\n      mload\n        /* \"#utility.yul\":5298:5299   */\n      dup2\n        /* \"#utility.yul\":5293:5296   */\n      dup5\n        /* \"#utility.yul\":5289:5300   */\n      add\n        /* \"#utility.yul\":5282:5321   */\n      mstore\n        /* \"#utility.yul\":5254:5256   */\n      0x20\n        /* \"#utility.yul\":5251:5252   */\n      dup2\n        /* \"#utility.yul\":5247:5257   */\n      add\n        /* \"#utility.yul\":5242:5257   */\n      swap1\n      pop\n        /* \"#utility.yul\":5218:5331   */\n      jump(tag_146)\n    tag_148:\n        /* \"#utility.yul\":5365:5366   */\n      0x00\n        /* \"#utility.yul\":5356:5362   */\n      dup5\n        /* \"#utility.yul\":5351:5354   */\n      dup5\n        /* \"#utility.yul\":5347:5363   */\n      add\n        /* \"#utility.yul\":5340:5367   */\n      mstore\n        /* \"#utility.yul\":5189:5373   */\n      pop\n        /* \"#utility.yul\":5127:5373   */\n      pop\n      pop\n      pop\n      jump\t// out\n        /* \"#utility.yul\":5379:5756   */\n    tag_67:\n        /* \"#utility.yul\":5467:5470   */\n      0x00\n        /* \"#utility.yul\":5495:5534   */\n      tag_150\n        /* \"#utility.yul\":5528:5533   */\n      dup3\n        /* \"#utility.yul\":5495:5534   */\n      tag_64\n      jump\t// in\n    tag_150:\n        /* \"#utility.yul\":5550:5621   */\n      tag_151\n        /* \"#utility.yul\":5614:5620   */\n      dup2\n        /* \"#utility.yul\":5609:5612   */\n      dup6\n        /* \"#utility.yul\":5550:5621   */\n      tag_65\n      jump\t// in\n    tag_151:\n        /* \"#utility.yul\":5543:5621   */\n      swap4\n      pop\n        /* \"#utility.yul\":5630:5695   */\n      tag_152\n        /* \"#utility.yul\":5688:5694   */\n      dup2\n        /* \"#utility.yul\":5683:5686   */\n      dup6\n        /* \"#utility.yul\":5676:5680   */\n      0x20\n        /* \"#utility.yul\":5669:5674   */\n      dup7\n        /* \"#utility.yul\":5665:5681   */\n      add\n        /* \"#utility.yul\":5630:5695   */\n      tag_66\n      jump\t// in\n    tag_152:\n        /* \"#utility.yul\":5720:5749   */\n      tag_153\n        /* \"#utility.yul\":5742:5748   */\n      dup2\n        /* \"#utility.yul\":5720:5749   */\n      tag_56\n      jump\t// in\n    tag_153:\n        /* \"#utility.yul\":5715:5718   */\n      dup5\n        /* \"#utility.yul\":5711:5750   */\n      add\n        /* \"#utility.yul\":5704:5750   */\n      swap2\n      pop\n        /* \"#utility.yul\":5471:5756   */\n      pop\n        /* \"#utility.yul\":5379:5756   */\n      swap3\n      swap2\n      pop\n      pop\n      jump\t// out\n        /* \"#utility.yul\":5762:5880   */\n    tag_68:\n        /* \"#utility.yul\":5849:5873   */\n      tag_155\n        /* \"#utility.yul\":5867:5872   */\n      dup2\n        /* \"#utility.yul\":5849:5873   */\n      tag_51\n      jump\t// in\n    tag_155:\n        /* \"#utility.yul\":5844:5847   */\n      dup3\n        /* \"#utility.yul\":5837:5874   */\n      mstore\n        /* \"#utility.yul\":5762:5880   */\n      pop\n      pop\n      jump\t// out\n        /* \"#utility.yul\":5886:7045   */\n    tag_16:\n        /* \"#utility.yul\":6207:6211   */\n      0x00\n        /* \"#utility.yul\":6245:6248   */\n      0xe0\n        /* \"#utility.yul\":6234:6243   */\n      dup3\n        /* \"#utility.yul\":6230:6249   */\n      add\n        /* \"#utility.yul\":6222:6249   */\n      swap1\n      pop\n        /* \"#utility.yul\":6295:6304   */\n      dup2\n        /* \"#utility.yul\":6289:6293   */\n      dup2\n        /* \"#utility.yul\":6285:6305   */\n      sub\n        /* \"#utility.yul\":6281:6282   */\n      0x00\n        /* \"#utility.yul\":6270:6279   */\n      dup4\n        /* \"#utility.yul\":6266:6283   */\n      add\n        /* \"#utility.yul\":6259:6306   */\n      mstore\n        /* \"#utility.yul\":6323:6401   */\n      tag_157\n        /* \"#utility.yul\":6396:6400   */\n      dup2\n        /* \"#utility.yul\":6387:6393   */\n      dup11\n        /* \"#utility.yul\":6323:6401   */\n      tag_67\n      jump\t// in\n    tag_157:\n        /* \"#utility.yul\":6315:6401   */\n      swap1\n      pop\n        /* \"#utility.yul\":6448:6457   */\n      dup2\n        /* \"#utility.yul\":6442:6446   */\n      dup2\n        /* \"#utility.yul\":6438:6458   */\n      sub\n        /* \"#utility.yul\":6433:6435   */\n      0x20\n        /* \"#utility.yul\":6422:6431   */\n      dup4\n        /* \"#utility.yul\":6418:6436   */\n      add\n        /* \"#utility.yul\":6411:6459   */\n      mstore\n        /* \"#utility.yul\":6476:6554   */\n      tag_158\n        /* \"#utility.yul\":6549:6553   */\n      dup2\n        /* \"#utility.yul\":6540:6546   */\n      dup10\n        /* \"#utility.yul\":6476:6554   */\n      tag_67\n      jump\t// in\n    tag_158:\n        /* \"#utility.yul\":6468:6554   */\n      swap1\n      pop\n        /* \"#utility.yul\":6564:6636   */\n      tag_159\n        /* \"#utility.yul\":6632:6634   */\n      0x40\n        /* \"#utility.yul\":6621:6630   */\n      dup4\n        /* \"#utility.yul\":6617:6635   */\n      add\n        /* \"#utility.yul\":6608:6614   */\n      dup9\n        /* \"#utility.yul\":6564:6636   */\n      tag_68\n      jump\t// in\n    tag_159:\n        /* \"#utility.yul\":6646:6718   */\n      tag_160\n        /* \"#utility.yul\":6714:6716   */\n      0x60\n        /* \"#utility.yul\":6703:6712   */\n      dup4\n        /* \"#utility.yul\":6699:6717   */\n      add\n        /* \"#utility.yul\":6690:6696   */\n      dup8\n        /* \"#utility.yul\":6646:6718   */\n      tag_68\n      jump\t// in\n    tag_160:\n        /* \"#utility.yul\":6728:6801   */\n      tag_161\n        /* \"#utility.yul\":6796:6799   */\n      0x80\n        /* \"#utility.yul\":6785:6794   */\n      dup4\n        /* \"#utility.yul\":6781:6800   */\n      add\n        /* \"#utility.yul\":6772:6778   */\n      dup7\n        /* \"#utility.yul\":6728:6801   */\n      tag_68\n      jump\t// in\n    tag_161:\n        /* \"#utility.yul\":6849:6858   */\n      dup2\n        /* \"#utility.yul\":6843:6847   */\n      dup2\n        /* \"#utility.yul\":6839:6859   */\n      sub\n        /* \"#utility.yul\":6833:6836   */\n      0xa0\n        /* \"#utility.yul\":6822:6831   */\n      dup4\n        /* \"#utility.yul\":6818:6837   */\n      add\n        /* \"#utility.yul\":6811:6860   */\n      mstore\n        /* \"#utility.yul\":6877:6955   */\n      tag_162\n        /* \"#utility.yul\":6950:6954   */\n      dup2\n        /* \"#utility.yul\":6941:6947   */\n      dup6\n        /* \"#utility.yul\":6877:6955   */\n      tag_67\n      jump\t// in\n    tag_162:\n        /* \"#utility.yul\":6869:6955   */\n      swap1\n      pop\n        /* \"#utility.yul\":6965:7038   */\n      tag_163\n        /* \"#utility.yul\":7033:7036   */\n      0xc0\n        /* \"#utility.yul\":7022:7031   */\n      dup4\n        /* \"#utility.yul\":7018:7037   */\n      add\n        /* \"#utility.yul\":7009:7015   */\n      dup5\n        /* \"#utility.yul\":6965:7038   */\n      tag_68\n      jump\t// in\n    tag_163:\n        /* \"#utility.yul\":5886:7045   */\n      swap9\n      swap8\n      pop\n      pop\n      pop\n      pop\n      pop\n      pop\n      pop\n      pop\n      jump\t// out\n        /* \"#utility.yul\":7051:7525   */\n    tag_19:\n        /* \"#utility.yul\":7119:7125   */\n      0x00\n        /* \"#utility.yul\":7127:7133   */\n      dup1\n        /* \"#utility.yul\":7176:7178   */\n      0x40\n        /* \"#utility.yul\":7164:7173   */\n      dup4\n        /* \"#utility.yul\":7155:7162   */\n      dup6\n        /* \"#utility.yul\":7151:7174   */\n      sub\n        /* \"#utility.yul\":7147:7179   */\n      slt\n        /* \"#utility.yul\":7144:7263   */\n      iszero\n      tag_165\n      jumpi\n        /* \"#utility.yul\":7182:7261   */\n      tag_166\n      tag_49\n      jump\t// in\n    tag_166:\n        /* \"#utility.yul\":7144:7263   */\n    tag_165:\n        /* \"#utility.yul\":7302:7303   */\n      0x00\n        /* \"#utility.yul\":7327:7380   */\n      tag_167\n        /* \"#utility.yul\":7372:7379   */\n      dup6\n        /* \"#utility.yul\":7363:7369   */\n      dup3\n        /* \"#utility.yul\":7352:7361   */\n      dup7\n        /* \"#utility.yul\":7348:7370   */\n      add\n        /* \"#utility.yul\":7327:7380   */\n      tag_53\n      jump\t// in\n    tag_167:\n        /* \"#utility.yul\":7317:7380   */\n      swap3\n      pop\n        /* \"#utility.yul\":7273:7390   */\n      pop\n        /* \"#utility.yul\":7429:7431   */\n      0x20\n        /* \"#utility.yul\":7455:7508   */\n      tag_168\n        /* \"#utility.yul\":7500:7507   */\n      dup6\n        /* \"#utility.yul\":7491:7497   */\n      dup3\n        /* \"#utility.yul\":7480:7489   */\n      dup7\n        /* \"#utility.yul\":7476:7498   */\n      add\n        /* \"#utility.yul\":7455:7508   */\n      tag_53\n      jump\t// in\n    tag_168:\n        /* \"#utility.yul\":7445:7508   */\n      swap2\n      pop\n        /* \"#utility.yul\":7400:7518   */\n      pop\n        /* \"#utility.yul\":7051:7525   */\n      swap3\n      pop\n      swap3\n      swap1\n      pop\n      jump\t// out\n        /* \"#utility.yul\":7531:7711   */\n    tag_69:\n        /* \"#utility.yul\":7579:7656   */\n      0x4e487b7100000000000000000000000000000000000000000000000000000000\n        /* \"#utility.yul\":7576:7577   */\n      0x00\n        /* \"#utility.yul\":7569:7657   */\n      mstore\n        /* \"#utility.yul\":7676:7680   */\n      0x22\n        /* \"#utility.yul\":7673:7674   */\n      0x04\n        /* \"#utility.yul\":7666:7681   */\n      mstore\n        /* \"#utility.yul\":7700:7704   */\n      0x24\n        /* \"#utility.yul\":7697:7698   */\n      0x00\n        /* \"#utility.yul\":7690:7705   */\n      revert\n        /* \"#utility.yul\":7717:8037   */\n    tag_27:\n        /* \"#utility.yul\":7761:7767   */\n      0x00\n        /* \"#utility.yul\":7798:7799   */\n      0x02\n        /* \"#utility.yul\":7792:7796   */\n      dup3\n        /* \"#utility.yul\":7788:7800   */\n      div\n        /* \"#utility.yul\":7778:7800   */\n      swap1\n      pop\n        /* \"#utility.yul\":7845:7846   */\n      0x01\n        /* \"#utility.yul\":7839:7843   */\n      dup3\n        /* \"#utility.yul\":7835:7847   */\n      and\n        /* \"#utility.yul\":7866:7884   */\n      dup1\n        /* \"#utility.yul\":7856:7937   */\n      tag_171\n      jumpi\n        /* \"#utility.yul\":7922:7926   */\n      0x7f\n        /* \"#utility.yul\":7914:7920   */\n      dup3\n        /* \"#utility.yul\":7910:7927   */\n      and\n        /* \"#utility.yul\":7900:7927   */\n      swap2\n      pop\n        /* \"#utility.yul\":7856:7937   */\n    tag_171:\n        /* \"#utility.yul\":7984:7986   */\n      0x20\n        /* \"#utility.yul\":7976:7982   */\n      dup3\n        /* \"#utility.yul\":7973:7987   */\n      lt\n        /* \"#utility.yul\":7953:7971   */\n      dup2\n        /* \"#utility.yul\":7950:7988   */\n      sub\n        /* \"#utility.yul\":7947:8031   */\n      tag_172\n      jumpi\n        /* \"#utility.yul\":8003:8021   */\n      tag_173\n      tag_69\n      jump\t// in\n    tag_173:\n        /* \"#utility.yul\":7947:8031   */\n    tag_172:\n        /* \"#utility.yul\":7768:8037   */\n      pop\n        /* \"#utility.yul\":7717:8037   */\n      swap2\n      swap1\n      pop\n      jump\t// out\n        /* \"#utility.yul\":8043:8184   */\n    tag_70:\n        /* \"#utility.yul\":8092:8096   */\n      0x00\n        /* \"#utility.yul\":8115:8118   */\n      dup2\n        /* \"#utility.yul\":8107:8118   */\n      swap1\n      pop\n        /* \"#utility.yul\":8138:8141   */\n      dup2\n        /* \"#utility.yul\":8135:8136   */\n      0x00\n        /* \"#utility.yul\":8128:8142   */\n      mstore\n        /* \"#utility.yul\":8172:8176   */\n      0x20\n        /* \"#utility.yul\":8169:8170   */\n      0x00\n        /* \"#utility.yul\":8159:8177   */\n      keccak256\n        /* \"#utility.yul\":8151:8177   */\n      swap1\n      pop\n        /* \"#utility.yul\":8043:8184   */\n      swap2\n      swap1\n      pop\n      jump\t// out\n        /* \"#utility.yul\":8190:8283   */\n    tag_71:\n        /* \"#utility.yul\":8227:8233   */\n      0x00\n        /* \"#utility.yul\":8274:8276   */\n      0x20\n        /* \"#utility.yul\":8269:8271   */\n      0x1f\n        /* \"#utility.yul\":8262:8267   */\n      dup4\n        /* \"#utility.yul\":8258:8272   */\n      add\n        /* \"#utility.yul\":8254:8277   */\n      div\n        /* \"#utility.yul\":8244:8277   */\n      swap1\n      pop\n        /* \"#utility.yul\":8190:8283   */\n      swap2\n      swap1\n      pop\n      jump\t// out\n        /* \"#utility.yul\":8289:8396   */\n    tag_72:\n        /* \"#utility.yul\":8333:8341   */\n      0x00\n        /* \"#utility.yul\":8383:8388   */\n      dup3\n        /* \"#utility.yul\":8377:8381   */\n      dup3\n        /* \"#utility.yul\":8373:8389   */\n      shl\n        /* \"#utility.yul\":8352:8389   */\n      swap1\n      pop\n        /* \"#utility.yul\":8289:8396   */\n      swap3\n      swap2\n      pop\n      pop\n      jump\t// out\n        /* \"#utility.yul\":8402:8795   */\n    tag_73:\n        /* \"#utility.yul\":8471:8477   */\n      0x00\n        /* \"#utility.yul\":8521:8522   */\n      0x08\n        /* \"#utility.yul\":8509:8519   */\n      dup4\n        /* \"#utility.yul\":8505:8523   */\n      mul\n        /* \"#utility.yul\":8544:8641   */\n      tag_178\n        /* \"#utility.yul\":8574:8640   */\n      0xffffffffffffffffffffffffffffffffffffffffffffffffffffffffffffffff\n        /* \"#utility.yul\":8563:8572   */\n      dup3\n        /* \"#utility.yul\":8544:8641   */\n      tag_72\n      jump\t// in\n    tag_178:\n        /* \"#utility.yul\":8662:8701   */\n      tag_179\n        /* \"#utility.yul\":8692:8700   */\n      dup7\n        /* \"#utility.yul\":8681:8690   */\n      dup4\n        /* \"#utility.yul\":8662:8701   */\n      tag_72\n      jump\t// in\n    tag_179:\n        /* \"#utility.yul\":8650:8701   */\n      swap6\n      pop\n        /* \"#utility.yul\":8734:8738   */\n      dup1\n        /* \"#utility.yul\":8730:8739   */\n      not\n        /* \"#utility.yul\":8723:8728   */\n      dup5\n        /* \"#utility.yul\":8719:8740   */\n      and\n        /* \"#utility.yul\":8710:8740   */\n      swap4\n      pop\n        /* \"#utility.yul\":8783:8787   */\n      dup1\n        /* \"#utility.yul\":8773:8781   */\n      dup7\n        /* \"#utility.yul\":8769:8788   */\n      and\n        /* \"#utility.yul\":8762:8767   */\n      dup5\n        /* \"#utility.yul\":8759:8789   */\n      or\n        /* \"#utility.yul\":8749:8789   */\n      swap3\n      pop\n        /* \"#utility.yul\":8478:8795   */\n      pop\n      pop\n        /* \"#utility.yul\":8402:8795   */\n      swap4\n      swap3\n      pop\n      pop\n      pop\n      jump\t// out\n        /* \"#utility.yul\":8801:8861   */\n    tag_74:\n        /* \"#utility.yul\":8829:8832   */\n      0x00\n        /* \"#utility.yul\":8850:8855   */\n      dup2\n        /* \"#utility.yul\":8843:8855   */\n      swap1\n      pop\n        /* \"#utility.yul\":8801:8861   */\n      swap2\n      swap1\n      pop\n      jump\t// out\n        /* \"#utility.yul\":8867:9009   */\n    tag_75:\n        /* \"#utility.yul\":8917:8926   */\n      0x00\n        /* \"#utility.yul\":8950:9003   */\n      tag_182\n        /* \"#utility.yul\":8968:9002   */\n      tag_183\n        /* \"#utility.yul\":8977:9001   */\n      tag_184\n        /* \"#utility.yul\":8995:9000   */\n      dup5\n        /* \"#utility.yul\":8977:9001   */\n      tag_51\n      jump\t// in\n    tag_184:\n        /* \"#utility.yul\":8968:9002   */\n      tag_74\n      jump\t// in\n    tag_183:\n        /* \"#utility.yul\":8950:9003   */\n      tag_51\n      jump\t// in\n    tag_182:\n        /* \"#utility.yul\":8937:9003   */\n      swap1\n      pop\n        /* \"#utility.yul\":8867:9009   */\n      swap2\n      swap1\n      pop\n      jump\t// out\n        /* \"#utility.yul\":9015:9090   */\n    tag_76:\n        /* \"#utility.yul\":9058:9061   */\n      0x00\n        /* \"#utility.yul\":9079:9084   */\n      dup2\n        /* \"#utility.yul\":9072:9084   */\n      swap1\n      pop\n        /* \"#utility.yul\":9015:9090   */\n      swap2\n      swap1\n      pop\n      jump\t// out\n        /* \"#utility.yul\":9096:9365   */\n    tag_77:\n        /* \"#utility.yul\":9206:9245   */\n      tag_187\n        /* \"#utility.yul\":9237:9244   */\n      dup4\n        /* \"#utility.yul\":9206:9245   */\n      tag_75\n      jump\t// in\n    tag_187:\n        /* \"#utility.yul\":9267:9358   */\n      tag_188\n        /* \"#utility.yul\":9316:9357   */\n      tag_189\n        /* \"#utility.yul\":9340:9356   */\n      dup3\n        /* \"#utility.yul\":9316:9357   */\n      tag_76\n      jump\t// in\n    tag_189:\n        /* \"#utility.yul\":9308:9314   */\n      dup5\n        /* \"#utility.yul\":9301:9305   */\n      dup5\n        /* \"#utility.yul\":9295:9306   */\n      sload\n        /* \"#utility.yul\":9267:9358   */\n      tag_73\n      jump\t// in\n    tag_188:\n        /* \"#utility.yul\":9261:9265   */\n      dup3\n        /* \"#utility.yul\":9254:9359   */\n      sstore\n        /* \"#utility.yul\":9172:9365   */\n      pop\n        /* \"#utility.yul\":9096:9365   */\n      pop\n      pop\n      pop\n      jump\t// out\n        /* \"#utility.yul\":9371:9444   */\n    tag_78:\n        /* \"#utility.yul\":9416:9419   */\n      0x00\n        /* \"#utility.yul\":9371:9444   */\n      swap1\n      jump\t// out\n        /* \"#utility.yul\":9450:9639   */\n    tag_79:\n        /* \"#utility.yul\":9527:9559   */\n      tag_192\n      tag_78\n      jump\t// in\n    tag_192:\n        /* \"#utility.yul\":9568:9633   */\n      tag_193\n        /* \"#utility.yul\":9626:9632   */\n      dup2\n        /* \"#utility.yul\":9618:9624   */\n      dup5\n        /* \"#utility.yul\":9612:9616   */\n      dup5\n        /* \"#utility.yul\":9568:9633   */\n      tag_77\n      jump\t// in\n    tag_193:\n        /* \"#utility.yul\":9503:9639   */\n      pop\n        /* \"#utility.yul\":9450:9639   */\n      pop\n      pop\n      jump\t// out\n        /* \"#utility.yul\":9645:9831   */\n    tag_80:\n        /* \"#utility.yul\":9705:9825   */\n    tag_195:\n        /* \"#utility.yul\":9722:9725   */\n      dup2\n        /* \"#utility.yul\":9715:9720   */\n      dup2\n        /* \"#utility.yul\":9712:9726   */\n      lt\n        /* \"#utility.yul\":9705:9825   */\n      iszero\n      tag_197\n      jumpi\n        /* \"#utility.yul\":9776:9815   */\n      tag_198\n        /* \"#utility.yul\":9813:9814   */\n      0x00\n        /* \"#utility.yul\":9806:9811   */\n      dup3\n        /* \"#utility.yul\":9776:9815   */\n      tag_79\n      jump\t// in\n    tag_198:\n        /* \"#utility.yul\":9749:9750   */\n      0x01\n        /* \"#utility.yul\":9742:9747   */\n      dup2\n        /* \"#utility.yul\":9738:9751   */\n      add\n        /* \"#utility.yul\":9729:9751   */\n      swap1\n      pop\n        /* \"#utility.yul\":9705:9825   */\n      jump(tag_195)\n    tag_197:\n        /* \"#utility.yul\":9645:9831   */\n      pop\n      pop\n      jump\t// out\n        /* \"#utility.yul\":9837:10380   */\n    tag_81:\n        /* \"#utility.yul\":9938:9940   */\n      0x1f\n        /* \"#utility.yul\":9933:9936   */\n      dup3\n        /* \"#utility.yul\":9930:9941   */\n      gt\n        /* \"#utility.yul\":9927:10373   */\n      iszero\n      tag_200\n      jumpi\n        /* \"#utility.yul\":9972:10010   */\n      tag_201\n        /* \"#utility.yul\":10004:10009   */\n      dup2\n        /* \"#utility.yul\":9972:10010   */\n      tag_70\n      jump\t// in\n    tag_201:\n        /* \"#utility.yul\":10056:10085   */\n      tag_202\n        /* \"#utility.yul\":10074:10084   */\n      dup5\n        /* \"#utility.yul\":10056:10085   */\n      tag_71\n      jump\t// in\n    tag_202:\n        /* \"#utility.yul\":10046:10054   */\n      dup2\n        /* \"#utility.yul\":10042:10086   */\n      add\n        /* \"#utility.yul\":10239:10241   */\n      0x20\n        /* \"#utility.yul\":10227:10237   */\n      dup6\n        /* \"#utility.yul\":10224:10242   */\n      lt\n        /* \"#utility.yul\":10221:10270   */\n      iszero\n      tag_203\n      jumpi\n        /* \"#utility.yul\":10260:10268   */\n      dup2\n        /* \"#utility.yul\":10245:10268   */\n      swap1\n      pop\n        /* \"#utility.yul\":10221:10270   */\n    tag_203:\n        /* \"#utility.yul\":10283:10363   */\n      tag_204\n        /* \"#utility.yul\":10339:10361   */\n      tag_205\n        /* \"#utility.yul\":10357:10360   */\n      dup6\n        /* \"#utility.yul\":10339:10361   */\n      tag_71\n      jump\t// in\n    tag_205:\n        /* \"#utility.yul\":10329:10337   */\n      dup4\n        /* \"#utility.yul\":10325:10362   */\n      add\n        /* \"#utility.yul\":10312:10323   */\n      dup3\n        /* \"#utility.yul\":10283:10363   */\n      tag_80\n      jump\t// in\n    tag_204:\n        /* \"#utility.yul\":9942:10373   */\n      pop\n      pop\n        /* \"#utility.yul\":9927:10373   */\n    tag_200:\n        /* \"#utility.yul\":9837:10380   */\n      pop\n      pop\n      pop\n      jump\t// out\n        /* \"#utility.yul\":10386:10503   */\n    tag_82:\n        /* \"#utility.yul\":10440:10448   */\n      0x00\n        /* \"#utility.yul\":10490:10495   */\n      dup3\n        /* \"#utility.yul\":10484:10488   */\n      dup3\n        /* \"#utility.yul\":10480:10496   */\n      shr\n        /* \"#utility.yul\":10459:10496   */\n      swap1\n      pop\n        /* \"#utility.yul\":10386:10503   */\n      swap3\n      swap2\n      pop\n      pop\n      jump\t// out\n        /* \"#utility.yul\":10509:10678   */\n    tag_83:\n        /* \"#utility.yul\":10553:10559   */\n      0x00\n        /* \"#utility.yul\":10586:10637   */\n      tag_208\n        /* \"#utility.yul\":10634:10635   */\n      0x00\n        /* \"#utility.yul\":10630:10636   */\n      not\n        /* \"#utility.yul\":10622:10627   */\n      dup5\n        /* \"#utility.yul\":10619:10620   */\n      0x08\n        /* \"#utility.yul\":10615:10628   */\n      mul\n        /* \"#utility.yul\":10586:10637   */\n      tag_82\n      jump\t// in\n    tag_208:\n        /* \"#utility.yul\":10582:10638   */\n      not\n        /* \"#utility.yul\":10667:10671   */\n      dup1\n        /* \"#utility.yul\":10661:10665   */\n      dup4\n        /* \"#utility.yul\":10657:10672   */\n      and\n        /* \"#utility.yul\":10647:10672   */\n      swap2\n      pop\n        /* \"#utility.yul\":10560:10678   */\n      pop\n        /* \"#utility.yul\":10509:10678   */\n      swap3\n      swap2\n      pop\n      pop\n      jump\t// out\n        /* \"#utility.yul\":10683:10978   */\n    tag_84:\n        /* \"#utility.yul\":10759:10763   */\n      0x00\n        /* \"#utility.yul\":10905:10934   */\n      tag_210\n        /* \"#utility.yul\":10930:10933   */\n      dup4\n        /* \"#utility.yul\":10924:10928   */\n      dup4\n        /* \"#utility.yul\":10905:10934   */\n      tag_83\n      jump\t// in\n    tag_210:\n        /* \"#utility.yul\":10897:10934   */\n      swap2\n      pop\n        /* \"#utility.yul\":10967:10970   */\n      dup3\n        /* \"#utility.yul\":10964:10965   */\n      0x02\n        /* \"#utility.yul\":10960:10971   */\n      mul\n        /* \"#utility.yul\":10954:10958   */\n      dup3\n        /* \"#utility.yul\":10951:10972   */\n      or\n        /* \"#utility.yul\":10943:10972   */\n      swap1\n      pop\n        /* \"#utility.yul\":10683:10978   */\n      swap3\n      swap2\n      pop\n      pop\n      jump\t// out\n        /* \"#utility.yul\":10983:12378   */\n    tag_23:\n        /* \"#utility.yul\":11100:11137   */\n      tag_212\n        /* \"#utility.yul\":11133:11136   */\n      dup3\n        /* \"#utility.yul\":11100:11137   */\n      tag_64\n      jump\t// in\n    tag_212:\n        /* \"#utility.yul\":11202:11220   */\n      0xffffffffffffffff\n        /* \"#utility.yul\":11194:11200   */\n      dup2\n        /* \"#utility.yul\":11191:11221   */\n      gt\n        /* \"#utility.yul\":11188:11244   */\n      iszero\n      tag_213\n      jumpi\n        /* \"#utility.yul\":11224:11242   */\n      tag_214\n      tag_57\n      jump\t// in\n    tag_214:\n        /* \"#utility.yul\":11188:11244   */\n    tag_213:\n        /* \"#utility.yul\":11268:11306   */\n      tag_215\n        /* \"#utility.yul\":11300:11304   */\n      dup3\n        /* \"#utility.yul\":11294:11305   */\n      sload\n        /* \"#utility.yul\":11268:11306   */\n      tag_27\n      jump\t// in\n    tag_215:\n        /* \"#utility.yul\":11353:11420   */\n      tag_216\n        /* \"#utility.yul\":11413:11419   */\n      dup3\n        /* \"#utility.yul\":11405:11411   */\n      dup3\n        /* \"#utility.yul\":11399:11403   */\n      dup6\n        /* \"#utility.yul\":11353:11420   */\n      tag_81\n      jump\t// in\n    tag_216:\n        /* \"#utility.yul\":11447:11448   */\n      0x00\n        /* \"#utility.yul\":11471:11475   */\n      0x20\n        /* \"#utility.yul\":11458:11475   */\n      swap1\n      pop\n        /* \"#utility.yul\":11503:11505   */\n      0x1f\n        /* \"#utility.yul\":11495:11501   */\n      dup4\n        /* \"#utility.yul\":11492:11506   */\n      gt\n        /* \"#utility.yul\":11520:11521   */\n      0x01\n        /* \"#utility.yul\":11515:12133   */\n      dup2\n      eq\n      tag_218\n      jumpi\n        /* \"#utility.yul\":12177:12178   */\n      0x00\n        /* \"#utility.yul\":12194:12200   */\n      dup5\n        /* \"#utility.yul\":12191:12268   */\n      iszero\n      tag_219\n      jumpi\n        /* \"#utility.yul\":12243:12252   */\n      dup3\n        /* \"#utility.yul\":12238:12241   */\n      dup8\n        /* \"#utility.yul\":12234:12253   */\n      add\n        /* \"#utility.yul\":12228:12254   */\n      mload\n        /* \"#utility.yul\":12219:12254   */\n      swap1\n      pop\n        /* \"#utility.yul\":12191:12268   */\n    tag_219:\n        /* \"#utility.yul\":12294:12361   */\n      tag_220\n        /* \"#utility.yul\":12354:12360   */\n      dup6\n        /* \"#utility.yul\":12347:12352   */\n      dup3\n        /* \"#utility.yul\":12294:12361   */\n      tag_84\n      jump\t// in\n    tag_220:\n        /* \"#utility.yul\":12288:12292   */\n      dup7\n        /* \"#utility.yul\":12281:12362   */\n      sstore\n        /* \"#utility.yul\":12150:12372   */\n      pop\n        /* \"#utility.yul\":11485:12372   */\n      jump(tag_217)\n        /* \"#utility.yul\":11515:12133   */\n    tag_218:\n        /* \"#utility.yul\":11567:11571   */\n      0x1f\n        /* \"#utility.yul\":11563:11572   */\n      not\n        /* \"#utility.yul\":11555:11561   */\n      dup5\n        /* \"#utility.yul\":11551:11573   */\n      and\n        /* \"#utility.yul\":11601:11638   */\n      tag_221\n        /* \"#utility.yul\":11633:11637   */\n      dup7\n        /* \"#utility.yul\":11601:11638   */\n      tag_70\n      jump\t// in\n    tag_221:\n        /* \"#utility.yul\":11660:11661   */\n      0x00\n        /* \"#utility.yul\":11674:11882   */\n    tag_222:\n        /* \"#utility.yul\":11688:11695   */\n      dup3\n        /* \"#utility.yul\":11685:11686   */\n      dup2\n        /* \"#utility.yul\":11682:11696   */\n      lt\n        /* \"#utility.yul\":11674:11882   */\n      iszero\n      tag_224\n      jumpi\n        /* \"#utility.yul\":11767:11776   */\n      dup5\n        /* \"#utility.yul\":11762:11765   */\n      dup10\n        /* \"#utility.yul\":11758:11777   */\n      add\n        /* \"#utility.yul\":11752:11778   */\n      mload\n        /* \"#utility.yul\":11744:11750   */\n      dup3\n        /* \"#utility.yul\":11737:11779   */\n      sstore\n        /* \"#utility.yul\":11818:11819   */\n      0x01\n        /* \"#utility.yul\":11810:11816   */\n      dup3\n        /* \"#utility.yul\":11806:11820   */\n      add\n        /* \"#utility.yul\":11796:11820   */\n      swap2\n      pop\n        /* \"#utility.yul\":11865:11867   */\n      0x20\n        /* \"#utility.yul\":11854:11863   */\n      dup6\n        /* \"#utility.yul\":11850:11868   */\n      add\n        /* \"#utility.yul\":11837:11868   */\n      swap5\n      pop\n        /* \"#utility.yul\":11711:11715   */\n      0x20\n        /* \"#utility.yul\":11708:11709   */\n      dup2\n        /* \"#utility.yul\":11704:11716   */\n      add\n        /* \"#utility.yul\":11699:11716   */\n      swap1\n      pop\n        /* \"#utility.yul\":11674:11882   */\n      jump(tag_222)\n    tag_224:\n        /* \"#utility.yul\":11910:11916   */\n      dup7\n        /* \"#utility.yul\":11901:11908   */\n      dup4\n        /* \"#utility.yul\":11898:11917   */\n      lt\n        /* \"#utility.yul\":11895:12074   */\n      iszero\n      tag_225\n      jumpi\n        /* \"#utility.yul\":11968:11977   */\n      dup5\n        /* \"#utility.yul\":11963:11966   */\n      dup10\n        /* \"#utility.yul\":11959:11978   */\n      add\n        /* \"#utility.yul\":11953:11979   */\n      mload\n        /* \"#utility.yul\":12011:12059   */\n      tag_226\n        /* \"#utility.yul\":12053:12057   */\n      0x1f\n        /* \"#utility.yul\":12045:12051   */\n      dup10\n        /* \"#utility.yul\":12041:12058   */\n      and\n        /* \"#utility.yul\":12030:12039   */\n      dup3\n        /* \"#utility.yul\":12011:12059   */\n      tag_83\n      jump\t// in\n    tag_226:\n        /* \"#utility.yul\":12003:12009   */\n      dup4\n        /* \"#utility.yul\":11996:12060   */\n      sstore\n        /* \"#utility.yul\":11918:12074   */\n      pop\n        /* \"#utility.yul\":11895:12074   */\n    tag_225:\n        /* \"#utility.yul\":12120:12121   */\n      0x01\n        /* \"#utility.yul\":12116:12117   */\n      0x02\n        /* \"#utility.yul\":12108:12114   */\n      dup9\n        /* \"#utility.yul\":12104:12118   */\n      mul\n        /* \"#utility.yul\":12100:12122   */\n      add\n        /* \"#utility.yul\":12094:12098   */\n      dup9\n        /* \"#utility.yul\":12087:12123   */\n      sstore\n        /* \"#utility.yul\":11522:12133   */\n      pop\n      pop\n      pop\n        /* \"#utility.yul\":11485:12372   */\n    tag_217:\n      pop\n        /* \"#utility.yul\":11075:12378   */\n      pop\n      pop\n      pop\n        /* \"#utility.yul\":10983:12378   */\n      pop\n      pop\n      jump\t// out\n        /* \"#utility.yul\":12384:12564   */\n    tag_85:\n        /* \"#utility.yul\":12432:12509   */\n      0x4e487b7100000000000000000000000000000000000000000000000000000000\n        /* \"#utility.yul\":12429:12430   */\n      0x00\n        /* \"#utility.yul\":12422:12510   */\n      mstore\n        /* \"#utility.yul\":12529:12533   */\n      0x11\n        /* \"#utility.yul\":12526:12527   */\n      0x04\n        /* \"#utility.yul\":12519:12534   */\n      mstore\n        /* \"#utility.yul\":12553:12557   */\n      0x24\n        /* \"#utility.yul\":12550:12551   */\n      0x00\n        /* \"#utility.yul\":12543:12558   */\n      revert\n        /* \"#utility.yul\":12570:12980   */\n    tag_44:\n        /* \"#utility.yul\":12610:12617   */\n      0x00\n        /* \"#utility.yul\":12633:12653   */\n      tag_229\n        /* \"#utility.yul\":12651:12652   */\n      dup3\n        /* \"#utility.yul\":12633:12653   */\n      tag_51\n      jump\t// in\n    tag_229:\n        /* \"#utility.yul\":12628:12653   */\n      swap2\n      pop\n        /* \"#utility.yul\":12667:12687   */\n      tag_230\n        /* \"#utility.yul\":12685:12686   */\n      dup4\n        /* \"#utility.yul\":12667:12687   */\n      tag_51\n      jump\t// in\n    tag_230:\n        /* \"#utility.yul\":12662:12687   */\n      swap3\n      pop\n        /* \"#utility.yul\":12722:12723   */\n      dup3\n        /* \"#utility.yul\":12719:12720   */\n      dup3\n        /* \"#utility.yul\":12715:12724   */\n      mul\n        /* \"#utility.yul\":12744:12774   */\n      tag_231\n        /* \"#utility.yul\":12762:12773   */\n      dup2\n        /* \"#utility.yul\":12744:12774   */\n      tag_51\n      jump\t// in\n    tag_231:\n        /* \"#utility.yul\":12733:12774   */\n      swap2\n      pop\n        /* \"#utility.yul\":12923:12924   */\n      dup3\n        /* \"#utility.yul\":12914:12921   */\n      dup3\n        /* \"#utility.yul\":12910:12925   */\n      div\n        /* \"#utility.yul\":12907:12908   */\n      dup5\n        /* \"#utility.yul\":12904:12926   */\n      eq\n        /* \"#utility.yul\":12884:12885   */\n      dup4\n        /* \"#utility.yul\":12877:12886   */\n      iszero\n        /* \"#utility.yul\":12857:12940   */\n      or\n        /* \"#utility.yul\":12834:12973   */\n      tag_232\n      jumpi\n        /* \"#utility.yul\":12953:12971   */\n      tag_233\n      tag_85\n      jump\t// in\n    tag_233:\n        /* \"#utility.yul\":12834:12973   */\n    tag_232:\n        /* \"#utility.yul\":12618:12980   */\n      pop\n        /* \"#utility.yul\":12570:12980   */\n      swap3\n      swap2\n      pop\n      pop\n      jump\t// out\n        /* \"#utility.yul\":12986:13154   */\n    tag_86:\n        /* \"#utility.yul\":13126:13146   */\n      0x46656573204e6f742066756c6c207061792e0000000000000000000000000000\n        /* \"#utility.yul\":13122:13123   */\n      0x00\n        /* \"#utility.yul\":13114:13120   */\n      dup3\n        /* \"#utility.yul\":13110:13124   */\n      add\n        /* \"#utility.yul\":13103:13147   */\n      mstore\n        /* \"#utility.yul\":12986:13154   */\n      pop\n      jump\t// out\n        /* \"#utility.yul\":13160:13526   */\n    tag_87:\n        /* \"#utility.yul\":13302:13305   */\n      0x00\n        /* \"#utility.yul\":13323:13390   */\n      tag_236\n        /* \"#utility.yul\":13387:13389   */\n      0x12\n        /* \"#utility.yul\":13382:13385   */\n      dup4\n        /* \"#utility.yul\":13323:13390   */\n      tag_65\n      jump\t// in\n    tag_236:\n        /* \"#utility.yul\":13316:13390   */\n      swap2\n      pop\n        /* \"#utility.yul\":13399:13492   */\n      tag_237\n        /* \"#utility.yul\":13488:13491   */\n      dup3\n        /* \"#utility.yul\":13399:13492   */\n      tag_86\n      jump\t// in\n    tag_237:\n        /* \"#utility.yul\":13517:13519   */\n      0x20\n        /* \"#utility.yul\":13512:13515   */\n      dup3\n        /* \"#utility.yul\":13508:13520   */\n      add\n        /* \"#utility.yul\":13501:13520   */\n      swap1\n      pop\n        /* \"#utility.yul\":13160:13526   */\n      swap2\n      swap1\n      pop\n      jump\t// out\n        /* \"#utility.yul\":13532:13951   */\n    tag_47:\n        /* \"#utility.yul\":13698:13702   */\n      0x00\n        /* \"#utility.yul\":13736:13738   */\n      0x20\n        /* \"#utility.yul\":13725:13734   */\n      dup3\n        /* \"#utility.yul\":13721:13739   */\n      add\n        /* \"#utility.yul\":13713:13739   */\n      swap1\n      pop\n        /* \"#utility.yul\":13785:13794   */\n      dup2\n        /* \"#utility.yul\":13779:13783   */\n      dup2\n        /* \"#utility.yul\":13775:13795   */\n      sub\n        /* \"#utility.yul\":13771:13772   */\n      0x00\n        /* \"#utility.yul\":13760:13769   */\n      dup4\n        /* \"#utility.yul\":13756:13773   */\n      add\n        /* \"#utility.yul\":13749:13796   */\n      mstore\n        /* \"#utility.yul\":13813:13944   */\n      tag_239\n        /* \"#utility.yul\":13939:13943   */\n      dup2\n        /* \"#utility.yul\":13813:13944   */\n      tag_87\n      jump\t// in\n    tag_239:\n        /* \"#utility.yul\":13805:13944   */\n      swap1\n      pop\n        /* \"#utility.yul\":13532:13951   */\n      swap2\n      swap1\n      pop\n      jump\t// out\n\n    auxdata: 0xa26469706673582212203437ec809130ba2d773b60f111b13501e3a4c1d3a0feeca9bff8f0cb8eba42af64736f6c63430008120033\n}\n",
				"bytecode": {
					"linkReferences": {},
					"object": "608060405234801561001057600080fd5b50610c00806100206000396000f3fe6080604052600436106100345760003560e01c8063b824fbf014610039578063c332136314610062578063f4533749146100a5575b600080fd5b34801561004557600080fd5b50610060600480360381019061005b91906105af565b6100c1565b005b34801561006e57600080fd5b5061008960048036038101906100849190610690565b610188565b60405161009c979695949392919061074b565b60405180910390f35b6100bf60048036038101906100ba91906107cf565b610362565b005b600083905060004290506040518060e0016040528088815260200187815260200182815260200186815260200183815260200185815260200184815250600260008a815260200190815260200160002060008201518160000190816101269190610a1b565b50602082015181600101908161013c9190610a1b565b5060408201518160020155606082015181600301556080820151816004015560a08201518160050190816101709190610a1b565b5060c082015181600601559050505050505050505050565b60026020528060005260406000206000915090508060000180546101ab9061083e565b80601f01602080910402602001604051908101604052809291908181526020018280546101d79061083e565b80156102245780601f106101f957610100808354040283529160200191610224565b820191906000526020600020905b81548152906001019060200180831161020757829003601f168201915b5050505050908060010180546102399061083e565b80601f01602080910402602001604051908101604052809291908181526020018280546102659061083e565b80156102b25780601f10610287576101008083540402835291602001916102b2565b820191906000526020600020905b81548152906001019060200180831161029557829003601f168201915b5050505050908060020154908060030154908060040154908060050180546102d99061083e565b80601f01602080910402602001604051908101604052809291908181526020018280546103059061083e565b80156103525780601f1061032757610100808354040283529160200191610352565b820191906000526020600020905b81548152906001019060200180831161033557829003601f168201915b5050505050908060060154905087565b60026000838152602001908152602001600020600601546001819055508060015461038d9190610b1c565b60008190555060005434146103d7576040517f08c379a00000000000000000000000000000000000000000000000000000000081526004016103ce90610baa565b60405180910390fd5b81600360003373ffffffffffffffffffffffffffffffffffffffff1673ffffffffffffffffffffffffffffffffffffffff168152602001908152602001600020819055505050565b6000604051905090565b600080fd5b600080fd5b6000819050919050565b61044681610433565b811461045157600080fd5b50565b6000813590506104638161043d565b92915050565b600080fd5b600080fd5b6000601f19601f8301169050919050565b7f4e487b7100000000000000000000000000000000000000000000000000000000600052604160045260246000fd5b6104bc82610473565b810181811067ffffffffffffffff821117156104db576104da610484565b5b80604052505050565b60006104ee61041f565b90506104fa82826104b3565b919050565b600067ffffffffffffffff82111561051a57610519610484565b5b61052382610473565b9050602081019050919050565b82818337600083830152505050565b600061055261054d846104ff565b6104e4565b90508281526020810184848401111561056e5761056d61046e565b5b610579848285610530565b509392505050565b600082601f83011261059657610595610469565b5b81356105a684826020860161053f565b91505092915050565b60008060008060008060c087890312156105cc576105cb610429565b5b60006105da89828a01610454565b965050602087013567ffffffffffffffff8111156105fb576105fa61042e565b5b61060789828a01610581565b955050604087013567ffffffffffffffff8111156106285761062761042e565b5b61063489828a01610581565b945050606061064589828a01610454565b935050608087013567ffffffffffffffff8111156106665761066561042e565b5b61067289828a01610581565b92505060a061068389828a01610454565b9150509295509295509295565b6000602082840312156106a6576106a5610429565b5b60006106b484828501610454565b91505092915050565b600081519050919050565b600082825260208201905092915050565b60005b838110156106f75780820151818401526020810190506106dc565b60008484015250505050565b600061070e826106bd565b61071881856106c8565b93506107288185602086016106d9565b61073181610473565b840191505092915050565b61074581610433565b82525050565b600060e0820190508181036000830152610765818a610703565b905081810360208301526107798189610703565b9050610788604083018861073c565b610795606083018761073c565b6107a2608083018661073c565b81810360a08301526107b48185610703565b90506107c360c083018461073c565b98975050505050505050565b600080604083850312156107e6576107e5610429565b5b60006107f485828601610454565b925050602061080585828601610454565b9150509250929050565b7f4e487b7100000000000000000000000000000000000000000000000000000000600052602260045260246000fd5b6000600282049050600182168061085657607f821691505b6020821081036108695761086861080f565b5b50919050565b60008190508160005260206000209050919050565b60006020601f8301049050919050565b600082821b905092915050565b6000600883026108d17fffffffffffffffffffffffffffffffffffffffffffffffffffffffffffffffff82610894565b6108db8683610894565b95508019841693508086168417925050509392505050565b6000819050919050565b600061091861091361090e84610433565b6108f3565b610433565b9050919050565b6000819050919050565b610932836108fd565b61094661093e8261091f565b8484546108a1565b825550505050565b600090565b61095b61094e565b610966818484610929565b505050565b5b8181101561098a5761097f600082610953565b60018101905061096c565b5050565b601f8211156109cf576109a08161086f565b6109a984610884565b810160208510156109b8578190505b6109cc6109c485610884565b83018261096b565b50505b505050565b600082821c905092915050565b60006109f2600019846008026109d4565b1980831691505092915050565b6000610a0b83836109e1565b9150826002028217905092915050565b610a24826106bd565b67ffffffffffffffff811115610a3d57610a3c610484565b5b610a47825461083e565b610a5282828561098e565b600060209050601f831160018114610a855760008415610a73578287015190505b610a7d85826109ff565b865550610ae5565b601f198416610a938661086f565b60005b82811015610abb57848901518255600182019150602085019450602081019050610a96565b86831015610ad85784890151610ad4601f8916826109e1565b8355505b6001600288020188555050505b505050505050565b7f4e487b7100000000000000000000000000000000000000000000000000000000600052601160045260246000fd5b6000610b2782610433565b9150610b3283610433565b9250828202610b4081610433565b91508282048414831517610b5757610b56610aed565b5b5092915050565b7f46656573204e6f742066756c6c207061792e0000000000000000000000000000600082015250565b6000610b946012836106c8565b9150610b9f82610b5e565b602082019050919050565b60006020820190508181036000830152610bc381610b87565b905091905056fea26469706673582212203437ec809130ba2d773b60f111b13501e3a4c1d3a0feeca9bff8f0cb8eba42af64736f6c63430008120033",
					"opcodes": "PUSH1 0x80 PUSH1 0x40 MSTORE CALLVALUE DUP1 ISZERO PUSH2 0x10 JUMPI PUSH1 0x0 DUP1 REVERT JUMPDEST POP PUSH2 0xC00 DUP1 PUSH2 0x20 PUSH1 0x0 CODECOPY PUSH1 0x0 RETURN INVALID PUSH1 0x80 PUSH1 0x40 MSTORE PUSH1 0x4 CALLDATASIZE LT PUSH2 0x34 JUMPI PUSH1 0x0 CALLDATALOAD PUSH1 0xE0 SHR DUP1 PUSH4 0xB824FBF0 EQ PUSH2 0x39 JUMPI DUP1 PUSH4 0xC3321363 EQ PUSH2 0x62 JUMPI DUP1 PUSH4 0xF4533749 EQ PUSH2 0xA5 JUMPI JUMPDEST PUSH1 0x0 DUP1 REVERT JUMPDEST CALLVALUE DUP1 ISZERO PUSH2 0x45 JUMPI PUSH1 0x0 DUP1 REVERT JUMPDEST POP PUSH2 0x60 PUSH1 0x4 DUP1 CALLDATASIZE SUB DUP2 ADD SWAP1 PUSH2 0x5B SWAP2 SWAP1 PUSH2 0x5AF JUMP JUMPDEST PUSH2 0xC1 JUMP JUMPDEST STOP JUMPDEST CALLVALUE DUP1 ISZERO PUSH2 0x6E JUMPI PUSH1 0x0 DUP1 REVERT JUMPDEST POP PUSH2 0x89 PUSH1 0x4 DUP1 CALLDATASIZE SUB DUP2 ADD SWAP1 PUSH2 0x84 SWAP2 SWAP1 PUSH2 0x690 JUMP JUMPDEST PUSH2 0x188 JUMP JUMPDEST PUSH1 0x40 MLOAD PUSH2 0x9C SWAP8 SWAP7 SWAP6 SWAP5 SWAP4 SWAP3 SWAP2 SWAP1 PUSH2 0x74B JUMP JUMPDEST PUSH1 0x40 MLOAD DUP1 SWAP2 SUB SWAP1 RETURN JUMPDEST PUSH2 0xBF PUSH1 0x4 DUP1 CALLDATASIZE SUB DUP2 ADD SWAP1 PUSH2 0xBA SWAP2 SWAP1 PUSH2 0x7CF JUMP JUMPDEST PUSH2 0x362 JUMP JUMPDEST STOP JUMPDEST PUSH1 0x0 DUP4 SWAP1 POP PUSH1 0x0 TIMESTAMP SWAP1 POP PUSH1 0x40 MLOAD DUP1 PUSH1 0xE0 ADD PUSH1 0x40 MSTORE DUP1 DUP9 DUP2 MSTORE PUSH1 0x20 ADD DUP8 DUP2 MSTORE PUSH1 0x20 ADD DUP3 DUP2 MSTORE PUSH1 0x20 ADD DUP7 DUP2 MSTORE PUSH1 0x20 ADD DUP4 DUP2 MSTORE PUSH1 0x20 ADD DUP6 DUP2 MSTORE PUSH1 0x20 ADD DUP5 DUP2 MSTORE POP PUSH1 0x2 PUSH1 0x0 DUP11 DUP2 MSTORE PUSH1 0x20 ADD SWAP1 DUP2 MSTORE PUSH1 0x20 ADD PUSH1 0x0 KECCAK256 PUSH1 0x0 DUP3 ADD MLOAD DUP2 PUSH1 0x0 ADD SWAP1 DUP2 PUSH2 0x126 SWAP2 SWAP1 PUSH2 0xA1B JUMP JUMPDEST POP PUSH1 0x20 DUP3 ADD MLOAD DUP2 PUSH1 0x1 ADD SWAP1 DUP2 PUSH2 0x13C SWAP2 SWAP1 PUSH2 0xA1B JUMP JUMPDEST POP PUSH1 0x40 DUP3 ADD MLOAD DUP2 PUSH1 0x2 ADD SSTORE PUSH1 0x60 DUP3 ADD MLOAD DUP2 PUSH1 0x3 ADD SSTORE PUSH1 0x80 DUP3 ADD MLOAD DUP2 PUSH1 0x4 ADD SSTORE PUSH1 0xA0 DUP3 ADD MLOAD DUP2 PUSH1 0x5 ADD SWAP1 DUP2 PUSH2 0x170 SWAP2 SWAP1 PUSH2 0xA1B JUMP JUMPDEST POP PUSH1 0xC0 DUP3 ADD MLOAD DUP2 PUSH1 0x6 ADD SSTORE SWAP1 POP POP POP POP POP POP POP POP POP POP JUMP JUMPDEST PUSH1 0x2 PUSH1 0x20 MSTORE DUP1 PUSH1 0x0 MSTORE PUSH1 0x40 PUSH1 0x0 KECCAK256 PUSH1 0x0 SWAP2 POP SWAP1 POP DUP1 PUSH1 0x0 ADD DUP1 SLOAD PUSH2 0x1AB SWAP1 PUSH2 0x83E JUMP JUMPDEST DUP1 PUSH1 0x1F ADD PUSH1 0x20 DUP1 SWAP2 DIV MUL PUSH1 0x20 ADD PUSH1 0x40 MLOAD SWAP1 DUP2 ADD PUSH1 0x40 MSTORE DUP1 SWAP3 SWAP2 SWAP1 DUP2 DUP2 MSTORE PUSH1 0x20 ADD DUP3 DUP1 SLOAD PUSH2 0x1D7 SWAP1 PUSH2 0x83E JUMP JUMPDEST DUP1 ISZERO PUSH2 0x224 JUMPI DUP1 PUSH1 0x1F LT PUSH2 0x1F9 JUMPI PUSH2 0x100 DUP1 DUP4 SLOAD DIV MUL DUP4 MSTORE SWAP2 PUSH1 0x20 ADD SWAP2 PUSH2 0x224 JUMP JUMPDEST DUP3 ADD SWAP2 SWAP1 PUSH1 0x0 MSTORE PUSH1 0x20 PUSH1 0x0 KECCAK256 SWAP1 JUMPDEST DUP2 SLOAD DUP2 MSTORE SWAP1 PUSH1 0x1 ADD SWAP1 PUSH1 0x20 ADD DUP1 DUP4 GT PUSH2 0x207 JUMPI DUP3 SWAP1 SUB PUSH1 0x1F AND DUP3 ADD SWAP2 JUMPDEST POP POP POP POP POP SWAP1 DUP1 PUSH1 0x1 ADD DUP1 SLOAD PUSH2 0x239 SWAP1 PUSH2 0x83E JUMP JUMPDEST DUP1 PUSH1 0x1F ADD PUSH1 0x20 DUP1 SWAP2 DIV MUL PUSH1 0x20 ADD PUSH1 0x40 MLOAD SWAP1 DUP2 ADD PUSH1 0x40 MSTORE DUP1 SWAP3 SWAP2 SWAP1 DUP2 DUP2 MSTORE PUSH1 0x20 ADD DUP3 DUP1 SLOAD PUSH2 0x265 SWAP1 PUSH2 0x83E JUMP JUMPDEST DUP1 ISZERO PUSH2 0x2B2 JUMPI DUP1 PUSH1 0x1F LT PUSH2 0x287 JUMPI PUSH2 0x100 DUP1 DUP4 SLOAD DIV MUL DUP4 MSTORE SWAP2 PUSH1 0x20 ADD SWAP2 PUSH2 0x2B2 JUMP JUMPDEST DUP3 ADD SWAP2 SWAP1 PUSH1 0x0 MSTORE PUSH1 0x20 PUSH1 0x0 KECCAK256 SWAP1 JUMPDEST DUP2 SLOAD DUP2 MSTORE SWAP1 PUSH1 0x1 ADD SWAP1 PUSH1 0x20 ADD DUP1 DUP4 GT PUSH2 0x295 JUMPI DUP3 SWAP1 SUB PUSH1 0x1F AND DUP3 ADD SWAP2 JUMPDEST POP POP POP POP POP SWAP1 DUP1 PUSH1 0x2 ADD SLOAD SWAP1 DUP1 PUSH1 0x3 ADD SLOAD SWAP1 DUP1 PUSH1 0x4 ADD SLOAD SWAP1 DUP1 PUSH1 0x5 ADD DUP1 SLOAD PUSH2 0x2D9 SWAP1 PUSH2 0x83E JUMP JUMPDEST DUP1 PUSH1 0x1F ADD PUSH1 0x20 DUP1 SWAP2 DIV MUL PUSH1 0x20 ADD PUSH1 0x40 MLOAD SWAP1 DUP2 ADD PUSH1 0x40 MSTORE DUP1 SWAP3 SWAP2 SWAP1 DUP2 DUP2 MSTORE PUSH1 0x20 ADD DUP3 DUP1 SLOAD PUSH2 0x305 SWAP1 PUSH2 0x83E JUMP JUMPDEST DUP1 ISZERO PUSH2 0x352 JUMPI DUP1 PUSH1 0x1F LT PUSH2 0x327 JUMPI PUSH2 0x100 DUP1 DUP4 SLOAD DIV MUL DUP4 MSTORE SWAP2 PUSH1 0x20 ADD SWAP2 PUSH2 0x352 JUMP JUMPDEST DUP3 ADD SWAP2 SWAP1 PUSH1 0x0 MSTORE PUSH1 0x20 PUSH1 0x0 KECCAK256 SWAP1 JUMPDEST DUP2 SLOAD DUP2 MSTORE SWAP1 PUSH1 0x1 ADD SWAP1 PUSH1 0x20 ADD DUP1 DUP4 GT PUSH2 0x335 JUMPI DUP3 SWAP1 SUB PUSH1 0x1F AND DUP3 ADD SWAP2 JUMPDEST POP POP POP POP POP SWAP1 DUP1 PUSH1 0x6 ADD SLOAD SWAP1 POP DUP8 JUMP JUMPDEST PUSH1 0x2 PUSH1 0x0 DUP4 DUP2 MSTORE PUSH1 0x20 ADD SWAP1 DUP2 MSTORE PUSH1 0x20 ADD PUSH1 0x0 KECCAK256 PUSH1 0x6 ADD SLOAD PUSH1 0x1 DUP2 SWAP1 SSTORE POP DUP1 PUSH1 0x1 SLOAD PUSH2 0x38D SWAP2 SWAP1 PUSH2 0xB1C JUMP JUMPDEST PUSH1 0x0 DUP2 SWAP1 SSTORE POP PUSH1 0x0 SLOAD CALLVALUE EQ PUSH2 0x3D7 JUMPI PUSH1 0x40 MLOAD PUSH32 0x8C379A000000000000000000000000000000000000000000000000000000000 DUP2 MSTORE PUSH1 0x4 ADD PUSH2 0x3CE SWAP1 PUSH2 0xBAA JUMP JUMPDEST PUSH1 0x40 MLOAD DUP1 SWAP2 SUB SWAP1 REVERT JUMPDEST DUP2 PUSH1 0x3 PUSH1 0x0 CALLER PUSH20 0xFFFFFFFFFFFFFFFFFFFFFFFFFFFFFFFFFFFFFFFF AND PUSH20 0xFFFFFFFFFFFFFFFFFFFFFFFFFFFFFFFFFFFFFFFF AND DUP2 MSTORE PUSH1 0x20 ADD SWAP1 DUP2 MSTORE PUSH1 0x20 ADD PUSH1 0x0 KECCAK256 DUP2 SWAP1 SSTORE POP POP POP JUMP JUMPDEST PUSH1 0x0 PUSH1 0x40 MLOAD SWAP1 POP SWAP1 JUMP JUMPDEST PUSH1 0x0 DUP1 REVERT JUMPDEST PUSH1 0x0 DUP1 REVERT JUMPDEST PUSH1 0x0 DUP2 SWAP1 POP SWAP2 SWAP1 POP JUMP JUMPDEST PUSH2 0x446 DUP2 PUSH2 0x433 JUMP JUMPDEST DUP2 EQ PUSH2 0x451 JUMPI PUSH1 0x0 DUP1 REVERT JUMPDEST POP JUMP JUMPDEST PUSH1 0x0 DUP2 CALLDATALOAD SWAP1 POP PUSH2 0x463 DUP2 PUSH2 0x43D JUMP JUMPDEST SWAP3 SWAP2 POP POP JUMP JUMPDEST PUSH1 0x0 DUP1 REVERT JUMPDEST PUSH1 0x0 DUP1 REVERT JUMPDEST PUSH1 0x0 PUSH1 0x1F NOT PUSH1 0x1F DUP4 ADD AND SWAP1 POP SWAP2 SWAP1 POP JUMP JUMPDEST PUSH32 0x4E487B7100000000000000000000000000000000000000000000000000000000 PUSH1 0x0 MSTORE PUSH1 0x41 PUSH1 0x4 MSTORE PUSH1 0x24 PUSH1 0x0 REVERT JUMPDEST PUSH2 0x4BC DUP3 PUSH2 0x473 JUMP JUMPDEST DUP2 ADD DUP2 DUP2 LT PUSH8 0xFFFFFFFFFFFFFFFF DUP3 GT OR ISZERO PUSH2 0x4DB JUMPI PUSH2 0x4DA PUSH2 0x484 JUMP JUMPDEST JUMPDEST DUP1 PUSH1 0x40 MSTORE POP POP POP JUMP JUMPDEST PUSH1 0x0 PUSH2 0x4EE PUSH2 0x41F JUMP JUMPDEST SWAP1 POP PUSH2 0x4FA DUP3 DUP3 PUSH2 0x4B3 JUMP JUMPDEST SWAP2 SWAP1 POP JUMP JUMPDEST PUSH1 0x0 PUSH8 0xFFFFFFFFFFFFFFFF DUP3 GT ISZERO PUSH2 0x51A JUMPI PUSH2 0x519 PUSH2 0x484 JUMP JUMPDEST JUMPDEST PUSH2 0x523 DUP3 PUSH2 0x473 JUMP JUMPDEST SWAP1 POP PUSH1 0x20 DUP2 ADD SWAP1 POP SWAP2 SWAP1 POP JUMP JUMPDEST DUP3 DUP2 DUP4 CALLDATACOPY PUSH1 0x0 DUP4 DUP4 ADD MSTORE POP POP POP JUMP JUMPDEST PUSH1 0x0 PUSH2 0x552 PUSH2 0x54D DUP5 PUSH2 0x4FF JUMP JUMPDEST PUSH2 0x4E4 JUMP JUMPDEST SWAP1 POP DUP3 DUP2 MSTORE PUSH1 0x20 DUP2 ADD DUP5 DUP5 DUP5 ADD GT ISZERO PUSH2 0x56E JUMPI PUSH2 0x56D PUSH2 0x46E JUMP JUMPDEST JUMPDEST PUSH2 0x579 DUP5 DUP3 DUP6 PUSH2 0x530 JUMP JUMPDEST POP SWAP4 SWAP3 POP POP POP JUMP JUMPDEST PUSH1 0x0 DUP3 PUSH1 0x1F DUP4 ADD SLT PUSH2 0x596 JUMPI PUSH2 0x595 PUSH2 0x469 JUMP JUMPDEST JUMPDEST DUP2 CALLDATALOAD PUSH2 0x5A6 DUP5 DUP3 PUSH1 0x20 DUP7 ADD PUSH2 0x53F JUMP JUMPDEST SWAP2 POP POP SWAP3 SWAP2 POP POP JUMP JUMPDEST PUSH1 0x0 DUP1 PUSH1 0x0 DUP1 PUSH1 0x0 DUP1 PUSH1 0xC0 DUP8 DUP10 SUB SLT ISZERO PUSH2 0x5CC JUMPI PUSH2 0x5CB PUSH2 0x429 JUMP JUMPDEST JUMPDEST PUSH1 0x0 PUSH2 0x5DA DUP10 DUP3 DUP11 ADD PUSH2 0x454 JUMP JUMPDEST SWAP7 POP POP PUSH1 0x20 DUP8 ADD CALLDATALOAD PUSH8 0xFFFFFFFFFFFFFFFF DUP2 GT ISZERO PUSH2 0x5FB JUMPI PUSH2 0x5FA PUSH2 0x42E JUMP JUMPDEST JUMPDEST PUSH2 0x607 DUP10 DUP3 DUP11 ADD PUSH2 0x581 JUMP JUMPDEST SWAP6 POP POP PUSH1 0x40 DUP8 ADD CALLDATALOAD PUSH8 0xFFFFFFFFFFFFFFFF DUP2 GT ISZERO PUSH2 0x628 JUMPI PUSH2 0x627 PUSH2 0x42E JUMP JUMPDEST JUMPDEST PUSH2 0x634 DUP10 DUP3 DUP11 ADD PUSH2 0x581 JUMP JUMPDEST SWAP5 POP POP PUSH1 0x60 PUSH2 0x645 DUP10 DUP3 DUP11 ADD PUSH2 0x454 JUMP JUMPDEST SWAP4 POP POP PUSH1 0x80 DUP8 ADD CALLDATALOAD PUSH8 0xFFFFFFFFFFFFFFFF DUP2 GT ISZERO PUSH2 0x666 JUMPI PUSH2 0x665 PUSH2 0x42E JUMP JUMPDEST JUMPDEST PUSH2 0x672 DUP10 DUP3 DUP11 ADD PUSH2 0x581 JUMP JUMPDEST SWAP3 POP POP PUSH1 0xA0 PUSH2 0x683 DUP10 DUP3 DUP11 ADD PUSH2 0x454 JUMP JUMPDEST SWAP2 POP POP SWAP3 SWAP6 POP SWAP3 SWAP6 POP SWAP3 SWAP6 JUMP JUMPDEST PUSH1 0x0 PUSH1 0x20 DUP3 DUP5 SUB SLT ISZERO PUSH2 0x6A6 JUMPI PUSH2 0x6A5 PUSH2 0x429 JUMP JUMPDEST JUMPDEST PUSH1 0x0 PUSH2 0x6B4 DUP5 DUP3 DUP6 ADD PUSH2 0x454 JUMP JUMPDEST SWAP2 POP POP SWAP3 SWAP2 POP POP JUMP JUMPDEST PUSH1 0x0 DUP2 MLOAD SWAP1 POP SWAP2 SWAP1 POP JUMP JUMPDEST PUSH1 0x0 DUP3 DUP3 MSTORE PUSH1 0x20 DUP3 ADD SWAP1 POP SWAP3 SWAP2 POP POP JUMP JUMPDEST PUSH1 0x0 JUMPDEST DUP4 DUP2 LT ISZERO PUSH2 0x6F7 JUMPI DUP1 DUP3 ADD MLOAD DUP2 DUP5 ADD MSTORE PUSH1 0x20 DUP2 ADD SWAP1 POP PUSH2 0x6DC JUMP JUMPDEST PUSH1 0x0 DUP5 DUP5 ADD MSTORE POP POP POP POP JUMP JUMPDEST PUSH1 0x0 PUSH2 0x70E DUP3 PUSH2 0x6BD JUMP JUMPDEST PUSH2 0x718 DUP2 DUP6 PUSH2 0x6C8 JUMP JUMPDEST SWAP4 POP PUSH2 0x728 DUP2 DUP6 PUSH1 0x20 DUP7 ADD PUSH2 0x6D9 JUMP JUMPDEST PUSH2 0x731 DUP2 PUSH2 0x473 JUMP JUMPDEST DUP5 ADD SWAP2 POP POP SWAP3 SWAP2 POP POP JUMP JUMPDEST PUSH2 0x745 DUP2 PUSH2 0x433 JUMP JUMPDEST DUP3 MSTORE POP POP JUMP JUMPDEST PUSH1 0x0 PUSH1 0xE0 DUP3 ADD SWAP1 POP DUP2 DUP2 SUB PUSH1 0x0 DUP4 ADD MSTORE PUSH2 0x765 DUP2 DUP11 PUSH2 0x703 JUMP JUMPDEST SWAP1 POP DUP2 DUP2 SUB PUSH1 0x20 DUP4 ADD MSTORE PUSH2 0x779 DUP2 DUP10 PUSH2 0x703 JUMP JUMPDEST SWAP1 POP PUSH2 0x788 PUSH1 0x40 DUP4 ADD DUP9 PUSH2 0x73C JUMP JUMPDEST PUSH2 0x795 PUSH1 0x60 DUP4 ADD DUP8 PUSH2 0x73C JUMP JUMPDEST PUSH2 0x7A2 PUSH1 0x80 DUP4 ADD DUP7 PUSH2 0x73C JUMP JUMPDEST DUP2 DUP2 SUB PUSH1 0xA0 DUP4 ADD MSTORE PUSH2 0x7B4 DUP2 DUP6 PUSH2 0x703 JUMP JUMPDEST SWAP1 POP PUSH2 0x7C3 PUSH1 0xC0 DUP4 ADD DUP5 PUSH2 0x73C JUMP JUMPDEST SWAP9 SWAP8 POP POP POP POP POP POP POP POP JUMP JUMPDEST PUSH1 0x0 DUP1 PUSH1 0x40 DUP4 DUP6 SUB SLT ISZERO PUSH2 0x7E6 JUMPI PUSH2 0x7E5 PUSH2 0x429 JUMP JUMPDEST JUMPDEST PUSH1 0x0 PUSH2 0x7F4 DUP6 DUP3 DUP7 ADD PUSH2 0x454 JUMP JUMPDEST SWAP3 POP POP PUSH1 0x20 PUSH2 0x805 DUP6 DUP3 DUP7 ADD PUSH2 0x454 JUMP JUMPDEST SWAP2 POP POP SWAP3 POP SWAP3 SWAP1 POP JUMP JUMPDEST PUSH32 0x4E487B7100000000000000000000000000000000000000000000000000000000 PUSH1 0x0 MSTORE PUSH1 0x22 PUSH1 0x4 MSTORE PUSH1 0x24 PUSH1 0x0 REVERT JUMPDEST PUSH1 0x0 PUSH1 0x2 DUP3 DIV SWAP1 POP PUSH1 0x1 DUP3 AND DUP1 PUSH2 0x856 JUMPI PUSH1 0x7F DUP3 AND SWAP2 POP JUMPDEST PUSH1 0x20 DUP3 LT DUP2 SUB PUSH2 0x869 JUMPI PUSH2 0x868 PUSH2 0x80F JUMP JUMPDEST JUMPDEST POP SWAP2 SWAP1 POP JUMP JUMPDEST PUSH1 0x0 DUP2 SWAP1 POP DUP2 PUSH1 0x0 MSTORE PUSH1 0x20 PUSH1 0x0 KECCAK256 SWAP1 POP SWAP2 SWAP1 POP JUMP JUMPDEST PUSH1 0x0 PUSH1 0x20 PUSH1 0x1F DUP4 ADD DIV SWAP1 POP SWAP2 SWAP1 POP JUMP JUMPDEST PUSH1 0x0 DUP3 DUP3 SHL SWAP1 POP SWAP3 SWAP2 POP POP JUMP JUMPDEST PUSH1 0x0 PUSH1 0x8 DUP4 MUL PUSH2 0x8D1 PUSH32 0xFFFFFFFFFFFFFFFFFFFFFFFFFFFFFFFFFFFFFFFFFFFFFFFFFFFFFFFFFFFFFFFF DUP3 PUSH2 0x894 JUMP JUMPDEST PUSH2 0x8DB DUP7 DUP4 PUSH2 0x894 JUMP JUMPDEST SWAP6 POP DUP1 NOT DUP5 AND SWAP4 POP DUP1 DUP7 AND DUP5 OR SWAP3 POP POP POP SWAP4 SWAP3 POP POP POP JUMP JUMPDEST PUSH1 0x0 DUP2 SWAP1 POP SWAP2 SWAP1 POP JUMP JUMPDEST PUSH1 0x0 PUSH2 0x918 PUSH2 0x913 PUSH2 0x90E DUP5 PUSH2 0x433 JUMP JUMPDEST PUSH2 0x8F3 JUMP JUMPDEST PUSH2 0x433 JUMP JUMPDEST SWAP1 POP SWAP2 SWAP1 POP JUMP JUMPDEST PUSH1 0x0 DUP2 SWAP1 POP SWAP2 SWAP1 POP JUMP JUMPDEST PUSH2 0x932 DUP4 PUSH2 0x8FD JUMP JUMPDEST PUSH2 0x946 PUSH2 0x93E DUP3 PUSH2 0x91F JUMP JUMPDEST DUP5 DUP5 SLOAD PUSH2 0x8A1 JUMP JUMPDEST DUP3 SSTORE POP POP POP POP JUMP JUMPDEST PUSH1 0x0 SWAP1 JUMP JUMPDEST PUSH2 0x95B PUSH2 0x94E JUMP JUMPDEST PUSH2 0x966 DUP2 DUP5 DUP5 PUSH2 0x929 JUMP JUMPDEST POP POP POP JUMP JUMPDEST JUMPDEST DUP2 DUP2 LT ISZERO PUSH2 0x98A JUMPI PUSH2 0x97F PUSH1 0x0 DUP3 PUSH2 0x953 JUMP JUMPDEST PUSH1 0x1 DUP2 ADD SWAP1 POP PUSH2 0x96C JUMP JUMPDEST POP POP JUMP JUMPDEST PUSH1 0x1F DUP3 GT ISZERO PUSH2 0x9CF JUMPI PUSH2 0x9A0 DUP2 PUSH2 0x86F JUMP JUMPDEST PUSH2 0x9A9 DUP5 PUSH2 0x884 JUMP JUMPDEST DUP2 ADD PUSH1 0x20 DUP6 LT ISZERO PUSH2 0x9B8 JUMPI DUP2 SWAP1 POP JUMPDEST PUSH2 0x9CC PUSH2 0x9C4 DUP6 PUSH2 0x884 JUMP JUMPDEST DUP4 ADD DUP3 PUSH2 0x96B JUMP JUMPDEST POP POP JUMPDEST POP POP POP JUMP JUMPDEST PUSH1 0x0 DUP3 DUP3 SHR SWAP1 POP SWAP3 SWAP2 POP POP JUMP JUMPDEST PUSH1 0x0 PUSH2 0x9F2 PUSH1 0x0 NOT DUP5 PUSH1 0x8 MUL PUSH2 0x9D4 JUMP JUMPDEST NOT DUP1 DUP4 AND SWAP2 POP POP SWAP3 SWAP2 POP POP JUMP JUMPDEST PUSH1 0x0 PUSH2 0xA0B DUP4 DUP4 PUSH2 0x9E1 JUMP JUMPDEST SWAP2 POP DUP3 PUSH1 0x2 MUL DUP3 OR SWAP1 POP SWAP3 SWAP2 POP POP JUMP JUMPDEST PUSH2 0xA24 DUP3 PUSH2 0x6BD JUMP JUMPDEST PUSH8 0xFFFFFFFFFFFFFFFF DUP2 GT ISZERO PUSH2 0xA3D JUMPI PUSH2 0xA3C PUSH2 0x484 JUMP JUMPDEST JUMPDEST PUSH2 0xA47 DUP3 SLOAD PUSH2 0x83E JUMP JUMPDEST PUSH2 0xA52 DUP3 DUP3 DUP6 PUSH2 0x98E JUMP JUMPDEST PUSH1 0x0 PUSH1 0x20 SWAP1 POP PUSH1 0x1F DUP4 GT PUSH1 0x1 DUP2 EQ PUSH2 0xA85 JUMPI PUSH1 0x0 DUP5 ISZERO PUSH2 0xA73 JUMPI DUP3 DUP8 ADD MLOAD SWAP1 POP JUMPDEST PUSH2 0xA7D DUP6 DUP3 PUSH2 0x9FF JUMP JUMPDEST DUP7 SSTORE POP PUSH2 0xAE5 JUMP JUMPDEST PUSH1 0x1F NOT DUP5 AND PUSH2 0xA93 DUP7 PUSH2 0x86F JUMP JUMPDEST PUSH1 0x0 JUMPDEST DUP3 DUP2 LT ISZERO PUSH2 0xABB JUMPI DUP5 DUP10 ADD MLOAD DUP3 SSTORE PUSH1 0x1 DUP3 ADD SWAP2 POP PUSH1 0x20 DUP6 ADD SWAP5 POP PUSH1 0x20 DUP2 ADD SWAP1 POP PUSH2 0xA96 JUMP JUMPDEST DUP7 DUP4 LT ISZERO PUSH2 0xAD8 JUMPI DUP5 DUP10 ADD MLOAD PUSH2 0xAD4 PUSH1 0x1F DUP10 AND DUP3 PUSH2 0x9E1 JUMP JUMPDEST DUP4 SSTORE POP JUMPDEST PUSH1 0x1 PUSH1 0x2 DUP9 MUL ADD DUP9 SSTORE POP POP POP JUMPDEST POP POP POP POP POP POP JUMP JUMPDEST PUSH32 0x4E487B7100000000000000000000000000000000000000000000000000000000 PUSH1 0x0 MSTORE PUSH1 0x11 PUSH1 0x4 MSTORE PUSH1 0x24 PUSH1 0x0 REVERT JUMPDEST PUSH1 0x0 PUSH2 0xB27 DUP3 PUSH2 0x433 JUMP JUMPDEST SWAP2 POP PUSH2 0xB32 DUP4 PUSH2 0x433 JUMP JUMPDEST SWAP3 POP DUP3 DUP3 MUL PUSH2 0xB40 DUP2 PUSH2 0x433 JUMP JUMPDEST SWAP2 POP DUP3 DUP3 DIV DUP5 EQ DUP4 ISZERO OR PUSH2 0xB57 JUMPI PUSH2 0xB56 PUSH2 0xAED JUMP JUMPDEST JUMPDEST POP SWAP3 SWAP2 POP POP JUMP JUMPDEST PUSH32 0x46656573204E6F742066756C6C207061792E0000000000000000000000000000 PUSH1 0x0 DUP3 ADD MSTORE POP JUMP JUMPDEST PUSH1 0x0 PUSH2 0xB94 PUSH1 0x12 DUP4 PUSH2 0x6C8 JUMP JUMPDEST SWAP2 POP PUSH2 0xB9F DUP3 PUSH2 0xB5E JUMP JUMPDEST PUSH1 0x20 DUP3 ADD SWAP1 POP SWAP2 SWAP1 POP JUMP JUMPDEST PUSH1 0x0 PUSH1 0x20 DUP3 ADD SWAP1 POP DUP2 DUP2 SUB PUSH1 0x0 DUP4 ADD MSTORE PUSH2 0xBC3 DUP2 PUSH2 0xB87 JUMP JUMPDEST SWAP1 POP SWAP2 SWAP1 POP JUMP INVALID LOG2 PUSH5 0x6970667358 0x22 SLT KECCAK256 CALLVALUE CALLDATACOPY 0xEC DUP1 SWAP2 ADDRESS 0xBA 0x2D PUSH24 0x3B60F111B13501E3A4C1D3A0FEECA9BFF8F0CB8EBA42AF64 PUSH20 0x6F6C634300081200330000000000000000000000 "
				},
				"gasEstimates": {
					"creation": {
						"codeDepositCost": "614400",
						"executionCost": "645",
						"totalCost": "615045"
					},
					"external": {
						"CreateEvent(uint256,string,string,uint256,string,uint256)": "infinite",
						"eventData(uint256)": "infinite",
						"joinEvent(uint256,uint256)": "infinite"
					}
				},
				"methodIdentifiers": {
					"CreateEvent(uint256,string,string,uint256,string,uint256)": "b824fbf0",
					"eventData(uint256)": "c3321363",
					"joinEvent(uint256,uint256)": "f4533749"
				}
			},
			"storageLayout": {
				"storage": [
					{
						"astId": 18,
						"contract": "contracts/event_org.sol:eventorg",
						"label": "pay_ether",
						"offset": 0,
						"slot": "0",
						"type": "t_uint256"
					},
					{
						"astId": 20,
						"contract": "contracts/event_org.sol:eventorg",
						"label": "e_fee",
						"offset": 0,
						"slot": "1",
						"type": "t_uint256"
					},
					{
						"astId": 25,
						"contract": "contracts/event_org.sol:eventorg",
						"label": "eventData",
						"offset": 0,
						"slot": "2",
						"type": "t_mapping(t_uint256,t_struct(eventInfo)16_storage)"
					},
					{
						"astId": 68,
						"contract": "contracts/event_org.sol:eventorg",
						"label": "tickets",
						"offset": 0,
						"slot": "3",
						"type": "t_mapping(t_address,t_uint256)"
					}
				],
				"types": {
					"t_address": {
						"encoding": "inplace",
						"label": "address",
						"numberOfBytes": "20"
					},
					"t_mapping(t_address,t_uint256)": {
						"encoding": "mapping",
						"key": "t_address",
						"label": "mapping(address => uint256)",
						"numberOfBytes": "32",
						"value": "t_uint256"
					},
					"t_mapping(t_uint256,t_struct(eventInfo)16_storage)": {
						"encoding": "mapping",
						"key": "t_uint256",
						"label": "mapping(uint256 => struct eventorg.eventInfo)",
						"numberOfBytes": "32",
						"value": "t_struct(eventInfo)16_storage"
					},
					"t_string_storage": {
						"encoding": "bytes",
						"label": "string",
						"numberOfBytes": "32"
					},
					"t_struct(eventInfo)16_storage": {
						"encoding": "inplace",
						"label": "struct eventorg.eventInfo",
						"members": [
							{
								"astId": 3,
								"contract": "contracts/event_org.sol:eventorg",
								"label": "organiser",
								"offset": 0,
								"slot": "0",
								"type": "t_string_storage"
							},
							{
								"astId": 5,
								"contract": "contracts/event_org.sol:eventorg",
								"label": "eventname",
								"offset": 0,
								"slot": "1",
								"type": "t_string_storage"
							},
							{
								"astId": 7,
								"contract": "contracts/event_org.sol:eventorg",
								"label": "eventdate",
								"offset": 0,
								"slot": "2",
								"type": "t_uint256"
							},
							{
								"astId": 9,
								"contract": "contracts/event_org.sol:eventorg",
								"label": "eventticket",
								"offset": 0,
								"slot": "3",
								"type": "t_uint256"
							},
							{
								"astId": 11,
								"contract": "contracts/event_org.sol:eventorg",
								"label": "eventRemticket",
								"offset": 0,
								"slot": "4",
								"type": "t_uint256"
							},
							{
								"astId": 13,
								"contract": "contracts/event_org.sol:eventorg",
								"label": "evnetcity",
								"offset": 0,
								"slot": "5",
								"type": "t_string_storage"
							},
							{
								"astId": 15,
								"contract": "contracts/event_org.sol:eventorg",
								"label": "eventfee",
								"offset": 0,
								"slot": "6",
								"type": "t_uint256"
							}
						],
						"numberOfBytes": "224"
					},
					"t_uint256": {
						"encoding": "inplace",
						"label": "uint256",
						"numberOfBytes": "32"
					}
				}
			},
			"userdoc": {
				"kind": "user",
				"methods": {},
				"version": 1
			}
		}
	}
}