{
	"contracts/student_result.sol": {
		"StudentResult": {
			"abi": [
				{
					"inputs": [],
					"name": "Getgrade",
					"outputs": [
						{
							"internalType": "string",
							"name": "grade",
							"type": "string"
						}
					],
					"stateMutability": "view",
					"type": "function"
				},
				{
					"inputs": [],
					"name": "Getmark",
					"outputs": [
						{
							"internalType": "uint256",
							"name": "total",
							"type": "uint256"
						}
					],
					"stateMutability": "view",
					"type": "function"
				},
				{
					"inputs": [],
					"name": "Getper",
					"outputs": [
						{
							"internalType": "uint256",
							"name": "per",
							"type": "uint256"
						}
					],
					"stateMutability": "view",
					"type": "function"
				},
				{
					"inputs": [
						{
							"internalType": "uint256",
							"name": "m_computer",
							"type": "uint256"
						}
					],
					"name": "Setcomputer",
					"outputs": [],
					"stateMutability": "nonpayable",
					"type": "function"
				},
				{
					"inputs": [
						{
							"internalType": "uint256",
							"name": "m_gujrati",
							"type": "uint256"
						}
					],
					"name": "Setgujrati",
					"outputs": [],
					"stateMutability": "nonpayable",
					"type": "function"
				},
				{
					"inputs": [
						{
							"internalType": "uint256",
							"name": "m_hind",
							"type": "uint256"
						}
					],
					"name": "Sethind",
					"outputs": [],
					"stateMutability": "nonpayable",
					"type": "function"
				},
				{
					"inputs": [
						{
							"internalType": "uint256",
							"name": "m_mathe",
							"type": "uint256"
						}
					],
					"name": "Setmathe",
					"outputs": [],
					"stateMutability": "nonpayable",
					"type": "function"
				},
				{
					"inputs": [
						{
							"internalType": "uint256",
							"name": "m_sanskrit",
							"type": "uint256"
						}
					],
					"name": "Setsanskrit",
					"outputs": [],
					"stateMutability": "nonpayable",
					"type": "function"
				},
				{
					"inputs": [
						{
							"internalType": "uint256",
							"name": "m_scince",
							"type": "uint256"
						}
					],
					"name": "Setscince",
					"outputs": [],
					"stateMutability": "nonpayable",
					"type": "function"
				},
				{
					"inputs": [
						{
							"internalType": "uint256",
							"name": "m_social_scince",
							"type": "uint256"
						}
					],
					"name": "Setsocial_scince",
					"outputs": [],
					"stateMutability": "nonpayable",
					"type": "function"
				}
			],
			"devdoc": {
				"kind": "dev",
				"methods": {},
				"version": 1
			},
			"evm": {
				"assembly": "    /* \"contracts/student_result.sol\":71:1836  contract StudentResult {... */\n  mstore(0x40, 0x80)\n  callvalue\n  dup1\n  iszero\n  tag_1\n  jumpi\n  0x00\n  dup1\n  revert\ntag_1:\n  pop\n  dataSize(sub_0)\n  dup1\n  dataOffset(sub_0)\n  0x00\n  codecopy\n  0x00\n  return\nstop\n\nsub_0: assembly {\n        /* \"contracts/student_result.sol\":71:1836  contract StudentResult {... */\n      mstore(0x40, 0x80)\n      callvalue\n      dup1\n      iszero\n      tag_1\n      jumpi\n      0x00\n      dup1\n      revert\n    tag_1:\n      pop\n      jumpi(tag_2, lt(calldatasize, 0x04))\n      shr(0xe0, calldataload(0x00))\n      dup1\n      0x7b54a72f\n      gt\n      tag_13\n      jumpi\n      dup1\n      0x7b54a72f\n      eq\n      tag_8\n      jumpi\n      dup1\n      0x8d306fe9\n      eq\n      tag_9\n      jumpi\n      dup1\n      0xcdf8bcc3\n      eq\n      tag_10\n      jumpi\n      dup1\n      0xea2005b8\n      eq\n      tag_11\n      jumpi\n      dup1\n      0xfce69179\n      eq\n      tag_12\n      jumpi\n      jump(tag_2)\n    tag_13:\n      dup1\n      0x04814f8f\n      eq\n      tag_3\n      jumpi\n      dup1\n      0x2311b275\n      eq\n      tag_4\n      jumpi\n      dup1\n      0x5ac31968\n      eq\n      tag_5\n      jumpi\n      dup1\n      0x5b494cda\n      eq\n      tag_6\n      jumpi\n      dup1\n      0x6445e5a1\n      eq\n      tag_7\n      jumpi\n    tag_2:\n      0x00\n      dup1\n      revert\n        /* \"contracts/student_result.sol\":667:750  function Setsanskrit(uint m_sanskrit) public {... */\n    tag_3:\n      tag_14\n      0x04\n      dup1\n      calldatasize\n      sub\n      dup2\n      add\n      swap1\n      tag_15\n      swap2\n      swap1\n      tag_16\n      jump\t// in\n    tag_15:\n      tag_17\n      jump\t// in\n    tag_14:\n      stop\n        /* \"contracts/student_result.sol\":307:374  function Sethind(uint m_hind) public {... */\n    tag_4:\n      tag_18\n      0x04\n      dup1\n      calldatasize\n      sub\n      dup2\n      add\n      swap1\n      tag_19\n      swap2\n      swap1\n      tag_16\n      jump\t// in\n    tag_19:\n      tag_20\n      jump\t// in\n    tag_18:\n      stop\n        /* \"contracts/student_result.sol\":756:839  function Setcomputer(uint m_computer) public {... */\n    tag_5:\n      tag_21\n      0x04\n      dup1\n      calldatasize\n      sub\n      dup2\n      add\n      swap1\n      tag_22\n      swap2\n      swap1\n      tag_16\n      jump\t// in\n    tag_22:\n      tag_23\n      jump\t// in\n    tag_21:\n      stop\n        /* \"contracts/student_result.sol\":230:301  function Setmathe(uint m_mathe) public {... */\n    tag_6:\n      tag_24\n      0x04\n      dup1\n      calldatasize\n      sub\n      dup2\n      add\n      swap1\n      tag_25\n      swap2\n      swap1\n      tag_16\n      jump\t// in\n    tag_25:\n      tag_26\n      jump\t// in\n    tag_24:\n      stop\n        /* \"contracts/student_result.sol\":469:572  function Setsocial_scince(uint m_social_scince) public {... */\n    tag_7:\n      tag_27\n      0x04\n      dup1\n      calldatasize\n      sub\n      dup2\n      add\n      swap1\n      tag_28\n      swap2\n      swap1\n      tag_16\n      jump\t// in\n    tag_28:\n      tag_29\n      jump\t// in\n    tag_27:\n      stop\n        /* \"contracts/student_result.sol\":845:984  function Getmark() public view returns(uint total){... */\n    tag_8:\n      tag_30\n      tag_31\n      jump\t// in\n    tag_30:\n      mload(0x40)\n      tag_32\n      swap2\n      swap1\n      tag_33\n      jump\t// in\n    tag_32:\n      mload(0x40)\n      dup1\n      swap2\n      sub\n      swap1\n      return\n        /* \"contracts/student_result.sol\":582:661  function Setgujrati(uint m_gujrati) public {... */\n    tag_9:\n      tag_34\n      0x04\n      dup1\n      calldatasize\n      sub\n      dup2\n      add\n      swap1\n      tag_35\n      swap2\n      swap1\n      tag_16\n      jump\t// in\n    tag_35:\n      tag_36\n      jump\t// in\n    tag_34:\n      stop\n        /* \"contracts/student_result.sol\":1134:1830  function Getgrade() public view returns(string memory grade){... */\n    tag_10:\n      tag_37\n      tag_38\n      jump\t// in\n    tag_37:\n      mload(0x40)\n      tag_39\n      swap2\n      swap1\n      tag_40\n      jump\t// in\n    tag_39:\n      mload(0x40)\n      dup1\n      swap2\n      sub\n      swap1\n      return\n        /* \"contracts/student_result.sol\":384:459  function Setscince(uint m_scince) public {... */\n    tag_11:\n      tag_41\n      0x04\n      dup1\n      calldatasize\n      sub\n      dup2\n      add\n      swap1\n      tag_42\n      swap2\n      swap1\n      tag_16\n      jump\t// in\n    tag_42:\n      tag_43\n      jump\t// in\n    tag_41:\n      stop\n        /* \"contracts/student_result.sol\":990:1128  function Getper() public view returns(uint per){... */\n    tag_12:\n      tag_44\n      tag_45\n      jump\t// in\n    tag_44:\n      mload(0x40)\n      tag_46\n      swap2\n      swap1\n      tag_33\n      jump\t// in\n    tag_46:\n      mload(0x40)\n      dup1\n      swap2\n      sub\n      swap1\n      return\n        /* \"contracts/student_result.sol\":667:750  function Setsanskrit(uint m_sanskrit) public {... */\n    tag_17:\n        /* \"contracts/student_result.sol\":733:743  m_sanskrit */\n      dup1\n        /* \"contracts/student_result.sol\":722:730  sanskrit */\n      0x05\n        /* \"contracts/student_result.sol\":722:743  sanskrit = m_sanskrit */\n      dup2\n      swap1\n      sstore\n      pop\n        /* \"contracts/student_result.sol\":667:750  function Setsanskrit(uint m_sanskrit) public {... */\n      pop\n      jump\t// out\n        /* \"contracts/student_result.sol\":307:374  function Sethind(uint m_hind) public {... */\n    tag_20:\n        /* \"contracts/student_result.sol\":361:367  m_hind */\n      dup1\n        /* \"contracts/student_result.sol\":354:358  hind */\n      0x01\n        /* \"contracts/student_result.sol\":354:367  hind = m_hind */\n      dup2\n      swap1\n      sstore\n      pop\n        /* \"contracts/student_result.sol\":307:374  function Sethind(uint m_hind) public {... */\n      pop\n      jump\t// out\n        /* \"contracts/student_result.sol\":756:839  function Setcomputer(uint m_computer) public {... */\n    tag_23:\n        /* \"contracts/student_result.sol\":822:832  m_computer */\n      dup1\n        /* \"contracts/student_result.sol\":811:819  computer */\n      0x06\n        /* \"contracts/student_result.sol\":811:832  computer = m_computer */\n      dup2\n      swap1\n      sstore\n      pop\n        /* \"contracts/student_result.sol\":756:839  function Setcomputer(uint m_computer) public {... */\n      pop\n      jump\t// out\n        /* \"contracts/student_result.sol\":230:301  function Setmathe(uint m_mathe) public {... */\n    tag_26:\n        /* \"contracts/student_result.sol\":287:294  m_mathe */\n      dup1\n        /* \"contracts/student_result.sol\":279:284  mathe */\n      0x00\n        /* \"contracts/student_result.sol\":279:294  mathe = m_mathe */\n      dup2\n      swap1\n      sstore\n      pop\n        /* \"contracts/student_result.sol\":230:301  function Setmathe(uint m_mathe) public {... */\n      pop\n      jump\t// out\n        /* \"contracts/student_result.sol\":469:572  function Setsocial_scince(uint m_social_scince) public {... */\n    tag_29:\n        /* \"contracts/student_result.sol\":550:565  m_social_scince */\n      dup1\n        /* \"contracts/student_result.sol\":534:547  social_scince */\n      0x03\n        /* \"contracts/student_result.sol\":534:565  social_scince = m_social_scince */\n      dup2\n      swap1\n      sstore\n      pop\n        /* \"contracts/student_result.sol\":469:572  function Setsocial_scince(uint m_social_scince) public {... */\n      pop\n      jump\t// out\n        /* \"contracts/student_result.sol\":845:984  function Getmark() public view returns(uint total){... */\n    tag_31:\n        /* \"contracts/student_result.sol\":884:894  uint total */\n      0x00\n        /* \"contracts/student_result.sol\":969:977  computer */\n      sload(0x06)\n        /* \"contracts/student_result.sol\":960:968  sanskrit */\n      sload(0x05)\n        /* \"contracts/student_result.sol\":952:959  gujrati */\n      sload(0x04)\n        /* \"contracts/student_result.sol\":938:951  social_scince */\n      sload(0x03)\n        /* \"contracts/student_result.sol\":931:937  scince */\n      sload(0x02)\n        /* \"contracts/student_result.sol\":926:930  hind */\n      sload(0x01)\n        /* \"contracts/student_result.sol\":920:925  mathe */\n      sload(0x00)\n        /* \"contracts/student_result.sol\":920:930  mathe+hind */\n      tag_53\n      swap2\n      swap1\n      tag_54\n      jump\t// in\n    tag_53:\n        /* \"contracts/student_result.sol\":920:937  mathe+hind+scince */\n      tag_55\n      swap2\n      swap1\n      tag_54\n      jump\t// in\n    tag_55:\n        /* \"contracts/student_result.sol\":920:951  mathe+hind+scince+social_scince */\n      tag_56\n      swap2\n      swap1\n      tag_54\n      jump\t// in\n    tag_56:\n        /* \"contracts/student_result.sol\":920:959  mathe+hind+scince+social_scince+gujrati */\n      tag_57\n      swap2\n      swap1\n      tag_54\n      jump\t// in\n    tag_57:\n        /* \"contracts/student_result.sol\":920:968  mathe+hind+scince+social_scince+gujrati+sanskrit */\n      tag_58\n      swap2\n      swap1\n      tag_54\n      jump\t// in\n    tag_58:\n        /* \"contracts/student_result.sol\":920:977  mathe+hind+scince+social_scince+gujrati+sanskrit+computer */\n      tag_59\n      swap2\n      swap1\n      tag_54\n      jump\t// in\n    tag_59:\n        /* \"contracts/student_result.sol\":912:977  total = mathe+hind+scince+social_scince+gujrati+sanskrit+computer */\n      swap1\n      pop\n        /* \"contracts/student_result.sol\":845:984  function Getmark() public view returns(uint total){... */\n      swap1\n      jump\t// out\n        /* \"contracts/student_result.sol\":582:661  function Setgujrati(uint m_gujrati) public {... */\n    tag_36:\n        /* \"contracts/student_result.sol\":645:654  m_gujrati */\n      dup1\n        /* \"contracts/student_result.sol\":635:642  gujrati */\n      0x04\n        /* \"contracts/student_result.sol\":635:654  gujrati = m_gujrati */\n      dup2\n      swap1\n      sstore\n      pop\n        /* \"contracts/student_result.sol\":582:661  function Setgujrati(uint m_gujrati) public {... */\n      pop\n      jump\t// out\n        /* \"contracts/student_result.sol\":1134:1830  function Getgrade() public view returns(string memory grade){... */\n    tag_38:\n        /* \"contracts/student_result.sol\":1174:1193  string memory grade */\n      0x60\n        /* \"contracts/student_result.sol\":1204:1217  uint Gradeper */\n      0x00\n        /* \"contracts/student_result.sol\":1280:1281  7 */\n      0x07\n        /* \"contracts/student_result.sol\":1270:1278  computer */\n      sload(0x06)\n        /* \"contracts/student_result.sol\":1261:1269  sanskrit */\n      sload(0x05)\n        /* \"contracts/student_result.sol\":1253:1260  gujrati */\n      sload(0x04)\n        /* \"contracts/student_result.sol\":1239:1252  social_scince */\n      sload(0x03)\n        /* \"contracts/student_result.sol\":1232:1238  scince */\n      sload(0x02)\n        /* \"contracts/student_result.sol\":1227:1231  hind */\n      sload(0x01)\n        /* \"contracts/student_result.sol\":1221:1226  mathe */\n      sload(0x00)\n        /* \"contracts/student_result.sol\":1221:1231  mathe+hind */\n      tag_62\n      swap2\n      swap1\n      tag_54\n      jump\t// in\n    tag_62:\n        /* \"contracts/student_result.sol\":1221:1238  mathe+hind+scince */\n      tag_63\n      swap2\n      swap1\n      tag_54\n      jump\t// in\n    tag_63:\n        /* \"contracts/student_result.sol\":1221:1252  mathe+hind+scince+social_scince */\n      tag_64\n      swap2\n      swap1\n      tag_54\n      jump\t// in\n    tag_64:\n        /* \"contracts/student_result.sol\":1221:1260  mathe+hind+scince+social_scince+gujrati */\n      tag_65\n      swap2\n      swap1\n      tag_54\n      jump\t// in\n    tag_65:\n        /* \"contracts/student_result.sol\":1221:1269  mathe+hind+scince+social_scince+gujrati+sanskrit */\n      tag_66\n      swap2\n      swap1\n      tag_54\n      jump\t// in\n    tag_66:\n        /* \"contracts/student_result.sol\":1221:1278  mathe+hind+scince+social_scince+gujrati+sanskrit+computer */\n      tag_67\n      swap2\n      swap1\n      tag_54\n      jump\t// in\n    tag_67:\n        /* \"contracts/student_result.sol\":1220:1281  (mathe+hind+scince+social_scince+gujrati+sanskrit+computer)/7 */\n      tag_68\n      swap2\n      swap1\n      tag_69\n      jump\t// in\n    tag_68:\n        /* \"contracts/student_result.sol\":1204:1281  uint Gradeper = (mathe+hind+scince+social_scince+gujrati+sanskrit+computer)/7 */\n      swap1\n      pop\n        /* \"contracts/student_result.sol\":1306:1308  40 */\n      0x28\n        /* \"contracts/student_result.sol\":1294:1302  Gradeper */\n      dup2\n        /* \"contracts/student_result.sol\":1294:1308  Gradeper <= 40 */\n      gt\n        /* \"contracts/student_result.sol\":1291:1802  if(Gradeper <= 40){... */\n      tag_70\n      jumpi\n        /* \"contracts/student_result.sol\":1323:1337  grade = 'Fail' */\n      mload(0x40)\n      dup1\n      0x40\n      add\n      0x40\n      mstore\n      dup1\n      0x04\n      dup2\n      mstore\n      0x20\n      add\n      0x4661696c00000000000000000000000000000000000000000000000000000000\n      dup2\n      mstore\n      pop\n      swap2\n      pop\n        /* \"contracts/student_result.sol\":1291:1802  if(Gradeper <= 40){... */\n      jump(tag_71)\n    tag_70:\n        /* \"contracts/student_result.sol\":1369:1371  50 */\n      0x32\n        /* \"contracts/student_result.sol\":1357:1365  Gradeper */\n      dup2\n        /* \"contracts/student_result.sol\":1357:1371  Gradeper >= 50 */\n      lt\n      iszero\n        /* \"contracts/student_result.sol\":1357:1388  Gradeper >= 50 && Gradeper <=40 */\n      dup1\n      iszero\n      tag_72\n      jumpi\n      pop\n        /* \"contracts/student_result.sol\":1386:1388  40 */\n      0x28\n        /* \"contracts/student_result.sol\":1375:1383  Gradeper */\n      dup2\n        /* \"contracts/student_result.sol\":1375:1388  Gradeper <=40 */\n      gt\n      iszero\n        /* \"contracts/student_result.sol\":1357:1388  Gradeper >= 50 && Gradeper <=40 */\n    tag_72:\n        /* \"contracts/student_result.sol\":1354:1802  if(Gradeper >= 50 && Gradeper <=40){... */\n      iszero\n      tag_73\n      jumpi\n        /* \"contracts/student_result.sol\":1403:1414  grade = 'B' */\n      mload(0x40)\n      dup1\n      0x40\n      add\n      0x40\n      mstore\n      dup1\n      0x01\n      dup2\n      mstore\n      0x20\n      add\n      0x4200000000000000000000000000000000000000000000000000000000000000\n      dup2\n      mstore\n      pop\n      swap2\n      pop\n        /* \"contracts/student_result.sol\":1354:1802  if(Gradeper >= 50 && Gradeper <=40){... */\n      jump(tag_74)\n    tag_73:\n        /* \"contracts/student_result.sol\":1446:1448  50 */\n      0x32\n        /* \"contracts/student_result.sol\":1434:1442  Gradeper */\n      dup2\n        /* \"contracts/student_result.sol\":1434:1448  Gradeper >= 50 */\n      lt\n      iszero\n        /* \"contracts/student_result.sol\":1434:1466  Gradeper >= 50 && Gradeper <= 60 */\n      dup1\n      iszero\n      tag_75\n      jumpi\n      pop\n        /* \"contracts/student_result.sol\":1464:1466  60 */\n      0x3c\n        /* \"contracts/student_result.sol\":1452:1460  Gradeper */\n      dup2\n        /* \"contracts/student_result.sol\":1452:1466  Gradeper <= 60 */\n      gt\n      iszero\n        /* \"contracts/student_result.sol\":1434:1466  Gradeper >= 50 && Gradeper <= 60 */\n    tag_75:\n        /* \"contracts/student_result.sol\":1431:1802  if(Gradeper >= 50 && Gradeper <= 60){... */\n      iszero\n      tag_76\n      jumpi\n        /* \"contracts/student_result.sol\":1481:1493  grade = 'B+' */\n      mload(0x40)\n      dup1\n      0x40\n      add\n      0x40\n      mstore\n      dup1\n      0x02\n      dup2\n      mstore\n      0x20\n      add\n      0x422b000000000000000000000000000000000000000000000000000000000000\n      dup2\n      mstore\n      pop\n      swap2\n      pop\n        /* \"contracts/student_result.sol\":1431:1802  if(Gradeper >= 50 && Gradeper <= 60){... */\n      jump(tag_77)\n    tag_76:\n        /* \"contracts/student_result.sol\":1525:1527  60 */\n      0x3c\n        /* \"contracts/student_result.sol\":1513:1521  Gradeper */\n      dup2\n        /* \"contracts/student_result.sol\":1513:1527  Gradeper >= 60 */\n      lt\n      iszero\n        /* \"contracts/student_result.sol\":1513:1545  Gradeper >= 60 && Gradeper <= 70 */\n      dup1\n      iszero\n      tag_78\n      jumpi\n      pop\n        /* \"contracts/student_result.sol\":1543:1545  70 */\n      0x46\n        /* \"contracts/student_result.sol\":1531:1539  Gradeper */\n      dup2\n        /* \"contracts/student_result.sol\":1531:1545  Gradeper <= 70 */\n      gt\n      iszero\n        /* \"contracts/student_result.sol\":1513:1545  Gradeper >= 60 && Gradeper <= 70 */\n    tag_78:\n        /* \"contracts/student_result.sol\":1510:1802  if(Gradeper >= 60 && Gradeper <= 70){... */\n      iszero\n      tag_79\n      jumpi\n        /* \"contracts/student_result.sol\":1560:1571  grade = 'A' */\n      mload(0x40)\n      dup1\n      0x40\n      add\n      0x40\n      mstore\n      dup1\n      0x01\n      dup2\n      mstore\n      0x20\n      add\n      0x4100000000000000000000000000000000000000000000000000000000000000\n      dup2\n      mstore\n      pop\n      swap2\n      pop\n        /* \"contracts/student_result.sol\":1510:1802  if(Gradeper >= 60 && Gradeper <= 70){... */\n      jump(tag_80)\n    tag_79:\n        /* \"contracts/student_result.sol\":1603:1605  70 */\n      0x46\n        /* \"contracts/student_result.sol\":1591:1599  Gradeper */\n      dup2\n        /* \"contracts/student_result.sol\":1591:1605  Gradeper >= 70 */\n      lt\n      iszero\n        /* \"contracts/student_result.sol\":1591:1623  Gradeper >= 70 && Gradeper <= 80 */\n      dup1\n      iszero\n      tag_81\n      jumpi\n      pop\n        /* \"contracts/student_result.sol\":1621:1623  80 */\n      0x50\n        /* \"contracts/student_result.sol\":1609:1617  Gradeper */\n      dup2\n        /* \"contracts/student_result.sol\":1609:1623  Gradeper <= 80 */\n      gt\n      iszero\n        /* \"contracts/student_result.sol\":1591:1623  Gradeper >= 70 && Gradeper <= 80 */\n    tag_81:\n        /* \"contracts/student_result.sol\":1588:1802  if(Gradeper >= 70 && Gradeper <= 80){... */\n      iszero\n      tag_82\n      jumpi\n        /* \"contracts/student_result.sol\":1638:1650  grade = 'A+' */\n      mload(0x40)\n      dup1\n      0x40\n      add\n      0x40\n      mstore\n      dup1\n      0x02\n      dup2\n      mstore\n      0x20\n      add\n      0x412b000000000000000000000000000000000000000000000000000000000000\n      dup2\n      mstore\n      pop\n      swap2\n      pop\n        /* \"contracts/student_result.sol\":1588:1802  if(Gradeper >= 70 && Gradeper <= 80){... */\n      jump(tag_83)\n    tag_82:\n        /* \"contracts/student_result.sol\":1682:1684  80 */\n      0x50\n        /* \"contracts/student_result.sol\":1670:1678  Gradeper */\n      dup2\n        /* \"contracts/student_result.sol\":1670:1684  Gradeper >= 80 */\n      lt\n      iszero\n        /* \"contracts/student_result.sol\":1670:1702  Gradeper >= 80 && Gradeper <= 90 */\n      dup1\n      iszero\n      tag_84\n      jumpi\n      pop\n        /* \"contracts/student_result.sol\":1700:1702  90 */\n      0x5a\n        /* \"contracts/student_result.sol\":1688:1696  Gradeper */\n      dup2\n        /* \"contracts/student_result.sol\":1688:1702  Gradeper <= 90 */\n      gt\n      iszero\n        /* \"contracts/student_result.sol\":1670:1702  Gradeper >= 80 && Gradeper <= 90 */\n    tag_84:\n        /* \"contracts/student_result.sol\":1667:1802  if(Gradeper >= 80 && Gradeper <= 90){... */\n      iszero\n      tag_85\n      jumpi\n        /* \"contracts/student_result.sol\":1717:1730  grade = 'A++' */\n      mload(0x40)\n      dup1\n      0x40\n      add\n      0x40\n      mstore\n      dup1\n      0x03\n      dup2\n      mstore\n      0x20\n      add\n      0x412b2b0000000000000000000000000000000000000000000000000000000000\n      dup2\n      mstore\n      pop\n      swap2\n      pop\n        /* \"contracts/student_result.sol\":1667:1802  if(Gradeper >= 80 && Gradeper <= 90){... */\n      jump(tag_86)\n    tag_85:\n        /* \"contracts/student_result.sol\":1761:1763  90 */\n      0x5a\n        /* \"contracts/student_result.sol\":1750:1758  Gradeper */\n      dup2\n        /* \"contracts/student_result.sol\":1750:1763  Gradeper > 90 */\n      gt\n        /* \"contracts/student_result.sol\":1747:1802  if(Gradeper > 90){... */\n      iszero\n      tag_87\n      jumpi\n        /* \"contracts/student_result.sol\":1778:1791  grade = 'Top' */\n      mload(0x40)\n      dup1\n      0x40\n      add\n      0x40\n      mstore\n      dup1\n      0x03\n      dup2\n      mstore\n      0x20\n      add\n      0x546f700000000000000000000000000000000000000000000000000000000000\n      dup2\n      mstore\n      pop\n      swap2\n      pop\n        /* \"contracts/student_result.sol\":1747:1802  if(Gradeper > 90){... */\n    tag_87:\n        /* \"contracts/student_result.sol\":1667:1802  if(Gradeper >= 80 && Gradeper <= 90){... */\n    tag_86:\n        /* \"contracts/student_result.sol\":1588:1802  if(Gradeper >= 70 && Gradeper <= 80){... */\n    tag_83:\n        /* \"contracts/student_result.sol\":1510:1802  if(Gradeper >= 60 && Gradeper <= 70){... */\n    tag_80:\n        /* \"contracts/student_result.sol\":1431:1802  if(Gradeper >= 50 && Gradeper <= 60){... */\n    tag_77:\n        /* \"contracts/student_result.sol\":1354:1802  if(Gradeper >= 50 && Gradeper <=40){... */\n    tag_74:\n        /* \"contracts/student_result.sol\":1291:1802  if(Gradeper <= 40){... */\n    tag_71:\n        /* \"contracts/student_result.sol\":1811:1823  return grade */\n      pop\n        /* \"contracts/student_result.sol\":1134:1830  function Getgrade() public view returns(string memory grade){... */\n      swap1\n      jump\t// out\n        /* \"contracts/student_result.sol\":384:459  function Setscince(uint m_scince) public {... */\n    tag_43:\n        /* \"contracts/student_result.sol\":444:452  m_scince */\n      dup1\n        /* \"contracts/student_result.sol\":435:441  scince */\n      0x02\n        /* \"contracts/student_result.sol\":435:452  scince = m_scince */\n      dup2\n      swap1\n      sstore\n      pop\n        /* \"contracts/student_result.sol\":384:459  function Setscince(uint m_scince) public {... */\n      pop\n      jump\t// out\n        /* \"contracts/student_result.sol\":990:1128  function Getper() public view returns(uint per){... */\n    tag_45:\n        /* \"contracts/student_result.sol\":1028:1036  uint per */\n      0x00\n        /* \"contracts/student_result.sol\":1120:1121  7 */\n      0x07\n        /* \"contracts/student_result.sol\":1110:1118  computer */\n      sload(0x06)\n        /* \"contracts/student_result.sol\":1101:1109  sanskrit */\n      sload(0x05)\n        /* \"contracts/student_result.sol\":1093:1100  gujrati */\n      sload(0x04)\n        /* \"contracts/student_result.sol\":1079:1092  social_scince */\n      sload(0x03)\n        /* \"contracts/student_result.sol\":1072:1078  scince */\n      sload(0x02)\n        /* \"contracts/student_result.sol\":1067:1071  hind */\n      sload(0x01)\n        /* \"contracts/student_result.sol\":1061:1066  mathe */\n      sload(0x00)\n        /* \"contracts/student_result.sol\":1061:1071  mathe+hind */\n      tag_90\n      swap2\n      swap1\n      tag_54\n      jump\t// in\n    tag_90:\n        /* \"contracts/student_result.sol\":1061:1078  mathe+hind+scince */\n      tag_91\n      swap2\n      swap1\n      tag_54\n      jump\t// in\n    tag_91:\n        /* \"contracts/student_result.sol\":1061:1092  mathe+hind+scince+social_scince */\n      tag_92\n      swap2\n      swap1\n      tag_54\n      jump\t// in\n    tag_92:\n        /* \"contracts/student_result.sol\":1061:1100  mathe+hind+scince+social_scince+gujrati */\n      tag_93\n      swap2\n      swap1\n      tag_54\n      jump\t// in\n    tag_93:\n        /* \"contracts/student_result.sol\":1061:1109  mathe+hind+scince+social_scince+gujrati+sanskrit */\n      tag_94\n      swap2\n      swap1\n      tag_54\n      jump\t// in\n    tag_94:\n        /* \"contracts/student_result.sol\":1061:1118  mathe+hind+scince+social_scince+gujrati+sanskrit+computer */\n      tag_95\n      swap2\n      swap1\n      tag_54\n      jump\t// in\n    tag_95:\n        /* \"contracts/student_result.sol\":1060:1121  (mathe+hind+scince+social_scince+gujrati+sanskrit+computer)/7 */\n      tag_96\n      swap2\n      swap1\n      tag_69\n      jump\t// in\n    tag_96:\n        /* \"contracts/student_result.sol\":1054:1121  per = (mathe+hind+scince+social_scince+gujrati+sanskrit+computer)/7 */\n      swap1\n      pop\n        /* \"contracts/student_result.sol\":990:1128  function Getper() public view returns(uint per){... */\n      swap1\n      jump\t// out\n        /* \"#utility.yul\":88:205   */\n    tag_98:\n        /* \"#utility.yul\":197:198   */\n      0x00\n        /* \"#utility.yul\":194:195   */\n      dup1\n        /* \"#utility.yul\":187:199   */\n      revert\n        /* \"#utility.yul\":334:411   */\n    tag_100:\n        /* \"#utility.yul\":371:378   */\n      0x00\n        /* \"#utility.yul\":400:405   */\n      dup2\n        /* \"#utility.yul\":389:405   */\n      swap1\n      pop\n        /* \"#utility.yul\":334:411   */\n      swap2\n      swap1\n      pop\n      jump\t// out\n        /* \"#utility.yul\":417:539   */\n    tag_101:\n        /* \"#utility.yul\":490:514   */\n      tag_117\n        /* \"#utility.yul\":508:513   */\n      dup2\n        /* \"#utility.yul\":490:514   */\n      tag_100\n      jump\t// in\n    tag_117:\n        /* \"#utility.yul\":483:488   */\n      dup2\n        /* \"#utility.yul\":480:515   */\n      eq\n        /* \"#utility.yul\":470:533   */\n      tag_118\n      jumpi\n        /* \"#utility.yul\":529:530   */\n      0x00\n        /* \"#utility.yul\":526:527   */\n      dup1\n        /* \"#utility.yul\":519:531   */\n      revert\n        /* \"#utility.yul\":470:533   */\n    tag_118:\n        /* \"#utility.yul\":417:539   */\n      pop\n      jump\t// out\n        /* \"#utility.yul\":545:684   */\n    tag_102:\n        /* \"#utility.yul\":591:596   */\n      0x00\n        /* \"#utility.yul\":629:635   */\n      dup2\n        /* \"#utility.yul\":616:636   */\n      calldataload\n        /* \"#utility.yul\":607:636   */\n      swap1\n      pop\n        /* \"#utility.yul\":645:678   */\n      tag_120\n        /* \"#utility.yul\":672:677   */\n      dup2\n        /* \"#utility.yul\":645:678   */\n      tag_101\n      jump\t// in\n    tag_120:\n        /* \"#utility.yul\":545:684   */\n      swap3\n      swap2\n      pop\n      pop\n      jump\t// out\n        /* \"#utility.yul\":690:1019   */\n    tag_16:\n        /* \"#utility.yul\":749:755   */\n      0x00\n        /* \"#utility.yul\":798:800   */\n      0x20\n        /* \"#utility.yul\":786:795   */\n      dup3\n        /* \"#utility.yul\":777:784   */\n      dup5\n        /* \"#utility.yul\":773:796   */\n      sub\n        /* \"#utility.yul\":769:801   */\n      slt\n        /* \"#utility.yul\":766:885   */\n      iszero\n      tag_122\n      jumpi\n        /* \"#utility.yul\":804:883   */\n      tag_123\n      tag_98\n      jump\t// in\n    tag_123:\n        /* \"#utility.yul\":766:885   */\n    tag_122:\n        /* \"#utility.yul\":924:925   */\n      0x00\n        /* \"#utility.yul\":949:1002   */\n      tag_124\n        /* \"#utility.yul\":994:1001   */\n      dup5\n        /* \"#utility.yul\":985:991   */\n      dup3\n        /* \"#utility.yul\":974:983   */\n      dup6\n        /* \"#utility.yul\":970:992   */\n      add\n        /* \"#utility.yul\":949:1002   */\n      tag_102\n      jump\t// in\n    tag_124:\n        /* \"#utility.yul\":939:1002   */\n      swap2\n      pop\n        /* \"#utility.yul\":895:1012   */\n      pop\n        /* \"#utility.yul\":690:1019   */\n      swap3\n      swap2\n      pop\n      pop\n      jump\t// out\n        /* \"#utility.yul\":1025:1143   */\n    tag_103:\n        /* \"#utility.yul\":1112:1136   */\n      tag_126\n        /* \"#utility.yul\":1130:1135   */\n      dup2\n        /* \"#utility.yul\":1112:1136   */\n      tag_100\n      jump\t// in\n    tag_126:\n        /* \"#utility.yul\":1107:1110   */\n      dup3\n        /* \"#utility.yul\":1100:1137   */\n      mstore\n        /* \"#utility.yul\":1025:1143   */\n      pop\n      pop\n      jump\t// out\n        /* \"#utility.yul\":1149:1371   */\n    tag_33:\n        /* \"#utility.yul\":1242:1246   */\n      0x00\n        /* \"#utility.yul\":1280:1282   */\n      0x20\n        /* \"#utility.yul\":1269:1278   */\n      dup3\n        /* \"#utility.yul\":1265:1283   */\n      add\n        /* \"#utility.yul\":1257:1283   */\n      swap1\n      pop\n        /* \"#utility.yul\":1293:1364   */\n      tag_128\n        /* \"#utility.yul\":1361:1362   */\n      0x00\n        /* \"#utility.yul\":1350:1359   */\n      dup4\n        /* \"#utility.yul\":1346:1363   */\n      add\n        /* \"#utility.yul\":1337:1343   */\n      dup5\n        /* \"#utility.yul\":1293:1364   */\n      tag_103\n      jump\t// in\n    tag_128:\n        /* \"#utility.yul\":1149:1371   */\n      swap3\n      swap2\n      pop\n      pop\n      jump\t// out\n        /* \"#utility.yul\":1377:1476   */\n    tag_104:\n        /* \"#utility.yul\":1429:1435   */\n      0x00\n        /* \"#utility.yul\":1463:1468   */\n      dup2\n        /* \"#utility.yul\":1457:1469   */\n      mload\n        /* \"#utility.yul\":1447:1469   */\n      swap1\n      pop\n        /* \"#utility.yul\":1377:1476   */\n      swap2\n      swap1\n      pop\n      jump\t// out\n        /* \"#utility.yul\":1482:1651   */\n    tag_105:\n        /* \"#utility.yul\":1566:1577   */\n      0x00\n        /* \"#utility.yul\":1600:1606   */\n      dup3\n        /* \"#utility.yul\":1595:1598   */\n      dup3\n        /* \"#utility.yul\":1588:1607   */\n      mstore\n        /* \"#utility.yul\":1640:1644   */\n      0x20\n        /* \"#utility.yul\":1635:1638   */\n      dup3\n        /* \"#utility.yul\":1631:1645   */\n      add\n        /* \"#utility.yul\":1616:1645   */\n      swap1\n      pop\n        /* \"#utility.yul\":1482:1651   */\n      swap3\n      swap2\n      pop\n      pop\n      jump\t// out\n        /* \"#utility.yul\":1657:1903   */\n    tag_106:\n        /* \"#utility.yul\":1738:1739   */\n      0x00\n        /* \"#utility.yul\":1748:1861   */\n    tag_132:\n        /* \"#utility.yul\":1762:1768   */\n      dup4\n        /* \"#utility.yul\":1759:1760   */\n      dup2\n        /* \"#utility.yul\":1756:1769   */\n      lt\n        /* \"#utility.yul\":1748:1861   */\n      iszero\n      tag_134\n      jumpi\n        /* \"#utility.yul\":1847:1848   */\n      dup1\n        /* \"#utility.yul\":1842:1845   */\n      dup3\n        /* \"#utility.yul\":1838:1849   */\n      add\n        /* \"#utility.yul\":1832:1850   */\n      mload\n        /* \"#utility.yul\":1828:1829   */\n      dup2\n        /* \"#utility.yul\":1823:1826   */\n      dup5\n        /* \"#utility.yul\":1819:1830   */\n      add\n        /* \"#utility.yul\":1812:1851   */\n      mstore\n        /* \"#utility.yul\":1784:1786   */\n      0x20\n        /* \"#utility.yul\":1781:1782   */\n      dup2\n        /* \"#utility.yul\":1777:1787   */\n      add\n        /* \"#utility.yul\":1772:1787   */\n      swap1\n      pop\n        /* \"#utility.yul\":1748:1861   */\n      jump(tag_132)\n    tag_134:\n        /* \"#utility.yul\":1895:1896   */\n      0x00\n        /* \"#utility.yul\":1886:1892   */\n      dup5\n        /* \"#utility.yul\":1881:1884   */\n      dup5\n        /* \"#utility.yul\":1877:1893   */\n      add\n        /* \"#utility.yul\":1870:1897   */\n      mstore\n        /* \"#utility.yul\":1719:1903   */\n      pop\n        /* \"#utility.yul\":1657:1903   */\n      pop\n      pop\n      pop\n      jump\t// out\n        /* \"#utility.yul\":1909:2011   */\n    tag_107:\n        /* \"#utility.yul\":1950:1956   */\n      0x00\n        /* \"#utility.yul\":2001:2003   */\n      0x1f\n        /* \"#utility.yul\":1997:2004   */\n      not\n        /* \"#utility.yul\":1992:1994   */\n      0x1f\n        /* \"#utility.yul\":1985:1990   */\n      dup4\n        /* \"#utility.yul\":1981:1995   */\n      add\n        /* \"#utility.yul\":1977:2005   */\n      and\n        /* \"#utility.yul\":1967:2005   */\n      swap1\n      pop\n        /* \"#utility.yul\":1909:2011   */\n      swap2\n      swap1\n      pop\n      jump\t// out\n        /* \"#utility.yul\":2017:2394   */\n    tag_108:\n        /* \"#utility.yul\":2105:2108   */\n      0x00\n        /* \"#utility.yul\":2133:2172   */\n      tag_137\n        /* \"#utility.yul\":2166:2171   */\n      dup3\n        /* \"#utility.yul\":2133:2172   */\n      tag_104\n      jump\t// in\n    tag_137:\n        /* \"#utility.yul\":2188:2259   */\n      tag_138\n        /* \"#utility.yul\":2252:2258   */\n      dup2\n        /* \"#utility.yul\":2247:2250   */\n      dup6\n        /* \"#utility.yul\":2188:2259   */\n      tag_105\n      jump\t// in\n    tag_138:\n        /* \"#utility.yul\":2181:2259   */\n      swap4\n      pop\n        /* \"#utility.yul\":2268:2333   */\n      tag_139\n        /* \"#utility.yul\":2326:2332   */\n      dup2\n        /* \"#utility.yul\":2321:2324   */\n      dup6\n        /* \"#utility.yul\":2314:2318   */\n      0x20\n        /* \"#utility.yul\":2307:2312   */\n      dup7\n        /* \"#utility.yul\":2303:2319   */\n      add\n        /* \"#utility.yul\":2268:2333   */\n      tag_106\n      jump\t// in\n    tag_139:\n        /* \"#utility.yul\":2358:2387   */\n      tag_140\n        /* \"#utility.yul\":2380:2386   */\n      dup2\n        /* \"#utility.yul\":2358:2387   */\n      tag_107\n      jump\t// in\n    tag_140:\n        /* \"#utility.yul\":2353:2356   */\n      dup5\n        /* \"#utility.yul\":2349:2388   */\n      add\n        /* \"#utility.yul\":2342:2388   */\n      swap2\n      pop\n        /* \"#utility.yul\":2109:2394   */\n      pop\n        /* \"#utility.yul\":2017:2394   */\n      swap3\n      swap2\n      pop\n      pop\n      jump\t// out\n        /* \"#utility.yul\":2400:2713   */\n    tag_40:\n        /* \"#utility.yul\":2513:2517   */\n      0x00\n        /* \"#utility.yul\":2551:2553   */\n      0x20\n        /* \"#utility.yul\":2540:2549   */\n      dup3\n        /* \"#utility.yul\":2536:2554   */\n      add\n        /* \"#utility.yul\":2528:2554   */\n      swap1\n      pop\n        /* \"#utility.yul\":2600:2609   */\n      dup2\n        /* \"#utility.yul\":2594:2598   */\n      dup2\n        /* \"#utility.yul\":2590:2610   */\n      sub\n        /* \"#utility.yul\":2586:2587   */\n      0x00\n        /* \"#utility.yul\":2575:2584   */\n      dup4\n        /* \"#utility.yul\":2571:2588   */\n      add\n        /* \"#utility.yul\":2564:2611   */\n      mstore\n        /* \"#utility.yul\":2628:2706   */\n      tag_142\n        /* \"#utility.yul\":2701:2705   */\n      dup2\n        /* \"#utility.yul\":2692:2698   */\n      dup5\n        /* \"#utility.yul\":2628:2706   */\n      tag_108\n      jump\t// in\n    tag_142:\n        /* \"#utility.yul\":2620:2706   */\n      swap1\n      pop\n        /* \"#utility.yul\":2400:2713   */\n      swap3\n      swap2\n      pop\n      pop\n      jump\t// out\n        /* \"#utility.yul\":2719:2899   */\n    tag_109:\n        /* \"#utility.yul\":2767:2844   */\n      0x4e487b7100000000000000000000000000000000000000000000000000000000\n        /* \"#utility.yul\":2764:2765   */\n      0x00\n        /* \"#utility.yul\":2757:2845   */\n      mstore\n        /* \"#utility.yul\":2864:2868   */\n      0x11\n        /* \"#utility.yul\":2861:2862   */\n      0x04\n        /* \"#utility.yul\":2854:2869   */\n      mstore\n        /* \"#utility.yul\":2888:2892   */\n      0x24\n        /* \"#utility.yul\":2885:2886   */\n      0x00\n        /* \"#utility.yul\":2878:2893   */\n      revert\n        /* \"#utility.yul\":2905:3096   */\n    tag_54:\n        /* \"#utility.yul\":2945:2948   */\n      0x00\n        /* \"#utility.yul\":2964:2984   */\n      tag_145\n        /* \"#utility.yul\":2982:2983   */\n      dup3\n        /* \"#utility.yul\":2964:2984   */\n      tag_100\n      jump\t// in\n    tag_145:\n        /* \"#utility.yul\":2959:2984   */\n      swap2\n      pop\n        /* \"#utility.yul\":2998:3018   */\n      tag_146\n        /* \"#utility.yul\":3016:3017   */\n      dup4\n        /* \"#utility.yul\":2998:3018   */\n      tag_100\n      jump\t// in\n    tag_146:\n        /* \"#utility.yul\":2993:3018   */\n      swap3\n      pop\n        /* \"#utility.yul\":3041:3042   */\n      dup3\n        /* \"#utility.yul\":3038:3039   */\n      dup3\n        /* \"#utility.yul\":3034:3043   */\n      add\n        /* \"#utility.yul\":3027:3043   */\n      swap1\n      pop\n        /* \"#utility.yul\":3062:3065   */\n      dup1\n        /* \"#utility.yul\":3059:3060   */\n      dup3\n        /* \"#utility.yul\":3056:3066   */\n      gt\n        /* \"#utility.yul\":3053:3089   */\n      iszero\n      tag_147\n      jumpi\n        /* \"#utility.yul\":3069:3087   */\n      tag_148\n      tag_109\n      jump\t// in\n    tag_148:\n        /* \"#utility.yul\":3053:3089   */\n    tag_147:\n        /* \"#utility.yul\":2905:3096   */\n      swap3\n      swap2\n      pop\n      pop\n      jump\t// out\n        /* \"#utility.yul\":3102:3282   */\n    tag_110:\n        /* \"#utility.yul\":3150:3227   */\n      0x4e487b7100000000000000000000000000000000000000000000000000000000\n        /* \"#utility.yul\":3147:3148   */\n      0x00\n        /* \"#utility.yul\":3140:3228   */\n      mstore\n        /* \"#utility.yul\":3247:3251   */\n      0x12\n        /* \"#utility.yul\":3244:3245   */\n      0x04\n        /* \"#utility.yul\":3237:3252   */\n      mstore\n        /* \"#utility.yul\":3271:3275   */\n      0x24\n        /* \"#utility.yul\":3268:3269   */\n      0x00\n        /* \"#utility.yul\":3261:3276   */\n      revert\n        /* \"#utility.yul\":3288:3473   */\n    tag_69:\n        /* \"#utility.yul\":3328:3329   */\n      0x00\n        /* \"#utility.yul\":3345:3365   */\n      tag_151\n        /* \"#utility.yul\":3363:3364   */\n      dup3\n        /* \"#utility.yul\":3345:3365   */\n      tag_100\n      jump\t// in\n    tag_151:\n        /* \"#utility.yul\":3340:3365   */\n      swap2\n      pop\n        /* \"#utility.yul\":3379:3399   */\n      tag_152\n        /* \"#utility.yul\":3397:3398   */\n      dup4\n        /* \"#utility.yul\":3379:3399   */\n      tag_100\n      jump\t// in\n    tag_152:\n        /* \"#utility.yul\":3374:3399   */\n      swap3\n      pop\n        /* \"#utility.yul\":3418:3419   */\n      dup3\n        /* \"#utility.yul\":3408:3443   */\n      tag_153\n      jumpi\n        /* \"#utility.yul\":3423:3441   */\n      tag_154\n      tag_110\n      jump\t// in\n    tag_154:\n        /* \"#utility.yul\":3408:3443   */\n    tag_153:\n        /* \"#utility.yul\":3465:3466   */\n      dup3\n        /* \"#utility.yul\":3462:3463   */\n      dup3\n        /* \"#utility.yul\":3458:3467   */\n      div\n        /* \"#utility.yul\":3453:3467   */\n      swap1\n      pop\n        /* \"#utility.yul\":3288:3473   */\n      swap3\n      swap2\n      pop\n      pop\n      jump\t// out\n\n    auxdata: 0xa2646970667358221220332e2b19aeb5f51b4c090a55e0786eb0a879cbe9aa081922534e6428045b612a64736f6c63430008120033\n}\n",
				"bytecode": {
					"linkReferences": {},
					"object": "608060405234801561001057600080fd5b50610798806100206000396000f3fe608060405234801561001057600080fd5b506004361061009e5760003560e01c80637b54a72f116100665780637b54a72f1461012f5780638d306fe91461014d578063cdf8bcc314610169578063ea2005b814610187578063fce69179146101a35761009e565b806304814f8f146100a35780632311b275146100bf5780635ac31968146100db5780635b494cda146100f75780636445e5a114610113575b600080fd5b6100bd60048036038101906100b89190610596565b6101c1565b005b6100d960048036038101906100d49190610596565b6101cb565b005b6100f560048036038101906100f09190610596565b6101d5565b005b610111600480360381019061010c9190610596565b6101df565b005b61012d60048036038101906101289190610596565b6101e9565b005b6101376101f3565b60405161014491906105d2565b60405180910390f35b61016760048036038101906101629190610596565b61024b565b005b610171610255565b60405161017e919061067d565b60405180910390f35b6101a1600480360381019061019c9190610596565b6104ed565b005b6101ab6104f7565b6040516101b891906105d2565b60405180910390f35b8060058190555050565b8060018190555050565b8060068190555050565b8060008190555050565b8060038190555050565b600060065460055460045460035460025460015460005461021491906106ce565b61021e91906106ce565b61022891906106ce565b61023291906106ce565b61023c91906106ce565b61024691906106ce565b905090565b8060048190555050565b60606000600760065460055460045460035460025460015460005461027a91906106ce565b61028491906106ce565b61028e91906106ce565b61029891906106ce565b6102a291906106ce565b6102ac91906106ce565b6102b69190610731565b9050602881116102fd576040518060400160405280600481526020017f4661696c0000000000000000000000000000000000000000000000000000000081525091506104e9565b6032811015801561030f575060288111155b15610351576040518060400160405280600181526020017f420000000000000000000000000000000000000000000000000000000000000081525091506104e8565b603281101580156103635750603c8111155b156103a5576040518060400160405280600281526020017f422b00000000000000000000000000000000000000000000000000000000000081525091506104e7565b603c81101580156103b7575060468111155b156103f9576040518060400160405280600181526020017f410000000000000000000000000000000000000000000000000000000000000081525091506104e6565b6046811015801561040b575060508111155b1561044d576040518060400160405280600281526020017f412b00000000000000000000000000000000000000000000000000000000000081525091506104e5565b6050811015801561045f5750605a8111155b156104a1576040518060400160405280600381526020017f412b2b000000000000000000000000000000000000000000000000000000000081525091506104e4565b605a8111156104e3576040518060400160405280600381526020017f546f70000000000000000000000000000000000000000000000000000000000081525091505b5b5b5b5b5b5b5090565b8060028190555050565b6000600760065460055460045460035460025460015460005461051a91906106ce565b61052491906106ce565b61052e91906106ce565b61053891906106ce565b61054291906106ce565b61054c91906106ce565b6105569190610731565b905090565b600080fd5b6000819050919050565b61057381610560565b811461057e57600080fd5b50565b6000813590506105908161056a565b92915050565b6000602082840312156105ac576105ab61055b565b5b60006105ba84828501610581565b91505092915050565b6105cc81610560565b82525050565b60006020820190506105e760008301846105c3565b92915050565b600081519050919050565b600082825260208201905092915050565b60005b8381101561062757808201518184015260208101905061060c565b60008484015250505050565b6000601f19601f8301169050919050565b600061064f826105ed565b61065981856105f8565b9350610669818560208601610609565b61067281610633565b840191505092915050565b600060208201905081810360008301526106978184610644565b905092915050565b7f4e487b7100000000000000000000000000000000000000000000000000000000600052601160045260246000fd5b60006106d982610560565b91506106e483610560565b92508282019050808211156106fc576106fb61069f565b5b92915050565b7f4e487b7100000000000000000000000000000000000000000000000000000000600052601260045260246000fd5b600061073c82610560565b915061074783610560565b92508261075757610756610702565b5b82820490509291505056fea2646970667358221220332e2b19aeb5f51b4c090a55e0786eb0a879cbe9aa081922534e6428045b612a64736f6c63430008120033",
					"opcodes": "PUSH1 0x80 PUSH1 0x40 MSTORE CALLVALUE DUP1 ISZERO PUSH2 0x10 JUMPI PUSH1 0x0 DUP1 REVERT JUMPDEST POP PUSH2 0x798 DUP1 PUSH2 0x20 PUSH1 0x0 CODECOPY PUSH1 0x0 RETURN INVALID PUSH1 0x80 PUSH1 0x40 MSTORE CALLVALUE DUP1 ISZERO PUSH2 0x10 JUMPI PUSH1 0x0 DUP1 REVERT JUMPDEST POP PUSH1 0x4 CALLDATASIZE LT PUSH2 0x9E JUMPI PUSH1 0x0 CALLDATALOAD PUSH1 0xE0 SHR DUP1 PUSH4 0x7B54A72F GT PUSH2 0x66 JUMPI DUP1 PUSH4 0x7B54A72F EQ PUSH2 0x12F JUMPI DUP1 PUSH4 0x8D306FE9 EQ PUSH2 0x14D JUMPI DUP1 PUSH4 0xCDF8BCC3 EQ PUSH2 0x169 JUMPI DUP1 PUSH4 0xEA2005B8 EQ PUSH2 0x187 JUMPI DUP1 PUSH4 0xFCE69179 EQ PUSH2 0x1A3 JUMPI PUSH2 0x9E JUMP JUMPDEST DUP1 PUSH4 0x4814F8F EQ PUSH2 0xA3 JUMPI DUP1 PUSH4 0x2311B275 EQ PUSH2 0xBF JUMPI DUP1 PUSH4 0x5AC31968 EQ PUSH2 0xDB JUMPI DUP1 PUSH4 0x5B494CDA EQ PUSH2 0xF7 JUMPI DUP1 PUSH4 0x6445E5A1 EQ PUSH2 0x113 JUMPI JUMPDEST PUSH1 0x0 DUP1 REVERT JUMPDEST PUSH2 0xBD PUSH1 0x4 DUP1 CALLDATASIZE SUB DUP2 ADD SWAP1 PUSH2 0xB8 SWAP2 SWAP1 PUSH2 0x596 JUMP JUMPDEST PUSH2 0x1C1 JUMP JUMPDEST STOP JUMPDEST PUSH2 0xD9 PUSH1 0x4 DUP1 CALLDATASIZE SUB DUP2 ADD SWAP1 PUSH2 0xD4 SWAP2 SWAP1 PUSH2 0x596 JUMP JUMPDEST PUSH2 0x1CB JUMP JUMPDEST STOP JUMPDEST PUSH2 0xF5 PUSH1 0x4 DUP1 CALLDATASIZE SUB DUP2 ADD SWAP1 PUSH2 0xF0 SWAP2 SWAP1 PUSH2 0x596 JUMP JUMPDEST PUSH2 0x1D5 JUMP JUMPDEST STOP JUMPDEST PUSH2 0x111 PUSH1 0x4 DUP1 CALLDATASIZE SUB DUP2 ADD SWAP1 PUSH2 0x10C SWAP2 SWAP1 PUSH2 0x596 JUMP JUMPDEST PUSH2 0x1DF JUMP JUMPDEST STOP JUMPDEST PUSH2 0x12D PUSH1 0x4 DUP1 CALLDATASIZE SUB DUP2 ADD SWAP1 PUSH2 0x128 SWAP2 SWAP1 PUSH2 0x596 JUMP JUMPDEST PUSH2 0x1E9 JUMP JUMPDEST STOP JUMPDEST PUSH2 0x137 PUSH2 0x1F3 JUMP JUMPDEST PUSH1 0x40 MLOAD PUSH2 0x144 SWAP2 SWAP1 PUSH2 0x5D2 JUMP JUMPDEST PUSH1 0x40 MLOAD DUP1 SWAP2 SUB SWAP1 RETURN JUMPDEST PUSH2 0x167 PUSH1 0x4 DUP1 CALLDATASIZE SUB DUP2 ADD SWAP1 PUSH2 0x162 SWAP2 SWAP1 PUSH2 0x596 JUMP JUMPDEST PUSH2 0x24B JUMP JUMPDEST STOP JUMPDEST PUSH2 0x171 PUSH2 0x255 JUMP JUMPDEST PUSH1 0x40 MLOAD PUSH2 0x17E SWAP2 SWAP1 PUSH2 0x67D JUMP JUMPDEST PUSH1 0x40 MLOAD DUP1 SWAP2 SUB SWAP1 RETURN JUMPDEST PUSH2 0x1A1 PUSH1 0x4 DUP1 CALLDATASIZE SUB DUP2 ADD SWAP1 PUSH2 0x19C SWAP2 SWAP1 PUSH2 0x596 JUMP JUMPDEST PUSH2 0x4ED JUMP JUMPDEST STOP JUMPDEST PUSH2 0x1AB PUSH2 0x4F7 JUMP JUMPDEST PUSH1 0x40 MLOAD PUSH2 0x1B8 SWAP2 SWAP1 PUSH2 0x5D2 JUMP JUMPDEST PUSH1 0x40 MLOAD DUP1 SWAP2 SUB SWAP1 RETURN JUMPDEST DUP1 PUSH1 0x5 DUP2 SWAP1 SSTORE POP POP JUMP JUMPDEST DUP1 PUSH1 0x1 DUP2 SWAP1 SSTORE POP POP JUMP JUMPDEST DUP1 PUSH1 0x6 DUP2 SWAP1 SSTORE POP POP JUMP JUMPDEST DUP1 PUSH1 0x0 DUP2 SWAP1 SSTORE POP POP JUMP JUMPDEST DUP1 PUSH1 0x3 DUP2 SWAP1 SSTORE POP POP JUMP JUMPDEST PUSH1 0x0 PUSH1 0x6 SLOAD PUSH1 0x5 SLOAD PUSH1 0x4 SLOAD PUSH1 0x3 SLOAD PUSH1 0x2 SLOAD PUSH1 0x1 SLOAD PUSH1 0x0 SLOAD PUSH2 0x214 SWAP2 SWAP1 PUSH2 0x6CE JUMP JUMPDEST PUSH2 0x21E SWAP2 SWAP1 PUSH2 0x6CE JUMP JUMPDEST PUSH2 0x228 SWAP2 SWAP1 PUSH2 0x6CE JUMP JUMPDEST PUSH2 0x232 SWAP2 SWAP1 PUSH2 0x6CE JUMP JUMPDEST PUSH2 0x23C SWAP2 SWAP1 PUSH2 0x6CE JUMP JUMPDEST PUSH2 0x246 SWAP2 SWAP1 PUSH2 0x6CE JUMP JUMPDEST SWAP1 POP SWAP1 JUMP JUMPDEST DUP1 PUSH1 0x4 DUP2 SWAP1 SSTORE POP POP JUMP JUMPDEST PUSH1 0x60 PUSH1 0x0 PUSH1 0x7 PUSH1 0x6 SLOAD PUSH1 0x5 SLOAD PUSH1 0x4 SLOAD PUSH1 0x3 SLOAD PUSH1 0x2 SLOAD PUSH1 0x1 SLOAD PUSH1 0x0 SLOAD PUSH2 0x27A SWAP2 SWAP1 PUSH2 0x6CE JUMP JUMPDEST PUSH2 0x284 SWAP2 SWAP1 PUSH2 0x6CE JUMP JUMPDEST PUSH2 0x28E SWAP2 SWAP1 PUSH2 0x6CE JUMP JUMPDEST PUSH2 0x298 SWAP2 SWAP1 PUSH2 0x6CE JUMP JUMPDEST PUSH2 0x2A2 SWAP2 SWAP1 PUSH2 0x6CE JUMP JUMPDEST PUSH2 0x2AC SWAP2 SWAP1 PUSH2 0x6CE JUMP JUMPDEST PUSH2 0x2B6 SWAP2 SWAP1 PUSH2 0x731 JUMP JUMPDEST SWAP1 POP PUSH1 0x28 DUP2 GT PUSH2 0x2FD JUMPI PUSH1 0x40 MLOAD DUP1 PUSH1 0x40 ADD PUSH1 0x40 MSTORE DUP1 PUSH1 0x4 DUP2 MSTORE PUSH1 0x20 ADD PUSH32 0x4661696C00000000000000000000000000000000000000000000000000000000 DUP2 MSTORE POP SWAP2 POP PUSH2 0x4E9 JUMP JUMPDEST PUSH1 0x32 DUP2 LT ISZERO DUP1 ISZERO PUSH2 0x30F JUMPI POP PUSH1 0x28 DUP2 GT ISZERO JUMPDEST ISZERO PUSH2 0x351 JUMPI PUSH1 0x40 MLOAD DUP1 PUSH1 0x40 ADD PUSH1 0x40 MSTORE DUP1 PUSH1 0x1 DUP2 MSTORE PUSH1 0x20 ADD PUSH32 0x4200000000000000000000000000000000000000000000000000000000000000 DUP2 MSTORE POP SWAP2 POP PUSH2 0x4E8 JUMP JUMPDEST PUSH1 0x32 DUP2 LT ISZERO DUP1 ISZERO PUSH2 0x363 JUMPI POP PUSH1 0x3C DUP2 GT ISZERO JUMPDEST ISZERO PUSH2 0x3A5 JUMPI PUSH1 0x40 MLOAD DUP1 PUSH1 0x40 ADD PUSH1 0x40 MSTORE DUP1 PUSH1 0x2 DUP2 MSTORE PUSH1 0x20 ADD PUSH32 0x422B000000000000000000000000000000000000000000000000000000000000 DUP2 MSTORE POP SWAP2 POP PUSH2 0x4E7 JUMP JUMPDEST PUSH1 0x3C DUP2 LT ISZERO DUP1 ISZERO PUSH2 0x3B7 JUMPI POP PUSH1 0x46 DUP2 GT ISZERO JUMPDEST ISZERO PUSH2 0x3F9 JUMPI PUSH1 0x40 MLOAD DUP1 PUSH1 0x40 ADD PUSH1 0x40 MSTORE DUP1 PUSH1 0x1 DUP2 MSTORE PUSH1 0x20 ADD PUSH32 0x4100000000000000000000000000000000000000000000000000000000000000 DUP2 MSTORE POP SWAP2 POP PUSH2 0x4E6 JUMP JUMPDEST PUSH1 0x46 DUP2 LT ISZERO DUP1 ISZERO PUSH2 0x40B JUMPI POP PUSH1 0x50 DUP2 GT ISZERO JUMPDEST ISZERO PUSH2 0x44D JUMPI PUSH1 0x40 MLOAD DUP1 PUSH1 0x40 ADD PUSH1 0x40 MSTORE DUP1 PUSH1 0x2 DUP2 MSTORE PUSH1 0x20 ADD PUSH32 0x412B000000000000000000000000000000000000000000000000000000000000 DUP2 MSTORE POP SWAP2 POP PUSH2 0x4E5 JUMP JUMPDEST PUSH1 0x50 DUP2 LT ISZERO DUP1 ISZERO PUSH2 0x45F JUMPI POP PUSH1 0x5A DUP2 GT ISZERO JUMPDEST ISZERO PUSH2 0x4A1 JUMPI PUSH1 0x40 MLOAD DUP1 PUSH1 0x40 ADD PUSH1 0x40 MSTORE DUP1 PUSH1 0x3 DUP2 MSTORE PUSH1 0x20 ADD PUSH32 0x412B2B0000000000000000000000000000000000000000000000000000000000 DUP2 MSTORE POP SWAP2 POP PUSH2 0x4E4 JUMP JUMPDEST PUSH1 0x5A DUP2 GT ISZERO PUSH2 0x4E3 JUMPI PUSH1 0x40 MLOAD DUP1 PUSH1 0x40 ADD PUSH1 0x40 MSTORE DUP1 PUSH1 0x3 DUP2 MSTORE PUSH1 0x20 ADD PUSH32 0x546F700000000000000000000000000000000000000000000000000000000000 DUP2 MSTORE POP SWAP2 POP JUMPDEST JUMPDEST JUMPDEST JUMPDEST JUMPDEST JUMPDEST JUMPDEST POP SWAP1 JUMP JUMPDEST DUP1 PUSH1 0x2 DUP2 SWAP1 SSTORE POP POP JUMP JUMPDEST PUSH1 0x0 PUSH1 0x7 PUSH1 0x6 SLOAD PUSH1 0x5 SLOAD PUSH1 0x4 SLOAD PUSH1 0x3 SLOAD PUSH1 0x2 SLOAD PUSH1 0x1 SLOAD PUSH1 0x0 SLOAD PUSH2 0x51A SWAP2 SWAP1 PUSH2 0x6CE JUMP JUMPDEST PUSH2 0x524 SWAP2 SWAP1 PUSH2 0x6CE JUMP JUMPDEST PUSH2 0x52E SWAP2 SWAP1 PUSH2 0x6CE JUMP JUMPDEST PUSH2 0x538 SWAP2 SWAP1 PUSH2 0x6CE JUMP JUMPDEST PUSH2 0x542 SWAP2 SWAP1 PUSH2 0x6CE JUMP JUMPDEST PUSH2 0x54C SWAP2 SWAP1 PUSH2 0x6CE JUMP JUMPDEST PUSH2 0x556 SWAP2 SWAP1 PUSH2 0x731 JUMP JUMPDEST SWAP1 POP SWAP1 JUMP JUMPDEST PUSH1 0x0 DUP1 REVERT JUMPDEST PUSH1 0x0 DUP2 SWAP1 POP SWAP2 SWAP1 POP JUMP JUMPDEST PUSH2 0x573 DUP2 PUSH2 0x560 JUMP JUMPDEST DUP2 EQ PUSH2 0x57E JUMPI PUSH1 0x0 DUP1 REVERT JUMPDEST POP JUMP JUMPDEST PUSH1 0x0 DUP2 CALLDATALOAD SWAP1 POP PUSH2 0x590 DUP2 PUSH2 0x56A JUMP JUMPDEST SWAP3 SWAP2 POP POP JUMP JUMPDEST PUSH1 0x0 PUSH1 0x20 DUP3 DUP5 SUB SLT ISZERO PUSH2 0x5AC JUMPI PUSH2 0x5AB PUSH2 0x55B JUMP JUMPDEST JUMPDEST PUSH1 0x0 PUSH2 0x5BA DUP5 DUP3 DUP6 ADD PUSH2 0x581 JUMP JUMPDEST SWAP2 POP POP SWAP3 SWAP2 POP POP JUMP JUMPDEST PUSH2 0x5CC DUP2 PUSH2 0x560 JUMP JUMPDEST DUP3 MSTORE POP POP JUMP JUMPDEST PUSH1 0x0 PUSH1 0x20 DUP3 ADD SWAP1 POP PUSH2 0x5E7 PUSH1 0x0 DUP4 ADD DUP5 PUSH2 0x5C3 JUMP JUMPDEST SWAP3 SWAP2 POP POP JUMP JUMPDEST PUSH1 0x0 DUP2 MLOAD SWAP1 POP SWAP2 SWAP1 POP JUMP JUMPDEST PUSH1 0x0 DUP3 DUP3 MSTORE PUSH1 0x20 DUP3 ADD SWAP1 POP SWAP3 SWAP2 POP POP JUMP JUMPDEST PUSH1 0x0 JUMPDEST DUP4 DUP2 LT ISZERO PUSH2 0x627 JUMPI DUP1 DUP3 ADD MLOAD DUP2 DUP5 ADD MSTORE PUSH1 0x20 DUP2 ADD SWAP1 POP PUSH2 0x60C JUMP JUMPDEST PUSH1 0x0 DUP5 DUP5 ADD MSTORE POP POP POP POP JUMP JUMPDEST PUSH1 0x0 PUSH1 0x1F NOT PUSH1 0x1F DUP4 ADD AND SWAP1 POP SWAP2 SWAP1 POP JUMP JUMPDEST PUSH1 0x0 PUSH2 0x64F DUP3 PUSH2 0x5ED JUMP JUMPDEST PUSH2 0x659 DUP2 DUP6 PUSH2 0x5F8 JUMP JUMPDEST SWAP4 POP PUSH2 0x669 DUP2 DUP6 PUSH1 0x20 DUP7 ADD PUSH2 0x609 JUMP JUMPDEST PUSH2 0x672 DUP2 PUSH2 0x633 JUMP JUMPDEST DUP5 ADD SWAP2 POP POP SWAP3 SWAP2 POP POP JUMP JUMPDEST PUSH1 0x0 PUSH1 0x20 DUP3 ADD SWAP1 POP DUP2 DUP2 SUB PUSH1 0x0 DUP4 ADD MSTORE PUSH2 0x697 DUP2 DUP5 PUSH2 0x644 JUMP JUMPDEST SWAP1 POP SWAP3 SWAP2 POP POP JUMP JUMPDEST PUSH32 0x4E487B7100000000000000000000000000000000000000000000000000000000 PUSH1 0x0 MSTORE PUSH1 0x11 PUSH1 0x4 MSTORE PUSH1 0x24 PUSH1 0x0 REVERT JUMPDEST PUSH1 0x0 PUSH2 0x6D9 DUP3 PUSH2 0x560 JUMP JUMPDEST SWAP2 POP PUSH2 0x6E4 DUP4 PUSH2 0x560 JUMP JUMPDEST SWAP3 POP DUP3 DUP3 ADD SWAP1 POP DUP1 DUP3 GT ISZERO PUSH2 0x6FC JUMPI PUSH2 0x6FB PUSH2 0x69F JUMP JUMPDEST JUMPDEST SWAP3 SWAP2 POP POP JUMP JUMPDEST PUSH32 0x4E487B7100000000000000000000000000000000000000000000000000000000 PUSH1 0x0 MSTORE PUSH1 0x12 PUSH1 0x4 MSTORE PUSH1 0x24 PUSH1 0x0 REVERT JUMPDEST PUSH1 0x0 PUSH2 0x73C DUP3 PUSH2 0x560 JUMP JUMPDEST SWAP2 POP PUSH2 0x747 DUP4 PUSH2 0x560 JUMP JUMPDEST SWAP3 POP DUP3 PUSH2 0x757 JUMPI PUSH2 0x756 PUSH2 0x702 JUMP JUMPDEST JUMPDEST DUP3 DUP3 DIV SWAP1 POP SWAP3 SWAP2 POP POP JUMP INVALID LOG2 PUSH5 0x6970667358 0x22 SLT KECCAK256 CALLER 0x2E 0x2B NOT 0xAE 0xB5 CREATE2 SHL 0x4C MULMOD EXP SSTORE 0xE0 PUSH25 0x6EB0A879CBE9AA081922534E6428045B612A64736F6C634300 ADDMOD SLT STOP CALLER "
				},
				"gasEstimates": {
					"creation": {
						"codeDepositCost": "388800",
						"executionCost": "424",
						"totalCost": "389224"
					},
					"external": {
						"Getgrade()": "infinite",
						"Getmark()": "infinite",
						"Getper()": "infinite",
						"Setcomputer(uint256)": "22565",
						"Setgujrati(uint256)": "22542",
						"Sethind(uint256)": "22543",
						"Setmathe(uint256)": "22587",
						"Setsanskrit(uint256)": "22521",
						"Setscince(uint256)": "22586",
						"Setsocial_scince(uint256)": "22609"
					}
				},
				"methodIdentifiers": {
					"Getgrade()": "cdf8bcc3",
					"Getmark()": "7b54a72f",
					"Getper()": "fce69179",
					"Setcomputer(uint256)": "5ac31968",
					"Setgujrati(uint256)": "8d306fe9",
					"Sethind(uint256)": "2311b275",
					"Setmathe(uint256)": "5b494cda",
					"Setsanskrit(uint256)": "04814f8f",
					"Setscince(uint256)": "ea2005b8",
					"Setsocial_scince(uint256)": "6445e5a1"
				}
			},
			"storageLayout": {
				"storage": [
					{
						"astId": 3,
						"contract": "contracts/student_result.sol:StudentResult",
						"label": "mathe",
						"offset": 0,
						"slot": "0",
						"type": "t_uint256"
					},
					{
						"astId": 5,
						"contract": "contracts/student_result.sol:StudentResult",
						"label": "hind",
						"offset": 0,
						"slot": "1",
						"type": "t_uint256"
					},
					{
						"astId": 7,
						"contract": "contracts/student_result.sol:StudentResult",
						"label": "scince",
						"offset": 0,
						"slot": "2",
						"type": "t_uint256"
					},
					{
						"astId": 9,
						"contract": "contracts/student_result.sol:StudentResult",
						"label": "social_scince",
						"offset": 0,
						"slot": "3",
						"type": "t_uint256"
					},
					{
						"astId": 11,
						"contract": "contracts/student_result.sol:StudentResult",
						"label": "gujrati",
						"offset": 0,
						"slot": "4",
						"type": "t_uint256"
					},
					{
						"astId": 13,
						"contract": "contracts/student_result.sol:StudentResult",
						"label": "sanskrit",
						"offset": 0,
						"slot": "5",
						"type": "t_uint256"
					},
					{
						"astId": 15,
						"contract": "contracts/student_result.sol:StudentResult",
						"label": "computer",
						"offset": 0,
						"slot": "6",
						"type": "t_uint256"
					}
				],
				"types": {
					"t_uint256": {
						"encoding": "inplace",
						"label": "uint256",
						"numberOfBytes": "32"
					}
				}
			},
			"userdoc": {
				"kind": "user",
				"methods": {},
				"version": 1
			}
		}
	}
}