{
	"contracts/student_result.sol": {
		"StudentResult": {
			"abi": [
				{
					"inputs": [],
					"name": "Getgrade",
					"outputs": [
						{
							"internalType": "string",
							"name": "grade",
							"type": "string"
						}
					],
					"stateMutability": "view",
					"type": "function"
				},
				{
					"inputs": [],
					"name": "Getmark",
					"outputs": [
						{
							"internalType": "uint256",
							"name": "total",
							"type": "uint256"
						}
					],
					"stateMutability": "view",
					"type": "function"
				},
				{
					"inputs": [],
					"name": "Getper",
					"outputs": [
						{
							"internalType": "uint256",
							"name": "per",
							"type": "uint256"
						}
					],
					"stateMutability": "view",
					"type": "function"
				},
				{
					"inputs": [
						{
							"internalType": "uint256",
							"name": "m_computer",
							"type": "uint256"
						}
					],
					"name": "Setcomputer",
					"outputs": [],
					"stateMutability": "nonpayable",
					"type": "function"
				},
				{
					"inputs": [
						{
							"internalType": "uint256",
							"name": "m_gujrati",
							"type": "uint256"
						}
					],
					"name": "Setgujrati",
					"outputs": [],
					"stateMutability": "nonpayable",
					"type": "function"
				},
				{
					"inputs": [
						{
							"internalType": "uint256",
							"name": "m_hind",
							"type": "uint256"
						}
					],
					"name": "Sethind",
					"outputs": [],
					"stateMutability": "nonpayable",
					"type": "function"
				},
				{
					"inputs": [
						{
							"internalType": "uint256",
							"name": "m_mathe",
							"type": "uint256"
						}
					],
					"name": "Setmathe",
					"outputs": [],
					"stateMutability": "nonpayable",
					"type": "function"
				},
				{
					"inputs": [
						{
							"internalType": "uint256",
							"name": "m_sanskrit",
							"type": "uint256"
						}
					],
					"name": "Setsanskrit",
					"outputs": [],
					"stateMutability": "nonpayable",
					"type": "function"
				},
				{
					"inputs": [
						{
							"internalType": "uint256",
							"name": "m_scince",
							"type": "uint256"
						}
					],
					"name": "Setscince",
					"outputs": [],
					"stateMutability": "nonpayable",
					"type": "function"
				},
				{
					"inputs": [
						{
							"internalType": "uint256",
							"name": "m_social_scince",
							"type": "uint256"
						}
					],
					"name": "Setsocial_scince",
					"outputs": [],
					"stateMutability": "nonpayable",
					"type": "function"
				}
			],
			"devdoc": {
				"kind": "dev",
				"methods": {},
				"version": 1
			},
			"evm": {
				"assembly": "    /* \"contracts/student_result.sol\":71:1755  contract StudentResult {... */\n  mstore(0x40, 0x80)\n  callvalue\n  dup1\n  iszero\n  tag_1\n  jumpi\n  0x00\n  dup1\n  revert\ntag_1:\n  pop\n  dataSize(sub_0)\n  dup1\n  dataOffset(sub_0)\n  0x00\n  codecopy\n  0x00\n  return\nstop\n\nsub_0: assembly {\n        /* \"contracts/student_result.sol\":71:1755  contract StudentResult {... */\n      mstore(0x40, 0x80)\n      callvalue\n      dup1\n      iszero\n      tag_1\n      jumpi\n      0x00\n      dup1\n      revert\n    tag_1:\n      pop\n      jumpi(tag_2, lt(calldatasize, 0x04))\n      shr(0xe0, calldataload(0x00))\n      dup1\n      0x7b54a72f\n      gt\n      tag_13\n      jumpi\n      dup1\n      0x7b54a72f\n      eq\n      tag_8\n      jumpi\n      dup1\n      0x8d306fe9\n      eq\n      tag_9\n      jumpi\n      dup1\n      0xcdf8bcc3\n      eq\n      tag_10\n      jumpi\n      dup1\n      0xea2005b8\n      eq\n      tag_11\n      jumpi\n      dup1\n      0xfce69179\n      eq\n      tag_12\n      jumpi\n      jump(tag_2)\n    tag_13:\n      dup1\n      0x04814f8f\n      eq\n      tag_3\n      jumpi\n      dup1\n      0x2311b275\n      eq\n      tag_4\n      jumpi\n      dup1\n      0x5ac31968\n      eq\n      tag_5\n      jumpi\n      dup1\n      0x5b494cda\n      eq\n      tag_6\n      jumpi\n      dup1\n      0x6445e5a1\n      eq\n      tag_7\n      jumpi\n    tag_2:\n      0x00\n      dup1\n      revert\n        /* \"contracts/student_result.sol\":667:750  function Setsanskrit(uint m_sanskrit) public {... */\n    tag_3:\n      tag_14\n      0x04\n      dup1\n      calldatasize\n      sub\n      0x20\n      dup2\n      lt\n      iszero\n      tag_15\n      jumpi\n      0x00\n      dup1\n      revert\n    tag_15:\n      dup2\n      add\n      swap1\n      dup1\n      dup1\n      calldataload\n      swap1\n      0x20\n      add\n      swap1\n      swap3\n      swap2\n      swap1\n      pop\n      pop\n      pop\n      tag_16\n      jump\t// in\n    tag_14:\n      stop\n        /* \"contracts/student_result.sol\":307:374  function Sethind(uint m_hind) public {... */\n    tag_4:\n      tag_17\n      0x04\n      dup1\n      calldatasize\n      sub\n      0x20\n      dup2\n      lt\n      iszero\n      tag_18\n      jumpi\n      0x00\n      dup1\n      revert\n    tag_18:\n      dup2\n      add\n      swap1\n      dup1\n      dup1\n      calldataload\n      swap1\n      0x20\n      add\n      swap1\n      swap3\n      swap2\n      swap1\n      pop\n      pop\n      pop\n      tag_19\n      jump\t// in\n    tag_17:\n      stop\n        /* \"contracts/student_result.sol\":756:839  function Setcomputer(uint m_computer) public {... */\n    tag_5:\n      tag_20\n      0x04\n      dup1\n      calldatasize\n      sub\n      0x20\n      dup2\n      lt\n      iszero\n      tag_21\n      jumpi\n      0x00\n      dup1\n      revert\n    tag_21:\n      dup2\n      add\n      swap1\n      dup1\n      dup1\n      calldataload\n      swap1\n      0x20\n      add\n      swap1\n      swap3\n      swap2\n      swap1\n      pop\n      pop\n      pop\n      tag_22\n      jump\t// in\n    tag_20:\n      stop\n        /* \"contracts/student_result.sol\":230:301  function Setmathe(uint m_mathe) public {... */\n    tag_6:\n      tag_23\n      0x04\n      dup1\n      calldatasize\n      sub\n      0x20\n      dup2\n      lt\n      iszero\n      tag_24\n      jumpi\n      0x00\n      dup1\n      revert\n    tag_24:\n      dup2\n      add\n      swap1\n      dup1\n      dup1\n      calldataload\n      swap1\n      0x20\n      add\n      swap1\n      swap3\n      swap2\n      swap1\n      pop\n      pop\n      pop\n      tag_25\n      jump\t// in\n    tag_23:\n      stop\n        /* \"contracts/student_result.sol\":469:572  function Setsocial_scince(uint m_social_scince) public {... */\n    tag_7:\n      tag_26\n      0x04\n      dup1\n      calldatasize\n      sub\n      0x20\n      dup2\n      lt\n      iszero\n      tag_27\n      jumpi\n      0x00\n      dup1\n      revert\n    tag_27:\n      dup2\n      add\n      swap1\n      dup1\n      dup1\n      calldataload\n      swap1\n      0x20\n      add\n      swap1\n      swap3\n      swap2\n      swap1\n      pop\n      pop\n      pop\n      tag_28\n      jump\t// in\n    tag_26:\n      stop\n        /* \"contracts/student_result.sol\":845:984  function Getmark() public view returns(uint total){... */\n    tag_8:\n      tag_29\n      tag_30\n      jump\t// in\n    tag_29:\n      mload(0x40)\n      dup1\n      dup3\n      dup2\n      mstore\n      0x20\n      add\n      swap2\n      pop\n      pop\n      mload(0x40)\n      dup1\n      swap2\n      sub\n      swap1\n      return\n        /* \"contracts/student_result.sol\":582:661  function Setgujrati(uint m_gujrati) public {... */\n    tag_9:\n      tag_31\n      0x04\n      dup1\n      calldatasize\n      sub\n      0x20\n      dup2\n      lt\n      iszero\n      tag_32\n      jumpi\n      0x00\n      dup1\n      revert\n    tag_32:\n      dup2\n      add\n      swap1\n      dup1\n      dup1\n      calldataload\n      swap1\n      0x20\n      add\n      swap1\n      swap3\n      swap2\n      swap1\n      pop\n      pop\n      pop\n      tag_33\n      jump\t// in\n    tag_31:\n      stop\n        /* \"contracts/student_result.sol\":1134:1749  function Getgrade() public view returns(string memory grade){... */\n    tag_10:\n      tag_34\n      tag_35\n      jump\t// in\n    tag_34:\n      mload(0x40)\n      dup1\n      dup1\n      0x20\n      add\n      dup3\n      dup2\n      sub\n      dup3\n      mstore\n      dup4\n      dup2\n      dup2\n      mload\n      dup2\n      mstore\n      0x20\n      add\n      swap2\n      pop\n      dup1\n      mload\n      swap1\n      0x20\n      add\n      swap1\n      dup1\n      dup4\n      dup4\n      0x00\n    tag_36:\n      dup4\n      dup2\n      lt\n      iszero\n      tag_38\n      jumpi\n      dup1\n      dup3\n      add\n      mload\n      dup2\n      dup5\n      add\n      mstore\n      0x20\n      dup2\n      add\n      swap1\n      pop\n      jump(tag_36)\n    tag_38:\n      pop\n      pop\n      pop\n      pop\n      swap1\n      pop\n      swap1\n      dup2\n      add\n      swap1\n      0x1f\n      and\n      dup1\n      iszero\n      tag_39\n      jumpi\n      dup1\n      dup3\n      sub\n      dup1\n      mload\n      0x01\n      dup4\n      0x20\n      sub\n      0x0100\n      exp\n      sub\n      not\n      and\n      dup2\n      mstore\n      0x20\n      add\n      swap2\n      pop\n    tag_39:\n      pop\n      swap3\n      pop\n      pop\n      pop\n      mload(0x40)\n      dup1\n      swap2\n      sub\n      swap1\n      return\n        /* \"contracts/student_result.sol\":384:459  function Setscince(uint m_scince) public {... */\n    tag_11:\n      tag_40\n      0x04\n      dup1\n      calldatasize\n      sub\n      0x20\n      dup2\n      lt\n      iszero\n      tag_41\n      jumpi\n      0x00\n      dup1\n      revert\n    tag_41:\n      dup2\n      add\n      swap1\n      dup1\n      dup1\n      calldataload\n      swap1\n      0x20\n      add\n      swap1\n      swap3\n      swap2\n      swap1\n      pop\n      pop\n      pop\n      tag_42\n      jump\t// in\n    tag_40:\n      stop\n        /* \"contracts/student_result.sol\":990:1128  function Getper() public view returns(uint per){... */\n    tag_12:\n      tag_43\n      tag_44\n      jump\t// in\n    tag_43:\n      mload(0x40)\n      dup1\n      dup3\n      dup2\n      mstore\n      0x20\n      add\n      swap2\n      pop\n      pop\n      mload(0x40)\n      dup1\n      swap2\n      sub\n      swap1\n      return\n        /* \"contracts/student_result.sol\":667:750  function Setsanskrit(uint m_sanskrit) public {... */\n    tag_16:\n        /* \"contracts/student_result.sol\":733:743  m_sanskrit */\n      dup1\n        /* \"contracts/student_result.sol\":722:730  sanskrit */\n      0x05\n        /* \"contracts/student_result.sol\":722:743  sanskrit = m_sanskrit */\n      dup2\n      swap1\n      sstore\n      pop\n        /* \"contracts/student_result.sol\":667:750  function Setsanskrit(uint m_sanskrit) public {... */\n      pop\n      jump\t// out\n        /* \"contracts/student_result.sol\":307:374  function Sethind(uint m_hind) public {... */\n    tag_19:\n        /* \"contracts/student_result.sol\":361:367  m_hind */\n      dup1\n        /* \"contracts/student_result.sol\":354:358  hind */\n      0x01\n        /* \"contracts/student_result.sol\":354:367  hind = m_hind */\n      dup2\n      swap1\n      sstore\n      pop\n        /* \"contracts/student_result.sol\":307:374  function Sethind(uint m_hind) public {... */\n      pop\n      jump\t// out\n        /* \"contracts/student_result.sol\":756:839  function Setcomputer(uint m_computer) public {... */\n    tag_22:\n        /* \"contracts/student_result.sol\":822:832  m_computer */\n      dup1\n        /* \"contracts/student_result.sol\":811:819  computer */\n      0x06\n        /* \"contracts/student_result.sol\":811:832  computer = m_computer */\n      dup2\n      swap1\n      sstore\n      pop\n        /* \"contracts/student_result.sol\":756:839  function Setcomputer(uint m_computer) public {... */\n      pop\n      jump\t// out\n        /* \"contracts/student_result.sol\":230:301  function Setmathe(uint m_mathe) public {... */\n    tag_25:\n        /* \"contracts/student_result.sol\":287:294  m_mathe */\n      dup1\n        /* \"contracts/student_result.sol\":279:284  mathe */\n      0x00\n        /* \"contracts/student_result.sol\":279:294  mathe = m_mathe */\n      dup2\n      swap1\n      sstore\n      pop\n        /* \"contracts/student_result.sol\":230:301  function Setmathe(uint m_mathe) public {... */\n      pop\n      jump\t// out\n        /* \"contracts/student_result.sol\":469:572  function Setsocial_scince(uint m_social_scince) public {... */\n    tag_28:\n        /* \"contracts/student_result.sol\":550:565  m_social_scince */\n      dup1\n        /* \"contracts/student_result.sol\":534:547  social_scince */\n      0x03\n        /* \"contracts/student_result.sol\":534:565  social_scince = m_social_scince */\n      dup2\n      swap1\n      sstore\n      pop\n        /* \"contracts/student_result.sol\":469:572  function Setsocial_scince(uint m_social_scince) public {... */\n      pop\n      jump\t// out\n        /* \"contracts/student_result.sol\":845:984  function Getmark() public view returns(uint total){... */\n    tag_30:\n        /* \"contracts/student_result.sol\":884:894  uint total */\n      0x00\n        /* \"contracts/student_result.sol\":969:977  computer */\n      sload(0x06)\n        /* \"contracts/student_result.sol\":960:968  sanskrit */\n      sload(0x05)\n        /* \"contracts/student_result.sol\":952:959  gujrati */\n      sload(0x04)\n        /* \"contracts/student_result.sol\":938:951  social_scince */\n      sload(0x03)\n        /* \"contracts/student_result.sol\":931:937  scince */\n      sload(0x02)\n        /* \"contracts/student_result.sol\":926:930  hind */\n      sload(0x01)\n        /* \"contracts/student_result.sol\":920:925  mathe */\n      sload(0x00)\n        /* \"contracts/student_result.sol\":920:930  mathe+hind */\n      add\n        /* \"contracts/student_result.sol\":920:937  mathe+hind+scince */\n      add\n        /* \"contracts/student_result.sol\":920:951  mathe+hind+scince+social_scince */\n      add\n        /* \"contracts/student_result.sol\":920:959  mathe+hind+scince+social_scince+gujrati */\n      add\n        /* \"contracts/student_result.sol\":920:968  mathe+hind+scince+social_scince+gujrati+sanskrit */\n      add\n        /* \"contracts/student_result.sol\":920:977  mathe+hind+scince+social_scince+gujrati+sanskrit+computer */\n      add\n        /* \"contracts/student_result.sol\":912:977  total = mathe+hind+scince+social_scince+gujrati+sanskrit+computer */\n      swap1\n      pop\n        /* \"contracts/student_result.sol\":845:984  function Getmark() public view returns(uint total){... */\n      swap1\n      jump\t// out\n        /* \"contracts/student_result.sol\":582:661  function Setgujrati(uint m_gujrati) public {... */\n    tag_33:\n        /* \"contracts/student_result.sol\":645:654  m_gujrati */\n      dup1\n        /* \"contracts/student_result.sol\":635:642  gujrati */\n      0x04\n        /* \"contracts/student_result.sol\":635:654  gujrati = m_gujrati */\n      dup2\n      swap1\n      sstore\n      pop\n        /* \"contracts/student_result.sol\":582:661  function Setgujrati(uint m_gujrati) public {... */\n      pop\n      jump\t// out\n        /* \"contracts/student_result.sol\":1134:1749  function Getgrade() public view returns(string memory grade){... */\n    tag_35:\n        /* \"contracts/student_result.sol\":1174:1193  string memory grade */\n      0x60\n        /* \"contracts/student_result.sol\":1204:1217  uint Gradeper */\n      0x00\n        /* \"contracts/student_result.sol\":1280:1281  7 */\n      0x07\n        /* \"contracts/student_result.sol\":1270:1278  computer */\n      sload(0x06)\n        /* \"contracts/student_result.sol\":1261:1269  sanskrit */\n      sload(0x05)\n        /* \"contracts/student_result.sol\":1253:1260  gujrati */\n      sload(0x04)\n        /* \"contracts/student_result.sol\":1239:1252  social_scince */\n      sload(0x03)\n        /* \"contracts/student_result.sol\":1232:1238  scince */\n      sload(0x02)\n        /* \"contracts/student_result.sol\":1227:1231  hind */\n      sload(0x01)\n        /* \"contracts/student_result.sol\":1221:1226  mathe */\n      sload(0x00)\n        /* \"contracts/student_result.sol\":1221:1231  mathe+hind */\n      add\n        /* \"contracts/student_result.sol\":1221:1238  mathe+hind+scince */\n      add\n        /* \"contracts/student_result.sol\":1221:1252  mathe+hind+scince+social_scince */\n      add\n        /* \"contracts/student_result.sol\":1221:1260  mathe+hind+scince+social_scince+gujrati */\n      add\n        /* \"contracts/student_result.sol\":1221:1269  mathe+hind+scince+social_scince+gujrati+sanskrit */\n      add\n        /* \"contracts/student_result.sol\":1221:1278  mathe+hind+scince+social_scince+gujrati+sanskrit+computer */\n      add\n        /* \"contracts/student_result.sol\":1220:1281  (mathe+hind+scince+social_scince+gujrati+sanskrit+computer)/7 */\n      dup2\n      tag_53\n      jumpi\n      invalid\n    tag_53:\n      div\n        /* \"contracts/student_result.sol\":1204:1281  uint Gradeper = (mathe+hind+scince+social_scince+gujrati+sanskrit+computer)/7 */\n      swap1\n      pop\n        /* \"contracts/student_result.sol\":1306:1308  50 */\n      0x32\n        /* \"contracts/student_result.sol\":1294:1302  Gradeper */\n      dup2\n        /* \"contracts/student_result.sol\":1294:1308  Gradeper <= 50 */\n      gt\n        /* \"contracts/student_result.sol\":1291:1721  if(Gradeper <= 50){... */\n      tag_54\n      jumpi\n        /* \"contracts/student_result.sol\":1323:1334  grade = 'C' */\n      mload(0x40)\n      dup1\n      0x40\n      add\n      0x40\n      mstore\n      dup1\n      0x01\n      dup2\n      mstore\n      0x20\n      add\n      0x4300000000000000000000000000000000000000000000000000000000000000\n      dup2\n      mstore\n      pop\n      swap2\n      pop\n        /* \"contracts/student_result.sol\":1291:1721  if(Gradeper <= 50){... */\n      jump(tag_55)\n    tag_54:\n        /* \"contracts/student_result.sol\":1366:1368  50 */\n      0x32\n        /* \"contracts/student_result.sol\":1354:1362  Gradeper */\n      dup2\n        /* \"contracts/student_result.sol\":1354:1368  Gradeper >= 50 */\n      lt\n      iszero\n        /* \"contracts/student_result.sol\":1354:1386  Gradeper >= 50 && Gradeper <= 60 */\n      dup1\n      iszero\n      tag_56\n      jumpi\n      pop\n        /* \"contracts/student_result.sol\":1384:1386  60 */\n      0x3c\n        /* \"contracts/student_result.sol\":1372:1380  Gradeper */\n      dup2\n        /* \"contracts/student_result.sol\":1372:1386  Gradeper <= 60 */\n      gt\n      iszero\n        /* \"contracts/student_result.sol\":1354:1386  Gradeper >= 50 && Gradeper <= 60 */\n    tag_56:\n        /* \"contracts/student_result.sol\":1351:1721  if(Gradeper >= 50 && Gradeper <= 60){... */\n      iszero\n      tag_57\n      jumpi\n        /* \"contracts/student_result.sol\":1401:1412  grade = 'B' */\n      mload(0x40)\n      dup1\n      0x40\n      add\n      0x40\n      mstore\n      dup1\n      0x01\n      dup2\n      mstore\n      0x20\n      add\n      0x4200000000000000000000000000000000000000000000000000000000000000\n      dup2\n      mstore\n      pop\n      swap2\n      pop\n        /* \"contracts/student_result.sol\":1351:1721  if(Gradeper >= 50 && Gradeper <= 60){... */\n      jump(tag_58)\n    tag_57:\n        /* \"contracts/student_result.sol\":1444:1446  60 */\n      0x3c\n        /* \"contracts/student_result.sol\":1432:1440  Gradeper */\n      dup2\n        /* \"contracts/student_result.sol\":1432:1446  Gradeper >= 60 */\n      lt\n      iszero\n        /* \"contracts/student_result.sol\":1432:1464  Gradeper >= 60 && Gradeper <= 70 */\n      dup1\n      iszero\n      tag_59\n      jumpi\n      pop\n        /* \"contracts/student_result.sol\":1462:1464  70 */\n      0x46\n        /* \"contracts/student_result.sol\":1450:1458  Gradeper */\n      dup2\n        /* \"contracts/student_result.sol\":1450:1464  Gradeper <= 70 */\n      gt\n      iszero\n        /* \"contracts/student_result.sol\":1432:1464  Gradeper >= 60 && Gradeper <= 70 */\n    tag_59:\n        /* \"contracts/student_result.sol\":1429:1721  if(Gradeper >= 60 && Gradeper <= 70){... */\n      iszero\n      tag_60\n      jumpi\n        /* \"contracts/student_result.sol\":1479:1490  grade = 'A' */\n      mload(0x40)\n      dup1\n      0x40\n      add\n      0x40\n      mstore\n      dup1\n      0x01\n      dup2\n      mstore\n      0x20\n      add\n      0x4100000000000000000000000000000000000000000000000000000000000000\n      dup2\n      mstore\n      pop\n      swap2\n      pop\n        /* \"contracts/student_result.sol\":1429:1721  if(Gradeper >= 60 && Gradeper <= 70){... */\n      jump(tag_61)\n    tag_60:\n        /* \"contracts/student_result.sol\":1522:1524  70 */\n      0x46\n        /* \"contracts/student_result.sol\":1510:1518  Gradeper */\n      dup2\n        /* \"contracts/student_result.sol\":1510:1524  Gradeper >= 70 */\n      lt\n      iszero\n        /* \"contracts/student_result.sol\":1510:1542  Gradeper >= 70 && Gradeper <= 80 */\n      dup1\n      iszero\n      tag_62\n      jumpi\n      pop\n        /* \"contracts/student_result.sol\":1540:1542  80 */\n      0x50\n        /* \"contracts/student_result.sol\":1528:1536  Gradeper */\n      dup2\n        /* \"contracts/student_result.sol\":1528:1542  Gradeper <= 80 */\n      gt\n      iszero\n        /* \"contracts/student_result.sol\":1510:1542  Gradeper >= 70 && Gradeper <= 80 */\n    tag_62:\n        /* \"contracts/student_result.sol\":1507:1721  if(Gradeper >= 70 && Gradeper <= 80){... */\n      iszero\n      tag_63\n      jumpi\n        /* \"contracts/student_result.sol\":1557:1569  grade = 'A+' */\n      mload(0x40)\n      dup1\n      0x40\n      add\n      0x40\n      mstore\n      dup1\n      0x02\n      dup2\n      mstore\n      0x20\n      add\n      0x412b000000000000000000000000000000000000000000000000000000000000\n      dup2\n      mstore\n      pop\n      swap2\n      pop\n        /* \"contracts/student_result.sol\":1507:1721  if(Gradeper >= 70 && Gradeper <= 80){... */\n      jump(tag_64)\n    tag_63:\n        /* \"contracts/student_result.sol\":1601:1603  80 */\n      0x50\n        /* \"contracts/student_result.sol\":1589:1597  Gradeper */\n      dup2\n        /* \"contracts/student_result.sol\":1589:1603  Gradeper >= 80 */\n      lt\n      iszero\n        /* \"contracts/student_result.sol\":1589:1621  Gradeper >= 80 && Gradeper <= 90 */\n      dup1\n      iszero\n      tag_65\n      jumpi\n      pop\n        /* \"contracts/student_result.sol\":1619:1621  90 */\n      0x5a\n        /* \"contracts/student_result.sol\":1607:1615  Gradeper */\n      dup2\n        /* \"contracts/student_result.sol\":1607:1621  Gradeper <= 90 */\n      gt\n      iszero\n        /* \"contracts/student_result.sol\":1589:1621  Gradeper >= 80 && Gradeper <= 90 */\n    tag_65:\n        /* \"contracts/student_result.sol\":1586:1721  if(Gradeper >= 80 && Gradeper <= 90){... */\n      iszero\n      tag_66\n      jumpi\n        /* \"contracts/student_result.sol\":1636:1649  grade = 'A++' */\n      mload(0x40)\n      dup1\n      0x40\n      add\n      0x40\n      mstore\n      dup1\n      0x03\n      dup2\n      mstore\n      0x20\n      add\n      0x412b2b0000000000000000000000000000000000000000000000000000000000\n      dup2\n      mstore\n      pop\n      swap2\n      pop\n        /* \"contracts/student_result.sol\":1586:1721  if(Gradeper >= 80 && Gradeper <= 90){... */\n      jump(tag_67)\n    tag_66:\n        /* \"contracts/student_result.sol\":1680:1682  90 */\n      0x5a\n        /* \"contracts/student_result.sol\":1669:1677  Gradeper */\n      dup2\n        /* \"contracts/student_result.sol\":1669:1682  Gradeper > 90 */\n      gt\n        /* \"contracts/student_result.sol\":1666:1721  if(Gradeper > 90){... */\n      iszero\n      tag_68\n      jumpi\n        /* \"contracts/student_result.sol\":1697:1710  grade = 'Top' */\n      mload(0x40)\n      dup1\n      0x40\n      add\n      0x40\n      mstore\n      dup1\n      0x03\n      dup2\n      mstore\n      0x20\n      add\n      0x546f700000000000000000000000000000000000000000000000000000000000\n      dup2\n      mstore\n      pop\n      swap2\n      pop\n        /* \"contracts/student_result.sol\":1666:1721  if(Gradeper > 90){... */\n    tag_68:\n        /* \"contracts/student_result.sol\":1586:1721  if(Gradeper >= 80 && Gradeper <= 90){... */\n    tag_67:\n        /* \"contracts/student_result.sol\":1507:1721  if(Gradeper >= 70 && Gradeper <= 80){... */\n    tag_64:\n        /* \"contracts/student_result.sol\":1429:1721  if(Gradeper >= 60 && Gradeper <= 70){... */\n    tag_61:\n        /* \"contracts/student_result.sol\":1351:1721  if(Gradeper >= 50 && Gradeper <= 60){... */\n    tag_58:\n        /* \"contracts/student_result.sol\":1291:1721  if(Gradeper <= 50){... */\n    tag_55:\n        /* \"contracts/student_result.sol\":1730:1742  return grade */\n      pop\n        /* \"contracts/student_result.sol\":1134:1749  function Getgrade() public view returns(string memory grade){... */\n      swap1\n      jump\t// out\n        /* \"contracts/student_result.sol\":384:459  function Setscince(uint m_scince) public {... */\n    tag_42:\n        /* \"contracts/student_result.sol\":444:452  m_scince */\n      dup1\n        /* \"contracts/student_result.sol\":435:441  scince */\n      0x02\n        /* \"contracts/student_result.sol\":435:452  scince = m_scince */\n      dup2\n      swap1\n      sstore\n      pop\n        /* \"contracts/student_result.sol\":384:459  function Setscince(uint m_scince) public {... */\n      pop\n      jump\t// out\n        /* \"contracts/student_result.sol\":990:1128  function Getper() public view returns(uint per){... */\n    tag_44:\n        /* \"contracts/student_result.sol\":1028:1036  uint per */\n      0x00\n        /* \"contracts/student_result.sol\":1120:1121  7 */\n      0x07\n        /* \"contracts/student_result.sol\":1110:1118  computer */\n      sload(0x06)\n        /* \"contracts/student_result.sol\":1101:1109  sanskrit */\n      sload(0x05)\n        /* \"contracts/student_result.sol\":1093:1100  gujrati */\n      sload(0x04)\n        /* \"contracts/student_result.sol\":1079:1092  social_scince */\n      sload(0x03)\n        /* \"contracts/student_result.sol\":1072:1078  scince */\n      sload(0x02)\n        /* \"contracts/student_result.sol\":1067:1071  hind */\n      sload(0x01)\n        /* \"contracts/student_result.sol\":1061:1066  mathe */\n      sload(0x00)\n        /* \"contracts/student_result.sol\":1061:1071  mathe+hind */\n      add\n        /* \"contracts/student_result.sol\":1061:1078  mathe+hind+scince */\n      add\n        /* \"contracts/student_result.sol\":1061:1092  mathe+hind+scince+social_scince */\n      add\n        /* \"contracts/student_result.sol\":1061:1100  mathe+hind+scince+social_scince+gujrati */\n      add\n        /* \"contracts/student_result.sol\":1061:1109  mathe+hind+scince+social_scince+gujrati+sanskrit */\n      add\n        /* \"contracts/student_result.sol\":1061:1118  mathe+hind+scince+social_scince+gujrati+sanskrit+computer */\n      add\n        /* \"contracts/student_result.sol\":1060:1121  (mathe+hind+scince+social_scince+gujrati+sanskrit+computer)/7 */\n      dup2\n      tag_71\n      jumpi\n      invalid\n    tag_71:\n      div\n        /* \"contracts/student_result.sol\":1054:1121  per = (mathe+hind+scince+social_scince+gujrati+sanskrit+computer)/7 */\n      swap1\n      pop\n        /* \"contracts/student_result.sol\":990:1128  function Getper() public view returns(uint per){... */\n      swap1\n      jump\t// out\n\n    auxdata: 0xa26469706673582212203112621ec9b2408b6c9519cf4a982b3d604d0fd927860de6be15e684c68ae05d64736f6c63430007060033\n}\n",
				"bytecode": {
					"linkReferences": {},
					"object": "608060405234801561001057600080fd5b50610579806100206000396000f3fe608060405234801561001057600080fd5b506004361061009e5760003560e01c80637b54a72f116100665780637b54a72f146101895780638d306fe9146101a7578063cdf8bcc3146101d5578063ea2005b814610258578063fce69179146102865761009e565b806304814f8f146100a35780632311b275146100d15780635ac31968146100ff5780635b494cda1461012d5780636445e5a11461015b575b600080fd5b6100cf600480360360208110156100b957600080fd5b81019080803590602001909291905050506102a4565b005b6100fd600480360360208110156100e757600080fd5b81019080803590602001909291905050506102ae565b005b61012b6004803603602081101561011557600080fd5b81019080803590602001909291905050506102b8565b005b6101596004803603602081101561014357600080fd5b81019080803590602001909291905050506102c2565b005b6101876004803603602081101561017157600080fd5b81019080803590602001909291905050506102cc565b005b6101916102d6565b6040518082815260200191505060405180910390f35b6101d3600480360360208110156101bd57600080fd5b81019080803590602001909291905050506102f8565b005b6101dd610302565b6040518080602001828103825283818151815260200191508051906020019080838360005b8381101561021d578082015181840152602081019050610202565b50505050905090810190601f16801561024a5780820380516001836020036101000a031916815260200191505b509250505060405180910390f35b6102846004803603602081101561026e57600080fd5b810190808035906020019092919050505061050d565b005b61028e610517565b6040518082815260200191505060405180910390f35b8060058190555050565b8060018190555050565b8060068190555050565b8060008190555050565b8060038190555050565b6000600654600554600454600354600254600154600054010101010101905090565b8060048190555050565b6060600060076006546005546004546003546002546001546000540101010101018161032a57fe5b04905060328111610372576040518060400160405280600181526020017f43000000000000000000000000000000000000000000000000000000000000008152509150610509565b603281101580156103845750603c8111155b156103c6576040518060400160405280600181526020017f42000000000000000000000000000000000000000000000000000000000000008152509150610508565b603c81101580156103d8575060468111155b1561041a576040518060400160405280600181526020017f41000000000000000000000000000000000000000000000000000000000000008152509150610507565b6046811015801561042c575060508111155b1561046e576040518060400160405280600281526020017f412b0000000000000000000000000000000000000000000000000000000000008152509150610506565b605081101580156104805750605a8111155b156104c2576040518060400160405280600381526020017f412b2b00000000000000000000000000000000000000000000000000000000008152509150610505565b605a811115610504576040518060400160405280600381526020017f546f70000000000000000000000000000000000000000000000000000000000081525091505b5b5b5b5b5b5090565b8060028190555050565b600060076006546005546004546003546002546001546000540101010101018161053d57fe5b0490509056fea26469706673582212203112621ec9b2408b6c9519cf4a982b3d604d0fd927860de6be15e684c68ae05d64736f6c63430007060033",
					"opcodes": "PUSH1 0x80 PUSH1 0x40 MSTORE CALLVALUE DUP1 ISZERO PUSH2 0x10 JUMPI PUSH1 0x0 DUP1 REVERT JUMPDEST POP PUSH2 0x579 DUP1 PUSH2 0x20 PUSH1 0x0 CODECOPY PUSH1 0x0 RETURN INVALID PUSH1 0x80 PUSH1 0x40 MSTORE CALLVALUE DUP1 ISZERO PUSH2 0x10 JUMPI PUSH1 0x0 DUP1 REVERT JUMPDEST POP PUSH1 0x4 CALLDATASIZE LT PUSH2 0x9E JUMPI PUSH1 0x0 CALLDATALOAD PUSH1 0xE0 SHR DUP1 PUSH4 0x7B54A72F GT PUSH2 0x66 JUMPI DUP1 PUSH4 0x7B54A72F EQ PUSH2 0x189 JUMPI DUP1 PUSH4 0x8D306FE9 EQ PUSH2 0x1A7 JUMPI DUP1 PUSH4 0xCDF8BCC3 EQ PUSH2 0x1D5 JUMPI DUP1 PUSH4 0xEA2005B8 EQ PUSH2 0x258 JUMPI DUP1 PUSH4 0xFCE69179 EQ PUSH2 0x286 JUMPI PUSH2 0x9E JUMP JUMPDEST DUP1 PUSH4 0x4814F8F EQ PUSH2 0xA3 JUMPI DUP1 PUSH4 0x2311B275 EQ PUSH2 0xD1 JUMPI DUP1 PUSH4 0x5AC31968 EQ PUSH2 0xFF JUMPI DUP1 PUSH4 0x5B494CDA EQ PUSH2 0x12D JUMPI DUP1 PUSH4 0x6445E5A1 EQ PUSH2 0x15B JUMPI JUMPDEST PUSH1 0x0 DUP1 REVERT JUMPDEST PUSH2 0xCF PUSH1 0x4 DUP1 CALLDATASIZE SUB PUSH1 0x20 DUP2 LT ISZERO PUSH2 0xB9 JUMPI PUSH1 0x0 DUP1 REVERT JUMPDEST DUP2 ADD SWAP1 DUP1 DUP1 CALLDATALOAD SWAP1 PUSH1 0x20 ADD SWAP1 SWAP3 SWAP2 SWAP1 POP POP POP PUSH2 0x2A4 JUMP JUMPDEST STOP JUMPDEST PUSH2 0xFD PUSH1 0x4 DUP1 CALLDATASIZE SUB PUSH1 0x20 DUP2 LT ISZERO PUSH2 0xE7 JUMPI PUSH1 0x0 DUP1 REVERT JUMPDEST DUP2 ADD SWAP1 DUP1 DUP1 CALLDATALOAD SWAP1 PUSH1 0x20 ADD SWAP1 SWAP3 SWAP2 SWAP1 POP POP POP PUSH2 0x2AE JUMP JUMPDEST STOP JUMPDEST PUSH2 0x12B PUSH1 0x4 DUP1 CALLDATASIZE SUB PUSH1 0x20 DUP2 LT ISZERO PUSH2 0x115 JUMPI PUSH1 0x0 DUP1 REVERT JUMPDEST DUP2 ADD SWAP1 DUP1 DUP1 CALLDATALOAD SWAP1 PUSH1 0x20 ADD SWAP1 SWAP3 SWAP2 SWAP1 POP POP POP PUSH2 0x2B8 JUMP JUMPDEST STOP JUMPDEST PUSH2 0x159 PUSH1 0x4 DUP1 CALLDATASIZE SUB PUSH1 0x20 DUP2 LT ISZERO PUSH2 0x143 JUMPI PUSH1 0x0 DUP1 REVERT JUMPDEST DUP2 ADD SWAP1 DUP1 DUP1 CALLDATALOAD SWAP1 PUSH1 0x20 ADD SWAP1 SWAP3 SWAP2 SWAP1 POP POP POP PUSH2 0x2C2 JUMP JUMPDEST STOP JUMPDEST PUSH2 0x187 PUSH1 0x4 DUP1 CALLDATASIZE SUB PUSH1 0x20 DUP2 LT ISZERO PUSH2 0x171 JUMPI PUSH1 0x0 DUP1 REVERT JUMPDEST DUP2 ADD SWAP1 DUP1 DUP1 CALLDATALOAD SWAP1 PUSH1 0x20 ADD SWAP1 SWAP3 SWAP2 SWAP1 POP POP POP PUSH2 0x2CC JUMP JUMPDEST STOP JUMPDEST PUSH2 0x191 PUSH2 0x2D6 JUMP JUMPDEST PUSH1 0x40 MLOAD DUP1 DUP3 DUP2 MSTORE PUSH1 0x20 ADD SWAP2 POP POP PUSH1 0x40 MLOAD DUP1 SWAP2 SUB SWAP1 RETURN JUMPDEST PUSH2 0x1D3 PUSH1 0x4 DUP1 CALLDATASIZE SUB PUSH1 0x20 DUP2 LT ISZERO PUSH2 0x1BD JUMPI PUSH1 0x0 DUP1 REVERT JUMPDEST DUP2 ADD SWAP1 DUP1 DUP1 CALLDATALOAD SWAP1 PUSH1 0x20 ADD SWAP1 SWAP3 SWAP2 SWAP1 POP POP POP PUSH2 0x2F8 JUMP JUMPDEST STOP JUMPDEST PUSH2 0x1DD PUSH2 0x302 JUMP JUMPDEST PUSH1 0x40 MLOAD DUP1 DUP1 PUSH1 0x20 ADD DUP3 DUP2 SUB DUP3 MSTORE DUP4 DUP2 DUP2 MLOAD DUP2 MSTORE PUSH1 0x20 ADD SWAP2 POP DUP1 MLOAD SWAP1 PUSH1 0x20 ADD SWAP1 DUP1 DUP4 DUP4 PUSH1 0x0 JUMPDEST DUP4 DUP2 LT ISZERO PUSH2 0x21D JUMPI DUP1 DUP3 ADD MLOAD DUP2 DUP5 ADD MSTORE PUSH1 0x20 DUP2 ADD SWAP1 POP PUSH2 0x202 JUMP JUMPDEST POP POP POP POP SWAP1 POP SWAP1 DUP2 ADD SWAP1 PUSH1 0x1F AND DUP1 ISZERO PUSH2 0x24A JUMPI DUP1 DUP3 SUB DUP1 MLOAD PUSH1 0x1 DUP4 PUSH1 0x20 SUB PUSH2 0x100 EXP SUB NOT AND DUP2 MSTORE PUSH1 0x20 ADD SWAP2 POP JUMPDEST POP SWAP3 POP POP POP PUSH1 0x40 MLOAD DUP1 SWAP2 SUB SWAP1 RETURN JUMPDEST PUSH2 0x284 PUSH1 0x4 DUP1 CALLDATASIZE SUB PUSH1 0x20 DUP2 LT ISZERO PUSH2 0x26E JUMPI PUSH1 0x0 DUP1 REVERT JUMPDEST DUP2 ADD SWAP1 DUP1 DUP1 CALLDATALOAD SWAP1 PUSH1 0x20 ADD SWAP1 SWAP3 SWAP2 SWAP1 POP POP POP PUSH2 0x50D JUMP JUMPDEST STOP JUMPDEST PUSH2 0x28E PUSH2 0x517 JUMP JUMPDEST PUSH1 0x40 MLOAD DUP1 DUP3 DUP2 MSTORE PUSH1 0x20 ADD SWAP2 POP POP PUSH1 0x40 MLOAD DUP1 SWAP2 SUB SWAP1 RETURN JUMPDEST DUP1 PUSH1 0x5 DUP2 SWAP1 SSTORE POP POP JUMP JUMPDEST DUP1 PUSH1 0x1 DUP2 SWAP1 SSTORE POP POP JUMP JUMPDEST DUP1 PUSH1 0x6 DUP2 SWAP1 SSTORE POP POP JUMP JUMPDEST DUP1 PUSH1 0x0 DUP2 SWAP1 SSTORE POP POP JUMP JUMPDEST DUP1 PUSH1 0x3 DUP2 SWAP1 SSTORE POP POP JUMP JUMPDEST PUSH1 0x0 PUSH1 0x6 SLOAD PUSH1 0x5 SLOAD PUSH1 0x4 SLOAD PUSH1 0x3 SLOAD PUSH1 0x2 SLOAD PUSH1 0x1 SLOAD PUSH1 0x0 SLOAD ADD ADD ADD ADD ADD ADD SWAP1 POP SWAP1 JUMP JUMPDEST DUP1 PUSH1 0x4 DUP2 SWAP1 SSTORE POP POP JUMP JUMPDEST PUSH1 0x60 PUSH1 0x0 PUSH1 0x7 PUSH1 0x6 SLOAD PUSH1 0x5 SLOAD PUSH1 0x4 SLOAD PUSH1 0x3 SLOAD PUSH1 0x2 SLOAD PUSH1 0x1 SLOAD PUSH1 0x0 SLOAD ADD ADD ADD ADD ADD ADD DUP2 PUSH2 0x32A JUMPI INVALID JUMPDEST DIV SWAP1 POP PUSH1 0x32 DUP2 GT PUSH2 0x372 JUMPI PUSH1 0x40 MLOAD DUP1 PUSH1 0x40 ADD PUSH1 0x40 MSTORE DUP1 PUSH1 0x1 DUP2 MSTORE PUSH1 0x20 ADD PUSH32 0x4300000000000000000000000000000000000000000000000000000000000000 DUP2 MSTORE POP SWAP2 POP PUSH2 0x509 JUMP JUMPDEST PUSH1 0x32 DUP2 LT ISZERO DUP1 ISZERO PUSH2 0x384 JUMPI POP PUSH1 0x3C DUP2 GT ISZERO JUMPDEST ISZERO PUSH2 0x3C6 JUMPI PUSH1 0x40 MLOAD DUP1 PUSH1 0x40 ADD PUSH1 0x40 MSTORE DUP1 PUSH1 0x1 DUP2 MSTORE PUSH1 0x20 ADD PUSH32 0x4200000000000000000000000000000000000000000000000000000000000000 DUP2 MSTORE POP SWAP2 POP PUSH2 0x508 JUMP JUMPDEST PUSH1 0x3C DUP2 LT ISZERO DUP1 ISZERO PUSH2 0x3D8 JUMPI POP PUSH1 0x46 DUP2 GT ISZERO JUMPDEST ISZERO PUSH2 0x41A JUMPI PUSH1 0x40 MLOAD DUP1 PUSH1 0x40 ADD PUSH1 0x40 MSTORE DUP1 PUSH1 0x1 DUP2 MSTORE PUSH1 0x20 ADD PUSH32 0x4100000000000000000000000000000000000000000000000000000000000000 DUP2 MSTORE POP SWAP2 POP PUSH2 0x507 JUMP JUMPDEST PUSH1 0x46 DUP2 LT ISZERO DUP1 ISZERO PUSH2 0x42C JUMPI POP PUSH1 0x50 DUP2 GT ISZERO JUMPDEST ISZERO PUSH2 0x46E JUMPI PUSH1 0x40 MLOAD DUP1 PUSH1 0x40 ADD PUSH1 0x40 MSTORE DUP1 PUSH1 0x2 DUP2 MSTORE PUSH1 0x20 ADD PUSH32 0x412B000000000000000000000000000000000000000000000000000000000000 DUP2 MSTORE POP SWAP2 POP PUSH2 0x506 JUMP JUMPDEST PUSH1 0x50 DUP2 LT ISZERO DUP1 ISZERO PUSH2 0x480 JUMPI POP PUSH1 0x5A DUP2 GT ISZERO JUMPDEST ISZERO PUSH2 0x4C2 JUMPI PUSH1 0x40 MLOAD DUP1 PUSH1 0x40 ADD PUSH1 0x40 MSTORE DUP1 PUSH1 0x3 DUP2 MSTORE PUSH1 0x20 ADD PUSH32 0x412B2B0000000000000000000000000000000000000000000000000000000000 DUP2 MSTORE POP SWAP2 POP PUSH2 0x505 JUMP JUMPDEST PUSH1 0x5A DUP2 GT ISZERO PUSH2 0x504 JUMPI PUSH1 0x40 MLOAD DUP1 PUSH1 0x40 ADD PUSH1 0x40 MSTORE DUP1 PUSH1 0x3 DUP2 MSTORE PUSH1 0x20 ADD PUSH32 0x546F700000000000000000000000000000000000000000000000000000000000 DUP2 MSTORE POP SWAP2 POP JUMPDEST JUMPDEST JUMPDEST JUMPDEST JUMPDEST JUMPDEST POP SWAP1 JUMP JUMPDEST DUP1 PUSH1 0x2 DUP2 SWAP1 SSTORE POP POP JUMP JUMPDEST PUSH1 0x0 PUSH1 0x7 PUSH1 0x6 SLOAD PUSH1 0x5 SLOAD PUSH1 0x4 SLOAD PUSH1 0x3 SLOAD PUSH1 0x2 SLOAD PUSH1 0x1 SLOAD PUSH1 0x0 SLOAD ADD ADD ADD ADD ADD ADD DUP2 PUSH2 0x53D JUMPI INVALID JUMPDEST DIV SWAP1 POP SWAP1 JUMP INVALID LOG2 PUSH5 0x6970667358 0x22 SLT KECCAK256 BALANCE SLT PUSH3 0x1EC9B2 BLOCKHASH DUP12 PUSH13 0x9519CF4A982B3D604D0FD92786 0xD 0xE6 0xBE ISZERO 0xE6 DUP5 0xC6 DUP11 0xE0 0x5D PUSH5 0x736F6C6343 STOP SMOD MOD STOP CALLER "
				},
				"gasEstimates": {
					"creation": {
						"codeDepositCost": "280200",
						"executionCost": "318",
						"totalCost": "280518"
					},
					"external": {
						"Getgrade()": "infinite",
						"Getmark()": "5849",
						"Getper()": "5962",
						"Setcomputer(uint256)": "20287",
						"Setgujrati(uint256)": "20264",
						"Sethind(uint256)": "20265",
						"Setmathe(uint256)": "20309",
						"Setsanskrit(uint256)": "20243",
						"Setscince(uint256)": "20308",
						"Setsocial_scince(uint256)": "20331"
					}
				},
				"methodIdentifiers": {
					"Getgrade()": "cdf8bcc3",
					"Getmark()": "7b54a72f",
					"Getper()": "fce69179",
					"Setcomputer(uint256)": "5ac31968",
					"Setgujrati(uint256)": "8d306fe9",
					"Sethind(uint256)": "2311b275",
					"Setmathe(uint256)": "5b494cda",
					"Setsanskrit(uint256)": "04814f8f",
					"Setscince(uint256)": "ea2005b8",
					"Setsocial_scince(uint256)": "6445e5a1"
				}
			},
			"storageLayout": {
				"storage": [
					{
						"astId": 3,
						"contract": "contracts/student_result.sol:StudentResult",
						"label": "mathe",
						"offset": 0,
						"slot": "0",
						"type": "t_uint256"
					},
					{
						"astId": 5,
						"contract": "contracts/student_result.sol:StudentResult",
						"label": "hind",
						"offset": 0,
						"slot": "1",
						"type": "t_uint256"
					},
					{
						"astId": 7,
						"contract": "contracts/student_result.sol:StudentResult",
						"label": "scince",
						"offset": 0,
						"slot": "2",
						"type": "t_uint256"
					},
					{
						"astId": 9,
						"contract": "contracts/student_result.sol:StudentResult",
						"label": "social_scince",
						"offset": 0,
						"slot": "3",
						"type": "t_uint256"
					},
					{
						"astId": 11,
						"contract": "contracts/student_result.sol:StudentResult",
						"label": "gujrati",
						"offset": 0,
						"slot": "4",
						"type": "t_uint256"
					},
					{
						"astId": 13,
						"contract": "contracts/student_result.sol:StudentResult",
						"label": "sanskrit",
						"offset": 0,
						"slot": "5",
						"type": "t_uint256"
					},
					{
						"astId": 15,
						"contract": "contracts/student_result.sol:StudentResult",
						"label": "computer",
						"offset": 0,
						"slot": "6",
						"type": "t_uint256"
					}
				],
				"types": {
					"t_uint256": {
						"encoding": "inplace",
						"label": "uint256",
						"numberOfBytes": "32"
					}
				}
			},
			"userdoc": {
				"kind": "user",
				"methods": {},
				"version": 1
			}
		}
	}
}