{
	"contracts/freelancing.sol": {
		"freelancing": {
			"abi": [
				{
					"inputs": [
						{
							"internalType": "uint256",
							"name": "pId",
							"type": "uint256"
						},
						{
							"internalType": "uint256",
							"name": "lancer_id",
							"type": "uint256"
						}
					],
					"name": "Approve",
					"outputs": [],
					"stateMutability": "nonpayable",
					"type": "function"
				},
				{
					"inputs": [
						{
							"internalType": "uint256",
							"name": "pId",
							"type": "uint256"
						},
						{
							"internalType": "uint256",
							"name": "lancer_id",
							"type": "uint256"
						}
					],
					"name": "Payment",
					"outputs": [],
					"stateMutability": "payable",
					"type": "function"
				},
				{
					"inputs": [
						{
							"internalType": "uint256",
							"name": "pId",
							"type": "uint256"
						},
						{
							"internalType": "uint256",
							"name": "lancer_id",
							"type": "uint256"
						}
					],
					"name": "Start",
					"outputs": [],
					"stateMutability": "nonpayable",
					"type": "function"
				},
				{
					"inputs": [],
					"name": "TotalProjetc",
					"outputs": [
						{
							"internalType": "uint256",
							"name": "",
							"type": "uint256"
						}
					],
					"stateMutability": "view",
					"type": "function"
				},
				{
					"inputs": [
						{
							"internalType": "string",
							"name": "project",
							"type": "string"
						},
						{
							"internalType": "string",
							"name": "description",
							"type": "string"
						},
						{
							"internalType": "uint256",
							"name": "amount",
							"type": "uint256"
						},
						{
							"internalType": "uint256",
							"name": "timelimit",
							"type": "uint256"
						}
					],
					"name": "client",
					"outputs": [],
					"stateMutability": "nonpayable",
					"type": "function"
				},
				{
					"inputs": [
						{
							"internalType": "uint256",
							"name": "clicent_id",
							"type": "uint256"
						},
						{
							"internalType": "uint256",
							"name": "lancer_id",
							"type": "uint256"
						},
						{
							"internalType": "string",
							"name": "bid",
							"type": "string"
						}
					],
					"name": "freelancer",
					"outputs": [],
					"stateMutability": "nonpayable",
					"type": "function"
				},
				{
					"inputs": [
						{
							"internalType": "uint256",
							"name": "clicentID",
							"type": "uint256"
						}
					],
					"name": "getClicent",
					"outputs": [
						{
							"internalType": "address",
							"name": "",
							"type": "address"
						},
						{
							"internalType": "string",
							"name": "",
							"type": "string"
						},
						{
							"internalType": "string",
							"name": "",
							"type": "string"
						},
						{
							"internalType": "uint256",
							"name": "",
							"type": "uint256"
						},
						{
							"internalType": "uint256",
							"name": "",
							"type": "uint256"
						},
						{
							"internalType": "uint256[]",
							"name": "",
							"type": "uint256[]"
						},
						{
							"internalType": "enum freelancing.ScheduleState",
							"name": "",
							"type": "uint8"
						}
					],
					"stateMutability": "view",
					"type": "function"
				},
				{
					"inputs": [
						{
							"internalType": "uint256",
							"name": "u_id",
							"type": "uint256"
						}
					],
					"name": "getFreelancer",
					"outputs": [
						{
							"internalType": "string",
							"name": "",
							"type": "string"
						},
						{
							"internalType": "enum freelancing.ScheduleState",
							"name": "",
							"type": "uint8"
						},
						{
							"internalType": "address",
							"name": "",
							"type": "address"
						}
					],
					"stateMutability": "view",
					"type": "function"
				},
				{
					"inputs": [
						{
							"internalType": "uint256",
							"name": "pId",
							"type": "uint256"
						},
						{
							"internalType": "uint256",
							"name": "lancer_id",
							"type": "uint256"
						}
					],
					"name": "select",
					"outputs": [],
					"stateMutability": "nonpayable",
					"type": "function"
				}
			],
			"devdoc": {
				"kind": "dev",
				"methods": {},
				"version": 1
			},
			"evm": {
				"assembly": "    /* \"contracts/freelancing.sol\":72:3449  contract freelancing{... */\n  mstore(0x40, 0x80)\n  callvalue\n  dup1\n  iszero\n  tag_1\n  jumpi\n  0x00\n  dup1\n  revert\ntag_1:\n  pop\n  dataSize(sub_0)\n  dup1\n  dataOffset(sub_0)\n  0x00\n  codecopy\n  0x00\n  return\nstop\n\nsub_0: assembly {\n        /* \"contracts/freelancing.sol\":72:3449  contract freelancing{... */\n      mstore(0x40, 0x80)\n      jumpi(tag_1, lt(calldatasize, 0x04))\n      shr(0xe0, calldataload(0x00))\n      dup1\n      0x7c3f9309\n      gt\n      tag_11\n      jumpi\n      dup1\n      0x7c3f9309\n      eq\n      tag_6\n      jumpi\n      dup1\n      0x968b1680\n      eq\n      tag_7\n      jumpi\n      dup1\n      0xb4fed977\n      eq\n      tag_8\n      jumpi\n      dup1\n      0xbb9aca66\n      eq\n      tag_9\n      jumpi\n      dup1\n      0xf6e3fb06\n      eq\n      tag_10\n      jumpi\n      jump(tag_1)\n    tag_11:\n      dup1\n      0x05d546ef\n      eq\n      tag_2\n      jumpi\n      dup1\n      0x09750dc1\n      eq\n      tag_3\n      jumpi\n      dup1\n      0x33519c86\n      eq\n      tag_4\n      jumpi\n      dup1\n      0x5a7d5f50\n      eq\n      tag_5\n      jumpi\n    tag_1:\n      0x00\n      dup1\n      revert\n        /* \"contracts/freelancing.sol\":2703:2993  function Approve(uint pId, uint lancer_id) public {... */\n    tag_2:\n      callvalue\n      dup1\n      iszero\n      tag_12\n      jumpi\n      0x00\n      dup1\n      revert\n    tag_12:\n      pop\n      tag_13\n      0x04\n      dup1\n      calldatasize\n      sub\n      dup2\n      add\n      swap1\n      tag_14\n      swap2\n      swap1\n      tag_15\n      jump\t// in\n    tag_14:\n      tag_16\n      jump\t// in\n    tag_13:\n      stop\n        /* \"contracts/freelancing.sol\":689:969  function client(string memory project, string memory description, uint amount, uint timelimit) public{... */\n    tag_3:\n      callvalue\n      dup1\n      iszero\n      tag_17\n      jumpi\n      0x00\n      dup1\n      revert\n    tag_17:\n      pop\n      tag_18\n      0x04\n      dup1\n      calldatasize\n      sub\n      dup2\n      add\n      swap1\n      tag_19\n      swap2\n      swap1\n      tag_20\n      jump\t// in\n    tag_19:\n      tag_21\n      jump\t// in\n    tag_18:\n      stop\n        /* \"contracts/freelancing.sol\":1447:1535  function TotalProjetc() public view returns(uint){... */\n    tag_4:\n      callvalue\n      dup1\n      iszero\n      tag_22\n      jumpi\n      0x00\n      dup1\n      revert\n    tag_22:\n      pop\n      tag_23\n      tag_24\n      jump\t// in\n    tag_23:\n      mload(0x40)\n      tag_25\n      swap2\n      swap1\n      tag_26\n      jump\t// in\n    tag_25:\n      mload(0x40)\n      dup1\n      swap2\n      sub\n      swap1\n      return\n        /* \"contracts/freelancing.sol\":2419:2697  function Start(uint pId, uint lancer_id) public {... */\n    tag_5:\n      callvalue\n      dup1\n      iszero\n      tag_27\n      jumpi\n      0x00\n      dup1\n      revert\n    tag_27:\n      pop\n      tag_28\n      0x04\n      dup1\n      calldatasize\n      sub\n      dup2\n      add\n      swap1\n      tag_29\n      swap2\n      swap1\n      tag_15\n      jump\t// in\n    tag_29:\n      tag_30\n      jump\t// in\n    tag_28:\n      stop\n        /* \"contracts/freelancing.sol\":2999:3446  function Payment(uint pId, uint lancer_id) public payable {... */\n    tag_6:\n      tag_31\n      0x04\n      dup1\n      calldatasize\n      sub\n      dup2\n      add\n      swap1\n      tag_32\n      swap2\n      swap1\n      tag_15\n      jump\t// in\n    tag_32:\n      tag_33\n      jump\t// in\n    tag_31:\n      stop\n        /* \"contracts/freelancing.sol\":1542:1900  function freelancer(uint clicent_id, uint lancer_id, string memory bid) public{... */\n    tag_7:\n      callvalue\n      dup1\n      iszero\n      tag_34\n      jumpi\n      0x00\n      dup1\n      revert\n    tag_34:\n      pop\n      tag_35\n      0x04\n      dup1\n      calldatasize\n      sub\n      dup2\n      add\n      swap1\n      tag_36\n      swap2\n      swap1\n      tag_37\n      jump\t// in\n    tag_36:\n      tag_38\n      jump\t// in\n    tag_35:\n      stop\n        /* \"contracts/freelancing.sol\":979:1439  function getClicent(uint clicentID) public view returns(address, string memory, string memory, uint, uint, uint[] memory, ScheduleState){... */\n    tag_8:\n      callvalue\n      dup1\n      iszero\n      tag_39\n      jumpi\n      0x00\n      dup1\n      revert\n    tag_39:\n      pop\n      tag_40\n      0x04\n      dup1\n      calldatasize\n      sub\n      dup2\n      add\n      swap1\n      tag_41\n      swap2\n      swap1\n      tag_42\n      jump\t// in\n    tag_41:\n      tag_43\n      jump\t// in\n    tag_40:\n      mload(0x40)\n      tag_44\n      swap8\n      swap7\n      swap6\n      swap5\n      swap4\n      swap3\n      swap2\n      swap1\n      tag_45\n      jump\t// in\n    tag_44:\n      mload(0x40)\n      dup1\n      swap2\n      sub\n      swap1\n      return\n        /* \"contracts/freelancing.sol\":2134:2413  function select(uint pId, uint lancer_id) public {... */\n    tag_9:\n      callvalue\n      dup1\n      iszero\n      tag_46\n      jumpi\n      0x00\n      dup1\n      revert\n    tag_46:\n      pop\n      tag_47\n      0x04\n      dup1\n      calldatasize\n      sub\n      dup2\n      add\n      swap1\n      tag_48\n      swap2\n      swap1\n      tag_15\n      jump\t// in\n    tag_48:\n      tag_49\n      jump\t// in\n    tag_47:\n      stop\n        /* \"contracts/freelancing.sol\":1907:2128  function getFreelancer(uint u_id) public view returns(string memory, ScheduleState, address) {... */\n    tag_10:\n      callvalue\n      dup1\n      iszero\n      tag_50\n      jumpi\n      0x00\n      dup1\n      revert\n    tag_50:\n      pop\n      tag_51\n      0x04\n      dup1\n      calldatasize\n      sub\n      dup2\n      add\n      swap1\n      tag_52\n      swap2\n      swap1\n      tag_42\n      jump\t// in\n    tag_52:\n      tag_53\n      jump\t// in\n    tag_51:\n      mload(0x40)\n      tag_54\n      swap4\n      swap3\n      swap2\n      swap1\n      tag_55\n      jump\t// in\n    tag_54:\n      mload(0x40)\n      dup1\n      swap2\n      sub\n      swap1\n      return\n        /* \"contracts/freelancing.sol\":2703:2993  function Approve(uint pId, uint lancer_id) public {... */\n    tag_16:\n        /* \"contracts/freelancing.sol\":2804:2825  ScheduleState.started */\n      0x02\n        /* \"contracts/freelancing.sol\":2771:2825  user[lancer_id].scheduleState == ScheduleState.started */\n      0x04\n      dup2\n      gt\n      iszero\n      tag_57\n      jumpi\n      tag_58\n      tag_59\n      jump\t// in\n    tag_58:\n    tag_57:\n        /* \"contracts/freelancing.sol\":2771:2775  user */\n      0x01\n        /* \"contracts/freelancing.sol\":2771:2786  user[lancer_id] */\n      0x00\n        /* \"contracts/freelancing.sol\":2776:2785  lancer_id */\n      dup4\n        /* \"contracts/freelancing.sol\":2771:2786  user[lancer_id] */\n      dup2\n      mstore\n      0x20\n      add\n      swap1\n      dup2\n      mstore\n      0x20\n      add\n      0x00\n      keccak256\n        /* \"contracts/freelancing.sol\":2771:2800  user[lancer_id].scheduleState */\n      0x02\n      add\n      0x00\n      swap1\n      sload\n      swap1\n      0x0100\n      exp\n      swap1\n      div\n      0xff\n      and\n        /* \"contracts/freelancing.sol\":2771:2825  user[lancer_id].scheduleState == ScheduleState.started */\n      0x04\n      dup2\n      gt\n      iszero\n      tag_60\n      jumpi\n      tag_61\n      tag_59\n      jump\t// in\n    tag_61:\n    tag_60:\n      eq\n        /* \"contracts/freelancing.sol\":2763:2860  require(user[lancer_id].scheduleState == ScheduleState.started, \"Project wrok is not completed.\") */\n      tag_62\n      jumpi\n      mload(0x40)\n      0x08c379a000000000000000000000000000000000000000000000000000000000\n      dup2\n      mstore\n      0x04\n      add\n      tag_63\n      swap1\n      tag_64\n      jump\t// in\n    tag_63:\n      mload(0x40)\n      dup1\n      swap2\n      sub\n      swap1\n      revert\n    tag_62:\n        /* \"contracts/freelancing.sol\":2900:2922  ScheduleState.approved */\n      0x03\n        /* \"contracts/freelancing.sol\":2870:2878  clicents */\n      0x00\n        /* \"contracts/freelancing.sol\":2879:2882  pId */\n      dup4\n        /* \"contracts/freelancing.sol\":2870:2883  clicents[pId] */\n      dup2\n      sload\n      dup2\n      lt\n      tag_65\n      jumpi\n      tag_66\n      tag_67\n      jump\t// in\n    tag_66:\n    tag_65:\n      swap1\n      0x00\n      mstore\n      keccak256(0x00, 0x20)\n      swap1\n      0x07\n      mul\n      add\n        /* \"contracts/freelancing.sol\":2870:2897  clicents[pId].scheduleState */\n      0x06\n      add\n      0x00\n        /* \"contracts/freelancing.sol\":2870:2922  clicents[pId].scheduleState = ScheduleState.approved */\n      0x0100\n      exp\n      dup2\n      sload\n      dup2\n      0xff\n      mul\n      not\n      and\n      swap1\n      dup4\n      0x04\n      dup2\n      gt\n      iszero\n      tag_69\n      jumpi\n      tag_70\n      tag_59\n      jump\t// in\n    tag_70:\n    tag_69:\n      mul\n      or\n      swap1\n      sstore\n      pop\n        /* \"contracts/freelancing.sol\":2964:2986  ScheduleState.approved */\n      0x03\n        /* \"contracts/freelancing.sol\":2932:2936  user */\n      0x01\n        /* \"contracts/freelancing.sol\":2932:2947  user[lancer_id] */\n      0x00\n        /* \"contracts/freelancing.sol\":2937:2946  lancer_id */\n      dup4\n        /* \"contracts/freelancing.sol\":2932:2947  user[lancer_id] */\n      dup2\n      mstore\n      0x20\n      add\n      swap1\n      dup2\n      mstore\n      0x20\n      add\n      0x00\n      keccak256\n        /* \"contracts/freelancing.sol\":2932:2961  user[lancer_id].scheduleState */\n      0x02\n      add\n      0x00\n        /* \"contracts/freelancing.sol\":2932:2986  user[lancer_id].scheduleState = ScheduleState.approved */\n      0x0100\n      exp\n      dup2\n      sload\n      dup2\n      0xff\n      mul\n      not\n      and\n      swap1\n      dup4\n      0x04\n      dup2\n      gt\n      iszero\n      tag_71\n      jumpi\n      tag_72\n      tag_59\n      jump\t// in\n    tag_72:\n    tag_71:\n      mul\n      or\n      swap1\n      sstore\n      pop\n        /* \"contracts/freelancing.sol\":2703:2993  function Approve(uint pId, uint lancer_id) public {... */\n      pop\n      pop\n      jump\t// out\n        /* \"contracts/freelancing.sol\":689:969  function client(string memory project, string memory description, uint amount, uint timelimit) public{... */\n    tag_21:\n        /* \"contracts/freelancing.sol\":800:825  clientInfo memory clicent */\n      0x00\n        /* \"contracts/freelancing.sol\":828:930  clientInfo(msg.sender, project, description, amount, timelimit, client_lancer, ScheduleState.proposal) */\n      mload(0x40)\n      dup1\n      0xe0\n      add\n      0x40\n      mstore\n      dup1\n        /* \"contracts/freelancing.sol\":839:849  msg.sender */\n      caller\n        /* \"contracts/freelancing.sol\":828:930  clientInfo(msg.sender, project, description, amount, timelimit, client_lancer, ScheduleState.proposal) */\n      0xffffffffffffffffffffffffffffffffffffffff\n      and\n      dup2\n      mstore\n      0x20\n      add\n        /* \"contracts/freelancing.sol\":851:858  project */\n      dup7\n        /* \"contracts/freelancing.sol\":828:930  clientInfo(msg.sender, project, description, amount, timelimit, client_lancer, ScheduleState.proposal) */\n      dup2\n      mstore\n      0x20\n      add\n        /* \"contracts/freelancing.sol\":860:871  description */\n      dup6\n        /* \"contracts/freelancing.sol\":828:930  clientInfo(msg.sender, project, description, amount, timelimit, client_lancer, ScheduleState.proposal) */\n      dup2\n      mstore\n      0x20\n      add\n        /* \"contracts/freelancing.sol\":873:879  amount */\n      dup5\n        /* \"contracts/freelancing.sol\":828:930  clientInfo(msg.sender, project, description, amount, timelimit, client_lancer, ScheduleState.proposal) */\n      dup2\n      mstore\n      0x20\n      add\n        /* \"contracts/freelancing.sol\":881:890  timelimit */\n      dup4\n        /* \"contracts/freelancing.sol\":828:930  clientInfo(msg.sender, project, description, amount, timelimit, client_lancer, ScheduleState.proposal) */\n      dup2\n      mstore\n      0x20\n      add\n        /* \"contracts/freelancing.sol\":892:905  client_lancer */\n      0x02\n        /* \"contracts/freelancing.sol\":828:930  clientInfo(msg.sender, project, description, amount, timelimit, client_lancer, ScheduleState.proposal) */\n      dup1\n      sload\n      dup1\n      0x20\n      mul\n      0x20\n      add\n      mload(0x40)\n      swap1\n      dup2\n      add\n      0x40\n      mstore\n      dup1\n      swap3\n      swap2\n      swap1\n      dup2\n      dup2\n      mstore\n      0x20\n      add\n      dup3\n      dup1\n      sload\n      dup1\n      iszero\n      tag_74\n      jumpi\n      0x20\n      mul\n      dup3\n      add\n      swap2\n      swap1\n      0x00\n      mstore\n      keccak256(0x00, 0x20)\n      swap1\n    tag_75:\n      dup2\n      sload\n      dup2\n      mstore\n      0x20\n      add\n      swap1\n      0x01\n      add\n      swap1\n      dup1\n      dup4\n      gt\n      tag_75\n      jumpi\n    tag_74:\n      pop\n      pop\n      pop\n      pop\n      pop\n      dup2\n      mstore\n      0x20\n      add\n        /* \"contracts/freelancing.sol\":907:929  ScheduleState.proposal */\n      0x00\n        /* \"contracts/freelancing.sol\":828:930  clientInfo(msg.sender, project, description, amount, timelimit, client_lancer, ScheduleState.proposal) */\n      0x04\n      dup2\n      gt\n      iszero\n      tag_76\n      jumpi\n      tag_77\n      tag_59\n      jump\t// in\n    tag_77:\n    tag_76:\n      dup2\n      mstore\n      pop\n        /* \"contracts/freelancing.sol\":800:930  clientInfo memory clicent = clientInfo(msg.sender, project, description, amount, timelimit, client_lancer, ScheduleState.proposal) */\n      swap1\n      pop\n        /* \"contracts/freelancing.sol\":940:948  clicents */\n      0x00\n        /* \"contracts/freelancing.sol\":954:961  clicent */\n      dup2\n        /* \"contracts/freelancing.sol\":940:962  clicents.push(clicent) */\n      swap1\n      dup1\n      0x01\n      dup2\n      sload\n      add\n      dup1\n      dup3\n      sstore\n      dup1\n      swap2\n      pop\n      pop\n      0x01\n      swap1\n      sub\n      swap1\n      0x00\n      mstore\n      keccak256(0x00, 0x20)\n      swap1\n      0x07\n      mul\n      add\n      0x00\n      swap1\n      swap2\n      swap1\n      swap2\n      swap1\n      swap2\n      pop\n      0x00\n      dup3\n      add\n      mload\n      dup2\n      0x00\n      add\n      exp(0x0100, 0x00)\n      dup2\n      sload\n      dup2\n      0xffffffffffffffffffffffffffffffffffffffff\n      mul\n      not\n      and\n      swap1\n      dup4\n      0xffffffffffffffffffffffffffffffffffffffff\n      and\n      mul\n      or\n      swap1\n      sstore\n      pop\n      0x20\n      dup3\n      add\n      mload\n      dup2\n      0x01\n      add\n      swap1\n      dup2\n      tag_79\n      swap2\n      swap1\n      tag_80\n      jump\t// in\n    tag_79:\n      pop\n      0x40\n      dup3\n      add\n      mload\n      dup2\n      0x02\n      add\n      swap1\n      dup2\n      tag_81\n      swap2\n      swap1\n      tag_80\n      jump\t// in\n    tag_81:\n      pop\n      0x60\n      dup3\n      add\n      mload\n      dup2\n      0x03\n      add\n      sstore\n      0x80\n      dup3\n      add\n      mload\n      dup2\n      0x04\n      add\n      sstore\n      0xa0\n      dup3\n      add\n      mload\n      dup2\n      0x05\n      add\n      swap1\n      dup1\n      mload\n      swap1\n      0x20\n      add\n      swap1\n      tag_82\n      swap3\n      swap2\n      swap1\n      tag_83\n      jump\t// in\n    tag_82:\n      pop\n      0xc0\n      dup3\n      add\n      mload\n      dup2\n      0x06\n      add\n      exp(0x0100, 0x00)\n      dup2\n      sload\n      dup2\n      0xff\n      mul\n      not\n      and\n      swap1\n      dup4\n      0x04\n      dup2\n      gt\n      iszero\n      tag_84\n      jumpi\n      tag_85\n      tag_59\n      jump\t// in\n    tag_85:\n    tag_84:\n      mul\n      or\n      swap1\n      sstore\n      pop\n      pop\n      pop\n        /* \"contracts/freelancing.sol\":790:969  {... */\n      pop\n        /* \"contracts/freelancing.sol\":689:969  function client(string memory project, string memory description, uint amount, uint timelimit) public{... */\n      pop\n      pop\n      pop\n      pop\n      jump\t// out\n        /* \"contracts/freelancing.sol\":1447:1535  function TotalProjetc() public view returns(uint){... */\n    tag_24:\n        /* \"contracts/freelancing.sol\":1491:1495  uint */\n      0x00\n        /* \"contracts/freelancing.sol\":1513:1521  clicents */\n      dup1\n        /* \"contracts/freelancing.sol\":1513:1528  clicents.length */\n      dup1\n      sload\n      swap1\n      pop\n        /* \"contracts/freelancing.sol\":1506:1528  return clicents.length */\n      swap1\n      pop\n        /* \"contracts/freelancing.sol\":1447:1535  function TotalProjetc() public view returns(uint){... */\n      swap1\n      jump\t// out\n        /* \"contracts/freelancing.sol\":2419:2697  function Start(uint pId, uint lancer_id) public {... */\n    tag_30:\n        /* \"contracts/freelancing.sol\":2518:2540  ScheduleState.financed */\n      0x01\n        /* \"contracts/freelancing.sol\":2485:2540  user[lancer_id].scheduleState == ScheduleState.financed */\n      0x04\n      dup2\n      gt\n      iszero\n      tag_88\n      jumpi\n      tag_89\n      tag_59\n      jump\t// in\n    tag_89:\n    tag_88:\n        /* \"contracts/freelancing.sol\":2485:2489  user */\n      0x01\n        /* \"contracts/freelancing.sol\":2485:2500  user[lancer_id] */\n      0x00\n        /* \"contracts/freelancing.sol\":2490:2499  lancer_id */\n      dup4\n        /* \"contracts/freelancing.sol\":2485:2500  user[lancer_id] */\n      dup2\n      mstore\n      0x20\n      add\n      swap1\n      dup2\n      mstore\n      0x20\n      add\n      0x00\n      keccak256\n        /* \"contracts/freelancing.sol\":2485:2514  user[lancer_id].scheduleState */\n      0x02\n      add\n      0x00\n      swap1\n      sload\n      swap1\n      0x0100\n      exp\n      swap1\n      div\n      0xff\n      and\n        /* \"contracts/freelancing.sol\":2485:2540  user[lancer_id].scheduleState == ScheduleState.financed */\n      0x04\n      dup2\n      gt\n      iszero\n      tag_90\n      jumpi\n      tag_91\n      tag_59\n      jump\t// in\n    tag_91:\n    tag_90:\n      eq\n        /* \"contracts/freelancing.sol\":2477:2566  require(user[lancer_id].scheduleState == ScheduleState.financed, \"You are not selected.\") */\n      tag_92\n      jumpi\n      mload(0x40)\n      0x08c379a000000000000000000000000000000000000000000000000000000000\n      dup2\n      mstore\n      0x04\n      add\n      tag_93\n      swap1\n      tag_94\n      jump\t// in\n    tag_93:\n      mload(0x40)\n      dup1\n      swap2\n      sub\n      swap1\n      revert\n    tag_92:\n        /* \"contracts/freelancing.sol\":2606:2627  ScheduleState.started */\n      0x02\n        /* \"contracts/freelancing.sol\":2576:2584  clicents */\n      0x00\n        /* \"contracts/freelancing.sol\":2585:2588  pId */\n      dup4\n        /* \"contracts/freelancing.sol\":2576:2589  clicents[pId] */\n      dup2\n      sload\n      dup2\n      lt\n      tag_95\n      jumpi\n      tag_96\n      tag_67\n      jump\t// in\n    tag_96:\n    tag_95:\n      swap1\n      0x00\n      mstore\n      keccak256(0x00, 0x20)\n      swap1\n      0x07\n      mul\n      add\n        /* \"contracts/freelancing.sol\":2576:2603  clicents[pId].scheduleState */\n      0x06\n      add\n      0x00\n        /* \"contracts/freelancing.sol\":2576:2627  clicents[pId].scheduleState = ScheduleState.started */\n      0x0100\n      exp\n      dup2\n      sload\n      dup2\n      0xff\n      mul\n      not\n      and\n      swap1\n      dup4\n      0x04\n      dup2\n      gt\n      iszero\n      tag_98\n      jumpi\n      tag_99\n      tag_59\n      jump\t// in\n    tag_99:\n    tag_98:\n      mul\n      or\n      swap1\n      sstore\n      pop\n        /* \"contracts/freelancing.sol\":2669:2690  ScheduleState.started */\n      0x02\n        /* \"contracts/freelancing.sol\":2637:2641  user */\n      0x01\n        /* \"contracts/freelancing.sol\":2637:2652  user[lancer_id] */\n      0x00\n        /* \"contracts/freelancing.sol\":2642:2651  lancer_id */\n      dup4\n        /* \"contracts/freelancing.sol\":2637:2652  user[lancer_id] */\n      dup2\n      mstore\n      0x20\n      add\n      swap1\n      dup2\n      mstore\n      0x20\n      add\n      0x00\n      keccak256\n        /* \"contracts/freelancing.sol\":2637:2666  user[lancer_id].scheduleState */\n      0x02\n      add\n      0x00\n        /* \"contracts/freelancing.sol\":2637:2690  user[lancer_id].scheduleState = ScheduleState.started */\n      0x0100\n      exp\n      dup2\n      sload\n      dup2\n      0xff\n      mul\n      not\n      and\n      swap1\n      dup4\n      0x04\n      dup2\n      gt\n      iszero\n      tag_100\n      jumpi\n      tag_101\n      tag_59\n      jump\t// in\n    tag_101:\n    tag_100:\n      mul\n      or\n      swap1\n      sstore\n      pop\n        /* \"contracts/freelancing.sol\":2419:2697  function Start(uint pId, uint lancer_id) public {... */\n      pop\n      pop\n      jump\t// out\n        /* \"contracts/freelancing.sol\":2999:3446  function Payment(uint pId, uint lancer_id) public payable {... */\n    tag_33:\n        /* \"contracts/freelancing.sol\":3108:3130  ScheduleState.approved */\n      0x03\n        /* \"contracts/freelancing.sol\":3075:3130  user[lancer_id].scheduleState == ScheduleState.approved */\n      0x04\n      dup2\n      gt\n      iszero\n      tag_103\n      jumpi\n      tag_104\n      tag_59\n      jump\t// in\n    tag_104:\n    tag_103:\n        /* \"contracts/freelancing.sol\":3075:3079  user */\n      0x01\n        /* \"contracts/freelancing.sol\":3075:3090  user[lancer_id] */\n      0x00\n        /* \"contracts/freelancing.sol\":3080:3089  lancer_id */\n      dup4\n        /* \"contracts/freelancing.sol\":3075:3090  user[lancer_id] */\n      dup2\n      mstore\n      0x20\n      add\n      swap1\n      dup2\n      mstore\n      0x20\n      add\n      0x00\n      keccak256\n        /* \"contracts/freelancing.sol\":3075:3104  user[lancer_id].scheduleState */\n      0x02\n      add\n      0x00\n      swap1\n      sload\n      swap1\n      0x0100\n      exp\n      swap1\n      div\n      0xff\n      and\n        /* \"contracts/freelancing.sol\":3075:3130  user[lancer_id].scheduleState == ScheduleState.approved */\n      0x04\n      dup2\n      gt\n      iszero\n      tag_105\n      jumpi\n      tag_106\n      tag_59\n      jump\t// in\n    tag_106:\n    tag_105:\n      eq\n        /* \"contracts/freelancing.sol\":3067:3195  require(user[lancer_id].scheduleState == ScheduleState.approved, \"Project wrok is not proparly working please check your work.\") */\n      tag_107\n      jumpi\n      mload(0x40)\n      0x08c379a000000000000000000000000000000000000000000000000000000000\n      dup2\n      mstore\n      0x04\n      add\n      tag_108\n      swap1\n      tag_109\n      jump\t// in\n    tag_108:\n      mload(0x40)\n      dup1\n      swap2\n      sub\n      swap1\n      revert\n    tag_107:\n        /* \"contracts/freelancing.sol\":3235:3257  ScheduleState.released */\n      0x04\n        /* \"contracts/freelancing.sol\":3205:3213  clicents */\n      0x00\n        /* \"contracts/freelancing.sol\":3214:3217  pId */\n      dup4\n        /* \"contracts/freelancing.sol\":3205:3218  clicents[pId] */\n      dup2\n      sload\n      dup2\n      lt\n      tag_110\n      jumpi\n      tag_111\n      tag_67\n      jump\t// in\n    tag_111:\n    tag_110:\n      swap1\n      0x00\n      mstore\n      keccak256(0x00, 0x20)\n      swap1\n      0x07\n      mul\n      add\n        /* \"contracts/freelancing.sol\":3205:3232  clicents[pId].scheduleState */\n      0x06\n      add\n      0x00\n        /* \"contracts/freelancing.sol\":3205:3257  clicents[pId].scheduleState = ScheduleState.released */\n      0x0100\n      exp\n      dup2\n      sload\n      dup2\n      0xff\n      mul\n      not\n      and\n      swap1\n      dup4\n      0x04\n      dup2\n      gt\n      iszero\n      tag_113\n      jumpi\n      tag_114\n      tag_59\n      jump\t// in\n    tag_114:\n    tag_113:\n      mul\n      or\n      swap1\n      sstore\n      pop\n        /* \"contracts/freelancing.sol\":3299:3321  ScheduleState.released */\n      0x04\n        /* \"contracts/freelancing.sol\":3267:3271  user */\n      0x01\n        /* \"contracts/freelancing.sol\":3267:3282  user[lancer_id] */\n      0x00\n        /* \"contracts/freelancing.sol\":3272:3281  lancer_id */\n      dup4\n        /* \"contracts/freelancing.sol\":3267:3282  user[lancer_id] */\n      dup2\n      mstore\n      0x20\n      add\n      swap1\n      dup2\n      mstore\n      0x20\n      add\n      0x00\n      keccak256\n        /* \"contracts/freelancing.sol\":3267:3296  user[lancer_id].scheduleState */\n      0x02\n      add\n      0x00\n        /* \"contracts/freelancing.sol\":3267:3321  user[lancer_id].scheduleState = ScheduleState.released */\n      0x0100\n      exp\n      dup2\n      sload\n      dup2\n      0xff\n      mul\n      not\n      and\n      swap1\n      dup4\n      0x04\n      dup2\n      gt\n      iszero\n      tag_115\n      jumpi\n      tag_116\n      tag_59\n      jump\t// in\n    tag_116:\n    tag_115:\n      mul\n      or\n      swap1\n      sstore\n      pop\n        /* \"contracts/freelancing.sol\":3331:3354  address payable lan_add */\n      0x00\n        /* \"contracts/freelancing.sol\":3365:3369  user */\n      0x01\n        /* \"contracts/freelancing.sol\":3365:3380  user[lancer_id] */\n      0x00\n        /* \"contracts/freelancing.sol\":3370:3379  lancer_id */\n      dup4\n        /* \"contracts/freelancing.sol\":3365:3380  user[lancer_id] */\n      dup2\n      mstore\n      0x20\n      add\n      swap1\n      dup2\n      mstore\n      0x20\n      add\n      0x00\n      keccak256\n        /* \"contracts/freelancing.sol\":3365:3391  user[lancer_id].lancer_add */\n      0x00\n      add\n      0x00\n      swap1\n      sload\n      swap1\n      0x0100\n      exp\n      swap1\n      div\n      0xffffffffffffffffffffffffffffffffffffffff\n      and\n        /* \"contracts/freelancing.sol\":3331:3392  address payable lan_add = payable(user[lancer_id].lancer_add) */\n      swap1\n      pop\n        /* \"contracts/freelancing.sol\":3402:3409  lan_add */\n      dup1\n        /* \"contracts/freelancing.sol\":3402:3418  lan_add.transfer */\n      0xffffffffffffffffffffffffffffffffffffffff\n      and\n        /* \"contracts/freelancing.sol\":3402:3439  lan_add.transfer(clicents[pId].p_amt) */\n      0x08fc\n        /* \"contracts/freelancing.sol\":3419:3427  clicents */\n      0x00\n        /* \"contracts/freelancing.sol\":3428:3431  pId */\n      dup6\n        /* \"contracts/freelancing.sol\":3419:3432  clicents[pId] */\n      dup2\n      sload\n      dup2\n      lt\n      tag_117\n      jumpi\n      tag_118\n      tag_67\n      jump\t// in\n    tag_118:\n    tag_117:\n      swap1\n      0x00\n      mstore\n      keccak256(0x00, 0x20)\n      swap1\n      0x07\n      mul\n      add\n        /* \"contracts/freelancing.sol\":3419:3438  clicents[pId].p_amt */\n      0x03\n      add\n      sload\n        /* \"contracts/freelancing.sol\":3402:3439  lan_add.transfer(clicents[pId].p_amt) */\n      swap1\n      dup2\n      iszero\n      mul\n      swap1\n      mload(0x40)\n      0x00\n      mload(0x40)\n      dup1\n      dup4\n      sub\n      dup2\n      dup6\n      dup9\n      dup9\n      call\n      swap4\n      pop\n      pop\n      pop\n      pop\n      iszero\n      dup1\n      iszero\n      tag_121\n      jumpi\n      returndatasize\n      0x00\n      dup1\n      returndatacopy\n      revert(0x00, returndatasize)\n    tag_121:\n      pop\n        /* \"contracts/freelancing.sol\":3057:3446  {... */\n      pop\n        /* \"contracts/freelancing.sol\":2999:3446  function Payment(uint pId, uint lancer_id) public payable {... */\n      pop\n      pop\n      jump\t// out\n        /* \"contracts/freelancing.sol\":1542:1900  function freelancer(uint clicent_id, uint lancer_id, string memory bid) public{... */\n    tag_38:\n        /* \"contracts/freelancing.sol\":1676:1698  ScheduleState.proposal */\n      0x00\n        /* \"contracts/freelancing.sol\":1638:1698  clicents[clicent_id].scheduleState == ScheduleState.proposal */\n      0x04\n      dup2\n      gt\n      iszero\n      tag_123\n      jumpi\n      tag_124\n      tag_59\n      jump\t// in\n    tag_124:\n    tag_123:\n        /* \"contracts/freelancing.sol\":1638:1646  clicents */\n      0x00\n        /* \"contracts/freelancing.sol\":1647:1657  clicent_id */\n      dup5\n        /* \"contracts/freelancing.sol\":1638:1658  clicents[clicent_id] */\n      dup2\n      sload\n      dup2\n      lt\n      tag_125\n      jumpi\n      tag_126\n      tag_67\n      jump\t// in\n    tag_126:\n    tag_125:\n      swap1\n      0x00\n      mstore\n      keccak256(0x00, 0x20)\n      swap1\n      0x07\n      mul\n      add\n        /* \"contracts/freelancing.sol\":1638:1672  clicents[clicent_id].scheduleState */\n      0x06\n      add\n      0x00\n      swap1\n      sload\n      swap1\n      0x0100\n      exp\n      swap1\n      div\n      0xff\n      and\n        /* \"contracts/freelancing.sol\":1638:1698  clicents[clicent_id].scheduleState == ScheduleState.proposal */\n      0x04\n      dup2\n      gt\n      iszero\n      tag_128\n      jumpi\n      tag_129\n      tag_59\n      jump\t// in\n    tag_129:\n    tag_128:\n      eq\n        /* \"contracts/freelancing.sol\":1630:1736  require(clicents[clicent_id].scheduleState == ScheduleState.proposal,\"Project allocate other freelancer.\") */\n      tag_130\n      jumpi\n      mload(0x40)\n      0x08c379a000000000000000000000000000000000000000000000000000000000\n      dup2\n      mstore\n      0x04\n      add\n      tag_131\n      swap1\n      tag_132\n      jump\t// in\n    tag_131:\n      mload(0x40)\n      dup1\n      swap2\n      sub\n      swap1\n      revert\n    tag_130:\n        /* \"contracts/freelancing.sol\":1746:1754  clicents */\n      0x00\n        /* \"contracts/freelancing.sol\":1755:1765  clicent_id */\n      dup4\n        /* \"contracts/freelancing.sol\":1746:1766  clicents[clicent_id] */\n      dup2\n      sload\n      dup2\n      lt\n      tag_133\n      jumpi\n      tag_134\n      tag_67\n      jump\t// in\n    tag_134:\n    tag_133:\n      swap1\n      0x00\n      mstore\n      keccak256(0x00, 0x20)\n      swap1\n      0x07\n      mul\n      add\n        /* \"contracts/freelancing.sol\":1746:1780  clicents[clicent_id].freelancer_id */\n      0x05\n      add\n        /* \"contracts/freelancing.sol\":1786:1795  lancer_id */\n      dup3\n        /* \"contracts/freelancing.sol\":1746:1796  clicents[clicent_id].freelancer_id.push(lancer_id) */\n      swap1\n      dup1\n      0x01\n      dup2\n      sload\n      add\n      dup1\n      dup3\n      sstore\n      dup1\n      swap2\n      pop\n      pop\n      0x01\n      swap1\n      sub\n      swap1\n      0x00\n      mstore\n      keccak256(0x00, 0x20)\n      add\n      0x00\n      swap1\n      swap2\n      swap1\n      swap2\n      swap1\n      swap2\n      pop\n      sstore\n        /* \"contracts/freelancing.sol\":1843:1853  msg.sender */\n      caller\n        /* \"contracts/freelancing.sol\":1814:1818  user */\n      0x01\n        /* \"contracts/freelancing.sol\":1814:1829  user[lancer_id] */\n      0x00\n        /* \"contracts/freelancing.sol\":1819:1828  lancer_id */\n      dup5\n        /* \"contracts/freelancing.sol\":1814:1829  user[lancer_id] */\n      dup2\n      mstore\n      0x20\n      add\n      swap1\n      dup2\n      mstore\n      0x20\n      add\n      0x00\n      keccak256\n        /* \"contracts/freelancing.sol\":1814:1840  user[lancer_id].lancer_add */\n      0x00\n      add\n      0x00\n        /* \"contracts/freelancing.sol\":1814:1853  user[lancer_id].lancer_add = msg.sender */\n      0x0100\n      exp\n      dup2\n      sload\n      dup2\n      0xffffffffffffffffffffffffffffffffffffffff\n      mul\n      not\n      and\n      swap1\n      dup4\n      0xffffffffffffffffffffffffffffffffffffffff\n      and\n      mul\n      or\n      swap1\n      sstore\n      pop\n        /* \"contracts/freelancing.sol\":1890:1893  bid */\n      dup1\n        /* \"contracts/freelancing.sol\":1863:1867  user */\n      0x01\n        /* \"contracts/freelancing.sol\":1863:1878  user[lancer_id] */\n      0x00\n        /* \"contracts/freelancing.sol\":1868:1877  lancer_id */\n      dup5\n        /* \"contracts/freelancing.sol\":1863:1878  user[lancer_id] */\n      dup2\n      mstore\n      0x20\n      add\n      swap1\n      dup2\n      mstore\n      0x20\n      add\n      0x00\n      keccak256\n        /* \"contracts/freelancing.sol\":1863:1887  user[lancer_id].bid_desc */\n      0x01\n      add\n        /* \"contracts/freelancing.sol\":1863:1893  user[lancer_id].bid_desc = bid */\n      swap1\n      dup2\n      tag_137\n      swap2\n      swap1\n      tag_80\n      jump\t// in\n    tag_137:\n      pop\n        /* \"contracts/freelancing.sol\":1542:1900  function freelancer(uint clicent_id, uint lancer_id, string memory bid) public{... */\n      pop\n      pop\n      pop\n      jump\t// out\n        /* \"contracts/freelancing.sol\":979:1439  function getClicent(uint clicentID) public view returns(address, string memory, string memory, uint, uint, uint[] memory, ScheduleState){... */\n    tag_43:\n        /* \"contracts/freelancing.sol\":1035:1042  address */\n      0x00\n        /* \"contracts/freelancing.sol\":1044:1057  string memory */\n      0x60\n        /* \"contracts/freelancing.sol\":1059:1072  string memory */\n      dup1\n        /* \"contracts/freelancing.sol\":1074:1078  uint */\n      0x00\n        /* \"contracts/freelancing.sol\":1080:1084  uint */\n      dup1\n        /* \"contracts/freelancing.sol\":1086:1099  uint[] memory */\n      0x60\n        /* \"contracts/freelancing.sol\":1101:1114  ScheduleState */\n      0x00\n        /* \"contracts/freelancing.sol\":1133:1141  clicents */\n      dup1\n        /* \"contracts/freelancing.sol\":1142:1151  clicentID */\n      dup9\n        /* \"contracts/freelancing.sol\":1133:1152  clicents[clicentID] */\n      dup2\n      sload\n      dup2\n      lt\n      tag_139\n      jumpi\n      tag_140\n      tag_67\n      jump\t// in\n    tag_140:\n    tag_139:\n      swap1\n      0x00\n      mstore\n      keccak256(0x00, 0x20)\n      swap1\n      0x07\n      mul\n      add\n        /* \"contracts/freelancing.sol\":1133:1157  clicents[clicentID].p_id */\n      0x00\n      add\n      0x00\n      swap1\n      sload\n      swap1\n      0x0100\n      exp\n      swap1\n      div\n      0xffffffffffffffffffffffffffffffffffffffff\n      and\n        /* \"contracts/freelancing.sol\":1171:1179  clicents */\n      0x00\n        /* \"contracts/freelancing.sol\":1180:1189  clicentID */\n      dup10\n        /* \"contracts/freelancing.sol\":1171:1190  clicents[clicentID] */\n      dup2\n      sload\n      dup2\n      lt\n      tag_142\n      jumpi\n      tag_143\n      tag_67\n      jump\t// in\n    tag_143:\n    tag_142:\n      swap1\n      0x00\n      mstore\n      keccak256(0x00, 0x20)\n      swap1\n      0x07\n      mul\n      add\n        /* \"contracts/freelancing.sol\":1171:1200  clicents[clicentID].shortCode */\n      0x01\n      add\n        /* \"contracts/freelancing.sol\":1214:1222  clicents */\n      0x00\n        /* \"contracts/freelancing.sol\":1223:1232  clicentID */\n      dup11\n        /* \"contracts/freelancing.sol\":1214:1233  clicents[clicentID] */\n      dup2\n      sload\n      dup2\n      lt\n      tag_145\n      jumpi\n      tag_146\n      tag_67\n      jump\t// in\n    tag_146:\n    tag_145:\n      swap1\n      0x00\n      mstore\n      keccak256(0x00, 0x20)\n      swap1\n      0x07\n      mul\n      add\n        /* \"contracts/freelancing.sol\":1214:1245  clicents[clicentID].description */\n      0x02\n      add\n        /* \"contracts/freelancing.sol\":1259:1267  clicents */\n      0x00\n        /* \"contracts/freelancing.sol\":1268:1277  clicentID */\n      dup12\n        /* \"contracts/freelancing.sol\":1259:1278  clicents[clicentID] */\n      dup2\n      sload\n      dup2\n      lt\n      tag_148\n      jumpi\n      tag_149\n      tag_67\n      jump\t// in\n    tag_149:\n    tag_148:\n      swap1\n      0x00\n      mstore\n      keccak256(0x00, 0x20)\n      swap1\n      0x07\n      mul\n      add\n        /* \"contracts/freelancing.sol\":1259:1284  clicents[clicentID].p_amt */\n      0x03\n      add\n      sload\n        /* \"contracts/freelancing.sol\":1298:1306  clicents */\n      0x00\n        /* \"contracts/freelancing.sol\":1307:1316  clicentID */\n      dup13\n        /* \"contracts/freelancing.sol\":1298:1317  clicents[clicentID] */\n      dup2\n      sload\n      dup2\n      lt\n      tag_151\n      jumpi\n      tag_152\n      tag_67\n      jump\t// in\n    tag_152:\n    tag_151:\n      swap1\n      0x00\n      mstore\n      keccak256(0x00, 0x20)\n      swap1\n      0x07\n      mul\n      add\n        /* \"contracts/freelancing.sol\":1298:1328  clicents[clicentID].time_limit */\n      0x04\n      add\n      sload\n        /* \"contracts/freelancing.sol\":1342:1350  clicents */\n      0x00\n        /* \"contracts/freelancing.sol\":1351:1360  clicentID */\n      dup14\n        /* \"contracts/freelancing.sol\":1342:1361  clicents[clicentID] */\n      dup2\n      sload\n      dup2\n      lt\n      tag_154\n      jumpi\n      tag_155\n      tag_67\n      jump\t// in\n    tag_155:\n    tag_154:\n      swap1\n      0x00\n      mstore\n      keccak256(0x00, 0x20)\n      swap1\n      0x07\n      mul\n      add\n        /* \"contracts/freelancing.sol\":1342:1375  clicents[clicentID].freelancer_id */\n      0x05\n      add\n        /* \"contracts/freelancing.sol\":1389:1397  clicents */\n      0x00\n        /* \"contracts/freelancing.sol\":1398:1407  clicentID */\n      dup15\n        /* \"contracts/freelancing.sol\":1389:1408  clicents[clicentID] */\n      dup2\n      sload\n      dup2\n      lt\n      tag_157\n      jumpi\n      tag_158\n      tag_67\n      jump\t// in\n    tag_158:\n    tag_157:\n      swap1\n      0x00\n      mstore\n      keccak256(0x00, 0x20)\n      swap1\n      0x07\n      mul\n      add\n        /* \"contracts/freelancing.sol\":1389:1422  clicents[clicentID].scheduleState */\n      0x06\n      add\n      0x00\n      swap1\n      sload\n      swap1\n      0x0100\n      exp\n      swap1\n      div\n      0xff\n      and\n        /* \"contracts/freelancing.sol\":1125:1432  return( clicents[clicentID].p_id,... */\n      dup6\n      dup1\n      sload\n      tag_160\n      swap1\n      tag_161\n      jump\t// in\n    tag_160:\n      dup1\n      0x1f\n      add\n      0x20\n      dup1\n      swap2\n      div\n      mul\n      0x20\n      add\n      mload(0x40)\n      swap1\n      dup2\n      add\n      0x40\n      mstore\n      dup1\n      swap3\n      swap2\n      swap1\n      dup2\n      dup2\n      mstore\n      0x20\n      add\n      dup3\n      dup1\n      sload\n      tag_162\n      swap1\n      tag_161\n      jump\t// in\n    tag_162:\n      dup1\n      iszero\n      tag_163\n      jumpi\n      dup1\n      0x1f\n      lt\n      tag_164\n      jumpi\n      0x0100\n      dup1\n      dup4\n      sload\n      div\n      mul\n      dup4\n      mstore\n      swap2\n      0x20\n      add\n      swap2\n      jump(tag_163)\n    tag_164:\n      dup3\n      add\n      swap2\n      swap1\n      0x00\n      mstore\n      keccak256(0x00, 0x20)\n      swap1\n    tag_165:\n      dup2\n      sload\n      dup2\n      mstore\n      swap1\n      0x01\n      add\n      swap1\n      0x20\n      add\n      dup1\n      dup4\n      gt\n      tag_165\n      jumpi\n      dup3\n      swap1\n      sub\n      0x1f\n      and\n      dup3\n      add\n      swap2\n    tag_163:\n      pop\n      pop\n      pop\n      pop\n      pop\n      swap6\n      pop\n      dup5\n      dup1\n      sload\n      tag_166\n      swap1\n      tag_161\n      jump\t// in\n    tag_166:\n      dup1\n      0x1f\n      add\n      0x20\n      dup1\n      swap2\n      div\n      mul\n      0x20\n      add\n      mload(0x40)\n      swap1\n      dup2\n      add\n      0x40\n      mstore\n      dup1\n      swap3\n      swap2\n      swap1\n      dup2\n      dup2\n      mstore\n      0x20\n      add\n      dup3\n      dup1\n      sload\n      tag_167\n      swap1\n      tag_161\n      jump\t// in\n    tag_167:\n      dup1\n      iszero\n      tag_168\n      jumpi\n      dup1\n      0x1f\n      lt\n      tag_169\n      jumpi\n      0x0100\n      dup1\n      dup4\n      sload\n      div\n      mul\n      dup4\n      mstore\n      swap2\n      0x20\n      add\n      swap2\n      jump(tag_168)\n    tag_169:\n      dup3\n      add\n      swap2\n      swap1\n      0x00\n      mstore\n      keccak256(0x00, 0x20)\n      swap1\n    tag_170:\n      dup2\n      sload\n      dup2\n      mstore\n      swap1\n      0x01\n      add\n      swap1\n      0x20\n      add\n      dup1\n      dup4\n      gt\n      tag_170\n      jumpi\n      dup3\n      swap1\n      sub\n      0x1f\n      and\n      dup3\n      add\n      swap2\n    tag_168:\n      pop\n      pop\n      pop\n      pop\n      pop\n      swap5\n      pop\n      dup2\n      dup1\n      sload\n      dup1\n      0x20\n      mul\n      0x20\n      add\n      mload(0x40)\n      swap1\n      dup2\n      add\n      0x40\n      mstore\n      dup1\n      swap3\n      swap2\n      swap1\n      dup2\n      dup2\n      mstore\n      0x20\n      add\n      dup3\n      dup1\n      sload\n      dup1\n      iszero\n      tag_171\n      jumpi\n      0x20\n      mul\n      dup3\n      add\n      swap2\n      swap1\n      0x00\n      mstore\n      keccak256(0x00, 0x20)\n      swap1\n    tag_172:\n      dup2\n      sload\n      dup2\n      mstore\n      0x20\n      add\n      swap1\n      0x01\n      add\n      swap1\n      dup1\n      dup4\n      gt\n      tag_172\n      jumpi\n    tag_171:\n      pop\n      pop\n      pop\n      pop\n      pop\n      swap2\n      pop\n      swap7\n      pop\n      swap7\n      pop\n      swap7\n      pop\n      swap7\n      pop\n      swap7\n      pop\n      swap7\n      pop\n      swap7\n      pop\n        /* \"contracts/freelancing.sol\":979:1439  function getClicent(uint clicentID) public view returns(address, string memory, string memory, uint, uint, uint[] memory, ScheduleState){... */\n      swap2\n      swap4\n      swap6\n      swap8\n      swap1\n      swap3\n      swap5\n      swap7\n      pop\n      jump\t// out\n        /* \"contracts/freelancing.sol\":2134:2413  function select(uint pId, uint lancer_id) public {... */\n    tag_49:\n        /* \"contracts/freelancing.sol\":2232:2254  ScheduleState.proposal */\n      0x00\n        /* \"contracts/freelancing.sol\":2201:2254  clicents[pId].scheduleState == ScheduleState.proposal */\n      0x04\n      dup2\n      gt\n      iszero\n      tag_174\n      jumpi\n      tag_175\n      tag_59\n      jump\t// in\n    tag_175:\n    tag_174:\n        /* \"contracts/freelancing.sol\":2201:2209  clicents */\n      0x00\n        /* \"contracts/freelancing.sol\":2210:2213  pId */\n      dup4\n        /* \"contracts/freelancing.sol\":2201:2214  clicents[pId] */\n      dup2\n      sload\n      dup2\n      lt\n      tag_176\n      jumpi\n      tag_177\n      tag_67\n      jump\t// in\n    tag_177:\n    tag_176:\n      swap1\n      0x00\n      mstore\n      keccak256(0x00, 0x20)\n      swap1\n      0x07\n      mul\n      add\n        /* \"contracts/freelancing.sol\":2201:2228  clicents[pId].scheduleState */\n      0x06\n      add\n      0x00\n      swap1\n      sload\n      swap1\n      0x0100\n      exp\n      swap1\n      div\n      0xff\n      and\n        /* \"contracts/freelancing.sol\":2201:2254  clicents[pId].scheduleState == ScheduleState.proposal */\n      0x04\n      dup2\n      gt\n      iszero\n      tag_179\n      jumpi\n      tag_180\n      tag_59\n      jump\t// in\n    tag_180:\n    tag_179:\n      eq\n        /* \"contracts/freelancing.sol\":2193:2280  require(clicents[pId].scheduleState == ScheduleState.proposal, \"You are not selected.\") */\n      tag_181\n      jumpi\n      mload(0x40)\n      0x08c379a000000000000000000000000000000000000000000000000000000000\n      dup2\n      mstore\n      0x04\n      add\n      tag_182\n      swap1\n      tag_94\n      jump\t// in\n    tag_182:\n      mload(0x40)\n      dup1\n      swap2\n      sub\n      swap1\n      revert\n    tag_181:\n        /* \"contracts/freelancing.sol\":2322:2344  ScheduleState.financed */\n      0x01\n        /* \"contracts/freelancing.sol\":2290:2294  user */\n      dup1\n        /* \"contracts/freelancing.sol\":2290:2305  user[lancer_id] */\n      0x00\n        /* \"contracts/freelancing.sol\":2295:2304  lancer_id */\n      dup4\n        /* \"contracts/freelancing.sol\":2290:2305  user[lancer_id] */\n      dup2\n      mstore\n      0x20\n      add\n      swap1\n      dup2\n      mstore\n      0x20\n      add\n      0x00\n      keccak256\n        /* \"contracts/freelancing.sol\":2290:2319  user[lancer_id].scheduleState */\n      0x02\n      add\n      0x00\n        /* \"contracts/freelancing.sol\":2290:2344  user[lancer_id].scheduleState = ScheduleState.financed */\n      0x0100\n      exp\n      dup2\n      sload\n      dup2\n      0xff\n      mul\n      not\n      and\n      swap1\n      dup4\n      0x04\n      dup2\n      gt\n      iszero\n      tag_183\n      jumpi\n      tag_184\n      tag_59\n      jump\t// in\n    tag_184:\n    tag_183:\n      mul\n      or\n      swap1\n      sstore\n      pop\n        /* \"contracts/freelancing.sol\":2384:2406  ScheduleState.financed */\n      0x01\n        /* \"contracts/freelancing.sol\":2354:2362  clicents */\n      0x00\n        /* \"contracts/freelancing.sol\":2363:2366  pId */\n      dup4\n        /* \"contracts/freelancing.sol\":2354:2367  clicents[pId] */\n      dup2\n      sload\n      dup2\n      lt\n      tag_185\n      jumpi\n      tag_186\n      tag_67\n      jump\t// in\n    tag_186:\n    tag_185:\n      swap1\n      0x00\n      mstore\n      keccak256(0x00, 0x20)\n      swap1\n      0x07\n      mul\n      add\n        /* \"contracts/freelancing.sol\":2354:2381  clicents[pId].scheduleState */\n      0x06\n      add\n      0x00\n        /* \"contracts/freelancing.sol\":2354:2406  clicents[pId].scheduleState = ScheduleState.financed */\n      0x0100\n      exp\n      dup2\n      sload\n      dup2\n      0xff\n      mul\n      not\n      and\n      swap1\n      dup4\n      0x04\n      dup2\n      gt\n      iszero\n      tag_188\n      jumpi\n      tag_189\n      tag_59\n      jump\t// in\n    tag_189:\n    tag_188:\n      mul\n      or\n      swap1\n      sstore\n      pop\n        /* \"contracts/freelancing.sol\":2134:2413  function select(uint pId, uint lancer_id) public {... */\n      pop\n      pop\n      jump\t// out\n        /* \"contracts/freelancing.sol\":1907:2128  function getFreelancer(uint u_id) public view returns(string memory, ScheduleState, address) {... */\n    tag_53:\n        /* \"contracts/freelancing.sol\":1961:1974  string memory */\n      0x60\n        /* \"contracts/freelancing.sol\":1976:1989  ScheduleState */\n      0x00\n        /* \"contracts/freelancing.sol\":1991:1998  address */\n      dup1\n        /* \"contracts/freelancing.sol\":2019:2023  user */\n      0x01\n        /* \"contracts/freelancing.sol\":2019:2029  user[u_id] */\n      0x00\n        /* \"contracts/freelancing.sol\":2024:2028  u_id */\n      dup6\n        /* \"contracts/freelancing.sol\":2019:2029  user[u_id] */\n      dup2\n      mstore\n      0x20\n      add\n      swap1\n      dup2\n      mstore\n      0x20\n      add\n      0x00\n      keccak256\n        /* \"contracts/freelancing.sol\":2019:2038  user[u_id].bid_desc */\n      0x01\n      add\n        /* \"contracts/freelancing.sol\":2052:2056  user */\n      0x01\n        /* \"contracts/freelancing.sol\":2052:2062  user[u_id] */\n      0x00\n        /* \"contracts/freelancing.sol\":2057:2061  u_id */\n      dup7\n        /* \"contracts/freelancing.sol\":2052:2062  user[u_id] */\n      dup2\n      mstore\n      0x20\n      add\n      swap1\n      dup2\n      mstore\n      0x20\n      add\n      0x00\n      keccak256\n        /* \"contracts/freelancing.sol\":2052:2076  user[u_id].scheduleState */\n      0x02\n      add\n      0x00\n      swap1\n      sload\n      swap1\n      0x0100\n      exp\n      swap1\n      div\n      0xff\n      and\n        /* \"contracts/freelancing.sol\":2090:2094  user */\n      0x01\n        /* \"contracts/freelancing.sol\":2090:2100  user[u_id] */\n      0x00\n        /* \"contracts/freelancing.sol\":2095:2099  u_id */\n      dup8\n        /* \"contracts/freelancing.sol\":2090:2100  user[u_id] */\n      dup2\n      mstore\n      0x20\n      add\n      swap1\n      dup2\n      mstore\n      0x20\n      add\n      0x00\n      keccak256\n        /* \"contracts/freelancing.sol\":2090:2111  user[u_id].lancer_add */\n      0x00\n      add\n      0x00\n      swap1\n      sload\n      swap1\n      0x0100\n      exp\n      swap1\n      div\n      0xffffffffffffffffffffffffffffffffffffffff\n      and\n        /* \"contracts/freelancing.sol\":2010:2121  return ( user[u_id].bid_desc,... */\n      dup3\n      dup1\n      sload\n      tag_191\n      swap1\n      tag_161\n      jump\t// in\n    tag_191:\n      dup1\n      0x1f\n      add\n      0x20\n      dup1\n      swap2\n      div\n      mul\n      0x20\n      add\n      mload(0x40)\n      swap1\n      dup2\n      add\n      0x40\n      mstore\n      dup1\n      swap3\n      swap2\n      swap1\n      dup2\n      dup2\n      mstore\n      0x20\n      add\n      dup3\n      dup1\n      sload\n      tag_192\n      swap1\n      tag_161\n      jump\t// in\n    tag_192:\n      dup1\n      iszero\n      tag_193\n      jumpi\n      dup1\n      0x1f\n      lt\n      tag_194\n      jumpi\n      0x0100\n      dup1\n      dup4\n      sload\n      div\n      mul\n      dup4\n      mstore\n      swap2\n      0x20\n      add\n      swap2\n      jump(tag_193)\n    tag_194:\n      dup3\n      add\n      swap2\n      swap1\n      0x00\n      mstore\n      keccak256(0x00, 0x20)\n      swap1\n    tag_195:\n      dup2\n      sload\n      dup2\n      mstore\n      swap1\n      0x01\n      add\n      swap1\n      0x20\n      add\n      dup1\n      dup4\n      gt\n      tag_195\n      jumpi\n      dup3\n      swap1\n      sub\n      0x1f\n      and\n      dup3\n      add\n      swap2\n    tag_193:\n      pop\n      pop\n      pop\n      pop\n      pop\n      swap3\n      pop\n      swap3\n      pop\n      swap3\n      pop\n      swap3\n      pop\n        /* \"contracts/freelancing.sol\":1907:2128  function getFreelancer(uint u_id) public view returns(string memory, ScheduleState, address) {... */\n      swap2\n      swap4\n      swap1\n      swap3\n      pop\n      jump\t// out\n    tag_83:\n      dup3\n      dup1\n      sload\n      dup3\n      dup3\n      sstore\n      swap1\n      0x00\n      mstore\n      keccak256(0x00, 0x20)\n      swap1\n      dup2\n      add\n      swap3\n      dup3\n      iszero\n      tag_196\n      jumpi\n      swap2\n      0x20\n      mul\n      dup3\n      add\n    tag_197:\n      dup3\n      dup2\n      gt\n      iszero\n      tag_198\n      jumpi\n      dup3\n      mload\n      dup3\n      sstore\n      swap2\n      0x20\n      add\n      swap2\n      swap1\n      0x01\n      add\n      swap1\n      jump(tag_197)\n    tag_198:\n    tag_196:\n      pop\n      swap1\n      pop\n      tag_199\n      swap2\n      swap1\n      tag_200\n      jump\t// in\n    tag_199:\n      pop\n      swap1\n      jump\t// out\n    tag_200:\n    tag_201:\n      dup1\n      dup3\n      gt\n      iszero\n      tag_202\n      jumpi\n      0x00\n      dup2\n      0x00\n      swap1\n      sstore\n      pop\n      0x01\n      add\n      jump(tag_201)\n    tag_202:\n      pop\n      swap1\n      jump\t// out\n        /* \"#utility.yul\":7:82   */\n    tag_203:\n        /* \"#utility.yul\":40:46   */\n      0x00\n        /* \"#utility.yul\":73:75   */\n      0x40\n        /* \"#utility.yul\":67:76   */\n      mload\n        /* \"#utility.yul\":57:76   */\n      swap1\n      pop\n        /* \"#utility.yul\":7:82   */\n      swap1\n      jump\t// out\n        /* \"#utility.yul\":88:205   */\n    tag_204:\n        /* \"#utility.yul\":197:198   */\n      0x00\n        /* \"#utility.yul\":194:195   */\n      dup1\n        /* \"#utility.yul\":187:199   */\n      revert\n        /* \"#utility.yul\":211:328   */\n    tag_205:\n        /* \"#utility.yul\":320:321   */\n      0x00\n        /* \"#utility.yul\":317:318   */\n      dup1\n        /* \"#utility.yul\":310:322   */\n      revert\n        /* \"#utility.yul\":334:411   */\n    tag_206:\n        /* \"#utility.yul\":371:378   */\n      0x00\n        /* \"#utility.yul\":400:405   */\n      dup2\n        /* \"#utility.yul\":389:405   */\n      swap1\n      pop\n        /* \"#utility.yul\":334:411   */\n      swap2\n      swap1\n      pop\n      jump\t// out\n        /* \"#utility.yul\":417:539   */\n    tag_207:\n        /* \"#utility.yul\":490:514   */\n      tag_268\n        /* \"#utility.yul\":508:513   */\n      dup2\n        /* \"#utility.yul\":490:514   */\n      tag_206\n      jump\t// in\n    tag_268:\n        /* \"#utility.yul\":483:488   */\n      dup2\n        /* \"#utility.yul\":480:515   */\n      eq\n        /* \"#utility.yul\":470:533   */\n      tag_269\n      jumpi\n        /* \"#utility.yul\":529:530   */\n      0x00\n        /* \"#utility.yul\":526:527   */\n      dup1\n        /* \"#utility.yul\":519:531   */\n      revert\n        /* \"#utility.yul\":470:533   */\n    tag_269:\n        /* \"#utility.yul\":417:539   */\n      pop\n      jump\t// out\n        /* \"#utility.yul\":545:684   */\n    tag_208:\n        /* \"#utility.yul\":591:596   */\n      0x00\n        /* \"#utility.yul\":629:635   */\n      dup2\n        /* \"#utility.yul\":616:636   */\n      calldataload\n        /* \"#utility.yul\":607:636   */\n      swap1\n      pop\n        /* \"#utility.yul\":645:678   */\n      tag_271\n        /* \"#utility.yul\":672:677   */\n      dup2\n        /* \"#utility.yul\":645:678   */\n      tag_207\n      jump\t// in\n    tag_271:\n        /* \"#utility.yul\":545:684   */\n      swap3\n      swap2\n      pop\n      pop\n      jump\t// out\n        /* \"#utility.yul\":690:1164   */\n    tag_15:\n        /* \"#utility.yul\":758:764   */\n      0x00\n        /* \"#utility.yul\":766:772   */\n      dup1\n        /* \"#utility.yul\":815:817   */\n      0x40\n        /* \"#utility.yul\":803:812   */\n      dup4\n        /* \"#utility.yul\":794:801   */\n      dup6\n        /* \"#utility.yul\":790:813   */\n      sub\n        /* \"#utility.yul\":786:818   */\n      slt\n        /* \"#utility.yul\":783:902   */\n      iszero\n      tag_273\n      jumpi\n        /* \"#utility.yul\":821:900   */\n      tag_274\n      tag_204\n      jump\t// in\n    tag_274:\n        /* \"#utility.yul\":783:902   */\n    tag_273:\n        /* \"#utility.yul\":941:942   */\n      0x00\n        /* \"#utility.yul\":966:1019   */\n      tag_275\n        /* \"#utility.yul\":1011:1018   */\n      dup6\n        /* \"#utility.yul\":1002:1008   */\n      dup3\n        /* \"#utility.yul\":991:1000   */\n      dup7\n        /* \"#utility.yul\":987:1009   */\n      add\n        /* \"#utility.yul\":966:1019   */\n      tag_208\n      jump\t// in\n    tag_275:\n        /* \"#utility.yul\":956:1019   */\n      swap3\n      pop\n        /* \"#utility.yul\":912:1029   */\n      pop\n        /* \"#utility.yul\":1068:1070   */\n      0x20\n        /* \"#utility.yul\":1094:1147   */\n      tag_276\n        /* \"#utility.yul\":1139:1146   */\n      dup6\n        /* \"#utility.yul\":1130:1136   */\n      dup3\n        /* \"#utility.yul\":1119:1128   */\n      dup7\n        /* \"#utility.yul\":1115:1137   */\n      add\n        /* \"#utility.yul\":1094:1147   */\n      tag_208\n      jump\t// in\n    tag_276:\n        /* \"#utility.yul\":1084:1147   */\n      swap2\n      pop\n        /* \"#utility.yul\":1039:1157   */\n      pop\n        /* \"#utility.yul\":690:1164   */\n      swap3\n      pop\n      swap3\n      swap1\n      pop\n      jump\t// out\n        /* \"#utility.yul\":1170:1287   */\n    tag_209:\n        /* \"#utility.yul\":1279:1280   */\n      0x00\n        /* \"#utility.yul\":1276:1277   */\n      dup1\n        /* \"#utility.yul\":1269:1281   */\n      revert\n        /* \"#utility.yul\":1293:1410   */\n    tag_210:\n        /* \"#utility.yul\":1402:1403   */\n      0x00\n        /* \"#utility.yul\":1399:1400   */\n      dup1\n        /* \"#utility.yul\":1392:1404   */\n      revert\n        /* \"#utility.yul\":1416:1518   */\n    tag_211:\n        /* \"#utility.yul\":1457:1463   */\n      0x00\n        /* \"#utility.yul\":1508:1510   */\n      0x1f\n        /* \"#utility.yul\":1504:1511   */\n      not\n        /* \"#utility.yul\":1499:1501   */\n      0x1f\n        /* \"#utility.yul\":1492:1497   */\n      dup4\n        /* \"#utility.yul\":1488:1502   */\n      add\n        /* \"#utility.yul\":1484:1512   */\n      and\n        /* \"#utility.yul\":1474:1512   */\n      swap1\n      pop\n        /* \"#utility.yul\":1416:1518   */\n      swap2\n      swap1\n      pop\n      jump\t// out\n        /* \"#utility.yul\":1524:1704   */\n    tag_212:\n        /* \"#utility.yul\":1572:1649   */\n      0x4e487b7100000000000000000000000000000000000000000000000000000000\n        /* \"#utility.yul\":1569:1570   */\n      0x00\n        /* \"#utility.yul\":1562:1650   */\n      mstore\n        /* \"#utility.yul\":1669:1673   */\n      0x41\n        /* \"#utility.yul\":1666:1667   */\n      0x04\n        /* \"#utility.yul\":1659:1674   */\n      mstore\n        /* \"#utility.yul\":1693:1697   */\n      0x24\n        /* \"#utility.yul\":1690:1691   */\n      0x00\n        /* \"#utility.yul\":1683:1698   */\n      revert\n        /* \"#utility.yul\":1710:1991   */\n    tag_213:\n        /* \"#utility.yul\":1793:1820   */\n      tag_282\n        /* \"#utility.yul\":1815:1819   */\n      dup3\n        /* \"#utility.yul\":1793:1820   */\n      tag_211\n      jump\t// in\n    tag_282:\n        /* \"#utility.yul\":1785:1791   */\n      dup2\n        /* \"#utility.yul\":1781:1821   */\n      add\n        /* \"#utility.yul\":1923:1929   */\n      dup2\n        /* \"#utility.yul\":1911:1921   */\n      dup2\n        /* \"#utility.yul\":1908:1930   */\n      lt\n        /* \"#utility.yul\":1887:1905   */\n      0xffffffffffffffff\n        /* \"#utility.yul\":1875:1885   */\n      dup3\n        /* \"#utility.yul\":1872:1906   */\n      gt\n        /* \"#utility.yul\":1869:1931   */\n      or\n        /* \"#utility.yul\":1866:1954   */\n      iszero\n      tag_283\n      jumpi\n        /* \"#utility.yul\":1934:1952   */\n      tag_284\n      tag_212\n      jump\t// in\n    tag_284:\n        /* \"#utility.yul\":1866:1954   */\n    tag_283:\n        /* \"#utility.yul\":1974:1984   */\n      dup1\n        /* \"#utility.yul\":1970:1972   */\n      0x40\n        /* \"#utility.yul\":1963:1985   */\n      mstore\n        /* \"#utility.yul\":1753:1991   */\n      pop\n        /* \"#utility.yul\":1710:1991   */\n      pop\n      pop\n      jump\t// out\n        /* \"#utility.yul\":1997:2126   */\n    tag_214:\n        /* \"#utility.yul\":2031:2037   */\n      0x00\n        /* \"#utility.yul\":2058:2078   */\n      tag_286\n      tag_203\n      jump\t// in\n    tag_286:\n        /* \"#utility.yul\":2048:2078   */\n      swap1\n      pop\n        /* \"#utility.yul\":2087:2120   */\n      tag_287\n        /* \"#utility.yul\":2115:2119   */\n      dup3\n        /* \"#utility.yul\":2107:2113   */\n      dup3\n        /* \"#utility.yul\":2087:2120   */\n      tag_213\n      jump\t// in\n    tag_287:\n        /* \"#utility.yul\":1997:2126   */\n      swap2\n      swap1\n      pop\n      jump\t// out\n        /* \"#utility.yul\":2132:2440   */\n    tag_215:\n        /* \"#utility.yul\":2194:2198   */\n      0x00\n        /* \"#utility.yul\":2284:2302   */\n      0xffffffffffffffff\n        /* \"#utility.yul\":2276:2282   */\n      dup3\n        /* \"#utility.yul\":2273:2303   */\n      gt\n        /* \"#utility.yul\":2270:2326   */\n      iszero\n      tag_289\n      jumpi\n        /* \"#utility.yul\":2306:2324   */\n      tag_290\n      tag_212\n      jump\t// in\n    tag_290:\n        /* \"#utility.yul\":2270:2326   */\n    tag_289:\n        /* \"#utility.yul\":2344:2373   */\n      tag_291\n        /* \"#utility.yul\":2366:2372   */\n      dup3\n        /* \"#utility.yul\":2344:2373   */\n      tag_211\n      jump\t// in\n    tag_291:\n        /* \"#utility.yul\":2336:2373   */\n      swap1\n      pop\n        /* \"#utility.yul\":2428:2432   */\n      0x20\n        /* \"#utility.yul\":2422:2426   */\n      dup2\n        /* \"#utility.yul\":2418:2433   */\n      add\n        /* \"#utility.yul\":2410:2433   */\n      swap1\n      pop\n        /* \"#utility.yul\":2132:2440   */\n      swap2\n      swap1\n      pop\n      jump\t// out\n        /* \"#utility.yul\":2446:2592   */\n    tag_216:\n        /* \"#utility.yul\":2543:2549   */\n      dup3\n        /* \"#utility.yul\":2538:2541   */\n      dup2\n        /* \"#utility.yul\":2533:2536   */\n      dup4\n        /* \"#utility.yul\":2520:2550   */\n      calldatacopy\n        /* \"#utility.yul\":2584:2585   */\n      0x00\n        /* \"#utility.yul\":2575:2581   */\n      dup4\n        /* \"#utility.yul\":2570:2573   */\n      dup4\n        /* \"#utility.yul\":2566:2582   */\n      add\n        /* \"#utility.yul\":2559:2586   */\n      mstore\n        /* \"#utility.yul\":2446:2592   */\n      pop\n      pop\n      pop\n      jump\t// out\n        /* \"#utility.yul\":2598:3023   */\n    tag_217:\n        /* \"#utility.yul\":2676:2681   */\n      0x00\n        /* \"#utility.yul\":2701:2767   */\n      tag_294\n        /* \"#utility.yul\":2717:2766   */\n      tag_295\n        /* \"#utility.yul\":2759:2765   */\n      dup5\n        /* \"#utility.yul\":2717:2766   */\n      tag_215\n      jump\t// in\n    tag_295:\n        /* \"#utility.yul\":2701:2767   */\n      tag_214\n      jump\t// in\n    tag_294:\n        /* \"#utility.yul\":2692:2767   */\n      swap1\n      pop\n        /* \"#utility.yul\":2790:2796   */\n      dup3\n        /* \"#utility.yul\":2783:2788   */\n      dup2\n        /* \"#utility.yul\":2776:2797   */\n      mstore\n        /* \"#utility.yul\":2828:2832   */\n      0x20\n        /* \"#utility.yul\":2821:2826   */\n      dup2\n        /* \"#utility.yul\":2817:2833   */\n      add\n        /* \"#utility.yul\":2866:2869   */\n      dup5\n        /* \"#utility.yul\":2857:2863   */\n      dup5\n        /* \"#utility.yul\":2852:2855   */\n      dup5\n        /* \"#utility.yul\":2848:2864   */\n      add\n        /* \"#utility.yul\":2845:2870   */\n      gt\n        /* \"#utility.yul\":2842:2954   */\n      iszero\n      tag_296\n      jumpi\n        /* \"#utility.yul\":2873:2952   */\n      tag_297\n      tag_210\n      jump\t// in\n    tag_297:\n        /* \"#utility.yul\":2842:2954   */\n    tag_296:\n        /* \"#utility.yul\":2963:3017   */\n      tag_298\n        /* \"#utility.yul\":3010:3016   */\n      dup5\n        /* \"#utility.yul\":3005:3008   */\n      dup3\n        /* \"#utility.yul\":3000:3003   */\n      dup6\n        /* \"#utility.yul\":2963:3017   */\n      tag_216\n      jump\t// in\n    tag_298:\n        /* \"#utility.yul\":2682:3023   */\n      pop\n        /* \"#utility.yul\":2598:3023   */\n      swap4\n      swap3\n      pop\n      pop\n      pop\n      jump\t// out\n        /* \"#utility.yul\":3043:3383   */\n    tag_218:\n        /* \"#utility.yul\":3099:3104   */\n      0x00\n        /* \"#utility.yul\":3148:3151   */\n      dup3\n        /* \"#utility.yul\":3141:3145   */\n      0x1f\n        /* \"#utility.yul\":3133:3139   */\n      dup4\n        /* \"#utility.yul\":3129:3146   */\n      add\n        /* \"#utility.yul\":3125:3152   */\n      slt\n        /* \"#utility.yul\":3115:3237   */\n      tag_300\n      jumpi\n        /* \"#utility.yul\":3156:3235   */\n      tag_301\n      tag_209\n      jump\t// in\n    tag_301:\n        /* \"#utility.yul\":3115:3237   */\n    tag_300:\n        /* \"#utility.yul\":3273:3279   */\n      dup2\n        /* \"#utility.yul\":3260:3280   */\n      calldataload\n        /* \"#utility.yul\":3298:3377   */\n      tag_302\n        /* \"#utility.yul\":3373:3376   */\n      dup5\n        /* \"#utility.yul\":3365:3371   */\n      dup3\n        /* \"#utility.yul\":3358:3362   */\n      0x20\n        /* \"#utility.yul\":3350:3356   */\n      dup7\n        /* \"#utility.yul\":3346:3363   */\n      add\n        /* \"#utility.yul\":3298:3377   */\n      tag_217\n      jump\t// in\n    tag_302:\n        /* \"#utility.yul\":3289:3377   */\n      swap2\n      pop\n        /* \"#utility.yul\":3105:3383   */\n      pop\n        /* \"#utility.yul\":3043:3383   */\n      swap3\n      swap2\n      pop\n      pop\n      jump\t// out\n        /* \"#utility.yul\":3389:4514   */\n    tag_20:\n        /* \"#utility.yul\":3495:3501   */\n      0x00\n        /* \"#utility.yul\":3503:3509   */\n      dup1\n        /* \"#utility.yul\":3511:3517   */\n      0x00\n        /* \"#utility.yul\":3519:3525   */\n      dup1\n        /* \"#utility.yul\":3568:3571   */\n      0x80\n        /* \"#utility.yul\":3556:3565   */\n      dup6\n        /* \"#utility.yul\":3547:3554   */\n      dup8\n        /* \"#utility.yul\":3543:3566   */\n      sub\n        /* \"#utility.yul\":3539:3572   */\n      slt\n        /* \"#utility.yul\":3536:3656   */\n      iszero\n      tag_304\n      jumpi\n        /* \"#utility.yul\":3575:3654   */\n      tag_305\n      tag_204\n      jump\t// in\n    tag_305:\n        /* \"#utility.yul\":3536:3656   */\n    tag_304:\n        /* \"#utility.yul\":3723:3724   */\n      0x00\n        /* \"#utility.yul\":3712:3721   */\n      dup6\n        /* \"#utility.yul\":3708:3725   */\n      add\n        /* \"#utility.yul\":3695:3726   */\n      calldataload\n        /* \"#utility.yul\":3753:3771   */\n      0xffffffffffffffff\n        /* \"#utility.yul\":3745:3751   */\n      dup2\n        /* \"#utility.yul\":3742:3772   */\n      gt\n        /* \"#utility.yul\":3739:3856   */\n      iszero\n      tag_306\n      jumpi\n        /* \"#utility.yul\":3775:3854   */\n      tag_307\n      tag_205\n      jump\t// in\n    tag_307:\n        /* \"#utility.yul\":3739:3856   */\n    tag_306:\n        /* \"#utility.yul\":3880:3943   */\n      tag_308\n        /* \"#utility.yul\":3935:3942   */\n      dup8\n        /* \"#utility.yul\":3926:3932   */\n      dup3\n        /* \"#utility.yul\":3915:3924   */\n      dup9\n        /* \"#utility.yul\":3911:3933   */\n      add\n        /* \"#utility.yul\":3880:3943   */\n      tag_218\n      jump\t// in\n    tag_308:\n        /* \"#utility.yul\":3870:3943   */\n      swap5\n      pop\n        /* \"#utility.yul\":3666:3953   */\n      pop\n        /* \"#utility.yul\":4020:4022   */\n      0x20\n        /* \"#utility.yul\":4009:4018   */\n      dup6\n        /* \"#utility.yul\":4005:4023   */\n      add\n        /* \"#utility.yul\":3992:4024   */\n      calldataload\n        /* \"#utility.yul\":4051:4069   */\n      0xffffffffffffffff\n        /* \"#utility.yul\":4043:4049   */\n      dup2\n        /* \"#utility.yul\":4040:4070   */\n      gt\n        /* \"#utility.yul\":4037:4154   */\n      iszero\n      tag_309\n      jumpi\n        /* \"#utility.yul\":4073:4152   */\n      tag_310\n      tag_205\n      jump\t// in\n    tag_310:\n        /* \"#utility.yul\":4037:4154   */\n    tag_309:\n        /* \"#utility.yul\":4178:4241   */\n      tag_311\n        /* \"#utility.yul\":4233:4240   */\n      dup8\n        /* \"#utility.yul\":4224:4230   */\n      dup3\n        /* \"#utility.yul\":4213:4222   */\n      dup9\n        /* \"#utility.yul\":4209:4231   */\n      add\n        /* \"#utility.yul\":4178:4241   */\n      tag_218\n      jump\t// in\n    tag_311:\n        /* \"#utility.yul\":4168:4241   */\n      swap4\n      pop\n        /* \"#utility.yul\":3963:4251   */\n      pop\n        /* \"#utility.yul\":4290:4292   */\n      0x40\n        /* \"#utility.yul\":4316:4369   */\n      tag_312\n        /* \"#utility.yul\":4361:4368   */\n      dup8\n        /* \"#utility.yul\":4352:4358   */\n      dup3\n        /* \"#utility.yul\":4341:4350   */\n      dup9\n        /* \"#utility.yul\":4337:4359   */\n      add\n        /* \"#utility.yul\":4316:4369   */\n      tag_208\n      jump\t// in\n    tag_312:\n        /* \"#utility.yul\":4306:4369   */\n      swap3\n      pop\n        /* \"#utility.yul\":4261:4379   */\n      pop\n        /* \"#utility.yul\":4418:4420   */\n      0x60\n        /* \"#utility.yul\":4444:4497   */\n      tag_313\n        /* \"#utility.yul\":4489:4496   */\n      dup8\n        /* \"#utility.yul\":4480:4486   */\n      dup3\n        /* \"#utility.yul\":4469:4478   */\n      dup9\n        /* \"#utility.yul\":4465:4487   */\n      add\n        /* \"#utility.yul\":4444:4497   */\n      tag_208\n      jump\t// in\n    tag_313:\n        /* \"#utility.yul\":4434:4497   */\n      swap2\n      pop\n        /* \"#utility.yul\":4389:4507   */\n      pop\n        /* \"#utility.yul\":3389:4514   */\n      swap3\n      swap6\n      swap2\n      swap5\n      pop\n      swap3\n      pop\n      jump\t// out\n        /* \"#utility.yul\":4520:4638   */\n    tag_219:\n        /* \"#utility.yul\":4607:4631   */\n      tag_315\n        /* \"#utility.yul\":4625:4630   */\n      dup2\n        /* \"#utility.yul\":4607:4631   */\n      tag_206\n      jump\t// in\n    tag_315:\n        /* \"#utility.yul\":4602:4605   */\n      dup3\n        /* \"#utility.yul\":4595:4632   */\n      mstore\n        /* \"#utility.yul\":4520:4638   */\n      pop\n      pop\n      jump\t// out\n        /* \"#utility.yul\":4644:4866   */\n    tag_26:\n        /* \"#utility.yul\":4737:4741   */\n      0x00\n        /* \"#utility.yul\":4775:4777   */\n      0x20\n        /* \"#utility.yul\":4764:4773   */\n      dup3\n        /* \"#utility.yul\":4760:4778   */\n      add\n        /* \"#utility.yul\":4752:4778   */\n      swap1\n      pop\n        /* \"#utility.yul\":4788:4859   */\n      tag_317\n        /* \"#utility.yul\":4856:4857   */\n      0x00\n        /* \"#utility.yul\":4845:4854   */\n      dup4\n        /* \"#utility.yul\":4841:4858   */\n      add\n        /* \"#utility.yul\":4832:4838   */\n      dup5\n        /* \"#utility.yul\":4788:4859   */\n      tag_219\n      jump\t// in\n    tag_317:\n        /* \"#utility.yul\":4644:4866   */\n      swap3\n      swap2\n      pop\n      pop\n      jump\t// out\n        /* \"#utility.yul\":4872:5671   */\n    tag_37:\n        /* \"#utility.yul\":4959:4965   */\n      0x00\n        /* \"#utility.yul\":4967:4973   */\n      dup1\n        /* \"#utility.yul\":4975:4981   */\n      0x00\n        /* \"#utility.yul\":5024:5026   */\n      0x60\n        /* \"#utility.yul\":5012:5021   */\n      dup5\n        /* \"#utility.yul\":5003:5010   */\n      dup7\n        /* \"#utility.yul\":4999:5022   */\n      sub\n        /* \"#utility.yul\":4995:5027   */\n      slt\n        /* \"#utility.yul\":4992:5111   */\n      iszero\n      tag_319\n      jumpi\n        /* \"#utility.yul\":5030:5109   */\n      tag_320\n      tag_204\n      jump\t// in\n    tag_320:\n        /* \"#utility.yul\":4992:5111   */\n    tag_319:\n        /* \"#utility.yul\":5150:5151   */\n      0x00\n        /* \"#utility.yul\":5175:5228   */\n      tag_321\n        /* \"#utility.yul\":5220:5227   */\n      dup7\n        /* \"#utility.yul\":5211:5217   */\n      dup3\n        /* \"#utility.yul\":5200:5209   */\n      dup8\n        /* \"#utility.yul\":5196:5218   */\n      add\n        /* \"#utility.yul\":5175:5228   */\n      tag_208\n      jump\t// in\n    tag_321:\n        /* \"#utility.yul\":5165:5228   */\n      swap4\n      pop\n        /* \"#utility.yul\":5121:5238   */\n      pop\n        /* \"#utility.yul\":5277:5279   */\n      0x20\n        /* \"#utility.yul\":5303:5356   */\n      tag_322\n        /* \"#utility.yul\":5348:5355   */\n      dup7\n        /* \"#utility.yul\":5339:5345   */\n      dup3\n        /* \"#utility.yul\":5328:5337   */\n      dup8\n        /* \"#utility.yul\":5324:5346   */\n      add\n        /* \"#utility.yul\":5303:5356   */\n      tag_208\n      jump\t// in\n    tag_322:\n        /* \"#utility.yul\":5293:5356   */\n      swap3\n      pop\n        /* \"#utility.yul\":5248:5366   */\n      pop\n        /* \"#utility.yul\":5433:5435   */\n      0x40\n        /* \"#utility.yul\":5422:5431   */\n      dup5\n        /* \"#utility.yul\":5418:5436   */\n      add\n        /* \"#utility.yul\":5405:5437   */\n      calldataload\n        /* \"#utility.yul\":5464:5482   */\n      0xffffffffffffffff\n        /* \"#utility.yul\":5456:5462   */\n      dup2\n        /* \"#utility.yul\":5453:5483   */\n      gt\n        /* \"#utility.yul\":5450:5567   */\n      iszero\n      tag_323\n      jumpi\n        /* \"#utility.yul\":5486:5565   */\n      tag_324\n      tag_205\n      jump\t// in\n    tag_324:\n        /* \"#utility.yul\":5450:5567   */\n    tag_323:\n        /* \"#utility.yul\":5591:5654   */\n      tag_325\n        /* \"#utility.yul\":5646:5653   */\n      dup7\n        /* \"#utility.yul\":5637:5643   */\n      dup3\n        /* \"#utility.yul\":5626:5635   */\n      dup8\n        /* \"#utility.yul\":5622:5644   */\n      add\n        /* \"#utility.yul\":5591:5654   */\n      tag_218\n      jump\t// in\n    tag_325:\n        /* \"#utility.yul\":5581:5654   */\n      swap2\n      pop\n        /* \"#utility.yul\":5376:5664   */\n      pop\n        /* \"#utility.yul\":4872:5671   */\n      swap3\n      pop\n      swap3\n      pop\n      swap3\n      jump\t// out\n        /* \"#utility.yul\":5677:6006   */\n    tag_42:\n        /* \"#utility.yul\":5736:5742   */\n      0x00\n        /* \"#utility.yul\":5785:5787   */\n      0x20\n        /* \"#utility.yul\":5773:5782   */\n      dup3\n        /* \"#utility.yul\":5764:5771   */\n      dup5\n        /* \"#utility.yul\":5760:5783   */\n      sub\n        /* \"#utility.yul\":5756:5788   */\n      slt\n        /* \"#utility.yul\":5753:5872   */\n      iszero\n      tag_327\n      jumpi\n        /* \"#utility.yul\":5791:5870   */\n      tag_328\n      tag_204\n      jump\t// in\n    tag_328:\n        /* \"#utility.yul\":5753:5872   */\n    tag_327:\n        /* \"#utility.yul\":5911:5912   */\n      0x00\n        /* \"#utility.yul\":5936:5989   */\n      tag_329\n        /* \"#utility.yul\":5981:5988   */\n      dup5\n        /* \"#utility.yul\":5972:5978   */\n      dup3\n        /* \"#utility.yul\":5961:5970   */\n      dup6\n        /* \"#utility.yul\":5957:5979   */\n      add\n        /* \"#utility.yul\":5936:5989   */\n      tag_208\n      jump\t// in\n    tag_329:\n        /* \"#utility.yul\":5926:5989   */\n      swap2\n      pop\n        /* \"#utility.yul\":5882:5999   */\n      pop\n        /* \"#utility.yul\":5677:6006   */\n      swap3\n      swap2\n      pop\n      pop\n      jump\t// out\n        /* \"#utility.yul\":6012:6138   */\n    tag_220:\n        /* \"#utility.yul\":6049:6056   */\n      0x00\n        /* \"#utility.yul\":6089:6131   */\n      0xffffffffffffffffffffffffffffffffffffffff\n        /* \"#utility.yul\":6082:6087   */\n      dup3\n        /* \"#utility.yul\":6078:6132   */\n      and\n        /* \"#utility.yul\":6067:6132   */\n      swap1\n      pop\n        /* \"#utility.yul\":6012:6138   */\n      swap2\n      swap1\n      pop\n      jump\t// out\n        /* \"#utility.yul\":6144:6240   */\n    tag_221:\n        /* \"#utility.yul\":6181:6188   */\n      0x00\n        /* \"#utility.yul\":6210:6234   */\n      tag_332\n        /* \"#utility.yul\":6228:6233   */\n      dup3\n        /* \"#utility.yul\":6210:6234   */\n      tag_220\n      jump\t// in\n    tag_332:\n        /* \"#utility.yul\":6199:6234   */\n      swap1\n      pop\n        /* \"#utility.yul\":6144:6240   */\n      swap2\n      swap1\n      pop\n      jump\t// out\n        /* \"#utility.yul\":6246:6364   */\n    tag_222:\n        /* \"#utility.yul\":6333:6357   */\n      tag_334\n        /* \"#utility.yul\":6351:6356   */\n      dup2\n        /* \"#utility.yul\":6333:6357   */\n      tag_221\n      jump\t// in\n    tag_334:\n        /* \"#utility.yul\":6328:6331   */\n      dup3\n        /* \"#utility.yul\":6321:6358   */\n      mstore\n        /* \"#utility.yul\":6246:6364   */\n      pop\n      pop\n      jump\t// out\n        /* \"#utility.yul\":6370:6469   */\n    tag_223:\n        /* \"#utility.yul\":6422:6428   */\n      0x00\n        /* \"#utility.yul\":6456:6461   */\n      dup2\n        /* \"#utility.yul\":6450:6462   */\n      mload\n        /* \"#utility.yul\":6440:6462   */\n      swap1\n      pop\n        /* \"#utility.yul\":6370:6469   */\n      swap2\n      swap1\n      pop\n      jump\t// out\n        /* \"#utility.yul\":6475:6644   */\n    tag_224:\n        /* \"#utility.yul\":6559:6570   */\n      0x00\n        /* \"#utility.yul\":6593:6599   */\n      dup3\n        /* \"#utility.yul\":6588:6591   */\n      dup3\n        /* \"#utility.yul\":6581:6600   */\n      mstore\n        /* \"#utility.yul\":6633:6637   */\n      0x20\n        /* \"#utility.yul\":6628:6631   */\n      dup3\n        /* \"#utility.yul\":6624:6638   */\n      add\n        /* \"#utility.yul\":6609:6638   */\n      swap1\n      pop\n        /* \"#utility.yul\":6475:6644   */\n      swap3\n      swap2\n      pop\n      pop\n      jump\t// out\n        /* \"#utility.yul\":6650:6896   */\n    tag_225:\n        /* \"#utility.yul\":6731:6732   */\n      0x00\n        /* \"#utility.yul\":6741:6854   */\n    tag_338:\n        /* \"#utility.yul\":6755:6761   */\n      dup4\n        /* \"#utility.yul\":6752:6753   */\n      dup2\n        /* \"#utility.yul\":6749:6762   */\n      lt\n        /* \"#utility.yul\":6741:6854   */\n      iszero\n      tag_340\n      jumpi\n        /* \"#utility.yul\":6840:6841   */\n      dup1\n        /* \"#utility.yul\":6835:6838   */\n      dup3\n        /* \"#utility.yul\":6831:6842   */\n      add\n        /* \"#utility.yul\":6825:6843   */\n      mload\n        /* \"#utility.yul\":6821:6822   */\n      dup2\n        /* \"#utility.yul\":6816:6819   */\n      dup5\n        /* \"#utility.yul\":6812:6823   */\n      add\n        /* \"#utility.yul\":6805:6844   */\n      mstore\n        /* \"#utility.yul\":6777:6779   */\n      0x20\n        /* \"#utility.yul\":6774:6775   */\n      dup2\n        /* \"#utility.yul\":6770:6780   */\n      add\n        /* \"#utility.yul\":6765:6780   */\n      swap1\n      pop\n        /* \"#utility.yul\":6741:6854   */\n      jump(tag_338)\n    tag_340:\n        /* \"#utility.yul\":6888:6889   */\n      0x00\n        /* \"#utility.yul\":6879:6885   */\n      dup5\n        /* \"#utility.yul\":6874:6877   */\n      dup5\n        /* \"#utility.yul\":6870:6886   */\n      add\n        /* \"#utility.yul\":6863:6890   */\n      mstore\n        /* \"#utility.yul\":6712:6896   */\n      pop\n        /* \"#utility.yul\":6650:6896   */\n      pop\n      pop\n      pop\n      jump\t// out\n        /* \"#utility.yul\":6902:7279   */\n    tag_226:\n        /* \"#utility.yul\":6990:6993   */\n      0x00\n        /* \"#utility.yul\":7018:7057   */\n      tag_342\n        /* \"#utility.yul\":7051:7056   */\n      dup3\n        /* \"#utility.yul\":7018:7057   */\n      tag_223\n      jump\t// in\n    tag_342:\n        /* \"#utility.yul\":7073:7144   */\n      tag_343\n        /* \"#utility.yul\":7137:7143   */\n      dup2\n        /* \"#utility.yul\":7132:7135   */\n      dup6\n        /* \"#utility.yul\":7073:7144   */\n      tag_224\n      jump\t// in\n    tag_343:\n        /* \"#utility.yul\":7066:7144   */\n      swap4\n      pop\n        /* \"#utility.yul\":7153:7218   */\n      tag_344\n        /* \"#utility.yul\":7211:7217   */\n      dup2\n        /* \"#utility.yul\":7206:7209   */\n      dup6\n        /* \"#utility.yul\":7199:7203   */\n      0x20\n        /* \"#utility.yul\":7192:7197   */\n      dup7\n        /* \"#utility.yul\":7188:7204   */\n      add\n        /* \"#utility.yul\":7153:7218   */\n      tag_225\n      jump\t// in\n    tag_344:\n        /* \"#utility.yul\":7243:7272   */\n      tag_345\n        /* \"#utility.yul\":7265:7271   */\n      dup2\n        /* \"#utility.yul\":7243:7272   */\n      tag_211\n      jump\t// in\n    tag_345:\n        /* \"#utility.yul\":7238:7241   */\n      dup5\n        /* \"#utility.yul\":7234:7273   */\n      add\n        /* \"#utility.yul\":7227:7273   */\n      swap2\n      pop\n        /* \"#utility.yul\":6994:7279   */\n      pop\n        /* \"#utility.yul\":6902:7279   */\n      swap3\n      swap2\n      pop\n      pop\n      jump\t// out\n        /* \"#utility.yul\":7285:7399   */\n    tag_227:\n        /* \"#utility.yul\":7352:7358   */\n      0x00\n        /* \"#utility.yul\":7386:7391   */\n      dup2\n        /* \"#utility.yul\":7380:7392   */\n      mload\n        /* \"#utility.yul\":7370:7392   */\n      swap1\n      pop\n        /* \"#utility.yul\":7285:7399   */\n      swap2\n      swap1\n      pop\n      jump\t// out\n        /* \"#utility.yul\":7405:7589   */\n    tag_228:\n        /* \"#utility.yul\":7504:7515   */\n      0x00\n        /* \"#utility.yul\":7538:7544   */\n      dup3\n        /* \"#utility.yul\":7533:7536   */\n      dup3\n        /* \"#utility.yul\":7526:7545   */\n      mstore\n        /* \"#utility.yul\":7578:7582   */\n      0x20\n        /* \"#utility.yul\":7573:7576   */\n      dup3\n        /* \"#utility.yul\":7569:7583   */\n      add\n        /* \"#utility.yul\":7554:7583   */\n      swap1\n      pop\n        /* \"#utility.yul\":7405:7589   */\n      swap3\n      swap2\n      pop\n      pop\n      jump\t// out\n        /* \"#utility.yul\":7595:7727   */\n    tag_229:\n        /* \"#utility.yul\":7662:7666   */\n      0x00\n        /* \"#utility.yul\":7685:7688   */\n      dup2\n        /* \"#utility.yul\":7677:7688   */\n      swap1\n      pop\n        /* \"#utility.yul\":7715:7719   */\n      0x20\n        /* \"#utility.yul\":7710:7713   */\n      dup3\n        /* \"#utility.yul\":7706:7720   */\n      add\n        /* \"#utility.yul\":7698:7720   */\n      swap1\n      pop\n        /* \"#utility.yul\":7595:7727   */\n      swap2\n      swap1\n      pop\n      jump\t// out\n        /* \"#utility.yul\":7733:7841   */\n    tag_230:\n        /* \"#utility.yul\":7810:7834   */\n      tag_350\n        /* \"#utility.yul\":7828:7833   */\n      dup2\n        /* \"#utility.yul\":7810:7834   */\n      tag_206\n      jump\t// in\n    tag_350:\n        /* \"#utility.yul\":7805:7808   */\n      dup3\n        /* \"#utility.yul\":7798:7835   */\n      mstore\n        /* \"#utility.yul\":7733:7841   */\n      pop\n      pop\n      jump\t// out\n        /* \"#utility.yul\":7847:8026   */\n    tag_231:\n        /* \"#utility.yul\":7916:7926   */\n      0x00\n        /* \"#utility.yul\":7937:7983   */\n      tag_352\n        /* \"#utility.yul\":7979:7982   */\n      dup4\n        /* \"#utility.yul\":7971:7977   */\n      dup4\n        /* \"#utility.yul\":7937:7983   */\n      tag_230\n      jump\t// in\n    tag_352:\n        /* \"#utility.yul\":8015:8019   */\n      0x20\n        /* \"#utility.yul\":8010:8013   */\n      dup4\n        /* \"#utility.yul\":8006:8020   */\n      add\n        /* \"#utility.yul\":7992:8020   */\n      swap1\n      pop\n        /* \"#utility.yul\":7847:8026   */\n      swap3\n      swap2\n      pop\n      pop\n      jump\t// out\n        /* \"#utility.yul\":8032:8145   */\n    tag_232:\n        /* \"#utility.yul\":8102:8106   */\n      0x00\n        /* \"#utility.yul\":8134:8138   */\n      0x20\n        /* \"#utility.yul\":8129:8132   */\n      dup3\n        /* \"#utility.yul\":8125:8139   */\n      add\n        /* \"#utility.yul\":8117:8139   */\n      swap1\n      pop\n        /* \"#utility.yul\":8032:8145   */\n      swap2\n      swap1\n      pop\n      jump\t// out\n        /* \"#utility.yul\":8181:8913   */\n    tag_233:\n        /* \"#utility.yul\":8300:8303   */\n      0x00\n        /* \"#utility.yul\":8329:8383   */\n      tag_355\n        /* \"#utility.yul\":8377:8382   */\n      dup3\n        /* \"#utility.yul\":8329:8383   */\n      tag_227\n      jump\t// in\n    tag_355:\n        /* \"#utility.yul\":8399:8485   */\n      tag_356\n        /* \"#utility.yul\":8478:8484   */\n      dup2\n        /* \"#utility.yul\":8473:8476   */\n      dup6\n        /* \"#utility.yul\":8399:8485   */\n      tag_228\n      jump\t// in\n    tag_356:\n        /* \"#utility.yul\":8392:8485   */\n      swap4\n      pop\n        /* \"#utility.yul\":8509:8565   */\n      tag_357\n        /* \"#utility.yul\":8559:8564   */\n      dup4\n        /* \"#utility.yul\":8509:8565   */\n      tag_229\n      jump\t// in\n    tag_357:\n        /* \"#utility.yul\":8588:8595   */\n      dup1\n        /* \"#utility.yul\":8619:8620   */\n      0x00\n        /* \"#utility.yul\":8604:8888   */\n    tag_358:\n        /* \"#utility.yul\":8629:8635   */\n      dup4\n        /* \"#utility.yul\":8626:8627   */\n      dup2\n        /* \"#utility.yul\":8623:8636   */\n      lt\n        /* \"#utility.yul\":8604:8888   */\n      iszero\n      tag_360\n      jumpi\n        /* \"#utility.yul\":8705:8711   */\n      dup2\n        /* \"#utility.yul\":8699:8712   */\n      mload\n        /* \"#utility.yul\":8732:8795   */\n      tag_361\n        /* \"#utility.yul\":8791:8794   */\n      dup9\n        /* \"#utility.yul\":8776:8789   */\n      dup3\n        /* \"#utility.yul\":8732:8795   */\n      tag_231\n      jump\t// in\n    tag_361:\n        /* \"#utility.yul\":8725:8795   */\n      swap8\n      pop\n        /* \"#utility.yul\":8818:8878   */\n      tag_362\n        /* \"#utility.yul\":8871:8877   */\n      dup4\n        /* \"#utility.yul\":8818:8878   */\n      tag_232\n      jump\t// in\n    tag_362:\n        /* \"#utility.yul\":8808:8878   */\n      swap3\n      pop\n        /* \"#utility.yul\":8664:8888   */\n      pop\n        /* \"#utility.yul\":8651:8652   */\n      0x01\n        /* \"#utility.yul\":8648:8649   */\n      dup2\n        /* \"#utility.yul\":8644:8653   */\n      add\n        /* \"#utility.yul\":8639:8653   */\n      swap1\n      pop\n        /* \"#utility.yul\":8604:8888   */\n      jump(tag_358)\n    tag_360:\n        /* \"#utility.yul\":8608:8622   */\n      pop\n        /* \"#utility.yul\":8904:8907   */\n      dup6\n        /* \"#utility.yul\":8897:8907   */\n      swap4\n      pop\n        /* \"#utility.yul\":8305:8913   */\n      pop\n      pop\n      pop\n        /* \"#utility.yul\":8181:8913   */\n      swap3\n      swap2\n      pop\n      pop\n      jump\t// out\n        /* \"#utility.yul\":8919:9099   */\n    tag_59:\n        /* \"#utility.yul\":8967:9044   */\n      0x4e487b7100000000000000000000000000000000000000000000000000000000\n        /* \"#utility.yul\":8964:8965   */\n      0x00\n        /* \"#utility.yul\":8957:9045   */\n      mstore\n        /* \"#utility.yul\":9064:9068   */\n      0x21\n        /* \"#utility.yul\":9061:9062   */\n      0x04\n        /* \"#utility.yul\":9054:9069   */\n      mstore\n        /* \"#utility.yul\":9088:9092   */\n      0x24\n        /* \"#utility.yul\":9085:9086   */\n      0x00\n        /* \"#utility.yul\":9078:9093   */\n      revert\n        /* \"#utility.yul\":9105:9225   */\n    tag_234:\n        /* \"#utility.yul\":9193:9194   */\n      0x05\n        /* \"#utility.yul\":9186:9191   */\n      dup2\n        /* \"#utility.yul\":9183:9195   */\n      lt\n        /* \"#utility.yul\":9173:9219   */\n      tag_365\n      jumpi\n        /* \"#utility.yul\":9199:9217   */\n      tag_366\n      tag_59\n      jump\t// in\n    tag_366:\n        /* \"#utility.yul\":9173:9219   */\n    tag_365:\n        /* \"#utility.yul\":9105:9225   */\n      pop\n      jump\t// out\n        /* \"#utility.yul\":9231:9372   */\n    tag_235:\n        /* \"#utility.yul\":9283:9290   */\n      0x00\n        /* \"#utility.yul\":9312:9317   */\n      dup2\n        /* \"#utility.yul\":9301:9317   */\n      swap1\n      pop\n        /* \"#utility.yul\":9318:9366   */\n      tag_368\n        /* \"#utility.yul\":9360:9365   */\n      dup3\n        /* \"#utility.yul\":9318:9366   */\n      tag_234\n      jump\t// in\n    tag_368:\n        /* \"#utility.yul\":9231:9372   */\n      swap2\n      swap1\n      pop\n      jump\t// out\n        /* \"#utility.yul\":9378:9519   */\n    tag_236:\n        /* \"#utility.yul\":9441:9450   */\n      0x00\n        /* \"#utility.yul\":9474:9513   */\n      tag_370\n        /* \"#utility.yul\":9507:9512   */\n      dup3\n        /* \"#utility.yul\":9474:9513   */\n      tag_235\n      jump\t// in\n    tag_370:\n        /* \"#utility.yul\":9461:9513   */\n      swap1\n      pop\n        /* \"#utility.yul\":9378:9519   */\n      swap2\n      swap1\n      pop\n      jump\t// out\n        /* \"#utility.yul\":9525:9682   */\n    tag_237:\n        /* \"#utility.yul\":9625:9675   */\n      tag_372\n        /* \"#utility.yul\":9669:9674   */\n      dup2\n        /* \"#utility.yul\":9625:9675   */\n      tag_236\n      jump\t// in\n    tag_372:\n        /* \"#utility.yul\":9620:9623   */\n      dup3\n        /* \"#utility.yul\":9613:9676   */\n      mstore\n        /* \"#utility.yul\":9525:9682   */\n      pop\n      pop\n      jump\t// out\n        /* \"#utility.yul\":9688:10933   */\n    tag_45:\n        /* \"#utility.yul\":10052:10056   */\n      0x00\n        /* \"#utility.yul\":10090:10093   */\n      0xe0\n        /* \"#utility.yul\":10079:10088   */\n      dup3\n        /* \"#utility.yul\":10075:10094   */\n      add\n        /* \"#utility.yul\":10067:10094   */\n      swap1\n      pop\n        /* \"#utility.yul\":10104:10175   */\n      tag_374\n        /* \"#utility.yul\":10172:10173   */\n      0x00\n        /* \"#utility.yul\":10161:10170   */\n      dup4\n        /* \"#utility.yul\":10157:10174   */\n      add\n        /* \"#utility.yul\":10148:10154   */\n      dup11\n        /* \"#utility.yul\":10104:10175   */\n      tag_222\n      jump\t// in\n    tag_374:\n        /* \"#utility.yul\":10222:10231   */\n      dup2\n        /* \"#utility.yul\":10216:10220   */\n      dup2\n        /* \"#utility.yul\":10212:10232   */\n      sub\n        /* \"#utility.yul\":10207:10209   */\n      0x20\n        /* \"#utility.yul\":10196:10205   */\n      dup4\n        /* \"#utility.yul\":10192:10210   */\n      add\n        /* \"#utility.yul\":10185:10233   */\n      mstore\n        /* \"#utility.yul\":10250:10328   */\n      tag_375\n        /* \"#utility.yul\":10323:10327   */\n      dup2\n        /* \"#utility.yul\":10314:10320   */\n      dup10\n        /* \"#utility.yul\":10250:10328   */\n      tag_226\n      jump\t// in\n    tag_375:\n        /* \"#utility.yul\":10242:10328   */\n      swap1\n      pop\n        /* \"#utility.yul\":10375:10384   */\n      dup2\n        /* \"#utility.yul\":10369:10373   */\n      dup2\n        /* \"#utility.yul\":10365:10385   */\n      sub\n        /* \"#utility.yul\":10360:10362   */\n      0x40\n        /* \"#utility.yul\":10349:10358   */\n      dup4\n        /* \"#utility.yul\":10345:10363   */\n      add\n        /* \"#utility.yul\":10338:10386   */\n      mstore\n        /* \"#utility.yul\":10403:10481   */\n      tag_376\n        /* \"#utility.yul\":10476:10480   */\n      dup2\n        /* \"#utility.yul\":10467:10473   */\n      dup9\n        /* \"#utility.yul\":10403:10481   */\n      tag_226\n      jump\t// in\n    tag_376:\n        /* \"#utility.yul\":10395:10481   */\n      swap1\n      pop\n        /* \"#utility.yul\":10491:10563   */\n      tag_377\n        /* \"#utility.yul\":10559:10561   */\n      0x60\n        /* \"#utility.yul\":10548:10557   */\n      dup4\n        /* \"#utility.yul\":10544:10562   */\n      add\n        /* \"#utility.yul\":10535:10541   */\n      dup8\n        /* \"#utility.yul\":10491:10563   */\n      tag_219\n      jump\t// in\n    tag_377:\n        /* \"#utility.yul\":10573:10646   */\n      tag_378\n        /* \"#utility.yul\":10641:10644   */\n      0x80\n        /* \"#utility.yul\":10630:10639   */\n      dup4\n        /* \"#utility.yul\":10626:10645   */\n      add\n        /* \"#utility.yul\":10617:10623   */\n      dup7\n        /* \"#utility.yul\":10573:10646   */\n      tag_219\n      jump\t// in\n    tag_378:\n        /* \"#utility.yul\":10694:10703   */\n      dup2\n        /* \"#utility.yul\":10688:10692   */\n      dup2\n        /* \"#utility.yul\":10684:10704   */\n      sub\n        /* \"#utility.yul\":10678:10681   */\n      0xa0\n        /* \"#utility.yul\":10667:10676   */\n      dup4\n        /* \"#utility.yul\":10663:10682   */\n      add\n        /* \"#utility.yul\":10656:10705   */\n      mstore\n        /* \"#utility.yul\":10722:10830   */\n      tag_379\n        /* \"#utility.yul\":10825:10829   */\n      dup2\n        /* \"#utility.yul\":10816:10822   */\n      dup6\n        /* \"#utility.yul\":10722:10830   */\n      tag_233\n      jump\t// in\n    tag_379:\n        /* \"#utility.yul\":10714:10830   */\n      swap1\n      pop\n        /* \"#utility.yul\":10840:10926   */\n      tag_380\n        /* \"#utility.yul\":10921:10924   */\n      0xc0\n        /* \"#utility.yul\":10910:10919   */\n      dup4\n        /* \"#utility.yul\":10906:10925   */\n      add\n        /* \"#utility.yul\":10897:10903   */\n      dup5\n        /* \"#utility.yul\":10840:10926   */\n      tag_237\n      jump\t// in\n    tag_380:\n        /* \"#utility.yul\":9688:10933   */\n      swap9\n      swap8\n      pop\n      pop\n      pop\n      pop\n      pop\n      pop\n      pop\n      pop\n      jump\t// out\n        /* \"#utility.yul\":10939:11498   */\n    tag_55:\n        /* \"#utility.yul\":11121:11125   */\n      0x00\n        /* \"#utility.yul\":11159:11161   */\n      0x60\n        /* \"#utility.yul\":11148:11157   */\n      dup3\n        /* \"#utility.yul\":11144:11162   */\n      add\n        /* \"#utility.yul\":11136:11162   */\n      swap1\n      pop\n        /* \"#utility.yul\":11208:11217   */\n      dup2\n        /* \"#utility.yul\":11202:11206   */\n      dup2\n        /* \"#utility.yul\":11198:11218   */\n      sub\n        /* \"#utility.yul\":11194:11195   */\n      0x00\n        /* \"#utility.yul\":11183:11192   */\n      dup4\n        /* \"#utility.yul\":11179:11196   */\n      add\n        /* \"#utility.yul\":11172:11219   */\n      mstore\n        /* \"#utility.yul\":11236:11314   */\n      tag_382\n        /* \"#utility.yul\":11309:11313   */\n      dup2\n        /* \"#utility.yul\":11300:11306   */\n      dup7\n        /* \"#utility.yul\":11236:11314   */\n      tag_226\n      jump\t// in\n    tag_382:\n        /* \"#utility.yul\":11228:11314   */\n      swap1\n      pop\n        /* \"#utility.yul\":11324:11409   */\n      tag_383\n        /* \"#utility.yul\":11405:11407   */\n      0x20\n        /* \"#utility.yul\":11394:11403   */\n      dup4\n        /* \"#utility.yul\":11390:11408   */\n      add\n        /* \"#utility.yul\":11381:11387   */\n      dup6\n        /* \"#utility.yul\":11324:11409   */\n      tag_237\n      jump\t// in\n    tag_383:\n        /* \"#utility.yul\":11419:11491   */\n      tag_384\n        /* \"#utility.yul\":11487:11489   */\n      0x40\n        /* \"#utility.yul\":11476:11485   */\n      dup4\n        /* \"#utility.yul\":11472:11490   */\n      add\n        /* \"#utility.yul\":11463:11469   */\n      dup5\n        /* \"#utility.yul\":11419:11491   */\n      tag_222\n      jump\t// in\n    tag_384:\n        /* \"#utility.yul\":10939:11498   */\n      swap5\n      swap4\n      pop\n      pop\n      pop\n      pop\n      jump\t// out\n        /* \"#utility.yul\":11504:11684   */\n    tag_238:\n        /* \"#utility.yul\":11644:11676   */\n      0x50726f6a6563742077726f6b206973206e6f7420636f6d706c657465642e0000\n        /* \"#utility.yul\":11640:11641   */\n      0x00\n        /* \"#utility.yul\":11632:11638   */\n      dup3\n        /* \"#utility.yul\":11628:11642   */\n      add\n        /* \"#utility.yul\":11621:11677   */\n      mstore\n        /* \"#utility.yul\":11504:11684   */\n      pop\n      jump\t// out\n        /* \"#utility.yul\":11690:12056   */\n    tag_239:\n        /* \"#utility.yul\":11832:11835   */\n      0x00\n        /* \"#utility.yul\":11853:11920   */\n      tag_387\n        /* \"#utility.yul\":11917:11919   */\n      0x1e\n        /* \"#utility.yul\":11912:11915   */\n      dup4\n        /* \"#utility.yul\":11853:11920   */\n      tag_224\n      jump\t// in\n    tag_387:\n        /* \"#utility.yul\":11846:11920   */\n      swap2\n      pop\n        /* \"#utility.yul\":11929:12022   */\n      tag_388\n        /* \"#utility.yul\":12018:12021   */\n      dup3\n        /* \"#utility.yul\":11929:12022   */\n      tag_238\n      jump\t// in\n    tag_388:\n        /* \"#utility.yul\":12047:12049   */\n      0x20\n        /* \"#utility.yul\":12042:12045   */\n      dup3\n        /* \"#utility.yul\":12038:12050   */\n      add\n        /* \"#utility.yul\":12031:12050   */\n      swap1\n      pop\n        /* \"#utility.yul\":11690:12056   */\n      swap2\n      swap1\n      pop\n      jump\t// out\n        /* \"#utility.yul\":12062:12481   */\n    tag_64:\n        /* \"#utility.yul\":12228:12232   */\n      0x00\n        /* \"#utility.yul\":12266:12268   */\n      0x20\n        /* \"#utility.yul\":12255:12264   */\n      dup3\n        /* \"#utility.yul\":12251:12269   */\n      add\n        /* \"#utility.yul\":12243:12269   */\n      swap1\n      pop\n        /* \"#utility.yul\":12315:12324   */\n      dup2\n        /* \"#utility.yul\":12309:12313   */\n      dup2\n        /* \"#utility.yul\":12305:12325   */\n      sub\n        /* \"#utility.yul\":12301:12302   */\n      0x00\n        /* \"#utility.yul\":12290:12299   */\n      dup4\n        /* \"#utility.yul\":12286:12303   */\n      add\n        /* \"#utility.yul\":12279:12326   */\n      mstore\n        /* \"#utility.yul\":12343:12474   */\n      tag_390\n        /* \"#utility.yul\":12469:12473   */\n      dup2\n        /* \"#utility.yul\":12343:12474   */\n      tag_239\n      jump\t// in\n    tag_390:\n        /* \"#utility.yul\":12335:12474   */\n      swap1\n      pop\n        /* \"#utility.yul\":12062:12481   */\n      swap2\n      swap1\n      pop\n      jump\t// out\n        /* \"#utility.yul\":12487:12667   */\n    tag_67:\n        /* \"#utility.yul\":12535:12612   */\n      0x4e487b7100000000000000000000000000000000000000000000000000000000\n        /* \"#utility.yul\":12532:12533   */\n      0x00\n        /* \"#utility.yul\":12525:12613   */\n      mstore\n        /* \"#utility.yul\":12632:12636   */\n      0x32\n        /* \"#utility.yul\":12629:12630   */\n      0x04\n        /* \"#utility.yul\":12622:12637   */\n      mstore\n        /* \"#utility.yul\":12656:12660   */\n      0x24\n        /* \"#utility.yul\":12653:12654   */\n      0x00\n        /* \"#utility.yul\":12646:12661   */\n      revert\n        /* \"#utility.yul\":12673:12853   */\n    tag_240:\n        /* \"#utility.yul\":12721:12798   */\n      0x4e487b7100000000000000000000000000000000000000000000000000000000\n        /* \"#utility.yul\":12718:12719   */\n      0x00\n        /* \"#utility.yul\":12711:12799   */\n      mstore\n        /* \"#utility.yul\":12818:12822   */\n      0x22\n        /* \"#utility.yul\":12815:12816   */\n      0x04\n        /* \"#utility.yul\":12808:12823   */\n      mstore\n        /* \"#utility.yul\":12842:12846   */\n      0x24\n        /* \"#utility.yul\":12839:12840   */\n      0x00\n        /* \"#utility.yul\":12832:12847   */\n      revert\n        /* \"#utility.yul\":12859:13179   */\n    tag_161:\n        /* \"#utility.yul\":12903:12909   */\n      0x00\n        /* \"#utility.yul\":12940:12941   */\n      0x02\n        /* \"#utility.yul\":12934:12938   */\n      dup3\n        /* \"#utility.yul\":12930:12942   */\n      div\n        /* \"#utility.yul\":12920:12942   */\n      swap1\n      pop\n        /* \"#utility.yul\":12987:12988   */\n      0x01\n        /* \"#utility.yul\":12981:12985   */\n      dup3\n        /* \"#utility.yul\":12977:12989   */\n      and\n        /* \"#utility.yul\":13008:13026   */\n      dup1\n        /* \"#utility.yul\":12998:13079   */\n      tag_394\n      jumpi\n        /* \"#utility.yul\":13064:13068   */\n      0x7f\n        /* \"#utility.yul\":13056:13062   */\n      dup3\n        /* \"#utility.yul\":13052:13069   */\n      and\n        /* \"#utility.yul\":13042:13069   */\n      swap2\n      pop\n        /* \"#utility.yul\":12998:13079   */\n    tag_394:\n        /* \"#utility.yul\":13126:13128   */\n      0x20\n        /* \"#utility.yul\":13118:13124   */\n      dup3\n        /* \"#utility.yul\":13115:13129   */\n      lt\n        /* \"#utility.yul\":13095:13113   */\n      dup2\n        /* \"#utility.yul\":13092:13130   */\n      sub\n        /* \"#utility.yul\":13089:13173   */\n      tag_395\n      jumpi\n        /* \"#utility.yul\":13145:13163   */\n      tag_396\n      tag_240\n      jump\t// in\n    tag_396:\n        /* \"#utility.yul\":13089:13173   */\n    tag_395:\n        /* \"#utility.yul\":12910:13179   */\n      pop\n        /* \"#utility.yul\":12859:13179   */\n      swap2\n      swap1\n      pop\n      jump\t// out\n        /* \"#utility.yul\":13185:13326   */\n    tag_241:\n        /* \"#utility.yul\":13234:13238   */\n      0x00\n        /* \"#utility.yul\":13257:13260   */\n      dup2\n        /* \"#utility.yul\":13249:13260   */\n      swap1\n      pop\n        /* \"#utility.yul\":13280:13283   */\n      dup2\n        /* \"#utility.yul\":13277:13278   */\n      0x00\n        /* \"#utility.yul\":13270:13284   */\n      mstore\n        /* \"#utility.yul\":13314:13318   */\n      0x20\n        /* \"#utility.yul\":13311:13312   */\n      0x00\n        /* \"#utility.yul\":13301:13319   */\n      keccak256\n        /* \"#utility.yul\":13293:13319   */\n      swap1\n      pop\n        /* \"#utility.yul\":13185:13326   */\n      swap2\n      swap1\n      pop\n      jump\t// out\n        /* \"#utility.yul\":13332:13425   */\n    tag_242:\n        /* \"#utility.yul\":13369:13375   */\n      0x00\n        /* \"#utility.yul\":13416:13418   */\n      0x20\n        /* \"#utility.yul\":13411:13413   */\n      0x1f\n        /* \"#utility.yul\":13404:13409   */\n      dup4\n        /* \"#utility.yul\":13400:13414   */\n      add\n        /* \"#utility.yul\":13396:13419   */\n      div\n        /* \"#utility.yul\":13386:13419   */\n      swap1\n      pop\n        /* \"#utility.yul\":13332:13425   */\n      swap2\n      swap1\n      pop\n      jump\t// out\n        /* \"#utility.yul\":13431:13538   */\n    tag_243:\n        /* \"#utility.yul\":13475:13483   */\n      0x00\n        /* \"#utility.yul\":13525:13530   */\n      dup3\n        /* \"#utility.yul\":13519:13523   */\n      dup3\n        /* \"#utility.yul\":13515:13531   */\n      shl\n        /* \"#utility.yul\":13494:13531   */\n      swap1\n      pop\n        /* \"#utility.yul\":13431:13538   */\n      swap3\n      swap2\n      pop\n      pop\n      jump\t// out\n        /* \"#utility.yul\":13544:13937   */\n    tag_244:\n        /* \"#utility.yul\":13613:13619   */\n      0x00\n        /* \"#utility.yul\":13663:13664   */\n      0x08\n        /* \"#utility.yul\":13651:13661   */\n      dup4\n        /* \"#utility.yul\":13647:13665   */\n      mul\n        /* \"#utility.yul\":13686:13783   */\n      tag_401\n        /* \"#utility.yul\":13716:13782   */\n      0xffffffffffffffffffffffffffffffffffffffffffffffffffffffffffffffff\n        /* \"#utility.yul\":13705:13714   */\n      dup3\n        /* \"#utility.yul\":13686:13783   */\n      tag_243\n      jump\t// in\n    tag_401:\n        /* \"#utility.yul\":13804:13843   */\n      tag_402\n        /* \"#utility.yul\":13834:13842   */\n      dup7\n        /* \"#utility.yul\":13823:13832   */\n      dup4\n        /* \"#utility.yul\":13804:13843   */\n      tag_243\n      jump\t// in\n    tag_402:\n        /* \"#utility.yul\":13792:13843   */\n      swap6\n      pop\n        /* \"#utility.yul\":13876:13880   */\n      dup1\n        /* \"#utility.yul\":13872:13881   */\n      not\n        /* \"#utility.yul\":13865:13870   */\n      dup5\n        /* \"#utility.yul\":13861:13882   */\n      and\n        /* \"#utility.yul\":13852:13882   */\n      swap4\n      pop\n        /* \"#utility.yul\":13925:13929   */\n      dup1\n        /* \"#utility.yul\":13915:13923   */\n      dup7\n        /* \"#utility.yul\":13911:13930   */\n      and\n        /* \"#utility.yul\":13904:13909   */\n      dup5\n        /* \"#utility.yul\":13901:13931   */\n      or\n        /* \"#utility.yul\":13891:13931   */\n      swap3\n      pop\n        /* \"#utility.yul\":13620:13937   */\n      pop\n      pop\n        /* \"#utility.yul\":13544:13937   */\n      swap4\n      swap3\n      pop\n      pop\n      pop\n      jump\t// out\n        /* \"#utility.yul\":13943:14003   */\n    tag_245:\n        /* \"#utility.yul\":13971:13974   */\n      0x00\n        /* \"#utility.yul\":13992:13997   */\n      dup2\n        /* \"#utility.yul\":13985:13997   */\n      swap1\n      pop\n        /* \"#utility.yul\":13943:14003   */\n      swap2\n      swap1\n      pop\n      jump\t// out\n        /* \"#utility.yul\":14009:14151   */\n    tag_246:\n        /* \"#utility.yul\":14059:14068   */\n      0x00\n        /* \"#utility.yul\":14092:14145   */\n      tag_405\n        /* \"#utility.yul\":14110:14144   */\n      tag_406\n        /* \"#utility.yul\":14119:14143   */\n      tag_407\n        /* \"#utility.yul\":14137:14142   */\n      dup5\n        /* \"#utility.yul\":14119:14143   */\n      tag_206\n      jump\t// in\n    tag_407:\n        /* \"#utility.yul\":14110:14144   */\n      tag_245\n      jump\t// in\n    tag_406:\n        /* \"#utility.yul\":14092:14145   */\n      tag_206\n      jump\t// in\n    tag_405:\n        /* \"#utility.yul\":14079:14145   */\n      swap1\n      pop\n        /* \"#utility.yul\":14009:14151   */\n      swap2\n      swap1\n      pop\n      jump\t// out\n        /* \"#utility.yul\":14157:14232   */\n    tag_247:\n        /* \"#utility.yul\":14200:14203   */\n      0x00\n        /* \"#utility.yul\":14221:14226   */\n      dup2\n        /* \"#utility.yul\":14214:14226   */\n      swap1\n      pop\n        /* \"#utility.yul\":14157:14232   */\n      swap2\n      swap1\n      pop\n      jump\t// out\n        /* \"#utility.yul\":14238:14507   */\n    tag_248:\n        /* \"#utility.yul\":14348:14387   */\n      tag_410\n        /* \"#utility.yul\":14379:14386   */\n      dup4\n        /* \"#utility.yul\":14348:14387   */\n      tag_246\n      jump\t// in\n    tag_410:\n        /* \"#utility.yul\":14409:14500   */\n      tag_411\n        /* \"#utility.yul\":14458:14499   */\n      tag_412\n        /* \"#utility.yul\":14482:14498   */\n      dup3\n        /* \"#utility.yul\":14458:14499   */\n      tag_247\n      jump\t// in\n    tag_412:\n        /* \"#utility.yul\":14450:14456   */\n      dup5\n        /* \"#utility.yul\":14443:14447   */\n      dup5\n        /* \"#utility.yul\":14437:14448   */\n      sload\n        /* \"#utility.yul\":14409:14500   */\n      tag_244\n      jump\t// in\n    tag_411:\n        /* \"#utility.yul\":14403:14407   */\n      dup3\n        /* \"#utility.yul\":14396:14501   */\n      sstore\n        /* \"#utility.yul\":14314:14507   */\n      pop\n        /* \"#utility.yul\":14238:14507   */\n      pop\n      pop\n      pop\n      jump\t// out\n        /* \"#utility.yul\":14513:14586   */\n    tag_249:\n        /* \"#utility.yul\":14558:14561   */\n      0x00\n        /* \"#utility.yul\":14513:14586   */\n      swap1\n      jump\t// out\n        /* \"#utility.yul\":14592:14781   */\n    tag_250:\n        /* \"#utility.yul\":14669:14701   */\n      tag_415\n      tag_249\n      jump\t// in\n    tag_415:\n        /* \"#utility.yul\":14710:14775   */\n      tag_416\n        /* \"#utility.yul\":14768:14774   */\n      dup2\n        /* \"#utility.yul\":14760:14766   */\n      dup5\n        /* \"#utility.yul\":14754:14758   */\n      dup5\n        /* \"#utility.yul\":14710:14775   */\n      tag_248\n      jump\t// in\n    tag_416:\n        /* \"#utility.yul\":14645:14781   */\n      pop\n        /* \"#utility.yul\":14592:14781   */\n      pop\n      pop\n      jump\t// out\n        /* \"#utility.yul\":14787:14973   */\n    tag_251:\n        /* \"#utility.yul\":14847:14967   */\n    tag_418:\n        /* \"#utility.yul\":14864:14867   */\n      dup2\n        /* \"#utility.yul\":14857:14862   */\n      dup2\n        /* \"#utility.yul\":14854:14868   */\n      lt\n        /* \"#utility.yul\":14847:14967   */\n      iszero\n      tag_420\n      jumpi\n        /* \"#utility.yul\":14918:14957   */\n      tag_421\n        /* \"#utility.yul\":14955:14956   */\n      0x00\n        /* \"#utility.yul\":14948:14953   */\n      dup3\n        /* \"#utility.yul\":14918:14957   */\n      tag_250\n      jump\t// in\n    tag_421:\n        /* \"#utility.yul\":14891:14892   */\n      0x01\n        /* \"#utility.yul\":14884:14889   */\n      dup2\n        /* \"#utility.yul\":14880:14893   */\n      add\n        /* \"#utility.yul\":14871:14893   */\n      swap1\n      pop\n        /* \"#utility.yul\":14847:14967   */\n      jump(tag_418)\n    tag_420:\n        /* \"#utility.yul\":14787:14973   */\n      pop\n      pop\n      jump\t// out\n        /* \"#utility.yul\":14979:15522   */\n    tag_252:\n        /* \"#utility.yul\":15080:15082   */\n      0x1f\n        /* \"#utility.yul\":15075:15078   */\n      dup3\n        /* \"#utility.yul\":15072:15083   */\n      gt\n        /* \"#utility.yul\":15069:15515   */\n      iszero\n      tag_423\n      jumpi\n        /* \"#utility.yul\":15114:15152   */\n      tag_424\n        /* \"#utility.yul\":15146:15151   */\n      dup2\n        /* \"#utility.yul\":15114:15152   */\n      tag_241\n      jump\t// in\n    tag_424:\n        /* \"#utility.yul\":15198:15227   */\n      tag_425\n        /* \"#utility.yul\":15216:15226   */\n      dup5\n        /* \"#utility.yul\":15198:15227   */\n      tag_242\n      jump\t// in\n    tag_425:\n        /* \"#utility.yul\":15188:15196   */\n      dup2\n        /* \"#utility.yul\":15184:15228   */\n      add\n        /* \"#utility.yul\":15381:15383   */\n      0x20\n        /* \"#utility.yul\":15369:15379   */\n      dup6\n        /* \"#utility.yul\":15366:15384   */\n      lt\n        /* \"#utility.yul\":15363:15412   */\n      iszero\n      tag_426\n      jumpi\n        /* \"#utility.yul\":15402:15410   */\n      dup2\n        /* \"#utility.yul\":15387:15410   */\n      swap1\n      pop\n        /* \"#utility.yul\":15363:15412   */\n    tag_426:\n        /* \"#utility.yul\":15425:15505   */\n      tag_427\n        /* \"#utility.yul\":15481:15503   */\n      tag_428\n        /* \"#utility.yul\":15499:15502   */\n      dup6\n        /* \"#utility.yul\":15481:15503   */\n      tag_242\n      jump\t// in\n    tag_428:\n        /* \"#utility.yul\":15471:15479   */\n      dup4\n        /* \"#utility.yul\":15467:15504   */\n      add\n        /* \"#utility.yul\":15454:15465   */\n      dup3\n        /* \"#utility.yul\":15425:15505   */\n      tag_251\n      jump\t// in\n    tag_427:\n        /* \"#utility.yul\":15084:15515   */\n      pop\n      pop\n        /* \"#utility.yul\":15069:15515   */\n    tag_423:\n        /* \"#utility.yul\":14979:15522   */\n      pop\n      pop\n      pop\n      jump\t// out\n        /* \"#utility.yul\":15528:15645   */\n    tag_253:\n        /* \"#utility.yul\":15582:15590   */\n      0x00\n        /* \"#utility.yul\":15632:15637   */\n      dup3\n        /* \"#utility.yul\":15626:15630   */\n      dup3\n        /* \"#utility.yul\":15622:15638   */\n      shr\n        /* \"#utility.yul\":15601:15638   */\n      swap1\n      pop\n        /* \"#utility.yul\":15528:15645   */\n      swap3\n      swap2\n      pop\n      pop\n      jump\t// out\n        /* \"#utility.yul\":15651:15820   */\n    tag_254:\n        /* \"#utility.yul\":15695:15701   */\n      0x00\n        /* \"#utility.yul\":15728:15779   */\n      tag_431\n        /* \"#utility.yul\":15776:15777   */\n      0x00\n        /* \"#utility.yul\":15772:15778   */\n      not\n        /* \"#utility.yul\":15764:15769   */\n      dup5\n        /* \"#utility.yul\":15761:15762   */\n      0x08\n        /* \"#utility.yul\":15757:15770   */\n      mul\n        /* \"#utility.yul\":15728:15779   */\n      tag_253\n      jump\t// in\n    tag_431:\n        /* \"#utility.yul\":15724:15780   */\n      not\n        /* \"#utility.yul\":15809:15813   */\n      dup1\n        /* \"#utility.yul\":15803:15807   */\n      dup4\n        /* \"#utility.yul\":15799:15814   */\n      and\n        /* \"#utility.yul\":15789:15814   */\n      swap2\n      pop\n        /* \"#utility.yul\":15702:15820   */\n      pop\n        /* \"#utility.yul\":15651:15820   */\n      swap3\n      swap2\n      pop\n      pop\n      jump\t// out\n        /* \"#utility.yul\":15825:16120   */\n    tag_255:\n        /* \"#utility.yul\":15901:15905   */\n      0x00\n        /* \"#utility.yul\":16047:16076   */\n      tag_433\n        /* \"#utility.yul\":16072:16075   */\n      dup4\n        /* \"#utility.yul\":16066:16070   */\n      dup4\n        /* \"#utility.yul\":16047:16076   */\n      tag_254\n      jump\t// in\n    tag_433:\n        /* \"#utility.yul\":16039:16076   */\n      swap2\n      pop\n        /* \"#utility.yul\":16109:16112   */\n      dup3\n        /* \"#utility.yul\":16106:16107   */\n      0x02\n        /* \"#utility.yul\":16102:16113   */\n      mul\n        /* \"#utility.yul\":16096:16100   */\n      dup3\n        /* \"#utility.yul\":16093:16114   */\n      or\n        /* \"#utility.yul\":16085:16114   */\n      swap1\n      pop\n        /* \"#utility.yul\":15825:16120   */\n      swap3\n      swap2\n      pop\n      pop\n      jump\t// out\n        /* \"#utility.yul\":16125:17520   */\n    tag_80:\n        /* \"#utility.yul\":16242:16279   */\n      tag_435\n        /* \"#utility.yul\":16275:16278   */\n      dup3\n        /* \"#utility.yul\":16242:16279   */\n      tag_223\n      jump\t// in\n    tag_435:\n        /* \"#utility.yul\":16344:16362   */\n      0xffffffffffffffff\n        /* \"#utility.yul\":16336:16342   */\n      dup2\n        /* \"#utility.yul\":16333:16363   */\n      gt\n        /* \"#utility.yul\":16330:16386   */\n      iszero\n      tag_436\n      jumpi\n        /* \"#utility.yul\":16366:16384   */\n      tag_437\n      tag_212\n      jump\t// in\n    tag_437:\n        /* \"#utility.yul\":16330:16386   */\n    tag_436:\n        /* \"#utility.yul\":16410:16448   */\n      tag_438\n        /* \"#utility.yul\":16442:16446   */\n      dup3\n        /* \"#utility.yul\":16436:16447   */\n      sload\n        /* \"#utility.yul\":16410:16448   */\n      tag_161\n      jump\t// in\n    tag_438:\n        /* \"#utility.yul\":16495:16562   */\n      tag_439\n        /* \"#utility.yul\":16555:16561   */\n      dup3\n        /* \"#utility.yul\":16547:16553   */\n      dup3\n        /* \"#utility.yul\":16541:16545   */\n      dup6\n        /* \"#utility.yul\":16495:16562   */\n      tag_252\n      jump\t// in\n    tag_439:\n        /* \"#utility.yul\":16589:16590   */\n      0x00\n        /* \"#utility.yul\":16613:16617   */\n      0x20\n        /* \"#utility.yul\":16600:16617   */\n      swap1\n      pop\n        /* \"#utility.yul\":16645:16647   */\n      0x1f\n        /* \"#utility.yul\":16637:16643   */\n      dup4\n        /* \"#utility.yul\":16634:16648   */\n      gt\n        /* \"#utility.yul\":16662:16663   */\n      0x01\n        /* \"#utility.yul\":16657:17275   */\n      dup2\n      eq\n      tag_441\n      jumpi\n        /* \"#utility.yul\":17319:17320   */\n      0x00\n        /* \"#utility.yul\":17336:17342   */\n      dup5\n        /* \"#utility.yul\":17333:17410   */\n      iszero\n      tag_442\n      jumpi\n        /* \"#utility.yul\":17385:17394   */\n      dup3\n        /* \"#utility.yul\":17380:17383   */\n      dup8\n        /* \"#utility.yul\":17376:17395   */\n      add\n        /* \"#utility.yul\":17370:17396   */\n      mload\n        /* \"#utility.yul\":17361:17396   */\n      swap1\n      pop\n        /* \"#utility.yul\":17333:17410   */\n    tag_442:\n        /* \"#utility.yul\":17436:17503   */\n      tag_443\n        /* \"#utility.yul\":17496:17502   */\n      dup6\n        /* \"#utility.yul\":17489:17494   */\n      dup3\n        /* \"#utility.yul\":17436:17503   */\n      tag_255\n      jump\t// in\n    tag_443:\n        /* \"#utility.yul\":17430:17434   */\n      dup7\n        /* \"#utility.yul\":17423:17504   */\n      sstore\n        /* \"#utility.yul\":17292:17514   */\n      pop\n        /* \"#utility.yul\":16627:17514   */\n      jump(tag_440)\n        /* \"#utility.yul\":16657:17275   */\n    tag_441:\n        /* \"#utility.yul\":16709:16713   */\n      0x1f\n        /* \"#utility.yul\":16705:16714   */\n      not\n        /* \"#utility.yul\":16697:16703   */\n      dup5\n        /* \"#utility.yul\":16693:16715   */\n      and\n        /* \"#utility.yul\":16743:16780   */\n      tag_444\n        /* \"#utility.yul\":16775:16779   */\n      dup7\n        /* \"#utility.yul\":16743:16780   */\n      tag_241\n      jump\t// in\n    tag_444:\n        /* \"#utility.yul\":16802:16803   */\n      0x00\n        /* \"#utility.yul\":16816:17024   */\n    tag_445:\n        /* \"#utility.yul\":16830:16837   */\n      dup3\n        /* \"#utility.yul\":16827:16828   */\n      dup2\n        /* \"#utility.yul\":16824:16838   */\n      lt\n        /* \"#utility.yul\":16816:17024   */\n      iszero\n      tag_447\n      jumpi\n        /* \"#utility.yul\":16909:16918   */\n      dup5\n        /* \"#utility.yul\":16904:16907   */\n      dup10\n        /* \"#utility.yul\":16900:16919   */\n      add\n        /* \"#utility.yul\":16894:16920   */\n      mload\n        /* \"#utility.yul\":16886:16892   */\n      dup3\n        /* \"#utility.yul\":16879:16921   */\n      sstore\n        /* \"#utility.yul\":16960:16961   */\n      0x01\n        /* \"#utility.yul\":16952:16958   */\n      dup3\n        /* \"#utility.yul\":16948:16962   */\n      add\n        /* \"#utility.yul\":16938:16962   */\n      swap2\n      pop\n        /* \"#utility.yul\":17007:17009   */\n      0x20\n        /* \"#utility.yul\":16996:17005   */\n      dup6\n        /* \"#utility.yul\":16992:17010   */\n      add\n        /* \"#utility.yul\":16979:17010   */\n      swap5\n      pop\n        /* \"#utility.yul\":16853:16857   */\n      0x20\n        /* \"#utility.yul\":16850:16851   */\n      dup2\n        /* \"#utility.yul\":16846:16858   */\n      add\n        /* \"#utility.yul\":16841:16858   */\n      swap1\n      pop\n        /* \"#utility.yul\":16816:17024   */\n      jump(tag_445)\n    tag_447:\n        /* \"#utility.yul\":17052:17058   */\n      dup7\n        /* \"#utility.yul\":17043:17050   */\n      dup4\n        /* \"#utility.yul\":17040:17059   */\n      lt\n        /* \"#utility.yul\":17037:17216   */\n      iszero\n      tag_448\n      jumpi\n        /* \"#utility.yul\":17110:17119   */\n      dup5\n        /* \"#utility.yul\":17105:17108   */\n      dup10\n        /* \"#utility.yul\":17101:17120   */\n      add\n        /* \"#utility.yul\":17095:17121   */\n      mload\n        /* \"#utility.yul\":17153:17201   */\n      tag_449\n        /* \"#utility.yul\":17195:17199   */\n      0x1f\n        /* \"#utility.yul\":17187:17193   */\n      dup10\n        /* \"#utility.yul\":17183:17200   */\n      and\n        /* \"#utility.yul\":17172:17181   */\n      dup3\n        /* \"#utility.yul\":17153:17201   */\n      tag_254\n      jump\t// in\n    tag_449:\n        /* \"#utility.yul\":17145:17151   */\n      dup4\n        /* \"#utility.yul\":17138:17202   */\n      sstore\n        /* \"#utility.yul\":17060:17216   */\n      pop\n        /* \"#utility.yul\":17037:17216   */\n    tag_448:\n        /* \"#utility.yul\":17262:17263   */\n      0x01\n        /* \"#utility.yul\":17258:17259   */\n      0x02\n        /* \"#utility.yul\":17250:17256   */\n      dup9\n        /* \"#utility.yul\":17246:17260   */\n      mul\n        /* \"#utility.yul\":17242:17264   */\n      add\n        /* \"#utility.yul\":17236:17240   */\n      dup9\n        /* \"#utility.yul\":17229:17265   */\n      sstore\n        /* \"#utility.yul\":16664:17275   */\n      pop\n      pop\n      pop\n        /* \"#utility.yul\":16627:17514   */\n    tag_440:\n      pop\n        /* \"#utility.yul\":16217:17520   */\n      pop\n      pop\n      pop\n        /* \"#utility.yul\":16125:17520   */\n      pop\n      pop\n      jump\t// out\n        /* \"#utility.yul\":17526:17697   */\n    tag_256:\n        /* \"#utility.yul\":17666:17689   */\n      0x596f7520617265206e6f742073656c65637465642e0000000000000000000000\n        /* \"#utility.yul\":17662:17663   */\n      0x00\n        /* \"#utility.yul\":17654:17660   */\n      dup3\n        /* \"#utility.yul\":17650:17664   */\n      add\n        /* \"#utility.yul\":17643:17690   */\n      mstore\n        /* \"#utility.yul\":17526:17697   */\n      pop\n      jump\t// out\n        /* \"#utility.yul\":17703:18069   */\n    tag_257:\n        /* \"#utility.yul\":17845:17848   */\n      0x00\n        /* \"#utility.yul\":17866:17933   */\n      tag_452\n        /* \"#utility.yul\":17930:17932   */\n      0x15\n        /* \"#utility.yul\":17925:17928   */\n      dup4\n        /* \"#utility.yul\":17866:17933   */\n      tag_224\n      jump\t// in\n    tag_452:\n        /* \"#utility.yul\":17859:17933   */\n      swap2\n      pop\n        /* \"#utility.yul\":17942:18035   */\n      tag_453\n        /* \"#utility.yul\":18031:18034   */\n      dup3\n        /* \"#utility.yul\":17942:18035   */\n      tag_256\n      jump\t// in\n    tag_453:\n        /* \"#utility.yul\":18060:18062   */\n      0x20\n        /* \"#utility.yul\":18055:18058   */\n      dup3\n        /* \"#utility.yul\":18051:18063   */\n      add\n        /* \"#utility.yul\":18044:18063   */\n      swap1\n      pop\n        /* \"#utility.yul\":17703:18069   */\n      swap2\n      swap1\n      pop\n      jump\t// out\n        /* \"#utility.yul\":18075:18494   */\n    tag_94:\n        /* \"#utility.yul\":18241:18245   */\n      0x00\n        /* \"#utility.yul\":18279:18281   */\n      0x20\n        /* \"#utility.yul\":18268:18277   */\n      dup3\n        /* \"#utility.yul\":18264:18282   */\n      add\n        /* \"#utility.yul\":18256:18282   */\n      swap1\n      pop\n        /* \"#utility.yul\":18328:18337   */\n      dup2\n        /* \"#utility.yul\":18322:18326   */\n      dup2\n        /* \"#utility.yul\":18318:18338   */\n      sub\n        /* \"#utility.yul\":18314:18315   */\n      0x00\n        /* \"#utility.yul\":18303:18312   */\n      dup4\n        /* \"#utility.yul\":18299:18316   */\n      add\n        /* \"#utility.yul\":18292:18339   */\n      mstore\n        /* \"#utility.yul\":18356:18487   */\n      tag_455\n        /* \"#utility.yul\":18482:18486   */\n      dup2\n        /* \"#utility.yul\":18356:18487   */\n      tag_257\n      jump\t// in\n    tag_455:\n        /* \"#utility.yul\":18348:18487   */\n      swap1\n      pop\n        /* \"#utility.yul\":18075:18494   */\n      swap2\n      swap1\n      pop\n      jump\t// out\n        /* \"#utility.yul\":18500:18747   */\n    tag_258:\n        /* \"#utility.yul\":18640:18674   */\n      0x50726f6a6563742077726f6b206973206e6f742070726f7061726c7920776f72\n        /* \"#utility.yul\":18636:18637   */\n      0x00\n        /* \"#utility.yul\":18628:18634   */\n      dup3\n        /* \"#utility.yul\":18624:18638   */\n      add\n        /* \"#utility.yul\":18617:18675   */\n      mstore\n        /* \"#utility.yul\":18709:18739   */\n      0x6b696e6720706c6561736520636865636b20796f757220776f726b2e00000000\n        /* \"#utility.yul\":18704:18706   */\n      0x20\n        /* \"#utility.yul\":18696:18702   */\n      dup3\n        /* \"#utility.yul\":18692:18707   */\n      add\n        /* \"#utility.yul\":18685:18740   */\n      mstore\n        /* \"#utility.yul\":18500:18747   */\n      pop\n      jump\t// out\n        /* \"#utility.yul\":18753:19119   */\n    tag_259:\n        /* \"#utility.yul\":18895:18898   */\n      0x00\n        /* \"#utility.yul\":18916:18983   */\n      tag_458\n        /* \"#utility.yul\":18980:18982   */\n      0x3c\n        /* \"#utility.yul\":18975:18978   */\n      dup4\n        /* \"#utility.yul\":18916:18983   */\n      tag_224\n      jump\t// in\n    tag_458:\n        /* \"#utility.yul\":18909:18983   */\n      swap2\n      pop\n        /* \"#utility.yul\":18992:19085   */\n      tag_459\n        /* \"#utility.yul\":19081:19084   */\n      dup3\n        /* \"#utility.yul\":18992:19085   */\n      tag_258\n      jump\t// in\n    tag_459:\n        /* \"#utility.yul\":19110:19112   */\n      0x40\n        /* \"#utility.yul\":19105:19108   */\n      dup3\n        /* \"#utility.yul\":19101:19113   */\n      add\n        /* \"#utility.yul\":19094:19113   */\n      swap1\n      pop\n        /* \"#utility.yul\":18753:19119   */\n      swap2\n      swap1\n      pop\n      jump\t// out\n        /* \"#utility.yul\":19125:19544   */\n    tag_109:\n        /* \"#utility.yul\":19291:19295   */\n      0x00\n        /* \"#utility.yul\":19329:19331   */\n      0x20\n        /* \"#utility.yul\":19318:19327   */\n      dup3\n        /* \"#utility.yul\":19314:19332   */\n      add\n        /* \"#utility.yul\":19306:19332   */\n      swap1\n      pop\n        /* \"#utility.yul\":19378:19387   */\n      dup2\n        /* \"#utility.yul\":19372:19376   */\n      dup2\n        /* \"#utility.yul\":19368:19388   */\n      sub\n        /* \"#utility.yul\":19364:19365   */\n      0x00\n        /* \"#utility.yul\":19353:19362   */\n      dup4\n        /* \"#utility.yul\":19349:19366   */\n      add\n        /* \"#utility.yul\":19342:19389   */\n      mstore\n        /* \"#utility.yul\":19406:19537   */\n      tag_461\n        /* \"#utility.yul\":19532:19536   */\n      dup2\n        /* \"#utility.yul\":19406:19537   */\n      tag_259\n      jump\t// in\n    tag_461:\n        /* \"#utility.yul\":19398:19537   */\n      swap1\n      pop\n        /* \"#utility.yul\":19125:19544   */\n      swap2\n      swap1\n      pop\n      jump\t// out\n        /* \"#utility.yul\":19550:19771   */\n    tag_260:\n        /* \"#utility.yul\":19690:19724   */\n      0x50726f6a65637420616c6c6f63617465206f7468657220667265656c616e6365\n        /* \"#utility.yul\":19686:19687   */\n      0x00\n        /* \"#utility.yul\":19678:19684   */\n      dup3\n        /* \"#utility.yul\":19674:19688   */\n      add\n        /* \"#utility.yul\":19667:19725   */\n      mstore\n        /* \"#utility.yul\":19759:19763   */\n      0x722e000000000000000000000000000000000000000000000000000000000000\n        /* \"#utility.yul\":19754:19756   */\n      0x20\n        /* \"#utility.yul\":19746:19752   */\n      dup3\n        /* \"#utility.yul\":19742:19757   */\n      add\n        /* \"#utility.yul\":19735:19764   */\n      mstore\n        /* \"#utility.yul\":19550:19771   */\n      pop\n      jump\t// out\n        /* \"#utility.yul\":19777:20143   */\n    tag_261:\n        /* \"#utility.yul\":19919:19922   */\n      0x00\n        /* \"#utility.yul\":19940:20007   */\n      tag_464\n        /* \"#utility.yul\":20004:20006   */\n      0x22\n        /* \"#utility.yul\":19999:20002   */\n      dup4\n        /* \"#utility.yul\":19940:20007   */\n      tag_224\n      jump\t// in\n    tag_464:\n        /* \"#utility.yul\":19933:20007   */\n      swap2\n      pop\n        /* \"#utility.yul\":20016:20109   */\n      tag_465\n        /* \"#utility.yul\":20105:20108   */\n      dup3\n        /* \"#utility.yul\":20016:20109   */\n      tag_260\n      jump\t// in\n    tag_465:\n        /* \"#utility.yul\":20134:20136   */\n      0x40\n        /* \"#utility.yul\":20129:20132   */\n      dup3\n        /* \"#utility.yul\":20125:20137   */\n      add\n        /* \"#utility.yul\":20118:20137   */\n      swap1\n      pop\n        /* \"#utility.yul\":19777:20143   */\n      swap2\n      swap1\n      pop\n      jump\t// out\n        /* \"#utility.yul\":20149:20568   */\n    tag_132:\n        /* \"#utility.yul\":20315:20319   */\n      0x00\n        /* \"#utility.yul\":20353:20355   */\n      0x20\n        /* \"#utility.yul\":20342:20351   */\n      dup3\n        /* \"#utility.yul\":20338:20356   */\n      add\n        /* \"#utility.yul\":20330:20356   */\n      swap1\n      pop\n        /* \"#utility.yul\":20402:20411   */\n      dup2\n        /* \"#utility.yul\":20396:20400   */\n      dup2\n        /* \"#utility.yul\":20392:20412   */\n      sub\n        /* \"#utility.yul\":20388:20389   */\n      0x00\n        /* \"#utility.yul\":20377:20386   */\n      dup4\n        /* \"#utility.yul\":20373:20390   */\n      add\n        /* \"#utility.yul\":20366:20413   */\n      mstore\n        /* \"#utility.yul\":20430:20561   */\n      tag_467\n        /* \"#utility.yul\":20556:20560   */\n      dup2\n        /* \"#utility.yul\":20430:20561   */\n      tag_261\n      jump\t// in\n    tag_467:\n        /* \"#utility.yul\":20422:20561   */\n      swap1\n      pop\n        /* \"#utility.yul\":20149:20568   */\n      swap2\n      swap1\n      pop\n      jump\t// out\n\n    auxdata: 0xa2646970667358221220a2bac3e2fa46e3bac0655ed3c33f9bf2228984269a973c172ebf31854374340964736f6c63430008120033\n}\n",
				"bytecode": {
					"linkReferences": {},
					"object": "608060405234801561001057600080fd5b506119d1806100206000396000f3fe6080604052600436106100865760003560e01c80637c3f9309116100595780637c3f930914610131578063968b16801461014d578063b4fed97714610176578063bb9aca66146101b9578063f6e3fb06146101e257610086565b806305d546ef1461008b57806309750dc1146100b457806333519c86146100dd5780635a7d5f5014610108575b600080fd5b34801561009757600080fd5b506100b260048036038101906100ad9190610ef0565b610221565b005b3480156100c057600080fd5b506100db60048036038101906100d69190611076565b61033c565b005b3480156100e957600080fd5b506100f26104f5565b6040516100ff9190611124565b60405180910390f35b34801561011457600080fd5b5061012f600480360381019061012a9190610ef0565b610501565b005b61014b60048036038101906101469190610ef0565b61061c565b005b34801561015957600080fd5b50610174600480360381019061016f919061113f565b6107df565b005b34801561018257600080fd5b5061019d600480360381019061019891906111ae565b610942565b6040516101b097969594939291906113d0565b60405180910390f35b3480156101c557600080fd5b506101e060048036038101906101db9190610ef0565b610c04565b005b3480156101ee57600080fd5b50610209600480360381019061020491906111ae565b610d2d565b60405161021893929190611454565b60405180910390f35b6002600481111561023557610234611359565b5b6001600083815260200190815260200160002060020160009054906101000a900460ff16600481111561026b5761026a611359565b5b146102ab576040517f08c379a00000000000000000000000000000000000000000000000000000000081526004016102a2906114de565b60405180910390fd5b6003600083815481106102c1576102c06114fe565b5b906000526020600020906007020160060160006101000a81548160ff021916908360048111156102f4576102f3611359565b5b021790555060036001600083815260200190815260200160002060020160006101000a81548160ff0219169083600481111561033357610332611359565b5b02179055505050565b60006040518060e001604052803373ffffffffffffffffffffffffffffffffffffffff16815260200186815260200185815260200184815260200183815260200160028054806020026020016040519081016040528092919081815260200182805480156103c957602002820191906000526020600020905b8154815260200190600101908083116103b5575b50505050508152602001600060048111156103e7576103e6611359565b5b8152509050600081908060018154018082558091505060019003906000526020600020906007020160009091909190915060008201518160000160006101000a81548173ffffffffffffffffffffffffffffffffffffffff021916908373ffffffffffffffffffffffffffffffffffffffff16021790555060208201518160010190816104749190611739565b50604082015181600201908161048a9190611739565b50606082015181600301556080820151816004015560a08201518160050190805190602001906104bb929190610e3c565b5060c08201518160060160006101000a81548160ff021916908360048111156104e7576104e6611359565b5b021790555050505050505050565b60008080549050905090565b6001600481111561051557610514611359565b5b6001600083815260200190815260200160002060020160009054906101000a900460ff16600481111561054b5761054a611359565b5b1461058b576040517f08c379a000000000000000000000000000000000000000000000000000000000815260040161058290611857565b60405180910390fd5b6002600083815481106105a1576105a06114fe565b5b906000526020600020906007020160060160006101000a81548160ff021916908360048111156105d4576105d3611359565b5b021790555060026001600083815260200190815260200160002060020160006101000a81548160ff0219169083600481111561061357610612611359565b5b02179055505050565b600360048111156106305761062f611359565b5b6001600083815260200190815260200160002060020160009054906101000a900460ff16600481111561066657610665611359565b5b146106a6576040517f08c379a000000000000000000000000000000000000000000000000000000000815260040161069d906118e9565b60405180910390fd5b6004600083815481106106bc576106bb6114fe565b5b906000526020600020906007020160060160006101000a81548160ff021916908360048111156106ef576106ee611359565b5b021790555060046001600083815260200190815260200160002060020160006101000a81548160ff0219169083600481111561072e5761072d611359565b5b021790555060006001600083815260200190815260200160002060000160009054906101000a900473ffffffffffffffffffffffffffffffffffffffff1690508073ffffffffffffffffffffffffffffffffffffffff166108fc6000858154811061079c5761079b6114fe565b5b9060005260206000209060070201600301549081150290604051600060405180830381858888f193505050501580156107d9573d6000803e3d6000fd5b50505050565b600060048111156107f3576107f2611359565b5b60008481548110610807576108066114fe565b5b906000526020600020906007020160060160009054906101000a900460ff16600481111561083857610837611359565b5b14610878576040517f08c379a000000000000000000000000000000000000000000000000000000000815260040161086f9061197b565b60405180910390fd5b6000838154811061088c5761088b6114fe565b5b9060005260206000209060070201600501829080600181540180825580915050600190039060005260206000200160009091909190915055336001600084815260200190815260200160002060000160006101000a81548173ffffffffffffffffffffffffffffffffffffffff021916908373ffffffffffffffffffffffffffffffffffffffff1602179055508060016000848152602001908152602001600020600101908161093c9190611739565b50505050565b600060608060008060606000808881548110610961576109606114fe565b5b906000526020600020906007020160000160009054906101000a900473ffffffffffffffffffffffffffffffffffffffff16600089815481106109a7576109a66114fe565b5b906000526020600020906007020160010160008a815481106109cc576109cb6114fe565b5b906000526020600020906007020160020160008b815481106109f1576109f06114fe565b5b90600052602060002090600702016003015460008c81548110610a1757610a166114fe565b5b90600052602060002090600702016004015460008d81548110610a3d57610a3c6114fe565b5b906000526020600020906007020160050160008e81548110610a6257610a616114fe565b5b906000526020600020906007020160060160009054906101000a900460ff16858054610a8d9061155c565b80601f0160208091040260200160405190810160405280929190818152602001828054610ab99061155c565b8015610b065780601f10610adb57610100808354040283529160200191610b06565b820191906000526020600020905b815481529060010190602001808311610ae957829003601f168201915b50505050509550848054610b199061155c565b80601f0160208091040260200160405190810160405280929190818152602001828054610b459061155c565b8015610b925780601f10610b6757610100808354040283529160200191610b92565b820191906000526020600020905b815481529060010190602001808311610b7557829003601f168201915b5050505050945081805480602002602001604051908101604052809291908181526020018280548015610be457602002820191906000526020600020905b815481526020019060010190808311610bd0575b505050505091509650965096509650965096509650919395979092949650565b60006004811115610c1857610c17611359565b5b60008381548110610c2c57610c2b6114fe565b5b906000526020600020906007020160060160009054906101000a900460ff166004811115610c5d57610c5c611359565b5b14610c9d576040517f08c379a0000000000000000000000000000000000000000000000000000000008152600401610c9490611857565b60405180910390fd5b600180600083815260200190815260200160002060020160006101000a81548160ff02191690836004811115610cd657610cd5611359565b5b0217905550600160008381548110610cf157610cf06114fe565b5b906000526020600020906007020160060160006101000a81548160ff02191690836004811115610d2457610d23611359565b5b02179055505050565b6060600080600160008581526020019081526020016000206001016001600086815260200190815260200160002060020160009054906101000a900460ff166001600087815260200190815260200160002060000160009054906101000a900473ffffffffffffffffffffffffffffffffffffffff16828054610daf9061155c565b80601f0160208091040260200160405190810160405280929190818152602001828054610ddb9061155c565b8015610e285780601f10610dfd57610100808354040283529160200191610e28565b820191906000526020600020905b815481529060010190602001808311610e0b57829003601f168201915b505050505092509250925092509193909250565b828054828255906000526020600020908101928215610e78579160200282015b82811115610e77578251825591602001919060010190610e5c565b5b509050610e859190610e89565b5090565b5b80821115610ea2576000816000905550600101610e8a565b5090565b6000604051905090565b600080fd5b600080fd5b6000819050919050565b610ecd81610eba565b8114610ed857600080fd5b50565b600081359050610eea81610ec4565b92915050565b60008060408385031215610f0757610f06610eb0565b5b6000610f1585828601610edb565b9250506020610f2685828601610edb565b9150509250929050565b600080fd5b600080fd5b6000601f19601f8301169050919050565b7f4e487b7100000000000000000000000000000000000000000000000000000000600052604160045260246000fd5b610f8382610f3a565b810181811067ffffffffffffffff82111715610fa257610fa1610f4b565b5b80604052505050565b6000610fb5610ea6565b9050610fc18282610f7a565b919050565b600067ffffffffffffffff821115610fe157610fe0610f4b565b5b610fea82610f3a565b9050602081019050919050565b82818337600083830152505050565b600061101961101484610fc6565b610fab565b90508281526020810184848401111561103557611034610f35565b5b611040848285610ff7565b509392505050565b600082601f83011261105d5761105c610f30565b5b813561106d848260208601611006565b91505092915050565b600080600080608085870312156110905761108f610eb0565b5b600085013567ffffffffffffffff8111156110ae576110ad610eb5565b5b6110ba87828801611048565b945050602085013567ffffffffffffffff8111156110db576110da610eb5565b5b6110e787828801611048565b93505060406110f887828801610edb565b925050606061110987828801610edb565b91505092959194509250565b61111e81610eba565b82525050565b60006020820190506111396000830184611115565b92915050565b60008060006060848603121561115857611157610eb0565b5b600061116686828701610edb565b935050602061117786828701610edb565b925050604084013567ffffffffffffffff81111561119857611197610eb5565b5b6111a486828701611048565b9150509250925092565b6000602082840312156111c4576111c3610eb0565b5b60006111d284828501610edb565b91505092915050565b600073ffffffffffffffffffffffffffffffffffffffff82169050919050565b6000611206826111db565b9050919050565b611216816111fb565b82525050565b600081519050919050565b600082825260208201905092915050565b60005b8381101561125657808201518184015260208101905061123b565b60008484015250505050565b600061126d8261121c565b6112778185611227565b9350611287818560208601611238565b61129081610f3a565b840191505092915050565b600081519050919050565b600082825260208201905092915050565b6000819050602082019050919050565b6112d081610eba565b82525050565b60006112e283836112c7565b60208301905092915050565b6000602082019050919050565b60006113068261129b565b61131081856112a6565b935061131b836112b7565b8060005b8381101561134c57815161133388826112d6565b975061133e836112ee565b92505060018101905061131f565b5085935050505092915050565b7f4e487b7100000000000000000000000000000000000000000000000000000000600052602160045260246000fd5b6005811061139957611398611359565b5b50565b60008190506113aa82611388565b919050565b60006113ba8261139c565b9050919050565b6113ca816113af565b82525050565b600060e0820190506113e5600083018a61120d565b81810360208301526113f78189611262565b9050818103604083015261140b8188611262565b905061141a6060830187611115565b6114276080830186611115565b81810360a083015261143981856112fb565b905061144860c08301846113c1565b98975050505050505050565b6000606082019050818103600083015261146e8186611262565b905061147d60208301856113c1565b61148a604083018461120d565b949350505050565b7f50726f6a6563742077726f6b206973206e6f7420636f6d706c657465642e0000600082015250565b60006114c8601e83611227565b91506114d382611492565b602082019050919050565b600060208201905081810360008301526114f7816114bb565b9050919050565b7f4e487b7100000000000000000000000000000000000000000000000000000000600052603260045260246000fd5b7f4e487b7100000000000000000000000000000000000000000000000000000000600052602260045260246000fd5b6000600282049050600182168061157457607f821691505b6020821081036115875761158661152d565b5b50919050565b60008190508160005260206000209050919050565b60006020601f8301049050919050565b600082821b905092915050565b6000600883026115ef7fffffffffffffffffffffffffffffffffffffffffffffffffffffffffffffffff826115b2565b6115f986836115b2565b95508019841693508086168417925050509392505050565b6000819050919050565b600061163661163161162c84610eba565b611611565b610eba565b9050919050565b6000819050919050565b6116508361161b565b61166461165c8261163d565b8484546115bf565b825550505050565b600090565b61167961166c565b611684818484611647565b505050565b5b818110156116a85761169d600082611671565b60018101905061168a565b5050565b601f8211156116ed576116be8161158d565b6116c7846115a2565b810160208510156116d6578190505b6116ea6116e2856115a2565b830182611689565b50505b505050565b600082821c905092915050565b6000611710600019846008026116f2565b1980831691505092915050565b600061172983836116ff565b9150826002028217905092915050565b6117428261121c565b67ffffffffffffffff81111561175b5761175a610f4b565b5b611765825461155c565b6117708282856116ac565b600060209050601f8311600181146117a35760008415611791578287015190505b61179b858261171d565b865550611803565b601f1984166117b18661158d565b60005b828110156117d9578489015182556001820191506020850194506020810190506117b4565b868310156117f657848901516117f2601f8916826116ff565b8355505b6001600288020188555050505b505050505050565b7f596f7520617265206e6f742073656c65637465642e0000000000000000000000600082015250565b6000611841601583611227565b915061184c8261180b565b602082019050919050565b6000602082019050818103600083015261187081611834565b9050919050565b7f50726f6a6563742077726f6b206973206e6f742070726f7061726c7920776f7260008201527f6b696e6720706c6561736520636865636b20796f757220776f726b2e00000000602082015250565b60006118d3603c83611227565b91506118de82611877565b604082019050919050565b60006020820190508181036000830152611902816118c6565b9050919050565b7f50726f6a65637420616c6c6f63617465206f7468657220667265656c616e636560008201527f722e000000000000000000000000000000000000000000000000000000000000602082015250565b6000611965602283611227565b915061197082611909565b604082019050919050565b6000602082019050818103600083015261199481611958565b905091905056fea2646970667358221220a2bac3e2fa46e3bac0655ed3c33f9bf2228984269a973c172ebf31854374340964736f6c63430008120033",
					"opcodes": "PUSH1 0x80 PUSH1 0x40 MSTORE CALLVALUE DUP1 ISZERO PUSH2 0x10 JUMPI PUSH1 0x0 DUP1 REVERT JUMPDEST POP PUSH2 0x19D1 DUP1 PUSH2 0x20 PUSH1 0x0 CODECOPY PUSH1 0x0 RETURN INVALID PUSH1 0x80 PUSH1 0x40 MSTORE PUSH1 0x4 CALLDATASIZE LT PUSH2 0x86 JUMPI PUSH1 0x0 CALLDATALOAD PUSH1 0xE0 SHR DUP1 PUSH4 0x7C3F9309 GT PUSH2 0x59 JUMPI DUP1 PUSH4 0x7C3F9309 EQ PUSH2 0x131 JUMPI DUP1 PUSH4 0x968B1680 EQ PUSH2 0x14D JUMPI DUP1 PUSH4 0xB4FED977 EQ PUSH2 0x176 JUMPI DUP1 PUSH4 0xBB9ACA66 EQ PUSH2 0x1B9 JUMPI DUP1 PUSH4 0xF6E3FB06 EQ PUSH2 0x1E2 JUMPI PUSH2 0x86 JUMP JUMPDEST DUP1 PUSH4 0x5D546EF EQ PUSH2 0x8B JUMPI DUP1 PUSH4 0x9750DC1 EQ PUSH2 0xB4 JUMPI DUP1 PUSH4 0x33519C86 EQ PUSH2 0xDD JUMPI DUP1 PUSH4 0x5A7D5F50 EQ PUSH2 0x108 JUMPI JUMPDEST PUSH1 0x0 DUP1 REVERT JUMPDEST CALLVALUE DUP1 ISZERO PUSH2 0x97 JUMPI PUSH1 0x0 DUP1 REVERT JUMPDEST POP PUSH2 0xB2 PUSH1 0x4 DUP1 CALLDATASIZE SUB DUP2 ADD SWAP1 PUSH2 0xAD SWAP2 SWAP1 PUSH2 0xEF0 JUMP JUMPDEST PUSH2 0x221 JUMP JUMPDEST STOP JUMPDEST CALLVALUE DUP1 ISZERO PUSH2 0xC0 JUMPI PUSH1 0x0 DUP1 REVERT JUMPDEST POP PUSH2 0xDB PUSH1 0x4 DUP1 CALLDATASIZE SUB DUP2 ADD SWAP1 PUSH2 0xD6 SWAP2 SWAP1 PUSH2 0x1076 JUMP JUMPDEST PUSH2 0x33C JUMP JUMPDEST STOP JUMPDEST CALLVALUE DUP1 ISZERO PUSH2 0xE9 JUMPI PUSH1 0x0 DUP1 REVERT JUMPDEST POP PUSH2 0xF2 PUSH2 0x4F5 JUMP JUMPDEST PUSH1 0x40 MLOAD PUSH2 0xFF SWAP2 SWAP1 PUSH2 0x1124 JUMP JUMPDEST PUSH1 0x40 MLOAD DUP1 SWAP2 SUB SWAP1 RETURN JUMPDEST CALLVALUE DUP1 ISZERO PUSH2 0x114 JUMPI PUSH1 0x0 DUP1 REVERT JUMPDEST POP PUSH2 0x12F PUSH1 0x4 DUP1 CALLDATASIZE SUB DUP2 ADD SWAP1 PUSH2 0x12A SWAP2 SWAP1 PUSH2 0xEF0 JUMP JUMPDEST PUSH2 0x501 JUMP JUMPDEST STOP JUMPDEST PUSH2 0x14B PUSH1 0x4 DUP1 CALLDATASIZE SUB DUP2 ADD SWAP1 PUSH2 0x146 SWAP2 SWAP1 PUSH2 0xEF0 JUMP JUMPDEST PUSH2 0x61C JUMP JUMPDEST STOP JUMPDEST CALLVALUE DUP1 ISZERO PUSH2 0x159 JUMPI PUSH1 0x0 DUP1 REVERT JUMPDEST POP PUSH2 0x174 PUSH1 0x4 DUP1 CALLDATASIZE SUB DUP2 ADD SWAP1 PUSH2 0x16F SWAP2 SWAP1 PUSH2 0x113F JUMP JUMPDEST PUSH2 0x7DF JUMP JUMPDEST STOP JUMPDEST CALLVALUE DUP1 ISZERO PUSH2 0x182 JUMPI PUSH1 0x0 DUP1 REVERT JUMPDEST POP PUSH2 0x19D PUSH1 0x4 DUP1 CALLDATASIZE SUB DUP2 ADD SWAP1 PUSH2 0x198 SWAP2 SWAP1 PUSH2 0x11AE JUMP JUMPDEST PUSH2 0x942 JUMP JUMPDEST PUSH1 0x40 MLOAD PUSH2 0x1B0 SWAP8 SWAP7 SWAP6 SWAP5 SWAP4 SWAP3 SWAP2 SWAP1 PUSH2 0x13D0 JUMP JUMPDEST PUSH1 0x40 MLOAD DUP1 SWAP2 SUB SWAP1 RETURN JUMPDEST CALLVALUE DUP1 ISZERO PUSH2 0x1C5 JUMPI PUSH1 0x0 DUP1 REVERT JUMPDEST POP PUSH2 0x1E0 PUSH1 0x4 DUP1 CALLDATASIZE SUB DUP2 ADD SWAP1 PUSH2 0x1DB SWAP2 SWAP1 PUSH2 0xEF0 JUMP JUMPDEST PUSH2 0xC04 JUMP JUMPDEST STOP JUMPDEST CALLVALUE DUP1 ISZERO PUSH2 0x1EE JUMPI PUSH1 0x0 DUP1 REVERT JUMPDEST POP PUSH2 0x209 PUSH1 0x4 DUP1 CALLDATASIZE SUB DUP2 ADD SWAP1 PUSH2 0x204 SWAP2 SWAP1 PUSH2 0x11AE JUMP JUMPDEST PUSH2 0xD2D JUMP JUMPDEST PUSH1 0x40 MLOAD PUSH2 0x218 SWAP4 SWAP3 SWAP2 SWAP1 PUSH2 0x1454 JUMP JUMPDEST PUSH1 0x40 MLOAD DUP1 SWAP2 SUB SWAP1 RETURN JUMPDEST PUSH1 0x2 PUSH1 0x4 DUP2 GT ISZERO PUSH2 0x235 JUMPI PUSH2 0x234 PUSH2 0x1359 JUMP JUMPDEST JUMPDEST PUSH1 0x1 PUSH1 0x0 DUP4 DUP2 MSTORE PUSH1 0x20 ADD SWAP1 DUP2 MSTORE PUSH1 0x20 ADD PUSH1 0x0 KECCAK256 PUSH1 0x2 ADD PUSH1 0x0 SWAP1 SLOAD SWAP1 PUSH2 0x100 EXP SWAP1 DIV PUSH1 0xFF AND PUSH1 0x4 DUP2 GT ISZERO PUSH2 0x26B JUMPI PUSH2 0x26A PUSH2 0x1359 JUMP JUMPDEST JUMPDEST EQ PUSH2 0x2AB JUMPI PUSH1 0x40 MLOAD PUSH32 0x8C379A000000000000000000000000000000000000000000000000000000000 DUP2 MSTORE PUSH1 0x4 ADD PUSH2 0x2A2 SWAP1 PUSH2 0x14DE JUMP JUMPDEST PUSH1 0x40 MLOAD DUP1 SWAP2 SUB SWAP1 REVERT JUMPDEST PUSH1 0x3 PUSH1 0x0 DUP4 DUP2 SLOAD DUP2 LT PUSH2 0x2C1 JUMPI PUSH2 0x2C0 PUSH2 0x14FE JUMP JUMPDEST JUMPDEST SWAP1 PUSH1 0x0 MSTORE PUSH1 0x20 PUSH1 0x0 KECCAK256 SWAP1 PUSH1 0x7 MUL ADD PUSH1 0x6 ADD PUSH1 0x0 PUSH2 0x100 EXP DUP2 SLOAD DUP2 PUSH1 0xFF MUL NOT AND SWAP1 DUP4 PUSH1 0x4 DUP2 GT ISZERO PUSH2 0x2F4 JUMPI PUSH2 0x2F3 PUSH2 0x1359 JUMP JUMPDEST JUMPDEST MUL OR SWAP1 SSTORE POP PUSH1 0x3 PUSH1 0x1 PUSH1 0x0 DUP4 DUP2 MSTORE PUSH1 0x20 ADD SWAP1 DUP2 MSTORE PUSH1 0x20 ADD PUSH1 0x0 KECCAK256 PUSH1 0x2 ADD PUSH1 0x0 PUSH2 0x100 EXP DUP2 SLOAD DUP2 PUSH1 0xFF MUL NOT AND SWAP1 DUP4 PUSH1 0x4 DUP2 GT ISZERO PUSH2 0x333 JUMPI PUSH2 0x332 PUSH2 0x1359 JUMP JUMPDEST JUMPDEST MUL OR SWAP1 SSTORE POP POP POP JUMP JUMPDEST PUSH1 0x0 PUSH1 0x40 MLOAD DUP1 PUSH1 0xE0 ADD PUSH1 0x40 MSTORE DUP1 CALLER PUSH20 0xFFFFFFFFFFFFFFFFFFFFFFFFFFFFFFFFFFFFFFFF AND DUP2 MSTORE PUSH1 0x20 ADD DUP7 DUP2 MSTORE PUSH1 0x20 ADD DUP6 DUP2 MSTORE PUSH1 0x20 ADD DUP5 DUP2 MSTORE PUSH1 0x20 ADD DUP4 DUP2 MSTORE PUSH1 0x20 ADD PUSH1 0x2 DUP1 SLOAD DUP1 PUSH1 0x20 MUL PUSH1 0x20 ADD PUSH1 0x40 MLOAD SWAP1 DUP2 ADD PUSH1 0x40 MSTORE DUP1 SWAP3 SWAP2 SWAP1 DUP2 DUP2 MSTORE PUSH1 0x20 ADD DUP3 DUP1 SLOAD DUP1 ISZERO PUSH2 0x3C9 JUMPI PUSH1 0x20 MUL DUP3 ADD SWAP2 SWAP1 PUSH1 0x0 MSTORE PUSH1 0x20 PUSH1 0x0 KECCAK256 SWAP1 JUMPDEST DUP2 SLOAD DUP2 MSTORE PUSH1 0x20 ADD SWAP1 PUSH1 0x1 ADD SWAP1 DUP1 DUP4 GT PUSH2 0x3B5 JUMPI JUMPDEST POP POP POP POP POP DUP2 MSTORE PUSH1 0x20 ADD PUSH1 0x0 PUSH1 0x4 DUP2 GT ISZERO PUSH2 0x3E7 JUMPI PUSH2 0x3E6 PUSH2 0x1359 JUMP JUMPDEST JUMPDEST DUP2 MSTORE POP SWAP1 POP PUSH1 0x0 DUP2 SWAP1 DUP1 PUSH1 0x1 DUP2 SLOAD ADD DUP1 DUP3 SSTORE DUP1 SWAP2 POP POP PUSH1 0x1 SWAP1 SUB SWAP1 PUSH1 0x0 MSTORE PUSH1 0x20 PUSH1 0x0 KECCAK256 SWAP1 PUSH1 0x7 MUL ADD PUSH1 0x0 SWAP1 SWAP2 SWAP1 SWAP2 SWAP1 SWAP2 POP PUSH1 0x0 DUP3 ADD MLOAD DUP2 PUSH1 0x0 ADD PUSH1 0x0 PUSH2 0x100 EXP DUP2 SLOAD DUP2 PUSH20 0xFFFFFFFFFFFFFFFFFFFFFFFFFFFFFFFFFFFFFFFF MUL NOT AND SWAP1 DUP4 PUSH20 0xFFFFFFFFFFFFFFFFFFFFFFFFFFFFFFFFFFFFFFFF AND MUL OR SWAP1 SSTORE POP PUSH1 0x20 DUP3 ADD MLOAD DUP2 PUSH1 0x1 ADD SWAP1 DUP2 PUSH2 0x474 SWAP2 SWAP1 PUSH2 0x1739 JUMP JUMPDEST POP PUSH1 0x40 DUP3 ADD MLOAD DUP2 PUSH1 0x2 ADD SWAP1 DUP2 PUSH2 0x48A SWAP2 SWAP1 PUSH2 0x1739 JUMP JUMPDEST POP PUSH1 0x60 DUP3 ADD MLOAD DUP2 PUSH1 0x3 ADD SSTORE PUSH1 0x80 DUP3 ADD MLOAD DUP2 PUSH1 0x4 ADD SSTORE PUSH1 0xA0 DUP3 ADD MLOAD DUP2 PUSH1 0x5 ADD SWAP1 DUP1 MLOAD SWAP1 PUSH1 0x20 ADD SWAP1 PUSH2 0x4BB SWAP3 SWAP2 SWAP1 PUSH2 0xE3C JUMP JUMPDEST POP PUSH1 0xC0 DUP3 ADD MLOAD DUP2 PUSH1 0x6 ADD PUSH1 0x0 PUSH2 0x100 EXP DUP2 SLOAD DUP2 PUSH1 0xFF MUL NOT AND SWAP1 DUP4 PUSH1 0x4 DUP2 GT ISZERO PUSH2 0x4E7 JUMPI PUSH2 0x4E6 PUSH2 0x1359 JUMP JUMPDEST JUMPDEST MUL OR SWAP1 SSTORE POP POP POP POP POP POP POP POP JUMP JUMPDEST PUSH1 0x0 DUP1 DUP1 SLOAD SWAP1 POP SWAP1 POP SWAP1 JUMP JUMPDEST PUSH1 0x1 PUSH1 0x4 DUP2 GT ISZERO PUSH2 0x515 JUMPI PUSH2 0x514 PUSH2 0x1359 JUMP JUMPDEST JUMPDEST PUSH1 0x1 PUSH1 0x0 DUP4 DUP2 MSTORE PUSH1 0x20 ADD SWAP1 DUP2 MSTORE PUSH1 0x20 ADD PUSH1 0x0 KECCAK256 PUSH1 0x2 ADD PUSH1 0x0 SWAP1 SLOAD SWAP1 PUSH2 0x100 EXP SWAP1 DIV PUSH1 0xFF AND PUSH1 0x4 DUP2 GT ISZERO PUSH2 0x54B JUMPI PUSH2 0x54A PUSH2 0x1359 JUMP JUMPDEST JUMPDEST EQ PUSH2 0x58B JUMPI PUSH1 0x40 MLOAD PUSH32 0x8C379A000000000000000000000000000000000000000000000000000000000 DUP2 MSTORE PUSH1 0x4 ADD PUSH2 0x582 SWAP1 PUSH2 0x1857 JUMP JUMPDEST PUSH1 0x40 MLOAD DUP1 SWAP2 SUB SWAP1 REVERT JUMPDEST PUSH1 0x2 PUSH1 0x0 DUP4 DUP2 SLOAD DUP2 LT PUSH2 0x5A1 JUMPI PUSH2 0x5A0 PUSH2 0x14FE JUMP JUMPDEST JUMPDEST SWAP1 PUSH1 0x0 MSTORE PUSH1 0x20 PUSH1 0x0 KECCAK256 SWAP1 PUSH1 0x7 MUL ADD PUSH1 0x6 ADD PUSH1 0x0 PUSH2 0x100 EXP DUP2 SLOAD DUP2 PUSH1 0xFF MUL NOT AND SWAP1 DUP4 PUSH1 0x4 DUP2 GT ISZERO PUSH2 0x5D4 JUMPI PUSH2 0x5D3 PUSH2 0x1359 JUMP JUMPDEST JUMPDEST MUL OR SWAP1 SSTORE POP PUSH1 0x2 PUSH1 0x1 PUSH1 0x0 DUP4 DUP2 MSTORE PUSH1 0x20 ADD SWAP1 DUP2 MSTORE PUSH1 0x20 ADD PUSH1 0x0 KECCAK256 PUSH1 0x2 ADD PUSH1 0x0 PUSH2 0x100 EXP DUP2 SLOAD DUP2 PUSH1 0xFF MUL NOT AND SWAP1 DUP4 PUSH1 0x4 DUP2 GT ISZERO PUSH2 0x613 JUMPI PUSH2 0x612 PUSH2 0x1359 JUMP JUMPDEST JUMPDEST MUL OR SWAP1 SSTORE POP POP POP JUMP JUMPDEST PUSH1 0x3 PUSH1 0x4 DUP2 GT ISZERO PUSH2 0x630 JUMPI PUSH2 0x62F PUSH2 0x1359 JUMP JUMPDEST JUMPDEST PUSH1 0x1 PUSH1 0x0 DUP4 DUP2 MSTORE PUSH1 0x20 ADD SWAP1 DUP2 MSTORE PUSH1 0x20 ADD PUSH1 0x0 KECCAK256 PUSH1 0x2 ADD PUSH1 0x0 SWAP1 SLOAD SWAP1 PUSH2 0x100 EXP SWAP1 DIV PUSH1 0xFF AND PUSH1 0x4 DUP2 GT ISZERO PUSH2 0x666 JUMPI PUSH2 0x665 PUSH2 0x1359 JUMP JUMPDEST JUMPDEST EQ PUSH2 0x6A6 JUMPI PUSH1 0x40 MLOAD PUSH32 0x8C379A000000000000000000000000000000000000000000000000000000000 DUP2 MSTORE PUSH1 0x4 ADD PUSH2 0x69D SWAP1 PUSH2 0x18E9 JUMP JUMPDEST PUSH1 0x40 MLOAD DUP1 SWAP2 SUB SWAP1 REVERT JUMPDEST PUSH1 0x4 PUSH1 0x0 DUP4 DUP2 SLOAD DUP2 LT PUSH2 0x6BC JUMPI PUSH2 0x6BB PUSH2 0x14FE JUMP JUMPDEST JUMPDEST SWAP1 PUSH1 0x0 MSTORE PUSH1 0x20 PUSH1 0x0 KECCAK256 SWAP1 PUSH1 0x7 MUL ADD PUSH1 0x6 ADD PUSH1 0x0 PUSH2 0x100 EXP DUP2 SLOAD DUP2 PUSH1 0xFF MUL NOT AND SWAP1 DUP4 PUSH1 0x4 DUP2 GT ISZERO PUSH2 0x6EF JUMPI PUSH2 0x6EE PUSH2 0x1359 JUMP JUMPDEST JUMPDEST MUL OR SWAP1 SSTORE POP PUSH1 0x4 PUSH1 0x1 PUSH1 0x0 DUP4 DUP2 MSTORE PUSH1 0x20 ADD SWAP1 DUP2 MSTORE PUSH1 0x20 ADD PUSH1 0x0 KECCAK256 PUSH1 0x2 ADD PUSH1 0x0 PUSH2 0x100 EXP DUP2 SLOAD DUP2 PUSH1 0xFF MUL NOT AND SWAP1 DUP4 PUSH1 0x4 DUP2 GT ISZERO PUSH2 0x72E JUMPI PUSH2 0x72D PUSH2 0x1359 JUMP JUMPDEST JUMPDEST MUL OR SWAP1 SSTORE POP PUSH1 0x0 PUSH1 0x1 PUSH1 0x0 DUP4 DUP2 MSTORE PUSH1 0x20 ADD SWAP1 DUP2 MSTORE PUSH1 0x20 ADD PUSH1 0x0 KECCAK256 PUSH1 0x0 ADD PUSH1 0x0 SWAP1 SLOAD SWAP1 PUSH2 0x100 EXP SWAP1 DIV PUSH20 0xFFFFFFFFFFFFFFFFFFFFFFFFFFFFFFFFFFFFFFFF AND SWAP1 POP DUP1 PUSH20 0xFFFFFFFFFFFFFFFFFFFFFFFFFFFFFFFFFFFFFFFF AND PUSH2 0x8FC PUSH1 0x0 DUP6 DUP2 SLOAD DUP2 LT PUSH2 0x79C JUMPI PUSH2 0x79B PUSH2 0x14FE JUMP JUMPDEST JUMPDEST SWAP1 PUSH1 0x0 MSTORE PUSH1 0x20 PUSH1 0x0 KECCAK256 SWAP1 PUSH1 0x7 MUL ADD PUSH1 0x3 ADD SLOAD SWAP1 DUP2 ISZERO MUL SWAP1 PUSH1 0x40 MLOAD PUSH1 0x0 PUSH1 0x40 MLOAD DUP1 DUP4 SUB DUP2 DUP6 DUP9 DUP9 CALL SWAP4 POP POP POP POP ISZERO DUP1 ISZERO PUSH2 0x7D9 JUMPI RETURNDATASIZE PUSH1 0x0 DUP1 RETURNDATACOPY RETURNDATASIZE PUSH1 0x0 REVERT JUMPDEST POP POP POP POP JUMP JUMPDEST PUSH1 0x0 PUSH1 0x4 DUP2 GT ISZERO PUSH2 0x7F3 JUMPI PUSH2 0x7F2 PUSH2 0x1359 JUMP JUMPDEST JUMPDEST PUSH1 0x0 DUP5 DUP2 SLOAD DUP2 LT PUSH2 0x807 JUMPI PUSH2 0x806 PUSH2 0x14FE JUMP JUMPDEST JUMPDEST SWAP1 PUSH1 0x0 MSTORE PUSH1 0x20 PUSH1 0x0 KECCAK256 SWAP1 PUSH1 0x7 MUL ADD PUSH1 0x6 ADD PUSH1 0x0 SWAP1 SLOAD SWAP1 PUSH2 0x100 EXP SWAP1 DIV PUSH1 0xFF AND PUSH1 0x4 DUP2 GT ISZERO PUSH2 0x838 JUMPI PUSH2 0x837 PUSH2 0x1359 JUMP JUMPDEST JUMPDEST EQ PUSH2 0x878 JUMPI PUSH1 0x40 MLOAD PUSH32 0x8C379A000000000000000000000000000000000000000000000000000000000 DUP2 MSTORE PUSH1 0x4 ADD PUSH2 0x86F SWAP1 PUSH2 0x197B JUMP JUMPDEST PUSH1 0x40 MLOAD DUP1 SWAP2 SUB SWAP1 REVERT JUMPDEST PUSH1 0x0 DUP4 DUP2 SLOAD DUP2 LT PUSH2 0x88C JUMPI PUSH2 0x88B PUSH2 0x14FE JUMP JUMPDEST JUMPDEST SWAP1 PUSH1 0x0 MSTORE PUSH1 0x20 PUSH1 0x0 KECCAK256 SWAP1 PUSH1 0x7 MUL ADD PUSH1 0x5 ADD DUP3 SWAP1 DUP1 PUSH1 0x1 DUP2 SLOAD ADD DUP1 DUP3 SSTORE DUP1 SWAP2 POP POP PUSH1 0x1 SWAP1 SUB SWAP1 PUSH1 0x0 MSTORE PUSH1 0x20 PUSH1 0x0 KECCAK256 ADD PUSH1 0x0 SWAP1 SWAP2 SWAP1 SWAP2 SWAP1 SWAP2 POP SSTORE CALLER PUSH1 0x1 PUSH1 0x0 DUP5 DUP2 MSTORE PUSH1 0x20 ADD SWAP1 DUP2 MSTORE PUSH1 0x20 ADD PUSH1 0x0 KECCAK256 PUSH1 0x0 ADD PUSH1 0x0 PUSH2 0x100 EXP DUP2 SLOAD DUP2 PUSH20 0xFFFFFFFFFFFFFFFFFFFFFFFFFFFFFFFFFFFFFFFF MUL NOT AND SWAP1 DUP4 PUSH20 0xFFFFFFFFFFFFFFFFFFFFFFFFFFFFFFFFFFFFFFFF AND MUL OR SWAP1 SSTORE POP DUP1 PUSH1 0x1 PUSH1 0x0 DUP5 DUP2 MSTORE PUSH1 0x20 ADD SWAP1 DUP2 MSTORE PUSH1 0x20 ADD PUSH1 0x0 KECCAK256 PUSH1 0x1 ADD SWAP1 DUP2 PUSH2 0x93C SWAP2 SWAP1 PUSH2 0x1739 JUMP JUMPDEST POP POP POP POP JUMP JUMPDEST PUSH1 0x0 PUSH1 0x60 DUP1 PUSH1 0x0 DUP1 PUSH1 0x60 PUSH1 0x0 DUP1 DUP9 DUP2 SLOAD DUP2 LT PUSH2 0x961 JUMPI PUSH2 0x960 PUSH2 0x14FE JUMP JUMPDEST JUMPDEST SWAP1 PUSH1 0x0 MSTORE PUSH1 0x20 PUSH1 0x0 KECCAK256 SWAP1 PUSH1 0x7 MUL ADD PUSH1 0x0 ADD PUSH1 0x0 SWAP1 SLOAD SWAP1 PUSH2 0x100 EXP SWAP1 DIV PUSH20 0xFFFFFFFFFFFFFFFFFFFFFFFFFFFFFFFFFFFFFFFF AND PUSH1 0x0 DUP10 DUP2 SLOAD DUP2 LT PUSH2 0x9A7 JUMPI PUSH2 0x9A6 PUSH2 0x14FE JUMP JUMPDEST JUMPDEST SWAP1 PUSH1 0x0 MSTORE PUSH1 0x20 PUSH1 0x0 KECCAK256 SWAP1 PUSH1 0x7 MUL ADD PUSH1 0x1 ADD PUSH1 0x0 DUP11 DUP2 SLOAD DUP2 LT PUSH2 0x9CC JUMPI PUSH2 0x9CB PUSH2 0x14FE JUMP JUMPDEST JUMPDEST SWAP1 PUSH1 0x0 MSTORE PUSH1 0x20 PUSH1 0x0 KECCAK256 SWAP1 PUSH1 0x7 MUL ADD PUSH1 0x2 ADD PUSH1 0x0 DUP12 DUP2 SLOAD DUP2 LT PUSH2 0x9F1 JUMPI PUSH2 0x9F0 PUSH2 0x14FE JUMP JUMPDEST JUMPDEST SWAP1 PUSH1 0x0 MSTORE PUSH1 0x20 PUSH1 0x0 KECCAK256 SWAP1 PUSH1 0x7 MUL ADD PUSH1 0x3 ADD SLOAD PUSH1 0x0 DUP13 DUP2 SLOAD DUP2 LT PUSH2 0xA17 JUMPI PUSH2 0xA16 PUSH2 0x14FE JUMP JUMPDEST JUMPDEST SWAP1 PUSH1 0x0 MSTORE PUSH1 0x20 PUSH1 0x0 KECCAK256 SWAP1 PUSH1 0x7 MUL ADD PUSH1 0x4 ADD SLOAD PUSH1 0x0 DUP14 DUP2 SLOAD DUP2 LT PUSH2 0xA3D JUMPI PUSH2 0xA3C PUSH2 0x14FE JUMP JUMPDEST JUMPDEST SWAP1 PUSH1 0x0 MSTORE PUSH1 0x20 PUSH1 0x0 KECCAK256 SWAP1 PUSH1 0x7 MUL ADD PUSH1 0x5 ADD PUSH1 0x0 DUP15 DUP2 SLOAD DUP2 LT PUSH2 0xA62 JUMPI PUSH2 0xA61 PUSH2 0x14FE JUMP JUMPDEST JUMPDEST SWAP1 PUSH1 0x0 MSTORE PUSH1 0x20 PUSH1 0x0 KECCAK256 SWAP1 PUSH1 0x7 MUL ADD PUSH1 0x6 ADD PUSH1 0x0 SWAP1 SLOAD SWAP1 PUSH2 0x100 EXP SWAP1 DIV PUSH1 0xFF AND DUP6 DUP1 SLOAD PUSH2 0xA8D SWAP1 PUSH2 0x155C JUMP JUMPDEST DUP1 PUSH1 0x1F ADD PUSH1 0x20 DUP1 SWAP2 DIV MUL PUSH1 0x20 ADD PUSH1 0x40 MLOAD SWAP1 DUP2 ADD PUSH1 0x40 MSTORE DUP1 SWAP3 SWAP2 SWAP1 DUP2 DUP2 MSTORE PUSH1 0x20 ADD DUP3 DUP1 SLOAD PUSH2 0xAB9 SWAP1 PUSH2 0x155C JUMP JUMPDEST DUP1 ISZERO PUSH2 0xB06 JUMPI DUP1 PUSH1 0x1F LT PUSH2 0xADB JUMPI PUSH2 0x100 DUP1 DUP4 SLOAD DIV MUL DUP4 MSTORE SWAP2 PUSH1 0x20 ADD SWAP2 PUSH2 0xB06 JUMP JUMPDEST DUP3 ADD SWAP2 SWAP1 PUSH1 0x0 MSTORE PUSH1 0x20 PUSH1 0x0 KECCAK256 SWAP1 JUMPDEST DUP2 SLOAD DUP2 MSTORE SWAP1 PUSH1 0x1 ADD SWAP1 PUSH1 0x20 ADD DUP1 DUP4 GT PUSH2 0xAE9 JUMPI DUP3 SWAP1 SUB PUSH1 0x1F AND DUP3 ADD SWAP2 JUMPDEST POP POP POP POP POP SWAP6 POP DUP5 DUP1 SLOAD PUSH2 0xB19 SWAP1 PUSH2 0x155C JUMP JUMPDEST DUP1 PUSH1 0x1F ADD PUSH1 0x20 DUP1 SWAP2 DIV MUL PUSH1 0x20 ADD PUSH1 0x40 MLOAD SWAP1 DUP2 ADD PUSH1 0x40 MSTORE DUP1 SWAP3 SWAP2 SWAP1 DUP2 DUP2 MSTORE PUSH1 0x20 ADD DUP3 DUP1 SLOAD PUSH2 0xB45 SWAP1 PUSH2 0x155C JUMP JUMPDEST DUP1 ISZERO PUSH2 0xB92 JUMPI DUP1 PUSH1 0x1F LT PUSH2 0xB67 JUMPI PUSH2 0x100 DUP1 DUP4 SLOAD DIV MUL DUP4 MSTORE SWAP2 PUSH1 0x20 ADD SWAP2 PUSH2 0xB92 JUMP JUMPDEST DUP3 ADD SWAP2 SWAP1 PUSH1 0x0 MSTORE PUSH1 0x20 PUSH1 0x0 KECCAK256 SWAP1 JUMPDEST DUP2 SLOAD DUP2 MSTORE SWAP1 PUSH1 0x1 ADD SWAP1 PUSH1 0x20 ADD DUP1 DUP4 GT PUSH2 0xB75 JUMPI DUP3 SWAP1 SUB PUSH1 0x1F AND DUP3 ADD SWAP2 JUMPDEST POP POP POP POP POP SWAP5 POP DUP2 DUP1 SLOAD DUP1 PUSH1 0x20 MUL PUSH1 0x20 ADD PUSH1 0x40 MLOAD SWAP1 DUP2 ADD PUSH1 0x40 MSTORE DUP1 SWAP3 SWAP2 SWAP1 DUP2 DUP2 MSTORE PUSH1 0x20 ADD DUP3 DUP1 SLOAD DUP1 ISZERO PUSH2 0xBE4 JUMPI PUSH1 0x20 MUL DUP3 ADD SWAP2 SWAP1 PUSH1 0x0 MSTORE PUSH1 0x20 PUSH1 0x0 KECCAK256 SWAP1 JUMPDEST DUP2 SLOAD DUP2 MSTORE PUSH1 0x20 ADD SWAP1 PUSH1 0x1 ADD SWAP1 DUP1 DUP4 GT PUSH2 0xBD0 JUMPI JUMPDEST POP POP POP POP POP SWAP2 POP SWAP7 POP SWAP7 POP SWAP7 POP SWAP7 POP SWAP7 POP SWAP7 POP SWAP7 POP SWAP2 SWAP4 SWAP6 SWAP8 SWAP1 SWAP3 SWAP5 SWAP7 POP JUMP JUMPDEST PUSH1 0x0 PUSH1 0x4 DUP2 GT ISZERO PUSH2 0xC18 JUMPI PUSH2 0xC17 PUSH2 0x1359 JUMP JUMPDEST JUMPDEST PUSH1 0x0 DUP4 DUP2 SLOAD DUP2 LT PUSH2 0xC2C JUMPI PUSH2 0xC2B PUSH2 0x14FE JUMP JUMPDEST JUMPDEST SWAP1 PUSH1 0x0 MSTORE PUSH1 0x20 PUSH1 0x0 KECCAK256 SWAP1 PUSH1 0x7 MUL ADD PUSH1 0x6 ADD PUSH1 0x0 SWAP1 SLOAD SWAP1 PUSH2 0x100 EXP SWAP1 DIV PUSH1 0xFF AND PUSH1 0x4 DUP2 GT ISZERO PUSH2 0xC5D JUMPI PUSH2 0xC5C PUSH2 0x1359 JUMP JUMPDEST JUMPDEST EQ PUSH2 0xC9D JUMPI PUSH1 0x40 MLOAD PUSH32 0x8C379A000000000000000000000000000000000000000000000000000000000 DUP2 MSTORE PUSH1 0x4 ADD PUSH2 0xC94 SWAP1 PUSH2 0x1857 JUMP JUMPDEST PUSH1 0x40 MLOAD DUP1 SWAP2 SUB SWAP1 REVERT JUMPDEST PUSH1 0x1 DUP1 PUSH1 0x0 DUP4 DUP2 MSTORE PUSH1 0x20 ADD SWAP1 DUP2 MSTORE PUSH1 0x20 ADD PUSH1 0x0 KECCAK256 PUSH1 0x2 ADD PUSH1 0x0 PUSH2 0x100 EXP DUP2 SLOAD DUP2 PUSH1 0xFF MUL NOT AND SWAP1 DUP4 PUSH1 0x4 DUP2 GT ISZERO PUSH2 0xCD6 JUMPI PUSH2 0xCD5 PUSH2 0x1359 JUMP JUMPDEST JUMPDEST MUL OR SWAP1 SSTORE POP PUSH1 0x1 PUSH1 0x0 DUP4 DUP2 SLOAD DUP2 LT PUSH2 0xCF1 JUMPI PUSH2 0xCF0 PUSH2 0x14FE JUMP JUMPDEST JUMPDEST SWAP1 PUSH1 0x0 MSTORE PUSH1 0x20 PUSH1 0x0 KECCAK256 SWAP1 PUSH1 0x7 MUL ADD PUSH1 0x6 ADD PUSH1 0x0 PUSH2 0x100 EXP DUP2 SLOAD DUP2 PUSH1 0xFF MUL NOT AND SWAP1 DUP4 PUSH1 0x4 DUP2 GT ISZERO PUSH2 0xD24 JUMPI PUSH2 0xD23 PUSH2 0x1359 JUMP JUMPDEST JUMPDEST MUL OR SWAP1 SSTORE POP POP POP JUMP JUMPDEST PUSH1 0x60 PUSH1 0x0 DUP1 PUSH1 0x1 PUSH1 0x0 DUP6 DUP2 MSTORE PUSH1 0x20 ADD SWAP1 DUP2 MSTORE PUSH1 0x20 ADD PUSH1 0x0 KECCAK256 PUSH1 0x1 ADD PUSH1 0x1 PUSH1 0x0 DUP7 DUP2 MSTORE PUSH1 0x20 ADD SWAP1 DUP2 MSTORE PUSH1 0x20 ADD PUSH1 0x0 KECCAK256 PUSH1 0x2 ADD PUSH1 0x0 SWAP1 SLOAD SWAP1 PUSH2 0x100 EXP SWAP1 DIV PUSH1 0xFF AND PUSH1 0x1 PUSH1 0x0 DUP8 DUP2 MSTORE PUSH1 0x20 ADD SWAP1 DUP2 MSTORE PUSH1 0x20 ADD PUSH1 0x0 KECCAK256 PUSH1 0x0 ADD PUSH1 0x0 SWAP1 SLOAD SWAP1 PUSH2 0x100 EXP SWAP1 DIV PUSH20 0xFFFFFFFFFFFFFFFFFFFFFFFFFFFFFFFFFFFFFFFF AND DUP3 DUP1 SLOAD PUSH2 0xDAF SWAP1 PUSH2 0x155C JUMP JUMPDEST DUP1 PUSH1 0x1F ADD PUSH1 0x20 DUP1 SWAP2 DIV MUL PUSH1 0x20 ADD PUSH1 0x40 MLOAD SWAP1 DUP2 ADD PUSH1 0x40 MSTORE DUP1 SWAP3 SWAP2 SWAP1 DUP2 DUP2 MSTORE PUSH1 0x20 ADD DUP3 DUP1 SLOAD PUSH2 0xDDB SWAP1 PUSH2 0x155C JUMP JUMPDEST DUP1 ISZERO PUSH2 0xE28 JUMPI DUP1 PUSH1 0x1F LT PUSH2 0xDFD JUMPI PUSH2 0x100 DUP1 DUP4 SLOAD DIV MUL DUP4 MSTORE SWAP2 PUSH1 0x20 ADD SWAP2 PUSH2 0xE28 JUMP JUMPDEST DUP3 ADD SWAP2 SWAP1 PUSH1 0x0 MSTORE PUSH1 0x20 PUSH1 0x0 KECCAK256 SWAP1 JUMPDEST DUP2 SLOAD DUP2 MSTORE SWAP1 PUSH1 0x1 ADD SWAP1 PUSH1 0x20 ADD DUP1 DUP4 GT PUSH2 0xE0B JUMPI DUP3 SWAP1 SUB PUSH1 0x1F AND DUP3 ADD SWAP2 JUMPDEST POP POP POP POP POP SWAP3 POP SWAP3 POP SWAP3 POP SWAP3 POP SWAP2 SWAP4 SWAP1 SWAP3 POP JUMP JUMPDEST DUP3 DUP1 SLOAD DUP3 DUP3 SSTORE SWAP1 PUSH1 0x0 MSTORE PUSH1 0x20 PUSH1 0x0 KECCAK256 SWAP1 DUP2 ADD SWAP3 DUP3 ISZERO PUSH2 0xE78 JUMPI SWAP2 PUSH1 0x20 MUL DUP3 ADD JUMPDEST DUP3 DUP2 GT ISZERO PUSH2 0xE77 JUMPI DUP3 MLOAD DUP3 SSTORE SWAP2 PUSH1 0x20 ADD SWAP2 SWAP1 PUSH1 0x1 ADD SWAP1 PUSH2 0xE5C JUMP JUMPDEST JUMPDEST POP SWAP1 POP PUSH2 0xE85 SWAP2 SWAP1 PUSH2 0xE89 JUMP JUMPDEST POP SWAP1 JUMP JUMPDEST JUMPDEST DUP1 DUP3 GT ISZERO PUSH2 0xEA2 JUMPI PUSH1 0x0 DUP2 PUSH1 0x0 SWAP1 SSTORE POP PUSH1 0x1 ADD PUSH2 0xE8A JUMP JUMPDEST POP SWAP1 JUMP JUMPDEST PUSH1 0x0 PUSH1 0x40 MLOAD SWAP1 POP SWAP1 JUMP JUMPDEST PUSH1 0x0 DUP1 REVERT JUMPDEST PUSH1 0x0 DUP1 REVERT JUMPDEST PUSH1 0x0 DUP2 SWAP1 POP SWAP2 SWAP1 POP JUMP JUMPDEST PUSH2 0xECD DUP2 PUSH2 0xEBA JUMP JUMPDEST DUP2 EQ PUSH2 0xED8 JUMPI PUSH1 0x0 DUP1 REVERT JUMPDEST POP JUMP JUMPDEST PUSH1 0x0 DUP2 CALLDATALOAD SWAP1 POP PUSH2 0xEEA DUP2 PUSH2 0xEC4 JUMP JUMPDEST SWAP3 SWAP2 POP POP JUMP JUMPDEST PUSH1 0x0 DUP1 PUSH1 0x40 DUP4 DUP6 SUB SLT ISZERO PUSH2 0xF07 JUMPI PUSH2 0xF06 PUSH2 0xEB0 JUMP JUMPDEST JUMPDEST PUSH1 0x0 PUSH2 0xF15 DUP6 DUP3 DUP7 ADD PUSH2 0xEDB JUMP JUMPDEST SWAP3 POP POP PUSH1 0x20 PUSH2 0xF26 DUP6 DUP3 DUP7 ADD PUSH2 0xEDB JUMP JUMPDEST SWAP2 POP POP SWAP3 POP SWAP3 SWAP1 POP JUMP JUMPDEST PUSH1 0x0 DUP1 REVERT JUMPDEST PUSH1 0x0 DUP1 REVERT JUMPDEST PUSH1 0x0 PUSH1 0x1F NOT PUSH1 0x1F DUP4 ADD AND SWAP1 POP SWAP2 SWAP1 POP JUMP JUMPDEST PUSH32 0x4E487B7100000000000000000000000000000000000000000000000000000000 PUSH1 0x0 MSTORE PUSH1 0x41 PUSH1 0x4 MSTORE PUSH1 0x24 PUSH1 0x0 REVERT JUMPDEST PUSH2 0xF83 DUP3 PUSH2 0xF3A JUMP JUMPDEST DUP2 ADD DUP2 DUP2 LT PUSH8 0xFFFFFFFFFFFFFFFF DUP3 GT OR ISZERO PUSH2 0xFA2 JUMPI PUSH2 0xFA1 PUSH2 0xF4B JUMP JUMPDEST JUMPDEST DUP1 PUSH1 0x40 MSTORE POP POP POP JUMP JUMPDEST PUSH1 0x0 PUSH2 0xFB5 PUSH2 0xEA6 JUMP JUMPDEST SWAP1 POP PUSH2 0xFC1 DUP3 DUP3 PUSH2 0xF7A JUMP JUMPDEST SWAP2 SWAP1 POP JUMP JUMPDEST PUSH1 0x0 PUSH8 0xFFFFFFFFFFFFFFFF DUP3 GT ISZERO PUSH2 0xFE1 JUMPI PUSH2 0xFE0 PUSH2 0xF4B JUMP JUMPDEST JUMPDEST PUSH2 0xFEA DUP3 PUSH2 0xF3A JUMP JUMPDEST SWAP1 POP PUSH1 0x20 DUP2 ADD SWAP1 POP SWAP2 SWAP1 POP JUMP JUMPDEST DUP3 DUP2 DUP4 CALLDATACOPY PUSH1 0x0 DUP4 DUP4 ADD MSTORE POP POP POP JUMP JUMPDEST PUSH1 0x0 PUSH2 0x1019 PUSH2 0x1014 DUP5 PUSH2 0xFC6 JUMP JUMPDEST PUSH2 0xFAB JUMP JUMPDEST SWAP1 POP DUP3 DUP2 MSTORE PUSH1 0x20 DUP2 ADD DUP5 DUP5 DUP5 ADD GT ISZERO PUSH2 0x1035 JUMPI PUSH2 0x1034 PUSH2 0xF35 JUMP JUMPDEST JUMPDEST PUSH2 0x1040 DUP5 DUP3 DUP6 PUSH2 0xFF7 JUMP JUMPDEST POP SWAP4 SWAP3 POP POP POP JUMP JUMPDEST PUSH1 0x0 DUP3 PUSH1 0x1F DUP4 ADD SLT PUSH2 0x105D JUMPI PUSH2 0x105C PUSH2 0xF30 JUMP JUMPDEST JUMPDEST DUP2 CALLDATALOAD PUSH2 0x106D DUP5 DUP3 PUSH1 0x20 DUP7 ADD PUSH2 0x1006 JUMP JUMPDEST SWAP2 POP POP SWAP3 SWAP2 POP POP JUMP JUMPDEST PUSH1 0x0 DUP1 PUSH1 0x0 DUP1 PUSH1 0x80 DUP6 DUP8 SUB SLT ISZERO PUSH2 0x1090 JUMPI PUSH2 0x108F PUSH2 0xEB0 JUMP JUMPDEST JUMPDEST PUSH1 0x0 DUP6 ADD CALLDATALOAD PUSH8 0xFFFFFFFFFFFFFFFF DUP2 GT ISZERO PUSH2 0x10AE JUMPI PUSH2 0x10AD PUSH2 0xEB5 JUMP JUMPDEST JUMPDEST PUSH2 0x10BA DUP8 DUP3 DUP9 ADD PUSH2 0x1048 JUMP JUMPDEST SWAP5 POP POP PUSH1 0x20 DUP6 ADD CALLDATALOAD PUSH8 0xFFFFFFFFFFFFFFFF DUP2 GT ISZERO PUSH2 0x10DB JUMPI PUSH2 0x10DA PUSH2 0xEB5 JUMP JUMPDEST JUMPDEST PUSH2 0x10E7 DUP8 DUP3 DUP9 ADD PUSH2 0x1048 JUMP JUMPDEST SWAP4 POP POP PUSH1 0x40 PUSH2 0x10F8 DUP8 DUP3 DUP9 ADD PUSH2 0xEDB JUMP JUMPDEST SWAP3 POP POP PUSH1 0x60 PUSH2 0x1109 DUP8 DUP3 DUP9 ADD PUSH2 0xEDB JUMP JUMPDEST SWAP2 POP POP SWAP3 SWAP6 SWAP2 SWAP5 POP SWAP3 POP JUMP JUMPDEST PUSH2 0x111E DUP2 PUSH2 0xEBA JUMP JUMPDEST DUP3 MSTORE POP POP JUMP JUMPDEST PUSH1 0x0 PUSH1 0x20 DUP3 ADD SWAP1 POP PUSH2 0x1139 PUSH1 0x0 DUP4 ADD DUP5 PUSH2 0x1115 JUMP JUMPDEST SWAP3 SWAP2 POP POP JUMP JUMPDEST PUSH1 0x0 DUP1 PUSH1 0x0 PUSH1 0x60 DUP5 DUP7 SUB SLT ISZERO PUSH2 0x1158 JUMPI PUSH2 0x1157 PUSH2 0xEB0 JUMP JUMPDEST JUMPDEST PUSH1 0x0 PUSH2 0x1166 DUP7 DUP3 DUP8 ADD PUSH2 0xEDB JUMP JUMPDEST SWAP4 POP POP PUSH1 0x20 PUSH2 0x1177 DUP7 DUP3 DUP8 ADD PUSH2 0xEDB JUMP JUMPDEST SWAP3 POP POP PUSH1 0x40 DUP5 ADD CALLDATALOAD PUSH8 0xFFFFFFFFFFFFFFFF DUP2 GT ISZERO PUSH2 0x1198 JUMPI PUSH2 0x1197 PUSH2 0xEB5 JUMP JUMPDEST JUMPDEST PUSH2 0x11A4 DUP7 DUP3 DUP8 ADD PUSH2 0x1048 JUMP JUMPDEST SWAP2 POP POP SWAP3 POP SWAP3 POP SWAP3 JUMP JUMPDEST PUSH1 0x0 PUSH1 0x20 DUP3 DUP5 SUB SLT ISZERO PUSH2 0x11C4 JUMPI PUSH2 0x11C3 PUSH2 0xEB0 JUMP JUMPDEST JUMPDEST PUSH1 0x0 PUSH2 0x11D2 DUP5 DUP3 DUP6 ADD PUSH2 0xEDB JUMP JUMPDEST SWAP2 POP POP SWAP3 SWAP2 POP POP JUMP JUMPDEST PUSH1 0x0 PUSH20 0xFFFFFFFFFFFFFFFFFFFFFFFFFFFFFFFFFFFFFFFF DUP3 AND SWAP1 POP SWAP2 SWAP1 POP JUMP JUMPDEST PUSH1 0x0 PUSH2 0x1206 DUP3 PUSH2 0x11DB JUMP JUMPDEST SWAP1 POP SWAP2 SWAP1 POP JUMP JUMPDEST PUSH2 0x1216 DUP2 PUSH2 0x11FB JUMP JUMPDEST DUP3 MSTORE POP POP JUMP JUMPDEST PUSH1 0x0 DUP2 MLOAD SWAP1 POP SWAP2 SWAP1 POP JUMP JUMPDEST PUSH1 0x0 DUP3 DUP3 MSTORE PUSH1 0x20 DUP3 ADD SWAP1 POP SWAP3 SWAP2 POP POP JUMP JUMPDEST PUSH1 0x0 JUMPDEST DUP4 DUP2 LT ISZERO PUSH2 0x1256 JUMPI DUP1 DUP3 ADD MLOAD DUP2 DUP5 ADD MSTORE PUSH1 0x20 DUP2 ADD SWAP1 POP PUSH2 0x123B JUMP JUMPDEST PUSH1 0x0 DUP5 DUP5 ADD MSTORE POP POP POP POP JUMP JUMPDEST PUSH1 0x0 PUSH2 0x126D DUP3 PUSH2 0x121C JUMP JUMPDEST PUSH2 0x1277 DUP2 DUP6 PUSH2 0x1227 JUMP JUMPDEST SWAP4 POP PUSH2 0x1287 DUP2 DUP6 PUSH1 0x20 DUP7 ADD PUSH2 0x1238 JUMP JUMPDEST PUSH2 0x1290 DUP2 PUSH2 0xF3A JUMP JUMPDEST DUP5 ADD SWAP2 POP POP SWAP3 SWAP2 POP POP JUMP JUMPDEST PUSH1 0x0 DUP2 MLOAD SWAP1 POP SWAP2 SWAP1 POP JUMP JUMPDEST PUSH1 0x0 DUP3 DUP3 MSTORE PUSH1 0x20 DUP3 ADD SWAP1 POP SWAP3 SWAP2 POP POP JUMP JUMPDEST PUSH1 0x0 DUP2 SWAP1 POP PUSH1 0x20 DUP3 ADD SWAP1 POP SWAP2 SWAP1 POP JUMP JUMPDEST PUSH2 0x12D0 DUP2 PUSH2 0xEBA JUMP JUMPDEST DUP3 MSTORE POP POP JUMP JUMPDEST PUSH1 0x0 PUSH2 0x12E2 DUP4 DUP4 PUSH2 0x12C7 JUMP JUMPDEST PUSH1 0x20 DUP4 ADD SWAP1 POP SWAP3 SWAP2 POP POP JUMP JUMPDEST PUSH1 0x0 PUSH1 0x20 DUP3 ADD SWAP1 POP SWAP2 SWAP1 POP JUMP JUMPDEST PUSH1 0x0 PUSH2 0x1306 DUP3 PUSH2 0x129B JUMP JUMPDEST PUSH2 0x1310 DUP2 DUP6 PUSH2 0x12A6 JUMP JUMPDEST SWAP4 POP PUSH2 0x131B DUP4 PUSH2 0x12B7 JUMP JUMPDEST DUP1 PUSH1 0x0 JUMPDEST DUP4 DUP2 LT ISZERO PUSH2 0x134C JUMPI DUP2 MLOAD PUSH2 0x1333 DUP9 DUP3 PUSH2 0x12D6 JUMP JUMPDEST SWAP8 POP PUSH2 0x133E DUP4 PUSH2 0x12EE JUMP JUMPDEST SWAP3 POP POP PUSH1 0x1 DUP2 ADD SWAP1 POP PUSH2 0x131F JUMP JUMPDEST POP DUP6 SWAP4 POP POP POP POP SWAP3 SWAP2 POP POP JUMP JUMPDEST PUSH32 0x4E487B7100000000000000000000000000000000000000000000000000000000 PUSH1 0x0 MSTORE PUSH1 0x21 PUSH1 0x4 MSTORE PUSH1 0x24 PUSH1 0x0 REVERT JUMPDEST PUSH1 0x5 DUP2 LT PUSH2 0x1399 JUMPI PUSH2 0x1398 PUSH2 0x1359 JUMP JUMPDEST JUMPDEST POP JUMP JUMPDEST PUSH1 0x0 DUP2 SWAP1 POP PUSH2 0x13AA DUP3 PUSH2 0x1388 JUMP JUMPDEST SWAP2 SWAP1 POP JUMP JUMPDEST PUSH1 0x0 PUSH2 0x13BA DUP3 PUSH2 0x139C JUMP JUMPDEST SWAP1 POP SWAP2 SWAP1 POP JUMP JUMPDEST PUSH2 0x13CA DUP2 PUSH2 0x13AF JUMP JUMPDEST DUP3 MSTORE POP POP JUMP JUMPDEST PUSH1 0x0 PUSH1 0xE0 DUP3 ADD SWAP1 POP PUSH2 0x13E5 PUSH1 0x0 DUP4 ADD DUP11 PUSH2 0x120D JUMP JUMPDEST DUP2 DUP2 SUB PUSH1 0x20 DUP4 ADD MSTORE PUSH2 0x13F7 DUP2 DUP10 PUSH2 0x1262 JUMP JUMPDEST SWAP1 POP DUP2 DUP2 SUB PUSH1 0x40 DUP4 ADD MSTORE PUSH2 0x140B DUP2 DUP9 PUSH2 0x1262 JUMP JUMPDEST SWAP1 POP PUSH2 0x141A PUSH1 0x60 DUP4 ADD DUP8 PUSH2 0x1115 JUMP JUMPDEST PUSH2 0x1427 PUSH1 0x80 DUP4 ADD DUP7 PUSH2 0x1115 JUMP JUMPDEST DUP2 DUP2 SUB PUSH1 0xA0 DUP4 ADD MSTORE PUSH2 0x1439 DUP2 DUP6 PUSH2 0x12FB JUMP JUMPDEST SWAP1 POP PUSH2 0x1448 PUSH1 0xC0 DUP4 ADD DUP5 PUSH2 0x13C1 JUMP JUMPDEST SWAP9 SWAP8 POP POP POP POP POP POP POP POP JUMP JUMPDEST PUSH1 0x0 PUSH1 0x60 DUP3 ADD SWAP1 POP DUP2 DUP2 SUB PUSH1 0x0 DUP4 ADD MSTORE PUSH2 0x146E DUP2 DUP7 PUSH2 0x1262 JUMP JUMPDEST SWAP1 POP PUSH2 0x147D PUSH1 0x20 DUP4 ADD DUP6 PUSH2 0x13C1 JUMP JUMPDEST PUSH2 0x148A PUSH1 0x40 DUP4 ADD DUP5 PUSH2 0x120D JUMP JUMPDEST SWAP5 SWAP4 POP POP POP POP JUMP JUMPDEST PUSH32 0x50726F6A6563742077726F6B206973206E6F7420636F6D706C657465642E0000 PUSH1 0x0 DUP3 ADD MSTORE POP JUMP JUMPDEST PUSH1 0x0 PUSH2 0x14C8 PUSH1 0x1E DUP4 PUSH2 0x1227 JUMP JUMPDEST SWAP2 POP PUSH2 0x14D3 DUP3 PUSH2 0x1492 JUMP JUMPDEST PUSH1 0x20 DUP3 ADD SWAP1 POP SWAP2 SWAP1 POP JUMP JUMPDEST PUSH1 0x0 PUSH1 0x20 DUP3 ADD SWAP1 POP DUP2 DUP2 SUB PUSH1 0x0 DUP4 ADD MSTORE PUSH2 0x14F7 DUP2 PUSH2 0x14BB JUMP JUMPDEST SWAP1 POP SWAP2 SWAP1 POP JUMP JUMPDEST PUSH32 0x4E487B7100000000000000000000000000000000000000000000000000000000 PUSH1 0x0 MSTORE PUSH1 0x32 PUSH1 0x4 MSTORE PUSH1 0x24 PUSH1 0x0 REVERT JUMPDEST PUSH32 0x4E487B7100000000000000000000000000000000000000000000000000000000 PUSH1 0x0 MSTORE PUSH1 0x22 PUSH1 0x4 MSTORE PUSH1 0x24 PUSH1 0x0 REVERT JUMPDEST PUSH1 0x0 PUSH1 0x2 DUP3 DIV SWAP1 POP PUSH1 0x1 DUP3 AND DUP1 PUSH2 0x1574 JUMPI PUSH1 0x7F DUP3 AND SWAP2 POP JUMPDEST PUSH1 0x20 DUP3 LT DUP2 SUB PUSH2 0x1587 JUMPI PUSH2 0x1586 PUSH2 0x152D JUMP JUMPDEST JUMPDEST POP SWAP2 SWAP1 POP JUMP JUMPDEST PUSH1 0x0 DUP2 SWAP1 POP DUP2 PUSH1 0x0 MSTORE PUSH1 0x20 PUSH1 0x0 KECCAK256 SWAP1 POP SWAP2 SWAP1 POP JUMP JUMPDEST PUSH1 0x0 PUSH1 0x20 PUSH1 0x1F DUP4 ADD DIV SWAP1 POP SWAP2 SWAP1 POP JUMP JUMPDEST PUSH1 0x0 DUP3 DUP3 SHL SWAP1 POP SWAP3 SWAP2 POP POP JUMP JUMPDEST PUSH1 0x0 PUSH1 0x8 DUP4 MUL PUSH2 0x15EF PUSH32 0xFFFFFFFFFFFFFFFFFFFFFFFFFFFFFFFFFFFFFFFFFFFFFFFFFFFFFFFFFFFFFFFF DUP3 PUSH2 0x15B2 JUMP JUMPDEST PUSH2 0x15F9 DUP7 DUP4 PUSH2 0x15B2 JUMP JUMPDEST SWAP6 POP DUP1 NOT DUP5 AND SWAP4 POP DUP1 DUP7 AND DUP5 OR SWAP3 POP POP POP SWAP4 SWAP3 POP POP POP JUMP JUMPDEST PUSH1 0x0 DUP2 SWAP1 POP SWAP2 SWAP1 POP JUMP JUMPDEST PUSH1 0x0 PUSH2 0x1636 PUSH2 0x1631 PUSH2 0x162C DUP5 PUSH2 0xEBA JUMP JUMPDEST PUSH2 0x1611 JUMP JUMPDEST PUSH2 0xEBA JUMP JUMPDEST SWAP1 POP SWAP2 SWAP1 POP JUMP JUMPDEST PUSH1 0x0 DUP2 SWAP1 POP SWAP2 SWAP1 POP JUMP JUMPDEST PUSH2 0x1650 DUP4 PUSH2 0x161B JUMP JUMPDEST PUSH2 0x1664 PUSH2 0x165C DUP3 PUSH2 0x163D JUMP JUMPDEST DUP5 DUP5 SLOAD PUSH2 0x15BF JUMP JUMPDEST DUP3 SSTORE POP POP POP POP JUMP JUMPDEST PUSH1 0x0 SWAP1 JUMP JUMPDEST PUSH2 0x1679 PUSH2 0x166C JUMP JUMPDEST PUSH2 0x1684 DUP2 DUP5 DUP5 PUSH2 0x1647 JUMP JUMPDEST POP POP POP JUMP JUMPDEST JUMPDEST DUP2 DUP2 LT ISZERO PUSH2 0x16A8 JUMPI PUSH2 0x169D PUSH1 0x0 DUP3 PUSH2 0x1671 JUMP JUMPDEST PUSH1 0x1 DUP2 ADD SWAP1 POP PUSH2 0x168A JUMP JUMPDEST POP POP JUMP JUMPDEST PUSH1 0x1F DUP3 GT ISZERO PUSH2 0x16ED JUMPI PUSH2 0x16BE DUP2 PUSH2 0x158D JUMP JUMPDEST PUSH2 0x16C7 DUP5 PUSH2 0x15A2 JUMP JUMPDEST DUP2 ADD PUSH1 0x20 DUP6 LT ISZERO PUSH2 0x16D6 JUMPI DUP2 SWAP1 POP JUMPDEST PUSH2 0x16EA PUSH2 0x16E2 DUP6 PUSH2 0x15A2 JUMP JUMPDEST DUP4 ADD DUP3 PUSH2 0x1689 JUMP JUMPDEST POP POP JUMPDEST POP POP POP JUMP JUMPDEST PUSH1 0x0 DUP3 DUP3 SHR SWAP1 POP SWAP3 SWAP2 POP POP JUMP JUMPDEST PUSH1 0x0 PUSH2 0x1710 PUSH1 0x0 NOT DUP5 PUSH1 0x8 MUL PUSH2 0x16F2 JUMP JUMPDEST NOT DUP1 DUP4 AND SWAP2 POP POP SWAP3 SWAP2 POP POP JUMP JUMPDEST PUSH1 0x0 PUSH2 0x1729 DUP4 DUP4 PUSH2 0x16FF JUMP JUMPDEST SWAP2 POP DUP3 PUSH1 0x2 MUL DUP3 OR SWAP1 POP SWAP3 SWAP2 POP POP JUMP JUMPDEST PUSH2 0x1742 DUP3 PUSH2 0x121C JUMP JUMPDEST PUSH8 0xFFFFFFFFFFFFFFFF DUP2 GT ISZERO PUSH2 0x175B JUMPI PUSH2 0x175A PUSH2 0xF4B JUMP JUMPDEST JUMPDEST PUSH2 0x1765 DUP3 SLOAD PUSH2 0x155C JUMP JUMPDEST PUSH2 0x1770 DUP3 DUP3 DUP6 PUSH2 0x16AC JUMP JUMPDEST PUSH1 0x0 PUSH1 0x20 SWAP1 POP PUSH1 0x1F DUP4 GT PUSH1 0x1 DUP2 EQ PUSH2 0x17A3 JUMPI PUSH1 0x0 DUP5 ISZERO PUSH2 0x1791 JUMPI DUP3 DUP8 ADD MLOAD SWAP1 POP JUMPDEST PUSH2 0x179B DUP6 DUP3 PUSH2 0x171D JUMP JUMPDEST DUP7 SSTORE POP PUSH2 0x1803 JUMP JUMPDEST PUSH1 0x1F NOT DUP5 AND PUSH2 0x17B1 DUP7 PUSH2 0x158D JUMP JUMPDEST PUSH1 0x0 JUMPDEST DUP3 DUP2 LT ISZERO PUSH2 0x17D9 JUMPI DUP5 DUP10 ADD MLOAD DUP3 SSTORE PUSH1 0x1 DUP3 ADD SWAP2 POP PUSH1 0x20 DUP6 ADD SWAP5 POP PUSH1 0x20 DUP2 ADD SWAP1 POP PUSH2 0x17B4 JUMP JUMPDEST DUP7 DUP4 LT ISZERO PUSH2 0x17F6 JUMPI DUP5 DUP10 ADD MLOAD PUSH2 0x17F2 PUSH1 0x1F DUP10 AND DUP3 PUSH2 0x16FF JUMP JUMPDEST DUP4 SSTORE POP JUMPDEST PUSH1 0x1 PUSH1 0x2 DUP9 MUL ADD DUP9 SSTORE POP POP POP JUMPDEST POP POP POP POP POP POP JUMP JUMPDEST PUSH32 0x596F7520617265206E6F742073656C65637465642E0000000000000000000000 PUSH1 0x0 DUP3 ADD MSTORE POP JUMP JUMPDEST PUSH1 0x0 PUSH2 0x1841 PUSH1 0x15 DUP4 PUSH2 0x1227 JUMP JUMPDEST SWAP2 POP PUSH2 0x184C DUP3 PUSH2 0x180B JUMP JUMPDEST PUSH1 0x20 DUP3 ADD SWAP1 POP SWAP2 SWAP1 POP JUMP JUMPDEST PUSH1 0x0 PUSH1 0x20 DUP3 ADD SWAP1 POP DUP2 DUP2 SUB PUSH1 0x0 DUP4 ADD MSTORE PUSH2 0x1870 DUP2 PUSH2 0x1834 JUMP JUMPDEST SWAP1 POP SWAP2 SWAP1 POP JUMP JUMPDEST PUSH32 0x50726F6A6563742077726F6B206973206E6F742070726F7061726C7920776F72 PUSH1 0x0 DUP3 ADD MSTORE PUSH32 0x6B696E6720706C6561736520636865636B20796F757220776F726B2E00000000 PUSH1 0x20 DUP3 ADD MSTORE POP JUMP JUMPDEST PUSH1 0x0 PUSH2 0x18D3 PUSH1 0x3C DUP4 PUSH2 0x1227 JUMP JUMPDEST SWAP2 POP PUSH2 0x18DE DUP3 PUSH2 0x1877 JUMP JUMPDEST PUSH1 0x40 DUP3 ADD SWAP1 POP SWAP2 SWAP1 POP JUMP JUMPDEST PUSH1 0x0 PUSH1 0x20 DUP3 ADD SWAP1 POP DUP2 DUP2 SUB PUSH1 0x0 DUP4 ADD MSTORE PUSH2 0x1902 DUP2 PUSH2 0x18C6 JUMP JUMPDEST SWAP1 POP SWAP2 SWAP1 POP JUMP JUMPDEST PUSH32 0x50726F6A65637420616C6C6F63617465206F7468657220667265656C616E6365 PUSH1 0x0 DUP3 ADD MSTORE PUSH32 0x722E000000000000000000000000000000000000000000000000000000000000 PUSH1 0x20 DUP3 ADD MSTORE POP JUMP JUMPDEST PUSH1 0x0 PUSH2 0x1965 PUSH1 0x22 DUP4 PUSH2 0x1227 JUMP JUMPDEST SWAP2 POP PUSH2 0x1970 DUP3 PUSH2 0x1909 JUMP JUMPDEST PUSH1 0x40 DUP3 ADD SWAP1 POP SWAP2 SWAP1 POP JUMP JUMPDEST PUSH1 0x0 PUSH1 0x20 DUP3 ADD SWAP1 POP DUP2 DUP2 SUB PUSH1 0x0 DUP4 ADD MSTORE PUSH2 0x1994 DUP2 PUSH2 0x1958 JUMP JUMPDEST SWAP1 POP SWAP2 SWAP1 POP JUMP INVALID LOG2 PUSH5 0x6970667358 0x22 SLT KECCAK256 LOG2 0xBA 0xC3 0xE2 STATICCALL CHAINID 0xE3 0xBA 0xC0 PUSH6 0x5ED3C33F9BF2 0x22 DUP10 DUP5 0x26 SWAP11 SWAP8 EXTCODECOPY OR 0x2E 0xBF BALANCE DUP6 NUMBER PUSH21 0x340964736F6C634300081200330000000000000000 "
				},
				"gasEstimates": {
					"creation": {
						"codeDepositCost": "1321800",
						"executionCost": "1376",
						"totalCost": "1323176"
					},
					"external": {
						"Approve(uint256,uint256)": "infinite",
						"Payment(uint256,uint256)": "infinite",
						"Start(uint256,uint256)": "infinite",
						"TotalProjetc()": "2490",
						"client(string,string,uint256,uint256)": "infinite",
						"freelancer(uint256,uint256,string)": "infinite",
						"getClicent(uint256)": "infinite",
						"getFreelancer(uint256)": "infinite",
						"select(uint256,uint256)": "infinite"
					}
				},
				"methodIdentifiers": {
					"Approve(uint256,uint256)": "05d546ef",
					"Payment(uint256,uint256)": "7c3f9309",
					"Start(uint256,uint256)": "5a7d5f50",
					"TotalProjetc()": "33519c86",
					"client(string,string,uint256,uint256)": "09750dc1",
					"freelancer(uint256,uint256,string)": "968b1680",
					"getClicent(uint256)": "b4fed977",
					"getFreelancer(uint256)": "f6e3fb06",
					"select(uint256,uint256)": "bb9aca66"
				}
			},
			"storageLayout": {
				"storage": [
					{
						"astId": 36,
						"contract": "contracts/freelancing.sol:freelancing",
						"label": "clicents",
						"offset": 0,
						"slot": "0",
						"type": "t_array(t_struct(clientInfo)24_storage)dyn_storage"
					},
					{
						"astId": 41,
						"contract": "contracts/freelancing.sol:freelancing",
						"label": "user",
						"offset": 0,
						"slot": "1",
						"type": "t_mapping(t_uint256,t_struct(freelancerInfo)32_storage)"
					},
					{
						"astId": 44,
						"contract": "contracts/freelancing.sol:freelancing",
						"label": "client_lancer",
						"offset": 0,
						"slot": "2",
						"type": "t_array(t_uint256)dyn_storage"
					}
				],
				"types": {
					"t_address": {
						"encoding": "inplace",
						"label": "address",
						"numberOfBytes": "20"
					},
					"t_array(t_struct(clientInfo)24_storage)dyn_storage": {
						"base": "t_struct(clientInfo)24_storage",
						"encoding": "dynamic_array",
						"label": "struct freelancing.clientInfo[]",
						"numberOfBytes": "32"
					},
					"t_array(t_uint256)dyn_storage": {
						"base": "t_uint256",
						"encoding": "dynamic_array",
						"label": "uint256[]",
						"numberOfBytes": "32"
					},
					"t_enum(ScheduleState)7": {
						"encoding": "inplace",
						"label": "enum freelancing.ScheduleState",
						"numberOfBytes": "1"
					},
					"t_mapping(t_uint256,t_struct(freelancerInfo)32_storage)": {
						"encoding": "mapping",
						"key": "t_uint256",
						"label": "mapping(uint256 => struct freelancing.freelancerInfo)",
						"numberOfBytes": "32",
						"value": "t_struct(freelancerInfo)32_storage"
					},
					"t_string_storage": {
						"encoding": "bytes",
						"label": "string",
						"numberOfBytes": "32"
					},
					"t_struct(clientInfo)24_storage": {
						"encoding": "inplace",
						"label": "struct freelancing.clientInfo",
						"members": [
							{
								"astId": 9,
								"contract": "contracts/freelancing.sol:freelancing",
								"label": "p_id",
								"offset": 0,
								"slot": "0",
								"type": "t_address"
							},
							{
								"astId": 11,
								"contract": "contracts/freelancing.sol:freelancing",
								"label": "shortCode",
								"offset": 0,
								"slot": "1",
								"type": "t_string_storage"
							},
							{
								"astId": 13,
								"contract": "contracts/freelancing.sol:freelancing",
								"label": "description",
								"offset": 0,
								"slot": "2",
								"type": "t_string_storage"
							},
							{
								"astId": 15,
								"contract": "contracts/freelancing.sol:freelancing",
								"label": "p_amt",
								"offset": 0,
								"slot": "3",
								"type": "t_uint256"
							},
							{
								"astId": 17,
								"contract": "contracts/freelancing.sol:freelancing",
								"label": "time_limit",
								"offset": 0,
								"slot": "4",
								"type": "t_uint256"
							},
							{
								"astId": 20,
								"contract": "contracts/freelancing.sol:freelancing",
								"label": "freelancer_id",
								"offset": 0,
								"slot": "5",
								"type": "t_array(t_uint256)dyn_storage"
							},
							{
								"astId": 23,
								"contract": "contracts/freelancing.sol:freelancing",
								"label": "scheduleState",
								"offset": 0,
								"slot": "6",
								"type": "t_enum(ScheduleState)7"
							}
						],
						"numberOfBytes": "224"
					},
					"t_struct(freelancerInfo)32_storage": {
						"encoding": "inplace",
						"label": "struct freelancing.freelancerInfo",
						"members": [
							{
								"astId": 26,
								"contract": "contracts/freelancing.sol:freelancing",
								"label": "lancer_add",
								"offset": 0,
								"slot": "0",
								"type": "t_address"
							},
							{
								"astId": 28,
								"contract": "contracts/freelancing.sol:freelancing",
								"label": "bid_desc",
								"offset": 0,
								"slot": "1",
								"type": "t_string_storage"
							},
							{
								"astId": 31,
								"contract": "contracts/freelancing.sol:freelancing",
								"label": "scheduleState",
								"offset": 0,
								"slot": "2",
								"type": "t_enum(ScheduleState)7"
							}
						],
						"numberOfBytes": "96"
					},
					"t_uint256": {
						"encoding": "inplace",
						"label": "uint256",
						"numberOfBytes": "32"
					}
				}
			},
			"userdoc": {
				"kind": "user",
				"methods": {},
				"version": 1
			}
		}
	}
}