{
	"contracts/event_org.sol": {
		"eventorg": {
			"abi": [
				{
					"inputs": [
						{
							"internalType": "uint256",
							"name": "eventid",
							"type": "uint256"
						},
						{
							"internalType": "string",
							"name": "organiser",
							"type": "string"
						},
						{
							"internalType": "string",
							"name": "eventname",
							"type": "string"
						},
						{
							"internalType": "uint256",
							"name": "eventticket",
							"type": "uint256"
						},
						{
							"internalType": "string",
							"name": "evnetcity",
							"type": "string"
						},
						{
							"internalType": "uint256",
							"name": "eventfee",
							"type": "uint256"
						}
					],
					"name": "CreateEvent",
					"outputs": [],
					"stateMutability": "nonpayable",
					"type": "function"
				},
				{
					"inputs": [
						{
							"internalType": "uint256",
							"name": "",
							"type": "uint256"
						}
					],
					"name": "eventData",
					"outputs": [
						{
							"internalType": "string",
							"name": "organiser",
							"type": "string"
						},
						{
							"internalType": "string",
							"name": "eventname",
							"type": "string"
						},
						{
							"internalType": "uint256",
							"name": "eventdate",
							"type": "uint256"
						},
						{
							"internalType": "uint256",
							"name": "eventticket",
							"type": "uint256"
						},
						{
							"internalType": "uint256",
							"name": "eventRemticket",
							"type": "uint256"
						},
						{
							"internalType": "string",
							"name": "evnetcity",
							"type": "string"
						},
						{
							"internalType": "uint256",
							"name": "eventfee",
							"type": "uint256"
						}
					],
					"stateMutability": "view",
					"type": "function"
				},
				{
					"inputs": [],
					"name": "getPurAmount",
					"outputs": [
						{
							"internalType": "uint256",
							"name": "",
							"type": "uint256"
						}
					],
					"stateMutability": "view",
					"type": "function"
				},
				{
					"inputs": [
						{
							"internalType": "uint256",
							"name": "eventid",
							"type": "uint256"
						},
						{
							"internalType": "uint256",
							"name": "ticket",
							"type": "uint256"
						}
					],
					"name": "joinEvent",
					"outputs": [],
					"stateMutability": "payable",
					"type": "function"
				},
				{
					"inputs": [
						{
							"internalType": "address payable",
							"name": "traUser",
							"type": "address"
						}
					],
					"name": "paymentTra",
					"outputs": [],
					"stateMutability": "payable",
					"type": "function"
				},
				{
					"inputs": [
						{
							"internalType": "address",
							"name": "",
							"type": "address"
						},
						{
							"internalType": "uint256",
							"name": "",
							"type": "uint256"
						}
					],
					"name": "tickets",
					"outputs": [
						{
							"internalType": "uint256",
							"name": "",
							"type": "uint256"
						}
					],
					"stateMutability": "view",
					"type": "function"
				},
				{
					"inputs": [
						{
							"internalType": "address payable",
							"name": "traUser",
							"type": "address"
						},
						{
							"internalType": "uint256",
							"name": "traEvent",
							"type": "uint256"
						},
						{
							"internalType": "uint256",
							"name": "traTicket",
							"type": "uint256"
						}
					],
					"name": "traticket",
					"outputs": [],
					"stateMutability": "payable",
					"type": "function"
				}
			],
			"devdoc": {
				"kind": "dev",
				"methods": {},
				"version": 1
			},
			"evm": {
				"assembly": "    /* \"contracts/event_org.sol\":71:5299  contract eventorg {... */\n  mstore(0x40, 0x80)\n  callvalue\n  dup1\n  iszero\n  tag_1\n  jumpi\n  0x00\n  dup1\n  revert\ntag_1:\n  pop\n  dataSize(sub_0)\n  dup1\n  dataOffset(sub_0)\n  0x00\n  codecopy\n  0x00\n  return\nstop\n\nsub_0: assembly {\n        /* \"contracts/event_org.sol\":71:5299  contract eventorg {... */\n      mstore(0x40, 0x80)\n      jumpi(tag_1, lt(calldatasize, 0x04))\n      shr(0xe0, calldataload(0x00))\n      dup1\n      0xb824fbf0\n      gt\n      tag_9\n      jumpi\n      dup1\n      0xb824fbf0\n      eq\n      tag_5\n      jumpi\n      dup1\n      0xc3321363\n      eq\n      tag_6\n      jumpi\n      dup1\n      0xdae7a13c\n      eq\n      tag_7\n      jumpi\n      dup1\n      0xf4533749\n      eq\n      tag_8\n      jumpi\n      jump(tag_1)\n    tag_9:\n      dup1\n      0x2e828d72\n      eq\n      tag_2\n      jumpi\n      dup1\n      0x6a1e5f80\n      eq\n      tag_3\n      jumpi\n      dup1\n      0x81c2adc0\n      eq\n      tag_4\n      jumpi\n    tag_1:\n      0x00\n      dup1\n      revert\n        /* \"contracts/event_org.sol\":3840:4362  function traticket(address payable traUser, uint traEvent, uint traTicket) public payable{... */\n    tag_2:\n      tag_10\n      0x04\n      dup1\n      calldatasize\n      sub\n      dup2\n      add\n      swap1\n      tag_11\n      swap2\n      swap1\n      tag_12\n      jump\t// in\n    tag_11:\n      tag_13\n      jump\t// in\n    tag_10:\n      stop\n        /* \"contracts/event_org.sol\":4368:4471  function paymentTra(address payable traUser) public payable{... */\n    tag_3:\n      tag_14\n      0x04\n      dup1\n      calldatasize\n      sub\n      dup2\n      add\n      swap1\n      tag_15\n      swap2\n      swap1\n      tag_16\n      jump\t// in\n    tag_15:\n      tag_17\n      jump\t// in\n    tag_14:\n      stop\n        /* \"contracts/event_org.sol\":2954:3049  function getPurAmount() public view returns(uint) {... */\n    tag_4:\n      callvalue\n      dup1\n      iszero\n      tag_18\n      jumpi\n      0x00\n      dup1\n      revert\n    tag_18:\n      pop\n      tag_19\n      tag_20\n      jump\t// in\n    tag_19:\n      mload(0x40)\n      tag_21\n      swap2\n      swap1\n      tag_22\n      jump\t// in\n    tag_21:\n      mload(0x40)\n      dup1\n      swap2\n      sub\n      swap1\n      return\n        /* \"contracts/event_org.sol\":810:1662  function CreateEvent(... */\n    tag_5:\n      callvalue\n      dup1\n      iszero\n      tag_23\n      jumpi\n      0x00\n      dup1\n      revert\n    tag_23:\n      pop\n      tag_24\n      0x04\n      dup1\n      calldatasize\n      sub\n      dup2\n      add\n      swap1\n      tag_25\n      swap2\n      swap1\n      tag_26\n      jump\t// in\n    tag_25:\n      tag_27\n      jump\t// in\n    tag_24:\n      stop\n        /* \"contracts/event_org.sol\":757:803  mapping(uint256 => eventInfo) public eventData */\n    tag_6:\n      callvalue\n      dup1\n      iszero\n      tag_28\n      jumpi\n      0x00\n      dup1\n      revert\n    tag_28:\n      pop\n      tag_29\n      0x04\n      dup1\n      calldatasize\n      sub\n      dup2\n      add\n      swap1\n      tag_30\n      swap2\n      swap1\n      tag_31\n      jump\t// in\n    tag_30:\n      tag_32\n      jump\t// in\n    tag_29:\n      mload(0x40)\n      tag_33\n      swap8\n      swap7\n      swap6\n      swap5\n      swap4\n      swap3\n      swap2\n      swap1\n      tag_34\n      jump\t// in\n    tag_33:\n      mload(0x40)\n      dup1\n      swap2\n      sub\n      swap1\n      return\n        /* \"contracts/event_org.sol\":1746:1803  mapping(address => mapping (uint => uint)) public tickets */\n    tag_7:\n      callvalue\n      dup1\n      iszero\n      tag_35\n      jumpi\n      0x00\n      dup1\n      revert\n    tag_35:\n      pop\n      tag_36\n      0x04\n      dup1\n      calldatasize\n      sub\n      dup2\n      add\n      swap1\n      tag_37\n      swap2\n      swap1\n      tag_38\n      jump\t// in\n    tag_37:\n      tag_39\n      jump\t// in\n    tag_36:\n      mload(0x40)\n      tag_40\n      swap2\n      swap1\n      tag_22\n      jump\t// in\n    tag_40:\n      mload(0x40)\n      dup1\n      swap2\n      sub\n      swap1\n      return\n        /* \"contracts/event_org.sol\":2289:2948  function joinEvent(uint eventid, uint ticket) public payable {... */\n    tag_8:\n      tag_41\n      0x04\n      dup1\n      calldatasize\n      sub\n      dup2\n      add\n      swap1\n      tag_42\n      swap2\n      swap1\n      tag_43\n      jump\t// in\n    tag_42:\n      tag_44\n      jump\t// in\n    tag_41:\n      stop\n        /* \"contracts/event_org.sol\":3840:4362  function traticket(address payable traUser, uint traEvent, uint traTicket) public payable{... */\n    tag_13:\n        /* \"contracts/event_org.sol\":3939:3953  uint tra_e_fee */\n      0x00\n        /* \"contracts/event_org.sol\":3956:3965  eventData */\n      0x01\n        /* \"contracts/event_org.sol\":3956:3975  eventData[traEvent] */\n      0x00\n        /* \"contracts/event_org.sol\":3966:3974  traEvent */\n      dup5\n        /* \"contracts/event_org.sol\":3956:3975  eventData[traEvent] */\n      dup2\n      mstore\n      0x20\n      add\n      swap1\n      dup2\n      mstore\n      0x20\n      add\n      0x00\n      keccak256\n        /* \"contracts/event_org.sol\":3956:3984  eventData[traEvent].eventfee */\n      0x06\n      add\n      sload\n        /* \"contracts/event_org.sol\":3939:3984  uint tra_e_fee = eventData[traEvent].eventfee */\n      swap1\n      pop\n        /* \"contracts/event_org.sol\":4027:4036  msg.value */\n      callvalue\n        /* \"contracts/event_org.sol\":4014:4023  traTicket */\n      dup3\n        /* \"contracts/event_org.sol\":4002:4011  tra_e_fee */\n      dup3\n        /* \"contracts/event_org.sol\":4002:4023  tra_e_fee * traTicket */\n      tag_46\n      swap2\n      swap1\n      tag_47\n      jump\t// in\n    tag_46:\n        /* \"contracts/event_org.sol\":4002:4036  tra_e_fee * traTicket == msg.value */\n      eq\n        /* \"contracts/event_org.sol\":3994:4058  require(tra_e_fee * traTicket == msg.value,\"Fees Not full pay.\") */\n      tag_48\n      jumpi\n      mload(0x40)\n      0x08c379a000000000000000000000000000000000000000000000000000000000\n      dup2\n      mstore\n      0x04\n      add\n      tag_49\n      swap1\n      tag_50\n      jump\t// in\n    tag_49:\n      mload(0x40)\n      dup1\n      swap2\n      sub\n      swap1\n      revert\n    tag_48:\n        /* \"contracts/event_org.sol\":4110:4119  traTicket */\n      dup2\n        /* \"contracts/event_org.sol\":4077:4084  tickets */\n      0x02\n        /* \"contracts/event_org.sol\":4077:4096  tickets[msg.sender] */\n      0x00\n        /* \"contracts/event_org.sol\":4085:4095  msg.sender */\n      caller\n        /* \"contracts/event_org.sol\":4077:4096  tickets[msg.sender] */\n      0xffffffffffffffffffffffffffffffffffffffff\n      and\n      0xffffffffffffffffffffffffffffffffffffffff\n      and\n      dup2\n      mstore\n      0x20\n      add\n      swap1\n      dup2\n      mstore\n      0x20\n      add\n      0x00\n      keccak256\n        /* \"contracts/event_org.sol\":4077:4106  tickets[msg.sender][traEvent] */\n      0x00\n        /* \"contracts/event_org.sol\":4097:4105  traEvent */\n      dup6\n        /* \"contracts/event_org.sol\":4077:4106  tickets[msg.sender][traEvent] */\n      dup2\n      mstore\n      0x20\n      add\n      swap1\n      dup2\n      mstore\n      0x20\n      add\n      0x00\n      keccak256\n      0x00\n        /* \"contracts/event_org.sol\":4077:4119  tickets[msg.sender][traEvent] -= traTicket */\n      dup3\n      dup3\n      sload\n      tag_51\n      swap2\n      swap1\n      tag_52\n      jump\t// in\n    tag_51:\n      swap3\n      pop\n      pop\n      dup2\n      swap1\n      sstore\n      pop\n        /* \"contracts/event_org.sol\":4162:4163  0 */\n      0x00\n        /* \"contracts/event_org.sol\":4132:4139  tickets */\n      0x02\n        /* \"contracts/event_org.sol\":4132:4148  tickets[traUser] */\n      0x00\n        /* \"contracts/event_org.sol\":4140:4147  traUser */\n      dup7\n        /* \"contracts/event_org.sol\":4132:4148  tickets[traUser] */\n      0xffffffffffffffffffffffffffffffffffffffff\n      and\n      0xffffffffffffffffffffffffffffffffffffffff\n      and\n      dup2\n      mstore\n      0x20\n      add\n      swap1\n      dup2\n      mstore\n      0x20\n      add\n      0x00\n      keccak256\n        /* \"contracts/event_org.sol\":4132:4158  tickets[traUser][traEvent] */\n      0x00\n        /* \"contracts/event_org.sol\":4149:4157  traEvent */\n      dup6\n        /* \"contracts/event_org.sol\":4132:4158  tickets[traUser][traEvent] */\n      dup2\n      mstore\n      0x20\n      add\n      swap1\n      dup2\n      mstore\n      0x20\n      add\n      0x00\n      keccak256\n      sload\n        /* \"contracts/event_org.sol\":4132:4163  tickets[traUser][traEvent] == 0 */\n      sub\n        /* \"contracts/event_org.sol\":4129:4298  if(tickets[traUser][traEvent] == 0) {... */\n      tag_53\n      jumpi\n        /* \"contracts/event_org.sol\":4208:4217  traTicket */\n      dup2\n        /* \"contracts/event_org.sol\":4179:4186  tickets */\n      0x02\n        /* \"contracts/event_org.sol\":4179:4195  tickets[traUser] */\n      0x00\n        /* \"contracts/event_org.sol\":4187:4194  traUser */\n      dup7\n        /* \"contracts/event_org.sol\":4179:4195  tickets[traUser] */\n      0xffffffffffffffffffffffffffffffffffffffff\n      and\n      0xffffffffffffffffffffffffffffffffffffffff\n      and\n      dup2\n      mstore\n      0x20\n      add\n      swap1\n      dup2\n      mstore\n      0x20\n      add\n      0x00\n      keccak256\n        /* \"contracts/event_org.sol\":4179:4205  tickets[traUser][traEvent] */\n      0x00\n        /* \"contracts/event_org.sol\":4196:4204  traEvent */\n      dup6\n        /* \"contracts/event_org.sol\":4179:4205  tickets[traUser][traEvent] */\n      dup2\n      mstore\n      0x20\n      add\n      swap1\n      dup2\n      mstore\n      0x20\n      add\n      0x00\n      keccak256\n        /* \"contracts/event_org.sol\":4179:4217  tickets[traUser][traEvent] = traTicket */\n      dup2\n      swap1\n      sstore\n      pop\n        /* \"contracts/event_org.sol\":4129:4298  if(tickets[traUser][traEvent] == 0) {... */\n      jump(tag_54)\n    tag_53:\n        /* \"contracts/event_org.sol\":4278:4287  traTicket */\n      dup2\n        /* \"contracts/event_org.sol\":4248:4255  tickets */\n      0x02\n        /* \"contracts/event_org.sol\":4248:4264  tickets[traUser] */\n      0x00\n        /* \"contracts/event_org.sol\":4256:4263  traUser */\n      dup7\n        /* \"contracts/event_org.sol\":4248:4264  tickets[traUser] */\n      0xffffffffffffffffffffffffffffffffffffffff\n      and\n      0xffffffffffffffffffffffffffffffffffffffff\n      and\n      dup2\n      mstore\n      0x20\n      add\n      swap1\n      dup2\n      mstore\n      0x20\n      add\n      0x00\n      keccak256\n        /* \"contracts/event_org.sol\":4248:4274  tickets[traUser][traEvent] */\n      0x00\n        /* \"contracts/event_org.sol\":4265:4273  traEvent */\n      dup6\n        /* \"contracts/event_org.sol\":4248:4274  tickets[traUser][traEvent] */\n      dup2\n      mstore\n      0x20\n      add\n      swap1\n      dup2\n      mstore\n      0x20\n      add\n      0x00\n      keccak256\n      0x00\n        /* \"contracts/event_org.sol\":4248:4287  tickets[traUser][traEvent] += traTicket */\n      dup3\n      dup3\n      sload\n      tag_55\n      swap2\n      swap1\n      tag_56\n      jump\t// in\n    tag_55:\n      swap3\n      pop\n      pop\n      dup2\n      swap1\n      sstore\n      pop\n        /* \"contracts/event_org.sol\":4129:4298  if(tickets[traUser][traEvent] == 0) {... */\n    tag_54:\n        /* \"contracts/event_org.sol\":4316:4323  traUser */\n      dup4\n        /* \"contracts/event_org.sol\":4316:4332  traUser.transfer */\n      0xffffffffffffffffffffffffffffffffffffffff\n      and\n        /* \"contracts/event_org.sol\":4316:4355  traUser.transfer(tra_e_fee * traTicket) */\n      0x08fc\n        /* \"contracts/event_org.sol\":4345:4354  traTicket */\n      dup4\n        /* \"contracts/event_org.sol\":4333:4342  tra_e_fee */\n      dup4\n        /* \"contracts/event_org.sol\":4333:4354  tra_e_fee * traTicket */\n      tag_57\n      swap2\n      swap1\n      tag_47\n      jump\t// in\n    tag_57:\n        /* \"contracts/event_org.sol\":4316:4355  traUser.transfer(tra_e_fee * traTicket) */\n      swap1\n      dup2\n      iszero\n      mul\n      swap1\n      mload(0x40)\n      0x00\n      mload(0x40)\n      dup1\n      dup4\n      sub\n      dup2\n      dup6\n      dup9\n      dup9\n      call\n      swap4\n      pop\n      pop\n      pop\n      pop\n      iszero\n      dup1\n      iszero\n      tag_59\n      jumpi\n      returndatasize\n      0x00\n      dup1\n      returndatacopy\n      revert(0x00, returndatasize)\n    tag_59:\n      pop\n        /* \"contracts/event_org.sol\":3929:4362  {... */\n      pop\n        /* \"contracts/event_org.sol\":3840:4362  function traticket(address payable traUser, uint traEvent, uint traTicket) public payable{... */\n      pop\n      pop\n      pop\n      jump\t// out\n        /* \"contracts/event_org.sol\":4368:4471  function paymentTra(address payable traUser) public payable{... */\n    tag_17:\n        /* \"contracts/event_org.sol\":4437:4444  traUser */\n      dup1\n        /* \"contracts/event_org.sol\":4437:4453  traUser.transfer */\n      0xffffffffffffffffffffffffffffffffffffffff\n      and\n        /* \"contracts/event_org.sol\":4437:4464  traUser.transfer(msg.value) */\n      0x08fc\n        /* \"contracts/event_org.sol\":4454:4463  msg.value */\n      callvalue\n        /* \"contracts/event_org.sol\":4437:4464  traUser.transfer(msg.value) */\n      swap1\n      dup2\n      iszero\n      mul\n      swap1\n      mload(0x40)\n      0x00\n      mload(0x40)\n      dup1\n      dup4\n      sub\n      dup2\n      dup6\n      dup9\n      dup9\n      call\n      swap4\n      pop\n      pop\n      pop\n      pop\n      iszero\n      dup1\n      iszero\n      tag_62\n      jumpi\n      returndatasize\n      0x00\n      dup1\n      returndatacopy\n      revert(0x00, returndatasize)\n    tag_62:\n      pop\n        /* \"contracts/event_org.sol\":4368:4471  function paymentTra(address payable traUser) public payable{... */\n      pop\n      jump\t// out\n        /* \"contracts/event_org.sol\":2954:3049  function getPurAmount() public view returns(uint) {... */\n    tag_20:\n        /* \"contracts/event_org.sol\":2998:3002  uint */\n      0x00\n        /* \"contracts/event_org.sol\":3021:3042  address(this).balance */\n      selfbalance\n        /* \"contracts/event_org.sol\":3014:3042  return address(this).balance */\n      swap1\n      pop\n        /* \"contracts/event_org.sol\":2954:3049  function getPurAmount() public view returns(uint) {... */\n      swap1\n      jump\t// out\n        /* \"contracts/event_org.sol\":810:1662  function CreateEvent(... */\n    tag_27:\n        /* \"contracts/event_org.sol\":1033:1047  uint ev_ticket */\n      0x00\n        /* \"contracts/event_org.sol\":1050:1059  eventData */\n      0x01\n        /* \"contracts/event_org.sol\":1050:1068  eventData[eventid] */\n      0x00\n        /* \"contracts/event_org.sol\":1060:1067  eventid */\n      dup9\n        /* \"contracts/event_org.sol\":1050:1068  eventData[eventid] */\n      dup2\n      mstore\n      0x20\n      add\n      swap1\n      dup2\n      mstore\n      0x20\n      add\n      0x00\n      keccak256\n        /* \"contracts/event_org.sol\":1050:1080  eventData[eventid].eventticket */\n      0x03\n      add\n      sload\n        /* \"contracts/event_org.sol\":1033:1080  uint ev_ticket = eventData[eventid].eventticket */\n      swap1\n      pop\n        /* \"contracts/event_org.sol\":1090:1104  uint rm_ticket */\n      0x00\n        /* \"contracts/event_org.sol\":1131:1132  0 */\n      dup1\n        /* \"contracts/event_org.sol\":1118:1127  ev_ticket */\n      dup3\n        /* \"contracts/event_org.sol\":1118:1132  ev_ticket != 0 */\n      eq\n        /* \"contracts/event_org.sol\":1115:1298  if(ev_ticket != 0){... */\n      tag_65\n      jumpi\n        /* \"contracts/event_org.sol\":1159:1170  eventticket */\n      dup5\n        /* \"contracts/event_org.sol\":1147:1170  rm_ticket = eventticket */\n      swap1\n      pop\n        /* \"contracts/event_org.sol\":1199:1208  ev_ticket */\n      dup2\n        /* \"contracts/event_org.sol\":1184:1208  eventticket += ev_ticket */\n      dup6\n      tag_66\n      swap2\n      swap1\n      tag_56\n      jump\t// in\n    tag_66:\n      swap5\n      pop\n        /* \"contracts/event_org.sol\":1115:1298  if(ev_ticket != 0){... */\n      jump(tag_67)\n    tag_65:\n        /* \"contracts/event_org.sol\":1276:1287  eventticket */\n      dup5\n        /* \"contracts/event_org.sol\":1264:1287  rm_ticket = eventticket */\n      swap1\n      pop\n        /* \"contracts/event_org.sol\":1115:1298  if(ev_ticket != 0){... */\n    tag_67:\n        /* \"contracts/event_org.sol\":1308:1330  uint256 eventremticket */\n      0x00\n        /* \"contracts/event_org.sol\":1333:1342  rm_ticket */\n      dup2\n        /* \"contracts/event_org.sol\":1308:1342  uint256 eventremticket = rm_ticket */\n      swap1\n      pop\n        /* \"contracts/event_org.sol\":1352:1368  uint256 timetamp */\n      0x00\n        /* \"contracts/event_org.sol\":1371:1386  block.timestamp */\n      timestamp\n        /* \"contracts/event_org.sol\":1352:1386  uint256 timetamp = block.timestamp */\n      swap1\n      pop\n        /* \"contracts/event_org.sol\":1417:1602  eventInfo(... */\n      mload(0x40)\n      dup1\n      0xe0\n      add\n      0x40\n      mstore\n      dup1\n        /* \"contracts/event_org.sol\":1440:1449  organiser */\n      dup11\n        /* \"contracts/event_org.sol\":1417:1602  eventInfo(... */\n      dup2\n      mstore\n      0x20\n      add\n        /* \"contracts/event_org.sol\":1463:1472  eventname */\n      dup10\n        /* \"contracts/event_org.sol\":1417:1602  eventInfo(... */\n      dup2\n      mstore\n      0x20\n      add\n        /* \"contracts/event_org.sol\":1486:1494  timetamp */\n      dup3\n        /* \"contracts/event_org.sol\":1417:1602  eventInfo(... */\n      dup2\n      mstore\n      0x20\n      add\n        /* \"contracts/event_org.sol\":1508:1519  eventticket */\n      dup9\n        /* \"contracts/event_org.sol\":1417:1602  eventInfo(... */\n      dup2\n      mstore\n      0x20\n      add\n        /* \"contracts/event_org.sol\":1533:1547  eventremticket */\n      dup4\n        /* \"contracts/event_org.sol\":1417:1602  eventInfo(... */\n      dup2\n      mstore\n      0x20\n      add\n        /* \"contracts/event_org.sol\":1561:1570  evnetcity */\n      dup8\n        /* \"contracts/event_org.sol\":1417:1602  eventInfo(... */\n      dup2\n      mstore\n      0x20\n      add\n        /* \"contracts/event_org.sol\":1584:1592  eventfee */\n      dup7\n        /* \"contracts/event_org.sol\":1417:1602  eventInfo(... */\n      dup2\n      mstore\n      pop\n        /* \"contracts/event_org.sol\":1396:1405  eventData */\n      0x01\n        /* \"contracts/event_org.sol\":1396:1414  eventData[eventid] */\n      0x00\n        /* \"contracts/event_org.sol\":1406:1413  eventid */\n      dup13\n        /* \"contracts/event_org.sol\":1396:1414  eventData[eventid] */\n      dup2\n      mstore\n      0x20\n      add\n      swap1\n      dup2\n      mstore\n      0x20\n      add\n      0x00\n      keccak256\n        /* \"contracts/event_org.sol\":1396:1602  eventData[eventid] = eventInfo(... */\n      0x00\n      dup3\n      add\n      mload\n      dup2\n      0x00\n      add\n      swap1\n      dup2\n      tag_68\n      swap2\n      swap1\n      tag_69\n      jump\t// in\n    tag_68:\n      pop\n      0x20\n      dup3\n      add\n      mload\n      dup2\n      0x01\n      add\n      swap1\n      dup2\n      tag_70\n      swap2\n      swap1\n      tag_69\n      jump\t// in\n    tag_70:\n      pop\n      0x40\n      dup3\n      add\n      mload\n      dup2\n      0x02\n      add\n      sstore\n      0x60\n      dup3\n      add\n      mload\n      dup2\n      0x03\n      add\n      sstore\n      0x80\n      dup3\n      add\n      mload\n      dup2\n      0x04\n      add\n      sstore\n      0xa0\n      dup3\n      add\n      mload\n      dup2\n      0x05\n      add\n      swap1\n      dup2\n      tag_71\n      swap2\n      swap1\n      tag_69\n      jump\t// in\n    tag_71:\n      pop\n      0xc0\n      dup3\n      add\n      mload\n      dup2\n      0x06\n      add\n      sstore\n      swap1\n      pop\n      pop\n        /* \"contracts/event_org.sol\":1023:1662  {... */\n      pop\n      pop\n      pop\n      pop\n        /* \"contracts/event_org.sol\":810:1662  function CreateEvent(... */\n      pop\n      pop\n      pop\n      pop\n      pop\n      pop\n      jump\t// out\n        /* \"contracts/event_org.sol\":757:803  mapping(uint256 => eventInfo) public eventData */\n    tag_32:\n      mstore(0x20, 0x01)\n      dup1\n      0x00\n      mstore\n      keccak256(0x00, 0x40)\n      0x00\n      swap2\n      pop\n      swap1\n      pop\n      dup1\n      0x00\n      add\n      dup1\n      sload\n      tag_72\n      swap1\n      tag_73\n      jump\t// in\n    tag_72:\n      dup1\n      0x1f\n      add\n      0x20\n      dup1\n      swap2\n      div\n      mul\n      0x20\n      add\n      mload(0x40)\n      swap1\n      dup2\n      add\n      0x40\n      mstore\n      dup1\n      swap3\n      swap2\n      swap1\n      dup2\n      dup2\n      mstore\n      0x20\n      add\n      dup3\n      dup1\n      sload\n      tag_74\n      swap1\n      tag_73\n      jump\t// in\n    tag_74:\n      dup1\n      iszero\n      tag_75\n      jumpi\n      dup1\n      0x1f\n      lt\n      tag_76\n      jumpi\n      0x0100\n      dup1\n      dup4\n      sload\n      div\n      mul\n      dup4\n      mstore\n      swap2\n      0x20\n      add\n      swap2\n      jump(tag_75)\n    tag_76:\n      dup3\n      add\n      swap2\n      swap1\n      0x00\n      mstore\n      keccak256(0x00, 0x20)\n      swap1\n    tag_77:\n      dup2\n      sload\n      dup2\n      mstore\n      swap1\n      0x01\n      add\n      swap1\n      0x20\n      add\n      dup1\n      dup4\n      gt\n      tag_77\n      jumpi\n      dup3\n      swap1\n      sub\n      0x1f\n      and\n      dup3\n      add\n      swap2\n    tag_75:\n      pop\n      pop\n      pop\n      pop\n      pop\n      swap1\n      dup1\n      0x01\n      add\n      dup1\n      sload\n      tag_78\n      swap1\n      tag_73\n      jump\t// in\n    tag_78:\n      dup1\n      0x1f\n      add\n      0x20\n      dup1\n      swap2\n      div\n      mul\n      0x20\n      add\n      mload(0x40)\n      swap1\n      dup2\n      add\n      0x40\n      mstore\n      dup1\n      swap3\n      swap2\n      swap1\n      dup2\n      dup2\n      mstore\n      0x20\n      add\n      dup3\n      dup1\n      sload\n      tag_79\n      swap1\n      tag_73\n      jump\t// in\n    tag_79:\n      dup1\n      iszero\n      tag_80\n      jumpi\n      dup1\n      0x1f\n      lt\n      tag_81\n      jumpi\n      0x0100\n      dup1\n      dup4\n      sload\n      div\n      mul\n      dup4\n      mstore\n      swap2\n      0x20\n      add\n      swap2\n      jump(tag_80)\n    tag_81:\n      dup3\n      add\n      swap2\n      swap1\n      0x00\n      mstore\n      keccak256(0x00, 0x20)\n      swap1\n    tag_82:\n      dup2\n      sload\n      dup2\n      mstore\n      swap1\n      0x01\n      add\n      swap1\n      0x20\n      add\n      dup1\n      dup4\n      gt\n      tag_82\n      jumpi\n      dup3\n      swap1\n      sub\n      0x1f\n      and\n      dup3\n      add\n      swap2\n    tag_80:\n      pop\n      pop\n      pop\n      pop\n      pop\n      swap1\n      dup1\n      0x02\n      add\n      sload\n      swap1\n      dup1\n      0x03\n      add\n      sload\n      swap1\n      dup1\n      0x04\n      add\n      sload\n      swap1\n      dup1\n      0x05\n      add\n      dup1\n      sload\n      tag_83\n      swap1\n      tag_73\n      jump\t// in\n    tag_83:\n      dup1\n      0x1f\n      add\n      0x20\n      dup1\n      swap2\n      div\n      mul\n      0x20\n      add\n      mload(0x40)\n      swap1\n      dup2\n      add\n      0x40\n      mstore\n      dup1\n      swap3\n      swap2\n      swap1\n      dup2\n      dup2\n      mstore\n      0x20\n      add\n      dup3\n      dup1\n      sload\n      tag_84\n      swap1\n      tag_73\n      jump\t// in\n    tag_84:\n      dup1\n      iszero\n      tag_85\n      jumpi\n      dup1\n      0x1f\n      lt\n      tag_86\n      jumpi\n      0x0100\n      dup1\n      dup4\n      sload\n      div\n      mul\n      dup4\n      mstore\n      swap2\n      0x20\n      add\n      swap2\n      jump(tag_85)\n    tag_86:\n      dup3\n      add\n      swap2\n      swap1\n      0x00\n      mstore\n      keccak256(0x00, 0x20)\n      swap1\n    tag_87:\n      dup2\n      sload\n      dup2\n      mstore\n      swap1\n      0x01\n      add\n      swap1\n      0x20\n      add\n      dup1\n      dup4\n      gt\n      tag_87\n      jumpi\n      dup3\n      swap1\n      sub\n      0x1f\n      and\n      dup3\n      add\n      swap2\n    tag_85:\n      pop\n      pop\n      pop\n      pop\n      pop\n      swap1\n      dup1\n      0x06\n      add\n      sload\n      swap1\n      pop\n      dup8\n      jump\t// out\n        /* \"contracts/event_org.sol\":1746:1803  mapping(address => mapping (uint => uint)) public tickets */\n    tag_39:\n      mstore(0x20, 0x02)\n      dup2\n      0x00\n      mstore\n      mstore(0x20, keccak256(0x00, 0x40))\n      dup1\n      0x00\n      mstore\n      keccak256(0x00, 0x40)\n      0x00\n      swap2\n      pop\n      swap2\n      pop\n      pop\n      sload\n      dup2\n      jump\t// out\n        /* \"contracts/event_org.sol\":2289:2948  function joinEvent(uint eventid, uint ticket) public payable {... */\n    tag_44:\n        /* \"contracts/event_org.sol\":2360:2370  uint e_fee */\n      0x00\n        /* \"contracts/event_org.sol\":2373:2382  eventData */\n      0x01\n        /* \"contracts/event_org.sol\":2373:2391  eventData[eventid] */\n      0x00\n        /* \"contracts/event_org.sol\":2383:2390  eventid */\n      dup5\n        /* \"contracts/event_org.sol\":2373:2391  eventData[eventid] */\n      dup2\n      mstore\n      0x20\n      add\n      swap1\n      dup2\n      mstore\n      0x20\n      add\n      0x00\n      keccak256\n        /* \"contracts/event_org.sol\":2373:2400  eventData[eventid].eventfee */\n      0x06\n      add\n      sload\n        /* \"contracts/event_org.sol\":2360:2400  uint e_fee = eventData[eventid].eventfee */\n      swap1\n      pop\n        /* \"contracts/event_org.sol\":2410:2424  uint rm_ticket */\n      0x00\n        /* \"contracts/event_org.sol\":2427:2436  eventData */\n      0x01\n        /* \"contracts/event_org.sol\":2427:2445  eventData[eventid] */\n      0x00\n        /* \"contracts/event_org.sol\":2437:2444  eventid */\n      dup6\n        /* \"contracts/event_org.sol\":2427:2445  eventData[eventid] */\n      dup2\n      mstore\n      0x20\n      add\n      swap1\n      dup2\n      mstore\n      0x20\n      add\n      0x00\n      keccak256\n        /* \"contracts/event_org.sol\":2427:2460  eventData[eventid].eventRemticket */\n      0x04\n      add\n      sload\n        /* \"contracts/event_org.sol\":2410:2460  uint rm_ticket = eventData[eventid].eventRemticket */\n      swap1\n      pop\n        /* \"contracts/event_org.sol\":2491:2492  0 */\n      0x00\n        /* \"contracts/event_org.sol\":2478:2487  rm_ticket */\n      dup2\n        /* \"contracts/event_org.sol\":2478:2492  rm_ticket != 0 */\n      sub\n        /* \"contracts/event_org.sol\":2470:2516  require(rm_ticket != 0, \"Event Sets Are Full\") */\n      tag_89\n      jumpi\n      mload(0x40)\n      0x08c379a000000000000000000000000000000000000000000000000000000000\n      dup2\n      mstore\n      0x04\n      add\n      tag_90\n      swap1\n      tag_91\n      jump\t// in\n    tag_90:\n      mload(0x40)\n      dup1\n      swap2\n      sub\n      swap1\n      revert\n    tag_89:\n        /* \"contracts/event_org.sol\":2552:2561  msg.value */\n      callvalue\n        /* \"contracts/event_org.sol\":2542:2548  ticket */\n      dup4\n        /* \"contracts/event_org.sol\":2534:2539  e_fee */\n      dup4\n        /* \"contracts/event_org.sol\":2534:2548  e_fee * ticket */\n      tag_92\n      swap2\n      swap1\n      tag_47\n      jump\t// in\n    tag_92:\n        /* \"contracts/event_org.sol\":2534:2561  e_fee * ticket == msg.value */\n      eq\n        /* \"contracts/event_org.sol\":2526:2583  require(e_fee * ticket == msg.value,\"Fees Not full pay.\") */\n      tag_93\n      jumpi\n      mload(0x40)\n      0x08c379a000000000000000000000000000000000000000000000000000000000\n      dup2\n      mstore\n      0x04\n      add\n      tag_94\n      swap1\n      tag_50\n      jump\t// in\n    tag_94:\n      mload(0x40)\n      dup1\n      swap2\n      sub\n      swap1\n      revert\n    tag_93:\n        /* \"contracts/event_org.sol\":2651:2657  ticket */\n      dup3\n        /* \"contracts/event_org.sol\":2639:2648  rm_ticket */\n      dup2\n        /* \"contracts/event_org.sol\":2639:2657  rm_ticket - ticket */\n      tag_95\n      swap2\n      swap1\n      tag_52\n      jump\t// in\n    tag_95:\n        /* \"contracts/event_org.sol\":2603:2612  eventData */\n      0x01\n        /* \"contracts/event_org.sol\":2603:2621  eventData[eventid] */\n      0x00\n        /* \"contracts/event_org.sol\":2613:2620  eventid */\n      dup7\n        /* \"contracts/event_org.sol\":2603:2621  eventData[eventid] */\n      dup2\n      mstore\n      0x20\n      add\n      swap1\n      dup2\n      mstore\n      0x20\n      add\n      0x00\n      keccak256\n        /* \"contracts/event_org.sol\":2603:2636  eventData[eventid].eventRemticket */\n      0x04\n      add\n        /* \"contracts/event_org.sol\":2603:2657  eventData[eventid].eventRemticket = rm_ticket - ticket */\n      dup2\n      swap1\n      sstore\n      pop\n        /* \"contracts/event_org.sol\":2687:2693  ticket */\n      dup3\n        /* \"contracts/event_org.sol\":2679:2684  e_fee */\n      dup3\n        /* \"contracts/event_org.sol\":2679:2693  e_fee * ticket */\n      tag_96\n      swap2\n      swap1\n      tag_47\n      jump\t// in\n    tag_96:\n        /* \"contracts/event_org.sol\":2667:2676  pay_ether */\n      0x00\n        /* \"contracts/event_org.sol\":2667:2693  pay_ether = e_fee * ticket */\n      dup2\n      swap1\n      sstore\n      pop\n        /* \"contracts/event_org.sol\":2712:2730  uint getUserTicket */\n      0x00\n        /* \"contracts/event_org.sol\":2734:2741  tickets */\n      0x02\n        /* \"contracts/event_org.sol\":2734:2753  tickets[msg.sender] */\n      0x00\n        /* \"contracts/event_org.sol\":2742:2752  msg.sender */\n      caller\n        /* \"contracts/event_org.sol\":2734:2753  tickets[msg.sender] */\n      0xffffffffffffffffffffffffffffffffffffffff\n      and\n      0xffffffffffffffffffffffffffffffffffffffff\n      and\n      dup2\n      mstore\n      0x20\n      add\n      swap1\n      dup2\n      mstore\n      0x20\n      add\n      0x00\n      keccak256\n        /* \"contracts/event_org.sol\":2734:2762  tickets[msg.sender][eventid] */\n      0x00\n        /* \"contracts/event_org.sol\":2754:2761  eventid */\n      dup7\n        /* \"contracts/event_org.sol\":2734:2762  tickets[msg.sender][eventid] */\n      dup2\n      mstore\n      0x20\n      add\n      swap1\n      dup2\n      mstore\n      0x20\n      add\n      0x00\n      keccak256\n      sload\n        /* \"contracts/event_org.sol\":2712:2762  uint getUserTicket =  tickets[msg.sender][eventid] */\n      swap1\n      pop\n        /* \"contracts/event_org.sol\":2793:2794  0 */\n      0x00\n        /* \"contracts/event_org.sol\":2776:2789  getUserTicket */\n      dup2\n        /* \"contracts/event_org.sol\":2776:2794  getUserTicket != 0 */\n      eq\n        /* \"contracts/event_org.sol\":2773:2942  if(getUserTicket != 0) {... */\n      tag_97\n      jumpi\n        /* \"contracts/event_org.sol\":2857:2863  ticket */\n      dup4\n        /* \"contracts/event_org.sol\":2841:2854  getUserTicket */\n      dup2\n        /* \"contracts/event_org.sol\":2841:2863  getUserTicket + ticket */\n      tag_98\n      swap2\n      swap1\n      tag_56\n      jump\t// in\n    tag_98:\n        /* \"contracts/event_org.sol\":2810:2817  tickets */\n      0x02\n        /* \"contracts/event_org.sol\":2810:2829  tickets[msg.sender] */\n      0x00\n        /* \"contracts/event_org.sol\":2818:2828  msg.sender */\n      caller\n        /* \"contracts/event_org.sol\":2810:2829  tickets[msg.sender] */\n      0xffffffffffffffffffffffffffffffffffffffff\n      and\n      0xffffffffffffffffffffffffffffffffffffffff\n      and\n      dup2\n      mstore\n      0x20\n      add\n      swap1\n      dup2\n      mstore\n      0x20\n      add\n      0x00\n      keccak256\n        /* \"contracts/event_org.sol\":2810:2838  tickets[msg.sender][eventid] */\n      0x00\n        /* \"contracts/event_org.sol\":2830:2837  eventid */\n      dup8\n        /* \"contracts/event_org.sol\":2810:2838  tickets[msg.sender][eventid] */\n      dup2\n      mstore\n      0x20\n      add\n      swap1\n      dup2\n      mstore\n      0x20\n      add\n      0x00\n      keccak256\n        /* \"contracts/event_org.sol\":2810:2863  tickets[msg.sender][eventid] = getUserTicket + ticket */\n      dup2\n      swap1\n      sstore\n      pop\n        /* \"contracts/event_org.sol\":2773:2942  if(getUserTicket != 0) {... */\n      jump(tag_99)\n    tag_97:\n        /* \"contracts/event_org.sol\":2925:2931  ticket */\n      dup4\n        /* \"contracts/event_org.sol\":2894:2901  tickets */\n      0x02\n        /* \"contracts/event_org.sol\":2894:2913  tickets[msg.sender] */\n      0x00\n        /* \"contracts/event_org.sol\":2902:2912  msg.sender */\n      caller\n        /* \"contracts/event_org.sol\":2894:2913  tickets[msg.sender] */\n      0xffffffffffffffffffffffffffffffffffffffff\n      and\n      0xffffffffffffffffffffffffffffffffffffffff\n      and\n      dup2\n      mstore\n      0x20\n      add\n      swap1\n      dup2\n      mstore\n      0x20\n      add\n      0x00\n      keccak256\n        /* \"contracts/event_org.sol\":2894:2922  tickets[msg.sender][eventid] */\n      0x00\n        /* \"contracts/event_org.sol\":2914:2921  eventid */\n      dup8\n        /* \"contracts/event_org.sol\":2894:2922  tickets[msg.sender][eventid] */\n      dup2\n      mstore\n      0x20\n      add\n      swap1\n      dup2\n      mstore\n      0x20\n      add\n      0x00\n      keccak256\n        /* \"contracts/event_org.sol\":2894:2931  tickets[msg.sender][eventid] = ticket */\n      dup2\n      swap1\n      sstore\n      pop\n        /* \"contracts/event_org.sol\":2773:2942  if(getUserTicket != 0) {... */\n    tag_99:\n        /* \"contracts/event_org.sol\":2350:2948  {... */\n      pop\n      pop\n      pop\n        /* \"contracts/event_org.sol\":2289:2948  function joinEvent(uint eventid, uint ticket) public payable {... */\n      pop\n      pop\n      jump\t// out\n        /* \"#utility.yul\":7:82   */\n    tag_100:\n        /* \"#utility.yul\":40:46   */\n      0x00\n        /* \"#utility.yul\":73:75   */\n      0x40\n        /* \"#utility.yul\":67:76   */\n      mload\n        /* \"#utility.yul\":57:76   */\n      swap1\n      pop\n        /* \"#utility.yul\":7:82   */\n      swap1\n      jump\t// out\n        /* \"#utility.yul\":88:205   */\n    tag_101:\n        /* \"#utility.yul\":197:198   */\n      0x00\n        /* \"#utility.yul\":194:195   */\n      dup1\n        /* \"#utility.yul\":187:199   */\n      revert\n        /* \"#utility.yul\":211:328   */\n    tag_102:\n        /* \"#utility.yul\":320:321   */\n      0x00\n        /* \"#utility.yul\":317:318   */\n      dup1\n        /* \"#utility.yul\":310:322   */\n      revert\n        /* \"#utility.yul\":334:460   */\n    tag_103:\n        /* \"#utility.yul\":371:378   */\n      0x00\n        /* \"#utility.yul\":411:453   */\n      0xffffffffffffffffffffffffffffffffffffffff\n        /* \"#utility.yul\":404:409   */\n      dup3\n        /* \"#utility.yul\":400:454   */\n      and\n        /* \"#utility.yul\":389:454   */\n      swap1\n      pop\n        /* \"#utility.yul\":334:460   */\n      swap2\n      swap1\n      pop\n      jump\t// out\n        /* \"#utility.yul\":466:570   */\n    tag_104:\n        /* \"#utility.yul\":511:518   */\n      0x00\n        /* \"#utility.yul\":540:564   */\n      tag_155\n        /* \"#utility.yul\":558:563   */\n      dup3\n        /* \"#utility.yul\":540:564   */\n      tag_103\n      jump\t// in\n    tag_155:\n        /* \"#utility.yul\":529:564   */\n      swap1\n      pop\n        /* \"#utility.yul\":466:570   */\n      swap2\n      swap1\n      pop\n      jump\t// out\n        /* \"#utility.yul\":576:714   */\n    tag_105:\n        /* \"#utility.yul\":657:689   */\n      tag_157\n        /* \"#utility.yul\":683:688   */\n      dup2\n        /* \"#utility.yul\":657:689   */\n      tag_104\n      jump\t// in\n    tag_157:\n        /* \"#utility.yul\":650:655   */\n      dup2\n        /* \"#utility.yul\":647:690   */\n      eq\n        /* \"#utility.yul\":637:708   */\n      tag_158\n      jumpi\n        /* \"#utility.yul\":704:705   */\n      0x00\n        /* \"#utility.yul\":701:702   */\n      dup1\n        /* \"#utility.yul\":694:706   */\n      revert\n        /* \"#utility.yul\":637:708   */\n    tag_158:\n        /* \"#utility.yul\":576:714   */\n      pop\n      jump\t// out\n        /* \"#utility.yul\":720:875   */\n    tag_106:\n        /* \"#utility.yul\":774:779   */\n      0x00\n        /* \"#utility.yul\":812:818   */\n      dup2\n        /* \"#utility.yul\":799:819   */\n      calldataload\n        /* \"#utility.yul\":790:819   */\n      swap1\n      pop\n        /* \"#utility.yul\":828:869   */\n      tag_160\n        /* \"#utility.yul\":863:868   */\n      dup2\n        /* \"#utility.yul\":828:869   */\n      tag_105\n      jump\t// in\n    tag_160:\n        /* \"#utility.yul\":720:875   */\n      swap3\n      swap2\n      pop\n      pop\n      jump\t// out\n        /* \"#utility.yul\":881:958   */\n    tag_107:\n        /* \"#utility.yul\":918:925   */\n      0x00\n        /* \"#utility.yul\":947:952   */\n      dup2\n        /* \"#utility.yul\":936:952   */\n      swap1\n      pop\n        /* \"#utility.yul\":881:958   */\n      swap2\n      swap1\n      pop\n      jump\t// out\n        /* \"#utility.yul\":964:1086   */\n    tag_108:\n        /* \"#utility.yul\":1037:1061   */\n      tag_163\n        /* \"#utility.yul\":1055:1060   */\n      dup2\n        /* \"#utility.yul\":1037:1061   */\n      tag_107\n      jump\t// in\n    tag_163:\n        /* \"#utility.yul\":1030:1035   */\n      dup2\n        /* \"#utility.yul\":1027:1062   */\n      eq\n        /* \"#utility.yul\":1017:1080   */\n      tag_164\n      jumpi\n        /* \"#utility.yul\":1076:1077   */\n      0x00\n        /* \"#utility.yul\":1073:1074   */\n      dup1\n        /* \"#utility.yul\":1066:1078   */\n      revert\n        /* \"#utility.yul\":1017:1080   */\n    tag_164:\n        /* \"#utility.yul\":964:1086   */\n      pop\n      jump\t// out\n        /* \"#utility.yul\":1092:1231   */\n    tag_109:\n        /* \"#utility.yul\":1138:1143   */\n      0x00\n        /* \"#utility.yul\":1176:1182   */\n      dup2\n        /* \"#utility.yul\":1163:1183   */\n      calldataload\n        /* \"#utility.yul\":1154:1183   */\n      swap1\n      pop\n        /* \"#utility.yul\":1192:1225   */\n      tag_166\n        /* \"#utility.yul\":1219:1224   */\n      dup2\n        /* \"#utility.yul\":1192:1225   */\n      tag_108\n      jump\t// in\n    tag_166:\n        /* \"#utility.yul\":1092:1231   */\n      swap3\n      swap2\n      pop\n      pop\n      jump\t// out\n        /* \"#utility.yul\":1237:1872   */\n    tag_12:\n        /* \"#utility.yul\":1322:1328   */\n      0x00\n        /* \"#utility.yul\":1330:1336   */\n      dup1\n        /* \"#utility.yul\":1338:1344   */\n      0x00\n        /* \"#utility.yul\":1387:1389   */\n      0x60\n        /* \"#utility.yul\":1375:1384   */\n      dup5\n        /* \"#utility.yul\":1366:1373   */\n      dup7\n        /* \"#utility.yul\":1362:1385   */\n      sub\n        /* \"#utility.yul\":1358:1390   */\n      slt\n        /* \"#utility.yul\":1355:1474   */\n      iszero\n      tag_168\n      jumpi\n        /* \"#utility.yul\":1393:1472   */\n      tag_169\n      tag_101\n      jump\t// in\n    tag_169:\n        /* \"#utility.yul\":1355:1474   */\n    tag_168:\n        /* \"#utility.yul\":1513:1514   */\n      0x00\n        /* \"#utility.yul\":1538:1599   */\n      tag_170\n        /* \"#utility.yul\":1591:1598   */\n      dup7\n        /* \"#utility.yul\":1582:1588   */\n      dup3\n        /* \"#utility.yul\":1571:1580   */\n      dup8\n        /* \"#utility.yul\":1567:1589   */\n      add\n        /* \"#utility.yul\":1538:1599   */\n      tag_106\n      jump\t// in\n    tag_170:\n        /* \"#utility.yul\":1528:1599   */\n      swap4\n      pop\n        /* \"#utility.yul\":1484:1609   */\n      pop\n        /* \"#utility.yul\":1648:1650   */\n      0x20\n        /* \"#utility.yul\":1674:1727   */\n      tag_171\n        /* \"#utility.yul\":1719:1726   */\n      dup7\n        /* \"#utility.yul\":1710:1716   */\n      dup3\n        /* \"#utility.yul\":1699:1708   */\n      dup8\n        /* \"#utility.yul\":1695:1717   */\n      add\n        /* \"#utility.yul\":1674:1727   */\n      tag_109\n      jump\t// in\n    tag_171:\n        /* \"#utility.yul\":1664:1727   */\n      swap3\n      pop\n        /* \"#utility.yul\":1619:1737   */\n      pop\n        /* \"#utility.yul\":1776:1778   */\n      0x40\n        /* \"#utility.yul\":1802:1855   */\n      tag_172\n        /* \"#utility.yul\":1847:1854   */\n      dup7\n        /* \"#utility.yul\":1838:1844   */\n      dup3\n        /* \"#utility.yul\":1827:1836   */\n      dup8\n        /* \"#utility.yul\":1823:1845   */\n      add\n        /* \"#utility.yul\":1802:1855   */\n      tag_109\n      jump\t// in\n    tag_172:\n        /* \"#utility.yul\":1792:1855   */\n      swap2\n      pop\n        /* \"#utility.yul\":1747:1865   */\n      pop\n        /* \"#utility.yul\":1237:1872   */\n      swap3\n      pop\n      swap3\n      pop\n      swap3\n      jump\t// out\n        /* \"#utility.yul\":1878:2223   */\n    tag_16:\n        /* \"#utility.yul\":1945:1951   */\n      0x00\n        /* \"#utility.yul\":1994:1996   */\n      0x20\n        /* \"#utility.yul\":1982:1991   */\n      dup3\n        /* \"#utility.yul\":1973:1980   */\n      dup5\n        /* \"#utility.yul\":1969:1992   */\n      sub\n        /* \"#utility.yul\":1965:1997   */\n      slt\n        /* \"#utility.yul\":1962:2081   */\n      iszero\n      tag_174\n      jumpi\n        /* \"#utility.yul\":2000:2079   */\n      tag_175\n      tag_101\n      jump\t// in\n    tag_175:\n        /* \"#utility.yul\":1962:2081   */\n    tag_174:\n        /* \"#utility.yul\":2120:2121   */\n      0x00\n        /* \"#utility.yul\":2145:2206   */\n      tag_176\n        /* \"#utility.yul\":2198:2205   */\n      dup5\n        /* \"#utility.yul\":2189:2195   */\n      dup3\n        /* \"#utility.yul\":2178:2187   */\n      dup6\n        /* \"#utility.yul\":2174:2196   */\n      add\n        /* \"#utility.yul\":2145:2206   */\n      tag_106\n      jump\t// in\n    tag_176:\n        /* \"#utility.yul\":2135:2206   */\n      swap2\n      pop\n        /* \"#utility.yul\":2091:2216   */\n      pop\n        /* \"#utility.yul\":1878:2223   */\n      swap3\n      swap2\n      pop\n      pop\n      jump\t// out\n        /* \"#utility.yul\":2229:2347   */\n    tag_110:\n        /* \"#utility.yul\":2316:2340   */\n      tag_178\n        /* \"#utility.yul\":2334:2339   */\n      dup2\n        /* \"#utility.yul\":2316:2340   */\n      tag_107\n      jump\t// in\n    tag_178:\n        /* \"#utility.yul\":2311:2314   */\n      dup3\n        /* \"#utility.yul\":2304:2341   */\n      mstore\n        /* \"#utility.yul\":2229:2347   */\n      pop\n      pop\n      jump\t// out\n        /* \"#utility.yul\":2353:2575   */\n    tag_22:\n        /* \"#utility.yul\":2446:2450   */\n      0x00\n        /* \"#utility.yul\":2484:2486   */\n      0x20\n        /* \"#utility.yul\":2473:2482   */\n      dup3\n        /* \"#utility.yul\":2469:2487   */\n      add\n        /* \"#utility.yul\":2461:2487   */\n      swap1\n      pop\n        /* \"#utility.yul\":2497:2568   */\n      tag_180\n        /* \"#utility.yul\":2565:2566   */\n      0x00\n        /* \"#utility.yul\":2554:2563   */\n      dup4\n        /* \"#utility.yul\":2550:2567   */\n      add\n        /* \"#utility.yul\":2541:2547   */\n      dup5\n        /* \"#utility.yul\":2497:2568   */\n      tag_110\n      jump\t// in\n    tag_180:\n        /* \"#utility.yul\":2353:2575   */\n      swap3\n      swap2\n      pop\n      pop\n      jump\t// out\n        /* \"#utility.yul\":2581:2698   */\n    tag_111:\n        /* \"#utility.yul\":2690:2691   */\n      0x00\n        /* \"#utility.yul\":2687:2688   */\n      dup1\n        /* \"#utility.yul\":2680:2692   */\n      revert\n        /* \"#utility.yul\":2704:2821   */\n    tag_112:\n        /* \"#utility.yul\":2813:2814   */\n      0x00\n        /* \"#utility.yul\":2810:2811   */\n      dup1\n        /* \"#utility.yul\":2803:2815   */\n      revert\n        /* \"#utility.yul\":2827:2929   */\n    tag_113:\n        /* \"#utility.yul\":2868:2874   */\n      0x00\n        /* \"#utility.yul\":2919:2921   */\n      0x1f\n        /* \"#utility.yul\":2915:2922   */\n      not\n        /* \"#utility.yul\":2910:2912   */\n      0x1f\n        /* \"#utility.yul\":2903:2908   */\n      dup4\n        /* \"#utility.yul\":2899:2913   */\n      add\n        /* \"#utility.yul\":2895:2923   */\n      and\n        /* \"#utility.yul\":2885:2923   */\n      swap1\n      pop\n        /* \"#utility.yul\":2827:2929   */\n      swap2\n      swap1\n      pop\n      jump\t// out\n        /* \"#utility.yul\":2935:3115   */\n    tag_114:\n        /* \"#utility.yul\":2983:3060   */\n      0x4e487b7100000000000000000000000000000000000000000000000000000000\n        /* \"#utility.yul\":2980:2981   */\n      0x00\n        /* \"#utility.yul\":2973:3061   */\n      mstore\n        /* \"#utility.yul\":3080:3084   */\n      0x41\n        /* \"#utility.yul\":3077:3078   */\n      0x04\n        /* \"#utility.yul\":3070:3085   */\n      mstore\n        /* \"#utility.yul\":3104:3108   */\n      0x24\n        /* \"#utility.yul\":3101:3102   */\n      0x00\n        /* \"#utility.yul\":3094:3109   */\n      revert\n        /* \"#utility.yul\":3121:3402   */\n    tag_115:\n        /* \"#utility.yul\":3204:3231   */\n      tag_186\n        /* \"#utility.yul\":3226:3230   */\n      dup3\n        /* \"#utility.yul\":3204:3231   */\n      tag_113\n      jump\t// in\n    tag_186:\n        /* \"#utility.yul\":3196:3202   */\n      dup2\n        /* \"#utility.yul\":3192:3232   */\n      add\n        /* \"#utility.yul\":3334:3340   */\n      dup2\n        /* \"#utility.yul\":3322:3332   */\n      dup2\n        /* \"#utility.yul\":3319:3341   */\n      lt\n        /* \"#utility.yul\":3298:3316   */\n      0xffffffffffffffff\n        /* \"#utility.yul\":3286:3296   */\n      dup3\n        /* \"#utility.yul\":3283:3317   */\n      gt\n        /* \"#utility.yul\":3280:3342   */\n      or\n        /* \"#utility.yul\":3277:3365   */\n      iszero\n      tag_187\n      jumpi\n        /* \"#utility.yul\":3345:3363   */\n      tag_188\n      tag_114\n      jump\t// in\n    tag_188:\n        /* \"#utility.yul\":3277:3365   */\n    tag_187:\n        /* \"#utility.yul\":3385:3395   */\n      dup1\n        /* \"#utility.yul\":3381:3383   */\n      0x40\n        /* \"#utility.yul\":3374:3396   */\n      mstore\n        /* \"#utility.yul\":3164:3402   */\n      pop\n        /* \"#utility.yul\":3121:3402   */\n      pop\n      pop\n      jump\t// out\n        /* \"#utility.yul\":3408:3537   */\n    tag_116:\n        /* \"#utility.yul\":3442:3448   */\n      0x00\n        /* \"#utility.yul\":3469:3489   */\n      tag_190\n      tag_100\n      jump\t// in\n    tag_190:\n        /* \"#utility.yul\":3459:3489   */\n      swap1\n      pop\n        /* \"#utility.yul\":3498:3531   */\n      tag_191\n        /* \"#utility.yul\":3526:3530   */\n      dup3\n        /* \"#utility.yul\":3518:3524   */\n      dup3\n        /* \"#utility.yul\":3498:3531   */\n      tag_115\n      jump\t// in\n    tag_191:\n        /* \"#utility.yul\":3408:3537   */\n      swap2\n      swap1\n      pop\n      jump\t// out\n        /* \"#utility.yul\":3543:3851   */\n    tag_117:\n        /* \"#utility.yul\":3605:3609   */\n      0x00\n        /* \"#utility.yul\":3695:3713   */\n      0xffffffffffffffff\n        /* \"#utility.yul\":3687:3693   */\n      dup3\n        /* \"#utility.yul\":3684:3714   */\n      gt\n        /* \"#utility.yul\":3681:3737   */\n      iszero\n      tag_193\n      jumpi\n        /* \"#utility.yul\":3717:3735   */\n      tag_194\n      tag_114\n      jump\t// in\n    tag_194:\n        /* \"#utility.yul\":3681:3737   */\n    tag_193:\n        /* \"#utility.yul\":3755:3784   */\n      tag_195\n        /* \"#utility.yul\":3777:3783   */\n      dup3\n        /* \"#utility.yul\":3755:3784   */\n      tag_113\n      jump\t// in\n    tag_195:\n        /* \"#utility.yul\":3747:3784   */\n      swap1\n      pop\n        /* \"#utility.yul\":3839:3843   */\n      0x20\n        /* \"#utility.yul\":3833:3837   */\n      dup2\n        /* \"#utility.yul\":3829:3844   */\n      add\n        /* \"#utility.yul\":3821:3844   */\n      swap1\n      pop\n        /* \"#utility.yul\":3543:3851   */\n      swap2\n      swap1\n      pop\n      jump\t// out\n        /* \"#utility.yul\":3857:4003   */\n    tag_118:\n        /* \"#utility.yul\":3954:3960   */\n      dup3\n        /* \"#utility.yul\":3949:3952   */\n      dup2\n        /* \"#utility.yul\":3944:3947   */\n      dup4\n        /* \"#utility.yul\":3931:3961   */\n      calldatacopy\n        /* \"#utility.yul\":3995:3996   */\n      0x00\n        /* \"#utility.yul\":3986:3992   */\n      dup4\n        /* \"#utility.yul\":3981:3984   */\n      dup4\n        /* \"#utility.yul\":3977:3993   */\n      add\n        /* \"#utility.yul\":3970:3997   */\n      mstore\n        /* \"#utility.yul\":3857:4003   */\n      pop\n      pop\n      pop\n      jump\t// out\n        /* \"#utility.yul\":4009:4434   */\n    tag_119:\n        /* \"#utility.yul\":4087:4092   */\n      0x00\n        /* \"#utility.yul\":4112:4178   */\n      tag_198\n        /* \"#utility.yul\":4128:4177   */\n      tag_199\n        /* \"#utility.yul\":4170:4176   */\n      dup5\n        /* \"#utility.yul\":4128:4177   */\n      tag_117\n      jump\t// in\n    tag_199:\n        /* \"#utility.yul\":4112:4178   */\n      tag_116\n      jump\t// in\n    tag_198:\n        /* \"#utility.yul\":4103:4178   */\n      swap1\n      pop\n        /* \"#utility.yul\":4201:4207   */\n      dup3\n        /* \"#utility.yul\":4194:4199   */\n      dup2\n        /* \"#utility.yul\":4187:4208   */\n      mstore\n        /* \"#utility.yul\":4239:4243   */\n      0x20\n        /* \"#utility.yul\":4232:4237   */\n      dup2\n        /* \"#utility.yul\":4228:4244   */\n      add\n        /* \"#utility.yul\":4277:4280   */\n      dup5\n        /* \"#utility.yul\":4268:4274   */\n      dup5\n        /* \"#utility.yul\":4263:4266   */\n      dup5\n        /* \"#utility.yul\":4259:4275   */\n      add\n        /* \"#utility.yul\":4256:4281   */\n      gt\n        /* \"#utility.yul\":4253:4365   */\n      iszero\n      tag_200\n      jumpi\n        /* \"#utility.yul\":4284:4363   */\n      tag_201\n      tag_112\n      jump\t// in\n    tag_201:\n        /* \"#utility.yul\":4253:4365   */\n    tag_200:\n        /* \"#utility.yul\":4374:4428   */\n      tag_202\n        /* \"#utility.yul\":4421:4427   */\n      dup5\n        /* \"#utility.yul\":4416:4419   */\n      dup3\n        /* \"#utility.yul\":4411:4414   */\n      dup6\n        /* \"#utility.yul\":4374:4428   */\n      tag_118\n      jump\t// in\n    tag_202:\n        /* \"#utility.yul\":4093:4434   */\n      pop\n        /* \"#utility.yul\":4009:4434   */\n      swap4\n      swap3\n      pop\n      pop\n      pop\n      jump\t// out\n        /* \"#utility.yul\":4454:4794   */\n    tag_120:\n        /* \"#utility.yul\":4510:4515   */\n      0x00\n        /* \"#utility.yul\":4559:4562   */\n      dup3\n        /* \"#utility.yul\":4552:4556   */\n      0x1f\n        /* \"#utility.yul\":4544:4550   */\n      dup4\n        /* \"#utility.yul\":4540:4557   */\n      add\n        /* \"#utility.yul\":4536:4563   */\n      slt\n        /* \"#utility.yul\":4526:4648   */\n      tag_204\n      jumpi\n        /* \"#utility.yul\":4567:4646   */\n      tag_205\n      tag_111\n      jump\t// in\n    tag_205:\n        /* \"#utility.yul\":4526:4648   */\n    tag_204:\n        /* \"#utility.yul\":4684:4690   */\n      dup2\n        /* \"#utility.yul\":4671:4691   */\n      calldataload\n        /* \"#utility.yul\":4709:4788   */\n      tag_206\n        /* \"#utility.yul\":4784:4787   */\n      dup5\n        /* \"#utility.yul\":4776:4782   */\n      dup3\n        /* \"#utility.yul\":4769:4773   */\n      0x20\n        /* \"#utility.yul\":4761:4767   */\n      dup7\n        /* \"#utility.yul\":4757:4774   */\n      add\n        /* \"#utility.yul\":4709:4788   */\n      tag_119\n      jump\t// in\n    tag_206:\n        /* \"#utility.yul\":4700:4788   */\n      swap2\n      pop\n        /* \"#utility.yul\":4516:4794   */\n      pop\n        /* \"#utility.yul\":4454:4794   */\n      swap3\n      swap2\n      pop\n      pop\n      jump\t// out\n        /* \"#utility.yul\":4800:6397   */\n    tag_26:\n        /* \"#utility.yul\":4934:4940   */\n      0x00\n        /* \"#utility.yul\":4942:4948   */\n      dup1\n        /* \"#utility.yul\":4950:4956   */\n      0x00\n        /* \"#utility.yul\":4958:4964   */\n      dup1\n        /* \"#utility.yul\":4966:4972   */\n      0x00\n        /* \"#utility.yul\":4974:4980   */\n      dup1\n        /* \"#utility.yul\":5023:5026   */\n      0xc0\n        /* \"#utility.yul\":5011:5020   */\n      dup8\n        /* \"#utility.yul\":5002:5009   */\n      dup10\n        /* \"#utility.yul\":4998:5021   */\n      sub\n        /* \"#utility.yul\":4994:5027   */\n      slt\n        /* \"#utility.yul\":4991:5111   */\n      iszero\n      tag_208\n      jumpi\n        /* \"#utility.yul\":5030:5109   */\n      tag_209\n      tag_101\n      jump\t// in\n    tag_209:\n        /* \"#utility.yul\":4991:5111   */\n    tag_208:\n        /* \"#utility.yul\":5150:5151   */\n      0x00\n        /* \"#utility.yul\":5175:5228   */\n      tag_210\n        /* \"#utility.yul\":5220:5227   */\n      dup10\n        /* \"#utility.yul\":5211:5217   */\n      dup3\n        /* \"#utility.yul\":5200:5209   */\n      dup11\n        /* \"#utility.yul\":5196:5218   */\n      add\n        /* \"#utility.yul\":5175:5228   */\n      tag_109\n      jump\t// in\n    tag_210:\n        /* \"#utility.yul\":5165:5228   */\n      swap7\n      pop\n        /* \"#utility.yul\":5121:5238   */\n      pop\n        /* \"#utility.yul\":5305:5307   */\n      0x20\n        /* \"#utility.yul\":5294:5303   */\n      dup8\n        /* \"#utility.yul\":5290:5308   */\n      add\n        /* \"#utility.yul\":5277:5309   */\n      calldataload\n        /* \"#utility.yul\":5336:5354   */\n      0xffffffffffffffff\n        /* \"#utility.yul\":5328:5334   */\n      dup2\n        /* \"#utility.yul\":5325:5355   */\n      gt\n        /* \"#utility.yul\":5322:5439   */\n      iszero\n      tag_211\n      jumpi\n        /* \"#utility.yul\":5358:5437   */\n      tag_212\n      tag_102\n      jump\t// in\n    tag_212:\n        /* \"#utility.yul\":5322:5439   */\n    tag_211:\n        /* \"#utility.yul\":5463:5526   */\n      tag_213\n        /* \"#utility.yul\":5518:5525   */\n      dup10\n        /* \"#utility.yul\":5509:5515   */\n      dup3\n        /* \"#utility.yul\":5498:5507   */\n      dup11\n        /* \"#utility.yul\":5494:5516   */\n      add\n        /* \"#utility.yul\":5463:5526   */\n      tag_120\n      jump\t// in\n    tag_213:\n        /* \"#utility.yul\":5453:5526   */\n      swap6\n      pop\n        /* \"#utility.yul\":5248:5536   */\n      pop\n        /* \"#utility.yul\":5603:5605   */\n      0x40\n        /* \"#utility.yul\":5592:5601   */\n      dup8\n        /* \"#utility.yul\":5588:5606   */\n      add\n        /* \"#utility.yul\":5575:5607   */\n      calldataload\n        /* \"#utility.yul\":5634:5652   */\n      0xffffffffffffffff\n        /* \"#utility.yul\":5626:5632   */\n      dup2\n        /* \"#utility.yul\":5623:5653   */\n      gt\n        /* \"#utility.yul\":5620:5737   */\n      iszero\n      tag_214\n      jumpi\n        /* \"#utility.yul\":5656:5735   */\n      tag_215\n      tag_102\n      jump\t// in\n    tag_215:\n        /* \"#utility.yul\":5620:5737   */\n    tag_214:\n        /* \"#utility.yul\":5761:5824   */\n      tag_216\n        /* \"#utility.yul\":5816:5823   */\n      dup10\n        /* \"#utility.yul\":5807:5813   */\n      dup3\n        /* \"#utility.yul\":5796:5805   */\n      dup11\n        /* \"#utility.yul\":5792:5814   */\n      add\n        /* \"#utility.yul\":5761:5824   */\n      tag_120\n      jump\t// in\n    tag_216:\n        /* \"#utility.yul\":5751:5824   */\n      swap5\n      pop\n        /* \"#utility.yul\":5546:5834   */\n      pop\n        /* \"#utility.yul\":5873:5875   */\n      0x60\n        /* \"#utility.yul\":5899:5952   */\n      tag_217\n        /* \"#utility.yul\":5944:5951   */\n      dup10\n        /* \"#utility.yul\":5935:5941   */\n      dup3\n        /* \"#utility.yul\":5924:5933   */\n      dup11\n        /* \"#utility.yul\":5920:5942   */\n      add\n        /* \"#utility.yul\":5899:5952   */\n      tag_109\n      jump\t// in\n    tag_217:\n        /* \"#utility.yul\":5889:5952   */\n      swap4\n      pop\n        /* \"#utility.yul\":5844:5962   */\n      pop\n        /* \"#utility.yul\":6029:6032   */\n      0x80\n        /* \"#utility.yul\":6018:6027   */\n      dup8\n        /* \"#utility.yul\":6014:6033   */\n      add\n        /* \"#utility.yul\":6001:6034   */\n      calldataload\n        /* \"#utility.yul\":6061:6079   */\n      0xffffffffffffffff\n        /* \"#utility.yul\":6053:6059   */\n      dup2\n        /* \"#utility.yul\":6050:6080   */\n      gt\n        /* \"#utility.yul\":6047:6164   */\n      iszero\n      tag_218\n      jumpi\n        /* \"#utility.yul\":6083:6162   */\n      tag_219\n      tag_102\n      jump\t// in\n    tag_219:\n        /* \"#utility.yul\":6047:6164   */\n    tag_218:\n        /* \"#utility.yul\":6188:6251   */\n      tag_220\n        /* \"#utility.yul\":6243:6250   */\n      dup10\n        /* \"#utility.yul\":6234:6240   */\n      dup3\n        /* \"#utility.yul\":6223:6232   */\n      dup11\n        /* \"#utility.yul\":6219:6241   */\n      add\n        /* \"#utility.yul\":6188:6251   */\n      tag_120\n      jump\t// in\n    tag_220:\n        /* \"#utility.yul\":6178:6251   */\n      swap3\n      pop\n        /* \"#utility.yul\":5972:6261   */\n      pop\n        /* \"#utility.yul\":6300:6303   */\n      0xa0\n        /* \"#utility.yul\":6327:6380   */\n      tag_221\n        /* \"#utility.yul\":6372:6379   */\n      dup10\n        /* \"#utility.yul\":6363:6369   */\n      dup3\n        /* \"#utility.yul\":6352:6361   */\n      dup11\n        /* \"#utility.yul\":6348:6370   */\n      add\n        /* \"#utility.yul\":6327:6380   */\n      tag_109\n      jump\t// in\n    tag_221:\n        /* \"#utility.yul\":6317:6380   */\n      swap2\n      pop\n        /* \"#utility.yul\":6271:6390   */\n      pop\n        /* \"#utility.yul\":4800:6397   */\n      swap3\n      swap6\n      pop\n      swap3\n      swap6\n      pop\n      swap3\n      swap6\n      jump\t// out\n        /* \"#utility.yul\":6403:6732   */\n    tag_31:\n        /* \"#utility.yul\":6462:6468   */\n      0x00\n        /* \"#utility.yul\":6511:6513   */\n      0x20\n        /* \"#utility.yul\":6499:6508   */\n      dup3\n        /* \"#utility.yul\":6490:6497   */\n      dup5\n        /* \"#utility.yul\":6486:6509   */\n      sub\n        /* \"#utility.yul\":6482:6514   */\n      slt\n        /* \"#utility.yul\":6479:6598   */\n      iszero\n      tag_223\n      jumpi\n        /* \"#utility.yul\":6517:6596   */\n      tag_224\n      tag_101\n      jump\t// in\n    tag_224:\n        /* \"#utility.yul\":6479:6598   */\n    tag_223:\n        /* \"#utility.yul\":6637:6638   */\n      0x00\n        /* \"#utility.yul\":6662:6715   */\n      tag_225\n        /* \"#utility.yul\":6707:6714   */\n      dup5\n        /* \"#utility.yul\":6698:6704   */\n      dup3\n        /* \"#utility.yul\":6687:6696   */\n      dup6\n        /* \"#utility.yul\":6683:6705   */\n      add\n        /* \"#utility.yul\":6662:6715   */\n      tag_109\n      jump\t// in\n    tag_225:\n        /* \"#utility.yul\":6652:6715   */\n      swap2\n      pop\n        /* \"#utility.yul\":6608:6725   */\n      pop\n        /* \"#utility.yul\":6403:6732   */\n      swap3\n      swap2\n      pop\n      pop\n      jump\t// out\n        /* \"#utility.yul\":6738:6837   */\n    tag_121:\n        /* \"#utility.yul\":6790:6796   */\n      0x00\n        /* \"#utility.yul\":6824:6829   */\n      dup2\n        /* \"#utility.yul\":6818:6830   */\n      mload\n        /* \"#utility.yul\":6808:6830   */\n      swap1\n      pop\n        /* \"#utility.yul\":6738:6837   */\n      swap2\n      swap1\n      pop\n      jump\t// out\n        /* \"#utility.yul\":6843:7012   */\n    tag_122:\n        /* \"#utility.yul\":6927:6938   */\n      0x00\n        /* \"#utility.yul\":6961:6967   */\n      dup3\n        /* \"#utility.yul\":6956:6959   */\n      dup3\n        /* \"#utility.yul\":6949:6968   */\n      mstore\n        /* \"#utility.yul\":7001:7005   */\n      0x20\n        /* \"#utility.yul\":6996:6999   */\n      dup3\n        /* \"#utility.yul\":6992:7006   */\n      add\n        /* \"#utility.yul\":6977:7006   */\n      swap1\n      pop\n        /* \"#utility.yul\":6843:7012   */\n      swap3\n      swap2\n      pop\n      pop\n      jump\t// out\n        /* \"#utility.yul\":7018:7264   */\n    tag_123:\n        /* \"#utility.yul\":7099:7100   */\n      0x00\n        /* \"#utility.yul\":7109:7222   */\n    tag_229:\n        /* \"#utility.yul\":7123:7129   */\n      dup4\n        /* \"#utility.yul\":7120:7121   */\n      dup2\n        /* \"#utility.yul\":7117:7130   */\n      lt\n        /* \"#utility.yul\":7109:7222   */\n      iszero\n      tag_231\n      jumpi\n        /* \"#utility.yul\":7208:7209   */\n      dup1\n        /* \"#utility.yul\":7203:7206   */\n      dup3\n        /* \"#utility.yul\":7199:7210   */\n      add\n        /* \"#utility.yul\":7193:7211   */\n      mload\n        /* \"#utility.yul\":7189:7190   */\n      dup2\n        /* \"#utility.yul\":7184:7187   */\n      dup5\n        /* \"#utility.yul\":7180:7191   */\n      add\n        /* \"#utility.yul\":7173:7212   */\n      mstore\n        /* \"#utility.yul\":7145:7147   */\n      0x20\n        /* \"#utility.yul\":7142:7143   */\n      dup2\n        /* \"#utility.yul\":7138:7148   */\n      add\n        /* \"#utility.yul\":7133:7148   */\n      swap1\n      pop\n        /* \"#utility.yul\":7109:7222   */\n      jump(tag_229)\n    tag_231:\n        /* \"#utility.yul\":7256:7257   */\n      0x00\n        /* \"#utility.yul\":7247:7253   */\n      dup5\n        /* \"#utility.yul\":7242:7245   */\n      dup5\n        /* \"#utility.yul\":7238:7254   */\n      add\n        /* \"#utility.yul\":7231:7258   */\n      mstore\n        /* \"#utility.yul\":7080:7264   */\n      pop\n        /* \"#utility.yul\":7018:7264   */\n      pop\n      pop\n      pop\n      jump\t// out\n        /* \"#utility.yul\":7270:7647   */\n    tag_124:\n        /* \"#utility.yul\":7358:7361   */\n      0x00\n        /* \"#utility.yul\":7386:7425   */\n      tag_233\n        /* \"#utility.yul\":7419:7424   */\n      dup3\n        /* \"#utility.yul\":7386:7425   */\n      tag_121\n      jump\t// in\n    tag_233:\n        /* \"#utility.yul\":7441:7512   */\n      tag_234\n        /* \"#utility.yul\":7505:7511   */\n      dup2\n        /* \"#utility.yul\":7500:7503   */\n      dup6\n        /* \"#utility.yul\":7441:7512   */\n      tag_122\n      jump\t// in\n    tag_234:\n        /* \"#utility.yul\":7434:7512   */\n      swap4\n      pop\n        /* \"#utility.yul\":7521:7586   */\n      tag_235\n        /* \"#utility.yul\":7579:7585   */\n      dup2\n        /* \"#utility.yul\":7574:7577   */\n      dup6\n        /* \"#utility.yul\":7567:7571   */\n      0x20\n        /* \"#utility.yul\":7560:7565   */\n      dup7\n        /* \"#utility.yul\":7556:7572   */\n      add\n        /* \"#utility.yul\":7521:7586   */\n      tag_123\n      jump\t// in\n    tag_235:\n        /* \"#utility.yul\":7611:7640   */\n      tag_236\n        /* \"#utility.yul\":7633:7639   */\n      dup2\n        /* \"#utility.yul\":7611:7640   */\n      tag_113\n      jump\t// in\n    tag_236:\n        /* \"#utility.yul\":7606:7609   */\n      dup5\n        /* \"#utility.yul\":7602:7641   */\n      add\n        /* \"#utility.yul\":7595:7641   */\n      swap2\n      pop\n        /* \"#utility.yul\":7362:7647   */\n      pop\n        /* \"#utility.yul\":7270:7647   */\n      swap3\n      swap2\n      pop\n      pop\n      jump\t// out\n        /* \"#utility.yul\":7653:8812   */\n    tag_34:\n        /* \"#utility.yul\":7974:7978   */\n      0x00\n        /* \"#utility.yul\":8012:8015   */\n      0xe0\n        /* \"#utility.yul\":8001:8010   */\n      dup3\n        /* \"#utility.yul\":7997:8016   */\n      add\n        /* \"#utility.yul\":7989:8016   */\n      swap1\n      pop\n        /* \"#utility.yul\":8062:8071   */\n      dup2\n        /* \"#utility.yul\":8056:8060   */\n      dup2\n        /* \"#utility.yul\":8052:8072   */\n      sub\n        /* \"#utility.yul\":8048:8049   */\n      0x00\n        /* \"#utility.yul\":8037:8046   */\n      dup4\n        /* \"#utility.yul\":8033:8050   */\n      add\n        /* \"#utility.yul\":8026:8073   */\n      mstore\n        /* \"#utility.yul\":8090:8168   */\n      tag_238\n        /* \"#utility.yul\":8163:8167   */\n      dup2\n        /* \"#utility.yul\":8154:8160   */\n      dup11\n        /* \"#utility.yul\":8090:8168   */\n      tag_124\n      jump\t// in\n    tag_238:\n        /* \"#utility.yul\":8082:8168   */\n      swap1\n      pop\n        /* \"#utility.yul\":8215:8224   */\n      dup2\n        /* \"#utility.yul\":8209:8213   */\n      dup2\n        /* \"#utility.yul\":8205:8225   */\n      sub\n        /* \"#utility.yul\":8200:8202   */\n      0x20\n        /* \"#utility.yul\":8189:8198   */\n      dup4\n        /* \"#utility.yul\":8185:8203   */\n      add\n        /* \"#utility.yul\":8178:8226   */\n      mstore\n        /* \"#utility.yul\":8243:8321   */\n      tag_239\n        /* \"#utility.yul\":8316:8320   */\n      dup2\n        /* \"#utility.yul\":8307:8313   */\n      dup10\n        /* \"#utility.yul\":8243:8321   */\n      tag_124\n      jump\t// in\n    tag_239:\n        /* \"#utility.yul\":8235:8321   */\n      swap1\n      pop\n        /* \"#utility.yul\":8331:8403   */\n      tag_240\n        /* \"#utility.yul\":8399:8401   */\n      0x40\n        /* \"#utility.yul\":8388:8397   */\n      dup4\n        /* \"#utility.yul\":8384:8402   */\n      add\n        /* \"#utility.yul\":8375:8381   */\n      dup9\n        /* \"#utility.yul\":8331:8403   */\n      tag_110\n      jump\t// in\n    tag_240:\n        /* \"#utility.yul\":8413:8485   */\n      tag_241\n        /* \"#utility.yul\":8481:8483   */\n      0x60\n        /* \"#utility.yul\":8470:8479   */\n      dup4\n        /* \"#utility.yul\":8466:8484   */\n      add\n        /* \"#utility.yul\":8457:8463   */\n      dup8\n        /* \"#utility.yul\":8413:8485   */\n      tag_110\n      jump\t// in\n    tag_241:\n        /* \"#utility.yul\":8495:8568   */\n      tag_242\n        /* \"#utility.yul\":8563:8566   */\n      0x80\n        /* \"#utility.yul\":8552:8561   */\n      dup4\n        /* \"#utility.yul\":8548:8567   */\n      add\n        /* \"#utility.yul\":8539:8545   */\n      dup7\n        /* \"#utility.yul\":8495:8568   */\n      tag_110\n      jump\t// in\n    tag_242:\n        /* \"#utility.yul\":8616:8625   */\n      dup2\n        /* \"#utility.yul\":8610:8614   */\n      dup2\n        /* \"#utility.yul\":8606:8626   */\n      sub\n        /* \"#utility.yul\":8600:8603   */\n      0xa0\n        /* \"#utility.yul\":8589:8598   */\n      dup4\n        /* \"#utility.yul\":8585:8604   */\n      add\n        /* \"#utility.yul\":8578:8627   */\n      mstore\n        /* \"#utility.yul\":8644:8722   */\n      tag_243\n        /* \"#utility.yul\":8717:8721   */\n      dup2\n        /* \"#utility.yul\":8708:8714   */\n      dup6\n        /* \"#utility.yul\":8644:8722   */\n      tag_124\n      jump\t// in\n    tag_243:\n        /* \"#utility.yul\":8636:8722   */\n      swap1\n      pop\n        /* \"#utility.yul\":8732:8805   */\n      tag_244\n        /* \"#utility.yul\":8800:8803   */\n      0xc0\n        /* \"#utility.yul\":8789:8798   */\n      dup4\n        /* \"#utility.yul\":8785:8804   */\n      add\n        /* \"#utility.yul\":8776:8782   */\n      dup5\n        /* \"#utility.yul\":8732:8805   */\n      tag_110\n      jump\t// in\n    tag_244:\n        /* \"#utility.yul\":7653:8812   */\n      swap9\n      swap8\n      pop\n      pop\n      pop\n      pop\n      pop\n      pop\n      pop\n      pop\n      jump\t// out\n        /* \"#utility.yul\":8818:8914   */\n    tag_125:\n        /* \"#utility.yul\":8855:8862   */\n      0x00\n        /* \"#utility.yul\":8884:8908   */\n      tag_246\n        /* \"#utility.yul\":8902:8907   */\n      dup3\n        /* \"#utility.yul\":8884:8908   */\n      tag_103\n      jump\t// in\n    tag_246:\n        /* \"#utility.yul\":8873:8908   */\n      swap1\n      pop\n        /* \"#utility.yul\":8818:8914   */\n      swap2\n      swap1\n      pop\n      jump\t// out\n        /* \"#utility.yul\":8920:9042   */\n    tag_126:\n        /* \"#utility.yul\":8993:9017   */\n      tag_248\n        /* \"#utility.yul\":9011:9016   */\n      dup2\n        /* \"#utility.yul\":8993:9017   */\n      tag_125\n      jump\t// in\n    tag_248:\n        /* \"#utility.yul\":8986:8991   */\n      dup2\n        /* \"#utility.yul\":8983:9018   */\n      eq\n        /* \"#utility.yul\":8973:9036   */\n      tag_249\n      jumpi\n        /* \"#utility.yul\":9032:9033   */\n      0x00\n        /* \"#utility.yul\":9029:9030   */\n      dup1\n        /* \"#utility.yul\":9022:9034   */\n      revert\n        /* \"#utility.yul\":8973:9036   */\n    tag_249:\n        /* \"#utility.yul\":8920:9042   */\n      pop\n      jump\t// out\n        /* \"#utility.yul\":9048:9187   */\n    tag_127:\n        /* \"#utility.yul\":9094:9099   */\n      0x00\n        /* \"#utility.yul\":9132:9138   */\n      dup2\n        /* \"#utility.yul\":9119:9139   */\n      calldataload\n        /* \"#utility.yul\":9110:9139   */\n      swap1\n      pop\n        /* \"#utility.yul\":9148:9181   */\n      tag_251\n        /* \"#utility.yul\":9175:9180   */\n      dup2\n        /* \"#utility.yul\":9148:9181   */\n      tag_126\n      jump\t// in\n    tag_251:\n        /* \"#utility.yul\":9048:9187   */\n      swap3\n      swap2\n      pop\n      pop\n      jump\t// out\n        /* \"#utility.yul\":9193:9667   */\n    tag_38:\n        /* \"#utility.yul\":9261:9267   */\n      0x00\n        /* \"#utility.yul\":9269:9275   */\n      dup1\n        /* \"#utility.yul\":9318:9320   */\n      0x40\n        /* \"#utility.yul\":9306:9315   */\n      dup4\n        /* \"#utility.yul\":9297:9304   */\n      dup6\n        /* \"#utility.yul\":9293:9316   */\n      sub\n        /* \"#utility.yul\":9289:9321   */\n      slt\n        /* \"#utility.yul\":9286:9405   */\n      iszero\n      tag_253\n      jumpi\n        /* \"#utility.yul\":9324:9403   */\n      tag_254\n      tag_101\n      jump\t// in\n    tag_254:\n        /* \"#utility.yul\":9286:9405   */\n    tag_253:\n        /* \"#utility.yul\":9444:9445   */\n      0x00\n        /* \"#utility.yul\":9469:9522   */\n      tag_255\n        /* \"#utility.yul\":9514:9521   */\n      dup6\n        /* \"#utility.yul\":9505:9511   */\n      dup3\n        /* \"#utility.yul\":9494:9503   */\n      dup7\n        /* \"#utility.yul\":9490:9512   */\n      add\n        /* \"#utility.yul\":9469:9522   */\n      tag_127\n      jump\t// in\n    tag_255:\n        /* \"#utility.yul\":9459:9522   */\n      swap3\n      pop\n        /* \"#utility.yul\":9415:9532   */\n      pop\n        /* \"#utility.yul\":9571:9573   */\n      0x20\n        /* \"#utility.yul\":9597:9650   */\n      tag_256\n        /* \"#utility.yul\":9642:9649   */\n      dup6\n        /* \"#utility.yul\":9633:9639   */\n      dup3\n        /* \"#utility.yul\":9622:9631   */\n      dup7\n        /* \"#utility.yul\":9618:9640   */\n      add\n        /* \"#utility.yul\":9597:9650   */\n      tag_109\n      jump\t// in\n    tag_256:\n        /* \"#utility.yul\":9587:9650   */\n      swap2\n      pop\n        /* \"#utility.yul\":9542:9660   */\n      pop\n        /* \"#utility.yul\":9193:9667   */\n      swap3\n      pop\n      swap3\n      swap1\n      pop\n      jump\t// out\n        /* \"#utility.yul\":9673:10147   */\n    tag_43:\n        /* \"#utility.yul\":9741:9747   */\n      0x00\n        /* \"#utility.yul\":9749:9755   */\n      dup1\n        /* \"#utility.yul\":9798:9800   */\n      0x40\n        /* \"#utility.yul\":9786:9795   */\n      dup4\n        /* \"#utility.yul\":9777:9784   */\n      dup6\n        /* \"#utility.yul\":9773:9796   */\n      sub\n        /* \"#utility.yul\":9769:9801   */\n      slt\n        /* \"#utility.yul\":9766:9885   */\n      iszero\n      tag_258\n      jumpi\n        /* \"#utility.yul\":9804:9883   */\n      tag_259\n      tag_101\n      jump\t// in\n    tag_259:\n        /* \"#utility.yul\":9766:9885   */\n    tag_258:\n        /* \"#utility.yul\":9924:9925   */\n      0x00\n        /* \"#utility.yul\":9949:10002   */\n      tag_260\n        /* \"#utility.yul\":9994:10001   */\n      dup6\n        /* \"#utility.yul\":9985:9991   */\n      dup3\n        /* \"#utility.yul\":9974:9983   */\n      dup7\n        /* \"#utility.yul\":9970:9992   */\n      add\n        /* \"#utility.yul\":9949:10002   */\n      tag_109\n      jump\t// in\n    tag_260:\n        /* \"#utility.yul\":9939:10002   */\n      swap3\n      pop\n        /* \"#utility.yul\":9895:10012   */\n      pop\n        /* \"#utility.yul\":10051:10053   */\n      0x20\n        /* \"#utility.yul\":10077:10130   */\n      tag_261\n        /* \"#utility.yul\":10122:10129   */\n      dup6\n        /* \"#utility.yul\":10113:10119   */\n      dup3\n        /* \"#utility.yul\":10102:10111   */\n      dup7\n        /* \"#utility.yul\":10098:10120   */\n      add\n        /* \"#utility.yul\":10077:10130   */\n      tag_109\n      jump\t// in\n    tag_261:\n        /* \"#utility.yul\":10067:10130   */\n      swap2\n      pop\n        /* \"#utility.yul\":10022:10140   */\n      pop\n        /* \"#utility.yul\":9673:10147   */\n      swap3\n      pop\n      swap3\n      swap1\n      pop\n      jump\t// out\n        /* \"#utility.yul\":10153:10333   */\n    tag_128:\n        /* \"#utility.yul\":10201:10278   */\n      0x4e487b7100000000000000000000000000000000000000000000000000000000\n        /* \"#utility.yul\":10198:10199   */\n      0x00\n        /* \"#utility.yul\":10191:10279   */\n      mstore\n        /* \"#utility.yul\":10298:10302   */\n      0x11\n        /* \"#utility.yul\":10295:10296   */\n      0x04\n        /* \"#utility.yul\":10288:10303   */\n      mstore\n        /* \"#utility.yul\":10322:10326   */\n      0x24\n        /* \"#utility.yul\":10319:10320   */\n      0x00\n        /* \"#utility.yul\":10312:10327   */\n      revert\n        /* \"#utility.yul\":10339:10749   */\n    tag_47:\n        /* \"#utility.yul\":10379:10386   */\n      0x00\n        /* \"#utility.yul\":10402:10422   */\n      tag_264\n        /* \"#utility.yul\":10420:10421   */\n      dup3\n        /* \"#utility.yul\":10402:10422   */\n      tag_107\n      jump\t// in\n    tag_264:\n        /* \"#utility.yul\":10397:10422   */\n      swap2\n      pop\n        /* \"#utility.yul\":10436:10456   */\n      tag_265\n        /* \"#utility.yul\":10454:10455   */\n      dup4\n        /* \"#utility.yul\":10436:10456   */\n      tag_107\n      jump\t// in\n    tag_265:\n        /* \"#utility.yul\":10431:10456   */\n      swap3\n      pop\n        /* \"#utility.yul\":10491:10492   */\n      dup3\n        /* \"#utility.yul\":10488:10489   */\n      dup3\n        /* \"#utility.yul\":10484:10493   */\n      mul\n        /* \"#utility.yul\":10513:10543   */\n      tag_266\n        /* \"#utility.yul\":10531:10542   */\n      dup2\n        /* \"#utility.yul\":10513:10543   */\n      tag_107\n      jump\t// in\n    tag_266:\n        /* \"#utility.yul\":10502:10543   */\n      swap2\n      pop\n        /* \"#utility.yul\":10692:10693   */\n      dup3\n        /* \"#utility.yul\":10683:10690   */\n      dup3\n        /* \"#utility.yul\":10679:10694   */\n      div\n        /* \"#utility.yul\":10676:10677   */\n      dup5\n        /* \"#utility.yul\":10673:10695   */\n      eq\n        /* \"#utility.yul\":10653:10654   */\n      dup4\n        /* \"#utility.yul\":10646:10655   */\n      iszero\n        /* \"#utility.yul\":10626:10709   */\n      or\n        /* \"#utility.yul\":10603:10742   */\n      tag_267\n      jumpi\n        /* \"#utility.yul\":10722:10740   */\n      tag_268\n      tag_128\n      jump\t// in\n    tag_268:\n        /* \"#utility.yul\":10603:10742   */\n    tag_267:\n        /* \"#utility.yul\":10387:10749   */\n      pop\n        /* \"#utility.yul\":10339:10749   */\n      swap3\n      swap2\n      pop\n      pop\n      jump\t// out\n        /* \"#utility.yul\":10755:10923   */\n    tag_129:\n        /* \"#utility.yul\":10895:10915   */\n      0x46656573204e6f742066756c6c207061792e0000000000000000000000000000\n        /* \"#utility.yul\":10891:10892   */\n      0x00\n        /* \"#utility.yul\":10883:10889   */\n      dup3\n        /* \"#utility.yul\":10879:10893   */\n      add\n        /* \"#utility.yul\":10872:10916   */\n      mstore\n        /* \"#utility.yul\":10755:10923   */\n      pop\n      jump\t// out\n        /* \"#utility.yul\":10929:11295   */\n    tag_130:\n        /* \"#utility.yul\":11071:11074   */\n      0x00\n        /* \"#utility.yul\":11092:11159   */\n      tag_271\n        /* \"#utility.yul\":11156:11158   */\n      0x12\n        /* \"#utility.yul\":11151:11154   */\n      dup4\n        /* \"#utility.yul\":11092:11159   */\n      tag_122\n      jump\t// in\n    tag_271:\n        /* \"#utility.yul\":11085:11159   */\n      swap2\n      pop\n        /* \"#utility.yul\":11168:11261   */\n      tag_272\n        /* \"#utility.yul\":11257:11260   */\n      dup3\n        /* \"#utility.yul\":11168:11261   */\n      tag_129\n      jump\t// in\n    tag_272:\n        /* \"#utility.yul\":11286:11288   */\n      0x20\n        /* \"#utility.yul\":11281:11284   */\n      dup3\n        /* \"#utility.yul\":11277:11289   */\n      add\n        /* \"#utility.yul\":11270:11289   */\n      swap1\n      pop\n        /* \"#utility.yul\":10929:11295   */\n      swap2\n      swap1\n      pop\n      jump\t// out\n        /* \"#utility.yul\":11301:11720   */\n    tag_50:\n        /* \"#utility.yul\":11467:11471   */\n      0x00\n        /* \"#utility.yul\":11505:11507   */\n      0x20\n        /* \"#utility.yul\":11494:11503   */\n      dup3\n        /* \"#utility.yul\":11490:11508   */\n      add\n        /* \"#utility.yul\":11482:11508   */\n      swap1\n      pop\n        /* \"#utility.yul\":11554:11563   */\n      dup2\n        /* \"#utility.yul\":11548:11552   */\n      dup2\n        /* \"#utility.yul\":11544:11564   */\n      sub\n        /* \"#utility.yul\":11540:11541   */\n      0x00\n        /* \"#utility.yul\":11529:11538   */\n      dup4\n        /* \"#utility.yul\":11525:11542   */\n      add\n        /* \"#utility.yul\":11518:11565   */\n      mstore\n        /* \"#utility.yul\":11582:11713   */\n      tag_274\n        /* \"#utility.yul\":11708:11712   */\n      dup2\n        /* \"#utility.yul\":11582:11713   */\n      tag_130\n      jump\t// in\n    tag_274:\n        /* \"#utility.yul\":11574:11713   */\n      swap1\n      pop\n        /* \"#utility.yul\":11301:11720   */\n      swap2\n      swap1\n      pop\n      jump\t// out\n        /* \"#utility.yul\":11726:11920   */\n    tag_52:\n        /* \"#utility.yul\":11766:11770   */\n      0x00\n        /* \"#utility.yul\":11786:11806   */\n      tag_276\n        /* \"#utility.yul\":11804:11805   */\n      dup3\n        /* \"#utility.yul\":11786:11806   */\n      tag_107\n      jump\t// in\n    tag_276:\n        /* \"#utility.yul\":11781:11806   */\n      swap2\n      pop\n        /* \"#utility.yul\":11820:11840   */\n      tag_277\n        /* \"#utility.yul\":11838:11839   */\n      dup4\n        /* \"#utility.yul\":11820:11840   */\n      tag_107\n      jump\t// in\n    tag_277:\n        /* \"#utility.yul\":11815:11840   */\n      swap3\n      pop\n        /* \"#utility.yul\":11864:11865   */\n      dup3\n        /* \"#utility.yul\":11861:11862   */\n      dup3\n        /* \"#utility.yul\":11857:11866   */\n      sub\n        /* \"#utility.yul\":11849:11866   */\n      swap1\n      pop\n        /* \"#utility.yul\":11888:11889   */\n      dup2\n        /* \"#utility.yul\":11882:11886   */\n      dup2\n        /* \"#utility.yul\":11879:11890   */\n      gt\n        /* \"#utility.yul\":11876:11913   */\n      iszero\n      tag_278\n      jumpi\n        /* \"#utility.yul\":11893:11911   */\n      tag_279\n      tag_128\n      jump\t// in\n    tag_279:\n        /* \"#utility.yul\":11876:11913   */\n    tag_278:\n        /* \"#utility.yul\":11726:11920   */\n      swap3\n      swap2\n      pop\n      pop\n      jump\t// out\n        /* \"#utility.yul\":11926:12117   */\n    tag_56:\n        /* \"#utility.yul\":11966:11969   */\n      0x00\n        /* \"#utility.yul\":11985:12005   */\n      tag_281\n        /* \"#utility.yul\":12003:12004   */\n      dup3\n        /* \"#utility.yul\":11985:12005   */\n      tag_107\n      jump\t// in\n    tag_281:\n        /* \"#utility.yul\":11980:12005   */\n      swap2\n      pop\n        /* \"#utility.yul\":12019:12039   */\n      tag_282\n        /* \"#utility.yul\":12037:12038   */\n      dup4\n        /* \"#utility.yul\":12019:12039   */\n      tag_107\n      jump\t// in\n    tag_282:\n        /* \"#utility.yul\":12014:12039   */\n      swap3\n      pop\n        /* \"#utility.yul\":12062:12063   */\n      dup3\n        /* \"#utility.yul\":12059:12060   */\n      dup3\n        /* \"#utility.yul\":12055:12064   */\n      add\n        /* \"#utility.yul\":12048:12064   */\n      swap1\n      pop\n        /* \"#utility.yul\":12083:12086   */\n      dup1\n        /* \"#utility.yul\":12080:12081   */\n      dup3\n        /* \"#utility.yul\":12077:12087   */\n      gt\n        /* \"#utility.yul\":12074:12110   */\n      iszero\n      tag_283\n      jumpi\n        /* \"#utility.yul\":12090:12108   */\n      tag_284\n      tag_128\n      jump\t// in\n    tag_284:\n        /* \"#utility.yul\":12074:12110   */\n    tag_283:\n        /* \"#utility.yul\":11926:12117   */\n      swap3\n      swap2\n      pop\n      pop\n      jump\t// out\n        /* \"#utility.yul\":12123:12303   */\n    tag_131:\n        /* \"#utility.yul\":12171:12248   */\n      0x4e487b7100000000000000000000000000000000000000000000000000000000\n        /* \"#utility.yul\":12168:12169   */\n      0x00\n        /* \"#utility.yul\":12161:12249   */\n      mstore\n        /* \"#utility.yul\":12268:12272   */\n      0x22\n        /* \"#utility.yul\":12265:12266   */\n      0x04\n        /* \"#utility.yul\":12258:12273   */\n      mstore\n        /* \"#utility.yul\":12292:12296   */\n      0x24\n        /* \"#utility.yul\":12289:12290   */\n      0x00\n        /* \"#utility.yul\":12282:12297   */\n      revert\n        /* \"#utility.yul\":12309:12629   */\n    tag_73:\n        /* \"#utility.yul\":12353:12359   */\n      0x00\n        /* \"#utility.yul\":12390:12391   */\n      0x02\n        /* \"#utility.yul\":12384:12388   */\n      dup3\n        /* \"#utility.yul\":12380:12392   */\n      div\n        /* \"#utility.yul\":12370:12392   */\n      swap1\n      pop\n        /* \"#utility.yul\":12437:12438   */\n      0x01\n        /* \"#utility.yul\":12431:12435   */\n      dup3\n        /* \"#utility.yul\":12427:12439   */\n      and\n        /* \"#utility.yul\":12458:12476   */\n      dup1\n        /* \"#utility.yul\":12448:12529   */\n      tag_287\n      jumpi\n        /* \"#utility.yul\":12514:12518   */\n      0x7f\n        /* \"#utility.yul\":12506:12512   */\n      dup3\n        /* \"#utility.yul\":12502:12519   */\n      and\n        /* \"#utility.yul\":12492:12519   */\n      swap2\n      pop\n        /* \"#utility.yul\":12448:12529   */\n    tag_287:\n        /* \"#utility.yul\":12576:12578   */\n      0x20\n        /* \"#utility.yul\":12568:12574   */\n      dup3\n        /* \"#utility.yul\":12565:12579   */\n      lt\n        /* \"#utility.yul\":12545:12563   */\n      dup2\n        /* \"#utility.yul\":12542:12580   */\n      sub\n        /* \"#utility.yul\":12539:12623   */\n      tag_288\n      jumpi\n        /* \"#utility.yul\":12595:12613   */\n      tag_289\n      tag_131\n      jump\t// in\n    tag_289:\n        /* \"#utility.yul\":12539:12623   */\n    tag_288:\n        /* \"#utility.yul\":12360:12629   */\n      pop\n        /* \"#utility.yul\":12309:12629   */\n      swap2\n      swap1\n      pop\n      jump\t// out\n        /* \"#utility.yul\":12635:12776   */\n    tag_132:\n        /* \"#utility.yul\":12684:12688   */\n      0x00\n        /* \"#utility.yul\":12707:12710   */\n      dup2\n        /* \"#utility.yul\":12699:12710   */\n      swap1\n      pop\n        /* \"#utility.yul\":12730:12733   */\n      dup2\n        /* \"#utility.yul\":12727:12728   */\n      0x00\n        /* \"#utility.yul\":12720:12734   */\n      mstore\n        /* \"#utility.yul\":12764:12768   */\n      0x20\n        /* \"#utility.yul\":12761:12762   */\n      0x00\n        /* \"#utility.yul\":12751:12769   */\n      keccak256\n        /* \"#utility.yul\":12743:12769   */\n      swap1\n      pop\n        /* \"#utility.yul\":12635:12776   */\n      swap2\n      swap1\n      pop\n      jump\t// out\n        /* \"#utility.yul\":12782:12875   */\n    tag_133:\n        /* \"#utility.yul\":12819:12825   */\n      0x00\n        /* \"#utility.yul\":12866:12868   */\n      0x20\n        /* \"#utility.yul\":12861:12863   */\n      0x1f\n        /* \"#utility.yul\":12854:12859   */\n      dup4\n        /* \"#utility.yul\":12850:12864   */\n      add\n        /* \"#utility.yul\":12846:12869   */\n      div\n        /* \"#utility.yul\":12836:12869   */\n      swap1\n      pop\n        /* \"#utility.yul\":12782:12875   */\n      swap2\n      swap1\n      pop\n      jump\t// out\n        /* \"#utility.yul\":12881:12988   */\n    tag_134:\n        /* \"#utility.yul\":12925:12933   */\n      0x00\n        /* \"#utility.yul\":12975:12980   */\n      dup3\n        /* \"#utility.yul\":12969:12973   */\n      dup3\n        /* \"#utility.yul\":12965:12981   */\n      shl\n        /* \"#utility.yul\":12944:12981   */\n      swap1\n      pop\n        /* \"#utility.yul\":12881:12988   */\n      swap3\n      swap2\n      pop\n      pop\n      jump\t// out\n        /* \"#utility.yul\":12994:13387   */\n    tag_135:\n        /* \"#utility.yul\":13063:13069   */\n      0x00\n        /* \"#utility.yul\":13113:13114   */\n      0x08\n        /* \"#utility.yul\":13101:13111   */\n      dup4\n        /* \"#utility.yul\":13097:13115   */\n      mul\n        /* \"#utility.yul\":13136:13233   */\n      tag_294\n        /* \"#utility.yul\":13166:13232   */\n      0xffffffffffffffffffffffffffffffffffffffffffffffffffffffffffffffff\n        /* \"#utility.yul\":13155:13164   */\n      dup3\n        /* \"#utility.yul\":13136:13233   */\n      tag_134\n      jump\t// in\n    tag_294:\n        /* \"#utility.yul\":13254:13293   */\n      tag_295\n        /* \"#utility.yul\":13284:13292   */\n      dup7\n        /* \"#utility.yul\":13273:13282   */\n      dup4\n        /* \"#utility.yul\":13254:13293   */\n      tag_134\n      jump\t// in\n    tag_295:\n        /* \"#utility.yul\":13242:13293   */\n      swap6\n      pop\n        /* \"#utility.yul\":13326:13330   */\n      dup1\n        /* \"#utility.yul\":13322:13331   */\n      not\n        /* \"#utility.yul\":13315:13320   */\n      dup5\n        /* \"#utility.yul\":13311:13332   */\n      and\n        /* \"#utility.yul\":13302:13332   */\n      swap4\n      pop\n        /* \"#utility.yul\":13375:13379   */\n      dup1\n        /* \"#utility.yul\":13365:13373   */\n      dup7\n        /* \"#utility.yul\":13361:13380   */\n      and\n        /* \"#utility.yul\":13354:13359   */\n      dup5\n        /* \"#utility.yul\":13351:13381   */\n      or\n        /* \"#utility.yul\":13341:13381   */\n      swap3\n      pop\n        /* \"#utility.yul\":13070:13387   */\n      pop\n      pop\n        /* \"#utility.yul\":12994:13387   */\n      swap4\n      swap3\n      pop\n      pop\n      pop\n      jump\t// out\n        /* \"#utility.yul\":13393:13453   */\n    tag_136:\n        /* \"#utility.yul\":13421:13424   */\n      0x00\n        /* \"#utility.yul\":13442:13447   */\n      dup2\n        /* \"#utility.yul\":13435:13447   */\n      swap1\n      pop\n        /* \"#utility.yul\":13393:13453   */\n      swap2\n      swap1\n      pop\n      jump\t// out\n        /* \"#utility.yul\":13459:13601   */\n    tag_137:\n        /* \"#utility.yul\":13509:13518   */\n      0x00\n        /* \"#utility.yul\":13542:13595   */\n      tag_298\n        /* \"#utility.yul\":13560:13594   */\n      tag_299\n        /* \"#utility.yul\":13569:13593   */\n      tag_300\n        /* \"#utility.yul\":13587:13592   */\n      dup5\n        /* \"#utility.yul\":13569:13593   */\n      tag_107\n      jump\t// in\n    tag_300:\n        /* \"#utility.yul\":13560:13594   */\n      tag_136\n      jump\t// in\n    tag_299:\n        /* \"#utility.yul\":13542:13595   */\n      tag_107\n      jump\t// in\n    tag_298:\n        /* \"#utility.yul\":13529:13595   */\n      swap1\n      pop\n        /* \"#utility.yul\":13459:13601   */\n      swap2\n      swap1\n      pop\n      jump\t// out\n        /* \"#utility.yul\":13607:13682   */\n    tag_138:\n        /* \"#utility.yul\":13650:13653   */\n      0x00\n        /* \"#utility.yul\":13671:13676   */\n      dup2\n        /* \"#utility.yul\":13664:13676   */\n      swap1\n      pop\n        /* \"#utility.yul\":13607:13682   */\n      swap2\n      swap1\n      pop\n      jump\t// out\n        /* \"#utility.yul\":13688:13957   */\n    tag_139:\n        /* \"#utility.yul\":13798:13837   */\n      tag_303\n        /* \"#utility.yul\":13829:13836   */\n      dup4\n        /* \"#utility.yul\":13798:13837   */\n      tag_137\n      jump\t// in\n    tag_303:\n        /* \"#utility.yul\":13859:13950   */\n      tag_304\n        /* \"#utility.yul\":13908:13949   */\n      tag_305\n        /* \"#utility.yul\":13932:13948   */\n      dup3\n        /* \"#utility.yul\":13908:13949   */\n      tag_138\n      jump\t// in\n    tag_305:\n        /* \"#utility.yul\":13900:13906   */\n      dup5\n        /* \"#utility.yul\":13893:13897   */\n      dup5\n        /* \"#utility.yul\":13887:13898   */\n      sload\n        /* \"#utility.yul\":13859:13950   */\n      tag_135\n      jump\t// in\n    tag_304:\n        /* \"#utility.yul\":13853:13857   */\n      dup3\n        /* \"#utility.yul\":13846:13951   */\n      sstore\n        /* \"#utility.yul\":13764:13957   */\n      pop\n        /* \"#utility.yul\":13688:13957   */\n      pop\n      pop\n      pop\n      jump\t// out\n        /* \"#utility.yul\":13963:14036   */\n    tag_140:\n        /* \"#utility.yul\":14008:14011   */\n      0x00\n        /* \"#utility.yul\":13963:14036   */\n      swap1\n      jump\t// out\n        /* \"#utility.yul\":14042:14231   */\n    tag_141:\n        /* \"#utility.yul\":14119:14151   */\n      tag_308\n      tag_140\n      jump\t// in\n    tag_308:\n        /* \"#utility.yul\":14160:14225   */\n      tag_309\n        /* \"#utility.yul\":14218:14224   */\n      dup2\n        /* \"#utility.yul\":14210:14216   */\n      dup5\n        /* \"#utility.yul\":14204:14208   */\n      dup5\n        /* \"#utility.yul\":14160:14225   */\n      tag_139\n      jump\t// in\n    tag_309:\n        /* \"#utility.yul\":14095:14231   */\n      pop\n        /* \"#utility.yul\":14042:14231   */\n      pop\n      pop\n      jump\t// out\n        /* \"#utility.yul\":14237:14423   */\n    tag_142:\n        /* \"#utility.yul\":14297:14417   */\n    tag_311:\n        /* \"#utility.yul\":14314:14317   */\n      dup2\n        /* \"#utility.yul\":14307:14312   */\n      dup2\n        /* \"#utility.yul\":14304:14318   */\n      lt\n        /* \"#utility.yul\":14297:14417   */\n      iszero\n      tag_313\n      jumpi\n        /* \"#utility.yul\":14368:14407   */\n      tag_314\n        /* \"#utility.yul\":14405:14406   */\n      0x00\n        /* \"#utility.yul\":14398:14403   */\n      dup3\n        /* \"#utility.yul\":14368:14407   */\n      tag_141\n      jump\t// in\n    tag_314:\n        /* \"#utility.yul\":14341:14342   */\n      0x01\n        /* \"#utility.yul\":14334:14339   */\n      dup2\n        /* \"#utility.yul\":14330:14343   */\n      add\n        /* \"#utility.yul\":14321:14343   */\n      swap1\n      pop\n        /* \"#utility.yul\":14297:14417   */\n      jump(tag_311)\n    tag_313:\n        /* \"#utility.yul\":14237:14423   */\n      pop\n      pop\n      jump\t// out\n        /* \"#utility.yul\":14429:14972   */\n    tag_143:\n        /* \"#utility.yul\":14530:14532   */\n      0x1f\n        /* \"#utility.yul\":14525:14528   */\n      dup3\n        /* \"#utility.yul\":14522:14533   */\n      gt\n        /* \"#utility.yul\":14519:14965   */\n      iszero\n      tag_316\n      jumpi\n        /* \"#utility.yul\":14564:14602   */\n      tag_317\n        /* \"#utility.yul\":14596:14601   */\n      dup2\n        /* \"#utility.yul\":14564:14602   */\n      tag_132\n      jump\t// in\n    tag_317:\n        /* \"#utility.yul\":14648:14677   */\n      tag_318\n        /* \"#utility.yul\":14666:14676   */\n      dup5\n        /* \"#utility.yul\":14648:14677   */\n      tag_133\n      jump\t// in\n    tag_318:\n        /* \"#utility.yul\":14638:14646   */\n      dup2\n        /* \"#utility.yul\":14634:14678   */\n      add\n        /* \"#utility.yul\":14831:14833   */\n      0x20\n        /* \"#utility.yul\":14819:14829   */\n      dup6\n        /* \"#utility.yul\":14816:14834   */\n      lt\n        /* \"#utility.yul\":14813:14862   */\n      iszero\n      tag_319\n      jumpi\n        /* \"#utility.yul\":14852:14860   */\n      dup2\n        /* \"#utility.yul\":14837:14860   */\n      swap1\n      pop\n        /* \"#utility.yul\":14813:14862   */\n    tag_319:\n        /* \"#utility.yul\":14875:14955   */\n      tag_320\n        /* \"#utility.yul\":14931:14953   */\n      tag_321\n        /* \"#utility.yul\":14949:14952   */\n      dup6\n        /* \"#utility.yul\":14931:14953   */\n      tag_133\n      jump\t// in\n    tag_321:\n        /* \"#utility.yul\":14921:14929   */\n      dup4\n        /* \"#utility.yul\":14917:14954   */\n      add\n        /* \"#utility.yul\":14904:14915   */\n      dup3\n        /* \"#utility.yul\":14875:14955   */\n      tag_142\n      jump\t// in\n    tag_320:\n        /* \"#utility.yul\":14534:14965   */\n      pop\n      pop\n        /* \"#utility.yul\":14519:14965   */\n    tag_316:\n        /* \"#utility.yul\":14429:14972   */\n      pop\n      pop\n      pop\n      jump\t// out\n        /* \"#utility.yul\":14978:15095   */\n    tag_144:\n        /* \"#utility.yul\":15032:15040   */\n      0x00\n        /* \"#utility.yul\":15082:15087   */\n      dup3\n        /* \"#utility.yul\":15076:15080   */\n      dup3\n        /* \"#utility.yul\":15072:15088   */\n      shr\n        /* \"#utility.yul\":15051:15088   */\n      swap1\n      pop\n        /* \"#utility.yul\":14978:15095   */\n      swap3\n      swap2\n      pop\n      pop\n      jump\t// out\n        /* \"#utility.yul\":15101:15270   */\n    tag_145:\n        /* \"#utility.yul\":15145:15151   */\n      0x00\n        /* \"#utility.yul\":15178:15229   */\n      tag_324\n        /* \"#utility.yul\":15226:15227   */\n      0x00\n        /* \"#utility.yul\":15222:15228   */\n      not\n        /* \"#utility.yul\":15214:15219   */\n      dup5\n        /* \"#utility.yul\":15211:15212   */\n      0x08\n        /* \"#utility.yul\":15207:15220   */\n      mul\n        /* \"#utility.yul\":15178:15229   */\n      tag_144\n      jump\t// in\n    tag_324:\n        /* \"#utility.yul\":15174:15230   */\n      not\n        /* \"#utility.yul\":15259:15263   */\n      dup1\n        /* \"#utility.yul\":15253:15257   */\n      dup4\n        /* \"#utility.yul\":15249:15264   */\n      and\n        /* \"#utility.yul\":15239:15264   */\n      swap2\n      pop\n        /* \"#utility.yul\":15152:15270   */\n      pop\n        /* \"#utility.yul\":15101:15270   */\n      swap3\n      swap2\n      pop\n      pop\n      jump\t// out\n        /* \"#utility.yul\":15275:15570   */\n    tag_146:\n        /* \"#utility.yul\":15351:15355   */\n      0x00\n        /* \"#utility.yul\":15497:15526   */\n      tag_326\n        /* \"#utility.yul\":15522:15525   */\n      dup4\n        /* \"#utility.yul\":15516:15520   */\n      dup4\n        /* \"#utility.yul\":15497:15526   */\n      tag_145\n      jump\t// in\n    tag_326:\n        /* \"#utility.yul\":15489:15526   */\n      swap2\n      pop\n        /* \"#utility.yul\":15559:15562   */\n      dup3\n        /* \"#utility.yul\":15556:15557   */\n      0x02\n        /* \"#utility.yul\":15552:15563   */\n      mul\n        /* \"#utility.yul\":15546:15550   */\n      dup3\n        /* \"#utility.yul\":15543:15564   */\n      or\n        /* \"#utility.yul\":15535:15564   */\n      swap1\n      pop\n        /* \"#utility.yul\":15275:15570   */\n      swap3\n      swap2\n      pop\n      pop\n      jump\t// out\n        /* \"#utility.yul\":15575:16970   */\n    tag_69:\n        /* \"#utility.yul\":15692:15729   */\n      tag_328\n        /* \"#utility.yul\":15725:15728   */\n      dup3\n        /* \"#utility.yul\":15692:15729   */\n      tag_121\n      jump\t// in\n    tag_328:\n        /* \"#utility.yul\":15794:15812   */\n      0xffffffffffffffff\n        /* \"#utility.yul\":15786:15792   */\n      dup2\n        /* \"#utility.yul\":15783:15813   */\n      gt\n        /* \"#utility.yul\":15780:15836   */\n      iszero\n      tag_329\n      jumpi\n        /* \"#utility.yul\":15816:15834   */\n      tag_330\n      tag_114\n      jump\t// in\n    tag_330:\n        /* \"#utility.yul\":15780:15836   */\n    tag_329:\n        /* \"#utility.yul\":15860:15898   */\n      tag_331\n        /* \"#utility.yul\":15892:15896   */\n      dup3\n        /* \"#utility.yul\":15886:15897   */\n      sload\n        /* \"#utility.yul\":15860:15898   */\n      tag_73\n      jump\t// in\n    tag_331:\n        /* \"#utility.yul\":15945:16012   */\n      tag_332\n        /* \"#utility.yul\":16005:16011   */\n      dup3\n        /* \"#utility.yul\":15997:16003   */\n      dup3\n        /* \"#utility.yul\":15991:15995   */\n      dup6\n        /* \"#utility.yul\":15945:16012   */\n      tag_143\n      jump\t// in\n    tag_332:\n        /* \"#utility.yul\":16039:16040   */\n      0x00\n        /* \"#utility.yul\":16063:16067   */\n      0x20\n        /* \"#utility.yul\":16050:16067   */\n      swap1\n      pop\n        /* \"#utility.yul\":16095:16097   */\n      0x1f\n        /* \"#utility.yul\":16087:16093   */\n      dup4\n        /* \"#utility.yul\":16084:16098   */\n      gt\n        /* \"#utility.yul\":16112:16113   */\n      0x01\n        /* \"#utility.yul\":16107:16725   */\n      dup2\n      eq\n      tag_334\n      jumpi\n        /* \"#utility.yul\":16769:16770   */\n      0x00\n        /* \"#utility.yul\":16786:16792   */\n      dup5\n        /* \"#utility.yul\":16783:16860   */\n      iszero\n      tag_335\n      jumpi\n        /* \"#utility.yul\":16835:16844   */\n      dup3\n        /* \"#utility.yul\":16830:16833   */\n      dup8\n        /* \"#utility.yul\":16826:16845   */\n      add\n        /* \"#utility.yul\":16820:16846   */\n      mload\n        /* \"#utility.yul\":16811:16846   */\n      swap1\n      pop\n        /* \"#utility.yul\":16783:16860   */\n    tag_335:\n        /* \"#utility.yul\":16886:16953   */\n      tag_336\n        /* \"#utility.yul\":16946:16952   */\n      dup6\n        /* \"#utility.yul\":16939:16944   */\n      dup3\n        /* \"#utility.yul\":16886:16953   */\n      tag_146\n      jump\t// in\n    tag_336:\n        /* \"#utility.yul\":16880:16884   */\n      dup7\n        /* \"#utility.yul\":16873:16954   */\n      sstore\n        /* \"#utility.yul\":16742:16964   */\n      pop\n        /* \"#utility.yul\":16077:16964   */\n      jump(tag_333)\n        /* \"#utility.yul\":16107:16725   */\n    tag_334:\n        /* \"#utility.yul\":16159:16163   */\n      0x1f\n        /* \"#utility.yul\":16155:16164   */\n      not\n        /* \"#utility.yul\":16147:16153   */\n      dup5\n        /* \"#utility.yul\":16143:16165   */\n      and\n        /* \"#utility.yul\":16193:16230   */\n      tag_337\n        /* \"#utility.yul\":16225:16229   */\n      dup7\n        /* \"#utility.yul\":16193:16230   */\n      tag_132\n      jump\t// in\n    tag_337:\n        /* \"#utility.yul\":16252:16253   */\n      0x00\n        /* \"#utility.yul\":16266:16474   */\n    tag_338:\n        /* \"#utility.yul\":16280:16287   */\n      dup3\n        /* \"#utility.yul\":16277:16278   */\n      dup2\n        /* \"#utility.yul\":16274:16288   */\n      lt\n        /* \"#utility.yul\":16266:16474   */\n      iszero\n      tag_340\n      jumpi\n        /* \"#utility.yul\":16359:16368   */\n      dup5\n        /* \"#utility.yul\":16354:16357   */\n      dup10\n        /* \"#utility.yul\":16350:16369   */\n      add\n        /* \"#utility.yul\":16344:16370   */\n      mload\n        /* \"#utility.yul\":16336:16342   */\n      dup3\n        /* \"#utility.yul\":16329:16371   */\n      sstore\n        /* \"#utility.yul\":16410:16411   */\n      0x01\n        /* \"#utility.yul\":16402:16408   */\n      dup3\n        /* \"#utility.yul\":16398:16412   */\n      add\n        /* \"#utility.yul\":16388:16412   */\n      swap2\n      pop\n        /* \"#utility.yul\":16457:16459   */\n      0x20\n        /* \"#utility.yul\":16446:16455   */\n      dup6\n        /* \"#utility.yul\":16442:16460   */\n      add\n        /* \"#utility.yul\":16429:16460   */\n      swap5\n      pop\n        /* \"#utility.yul\":16303:16307   */\n      0x20\n        /* \"#utility.yul\":16300:16301   */\n      dup2\n        /* \"#utility.yul\":16296:16308   */\n      add\n        /* \"#utility.yul\":16291:16308   */\n      swap1\n      pop\n        /* \"#utility.yul\":16266:16474   */\n      jump(tag_338)\n    tag_340:\n        /* \"#utility.yul\":16502:16508   */\n      dup7\n        /* \"#utility.yul\":16493:16500   */\n      dup4\n        /* \"#utility.yul\":16490:16509   */\n      lt\n        /* \"#utility.yul\":16487:16666   */\n      iszero\n      tag_341\n      jumpi\n        /* \"#utility.yul\":16560:16569   */\n      dup5\n        /* \"#utility.yul\":16555:16558   */\n      dup10\n        /* \"#utility.yul\":16551:16570   */\n      add\n        /* \"#utility.yul\":16545:16571   */\n      mload\n        /* \"#utility.yul\":16603:16651   */\n      tag_342\n        /* \"#utility.yul\":16645:16649   */\n      0x1f\n        /* \"#utility.yul\":16637:16643   */\n      dup10\n        /* \"#utility.yul\":16633:16650   */\n      and\n        /* \"#utility.yul\":16622:16631   */\n      dup3\n        /* \"#utility.yul\":16603:16651   */\n      tag_145\n      jump\t// in\n    tag_342:\n        /* \"#utility.yul\":16595:16601   */\n      dup4\n        /* \"#utility.yul\":16588:16652   */\n      sstore\n        /* \"#utility.yul\":16510:16666   */\n      pop\n        /* \"#utility.yul\":16487:16666   */\n    tag_341:\n        /* \"#utility.yul\":16712:16713   */\n      0x01\n        /* \"#utility.yul\":16708:16709   */\n      0x02\n        /* \"#utility.yul\":16700:16706   */\n      dup9\n        /* \"#utility.yul\":16696:16710   */\n      mul\n        /* \"#utility.yul\":16692:16714   */\n      add\n        /* \"#utility.yul\":16686:16690   */\n      dup9\n        /* \"#utility.yul\":16679:16715   */\n      sstore\n        /* \"#utility.yul\":16114:16725   */\n      pop\n      pop\n      pop\n        /* \"#utility.yul\":16077:16964   */\n    tag_333:\n      pop\n        /* \"#utility.yul\":15667:16970   */\n      pop\n      pop\n      pop\n        /* \"#utility.yul\":15575:16970   */\n      pop\n      pop\n      jump\t// out\n        /* \"#utility.yul\":16976:17145   */\n    tag_147:\n        /* \"#utility.yul\":17116:17137   */\n      0x4576656e742053657473204172652046756c6c00000000000000000000000000\n        /* \"#utility.yul\":17112:17113   */\n      0x00\n        /* \"#utility.yul\":17104:17110   */\n      dup3\n        /* \"#utility.yul\":17100:17114   */\n      add\n        /* \"#utility.yul\":17093:17138   */\n      mstore\n        /* \"#utility.yul\":16976:17145   */\n      pop\n      jump\t// out\n        /* \"#utility.yul\":17151:17517   */\n    tag_148:\n        /* \"#utility.yul\":17293:17296   */\n      0x00\n        /* \"#utility.yul\":17314:17381   */\n      tag_345\n        /* \"#utility.yul\":17378:17380   */\n      0x13\n        /* \"#utility.yul\":17373:17376   */\n      dup4\n        /* \"#utility.yul\":17314:17381   */\n      tag_122\n      jump\t// in\n    tag_345:\n        /* \"#utility.yul\":17307:17381   */\n      swap2\n      pop\n        /* \"#utility.yul\":17390:17483   */\n      tag_346\n        /* \"#utility.yul\":17479:17482   */\n      dup3\n        /* \"#utility.yul\":17390:17483   */\n      tag_147\n      jump\t// in\n    tag_346:\n        /* \"#utility.yul\":17508:17510   */\n      0x20\n        /* \"#utility.yul\":17503:17506   */\n      dup3\n        /* \"#utility.yul\":17499:17511   */\n      add\n        /* \"#utility.yul\":17492:17511   */\n      swap1\n      pop\n        /* \"#utility.yul\":17151:17517   */\n      swap2\n      swap1\n      pop\n      jump\t// out\n        /* \"#utility.yul\":17523:17942   */\n    tag_91:\n        /* \"#utility.yul\":17689:17693   */\n      0x00\n        /* \"#utility.yul\":17727:17729   */\n      0x20\n        /* \"#utility.yul\":17716:17725   */\n      dup3\n        /* \"#utility.yul\":17712:17730   */\n      add\n        /* \"#utility.yul\":17704:17730   */\n      swap1\n      pop\n        /* \"#utility.yul\":17776:17785   */\n      dup2\n        /* \"#utility.yul\":17770:17774   */\n      dup2\n        /* \"#utility.yul\":17766:17786   */\n      sub\n        /* \"#utility.yul\":17762:17763   */\n      0x00\n        /* \"#utility.yul\":17751:17760   */\n      dup4\n        /* \"#utility.yul\":17747:17764   */\n      add\n        /* \"#utility.yul\":17740:17787   */\n      mstore\n        /* \"#utility.yul\":17804:17935   */\n      tag_348\n        /* \"#utility.yul\":17930:17934   */\n      dup2\n        /* \"#utility.yul\":17804:17935   */\n      tag_148\n      jump\t// in\n    tag_348:\n        /* \"#utility.yul\":17796:17935   */\n      swap1\n      pop\n        /* \"#utility.yul\":17523:17942   */\n      swap2\n      swap1\n      pop\n      jump\t// out\n\n    auxdata: 0xa26469706673582212208fbaca3d2bc2d3a69b7c320a78ec4606174babef1b68877601c1a3bee77cad5164736f6c63430008120033\n}\n",
				"bytecode": {
					"linkReferences": {},
					"object": "608060405234801561001057600080fd5b5061137f806100206000396000f3fe6080604052600436106100705760003560e01c8063b824fbf01161004e578063b824fbf0146100d8578063c332136314610101578063dae7a13c14610144578063f45337491461018157610070565b80632e828d72146100755780636a1e5f801461009157806381c2adc0146100ad575b600080fd5b61008f600480360381019061008a91906109fb565b61019d565b005b6100ab60048036038101906100a69190610a4e565b6103de565b005b3480156100b957600080fd5b506100c2610428565b6040516100cf9190610a8a565b60405180910390f35b3480156100e457600080fd5b506100ff60048036038101906100fa9190610beb565b610430565b005b34801561010d57600080fd5b5061012860048036038101906101239190610ccc565b610537565b60405161013b9796959493929190610d78565b60405180910390f35b34801561015057600080fd5b5061016b60048036038101906101669190610e3a565b610711565b6040516101789190610a8a565b60405180910390f35b61019b60048036038101906101969190610e7a565b610736565b005b6000600160008481526020019081526020016000206006015490503482826101c59190610ee9565b14610205576040517f08c379a00000000000000000000000000000000000000000000000000000000081526004016101fc90610f77565b60405180910390fd5b81600260003373ffffffffffffffffffffffffffffffffffffffff1673ffffffffffffffffffffffffffffffffffffffff168152602001908152602001600020600085815260200190815260200160002060008282546102659190610f97565b925050819055506000600260008673ffffffffffffffffffffffffffffffffffffffff1673ffffffffffffffffffffffffffffffffffffffff1681526020019081526020016000206000858152602001908152602001600020540361031e5781600260008673ffffffffffffffffffffffffffffffffffffffff1673ffffffffffffffffffffffffffffffffffffffff168152602001908152602001600020600085815260200190815260200160002081905550610386565b81600260008673ffffffffffffffffffffffffffffffffffffffff1673ffffffffffffffffffffffffffffffffffffffff1681526020019081526020016000206000858152602001908152602001600020600082825461037e9190610fcb565b925050819055505b8373ffffffffffffffffffffffffffffffffffffffff166108fc83836103ac9190610ee9565b9081150290604051600060405180830381858888f193505050501580156103d7573d6000803e3d6000fd5b5050505050565b8073ffffffffffffffffffffffffffffffffffffffff166108fc349081150290604051600060405180830381858888f19350505050158015610424573d6000803e3d6000fd5b5050565b600047905090565b600060016000888152602001908152602001600020600301549050600080821461046a5784905081856104639190610fcb565b945061046e565b8490505b600081905060004290506040518060e001604052808a815260200189815260200182815260200188815260200183815260200187815260200186815250600160008c815260200190815260200160002060008201518160000190816104d3919061120b565b5060208201518160010190816104e9919061120b565b5060408201518160020155606082015181600301556080820151816004015560a082015181600501908161051d919061120b565b5060c0820151816006015590505050505050505050505050565b600160205280600052604060002060009150905080600001805461055a9061102e565b80601f01602080910402602001604051908101604052809291908181526020018280546105869061102e565b80156105d35780601f106105a8576101008083540402835291602001916105d3565b820191906000526020600020905b8154815290600101906020018083116105b657829003601f168201915b5050505050908060010180546105e89061102e565b80601f01602080910402602001604051908101604052809291908181526020018280546106149061102e565b80156106615780601f1061063657610100808354040283529160200191610661565b820191906000526020600020905b81548152906001019060200180831161064457829003601f168201915b5050505050908060020154908060030154908060040154908060050180546106889061102e565b80601f01602080910402602001604051908101604052809291908181526020018280546106b49061102e565b80156107015780601f106106d657610100808354040283529160200191610701565b820191906000526020600020905b8154815290600101906020018083116106e457829003601f168201915b5050505050908060060154905087565b6002602052816000526040600020602052806000526040600020600091509150505481565b600060016000848152602001908152602001600020600601549050600060016000858152602001908152602001600020600401549050600081036107af576040517f08c379a00000000000000000000000000000000000000000000000000000000081526004016107a690611329565b60405180910390fd5b3483836107bc9190610ee9565b146107fc576040517f08c379a00000000000000000000000000000000000000000000000000000000081526004016107f390610f77565b60405180910390fd5b82816108089190610f97565b6001600086815260200190815260200160002060040181905550828261082e9190610ee9565b6000819055506000600260003373ffffffffffffffffffffffffffffffffffffffff1673ffffffffffffffffffffffffffffffffffffffff1681526020019081526020016000206000868152602001908152602001600020549050600081146108f657838161089d9190610fcb565b600260003373ffffffffffffffffffffffffffffffffffffffff1673ffffffffffffffffffffffffffffffffffffffff16815260200190815260200160002060008781526020019081526020016000208190555061094c565b83600260003373ffffffffffffffffffffffffffffffffffffffff1673ffffffffffffffffffffffffffffffffffffffff1681526020019081526020016000206000878152602001908152602001600020819055505b5050505050565b6000604051905090565b600080fd5b600080fd5b600073ffffffffffffffffffffffffffffffffffffffff82169050919050565b600061099282610967565b9050919050565b6109a281610987565b81146109ad57600080fd5b50565b6000813590506109bf81610999565b92915050565b6000819050919050565b6109d8816109c5565b81146109e357600080fd5b50565b6000813590506109f5816109cf565b92915050565b600080600060608486031215610a1457610a1361095d565b5b6000610a22868287016109b0565b9350506020610a33868287016109e6565b9250506040610a44868287016109e6565b9150509250925092565b600060208284031215610a6457610a6361095d565b5b6000610a72848285016109b0565b91505092915050565b610a84816109c5565b82525050565b6000602082019050610a9f6000830184610a7b565b92915050565b600080fd5b600080fd5b6000601f19601f8301169050919050565b7f4e487b7100000000000000000000000000000000000000000000000000000000600052604160045260246000fd5b610af882610aaf565b810181811067ffffffffffffffff82111715610b1757610b16610ac0565b5b80604052505050565b6000610b2a610953565b9050610b368282610aef565b919050565b600067ffffffffffffffff821115610b5657610b55610ac0565b5b610b5f82610aaf565b9050602081019050919050565b82818337600083830152505050565b6000610b8e610b8984610b3b565b610b20565b905082815260208101848484011115610baa57610ba9610aaa565b5b610bb5848285610b6c565b509392505050565b600082601f830112610bd257610bd1610aa5565b5b8135610be2848260208601610b7b565b91505092915050565b60008060008060008060c08789031215610c0857610c0761095d565b5b6000610c1689828a016109e6565b965050602087013567ffffffffffffffff811115610c3757610c36610962565b5b610c4389828a01610bbd565b955050604087013567ffffffffffffffff811115610c6457610c63610962565b5b610c7089828a01610bbd565b9450506060610c8189828a016109e6565b935050608087013567ffffffffffffffff811115610ca257610ca1610962565b5b610cae89828a01610bbd565b92505060a0610cbf89828a016109e6565b9150509295509295509295565b600060208284031215610ce257610ce161095d565b5b6000610cf0848285016109e6565b91505092915050565b600081519050919050565b600082825260208201905092915050565b60005b83811015610d33578082015181840152602081019050610d18565b60008484015250505050565b6000610d4a82610cf9565b610d548185610d04565b9350610d64818560208601610d15565b610d6d81610aaf565b840191505092915050565b600060e0820190508181036000830152610d92818a610d3f565b90508181036020830152610da68189610d3f565b9050610db56040830188610a7b565b610dc26060830187610a7b565b610dcf6080830186610a7b565b81810360a0830152610de18185610d3f565b9050610df060c0830184610a7b565b98975050505050505050565b6000610e0782610967565b9050919050565b610e1781610dfc565b8114610e2257600080fd5b50565b600081359050610e3481610e0e565b92915050565b60008060408385031215610e5157610e5061095d565b5b6000610e5f85828601610e25565b9250506020610e70858286016109e6565b9150509250929050565b60008060408385031215610e9157610e9061095d565b5b6000610e9f858286016109e6565b9250506020610eb0858286016109e6565b9150509250929050565b7f4e487b7100000000000000000000000000000000000000000000000000000000600052601160045260246000fd5b6000610ef4826109c5565b9150610eff836109c5565b9250828202610f0d816109c5565b91508282048414831517610f2457610f23610eba565b5b5092915050565b7f46656573204e6f742066756c6c207061792e0000000000000000000000000000600082015250565b6000610f61601283610d04565b9150610f6c82610f2b565b602082019050919050565b60006020820190508181036000830152610f9081610f54565b9050919050565b6000610fa2826109c5565b9150610fad836109c5565b9250828203905081811115610fc557610fc4610eba565b5b92915050565b6000610fd6826109c5565b9150610fe1836109c5565b9250828201905080821115610ff957610ff8610eba565b5b92915050565b7f4e487b7100000000000000000000000000000000000000000000000000000000600052602260045260246000fd5b6000600282049050600182168061104657607f821691505b60208210810361105957611058610fff565b5b50919050565b60008190508160005260206000209050919050565b60006020601f8301049050919050565b600082821b905092915050565b6000600883026110c17fffffffffffffffffffffffffffffffffffffffffffffffffffffffffffffffff82611084565b6110cb8683611084565b95508019841693508086168417925050509392505050565b6000819050919050565b60006111086111036110fe846109c5565b6110e3565b6109c5565b9050919050565b6000819050919050565b611122836110ed565b61113661112e8261110f565b848454611091565b825550505050565b600090565b61114b61113e565b611156818484611119565b505050565b5b8181101561117a5761116f600082611143565b60018101905061115c565b5050565b601f8211156111bf576111908161105f565b61119984611074565b810160208510156111a8578190505b6111bc6111b485611074565b83018261115b565b50505b505050565b600082821c905092915050565b60006111e2600019846008026111c4565b1980831691505092915050565b60006111fb83836111d1565b9150826002028217905092915050565b61121482610cf9565b67ffffffffffffffff81111561122d5761122c610ac0565b5b611237825461102e565b61124282828561117e565b600060209050601f8311600181146112755760008415611263578287015190505b61126d85826111ef565b8655506112d5565b601f1984166112838661105f565b60005b828110156112ab57848901518255600182019150602085019450602081019050611286565b868310156112c857848901516112c4601f8916826111d1565b8355505b6001600288020188555050505b505050505050565b7f4576656e742053657473204172652046756c6c00000000000000000000000000600082015250565b6000611313601383610d04565b915061131e826112dd565b602082019050919050565b6000602082019050818103600083015261134281611306565b905091905056fea26469706673582212208fbaca3d2bc2d3a69b7c320a78ec4606174babef1b68877601c1a3bee77cad5164736f6c63430008120033",
					"opcodes": "PUSH1 0x80 PUSH1 0x40 MSTORE CALLVALUE DUP1 ISZERO PUSH2 0x10 JUMPI PUSH1 0x0 DUP1 REVERT JUMPDEST POP PUSH2 0x137F DUP1 PUSH2 0x20 PUSH1 0x0 CODECOPY PUSH1 0x0 RETURN INVALID PUSH1 0x80 PUSH1 0x40 MSTORE PUSH1 0x4 CALLDATASIZE LT PUSH2 0x70 JUMPI PUSH1 0x0 CALLDATALOAD PUSH1 0xE0 SHR DUP1 PUSH4 0xB824FBF0 GT PUSH2 0x4E JUMPI DUP1 PUSH4 0xB824FBF0 EQ PUSH2 0xD8 JUMPI DUP1 PUSH4 0xC3321363 EQ PUSH2 0x101 JUMPI DUP1 PUSH4 0xDAE7A13C EQ PUSH2 0x144 JUMPI DUP1 PUSH4 0xF4533749 EQ PUSH2 0x181 JUMPI PUSH2 0x70 JUMP JUMPDEST DUP1 PUSH4 0x2E828D72 EQ PUSH2 0x75 JUMPI DUP1 PUSH4 0x6A1E5F80 EQ PUSH2 0x91 JUMPI DUP1 PUSH4 0x81C2ADC0 EQ PUSH2 0xAD JUMPI JUMPDEST PUSH1 0x0 DUP1 REVERT JUMPDEST PUSH2 0x8F PUSH1 0x4 DUP1 CALLDATASIZE SUB DUP2 ADD SWAP1 PUSH2 0x8A SWAP2 SWAP1 PUSH2 0x9FB JUMP JUMPDEST PUSH2 0x19D JUMP JUMPDEST STOP JUMPDEST PUSH2 0xAB PUSH1 0x4 DUP1 CALLDATASIZE SUB DUP2 ADD SWAP1 PUSH2 0xA6 SWAP2 SWAP1 PUSH2 0xA4E JUMP JUMPDEST PUSH2 0x3DE JUMP JUMPDEST STOP JUMPDEST CALLVALUE DUP1 ISZERO PUSH2 0xB9 JUMPI PUSH1 0x0 DUP1 REVERT JUMPDEST POP PUSH2 0xC2 PUSH2 0x428 JUMP JUMPDEST PUSH1 0x40 MLOAD PUSH2 0xCF SWAP2 SWAP1 PUSH2 0xA8A JUMP JUMPDEST PUSH1 0x40 MLOAD DUP1 SWAP2 SUB SWAP1 RETURN JUMPDEST CALLVALUE DUP1 ISZERO PUSH2 0xE4 JUMPI PUSH1 0x0 DUP1 REVERT JUMPDEST POP PUSH2 0xFF PUSH1 0x4 DUP1 CALLDATASIZE SUB DUP2 ADD SWAP1 PUSH2 0xFA SWAP2 SWAP1 PUSH2 0xBEB JUMP JUMPDEST PUSH2 0x430 JUMP JUMPDEST STOP JUMPDEST CALLVALUE DUP1 ISZERO PUSH2 0x10D JUMPI PUSH1 0x0 DUP1 REVERT JUMPDEST POP PUSH2 0x128 PUSH1 0x4 DUP1 CALLDATASIZE SUB DUP2 ADD SWAP1 PUSH2 0x123 SWAP2 SWAP1 PUSH2 0xCCC JUMP JUMPDEST PUSH2 0x537 JUMP JUMPDEST PUSH1 0x40 MLOAD PUSH2 0x13B SWAP8 SWAP7 SWAP6 SWAP5 SWAP4 SWAP3 SWAP2 SWAP1 PUSH2 0xD78 JUMP JUMPDEST PUSH1 0x40 MLOAD DUP1 SWAP2 SUB SWAP1 RETURN JUMPDEST CALLVALUE DUP1 ISZERO PUSH2 0x150 JUMPI PUSH1 0x0 DUP1 REVERT JUMPDEST POP PUSH2 0x16B PUSH1 0x4 DUP1 CALLDATASIZE SUB DUP2 ADD SWAP1 PUSH2 0x166 SWAP2 SWAP1 PUSH2 0xE3A JUMP JUMPDEST PUSH2 0x711 JUMP JUMPDEST PUSH1 0x40 MLOAD PUSH2 0x178 SWAP2 SWAP1 PUSH2 0xA8A JUMP JUMPDEST PUSH1 0x40 MLOAD DUP1 SWAP2 SUB SWAP1 RETURN JUMPDEST PUSH2 0x19B PUSH1 0x4 DUP1 CALLDATASIZE SUB DUP2 ADD SWAP1 PUSH2 0x196 SWAP2 SWAP1 PUSH2 0xE7A JUMP JUMPDEST PUSH2 0x736 JUMP JUMPDEST STOP JUMPDEST PUSH1 0x0 PUSH1 0x1 PUSH1 0x0 DUP5 DUP2 MSTORE PUSH1 0x20 ADD SWAP1 DUP2 MSTORE PUSH1 0x20 ADD PUSH1 0x0 KECCAK256 PUSH1 0x6 ADD SLOAD SWAP1 POP CALLVALUE DUP3 DUP3 PUSH2 0x1C5 SWAP2 SWAP1 PUSH2 0xEE9 JUMP JUMPDEST EQ PUSH2 0x205 JUMPI PUSH1 0x40 MLOAD PUSH32 0x8C379A000000000000000000000000000000000000000000000000000000000 DUP2 MSTORE PUSH1 0x4 ADD PUSH2 0x1FC SWAP1 PUSH2 0xF77 JUMP JUMPDEST PUSH1 0x40 MLOAD DUP1 SWAP2 SUB SWAP1 REVERT JUMPDEST DUP2 PUSH1 0x2 PUSH1 0x0 CALLER PUSH20 0xFFFFFFFFFFFFFFFFFFFFFFFFFFFFFFFFFFFFFFFF AND PUSH20 0xFFFFFFFFFFFFFFFFFFFFFFFFFFFFFFFFFFFFFFFF AND DUP2 MSTORE PUSH1 0x20 ADD SWAP1 DUP2 MSTORE PUSH1 0x20 ADD PUSH1 0x0 KECCAK256 PUSH1 0x0 DUP6 DUP2 MSTORE PUSH1 0x20 ADD SWAP1 DUP2 MSTORE PUSH1 0x20 ADD PUSH1 0x0 KECCAK256 PUSH1 0x0 DUP3 DUP3 SLOAD PUSH2 0x265 SWAP2 SWAP1 PUSH2 0xF97 JUMP JUMPDEST SWAP3 POP POP DUP2 SWAP1 SSTORE POP PUSH1 0x0 PUSH1 0x2 PUSH1 0x0 DUP7 PUSH20 0xFFFFFFFFFFFFFFFFFFFFFFFFFFFFFFFFFFFFFFFF AND PUSH20 0xFFFFFFFFFFFFFFFFFFFFFFFFFFFFFFFFFFFFFFFF AND DUP2 MSTORE PUSH1 0x20 ADD SWAP1 DUP2 MSTORE PUSH1 0x20 ADD PUSH1 0x0 KECCAK256 PUSH1 0x0 DUP6 DUP2 MSTORE PUSH1 0x20 ADD SWAP1 DUP2 MSTORE PUSH1 0x20 ADD PUSH1 0x0 KECCAK256 SLOAD SUB PUSH2 0x31E JUMPI DUP2 PUSH1 0x2 PUSH1 0x0 DUP7 PUSH20 0xFFFFFFFFFFFFFFFFFFFFFFFFFFFFFFFFFFFFFFFF AND PUSH20 0xFFFFFFFFFFFFFFFFFFFFFFFFFFFFFFFFFFFFFFFF AND DUP2 MSTORE PUSH1 0x20 ADD SWAP1 DUP2 MSTORE PUSH1 0x20 ADD PUSH1 0x0 KECCAK256 PUSH1 0x0 DUP6 DUP2 MSTORE PUSH1 0x20 ADD SWAP1 DUP2 MSTORE PUSH1 0x20 ADD PUSH1 0x0 KECCAK256 DUP2 SWAP1 SSTORE POP PUSH2 0x386 JUMP JUMPDEST DUP2 PUSH1 0x2 PUSH1 0x0 DUP7 PUSH20 0xFFFFFFFFFFFFFFFFFFFFFFFFFFFFFFFFFFFFFFFF AND PUSH20 0xFFFFFFFFFFFFFFFFFFFFFFFFFFFFFFFFFFFFFFFF AND DUP2 MSTORE PUSH1 0x20 ADD SWAP1 DUP2 MSTORE PUSH1 0x20 ADD PUSH1 0x0 KECCAK256 PUSH1 0x0 DUP6 DUP2 MSTORE PUSH1 0x20 ADD SWAP1 DUP2 MSTORE PUSH1 0x20 ADD PUSH1 0x0 KECCAK256 PUSH1 0x0 DUP3 DUP3 SLOAD PUSH2 0x37E SWAP2 SWAP1 PUSH2 0xFCB JUMP JUMPDEST SWAP3 POP POP DUP2 SWAP1 SSTORE POP JUMPDEST DUP4 PUSH20 0xFFFFFFFFFFFFFFFFFFFFFFFFFFFFFFFFFFFFFFFF AND PUSH2 0x8FC DUP4 DUP4 PUSH2 0x3AC SWAP2 SWAP1 PUSH2 0xEE9 JUMP JUMPDEST SWAP1 DUP2 ISZERO MUL SWAP1 PUSH1 0x40 MLOAD PUSH1 0x0 PUSH1 0x40 MLOAD DUP1 DUP4 SUB DUP2 DUP6 DUP9 DUP9 CALL SWAP4 POP POP POP POP ISZERO DUP1 ISZERO PUSH2 0x3D7 JUMPI RETURNDATASIZE PUSH1 0x0 DUP1 RETURNDATACOPY RETURNDATASIZE PUSH1 0x0 REVERT JUMPDEST POP POP POP POP POP JUMP JUMPDEST DUP1 PUSH20 0xFFFFFFFFFFFFFFFFFFFFFFFFFFFFFFFFFFFFFFFF AND PUSH2 0x8FC CALLVALUE SWAP1 DUP2 ISZERO MUL SWAP1 PUSH1 0x40 MLOAD PUSH1 0x0 PUSH1 0x40 MLOAD DUP1 DUP4 SUB DUP2 DUP6 DUP9 DUP9 CALL SWAP4 POP POP POP POP ISZERO DUP1 ISZERO PUSH2 0x424 JUMPI RETURNDATASIZE PUSH1 0x0 DUP1 RETURNDATACOPY RETURNDATASIZE PUSH1 0x0 REVERT JUMPDEST POP POP JUMP JUMPDEST PUSH1 0x0 SELFBALANCE SWAP1 POP SWAP1 JUMP JUMPDEST PUSH1 0x0 PUSH1 0x1 PUSH1 0x0 DUP9 DUP2 MSTORE PUSH1 0x20 ADD SWAP1 DUP2 MSTORE PUSH1 0x20 ADD PUSH1 0x0 KECCAK256 PUSH1 0x3 ADD SLOAD SWAP1 POP PUSH1 0x0 DUP1 DUP3 EQ PUSH2 0x46A JUMPI DUP5 SWAP1 POP DUP2 DUP6 PUSH2 0x463 SWAP2 SWAP1 PUSH2 0xFCB JUMP JUMPDEST SWAP5 POP PUSH2 0x46E JUMP JUMPDEST DUP5 SWAP1 POP JUMPDEST PUSH1 0x0 DUP2 SWAP1 POP PUSH1 0x0 TIMESTAMP SWAP1 POP PUSH1 0x40 MLOAD DUP1 PUSH1 0xE0 ADD PUSH1 0x40 MSTORE DUP1 DUP11 DUP2 MSTORE PUSH1 0x20 ADD DUP10 DUP2 MSTORE PUSH1 0x20 ADD DUP3 DUP2 MSTORE PUSH1 0x20 ADD DUP9 DUP2 MSTORE PUSH1 0x20 ADD DUP4 DUP2 MSTORE PUSH1 0x20 ADD DUP8 DUP2 MSTORE PUSH1 0x20 ADD DUP7 DUP2 MSTORE POP PUSH1 0x1 PUSH1 0x0 DUP13 DUP2 MSTORE PUSH1 0x20 ADD SWAP1 DUP2 MSTORE PUSH1 0x20 ADD PUSH1 0x0 KECCAK256 PUSH1 0x0 DUP3 ADD MLOAD DUP2 PUSH1 0x0 ADD SWAP1 DUP2 PUSH2 0x4D3 SWAP2 SWAP1 PUSH2 0x120B JUMP JUMPDEST POP PUSH1 0x20 DUP3 ADD MLOAD DUP2 PUSH1 0x1 ADD SWAP1 DUP2 PUSH2 0x4E9 SWAP2 SWAP1 PUSH2 0x120B JUMP JUMPDEST POP PUSH1 0x40 DUP3 ADD MLOAD DUP2 PUSH1 0x2 ADD SSTORE PUSH1 0x60 DUP3 ADD MLOAD DUP2 PUSH1 0x3 ADD SSTORE PUSH1 0x80 DUP3 ADD MLOAD DUP2 PUSH1 0x4 ADD SSTORE PUSH1 0xA0 DUP3 ADD MLOAD DUP2 PUSH1 0x5 ADD SWAP1 DUP2 PUSH2 0x51D SWAP2 SWAP1 PUSH2 0x120B JUMP JUMPDEST POP PUSH1 0xC0 DUP3 ADD MLOAD DUP2 PUSH1 0x6 ADD SSTORE SWAP1 POP POP POP POP POP POP POP POP POP POP POP POP JUMP JUMPDEST PUSH1 0x1 PUSH1 0x20 MSTORE DUP1 PUSH1 0x0 MSTORE PUSH1 0x40 PUSH1 0x0 KECCAK256 PUSH1 0x0 SWAP2 POP SWAP1 POP DUP1 PUSH1 0x0 ADD DUP1 SLOAD PUSH2 0x55A SWAP1 PUSH2 0x102E JUMP JUMPDEST DUP1 PUSH1 0x1F ADD PUSH1 0x20 DUP1 SWAP2 DIV MUL PUSH1 0x20 ADD PUSH1 0x40 MLOAD SWAP1 DUP2 ADD PUSH1 0x40 MSTORE DUP1 SWAP3 SWAP2 SWAP1 DUP2 DUP2 MSTORE PUSH1 0x20 ADD DUP3 DUP1 SLOAD PUSH2 0x586 SWAP1 PUSH2 0x102E JUMP JUMPDEST DUP1 ISZERO PUSH2 0x5D3 JUMPI DUP1 PUSH1 0x1F LT PUSH2 0x5A8 JUMPI PUSH2 0x100 DUP1 DUP4 SLOAD DIV MUL DUP4 MSTORE SWAP2 PUSH1 0x20 ADD SWAP2 PUSH2 0x5D3 JUMP JUMPDEST DUP3 ADD SWAP2 SWAP1 PUSH1 0x0 MSTORE PUSH1 0x20 PUSH1 0x0 KECCAK256 SWAP1 JUMPDEST DUP2 SLOAD DUP2 MSTORE SWAP1 PUSH1 0x1 ADD SWAP1 PUSH1 0x20 ADD DUP1 DUP4 GT PUSH2 0x5B6 JUMPI DUP3 SWAP1 SUB PUSH1 0x1F AND DUP3 ADD SWAP2 JUMPDEST POP POP POP POP POP SWAP1 DUP1 PUSH1 0x1 ADD DUP1 SLOAD PUSH2 0x5E8 SWAP1 PUSH2 0x102E JUMP JUMPDEST DUP1 PUSH1 0x1F ADD PUSH1 0x20 DUP1 SWAP2 DIV MUL PUSH1 0x20 ADD PUSH1 0x40 MLOAD SWAP1 DUP2 ADD PUSH1 0x40 MSTORE DUP1 SWAP3 SWAP2 SWAP1 DUP2 DUP2 MSTORE PUSH1 0x20 ADD DUP3 DUP1 SLOAD PUSH2 0x614 SWAP1 PUSH2 0x102E JUMP JUMPDEST DUP1 ISZERO PUSH2 0x661 JUMPI DUP1 PUSH1 0x1F LT PUSH2 0x636 JUMPI PUSH2 0x100 DUP1 DUP4 SLOAD DIV MUL DUP4 MSTORE SWAP2 PUSH1 0x20 ADD SWAP2 PUSH2 0x661 JUMP JUMPDEST DUP3 ADD SWAP2 SWAP1 PUSH1 0x0 MSTORE PUSH1 0x20 PUSH1 0x0 KECCAK256 SWAP1 JUMPDEST DUP2 SLOAD DUP2 MSTORE SWAP1 PUSH1 0x1 ADD SWAP1 PUSH1 0x20 ADD DUP1 DUP4 GT PUSH2 0x644 JUMPI DUP3 SWAP1 SUB PUSH1 0x1F AND DUP3 ADD SWAP2 JUMPDEST POP POP POP POP POP SWAP1 DUP1 PUSH1 0x2 ADD SLOAD SWAP1 DUP1 PUSH1 0x3 ADD SLOAD SWAP1 DUP1 PUSH1 0x4 ADD SLOAD SWAP1 DUP1 PUSH1 0x5 ADD DUP1 SLOAD PUSH2 0x688 SWAP1 PUSH2 0x102E JUMP JUMPDEST DUP1 PUSH1 0x1F ADD PUSH1 0x20 DUP1 SWAP2 DIV MUL PUSH1 0x20 ADD PUSH1 0x40 MLOAD SWAP1 DUP2 ADD PUSH1 0x40 MSTORE DUP1 SWAP3 SWAP2 SWAP1 DUP2 DUP2 MSTORE PUSH1 0x20 ADD DUP3 DUP1 SLOAD PUSH2 0x6B4 SWAP1 PUSH2 0x102E JUMP JUMPDEST DUP1 ISZERO PUSH2 0x701 JUMPI DUP1 PUSH1 0x1F LT PUSH2 0x6D6 JUMPI PUSH2 0x100 DUP1 DUP4 SLOAD DIV MUL DUP4 MSTORE SWAP2 PUSH1 0x20 ADD SWAP2 PUSH2 0x701 JUMP JUMPDEST DUP3 ADD SWAP2 SWAP1 PUSH1 0x0 MSTORE PUSH1 0x20 PUSH1 0x0 KECCAK256 SWAP1 JUMPDEST DUP2 SLOAD DUP2 MSTORE SWAP1 PUSH1 0x1 ADD SWAP1 PUSH1 0x20 ADD DUP1 DUP4 GT PUSH2 0x6E4 JUMPI DUP3 SWAP1 SUB PUSH1 0x1F AND DUP3 ADD SWAP2 JUMPDEST POP POP POP POP POP SWAP1 DUP1 PUSH1 0x6 ADD SLOAD SWAP1 POP DUP8 JUMP JUMPDEST PUSH1 0x2 PUSH1 0x20 MSTORE DUP2 PUSH1 0x0 MSTORE PUSH1 0x40 PUSH1 0x0 KECCAK256 PUSH1 0x20 MSTORE DUP1 PUSH1 0x0 MSTORE PUSH1 0x40 PUSH1 0x0 KECCAK256 PUSH1 0x0 SWAP2 POP SWAP2 POP POP SLOAD DUP2 JUMP JUMPDEST PUSH1 0x0 PUSH1 0x1 PUSH1 0x0 DUP5 DUP2 MSTORE PUSH1 0x20 ADD SWAP1 DUP2 MSTORE PUSH1 0x20 ADD PUSH1 0x0 KECCAK256 PUSH1 0x6 ADD SLOAD SWAP1 POP PUSH1 0x0 PUSH1 0x1 PUSH1 0x0 DUP6 DUP2 MSTORE PUSH1 0x20 ADD SWAP1 DUP2 MSTORE PUSH1 0x20 ADD PUSH1 0x0 KECCAK256 PUSH1 0x4 ADD SLOAD SWAP1 POP PUSH1 0x0 DUP2 SUB PUSH2 0x7AF JUMPI PUSH1 0x40 MLOAD PUSH32 0x8C379A000000000000000000000000000000000000000000000000000000000 DUP2 MSTORE PUSH1 0x4 ADD PUSH2 0x7A6 SWAP1 PUSH2 0x1329 JUMP JUMPDEST PUSH1 0x40 MLOAD DUP1 SWAP2 SUB SWAP1 REVERT JUMPDEST CALLVALUE DUP4 DUP4 PUSH2 0x7BC SWAP2 SWAP1 PUSH2 0xEE9 JUMP JUMPDEST EQ PUSH2 0x7FC JUMPI PUSH1 0x40 MLOAD PUSH32 0x8C379A000000000000000000000000000000000000000000000000000000000 DUP2 MSTORE PUSH1 0x4 ADD PUSH2 0x7F3 SWAP1 PUSH2 0xF77 JUMP JUMPDEST PUSH1 0x40 MLOAD DUP1 SWAP2 SUB SWAP1 REVERT JUMPDEST DUP3 DUP2 PUSH2 0x808 SWAP2 SWAP1 PUSH2 0xF97 JUMP JUMPDEST PUSH1 0x1 PUSH1 0x0 DUP7 DUP2 MSTORE PUSH1 0x20 ADD SWAP1 DUP2 MSTORE PUSH1 0x20 ADD PUSH1 0x0 KECCAK256 PUSH1 0x4 ADD DUP2 SWAP1 SSTORE POP DUP3 DUP3 PUSH2 0x82E SWAP2 SWAP1 PUSH2 0xEE9 JUMP JUMPDEST PUSH1 0x0 DUP2 SWAP1 SSTORE POP PUSH1 0x0 PUSH1 0x2 PUSH1 0x0 CALLER PUSH20 0xFFFFFFFFFFFFFFFFFFFFFFFFFFFFFFFFFFFFFFFF AND PUSH20 0xFFFFFFFFFFFFFFFFFFFFFFFFFFFFFFFFFFFFFFFF AND DUP2 MSTORE PUSH1 0x20 ADD SWAP1 DUP2 MSTORE PUSH1 0x20 ADD PUSH1 0x0 KECCAK256 PUSH1 0x0 DUP7 DUP2 MSTORE PUSH1 0x20 ADD SWAP1 DUP2 MSTORE PUSH1 0x20 ADD PUSH1 0x0 KECCAK256 SLOAD SWAP1 POP PUSH1 0x0 DUP2 EQ PUSH2 0x8F6 JUMPI DUP4 DUP2 PUSH2 0x89D SWAP2 SWAP1 PUSH2 0xFCB JUMP JUMPDEST PUSH1 0x2 PUSH1 0x0 CALLER PUSH20 0xFFFFFFFFFFFFFFFFFFFFFFFFFFFFFFFFFFFFFFFF AND PUSH20 0xFFFFFFFFFFFFFFFFFFFFFFFFFFFFFFFFFFFFFFFF AND DUP2 MSTORE PUSH1 0x20 ADD SWAP1 DUP2 MSTORE PUSH1 0x20 ADD PUSH1 0x0 KECCAK256 PUSH1 0x0 DUP8 DUP2 MSTORE PUSH1 0x20 ADD SWAP1 DUP2 MSTORE PUSH1 0x20 ADD PUSH1 0x0 KECCAK256 DUP2 SWAP1 SSTORE POP PUSH2 0x94C JUMP JUMPDEST DUP4 PUSH1 0x2 PUSH1 0x0 CALLER PUSH20 0xFFFFFFFFFFFFFFFFFFFFFFFFFFFFFFFFFFFFFFFF AND PUSH20 0xFFFFFFFFFFFFFFFFFFFFFFFFFFFFFFFFFFFFFFFF AND DUP2 MSTORE PUSH1 0x20 ADD SWAP1 DUP2 MSTORE PUSH1 0x20 ADD PUSH1 0x0 KECCAK256 PUSH1 0x0 DUP8 DUP2 MSTORE PUSH1 0x20 ADD SWAP1 DUP2 MSTORE PUSH1 0x20 ADD PUSH1 0x0 KECCAK256 DUP2 SWAP1 SSTORE POP JUMPDEST POP POP POP POP POP JUMP JUMPDEST PUSH1 0x0 PUSH1 0x40 MLOAD SWAP1 POP SWAP1 JUMP JUMPDEST PUSH1 0x0 DUP1 REVERT JUMPDEST PUSH1 0x0 DUP1 REVERT JUMPDEST PUSH1 0x0 PUSH20 0xFFFFFFFFFFFFFFFFFFFFFFFFFFFFFFFFFFFFFFFF DUP3 AND SWAP1 POP SWAP2 SWAP1 POP JUMP JUMPDEST PUSH1 0x0 PUSH2 0x992 DUP3 PUSH2 0x967 JUMP JUMPDEST SWAP1 POP SWAP2 SWAP1 POP JUMP JUMPDEST PUSH2 0x9A2 DUP2 PUSH2 0x987 JUMP JUMPDEST DUP2 EQ PUSH2 0x9AD JUMPI PUSH1 0x0 DUP1 REVERT JUMPDEST POP JUMP JUMPDEST PUSH1 0x0 DUP2 CALLDATALOAD SWAP1 POP PUSH2 0x9BF DUP2 PUSH2 0x999 JUMP JUMPDEST SWAP3 SWAP2 POP POP JUMP JUMPDEST PUSH1 0x0 DUP2 SWAP1 POP SWAP2 SWAP1 POP JUMP JUMPDEST PUSH2 0x9D8 DUP2 PUSH2 0x9C5 JUMP JUMPDEST DUP2 EQ PUSH2 0x9E3 JUMPI PUSH1 0x0 DUP1 REVERT JUMPDEST POP JUMP JUMPDEST PUSH1 0x0 DUP2 CALLDATALOAD SWAP1 POP PUSH2 0x9F5 DUP2 PUSH2 0x9CF JUMP JUMPDEST SWAP3 SWAP2 POP POP JUMP JUMPDEST PUSH1 0x0 DUP1 PUSH1 0x0 PUSH1 0x60 DUP5 DUP7 SUB SLT ISZERO PUSH2 0xA14 JUMPI PUSH2 0xA13 PUSH2 0x95D JUMP JUMPDEST JUMPDEST PUSH1 0x0 PUSH2 0xA22 DUP7 DUP3 DUP8 ADD PUSH2 0x9B0 JUMP JUMPDEST SWAP4 POP POP PUSH1 0x20 PUSH2 0xA33 DUP7 DUP3 DUP8 ADD PUSH2 0x9E6 JUMP JUMPDEST SWAP3 POP POP PUSH1 0x40 PUSH2 0xA44 DUP7 DUP3 DUP8 ADD PUSH2 0x9E6 JUMP JUMPDEST SWAP2 POP POP SWAP3 POP SWAP3 POP SWAP3 JUMP JUMPDEST PUSH1 0x0 PUSH1 0x20 DUP3 DUP5 SUB SLT ISZERO PUSH2 0xA64 JUMPI PUSH2 0xA63 PUSH2 0x95D JUMP JUMPDEST JUMPDEST PUSH1 0x0 PUSH2 0xA72 DUP5 DUP3 DUP6 ADD PUSH2 0x9B0 JUMP JUMPDEST SWAP2 POP POP SWAP3 SWAP2 POP POP JUMP JUMPDEST PUSH2 0xA84 DUP2 PUSH2 0x9C5 JUMP JUMPDEST DUP3 MSTORE POP POP JUMP JUMPDEST PUSH1 0x0 PUSH1 0x20 DUP3 ADD SWAP1 POP PUSH2 0xA9F PUSH1 0x0 DUP4 ADD DUP5 PUSH2 0xA7B JUMP JUMPDEST SWAP3 SWAP2 POP POP JUMP JUMPDEST PUSH1 0x0 DUP1 REVERT JUMPDEST PUSH1 0x0 DUP1 REVERT JUMPDEST PUSH1 0x0 PUSH1 0x1F NOT PUSH1 0x1F DUP4 ADD AND SWAP1 POP SWAP2 SWAP1 POP JUMP JUMPDEST PUSH32 0x4E487B7100000000000000000000000000000000000000000000000000000000 PUSH1 0x0 MSTORE PUSH1 0x41 PUSH1 0x4 MSTORE PUSH1 0x24 PUSH1 0x0 REVERT JUMPDEST PUSH2 0xAF8 DUP3 PUSH2 0xAAF JUMP JUMPDEST DUP2 ADD DUP2 DUP2 LT PUSH8 0xFFFFFFFFFFFFFFFF DUP3 GT OR ISZERO PUSH2 0xB17 JUMPI PUSH2 0xB16 PUSH2 0xAC0 JUMP JUMPDEST JUMPDEST DUP1 PUSH1 0x40 MSTORE POP POP POP JUMP JUMPDEST PUSH1 0x0 PUSH2 0xB2A PUSH2 0x953 JUMP JUMPDEST SWAP1 POP PUSH2 0xB36 DUP3 DUP3 PUSH2 0xAEF JUMP JUMPDEST SWAP2 SWAP1 POP JUMP JUMPDEST PUSH1 0x0 PUSH8 0xFFFFFFFFFFFFFFFF DUP3 GT ISZERO PUSH2 0xB56 JUMPI PUSH2 0xB55 PUSH2 0xAC0 JUMP JUMPDEST JUMPDEST PUSH2 0xB5F DUP3 PUSH2 0xAAF JUMP JUMPDEST SWAP1 POP PUSH1 0x20 DUP2 ADD SWAP1 POP SWAP2 SWAP1 POP JUMP JUMPDEST DUP3 DUP2 DUP4 CALLDATACOPY PUSH1 0x0 DUP4 DUP4 ADD MSTORE POP POP POP JUMP JUMPDEST PUSH1 0x0 PUSH2 0xB8E PUSH2 0xB89 DUP5 PUSH2 0xB3B JUMP JUMPDEST PUSH2 0xB20 JUMP JUMPDEST SWAP1 POP DUP3 DUP2 MSTORE PUSH1 0x20 DUP2 ADD DUP5 DUP5 DUP5 ADD GT ISZERO PUSH2 0xBAA JUMPI PUSH2 0xBA9 PUSH2 0xAAA JUMP JUMPDEST JUMPDEST PUSH2 0xBB5 DUP5 DUP3 DUP6 PUSH2 0xB6C JUMP JUMPDEST POP SWAP4 SWAP3 POP POP POP JUMP JUMPDEST PUSH1 0x0 DUP3 PUSH1 0x1F DUP4 ADD SLT PUSH2 0xBD2 JUMPI PUSH2 0xBD1 PUSH2 0xAA5 JUMP JUMPDEST JUMPDEST DUP2 CALLDATALOAD PUSH2 0xBE2 DUP5 DUP3 PUSH1 0x20 DUP7 ADD PUSH2 0xB7B JUMP JUMPDEST SWAP2 POP POP SWAP3 SWAP2 POP POP JUMP JUMPDEST PUSH1 0x0 DUP1 PUSH1 0x0 DUP1 PUSH1 0x0 DUP1 PUSH1 0xC0 DUP8 DUP10 SUB SLT ISZERO PUSH2 0xC08 JUMPI PUSH2 0xC07 PUSH2 0x95D JUMP JUMPDEST JUMPDEST PUSH1 0x0 PUSH2 0xC16 DUP10 DUP3 DUP11 ADD PUSH2 0x9E6 JUMP JUMPDEST SWAP7 POP POP PUSH1 0x20 DUP8 ADD CALLDATALOAD PUSH8 0xFFFFFFFFFFFFFFFF DUP2 GT ISZERO PUSH2 0xC37 JUMPI PUSH2 0xC36 PUSH2 0x962 JUMP JUMPDEST JUMPDEST PUSH2 0xC43 DUP10 DUP3 DUP11 ADD PUSH2 0xBBD JUMP JUMPDEST SWAP6 POP POP PUSH1 0x40 DUP8 ADD CALLDATALOAD PUSH8 0xFFFFFFFFFFFFFFFF DUP2 GT ISZERO PUSH2 0xC64 JUMPI PUSH2 0xC63 PUSH2 0x962 JUMP JUMPDEST JUMPDEST PUSH2 0xC70 DUP10 DUP3 DUP11 ADD PUSH2 0xBBD JUMP JUMPDEST SWAP5 POP POP PUSH1 0x60 PUSH2 0xC81 DUP10 DUP3 DUP11 ADD PUSH2 0x9E6 JUMP JUMPDEST SWAP4 POP POP PUSH1 0x80 DUP8 ADD CALLDATALOAD PUSH8 0xFFFFFFFFFFFFFFFF DUP2 GT ISZERO PUSH2 0xCA2 JUMPI PUSH2 0xCA1 PUSH2 0x962 JUMP JUMPDEST JUMPDEST PUSH2 0xCAE DUP10 DUP3 DUP11 ADD PUSH2 0xBBD JUMP JUMPDEST SWAP3 POP POP PUSH1 0xA0 PUSH2 0xCBF DUP10 DUP3 DUP11 ADD PUSH2 0x9E6 JUMP JUMPDEST SWAP2 POP POP SWAP3 SWAP6 POP SWAP3 SWAP6 POP SWAP3 SWAP6 JUMP JUMPDEST PUSH1 0x0 PUSH1 0x20 DUP3 DUP5 SUB SLT ISZERO PUSH2 0xCE2 JUMPI PUSH2 0xCE1 PUSH2 0x95D JUMP JUMPDEST JUMPDEST PUSH1 0x0 PUSH2 0xCF0 DUP5 DUP3 DUP6 ADD PUSH2 0x9E6 JUMP JUMPDEST SWAP2 POP POP SWAP3 SWAP2 POP POP JUMP JUMPDEST PUSH1 0x0 DUP2 MLOAD SWAP1 POP SWAP2 SWAP1 POP JUMP JUMPDEST PUSH1 0x0 DUP3 DUP3 MSTORE PUSH1 0x20 DUP3 ADD SWAP1 POP SWAP3 SWAP2 POP POP JUMP JUMPDEST PUSH1 0x0 JUMPDEST DUP4 DUP2 LT ISZERO PUSH2 0xD33 JUMPI DUP1 DUP3 ADD MLOAD DUP2 DUP5 ADD MSTORE PUSH1 0x20 DUP2 ADD SWAP1 POP PUSH2 0xD18 JUMP JUMPDEST PUSH1 0x0 DUP5 DUP5 ADD MSTORE POP POP POP POP JUMP JUMPDEST PUSH1 0x0 PUSH2 0xD4A DUP3 PUSH2 0xCF9 JUMP JUMPDEST PUSH2 0xD54 DUP2 DUP6 PUSH2 0xD04 JUMP JUMPDEST SWAP4 POP PUSH2 0xD64 DUP2 DUP6 PUSH1 0x20 DUP7 ADD PUSH2 0xD15 JUMP JUMPDEST PUSH2 0xD6D DUP2 PUSH2 0xAAF JUMP JUMPDEST DUP5 ADD SWAP2 POP POP SWAP3 SWAP2 POP POP JUMP JUMPDEST PUSH1 0x0 PUSH1 0xE0 DUP3 ADD SWAP1 POP DUP2 DUP2 SUB PUSH1 0x0 DUP4 ADD MSTORE PUSH2 0xD92 DUP2 DUP11 PUSH2 0xD3F JUMP JUMPDEST SWAP1 POP DUP2 DUP2 SUB PUSH1 0x20 DUP4 ADD MSTORE PUSH2 0xDA6 DUP2 DUP10 PUSH2 0xD3F JUMP JUMPDEST SWAP1 POP PUSH2 0xDB5 PUSH1 0x40 DUP4 ADD DUP9 PUSH2 0xA7B JUMP JUMPDEST PUSH2 0xDC2 PUSH1 0x60 DUP4 ADD DUP8 PUSH2 0xA7B JUMP JUMPDEST PUSH2 0xDCF PUSH1 0x80 DUP4 ADD DUP7 PUSH2 0xA7B JUMP JUMPDEST DUP2 DUP2 SUB PUSH1 0xA0 DUP4 ADD MSTORE PUSH2 0xDE1 DUP2 DUP6 PUSH2 0xD3F JUMP JUMPDEST SWAP1 POP PUSH2 0xDF0 PUSH1 0xC0 DUP4 ADD DUP5 PUSH2 0xA7B JUMP JUMPDEST SWAP9 SWAP8 POP POP POP POP POP POP POP POP JUMP JUMPDEST PUSH1 0x0 PUSH2 0xE07 DUP3 PUSH2 0x967 JUMP JUMPDEST SWAP1 POP SWAP2 SWAP1 POP JUMP JUMPDEST PUSH2 0xE17 DUP2 PUSH2 0xDFC JUMP JUMPDEST DUP2 EQ PUSH2 0xE22 JUMPI PUSH1 0x0 DUP1 REVERT JUMPDEST POP JUMP JUMPDEST PUSH1 0x0 DUP2 CALLDATALOAD SWAP1 POP PUSH2 0xE34 DUP2 PUSH2 0xE0E JUMP JUMPDEST SWAP3 SWAP2 POP POP JUMP JUMPDEST PUSH1 0x0 DUP1 PUSH1 0x40 DUP4 DUP6 SUB SLT ISZERO PUSH2 0xE51 JUMPI PUSH2 0xE50 PUSH2 0x95D JUMP JUMPDEST JUMPDEST PUSH1 0x0 PUSH2 0xE5F DUP6 DUP3 DUP7 ADD PUSH2 0xE25 JUMP JUMPDEST SWAP3 POP POP PUSH1 0x20 PUSH2 0xE70 DUP6 DUP3 DUP7 ADD PUSH2 0x9E6 JUMP JUMPDEST SWAP2 POP POP SWAP3 POP SWAP3 SWAP1 POP JUMP JUMPDEST PUSH1 0x0 DUP1 PUSH1 0x40 DUP4 DUP6 SUB SLT ISZERO PUSH2 0xE91 JUMPI PUSH2 0xE90 PUSH2 0x95D JUMP JUMPDEST JUMPDEST PUSH1 0x0 PUSH2 0xE9F DUP6 DUP3 DUP7 ADD PUSH2 0x9E6 JUMP JUMPDEST SWAP3 POP POP PUSH1 0x20 PUSH2 0xEB0 DUP6 DUP3 DUP7 ADD PUSH2 0x9E6 JUMP JUMPDEST SWAP2 POP POP SWAP3 POP SWAP3 SWAP1 POP JUMP JUMPDEST PUSH32 0x4E487B7100000000000000000000000000000000000000000000000000000000 PUSH1 0x0 MSTORE PUSH1 0x11 PUSH1 0x4 MSTORE PUSH1 0x24 PUSH1 0x0 REVERT JUMPDEST PUSH1 0x0 PUSH2 0xEF4 DUP3 PUSH2 0x9C5 JUMP JUMPDEST SWAP2 POP PUSH2 0xEFF DUP4 PUSH2 0x9C5 JUMP JUMPDEST SWAP3 POP DUP3 DUP3 MUL PUSH2 0xF0D DUP2 PUSH2 0x9C5 JUMP JUMPDEST SWAP2 POP DUP3 DUP3 DIV DUP5 EQ DUP4 ISZERO OR PUSH2 0xF24 JUMPI PUSH2 0xF23 PUSH2 0xEBA JUMP JUMPDEST JUMPDEST POP SWAP3 SWAP2 POP POP JUMP JUMPDEST PUSH32 0x46656573204E6F742066756C6C207061792E0000000000000000000000000000 PUSH1 0x0 DUP3 ADD MSTORE POP JUMP JUMPDEST PUSH1 0x0 PUSH2 0xF61 PUSH1 0x12 DUP4 PUSH2 0xD04 JUMP JUMPDEST SWAP2 POP PUSH2 0xF6C DUP3 PUSH2 0xF2B JUMP JUMPDEST PUSH1 0x20 DUP3 ADD SWAP1 POP SWAP2 SWAP1 POP JUMP JUMPDEST PUSH1 0x0 PUSH1 0x20 DUP3 ADD SWAP1 POP DUP2 DUP2 SUB PUSH1 0x0 DUP4 ADD MSTORE PUSH2 0xF90 DUP2 PUSH2 0xF54 JUMP JUMPDEST SWAP1 POP SWAP2 SWAP1 POP JUMP JUMPDEST PUSH1 0x0 PUSH2 0xFA2 DUP3 PUSH2 0x9C5 JUMP JUMPDEST SWAP2 POP PUSH2 0xFAD DUP4 PUSH2 0x9C5 JUMP JUMPDEST SWAP3 POP DUP3 DUP3 SUB SWAP1 POP DUP2 DUP2 GT ISZERO PUSH2 0xFC5 JUMPI PUSH2 0xFC4 PUSH2 0xEBA JUMP JUMPDEST JUMPDEST SWAP3 SWAP2 POP POP JUMP JUMPDEST PUSH1 0x0 PUSH2 0xFD6 DUP3 PUSH2 0x9C5 JUMP JUMPDEST SWAP2 POP PUSH2 0xFE1 DUP4 PUSH2 0x9C5 JUMP JUMPDEST SWAP3 POP DUP3 DUP3 ADD SWAP1 POP DUP1 DUP3 GT ISZERO PUSH2 0xFF9 JUMPI PUSH2 0xFF8 PUSH2 0xEBA JUMP JUMPDEST JUMPDEST SWAP3 SWAP2 POP POP JUMP JUMPDEST PUSH32 0x4E487B7100000000000000000000000000000000000000000000000000000000 PUSH1 0x0 MSTORE PUSH1 0x22 PUSH1 0x4 MSTORE PUSH1 0x24 PUSH1 0x0 REVERT JUMPDEST PUSH1 0x0 PUSH1 0x2 DUP3 DIV SWAP1 POP PUSH1 0x1 DUP3 AND DUP1 PUSH2 0x1046 JUMPI PUSH1 0x7F DUP3 AND SWAP2 POP JUMPDEST PUSH1 0x20 DUP3 LT DUP2 SUB PUSH2 0x1059 JUMPI PUSH2 0x1058 PUSH2 0xFFF JUMP JUMPDEST JUMPDEST POP SWAP2 SWAP1 POP JUMP JUMPDEST PUSH1 0x0 DUP2 SWAP1 POP DUP2 PUSH1 0x0 MSTORE PUSH1 0x20 PUSH1 0x0 KECCAK256 SWAP1 POP SWAP2 SWAP1 POP JUMP JUMPDEST PUSH1 0x0 PUSH1 0x20 PUSH1 0x1F DUP4 ADD DIV SWAP1 POP SWAP2 SWAP1 POP JUMP JUMPDEST PUSH1 0x0 DUP3 DUP3 SHL SWAP1 POP SWAP3 SWAP2 POP POP JUMP JUMPDEST PUSH1 0x0 PUSH1 0x8 DUP4 MUL PUSH2 0x10C1 PUSH32 0xFFFFFFFFFFFFFFFFFFFFFFFFFFFFFFFFFFFFFFFFFFFFFFFFFFFFFFFFFFFFFFFF DUP3 PUSH2 0x1084 JUMP JUMPDEST PUSH2 0x10CB DUP7 DUP4 PUSH2 0x1084 JUMP JUMPDEST SWAP6 POP DUP1 NOT DUP5 AND SWAP4 POP DUP1 DUP7 AND DUP5 OR SWAP3 POP POP POP SWAP4 SWAP3 POP POP POP JUMP JUMPDEST PUSH1 0x0 DUP2 SWAP1 POP SWAP2 SWAP1 POP JUMP JUMPDEST PUSH1 0x0 PUSH2 0x1108 PUSH2 0x1103 PUSH2 0x10FE DUP5 PUSH2 0x9C5 JUMP JUMPDEST PUSH2 0x10E3 JUMP JUMPDEST PUSH2 0x9C5 JUMP JUMPDEST SWAP1 POP SWAP2 SWAP1 POP JUMP JUMPDEST PUSH1 0x0 DUP2 SWAP1 POP SWAP2 SWAP1 POP JUMP JUMPDEST PUSH2 0x1122 DUP4 PUSH2 0x10ED JUMP JUMPDEST PUSH2 0x1136 PUSH2 0x112E DUP3 PUSH2 0x110F JUMP JUMPDEST DUP5 DUP5 SLOAD PUSH2 0x1091 JUMP JUMPDEST DUP3 SSTORE POP POP POP POP JUMP JUMPDEST PUSH1 0x0 SWAP1 JUMP JUMPDEST PUSH2 0x114B PUSH2 0x113E JUMP JUMPDEST PUSH2 0x1156 DUP2 DUP5 DUP5 PUSH2 0x1119 JUMP JUMPDEST POP POP POP JUMP JUMPDEST JUMPDEST DUP2 DUP2 LT ISZERO PUSH2 0x117A JUMPI PUSH2 0x116F PUSH1 0x0 DUP3 PUSH2 0x1143 JUMP JUMPDEST PUSH1 0x1 DUP2 ADD SWAP1 POP PUSH2 0x115C JUMP JUMPDEST POP POP JUMP JUMPDEST PUSH1 0x1F DUP3 GT ISZERO PUSH2 0x11BF JUMPI PUSH2 0x1190 DUP2 PUSH2 0x105F JUMP JUMPDEST PUSH2 0x1199 DUP5 PUSH2 0x1074 JUMP JUMPDEST DUP2 ADD PUSH1 0x20 DUP6 LT ISZERO PUSH2 0x11A8 JUMPI DUP2 SWAP1 POP JUMPDEST PUSH2 0x11BC PUSH2 0x11B4 DUP6 PUSH2 0x1074 JUMP JUMPDEST DUP4 ADD DUP3 PUSH2 0x115B JUMP JUMPDEST POP POP JUMPDEST POP POP POP JUMP JUMPDEST PUSH1 0x0 DUP3 DUP3 SHR SWAP1 POP SWAP3 SWAP2 POP POP JUMP JUMPDEST PUSH1 0x0 PUSH2 0x11E2 PUSH1 0x0 NOT DUP5 PUSH1 0x8 MUL PUSH2 0x11C4 JUMP JUMPDEST NOT DUP1 DUP4 AND SWAP2 POP POP SWAP3 SWAP2 POP POP JUMP JUMPDEST PUSH1 0x0 PUSH2 0x11FB DUP4 DUP4 PUSH2 0x11D1 JUMP JUMPDEST SWAP2 POP DUP3 PUSH1 0x2 MUL DUP3 OR SWAP1 POP SWAP3 SWAP2 POP POP JUMP JUMPDEST PUSH2 0x1214 DUP3 PUSH2 0xCF9 JUMP JUMPDEST PUSH8 0xFFFFFFFFFFFFFFFF DUP2 GT ISZERO PUSH2 0x122D JUMPI PUSH2 0x122C PUSH2 0xAC0 JUMP JUMPDEST JUMPDEST PUSH2 0x1237 DUP3 SLOAD PUSH2 0x102E JUMP JUMPDEST PUSH2 0x1242 DUP3 DUP3 DUP6 PUSH2 0x117E JUMP JUMPDEST PUSH1 0x0 PUSH1 0x20 SWAP1 POP PUSH1 0x1F DUP4 GT PUSH1 0x1 DUP2 EQ PUSH2 0x1275 JUMPI PUSH1 0x0 DUP5 ISZERO PUSH2 0x1263 JUMPI DUP3 DUP8 ADD MLOAD SWAP1 POP JUMPDEST PUSH2 0x126D DUP6 DUP3 PUSH2 0x11EF JUMP JUMPDEST DUP7 SSTORE POP PUSH2 0x12D5 JUMP JUMPDEST PUSH1 0x1F NOT DUP5 AND PUSH2 0x1283 DUP7 PUSH2 0x105F JUMP JUMPDEST PUSH1 0x0 JUMPDEST DUP3 DUP2 LT ISZERO PUSH2 0x12AB JUMPI DUP5 DUP10 ADD MLOAD DUP3 SSTORE PUSH1 0x1 DUP3 ADD SWAP2 POP PUSH1 0x20 DUP6 ADD SWAP5 POP PUSH1 0x20 DUP2 ADD SWAP1 POP PUSH2 0x1286 JUMP JUMPDEST DUP7 DUP4 LT ISZERO PUSH2 0x12C8 JUMPI DUP5 DUP10 ADD MLOAD PUSH2 0x12C4 PUSH1 0x1F DUP10 AND DUP3 PUSH2 0x11D1 JUMP JUMPDEST DUP4 SSTORE POP JUMPDEST PUSH1 0x1 PUSH1 0x2 DUP9 MUL ADD DUP9 SSTORE POP POP POP JUMPDEST POP POP POP POP POP POP JUMP JUMPDEST PUSH32 0x4576656E742053657473204172652046756C6C00000000000000000000000000 PUSH1 0x0 DUP3 ADD MSTORE POP JUMP JUMPDEST PUSH1 0x0 PUSH2 0x1313 PUSH1 0x13 DUP4 PUSH2 0xD04 JUMP JUMPDEST SWAP2 POP PUSH2 0x131E DUP3 PUSH2 0x12DD JUMP JUMPDEST PUSH1 0x20 DUP3 ADD SWAP1 POP SWAP2 SWAP1 POP JUMP JUMPDEST PUSH1 0x0 PUSH1 0x20 DUP3 ADD SWAP1 POP DUP2 DUP2 SUB PUSH1 0x0 DUP4 ADD MSTORE PUSH2 0x1342 DUP2 PUSH2 0x1306 JUMP JUMPDEST SWAP1 POP SWAP2 SWAP1 POP JUMP INVALID LOG2 PUSH5 0x6970667358 0x22 SLT KECCAK256 DUP16 0xBA 0xCA RETURNDATASIZE 0x2B 0xC2 0xD3 0xA6 SWAP12 PUSH29 0x320A78EC4606174BABEF1B68877601C1A3BEE77CAD5164736F6C634300 ADDMOD SLT STOP CALLER "
				},
				"gasEstimates": {
					"creation": {
						"codeDepositCost": "998200",
						"executionCost": "1034",
						"totalCost": "999234"
					},
					"external": {
						"CreateEvent(uint256,string,string,uint256,string,uint256)": "infinite",
						"eventData(uint256)": "infinite",
						"getPurAmount()": "384",
						"joinEvent(uint256,uint256)": "infinite",
						"paymentTra(address)": "infinite",
						"tickets(address,uint256)": "infinite",
						"traticket(address,uint256,uint256)": "infinite"
					}
				},
				"methodIdentifiers": {
					"CreateEvent(uint256,string,string,uint256,string,uint256)": "b824fbf0",
					"eventData(uint256)": "c3321363",
					"getPurAmount()": "81c2adc0",
					"joinEvent(uint256,uint256)": "f4533749",
					"paymentTra(address)": "6a1e5f80",
					"tickets(address,uint256)": "dae7a13c",
					"traticket(address,uint256,uint256)": "2e828d72"
				}
			},
			"storageLayout": {
				"storage": [
					{
						"astId": 18,
						"contract": "contracts/event_org.sol:eventorg",
						"label": "pay_ether",
						"offset": 0,
						"slot": "0",
						"type": "t_uint256"
					},
					{
						"astId": 23,
						"contract": "contracts/event_org.sol:eventorg",
						"label": "eventData",
						"offset": 0,
						"slot": "1",
						"type": "t_mapping(t_uint256,t_struct(eventInfo)16_storage)"
					},
					{
						"astId": 98,
						"contract": "contracts/event_org.sol:eventorg",
						"label": "tickets",
						"offset": 0,
						"slot": "2",
						"type": "t_mapping(t_address,t_mapping(t_uint256,t_uint256))"
					}
				],
				"types": {
					"t_address": {
						"encoding": "inplace",
						"label": "address",
						"numberOfBytes": "20"
					},
					"t_mapping(t_address,t_mapping(t_uint256,t_uint256))": {
						"encoding": "mapping",
						"key": "t_address",
						"label": "mapping(address => mapping(uint256 => uint256))",
						"numberOfBytes": "32",
						"value": "t_mapping(t_uint256,t_uint256)"
					},
					"t_mapping(t_uint256,t_struct(eventInfo)16_storage)": {
						"encoding": "mapping",
						"key": "t_uint256",
						"label": "mapping(uint256 => struct eventorg.eventInfo)",
						"numberOfBytes": "32",
						"value": "t_struct(eventInfo)16_storage"
					},
					"t_mapping(t_uint256,t_uint256)": {
						"encoding": "mapping",
						"key": "t_uint256",
						"label": "mapping(uint256 => uint256)",
						"numberOfBytes": "32",
						"value": "t_uint256"
					},
					"t_string_storage": {
						"encoding": "bytes",
						"label": "string",
						"numberOfBytes": "32"
					},
					"t_struct(eventInfo)16_storage": {
						"encoding": "inplace",
						"label": "struct eventorg.eventInfo",
						"members": [
							{
								"astId": 3,
								"contract": "contracts/event_org.sol:eventorg",
								"label": "organiser",
								"offset": 0,
								"slot": "0",
								"type": "t_string_storage"
							},
							{
								"astId": 5,
								"contract": "contracts/event_org.sol:eventorg",
								"label": "eventname",
								"offset": 0,
								"slot": "1",
								"type": "t_string_storage"
							},
							{
								"astId": 7,
								"contract": "contracts/event_org.sol:eventorg",
								"label": "eventdate",
								"offset": 0,
								"slot": "2",
								"type": "t_uint256"
							},
							{
								"astId": 9,
								"contract": "contracts/event_org.sol:eventorg",
								"label": "eventticket",
								"offset": 0,
								"slot": "3",
								"type": "t_uint256"
							},
							{
								"astId": 11,
								"contract": "contracts/event_org.sol:eventorg",
								"label": "eventRemticket",
								"offset": 0,
								"slot": "4",
								"type": "t_uint256"
							},
							{
								"astId": 13,
								"contract": "contracts/event_org.sol:eventorg",
								"label": "evnetcity",
								"offset": 0,
								"slot": "5",
								"type": "t_string_storage"
							},
							{
								"astId": 15,
								"contract": "contracts/event_org.sol:eventorg",
								"label": "eventfee",
								"offset": 0,
								"slot": "6",
								"type": "t_uint256"
							}
						],
						"numberOfBytes": "224"
					},
					"t_uint256": {
						"encoding": "inplace",
						"label": "uint256",
						"numberOfBytes": "32"
					}
				}
			},
			"userdoc": {
				"kind": "user",
				"methods": {},
				"version": 1
			}
		}
	}
}