{
	"contracts/pll_system2.sol": {
		"poll_system": {
			"abi": [
				{
					"inputs": [
						{
							"internalType": "uint256",
							"name": "id",
							"type": "uint256"
						},
						{
							"internalType": "string",
							"name": "question",
							"type": "string"
						},
						{
							"internalType": "string[]",
							"name": "option",
							"type": "string[]"
						}
					],
					"name": "CreatePoll",
					"outputs": [],
					"stateMutability": "nonpayable",
					"type": "function"
				},
				{
					"inputs": [
						{
							"internalType": "uint256",
							"name": "id",
							"type": "uint256"
						}
					],
					"name": "GetPoll",
					"outputs": [
						{
							"internalType": "string",
							"name": "",
							"type": "string"
						},
						{
							"internalType": "uint256[]",
							"name": "",
							"type": "uint256[]"
						},
						{
							"internalType": "string[]",
							"name": "",
							"type": "string[]"
						}
					],
					"stateMutability": "view",
					"type": "function"
				},
				{
					"inputs": [],
					"name": "getLengthPoll",
					"outputs": [
						{
							"internalType": "uint256",
							"name": "",
							"type": "uint256"
						}
					],
					"stateMutability": "view",
					"type": "function"
				},
				{
					"inputs": [
						{
							"internalType": "uint256",
							"name": "pollId",
							"type": "uint256"
						},
						{
							"internalType": "uint256",
							"name": "selectOpt",
							"type": "uint256"
						}
					],
					"name": "poll",
					"outputs": [
						{
							"internalType": "uint256",
							"name": "",
							"type": "uint256"
						}
					],
					"stateMutability": "nonpayable",
					"type": "function"
				},
				{
					"inputs": [
						{
							"internalType": "uint256",
							"name": "pollId",
							"type": "uint256"
						},
						{
							"internalType": "uint256",
							"name": "selectOpt",
							"type": "uint256"
						}
					],
					"name": "pollAns",
					"outputs": [],
					"stateMutability": "nonpayable",
					"type": "function"
				}
			],
			"devdoc": {
				"kind": "dev",
				"methods": {},
				"version": 1
			},
			"evm": {
				"assembly": "    /* \"contracts/pll_system2.sol\":72:2503  contract poll_system {... */\n  mstore(0x40, 0x80)\n  callvalue\n  dup1\n  iszero\n  tag_1\n  jumpi\n  0x00\n  dup1\n  revert\ntag_1:\n  pop\n  dataSize(sub_0)\n  dup1\n  dataOffset(sub_0)\n  0x00\n  codecopy\n  0x00\n  return\nstop\n\nsub_0: assembly {\n        /* \"contracts/pll_system2.sol\":72:2503  contract poll_system {... */\n      mstore(0x40, 0x80)\n      callvalue\n      dup1\n      iszero\n      tag_1\n      jumpi\n      0x00\n      dup1\n      revert\n    tag_1:\n      pop\n      jumpi(tag_2, lt(calldatasize, 0x04))\n      shr(0xe0, calldataload(0x00))\n      dup1\n      0x08d9350a\n      eq\n      tag_3\n      jumpi\n      dup1\n      0x09bc43f5\n      eq\n      tag_4\n      jumpi\n      dup1\n      0xcce042bb\n      eq\n      tag_5\n      jumpi\n      dup1\n      0xe4219322\n      eq\n      tag_6\n      jumpi\n      dup1\n      0xe8389a33\n      eq\n      tag_7\n      jumpi\n    tag_2:\n      0x00\n      dup1\n      revert\n        /* \"contracts/pll_system2.sol\":1069:1158  function getLengthPoll() external view returns(uint) {... */\n    tag_3:\n      tag_8\n      tag_9\n      jump\t// in\n    tag_8:\n      mload(0x40)\n      tag_10\n      swap2\n      swap1\n      tag_11\n      jump\t// in\n    tag_10:\n      mload(0x40)\n      dup1\n      swap2\n      sub\n      swap1\n      return\n        /* \"contracts/pll_system2.sol\":2301:2500  function GetPoll(uint id) public view returns(string memory, uint[] memory, string[] memory) {... */\n    tag_4:\n      tag_12\n      0x04\n      dup1\n      calldatasize\n      sub\n      dup2\n      add\n      swap1\n      tag_13\n      swap2\n      swap1\n      tag_14\n      jump\t// in\n    tag_13:\n      tag_15\n      jump\t// in\n    tag_12:\n      mload(0x40)\n      tag_16\n      swap4\n      swap3\n      swap2\n      swap1\n      tag_17\n      jump\t// in\n    tag_16:\n      mload(0x40)\n      dup1\n      swap2\n      sub\n      swap1\n      return\n        /* \"contracts/pll_system2.sol\":538:1063  function CreatePoll(uint id, string memory question, string[] memory option) public {... */\n    tag_5:\n      tag_18\n      0x04\n      dup1\n      calldatasize\n      sub\n      dup2\n      add\n      swap1\n      tag_19\n      swap2\n      swap1\n      tag_20\n      jump\t// in\n    tag_19:\n      tag_21\n      jump\t// in\n    tag_18:\n      stop\n        /* \"contracts/pll_system2.sol\":1493:1949  function poll(uint pollId, uint selectOpt) public returns(uint) {... */\n    tag_6:\n      tag_22\n      0x04\n      dup1\n      calldatasize\n      sub\n      dup2\n      add\n      swap1\n      tag_23\n      swap2\n      swap1\n      tag_24\n      jump\t// in\n    tag_23:\n      tag_25\n      jump\t// in\n    tag_22:\n      mload(0x40)\n      tag_26\n      swap2\n      swap1\n      tag_11\n      jump\t// in\n    tag_26:\n      mload(0x40)\n      dup1\n      swap2\n      sub\n      swap1\n      return\n        /* \"contracts/pll_system2.sol\":1955:2295  function pollAns(uint pollId, uint selectOpt) public {... */\n    tag_7:\n      tag_27\n      0x04\n      dup1\n      calldatasize\n      sub\n      dup2\n      add\n      swap1\n      tag_28\n      swap2\n      swap1\n      tag_24\n      jump\t// in\n    tag_28:\n      tag_29\n      jump\t// in\n    tag_27:\n      stop\n        /* \"contracts/pll_system2.sol\":1069:1158  function getLengthPoll() external view returns(uint) {... */\n    tag_9:\n        /* \"contracts/pll_system2.sol\":1116:1120  uint */\n      0x00\n        /* \"contracts/pll_system2.sol\":1139:1144  polls */\n      dup1\n        /* \"contracts/pll_system2.sol\":1139:1151  polls.length */\n      dup1\n      sload\n      swap1\n      pop\n        /* \"contracts/pll_system2.sol\":1132:1151  return polls.length */\n      swap1\n      pop\n        /* \"contracts/pll_system2.sol\":1069:1158  function getLengthPoll() external view returns(uint) {... */\n      swap1\n      jump\t// out\n        /* \"contracts/pll_system2.sol\":2301:2500  function GetPoll(uint id) public view returns(string memory, uint[] memory, string[] memory) {... */\n    tag_15:\n        /* \"contracts/pll_system2.sol\":2347:2360  string memory */\n      0x60\n        /* \"contracts/pll_system2.sol\":2362:2375  uint[] memory */\n      dup1\n        /* \"contracts/pll_system2.sol\":2377:2392  string[] memory */\n      0x60\n        /* \"contracts/pll_system2.sol\":2412:2417  polls */\n      0x00\n        /* \"contracts/pll_system2.sol\":2418:2420  id */\n      dup5\n        /* \"contracts/pll_system2.sol\":2412:2421  polls[id] */\n      dup2\n      sload\n      dup2\n      lt\n      tag_32\n      jumpi\n      tag_33\n      tag_34\n      jump\t// in\n    tag_33:\n    tag_32:\n      swap1\n      0x00\n      mstore\n      keccak256(0x00, 0x20)\n      swap1\n      0x04\n      mul\n      add\n        /* \"contracts/pll_system2.sol\":2412:2430  polls[id].question */\n      0x01\n      add\n        /* \"contracts/pll_system2.sol\":2444:2449  polls */\n      0x00\n        /* \"contracts/pll_system2.sol\":2450:2452  id */\n      dup6\n        /* \"contracts/pll_system2.sol\":2444:2453  polls[id] */\n      dup2\n      sload\n      dup2\n      lt\n      tag_36\n      jumpi\n      tag_37\n      tag_34\n      jump\t// in\n    tag_37:\n    tag_36:\n      swap1\n      0x00\n      mstore\n      keccak256(0x00, 0x20)\n      swap1\n      0x04\n      mul\n      add\n        /* \"contracts/pll_system2.sol\":2444:2461  polls[id].results */\n      0x02\n      add\n        /* \"contracts/pll_system2.sol\":2475:2480  polls */\n      0x00\n        /* \"contracts/pll_system2.sol\":2481:2483  id */\n      dup7\n        /* \"contracts/pll_system2.sol\":2475:2484  polls[id] */\n      dup2\n      sload\n      dup2\n      lt\n      tag_39\n      jumpi\n      tag_40\n      tag_34\n      jump\t// in\n    tag_40:\n    tag_39:\n      swap1\n      0x00\n      mstore\n      keccak256(0x00, 0x20)\n      swap1\n      0x04\n      mul\n      add\n        /* \"contracts/pll_system2.sol\":2475:2492  polls[id].options */\n      0x03\n      add\n        /* \"contracts/pll_system2.sol\":2404:2493  return (polls[id].question,... */\n      dup3\n      dup1\n      sload\n      tag_42\n      swap1\n      tag_43\n      jump\t// in\n    tag_42:\n      dup1\n      0x1f\n      add\n      0x20\n      dup1\n      swap2\n      div\n      mul\n      0x20\n      add\n      mload(0x40)\n      swap1\n      dup2\n      add\n      0x40\n      mstore\n      dup1\n      swap3\n      swap2\n      swap1\n      dup2\n      dup2\n      mstore\n      0x20\n      add\n      dup3\n      dup1\n      sload\n      tag_44\n      swap1\n      tag_43\n      jump\t// in\n    tag_44:\n      dup1\n      iszero\n      tag_45\n      jumpi\n      dup1\n      0x1f\n      lt\n      tag_46\n      jumpi\n      0x0100\n      dup1\n      dup4\n      sload\n      div\n      mul\n      dup4\n      mstore\n      swap2\n      0x20\n      add\n      swap2\n      jump(tag_45)\n    tag_46:\n      dup3\n      add\n      swap2\n      swap1\n      0x00\n      mstore\n      keccak256(0x00, 0x20)\n      swap1\n    tag_47:\n      dup2\n      sload\n      dup2\n      mstore\n      swap1\n      0x01\n      add\n      swap1\n      0x20\n      add\n      dup1\n      dup4\n      gt\n      tag_47\n      jumpi\n      dup3\n      swap1\n      sub\n      0x1f\n      and\n      dup3\n      add\n      swap2\n    tag_45:\n      pop\n      pop\n      pop\n      pop\n      pop\n      swap3\n      pop\n      dup2\n      dup1\n      sload\n      dup1\n      0x20\n      mul\n      0x20\n      add\n      mload(0x40)\n      swap1\n      dup2\n      add\n      0x40\n      mstore\n      dup1\n      swap3\n      swap2\n      swap1\n      dup2\n      dup2\n      mstore\n      0x20\n      add\n      dup3\n      dup1\n      sload\n      dup1\n      iszero\n      tag_48\n      jumpi\n      0x20\n      mul\n      dup3\n      add\n      swap2\n      swap1\n      0x00\n      mstore\n      keccak256(0x00, 0x20)\n      swap1\n    tag_49:\n      dup2\n      sload\n      dup2\n      mstore\n      0x20\n      add\n      swap1\n      0x01\n      add\n      swap1\n      dup1\n      dup4\n      gt\n      tag_49\n      jumpi\n    tag_48:\n      pop\n      pop\n      pop\n      pop\n      pop\n      swap2\n      pop\n      dup1\n      dup1\n      sload\n      dup1\n      0x20\n      mul\n      0x20\n      add\n      mload(0x40)\n      swap1\n      dup2\n      add\n      0x40\n      mstore\n      dup1\n      swap3\n      swap2\n      swap1\n      dup2\n      dup2\n      mstore\n      0x20\n      add\n      0x00\n      swap1\n    tag_50:\n      dup3\n      dup3\n      lt\n      iszero\n      tag_51\n      jumpi\n      dup4\n      dup3\n      swap1\n      0x00\n      mstore\n      keccak256(0x00, 0x20)\n      add\n      dup1\n      sload\n      tag_53\n      swap1\n      tag_43\n      jump\t// in\n    tag_53:\n      dup1\n      0x1f\n      add\n      0x20\n      dup1\n      swap2\n      div\n      mul\n      0x20\n      add\n      mload(0x40)\n      swap1\n      dup2\n      add\n      0x40\n      mstore\n      dup1\n      swap3\n      swap2\n      swap1\n      dup2\n      dup2\n      mstore\n      0x20\n      add\n      dup3\n      dup1\n      sload\n      tag_54\n      swap1\n      tag_43\n      jump\t// in\n    tag_54:\n      dup1\n      iszero\n      tag_55\n      jumpi\n      dup1\n      0x1f\n      lt\n      tag_56\n      jumpi\n      0x0100\n      dup1\n      dup4\n      sload\n      div\n      mul\n      dup4\n      mstore\n      swap2\n      0x20\n      add\n      swap2\n      jump(tag_55)\n    tag_56:\n      dup3\n      add\n      swap2\n      swap1\n      0x00\n      mstore\n      keccak256(0x00, 0x20)\n      swap1\n    tag_57:\n      dup2\n      sload\n      dup2\n      mstore\n      swap1\n      0x01\n      add\n      swap1\n      0x20\n      add\n      dup1\n      dup4\n      gt\n      tag_57\n      jumpi\n      dup3\n      swap1\n      sub\n      0x1f\n      and\n      dup3\n      add\n      swap2\n    tag_55:\n      pop\n      pop\n      pop\n      pop\n      pop\n      dup2\n      mstore\n      0x20\n      add\n      swap1\n      0x01\n      add\n      swap1\n      jump(tag_50)\n    tag_51:\n      pop\n      pop\n      pop\n      pop\n      swap1\n      pop\n      swap3\n      pop\n      swap3\n      pop\n      swap3\n      pop\n        /* \"contracts/pll_system2.sol\":2301:2500  function GetPoll(uint id) public view returns(string memory, uint[] memory, string[] memory) {... */\n      swap2\n      swap4\n      swap1\n      swap3\n      pop\n      jump\t// out\n        /* \"contracts/pll_system2.sol\":538:1063  function CreatePoll(uint id, string memory question, string[] memory option) public {... */\n    tag_21:\n        /* \"contracts/pll_system2.sol\":797:813  Poll memory poll */\n      0x00\n        /* \"contracts/pll_system2.sol\":816:925  Poll({... */\n      mload(0x40)\n      dup1\n      0x80\n      add\n      0x40\n      mstore\n      dup1\n        /* \"contracts/pll_system2.sol\":839:841  id */\n      dup6\n        /* \"contracts/pll_system2.sol\":816:925  Poll({... */\n      dup2\n      mstore\n      0x20\n      add\n        /* \"contracts/pll_system2.sol\":853:861  question */\n      dup5\n        /* \"contracts/pll_system2.sol\":816:925  Poll({... */\n      dup2\n      mstore\n      0x20\n      add\n        /* \"contracts/pll_system2.sol\":883:889  option */\n      dup4\n        /* \"contracts/pll_system2.sol\":883:896  option.length */\n      mload\n        /* \"contracts/pll_system2.sol\":872:897  new uint[](option.length) */\n      0xffffffffffffffff\n      dup2\n      gt\n      iszero\n      tag_59\n      jumpi\n      tag_60\n      tag_61\n      jump\t// in\n    tag_60:\n    tag_59:\n      mload(0x40)\n      swap1\n      dup1\n      dup3\n      mstore\n      dup1\n      0x20\n      mul\n      0x20\n      add\n      dup3\n      add\n      0x40\n      mstore\n      dup1\n      iszero\n      tag_62\n      jumpi\n      dup2\n      0x20\n      add\n      0x20\n      dup3\n      mul\n      dup1\n      calldatasize\n      dup4\n      calldatacopy\n      dup1\n      dup3\n      add\n      swap2\n      pop\n      pop\n      swap1\n      pop\n    tag_62:\n      pop\n        /* \"contracts/pll_system2.sol\":816:925  Poll({... */\n      dup2\n      mstore\n      0x20\n      add\n        /* \"contracts/pll_system2.sol\":908:914  option */\n      dup4\n        /* \"contracts/pll_system2.sol\":816:925  Poll({... */\n      dup2\n      mstore\n      pop\n        /* \"contracts/pll_system2.sol\":797:925  Poll memory poll = Poll({... */\n      swap1\n      pop\n        /* \"contracts/pll_system2.sol\":1001:1006  polls */\n      0x00\n        /* \"contracts/pll_system2.sol\":1012:1016  poll */\n      dup2\n        /* \"contracts/pll_system2.sol\":1001:1017  polls.push(poll) */\n      swap1\n      dup1\n      0x01\n      dup2\n      sload\n      add\n      dup1\n      dup3\n      sstore\n      dup1\n      swap2\n      pop\n      pop\n      0x01\n      swap1\n      sub\n      swap1\n      0x00\n      mstore\n      keccak256(0x00, 0x20)\n      swap1\n      0x04\n      mul\n      add\n      0x00\n      swap1\n      swap2\n      swap1\n      swap2\n      swap1\n      swap2\n      pop\n      0x00\n      dup3\n      add\n      mload\n      dup2\n      0x00\n      add\n      sstore\n      0x20\n      dup3\n      add\n      mload\n      dup2\n      0x01\n      add\n      swap1\n      dup2\n      tag_64\n      swap2\n      swap1\n      tag_65\n      jump\t// in\n    tag_64:\n      pop\n      0x40\n      dup3\n      add\n      mload\n      dup2\n      0x02\n      add\n      swap1\n      dup1\n      mload\n      swap1\n      0x20\n      add\n      swap1\n      tag_66\n      swap3\n      swap2\n      swap1\n      tag_67\n      jump\t// in\n    tag_66:\n      pop\n      0x60\n      dup3\n      add\n      mload\n      dup2\n      0x03\n      add\n      swap1\n      dup1\n      mload\n      swap1\n      0x20\n      add\n      swap1\n      tag_68\n      swap3\n      swap2\n      swap1\n      tag_69\n      jump\t// in\n    tag_68:\n      pop\n      pop\n      pop\n        /* \"contracts/pll_system2.sol\":622:1063  {... */\n      pop\n        /* \"contracts/pll_system2.sol\":538:1063  function CreatePoll(uint id, string memory question, string[] memory option) public {... */\n      pop\n      pop\n      pop\n      jump\t// out\n        /* \"contracts/pll_system2.sol\":1493:1949  function poll(uint pollId, uint selectOpt) public returns(uint) {... */\n    tag_25:\n        /* \"contracts/pll_system2.sol\":1551:1555  uint */\n      0x00\n        /* \"contracts/pll_system2.sol\":1736:1737  1 */\n      0x01\n        /* \"contracts/pll_system2.sol\":1700:1705  polls */\n      0x00\n        /* \"contracts/pll_system2.sol\":1706:1712  pollId */\n      dup5\n        /* \"contracts/pll_system2.sol\":1700:1713  polls[pollId] */\n      dup2\n      sload\n      dup2\n      lt\n      tag_71\n      jumpi\n      tag_72\n      tag_34\n      jump\t// in\n    tag_72:\n    tag_71:\n      swap1\n      0x00\n      mstore\n      keccak256(0x00, 0x20)\n      swap1\n      0x04\n      mul\n      add\n        /* \"contracts/pll_system2.sol\":1700:1721  polls[pollId].results */\n      0x02\n      add\n        /* \"contracts/pll_system2.sol\":1722:1731  selectOpt */\n      dup4\n        /* \"contracts/pll_system2.sol\":1700:1732  polls[pollId].results[selectOpt] */\n      dup2\n      sload\n      dup2\n      lt\n      tag_74\n      jumpi\n      tag_75\n      tag_34\n      jump\t// in\n    tag_75:\n    tag_74:\n      swap1\n      0x00\n      mstore\n      keccak256(0x00, 0x20)\n      add\n      0x00\n        /* \"contracts/pll_system2.sol\":1700:1737  polls[pollId].results[selectOpt] += 1 */\n      dup3\n      dup3\n      sload\n      tag_77\n      swap2\n      swap1\n      tag_78\n      jump\t// in\n    tag_77:\n      swap3\n      pop\n      pop\n      dup2\n      swap1\n      sstore\n      pop\n        /* \"contracts/pll_system2.sol\":1910:1915  polls */\n      0x00\n        /* \"contracts/pll_system2.sol\":1916:1922  pollId */\n      dup4\n        /* \"contracts/pll_system2.sol\":1910:1923  polls[pollId] */\n      dup2\n      sload\n      dup2\n      lt\n      tag_79\n      jumpi\n      tag_80\n      tag_34\n      jump\t// in\n    tag_80:\n    tag_79:\n      swap1\n      0x00\n      mstore\n      keccak256(0x00, 0x20)\n      swap1\n      0x04\n      mul\n      add\n        /* \"contracts/pll_system2.sol\":1910:1931  polls[pollId].results */\n      0x02\n      add\n        /* \"contracts/pll_system2.sol\":1932:1941  selectOpt */\n      dup3\n        /* \"contracts/pll_system2.sol\":1910:1942  polls[pollId].results[selectOpt] */\n      dup2\n      sload\n      dup2\n      lt\n      tag_82\n      jumpi\n      tag_83\n      tag_34\n      jump\t// in\n    tag_83:\n    tag_82:\n      swap1\n      0x00\n      mstore\n      keccak256(0x00, 0x20)\n      add\n      sload\n        /* \"contracts/pll_system2.sol\":1902:1942  return  polls[pollId].results[selectOpt] */\n      swap1\n      pop\n        /* \"contracts/pll_system2.sol\":1493:1949  function poll(uint pollId, uint selectOpt) public returns(uint) {... */\n      swap3\n      swap2\n      pop\n      pop\n      jump\t// out\n        /* \"contracts/pll_system2.sol\":1955:2295  function pollAns(uint pollId, uint selectOpt) public {... */\n    tag_29:\n        /* \"contracts/pll_system2.sol\":2103:2108  false */\n      0x00\n        /* \"contracts/pll_system2.sol\":2064:2108  voters[msg.sender].votedMap[pollId] == false */\n      iszero\n      iszero\n        /* \"contracts/pll_system2.sol\":2064:2070  voters */\n      0x01\n        /* \"contracts/pll_system2.sol\":2064:2082  voters[msg.sender] */\n      0x00\n        /* \"contracts/pll_system2.sol\":2071:2081  msg.sender */\n      caller\n        /* \"contracts/pll_system2.sol\":2064:2082  voters[msg.sender] */\n      0xffffffffffffffffffffffffffffffffffffffff\n      and\n      0xffffffffffffffffffffffffffffffffffffffff\n      and\n      dup2\n      mstore\n      0x20\n      add\n      swap1\n      dup2\n      mstore\n      0x20\n      add\n      0x00\n      keccak256\n        /* \"contracts/pll_system2.sol\":2064:2091  voters[msg.sender].votedMap */\n      0x01\n      add\n        /* \"contracts/pll_system2.sol\":2064:2099  voters[msg.sender].votedMap[pollId] */\n      0x00\n        /* \"contracts/pll_system2.sol\":2092:2098  pollId */\n      dup5\n        /* \"contracts/pll_system2.sol\":2064:2099  voters[msg.sender].votedMap[pollId] */\n      dup2\n      mstore\n      0x20\n      add\n      swap1\n      dup2\n      mstore\n      0x20\n      add\n      0x00\n      keccak256\n      0x00\n      swap1\n      sload\n      swap1\n      0x0100\n      exp\n      swap1\n      div\n      0xff\n      and\n        /* \"contracts/pll_system2.sol\":2064:2108  voters[msg.sender].votedMap[pollId] == false */\n      iszero\n      iszero\n      eq\n        /* \"contracts/pll_system2.sol\":2056:2139  require(voters[msg.sender].votedMap[pollId] == false, \"not able to ans this poll.\") */\n      tag_86\n      jumpi\n      mload(0x40)\n      0x08c379a000000000000000000000000000000000000000000000000000000000\n      dup2\n      mstore\n      0x04\n      add\n      tag_87\n      swap1\n      tag_88\n      jump\t// in\n    tag_87:\n      mload(0x40)\n      dup1\n      swap2\n      sub\n      swap1\n      revert\n    tag_86:\n        /* \"contracts/pll_system2.sol\":2185:2186  1 */\n      0x01\n        /* \"contracts/pll_system2.sol\":2149:2154  polls */\n      0x00\n        /* \"contracts/pll_system2.sol\":2155:2161  pollId */\n      dup4\n        /* \"contracts/pll_system2.sol\":2149:2162  polls[pollId] */\n      dup2\n      sload\n      dup2\n      lt\n      tag_89\n      jumpi\n      tag_90\n      tag_34\n      jump\t// in\n    tag_90:\n    tag_89:\n      swap1\n      0x00\n      mstore\n      keccak256(0x00, 0x20)\n      swap1\n      0x04\n      mul\n      add\n        /* \"contracts/pll_system2.sol\":2149:2170  polls[pollId].results */\n      0x02\n      add\n        /* \"contracts/pll_system2.sol\":2171:2180  selectOpt */\n      dup3\n        /* \"contracts/pll_system2.sol\":2149:2181  polls[pollId].results[selectOpt] */\n      dup2\n      sload\n      dup2\n      lt\n      tag_92\n      jumpi\n      tag_93\n      tag_34\n      jump\t// in\n    tag_93:\n    tag_92:\n      swap1\n      0x00\n      mstore\n      keccak256(0x00, 0x20)\n      add\n      0x00\n        /* \"contracts/pll_system2.sol\":2149:2186  polls[pollId].results[selectOpt] += 1 */\n      dup3\n      dup3\n      sload\n      tag_95\n      swap2\n      swap1\n      tag_78\n      jump\t// in\n    tag_95:\n      swap3\n      pop\n      pop\n      dup2\n      swap1\n      sstore\n      pop\n        /* \"contracts/pll_system2.sol\":2196:2202  voters */\n      0x01\n        /* \"contracts/pll_system2.sol\":2196:2214  voters[msg.sender] */\n      0x00\n        /* \"contracts/pll_system2.sol\":2203:2213  msg.sender */\n      caller\n        /* \"contracts/pll_system2.sol\":2196:2214  voters[msg.sender] */\n      0xffffffffffffffffffffffffffffffffffffffff\n      and\n      0xffffffffffffffffffffffffffffffffffffffff\n      and\n      dup2\n      mstore\n      0x20\n      add\n      swap1\n      dup2\n      mstore\n      0x20\n      add\n      0x00\n      keccak256\n        /* \"contracts/pll_system2.sol\":2196:2223  voters[msg.sender].votedIds */\n      0x00\n      add\n        /* \"contracts/pll_system2.sol\":2229:2235  pollId */\n      dup3\n        /* \"contracts/pll_system2.sol\":2196:2236  voters[msg.sender].votedIds.push(pollId) */\n      swap1\n      dup1\n      0x01\n      dup2\n      sload\n      add\n      dup1\n      dup3\n      sstore\n      dup1\n      swap2\n      pop\n      pop\n      0x01\n      swap1\n      sub\n      swap1\n      0x00\n      mstore\n      keccak256(0x00, 0x20)\n      add\n      0x00\n      swap1\n      swap2\n      swap1\n      swap2\n      swap1\n      swap2\n      pop\n      sstore\n        /* \"contracts/pll_system2.sol\":2284:2288  true */\n      0x01\n        /* \"contracts/pll_system2.sol\":2246:2252  voters */\n      dup1\n        /* \"contracts/pll_system2.sol\":2246:2264  voters[msg.sender] */\n      0x00\n        /* \"contracts/pll_system2.sol\":2253:2263  msg.sender */\n      caller\n        /* \"contracts/pll_system2.sol\":2246:2264  voters[msg.sender] */\n      0xffffffffffffffffffffffffffffffffffffffff\n      and\n      0xffffffffffffffffffffffffffffffffffffffff\n      and\n      dup2\n      mstore\n      0x20\n      add\n      swap1\n      dup2\n      mstore\n      0x20\n      add\n      0x00\n      keccak256\n        /* \"contracts/pll_system2.sol\":2246:2273  voters[msg.sender].votedMap */\n      0x01\n      add\n        /* \"contracts/pll_system2.sol\":2246:2281  voters[msg.sender].votedMap[pollId] */\n      0x00\n        /* \"contracts/pll_system2.sol\":2274:2280  pollId */\n      dup5\n        /* \"contracts/pll_system2.sol\":2246:2281  voters[msg.sender].votedMap[pollId] */\n      dup2\n      mstore\n      0x20\n      add\n      swap1\n      dup2\n      mstore\n      0x20\n      add\n      0x00\n      keccak256\n      0x00\n        /* \"contracts/pll_system2.sol\":2246:2288  voters[msg.sender].votedMap[pollId] = true */\n      0x0100\n      exp\n      dup2\n      sload\n      dup2\n      0xff\n      mul\n      not\n      and\n      swap1\n      dup4\n      iszero\n      iszero\n      mul\n      or\n      swap1\n      sstore\n      pop\n        /* \"contracts/pll_system2.sol\":1955:2295  function pollAns(uint pollId, uint selectOpt) public {... */\n      pop\n      pop\n      jump\t// out\n    tag_67:\n      dup3\n      dup1\n      sload\n      dup3\n      dup3\n      sstore\n      swap1\n      0x00\n      mstore\n      keccak256(0x00, 0x20)\n      swap1\n      dup2\n      add\n      swap3\n      dup3\n      iszero\n      tag_97\n      jumpi\n      swap2\n      0x20\n      mul\n      dup3\n      add\n    tag_98:\n      dup3\n      dup2\n      gt\n      iszero\n      tag_99\n      jumpi\n      dup3\n      mload\n      dup3\n      sstore\n      swap2\n      0x20\n      add\n      swap2\n      swap1\n      0x01\n      add\n      swap1\n      jump(tag_98)\n    tag_99:\n    tag_97:\n      pop\n      swap1\n      pop\n      tag_100\n      swap2\n      swap1\n      tag_101\n      jump\t// in\n    tag_100:\n      pop\n      swap1\n      jump\t// out\n    tag_69:\n      dup3\n      dup1\n      sload\n      dup3\n      dup3\n      sstore\n      swap1\n      0x00\n      mstore\n      keccak256(0x00, 0x20)\n      swap1\n      dup2\n      add\n      swap3\n      dup3\n      iszero\n      tag_102\n      jumpi\n      swap2\n      0x20\n      mul\n      dup3\n      add\n    tag_103:\n      dup3\n      dup2\n      gt\n      iszero\n      tag_104\n      jumpi\n      dup3\n      mload\n      dup3\n      swap1\n      dup2\n      tag_105\n      swap2\n      swap1\n      tag_65\n      jump\t// in\n    tag_105:\n      pop\n      swap2\n      0x20\n      add\n      swap2\n      swap1\n      0x01\n      add\n      swap1\n      jump(tag_103)\n    tag_104:\n    tag_102:\n      pop\n      swap1\n      pop\n      tag_106\n      swap2\n      swap1\n      tag_107\n      jump\t// in\n    tag_106:\n      pop\n      swap1\n      jump\t// out\n    tag_101:\n    tag_108:\n      dup1\n      dup3\n      gt\n      iszero\n      tag_109\n      jumpi\n      0x00\n      dup2\n      0x00\n      swap1\n      sstore\n      pop\n      0x01\n      add\n      jump(tag_108)\n    tag_109:\n      pop\n      swap1\n      jump\t// out\n    tag_107:\n    tag_110:\n      dup1\n      dup3\n      gt\n      iszero\n      tag_111\n      jumpi\n      0x00\n      dup2\n      dup2\n      tag_112\n      swap2\n      swap1\n      tag_113\n      jump\t// in\n    tag_112:\n      pop\n      0x01\n      add\n      jump(tag_110)\n    tag_111:\n      pop\n      swap1\n      jump\t// out\n    tag_113:\n      pop\n      dup1\n      sload\n      tag_114\n      swap1\n      tag_43\n      jump\t// in\n    tag_114:\n      0x00\n      dup3\n      sstore\n      dup1\n      0x1f\n      lt\n      tag_116\n      jumpi\n      pop\n      jump(tag_115)\n    tag_116:\n      0x1f\n      add\n      0x20\n      swap1\n      div\n      swap1\n      0x00\n      mstore\n      keccak256(0x00, 0x20)\n      swap1\n      dup2\n      add\n      swap1\n      tag_117\n      swap2\n      swap1\n      tag_101\n      jump\t// in\n    tag_117:\n    tag_115:\n      pop\n      jump\t// out\n        /* \"#utility.yul\":7:84   */\n    tag_118:\n        /* \"#utility.yul\":44:51   */\n      0x00\n        /* \"#utility.yul\":73:78   */\n      dup2\n        /* \"#utility.yul\":62:78   */\n      swap1\n      pop\n        /* \"#utility.yul\":7:84   */\n      swap2\n      swap1\n      pop\n      jump\t// out\n        /* \"#utility.yul\":90:208   */\n    tag_119:\n        /* \"#utility.yul\":177:201   */\n      tag_179\n        /* \"#utility.yul\":195:200   */\n      dup2\n        /* \"#utility.yul\":177:201   */\n      tag_118\n      jump\t// in\n    tag_179:\n        /* \"#utility.yul\":172:175   */\n      dup3\n        /* \"#utility.yul\":165:202   */\n      mstore\n        /* \"#utility.yul\":90:208   */\n      pop\n      pop\n      jump\t// out\n        /* \"#utility.yul\":214:436   */\n    tag_11:\n        /* \"#utility.yul\":307:311   */\n      0x00\n        /* \"#utility.yul\":345:347   */\n      0x20\n        /* \"#utility.yul\":334:343   */\n      dup3\n        /* \"#utility.yul\":330:348   */\n      add\n        /* \"#utility.yul\":322:348   */\n      swap1\n      pop\n        /* \"#utility.yul\":358:429   */\n      tag_181\n        /* \"#utility.yul\":426:427   */\n      0x00\n        /* \"#utility.yul\":415:424   */\n      dup4\n        /* \"#utility.yul\":411:428   */\n      add\n        /* \"#utility.yul\":402:408   */\n      dup5\n        /* \"#utility.yul\":358:429   */\n      tag_119\n      jump\t// in\n    tag_181:\n        /* \"#utility.yul\":214:436   */\n      swap3\n      swap2\n      pop\n      pop\n      jump\t// out\n        /* \"#utility.yul\":442:517   */\n    tag_120:\n        /* \"#utility.yul\":475:481   */\n      0x00\n        /* \"#utility.yul\":508:510   */\n      0x40\n        /* \"#utility.yul\":502:511   */\n      mload\n        /* \"#utility.yul\":492:511   */\n      swap1\n      pop\n        /* \"#utility.yul\":442:517   */\n      swap1\n      jump\t// out\n        /* \"#utility.yul\":523:640   */\n    tag_121:\n        /* \"#utility.yul\":632:633   */\n      0x00\n        /* \"#utility.yul\":629:630   */\n      dup1\n        /* \"#utility.yul\":622:634   */\n      revert\n        /* \"#utility.yul\":646:763   */\n    tag_122:\n        /* \"#utility.yul\":755:756   */\n      0x00\n        /* \"#utility.yul\":752:753   */\n      dup1\n        /* \"#utility.yul\":745:757   */\n      revert\n        /* \"#utility.yul\":769:891   */\n    tag_123:\n        /* \"#utility.yul\":842:866   */\n      tag_186\n        /* \"#utility.yul\":860:865   */\n      dup2\n        /* \"#utility.yul\":842:866   */\n      tag_118\n      jump\t// in\n    tag_186:\n        /* \"#utility.yul\":835:840   */\n      dup2\n        /* \"#utility.yul\":832:867   */\n      eq\n        /* \"#utility.yul\":822:885   */\n      tag_187\n      jumpi\n        /* \"#utility.yul\":881:882   */\n      0x00\n        /* \"#utility.yul\":878:879   */\n      dup1\n        /* \"#utility.yul\":871:883   */\n      revert\n        /* \"#utility.yul\":822:885   */\n    tag_187:\n        /* \"#utility.yul\":769:891   */\n      pop\n      jump\t// out\n        /* \"#utility.yul\":897:1036   */\n    tag_124:\n        /* \"#utility.yul\":943:948   */\n      0x00\n        /* \"#utility.yul\":981:987   */\n      dup2\n        /* \"#utility.yul\":968:988   */\n      calldataload\n        /* \"#utility.yul\":959:988   */\n      swap1\n      pop\n        /* \"#utility.yul\":997:1030   */\n      tag_189\n        /* \"#utility.yul\":1024:1029   */\n      dup2\n        /* \"#utility.yul\":997:1030   */\n      tag_123\n      jump\t// in\n    tag_189:\n        /* \"#utility.yul\":897:1036   */\n      swap3\n      swap2\n      pop\n      pop\n      jump\t// out\n        /* \"#utility.yul\":1042:1371   */\n    tag_14:\n        /* \"#utility.yul\":1101:1107   */\n      0x00\n        /* \"#utility.yul\":1150:1152   */\n      0x20\n        /* \"#utility.yul\":1138:1147   */\n      dup3\n        /* \"#utility.yul\":1129:1136   */\n      dup5\n        /* \"#utility.yul\":1125:1148   */\n      sub\n        /* \"#utility.yul\":1121:1153   */\n      slt\n        /* \"#utility.yul\":1118:1237   */\n      iszero\n      tag_191\n      jumpi\n        /* \"#utility.yul\":1156:1235   */\n      tag_192\n      tag_121\n      jump\t// in\n    tag_192:\n        /* \"#utility.yul\":1118:1237   */\n    tag_191:\n        /* \"#utility.yul\":1276:1277   */\n      0x00\n        /* \"#utility.yul\":1301:1354   */\n      tag_193\n        /* \"#utility.yul\":1346:1353   */\n      dup5\n        /* \"#utility.yul\":1337:1343   */\n      dup3\n        /* \"#utility.yul\":1326:1335   */\n      dup6\n        /* \"#utility.yul\":1322:1344   */\n      add\n        /* \"#utility.yul\":1301:1354   */\n      tag_124\n      jump\t// in\n    tag_193:\n        /* \"#utility.yul\":1291:1354   */\n      swap2\n      pop\n        /* \"#utility.yul\":1247:1364   */\n      pop\n        /* \"#utility.yul\":1042:1371   */\n      swap3\n      swap2\n      pop\n      pop\n      jump\t// out\n        /* \"#utility.yul\":1377:1476   */\n    tag_125:\n        /* \"#utility.yul\":1429:1435   */\n      0x00\n        /* \"#utility.yul\":1463:1468   */\n      dup2\n        /* \"#utility.yul\":1457:1469   */\n      mload\n        /* \"#utility.yul\":1447:1469   */\n      swap1\n      pop\n        /* \"#utility.yul\":1377:1476   */\n      swap2\n      swap1\n      pop\n      jump\t// out\n        /* \"#utility.yul\":1482:1651   */\n    tag_126:\n        /* \"#utility.yul\":1566:1577   */\n      0x00\n        /* \"#utility.yul\":1600:1606   */\n      dup3\n        /* \"#utility.yul\":1595:1598   */\n      dup3\n        /* \"#utility.yul\":1588:1607   */\n      mstore\n        /* \"#utility.yul\":1640:1644   */\n      0x20\n        /* \"#utility.yul\":1635:1638   */\n      dup3\n        /* \"#utility.yul\":1631:1645   */\n      add\n        /* \"#utility.yul\":1616:1645   */\n      swap1\n      pop\n        /* \"#utility.yul\":1482:1651   */\n      swap3\n      swap2\n      pop\n      pop\n      jump\t// out\n        /* \"#utility.yul\":1657:1903   */\n    tag_127:\n        /* \"#utility.yul\":1738:1739   */\n      0x00\n        /* \"#utility.yul\":1748:1861   */\n    tag_197:\n        /* \"#utility.yul\":1762:1768   */\n      dup4\n        /* \"#utility.yul\":1759:1760   */\n      dup2\n        /* \"#utility.yul\":1756:1769   */\n      lt\n        /* \"#utility.yul\":1748:1861   */\n      iszero\n      tag_199\n      jumpi\n        /* \"#utility.yul\":1847:1848   */\n      dup1\n        /* \"#utility.yul\":1842:1845   */\n      dup3\n        /* \"#utility.yul\":1838:1849   */\n      add\n        /* \"#utility.yul\":1832:1850   */\n      mload\n        /* \"#utility.yul\":1828:1829   */\n      dup2\n        /* \"#utility.yul\":1823:1826   */\n      dup5\n        /* \"#utility.yul\":1819:1830   */\n      add\n        /* \"#utility.yul\":1812:1851   */\n      mstore\n        /* \"#utility.yul\":1784:1786   */\n      0x20\n        /* \"#utility.yul\":1781:1782   */\n      dup2\n        /* \"#utility.yul\":1777:1787   */\n      add\n        /* \"#utility.yul\":1772:1787   */\n      swap1\n      pop\n        /* \"#utility.yul\":1748:1861   */\n      jump(tag_197)\n    tag_199:\n        /* \"#utility.yul\":1895:1896   */\n      0x00\n        /* \"#utility.yul\":1886:1892   */\n      dup5\n        /* \"#utility.yul\":1881:1884   */\n      dup5\n        /* \"#utility.yul\":1877:1893   */\n      add\n        /* \"#utility.yul\":1870:1897   */\n      mstore\n        /* \"#utility.yul\":1719:1903   */\n      pop\n        /* \"#utility.yul\":1657:1903   */\n      pop\n      pop\n      pop\n      jump\t// out\n        /* \"#utility.yul\":1909:2011   */\n    tag_128:\n        /* \"#utility.yul\":1950:1956   */\n      0x00\n        /* \"#utility.yul\":2001:2003   */\n      0x1f\n        /* \"#utility.yul\":1997:2004   */\n      not\n        /* \"#utility.yul\":1992:1994   */\n      0x1f\n        /* \"#utility.yul\":1985:1990   */\n      dup4\n        /* \"#utility.yul\":1981:1995   */\n      add\n        /* \"#utility.yul\":1977:2005   */\n      and\n        /* \"#utility.yul\":1967:2005   */\n      swap1\n      pop\n        /* \"#utility.yul\":1909:2011   */\n      swap2\n      swap1\n      pop\n      jump\t// out\n        /* \"#utility.yul\":2017:2394   */\n    tag_129:\n        /* \"#utility.yul\":2105:2108   */\n      0x00\n        /* \"#utility.yul\":2133:2172   */\n      tag_202\n        /* \"#utility.yul\":2166:2171   */\n      dup3\n        /* \"#utility.yul\":2133:2172   */\n      tag_125\n      jump\t// in\n    tag_202:\n        /* \"#utility.yul\":2188:2259   */\n      tag_203\n        /* \"#utility.yul\":2252:2258   */\n      dup2\n        /* \"#utility.yul\":2247:2250   */\n      dup6\n        /* \"#utility.yul\":2188:2259   */\n      tag_126\n      jump\t// in\n    tag_203:\n        /* \"#utility.yul\":2181:2259   */\n      swap4\n      pop\n        /* \"#utility.yul\":2268:2333   */\n      tag_204\n        /* \"#utility.yul\":2326:2332   */\n      dup2\n        /* \"#utility.yul\":2321:2324   */\n      dup6\n        /* \"#utility.yul\":2314:2318   */\n      0x20\n        /* \"#utility.yul\":2307:2312   */\n      dup7\n        /* \"#utility.yul\":2303:2319   */\n      add\n        /* \"#utility.yul\":2268:2333   */\n      tag_127\n      jump\t// in\n    tag_204:\n        /* \"#utility.yul\":2358:2387   */\n      tag_205\n        /* \"#utility.yul\":2380:2386   */\n      dup2\n        /* \"#utility.yul\":2358:2387   */\n      tag_128\n      jump\t// in\n    tag_205:\n        /* \"#utility.yul\":2353:2356   */\n      dup5\n        /* \"#utility.yul\":2349:2388   */\n      add\n        /* \"#utility.yul\":2342:2388   */\n      swap2\n      pop\n        /* \"#utility.yul\":2109:2394   */\n      pop\n        /* \"#utility.yul\":2017:2394   */\n      swap3\n      swap2\n      pop\n      pop\n      jump\t// out\n        /* \"#utility.yul\":2400:2514   */\n    tag_130:\n        /* \"#utility.yul\":2467:2473   */\n      0x00\n        /* \"#utility.yul\":2501:2506   */\n      dup2\n        /* \"#utility.yul\":2495:2507   */\n      mload\n        /* \"#utility.yul\":2485:2507   */\n      swap1\n      pop\n        /* \"#utility.yul\":2400:2514   */\n      swap2\n      swap1\n      pop\n      jump\t// out\n        /* \"#utility.yul\":2520:2704   */\n    tag_131:\n        /* \"#utility.yul\":2619:2630   */\n      0x00\n        /* \"#utility.yul\":2653:2659   */\n      dup3\n        /* \"#utility.yul\":2648:2651   */\n      dup3\n        /* \"#utility.yul\":2641:2660   */\n      mstore\n        /* \"#utility.yul\":2693:2697   */\n      0x20\n        /* \"#utility.yul\":2688:2691   */\n      dup3\n        /* \"#utility.yul\":2684:2698   */\n      add\n        /* \"#utility.yul\":2669:2698   */\n      swap1\n      pop\n        /* \"#utility.yul\":2520:2704   */\n      swap3\n      swap2\n      pop\n      pop\n      jump\t// out\n        /* \"#utility.yul\":2710:2842   */\n    tag_132:\n        /* \"#utility.yul\":2777:2781   */\n      0x00\n        /* \"#utility.yul\":2800:2803   */\n      dup2\n        /* \"#utility.yul\":2792:2803   */\n      swap1\n      pop\n        /* \"#utility.yul\":2830:2834   */\n      0x20\n        /* \"#utility.yul\":2825:2828   */\n      dup3\n        /* \"#utility.yul\":2821:2835   */\n      add\n        /* \"#utility.yul\":2813:2835   */\n      swap1\n      pop\n        /* \"#utility.yul\":2710:2842   */\n      swap2\n      swap1\n      pop\n      jump\t// out\n        /* \"#utility.yul\":2848:2956   */\n    tag_133:\n        /* \"#utility.yul\":2925:2949   */\n      tag_210\n        /* \"#utility.yul\":2943:2948   */\n      dup2\n        /* \"#utility.yul\":2925:2949   */\n      tag_118\n      jump\t// in\n    tag_210:\n        /* \"#utility.yul\":2920:2923   */\n      dup3\n        /* \"#utility.yul\":2913:2950   */\n      mstore\n        /* \"#utility.yul\":2848:2956   */\n      pop\n      pop\n      jump\t// out\n        /* \"#utility.yul\":2962:3141   */\n    tag_134:\n        /* \"#utility.yul\":3031:3041   */\n      0x00\n        /* \"#utility.yul\":3052:3098   */\n      tag_212\n        /* \"#utility.yul\":3094:3097   */\n      dup4\n        /* \"#utility.yul\":3086:3092   */\n      dup4\n        /* \"#utility.yul\":3052:3098   */\n      tag_133\n      jump\t// in\n    tag_212:\n        /* \"#utility.yul\":3130:3134   */\n      0x20\n        /* \"#utility.yul\":3125:3128   */\n      dup4\n        /* \"#utility.yul\":3121:3135   */\n      add\n        /* \"#utility.yul\":3107:3135   */\n      swap1\n      pop\n        /* \"#utility.yul\":2962:3141   */\n      swap3\n      swap2\n      pop\n      pop\n      jump\t// out\n        /* \"#utility.yul\":3147:3260   */\n    tag_135:\n        /* \"#utility.yul\":3217:3221   */\n      0x00\n        /* \"#utility.yul\":3249:3253   */\n      0x20\n        /* \"#utility.yul\":3244:3247   */\n      dup3\n        /* \"#utility.yul\":3240:3254   */\n      add\n        /* \"#utility.yul\":3232:3254   */\n      swap1\n      pop\n        /* \"#utility.yul\":3147:3260   */\n      swap2\n      swap1\n      pop\n      jump\t// out\n        /* \"#utility.yul\":3296:4028   */\n    tag_136:\n        /* \"#utility.yul\":3415:3418   */\n      0x00\n        /* \"#utility.yul\":3444:3498   */\n      tag_215\n        /* \"#utility.yul\":3492:3497   */\n      dup3\n        /* \"#utility.yul\":3444:3498   */\n      tag_130\n      jump\t// in\n    tag_215:\n        /* \"#utility.yul\":3514:3600   */\n      tag_216\n        /* \"#utility.yul\":3593:3599   */\n      dup2\n        /* \"#utility.yul\":3588:3591   */\n      dup6\n        /* \"#utility.yul\":3514:3600   */\n      tag_131\n      jump\t// in\n    tag_216:\n        /* \"#utility.yul\":3507:3600   */\n      swap4\n      pop\n        /* \"#utility.yul\":3624:3680   */\n      tag_217\n        /* \"#utility.yul\":3674:3679   */\n      dup4\n        /* \"#utility.yul\":3624:3680   */\n      tag_132\n      jump\t// in\n    tag_217:\n        /* \"#utility.yul\":3703:3710   */\n      dup1\n        /* \"#utility.yul\":3734:3735   */\n      0x00\n        /* \"#utility.yul\":3719:4003   */\n    tag_218:\n        /* \"#utility.yul\":3744:3750   */\n      dup4\n        /* \"#utility.yul\":3741:3742   */\n      dup2\n        /* \"#utility.yul\":3738:3751   */\n      lt\n        /* \"#utility.yul\":3719:4003   */\n      iszero\n      tag_220\n      jumpi\n        /* \"#utility.yul\":3820:3826   */\n      dup2\n        /* \"#utility.yul\":3814:3827   */\n      mload\n        /* \"#utility.yul\":3847:3910   */\n      tag_221\n        /* \"#utility.yul\":3906:3909   */\n      dup9\n        /* \"#utility.yul\":3891:3904   */\n      dup3\n        /* \"#utility.yul\":3847:3910   */\n      tag_134\n      jump\t// in\n    tag_221:\n        /* \"#utility.yul\":3840:3910   */\n      swap8\n      pop\n        /* \"#utility.yul\":3933:3993   */\n      tag_222\n        /* \"#utility.yul\":3986:3992   */\n      dup4\n        /* \"#utility.yul\":3933:3993   */\n      tag_135\n      jump\t// in\n    tag_222:\n        /* \"#utility.yul\":3923:3993   */\n      swap3\n      pop\n        /* \"#utility.yul\":3779:4003   */\n      pop\n        /* \"#utility.yul\":3766:3767   */\n      0x01\n        /* \"#utility.yul\":3763:3764   */\n      dup2\n        /* \"#utility.yul\":3759:3768   */\n      add\n        /* \"#utility.yul\":3754:3768   */\n      swap1\n      pop\n        /* \"#utility.yul\":3719:4003   */\n      jump(tag_218)\n    tag_220:\n        /* \"#utility.yul\":3723:3737   */\n      pop\n        /* \"#utility.yul\":4019:4022   */\n      dup6\n        /* \"#utility.yul\":4012:4022   */\n      swap4\n      pop\n        /* \"#utility.yul\":3420:4028   */\n      pop\n      pop\n      pop\n        /* \"#utility.yul\":3296:4028   */\n      swap3\n      swap2\n      pop\n      pop\n      jump\t// out\n        /* \"#utility.yul\":4034:4158   */\n    tag_137:\n        /* \"#utility.yul\":4111:4117   */\n      0x00\n        /* \"#utility.yul\":4145:4150   */\n      dup2\n        /* \"#utility.yul\":4139:4151   */\n      mload\n        /* \"#utility.yul\":4129:4151   */\n      swap1\n      pop\n        /* \"#utility.yul\":4034:4158   */\n      swap2\n      swap1\n      pop\n      jump\t// out\n        /* \"#utility.yul\":4164:4358   */\n    tag_138:\n        /* \"#utility.yul\":4273:4284   */\n      0x00\n        /* \"#utility.yul\":4307:4313   */\n      dup3\n        /* \"#utility.yul\":4302:4305   */\n      dup3\n        /* \"#utility.yul\":4295:4314   */\n      mstore\n        /* \"#utility.yul\":4347:4351   */\n      0x20\n        /* \"#utility.yul\":4342:4345   */\n      dup3\n        /* \"#utility.yul\":4338:4352   */\n      add\n        /* \"#utility.yul\":4323:4352   */\n      swap1\n      pop\n        /* \"#utility.yul\":4164:4358   */\n      swap3\n      swap2\n      pop\n      pop\n      jump\t// out\n        /* \"#utility.yul\":4364:4506   */\n    tag_139:\n        /* \"#utility.yul\":4441:4445   */\n      0x00\n        /* \"#utility.yul\":4464:4467   */\n      dup2\n        /* \"#utility.yul\":4456:4467   */\n      swap1\n      pop\n        /* \"#utility.yul\":4494:4498   */\n      0x20\n        /* \"#utility.yul\":4489:4492   */\n      dup3\n        /* \"#utility.yul\":4485:4499   */\n      add\n        /* \"#utility.yul\":4477:4499   */\n      swap1\n      pop\n        /* \"#utility.yul\":4364:4506   */\n      swap2\n      swap1\n      pop\n      jump\t// out\n        /* \"#utility.yul\":4512:4671   */\n    tag_140:\n        /* \"#utility.yul\":4586:4597   */\n      0x00\n        /* \"#utility.yul\":4620:4626   */\n      dup3\n        /* \"#utility.yul\":4615:4618   */\n      dup3\n        /* \"#utility.yul\":4608:4627   */\n      mstore\n        /* \"#utility.yul\":4660:4664   */\n      0x20\n        /* \"#utility.yul\":4655:4658   */\n      dup3\n        /* \"#utility.yul\":4651:4665   */\n      add\n        /* \"#utility.yul\":4636:4665   */\n      swap1\n      pop\n        /* \"#utility.yul\":4512:4671   */\n      swap3\n      swap2\n      pop\n      pop\n      jump\t// out\n        /* \"#utility.yul\":4677:5034   */\n    tag_141:\n        /* \"#utility.yul\":4755:4758   */\n      0x00\n        /* \"#utility.yul\":4783:4822   */\n      tag_228\n        /* \"#utility.yul\":4816:4821   */\n      dup3\n        /* \"#utility.yul\":4783:4822   */\n      tag_125\n      jump\t// in\n    tag_228:\n        /* \"#utility.yul\":4838:4899   */\n      tag_229\n        /* \"#utility.yul\":4892:4898   */\n      dup2\n        /* \"#utility.yul\":4887:4890   */\n      dup6\n        /* \"#utility.yul\":4838:4899   */\n      tag_140\n      jump\t// in\n    tag_229:\n        /* \"#utility.yul\":4831:4899   */\n      swap4\n      pop\n        /* \"#utility.yul\":4908:4973   */\n      tag_230\n        /* \"#utility.yul\":4966:4972   */\n      dup2\n        /* \"#utility.yul\":4961:4964   */\n      dup6\n        /* \"#utility.yul\":4954:4958   */\n      0x20\n        /* \"#utility.yul\":4947:4952   */\n      dup7\n        /* \"#utility.yul\":4943:4959   */\n      add\n        /* \"#utility.yul\":4908:4973   */\n      tag_127\n      jump\t// in\n    tag_230:\n        /* \"#utility.yul\":4998:5027   */\n      tag_231\n        /* \"#utility.yul\":5020:5026   */\n      dup2\n        /* \"#utility.yul\":4998:5027   */\n      tag_128\n      jump\t// in\n    tag_231:\n        /* \"#utility.yul\":4993:4996   */\n      dup5\n        /* \"#utility.yul\":4989:5028   */\n      add\n        /* \"#utility.yul\":4982:5028   */\n      swap2\n      pop\n        /* \"#utility.yul\":4759:5034   */\n      pop\n        /* \"#utility.yul\":4677:5034   */\n      swap3\n      swap2\n      pop\n      pop\n      jump\t// out\n        /* \"#utility.yul\":5040:5236   */\n    tag_142:\n        /* \"#utility.yul\":5129:5139   */\n      0x00\n        /* \"#utility.yul\":5164:5230   */\n      tag_233\n        /* \"#utility.yul\":5226:5229   */\n      dup4\n        /* \"#utility.yul\":5218:5224   */\n      dup4\n        /* \"#utility.yul\":5164:5230   */\n      tag_141\n      jump\t// in\n    tag_233:\n        /* \"#utility.yul\":5150:5230   */\n      swap1\n      pop\n        /* \"#utility.yul\":5040:5236   */\n      swap3\n      swap2\n      pop\n      pop\n      jump\t// out\n        /* \"#utility.yul\":5242:5365   */\n    tag_143:\n        /* \"#utility.yul\":5322:5326   */\n      0x00\n        /* \"#utility.yul\":5354:5358   */\n      0x20\n        /* \"#utility.yul\":5349:5352   */\n      dup3\n        /* \"#utility.yul\":5345:5359   */\n      add\n        /* \"#utility.yul\":5337:5359   */\n      swap1\n      pop\n        /* \"#utility.yul\":5242:5365   */\n      swap2\n      swap1\n      pop\n      jump\t// out\n        /* \"#utility.yul\":5399:6390   */\n    tag_144:\n        /* \"#utility.yul\":5538:5541   */\n      0x00\n        /* \"#utility.yul\":5567:5631   */\n      tag_236\n        /* \"#utility.yul\":5625:5630   */\n      dup3\n        /* \"#utility.yul\":5567:5631   */\n      tag_137\n      jump\t// in\n    tag_236:\n        /* \"#utility.yul\":5647:5743   */\n      tag_237\n        /* \"#utility.yul\":5736:5742   */\n      dup2\n        /* \"#utility.yul\":5731:5734   */\n      dup6\n        /* \"#utility.yul\":5647:5743   */\n      tag_138\n      jump\t// in\n    tag_237:\n        /* \"#utility.yul\":5640:5743   */\n      swap4\n      pop\n        /* \"#utility.yul\":5769:5772   */\n      dup4\n        /* \"#utility.yul\":5814:5818   */\n      0x20\n        /* \"#utility.yul\":5806:5812   */\n      dup3\n        /* \"#utility.yul\":5802:5819   */\n      mul\n        /* \"#utility.yul\":5797:5800   */\n      dup6\n        /* \"#utility.yul\":5793:5820   */\n      add\n        /* \"#utility.yul\":5844:5910   */\n      tag_238\n        /* \"#utility.yul\":5904:5909   */\n      dup6\n        /* \"#utility.yul\":5844:5910   */\n      tag_139\n      jump\t// in\n    tag_238:\n        /* \"#utility.yul\":5933:5940   */\n      dup1\n        /* \"#utility.yul\":5964:5965   */\n      0x00\n        /* \"#utility.yul\":5949:6345   */\n    tag_239:\n        /* \"#utility.yul\":5974:5980   */\n      dup6\n        /* \"#utility.yul\":5971:5972   */\n      dup2\n        /* \"#utility.yul\":5968:5981   */\n      lt\n        /* \"#utility.yul\":5949:6345   */\n      iszero\n      tag_241\n      jumpi\n        /* \"#utility.yul\":6045:6054   */\n      dup5\n        /* \"#utility.yul\":6039:6043   */\n      dup5\n        /* \"#utility.yul\":6035:6055   */\n      sub\n        /* \"#utility.yul\":6030:6033   */\n      dup10\n        /* \"#utility.yul\":6023:6056   */\n      mstore\n        /* \"#utility.yul\":6096:6102   */\n      dup2\n        /* \"#utility.yul\":6090:6103   */\n      mload\n        /* \"#utility.yul\":6124:6208   */\n      tag_242\n        /* \"#utility.yul\":6203:6207   */\n      dup6\n        /* \"#utility.yul\":6188:6201   */\n      dup3\n        /* \"#utility.yul\":6124:6208   */\n      tag_142\n      jump\t// in\n    tag_242:\n        /* \"#utility.yul\":6116:6208   */\n      swap5\n      pop\n        /* \"#utility.yul\":6231:6301   */\n      tag_243\n        /* \"#utility.yul\":6294:6300   */\n      dup4\n        /* \"#utility.yul\":6231:6301   */\n      tag_143\n      jump\t// in\n    tag_243:\n        /* \"#utility.yul\":6221:6301   */\n      swap3\n      pop\n        /* \"#utility.yul\":6330:6334   */\n      0x20\n        /* \"#utility.yul\":6325:6328   */\n      dup11\n        /* \"#utility.yul\":6321:6335   */\n      add\n        /* \"#utility.yul\":6314:6335   */\n      swap10\n      pop\n        /* \"#utility.yul\":6009:6345   */\n      pop\n        /* \"#utility.yul\":5996:5997   */\n      0x01\n        /* \"#utility.yul\":5993:5994   */\n      dup2\n        /* \"#utility.yul\":5989:5998   */\n      add\n        /* \"#utility.yul\":5984:5998   */\n      swap1\n      pop\n        /* \"#utility.yul\":5949:6345   */\n      jump(tag_239)\n    tag_241:\n        /* \"#utility.yul\":5953:5967   */\n      pop\n        /* \"#utility.yul\":6361:6365   */\n      dup3\n        /* \"#utility.yul\":6354:6365   */\n      swap8\n      pop\n        /* \"#utility.yul\":6381:6384   */\n      dup8\n        /* \"#utility.yul\":6374:6384   */\n      swap6\n      pop\n        /* \"#utility.yul\":5543:6390   */\n      pop\n      pop\n      pop\n      pop\n      pop\n        /* \"#utility.yul\":5399:6390   */\n      swap3\n      swap2\n      pop\n      pop\n      jump\t// out\n        /* \"#utility.yul\":6396:7271   */\n    tag_17:\n        /* \"#utility.yul\":6685:6689   */\n      0x00\n        /* \"#utility.yul\":6723:6725   */\n      0x60\n        /* \"#utility.yul\":6712:6721   */\n      dup3\n        /* \"#utility.yul\":6708:6726   */\n      add\n        /* \"#utility.yul\":6700:6726   */\n      swap1\n      pop\n        /* \"#utility.yul\":6772:6781   */\n      dup2\n        /* \"#utility.yul\":6766:6770   */\n      dup2\n        /* \"#utility.yul\":6762:6782   */\n      sub\n        /* \"#utility.yul\":6758:6759   */\n      0x00\n        /* \"#utility.yul\":6747:6756   */\n      dup4\n        /* \"#utility.yul\":6743:6760   */\n      add\n        /* \"#utility.yul\":6736:6783   */\n      mstore\n        /* \"#utility.yul\":6800:6878   */\n      tag_245\n        /* \"#utility.yul\":6873:6877   */\n      dup2\n        /* \"#utility.yul\":6864:6870   */\n      dup7\n        /* \"#utility.yul\":6800:6878   */\n      tag_129\n      jump\t// in\n    tag_245:\n        /* \"#utility.yul\":6792:6878   */\n      swap1\n      pop\n        /* \"#utility.yul\":6925:6934   */\n      dup2\n        /* \"#utility.yul\":6919:6923   */\n      dup2\n        /* \"#utility.yul\":6915:6935   */\n      sub\n        /* \"#utility.yul\":6910:6912   */\n      0x20\n        /* \"#utility.yul\":6899:6908   */\n      dup4\n        /* \"#utility.yul\":6895:6913   */\n      add\n        /* \"#utility.yul\":6888:6936   */\n      mstore\n        /* \"#utility.yul\":6953:7061   */\n      tag_246\n        /* \"#utility.yul\":7056:7060   */\n      dup2\n        /* \"#utility.yul\":7047:7053   */\n      dup6\n        /* \"#utility.yul\":6953:7061   */\n      tag_136\n      jump\t// in\n    tag_246:\n        /* \"#utility.yul\":6945:7061   */\n      swap1\n      pop\n        /* \"#utility.yul\":7108:7117   */\n      dup2\n        /* \"#utility.yul\":7102:7106   */\n      dup2\n        /* \"#utility.yul\":7098:7118   */\n      sub\n        /* \"#utility.yul\":7093:7095   */\n      0x40\n        /* \"#utility.yul\":7082:7091   */\n      dup4\n        /* \"#utility.yul\":7078:7096   */\n      add\n        /* \"#utility.yul\":7071:7119   */\n      mstore\n        /* \"#utility.yul\":7136:7264   */\n      tag_247\n        /* \"#utility.yul\":7259:7263   */\n      dup2\n        /* \"#utility.yul\":7250:7256   */\n      dup5\n        /* \"#utility.yul\":7136:7264   */\n      tag_144\n      jump\t// in\n    tag_247:\n        /* \"#utility.yul\":7128:7264   */\n      swap1\n      pop\n        /* \"#utility.yul\":6396:7271   */\n      swap5\n      swap4\n      pop\n      pop\n      pop\n      pop\n      jump\t// out\n        /* \"#utility.yul\":7277:7394   */\n    tag_145:\n        /* \"#utility.yul\":7386:7387   */\n      0x00\n        /* \"#utility.yul\":7383:7384   */\n      dup1\n        /* \"#utility.yul\":7376:7388   */\n      revert\n        /* \"#utility.yul\":7400:7517   */\n    tag_146:\n        /* \"#utility.yul\":7509:7510   */\n      0x00\n        /* \"#utility.yul\":7506:7507   */\n      dup1\n        /* \"#utility.yul\":7499:7511   */\n      revert\n        /* \"#utility.yul\":7523:7703   */\n    tag_61:\n        /* \"#utility.yul\":7571:7648   */\n      0x4e487b7100000000000000000000000000000000000000000000000000000000\n        /* \"#utility.yul\":7568:7569   */\n      0x00\n        /* \"#utility.yul\":7561:7649   */\n      mstore\n        /* \"#utility.yul\":7668:7672   */\n      0x41\n        /* \"#utility.yul\":7665:7666   */\n      0x04\n        /* \"#utility.yul\":7658:7673   */\n      mstore\n        /* \"#utility.yul\":7692:7696   */\n      0x24\n        /* \"#utility.yul\":7689:7690   */\n      0x00\n        /* \"#utility.yul\":7682:7697   */\n      revert\n        /* \"#utility.yul\":7709:7990   */\n    tag_147:\n        /* \"#utility.yul\":7792:7819   */\n      tag_252\n        /* \"#utility.yul\":7814:7818   */\n      dup3\n        /* \"#utility.yul\":7792:7819   */\n      tag_128\n      jump\t// in\n    tag_252:\n        /* \"#utility.yul\":7784:7790   */\n      dup2\n        /* \"#utility.yul\":7780:7820   */\n      add\n        /* \"#utility.yul\":7922:7928   */\n      dup2\n        /* \"#utility.yul\":7910:7920   */\n      dup2\n        /* \"#utility.yul\":7907:7929   */\n      lt\n        /* \"#utility.yul\":7886:7904   */\n      0xffffffffffffffff\n        /* \"#utility.yul\":7874:7884   */\n      dup3\n        /* \"#utility.yul\":7871:7905   */\n      gt\n        /* \"#utility.yul\":7868:7930   */\n      or\n        /* \"#utility.yul\":7865:7953   */\n      iszero\n      tag_253\n      jumpi\n        /* \"#utility.yul\":7933:7951   */\n      tag_254\n      tag_61\n      jump\t// in\n    tag_254:\n        /* \"#utility.yul\":7865:7953   */\n    tag_253:\n        /* \"#utility.yul\":7973:7983   */\n      dup1\n        /* \"#utility.yul\":7969:7971   */\n      0x40\n        /* \"#utility.yul\":7962:7984   */\n      mstore\n        /* \"#utility.yul\":7752:7990   */\n      pop\n        /* \"#utility.yul\":7709:7990   */\n      pop\n      pop\n      jump\t// out\n        /* \"#utility.yul\":7996:8125   */\n    tag_148:\n        /* \"#utility.yul\":8030:8036   */\n      0x00\n        /* \"#utility.yul\":8057:8077   */\n      tag_256\n      tag_120\n      jump\t// in\n    tag_256:\n        /* \"#utility.yul\":8047:8077   */\n      swap1\n      pop\n        /* \"#utility.yul\":8086:8119   */\n      tag_257\n        /* \"#utility.yul\":8114:8118   */\n      dup3\n        /* \"#utility.yul\":8106:8112   */\n      dup3\n        /* \"#utility.yul\":8086:8119   */\n      tag_147\n      jump\t// in\n    tag_257:\n        /* \"#utility.yul\":7996:8125   */\n      swap2\n      swap1\n      pop\n      jump\t// out\n        /* \"#utility.yul\":8131:8439   */\n    tag_149:\n        /* \"#utility.yul\":8193:8197   */\n      0x00\n        /* \"#utility.yul\":8283:8301   */\n      0xffffffffffffffff\n        /* \"#utility.yul\":8275:8281   */\n      dup3\n        /* \"#utility.yul\":8272:8302   */\n      gt\n        /* \"#utility.yul\":8269:8325   */\n      iszero\n      tag_259\n      jumpi\n        /* \"#utility.yul\":8305:8323   */\n      tag_260\n      tag_61\n      jump\t// in\n    tag_260:\n        /* \"#utility.yul\":8269:8325   */\n    tag_259:\n        /* \"#utility.yul\":8343:8372   */\n      tag_261\n        /* \"#utility.yul\":8365:8371   */\n      dup3\n        /* \"#utility.yul\":8343:8372   */\n      tag_128\n      jump\t// in\n    tag_261:\n        /* \"#utility.yul\":8335:8372   */\n      swap1\n      pop\n        /* \"#utility.yul\":8427:8431   */\n      0x20\n        /* \"#utility.yul\":8421:8425   */\n      dup2\n        /* \"#utility.yul\":8417:8432   */\n      add\n        /* \"#utility.yul\":8409:8432   */\n      swap1\n      pop\n        /* \"#utility.yul\":8131:8439   */\n      swap2\n      swap1\n      pop\n      jump\t// out\n        /* \"#utility.yul\":8445:8591   */\n    tag_150:\n        /* \"#utility.yul\":8542:8548   */\n      dup3\n        /* \"#utility.yul\":8537:8540   */\n      dup2\n        /* \"#utility.yul\":8532:8535   */\n      dup4\n        /* \"#utility.yul\":8519:8549   */\n      calldatacopy\n        /* \"#utility.yul\":8583:8584   */\n      0x00\n        /* \"#utility.yul\":8574:8580   */\n      dup4\n        /* \"#utility.yul\":8569:8572   */\n      dup4\n        /* \"#utility.yul\":8565:8581   */\n      add\n        /* \"#utility.yul\":8558:8585   */\n      mstore\n        /* \"#utility.yul\":8445:8591   */\n      pop\n      pop\n      pop\n      jump\t// out\n        /* \"#utility.yul\":8597:9022   */\n    tag_151:\n        /* \"#utility.yul\":8675:8680   */\n      0x00\n        /* \"#utility.yul\":8700:8766   */\n      tag_264\n        /* \"#utility.yul\":8716:8765   */\n      tag_265\n        /* \"#utility.yul\":8758:8764   */\n      dup5\n        /* \"#utility.yul\":8716:8765   */\n      tag_149\n      jump\t// in\n    tag_265:\n        /* \"#utility.yul\":8700:8766   */\n      tag_148\n      jump\t// in\n    tag_264:\n        /* \"#utility.yul\":8691:8766   */\n      swap1\n      pop\n        /* \"#utility.yul\":8789:8795   */\n      dup3\n        /* \"#utility.yul\":8782:8787   */\n      dup2\n        /* \"#utility.yul\":8775:8796   */\n      mstore\n        /* \"#utility.yul\":8827:8831   */\n      0x20\n        /* \"#utility.yul\":8820:8825   */\n      dup2\n        /* \"#utility.yul\":8816:8832   */\n      add\n        /* \"#utility.yul\":8865:8868   */\n      dup5\n        /* \"#utility.yul\":8856:8862   */\n      dup5\n        /* \"#utility.yul\":8851:8854   */\n      dup5\n        /* \"#utility.yul\":8847:8863   */\n      add\n        /* \"#utility.yul\":8844:8869   */\n      gt\n        /* \"#utility.yul\":8841:8953   */\n      iszero\n      tag_266\n      jumpi\n        /* \"#utility.yul\":8872:8951   */\n      tag_267\n      tag_146\n      jump\t// in\n    tag_267:\n        /* \"#utility.yul\":8841:8953   */\n    tag_266:\n        /* \"#utility.yul\":8962:9016   */\n      tag_268\n        /* \"#utility.yul\":9009:9015   */\n      dup5\n        /* \"#utility.yul\":9004:9007   */\n      dup3\n        /* \"#utility.yul\":8999:9002   */\n      dup6\n        /* \"#utility.yul\":8962:9016   */\n      tag_150\n      jump\t// in\n    tag_268:\n        /* \"#utility.yul\":8681:9022   */\n      pop\n        /* \"#utility.yul\":8597:9022   */\n      swap4\n      swap3\n      pop\n      pop\n      pop\n      jump\t// out\n        /* \"#utility.yul\":9042:9382   */\n    tag_152:\n        /* \"#utility.yul\":9098:9103   */\n      0x00\n        /* \"#utility.yul\":9147:9150   */\n      dup3\n        /* \"#utility.yul\":9140:9144   */\n      0x1f\n        /* \"#utility.yul\":9132:9138   */\n      dup4\n        /* \"#utility.yul\":9128:9145   */\n      add\n        /* \"#utility.yul\":9124:9151   */\n      slt\n        /* \"#utility.yul\":9114:9236   */\n      tag_270\n      jumpi\n        /* \"#utility.yul\":9155:9234   */\n      tag_271\n      tag_145\n      jump\t// in\n    tag_271:\n        /* \"#utility.yul\":9114:9236   */\n    tag_270:\n        /* \"#utility.yul\":9272:9278   */\n      dup2\n        /* \"#utility.yul\":9259:9279   */\n      calldataload\n        /* \"#utility.yul\":9297:9376   */\n      tag_272\n        /* \"#utility.yul\":9372:9375   */\n      dup5\n        /* \"#utility.yul\":9364:9370   */\n      dup3\n        /* \"#utility.yul\":9357:9361   */\n      0x20\n        /* \"#utility.yul\":9349:9355   */\n      dup7\n        /* \"#utility.yul\":9345:9362   */\n      add\n        /* \"#utility.yul\":9297:9376   */\n      tag_151\n      jump\t// in\n    tag_272:\n        /* \"#utility.yul\":9288:9376   */\n      swap2\n      pop\n        /* \"#utility.yul\":9104:9382   */\n      pop\n        /* \"#utility.yul\":9042:9382   */\n      swap3\n      swap2\n      pop\n      pop\n      jump\t// out\n        /* \"#utility.yul\":9388:9709   */\n    tag_153:\n        /* \"#utility.yul\":9475:9479   */\n      0x00\n        /* \"#utility.yul\":9565:9583   */\n      0xffffffffffffffff\n        /* \"#utility.yul\":9557:9563   */\n      dup3\n        /* \"#utility.yul\":9554:9584   */\n      gt\n        /* \"#utility.yul\":9551:9607   */\n      iszero\n      tag_274\n      jumpi\n        /* \"#utility.yul\":9587:9605   */\n      tag_275\n      tag_61\n      jump\t// in\n    tag_275:\n        /* \"#utility.yul\":9551:9607   */\n    tag_274:\n        /* \"#utility.yul\":9637:9641   */\n      0x20\n        /* \"#utility.yul\":9629:9635   */\n      dup3\n        /* \"#utility.yul\":9625:9642   */\n      mul\n        /* \"#utility.yul\":9617:9642   */\n      swap1\n      pop\n        /* \"#utility.yul\":9697:9701   */\n      0x20\n        /* \"#utility.yul\":9691:9695   */\n      dup2\n        /* \"#utility.yul\":9687:9702   */\n      add\n        /* \"#utility.yul\":9679:9702   */\n      swap1\n      pop\n        /* \"#utility.yul\":9388:9709   */\n      swap2\n      swap1\n      pop\n      jump\t// out\n        /* \"#utility.yul\":9715:9832   */\n    tag_154:\n        /* \"#utility.yul\":9824:9825   */\n      0x00\n        /* \"#utility.yul\":9821:9822   */\n      dup1\n        /* \"#utility.yul\":9814:9826   */\n      revert\n        /* \"#utility.yul\":9854:10799   */\n    tag_155:\n        /* \"#utility.yul\":9960:9965   */\n      0x00\n        /* \"#utility.yul\":9985:10076   */\n      tag_278\n        /* \"#utility.yul\":10001:10075   */\n      tag_279\n        /* \"#utility.yul\":10068:10074   */\n      dup5\n        /* \"#utility.yul\":10001:10075   */\n      tag_153\n      jump\t// in\n    tag_279:\n        /* \"#utility.yul\":9985:10076   */\n      tag_148\n      jump\t// in\n    tag_278:\n        /* \"#utility.yul\":9976:10076   */\n      swap1\n      pop\n        /* \"#utility.yul\":10096:10101   */\n      dup1\n        /* \"#utility.yul\":10125:10131   */\n      dup4\n        /* \"#utility.yul\":10118:10123   */\n      dup3\n        /* \"#utility.yul\":10111:10132   */\n      mstore\n        /* \"#utility.yul\":10159:10163   */\n      0x20\n        /* \"#utility.yul\":10152:10157   */\n      dup3\n        /* \"#utility.yul\":10148:10164   */\n      add\n        /* \"#utility.yul\":10141:10164   */\n      swap1\n      pop\n        /* \"#utility.yul\":10212:10216   */\n      0x20\n        /* \"#utility.yul\":10204:10210   */\n      dup5\n        /* \"#utility.yul\":10200:10217   */\n      mul\n        /* \"#utility.yul\":10192:10198   */\n      dup4\n        /* \"#utility.yul\":10188:10218   */\n      add\n        /* \"#utility.yul\":10241:10244   */\n      dup6\n        /* \"#utility.yul\":10233:10239   */\n      dup2\n        /* \"#utility.yul\":10230:10245   */\n      gt\n        /* \"#utility.yul\":10227:10349   */\n      iszero\n      tag_280\n      jumpi\n        /* \"#utility.yul\":10260:10339   */\n      tag_281\n      tag_154\n      jump\t// in\n    tag_281:\n        /* \"#utility.yul\":10227:10349   */\n    tag_280:\n        /* \"#utility.yul\":10375:10381   */\n      dup4\n        /* \"#utility.yul\":10358:10793   */\n    tag_282:\n        /* \"#utility.yul\":10392:10398   */\n      dup2\n        /* \"#utility.yul\":10387:10390   */\n      dup2\n        /* \"#utility.yul\":10384:10399   */\n      lt\n        /* \"#utility.yul\":10358:10793   */\n      iszero\n      tag_284\n      jumpi\n        /* \"#utility.yul\":10481:10484   */\n      dup1\n        /* \"#utility.yul\":10468:10485   */\n      calldataload\n        /* \"#utility.yul\":10517:10535   */\n      0xffffffffffffffff\n        /* \"#utility.yul\":10504:10515   */\n      dup2\n        /* \"#utility.yul\":10501:10536   */\n      gt\n        /* \"#utility.yul\":10498:10620   */\n      iszero\n      tag_285\n      jumpi\n        /* \"#utility.yul\":10539:10618   */\n      tag_286\n      tag_145\n      jump\t// in\n    tag_286:\n        /* \"#utility.yul\":10498:10620   */\n    tag_285:\n        /* \"#utility.yul\":10663:10674   */\n      dup1\n        /* \"#utility.yul\":10655:10661   */\n      dup7\n        /* \"#utility.yul\":10651:10675   */\n      add\n        /* \"#utility.yul\":10701:10748   */\n      tag_287\n        /* \"#utility.yul\":10744:10747   */\n      dup10\n        /* \"#utility.yul\":10732:10742   */\n      dup3\n        /* \"#utility.yul\":10701:10748   */\n      tag_152\n      jump\t// in\n    tag_287:\n        /* \"#utility.yul\":10696:10699   */\n      dup6\n        /* \"#utility.yul\":10689:10749   */\n      mstore\n        /* \"#utility.yul\":10778:10782   */\n      0x20\n        /* \"#utility.yul\":10773:10776   */\n      dup6\n        /* \"#utility.yul\":10769:10783   */\n      add\n        /* \"#utility.yul\":10762:10783   */\n      swap5\n      pop\n        /* \"#utility.yul\":10434:10793   */\n      pop\n      pop\n        /* \"#utility.yul\":10418:10422   */\n      0x20\n        /* \"#utility.yul\":10413:10416   */\n      dup2\n        /* \"#utility.yul\":10409:10423   */\n      add\n        /* \"#utility.yul\":10402:10423   */\n      swap1\n      pop\n        /* \"#utility.yul\":10358:10793   */\n      jump(tag_282)\n    tag_284:\n        /* \"#utility.yul\":10362:10383   */\n      pop\n        /* \"#utility.yul\":9966:10799   */\n      pop\n      pop\n        /* \"#utility.yul\":9854:10799   */\n      swap4\n      swap3\n      pop\n      pop\n      pop\n      jump\t// out\n        /* \"#utility.yul\":10821:11211   */\n    tag_156:\n        /* \"#utility.yul\":10902:10907   */\n      0x00\n        /* \"#utility.yul\":10951:10954   */\n      dup3\n        /* \"#utility.yul\":10944:10948   */\n      0x1f\n        /* \"#utility.yul\":10936:10942   */\n      dup4\n        /* \"#utility.yul\":10932:10949   */\n      add\n        /* \"#utility.yul\":10928:10955   */\n      slt\n        /* \"#utility.yul\":10918:11040   */\n      tag_289\n      jumpi\n        /* \"#utility.yul\":10959:11038   */\n      tag_290\n      tag_145\n      jump\t// in\n    tag_290:\n        /* \"#utility.yul\":10918:11040   */\n    tag_289:\n        /* \"#utility.yul\":11076:11082   */\n      dup2\n        /* \"#utility.yul\":11063:11083   */\n      calldataload\n        /* \"#utility.yul\":11101:11205   */\n      tag_291\n        /* \"#utility.yul\":11201:11204   */\n      dup5\n        /* \"#utility.yul\":11193:11199   */\n      dup3\n        /* \"#utility.yul\":11186:11190   */\n      0x20\n        /* \"#utility.yul\":11178:11184   */\n      dup7\n        /* \"#utility.yul\":11174:11191   */\n      add\n        /* \"#utility.yul\":11101:11205   */\n      tag_155\n      jump\t// in\n    tag_291:\n        /* \"#utility.yul\":11092:11205   */\n      swap2\n      pop\n        /* \"#utility.yul\":10908:11211   */\n      pop\n        /* \"#utility.yul\":10821:11211   */\n      swap3\n      swap2\n      pop\n      pop\n      jump\t// out\n        /* \"#utility.yul\":11217:12246   */\n    tag_20:\n        /* \"#utility.yul\":11339:11345   */\n      0x00\n        /* \"#utility.yul\":11347:11353   */\n      dup1\n        /* \"#utility.yul\":11355:11361   */\n      0x00\n        /* \"#utility.yul\":11404:11406   */\n      0x60\n        /* \"#utility.yul\":11392:11401   */\n      dup5\n        /* \"#utility.yul\":11383:11390   */\n      dup7\n        /* \"#utility.yul\":11379:11402   */\n      sub\n        /* \"#utility.yul\":11375:11407   */\n      slt\n        /* \"#utility.yul\":11372:11491   */\n      iszero\n      tag_293\n      jumpi\n        /* \"#utility.yul\":11410:11489   */\n      tag_294\n      tag_121\n      jump\t// in\n    tag_294:\n        /* \"#utility.yul\":11372:11491   */\n    tag_293:\n        /* \"#utility.yul\":11530:11531   */\n      0x00\n        /* \"#utility.yul\":11555:11608   */\n      tag_295\n        /* \"#utility.yul\":11600:11607   */\n      dup7\n        /* \"#utility.yul\":11591:11597   */\n      dup3\n        /* \"#utility.yul\":11580:11589   */\n      dup8\n        /* \"#utility.yul\":11576:11598   */\n      add\n        /* \"#utility.yul\":11555:11608   */\n      tag_124\n      jump\t// in\n    tag_295:\n        /* \"#utility.yul\":11545:11608   */\n      swap4\n      pop\n        /* \"#utility.yul\":11501:11618   */\n      pop\n        /* \"#utility.yul\":11685:11687   */\n      0x20\n        /* \"#utility.yul\":11674:11683   */\n      dup5\n        /* \"#utility.yul\":11670:11688   */\n      add\n        /* \"#utility.yul\":11657:11689   */\n      calldataload\n        /* \"#utility.yul\":11716:11734   */\n      0xffffffffffffffff\n        /* \"#utility.yul\":11708:11714   */\n      dup2\n        /* \"#utility.yul\":11705:11735   */\n      gt\n        /* \"#utility.yul\":11702:11819   */\n      iszero\n      tag_296\n      jumpi\n        /* \"#utility.yul\":11738:11817   */\n      tag_297\n      tag_122\n      jump\t// in\n    tag_297:\n        /* \"#utility.yul\":11702:11819   */\n    tag_296:\n        /* \"#utility.yul\":11843:11906   */\n      tag_298\n        /* \"#utility.yul\":11898:11905   */\n      dup7\n        /* \"#utility.yul\":11889:11895   */\n      dup3\n        /* \"#utility.yul\":11878:11887   */\n      dup8\n        /* \"#utility.yul\":11874:11896   */\n      add\n        /* \"#utility.yul\":11843:11906   */\n      tag_152\n      jump\t// in\n    tag_298:\n        /* \"#utility.yul\":11833:11906   */\n      swap3\n      pop\n        /* \"#utility.yul\":11628:11916   */\n      pop\n        /* \"#utility.yul\":11983:11985   */\n      0x40\n        /* \"#utility.yul\":11972:11981   */\n      dup5\n        /* \"#utility.yul\":11968:11986   */\n      add\n        /* \"#utility.yul\":11955:11987   */\n      calldataload\n        /* \"#utility.yul\":12014:12032   */\n      0xffffffffffffffff\n        /* \"#utility.yul\":12006:12012   */\n      dup2\n        /* \"#utility.yul\":12003:12033   */\n      gt\n        /* \"#utility.yul\":12000:12117   */\n      iszero\n      tag_299\n      jumpi\n        /* \"#utility.yul\":12036:12115   */\n      tag_300\n      tag_122\n      jump\t// in\n    tag_300:\n        /* \"#utility.yul\":12000:12117   */\n    tag_299:\n        /* \"#utility.yul\":12141:12229   */\n      tag_301\n        /* \"#utility.yul\":12221:12228   */\n      dup7\n        /* \"#utility.yul\":12212:12218   */\n      dup3\n        /* \"#utility.yul\":12201:12210   */\n      dup8\n        /* \"#utility.yul\":12197:12219   */\n      add\n        /* \"#utility.yul\":12141:12229   */\n      tag_156\n      jump\t// in\n    tag_301:\n        /* \"#utility.yul\":12131:12229   */\n      swap2\n      pop\n        /* \"#utility.yul\":11926:12239   */\n      pop\n        /* \"#utility.yul\":11217:12246   */\n      swap3\n      pop\n      swap3\n      pop\n      swap3\n      jump\t// out\n        /* \"#utility.yul\":12252:12726   */\n    tag_24:\n        /* \"#utility.yul\":12320:12326   */\n      0x00\n        /* \"#utility.yul\":12328:12334   */\n      dup1\n        /* \"#utility.yul\":12377:12379   */\n      0x40\n        /* \"#utility.yul\":12365:12374   */\n      dup4\n        /* \"#utility.yul\":12356:12363   */\n      dup6\n        /* \"#utility.yul\":12352:12375   */\n      sub\n        /* \"#utility.yul\":12348:12380   */\n      slt\n        /* \"#utility.yul\":12345:12464   */\n      iszero\n      tag_303\n      jumpi\n        /* \"#utility.yul\":12383:12462   */\n      tag_304\n      tag_121\n      jump\t// in\n    tag_304:\n        /* \"#utility.yul\":12345:12464   */\n    tag_303:\n        /* \"#utility.yul\":12503:12504   */\n      0x00\n        /* \"#utility.yul\":12528:12581   */\n      tag_305\n        /* \"#utility.yul\":12573:12580   */\n      dup6\n        /* \"#utility.yul\":12564:12570   */\n      dup3\n        /* \"#utility.yul\":12553:12562   */\n      dup7\n        /* \"#utility.yul\":12549:12571   */\n      add\n        /* \"#utility.yul\":12528:12581   */\n      tag_124\n      jump\t// in\n    tag_305:\n        /* \"#utility.yul\":12518:12581   */\n      swap3\n      pop\n        /* \"#utility.yul\":12474:12591   */\n      pop\n        /* \"#utility.yul\":12630:12632   */\n      0x20\n        /* \"#utility.yul\":12656:12709   */\n      tag_306\n        /* \"#utility.yul\":12701:12708   */\n      dup6\n        /* \"#utility.yul\":12692:12698   */\n      dup3\n        /* \"#utility.yul\":12681:12690   */\n      dup7\n        /* \"#utility.yul\":12677:12699   */\n      add\n        /* \"#utility.yul\":12656:12709   */\n      tag_124\n      jump\t// in\n    tag_306:\n        /* \"#utility.yul\":12646:12709   */\n      swap2\n      pop\n        /* \"#utility.yul\":12601:12719   */\n      pop\n        /* \"#utility.yul\":12252:12726   */\n      swap3\n      pop\n      swap3\n      swap1\n      pop\n      jump\t// out\n        /* \"#utility.yul\":12732:12912   */\n    tag_34:\n        /* \"#utility.yul\":12780:12857   */\n      0x4e487b7100000000000000000000000000000000000000000000000000000000\n        /* \"#utility.yul\":12777:12778   */\n      0x00\n        /* \"#utility.yul\":12770:12858   */\n      mstore\n        /* \"#utility.yul\":12877:12881   */\n      0x32\n        /* \"#utility.yul\":12874:12875   */\n      0x04\n        /* \"#utility.yul\":12867:12882   */\n      mstore\n        /* \"#utility.yul\":12901:12905   */\n      0x24\n        /* \"#utility.yul\":12898:12899   */\n      0x00\n        /* \"#utility.yul\":12891:12906   */\n      revert\n        /* \"#utility.yul\":12918:13098   */\n    tag_157:\n        /* \"#utility.yul\":12966:13043   */\n      0x4e487b7100000000000000000000000000000000000000000000000000000000\n        /* \"#utility.yul\":12963:12964   */\n      0x00\n        /* \"#utility.yul\":12956:13044   */\n      mstore\n        /* \"#utility.yul\":13063:13067   */\n      0x22\n        /* \"#utility.yul\":13060:13061   */\n      0x04\n        /* \"#utility.yul\":13053:13068   */\n      mstore\n        /* \"#utility.yul\":13087:13091   */\n      0x24\n        /* \"#utility.yul\":13084:13085   */\n      0x00\n        /* \"#utility.yul\":13077:13092   */\n      revert\n        /* \"#utility.yul\":13104:13424   */\n    tag_43:\n        /* \"#utility.yul\":13148:13154   */\n      0x00\n        /* \"#utility.yul\":13185:13186   */\n      0x02\n        /* \"#utility.yul\":13179:13183   */\n      dup3\n        /* \"#utility.yul\":13175:13187   */\n      div\n        /* \"#utility.yul\":13165:13187   */\n      swap1\n      pop\n        /* \"#utility.yul\":13232:13233   */\n      0x01\n        /* \"#utility.yul\":13226:13230   */\n      dup3\n        /* \"#utility.yul\":13222:13234   */\n      and\n        /* \"#utility.yul\":13253:13271   */\n      dup1\n        /* \"#utility.yul\":13243:13324   */\n      tag_310\n      jumpi\n        /* \"#utility.yul\":13309:13313   */\n      0x7f\n        /* \"#utility.yul\":13301:13307   */\n      dup3\n        /* \"#utility.yul\":13297:13314   */\n      and\n        /* \"#utility.yul\":13287:13314   */\n      swap2\n      pop\n        /* \"#utility.yul\":13243:13324   */\n    tag_310:\n        /* \"#utility.yul\":13371:13373   */\n      0x20\n        /* \"#utility.yul\":13363:13369   */\n      dup3\n        /* \"#utility.yul\":13360:13374   */\n      lt\n        /* \"#utility.yul\":13340:13358   */\n      dup2\n        /* \"#utility.yul\":13337:13375   */\n      sub\n        /* \"#utility.yul\":13334:13418   */\n      tag_311\n      jumpi\n        /* \"#utility.yul\":13390:13408   */\n      tag_312\n      tag_157\n      jump\t// in\n    tag_312:\n        /* \"#utility.yul\":13334:13418   */\n    tag_311:\n        /* \"#utility.yul\":13155:13424   */\n      pop\n        /* \"#utility.yul\":13104:13424   */\n      swap2\n      swap1\n      pop\n      jump\t// out\n        /* \"#utility.yul\":13430:13571   */\n    tag_158:\n        /* \"#utility.yul\":13479:13483   */\n      0x00\n        /* \"#utility.yul\":13502:13505   */\n      dup2\n        /* \"#utility.yul\":13494:13505   */\n      swap1\n      pop\n        /* \"#utility.yul\":13525:13528   */\n      dup2\n        /* \"#utility.yul\":13522:13523   */\n      0x00\n        /* \"#utility.yul\":13515:13529   */\n      mstore\n        /* \"#utility.yul\":13559:13563   */\n      0x20\n        /* \"#utility.yul\":13556:13557   */\n      0x00\n        /* \"#utility.yul\":13546:13564   */\n      keccak256\n        /* \"#utility.yul\":13538:13564   */\n      swap1\n      pop\n        /* \"#utility.yul\":13430:13571   */\n      swap2\n      swap1\n      pop\n      jump\t// out\n        /* \"#utility.yul\":13577:13670   */\n    tag_159:\n        /* \"#utility.yul\":13614:13620   */\n      0x00\n        /* \"#utility.yul\":13661:13663   */\n      0x20\n        /* \"#utility.yul\":13656:13658   */\n      0x1f\n        /* \"#utility.yul\":13649:13654   */\n      dup4\n        /* \"#utility.yul\":13645:13659   */\n      add\n        /* \"#utility.yul\":13641:13664   */\n      div\n        /* \"#utility.yul\":13631:13664   */\n      swap1\n      pop\n        /* \"#utility.yul\":13577:13670   */\n      swap2\n      swap1\n      pop\n      jump\t// out\n        /* \"#utility.yul\":13676:13783   */\n    tag_160:\n        /* \"#utility.yul\":13720:13728   */\n      0x00\n        /* \"#utility.yul\":13770:13775   */\n      dup3\n        /* \"#utility.yul\":13764:13768   */\n      dup3\n        /* \"#utility.yul\":13760:13776   */\n      shl\n        /* \"#utility.yul\":13739:13776   */\n      swap1\n      pop\n        /* \"#utility.yul\":13676:13783   */\n      swap3\n      swap2\n      pop\n      pop\n      jump\t// out\n        /* \"#utility.yul\":13789:14182   */\n    tag_161:\n        /* \"#utility.yul\":13858:13864   */\n      0x00\n        /* \"#utility.yul\":13908:13909   */\n      0x08\n        /* \"#utility.yul\":13896:13906   */\n      dup4\n        /* \"#utility.yul\":13892:13910   */\n      mul\n        /* \"#utility.yul\":13931:14028   */\n      tag_317\n        /* \"#utility.yul\":13961:14027   */\n      0xffffffffffffffffffffffffffffffffffffffffffffffffffffffffffffffff\n        /* \"#utility.yul\":13950:13959   */\n      dup3\n        /* \"#utility.yul\":13931:14028   */\n      tag_160\n      jump\t// in\n    tag_317:\n        /* \"#utility.yul\":14049:14088   */\n      tag_318\n        /* \"#utility.yul\":14079:14087   */\n      dup7\n        /* \"#utility.yul\":14068:14077   */\n      dup4\n        /* \"#utility.yul\":14049:14088   */\n      tag_160\n      jump\t// in\n    tag_318:\n        /* \"#utility.yul\":14037:14088   */\n      swap6\n      pop\n        /* \"#utility.yul\":14121:14125   */\n      dup1\n        /* \"#utility.yul\":14117:14126   */\n      not\n        /* \"#utility.yul\":14110:14115   */\n      dup5\n        /* \"#utility.yul\":14106:14127   */\n      and\n        /* \"#utility.yul\":14097:14127   */\n      swap4\n      pop\n        /* \"#utility.yul\":14170:14174   */\n      dup1\n        /* \"#utility.yul\":14160:14168   */\n      dup7\n        /* \"#utility.yul\":14156:14175   */\n      and\n        /* \"#utility.yul\":14149:14154   */\n      dup5\n        /* \"#utility.yul\":14146:14176   */\n      or\n        /* \"#utility.yul\":14136:14176   */\n      swap3\n      pop\n        /* \"#utility.yul\":13865:14182   */\n      pop\n      pop\n        /* \"#utility.yul\":13789:14182   */\n      swap4\n      swap3\n      pop\n      pop\n      pop\n      jump\t// out\n        /* \"#utility.yul\":14188:14248   */\n    tag_162:\n        /* \"#utility.yul\":14216:14219   */\n      0x00\n        /* \"#utility.yul\":14237:14242   */\n      dup2\n        /* \"#utility.yul\":14230:14242   */\n      swap1\n      pop\n        /* \"#utility.yul\":14188:14248   */\n      swap2\n      swap1\n      pop\n      jump\t// out\n        /* \"#utility.yul\":14254:14396   */\n    tag_163:\n        /* \"#utility.yul\":14304:14313   */\n      0x00\n        /* \"#utility.yul\":14337:14390   */\n      tag_321\n        /* \"#utility.yul\":14355:14389   */\n      tag_322\n        /* \"#utility.yul\":14364:14388   */\n      tag_323\n        /* \"#utility.yul\":14382:14387   */\n      dup5\n        /* \"#utility.yul\":14364:14388   */\n      tag_118\n      jump\t// in\n    tag_323:\n        /* \"#utility.yul\":14355:14389   */\n      tag_162\n      jump\t// in\n    tag_322:\n        /* \"#utility.yul\":14337:14390   */\n      tag_118\n      jump\t// in\n    tag_321:\n        /* \"#utility.yul\":14324:14390   */\n      swap1\n      pop\n        /* \"#utility.yul\":14254:14396   */\n      swap2\n      swap1\n      pop\n      jump\t// out\n        /* \"#utility.yul\":14402:14477   */\n    tag_164:\n        /* \"#utility.yul\":14445:14448   */\n      0x00\n        /* \"#utility.yul\":14466:14471   */\n      dup2\n        /* \"#utility.yul\":14459:14471   */\n      swap1\n      pop\n        /* \"#utility.yul\":14402:14477   */\n      swap2\n      swap1\n      pop\n      jump\t// out\n        /* \"#utility.yul\":14483:14752   */\n    tag_165:\n        /* \"#utility.yul\":14593:14632   */\n      tag_326\n        /* \"#utility.yul\":14624:14631   */\n      dup4\n        /* \"#utility.yul\":14593:14632   */\n      tag_163\n      jump\t// in\n    tag_326:\n        /* \"#utility.yul\":14654:14745   */\n      tag_327\n        /* \"#utility.yul\":14703:14744   */\n      tag_328\n        /* \"#utility.yul\":14727:14743   */\n      dup3\n        /* \"#utility.yul\":14703:14744   */\n      tag_164\n      jump\t// in\n    tag_328:\n        /* \"#utility.yul\":14695:14701   */\n      dup5\n        /* \"#utility.yul\":14688:14692   */\n      dup5\n        /* \"#utility.yul\":14682:14693   */\n      sload\n        /* \"#utility.yul\":14654:14745   */\n      tag_161\n      jump\t// in\n    tag_327:\n        /* \"#utility.yul\":14648:14652   */\n      dup3\n        /* \"#utility.yul\":14641:14746   */\n      sstore\n        /* \"#utility.yul\":14559:14752   */\n      pop\n        /* \"#utility.yul\":14483:14752   */\n      pop\n      pop\n      pop\n      jump\t// out\n        /* \"#utility.yul\":14758:14831   */\n    tag_166:\n        /* \"#utility.yul\":14803:14806   */\n      0x00\n        /* \"#utility.yul\":14758:14831   */\n      swap1\n      jump\t// out\n        /* \"#utility.yul\":14837:15026   */\n    tag_167:\n        /* \"#utility.yul\":14914:14946   */\n      tag_331\n      tag_166\n      jump\t// in\n    tag_331:\n        /* \"#utility.yul\":14955:15020   */\n      tag_332\n        /* \"#utility.yul\":15013:15019   */\n      dup2\n        /* \"#utility.yul\":15005:15011   */\n      dup5\n        /* \"#utility.yul\":14999:15003   */\n      dup5\n        /* \"#utility.yul\":14955:15020   */\n      tag_165\n      jump\t// in\n    tag_332:\n        /* \"#utility.yul\":14890:15026   */\n      pop\n        /* \"#utility.yul\":14837:15026   */\n      pop\n      pop\n      jump\t// out\n        /* \"#utility.yul\":15032:15218   */\n    tag_168:\n        /* \"#utility.yul\":15092:15212   */\n    tag_334:\n        /* \"#utility.yul\":15109:15112   */\n      dup2\n        /* \"#utility.yul\":15102:15107   */\n      dup2\n        /* \"#utility.yul\":15099:15113   */\n      lt\n        /* \"#utility.yul\":15092:15212   */\n      iszero\n      tag_336\n      jumpi\n        /* \"#utility.yul\":15163:15202   */\n      tag_337\n        /* \"#utility.yul\":15200:15201   */\n      0x00\n        /* \"#utility.yul\":15193:15198   */\n      dup3\n        /* \"#utility.yul\":15163:15202   */\n      tag_167\n      jump\t// in\n    tag_337:\n        /* \"#utility.yul\":15136:15137   */\n      0x01\n        /* \"#utility.yul\":15129:15134   */\n      dup2\n        /* \"#utility.yul\":15125:15138   */\n      add\n        /* \"#utility.yul\":15116:15138   */\n      swap1\n      pop\n        /* \"#utility.yul\":15092:15212   */\n      jump(tag_334)\n    tag_336:\n        /* \"#utility.yul\":15032:15218   */\n      pop\n      pop\n      jump\t// out\n        /* \"#utility.yul\":15224:15767   */\n    tag_169:\n        /* \"#utility.yul\":15325:15327   */\n      0x1f\n        /* \"#utility.yul\":15320:15323   */\n      dup3\n        /* \"#utility.yul\":15317:15328   */\n      gt\n        /* \"#utility.yul\":15314:15760   */\n      iszero\n      tag_339\n      jumpi\n        /* \"#utility.yul\":15359:15397   */\n      tag_340\n        /* \"#utility.yul\":15391:15396   */\n      dup2\n        /* \"#utility.yul\":15359:15397   */\n      tag_158\n      jump\t// in\n    tag_340:\n        /* \"#utility.yul\":15443:15472   */\n      tag_341\n        /* \"#utility.yul\":15461:15471   */\n      dup5\n        /* \"#utility.yul\":15443:15472   */\n      tag_159\n      jump\t// in\n    tag_341:\n        /* \"#utility.yul\":15433:15441   */\n      dup2\n        /* \"#utility.yul\":15429:15473   */\n      add\n        /* \"#utility.yul\":15626:15628   */\n      0x20\n        /* \"#utility.yul\":15614:15624   */\n      dup6\n        /* \"#utility.yul\":15611:15629   */\n      lt\n        /* \"#utility.yul\":15608:15657   */\n      iszero\n      tag_342\n      jumpi\n        /* \"#utility.yul\":15647:15655   */\n      dup2\n        /* \"#utility.yul\":15632:15655   */\n      swap1\n      pop\n        /* \"#utility.yul\":15608:15657   */\n    tag_342:\n        /* \"#utility.yul\":15670:15750   */\n      tag_343\n        /* \"#utility.yul\":15726:15748   */\n      tag_344\n        /* \"#utility.yul\":15744:15747   */\n      dup6\n        /* \"#utility.yul\":15726:15748   */\n      tag_159\n      jump\t// in\n    tag_344:\n        /* \"#utility.yul\":15716:15724   */\n      dup4\n        /* \"#utility.yul\":15712:15749   */\n      add\n        /* \"#utility.yul\":15699:15710   */\n      dup3\n        /* \"#utility.yul\":15670:15750   */\n      tag_168\n      jump\t// in\n    tag_343:\n        /* \"#utility.yul\":15329:15760   */\n      pop\n      pop\n        /* \"#utility.yul\":15314:15760   */\n    tag_339:\n        /* \"#utility.yul\":15224:15767   */\n      pop\n      pop\n      pop\n      jump\t// out\n        /* \"#utility.yul\":15773:15890   */\n    tag_170:\n        /* \"#utility.yul\":15827:15835   */\n      0x00\n        /* \"#utility.yul\":15877:15882   */\n      dup3\n        /* \"#utility.yul\":15871:15875   */\n      dup3\n        /* \"#utility.yul\":15867:15883   */\n      shr\n        /* \"#utility.yul\":15846:15883   */\n      swap1\n      pop\n        /* \"#utility.yul\":15773:15890   */\n      swap3\n      swap2\n      pop\n      pop\n      jump\t// out\n        /* \"#utility.yul\":15896:16065   */\n    tag_171:\n        /* \"#utility.yul\":15940:15946   */\n      0x00\n        /* \"#utility.yul\":15973:16024   */\n      tag_347\n        /* \"#utility.yul\":16021:16022   */\n      0x00\n        /* \"#utility.yul\":16017:16023   */\n      not\n        /* \"#utility.yul\":16009:16014   */\n      dup5\n        /* \"#utility.yul\":16006:16007   */\n      0x08\n        /* \"#utility.yul\":16002:16015   */\n      mul\n        /* \"#utility.yul\":15973:16024   */\n      tag_170\n      jump\t// in\n    tag_347:\n        /* \"#utility.yul\":15969:16025   */\n      not\n        /* \"#utility.yul\":16054:16058   */\n      dup1\n        /* \"#utility.yul\":16048:16052   */\n      dup4\n        /* \"#utility.yul\":16044:16059   */\n      and\n        /* \"#utility.yul\":16034:16059   */\n      swap2\n      pop\n        /* \"#utility.yul\":15947:16065   */\n      pop\n        /* \"#utility.yul\":15896:16065   */\n      swap3\n      swap2\n      pop\n      pop\n      jump\t// out\n        /* \"#utility.yul\":16070:16365   */\n    tag_172:\n        /* \"#utility.yul\":16146:16150   */\n      0x00\n        /* \"#utility.yul\":16292:16321   */\n      tag_349\n        /* \"#utility.yul\":16317:16320   */\n      dup4\n        /* \"#utility.yul\":16311:16315   */\n      dup4\n        /* \"#utility.yul\":16292:16321   */\n      tag_171\n      jump\t// in\n    tag_349:\n        /* \"#utility.yul\":16284:16321   */\n      swap2\n      pop\n        /* \"#utility.yul\":16354:16357   */\n      dup3\n        /* \"#utility.yul\":16351:16352   */\n      0x02\n        /* \"#utility.yul\":16347:16358   */\n      mul\n        /* \"#utility.yul\":16341:16345   */\n      dup3\n        /* \"#utility.yul\":16338:16359   */\n      or\n        /* \"#utility.yul\":16330:16359   */\n      swap1\n      pop\n        /* \"#utility.yul\":16070:16365   */\n      swap3\n      swap2\n      pop\n      pop\n      jump\t// out\n        /* \"#utility.yul\":16370:17765   */\n    tag_65:\n        /* \"#utility.yul\":16487:16524   */\n      tag_351\n        /* \"#utility.yul\":16520:16523   */\n      dup3\n        /* \"#utility.yul\":16487:16524   */\n      tag_125\n      jump\t// in\n    tag_351:\n        /* \"#utility.yul\":16589:16607   */\n      0xffffffffffffffff\n        /* \"#utility.yul\":16581:16587   */\n      dup2\n        /* \"#utility.yul\":16578:16608   */\n      gt\n        /* \"#utility.yul\":16575:16631   */\n      iszero\n      tag_352\n      jumpi\n        /* \"#utility.yul\":16611:16629   */\n      tag_353\n      tag_61\n      jump\t// in\n    tag_353:\n        /* \"#utility.yul\":16575:16631   */\n    tag_352:\n        /* \"#utility.yul\":16655:16693   */\n      tag_354\n        /* \"#utility.yul\":16687:16691   */\n      dup3\n        /* \"#utility.yul\":16681:16692   */\n      sload\n        /* \"#utility.yul\":16655:16693   */\n      tag_43\n      jump\t// in\n    tag_354:\n        /* \"#utility.yul\":16740:16807   */\n      tag_355\n        /* \"#utility.yul\":16800:16806   */\n      dup3\n        /* \"#utility.yul\":16792:16798   */\n      dup3\n        /* \"#utility.yul\":16786:16790   */\n      dup6\n        /* \"#utility.yul\":16740:16807   */\n      tag_169\n      jump\t// in\n    tag_355:\n        /* \"#utility.yul\":16834:16835   */\n      0x00\n        /* \"#utility.yul\":16858:16862   */\n      0x20\n        /* \"#utility.yul\":16845:16862   */\n      swap1\n      pop\n        /* \"#utility.yul\":16890:16892   */\n      0x1f\n        /* \"#utility.yul\":16882:16888   */\n      dup4\n        /* \"#utility.yul\":16879:16893   */\n      gt\n        /* \"#utility.yul\":16907:16908   */\n      0x01\n        /* \"#utility.yul\":16902:17520   */\n      dup2\n      eq\n      tag_357\n      jumpi\n        /* \"#utility.yul\":17564:17565   */\n      0x00\n        /* \"#utility.yul\":17581:17587   */\n      dup5\n        /* \"#utility.yul\":17578:17655   */\n      iszero\n      tag_358\n      jumpi\n        /* \"#utility.yul\":17630:17639   */\n      dup3\n        /* \"#utility.yul\":17625:17628   */\n      dup8\n        /* \"#utility.yul\":17621:17640   */\n      add\n        /* \"#utility.yul\":17615:17641   */\n      mload\n        /* \"#utility.yul\":17606:17641   */\n      swap1\n      pop\n        /* \"#utility.yul\":17578:17655   */\n    tag_358:\n        /* \"#utility.yul\":17681:17748   */\n      tag_359\n        /* \"#utility.yul\":17741:17747   */\n      dup6\n        /* \"#utility.yul\":17734:17739   */\n      dup3\n        /* \"#utility.yul\":17681:17748   */\n      tag_172\n      jump\t// in\n    tag_359:\n        /* \"#utility.yul\":17675:17679   */\n      dup7\n        /* \"#utility.yul\":17668:17749   */\n      sstore\n        /* \"#utility.yul\":17537:17759   */\n      pop\n        /* \"#utility.yul\":16872:17759   */\n      jump(tag_356)\n        /* \"#utility.yul\":16902:17520   */\n    tag_357:\n        /* \"#utility.yul\":16954:16958   */\n      0x1f\n        /* \"#utility.yul\":16950:16959   */\n      not\n        /* \"#utility.yul\":16942:16948   */\n      dup5\n        /* \"#utility.yul\":16938:16960   */\n      and\n        /* \"#utility.yul\":16988:17025   */\n      tag_360\n        /* \"#utility.yul\":17020:17024   */\n      dup7\n        /* \"#utility.yul\":16988:17025   */\n      tag_158\n      jump\t// in\n    tag_360:\n        /* \"#utility.yul\":17047:17048   */\n      0x00\n        /* \"#utility.yul\":17061:17269   */\n    tag_361:\n        /* \"#utility.yul\":17075:17082   */\n      dup3\n        /* \"#utility.yul\":17072:17073   */\n      dup2\n        /* \"#utility.yul\":17069:17083   */\n      lt\n        /* \"#utility.yul\":17061:17269   */\n      iszero\n      tag_363\n      jumpi\n        /* \"#utility.yul\":17154:17163   */\n      dup5\n        /* \"#utility.yul\":17149:17152   */\n      dup10\n        /* \"#utility.yul\":17145:17164   */\n      add\n        /* \"#utility.yul\":17139:17165   */\n      mload\n        /* \"#utility.yul\":17131:17137   */\n      dup3\n        /* \"#utility.yul\":17124:17166   */\n      sstore\n        /* \"#utility.yul\":17205:17206   */\n      0x01\n        /* \"#utility.yul\":17197:17203   */\n      dup3\n        /* \"#utility.yul\":17193:17207   */\n      add\n        /* \"#utility.yul\":17183:17207   */\n      swap2\n      pop\n        /* \"#utility.yul\":17252:17254   */\n      0x20\n        /* \"#utility.yul\":17241:17250   */\n      dup6\n        /* \"#utility.yul\":17237:17255   */\n      add\n        /* \"#utility.yul\":17224:17255   */\n      swap5\n      pop\n        /* \"#utility.yul\":17098:17102   */\n      0x20\n        /* \"#utility.yul\":17095:17096   */\n      dup2\n        /* \"#utility.yul\":17091:17103   */\n      add\n        /* \"#utility.yul\":17086:17103   */\n      swap1\n      pop\n        /* \"#utility.yul\":17061:17269   */\n      jump(tag_361)\n    tag_363:\n        /* \"#utility.yul\":17297:17303   */\n      dup7\n        /* \"#utility.yul\":17288:17295   */\n      dup4\n        /* \"#utility.yul\":17285:17304   */\n      lt\n        /* \"#utility.yul\":17282:17461   */\n      iszero\n      tag_364\n      jumpi\n        /* \"#utility.yul\":17355:17364   */\n      dup5\n        /* \"#utility.yul\":17350:17353   */\n      dup10\n        /* \"#utility.yul\":17346:17365   */\n      add\n        /* \"#utility.yul\":17340:17366   */\n      mload\n        /* \"#utility.yul\":17398:17446   */\n      tag_365\n        /* \"#utility.yul\":17440:17444   */\n      0x1f\n        /* \"#utility.yul\":17432:17438   */\n      dup10\n        /* \"#utility.yul\":17428:17445   */\n      and\n        /* \"#utility.yul\":17417:17426   */\n      dup3\n        /* \"#utility.yul\":17398:17446   */\n      tag_171\n      jump\t// in\n    tag_365:\n        /* \"#utility.yul\":17390:17396   */\n      dup4\n        /* \"#utility.yul\":17383:17447   */\n      sstore\n        /* \"#utility.yul\":17305:17461   */\n      pop\n        /* \"#utility.yul\":17282:17461   */\n    tag_364:\n        /* \"#utility.yul\":17507:17508   */\n      0x01\n        /* \"#utility.yul\":17503:17504   */\n      0x02\n        /* \"#utility.yul\":17495:17501   */\n      dup9\n        /* \"#utility.yul\":17491:17505   */\n      mul\n        /* \"#utility.yul\":17487:17509   */\n      add\n        /* \"#utility.yul\":17481:17485   */\n      dup9\n        /* \"#utility.yul\":17474:17510   */\n      sstore\n        /* \"#utility.yul\":16909:17520   */\n      pop\n      pop\n      pop\n        /* \"#utility.yul\":16872:17759   */\n    tag_356:\n      pop\n        /* \"#utility.yul\":16462:17765   */\n      pop\n      pop\n      pop\n        /* \"#utility.yul\":16370:17765   */\n      pop\n      pop\n      jump\t// out\n        /* \"#utility.yul\":17771:17951   */\n    tag_173:\n        /* \"#utility.yul\":17819:17896   */\n      0x4e487b7100000000000000000000000000000000000000000000000000000000\n        /* \"#utility.yul\":17816:17817   */\n      0x00\n        /* \"#utility.yul\":17809:17897   */\n      mstore\n        /* \"#utility.yul\":17916:17920   */\n      0x11\n        /* \"#utility.yul\":17913:17914   */\n      0x04\n        /* \"#utility.yul\":17906:17921   */\n      mstore\n        /* \"#utility.yul\":17940:17944   */\n      0x24\n        /* \"#utility.yul\":17937:17938   */\n      0x00\n        /* \"#utility.yul\":17930:17945   */\n      revert\n        /* \"#utility.yul\":17957:18148   */\n    tag_78:\n        /* \"#utility.yul\":17997:18000   */\n      0x00\n        /* \"#utility.yul\":18016:18036   */\n      tag_368\n        /* \"#utility.yul\":18034:18035   */\n      dup3\n        /* \"#utility.yul\":18016:18036   */\n      tag_118\n      jump\t// in\n    tag_368:\n        /* \"#utility.yul\":18011:18036   */\n      swap2\n      pop\n        /* \"#utility.yul\":18050:18070   */\n      tag_369\n        /* \"#utility.yul\":18068:18069   */\n      dup4\n        /* \"#utility.yul\":18050:18070   */\n      tag_118\n      jump\t// in\n    tag_369:\n        /* \"#utility.yul\":18045:18070   */\n      swap3\n      pop\n        /* \"#utility.yul\":18093:18094   */\n      dup3\n        /* \"#utility.yul\":18090:18091   */\n      dup3\n        /* \"#utility.yul\":18086:18095   */\n      add\n        /* \"#utility.yul\":18079:18095   */\n      swap1\n      pop\n        /* \"#utility.yul\":18114:18117   */\n      dup1\n        /* \"#utility.yul\":18111:18112   */\n      dup3\n        /* \"#utility.yul\":18108:18118   */\n      gt\n        /* \"#utility.yul\":18105:18141   */\n      iszero\n      tag_370\n      jumpi\n        /* \"#utility.yul\":18121:18139   */\n      tag_371\n      tag_173\n      jump\t// in\n    tag_371:\n        /* \"#utility.yul\":18105:18141   */\n    tag_370:\n        /* \"#utility.yul\":17957:18148   */\n      swap3\n      swap2\n      pop\n      pop\n      jump\t// out\n        /* \"#utility.yul\":18154:18330   */\n    tag_174:\n        /* \"#utility.yul\":18294:18322   */\n      0x6e6f742061626c6520746f20616e73207468697320706f6c6c2e000000000000\n        /* \"#utility.yul\":18290:18291   */\n      0x00\n        /* \"#utility.yul\":18282:18288   */\n      dup3\n        /* \"#utility.yul\":18278:18292   */\n      add\n        /* \"#utility.yul\":18271:18323   */\n      mstore\n        /* \"#utility.yul\":18154:18330   */\n      pop\n      jump\t// out\n        /* \"#utility.yul\":18336:18702   */\n    tag_175:\n        /* \"#utility.yul\":18478:18481   */\n      0x00\n        /* \"#utility.yul\":18499:18566   */\n      tag_374\n        /* \"#utility.yul\":18563:18565   */\n      0x1a\n        /* \"#utility.yul\":18558:18561   */\n      dup4\n        /* \"#utility.yul\":18499:18566   */\n      tag_126\n      jump\t// in\n    tag_374:\n        /* \"#utility.yul\":18492:18566   */\n      swap2\n      pop\n        /* \"#utility.yul\":18575:18668   */\n      tag_375\n        /* \"#utility.yul\":18664:18667   */\n      dup3\n        /* \"#utility.yul\":18575:18668   */\n      tag_174\n      jump\t// in\n    tag_375:\n        /* \"#utility.yul\":18693:18695   */\n      0x20\n        /* \"#utility.yul\":18688:18691   */\n      dup3\n        /* \"#utility.yul\":18684:18696   */\n      add\n        /* \"#utility.yul\":18677:18696   */\n      swap1\n      pop\n        /* \"#utility.yul\":18336:18702   */\n      swap2\n      swap1\n      pop\n      jump\t// out\n        /* \"#utility.yul\":18708:19127   */\n    tag_88:\n        /* \"#utility.yul\":18874:18878   */\n      0x00\n        /* \"#utility.yul\":18912:18914   */\n      0x20\n        /* \"#utility.yul\":18901:18910   */\n      dup3\n        /* \"#utility.yul\":18897:18915   */\n      add\n        /* \"#utility.yul\":18889:18915   */\n      swap1\n      pop\n        /* \"#utility.yul\":18961:18970   */\n      dup2\n        /* \"#utility.yul\":18955:18959   */\n      dup2\n        /* \"#utility.yul\":18951:18971   */\n      sub\n        /* \"#utility.yul\":18947:18948   */\n      0x00\n        /* \"#utility.yul\":18936:18945   */\n      dup4\n        /* \"#utility.yul\":18932:18949   */\n      add\n        /* \"#utility.yul\":18925:18972   */\n      mstore\n        /* \"#utility.yul\":18989:19120   */\n      tag_377\n        /* \"#utility.yul\":19115:19119   */\n      dup2\n        /* \"#utility.yul\":18989:19120   */\n      tag_175\n      jump\t// in\n    tag_377:\n        /* \"#utility.yul\":18981:19120   */\n      swap1\n      pop\n        /* \"#utility.yul\":18708:19127   */\n      swap2\n      swap1\n      pop\n      jump\t// out\n\n    auxdata: 0xa2646970667358221220bffa204730d16486c6e8ebc145e4a268287e5b4731b56d5ac41110e5d94cd31964736f6c63430008120033\n}\n",
				"bytecode": {
					"linkReferences": {},
					"object": "608060405234801561001057600080fd5b50611231806100206000396000f3fe608060405234801561001057600080fd5b50600436106100575760003560e01c806308d9350a1461005c57806309bc43f51461007a578063cce042bb146100ac578063e4219322146100c8578063e8389a33146100f8575b600080fd5b610064610114565b604051610071919061080b565b60405180910390f35b610094600480360381019061008f9190610866565b610120565b6040516100a393929190610aed565b60405180910390f35b6100c660048036038101906100c19190610d54565b610352565b005b6100e260048036038101906100dd9190610ddf565b61044e565b6040516100ef919061080b565b60405180910390f35b610112600480360381019061010d9190610ddf565b6104f3565b005b60008080549050905090565b60608060606000848154811061013957610138610e1f565b5b90600052602060002090600402016001016000858154811061015e5761015d610e1f565b5b90600052602060002090600402016002016000868154811061018357610182610e1f565b5b90600052602060002090600402016003018280546101a090610e7d565b80601f01602080910402602001604051908101604052809291908181526020018280546101cc90610e7d565b80156102195780601f106101ee57610100808354040283529160200191610219565b820191906000526020600020905b8154815290600101906020018083116101fc57829003601f168201915b505050505092508180548060200260200160405190810160405280929190818152602001828054801561026b57602002820191906000526020600020905b815481526020019060010190808311610257575b5050505050915080805480602002602001604051908101604052809291908181526020016000905b8282101561033f5783829060005260206000200180546102b290610e7d565b80601f01602080910402602001604051908101604052809291908181526020018280546102de90610e7d565b801561032b5780601f106103005761010080835404028352916020019161032b565b820191906000526020600020905b81548152906001019060200180831161030e57829003601f168201915b505050505081526020019060010190610293565b5050505090509250925092509193909250565b60006040518060800160405280858152602001848152602001835167ffffffffffffffff81111561038657610385610b43565b5b6040519080825280602002602001820160405280156103b45781602001602082028036833780820191505090505b508152602001838152509050600081908060018154018082558091505060019003906000526020600020906004020160009091909190915060008201518160000155602082015181600101908161040b919061105a565b5060408201518160020190805190602001906104289291906106cb565b506060820151816003019080519060200190610445929190610718565b50505050505050565b600060016000848154811061046657610465610e1f565b5b9060005260206000209060040201600201838154811061048957610488610e1f565b5b9060005260206000200160008282546104a2919061115b565b92505081905550600083815481106104bd576104bc610e1f565b5b906000526020600020906004020160020182815481106104e0576104df610e1f565b5b9060005260206000200154905092915050565b60001515600160003373ffffffffffffffffffffffffffffffffffffffff1673ffffffffffffffffffffffffffffffffffffffff168152602001908152602001600020600101600084815260200190815260200160002060009054906101000a900460ff1615151461059a576040517f08c379a0000000000000000000000000000000000000000000000000000000008152600401610591906111db565b60405180910390fd5b6001600083815481106105b0576105af610e1f565b5b906000526020600020906004020160020182815481106105d3576105d2610e1f565b5b9060005260206000200160008282546105ec919061115b565b92505081905550600160003373ffffffffffffffffffffffffffffffffffffffff1673ffffffffffffffffffffffffffffffffffffffff16815260200190815260200160002060000182908060018154018082558091505060019003906000526020600020016000909190919091505560018060003373ffffffffffffffffffffffffffffffffffffffff1673ffffffffffffffffffffffffffffffffffffffff168152602001908152602001600020600101600084815260200190815260200160002060006101000a81548160ff0219169083151502179055505050565b828054828255906000526020600020908101928215610707579160200282015b828111156107065782518255916020019190600101906106eb565b5b5090506107149190610771565b5090565b828054828255906000526020600020908101928215610760579160200282015b8281111561075f57825182908161074f919061105a565b5091602001919060010190610738565b5b50905061076d919061078e565b5090565b5b8082111561078a576000816000905550600101610772565b5090565b5b808211156107ae57600081816107a591906107b2565b5060010161078f565b5090565b5080546107be90610e7d565b6000825580601f106107d057506107ef565b601f0160209004906000526020600020908101906107ee9190610771565b5b50565b6000819050919050565b610805816107f2565b82525050565b600060208201905061082060008301846107fc565b92915050565b6000604051905090565b600080fd5b600080fd5b610843816107f2565b811461084e57600080fd5b50565b6000813590506108608161083a565b92915050565b60006020828403121561087c5761087b610830565b5b600061088a84828501610851565b91505092915050565b600081519050919050565b600082825260208201905092915050565b60005b838110156108cd5780820151818401526020810190506108b2565b60008484015250505050565b6000601f19601f8301169050919050565b60006108f582610893565b6108ff818561089e565b935061090f8185602086016108af565b610918816108d9565b840191505092915050565b600081519050919050565b600082825260208201905092915050565b6000819050602082019050919050565b610958816107f2565b82525050565b600061096a838361094f565b60208301905092915050565b6000602082019050919050565b600061098e82610923565b610998818561092e565b93506109a38361093f565b8060005b838110156109d45781516109bb888261095e565b97506109c683610976565b9250506001810190506109a7565b5085935050505092915050565b600081519050919050565b600082825260208201905092915050565b6000819050602082019050919050565b600082825260208201905092915050565b6000610a2982610893565b610a338185610a0d565b9350610a438185602086016108af565b610a4c816108d9565b840191505092915050565b6000610a638383610a1e565b905092915050565b6000602082019050919050565b6000610a83826109e1565b610a8d81856109ec565b935083602082028501610a9f856109fd565b8060005b85811015610adb5784840389528151610abc8582610a57565b9450610ac783610a6b565b925060208a01995050600181019050610aa3565b50829750879550505050505092915050565b60006060820190508181036000830152610b0781866108ea565b90508181036020830152610b1b8185610983565b90508181036040830152610b2f8184610a78565b9050949350505050565b600080fd5b600080fd5b7f4e487b7100000000000000000000000000000000000000000000000000000000600052604160045260246000fd5b610b7b826108d9565b810181811067ffffffffffffffff82111715610b9a57610b99610b43565b5b80604052505050565b6000610bad610826565b9050610bb98282610b72565b919050565b600067ffffffffffffffff821115610bd957610bd8610b43565b5b610be2826108d9565b9050602081019050919050565b82818337600083830152505050565b6000610c11610c0c84610bbe565b610ba3565b905082815260208101848484011115610c2d57610c2c610b3e565b5b610c38848285610bef565b509392505050565b600082601f830112610c5557610c54610b39565b5b8135610c65848260208601610bfe565b91505092915050565b600067ffffffffffffffff821115610c8957610c88610b43565b5b602082029050602081019050919050565b600080fd5b6000610cb2610cad84610c6e565b610ba3565b90508083825260208201905060208402830185811115610cd557610cd4610c9a565b5b835b81811015610d1c57803567ffffffffffffffff811115610cfa57610cf9610b39565b5b808601610d078982610c40565b85526020850194505050602081019050610cd7565b5050509392505050565b600082601f830112610d3b57610d3a610b39565b5b8135610d4b848260208601610c9f565b91505092915050565b600080600060608486031215610d6d57610d6c610830565b5b6000610d7b86828701610851565b935050602084013567ffffffffffffffff811115610d9c57610d9b610835565b5b610da886828701610c40565b925050604084013567ffffffffffffffff811115610dc957610dc8610835565b5b610dd586828701610d26565b9150509250925092565b60008060408385031215610df657610df5610830565b5b6000610e0485828601610851565b9250506020610e1585828601610851565b9150509250929050565b7f4e487b7100000000000000000000000000000000000000000000000000000000600052603260045260246000fd5b7f4e487b7100000000000000000000000000000000000000000000000000000000600052602260045260246000fd5b60006002820490506001821680610e9557607f821691505b602082108103610ea857610ea7610e4e565b5b50919050565b60008190508160005260206000209050919050565b60006020601f8301049050919050565b600082821b905092915050565b600060088302610f107fffffffffffffffffffffffffffffffffffffffffffffffffffffffffffffffff82610ed3565b610f1a8683610ed3565b95508019841693508086168417925050509392505050565b6000819050919050565b6000610f57610f52610f4d846107f2565b610f32565b6107f2565b9050919050565b6000819050919050565b610f7183610f3c565b610f85610f7d82610f5e565b848454610ee0565b825550505050565b600090565b610f9a610f8d565b610fa5818484610f68565b505050565b5b81811015610fc957610fbe600082610f92565b600181019050610fab565b5050565b601f82111561100e57610fdf81610eae565b610fe884610ec3565b81016020851015610ff7578190505b61100b61100385610ec3565b830182610faa565b50505b505050565b600082821c905092915050565b600061103160001984600802611013565b1980831691505092915050565b600061104a8383611020565b9150826002028217905092915050565b61106382610893565b67ffffffffffffffff81111561107c5761107b610b43565b5b6110868254610e7d565b611091828285610fcd565b600060209050601f8311600181146110c457600084156110b2578287015190505b6110bc858261103e565b865550611124565b601f1984166110d286610eae565b60005b828110156110fa578489015182556001820191506020850194506020810190506110d5565b868310156111175784890151611113601f891682611020565b8355505b6001600288020188555050505b505050505050565b7f4e487b7100000000000000000000000000000000000000000000000000000000600052601160045260246000fd5b6000611166826107f2565b9150611171836107f2565b92508282019050808211156111895761118861112c565b5b92915050565b7f6e6f742061626c6520746f20616e73207468697320706f6c6c2e000000000000600082015250565b60006111c5601a8361089e565b91506111d08261118f565b602082019050919050565b600060208201905081810360008301526111f4816111b8565b905091905056fea2646970667358221220bffa204730d16486c6e8ebc145e4a268287e5b4731b56d5ac41110e5d94cd31964736f6c63430008120033",
					"opcodes": "PUSH1 0x80 PUSH1 0x40 MSTORE CALLVALUE DUP1 ISZERO PUSH2 0x10 JUMPI PUSH1 0x0 DUP1 REVERT JUMPDEST POP PUSH2 0x1231 DUP1 PUSH2 0x20 PUSH1 0x0 CODECOPY PUSH1 0x0 RETURN INVALID PUSH1 0x80 PUSH1 0x40 MSTORE CALLVALUE DUP1 ISZERO PUSH2 0x10 JUMPI PUSH1 0x0 DUP1 REVERT JUMPDEST POP PUSH1 0x4 CALLDATASIZE LT PUSH2 0x57 JUMPI PUSH1 0x0 CALLDATALOAD PUSH1 0xE0 SHR DUP1 PUSH4 0x8D9350A EQ PUSH2 0x5C JUMPI DUP1 PUSH4 0x9BC43F5 EQ PUSH2 0x7A JUMPI DUP1 PUSH4 0xCCE042BB EQ PUSH2 0xAC JUMPI DUP1 PUSH4 0xE4219322 EQ PUSH2 0xC8 JUMPI DUP1 PUSH4 0xE8389A33 EQ PUSH2 0xF8 JUMPI JUMPDEST PUSH1 0x0 DUP1 REVERT JUMPDEST PUSH2 0x64 PUSH2 0x114 JUMP JUMPDEST PUSH1 0x40 MLOAD PUSH2 0x71 SWAP2 SWAP1 PUSH2 0x80B JUMP JUMPDEST PUSH1 0x40 MLOAD DUP1 SWAP2 SUB SWAP1 RETURN JUMPDEST PUSH2 0x94 PUSH1 0x4 DUP1 CALLDATASIZE SUB DUP2 ADD SWAP1 PUSH2 0x8F SWAP2 SWAP1 PUSH2 0x866 JUMP JUMPDEST PUSH2 0x120 JUMP JUMPDEST PUSH1 0x40 MLOAD PUSH2 0xA3 SWAP4 SWAP3 SWAP2 SWAP1 PUSH2 0xAED JUMP JUMPDEST PUSH1 0x40 MLOAD DUP1 SWAP2 SUB SWAP1 RETURN JUMPDEST PUSH2 0xC6 PUSH1 0x4 DUP1 CALLDATASIZE SUB DUP2 ADD SWAP1 PUSH2 0xC1 SWAP2 SWAP1 PUSH2 0xD54 JUMP JUMPDEST PUSH2 0x352 JUMP JUMPDEST STOP JUMPDEST PUSH2 0xE2 PUSH1 0x4 DUP1 CALLDATASIZE SUB DUP2 ADD SWAP1 PUSH2 0xDD SWAP2 SWAP1 PUSH2 0xDDF JUMP JUMPDEST PUSH2 0x44E JUMP JUMPDEST PUSH1 0x40 MLOAD PUSH2 0xEF SWAP2 SWAP1 PUSH2 0x80B JUMP JUMPDEST PUSH1 0x40 MLOAD DUP1 SWAP2 SUB SWAP1 RETURN JUMPDEST PUSH2 0x112 PUSH1 0x4 DUP1 CALLDATASIZE SUB DUP2 ADD SWAP1 PUSH2 0x10D SWAP2 SWAP1 PUSH2 0xDDF JUMP JUMPDEST PUSH2 0x4F3 JUMP JUMPDEST STOP JUMPDEST PUSH1 0x0 DUP1 DUP1 SLOAD SWAP1 POP SWAP1 POP SWAP1 JUMP JUMPDEST PUSH1 0x60 DUP1 PUSH1 0x60 PUSH1 0x0 DUP5 DUP2 SLOAD DUP2 LT PUSH2 0x139 JUMPI PUSH2 0x138 PUSH2 0xE1F JUMP JUMPDEST JUMPDEST SWAP1 PUSH1 0x0 MSTORE PUSH1 0x20 PUSH1 0x0 KECCAK256 SWAP1 PUSH1 0x4 MUL ADD PUSH1 0x1 ADD PUSH1 0x0 DUP6 DUP2 SLOAD DUP2 LT PUSH2 0x15E JUMPI PUSH2 0x15D PUSH2 0xE1F JUMP JUMPDEST JUMPDEST SWAP1 PUSH1 0x0 MSTORE PUSH1 0x20 PUSH1 0x0 KECCAK256 SWAP1 PUSH1 0x4 MUL ADD PUSH1 0x2 ADD PUSH1 0x0 DUP7 DUP2 SLOAD DUP2 LT PUSH2 0x183 JUMPI PUSH2 0x182 PUSH2 0xE1F JUMP JUMPDEST JUMPDEST SWAP1 PUSH1 0x0 MSTORE PUSH1 0x20 PUSH1 0x0 KECCAK256 SWAP1 PUSH1 0x4 MUL ADD PUSH1 0x3 ADD DUP3 DUP1 SLOAD PUSH2 0x1A0 SWAP1 PUSH2 0xE7D JUMP JUMPDEST DUP1 PUSH1 0x1F ADD PUSH1 0x20 DUP1 SWAP2 DIV MUL PUSH1 0x20 ADD PUSH1 0x40 MLOAD SWAP1 DUP2 ADD PUSH1 0x40 MSTORE DUP1 SWAP3 SWAP2 SWAP1 DUP2 DUP2 MSTORE PUSH1 0x20 ADD DUP3 DUP1 SLOAD PUSH2 0x1CC SWAP1 PUSH2 0xE7D JUMP JUMPDEST DUP1 ISZERO PUSH2 0x219 JUMPI DUP1 PUSH1 0x1F LT PUSH2 0x1EE JUMPI PUSH2 0x100 DUP1 DUP4 SLOAD DIV MUL DUP4 MSTORE SWAP2 PUSH1 0x20 ADD SWAP2 PUSH2 0x219 JUMP JUMPDEST DUP3 ADD SWAP2 SWAP1 PUSH1 0x0 MSTORE PUSH1 0x20 PUSH1 0x0 KECCAK256 SWAP1 JUMPDEST DUP2 SLOAD DUP2 MSTORE SWAP1 PUSH1 0x1 ADD SWAP1 PUSH1 0x20 ADD DUP1 DUP4 GT PUSH2 0x1FC JUMPI DUP3 SWAP1 SUB PUSH1 0x1F AND DUP3 ADD SWAP2 JUMPDEST POP POP POP POP POP SWAP3 POP DUP2 DUP1 SLOAD DUP1 PUSH1 0x20 MUL PUSH1 0x20 ADD PUSH1 0x40 MLOAD SWAP1 DUP2 ADD PUSH1 0x40 MSTORE DUP1 SWAP3 SWAP2 SWAP1 DUP2 DUP2 MSTORE PUSH1 0x20 ADD DUP3 DUP1 SLOAD DUP1 ISZERO PUSH2 0x26B JUMPI PUSH1 0x20 MUL DUP3 ADD SWAP2 SWAP1 PUSH1 0x0 MSTORE PUSH1 0x20 PUSH1 0x0 KECCAK256 SWAP1 JUMPDEST DUP2 SLOAD DUP2 MSTORE PUSH1 0x20 ADD SWAP1 PUSH1 0x1 ADD SWAP1 DUP1 DUP4 GT PUSH2 0x257 JUMPI JUMPDEST POP POP POP POP POP SWAP2 POP DUP1 DUP1 SLOAD DUP1 PUSH1 0x20 MUL PUSH1 0x20 ADD PUSH1 0x40 MLOAD SWAP1 DUP2 ADD PUSH1 0x40 MSTORE DUP1 SWAP3 SWAP2 SWAP1 DUP2 DUP2 MSTORE PUSH1 0x20 ADD PUSH1 0x0 SWAP1 JUMPDEST DUP3 DUP3 LT ISZERO PUSH2 0x33F JUMPI DUP4 DUP3 SWAP1 PUSH1 0x0 MSTORE PUSH1 0x20 PUSH1 0x0 KECCAK256 ADD DUP1 SLOAD PUSH2 0x2B2 SWAP1 PUSH2 0xE7D JUMP JUMPDEST DUP1 PUSH1 0x1F ADD PUSH1 0x20 DUP1 SWAP2 DIV MUL PUSH1 0x20 ADD PUSH1 0x40 MLOAD SWAP1 DUP2 ADD PUSH1 0x40 MSTORE DUP1 SWAP3 SWAP2 SWAP1 DUP2 DUP2 MSTORE PUSH1 0x20 ADD DUP3 DUP1 SLOAD PUSH2 0x2DE SWAP1 PUSH2 0xE7D JUMP JUMPDEST DUP1 ISZERO PUSH2 0x32B JUMPI DUP1 PUSH1 0x1F LT PUSH2 0x300 JUMPI PUSH2 0x100 DUP1 DUP4 SLOAD DIV MUL DUP4 MSTORE SWAP2 PUSH1 0x20 ADD SWAP2 PUSH2 0x32B JUMP JUMPDEST DUP3 ADD SWAP2 SWAP1 PUSH1 0x0 MSTORE PUSH1 0x20 PUSH1 0x0 KECCAK256 SWAP1 JUMPDEST DUP2 SLOAD DUP2 MSTORE SWAP1 PUSH1 0x1 ADD SWAP1 PUSH1 0x20 ADD DUP1 DUP4 GT PUSH2 0x30E JUMPI DUP3 SWAP1 SUB PUSH1 0x1F AND DUP3 ADD SWAP2 JUMPDEST POP POP POP POP POP DUP2 MSTORE PUSH1 0x20 ADD SWAP1 PUSH1 0x1 ADD SWAP1 PUSH2 0x293 JUMP JUMPDEST POP POP POP POP SWAP1 POP SWAP3 POP SWAP3 POP SWAP3 POP SWAP2 SWAP4 SWAP1 SWAP3 POP JUMP JUMPDEST PUSH1 0x0 PUSH1 0x40 MLOAD DUP1 PUSH1 0x80 ADD PUSH1 0x40 MSTORE DUP1 DUP6 DUP2 MSTORE PUSH1 0x20 ADD DUP5 DUP2 MSTORE PUSH1 0x20 ADD DUP4 MLOAD PUSH8 0xFFFFFFFFFFFFFFFF DUP2 GT ISZERO PUSH2 0x386 JUMPI PUSH2 0x385 PUSH2 0xB43 JUMP JUMPDEST JUMPDEST PUSH1 0x40 MLOAD SWAP1 DUP1 DUP3 MSTORE DUP1 PUSH1 0x20 MUL PUSH1 0x20 ADD DUP3 ADD PUSH1 0x40 MSTORE DUP1 ISZERO PUSH2 0x3B4 JUMPI DUP2 PUSH1 0x20 ADD PUSH1 0x20 DUP3 MUL DUP1 CALLDATASIZE DUP4 CALLDATACOPY DUP1 DUP3 ADD SWAP2 POP POP SWAP1 POP JUMPDEST POP DUP2 MSTORE PUSH1 0x20 ADD DUP4 DUP2 MSTORE POP SWAP1 POP PUSH1 0x0 DUP2 SWAP1 DUP1 PUSH1 0x1 DUP2 SLOAD ADD DUP1 DUP3 SSTORE DUP1 SWAP2 POP POP PUSH1 0x1 SWAP1 SUB SWAP1 PUSH1 0x0 MSTORE PUSH1 0x20 PUSH1 0x0 KECCAK256 SWAP1 PUSH1 0x4 MUL ADD PUSH1 0x0 SWAP1 SWAP2 SWAP1 SWAP2 SWAP1 SWAP2 POP PUSH1 0x0 DUP3 ADD MLOAD DUP2 PUSH1 0x0 ADD SSTORE PUSH1 0x20 DUP3 ADD MLOAD DUP2 PUSH1 0x1 ADD SWAP1 DUP2 PUSH2 0x40B SWAP2 SWAP1 PUSH2 0x105A JUMP JUMPDEST POP PUSH1 0x40 DUP3 ADD MLOAD DUP2 PUSH1 0x2 ADD SWAP1 DUP1 MLOAD SWAP1 PUSH1 0x20 ADD SWAP1 PUSH2 0x428 SWAP3 SWAP2 SWAP1 PUSH2 0x6CB JUMP JUMPDEST POP PUSH1 0x60 DUP3 ADD MLOAD DUP2 PUSH1 0x3 ADD SWAP1 DUP1 MLOAD SWAP1 PUSH1 0x20 ADD SWAP1 PUSH2 0x445 SWAP3 SWAP2 SWAP1 PUSH2 0x718 JUMP JUMPDEST POP POP POP POP POP POP POP JUMP JUMPDEST PUSH1 0x0 PUSH1 0x1 PUSH1 0x0 DUP5 DUP2 SLOAD DUP2 LT PUSH2 0x466 JUMPI PUSH2 0x465 PUSH2 0xE1F JUMP JUMPDEST JUMPDEST SWAP1 PUSH1 0x0 MSTORE PUSH1 0x20 PUSH1 0x0 KECCAK256 SWAP1 PUSH1 0x4 MUL ADD PUSH1 0x2 ADD DUP4 DUP2 SLOAD DUP2 LT PUSH2 0x489 JUMPI PUSH2 0x488 PUSH2 0xE1F JUMP JUMPDEST JUMPDEST SWAP1 PUSH1 0x0 MSTORE PUSH1 0x20 PUSH1 0x0 KECCAK256 ADD PUSH1 0x0 DUP3 DUP3 SLOAD PUSH2 0x4A2 SWAP2 SWAP1 PUSH2 0x115B JUMP JUMPDEST SWAP3 POP POP DUP2 SWAP1 SSTORE POP PUSH1 0x0 DUP4 DUP2 SLOAD DUP2 LT PUSH2 0x4BD JUMPI PUSH2 0x4BC PUSH2 0xE1F JUMP JUMPDEST JUMPDEST SWAP1 PUSH1 0x0 MSTORE PUSH1 0x20 PUSH1 0x0 KECCAK256 SWAP1 PUSH1 0x4 MUL ADD PUSH1 0x2 ADD DUP3 DUP2 SLOAD DUP2 LT PUSH2 0x4E0 JUMPI PUSH2 0x4DF PUSH2 0xE1F JUMP JUMPDEST JUMPDEST SWAP1 PUSH1 0x0 MSTORE PUSH1 0x20 PUSH1 0x0 KECCAK256 ADD SLOAD SWAP1 POP SWAP3 SWAP2 POP POP JUMP JUMPDEST PUSH1 0x0 ISZERO ISZERO PUSH1 0x1 PUSH1 0x0 CALLER PUSH20 0xFFFFFFFFFFFFFFFFFFFFFFFFFFFFFFFFFFFFFFFF AND PUSH20 0xFFFFFFFFFFFFFFFFFFFFFFFFFFFFFFFFFFFFFFFF AND DUP2 MSTORE PUSH1 0x20 ADD SWAP1 DUP2 MSTORE PUSH1 0x20 ADD PUSH1 0x0 KECCAK256 PUSH1 0x1 ADD PUSH1 0x0 DUP5 DUP2 MSTORE PUSH1 0x20 ADD SWAP1 DUP2 MSTORE PUSH1 0x20 ADD PUSH1 0x0 KECCAK256 PUSH1 0x0 SWAP1 SLOAD SWAP1 PUSH2 0x100 EXP SWAP1 DIV PUSH1 0xFF AND ISZERO ISZERO EQ PUSH2 0x59A JUMPI PUSH1 0x40 MLOAD PUSH32 0x8C379A000000000000000000000000000000000000000000000000000000000 DUP2 MSTORE PUSH1 0x4 ADD PUSH2 0x591 SWAP1 PUSH2 0x11DB JUMP JUMPDEST PUSH1 0x40 MLOAD DUP1 SWAP2 SUB SWAP1 REVERT JUMPDEST PUSH1 0x1 PUSH1 0x0 DUP4 DUP2 SLOAD DUP2 LT PUSH2 0x5B0 JUMPI PUSH2 0x5AF PUSH2 0xE1F JUMP JUMPDEST JUMPDEST SWAP1 PUSH1 0x0 MSTORE PUSH1 0x20 PUSH1 0x0 KECCAK256 SWAP1 PUSH1 0x4 MUL ADD PUSH1 0x2 ADD DUP3 DUP2 SLOAD DUP2 LT PUSH2 0x5D3 JUMPI PUSH2 0x5D2 PUSH2 0xE1F JUMP JUMPDEST JUMPDEST SWAP1 PUSH1 0x0 MSTORE PUSH1 0x20 PUSH1 0x0 KECCAK256 ADD PUSH1 0x0 DUP3 DUP3 SLOAD PUSH2 0x5EC SWAP2 SWAP1 PUSH2 0x115B JUMP JUMPDEST SWAP3 POP POP DUP2 SWAP1 SSTORE POP PUSH1 0x1 PUSH1 0x0 CALLER PUSH20 0xFFFFFFFFFFFFFFFFFFFFFFFFFFFFFFFFFFFFFFFF AND PUSH20 0xFFFFFFFFFFFFFFFFFFFFFFFFFFFFFFFFFFFFFFFF AND DUP2 MSTORE PUSH1 0x20 ADD SWAP1 DUP2 MSTORE PUSH1 0x20 ADD PUSH1 0x0 KECCAK256 PUSH1 0x0 ADD DUP3 SWAP1 DUP1 PUSH1 0x1 DUP2 SLOAD ADD DUP1 DUP3 SSTORE DUP1 SWAP2 POP POP PUSH1 0x1 SWAP1 SUB SWAP1 PUSH1 0x0 MSTORE PUSH1 0x20 PUSH1 0x0 KECCAK256 ADD PUSH1 0x0 SWAP1 SWAP2 SWAP1 SWAP2 SWAP1 SWAP2 POP SSTORE PUSH1 0x1 DUP1 PUSH1 0x0 CALLER PUSH20 0xFFFFFFFFFFFFFFFFFFFFFFFFFFFFFFFFFFFFFFFF AND PUSH20 0xFFFFFFFFFFFFFFFFFFFFFFFFFFFFFFFFFFFFFFFF AND DUP2 MSTORE PUSH1 0x20 ADD SWAP1 DUP2 MSTORE PUSH1 0x20 ADD PUSH1 0x0 KECCAK256 PUSH1 0x1 ADD PUSH1 0x0 DUP5 DUP2 MSTORE PUSH1 0x20 ADD SWAP1 DUP2 MSTORE PUSH1 0x20 ADD PUSH1 0x0 KECCAK256 PUSH1 0x0 PUSH2 0x100 EXP DUP2 SLOAD DUP2 PUSH1 0xFF MUL NOT AND SWAP1 DUP4 ISZERO ISZERO MUL OR SWAP1 SSTORE POP POP POP JUMP JUMPDEST DUP3 DUP1 SLOAD DUP3 DUP3 SSTORE SWAP1 PUSH1 0x0 MSTORE PUSH1 0x20 PUSH1 0x0 KECCAK256 SWAP1 DUP2 ADD SWAP3 DUP3 ISZERO PUSH2 0x707 JUMPI SWAP2 PUSH1 0x20 MUL DUP3 ADD JUMPDEST DUP3 DUP2 GT ISZERO PUSH2 0x706 JUMPI DUP3 MLOAD DUP3 SSTORE SWAP2 PUSH1 0x20 ADD SWAP2 SWAP1 PUSH1 0x1 ADD SWAP1 PUSH2 0x6EB JUMP JUMPDEST JUMPDEST POP SWAP1 POP PUSH2 0x714 SWAP2 SWAP1 PUSH2 0x771 JUMP JUMPDEST POP SWAP1 JUMP JUMPDEST DUP3 DUP1 SLOAD DUP3 DUP3 SSTORE SWAP1 PUSH1 0x0 MSTORE PUSH1 0x20 PUSH1 0x0 KECCAK256 SWAP1 DUP2 ADD SWAP3 DUP3 ISZERO PUSH2 0x760 JUMPI SWAP2 PUSH1 0x20 MUL DUP3 ADD JUMPDEST DUP3 DUP2 GT ISZERO PUSH2 0x75F JUMPI DUP3 MLOAD DUP3 SWAP1 DUP2 PUSH2 0x74F SWAP2 SWAP1 PUSH2 0x105A JUMP JUMPDEST POP SWAP2 PUSH1 0x20 ADD SWAP2 SWAP1 PUSH1 0x1 ADD SWAP1 PUSH2 0x738 JUMP JUMPDEST JUMPDEST POP SWAP1 POP PUSH2 0x76D SWAP2 SWAP1 PUSH2 0x78E JUMP JUMPDEST POP SWAP1 JUMP JUMPDEST JUMPDEST DUP1 DUP3 GT ISZERO PUSH2 0x78A JUMPI PUSH1 0x0 DUP2 PUSH1 0x0 SWAP1 SSTORE POP PUSH1 0x1 ADD PUSH2 0x772 JUMP JUMPDEST POP SWAP1 JUMP JUMPDEST JUMPDEST DUP1 DUP3 GT ISZERO PUSH2 0x7AE JUMPI PUSH1 0x0 DUP2 DUP2 PUSH2 0x7A5 SWAP2 SWAP1 PUSH2 0x7B2 JUMP JUMPDEST POP PUSH1 0x1 ADD PUSH2 0x78F JUMP JUMPDEST POP SWAP1 JUMP JUMPDEST POP DUP1 SLOAD PUSH2 0x7BE SWAP1 PUSH2 0xE7D JUMP JUMPDEST PUSH1 0x0 DUP3 SSTORE DUP1 PUSH1 0x1F LT PUSH2 0x7D0 JUMPI POP PUSH2 0x7EF JUMP JUMPDEST PUSH1 0x1F ADD PUSH1 0x20 SWAP1 DIV SWAP1 PUSH1 0x0 MSTORE PUSH1 0x20 PUSH1 0x0 KECCAK256 SWAP1 DUP2 ADD SWAP1 PUSH2 0x7EE SWAP2 SWAP1 PUSH2 0x771 JUMP JUMPDEST JUMPDEST POP JUMP JUMPDEST PUSH1 0x0 DUP2 SWAP1 POP SWAP2 SWAP1 POP JUMP JUMPDEST PUSH2 0x805 DUP2 PUSH2 0x7F2 JUMP JUMPDEST DUP3 MSTORE POP POP JUMP JUMPDEST PUSH1 0x0 PUSH1 0x20 DUP3 ADD SWAP1 POP PUSH2 0x820 PUSH1 0x0 DUP4 ADD DUP5 PUSH2 0x7FC JUMP JUMPDEST SWAP3 SWAP2 POP POP JUMP JUMPDEST PUSH1 0x0 PUSH1 0x40 MLOAD SWAP1 POP SWAP1 JUMP JUMPDEST PUSH1 0x0 DUP1 REVERT JUMPDEST PUSH1 0x0 DUP1 REVERT JUMPDEST PUSH2 0x843 DUP2 PUSH2 0x7F2 JUMP JUMPDEST DUP2 EQ PUSH2 0x84E JUMPI PUSH1 0x0 DUP1 REVERT JUMPDEST POP JUMP JUMPDEST PUSH1 0x0 DUP2 CALLDATALOAD SWAP1 POP PUSH2 0x860 DUP2 PUSH2 0x83A JUMP JUMPDEST SWAP3 SWAP2 POP POP JUMP JUMPDEST PUSH1 0x0 PUSH1 0x20 DUP3 DUP5 SUB SLT ISZERO PUSH2 0x87C JUMPI PUSH2 0x87B PUSH2 0x830 JUMP JUMPDEST JUMPDEST PUSH1 0x0 PUSH2 0x88A DUP5 DUP3 DUP6 ADD PUSH2 0x851 JUMP JUMPDEST SWAP2 POP POP SWAP3 SWAP2 POP POP JUMP JUMPDEST PUSH1 0x0 DUP2 MLOAD SWAP1 POP SWAP2 SWAP1 POP JUMP JUMPDEST PUSH1 0x0 DUP3 DUP3 MSTORE PUSH1 0x20 DUP3 ADD SWAP1 POP SWAP3 SWAP2 POP POP JUMP JUMPDEST PUSH1 0x0 JUMPDEST DUP4 DUP2 LT ISZERO PUSH2 0x8CD JUMPI DUP1 DUP3 ADD MLOAD DUP2 DUP5 ADD MSTORE PUSH1 0x20 DUP2 ADD SWAP1 POP PUSH2 0x8B2 JUMP JUMPDEST PUSH1 0x0 DUP5 DUP5 ADD MSTORE POP POP POP POP JUMP JUMPDEST PUSH1 0x0 PUSH1 0x1F NOT PUSH1 0x1F DUP4 ADD AND SWAP1 POP SWAP2 SWAP1 POP JUMP JUMPDEST PUSH1 0x0 PUSH2 0x8F5 DUP3 PUSH2 0x893 JUMP JUMPDEST PUSH2 0x8FF DUP2 DUP6 PUSH2 0x89E JUMP JUMPDEST SWAP4 POP PUSH2 0x90F DUP2 DUP6 PUSH1 0x20 DUP7 ADD PUSH2 0x8AF JUMP JUMPDEST PUSH2 0x918 DUP2 PUSH2 0x8D9 JUMP JUMPDEST DUP5 ADD SWAP2 POP POP SWAP3 SWAP2 POP POP JUMP JUMPDEST PUSH1 0x0 DUP2 MLOAD SWAP1 POP SWAP2 SWAP1 POP JUMP JUMPDEST PUSH1 0x0 DUP3 DUP3 MSTORE PUSH1 0x20 DUP3 ADD SWAP1 POP SWAP3 SWAP2 POP POP JUMP JUMPDEST PUSH1 0x0 DUP2 SWAP1 POP PUSH1 0x20 DUP3 ADD SWAP1 POP SWAP2 SWAP1 POP JUMP JUMPDEST PUSH2 0x958 DUP2 PUSH2 0x7F2 JUMP JUMPDEST DUP3 MSTORE POP POP JUMP JUMPDEST PUSH1 0x0 PUSH2 0x96A DUP4 DUP4 PUSH2 0x94F JUMP JUMPDEST PUSH1 0x20 DUP4 ADD SWAP1 POP SWAP3 SWAP2 POP POP JUMP JUMPDEST PUSH1 0x0 PUSH1 0x20 DUP3 ADD SWAP1 POP SWAP2 SWAP1 POP JUMP JUMPDEST PUSH1 0x0 PUSH2 0x98E DUP3 PUSH2 0x923 JUMP JUMPDEST PUSH2 0x998 DUP2 DUP6 PUSH2 0x92E JUMP JUMPDEST SWAP4 POP PUSH2 0x9A3 DUP4 PUSH2 0x93F JUMP JUMPDEST DUP1 PUSH1 0x0 JUMPDEST DUP4 DUP2 LT ISZERO PUSH2 0x9D4 JUMPI DUP2 MLOAD PUSH2 0x9BB DUP9 DUP3 PUSH2 0x95E JUMP JUMPDEST SWAP8 POP PUSH2 0x9C6 DUP4 PUSH2 0x976 JUMP JUMPDEST SWAP3 POP POP PUSH1 0x1 DUP2 ADD SWAP1 POP PUSH2 0x9A7 JUMP JUMPDEST POP DUP6 SWAP4 POP POP POP POP SWAP3 SWAP2 POP POP JUMP JUMPDEST PUSH1 0x0 DUP2 MLOAD SWAP1 POP SWAP2 SWAP1 POP JUMP JUMPDEST PUSH1 0x0 DUP3 DUP3 MSTORE PUSH1 0x20 DUP3 ADD SWAP1 POP SWAP3 SWAP2 POP POP JUMP JUMPDEST PUSH1 0x0 DUP2 SWAP1 POP PUSH1 0x20 DUP3 ADD SWAP1 POP SWAP2 SWAP1 POP JUMP JUMPDEST PUSH1 0x0 DUP3 DUP3 MSTORE PUSH1 0x20 DUP3 ADD SWAP1 POP SWAP3 SWAP2 POP POP JUMP JUMPDEST PUSH1 0x0 PUSH2 0xA29 DUP3 PUSH2 0x893 JUMP JUMPDEST PUSH2 0xA33 DUP2 DUP6 PUSH2 0xA0D JUMP JUMPDEST SWAP4 POP PUSH2 0xA43 DUP2 DUP6 PUSH1 0x20 DUP7 ADD PUSH2 0x8AF JUMP JUMPDEST PUSH2 0xA4C DUP2 PUSH2 0x8D9 JUMP JUMPDEST DUP5 ADD SWAP2 POP POP SWAP3 SWAP2 POP POP JUMP JUMPDEST PUSH1 0x0 PUSH2 0xA63 DUP4 DUP4 PUSH2 0xA1E JUMP JUMPDEST SWAP1 POP SWAP3 SWAP2 POP POP JUMP JUMPDEST PUSH1 0x0 PUSH1 0x20 DUP3 ADD SWAP1 POP SWAP2 SWAP1 POP JUMP JUMPDEST PUSH1 0x0 PUSH2 0xA83 DUP3 PUSH2 0x9E1 JUMP JUMPDEST PUSH2 0xA8D DUP2 DUP6 PUSH2 0x9EC JUMP JUMPDEST SWAP4 POP DUP4 PUSH1 0x20 DUP3 MUL DUP6 ADD PUSH2 0xA9F DUP6 PUSH2 0x9FD JUMP JUMPDEST DUP1 PUSH1 0x0 JUMPDEST DUP6 DUP2 LT ISZERO PUSH2 0xADB JUMPI DUP5 DUP5 SUB DUP10 MSTORE DUP2 MLOAD PUSH2 0xABC DUP6 DUP3 PUSH2 0xA57 JUMP JUMPDEST SWAP5 POP PUSH2 0xAC7 DUP4 PUSH2 0xA6B JUMP JUMPDEST SWAP3 POP PUSH1 0x20 DUP11 ADD SWAP10 POP POP PUSH1 0x1 DUP2 ADD SWAP1 POP PUSH2 0xAA3 JUMP JUMPDEST POP DUP3 SWAP8 POP DUP8 SWAP6 POP POP POP POP POP POP SWAP3 SWAP2 POP POP JUMP JUMPDEST PUSH1 0x0 PUSH1 0x60 DUP3 ADD SWAP1 POP DUP2 DUP2 SUB PUSH1 0x0 DUP4 ADD MSTORE PUSH2 0xB07 DUP2 DUP7 PUSH2 0x8EA JUMP JUMPDEST SWAP1 POP DUP2 DUP2 SUB PUSH1 0x20 DUP4 ADD MSTORE PUSH2 0xB1B DUP2 DUP6 PUSH2 0x983 JUMP JUMPDEST SWAP1 POP DUP2 DUP2 SUB PUSH1 0x40 DUP4 ADD MSTORE PUSH2 0xB2F DUP2 DUP5 PUSH2 0xA78 JUMP JUMPDEST SWAP1 POP SWAP5 SWAP4 POP POP POP POP JUMP JUMPDEST PUSH1 0x0 DUP1 REVERT JUMPDEST PUSH1 0x0 DUP1 REVERT JUMPDEST PUSH32 0x4E487B7100000000000000000000000000000000000000000000000000000000 PUSH1 0x0 MSTORE PUSH1 0x41 PUSH1 0x4 MSTORE PUSH1 0x24 PUSH1 0x0 REVERT JUMPDEST PUSH2 0xB7B DUP3 PUSH2 0x8D9 JUMP JUMPDEST DUP2 ADD DUP2 DUP2 LT PUSH8 0xFFFFFFFFFFFFFFFF DUP3 GT OR ISZERO PUSH2 0xB9A JUMPI PUSH2 0xB99 PUSH2 0xB43 JUMP JUMPDEST JUMPDEST DUP1 PUSH1 0x40 MSTORE POP POP POP JUMP JUMPDEST PUSH1 0x0 PUSH2 0xBAD PUSH2 0x826 JUMP JUMPDEST SWAP1 POP PUSH2 0xBB9 DUP3 DUP3 PUSH2 0xB72 JUMP JUMPDEST SWAP2 SWAP1 POP JUMP JUMPDEST PUSH1 0x0 PUSH8 0xFFFFFFFFFFFFFFFF DUP3 GT ISZERO PUSH2 0xBD9 JUMPI PUSH2 0xBD8 PUSH2 0xB43 JUMP JUMPDEST JUMPDEST PUSH2 0xBE2 DUP3 PUSH2 0x8D9 JUMP JUMPDEST SWAP1 POP PUSH1 0x20 DUP2 ADD SWAP1 POP SWAP2 SWAP1 POP JUMP JUMPDEST DUP3 DUP2 DUP4 CALLDATACOPY PUSH1 0x0 DUP4 DUP4 ADD MSTORE POP POP POP JUMP JUMPDEST PUSH1 0x0 PUSH2 0xC11 PUSH2 0xC0C DUP5 PUSH2 0xBBE JUMP JUMPDEST PUSH2 0xBA3 JUMP JUMPDEST SWAP1 POP DUP3 DUP2 MSTORE PUSH1 0x20 DUP2 ADD DUP5 DUP5 DUP5 ADD GT ISZERO PUSH2 0xC2D JUMPI PUSH2 0xC2C PUSH2 0xB3E JUMP JUMPDEST JUMPDEST PUSH2 0xC38 DUP5 DUP3 DUP6 PUSH2 0xBEF JUMP JUMPDEST POP SWAP4 SWAP3 POP POP POP JUMP JUMPDEST PUSH1 0x0 DUP3 PUSH1 0x1F DUP4 ADD SLT PUSH2 0xC55 JUMPI PUSH2 0xC54 PUSH2 0xB39 JUMP JUMPDEST JUMPDEST DUP2 CALLDATALOAD PUSH2 0xC65 DUP5 DUP3 PUSH1 0x20 DUP7 ADD PUSH2 0xBFE JUMP JUMPDEST SWAP2 POP POP SWAP3 SWAP2 POP POP JUMP JUMPDEST PUSH1 0x0 PUSH8 0xFFFFFFFFFFFFFFFF DUP3 GT ISZERO PUSH2 0xC89 JUMPI PUSH2 0xC88 PUSH2 0xB43 JUMP JUMPDEST JUMPDEST PUSH1 0x20 DUP3 MUL SWAP1 POP PUSH1 0x20 DUP2 ADD SWAP1 POP SWAP2 SWAP1 POP JUMP JUMPDEST PUSH1 0x0 DUP1 REVERT JUMPDEST PUSH1 0x0 PUSH2 0xCB2 PUSH2 0xCAD DUP5 PUSH2 0xC6E JUMP JUMPDEST PUSH2 0xBA3 JUMP JUMPDEST SWAP1 POP DUP1 DUP4 DUP3 MSTORE PUSH1 0x20 DUP3 ADD SWAP1 POP PUSH1 0x20 DUP5 MUL DUP4 ADD DUP6 DUP2 GT ISZERO PUSH2 0xCD5 JUMPI PUSH2 0xCD4 PUSH2 0xC9A JUMP JUMPDEST JUMPDEST DUP4 JUMPDEST DUP2 DUP2 LT ISZERO PUSH2 0xD1C JUMPI DUP1 CALLDATALOAD PUSH8 0xFFFFFFFFFFFFFFFF DUP2 GT ISZERO PUSH2 0xCFA JUMPI PUSH2 0xCF9 PUSH2 0xB39 JUMP JUMPDEST JUMPDEST DUP1 DUP7 ADD PUSH2 0xD07 DUP10 DUP3 PUSH2 0xC40 JUMP JUMPDEST DUP6 MSTORE PUSH1 0x20 DUP6 ADD SWAP5 POP POP POP PUSH1 0x20 DUP2 ADD SWAP1 POP PUSH2 0xCD7 JUMP JUMPDEST POP POP POP SWAP4 SWAP3 POP POP POP JUMP JUMPDEST PUSH1 0x0 DUP3 PUSH1 0x1F DUP4 ADD SLT PUSH2 0xD3B JUMPI PUSH2 0xD3A PUSH2 0xB39 JUMP JUMPDEST JUMPDEST DUP2 CALLDATALOAD PUSH2 0xD4B DUP5 DUP3 PUSH1 0x20 DUP7 ADD PUSH2 0xC9F JUMP JUMPDEST SWAP2 POP POP SWAP3 SWAP2 POP POP JUMP JUMPDEST PUSH1 0x0 DUP1 PUSH1 0x0 PUSH1 0x60 DUP5 DUP7 SUB SLT ISZERO PUSH2 0xD6D JUMPI PUSH2 0xD6C PUSH2 0x830 JUMP JUMPDEST JUMPDEST PUSH1 0x0 PUSH2 0xD7B DUP7 DUP3 DUP8 ADD PUSH2 0x851 JUMP JUMPDEST SWAP4 POP POP PUSH1 0x20 DUP5 ADD CALLDATALOAD PUSH8 0xFFFFFFFFFFFFFFFF DUP2 GT ISZERO PUSH2 0xD9C JUMPI PUSH2 0xD9B PUSH2 0x835 JUMP JUMPDEST JUMPDEST PUSH2 0xDA8 DUP7 DUP3 DUP8 ADD PUSH2 0xC40 JUMP JUMPDEST SWAP3 POP POP PUSH1 0x40 DUP5 ADD CALLDATALOAD PUSH8 0xFFFFFFFFFFFFFFFF DUP2 GT ISZERO PUSH2 0xDC9 JUMPI PUSH2 0xDC8 PUSH2 0x835 JUMP JUMPDEST JUMPDEST PUSH2 0xDD5 DUP7 DUP3 DUP8 ADD PUSH2 0xD26 JUMP JUMPDEST SWAP2 POP POP SWAP3 POP SWAP3 POP SWAP3 JUMP JUMPDEST PUSH1 0x0 DUP1 PUSH1 0x40 DUP4 DUP6 SUB SLT ISZERO PUSH2 0xDF6 JUMPI PUSH2 0xDF5 PUSH2 0x830 JUMP JUMPDEST JUMPDEST PUSH1 0x0 PUSH2 0xE04 DUP6 DUP3 DUP7 ADD PUSH2 0x851 JUMP JUMPDEST SWAP3 POP POP PUSH1 0x20 PUSH2 0xE15 DUP6 DUP3 DUP7 ADD PUSH2 0x851 JUMP JUMPDEST SWAP2 POP POP SWAP3 POP SWAP3 SWAP1 POP JUMP JUMPDEST PUSH32 0x4E487B7100000000000000000000000000000000000000000000000000000000 PUSH1 0x0 MSTORE PUSH1 0x32 PUSH1 0x4 MSTORE PUSH1 0x24 PUSH1 0x0 REVERT JUMPDEST PUSH32 0x4E487B7100000000000000000000000000000000000000000000000000000000 PUSH1 0x0 MSTORE PUSH1 0x22 PUSH1 0x4 MSTORE PUSH1 0x24 PUSH1 0x0 REVERT JUMPDEST PUSH1 0x0 PUSH1 0x2 DUP3 DIV SWAP1 POP PUSH1 0x1 DUP3 AND DUP1 PUSH2 0xE95 JUMPI PUSH1 0x7F DUP3 AND SWAP2 POP JUMPDEST PUSH1 0x20 DUP3 LT DUP2 SUB PUSH2 0xEA8 JUMPI PUSH2 0xEA7 PUSH2 0xE4E JUMP JUMPDEST JUMPDEST POP SWAP2 SWAP1 POP JUMP JUMPDEST PUSH1 0x0 DUP2 SWAP1 POP DUP2 PUSH1 0x0 MSTORE PUSH1 0x20 PUSH1 0x0 KECCAK256 SWAP1 POP SWAP2 SWAP1 POP JUMP JUMPDEST PUSH1 0x0 PUSH1 0x20 PUSH1 0x1F DUP4 ADD DIV SWAP1 POP SWAP2 SWAP1 POP JUMP JUMPDEST PUSH1 0x0 DUP3 DUP3 SHL SWAP1 POP SWAP3 SWAP2 POP POP JUMP JUMPDEST PUSH1 0x0 PUSH1 0x8 DUP4 MUL PUSH2 0xF10 PUSH32 0xFFFFFFFFFFFFFFFFFFFFFFFFFFFFFFFFFFFFFFFFFFFFFFFFFFFFFFFFFFFFFFFF DUP3 PUSH2 0xED3 JUMP JUMPDEST PUSH2 0xF1A DUP7 DUP4 PUSH2 0xED3 JUMP JUMPDEST SWAP6 POP DUP1 NOT DUP5 AND SWAP4 POP DUP1 DUP7 AND DUP5 OR SWAP3 POP POP POP SWAP4 SWAP3 POP POP POP JUMP JUMPDEST PUSH1 0x0 DUP2 SWAP1 POP SWAP2 SWAP1 POP JUMP JUMPDEST PUSH1 0x0 PUSH2 0xF57 PUSH2 0xF52 PUSH2 0xF4D DUP5 PUSH2 0x7F2 JUMP JUMPDEST PUSH2 0xF32 JUMP JUMPDEST PUSH2 0x7F2 JUMP JUMPDEST SWAP1 POP SWAP2 SWAP1 POP JUMP JUMPDEST PUSH1 0x0 DUP2 SWAP1 POP SWAP2 SWAP1 POP JUMP JUMPDEST PUSH2 0xF71 DUP4 PUSH2 0xF3C JUMP JUMPDEST PUSH2 0xF85 PUSH2 0xF7D DUP3 PUSH2 0xF5E JUMP JUMPDEST DUP5 DUP5 SLOAD PUSH2 0xEE0 JUMP JUMPDEST DUP3 SSTORE POP POP POP POP JUMP JUMPDEST PUSH1 0x0 SWAP1 JUMP JUMPDEST PUSH2 0xF9A PUSH2 0xF8D JUMP JUMPDEST PUSH2 0xFA5 DUP2 DUP5 DUP5 PUSH2 0xF68 JUMP JUMPDEST POP POP POP JUMP JUMPDEST JUMPDEST DUP2 DUP2 LT ISZERO PUSH2 0xFC9 JUMPI PUSH2 0xFBE PUSH1 0x0 DUP3 PUSH2 0xF92 JUMP JUMPDEST PUSH1 0x1 DUP2 ADD SWAP1 POP PUSH2 0xFAB JUMP JUMPDEST POP POP JUMP JUMPDEST PUSH1 0x1F DUP3 GT ISZERO PUSH2 0x100E JUMPI PUSH2 0xFDF DUP2 PUSH2 0xEAE JUMP JUMPDEST PUSH2 0xFE8 DUP5 PUSH2 0xEC3 JUMP JUMPDEST DUP2 ADD PUSH1 0x20 DUP6 LT ISZERO PUSH2 0xFF7 JUMPI DUP2 SWAP1 POP JUMPDEST PUSH2 0x100B PUSH2 0x1003 DUP6 PUSH2 0xEC3 JUMP JUMPDEST DUP4 ADD DUP3 PUSH2 0xFAA JUMP JUMPDEST POP POP JUMPDEST POP POP POP JUMP JUMPDEST PUSH1 0x0 DUP3 DUP3 SHR SWAP1 POP SWAP3 SWAP2 POP POP JUMP JUMPDEST PUSH1 0x0 PUSH2 0x1031 PUSH1 0x0 NOT DUP5 PUSH1 0x8 MUL PUSH2 0x1013 JUMP JUMPDEST NOT DUP1 DUP4 AND SWAP2 POP POP SWAP3 SWAP2 POP POP JUMP JUMPDEST PUSH1 0x0 PUSH2 0x104A DUP4 DUP4 PUSH2 0x1020 JUMP JUMPDEST SWAP2 POP DUP3 PUSH1 0x2 MUL DUP3 OR SWAP1 POP SWAP3 SWAP2 POP POP JUMP JUMPDEST PUSH2 0x1063 DUP3 PUSH2 0x893 JUMP JUMPDEST PUSH8 0xFFFFFFFFFFFFFFFF DUP2 GT ISZERO PUSH2 0x107C JUMPI PUSH2 0x107B PUSH2 0xB43 JUMP JUMPDEST JUMPDEST PUSH2 0x1086 DUP3 SLOAD PUSH2 0xE7D JUMP JUMPDEST PUSH2 0x1091 DUP3 DUP3 DUP6 PUSH2 0xFCD JUMP JUMPDEST PUSH1 0x0 PUSH1 0x20 SWAP1 POP PUSH1 0x1F DUP4 GT PUSH1 0x1 DUP2 EQ PUSH2 0x10C4 JUMPI PUSH1 0x0 DUP5 ISZERO PUSH2 0x10B2 JUMPI DUP3 DUP8 ADD MLOAD SWAP1 POP JUMPDEST PUSH2 0x10BC DUP6 DUP3 PUSH2 0x103E JUMP JUMPDEST DUP7 SSTORE POP PUSH2 0x1124 JUMP JUMPDEST PUSH1 0x1F NOT DUP5 AND PUSH2 0x10D2 DUP7 PUSH2 0xEAE JUMP JUMPDEST PUSH1 0x0 JUMPDEST DUP3 DUP2 LT ISZERO PUSH2 0x10FA JUMPI DUP5 DUP10 ADD MLOAD DUP3 SSTORE PUSH1 0x1 DUP3 ADD SWAP2 POP PUSH1 0x20 DUP6 ADD SWAP5 POP PUSH1 0x20 DUP2 ADD SWAP1 POP PUSH2 0x10D5 JUMP JUMPDEST DUP7 DUP4 LT ISZERO PUSH2 0x1117 JUMPI DUP5 DUP10 ADD MLOAD PUSH2 0x1113 PUSH1 0x1F DUP10 AND DUP3 PUSH2 0x1020 JUMP JUMPDEST DUP4 SSTORE POP JUMPDEST PUSH1 0x1 PUSH1 0x2 DUP9 MUL ADD DUP9 SSTORE POP POP POP JUMPDEST POP POP POP POP POP POP JUMP JUMPDEST PUSH32 0x4E487B7100000000000000000000000000000000000000000000000000000000 PUSH1 0x0 MSTORE PUSH1 0x11 PUSH1 0x4 MSTORE PUSH1 0x24 PUSH1 0x0 REVERT JUMPDEST PUSH1 0x0 PUSH2 0x1166 DUP3 PUSH2 0x7F2 JUMP JUMPDEST SWAP2 POP PUSH2 0x1171 DUP4 PUSH2 0x7F2 JUMP JUMPDEST SWAP3 POP DUP3 DUP3 ADD SWAP1 POP DUP1 DUP3 GT ISZERO PUSH2 0x1189 JUMPI PUSH2 0x1188 PUSH2 0x112C JUMP JUMPDEST JUMPDEST SWAP3 SWAP2 POP POP JUMP JUMPDEST PUSH32 0x6E6F742061626C6520746F20616E73207468697320706F6C6C2E000000000000 PUSH1 0x0 DUP3 ADD MSTORE POP JUMP JUMPDEST PUSH1 0x0 PUSH2 0x11C5 PUSH1 0x1A DUP4 PUSH2 0x89E JUMP JUMPDEST SWAP2 POP PUSH2 0x11D0 DUP3 PUSH2 0x118F JUMP JUMPDEST PUSH1 0x20 DUP3 ADD SWAP1 POP SWAP2 SWAP1 POP JUMP JUMPDEST PUSH1 0x0 PUSH1 0x20 DUP3 ADD SWAP1 POP DUP2 DUP2 SUB PUSH1 0x0 DUP4 ADD MSTORE PUSH2 0x11F4 DUP2 PUSH2 0x11B8 JUMP JUMPDEST SWAP1 POP SWAP2 SWAP1 POP JUMP INVALID LOG2 PUSH5 0x6970667358 0x22 SLT KECCAK256 0xBF STATICCALL KECCAK256 SELFBALANCE ADDRESS 0xD1 PUSH5 0x86C6E8EBC1 GASLIMIT 0xE4 LOG2 PUSH9 0x287E5B4731B56D5AC4 GT LT 0xE5 0xD9 0x4C 0xD3 NOT PUSH5 0x736F6C6343 STOP ADDMOD SLT STOP CALLER "
				},
				"gasEstimates": {
					"creation": {
						"codeDepositCost": "931400",
						"executionCost": "968",
						"totalCost": "932368"
					},
					"external": {
						"CreatePoll(uint256,string,string[])": "infinite",
						"GetPoll(uint256)": "infinite",
						"getLengthPoll()": "2423",
						"poll(uint256,uint256)": "infinite",
						"pollAns(uint256,uint256)": "infinite"
					}
				},
				"methodIdentifiers": {
					"CreatePoll(uint256,string,string[])": "cce042bb",
					"GetPoll(uint256)": "09bc43f5",
					"getLengthPoll()": "08d9350a",
					"poll(uint256,uint256)": "e4219322",
					"pollAns(uint256,uint256)": "e8389a33"
				}
			},
			"storageLayout": {
				"storage": [
					{
						"astId": 24,
						"contract": "contracts/pll_system2.sol:poll_system",
						"label": "polls",
						"offset": 0,
						"slot": "0",
						"type": "t_array(t_struct(Poll)12_storage)dyn_storage"
					},
					{
						"astId": 29,
						"contract": "contracts/pll_system2.sol:poll_system",
						"label": "voters",
						"offset": 0,
						"slot": "1",
						"type": "t_mapping(t_address,t_struct(VoterData)20_storage)"
					},
					{
						"astId": 32,
						"contract": "contracts/pll_system2.sol:poll_system",
						"label": "result",
						"offset": 0,
						"slot": "2",
						"type": "t_array(t_uint256)dyn_storage"
					}
				],
				"types": {
					"t_address": {
						"encoding": "inplace",
						"label": "address",
						"numberOfBytes": "20"
					},
					"t_array(t_string_storage)dyn_storage": {
						"base": "t_string_storage",
						"encoding": "dynamic_array",
						"label": "string[]",
						"numberOfBytes": "32"
					},
					"t_array(t_struct(Poll)12_storage)dyn_storage": {
						"base": "t_struct(Poll)12_storage",
						"encoding": "dynamic_array",
						"label": "struct poll_system.Poll[]",
						"numberOfBytes": "32"
					},
					"t_array(t_uint256)dyn_storage": {
						"base": "t_uint256",
						"encoding": "dynamic_array",
						"label": "uint256[]",
						"numberOfBytes": "32"
					},
					"t_bool": {
						"encoding": "inplace",
						"label": "bool",
						"numberOfBytes": "1"
					},
					"t_mapping(t_address,t_struct(VoterData)20_storage)": {
						"encoding": "mapping",
						"key": "t_address",
						"label": "mapping(address => struct poll_system.VoterData)",
						"numberOfBytes": "32",
						"value": "t_struct(VoterData)20_storage"
					},
					"t_mapping(t_uint256,t_bool)": {
						"encoding": "mapping",
						"key": "t_uint256",
						"label": "mapping(uint256 => bool)",
						"numberOfBytes": "32",
						"value": "t_bool"
					},
					"t_string_storage": {
						"encoding": "bytes",
						"label": "string",
						"numberOfBytes": "32"
					},
					"t_struct(Poll)12_storage": {
						"encoding": "inplace",
						"label": "struct poll_system.Poll",
						"members": [
							{
								"astId": 3,
								"contract": "contracts/pll_system2.sol:poll_system",
								"label": "id",
								"offset": 0,
								"slot": "0",
								"type": "t_uint256"
							},
							{
								"astId": 5,
								"contract": "contracts/pll_system2.sol:poll_system",
								"label": "question",
								"offset": 0,
								"slot": "1",
								"type": "t_string_storage"
							},
							{
								"astId": 8,
								"contract": "contracts/pll_system2.sol:poll_system",
								"label": "results",
								"offset": 0,
								"slot": "2",
								"type": "t_array(t_uint256)dyn_storage"
							},
							{
								"astId": 11,
								"contract": "contracts/pll_system2.sol:poll_system",
								"label": "options",
								"offset": 0,
								"slot": "3",
								"type": "t_array(t_string_storage)dyn_storage"
							}
						],
						"numberOfBytes": "128"
					},
					"t_struct(VoterData)20_storage": {
						"encoding": "inplace",
						"label": "struct poll_system.VoterData",
						"members": [
							{
								"astId": 15,
								"contract": "contracts/pll_system2.sol:poll_system",
								"label": "votedIds",
								"offset": 0,
								"slot": "0",
								"type": "t_array(t_uint256)dyn_storage"
							},
							{
								"astId": 19,
								"contract": "contracts/pll_system2.sol:poll_system",
								"label": "votedMap",
								"offset": 0,
								"slot": "1",
								"type": "t_mapping(t_uint256,t_bool)"
							}
						],
						"numberOfBytes": "64"
					},
					"t_uint256": {
						"encoding": "inplace",
						"label": "uint256",
						"numberOfBytes": "32"
					}
				}
			},
			"userdoc": {
				"kind": "user",
				"methods": {},
				"version": 1
			}
		}
	}
}