{
	"contracts/event_org.sol": {
		"eventorg": {
			"abi": [
				{
					"inputs": [
						{
							"internalType": "uint256",
							"name": "eventid",
							"type": "uint256"
						},
						{
							"internalType": "string",
							"name": "organiser",
							"type": "string"
						},
						{
							"internalType": "string",
							"name": "eventname",
							"type": "string"
						},
						{
							"internalType": "uint256",
							"name": "eventticket",
							"type": "uint256"
						},
						{
							"internalType": "string",
							"name": "evnetcity",
							"type": "string"
						},
						{
							"internalType": "uint256",
							"name": "eventfee",
							"type": "uint256"
						}
					],
					"name": "CreateEvent",
					"outputs": [],
					"stateMutability": "nonpayable",
					"type": "function"
				},
				{
					"inputs": [
						{
							"internalType": "uint256",
							"name": "",
							"type": "uint256"
						}
					],
					"name": "eventData",
					"outputs": [
						{
							"internalType": "string",
							"name": "organiser",
							"type": "string"
						},
						{
							"internalType": "string",
							"name": "eventname",
							"type": "string"
						},
						{
							"internalType": "uint256",
							"name": "eventdate",
							"type": "uint256"
						},
						{
							"internalType": "uint256",
							"name": "eventticket",
							"type": "uint256"
						},
						{
							"internalType": "uint256",
							"name": "eventRemticket",
							"type": "uint256"
						},
						{
							"internalType": "string",
							"name": "evnetcity",
							"type": "string"
						},
						{
							"internalType": "uint256",
							"name": "eventfee",
							"type": "uint256"
						}
					],
					"stateMutability": "view",
					"type": "function"
				},
				{
					"inputs": [
						{
							"internalType": "uint256",
							"name": "id",
							"type": "uint256"
						}
					],
					"name": "getEvent",
					"outputs": [
						{
							"components": [
								{
									"internalType": "string",
									"name": "organiser",
									"type": "string"
								},
								{
									"internalType": "string",
									"name": "eventname",
									"type": "string"
								},
								{
									"internalType": "uint256",
									"name": "eventdate",
									"type": "uint256"
								},
								{
									"internalType": "uint256",
									"name": "eventticket",
									"type": "uint256"
								},
								{
									"internalType": "uint256",
									"name": "eventRemticket",
									"type": "uint256"
								},
								{
									"internalType": "string",
									"name": "evnetcity",
									"type": "string"
								},
								{
									"internalType": "uint256",
									"name": "eventfee",
									"type": "uint256"
								}
							],
							"internalType": "struct eventorg.eventInfo",
							"name": "",
							"type": "tuple"
						}
					],
					"stateMutability": "view",
					"type": "function"
				}
			],
			"devdoc": {
				"kind": "dev",
				"methods": {},
				"version": 1
			},
			"evm": {
				"assembly": "    /* \"contracts/event_org.sol\":73:2714  contract eventorg{... */\n  mstore(0x40, 0x80)\n  callvalue\n  dup1\n  iszero\n  tag_1\n  jumpi\n  0x00\n  dup1\n  revert\ntag_1:\n  pop\n  dataSize(sub_0)\n  dup1\n  dataOffset(sub_0)\n  0x00\n  codecopy\n  0x00\n  return\nstop\n\nsub_0: assembly {\n        /* \"contracts/event_org.sol\":73:2714  contract eventorg{... */\n      mstore(0x40, 0x80)\n      callvalue\n      dup1\n      iszero\n      tag_1\n      jumpi\n      0x00\n      dup1\n      revert\n    tag_1:\n      pop\n      jumpi(tag_2, lt(calldatasize, 0x04))\n      shr(0xe0, calldataload(0x00))\n      dup1\n      0x6d1884e0\n      eq\n      tag_3\n      jumpi\n      dup1\n      0xb824fbf0\n      eq\n      tag_4\n      jumpi\n      dup1\n      0xc3321363\n      eq\n      tag_5\n      jumpi\n    tag_2:\n      0x00\n      dup1\n      revert\n        /* \"contracts/event_org.sol\":1621:1771  function getEvent(uint id) public view returns(eventInfo memory) {... */\n    tag_3:\n      tag_6\n      0x04\n      dup1\n      calldatasize\n      sub\n      dup2\n      add\n      swap1\n      tag_7\n      swap2\n      swap1\n      tag_8\n      jump\t// in\n    tag_7:\n      tag_9\n      jump\t// in\n    tag_6:\n      mload(0x40)\n      tag_10\n      swap2\n      swap1\n      tag_11\n      jump\t// in\n    tag_10:\n      mload(0x40)\n      dup1\n      swap2\n      sub\n      swap1\n      return\n        /* \"contracts/event_org.sol\":769:1184  function CreateEvent(uint eventid, string memory organiser, string memory eventname, uint eventticket, string memory evnetcity, uint eventfee) public{... */\n    tag_4:\n      tag_12\n      0x04\n      dup1\n      calldatasize\n      sub\n      dup2\n      add\n      swap1\n      tag_13\n      swap2\n      swap1\n      tag_14\n      jump\t// in\n    tag_13:\n      tag_15\n      jump\t// in\n    tag_12:\n      stop\n        /* \"contracts/event_org.sol\":721:762  mapping(uint=>eventInfo) public eventData */\n    tag_5:\n      tag_16\n      0x04\n      dup1\n      calldatasize\n      sub\n      dup2\n      add\n      swap1\n      tag_17\n      swap2\n      swap1\n      tag_8\n      jump\t// in\n    tag_17:\n      tag_18\n      jump\t// in\n    tag_16:\n      mload(0x40)\n      tag_19\n      swap8\n      swap7\n      swap6\n      swap5\n      swap4\n      swap3\n      swap2\n      swap1\n      tag_20\n      jump\t// in\n    tag_19:\n      mload(0x40)\n      dup1\n      swap2\n      sub\n      swap1\n      return\n        /* \"contracts/event_org.sol\":1621:1771  function getEvent(uint id) public view returns(eventInfo memory) {... */\n    tag_9:\n        /* \"contracts/event_org.sol\":1668:1684  eventInfo memory */\n      tag_21\n      tag_22\n      jump\t// in\n    tag_21:\n        /* \"contracts/event_org.sol\":1621:1771  function getEvent(uint id) public view returns(eventInfo memory) {... */\n      swap2\n      swap1\n      pop\n      jump\t// out\n        /* \"contracts/event_org.sol\":769:1184  function CreateEvent(uint eventid, string memory organiser, string memory eventname, uint eventticket, string memory evnetcity, uint eventfee) public{... */\n    tag_15:\n        /* \"contracts/event_org.sol\":928:947  uint eventremticket */\n      0x00\n        /* \"contracts/event_org.sol\":950:961  eventticket */\n      dup4\n        /* \"contracts/event_org.sol\":928:961  uint eventremticket = eventticket */\n      swap1\n      pop\n        /* \"contracts/event_org.sol\":971:984  uint timetamp */\n      0x00\n        /* \"contracts/event_org.sol\":987:1002  block.timestamp */\n      timestamp\n        /* \"contracts/event_org.sol\":971:1002  uint timetamp = block.timestamp */\n      swap1\n      pop\n        /* \"contracts/event_org.sol\":1033:1124  eventInfo(organiser, eventname, timetamp, eventticket, eventremticket, evnetcity, eventfee) */\n      mload(0x40)\n      dup1\n      0xe0\n      add\n      0x40\n      mstore\n      dup1\n        /* \"contracts/event_org.sol\":1043:1052  organiser */\n      dup9\n        /* \"contracts/event_org.sol\":1033:1124  eventInfo(organiser, eventname, timetamp, eventticket, eventremticket, evnetcity, eventfee) */\n      dup2\n      mstore\n      0x20\n      add\n        /* \"contracts/event_org.sol\":1054:1063  eventname */\n      dup8\n        /* \"contracts/event_org.sol\":1033:1124  eventInfo(organiser, eventname, timetamp, eventticket, eventremticket, evnetcity, eventfee) */\n      dup2\n      mstore\n      0x20\n      add\n        /* \"contracts/event_org.sol\":1065:1073  timetamp */\n      dup3\n        /* \"contracts/event_org.sol\":1033:1124  eventInfo(organiser, eventname, timetamp, eventticket, eventremticket, evnetcity, eventfee) */\n      dup2\n      mstore\n      0x20\n      add\n        /* \"contracts/event_org.sol\":1075:1086  eventticket */\n      dup7\n        /* \"contracts/event_org.sol\":1033:1124  eventInfo(organiser, eventname, timetamp, eventticket, eventremticket, evnetcity, eventfee) */\n      dup2\n      mstore\n      0x20\n      add\n        /* \"contracts/event_org.sol\":1088:1102  eventremticket */\n      dup4\n        /* \"contracts/event_org.sol\":1033:1124  eventInfo(organiser, eventname, timetamp, eventticket, eventremticket, evnetcity, eventfee) */\n      dup2\n      mstore\n      0x20\n      add\n        /* \"contracts/event_org.sol\":1104:1113  evnetcity */\n      dup6\n        /* \"contracts/event_org.sol\":1033:1124  eventInfo(organiser, eventname, timetamp, eventticket, eventremticket, evnetcity, eventfee) */\n      dup2\n      mstore\n      0x20\n      add\n        /* \"contracts/event_org.sol\":1115:1123  eventfee */\n      dup5\n        /* \"contracts/event_org.sol\":1033:1124  eventInfo(organiser, eventname, timetamp, eventticket, eventremticket, evnetcity, eventfee) */\n      dup2\n      mstore\n      pop\n        /* \"contracts/event_org.sol\":1012:1021  eventData */\n      0x00\n        /* \"contracts/event_org.sol\":1012:1030  eventData[eventid] */\n      dup1\n        /* \"contracts/event_org.sol\":1022:1029  eventid */\n      dup11\n        /* \"contracts/event_org.sol\":1012:1030  eventData[eventid] */\n      dup2\n      mstore\n      0x20\n      add\n      swap1\n      dup2\n      mstore\n      0x20\n      add\n      0x00\n      keccak256\n        /* \"contracts/event_org.sol\":1012:1124  eventData[eventid] = eventInfo(organiser, eventname, timetamp, eventticket, eventremticket, evnetcity, eventfee) */\n      0x00\n      dup3\n      add\n      mload\n      dup2\n      0x00\n      add\n      swap1\n      dup2\n      tag_25\n      swap2\n      swap1\n      tag_26\n      jump\t// in\n    tag_25:\n      pop\n      0x20\n      dup3\n      add\n      mload\n      dup2\n      0x01\n      add\n      swap1\n      dup2\n      tag_27\n      swap2\n      swap1\n      tag_26\n      jump\t// in\n    tag_27:\n      pop\n      0x40\n      dup3\n      add\n      mload\n      dup2\n      0x02\n      add\n      sstore\n      0x60\n      dup3\n      add\n      mload\n      dup2\n      0x03\n      add\n      sstore\n      0x80\n      dup3\n      add\n      mload\n      dup2\n      0x04\n      add\n      sstore\n      0xa0\n      dup3\n      add\n      mload\n      dup2\n      0x05\n      add\n      swap1\n      dup2\n      tag_28\n      swap2\n      swap1\n      tag_26\n      jump\t// in\n    tag_28:\n      pop\n      0xc0\n      dup3\n      add\n      mload\n      dup2\n      0x06\n      add\n      sstore\n      swap1\n      pop\n      pop\n        /* \"contracts/event_org.sol\":918:1184  {... */\n      pop\n      pop\n        /* \"contracts/event_org.sol\":769:1184  function CreateEvent(uint eventid, string memory organiser, string memory eventname, uint eventticket, string memory evnetcity, uint eventfee) public{... */\n      pop\n      pop\n      pop\n      pop\n      pop\n      pop\n      jump\t// out\n        /* \"contracts/event_org.sol\":721:762  mapping(uint=>eventInfo) public eventData */\n    tag_18:\n      mstore(0x20, 0x00)\n      dup1\n      0x00\n      mstore\n      keccak256(0x00, 0x40)\n      0x00\n      swap2\n      pop\n      swap1\n      pop\n      dup1\n      0x00\n      add\n      dup1\n      sload\n      tag_29\n      swap1\n      tag_30\n      jump\t// in\n    tag_29:\n      dup1\n      0x1f\n      add\n      0x20\n      dup1\n      swap2\n      div\n      mul\n      0x20\n      add\n      mload(0x40)\n      swap1\n      dup2\n      add\n      0x40\n      mstore\n      dup1\n      swap3\n      swap2\n      swap1\n      dup2\n      dup2\n      mstore\n      0x20\n      add\n      dup3\n      dup1\n      sload\n      tag_31\n      swap1\n      tag_30\n      jump\t// in\n    tag_31:\n      dup1\n      iszero\n      tag_32\n      jumpi\n      dup1\n      0x1f\n      lt\n      tag_33\n      jumpi\n      0x0100\n      dup1\n      dup4\n      sload\n      div\n      mul\n      dup4\n      mstore\n      swap2\n      0x20\n      add\n      swap2\n      jump(tag_32)\n    tag_33:\n      dup3\n      add\n      swap2\n      swap1\n      0x00\n      mstore\n      keccak256(0x00, 0x20)\n      swap1\n    tag_34:\n      dup2\n      sload\n      dup2\n      mstore\n      swap1\n      0x01\n      add\n      swap1\n      0x20\n      add\n      dup1\n      dup4\n      gt\n      tag_34\n      jumpi\n      dup3\n      swap1\n      sub\n      0x1f\n      and\n      dup3\n      add\n      swap2\n    tag_32:\n      pop\n      pop\n      pop\n      pop\n      pop\n      swap1\n      dup1\n      0x01\n      add\n      dup1\n      sload\n      tag_35\n      swap1\n      tag_30\n      jump\t// in\n    tag_35:\n      dup1\n      0x1f\n      add\n      0x20\n      dup1\n      swap2\n      div\n      mul\n      0x20\n      add\n      mload(0x40)\n      swap1\n      dup2\n      add\n      0x40\n      mstore\n      dup1\n      swap3\n      swap2\n      swap1\n      dup2\n      dup2\n      mstore\n      0x20\n      add\n      dup3\n      dup1\n      sload\n      tag_36\n      swap1\n      tag_30\n      jump\t// in\n    tag_36:\n      dup1\n      iszero\n      tag_37\n      jumpi\n      dup1\n      0x1f\n      lt\n      tag_38\n      jumpi\n      0x0100\n      dup1\n      dup4\n      sload\n      div\n      mul\n      dup4\n      mstore\n      swap2\n      0x20\n      add\n      swap2\n      jump(tag_37)\n    tag_38:\n      dup3\n      add\n      swap2\n      swap1\n      0x00\n      mstore\n      keccak256(0x00, 0x20)\n      swap1\n    tag_39:\n      dup2\n      sload\n      dup2\n      mstore\n      swap1\n      0x01\n      add\n      swap1\n      0x20\n      add\n      dup1\n      dup4\n      gt\n      tag_39\n      jumpi\n      dup3\n      swap1\n      sub\n      0x1f\n      and\n      dup3\n      add\n      swap2\n    tag_37:\n      pop\n      pop\n      pop\n      pop\n      pop\n      swap1\n      dup1\n      0x02\n      add\n      sload\n      swap1\n      dup1\n      0x03\n      add\n      sload\n      swap1\n      dup1\n      0x04\n      add\n      sload\n      swap1\n      dup1\n      0x05\n      add\n      dup1\n      sload\n      tag_40\n      swap1\n      tag_30\n      jump\t// in\n    tag_40:\n      dup1\n      0x1f\n      add\n      0x20\n      dup1\n      swap2\n      div\n      mul\n      0x20\n      add\n      mload(0x40)\n      swap1\n      dup2\n      add\n      0x40\n      mstore\n      dup1\n      swap3\n      swap2\n      swap1\n      dup2\n      dup2\n      mstore\n      0x20\n      add\n      dup3\n      dup1\n      sload\n      tag_41\n      swap1\n      tag_30\n      jump\t// in\n    tag_41:\n      dup1\n      iszero\n      tag_42\n      jumpi\n      dup1\n      0x1f\n      lt\n      tag_43\n      jumpi\n      0x0100\n      dup1\n      dup4\n      sload\n      div\n      mul\n      dup4\n      mstore\n      swap2\n      0x20\n      add\n      swap2\n      jump(tag_42)\n    tag_43:\n      dup3\n      add\n      swap2\n      swap1\n      0x00\n      mstore\n      keccak256(0x00, 0x20)\n      swap1\n    tag_44:\n      dup2\n      sload\n      dup2\n      mstore\n      swap1\n      0x01\n      add\n      swap1\n      0x20\n      add\n      dup1\n      dup4\n      gt\n      tag_44\n      jumpi\n      dup3\n      swap1\n      sub\n      0x1f\n      and\n      dup3\n      add\n      swap2\n    tag_42:\n      pop\n      pop\n      pop\n      pop\n      pop\n      swap1\n      dup1\n      0x06\n      add\n      sload\n      swap1\n      pop\n      dup8\n      jump\t// out\n    tag_22:\n      mload(0x40)\n      dup1\n      0xe0\n      add\n      0x40\n      mstore\n      dup1\n      0x60\n      dup2\n      mstore\n      0x20\n      add\n      0x60\n      dup2\n      mstore\n      0x20\n      add\n      0x00\n      dup2\n      mstore\n      0x20\n      add\n      0x00\n      dup2\n      mstore\n      0x20\n      add\n      0x00\n      dup2\n      mstore\n      0x20\n      add\n      0x60\n      dup2\n      mstore\n      0x20\n      add\n      0x00\n      dup2\n      mstore\n      pop\n      swap1\n      jump\t// out\n        /* \"#utility.yul\":7:82   */\n    tag_45:\n        /* \"#utility.yul\":40:46   */\n      0x00\n        /* \"#utility.yul\":73:75   */\n      0x40\n        /* \"#utility.yul\":67:76   */\n      mload\n        /* \"#utility.yul\":57:76   */\n      swap1\n      pop\n        /* \"#utility.yul\":7:82   */\n      swap1\n      jump\t// out\n        /* \"#utility.yul\":88:205   */\n    tag_46:\n        /* \"#utility.yul\":197:198   */\n      0x00\n        /* \"#utility.yul\":194:195   */\n      dup1\n        /* \"#utility.yul\":187:199   */\n      revert\n        /* \"#utility.yul\":211:328   */\n    tag_47:\n        /* \"#utility.yul\":320:321   */\n      0x00\n        /* \"#utility.yul\":317:318   */\n      dup1\n        /* \"#utility.yul\":310:322   */\n      revert\n        /* \"#utility.yul\":334:411   */\n    tag_48:\n        /* \"#utility.yul\":371:378   */\n      0x00\n        /* \"#utility.yul\":400:405   */\n      dup2\n        /* \"#utility.yul\":389:405   */\n      swap1\n      pop\n        /* \"#utility.yul\":334:411   */\n      swap2\n      swap1\n      pop\n      jump\t// out\n        /* \"#utility.yul\":417:539   */\n    tag_49:\n        /* \"#utility.yul\":490:514   */\n      tag_92\n        /* \"#utility.yul\":508:513   */\n      dup2\n        /* \"#utility.yul\":490:514   */\n      tag_48\n      jump\t// in\n    tag_92:\n        /* \"#utility.yul\":483:488   */\n      dup2\n        /* \"#utility.yul\":480:515   */\n      eq\n        /* \"#utility.yul\":470:533   */\n      tag_93\n      jumpi\n        /* \"#utility.yul\":529:530   */\n      0x00\n        /* \"#utility.yul\":526:527   */\n      dup1\n        /* \"#utility.yul\":519:531   */\n      revert\n        /* \"#utility.yul\":470:533   */\n    tag_93:\n        /* \"#utility.yul\":417:539   */\n      pop\n      jump\t// out\n        /* \"#utility.yul\":545:684   */\n    tag_50:\n        /* \"#utility.yul\":591:596   */\n      0x00\n        /* \"#utility.yul\":629:635   */\n      dup2\n        /* \"#utility.yul\":616:636   */\n      calldataload\n        /* \"#utility.yul\":607:636   */\n      swap1\n      pop\n        /* \"#utility.yul\":645:678   */\n      tag_95\n        /* \"#utility.yul\":672:677   */\n      dup2\n        /* \"#utility.yul\":645:678   */\n      tag_49\n      jump\t// in\n    tag_95:\n        /* \"#utility.yul\":545:684   */\n      swap3\n      swap2\n      pop\n      pop\n      jump\t// out\n        /* \"#utility.yul\":690:1019   */\n    tag_8:\n        /* \"#utility.yul\":749:755   */\n      0x00\n        /* \"#utility.yul\":798:800   */\n      0x20\n        /* \"#utility.yul\":786:795   */\n      dup3\n        /* \"#utility.yul\":777:784   */\n      dup5\n        /* \"#utility.yul\":773:796   */\n      sub\n        /* \"#utility.yul\":769:801   */\n      slt\n        /* \"#utility.yul\":766:885   */\n      iszero\n      tag_97\n      jumpi\n        /* \"#utility.yul\":804:883   */\n      tag_98\n      tag_46\n      jump\t// in\n    tag_98:\n        /* \"#utility.yul\":766:885   */\n    tag_97:\n        /* \"#utility.yul\":924:925   */\n      0x00\n        /* \"#utility.yul\":949:1002   */\n      tag_99\n        /* \"#utility.yul\":994:1001   */\n      dup5\n        /* \"#utility.yul\":985:991   */\n      dup3\n        /* \"#utility.yul\":974:983   */\n      dup6\n        /* \"#utility.yul\":970:992   */\n      add\n        /* \"#utility.yul\":949:1002   */\n      tag_50\n      jump\t// in\n    tag_99:\n        /* \"#utility.yul\":939:1002   */\n      swap2\n      pop\n        /* \"#utility.yul\":895:1012   */\n      pop\n        /* \"#utility.yul\":690:1019   */\n      swap3\n      swap2\n      pop\n      pop\n      jump\t// out\n        /* \"#utility.yul\":1025:1124   */\n    tag_51:\n        /* \"#utility.yul\":1077:1083   */\n      0x00\n        /* \"#utility.yul\":1111:1116   */\n      dup2\n        /* \"#utility.yul\":1105:1117   */\n      mload\n        /* \"#utility.yul\":1095:1117   */\n      swap1\n      pop\n        /* \"#utility.yul\":1025:1124   */\n      swap2\n      swap1\n      pop\n      jump\t// out\n        /* \"#utility.yul\":1130:1289   */\n    tag_52:\n        /* \"#utility.yul\":1204:1215   */\n      0x00\n        /* \"#utility.yul\":1238:1244   */\n      dup3\n        /* \"#utility.yul\":1233:1236   */\n      dup3\n        /* \"#utility.yul\":1226:1245   */\n      mstore\n        /* \"#utility.yul\":1278:1282   */\n      0x20\n        /* \"#utility.yul\":1273:1276   */\n      dup3\n        /* \"#utility.yul\":1269:1283   */\n      add\n        /* \"#utility.yul\":1254:1283   */\n      swap1\n      pop\n        /* \"#utility.yul\":1130:1289   */\n      swap3\n      swap2\n      pop\n      pop\n      jump\t// out\n        /* \"#utility.yul\":1295:1541   */\n    tag_53:\n        /* \"#utility.yul\":1376:1377   */\n      0x00\n        /* \"#utility.yul\":1386:1499   */\n    tag_103:\n        /* \"#utility.yul\":1400:1406   */\n      dup4\n        /* \"#utility.yul\":1397:1398   */\n      dup2\n        /* \"#utility.yul\":1394:1407   */\n      lt\n        /* \"#utility.yul\":1386:1499   */\n      iszero\n      tag_105\n      jumpi\n        /* \"#utility.yul\":1485:1486   */\n      dup1\n        /* \"#utility.yul\":1480:1483   */\n      dup3\n        /* \"#utility.yul\":1476:1487   */\n      add\n        /* \"#utility.yul\":1470:1488   */\n      mload\n        /* \"#utility.yul\":1466:1467   */\n      dup2\n        /* \"#utility.yul\":1461:1464   */\n      dup5\n        /* \"#utility.yul\":1457:1468   */\n      add\n        /* \"#utility.yul\":1450:1489   */\n      mstore\n        /* \"#utility.yul\":1422:1424   */\n      0x20\n        /* \"#utility.yul\":1419:1420   */\n      dup2\n        /* \"#utility.yul\":1415:1425   */\n      add\n        /* \"#utility.yul\":1410:1425   */\n      swap1\n      pop\n        /* \"#utility.yul\":1386:1499   */\n      jump(tag_103)\n    tag_105:\n        /* \"#utility.yul\":1533:1534   */\n      0x00\n        /* \"#utility.yul\":1524:1530   */\n      dup5\n        /* \"#utility.yul\":1519:1522   */\n      dup5\n        /* \"#utility.yul\":1515:1531   */\n      add\n        /* \"#utility.yul\":1508:1535   */\n      mstore\n        /* \"#utility.yul\":1357:1541   */\n      pop\n        /* \"#utility.yul\":1295:1541   */\n      pop\n      pop\n      pop\n      jump\t// out\n        /* \"#utility.yul\":1547:1649   */\n    tag_54:\n        /* \"#utility.yul\":1588:1594   */\n      0x00\n        /* \"#utility.yul\":1639:1641   */\n      0x1f\n        /* \"#utility.yul\":1635:1642   */\n      not\n        /* \"#utility.yul\":1630:1632   */\n      0x1f\n        /* \"#utility.yul\":1623:1628   */\n      dup4\n        /* \"#utility.yul\":1619:1633   */\n      add\n        /* \"#utility.yul\":1615:1643   */\n      and\n        /* \"#utility.yul\":1605:1643   */\n      swap1\n      pop\n        /* \"#utility.yul\":1547:1649   */\n      swap2\n      swap1\n      pop\n      jump\t// out\n        /* \"#utility.yul\":1655:2012   */\n    tag_55:\n        /* \"#utility.yul\":1733:1736   */\n      0x00\n        /* \"#utility.yul\":1761:1800   */\n      tag_108\n        /* \"#utility.yul\":1794:1799   */\n      dup3\n        /* \"#utility.yul\":1761:1800   */\n      tag_51\n      jump\t// in\n    tag_108:\n        /* \"#utility.yul\":1816:1877   */\n      tag_109\n        /* \"#utility.yul\":1870:1876   */\n      dup2\n        /* \"#utility.yul\":1865:1868   */\n      dup6\n        /* \"#utility.yul\":1816:1877   */\n      tag_52\n      jump\t// in\n    tag_109:\n        /* \"#utility.yul\":1809:1877   */\n      swap4\n      pop\n        /* \"#utility.yul\":1886:1951   */\n      tag_110\n        /* \"#utility.yul\":1944:1950   */\n      dup2\n        /* \"#utility.yul\":1939:1942   */\n      dup6\n        /* \"#utility.yul\":1932:1936   */\n      0x20\n        /* \"#utility.yul\":1925:1930   */\n      dup7\n        /* \"#utility.yul\":1921:1937   */\n      add\n        /* \"#utility.yul\":1886:1951   */\n      tag_53\n      jump\t// in\n    tag_110:\n        /* \"#utility.yul\":1976:2005   */\n      tag_111\n        /* \"#utility.yul\":1998:2004   */\n      dup2\n        /* \"#utility.yul\":1976:2005   */\n      tag_54\n      jump\t// in\n    tag_111:\n        /* \"#utility.yul\":1971:1974   */\n      dup5\n        /* \"#utility.yul\":1967:2006   */\n      add\n        /* \"#utility.yul\":1960:2006   */\n      swap2\n      pop\n        /* \"#utility.yul\":1737:2012   */\n      pop\n        /* \"#utility.yul\":1655:2012   */\n      swap3\n      swap2\n      pop\n      pop\n      jump\t// out\n        /* \"#utility.yul\":2018:2126   */\n    tag_56:\n        /* \"#utility.yul\":2095:2119   */\n      tag_113\n        /* \"#utility.yul\":2113:2118   */\n      dup2\n        /* \"#utility.yul\":2095:2119   */\n      tag_48\n      jump\t// in\n    tag_113:\n        /* \"#utility.yul\":2090:2093   */\n      dup3\n        /* \"#utility.yul\":2083:2120   */\n      mstore\n        /* \"#utility.yul\":2018:2126   */\n      pop\n      pop\n      jump\t// out\n        /* \"#utility.yul\":2194:3853   */\n    tag_57:\n        /* \"#utility.yul\":2313:2316   */\n      0x00\n        /* \"#utility.yul\":2349:2353   */\n      0xe0\n        /* \"#utility.yul\":2344:2347   */\n      dup4\n        /* \"#utility.yul\":2340:2354   */\n      add\n        /* \"#utility.yul\":2441:2445   */\n      0x00\n        /* \"#utility.yul\":2434:2439   */\n      dup4\n        /* \"#utility.yul\":2430:2446   */\n      add\n        /* \"#utility.yul\":2424:2447   */\n      mload\n        /* \"#utility.yul\":2494:2497   */\n      dup5\n        /* \"#utility.yul\":2488:2492   */\n      dup3\n        /* \"#utility.yul\":2484:2498   */\n      sub\n        /* \"#utility.yul\":2477:2481   */\n      0x00\n        /* \"#utility.yul\":2472:2475   */\n      dup7\n        /* \"#utility.yul\":2468:2482   */\n      add\n        /* \"#utility.yul\":2461:2499   */\n      mstore\n        /* \"#utility.yul\":2520:2593   */\n      tag_115\n        /* \"#utility.yul\":2588:2592   */\n      dup3\n        /* \"#utility.yul\":2574:2586   */\n      dup3\n        /* \"#utility.yul\":2520:2593   */\n      tag_55\n      jump\t// in\n    tag_115:\n        /* \"#utility.yul\":2512:2593   */\n      swap2\n      pop\n        /* \"#utility.yul\":2364:2604   */\n      pop\n        /* \"#utility.yul\":2691:2695   */\n      0x20\n        /* \"#utility.yul\":2684:2689   */\n      dup4\n        /* \"#utility.yul\":2680:2696   */\n      add\n        /* \"#utility.yul\":2674:2697   */\n      mload\n        /* \"#utility.yul\":2744:2747   */\n      dup5\n        /* \"#utility.yul\":2738:2742   */\n      dup3\n        /* \"#utility.yul\":2734:2748   */\n      sub\n        /* \"#utility.yul\":2727:2731   */\n      0x20\n        /* \"#utility.yul\":2722:2725   */\n      dup7\n        /* \"#utility.yul\":2718:2732   */\n      add\n        /* \"#utility.yul\":2711:2749   */\n      mstore\n        /* \"#utility.yul\":2770:2843   */\n      tag_116\n        /* \"#utility.yul\":2838:2842   */\n      dup3\n        /* \"#utility.yul\":2824:2836   */\n      dup3\n        /* \"#utility.yul\":2770:2843   */\n      tag_55\n      jump\t// in\n    tag_116:\n        /* \"#utility.yul\":2762:2843   */\n      swap2\n      pop\n        /* \"#utility.yul\":2614:2854   */\n      pop\n        /* \"#utility.yul\":2941:2945   */\n      0x40\n        /* \"#utility.yul\":2934:2939   */\n      dup4\n        /* \"#utility.yul\":2930:2946   */\n      add\n        /* \"#utility.yul\":2924:2947   */\n      mload\n        /* \"#utility.yul\":2960:3023   */\n      tag_117\n        /* \"#utility.yul\":3017:3021   */\n      0x40\n        /* \"#utility.yul\":3012:3015   */\n      dup7\n        /* \"#utility.yul\":3008:3022   */\n      add\n        /* \"#utility.yul\":2994:3006   */\n      dup3\n        /* \"#utility.yul\":2960:3023   */\n      tag_56\n      jump\t// in\n    tag_117:\n        /* \"#utility.yul\":2864:3033   */\n      pop\n        /* \"#utility.yul\":3122:3126   */\n      0x60\n        /* \"#utility.yul\":3115:3120   */\n      dup4\n        /* \"#utility.yul\":3111:3127   */\n      add\n        /* \"#utility.yul\":3105:3128   */\n      mload\n        /* \"#utility.yul\":3141:3204   */\n      tag_118\n        /* \"#utility.yul\":3198:3202   */\n      0x60\n        /* \"#utility.yul\":3193:3196   */\n      dup7\n        /* \"#utility.yul\":3189:3203   */\n      add\n        /* \"#utility.yul\":3175:3187   */\n      dup3\n        /* \"#utility.yul\":3141:3204   */\n      tag_56\n      jump\t// in\n    tag_118:\n        /* \"#utility.yul\":3043:3214   */\n      pop\n        /* \"#utility.yul\":3306:3310   */\n      0x80\n        /* \"#utility.yul\":3299:3304   */\n      dup4\n        /* \"#utility.yul\":3295:3311   */\n      add\n        /* \"#utility.yul\":3289:3312   */\n      mload\n        /* \"#utility.yul\":3325:3388   */\n      tag_119\n        /* \"#utility.yul\":3382:3386   */\n      0x80\n        /* \"#utility.yul\":3377:3380   */\n      dup7\n        /* \"#utility.yul\":3373:3387   */\n      add\n        /* \"#utility.yul\":3359:3371   */\n      dup3\n        /* \"#utility.yul\":3325:3388   */\n      tag_56\n      jump\t// in\n    tag_119:\n        /* \"#utility.yul\":3224:3398   */\n      pop\n        /* \"#utility.yul\":3485:3489   */\n      0xa0\n        /* \"#utility.yul\":3478:3483   */\n      dup4\n        /* \"#utility.yul\":3474:3490   */\n      add\n        /* \"#utility.yul\":3468:3491   */\n      mload\n        /* \"#utility.yul\":3538:3541   */\n      dup5\n        /* \"#utility.yul\":3532:3536   */\n      dup3\n        /* \"#utility.yul\":3528:3542   */\n      sub\n        /* \"#utility.yul\":3521:3525   */\n      0xa0\n        /* \"#utility.yul\":3516:3519   */\n      dup7\n        /* \"#utility.yul\":3512:3526   */\n      add\n        /* \"#utility.yul\":3505:3543   */\n      mstore\n        /* \"#utility.yul\":3564:3637   */\n      tag_120\n        /* \"#utility.yul\":3632:3636   */\n      dup3\n        /* \"#utility.yul\":3618:3630   */\n      dup3\n        /* \"#utility.yul\":3564:3637   */\n      tag_55\n      jump\t// in\n    tag_120:\n        /* \"#utility.yul\":3556:3637   */\n      swap2\n      pop\n        /* \"#utility.yul\":3408:3648   */\n      pop\n        /* \"#utility.yul\":3734:3738   */\n      0xc0\n        /* \"#utility.yul\":3727:3732   */\n      dup4\n        /* \"#utility.yul\":3723:3739   */\n      add\n        /* \"#utility.yul\":3717:3740   */\n      mload\n        /* \"#utility.yul\":3753:3816   */\n      tag_121\n        /* \"#utility.yul\":3810:3814   */\n      0xc0\n        /* \"#utility.yul\":3805:3808   */\n      dup7\n        /* \"#utility.yul\":3801:3815   */\n      add\n        /* \"#utility.yul\":3787:3799   */\n      dup3\n        /* \"#utility.yul\":3753:3816   */\n      tag_56\n      jump\t// in\n    tag_121:\n        /* \"#utility.yul\":3658:3826   */\n      pop\n        /* \"#utility.yul\":3843:3847   */\n      dup1\n        /* \"#utility.yul\":3836:3847   */\n      swap2\n      pop\n        /* \"#utility.yul\":2318:3853   */\n      pop\n        /* \"#utility.yul\":2194:3853   */\n      swap3\n      swap2\n      pop\n      pop\n      jump\t// out\n        /* \"#utility.yul\":3859:4232   */\n    tag_11:\n        /* \"#utility.yul\":4002:4006   */\n      0x00\n        /* \"#utility.yul\":4040:4042   */\n      0x20\n        /* \"#utility.yul\":4029:4038   */\n      dup3\n        /* \"#utility.yul\":4025:4043   */\n      add\n        /* \"#utility.yul\":4017:4043   */\n      swap1\n      pop\n        /* \"#utility.yul\":4089:4098   */\n      dup2\n        /* \"#utility.yul\":4083:4087   */\n      dup2\n        /* \"#utility.yul\":4079:4099   */\n      sub\n        /* \"#utility.yul\":4075:4076   */\n      0x00\n        /* \"#utility.yul\":4064:4073   */\n      dup4\n        /* \"#utility.yul\":4060:4077   */\n      add\n        /* \"#utility.yul\":4053:4100   */\n      mstore\n        /* \"#utility.yul\":4117:4225   */\n      tag_123\n        /* \"#utility.yul\":4220:4224   */\n      dup2\n        /* \"#utility.yul\":4211:4217   */\n      dup5\n        /* \"#utility.yul\":4117:4225   */\n      tag_57\n      jump\t// in\n    tag_123:\n        /* \"#utility.yul\":4109:4225   */\n      swap1\n      pop\n        /* \"#utility.yul\":3859:4232   */\n      swap3\n      swap2\n      pop\n      pop\n      jump\t// out\n        /* \"#utility.yul\":4238:4355   */\n    tag_58:\n        /* \"#utility.yul\":4347:4348   */\n      0x00\n        /* \"#utility.yul\":4344:4345   */\n      dup1\n        /* \"#utility.yul\":4337:4349   */\n      revert\n        /* \"#utility.yul\":4361:4478   */\n    tag_59:\n        /* \"#utility.yul\":4470:4471   */\n      0x00\n        /* \"#utility.yul\":4467:4468   */\n      dup1\n        /* \"#utility.yul\":4460:4472   */\n      revert\n        /* \"#utility.yul\":4484:4664   */\n    tag_60:\n        /* \"#utility.yul\":4532:4609   */\n      0x4e487b7100000000000000000000000000000000000000000000000000000000\n        /* \"#utility.yul\":4529:4530   */\n      0x00\n        /* \"#utility.yul\":4522:4610   */\n      mstore\n        /* \"#utility.yul\":4629:4633   */\n      0x41\n        /* \"#utility.yul\":4626:4627   */\n      0x04\n        /* \"#utility.yul\":4619:4634   */\n      mstore\n        /* \"#utility.yul\":4653:4657   */\n      0x24\n        /* \"#utility.yul\":4650:4651   */\n      0x00\n        /* \"#utility.yul\":4643:4658   */\n      revert\n        /* \"#utility.yul\":4670:4951   */\n    tag_61:\n        /* \"#utility.yul\":4753:4780   */\n      tag_128\n        /* \"#utility.yul\":4775:4779   */\n      dup3\n        /* \"#utility.yul\":4753:4780   */\n      tag_54\n      jump\t// in\n    tag_128:\n        /* \"#utility.yul\":4745:4751   */\n      dup2\n        /* \"#utility.yul\":4741:4781   */\n      add\n        /* \"#utility.yul\":4883:4889   */\n      dup2\n        /* \"#utility.yul\":4871:4881   */\n      dup2\n        /* \"#utility.yul\":4868:4890   */\n      lt\n        /* \"#utility.yul\":4847:4865   */\n      0xffffffffffffffff\n        /* \"#utility.yul\":4835:4845   */\n      dup3\n        /* \"#utility.yul\":4832:4866   */\n      gt\n        /* \"#utility.yul\":4829:4891   */\n      or\n        /* \"#utility.yul\":4826:4914   */\n      iszero\n      tag_129\n      jumpi\n        /* \"#utility.yul\":4894:4912   */\n      tag_130\n      tag_60\n      jump\t// in\n    tag_130:\n        /* \"#utility.yul\":4826:4914   */\n    tag_129:\n        /* \"#utility.yul\":4934:4944   */\n      dup1\n        /* \"#utility.yul\":4930:4932   */\n      0x40\n        /* \"#utility.yul\":4923:4945   */\n      mstore\n        /* \"#utility.yul\":4713:4951   */\n      pop\n        /* \"#utility.yul\":4670:4951   */\n      pop\n      pop\n      jump\t// out\n        /* \"#utility.yul\":4957:5086   */\n    tag_62:\n        /* \"#utility.yul\":4991:4997   */\n      0x00\n        /* \"#utility.yul\":5018:5038   */\n      tag_132\n      tag_45\n      jump\t// in\n    tag_132:\n        /* \"#utility.yul\":5008:5038   */\n      swap1\n      pop\n        /* \"#utility.yul\":5047:5080   */\n      tag_133\n        /* \"#utility.yul\":5075:5079   */\n      dup3\n        /* \"#utility.yul\":5067:5073   */\n      dup3\n        /* \"#utility.yul\":5047:5080   */\n      tag_61\n      jump\t// in\n    tag_133:\n        /* \"#utility.yul\":4957:5086   */\n      swap2\n      swap1\n      pop\n      jump\t// out\n        /* \"#utility.yul\":5092:5400   */\n    tag_63:\n        /* \"#utility.yul\":5154:5158   */\n      0x00\n        /* \"#utility.yul\":5244:5262   */\n      0xffffffffffffffff\n        /* \"#utility.yul\":5236:5242   */\n      dup3\n        /* \"#utility.yul\":5233:5263   */\n      gt\n        /* \"#utility.yul\":5230:5286   */\n      iszero\n      tag_135\n      jumpi\n        /* \"#utility.yul\":5266:5284   */\n      tag_136\n      tag_60\n      jump\t// in\n    tag_136:\n        /* \"#utility.yul\":5230:5286   */\n    tag_135:\n        /* \"#utility.yul\":5304:5333   */\n      tag_137\n        /* \"#utility.yul\":5326:5332   */\n      dup3\n        /* \"#utility.yul\":5304:5333   */\n      tag_54\n      jump\t// in\n    tag_137:\n        /* \"#utility.yul\":5296:5333   */\n      swap1\n      pop\n        /* \"#utility.yul\":5388:5392   */\n      0x20\n        /* \"#utility.yul\":5382:5386   */\n      dup2\n        /* \"#utility.yul\":5378:5393   */\n      add\n        /* \"#utility.yul\":5370:5393   */\n      swap1\n      pop\n        /* \"#utility.yul\":5092:5400   */\n      swap2\n      swap1\n      pop\n      jump\t// out\n        /* \"#utility.yul\":5406:5552   */\n    tag_64:\n        /* \"#utility.yul\":5503:5509   */\n      dup3\n        /* \"#utility.yul\":5498:5501   */\n      dup2\n        /* \"#utility.yul\":5493:5496   */\n      dup4\n        /* \"#utility.yul\":5480:5510   */\n      calldatacopy\n        /* \"#utility.yul\":5544:5545   */\n      0x00\n        /* \"#utility.yul\":5535:5541   */\n      dup4\n        /* \"#utility.yul\":5530:5533   */\n      dup4\n        /* \"#utility.yul\":5526:5542   */\n      add\n        /* \"#utility.yul\":5519:5546   */\n      mstore\n        /* \"#utility.yul\":5406:5552   */\n      pop\n      pop\n      pop\n      jump\t// out\n        /* \"#utility.yul\":5558:5983   */\n    tag_65:\n        /* \"#utility.yul\":5636:5641   */\n      0x00\n        /* \"#utility.yul\":5661:5727   */\n      tag_140\n        /* \"#utility.yul\":5677:5726   */\n      tag_141\n        /* \"#utility.yul\":5719:5725   */\n      dup5\n        /* \"#utility.yul\":5677:5726   */\n      tag_63\n      jump\t// in\n    tag_141:\n        /* \"#utility.yul\":5661:5727   */\n      tag_62\n      jump\t// in\n    tag_140:\n        /* \"#utility.yul\":5652:5727   */\n      swap1\n      pop\n        /* \"#utility.yul\":5750:5756   */\n      dup3\n        /* \"#utility.yul\":5743:5748   */\n      dup2\n        /* \"#utility.yul\":5736:5757   */\n      mstore\n        /* \"#utility.yul\":5788:5792   */\n      0x20\n        /* \"#utility.yul\":5781:5786   */\n      dup2\n        /* \"#utility.yul\":5777:5793   */\n      add\n        /* \"#utility.yul\":5826:5829   */\n      dup5\n        /* \"#utility.yul\":5817:5823   */\n      dup5\n        /* \"#utility.yul\":5812:5815   */\n      dup5\n        /* \"#utility.yul\":5808:5824   */\n      add\n        /* \"#utility.yul\":5805:5830   */\n      gt\n        /* \"#utility.yul\":5802:5914   */\n      iszero\n      tag_142\n      jumpi\n        /* \"#utility.yul\":5833:5912   */\n      tag_143\n      tag_59\n      jump\t// in\n    tag_143:\n        /* \"#utility.yul\":5802:5914   */\n    tag_142:\n        /* \"#utility.yul\":5923:5977   */\n      tag_144\n        /* \"#utility.yul\":5970:5976   */\n      dup5\n        /* \"#utility.yul\":5965:5968   */\n      dup3\n        /* \"#utility.yul\":5960:5963   */\n      dup6\n        /* \"#utility.yul\":5923:5977   */\n      tag_64\n      jump\t// in\n    tag_144:\n        /* \"#utility.yul\":5642:5983   */\n      pop\n        /* \"#utility.yul\":5558:5983   */\n      swap4\n      swap3\n      pop\n      pop\n      pop\n      jump\t// out\n        /* \"#utility.yul\":6003:6343   */\n    tag_66:\n        /* \"#utility.yul\":6059:6064   */\n      0x00\n        /* \"#utility.yul\":6108:6111   */\n      dup3\n        /* \"#utility.yul\":6101:6105   */\n      0x1f\n        /* \"#utility.yul\":6093:6099   */\n      dup4\n        /* \"#utility.yul\":6089:6106   */\n      add\n        /* \"#utility.yul\":6085:6112   */\n      slt\n        /* \"#utility.yul\":6075:6197   */\n      tag_146\n      jumpi\n        /* \"#utility.yul\":6116:6195   */\n      tag_147\n      tag_58\n      jump\t// in\n    tag_147:\n        /* \"#utility.yul\":6075:6197   */\n    tag_146:\n        /* \"#utility.yul\":6233:6239   */\n      dup2\n        /* \"#utility.yul\":6220:6240   */\n      calldataload\n        /* \"#utility.yul\":6258:6337   */\n      tag_148\n        /* \"#utility.yul\":6333:6336   */\n      dup5\n        /* \"#utility.yul\":6325:6331   */\n      dup3\n        /* \"#utility.yul\":6318:6322   */\n      0x20\n        /* \"#utility.yul\":6310:6316   */\n      dup7\n        /* \"#utility.yul\":6306:6323   */\n      add\n        /* \"#utility.yul\":6258:6337   */\n      tag_65\n      jump\t// in\n    tag_148:\n        /* \"#utility.yul\":6249:6337   */\n      swap2\n      pop\n        /* \"#utility.yul\":6065:6343   */\n      pop\n        /* \"#utility.yul\":6003:6343   */\n      swap3\n      swap2\n      pop\n      pop\n      jump\t// out\n        /* \"#utility.yul\":6349:7946   */\n    tag_14:\n        /* \"#utility.yul\":6483:6489   */\n      0x00\n        /* \"#utility.yul\":6491:6497   */\n      dup1\n        /* \"#utility.yul\":6499:6505   */\n      0x00\n        /* \"#utility.yul\":6507:6513   */\n      dup1\n        /* \"#utility.yul\":6515:6521   */\n      0x00\n        /* \"#utility.yul\":6523:6529   */\n      dup1\n        /* \"#utility.yul\":6572:6575   */\n      0xc0\n        /* \"#utility.yul\":6560:6569   */\n      dup8\n        /* \"#utility.yul\":6551:6558   */\n      dup10\n        /* \"#utility.yul\":6547:6570   */\n      sub\n        /* \"#utility.yul\":6543:6576   */\n      slt\n        /* \"#utility.yul\":6540:6660   */\n      iszero\n      tag_150\n      jumpi\n        /* \"#utility.yul\":6579:6658   */\n      tag_151\n      tag_46\n      jump\t// in\n    tag_151:\n        /* \"#utility.yul\":6540:6660   */\n    tag_150:\n        /* \"#utility.yul\":6699:6700   */\n      0x00\n        /* \"#utility.yul\":6724:6777   */\n      tag_152\n        /* \"#utility.yul\":6769:6776   */\n      dup10\n        /* \"#utility.yul\":6760:6766   */\n      dup3\n        /* \"#utility.yul\":6749:6758   */\n      dup11\n        /* \"#utility.yul\":6745:6767   */\n      add\n        /* \"#utility.yul\":6724:6777   */\n      tag_50\n      jump\t// in\n    tag_152:\n        /* \"#utility.yul\":6714:6777   */\n      swap7\n      pop\n        /* \"#utility.yul\":6670:6787   */\n      pop\n        /* \"#utility.yul\":6854:6856   */\n      0x20\n        /* \"#utility.yul\":6843:6852   */\n      dup8\n        /* \"#utility.yul\":6839:6857   */\n      add\n        /* \"#utility.yul\":6826:6858   */\n      calldataload\n        /* \"#utility.yul\":6885:6903   */\n      0xffffffffffffffff\n        /* \"#utility.yul\":6877:6883   */\n      dup2\n        /* \"#utility.yul\":6874:6904   */\n      gt\n        /* \"#utility.yul\":6871:6988   */\n      iszero\n      tag_153\n      jumpi\n        /* \"#utility.yul\":6907:6986   */\n      tag_154\n      tag_47\n      jump\t// in\n    tag_154:\n        /* \"#utility.yul\":6871:6988   */\n    tag_153:\n        /* \"#utility.yul\":7012:7075   */\n      tag_155\n        /* \"#utility.yul\":7067:7074   */\n      dup10\n        /* \"#utility.yul\":7058:7064   */\n      dup3\n        /* \"#utility.yul\":7047:7056   */\n      dup11\n        /* \"#utility.yul\":7043:7065   */\n      add\n        /* \"#utility.yul\":7012:7075   */\n      tag_66\n      jump\t// in\n    tag_155:\n        /* \"#utility.yul\":7002:7075   */\n      swap6\n      pop\n        /* \"#utility.yul\":6797:7085   */\n      pop\n        /* \"#utility.yul\":7152:7154   */\n      0x40\n        /* \"#utility.yul\":7141:7150   */\n      dup8\n        /* \"#utility.yul\":7137:7155   */\n      add\n        /* \"#utility.yul\":7124:7156   */\n      calldataload\n        /* \"#utility.yul\":7183:7201   */\n      0xffffffffffffffff\n        /* \"#utility.yul\":7175:7181   */\n      dup2\n        /* \"#utility.yul\":7172:7202   */\n      gt\n        /* \"#utility.yul\":7169:7286   */\n      iszero\n      tag_156\n      jumpi\n        /* \"#utility.yul\":7205:7284   */\n      tag_157\n      tag_47\n      jump\t// in\n    tag_157:\n        /* \"#utility.yul\":7169:7286   */\n    tag_156:\n        /* \"#utility.yul\":7310:7373   */\n      tag_158\n        /* \"#utility.yul\":7365:7372   */\n      dup10\n        /* \"#utility.yul\":7356:7362   */\n      dup3\n        /* \"#utility.yul\":7345:7354   */\n      dup11\n        /* \"#utility.yul\":7341:7363   */\n      add\n        /* \"#utility.yul\":7310:7373   */\n      tag_66\n      jump\t// in\n    tag_158:\n        /* \"#utility.yul\":7300:7373   */\n      swap5\n      pop\n        /* \"#utility.yul\":7095:7383   */\n      pop\n        /* \"#utility.yul\":7422:7424   */\n      0x60\n        /* \"#utility.yul\":7448:7501   */\n      tag_159\n        /* \"#utility.yul\":7493:7500   */\n      dup10\n        /* \"#utility.yul\":7484:7490   */\n      dup3\n        /* \"#utility.yul\":7473:7482   */\n      dup11\n        /* \"#utility.yul\":7469:7491   */\n      add\n        /* \"#utility.yul\":7448:7501   */\n      tag_50\n      jump\t// in\n    tag_159:\n        /* \"#utility.yul\":7438:7501   */\n      swap4\n      pop\n        /* \"#utility.yul\":7393:7511   */\n      pop\n        /* \"#utility.yul\":7578:7581   */\n      0x80\n        /* \"#utility.yul\":7567:7576   */\n      dup8\n        /* \"#utility.yul\":7563:7582   */\n      add\n        /* \"#utility.yul\":7550:7583   */\n      calldataload\n        /* \"#utility.yul\":7610:7628   */\n      0xffffffffffffffff\n        /* \"#utility.yul\":7602:7608   */\n      dup2\n        /* \"#utility.yul\":7599:7629   */\n      gt\n        /* \"#utility.yul\":7596:7713   */\n      iszero\n      tag_160\n      jumpi\n        /* \"#utility.yul\":7632:7711   */\n      tag_161\n      tag_47\n      jump\t// in\n    tag_161:\n        /* \"#utility.yul\":7596:7713   */\n    tag_160:\n        /* \"#utility.yul\":7737:7800   */\n      tag_162\n        /* \"#utility.yul\":7792:7799   */\n      dup10\n        /* \"#utility.yul\":7783:7789   */\n      dup3\n        /* \"#utility.yul\":7772:7781   */\n      dup11\n        /* \"#utility.yul\":7768:7790   */\n      add\n        /* \"#utility.yul\":7737:7800   */\n      tag_66\n      jump\t// in\n    tag_162:\n        /* \"#utility.yul\":7727:7800   */\n      swap3\n      pop\n        /* \"#utility.yul\":7521:7810   */\n      pop\n        /* \"#utility.yul\":7849:7852   */\n      0xa0\n        /* \"#utility.yul\":7876:7929   */\n      tag_163\n        /* \"#utility.yul\":7921:7928   */\n      dup10\n        /* \"#utility.yul\":7912:7918   */\n      dup3\n        /* \"#utility.yul\":7901:7910   */\n      dup11\n        /* \"#utility.yul\":7897:7919   */\n      add\n        /* \"#utility.yul\":7876:7929   */\n      tag_50\n      jump\t// in\n    tag_163:\n        /* \"#utility.yul\":7866:7929   */\n      swap2\n      pop\n        /* \"#utility.yul\":7820:7939   */\n      pop\n        /* \"#utility.yul\":6349:7946   */\n      swap3\n      swap6\n      pop\n      swap3\n      swap6\n      pop\n      swap3\n      swap6\n      jump\t// out\n        /* \"#utility.yul\":7952:8121   */\n    tag_67:\n        /* \"#utility.yul\":8036:8047   */\n      0x00\n        /* \"#utility.yul\":8070:8076   */\n      dup3\n        /* \"#utility.yul\":8065:8068   */\n      dup3\n        /* \"#utility.yul\":8058:8077   */\n      mstore\n        /* \"#utility.yul\":8110:8114   */\n      0x20\n        /* \"#utility.yul\":8105:8108   */\n      dup3\n        /* \"#utility.yul\":8101:8115   */\n      add\n        /* \"#utility.yul\":8086:8115   */\n      swap1\n      pop\n        /* \"#utility.yul\":7952:8121   */\n      swap3\n      swap2\n      pop\n      pop\n      jump\t// out\n        /* \"#utility.yul\":8127:8504   */\n    tag_68:\n        /* \"#utility.yul\":8215:8218   */\n      0x00\n        /* \"#utility.yul\":8243:8282   */\n      tag_166\n        /* \"#utility.yul\":8276:8281   */\n      dup3\n        /* \"#utility.yul\":8243:8282   */\n      tag_51\n      jump\t// in\n    tag_166:\n        /* \"#utility.yul\":8298:8369   */\n      tag_167\n        /* \"#utility.yul\":8362:8368   */\n      dup2\n        /* \"#utility.yul\":8357:8360   */\n      dup6\n        /* \"#utility.yul\":8298:8369   */\n      tag_67\n      jump\t// in\n    tag_167:\n        /* \"#utility.yul\":8291:8369   */\n      swap4\n      pop\n        /* \"#utility.yul\":8378:8443   */\n      tag_168\n        /* \"#utility.yul\":8436:8442   */\n      dup2\n        /* \"#utility.yul\":8431:8434   */\n      dup6\n        /* \"#utility.yul\":8424:8428   */\n      0x20\n        /* \"#utility.yul\":8417:8422   */\n      dup7\n        /* \"#utility.yul\":8413:8429   */\n      add\n        /* \"#utility.yul\":8378:8443   */\n      tag_53\n      jump\t// in\n    tag_168:\n        /* \"#utility.yul\":8468:8497   */\n      tag_169\n        /* \"#utility.yul\":8490:8496   */\n      dup2\n        /* \"#utility.yul\":8468:8497   */\n      tag_54\n      jump\t// in\n    tag_169:\n        /* \"#utility.yul\":8463:8466   */\n      dup5\n        /* \"#utility.yul\":8459:8498   */\n      add\n        /* \"#utility.yul\":8452:8498   */\n      swap2\n      pop\n        /* \"#utility.yul\":8219:8504   */\n      pop\n        /* \"#utility.yul\":8127:8504   */\n      swap3\n      swap2\n      pop\n      pop\n      jump\t// out\n        /* \"#utility.yul\":8510:8628   */\n    tag_69:\n        /* \"#utility.yul\":8597:8621   */\n      tag_171\n        /* \"#utility.yul\":8615:8620   */\n      dup2\n        /* \"#utility.yul\":8597:8621   */\n      tag_48\n      jump\t// in\n    tag_171:\n        /* \"#utility.yul\":8592:8595   */\n      dup3\n        /* \"#utility.yul\":8585:8622   */\n      mstore\n        /* \"#utility.yul\":8510:8628   */\n      pop\n      pop\n      jump\t// out\n        /* \"#utility.yul\":8634:9793   */\n    tag_20:\n        /* \"#utility.yul\":8955:8959   */\n      0x00\n        /* \"#utility.yul\":8993:8996   */\n      0xe0\n        /* \"#utility.yul\":8982:8991   */\n      dup3\n        /* \"#utility.yul\":8978:8997   */\n      add\n        /* \"#utility.yul\":8970:8997   */\n      swap1\n      pop\n        /* \"#utility.yul\":9043:9052   */\n      dup2\n        /* \"#utility.yul\":9037:9041   */\n      dup2\n        /* \"#utility.yul\":9033:9053   */\n      sub\n        /* \"#utility.yul\":9029:9030   */\n      0x00\n        /* \"#utility.yul\":9018:9027   */\n      dup4\n        /* \"#utility.yul\":9014:9031   */\n      add\n        /* \"#utility.yul\":9007:9054   */\n      mstore\n        /* \"#utility.yul\":9071:9149   */\n      tag_173\n        /* \"#utility.yul\":9144:9148   */\n      dup2\n        /* \"#utility.yul\":9135:9141   */\n      dup11\n        /* \"#utility.yul\":9071:9149   */\n      tag_68\n      jump\t// in\n    tag_173:\n        /* \"#utility.yul\":9063:9149   */\n      swap1\n      pop\n        /* \"#utility.yul\":9196:9205   */\n      dup2\n        /* \"#utility.yul\":9190:9194   */\n      dup2\n        /* \"#utility.yul\":9186:9206   */\n      sub\n        /* \"#utility.yul\":9181:9183   */\n      0x20\n        /* \"#utility.yul\":9170:9179   */\n      dup4\n        /* \"#utility.yul\":9166:9184   */\n      add\n        /* \"#utility.yul\":9159:9207   */\n      mstore\n        /* \"#utility.yul\":9224:9302   */\n      tag_174\n        /* \"#utility.yul\":9297:9301   */\n      dup2\n        /* \"#utility.yul\":9288:9294   */\n      dup10\n        /* \"#utility.yul\":9224:9302   */\n      tag_68\n      jump\t// in\n    tag_174:\n        /* \"#utility.yul\":9216:9302   */\n      swap1\n      pop\n        /* \"#utility.yul\":9312:9384   */\n      tag_175\n        /* \"#utility.yul\":9380:9382   */\n      0x40\n        /* \"#utility.yul\":9369:9378   */\n      dup4\n        /* \"#utility.yul\":9365:9383   */\n      add\n        /* \"#utility.yul\":9356:9362   */\n      dup9\n        /* \"#utility.yul\":9312:9384   */\n      tag_69\n      jump\t// in\n    tag_175:\n        /* \"#utility.yul\":9394:9466   */\n      tag_176\n        /* \"#utility.yul\":9462:9464   */\n      0x60\n        /* \"#utility.yul\":9451:9460   */\n      dup4\n        /* \"#utility.yul\":9447:9465   */\n      add\n        /* \"#utility.yul\":9438:9444   */\n      dup8\n        /* \"#utility.yul\":9394:9466   */\n      tag_69\n      jump\t// in\n    tag_176:\n        /* \"#utility.yul\":9476:9549   */\n      tag_177\n        /* \"#utility.yul\":9544:9547   */\n      0x80\n        /* \"#utility.yul\":9533:9542   */\n      dup4\n        /* \"#utility.yul\":9529:9548   */\n      add\n        /* \"#utility.yul\":9520:9526   */\n      dup7\n        /* \"#utility.yul\":9476:9549   */\n      tag_69\n      jump\t// in\n    tag_177:\n        /* \"#utility.yul\":9597:9606   */\n      dup2\n        /* \"#utility.yul\":9591:9595   */\n      dup2\n        /* \"#utility.yul\":9587:9607   */\n      sub\n        /* \"#utility.yul\":9581:9584   */\n      0xa0\n        /* \"#utility.yul\":9570:9579   */\n      dup4\n        /* \"#utility.yul\":9566:9585   */\n      add\n        /* \"#utility.yul\":9559:9608   */\n      mstore\n        /* \"#utility.yul\":9625:9703   */\n      tag_178\n        /* \"#utility.yul\":9698:9702   */\n      dup2\n        /* \"#utility.yul\":9689:9695   */\n      dup6\n        /* \"#utility.yul\":9625:9703   */\n      tag_68\n      jump\t// in\n    tag_178:\n        /* \"#utility.yul\":9617:9703   */\n      swap1\n      pop\n        /* \"#utility.yul\":9713:9786   */\n      tag_179\n        /* \"#utility.yul\":9781:9784   */\n      0xc0\n        /* \"#utility.yul\":9770:9779   */\n      dup4\n        /* \"#utility.yul\":9766:9785   */\n      add\n        /* \"#utility.yul\":9757:9763   */\n      dup5\n        /* \"#utility.yul\":9713:9786   */\n      tag_69\n      jump\t// in\n    tag_179:\n        /* \"#utility.yul\":8634:9793   */\n      swap9\n      swap8\n      pop\n      pop\n      pop\n      pop\n      pop\n      pop\n      pop\n      pop\n      jump\t// out\n        /* \"#utility.yul\":9799:9979   */\n    tag_70:\n        /* \"#utility.yul\":9847:9924   */\n      0x4e487b7100000000000000000000000000000000000000000000000000000000\n        /* \"#utility.yul\":9844:9845   */\n      0x00\n        /* \"#utility.yul\":9837:9925   */\n      mstore\n        /* \"#utility.yul\":9944:9948   */\n      0x22\n        /* \"#utility.yul\":9941:9942   */\n      0x04\n        /* \"#utility.yul\":9934:9949   */\n      mstore\n        /* \"#utility.yul\":9968:9972   */\n      0x24\n        /* \"#utility.yul\":9965:9966   */\n      0x00\n        /* \"#utility.yul\":9958:9973   */\n      revert\n        /* \"#utility.yul\":9985:10305   */\n    tag_30:\n        /* \"#utility.yul\":10029:10035   */\n      0x00\n        /* \"#utility.yul\":10066:10067   */\n      0x02\n        /* \"#utility.yul\":10060:10064   */\n      dup3\n        /* \"#utility.yul\":10056:10068   */\n      div\n        /* \"#utility.yul\":10046:10068   */\n      swap1\n      pop\n        /* \"#utility.yul\":10113:10114   */\n      0x01\n        /* \"#utility.yul\":10107:10111   */\n      dup3\n        /* \"#utility.yul\":10103:10115   */\n      and\n        /* \"#utility.yul\":10134:10152   */\n      dup1\n        /* \"#utility.yul\":10124:10205   */\n      tag_182\n      jumpi\n        /* \"#utility.yul\":10190:10194   */\n      0x7f\n        /* \"#utility.yul\":10182:10188   */\n      dup3\n        /* \"#utility.yul\":10178:10195   */\n      and\n        /* \"#utility.yul\":10168:10195   */\n      swap2\n      pop\n        /* \"#utility.yul\":10124:10205   */\n    tag_182:\n        /* \"#utility.yul\":10252:10254   */\n      0x20\n        /* \"#utility.yul\":10244:10250   */\n      dup3\n        /* \"#utility.yul\":10241:10255   */\n      lt\n        /* \"#utility.yul\":10221:10239   */\n      dup2\n        /* \"#utility.yul\":10218:10256   */\n      sub\n        /* \"#utility.yul\":10215:10299   */\n      tag_183\n      jumpi\n        /* \"#utility.yul\":10271:10289   */\n      tag_184\n      tag_70\n      jump\t// in\n    tag_184:\n        /* \"#utility.yul\":10215:10299   */\n    tag_183:\n        /* \"#utility.yul\":10036:10305   */\n      pop\n        /* \"#utility.yul\":9985:10305   */\n      swap2\n      swap1\n      pop\n      jump\t// out\n        /* \"#utility.yul\":10311:10452   */\n    tag_71:\n        /* \"#utility.yul\":10360:10364   */\n      0x00\n        /* \"#utility.yul\":10383:10386   */\n      dup2\n        /* \"#utility.yul\":10375:10386   */\n      swap1\n      pop\n        /* \"#utility.yul\":10406:10409   */\n      dup2\n        /* \"#utility.yul\":10403:10404   */\n      0x00\n        /* \"#utility.yul\":10396:10410   */\n      mstore\n        /* \"#utility.yul\":10440:10444   */\n      0x20\n        /* \"#utility.yul\":10437:10438   */\n      0x00\n        /* \"#utility.yul\":10427:10445   */\n      keccak256\n        /* \"#utility.yul\":10419:10445   */\n      swap1\n      pop\n        /* \"#utility.yul\":10311:10452   */\n      swap2\n      swap1\n      pop\n      jump\t// out\n        /* \"#utility.yul\":10458:10551   */\n    tag_72:\n        /* \"#utility.yul\":10495:10501   */\n      0x00\n        /* \"#utility.yul\":10542:10544   */\n      0x20\n        /* \"#utility.yul\":10537:10539   */\n      0x1f\n        /* \"#utility.yul\":10530:10535   */\n      dup4\n        /* \"#utility.yul\":10526:10540   */\n      add\n        /* \"#utility.yul\":10522:10545   */\n      div\n        /* \"#utility.yul\":10512:10545   */\n      swap1\n      pop\n        /* \"#utility.yul\":10458:10551   */\n      swap2\n      swap1\n      pop\n      jump\t// out\n        /* \"#utility.yul\":10557:10664   */\n    tag_73:\n        /* \"#utility.yul\":10601:10609   */\n      0x00\n        /* \"#utility.yul\":10651:10656   */\n      dup3\n        /* \"#utility.yul\":10645:10649   */\n      dup3\n        /* \"#utility.yul\":10641:10657   */\n      shl\n        /* \"#utility.yul\":10620:10657   */\n      swap1\n      pop\n        /* \"#utility.yul\":10557:10664   */\n      swap3\n      swap2\n      pop\n      pop\n      jump\t// out\n        /* \"#utility.yul\":10670:11063   */\n    tag_74:\n        /* \"#utility.yul\":10739:10745   */\n      0x00\n        /* \"#utility.yul\":10789:10790   */\n      0x08\n        /* \"#utility.yul\":10777:10787   */\n      dup4\n        /* \"#utility.yul\":10773:10791   */\n      mul\n        /* \"#utility.yul\":10812:10909   */\n      tag_189\n        /* \"#utility.yul\":10842:10908   */\n      0xffffffffffffffffffffffffffffffffffffffffffffffffffffffffffffffff\n        /* \"#utility.yul\":10831:10840   */\n      dup3\n        /* \"#utility.yul\":10812:10909   */\n      tag_73\n      jump\t// in\n    tag_189:\n        /* \"#utility.yul\":10930:10969   */\n      tag_190\n        /* \"#utility.yul\":10960:10968   */\n      dup7\n        /* \"#utility.yul\":10949:10958   */\n      dup4\n        /* \"#utility.yul\":10930:10969   */\n      tag_73\n      jump\t// in\n    tag_190:\n        /* \"#utility.yul\":10918:10969   */\n      swap6\n      pop\n        /* \"#utility.yul\":11002:11006   */\n      dup1\n        /* \"#utility.yul\":10998:11007   */\n      not\n        /* \"#utility.yul\":10991:10996   */\n      dup5\n        /* \"#utility.yul\":10987:11008   */\n      and\n        /* \"#utility.yul\":10978:11008   */\n      swap4\n      pop\n        /* \"#utility.yul\":11051:11055   */\n      dup1\n        /* \"#utility.yul\":11041:11049   */\n      dup7\n        /* \"#utility.yul\":11037:11056   */\n      and\n        /* \"#utility.yul\":11030:11035   */\n      dup5\n        /* \"#utility.yul\":11027:11057   */\n      or\n        /* \"#utility.yul\":11017:11057   */\n      swap3\n      pop\n        /* \"#utility.yul\":10746:11063   */\n      pop\n      pop\n        /* \"#utility.yul\":10670:11063   */\n      swap4\n      swap3\n      pop\n      pop\n      pop\n      jump\t// out\n        /* \"#utility.yul\":11069:11129   */\n    tag_75:\n        /* \"#utility.yul\":11097:11100   */\n      0x00\n        /* \"#utility.yul\":11118:11123   */\n      dup2\n        /* \"#utility.yul\":11111:11123   */\n      swap1\n      pop\n        /* \"#utility.yul\":11069:11129   */\n      swap2\n      swap1\n      pop\n      jump\t// out\n        /* \"#utility.yul\":11135:11277   */\n    tag_76:\n        /* \"#utility.yul\":11185:11194   */\n      0x00\n        /* \"#utility.yul\":11218:11271   */\n      tag_193\n        /* \"#utility.yul\":11236:11270   */\n      tag_194\n        /* \"#utility.yul\":11245:11269   */\n      tag_195\n        /* \"#utility.yul\":11263:11268   */\n      dup5\n        /* \"#utility.yul\":11245:11269   */\n      tag_48\n      jump\t// in\n    tag_195:\n        /* \"#utility.yul\":11236:11270   */\n      tag_75\n      jump\t// in\n    tag_194:\n        /* \"#utility.yul\":11218:11271   */\n      tag_48\n      jump\t// in\n    tag_193:\n        /* \"#utility.yul\":11205:11271   */\n      swap1\n      pop\n        /* \"#utility.yul\":11135:11277   */\n      swap2\n      swap1\n      pop\n      jump\t// out\n        /* \"#utility.yul\":11283:11358   */\n    tag_77:\n        /* \"#utility.yul\":11326:11329   */\n      0x00\n        /* \"#utility.yul\":11347:11352   */\n      dup2\n        /* \"#utility.yul\":11340:11352   */\n      swap1\n      pop\n        /* \"#utility.yul\":11283:11358   */\n      swap2\n      swap1\n      pop\n      jump\t// out\n        /* \"#utility.yul\":11364:11633   */\n    tag_78:\n        /* \"#utility.yul\":11474:11513   */\n      tag_198\n        /* \"#utility.yul\":11505:11512   */\n      dup4\n        /* \"#utility.yul\":11474:11513   */\n      tag_76\n      jump\t// in\n    tag_198:\n        /* \"#utility.yul\":11535:11626   */\n      tag_199\n        /* \"#utility.yul\":11584:11625   */\n      tag_200\n        /* \"#utility.yul\":11608:11624   */\n      dup3\n        /* \"#utility.yul\":11584:11625   */\n      tag_77\n      jump\t// in\n    tag_200:\n        /* \"#utility.yul\":11576:11582   */\n      dup5\n        /* \"#utility.yul\":11569:11573   */\n      dup5\n        /* \"#utility.yul\":11563:11574   */\n      sload\n        /* \"#utility.yul\":11535:11626   */\n      tag_74\n      jump\t// in\n    tag_199:\n        /* \"#utility.yul\":11529:11533   */\n      dup3\n        /* \"#utility.yul\":11522:11627   */\n      sstore\n        /* \"#utility.yul\":11440:11633   */\n      pop\n        /* \"#utility.yul\":11364:11633   */\n      pop\n      pop\n      pop\n      jump\t// out\n        /* \"#utility.yul\":11639:11712   */\n    tag_79:\n        /* \"#utility.yul\":11684:11687   */\n      0x00\n        /* \"#utility.yul\":11639:11712   */\n      swap1\n      jump\t// out\n        /* \"#utility.yul\":11718:11907   */\n    tag_80:\n        /* \"#utility.yul\":11795:11827   */\n      tag_203\n      tag_79\n      jump\t// in\n    tag_203:\n        /* \"#utility.yul\":11836:11901   */\n      tag_204\n        /* \"#utility.yul\":11894:11900   */\n      dup2\n        /* \"#utility.yul\":11886:11892   */\n      dup5\n        /* \"#utility.yul\":11880:11884   */\n      dup5\n        /* \"#utility.yul\":11836:11901   */\n      tag_78\n      jump\t// in\n    tag_204:\n        /* \"#utility.yul\":11771:11907   */\n      pop\n        /* \"#utility.yul\":11718:11907   */\n      pop\n      pop\n      jump\t// out\n        /* \"#utility.yul\":11913:12099   */\n    tag_81:\n        /* \"#utility.yul\":11973:12093   */\n    tag_206:\n        /* \"#utility.yul\":11990:11993   */\n      dup2\n        /* \"#utility.yul\":11983:11988   */\n      dup2\n        /* \"#utility.yul\":11980:11994   */\n      lt\n        /* \"#utility.yul\":11973:12093   */\n      iszero\n      tag_208\n      jumpi\n        /* \"#utility.yul\":12044:12083   */\n      tag_209\n        /* \"#utility.yul\":12081:12082   */\n      0x00\n        /* \"#utility.yul\":12074:12079   */\n      dup3\n        /* \"#utility.yul\":12044:12083   */\n      tag_80\n      jump\t// in\n    tag_209:\n        /* \"#utility.yul\":12017:12018   */\n      0x01\n        /* \"#utility.yul\":12010:12015   */\n      dup2\n        /* \"#utility.yul\":12006:12019   */\n      add\n        /* \"#utility.yul\":11997:12019   */\n      swap1\n      pop\n        /* \"#utility.yul\":11973:12093   */\n      jump(tag_206)\n    tag_208:\n        /* \"#utility.yul\":11913:12099   */\n      pop\n      pop\n      jump\t// out\n        /* \"#utility.yul\":12105:12648   */\n    tag_82:\n        /* \"#utility.yul\":12206:12208   */\n      0x1f\n        /* \"#utility.yul\":12201:12204   */\n      dup3\n        /* \"#utility.yul\":12198:12209   */\n      gt\n        /* \"#utility.yul\":12195:12641   */\n      iszero\n      tag_211\n      jumpi\n        /* \"#utility.yul\":12240:12278   */\n      tag_212\n        /* \"#utility.yul\":12272:12277   */\n      dup2\n        /* \"#utility.yul\":12240:12278   */\n      tag_71\n      jump\t// in\n    tag_212:\n        /* \"#utility.yul\":12324:12353   */\n      tag_213\n        /* \"#utility.yul\":12342:12352   */\n      dup5\n        /* \"#utility.yul\":12324:12353   */\n      tag_72\n      jump\t// in\n    tag_213:\n        /* \"#utility.yul\":12314:12322   */\n      dup2\n        /* \"#utility.yul\":12310:12354   */\n      add\n        /* \"#utility.yul\":12507:12509   */\n      0x20\n        /* \"#utility.yul\":12495:12505   */\n      dup6\n        /* \"#utility.yul\":12492:12510   */\n      lt\n        /* \"#utility.yul\":12489:12538   */\n      iszero\n      tag_214\n      jumpi\n        /* \"#utility.yul\":12528:12536   */\n      dup2\n        /* \"#utility.yul\":12513:12536   */\n      swap1\n      pop\n        /* \"#utility.yul\":12489:12538   */\n    tag_214:\n        /* \"#utility.yul\":12551:12631   */\n      tag_215\n        /* \"#utility.yul\":12607:12629   */\n      tag_216\n        /* \"#utility.yul\":12625:12628   */\n      dup6\n        /* \"#utility.yul\":12607:12629   */\n      tag_72\n      jump\t// in\n    tag_216:\n        /* \"#utility.yul\":12597:12605   */\n      dup4\n        /* \"#utility.yul\":12593:12630   */\n      add\n        /* \"#utility.yul\":12580:12591   */\n      dup3\n        /* \"#utility.yul\":12551:12631   */\n      tag_81\n      jump\t// in\n    tag_215:\n        /* \"#utility.yul\":12210:12641   */\n      pop\n      pop\n        /* \"#utility.yul\":12195:12641   */\n    tag_211:\n        /* \"#utility.yul\":12105:12648   */\n      pop\n      pop\n      pop\n      jump\t// out\n        /* \"#utility.yul\":12654:12771   */\n    tag_83:\n        /* \"#utility.yul\":12708:12716   */\n      0x00\n        /* \"#utility.yul\":12758:12763   */\n      dup3\n        /* \"#utility.yul\":12752:12756   */\n      dup3\n        /* \"#utility.yul\":12748:12764   */\n      shr\n        /* \"#utility.yul\":12727:12764   */\n      swap1\n      pop\n        /* \"#utility.yul\":12654:12771   */\n      swap3\n      swap2\n      pop\n      pop\n      jump\t// out\n        /* \"#utility.yul\":12777:12946   */\n    tag_84:\n        /* \"#utility.yul\":12821:12827   */\n      0x00\n        /* \"#utility.yul\":12854:12905   */\n      tag_219\n        /* \"#utility.yul\":12902:12903   */\n      0x00\n        /* \"#utility.yul\":12898:12904   */\n      not\n        /* \"#utility.yul\":12890:12895   */\n      dup5\n        /* \"#utility.yul\":12887:12888   */\n      0x08\n        /* \"#utility.yul\":12883:12896   */\n      mul\n        /* \"#utility.yul\":12854:12905   */\n      tag_83\n      jump\t// in\n    tag_219:\n        /* \"#utility.yul\":12850:12906   */\n      not\n        /* \"#utility.yul\":12935:12939   */\n      dup1\n        /* \"#utility.yul\":12929:12933   */\n      dup4\n        /* \"#utility.yul\":12925:12940   */\n      and\n        /* \"#utility.yul\":12915:12940   */\n      swap2\n      pop\n        /* \"#utility.yul\":12828:12946   */\n      pop\n        /* \"#utility.yul\":12777:12946   */\n      swap3\n      swap2\n      pop\n      pop\n      jump\t// out\n        /* \"#utility.yul\":12951:13246   */\n    tag_85:\n        /* \"#utility.yul\":13027:13031   */\n      0x00\n        /* \"#utility.yul\":13173:13202   */\n      tag_221\n        /* \"#utility.yul\":13198:13201   */\n      dup4\n        /* \"#utility.yul\":13192:13196   */\n      dup4\n        /* \"#utility.yul\":13173:13202   */\n      tag_84\n      jump\t// in\n    tag_221:\n        /* \"#utility.yul\":13165:13202   */\n      swap2\n      pop\n        /* \"#utility.yul\":13235:13238   */\n      dup3\n        /* \"#utility.yul\":13232:13233   */\n      0x02\n        /* \"#utility.yul\":13228:13239   */\n      mul\n        /* \"#utility.yul\":13222:13226   */\n      dup3\n        /* \"#utility.yul\":13219:13240   */\n      or\n        /* \"#utility.yul\":13211:13240   */\n      swap1\n      pop\n        /* \"#utility.yul\":12951:13246   */\n      swap3\n      swap2\n      pop\n      pop\n      jump\t// out\n        /* \"#utility.yul\":13251:14646   */\n    tag_26:\n        /* \"#utility.yul\":13368:13405   */\n      tag_223\n        /* \"#utility.yul\":13401:13404   */\n      dup3\n        /* \"#utility.yul\":13368:13405   */\n      tag_51\n      jump\t// in\n    tag_223:\n        /* \"#utility.yul\":13470:13488   */\n      0xffffffffffffffff\n        /* \"#utility.yul\":13462:13468   */\n      dup2\n        /* \"#utility.yul\":13459:13489   */\n      gt\n        /* \"#utility.yul\":13456:13512   */\n      iszero\n      tag_224\n      jumpi\n        /* \"#utility.yul\":13492:13510   */\n      tag_225\n      tag_60\n      jump\t// in\n    tag_225:\n        /* \"#utility.yul\":13456:13512   */\n    tag_224:\n        /* \"#utility.yul\":13536:13574   */\n      tag_226\n        /* \"#utility.yul\":13568:13572   */\n      dup3\n        /* \"#utility.yul\":13562:13573   */\n      sload\n        /* \"#utility.yul\":13536:13574   */\n      tag_30\n      jump\t// in\n    tag_226:\n        /* \"#utility.yul\":13621:13688   */\n      tag_227\n        /* \"#utility.yul\":13681:13687   */\n      dup3\n        /* \"#utility.yul\":13673:13679   */\n      dup3\n        /* \"#utility.yul\":13667:13671   */\n      dup6\n        /* \"#utility.yul\":13621:13688   */\n      tag_82\n      jump\t// in\n    tag_227:\n        /* \"#utility.yul\":13715:13716   */\n      0x00\n        /* \"#utility.yul\":13739:13743   */\n      0x20\n        /* \"#utility.yul\":13726:13743   */\n      swap1\n      pop\n        /* \"#utility.yul\":13771:13773   */\n      0x1f\n        /* \"#utility.yul\":13763:13769   */\n      dup4\n        /* \"#utility.yul\":13760:13774   */\n      gt\n        /* \"#utility.yul\":13788:13789   */\n      0x01\n        /* \"#utility.yul\":13783:14401   */\n      dup2\n      eq\n      tag_229\n      jumpi\n        /* \"#utility.yul\":14445:14446   */\n      0x00\n        /* \"#utility.yul\":14462:14468   */\n      dup5\n        /* \"#utility.yul\":14459:14536   */\n      iszero\n      tag_230\n      jumpi\n        /* \"#utility.yul\":14511:14520   */\n      dup3\n        /* \"#utility.yul\":14506:14509   */\n      dup8\n        /* \"#utility.yul\":14502:14521   */\n      add\n        /* \"#utility.yul\":14496:14522   */\n      mload\n        /* \"#utility.yul\":14487:14522   */\n      swap1\n      pop\n        /* \"#utility.yul\":14459:14536   */\n    tag_230:\n        /* \"#utility.yul\":14562:14629   */\n      tag_231\n        /* \"#utility.yul\":14622:14628   */\n      dup6\n        /* \"#utility.yul\":14615:14620   */\n      dup3\n        /* \"#utility.yul\":14562:14629   */\n      tag_85\n      jump\t// in\n    tag_231:\n        /* \"#utility.yul\":14556:14560   */\n      dup7\n        /* \"#utility.yul\":14549:14630   */\n      sstore\n        /* \"#utility.yul\":14418:14640   */\n      pop\n        /* \"#utility.yul\":13753:14640   */\n      jump(tag_228)\n        /* \"#utility.yul\":13783:14401   */\n    tag_229:\n        /* \"#utility.yul\":13835:13839   */\n      0x1f\n        /* \"#utility.yul\":13831:13840   */\n      not\n        /* \"#utility.yul\":13823:13829   */\n      dup5\n        /* \"#utility.yul\":13819:13841   */\n      and\n        /* \"#utility.yul\":13869:13906   */\n      tag_232\n        /* \"#utility.yul\":13901:13905   */\n      dup7\n        /* \"#utility.yul\":13869:13906   */\n      tag_71\n      jump\t// in\n    tag_232:\n        /* \"#utility.yul\":13928:13929   */\n      0x00\n        /* \"#utility.yul\":13942:14150   */\n    tag_233:\n        /* \"#utility.yul\":13956:13963   */\n      dup3\n        /* \"#utility.yul\":13953:13954   */\n      dup2\n        /* \"#utility.yul\":13950:13964   */\n      lt\n        /* \"#utility.yul\":13942:14150   */\n      iszero\n      tag_235\n      jumpi\n        /* \"#utility.yul\":14035:14044   */\n      dup5\n        /* \"#utility.yul\":14030:14033   */\n      dup10\n        /* \"#utility.yul\":14026:14045   */\n      add\n        /* \"#utility.yul\":14020:14046   */\n      mload\n        /* \"#utility.yul\":14012:14018   */\n      dup3\n        /* \"#utility.yul\":14005:14047   */\n      sstore\n        /* \"#utility.yul\":14086:14087   */\n      0x01\n        /* \"#utility.yul\":14078:14084   */\n      dup3\n        /* \"#utility.yul\":14074:14088   */\n      add\n        /* \"#utility.yul\":14064:14088   */\n      swap2\n      pop\n        /* \"#utility.yul\":14133:14135   */\n      0x20\n        /* \"#utility.yul\":14122:14131   */\n      dup6\n        /* \"#utility.yul\":14118:14136   */\n      add\n        /* \"#utility.yul\":14105:14136   */\n      swap5\n      pop\n        /* \"#utility.yul\":13979:13983   */\n      0x20\n        /* \"#utility.yul\":13976:13977   */\n      dup2\n        /* \"#utility.yul\":13972:13984   */\n      add\n        /* \"#utility.yul\":13967:13984   */\n      swap1\n      pop\n        /* \"#utility.yul\":13942:14150   */\n      jump(tag_233)\n    tag_235:\n        /* \"#utility.yul\":14178:14184   */\n      dup7\n        /* \"#utility.yul\":14169:14176   */\n      dup4\n        /* \"#utility.yul\":14166:14185   */\n      lt\n        /* \"#utility.yul\":14163:14342   */\n      iszero\n      tag_236\n      jumpi\n        /* \"#utility.yul\":14236:14245   */\n      dup5\n        /* \"#utility.yul\":14231:14234   */\n      dup10\n        /* \"#utility.yul\":14227:14246   */\n      add\n        /* \"#utility.yul\":14221:14247   */\n      mload\n        /* \"#utility.yul\":14279:14327   */\n      tag_237\n        /* \"#utility.yul\":14321:14325   */\n      0x1f\n        /* \"#utility.yul\":14313:14319   */\n      dup10\n        /* \"#utility.yul\":14309:14326   */\n      and\n        /* \"#utility.yul\":14298:14307   */\n      dup3\n        /* \"#utility.yul\":14279:14327   */\n      tag_84\n      jump\t// in\n    tag_237:\n        /* \"#utility.yul\":14271:14277   */\n      dup4\n        /* \"#utility.yul\":14264:14328   */\n      sstore\n        /* \"#utility.yul\":14186:14342   */\n      pop\n        /* \"#utility.yul\":14163:14342   */\n    tag_236:\n        /* \"#utility.yul\":14388:14389   */\n      0x01\n        /* \"#utility.yul\":14384:14385   */\n      0x02\n        /* \"#utility.yul\":14376:14382   */\n      dup9\n        /* \"#utility.yul\":14372:14386   */\n      mul\n        /* \"#utility.yul\":14368:14390   */\n      add\n        /* \"#utility.yul\":14362:14366   */\n      dup9\n        /* \"#utility.yul\":14355:14391   */\n      sstore\n        /* \"#utility.yul\":13790:14401   */\n      pop\n      pop\n      pop\n        /* \"#utility.yul\":13753:14640   */\n    tag_228:\n      pop\n        /* \"#utility.yul\":13343:14646   */\n      pop\n      pop\n      pop\n        /* \"#utility.yul\":13251:14646   */\n      pop\n      pop\n      jump\t// out\n\n    auxdata: 0xa264697066735822122090107f2490101bb95607f588b42487caffa5717e673a712d31c1573665c97d6c64736f6c63430008120033\n}\n",
				"bytecode": {
					"linkReferences": {},
					"object": "608060405234801561001057600080fd5b50610b9b806100206000396000f3fe608060405234801561001057600080fd5b50600436106100415760003560e01c80636d1884e014610046578063b824fbf014610076578063c332136314610092575b600080fd5b610060600480360381019061005b91906103fc565b6100c8565b60405161006d9190610572565b60405180910390f35b610090600480360381019061008b91906106c9565b6100d5565b005b6100ac60048036038101906100a791906103fc565b61019b565b6040516100bf9796959493929190610803565b60405180910390f35b6100d0610375565b919050565b600083905060004290506040518060e00160405280888152602001878152602001828152602001868152602001838152602001858152602001848152506000808a815260200190815260200160002060008201518160000190816101399190610a93565b50602082015181600101908161014f9190610a93565b5060408201518160020155606082015181600301556080820151816004015560a08201518160050190816101839190610a93565b5060c082015181600601559050505050505050505050565b60006020528060005260406000206000915090508060000180546101be906108b6565b80601f01602080910402602001604051908101604052809291908181526020018280546101ea906108b6565b80156102375780601f1061020c57610100808354040283529160200191610237565b820191906000526020600020905b81548152906001019060200180831161021a57829003601f168201915b50505050509080600101805461024c906108b6565b80601f0160208091040260200160405190810160405280929190818152602001828054610278906108b6565b80156102c55780601f1061029a576101008083540402835291602001916102c5565b820191906000526020600020905b8154815290600101906020018083116102a857829003601f168201915b5050505050908060020154908060030154908060040154908060050180546102ec906108b6565b80601f0160208091040260200160405190810160405280929190818152602001828054610318906108b6565b80156103655780601f1061033a57610100808354040283529160200191610365565b820191906000526020600020905b81548152906001019060200180831161034857829003601f168201915b5050505050908060060154905087565b6040518060e00160405280606081526020016060815260200160008152602001600081526020016000815260200160608152602001600081525090565b6000604051905090565b600080fd5b600080fd5b6000819050919050565b6103d9816103c6565b81146103e457600080fd5b50565b6000813590506103f6816103d0565b92915050565b600060208284031215610412576104116103bc565b5b6000610420848285016103e7565b91505092915050565b600081519050919050565b600082825260208201905092915050565b60005b83811015610463578082015181840152602081019050610448565b60008484015250505050565b6000601f19601f8301169050919050565b600061048b82610429565b6104958185610434565b93506104a5818560208601610445565b6104ae8161046f565b840191505092915050565b6104c2816103c6565b82525050565b600060e08301600083015184820360008601526104e58282610480565b915050602083015184820360208601526104ff8282610480565b915050604083015161051460408601826104b9565b50606083015161052760608601826104b9565b50608083015161053a60808601826104b9565b5060a083015184820360a08601526105528282610480565b91505060c083015161056760c08601826104b9565b508091505092915050565b6000602082019050818103600083015261058c81846104c8565b905092915050565b600080fd5b600080fd5b7f4e487b7100000000000000000000000000000000000000000000000000000000600052604160045260246000fd5b6105d68261046f565b810181811067ffffffffffffffff821117156105f5576105f461059e565b5b80604052505050565b60006106086103b2565b905061061482826105cd565b919050565b600067ffffffffffffffff8211156106345761063361059e565b5b61063d8261046f565b9050602081019050919050565b82818337600083830152505050565b600061066c61066784610619565b6105fe565b90508281526020810184848401111561068857610687610599565b5b61069384828561064a565b509392505050565b600082601f8301126106b0576106af610594565b5b81356106c0848260208601610659565b91505092915050565b60008060008060008060c087890312156106e6576106e56103bc565b5b60006106f489828a016103e7565b965050602087013567ffffffffffffffff811115610715576107146103c1565b5b61072189828a0161069b565b955050604087013567ffffffffffffffff811115610742576107416103c1565b5b61074e89828a0161069b565b945050606061075f89828a016103e7565b935050608087013567ffffffffffffffff8111156107805761077f6103c1565b5b61078c89828a0161069b565b92505060a061079d89828a016103e7565b9150509295509295509295565b600082825260208201905092915050565b60006107c682610429565b6107d081856107aa565b93506107e0818560208601610445565b6107e98161046f565b840191505092915050565b6107fd816103c6565b82525050565b600060e082019050818103600083015261081d818a6107bb565b9050818103602083015261083181896107bb565b905061084060408301886107f4565b61084d60608301876107f4565b61085a60808301866107f4565b81810360a083015261086c81856107bb565b905061087b60c08301846107f4565b98975050505050505050565b7f4e487b7100000000000000000000000000000000000000000000000000000000600052602260045260246000fd5b600060028204905060018216806108ce57607f821691505b6020821081036108e1576108e0610887565b5b50919050565b60008190508160005260206000209050919050565b60006020601f8301049050919050565b600082821b905092915050565b6000600883026109497fffffffffffffffffffffffffffffffffffffffffffffffffffffffffffffffff8261090c565b610953868361090c565b95508019841693508086168417925050509392505050565b6000819050919050565b600061099061098b610986846103c6565b61096b565b6103c6565b9050919050565b6000819050919050565b6109aa83610975565b6109be6109b682610997565b848454610919565b825550505050565b600090565b6109d36109c6565b6109de8184846109a1565b505050565b5b81811015610a02576109f76000826109cb565b6001810190506109e4565b5050565b601f821115610a4757610a18816108e7565b610a21846108fc565b81016020851015610a30578190505b610a44610a3c856108fc565b8301826109e3565b50505b505050565b600082821c905092915050565b6000610a6a60001984600802610a4c565b1980831691505092915050565b6000610a838383610a59565b9150826002028217905092915050565b610a9c82610429565b67ffffffffffffffff811115610ab557610ab461059e565b5b610abf82546108b6565b610aca828285610a06565b600060209050601f831160018114610afd5760008415610aeb578287015190505b610af58582610a77565b865550610b5d565b601f198416610b0b866108e7565b60005b82811015610b3357848901518255600182019150602085019450602081019050610b0e565b86831015610b505784890151610b4c601f891682610a59565b8355505b6001600288020188555050505b50505050505056fea264697066735822122090107f2490101bb95607f588b42487caffa5717e673a712d31c1573665c97d6c64736f6c63430008120033",
					"opcodes": "PUSH1 0x80 PUSH1 0x40 MSTORE CALLVALUE DUP1 ISZERO PUSH2 0x10 JUMPI PUSH1 0x0 DUP1 REVERT JUMPDEST POP PUSH2 0xB9B DUP1 PUSH2 0x20 PUSH1 0x0 CODECOPY PUSH1 0x0 RETURN INVALID PUSH1 0x80 PUSH1 0x40 MSTORE CALLVALUE DUP1 ISZERO PUSH2 0x10 JUMPI PUSH1 0x0 DUP1 REVERT JUMPDEST POP PUSH1 0x4 CALLDATASIZE LT PUSH2 0x41 JUMPI PUSH1 0x0 CALLDATALOAD PUSH1 0xE0 SHR DUP1 PUSH4 0x6D1884E0 EQ PUSH2 0x46 JUMPI DUP1 PUSH4 0xB824FBF0 EQ PUSH2 0x76 JUMPI DUP1 PUSH4 0xC3321363 EQ PUSH2 0x92 JUMPI JUMPDEST PUSH1 0x0 DUP1 REVERT JUMPDEST PUSH2 0x60 PUSH1 0x4 DUP1 CALLDATASIZE SUB DUP2 ADD SWAP1 PUSH2 0x5B SWAP2 SWAP1 PUSH2 0x3FC JUMP JUMPDEST PUSH2 0xC8 JUMP JUMPDEST PUSH1 0x40 MLOAD PUSH2 0x6D SWAP2 SWAP1 PUSH2 0x572 JUMP JUMPDEST PUSH1 0x40 MLOAD DUP1 SWAP2 SUB SWAP1 RETURN JUMPDEST PUSH2 0x90 PUSH1 0x4 DUP1 CALLDATASIZE SUB DUP2 ADD SWAP1 PUSH2 0x8B SWAP2 SWAP1 PUSH2 0x6C9 JUMP JUMPDEST PUSH2 0xD5 JUMP JUMPDEST STOP JUMPDEST PUSH2 0xAC PUSH1 0x4 DUP1 CALLDATASIZE SUB DUP2 ADD SWAP1 PUSH2 0xA7 SWAP2 SWAP1 PUSH2 0x3FC JUMP JUMPDEST PUSH2 0x19B JUMP JUMPDEST PUSH1 0x40 MLOAD PUSH2 0xBF SWAP8 SWAP7 SWAP6 SWAP5 SWAP4 SWAP3 SWAP2 SWAP1 PUSH2 0x803 JUMP JUMPDEST PUSH1 0x40 MLOAD DUP1 SWAP2 SUB SWAP1 RETURN JUMPDEST PUSH2 0xD0 PUSH2 0x375 JUMP JUMPDEST SWAP2 SWAP1 POP JUMP JUMPDEST PUSH1 0x0 DUP4 SWAP1 POP PUSH1 0x0 TIMESTAMP SWAP1 POP PUSH1 0x40 MLOAD DUP1 PUSH1 0xE0 ADD PUSH1 0x40 MSTORE DUP1 DUP9 DUP2 MSTORE PUSH1 0x20 ADD DUP8 DUP2 MSTORE PUSH1 0x20 ADD DUP3 DUP2 MSTORE PUSH1 0x20 ADD DUP7 DUP2 MSTORE PUSH1 0x20 ADD DUP4 DUP2 MSTORE PUSH1 0x20 ADD DUP6 DUP2 MSTORE PUSH1 0x20 ADD DUP5 DUP2 MSTORE POP PUSH1 0x0 DUP1 DUP11 DUP2 MSTORE PUSH1 0x20 ADD SWAP1 DUP2 MSTORE PUSH1 0x20 ADD PUSH1 0x0 KECCAK256 PUSH1 0x0 DUP3 ADD MLOAD DUP2 PUSH1 0x0 ADD SWAP1 DUP2 PUSH2 0x139 SWAP2 SWAP1 PUSH2 0xA93 JUMP JUMPDEST POP PUSH1 0x20 DUP3 ADD MLOAD DUP2 PUSH1 0x1 ADD SWAP1 DUP2 PUSH2 0x14F SWAP2 SWAP1 PUSH2 0xA93 JUMP JUMPDEST POP PUSH1 0x40 DUP3 ADD MLOAD DUP2 PUSH1 0x2 ADD SSTORE PUSH1 0x60 DUP3 ADD MLOAD DUP2 PUSH1 0x3 ADD SSTORE PUSH1 0x80 DUP3 ADD MLOAD DUP2 PUSH1 0x4 ADD SSTORE PUSH1 0xA0 DUP3 ADD MLOAD DUP2 PUSH1 0x5 ADD SWAP1 DUP2 PUSH2 0x183 SWAP2 SWAP1 PUSH2 0xA93 JUMP JUMPDEST POP PUSH1 0xC0 DUP3 ADD MLOAD DUP2 PUSH1 0x6 ADD SSTORE SWAP1 POP POP POP POP POP POP POP POP POP POP JUMP JUMPDEST PUSH1 0x0 PUSH1 0x20 MSTORE DUP1 PUSH1 0x0 MSTORE PUSH1 0x40 PUSH1 0x0 KECCAK256 PUSH1 0x0 SWAP2 POP SWAP1 POP DUP1 PUSH1 0x0 ADD DUP1 SLOAD PUSH2 0x1BE SWAP1 PUSH2 0x8B6 JUMP JUMPDEST DUP1 PUSH1 0x1F ADD PUSH1 0x20 DUP1 SWAP2 DIV MUL PUSH1 0x20 ADD PUSH1 0x40 MLOAD SWAP1 DUP2 ADD PUSH1 0x40 MSTORE DUP1 SWAP3 SWAP2 SWAP1 DUP2 DUP2 MSTORE PUSH1 0x20 ADD DUP3 DUP1 SLOAD PUSH2 0x1EA SWAP1 PUSH2 0x8B6 JUMP JUMPDEST DUP1 ISZERO PUSH2 0x237 JUMPI DUP1 PUSH1 0x1F LT PUSH2 0x20C JUMPI PUSH2 0x100 DUP1 DUP4 SLOAD DIV MUL DUP4 MSTORE SWAP2 PUSH1 0x20 ADD SWAP2 PUSH2 0x237 JUMP JUMPDEST DUP3 ADD SWAP2 SWAP1 PUSH1 0x0 MSTORE PUSH1 0x20 PUSH1 0x0 KECCAK256 SWAP1 JUMPDEST DUP2 SLOAD DUP2 MSTORE SWAP1 PUSH1 0x1 ADD SWAP1 PUSH1 0x20 ADD DUP1 DUP4 GT PUSH2 0x21A JUMPI DUP3 SWAP1 SUB PUSH1 0x1F AND DUP3 ADD SWAP2 JUMPDEST POP POP POP POP POP SWAP1 DUP1 PUSH1 0x1 ADD DUP1 SLOAD PUSH2 0x24C SWAP1 PUSH2 0x8B6 JUMP JUMPDEST DUP1 PUSH1 0x1F ADD PUSH1 0x20 DUP1 SWAP2 DIV MUL PUSH1 0x20 ADD PUSH1 0x40 MLOAD SWAP1 DUP2 ADD PUSH1 0x40 MSTORE DUP1 SWAP3 SWAP2 SWAP1 DUP2 DUP2 MSTORE PUSH1 0x20 ADD DUP3 DUP1 SLOAD PUSH2 0x278 SWAP1 PUSH2 0x8B6 JUMP JUMPDEST DUP1 ISZERO PUSH2 0x2C5 JUMPI DUP1 PUSH1 0x1F LT PUSH2 0x29A JUMPI PUSH2 0x100 DUP1 DUP4 SLOAD DIV MUL DUP4 MSTORE SWAP2 PUSH1 0x20 ADD SWAP2 PUSH2 0x2C5 JUMP JUMPDEST DUP3 ADD SWAP2 SWAP1 PUSH1 0x0 MSTORE PUSH1 0x20 PUSH1 0x0 KECCAK256 SWAP1 JUMPDEST DUP2 SLOAD DUP2 MSTORE SWAP1 PUSH1 0x1 ADD SWAP1 PUSH1 0x20 ADD DUP1 DUP4 GT PUSH2 0x2A8 JUMPI DUP3 SWAP1 SUB PUSH1 0x1F AND DUP3 ADD SWAP2 JUMPDEST POP POP POP POP POP SWAP1 DUP1 PUSH1 0x2 ADD SLOAD SWAP1 DUP1 PUSH1 0x3 ADD SLOAD SWAP1 DUP1 PUSH1 0x4 ADD SLOAD SWAP1 DUP1 PUSH1 0x5 ADD DUP1 SLOAD PUSH2 0x2EC SWAP1 PUSH2 0x8B6 JUMP JUMPDEST DUP1 PUSH1 0x1F ADD PUSH1 0x20 DUP1 SWAP2 DIV MUL PUSH1 0x20 ADD PUSH1 0x40 MLOAD SWAP1 DUP2 ADD PUSH1 0x40 MSTORE DUP1 SWAP3 SWAP2 SWAP1 DUP2 DUP2 MSTORE PUSH1 0x20 ADD DUP3 DUP1 SLOAD PUSH2 0x318 SWAP1 PUSH2 0x8B6 JUMP JUMPDEST DUP1 ISZERO PUSH2 0x365 JUMPI DUP1 PUSH1 0x1F LT PUSH2 0x33A JUMPI PUSH2 0x100 DUP1 DUP4 SLOAD DIV MUL DUP4 MSTORE SWAP2 PUSH1 0x20 ADD SWAP2 PUSH2 0x365 JUMP JUMPDEST DUP3 ADD SWAP2 SWAP1 PUSH1 0x0 MSTORE PUSH1 0x20 PUSH1 0x0 KECCAK256 SWAP1 JUMPDEST DUP2 SLOAD DUP2 MSTORE SWAP1 PUSH1 0x1 ADD SWAP1 PUSH1 0x20 ADD DUP1 DUP4 GT PUSH2 0x348 JUMPI DUP3 SWAP1 SUB PUSH1 0x1F AND DUP3 ADD SWAP2 JUMPDEST POP POP POP POP POP SWAP1 DUP1 PUSH1 0x6 ADD SLOAD SWAP1 POP DUP8 JUMP JUMPDEST PUSH1 0x40 MLOAD DUP1 PUSH1 0xE0 ADD PUSH1 0x40 MSTORE DUP1 PUSH1 0x60 DUP2 MSTORE PUSH1 0x20 ADD PUSH1 0x60 DUP2 MSTORE PUSH1 0x20 ADD PUSH1 0x0 DUP2 MSTORE PUSH1 0x20 ADD PUSH1 0x0 DUP2 MSTORE PUSH1 0x20 ADD PUSH1 0x0 DUP2 MSTORE PUSH1 0x20 ADD PUSH1 0x60 DUP2 MSTORE PUSH1 0x20 ADD PUSH1 0x0 DUP2 MSTORE POP SWAP1 JUMP JUMPDEST PUSH1 0x0 PUSH1 0x40 MLOAD SWAP1 POP SWAP1 JUMP JUMPDEST PUSH1 0x0 DUP1 REVERT JUMPDEST PUSH1 0x0 DUP1 REVERT JUMPDEST PUSH1 0x0 DUP2 SWAP1 POP SWAP2 SWAP1 POP JUMP JUMPDEST PUSH2 0x3D9 DUP2 PUSH2 0x3C6 JUMP JUMPDEST DUP2 EQ PUSH2 0x3E4 JUMPI PUSH1 0x0 DUP1 REVERT JUMPDEST POP JUMP JUMPDEST PUSH1 0x0 DUP2 CALLDATALOAD SWAP1 POP PUSH2 0x3F6 DUP2 PUSH2 0x3D0 JUMP JUMPDEST SWAP3 SWAP2 POP POP JUMP JUMPDEST PUSH1 0x0 PUSH1 0x20 DUP3 DUP5 SUB SLT ISZERO PUSH2 0x412 JUMPI PUSH2 0x411 PUSH2 0x3BC JUMP JUMPDEST JUMPDEST PUSH1 0x0 PUSH2 0x420 DUP5 DUP3 DUP6 ADD PUSH2 0x3E7 JUMP JUMPDEST SWAP2 POP POP SWAP3 SWAP2 POP POP JUMP JUMPDEST PUSH1 0x0 DUP2 MLOAD SWAP1 POP SWAP2 SWAP1 POP JUMP JUMPDEST PUSH1 0x0 DUP3 DUP3 MSTORE PUSH1 0x20 DUP3 ADD SWAP1 POP SWAP3 SWAP2 POP POP JUMP JUMPDEST PUSH1 0x0 JUMPDEST DUP4 DUP2 LT ISZERO PUSH2 0x463 JUMPI DUP1 DUP3 ADD MLOAD DUP2 DUP5 ADD MSTORE PUSH1 0x20 DUP2 ADD SWAP1 POP PUSH2 0x448 JUMP JUMPDEST PUSH1 0x0 DUP5 DUP5 ADD MSTORE POP POP POP POP JUMP JUMPDEST PUSH1 0x0 PUSH1 0x1F NOT PUSH1 0x1F DUP4 ADD AND SWAP1 POP SWAP2 SWAP1 POP JUMP JUMPDEST PUSH1 0x0 PUSH2 0x48B DUP3 PUSH2 0x429 JUMP JUMPDEST PUSH2 0x495 DUP2 DUP6 PUSH2 0x434 JUMP JUMPDEST SWAP4 POP PUSH2 0x4A5 DUP2 DUP6 PUSH1 0x20 DUP7 ADD PUSH2 0x445 JUMP JUMPDEST PUSH2 0x4AE DUP2 PUSH2 0x46F JUMP JUMPDEST DUP5 ADD SWAP2 POP POP SWAP3 SWAP2 POP POP JUMP JUMPDEST PUSH2 0x4C2 DUP2 PUSH2 0x3C6 JUMP JUMPDEST DUP3 MSTORE POP POP JUMP JUMPDEST PUSH1 0x0 PUSH1 0xE0 DUP4 ADD PUSH1 0x0 DUP4 ADD MLOAD DUP5 DUP3 SUB PUSH1 0x0 DUP7 ADD MSTORE PUSH2 0x4E5 DUP3 DUP3 PUSH2 0x480 JUMP JUMPDEST SWAP2 POP POP PUSH1 0x20 DUP4 ADD MLOAD DUP5 DUP3 SUB PUSH1 0x20 DUP7 ADD MSTORE PUSH2 0x4FF DUP3 DUP3 PUSH2 0x480 JUMP JUMPDEST SWAP2 POP POP PUSH1 0x40 DUP4 ADD MLOAD PUSH2 0x514 PUSH1 0x40 DUP7 ADD DUP3 PUSH2 0x4B9 JUMP JUMPDEST POP PUSH1 0x60 DUP4 ADD MLOAD PUSH2 0x527 PUSH1 0x60 DUP7 ADD DUP3 PUSH2 0x4B9 JUMP JUMPDEST POP PUSH1 0x80 DUP4 ADD MLOAD PUSH2 0x53A PUSH1 0x80 DUP7 ADD DUP3 PUSH2 0x4B9 JUMP JUMPDEST POP PUSH1 0xA0 DUP4 ADD MLOAD DUP5 DUP3 SUB PUSH1 0xA0 DUP7 ADD MSTORE PUSH2 0x552 DUP3 DUP3 PUSH2 0x480 JUMP JUMPDEST SWAP2 POP POP PUSH1 0xC0 DUP4 ADD MLOAD PUSH2 0x567 PUSH1 0xC0 DUP7 ADD DUP3 PUSH2 0x4B9 JUMP JUMPDEST POP DUP1 SWAP2 POP POP SWAP3 SWAP2 POP POP JUMP JUMPDEST PUSH1 0x0 PUSH1 0x20 DUP3 ADD SWAP1 POP DUP2 DUP2 SUB PUSH1 0x0 DUP4 ADD MSTORE PUSH2 0x58C DUP2 DUP5 PUSH2 0x4C8 JUMP JUMPDEST SWAP1 POP SWAP3 SWAP2 POP POP JUMP JUMPDEST PUSH1 0x0 DUP1 REVERT JUMPDEST PUSH1 0x0 DUP1 REVERT JUMPDEST PUSH32 0x4E487B7100000000000000000000000000000000000000000000000000000000 PUSH1 0x0 MSTORE PUSH1 0x41 PUSH1 0x4 MSTORE PUSH1 0x24 PUSH1 0x0 REVERT JUMPDEST PUSH2 0x5D6 DUP3 PUSH2 0x46F JUMP JUMPDEST DUP2 ADD DUP2 DUP2 LT PUSH8 0xFFFFFFFFFFFFFFFF DUP3 GT OR ISZERO PUSH2 0x5F5 JUMPI PUSH2 0x5F4 PUSH2 0x59E JUMP JUMPDEST JUMPDEST DUP1 PUSH1 0x40 MSTORE POP POP POP JUMP JUMPDEST PUSH1 0x0 PUSH2 0x608 PUSH2 0x3B2 JUMP JUMPDEST SWAP1 POP PUSH2 0x614 DUP3 DUP3 PUSH2 0x5CD JUMP JUMPDEST SWAP2 SWAP1 POP JUMP JUMPDEST PUSH1 0x0 PUSH8 0xFFFFFFFFFFFFFFFF DUP3 GT ISZERO PUSH2 0x634 JUMPI PUSH2 0x633 PUSH2 0x59E JUMP JUMPDEST JUMPDEST PUSH2 0x63D DUP3 PUSH2 0x46F JUMP JUMPDEST SWAP1 POP PUSH1 0x20 DUP2 ADD SWAP1 POP SWAP2 SWAP1 POP JUMP JUMPDEST DUP3 DUP2 DUP4 CALLDATACOPY PUSH1 0x0 DUP4 DUP4 ADD MSTORE POP POP POP JUMP JUMPDEST PUSH1 0x0 PUSH2 0x66C PUSH2 0x667 DUP5 PUSH2 0x619 JUMP JUMPDEST PUSH2 0x5FE JUMP JUMPDEST SWAP1 POP DUP3 DUP2 MSTORE PUSH1 0x20 DUP2 ADD DUP5 DUP5 DUP5 ADD GT ISZERO PUSH2 0x688 JUMPI PUSH2 0x687 PUSH2 0x599 JUMP JUMPDEST JUMPDEST PUSH2 0x693 DUP5 DUP3 DUP6 PUSH2 0x64A JUMP JUMPDEST POP SWAP4 SWAP3 POP POP POP JUMP JUMPDEST PUSH1 0x0 DUP3 PUSH1 0x1F DUP4 ADD SLT PUSH2 0x6B0 JUMPI PUSH2 0x6AF PUSH2 0x594 JUMP JUMPDEST JUMPDEST DUP2 CALLDATALOAD PUSH2 0x6C0 DUP5 DUP3 PUSH1 0x20 DUP7 ADD PUSH2 0x659 JUMP JUMPDEST SWAP2 POP POP SWAP3 SWAP2 POP POP JUMP JUMPDEST PUSH1 0x0 DUP1 PUSH1 0x0 DUP1 PUSH1 0x0 DUP1 PUSH1 0xC0 DUP8 DUP10 SUB SLT ISZERO PUSH2 0x6E6 JUMPI PUSH2 0x6E5 PUSH2 0x3BC JUMP JUMPDEST JUMPDEST PUSH1 0x0 PUSH2 0x6F4 DUP10 DUP3 DUP11 ADD PUSH2 0x3E7 JUMP JUMPDEST SWAP7 POP POP PUSH1 0x20 DUP8 ADD CALLDATALOAD PUSH8 0xFFFFFFFFFFFFFFFF DUP2 GT ISZERO PUSH2 0x715 JUMPI PUSH2 0x714 PUSH2 0x3C1 JUMP JUMPDEST JUMPDEST PUSH2 0x721 DUP10 DUP3 DUP11 ADD PUSH2 0x69B JUMP JUMPDEST SWAP6 POP POP PUSH1 0x40 DUP8 ADD CALLDATALOAD PUSH8 0xFFFFFFFFFFFFFFFF DUP2 GT ISZERO PUSH2 0x742 JUMPI PUSH2 0x741 PUSH2 0x3C1 JUMP JUMPDEST JUMPDEST PUSH2 0x74E DUP10 DUP3 DUP11 ADD PUSH2 0x69B JUMP JUMPDEST SWAP5 POP POP PUSH1 0x60 PUSH2 0x75F DUP10 DUP3 DUP11 ADD PUSH2 0x3E7 JUMP JUMPDEST SWAP4 POP POP PUSH1 0x80 DUP8 ADD CALLDATALOAD PUSH8 0xFFFFFFFFFFFFFFFF DUP2 GT ISZERO PUSH2 0x780 JUMPI PUSH2 0x77F PUSH2 0x3C1 JUMP JUMPDEST JUMPDEST PUSH2 0x78C DUP10 DUP3 DUP11 ADD PUSH2 0x69B JUMP JUMPDEST SWAP3 POP POP PUSH1 0xA0 PUSH2 0x79D DUP10 DUP3 DUP11 ADD PUSH2 0x3E7 JUMP JUMPDEST SWAP2 POP POP SWAP3 SWAP6 POP SWAP3 SWAP6 POP SWAP3 SWAP6 JUMP JUMPDEST PUSH1 0x0 DUP3 DUP3 MSTORE PUSH1 0x20 DUP3 ADD SWAP1 POP SWAP3 SWAP2 POP POP JUMP JUMPDEST PUSH1 0x0 PUSH2 0x7C6 DUP3 PUSH2 0x429 JUMP JUMPDEST PUSH2 0x7D0 DUP2 DUP6 PUSH2 0x7AA JUMP JUMPDEST SWAP4 POP PUSH2 0x7E0 DUP2 DUP6 PUSH1 0x20 DUP7 ADD PUSH2 0x445 JUMP JUMPDEST PUSH2 0x7E9 DUP2 PUSH2 0x46F JUMP JUMPDEST DUP5 ADD SWAP2 POP POP SWAP3 SWAP2 POP POP JUMP JUMPDEST PUSH2 0x7FD DUP2 PUSH2 0x3C6 JUMP JUMPDEST DUP3 MSTORE POP POP JUMP JUMPDEST PUSH1 0x0 PUSH1 0xE0 DUP3 ADD SWAP1 POP DUP2 DUP2 SUB PUSH1 0x0 DUP4 ADD MSTORE PUSH2 0x81D DUP2 DUP11 PUSH2 0x7BB JUMP JUMPDEST SWAP1 POP DUP2 DUP2 SUB PUSH1 0x20 DUP4 ADD MSTORE PUSH2 0x831 DUP2 DUP10 PUSH2 0x7BB JUMP JUMPDEST SWAP1 POP PUSH2 0x840 PUSH1 0x40 DUP4 ADD DUP9 PUSH2 0x7F4 JUMP JUMPDEST PUSH2 0x84D PUSH1 0x60 DUP4 ADD DUP8 PUSH2 0x7F4 JUMP JUMPDEST PUSH2 0x85A PUSH1 0x80 DUP4 ADD DUP7 PUSH2 0x7F4 JUMP JUMPDEST DUP2 DUP2 SUB PUSH1 0xA0 DUP4 ADD MSTORE PUSH2 0x86C DUP2 DUP6 PUSH2 0x7BB JUMP JUMPDEST SWAP1 POP PUSH2 0x87B PUSH1 0xC0 DUP4 ADD DUP5 PUSH2 0x7F4 JUMP JUMPDEST SWAP9 SWAP8 POP POP POP POP POP POP POP POP JUMP JUMPDEST PUSH32 0x4E487B7100000000000000000000000000000000000000000000000000000000 PUSH1 0x0 MSTORE PUSH1 0x22 PUSH1 0x4 MSTORE PUSH1 0x24 PUSH1 0x0 REVERT JUMPDEST PUSH1 0x0 PUSH1 0x2 DUP3 DIV SWAP1 POP PUSH1 0x1 DUP3 AND DUP1 PUSH2 0x8CE JUMPI PUSH1 0x7F DUP3 AND SWAP2 POP JUMPDEST PUSH1 0x20 DUP3 LT DUP2 SUB PUSH2 0x8E1 JUMPI PUSH2 0x8E0 PUSH2 0x887 JUMP JUMPDEST JUMPDEST POP SWAP2 SWAP1 POP JUMP JUMPDEST PUSH1 0x0 DUP2 SWAP1 POP DUP2 PUSH1 0x0 MSTORE PUSH1 0x20 PUSH1 0x0 KECCAK256 SWAP1 POP SWAP2 SWAP1 POP JUMP JUMPDEST PUSH1 0x0 PUSH1 0x20 PUSH1 0x1F DUP4 ADD DIV SWAP1 POP SWAP2 SWAP1 POP JUMP JUMPDEST PUSH1 0x0 DUP3 DUP3 SHL SWAP1 POP SWAP3 SWAP2 POP POP JUMP JUMPDEST PUSH1 0x0 PUSH1 0x8 DUP4 MUL PUSH2 0x949 PUSH32 0xFFFFFFFFFFFFFFFFFFFFFFFFFFFFFFFFFFFFFFFFFFFFFFFFFFFFFFFFFFFFFFFF DUP3 PUSH2 0x90C JUMP JUMPDEST PUSH2 0x953 DUP7 DUP4 PUSH2 0x90C JUMP JUMPDEST SWAP6 POP DUP1 NOT DUP5 AND SWAP4 POP DUP1 DUP7 AND DUP5 OR SWAP3 POP POP POP SWAP4 SWAP3 POP POP POP JUMP JUMPDEST PUSH1 0x0 DUP2 SWAP1 POP SWAP2 SWAP1 POP JUMP JUMPDEST PUSH1 0x0 PUSH2 0x990 PUSH2 0x98B PUSH2 0x986 DUP5 PUSH2 0x3C6 JUMP JUMPDEST PUSH2 0x96B JUMP JUMPDEST PUSH2 0x3C6 JUMP JUMPDEST SWAP1 POP SWAP2 SWAP1 POP JUMP JUMPDEST PUSH1 0x0 DUP2 SWAP1 POP SWAP2 SWAP1 POP JUMP JUMPDEST PUSH2 0x9AA DUP4 PUSH2 0x975 JUMP JUMPDEST PUSH2 0x9BE PUSH2 0x9B6 DUP3 PUSH2 0x997 JUMP JUMPDEST DUP5 DUP5 SLOAD PUSH2 0x919 JUMP JUMPDEST DUP3 SSTORE POP POP POP POP JUMP JUMPDEST PUSH1 0x0 SWAP1 JUMP JUMPDEST PUSH2 0x9D3 PUSH2 0x9C6 JUMP JUMPDEST PUSH2 0x9DE DUP2 DUP5 DUP5 PUSH2 0x9A1 JUMP JUMPDEST POP POP POP JUMP JUMPDEST JUMPDEST DUP2 DUP2 LT ISZERO PUSH2 0xA02 JUMPI PUSH2 0x9F7 PUSH1 0x0 DUP3 PUSH2 0x9CB JUMP JUMPDEST PUSH1 0x1 DUP2 ADD SWAP1 POP PUSH2 0x9E4 JUMP JUMPDEST POP POP JUMP JUMPDEST PUSH1 0x1F DUP3 GT ISZERO PUSH2 0xA47 JUMPI PUSH2 0xA18 DUP2 PUSH2 0x8E7 JUMP JUMPDEST PUSH2 0xA21 DUP5 PUSH2 0x8FC JUMP JUMPDEST DUP2 ADD PUSH1 0x20 DUP6 LT ISZERO PUSH2 0xA30 JUMPI DUP2 SWAP1 POP JUMPDEST PUSH2 0xA44 PUSH2 0xA3C DUP6 PUSH2 0x8FC JUMP JUMPDEST DUP4 ADD DUP3 PUSH2 0x9E3 JUMP JUMPDEST POP POP JUMPDEST POP POP POP JUMP JUMPDEST PUSH1 0x0 DUP3 DUP3 SHR SWAP1 POP SWAP3 SWAP2 POP POP JUMP JUMPDEST PUSH1 0x0 PUSH2 0xA6A PUSH1 0x0 NOT DUP5 PUSH1 0x8 MUL PUSH2 0xA4C JUMP JUMPDEST NOT DUP1 DUP4 AND SWAP2 POP POP SWAP3 SWAP2 POP POP JUMP JUMPDEST PUSH1 0x0 PUSH2 0xA83 DUP4 DUP4 PUSH2 0xA59 JUMP JUMPDEST SWAP2 POP DUP3 PUSH1 0x2 MUL DUP3 OR SWAP1 POP SWAP3 SWAP2 POP POP JUMP JUMPDEST PUSH2 0xA9C DUP3 PUSH2 0x429 JUMP JUMPDEST PUSH8 0xFFFFFFFFFFFFFFFF DUP2 GT ISZERO PUSH2 0xAB5 JUMPI PUSH2 0xAB4 PUSH2 0x59E JUMP JUMPDEST JUMPDEST PUSH2 0xABF DUP3 SLOAD PUSH2 0x8B6 JUMP JUMPDEST PUSH2 0xACA DUP3 DUP3 DUP6 PUSH2 0xA06 JUMP JUMPDEST PUSH1 0x0 PUSH1 0x20 SWAP1 POP PUSH1 0x1F DUP4 GT PUSH1 0x1 DUP2 EQ PUSH2 0xAFD JUMPI PUSH1 0x0 DUP5 ISZERO PUSH2 0xAEB JUMPI DUP3 DUP8 ADD MLOAD SWAP1 POP JUMPDEST PUSH2 0xAF5 DUP6 DUP3 PUSH2 0xA77 JUMP JUMPDEST DUP7 SSTORE POP PUSH2 0xB5D JUMP JUMPDEST PUSH1 0x1F NOT DUP5 AND PUSH2 0xB0B DUP7 PUSH2 0x8E7 JUMP JUMPDEST PUSH1 0x0 JUMPDEST DUP3 DUP2 LT ISZERO PUSH2 0xB33 JUMPI DUP5 DUP10 ADD MLOAD DUP3 SSTORE PUSH1 0x1 DUP3 ADD SWAP2 POP PUSH1 0x20 DUP6 ADD SWAP5 POP PUSH1 0x20 DUP2 ADD SWAP1 POP PUSH2 0xB0E JUMP JUMPDEST DUP7 DUP4 LT ISZERO PUSH2 0xB50 JUMPI DUP5 DUP10 ADD MLOAD PUSH2 0xB4C PUSH1 0x1F DUP10 AND DUP3 PUSH2 0xA59 JUMP JUMPDEST DUP4 SSTORE POP JUMPDEST PUSH1 0x1 PUSH1 0x2 DUP9 MUL ADD DUP9 SSTORE POP POP POP JUMPDEST POP POP POP POP POP POP JUMP INVALID LOG2 PUSH5 0x6970667358 0x22 SLT KECCAK256 SWAP1 LT PUSH32 0x2490101BB95607F588B42487CAFFA5717E673A712D31C1573665C97D6C64736F PUSH13 0x63430008120033000000000000 "
				},
				"gasEstimates": {
					"creation": {
						"codeDepositCost": "594200",
						"executionCost": "625",
						"totalCost": "594825"
					},
					"external": {
						"CreateEvent(uint256,string,string,uint256,string,uint256)": "infinite",
						"eventData(uint256)": "infinite",
						"getEvent(uint256)": "infinite"
					}
				},
				"methodIdentifiers": {
					"CreateEvent(uint256,string,string,uint256,string,uint256)": "b824fbf0",
					"eventData(uint256)": "c3321363",
					"getEvent(uint256)": "6d1884e0"
				}
			},
			"storageLayout": {
				"storage": [
					{
						"astId": 21,
						"contract": "contracts/event_org.sol:eventorg",
						"label": "eventData",
						"offset": 0,
						"slot": "0",
						"type": "t_mapping(t_uint256,t_struct(eventInfo)16_storage)"
					}
				],
				"types": {
					"t_mapping(t_uint256,t_struct(eventInfo)16_storage)": {
						"encoding": "mapping",
						"key": "t_uint256",
						"label": "mapping(uint256 => struct eventorg.eventInfo)",
						"numberOfBytes": "32",
						"value": "t_struct(eventInfo)16_storage"
					},
					"t_string_storage": {
						"encoding": "bytes",
						"label": "string",
						"numberOfBytes": "32"
					},
					"t_struct(eventInfo)16_storage": {
						"encoding": "inplace",
						"label": "struct eventorg.eventInfo",
						"members": [
							{
								"astId": 3,
								"contract": "contracts/event_org.sol:eventorg",
								"label": "organiser",
								"offset": 0,
								"slot": "0",
								"type": "t_string_storage"
							},
							{
								"astId": 5,
								"contract": "contracts/event_org.sol:eventorg",
								"label": "eventname",
								"offset": 0,
								"slot": "1",
								"type": "t_string_storage"
							},
							{
								"astId": 7,
								"contract": "contracts/event_org.sol:eventorg",
								"label": "eventdate",
								"offset": 0,
								"slot": "2",
								"type": "t_uint256"
							},
							{
								"astId": 9,
								"contract": "contracts/event_org.sol:eventorg",
								"label": "eventticket",
								"offset": 0,
								"slot": "3",
								"type": "t_uint256"
							},
							{
								"astId": 11,
								"contract": "contracts/event_org.sol:eventorg",
								"label": "eventRemticket",
								"offset": 0,
								"slot": "4",
								"type": "t_uint256"
							},
							{
								"astId": 13,
								"contract": "contracts/event_org.sol:eventorg",
								"label": "evnetcity",
								"offset": 0,
								"slot": "5",
								"type": "t_string_storage"
							},
							{
								"astId": 15,
								"contract": "contracts/event_org.sol:eventorg",
								"label": "eventfee",
								"offset": 0,
								"slot": "6",
								"type": "t_uint256"
							}
						],
						"numberOfBytes": "224"
					},
					"t_uint256": {
						"encoding": "inplace",
						"label": "uint256",
						"numberOfBytes": "32"
					}
				}
			},
			"userdoc": {
				"kind": "user",
				"methods": {},
				"version": 1
			}
		}
	}
}