{
	"contracts/freelancing.sol": {
		"freelancing": {
			"abi": [
				{
					"inputs": [],
					"name": "TotalProjetc",
					"outputs": [
						{
							"internalType": "uint256",
							"name": "",
							"type": "uint256"
						}
					],
					"stateMutability": "view",
					"type": "function"
				},
				{
					"inputs": [
						{
							"internalType": "string",
							"name": "project",
							"type": "string"
						},
						{
							"internalType": "string",
							"name": "description",
							"type": "string"
						},
						{
							"internalType": "uint256",
							"name": "amount",
							"type": "uint256"
						},
						{
							"internalType": "uint256",
							"name": "timelimit",
							"type": "uint256"
						}
					],
					"name": "client",
					"outputs": [],
					"stateMutability": "nonpayable",
					"type": "function"
				},
				{
					"inputs": [
						{
							"internalType": "uint256",
							"name": "clicent_id",
							"type": "uint256"
						},
						{
							"internalType": "uint256",
							"name": "lancer_id",
							"type": "uint256"
						}
					],
					"name": "freelancer",
					"outputs": [],
					"stateMutability": "payable",
					"type": "function"
				},
				{
					"inputs": [
						{
							"internalType": "uint256",
							"name": "clicentID",
							"type": "uint256"
						}
					],
					"name": "getClicent",
					"outputs": [
						{
							"internalType": "address",
							"name": "",
							"type": "address"
						},
						{
							"internalType": "string",
							"name": "",
							"type": "string"
						},
						{
							"internalType": "string",
							"name": "",
							"type": "string"
						},
						{
							"internalType": "uint256",
							"name": "",
							"type": "uint256"
						},
						{
							"internalType": "uint256",
							"name": "",
							"type": "uint256"
						},
						{
							"internalType": "uint256[]",
							"name": "",
							"type": "uint256[]"
						},
						{
							"internalType": "enum freelancing.ScheduleState",
							"name": "",
							"type": "uint8"
						}
					],
					"stateMutability": "view",
					"type": "function"
				},
				{
					"inputs": [
						{
							"internalType": "uint256",
							"name": "u_id",
							"type": "uint256"
						}
					],
					"name": "getFreelancer",
					"outputs": [
						{
							"internalType": "uint256[]",
							"name": "",
							"type": "uint256[]"
						},
						{
							"internalType": "uint256",
							"name": "",
							"type": "uint256"
						},
						{
							"internalType": "enum freelancing.ScheduleState",
							"name": "",
							"type": "uint8"
						},
						{
							"internalType": "address",
							"name": "",
							"type": "address"
						}
					],
					"stateMutability": "view",
					"type": "function"
				}
			],
			"devdoc": {
				"kind": "dev",
				"methods": {},
				"version": 1
			},
			"evm": {
				"assembly": "    /* \"contracts/freelancing.sol\":72:3339  contract freelancing{... */\n  mstore(0x40, 0x80)\n  callvalue\n  dup1\n  iszero\n  tag_1\n  jumpi\n  0x00\n  dup1\n  revert\ntag_1:\n  pop\n  dataSize(sub_0)\n  dup1\n  dataOffset(sub_0)\n  0x00\n  codecopy\n  0x00\n  return\nstop\n\nsub_0: assembly {\n        /* \"contracts/freelancing.sol\":72:3339  contract freelancing{... */\n      mstore(0x40, 0x80)\n      jumpi(tag_1, lt(calldatasize, 0x04))\n      shr(0xe0, calldataload(0x00))\n      dup1\n      0x09750dc1\n      eq\n      tag_2\n      jumpi\n      dup1\n      0x33519c86\n      eq\n      tag_3\n      jumpi\n      dup1\n      0xa7251947\n      eq\n      tag_4\n      jumpi\n      dup1\n      0xb4fed977\n      eq\n      tag_5\n      jumpi\n      dup1\n      0xf6e3fb06\n      eq\n      tag_6\n      jumpi\n    tag_1:\n      0x00\n      dup1\n      revert\n        /* \"contracts/freelancing.sol\":829:1109  function client(string memory project, string memory description, uint amount, uint timelimit) public{... */\n    tag_2:\n      callvalue\n      dup1\n      iszero\n      tag_7\n      jumpi\n      0x00\n      dup1\n      revert\n    tag_7:\n      pop\n      tag_8\n      0x04\n      dup1\n      calldatasize\n      sub\n      dup2\n      add\n      swap1\n      tag_9\n      swap2\n      swap1\n      tag_10\n      jump\t// in\n    tag_9:\n      tag_11\n      jump\t// in\n    tag_8:\n      stop\n        /* \"contracts/freelancing.sol\":1587:1675  function TotalProjetc() public view returns(uint){... */\n    tag_3:\n      callvalue\n      dup1\n      iszero\n      tag_12\n      jumpi\n      0x00\n      dup1\n      revert\n    tag_12:\n      pop\n      tag_13\n      tag_14\n      jump\t// in\n    tag_13:\n      mload(0x40)\n      tag_15\n      swap2\n      swap1\n      tag_16\n      jump\t// in\n    tag_15:\n      mload(0x40)\n      dup1\n      swap2\n      sub\n      swap1\n      return\n        /* \"contracts/freelancing.sol\":1682:2364  function freelancer(uint clicent_id, uint lancer_id) public payable{... */\n    tag_4:\n      tag_17\n      0x04\n      dup1\n      calldatasize\n      sub\n      dup2\n      add\n      swap1\n      tag_18\n      swap2\n      swap1\n      tag_19\n      jump\t// in\n    tag_18:\n      tag_20\n      jump\t// in\n    tag_17:\n      stop\n        /* \"contracts/freelancing.sol\":1119:1579  function getClicent(uint clicentID) public view returns(address, string memory, string memory, uint, uint, uint[] memory, ScheduleState){... */\n    tag_5:\n      callvalue\n      dup1\n      iszero\n      tag_21\n      jumpi\n      0x00\n      dup1\n      revert\n    tag_21:\n      pop\n      tag_22\n      0x04\n      dup1\n      calldatasize\n      sub\n      dup2\n      add\n      swap1\n      tag_23\n      swap2\n      swap1\n      tag_24\n      jump\t// in\n    tag_23:\n      tag_25\n      jump\t// in\n    tag_22:\n      mload(0x40)\n      tag_26\n      swap8\n      swap7\n      swap6\n      swap5\n      swap4\n      swap3\n      swap2\n      swap1\n      tag_27\n      jump\t// in\n    tag_26:\n      mload(0x40)\n      dup1\n      swap2\n      sub\n      swap1\n      return\n        /* \"contracts/freelancing.sol\":2371:2702  function getFreelancer(uint u_id) public view returns(uint[] memory, uint, ScheduleState, address){... */\n    tag_6:\n      callvalue\n      dup1\n      iszero\n      tag_28\n      jumpi\n      0x00\n      dup1\n      revert\n    tag_28:\n      pop\n      tag_29\n      0x04\n      dup1\n      calldatasize\n      sub\n      dup2\n      add\n      swap1\n      tag_30\n      swap2\n      swap1\n      tag_24\n      jump\t// in\n    tag_30:\n      tag_31\n      jump\t// in\n    tag_29:\n      mload(0x40)\n      tag_32\n      swap5\n      swap4\n      swap3\n      swap2\n      swap1\n      tag_33\n      jump\t// in\n    tag_32:\n      mload(0x40)\n      dup1\n      swap2\n      sub\n      swap1\n      return\n        /* \"contracts/freelancing.sol\":829:1109  function client(string memory project, string memory description, uint amount, uint timelimit) public{... */\n    tag_11:\n        /* \"contracts/freelancing.sol\":940:965  clientInfo memory clicent */\n      0x00\n        /* \"contracts/freelancing.sol\":968:1070  clientInfo(msg.sender, project, description, amount, timelimit, client_lancer, ScheduleState.proposal) */\n      mload(0x40)\n      dup1\n      0xe0\n      add\n      0x40\n      mstore\n      dup1\n        /* \"contracts/freelancing.sol\":979:989  msg.sender */\n      caller\n        /* \"contracts/freelancing.sol\":968:1070  clientInfo(msg.sender, project, description, amount, timelimit, client_lancer, ScheduleState.proposal) */\n      0xffffffffffffffffffffffffffffffffffffffff\n      and\n      dup2\n      mstore\n      0x20\n      add\n        /* \"contracts/freelancing.sol\":991:998  project */\n      dup7\n        /* \"contracts/freelancing.sol\":968:1070  clientInfo(msg.sender, project, description, amount, timelimit, client_lancer, ScheduleState.proposal) */\n      dup2\n      mstore\n      0x20\n      add\n        /* \"contracts/freelancing.sol\":1000:1011  description */\n      dup6\n        /* \"contracts/freelancing.sol\":968:1070  clientInfo(msg.sender, project, description, amount, timelimit, client_lancer, ScheduleState.proposal) */\n      dup2\n      mstore\n      0x20\n      add\n        /* \"contracts/freelancing.sol\":1013:1019  amount */\n      dup5\n        /* \"contracts/freelancing.sol\":968:1070  clientInfo(msg.sender, project, description, amount, timelimit, client_lancer, ScheduleState.proposal) */\n      dup2\n      mstore\n      0x20\n      add\n        /* \"contracts/freelancing.sol\":1021:1030  timelimit */\n      dup4\n        /* \"contracts/freelancing.sol\":968:1070  clientInfo(msg.sender, project, description, amount, timelimit, client_lancer, ScheduleState.proposal) */\n      dup2\n      mstore\n      0x20\n      add\n        /* \"contracts/freelancing.sol\":1032:1045  client_lancer */\n      0x02\n        /* \"contracts/freelancing.sol\":968:1070  clientInfo(msg.sender, project, description, amount, timelimit, client_lancer, ScheduleState.proposal) */\n      dup1\n      sload\n      dup1\n      0x20\n      mul\n      0x20\n      add\n      mload(0x40)\n      swap1\n      dup2\n      add\n      0x40\n      mstore\n      dup1\n      swap3\n      swap2\n      swap1\n      dup2\n      dup2\n      mstore\n      0x20\n      add\n      dup3\n      dup1\n      sload\n      dup1\n      iszero\n      tag_35\n      jumpi\n      0x20\n      mul\n      dup3\n      add\n      swap2\n      swap1\n      0x00\n      mstore\n      keccak256(0x00, 0x20)\n      swap1\n    tag_36:\n      dup2\n      sload\n      dup2\n      mstore\n      0x20\n      add\n      swap1\n      0x01\n      add\n      swap1\n      dup1\n      dup4\n      gt\n      tag_36\n      jumpi\n    tag_35:\n      pop\n      pop\n      pop\n      pop\n      pop\n      dup2\n      mstore\n      0x20\n      add\n        /* \"contracts/freelancing.sol\":1047:1069  ScheduleState.proposal */\n      0x00\n        /* \"contracts/freelancing.sol\":968:1070  clientInfo(msg.sender, project, description, amount, timelimit, client_lancer, ScheduleState.proposal) */\n      0x04\n      dup2\n      gt\n      iszero\n      tag_37\n      jumpi\n      tag_38\n      tag_39\n      jump\t// in\n    tag_38:\n    tag_37:\n      dup2\n      mstore\n      pop\n        /* \"contracts/freelancing.sol\":940:1070  clientInfo memory clicent = clientInfo(msg.sender, project, description, amount, timelimit, client_lancer, ScheduleState.proposal) */\n      swap1\n      pop\n        /* \"contracts/freelancing.sol\":1080:1088  clicents */\n      0x00\n        /* \"contracts/freelancing.sol\":1094:1101  clicent */\n      dup2\n        /* \"contracts/freelancing.sol\":1080:1102  clicents.push(clicent) */\n      swap1\n      dup1\n      0x01\n      dup2\n      sload\n      add\n      dup1\n      dup3\n      sstore\n      dup1\n      swap2\n      pop\n      pop\n      0x01\n      swap1\n      sub\n      swap1\n      0x00\n      mstore\n      keccak256(0x00, 0x20)\n      swap1\n      0x07\n      mul\n      add\n      0x00\n      swap1\n      swap2\n      swap1\n      swap2\n      swap1\n      swap2\n      pop\n      0x00\n      dup3\n      add\n      mload\n      dup2\n      0x00\n      add\n      exp(0x0100, 0x00)\n      dup2\n      sload\n      dup2\n      0xffffffffffffffffffffffffffffffffffffffff\n      mul\n      not\n      and\n      swap1\n      dup4\n      0xffffffffffffffffffffffffffffffffffffffff\n      and\n      mul\n      or\n      swap1\n      sstore\n      pop\n      0x20\n      dup3\n      add\n      mload\n      dup2\n      0x01\n      add\n      swap1\n      dup2\n      tag_41\n      swap2\n      swap1\n      tag_42\n      jump\t// in\n    tag_41:\n      pop\n      0x40\n      dup3\n      add\n      mload\n      dup2\n      0x02\n      add\n      swap1\n      dup2\n      tag_43\n      swap2\n      swap1\n      tag_42\n      jump\t// in\n    tag_43:\n      pop\n      0x60\n      dup3\n      add\n      mload\n      dup2\n      0x03\n      add\n      sstore\n      0x80\n      dup3\n      add\n      mload\n      dup2\n      0x04\n      add\n      sstore\n      0xa0\n      dup3\n      add\n      mload\n      dup2\n      0x05\n      add\n      swap1\n      dup1\n      mload\n      swap1\n      0x20\n      add\n      swap1\n      tag_44\n      swap3\n      swap2\n      swap1\n      tag_45\n      jump\t// in\n    tag_44:\n      pop\n      0xc0\n      dup3\n      add\n      mload\n      dup2\n      0x06\n      add\n      exp(0x0100, 0x00)\n      dup2\n      sload\n      dup2\n      0xff\n      mul\n      not\n      and\n      swap1\n      dup4\n      0x04\n      dup2\n      gt\n      iszero\n      tag_46\n      jumpi\n      tag_47\n      tag_39\n      jump\t// in\n    tag_47:\n    tag_46:\n      mul\n      or\n      swap1\n      sstore\n      pop\n      pop\n      pop\n        /* \"contracts/freelancing.sol\":930:1109  {... */\n      pop\n        /* \"contracts/freelancing.sol\":829:1109  function client(string memory project, string memory description, uint amount, uint timelimit) public{... */\n      pop\n      pop\n      pop\n      pop\n      jump\t// out\n        /* \"contracts/freelancing.sol\":1587:1675  function TotalProjetc() public view returns(uint){... */\n    tag_14:\n        /* \"contracts/freelancing.sol\":1631:1635  uint */\n      0x00\n        /* \"contracts/freelancing.sol\":1653:1661  clicents */\n      dup1\n        /* \"contracts/freelancing.sol\":1653:1668  clicents.length */\n      dup1\n      sload\n      swap1\n      pop\n        /* \"contracts/freelancing.sol\":1646:1668  return clicents.length */\n      swap1\n      pop\n        /* \"contracts/freelancing.sol\":1587:1675  function TotalProjetc() public view returns(uint){... */\n      swap1\n      jump\t// out\n        /* \"contracts/freelancing.sol\":1682:2364  function freelancer(uint clicent_id, uint lancer_id) public payable{... */\n    tag_20:\n        /* \"contracts/freelancing.sol\":1797:1806  msg.value */\n      callvalue\n        /* \"contracts/freelancing.sol\":1767:1775  clicents */\n      0x00\n        /* \"contracts/freelancing.sol\":1776:1786  clicent_id */\n      dup4\n        /* \"contracts/freelancing.sol\":1767:1787  clicents[clicent_id] */\n      dup2\n      sload\n      dup2\n      lt\n      tag_50\n      jumpi\n      tag_51\n      tag_52\n      jump\t// in\n    tag_51:\n    tag_50:\n      swap1\n      0x00\n      mstore\n      keccak256(0x00, 0x20)\n      swap1\n      0x07\n      mul\n      add\n        /* \"contracts/freelancing.sol\":1767:1793  clicents[clicent_id].p_amt */\n      0x03\n      add\n      sload\n        /* \"contracts/freelancing.sol\":1767:1806  clicents[clicent_id].p_amt == msg.value */\n      eq\n        /* \"contracts/freelancing.sol\":1759:1850  require(clicents[clicent_id].p_amt == msg.value, \"Payable amount not equl project amount.\") */\n      tag_54\n      jumpi\n      mload(0x40)\n      0x08c379a000000000000000000000000000000000000000000000000000000000\n      dup2\n      mstore\n      0x04\n      add\n      tag_55\n      swap1\n      tag_56\n      jump\t// in\n    tag_55:\n      mload(0x40)\n      dup1\n      swap2\n      sub\n      swap1\n      revert\n    tag_54:\n        /* \"contracts/freelancing.sol\":1869:1896  address payable clicent_add */\n      0x00\n        /* \"contracts/freelancing.sol\":1907:1915  clicents */\n      dup1\n        /* \"contracts/freelancing.sol\":1916:1926  clicent_id */\n      dup4\n        /* \"contracts/freelancing.sol\":1907:1927  clicents[clicent_id] */\n      dup2\n      sload\n      dup2\n      lt\n      tag_57\n      jumpi\n      tag_58\n      tag_52\n      jump\t// in\n    tag_58:\n    tag_57:\n      swap1\n      0x00\n      mstore\n      keccak256(0x00, 0x20)\n      swap1\n      0x07\n      mul\n      add\n        /* \"contracts/freelancing.sol\":1907:1932  clicents[clicent_id].p_id */\n      0x00\n      add\n      0x00\n      swap1\n      sload\n      swap1\n      0x0100\n      exp\n      swap1\n      div\n      0xffffffffffffffffffffffffffffffffffffffff\n      and\n        /* \"contracts/freelancing.sol\":1869:1933  address payable clicent_add = payable(clicents[clicent_id].p_id) */\n      swap1\n      pop\n        /* \"contracts/freelancing.sol\":1953:1961  clicents */\n      0x00\n        /* \"contracts/freelancing.sol\":1962:1972  clicent_id */\n      dup4\n        /* \"contracts/freelancing.sol\":1953:1973  clicents[clicent_id] */\n      dup2\n      sload\n      dup2\n      lt\n      tag_60\n      jumpi\n      tag_61\n      tag_52\n      jump\t// in\n    tag_61:\n    tag_60:\n      swap1\n      0x00\n      mstore\n      keccak256(0x00, 0x20)\n      swap1\n      0x07\n      mul\n      add\n        /* \"contracts/freelancing.sol\":1953:1987  clicents[clicent_id].freelancer_id */\n      0x05\n      add\n        /* \"contracts/freelancing.sol\":1993:2002  lancer_id */\n      dup3\n        /* \"contracts/freelancing.sol\":1953:2003  clicents[clicent_id].freelancer_id.push(lancer_id) */\n      swap1\n      dup1\n      0x01\n      dup2\n      sload\n      add\n      dup1\n      dup3\n      sstore\n      dup1\n      swap2\n      pop\n      pop\n      0x01\n      swap1\n      sub\n      swap1\n      0x00\n      mstore\n      keccak256(0x00, 0x20)\n      add\n      0x00\n      swap1\n      swap2\n      swap1\n      swap2\n      swap1\n      swap2\n      pop\n      sstore\n        /* \"contracts/freelancing.sol\":2022:2026  user */\n      0x01\n        /* \"contracts/freelancing.sol\":2022:2037  user[lancer_id] */\n      0x00\n        /* \"contracts/freelancing.sol\":2027:2036  lancer_id */\n      dup4\n        /* \"contracts/freelancing.sol\":2022:2037  user[lancer_id] */\n      dup2\n      mstore\n      0x20\n      add\n      swap1\n      dup2\n      mstore\n      0x20\n      add\n      0x00\n      keccak256\n        /* \"contracts/freelancing.sol\":2022:2044  user[lancer_id].pro_id */\n      0x01\n      add\n        /* \"contracts/freelancing.sol\":2050:2060  clicent_id */\n      dup4\n        /* \"contracts/freelancing.sol\":2022:2061  user[lancer_id].pro_id.push(clicent_id) */\n      swap1\n      dup1\n      0x01\n      dup2\n      sload\n      add\n      dup1\n      dup3\n      sstore\n      dup1\n      swap2\n      pop\n      pop\n      0x01\n      swap1\n      sub\n      swap1\n      0x00\n      mstore\n      keccak256(0x00, 0x20)\n      add\n      0x00\n      swap1\n      swap2\n      swap1\n      swap2\n      swap1\n      swap2\n      pop\n      sstore\n        /* \"contracts/freelancing.sol\":2109:2119  msg.sender */\n      caller\n        /* \"contracts/freelancing.sol\":2080:2084  user */\n      0x01\n        /* \"contracts/freelancing.sol\":2080:2095  user[lancer_id] */\n      0x00\n        /* \"contracts/freelancing.sol\":2085:2094  lancer_id */\n      dup5\n        /* \"contracts/freelancing.sol\":2080:2095  user[lancer_id] */\n      dup2\n      mstore\n      0x20\n      add\n      swap1\n      dup2\n      mstore\n      0x20\n      add\n      0x00\n      keccak256\n        /* \"contracts/freelancing.sol\":2080:2106  user[lancer_id].lancer_add */\n      0x00\n      add\n      0x00\n        /* \"contracts/freelancing.sol\":2080:2119  user[lancer_id].lancer_add = msg.sender */\n      0x0100\n      exp\n      dup2\n      sload\n      dup2\n      0xffffffffffffffffffffffffffffffffffffffff\n      mul\n      not\n      and\n      swap1\n      dup4\n      0xffffffffffffffffffffffffffffffffffffffff\n      and\n      mul\n      or\n      swap1\n      sstore\n      pop\n        /* \"contracts/freelancing.sol\":2138:2149  clicent_add */\n      dup1\n        /* \"contracts/freelancing.sol\":2138:2158  clicent_add.transfer */\n      0xffffffffffffffffffffffffffffffffffffffff\n      and\n        /* \"contracts/freelancing.sol\":2138:2169  clicent_add.transfer(msg.value) */\n      0x08fc\n        /* \"contracts/freelancing.sol\":2159:2168  msg.value */\n      callvalue\n        /* \"contracts/freelancing.sol\":2138:2169  clicent_add.transfer(msg.value) */\n      swap1\n      dup2\n      iszero\n      mul\n      swap1\n      mload(0x40)\n      0x00\n      mload(0x40)\n      dup1\n      dup4\n      sub\n      dup2\n      dup6\n      dup9\n      dup9\n      call\n      swap4\n      pop\n      pop\n      pop\n      pop\n      iszero\n      dup1\n      iszero\n      tag_66\n      jumpi\n      returndatasize\n      0x00\n      dup1\n      returndatacopy\n      revert(0x00, returndatasize)\n    tag_66:\n      pop\n        /* \"contracts/freelancing.sol\":1749:2364  {... */\n      pop\n        /* \"contracts/freelancing.sol\":1682:2364  function freelancer(uint clicent_id, uint lancer_id) public payable{... */\n      pop\n      pop\n      jump\t// out\n        /* \"contracts/freelancing.sol\":1119:1579  function getClicent(uint clicentID) public view returns(address, string memory, string memory, uint, uint, uint[] memory, ScheduleState){... */\n    tag_25:\n        /* \"contracts/freelancing.sol\":1175:1182  address */\n      0x00\n        /* \"contracts/freelancing.sol\":1184:1197  string memory */\n      0x60\n        /* \"contracts/freelancing.sol\":1199:1212  string memory */\n      dup1\n        /* \"contracts/freelancing.sol\":1214:1218  uint */\n      0x00\n        /* \"contracts/freelancing.sol\":1220:1224  uint */\n      dup1\n        /* \"contracts/freelancing.sol\":1226:1239  uint[] memory */\n      0x60\n        /* \"contracts/freelancing.sol\":1241:1254  ScheduleState */\n      0x00\n        /* \"contracts/freelancing.sol\":1273:1281  clicents */\n      dup1\n        /* \"contracts/freelancing.sol\":1282:1291  clicentID */\n      dup9\n        /* \"contracts/freelancing.sol\":1273:1292  clicents[clicentID] */\n      dup2\n      sload\n      dup2\n      lt\n      tag_68\n      jumpi\n      tag_69\n      tag_52\n      jump\t// in\n    tag_69:\n    tag_68:\n      swap1\n      0x00\n      mstore\n      keccak256(0x00, 0x20)\n      swap1\n      0x07\n      mul\n      add\n        /* \"contracts/freelancing.sol\":1273:1297  clicents[clicentID].p_id */\n      0x00\n      add\n      0x00\n      swap1\n      sload\n      swap1\n      0x0100\n      exp\n      swap1\n      div\n      0xffffffffffffffffffffffffffffffffffffffff\n      and\n        /* \"contracts/freelancing.sol\":1311:1319  clicents */\n      0x00\n        /* \"contracts/freelancing.sol\":1320:1329  clicentID */\n      dup10\n        /* \"contracts/freelancing.sol\":1311:1330  clicents[clicentID] */\n      dup2\n      sload\n      dup2\n      lt\n      tag_71\n      jumpi\n      tag_72\n      tag_52\n      jump\t// in\n    tag_72:\n    tag_71:\n      swap1\n      0x00\n      mstore\n      keccak256(0x00, 0x20)\n      swap1\n      0x07\n      mul\n      add\n        /* \"contracts/freelancing.sol\":1311:1340  clicents[clicentID].shortCode */\n      0x01\n      add\n        /* \"contracts/freelancing.sol\":1354:1362  clicents */\n      0x00\n        /* \"contracts/freelancing.sol\":1363:1372  clicentID */\n      dup11\n        /* \"contracts/freelancing.sol\":1354:1373  clicents[clicentID] */\n      dup2\n      sload\n      dup2\n      lt\n      tag_74\n      jumpi\n      tag_75\n      tag_52\n      jump\t// in\n    tag_75:\n    tag_74:\n      swap1\n      0x00\n      mstore\n      keccak256(0x00, 0x20)\n      swap1\n      0x07\n      mul\n      add\n        /* \"contracts/freelancing.sol\":1354:1385  clicents[clicentID].description */\n      0x02\n      add\n        /* \"contracts/freelancing.sol\":1399:1407  clicents */\n      0x00\n        /* \"contracts/freelancing.sol\":1408:1417  clicentID */\n      dup12\n        /* \"contracts/freelancing.sol\":1399:1418  clicents[clicentID] */\n      dup2\n      sload\n      dup2\n      lt\n      tag_77\n      jumpi\n      tag_78\n      tag_52\n      jump\t// in\n    tag_78:\n    tag_77:\n      swap1\n      0x00\n      mstore\n      keccak256(0x00, 0x20)\n      swap1\n      0x07\n      mul\n      add\n        /* \"contracts/freelancing.sol\":1399:1424  clicents[clicentID].p_amt */\n      0x03\n      add\n      sload\n        /* \"contracts/freelancing.sol\":1438:1446  clicents */\n      0x00\n        /* \"contracts/freelancing.sol\":1447:1456  clicentID */\n      dup13\n        /* \"contracts/freelancing.sol\":1438:1457  clicents[clicentID] */\n      dup2\n      sload\n      dup2\n      lt\n      tag_80\n      jumpi\n      tag_81\n      tag_52\n      jump\t// in\n    tag_81:\n    tag_80:\n      swap1\n      0x00\n      mstore\n      keccak256(0x00, 0x20)\n      swap1\n      0x07\n      mul\n      add\n        /* \"contracts/freelancing.sol\":1438:1468  clicents[clicentID].time_limit */\n      0x04\n      add\n      sload\n        /* \"contracts/freelancing.sol\":1482:1490  clicents */\n      0x00\n        /* \"contracts/freelancing.sol\":1491:1500  clicentID */\n      dup14\n        /* \"contracts/freelancing.sol\":1482:1501  clicents[clicentID] */\n      dup2\n      sload\n      dup2\n      lt\n      tag_83\n      jumpi\n      tag_84\n      tag_52\n      jump\t// in\n    tag_84:\n    tag_83:\n      swap1\n      0x00\n      mstore\n      keccak256(0x00, 0x20)\n      swap1\n      0x07\n      mul\n      add\n        /* \"contracts/freelancing.sol\":1482:1515  clicents[clicentID].freelancer_id */\n      0x05\n      add\n        /* \"contracts/freelancing.sol\":1529:1537  clicents */\n      0x00\n        /* \"contracts/freelancing.sol\":1538:1547  clicentID */\n      dup15\n        /* \"contracts/freelancing.sol\":1529:1548  clicents[clicentID] */\n      dup2\n      sload\n      dup2\n      lt\n      tag_86\n      jumpi\n      tag_87\n      tag_52\n      jump\t// in\n    tag_87:\n    tag_86:\n      swap1\n      0x00\n      mstore\n      keccak256(0x00, 0x20)\n      swap1\n      0x07\n      mul\n      add\n        /* \"contracts/freelancing.sol\":1529:1562  clicents[clicentID].scheduleState */\n      0x06\n      add\n      0x00\n      swap1\n      sload\n      swap1\n      0x0100\n      exp\n      swap1\n      div\n      0xff\n      and\n        /* \"contracts/freelancing.sol\":1265:1572  return( clicents[clicentID].p_id,... */\n      dup6\n      dup1\n      sload\n      tag_89\n      swap1\n      tag_90\n      jump\t// in\n    tag_89:\n      dup1\n      0x1f\n      add\n      0x20\n      dup1\n      swap2\n      div\n      mul\n      0x20\n      add\n      mload(0x40)\n      swap1\n      dup2\n      add\n      0x40\n      mstore\n      dup1\n      swap3\n      swap2\n      swap1\n      dup2\n      dup2\n      mstore\n      0x20\n      add\n      dup3\n      dup1\n      sload\n      tag_91\n      swap1\n      tag_90\n      jump\t// in\n    tag_91:\n      dup1\n      iszero\n      tag_92\n      jumpi\n      dup1\n      0x1f\n      lt\n      tag_93\n      jumpi\n      0x0100\n      dup1\n      dup4\n      sload\n      div\n      mul\n      dup4\n      mstore\n      swap2\n      0x20\n      add\n      swap2\n      jump(tag_92)\n    tag_93:\n      dup3\n      add\n      swap2\n      swap1\n      0x00\n      mstore\n      keccak256(0x00, 0x20)\n      swap1\n    tag_94:\n      dup2\n      sload\n      dup2\n      mstore\n      swap1\n      0x01\n      add\n      swap1\n      0x20\n      add\n      dup1\n      dup4\n      gt\n      tag_94\n      jumpi\n      dup3\n      swap1\n      sub\n      0x1f\n      and\n      dup3\n      add\n      swap2\n    tag_92:\n      pop\n      pop\n      pop\n      pop\n      pop\n      swap6\n      pop\n      dup5\n      dup1\n      sload\n      tag_95\n      swap1\n      tag_90\n      jump\t// in\n    tag_95:\n      dup1\n      0x1f\n      add\n      0x20\n      dup1\n      swap2\n      div\n      mul\n      0x20\n      add\n      mload(0x40)\n      swap1\n      dup2\n      add\n      0x40\n      mstore\n      dup1\n      swap3\n      swap2\n      swap1\n      dup2\n      dup2\n      mstore\n      0x20\n      add\n      dup3\n      dup1\n      sload\n      tag_96\n      swap1\n      tag_90\n      jump\t// in\n    tag_96:\n      dup1\n      iszero\n      tag_97\n      jumpi\n      dup1\n      0x1f\n      lt\n      tag_98\n      jumpi\n      0x0100\n      dup1\n      dup4\n      sload\n      div\n      mul\n      dup4\n      mstore\n      swap2\n      0x20\n      add\n      swap2\n      jump(tag_97)\n    tag_98:\n      dup3\n      add\n      swap2\n      swap1\n      0x00\n      mstore\n      keccak256(0x00, 0x20)\n      swap1\n    tag_99:\n      dup2\n      sload\n      dup2\n      mstore\n      swap1\n      0x01\n      add\n      swap1\n      0x20\n      add\n      dup1\n      dup4\n      gt\n      tag_99\n      jumpi\n      dup3\n      swap1\n      sub\n      0x1f\n      and\n      dup3\n      add\n      swap2\n    tag_97:\n      pop\n      pop\n      pop\n      pop\n      pop\n      swap5\n      pop\n      dup2\n      dup1\n      sload\n      dup1\n      0x20\n      mul\n      0x20\n      add\n      mload(0x40)\n      swap1\n      dup2\n      add\n      0x40\n      mstore\n      dup1\n      swap3\n      swap2\n      swap1\n      dup2\n      dup2\n      mstore\n      0x20\n      add\n      dup3\n      dup1\n      sload\n      dup1\n      iszero\n      tag_100\n      jumpi\n      0x20\n      mul\n      dup3\n      add\n      swap2\n      swap1\n      0x00\n      mstore\n      keccak256(0x00, 0x20)\n      swap1\n    tag_101:\n      dup2\n      sload\n      dup2\n      mstore\n      0x20\n      add\n      swap1\n      0x01\n      add\n      swap1\n      dup1\n      dup4\n      gt\n      tag_101\n      jumpi\n    tag_100:\n      pop\n      pop\n      pop\n      pop\n      pop\n      swap2\n      pop\n      swap7\n      pop\n      swap7\n      pop\n      swap7\n      pop\n      swap7\n      pop\n      swap7\n      pop\n      swap7\n      pop\n      swap7\n      pop\n        /* \"contracts/freelancing.sol\":1119:1579  function getClicent(uint clicentID) public view returns(address, string memory, string memory, uint, uint, uint[] memory, ScheduleState){... */\n      swap2\n      swap4\n      swap6\n      swap8\n      swap1\n      swap3\n      swap5\n      swap7\n      pop\n      jump\t// out\n        /* \"contracts/freelancing.sol\":2371:2702  function getFreelancer(uint u_id) public view returns(uint[] memory, uint, ScheduleState, address){... */\n    tag_31:\n        /* \"contracts/freelancing.sol\":2425:2438  uint[] memory */\n      0x60\n        /* \"contracts/freelancing.sol\":2440:2444  uint */\n      0x00\n        /* \"contracts/freelancing.sol\":2446:2459  ScheduleState */\n      dup1\n        /* \"contracts/freelancing.sol\":2461:2468  address */\n      0x00\n        /* \"contracts/freelancing.sol\":2512:2522  msg.sender */\n      caller\n        /* \"contracts/freelancing.sol\":2487:2522  user[u_id].lancer_add == msg.sender */\n      0xffffffffffffffffffffffffffffffffffffffff\n      and\n        /* \"contracts/freelancing.sol\":2487:2491  user */\n      0x01\n        /* \"contracts/freelancing.sol\":2487:2497  user[u_id] */\n      0x00\n        /* \"contracts/freelancing.sol\":2492:2496  u_id */\n      dup8\n        /* \"contracts/freelancing.sol\":2487:2497  user[u_id] */\n      dup2\n      mstore\n      0x20\n      add\n      swap1\n      dup2\n      mstore\n      0x20\n      add\n      0x00\n      keccak256\n        /* \"contracts/freelancing.sol\":2487:2508  user[u_id].lancer_add */\n      0x00\n      add\n      0x00\n      swap1\n      sload\n      swap1\n      0x0100\n      exp\n      swap1\n      div\n      0xffffffffffffffffffffffffffffffffffffffff\n      and\n        /* \"contracts/freelancing.sol\":2487:2522  user[u_id].lancer_add == msg.sender */\n      0xffffffffffffffffffffffffffffffffffffffff\n      and\n      eq\n        /* \"contracts/freelancing.sol\":2479:2544  require(user[u_id].lancer_add == msg.sender, \"Record not found.\") */\n      tag_103\n      jumpi\n      mload(0x40)\n      0x08c379a000000000000000000000000000000000000000000000000000000000\n      dup2\n      mstore\n      0x04\n      add\n      tag_104\n      swap1\n      tag_105\n      jump\t// in\n    tag_104:\n      mload(0x40)\n      dup1\n      swap2\n      sub\n      swap1\n      revert\n    tag_103:\n        /* \"contracts/freelancing.sol\":2563:2567  user */\n      0x01\n        /* \"contracts/freelancing.sol\":2563:2573  user[u_id] */\n      0x00\n        /* \"contracts/freelancing.sol\":2568:2572  u_id */\n      dup7\n        /* \"contracts/freelancing.sol\":2563:2573  user[u_id] */\n      dup2\n      mstore\n      0x20\n      add\n      swap1\n      dup2\n      mstore\n      0x20\n      add\n      0x00\n      keccak256\n        /* \"contracts/freelancing.sol\":2563:2580  user[u_id].pro_id */\n      0x01\n      add\n        /* \"contracts/freelancing.sol\":2594:2598  user */\n      0x01\n        /* \"contracts/freelancing.sol\":2594:2604  user[u_id] */\n      0x00\n        /* \"contracts/freelancing.sol\":2599:2603  u_id */\n      dup8\n        /* \"contracts/freelancing.sol\":2594:2604  user[u_id] */\n      dup2\n      mstore\n      0x20\n      add\n      swap1\n      dup2\n      mstore\n      0x20\n      add\n      0x00\n      keccak256\n        /* \"contracts/freelancing.sol\":2594:2612  user[u_id].pro_amt */\n      0x02\n      add\n      sload\n        /* \"contracts/freelancing.sol\":2626:2630  user */\n      0x01\n        /* \"contracts/freelancing.sol\":2626:2636  user[u_id] */\n      0x00\n        /* \"contracts/freelancing.sol\":2631:2635  u_id */\n      dup9\n        /* \"contracts/freelancing.sol\":2626:2636  user[u_id] */\n      dup2\n      mstore\n      0x20\n      add\n      swap1\n      dup2\n      mstore\n      0x20\n      add\n      0x00\n      keccak256\n        /* \"contracts/freelancing.sol\":2626:2650  user[u_id].scheduleState */\n      0x03\n      add\n      0x00\n      swap1\n      sload\n      swap1\n      0x0100\n      exp\n      swap1\n      div\n      0xff\n      and\n        /* \"contracts/freelancing.sol\":2664:2668  user */\n      0x01\n        /* \"contracts/freelancing.sol\":2664:2674  user[u_id] */\n      0x00\n        /* \"contracts/freelancing.sol\":2669:2673  u_id */\n      dup10\n        /* \"contracts/freelancing.sol\":2664:2674  user[u_id] */\n      dup2\n      mstore\n      0x20\n      add\n      swap1\n      dup2\n      mstore\n      0x20\n      add\n      0x00\n      keccak256\n        /* \"contracts/freelancing.sol\":2664:2685  user[u_id].lancer_add */\n      0x00\n      add\n      0x00\n      swap1\n      sload\n      swap1\n      0x0100\n      exp\n      swap1\n      div\n      0xffffffffffffffffffffffffffffffffffffffff\n      and\n        /* \"contracts/freelancing.sol\":2554:2695  return ( user[u_id].pro_id,... */\n      dup4\n      dup1\n      sload\n      dup1\n      0x20\n      mul\n      0x20\n      add\n      mload(0x40)\n      swap1\n      dup2\n      add\n      0x40\n      mstore\n      dup1\n      swap3\n      swap2\n      swap1\n      dup2\n      dup2\n      mstore\n      0x20\n      add\n      dup3\n      dup1\n      sload\n      dup1\n      iszero\n      tag_106\n      jumpi\n      0x20\n      mul\n      dup3\n      add\n      swap2\n      swap1\n      0x00\n      mstore\n      keccak256(0x00, 0x20)\n      swap1\n    tag_107:\n      dup2\n      sload\n      dup2\n      mstore\n      0x20\n      add\n      swap1\n      0x01\n      add\n      swap1\n      dup1\n      dup4\n      gt\n      tag_107\n      jumpi\n    tag_106:\n      pop\n      pop\n      pop\n      pop\n      pop\n      swap4\n      pop\n      swap4\n      pop\n      swap4\n      pop\n      swap4\n      pop\n      swap4\n      pop\n        /* \"contracts/freelancing.sol\":2371:2702  function getFreelancer(uint u_id) public view returns(uint[] memory, uint, ScheduleState, address){... */\n      swap2\n      swap4\n      pop\n      swap2\n      swap4\n      jump\t// out\n    tag_45:\n      dup3\n      dup1\n      sload\n      dup3\n      dup3\n      sstore\n      swap1\n      0x00\n      mstore\n      keccak256(0x00, 0x20)\n      swap1\n      dup2\n      add\n      swap3\n      dup3\n      iszero\n      tag_108\n      jumpi\n      swap2\n      0x20\n      mul\n      dup3\n      add\n    tag_109:\n      dup3\n      dup2\n      gt\n      iszero\n      tag_110\n      jumpi\n      dup3\n      mload\n      dup3\n      sstore\n      swap2\n      0x20\n      add\n      swap2\n      swap1\n      0x01\n      add\n      swap1\n      jump(tag_109)\n    tag_110:\n    tag_108:\n      pop\n      swap1\n      pop\n      tag_111\n      swap2\n      swap1\n      tag_112\n      jump\t// in\n    tag_111:\n      pop\n      swap1\n      jump\t// out\n    tag_112:\n    tag_113:\n      dup1\n      dup3\n      gt\n      iszero\n      tag_114\n      jumpi\n      0x00\n      dup2\n      0x00\n      swap1\n      sstore\n      pop\n      0x01\n      add\n      jump(tag_113)\n    tag_114:\n      pop\n      swap1\n      jump\t// out\n        /* \"#utility.yul\":7:82   */\n    tag_115:\n        /* \"#utility.yul\":40:46   */\n      0x00\n        /* \"#utility.yul\":73:75   */\n      0x40\n        /* \"#utility.yul\":67:76   */\n      mload\n        /* \"#utility.yul\":57:76   */\n      swap1\n      pop\n        /* \"#utility.yul\":7:82   */\n      swap1\n      jump\t// out\n        /* \"#utility.yul\":88:205   */\n    tag_116:\n        /* \"#utility.yul\":197:198   */\n      0x00\n        /* \"#utility.yul\":194:195   */\n      dup1\n        /* \"#utility.yul\":187:199   */\n      revert\n        /* \"#utility.yul\":211:328   */\n    tag_117:\n        /* \"#utility.yul\":320:321   */\n      0x00\n        /* \"#utility.yul\":317:318   */\n      dup1\n        /* \"#utility.yul\":310:322   */\n      revert\n        /* \"#utility.yul\":334:451   */\n    tag_118:\n        /* \"#utility.yul\":443:444   */\n      0x00\n        /* \"#utility.yul\":440:441   */\n      dup1\n        /* \"#utility.yul\":433:445   */\n      revert\n        /* \"#utility.yul\":457:574   */\n    tag_119:\n        /* \"#utility.yul\":566:567   */\n      0x00\n        /* \"#utility.yul\":563:564   */\n      dup1\n        /* \"#utility.yul\":556:568   */\n      revert\n        /* \"#utility.yul\":580:682   */\n    tag_120:\n        /* \"#utility.yul\":621:627   */\n      0x00\n        /* \"#utility.yul\":672:674   */\n      0x1f\n        /* \"#utility.yul\":668:675   */\n      not\n        /* \"#utility.yul\":663:665   */\n      0x1f\n        /* \"#utility.yul\":656:661   */\n      dup4\n        /* \"#utility.yul\":652:666   */\n      add\n        /* \"#utility.yul\":648:676   */\n      and\n        /* \"#utility.yul\":638:676   */\n      swap1\n      pop\n        /* \"#utility.yul\":580:682   */\n      swap2\n      swap1\n      pop\n      jump\t// out\n        /* \"#utility.yul\":688:868   */\n    tag_121:\n        /* \"#utility.yul\":736:813   */\n      0x4e487b7100000000000000000000000000000000000000000000000000000000\n        /* \"#utility.yul\":733:734   */\n      0x00\n        /* \"#utility.yul\":726:814   */\n      mstore\n        /* \"#utility.yul\":833:837   */\n      0x41\n        /* \"#utility.yul\":830:831   */\n      0x04\n        /* \"#utility.yul\":823:838   */\n      mstore\n        /* \"#utility.yul\":857:861   */\n      0x24\n        /* \"#utility.yul\":854:855   */\n      0x00\n        /* \"#utility.yul\":847:862   */\n      revert\n        /* \"#utility.yul\":874:1155   */\n    tag_122:\n        /* \"#utility.yul\":957:984   */\n      tag_179\n        /* \"#utility.yul\":979:983   */\n      dup3\n        /* \"#utility.yul\":957:984   */\n      tag_120\n      jump\t// in\n    tag_179:\n        /* \"#utility.yul\":949:955   */\n      dup2\n        /* \"#utility.yul\":945:985   */\n      add\n        /* \"#utility.yul\":1087:1093   */\n      dup2\n        /* \"#utility.yul\":1075:1085   */\n      dup2\n        /* \"#utility.yul\":1072:1094   */\n      lt\n        /* \"#utility.yul\":1051:1069   */\n      0xffffffffffffffff\n        /* \"#utility.yul\":1039:1049   */\n      dup3\n        /* \"#utility.yul\":1036:1070   */\n      gt\n        /* \"#utility.yul\":1033:1095   */\n      or\n        /* \"#utility.yul\":1030:1118   */\n      iszero\n      tag_180\n      jumpi\n        /* \"#utility.yul\":1098:1116   */\n      tag_181\n      tag_121\n      jump\t// in\n    tag_181:\n        /* \"#utility.yul\":1030:1118   */\n    tag_180:\n        /* \"#utility.yul\":1138:1148   */\n      dup1\n        /* \"#utility.yul\":1134:1136   */\n      0x40\n        /* \"#utility.yul\":1127:1149   */\n      mstore\n        /* \"#utility.yul\":917:1155   */\n      pop\n        /* \"#utility.yul\":874:1155   */\n      pop\n      pop\n      jump\t// out\n        /* \"#utility.yul\":1161:1290   */\n    tag_123:\n        /* \"#utility.yul\":1195:1201   */\n      0x00\n        /* \"#utility.yul\":1222:1242   */\n      tag_183\n      tag_115\n      jump\t// in\n    tag_183:\n        /* \"#utility.yul\":1212:1242   */\n      swap1\n      pop\n        /* \"#utility.yul\":1251:1284   */\n      tag_184\n        /* \"#utility.yul\":1279:1283   */\n      dup3\n        /* \"#utility.yul\":1271:1277   */\n      dup3\n        /* \"#utility.yul\":1251:1284   */\n      tag_122\n      jump\t// in\n    tag_184:\n        /* \"#utility.yul\":1161:1290   */\n      swap2\n      swap1\n      pop\n      jump\t// out\n        /* \"#utility.yul\":1296:1604   */\n    tag_124:\n        /* \"#utility.yul\":1358:1362   */\n      0x00\n        /* \"#utility.yul\":1448:1466   */\n      0xffffffffffffffff\n        /* \"#utility.yul\":1440:1446   */\n      dup3\n        /* \"#utility.yul\":1437:1467   */\n      gt\n        /* \"#utility.yul\":1434:1490   */\n      iszero\n      tag_186\n      jumpi\n        /* \"#utility.yul\":1470:1488   */\n      tag_187\n      tag_121\n      jump\t// in\n    tag_187:\n        /* \"#utility.yul\":1434:1490   */\n    tag_186:\n        /* \"#utility.yul\":1508:1537   */\n      tag_188\n        /* \"#utility.yul\":1530:1536   */\n      dup3\n        /* \"#utility.yul\":1508:1537   */\n      tag_120\n      jump\t// in\n    tag_188:\n        /* \"#utility.yul\":1500:1537   */\n      swap1\n      pop\n        /* \"#utility.yul\":1592:1596   */\n      0x20\n        /* \"#utility.yul\":1586:1590   */\n      dup2\n        /* \"#utility.yul\":1582:1597   */\n      add\n        /* \"#utility.yul\":1574:1597   */\n      swap1\n      pop\n        /* \"#utility.yul\":1296:1604   */\n      swap2\n      swap1\n      pop\n      jump\t// out\n        /* \"#utility.yul\":1610:1756   */\n    tag_125:\n        /* \"#utility.yul\":1707:1713   */\n      dup3\n        /* \"#utility.yul\":1702:1705   */\n      dup2\n        /* \"#utility.yul\":1697:1700   */\n      dup4\n        /* \"#utility.yul\":1684:1714   */\n      calldatacopy\n        /* \"#utility.yul\":1748:1749   */\n      0x00\n        /* \"#utility.yul\":1739:1745   */\n      dup4\n        /* \"#utility.yul\":1734:1737   */\n      dup4\n        /* \"#utility.yul\":1730:1746   */\n      add\n        /* \"#utility.yul\":1723:1750   */\n      mstore\n        /* \"#utility.yul\":1610:1756   */\n      pop\n      pop\n      pop\n      jump\t// out\n        /* \"#utility.yul\":1762:2187   */\n    tag_126:\n        /* \"#utility.yul\":1840:1845   */\n      0x00\n        /* \"#utility.yul\":1865:1931   */\n      tag_191\n        /* \"#utility.yul\":1881:1930   */\n      tag_192\n        /* \"#utility.yul\":1923:1929   */\n      dup5\n        /* \"#utility.yul\":1881:1930   */\n      tag_124\n      jump\t// in\n    tag_192:\n        /* \"#utility.yul\":1865:1931   */\n      tag_123\n      jump\t// in\n    tag_191:\n        /* \"#utility.yul\":1856:1931   */\n      swap1\n      pop\n        /* \"#utility.yul\":1954:1960   */\n      dup3\n        /* \"#utility.yul\":1947:1952   */\n      dup2\n        /* \"#utility.yul\":1940:1961   */\n      mstore\n        /* \"#utility.yul\":1992:1996   */\n      0x20\n        /* \"#utility.yul\":1985:1990   */\n      dup2\n        /* \"#utility.yul\":1981:1997   */\n      add\n        /* \"#utility.yul\":2030:2033   */\n      dup5\n        /* \"#utility.yul\":2021:2027   */\n      dup5\n        /* \"#utility.yul\":2016:2019   */\n      dup5\n        /* \"#utility.yul\":2012:2028   */\n      add\n        /* \"#utility.yul\":2009:2034   */\n      gt\n        /* \"#utility.yul\":2006:2118   */\n      iszero\n      tag_193\n      jumpi\n        /* \"#utility.yul\":2037:2116   */\n      tag_194\n      tag_119\n      jump\t// in\n    tag_194:\n        /* \"#utility.yul\":2006:2118   */\n    tag_193:\n        /* \"#utility.yul\":2127:2181   */\n      tag_195\n        /* \"#utility.yul\":2174:2180   */\n      dup5\n        /* \"#utility.yul\":2169:2172   */\n      dup3\n        /* \"#utility.yul\":2164:2167   */\n      dup6\n        /* \"#utility.yul\":2127:2181   */\n      tag_125\n      jump\t// in\n    tag_195:\n        /* \"#utility.yul\":1846:2187   */\n      pop\n        /* \"#utility.yul\":1762:2187   */\n      swap4\n      swap3\n      pop\n      pop\n      pop\n      jump\t// out\n        /* \"#utility.yul\":2207:2547   */\n    tag_127:\n        /* \"#utility.yul\":2263:2268   */\n      0x00\n        /* \"#utility.yul\":2312:2315   */\n      dup3\n        /* \"#utility.yul\":2305:2309   */\n      0x1f\n        /* \"#utility.yul\":2297:2303   */\n      dup4\n        /* \"#utility.yul\":2293:2310   */\n      add\n        /* \"#utility.yul\":2289:2316   */\n      slt\n        /* \"#utility.yul\":2279:2401   */\n      tag_197\n      jumpi\n        /* \"#utility.yul\":2320:2399   */\n      tag_198\n      tag_118\n      jump\t// in\n    tag_198:\n        /* \"#utility.yul\":2279:2401   */\n    tag_197:\n        /* \"#utility.yul\":2437:2443   */\n      dup2\n        /* \"#utility.yul\":2424:2444   */\n      calldataload\n        /* \"#utility.yul\":2462:2541   */\n      tag_199\n        /* \"#utility.yul\":2537:2540   */\n      dup5\n        /* \"#utility.yul\":2529:2535   */\n      dup3\n        /* \"#utility.yul\":2522:2526   */\n      0x20\n        /* \"#utility.yul\":2514:2520   */\n      dup7\n        /* \"#utility.yul\":2510:2527   */\n      add\n        /* \"#utility.yul\":2462:2541   */\n      tag_126\n      jump\t// in\n    tag_199:\n        /* \"#utility.yul\":2453:2541   */\n      swap2\n      pop\n        /* \"#utility.yul\":2269:2547   */\n      pop\n        /* \"#utility.yul\":2207:2547   */\n      swap3\n      swap2\n      pop\n      pop\n      jump\t// out\n        /* \"#utility.yul\":2553:2630   */\n    tag_128:\n        /* \"#utility.yul\":2590:2597   */\n      0x00\n        /* \"#utility.yul\":2619:2624   */\n      dup2\n        /* \"#utility.yul\":2608:2624   */\n      swap1\n      pop\n        /* \"#utility.yul\":2553:2630   */\n      swap2\n      swap1\n      pop\n      jump\t// out\n        /* \"#utility.yul\":2636:2758   */\n    tag_129:\n        /* \"#utility.yul\":2709:2733   */\n      tag_202\n        /* \"#utility.yul\":2727:2732   */\n      dup2\n        /* \"#utility.yul\":2709:2733   */\n      tag_128\n      jump\t// in\n    tag_202:\n        /* \"#utility.yul\":2702:2707   */\n      dup2\n        /* \"#utility.yul\":2699:2734   */\n      eq\n        /* \"#utility.yul\":2689:2752   */\n      tag_203\n      jumpi\n        /* \"#utility.yul\":2748:2749   */\n      0x00\n        /* \"#utility.yul\":2745:2746   */\n      dup1\n        /* \"#utility.yul\":2738:2750   */\n      revert\n        /* \"#utility.yul\":2689:2752   */\n    tag_203:\n        /* \"#utility.yul\":2636:2758   */\n      pop\n      jump\t// out\n        /* \"#utility.yul\":2764:2903   */\n    tag_130:\n        /* \"#utility.yul\":2810:2815   */\n      0x00\n        /* \"#utility.yul\":2848:2854   */\n      dup2\n        /* \"#utility.yul\":2835:2855   */\n      calldataload\n        /* \"#utility.yul\":2826:2855   */\n      swap1\n      pop\n        /* \"#utility.yul\":2864:2897   */\n      tag_205\n        /* \"#utility.yul\":2891:2896   */\n      dup2\n        /* \"#utility.yul\":2864:2897   */\n      tag_129\n      jump\t// in\n    tag_205:\n        /* \"#utility.yul\":2764:2903   */\n      swap3\n      swap2\n      pop\n      pop\n      jump\t// out\n        /* \"#utility.yul\":2909:4034   */\n    tag_10:\n        /* \"#utility.yul\":3015:3021   */\n      0x00\n        /* \"#utility.yul\":3023:3029   */\n      dup1\n        /* \"#utility.yul\":3031:3037   */\n      0x00\n        /* \"#utility.yul\":3039:3045   */\n      dup1\n        /* \"#utility.yul\":3088:3091   */\n      0x80\n        /* \"#utility.yul\":3076:3085   */\n      dup6\n        /* \"#utility.yul\":3067:3074   */\n      dup8\n        /* \"#utility.yul\":3063:3086   */\n      sub\n        /* \"#utility.yul\":3059:3092   */\n      slt\n        /* \"#utility.yul\":3056:3176   */\n      iszero\n      tag_207\n      jumpi\n        /* \"#utility.yul\":3095:3174   */\n      tag_208\n      tag_116\n      jump\t// in\n    tag_208:\n        /* \"#utility.yul\":3056:3176   */\n    tag_207:\n        /* \"#utility.yul\":3243:3244   */\n      0x00\n        /* \"#utility.yul\":3232:3241   */\n      dup6\n        /* \"#utility.yul\":3228:3245   */\n      add\n        /* \"#utility.yul\":3215:3246   */\n      calldataload\n        /* \"#utility.yul\":3273:3291   */\n      0xffffffffffffffff\n        /* \"#utility.yul\":3265:3271   */\n      dup2\n        /* \"#utility.yul\":3262:3292   */\n      gt\n        /* \"#utility.yul\":3259:3376   */\n      iszero\n      tag_209\n      jumpi\n        /* \"#utility.yul\":3295:3374   */\n      tag_210\n      tag_117\n      jump\t// in\n    tag_210:\n        /* \"#utility.yul\":3259:3376   */\n    tag_209:\n        /* \"#utility.yul\":3400:3463   */\n      tag_211\n        /* \"#utility.yul\":3455:3462   */\n      dup8\n        /* \"#utility.yul\":3446:3452   */\n      dup3\n        /* \"#utility.yul\":3435:3444   */\n      dup9\n        /* \"#utility.yul\":3431:3453   */\n      add\n        /* \"#utility.yul\":3400:3463   */\n      tag_127\n      jump\t// in\n    tag_211:\n        /* \"#utility.yul\":3390:3463   */\n      swap5\n      pop\n        /* \"#utility.yul\":3186:3473   */\n      pop\n        /* \"#utility.yul\":3540:3542   */\n      0x20\n        /* \"#utility.yul\":3529:3538   */\n      dup6\n        /* \"#utility.yul\":3525:3543   */\n      add\n        /* \"#utility.yul\":3512:3544   */\n      calldataload\n        /* \"#utility.yul\":3571:3589   */\n      0xffffffffffffffff\n        /* \"#utility.yul\":3563:3569   */\n      dup2\n        /* \"#utility.yul\":3560:3590   */\n      gt\n        /* \"#utility.yul\":3557:3674   */\n      iszero\n      tag_212\n      jumpi\n        /* \"#utility.yul\":3593:3672   */\n      tag_213\n      tag_117\n      jump\t// in\n    tag_213:\n        /* \"#utility.yul\":3557:3674   */\n    tag_212:\n        /* \"#utility.yul\":3698:3761   */\n      tag_214\n        /* \"#utility.yul\":3753:3760   */\n      dup8\n        /* \"#utility.yul\":3744:3750   */\n      dup3\n        /* \"#utility.yul\":3733:3742   */\n      dup9\n        /* \"#utility.yul\":3729:3751   */\n      add\n        /* \"#utility.yul\":3698:3761   */\n      tag_127\n      jump\t// in\n    tag_214:\n        /* \"#utility.yul\":3688:3761   */\n      swap4\n      pop\n        /* \"#utility.yul\":3483:3771   */\n      pop\n        /* \"#utility.yul\":3810:3812   */\n      0x40\n        /* \"#utility.yul\":3836:3889   */\n      tag_215\n        /* \"#utility.yul\":3881:3888   */\n      dup8\n        /* \"#utility.yul\":3872:3878   */\n      dup3\n        /* \"#utility.yul\":3861:3870   */\n      dup9\n        /* \"#utility.yul\":3857:3879   */\n      add\n        /* \"#utility.yul\":3836:3889   */\n      tag_130\n      jump\t// in\n    tag_215:\n        /* \"#utility.yul\":3826:3889   */\n      swap3\n      pop\n        /* \"#utility.yul\":3781:3899   */\n      pop\n        /* \"#utility.yul\":3938:3940   */\n      0x60\n        /* \"#utility.yul\":3964:4017   */\n      tag_216\n        /* \"#utility.yul\":4009:4016   */\n      dup8\n        /* \"#utility.yul\":4000:4006   */\n      dup3\n        /* \"#utility.yul\":3989:3998   */\n      dup9\n        /* \"#utility.yul\":3985:4007   */\n      add\n        /* \"#utility.yul\":3964:4017   */\n      tag_130\n      jump\t// in\n    tag_216:\n        /* \"#utility.yul\":3954:4017   */\n      swap2\n      pop\n        /* \"#utility.yul\":3909:4027   */\n      pop\n        /* \"#utility.yul\":2909:4034   */\n      swap3\n      swap6\n      swap2\n      swap5\n      pop\n      swap3\n      pop\n      jump\t// out\n        /* \"#utility.yul\":4040:4158   */\n    tag_131:\n        /* \"#utility.yul\":4127:4151   */\n      tag_218\n        /* \"#utility.yul\":4145:4150   */\n      dup2\n        /* \"#utility.yul\":4127:4151   */\n      tag_128\n      jump\t// in\n    tag_218:\n        /* \"#utility.yul\":4122:4125   */\n      dup3\n        /* \"#utility.yul\":4115:4152   */\n      mstore\n        /* \"#utility.yul\":4040:4158   */\n      pop\n      pop\n      jump\t// out\n        /* \"#utility.yul\":4164:4386   */\n    tag_16:\n        /* \"#utility.yul\":4257:4261   */\n      0x00\n        /* \"#utility.yul\":4295:4297   */\n      0x20\n        /* \"#utility.yul\":4284:4293   */\n      dup3\n        /* \"#utility.yul\":4280:4298   */\n      add\n        /* \"#utility.yul\":4272:4298   */\n      swap1\n      pop\n        /* \"#utility.yul\":4308:4379   */\n      tag_220\n        /* \"#utility.yul\":4376:4377   */\n      0x00\n        /* \"#utility.yul\":4365:4374   */\n      dup4\n        /* \"#utility.yul\":4361:4378   */\n      add\n        /* \"#utility.yul\":4352:4358   */\n      dup5\n        /* \"#utility.yul\":4308:4379   */\n      tag_131\n      jump\t// in\n    tag_220:\n        /* \"#utility.yul\":4164:4386   */\n      swap3\n      swap2\n      pop\n      pop\n      jump\t// out\n        /* \"#utility.yul\":4392:4866   */\n    tag_19:\n        /* \"#utility.yul\":4460:4466   */\n      0x00\n        /* \"#utility.yul\":4468:4474   */\n      dup1\n        /* \"#utility.yul\":4517:4519   */\n      0x40\n        /* \"#utility.yul\":4505:4514   */\n      dup4\n        /* \"#utility.yul\":4496:4503   */\n      dup6\n        /* \"#utility.yul\":4492:4515   */\n      sub\n        /* \"#utility.yul\":4488:4520   */\n      slt\n        /* \"#utility.yul\":4485:4604   */\n      iszero\n      tag_222\n      jumpi\n        /* \"#utility.yul\":4523:4602   */\n      tag_223\n      tag_116\n      jump\t// in\n    tag_223:\n        /* \"#utility.yul\":4485:4604   */\n    tag_222:\n        /* \"#utility.yul\":4643:4644   */\n      0x00\n        /* \"#utility.yul\":4668:4721   */\n      tag_224\n        /* \"#utility.yul\":4713:4720   */\n      dup6\n        /* \"#utility.yul\":4704:4710   */\n      dup3\n        /* \"#utility.yul\":4693:4702   */\n      dup7\n        /* \"#utility.yul\":4689:4711   */\n      add\n        /* \"#utility.yul\":4668:4721   */\n      tag_130\n      jump\t// in\n    tag_224:\n        /* \"#utility.yul\":4658:4721   */\n      swap3\n      pop\n        /* \"#utility.yul\":4614:4731   */\n      pop\n        /* \"#utility.yul\":4770:4772   */\n      0x20\n        /* \"#utility.yul\":4796:4849   */\n      tag_225\n        /* \"#utility.yul\":4841:4848   */\n      dup6\n        /* \"#utility.yul\":4832:4838   */\n      dup3\n        /* \"#utility.yul\":4821:4830   */\n      dup7\n        /* \"#utility.yul\":4817:4839   */\n      add\n        /* \"#utility.yul\":4796:4849   */\n      tag_130\n      jump\t// in\n    tag_225:\n        /* \"#utility.yul\":4786:4849   */\n      swap2\n      pop\n        /* \"#utility.yul\":4741:4859   */\n      pop\n        /* \"#utility.yul\":4392:4866   */\n      swap3\n      pop\n      swap3\n      swap1\n      pop\n      jump\t// out\n        /* \"#utility.yul\":4872:5201   */\n    tag_24:\n        /* \"#utility.yul\":4931:4937   */\n      0x00\n        /* \"#utility.yul\":4980:4982   */\n      0x20\n        /* \"#utility.yul\":4968:4977   */\n      dup3\n        /* \"#utility.yul\":4959:4966   */\n      dup5\n        /* \"#utility.yul\":4955:4978   */\n      sub\n        /* \"#utility.yul\":4951:4983   */\n      slt\n        /* \"#utility.yul\":4948:5067   */\n      iszero\n      tag_227\n      jumpi\n        /* \"#utility.yul\":4986:5065   */\n      tag_228\n      tag_116\n      jump\t// in\n    tag_228:\n        /* \"#utility.yul\":4948:5067   */\n    tag_227:\n        /* \"#utility.yul\":5106:5107   */\n      0x00\n        /* \"#utility.yul\":5131:5184   */\n      tag_229\n        /* \"#utility.yul\":5176:5183   */\n      dup5\n        /* \"#utility.yul\":5167:5173   */\n      dup3\n        /* \"#utility.yul\":5156:5165   */\n      dup6\n        /* \"#utility.yul\":5152:5174   */\n      add\n        /* \"#utility.yul\":5131:5184   */\n      tag_130\n      jump\t// in\n    tag_229:\n        /* \"#utility.yul\":5121:5184   */\n      swap2\n      pop\n        /* \"#utility.yul\":5077:5194   */\n      pop\n        /* \"#utility.yul\":4872:5201   */\n      swap3\n      swap2\n      pop\n      pop\n      jump\t// out\n        /* \"#utility.yul\":5207:5333   */\n    tag_132:\n        /* \"#utility.yul\":5244:5251   */\n      0x00\n        /* \"#utility.yul\":5284:5326   */\n      0xffffffffffffffffffffffffffffffffffffffff\n        /* \"#utility.yul\":5277:5282   */\n      dup3\n        /* \"#utility.yul\":5273:5327   */\n      and\n        /* \"#utility.yul\":5262:5327   */\n      swap1\n      pop\n        /* \"#utility.yul\":5207:5333   */\n      swap2\n      swap1\n      pop\n      jump\t// out\n        /* \"#utility.yul\":5339:5435   */\n    tag_133:\n        /* \"#utility.yul\":5376:5383   */\n      0x00\n        /* \"#utility.yul\":5405:5429   */\n      tag_232\n        /* \"#utility.yul\":5423:5428   */\n      dup3\n        /* \"#utility.yul\":5405:5429   */\n      tag_132\n      jump\t// in\n    tag_232:\n        /* \"#utility.yul\":5394:5429   */\n      swap1\n      pop\n        /* \"#utility.yul\":5339:5435   */\n      swap2\n      swap1\n      pop\n      jump\t// out\n        /* \"#utility.yul\":5441:5559   */\n    tag_134:\n        /* \"#utility.yul\":5528:5552   */\n      tag_234\n        /* \"#utility.yul\":5546:5551   */\n      dup2\n        /* \"#utility.yul\":5528:5552   */\n      tag_133\n      jump\t// in\n    tag_234:\n        /* \"#utility.yul\":5523:5526   */\n      dup3\n        /* \"#utility.yul\":5516:5553   */\n      mstore\n        /* \"#utility.yul\":5441:5559   */\n      pop\n      pop\n      jump\t// out\n        /* \"#utility.yul\":5565:5664   */\n    tag_135:\n        /* \"#utility.yul\":5617:5623   */\n      0x00\n        /* \"#utility.yul\":5651:5656   */\n      dup2\n        /* \"#utility.yul\":5645:5657   */\n      mload\n        /* \"#utility.yul\":5635:5657   */\n      swap1\n      pop\n        /* \"#utility.yul\":5565:5664   */\n      swap2\n      swap1\n      pop\n      jump\t// out\n        /* \"#utility.yul\":5670:5839   */\n    tag_136:\n        /* \"#utility.yul\":5754:5765   */\n      0x00\n        /* \"#utility.yul\":5788:5794   */\n      dup3\n        /* \"#utility.yul\":5783:5786   */\n      dup3\n        /* \"#utility.yul\":5776:5795   */\n      mstore\n        /* \"#utility.yul\":5828:5832   */\n      0x20\n        /* \"#utility.yul\":5823:5826   */\n      dup3\n        /* \"#utility.yul\":5819:5833   */\n      add\n        /* \"#utility.yul\":5804:5833   */\n      swap1\n      pop\n        /* \"#utility.yul\":5670:5839   */\n      swap3\n      swap2\n      pop\n      pop\n      jump\t// out\n        /* \"#utility.yul\":5845:6091   */\n    tag_137:\n        /* \"#utility.yul\":5926:5927   */\n      0x00\n        /* \"#utility.yul\":5936:6049   */\n    tag_238:\n        /* \"#utility.yul\":5950:5956   */\n      dup4\n        /* \"#utility.yul\":5947:5948   */\n      dup2\n        /* \"#utility.yul\":5944:5957   */\n      lt\n        /* \"#utility.yul\":5936:6049   */\n      iszero\n      tag_240\n      jumpi\n        /* \"#utility.yul\":6035:6036   */\n      dup1\n        /* \"#utility.yul\":6030:6033   */\n      dup3\n        /* \"#utility.yul\":6026:6037   */\n      add\n        /* \"#utility.yul\":6020:6038   */\n      mload\n        /* \"#utility.yul\":6016:6017   */\n      dup2\n        /* \"#utility.yul\":6011:6014   */\n      dup5\n        /* \"#utility.yul\":6007:6018   */\n      add\n        /* \"#utility.yul\":6000:6039   */\n      mstore\n        /* \"#utility.yul\":5972:5974   */\n      0x20\n        /* \"#utility.yul\":5969:5970   */\n      dup2\n        /* \"#utility.yul\":5965:5975   */\n      add\n        /* \"#utility.yul\":5960:5975   */\n      swap1\n      pop\n        /* \"#utility.yul\":5936:6049   */\n      jump(tag_238)\n    tag_240:\n        /* \"#utility.yul\":6083:6084   */\n      0x00\n        /* \"#utility.yul\":6074:6080   */\n      dup5\n        /* \"#utility.yul\":6069:6072   */\n      dup5\n        /* \"#utility.yul\":6065:6081   */\n      add\n        /* \"#utility.yul\":6058:6085   */\n      mstore\n        /* \"#utility.yul\":5907:6091   */\n      pop\n        /* \"#utility.yul\":5845:6091   */\n      pop\n      pop\n      pop\n      jump\t// out\n        /* \"#utility.yul\":6097:6474   */\n    tag_138:\n        /* \"#utility.yul\":6185:6188   */\n      0x00\n        /* \"#utility.yul\":6213:6252   */\n      tag_242\n        /* \"#utility.yul\":6246:6251   */\n      dup3\n        /* \"#utility.yul\":6213:6252   */\n      tag_135\n      jump\t// in\n    tag_242:\n        /* \"#utility.yul\":6268:6339   */\n      tag_243\n        /* \"#utility.yul\":6332:6338   */\n      dup2\n        /* \"#utility.yul\":6327:6330   */\n      dup6\n        /* \"#utility.yul\":6268:6339   */\n      tag_136\n      jump\t// in\n    tag_243:\n        /* \"#utility.yul\":6261:6339   */\n      swap4\n      pop\n        /* \"#utility.yul\":6348:6413   */\n      tag_244\n        /* \"#utility.yul\":6406:6412   */\n      dup2\n        /* \"#utility.yul\":6401:6404   */\n      dup6\n        /* \"#utility.yul\":6394:6398   */\n      0x20\n        /* \"#utility.yul\":6387:6392   */\n      dup7\n        /* \"#utility.yul\":6383:6399   */\n      add\n        /* \"#utility.yul\":6348:6413   */\n      tag_137\n      jump\t// in\n    tag_244:\n        /* \"#utility.yul\":6438:6467   */\n      tag_245\n        /* \"#utility.yul\":6460:6466   */\n      dup2\n        /* \"#utility.yul\":6438:6467   */\n      tag_120\n      jump\t// in\n    tag_245:\n        /* \"#utility.yul\":6433:6436   */\n      dup5\n        /* \"#utility.yul\":6429:6468   */\n      add\n        /* \"#utility.yul\":6422:6468   */\n      swap2\n      pop\n        /* \"#utility.yul\":6189:6474   */\n      pop\n        /* \"#utility.yul\":6097:6474   */\n      swap3\n      swap2\n      pop\n      pop\n      jump\t// out\n        /* \"#utility.yul\":6480:6594   */\n    tag_139:\n        /* \"#utility.yul\":6547:6553   */\n      0x00\n        /* \"#utility.yul\":6581:6586   */\n      dup2\n        /* \"#utility.yul\":6575:6587   */\n      mload\n        /* \"#utility.yul\":6565:6587   */\n      swap1\n      pop\n        /* \"#utility.yul\":6480:6594   */\n      swap2\n      swap1\n      pop\n      jump\t// out\n        /* \"#utility.yul\":6600:6784   */\n    tag_140:\n        /* \"#utility.yul\":6699:6710   */\n      0x00\n        /* \"#utility.yul\":6733:6739   */\n      dup3\n        /* \"#utility.yul\":6728:6731   */\n      dup3\n        /* \"#utility.yul\":6721:6740   */\n      mstore\n        /* \"#utility.yul\":6773:6777   */\n      0x20\n        /* \"#utility.yul\":6768:6771   */\n      dup3\n        /* \"#utility.yul\":6764:6778   */\n      add\n        /* \"#utility.yul\":6749:6778   */\n      swap1\n      pop\n        /* \"#utility.yul\":6600:6784   */\n      swap3\n      swap2\n      pop\n      pop\n      jump\t// out\n        /* \"#utility.yul\":6790:6922   */\n    tag_141:\n        /* \"#utility.yul\":6857:6861   */\n      0x00\n        /* \"#utility.yul\":6880:6883   */\n      dup2\n        /* \"#utility.yul\":6872:6883   */\n      swap1\n      pop\n        /* \"#utility.yul\":6910:6914   */\n      0x20\n        /* \"#utility.yul\":6905:6908   */\n      dup3\n        /* \"#utility.yul\":6901:6915   */\n      add\n        /* \"#utility.yul\":6893:6915   */\n      swap1\n      pop\n        /* \"#utility.yul\":6790:6922   */\n      swap2\n      swap1\n      pop\n      jump\t// out\n        /* \"#utility.yul\":6928:7036   */\n    tag_142:\n        /* \"#utility.yul\":7005:7029   */\n      tag_250\n        /* \"#utility.yul\":7023:7028   */\n      dup2\n        /* \"#utility.yul\":7005:7029   */\n      tag_128\n      jump\t// in\n    tag_250:\n        /* \"#utility.yul\":7000:7003   */\n      dup3\n        /* \"#utility.yul\":6993:7030   */\n      mstore\n        /* \"#utility.yul\":6928:7036   */\n      pop\n      pop\n      jump\t// out\n        /* \"#utility.yul\":7042:7221   */\n    tag_143:\n        /* \"#utility.yul\":7111:7121   */\n      0x00\n        /* \"#utility.yul\":7132:7178   */\n      tag_252\n        /* \"#utility.yul\":7174:7177   */\n      dup4\n        /* \"#utility.yul\":7166:7172   */\n      dup4\n        /* \"#utility.yul\":7132:7178   */\n      tag_142\n      jump\t// in\n    tag_252:\n        /* \"#utility.yul\":7210:7214   */\n      0x20\n        /* \"#utility.yul\":7205:7208   */\n      dup4\n        /* \"#utility.yul\":7201:7215   */\n      add\n        /* \"#utility.yul\":7187:7215   */\n      swap1\n      pop\n        /* \"#utility.yul\":7042:7221   */\n      swap3\n      swap2\n      pop\n      pop\n      jump\t// out\n        /* \"#utility.yul\":7227:7340   */\n    tag_144:\n        /* \"#utility.yul\":7297:7301   */\n      0x00\n        /* \"#utility.yul\":7329:7333   */\n      0x20\n        /* \"#utility.yul\":7324:7327   */\n      dup3\n        /* \"#utility.yul\":7320:7334   */\n      add\n        /* \"#utility.yul\":7312:7334   */\n      swap1\n      pop\n        /* \"#utility.yul\":7227:7340   */\n      swap2\n      swap1\n      pop\n      jump\t// out\n        /* \"#utility.yul\":7376:8108   */\n    tag_145:\n        /* \"#utility.yul\":7495:7498   */\n      0x00\n        /* \"#utility.yul\":7524:7578   */\n      tag_255\n        /* \"#utility.yul\":7572:7577   */\n      dup3\n        /* \"#utility.yul\":7524:7578   */\n      tag_139\n      jump\t// in\n    tag_255:\n        /* \"#utility.yul\":7594:7680   */\n      tag_256\n        /* \"#utility.yul\":7673:7679   */\n      dup2\n        /* \"#utility.yul\":7668:7671   */\n      dup6\n        /* \"#utility.yul\":7594:7680   */\n      tag_140\n      jump\t// in\n    tag_256:\n        /* \"#utility.yul\":7587:7680   */\n      swap4\n      pop\n        /* \"#utility.yul\":7704:7760   */\n      tag_257\n        /* \"#utility.yul\":7754:7759   */\n      dup4\n        /* \"#utility.yul\":7704:7760   */\n      tag_141\n      jump\t// in\n    tag_257:\n        /* \"#utility.yul\":7783:7790   */\n      dup1\n        /* \"#utility.yul\":7814:7815   */\n      0x00\n        /* \"#utility.yul\":7799:8083   */\n    tag_258:\n        /* \"#utility.yul\":7824:7830   */\n      dup4\n        /* \"#utility.yul\":7821:7822   */\n      dup2\n        /* \"#utility.yul\":7818:7831   */\n      lt\n        /* \"#utility.yul\":7799:8083   */\n      iszero\n      tag_260\n      jumpi\n        /* \"#utility.yul\":7900:7906   */\n      dup2\n        /* \"#utility.yul\":7894:7907   */\n      mload\n        /* \"#utility.yul\":7927:7990   */\n      tag_261\n        /* \"#utility.yul\":7986:7989   */\n      dup9\n        /* \"#utility.yul\":7971:7984   */\n      dup3\n        /* \"#utility.yul\":7927:7990   */\n      tag_143\n      jump\t// in\n    tag_261:\n        /* \"#utility.yul\":7920:7990   */\n      swap8\n      pop\n        /* \"#utility.yul\":8013:8073   */\n      tag_262\n        /* \"#utility.yul\":8066:8072   */\n      dup4\n        /* \"#utility.yul\":8013:8073   */\n      tag_144\n      jump\t// in\n    tag_262:\n        /* \"#utility.yul\":8003:8073   */\n      swap3\n      pop\n        /* \"#utility.yul\":7859:8083   */\n      pop\n        /* \"#utility.yul\":7846:7847   */\n      0x01\n        /* \"#utility.yul\":7843:7844   */\n      dup2\n        /* \"#utility.yul\":7839:7848   */\n      add\n        /* \"#utility.yul\":7834:7848   */\n      swap1\n      pop\n        /* \"#utility.yul\":7799:8083   */\n      jump(tag_258)\n    tag_260:\n        /* \"#utility.yul\":7803:7817   */\n      pop\n        /* \"#utility.yul\":8099:8102   */\n      dup6\n        /* \"#utility.yul\":8092:8102   */\n      swap4\n      pop\n        /* \"#utility.yul\":7500:8108   */\n      pop\n      pop\n      pop\n        /* \"#utility.yul\":7376:8108   */\n      swap3\n      swap2\n      pop\n      pop\n      jump\t// out\n        /* \"#utility.yul\":8114:8294   */\n    tag_39:\n        /* \"#utility.yul\":8162:8239   */\n      0x4e487b7100000000000000000000000000000000000000000000000000000000\n        /* \"#utility.yul\":8159:8160   */\n      0x00\n        /* \"#utility.yul\":8152:8240   */\n      mstore\n        /* \"#utility.yul\":8259:8263   */\n      0x21\n        /* \"#utility.yul\":8256:8257   */\n      0x04\n        /* \"#utility.yul\":8249:8264   */\n      mstore\n        /* \"#utility.yul\":8283:8287   */\n      0x24\n        /* \"#utility.yul\":8280:8281   */\n      0x00\n        /* \"#utility.yul\":8273:8288   */\n      revert\n        /* \"#utility.yul\":8300:8421   */\n    tag_146:\n        /* \"#utility.yul\":8389:8390   */\n      0x05\n        /* \"#utility.yul\":8382:8387   */\n      dup2\n        /* \"#utility.yul\":8379:8391   */\n      lt\n        /* \"#utility.yul\":8369:8415   */\n      tag_265\n      jumpi\n        /* \"#utility.yul\":8395:8413   */\n      tag_266\n      tag_39\n      jump\t// in\n    tag_266:\n        /* \"#utility.yul\":8369:8415   */\n    tag_265:\n        /* \"#utility.yul\":8300:8421   */\n      pop\n      jump\t// out\n        /* \"#utility.yul\":8427:8570   */\n    tag_147:\n        /* \"#utility.yul\":8480:8487   */\n      0x00\n        /* \"#utility.yul\":8509:8514   */\n      dup2\n        /* \"#utility.yul\":8498:8514   */\n      swap1\n      pop\n        /* \"#utility.yul\":8515:8564   */\n      tag_268\n        /* \"#utility.yul\":8558:8563   */\n      dup3\n        /* \"#utility.yul\":8515:8564   */\n      tag_146\n      jump\t// in\n    tag_268:\n        /* \"#utility.yul\":8427:8570   */\n      swap2\n      swap1\n      pop\n      jump\t// out\n        /* \"#utility.yul\":8576:8719   */\n    tag_148:\n        /* \"#utility.yul\":8640:8649   */\n      0x00\n        /* \"#utility.yul\":8673:8713   */\n      tag_270\n        /* \"#utility.yul\":8707:8712   */\n      dup3\n        /* \"#utility.yul\":8673:8713   */\n      tag_147\n      jump\t// in\n    tag_270:\n        /* \"#utility.yul\":8660:8713   */\n      swap1\n      pop\n        /* \"#utility.yul\":8576:8719   */\n      swap2\n      swap1\n      pop\n      jump\t// out\n        /* \"#utility.yul\":8725:8884   */\n    tag_149:\n        /* \"#utility.yul\":8826:8877   */\n      tag_272\n        /* \"#utility.yul\":8871:8876   */\n      dup2\n        /* \"#utility.yul\":8826:8877   */\n      tag_148\n      jump\t// in\n    tag_272:\n        /* \"#utility.yul\":8821:8824   */\n      dup3\n        /* \"#utility.yul\":8814:8878   */\n      mstore\n        /* \"#utility.yul\":8725:8884   */\n      pop\n      pop\n      jump\t// out\n        /* \"#utility.yul\":8890:10137   */\n    tag_27:\n        /* \"#utility.yul\":9255:9259   */\n      0x00\n        /* \"#utility.yul\":9293:9296   */\n      0xe0\n        /* \"#utility.yul\":9282:9291   */\n      dup3\n        /* \"#utility.yul\":9278:9297   */\n      add\n        /* \"#utility.yul\":9270:9297   */\n      swap1\n      pop\n        /* \"#utility.yul\":9307:9378   */\n      tag_274\n        /* \"#utility.yul\":9375:9376   */\n      0x00\n        /* \"#utility.yul\":9364:9373   */\n      dup4\n        /* \"#utility.yul\":9360:9377   */\n      add\n        /* \"#utility.yul\":9351:9357   */\n      dup11\n        /* \"#utility.yul\":9307:9378   */\n      tag_134\n      jump\t// in\n    tag_274:\n        /* \"#utility.yul\":9425:9434   */\n      dup2\n        /* \"#utility.yul\":9419:9423   */\n      dup2\n        /* \"#utility.yul\":9415:9435   */\n      sub\n        /* \"#utility.yul\":9410:9412   */\n      0x20\n        /* \"#utility.yul\":9399:9408   */\n      dup4\n        /* \"#utility.yul\":9395:9413   */\n      add\n        /* \"#utility.yul\":9388:9436   */\n      mstore\n        /* \"#utility.yul\":9453:9531   */\n      tag_275\n        /* \"#utility.yul\":9526:9530   */\n      dup2\n        /* \"#utility.yul\":9517:9523   */\n      dup10\n        /* \"#utility.yul\":9453:9531   */\n      tag_138\n      jump\t// in\n    tag_275:\n        /* \"#utility.yul\":9445:9531   */\n      swap1\n      pop\n        /* \"#utility.yul\":9578:9587   */\n      dup2\n        /* \"#utility.yul\":9572:9576   */\n      dup2\n        /* \"#utility.yul\":9568:9588   */\n      sub\n        /* \"#utility.yul\":9563:9565   */\n      0x40\n        /* \"#utility.yul\":9552:9561   */\n      dup4\n        /* \"#utility.yul\":9548:9566   */\n      add\n        /* \"#utility.yul\":9541:9589   */\n      mstore\n        /* \"#utility.yul\":9606:9684   */\n      tag_276\n        /* \"#utility.yul\":9679:9683   */\n      dup2\n        /* \"#utility.yul\":9670:9676   */\n      dup9\n        /* \"#utility.yul\":9606:9684   */\n      tag_138\n      jump\t// in\n    tag_276:\n        /* \"#utility.yul\":9598:9684   */\n      swap1\n      pop\n        /* \"#utility.yul\":9694:9766   */\n      tag_277\n        /* \"#utility.yul\":9762:9764   */\n      0x60\n        /* \"#utility.yul\":9751:9760   */\n      dup4\n        /* \"#utility.yul\":9747:9765   */\n      add\n        /* \"#utility.yul\":9738:9744   */\n      dup8\n        /* \"#utility.yul\":9694:9766   */\n      tag_131\n      jump\t// in\n    tag_277:\n        /* \"#utility.yul\":9776:9849   */\n      tag_278\n        /* \"#utility.yul\":9844:9847   */\n      0x80\n        /* \"#utility.yul\":9833:9842   */\n      dup4\n        /* \"#utility.yul\":9829:9848   */\n      add\n        /* \"#utility.yul\":9820:9826   */\n      dup7\n        /* \"#utility.yul\":9776:9849   */\n      tag_131\n      jump\t// in\n    tag_278:\n        /* \"#utility.yul\":9897:9906   */\n      dup2\n        /* \"#utility.yul\":9891:9895   */\n      dup2\n        /* \"#utility.yul\":9887:9907   */\n      sub\n        /* \"#utility.yul\":9881:9884   */\n      0xa0\n        /* \"#utility.yul\":9870:9879   */\n      dup4\n        /* \"#utility.yul\":9866:9885   */\n      add\n        /* \"#utility.yul\":9859:9908   */\n      mstore\n        /* \"#utility.yul\":9925:10033   */\n      tag_279\n        /* \"#utility.yul\":10028:10032   */\n      dup2\n        /* \"#utility.yul\":10019:10025   */\n      dup6\n        /* \"#utility.yul\":9925:10033   */\n      tag_145\n      jump\t// in\n    tag_279:\n        /* \"#utility.yul\":9917:10033   */\n      swap1\n      pop\n        /* \"#utility.yul\":10043:10130   */\n      tag_280\n        /* \"#utility.yul\":10125:10128   */\n      0xc0\n        /* \"#utility.yul\":10114:10123   */\n      dup4\n        /* \"#utility.yul\":10110:10129   */\n      add\n        /* \"#utility.yul\":10101:10107   */\n      dup5\n        /* \"#utility.yul\":10043:10130   */\n      tag_149\n      jump\t// in\n    tag_280:\n        /* \"#utility.yul\":8890:10137   */\n      swap9\n      swap8\n      pop\n      pop\n      pop\n      pop\n      pop\n      pop\n      pop\n      pop\n      jump\t// out\n        /* \"#utility.yul\":10143:10875   */\n    tag_33:\n        /* \"#utility.yul\":10384:10388   */\n      0x00\n        /* \"#utility.yul\":10422:10425   */\n      0x80\n        /* \"#utility.yul\":10411:10420   */\n      dup3\n        /* \"#utility.yul\":10407:10426   */\n      add\n        /* \"#utility.yul\":10399:10426   */\n      swap1\n      pop\n        /* \"#utility.yul\":10472:10481   */\n      dup2\n        /* \"#utility.yul\":10466:10470   */\n      dup2\n        /* \"#utility.yul\":10462:10482   */\n      sub\n        /* \"#utility.yul\":10458:10459   */\n      0x00\n        /* \"#utility.yul\":10447:10456   */\n      dup4\n        /* \"#utility.yul\":10443:10460   */\n      add\n        /* \"#utility.yul\":10436:10483   */\n      mstore\n        /* \"#utility.yul\":10500:10608   */\n      tag_282\n        /* \"#utility.yul\":10603:10607   */\n      dup2\n        /* \"#utility.yul\":10594:10600   */\n      dup8\n        /* \"#utility.yul\":10500:10608   */\n      tag_145\n      jump\t// in\n    tag_282:\n        /* \"#utility.yul\":10492:10608   */\n      swap1\n      pop\n        /* \"#utility.yul\":10618:10690   */\n      tag_283\n        /* \"#utility.yul\":10686:10688   */\n      0x20\n        /* \"#utility.yul\":10675:10684   */\n      dup4\n        /* \"#utility.yul\":10671:10689   */\n      add\n        /* \"#utility.yul\":10662:10668   */\n      dup7\n        /* \"#utility.yul\":10618:10690   */\n      tag_131\n      jump\t// in\n    tag_283:\n        /* \"#utility.yul\":10700:10786   */\n      tag_284\n        /* \"#utility.yul\":10782:10784   */\n      0x40\n        /* \"#utility.yul\":10771:10780   */\n      dup4\n        /* \"#utility.yul\":10767:10785   */\n      add\n        /* \"#utility.yul\":10758:10764   */\n      dup6\n        /* \"#utility.yul\":10700:10786   */\n      tag_149\n      jump\t// in\n    tag_284:\n        /* \"#utility.yul\":10796:10868   */\n      tag_285\n        /* \"#utility.yul\":10864:10866   */\n      0x60\n        /* \"#utility.yul\":10853:10862   */\n      dup4\n        /* \"#utility.yul\":10849:10867   */\n      add\n        /* \"#utility.yul\":10840:10846   */\n      dup5\n        /* \"#utility.yul\":10796:10868   */\n      tag_134\n      jump\t// in\n    tag_285:\n        /* \"#utility.yul\":10143:10875   */\n      swap6\n      swap5\n      pop\n      pop\n      pop\n      pop\n      pop\n      jump\t// out\n        /* \"#utility.yul\":10881:11061   */\n    tag_150:\n        /* \"#utility.yul\":10929:11006   */\n      0x4e487b7100000000000000000000000000000000000000000000000000000000\n        /* \"#utility.yul\":10926:10927   */\n      0x00\n        /* \"#utility.yul\":10919:11007   */\n      mstore\n        /* \"#utility.yul\":11026:11030   */\n      0x22\n        /* \"#utility.yul\":11023:11024   */\n      0x04\n        /* \"#utility.yul\":11016:11031   */\n      mstore\n        /* \"#utility.yul\":11050:11054   */\n      0x24\n        /* \"#utility.yul\":11047:11048   */\n      0x00\n        /* \"#utility.yul\":11040:11055   */\n      revert\n        /* \"#utility.yul\":11067:11387   */\n    tag_90:\n        /* \"#utility.yul\":11111:11117   */\n      0x00\n        /* \"#utility.yul\":11148:11149   */\n      0x02\n        /* \"#utility.yul\":11142:11146   */\n      dup3\n        /* \"#utility.yul\":11138:11150   */\n      div\n        /* \"#utility.yul\":11128:11150   */\n      swap1\n      pop\n        /* \"#utility.yul\":11195:11196   */\n      0x01\n        /* \"#utility.yul\":11189:11193   */\n      dup3\n        /* \"#utility.yul\":11185:11197   */\n      and\n        /* \"#utility.yul\":11216:11234   */\n      dup1\n        /* \"#utility.yul\":11206:11287   */\n      tag_288\n      jumpi\n        /* \"#utility.yul\":11272:11276   */\n      0x7f\n        /* \"#utility.yul\":11264:11270   */\n      dup3\n        /* \"#utility.yul\":11260:11277   */\n      and\n        /* \"#utility.yul\":11250:11277   */\n      swap2\n      pop\n        /* \"#utility.yul\":11206:11287   */\n    tag_288:\n        /* \"#utility.yul\":11334:11336   */\n      0x20\n        /* \"#utility.yul\":11326:11332   */\n      dup3\n        /* \"#utility.yul\":11323:11337   */\n      lt\n        /* \"#utility.yul\":11303:11321   */\n      dup2\n        /* \"#utility.yul\":11300:11338   */\n      sub\n        /* \"#utility.yul\":11297:11381   */\n      tag_289\n      jumpi\n        /* \"#utility.yul\":11353:11371   */\n      tag_290\n      tag_150\n      jump\t// in\n    tag_290:\n        /* \"#utility.yul\":11297:11381   */\n    tag_289:\n        /* \"#utility.yul\":11118:11387   */\n      pop\n        /* \"#utility.yul\":11067:11387   */\n      swap2\n      swap1\n      pop\n      jump\t// out\n        /* \"#utility.yul\":11393:11534   */\n    tag_151:\n        /* \"#utility.yul\":11442:11446   */\n      0x00\n        /* \"#utility.yul\":11465:11468   */\n      dup2\n        /* \"#utility.yul\":11457:11468   */\n      swap1\n      pop\n        /* \"#utility.yul\":11488:11491   */\n      dup2\n        /* \"#utility.yul\":11485:11486   */\n      0x00\n        /* \"#utility.yul\":11478:11492   */\n      mstore\n        /* \"#utility.yul\":11522:11526   */\n      0x20\n        /* \"#utility.yul\":11519:11520   */\n      0x00\n        /* \"#utility.yul\":11509:11527   */\n      keccak256\n        /* \"#utility.yul\":11501:11527   */\n      swap1\n      pop\n        /* \"#utility.yul\":11393:11534   */\n      swap2\n      swap1\n      pop\n      jump\t// out\n        /* \"#utility.yul\":11540:11633   */\n    tag_152:\n        /* \"#utility.yul\":11577:11583   */\n      0x00\n        /* \"#utility.yul\":11624:11626   */\n      0x20\n        /* \"#utility.yul\":11619:11621   */\n      0x1f\n        /* \"#utility.yul\":11612:11617   */\n      dup4\n        /* \"#utility.yul\":11608:11622   */\n      add\n        /* \"#utility.yul\":11604:11627   */\n      div\n        /* \"#utility.yul\":11594:11627   */\n      swap1\n      pop\n        /* \"#utility.yul\":11540:11633   */\n      swap2\n      swap1\n      pop\n      jump\t// out\n        /* \"#utility.yul\":11639:11746   */\n    tag_153:\n        /* \"#utility.yul\":11683:11691   */\n      0x00\n        /* \"#utility.yul\":11733:11738   */\n      dup3\n        /* \"#utility.yul\":11727:11731   */\n      dup3\n        /* \"#utility.yul\":11723:11739   */\n      shl\n        /* \"#utility.yul\":11702:11739   */\n      swap1\n      pop\n        /* \"#utility.yul\":11639:11746   */\n      swap3\n      swap2\n      pop\n      pop\n      jump\t// out\n        /* \"#utility.yul\":11752:12145   */\n    tag_154:\n        /* \"#utility.yul\":11821:11827   */\n      0x00\n        /* \"#utility.yul\":11871:11872   */\n      0x08\n        /* \"#utility.yul\":11859:11869   */\n      dup4\n        /* \"#utility.yul\":11855:11873   */\n      mul\n        /* \"#utility.yul\":11894:11991   */\n      tag_295\n        /* \"#utility.yul\":11924:11990   */\n      0xffffffffffffffffffffffffffffffffffffffffffffffffffffffffffffffff\n        /* \"#utility.yul\":11913:11922   */\n      dup3\n        /* \"#utility.yul\":11894:11991   */\n      tag_153\n      jump\t// in\n    tag_295:\n        /* \"#utility.yul\":12012:12051   */\n      tag_296\n        /* \"#utility.yul\":12042:12050   */\n      dup7\n        /* \"#utility.yul\":12031:12040   */\n      dup4\n        /* \"#utility.yul\":12012:12051   */\n      tag_153\n      jump\t// in\n    tag_296:\n        /* \"#utility.yul\":12000:12051   */\n      swap6\n      pop\n        /* \"#utility.yul\":12084:12088   */\n      dup1\n        /* \"#utility.yul\":12080:12089   */\n      not\n        /* \"#utility.yul\":12073:12078   */\n      dup5\n        /* \"#utility.yul\":12069:12090   */\n      and\n        /* \"#utility.yul\":12060:12090   */\n      swap4\n      pop\n        /* \"#utility.yul\":12133:12137   */\n      dup1\n        /* \"#utility.yul\":12123:12131   */\n      dup7\n        /* \"#utility.yul\":12119:12138   */\n      and\n        /* \"#utility.yul\":12112:12117   */\n      dup5\n        /* \"#utility.yul\":12109:12139   */\n      or\n        /* \"#utility.yul\":12099:12139   */\n      swap3\n      pop\n        /* \"#utility.yul\":11828:12145   */\n      pop\n      pop\n        /* \"#utility.yul\":11752:12145   */\n      swap4\n      swap3\n      pop\n      pop\n      pop\n      jump\t// out\n        /* \"#utility.yul\":12151:12211   */\n    tag_155:\n        /* \"#utility.yul\":12179:12182   */\n      0x00\n        /* \"#utility.yul\":12200:12205   */\n      dup2\n        /* \"#utility.yul\":12193:12205   */\n      swap1\n      pop\n        /* \"#utility.yul\":12151:12211   */\n      swap2\n      swap1\n      pop\n      jump\t// out\n        /* \"#utility.yul\":12217:12359   */\n    tag_156:\n        /* \"#utility.yul\":12267:12276   */\n      0x00\n        /* \"#utility.yul\":12300:12353   */\n      tag_299\n        /* \"#utility.yul\":12318:12352   */\n      tag_300\n        /* \"#utility.yul\":12327:12351   */\n      tag_301\n        /* \"#utility.yul\":12345:12350   */\n      dup5\n        /* \"#utility.yul\":12327:12351   */\n      tag_128\n      jump\t// in\n    tag_301:\n        /* \"#utility.yul\":12318:12352   */\n      tag_155\n      jump\t// in\n    tag_300:\n        /* \"#utility.yul\":12300:12353   */\n      tag_128\n      jump\t// in\n    tag_299:\n        /* \"#utility.yul\":12287:12353   */\n      swap1\n      pop\n        /* \"#utility.yul\":12217:12359   */\n      swap2\n      swap1\n      pop\n      jump\t// out\n        /* \"#utility.yul\":12365:12440   */\n    tag_157:\n        /* \"#utility.yul\":12408:12411   */\n      0x00\n        /* \"#utility.yul\":12429:12434   */\n      dup2\n        /* \"#utility.yul\":12422:12434   */\n      swap1\n      pop\n        /* \"#utility.yul\":12365:12440   */\n      swap2\n      swap1\n      pop\n      jump\t// out\n        /* \"#utility.yul\":12446:12715   */\n    tag_158:\n        /* \"#utility.yul\":12556:12595   */\n      tag_304\n        /* \"#utility.yul\":12587:12594   */\n      dup4\n        /* \"#utility.yul\":12556:12595   */\n      tag_156\n      jump\t// in\n    tag_304:\n        /* \"#utility.yul\":12617:12708   */\n      tag_305\n        /* \"#utility.yul\":12666:12707   */\n      tag_306\n        /* \"#utility.yul\":12690:12706   */\n      dup3\n        /* \"#utility.yul\":12666:12707   */\n      tag_157\n      jump\t// in\n    tag_306:\n        /* \"#utility.yul\":12658:12664   */\n      dup5\n        /* \"#utility.yul\":12651:12655   */\n      dup5\n        /* \"#utility.yul\":12645:12656   */\n      sload\n        /* \"#utility.yul\":12617:12708   */\n      tag_154\n      jump\t// in\n    tag_305:\n        /* \"#utility.yul\":12611:12615   */\n      dup3\n        /* \"#utility.yul\":12604:12709   */\n      sstore\n        /* \"#utility.yul\":12522:12715   */\n      pop\n        /* \"#utility.yul\":12446:12715   */\n      pop\n      pop\n      pop\n      jump\t// out\n        /* \"#utility.yul\":12721:12794   */\n    tag_159:\n        /* \"#utility.yul\":12766:12769   */\n      0x00\n        /* \"#utility.yul\":12721:12794   */\n      swap1\n      jump\t// out\n        /* \"#utility.yul\":12800:12989   */\n    tag_160:\n        /* \"#utility.yul\":12877:12909   */\n      tag_309\n      tag_159\n      jump\t// in\n    tag_309:\n        /* \"#utility.yul\":12918:12983   */\n      tag_310\n        /* \"#utility.yul\":12976:12982   */\n      dup2\n        /* \"#utility.yul\":12968:12974   */\n      dup5\n        /* \"#utility.yul\":12962:12966   */\n      dup5\n        /* \"#utility.yul\":12918:12983   */\n      tag_158\n      jump\t// in\n    tag_310:\n        /* \"#utility.yul\":12853:12989   */\n      pop\n        /* \"#utility.yul\":12800:12989   */\n      pop\n      pop\n      jump\t// out\n        /* \"#utility.yul\":12995:13181   */\n    tag_161:\n        /* \"#utility.yul\":13055:13175   */\n    tag_312:\n        /* \"#utility.yul\":13072:13075   */\n      dup2\n        /* \"#utility.yul\":13065:13070   */\n      dup2\n        /* \"#utility.yul\":13062:13076   */\n      lt\n        /* \"#utility.yul\":13055:13175   */\n      iszero\n      tag_314\n      jumpi\n        /* \"#utility.yul\":13126:13165   */\n      tag_315\n        /* \"#utility.yul\":13163:13164   */\n      0x00\n        /* \"#utility.yul\":13156:13161   */\n      dup3\n        /* \"#utility.yul\":13126:13165   */\n      tag_160\n      jump\t// in\n    tag_315:\n        /* \"#utility.yul\":13099:13100   */\n      0x01\n        /* \"#utility.yul\":13092:13097   */\n      dup2\n        /* \"#utility.yul\":13088:13101   */\n      add\n        /* \"#utility.yul\":13079:13101   */\n      swap1\n      pop\n        /* \"#utility.yul\":13055:13175   */\n      jump(tag_312)\n    tag_314:\n        /* \"#utility.yul\":12995:13181   */\n      pop\n      pop\n      jump\t// out\n        /* \"#utility.yul\":13187:13730   */\n    tag_162:\n        /* \"#utility.yul\":13288:13290   */\n      0x1f\n        /* \"#utility.yul\":13283:13286   */\n      dup3\n        /* \"#utility.yul\":13280:13291   */\n      gt\n        /* \"#utility.yul\":13277:13723   */\n      iszero\n      tag_317\n      jumpi\n        /* \"#utility.yul\":13322:13360   */\n      tag_318\n        /* \"#utility.yul\":13354:13359   */\n      dup2\n        /* \"#utility.yul\":13322:13360   */\n      tag_151\n      jump\t// in\n    tag_318:\n        /* \"#utility.yul\":13406:13435   */\n      tag_319\n        /* \"#utility.yul\":13424:13434   */\n      dup5\n        /* \"#utility.yul\":13406:13435   */\n      tag_152\n      jump\t// in\n    tag_319:\n        /* \"#utility.yul\":13396:13404   */\n      dup2\n        /* \"#utility.yul\":13392:13436   */\n      add\n        /* \"#utility.yul\":13589:13591   */\n      0x20\n        /* \"#utility.yul\":13577:13587   */\n      dup6\n        /* \"#utility.yul\":13574:13592   */\n      lt\n        /* \"#utility.yul\":13571:13620   */\n      iszero\n      tag_320\n      jumpi\n        /* \"#utility.yul\":13610:13618   */\n      dup2\n        /* \"#utility.yul\":13595:13618   */\n      swap1\n      pop\n        /* \"#utility.yul\":13571:13620   */\n    tag_320:\n        /* \"#utility.yul\":13633:13713   */\n      tag_321\n        /* \"#utility.yul\":13689:13711   */\n      tag_322\n        /* \"#utility.yul\":13707:13710   */\n      dup6\n        /* \"#utility.yul\":13689:13711   */\n      tag_152\n      jump\t// in\n    tag_322:\n        /* \"#utility.yul\":13679:13687   */\n      dup4\n        /* \"#utility.yul\":13675:13712   */\n      add\n        /* \"#utility.yul\":13662:13673   */\n      dup3\n        /* \"#utility.yul\":13633:13713   */\n      tag_161\n      jump\t// in\n    tag_321:\n        /* \"#utility.yul\":13292:13723   */\n      pop\n      pop\n        /* \"#utility.yul\":13277:13723   */\n    tag_317:\n        /* \"#utility.yul\":13187:13730   */\n      pop\n      pop\n      pop\n      jump\t// out\n        /* \"#utility.yul\":13736:13853   */\n    tag_163:\n        /* \"#utility.yul\":13790:13798   */\n      0x00\n        /* \"#utility.yul\":13840:13845   */\n      dup3\n        /* \"#utility.yul\":13834:13838   */\n      dup3\n        /* \"#utility.yul\":13830:13846   */\n      shr\n        /* \"#utility.yul\":13809:13846   */\n      swap1\n      pop\n        /* \"#utility.yul\":13736:13853   */\n      swap3\n      swap2\n      pop\n      pop\n      jump\t// out\n        /* \"#utility.yul\":13859:14028   */\n    tag_164:\n        /* \"#utility.yul\":13903:13909   */\n      0x00\n        /* \"#utility.yul\":13936:13987   */\n      tag_325\n        /* \"#utility.yul\":13984:13985   */\n      0x00\n        /* \"#utility.yul\":13980:13986   */\n      not\n        /* \"#utility.yul\":13972:13977   */\n      dup5\n        /* \"#utility.yul\":13969:13970   */\n      0x08\n        /* \"#utility.yul\":13965:13978   */\n      mul\n        /* \"#utility.yul\":13936:13987   */\n      tag_163\n      jump\t// in\n    tag_325:\n        /* \"#utility.yul\":13932:13988   */\n      not\n        /* \"#utility.yul\":14017:14021   */\n      dup1\n        /* \"#utility.yul\":14011:14015   */\n      dup4\n        /* \"#utility.yul\":14007:14022   */\n      and\n        /* \"#utility.yul\":13997:14022   */\n      swap2\n      pop\n        /* \"#utility.yul\":13910:14028   */\n      pop\n        /* \"#utility.yul\":13859:14028   */\n      swap3\n      swap2\n      pop\n      pop\n      jump\t// out\n        /* \"#utility.yul\":14033:14328   */\n    tag_165:\n        /* \"#utility.yul\":14109:14113   */\n      0x00\n        /* \"#utility.yul\":14255:14284   */\n      tag_327\n        /* \"#utility.yul\":14280:14283   */\n      dup4\n        /* \"#utility.yul\":14274:14278   */\n      dup4\n        /* \"#utility.yul\":14255:14284   */\n      tag_164\n      jump\t// in\n    tag_327:\n        /* \"#utility.yul\":14247:14284   */\n      swap2\n      pop\n        /* \"#utility.yul\":14317:14320   */\n      dup3\n        /* \"#utility.yul\":14314:14315   */\n      0x02\n        /* \"#utility.yul\":14310:14321   */\n      mul\n        /* \"#utility.yul\":14304:14308   */\n      dup3\n        /* \"#utility.yul\":14301:14322   */\n      or\n        /* \"#utility.yul\":14293:14322   */\n      swap1\n      pop\n        /* \"#utility.yul\":14033:14328   */\n      swap3\n      swap2\n      pop\n      pop\n      jump\t// out\n        /* \"#utility.yul\":14333:15728   */\n    tag_42:\n        /* \"#utility.yul\":14450:14487   */\n      tag_329\n        /* \"#utility.yul\":14483:14486   */\n      dup3\n        /* \"#utility.yul\":14450:14487   */\n      tag_135\n      jump\t// in\n    tag_329:\n        /* \"#utility.yul\":14552:14570   */\n      0xffffffffffffffff\n        /* \"#utility.yul\":14544:14550   */\n      dup2\n        /* \"#utility.yul\":14541:14571   */\n      gt\n        /* \"#utility.yul\":14538:14594   */\n      iszero\n      tag_330\n      jumpi\n        /* \"#utility.yul\":14574:14592   */\n      tag_331\n      tag_121\n      jump\t// in\n    tag_331:\n        /* \"#utility.yul\":14538:14594   */\n    tag_330:\n        /* \"#utility.yul\":14618:14656   */\n      tag_332\n        /* \"#utility.yul\":14650:14654   */\n      dup3\n        /* \"#utility.yul\":14644:14655   */\n      sload\n        /* \"#utility.yul\":14618:14656   */\n      tag_90\n      jump\t// in\n    tag_332:\n        /* \"#utility.yul\":14703:14770   */\n      tag_333\n        /* \"#utility.yul\":14763:14769   */\n      dup3\n        /* \"#utility.yul\":14755:14761   */\n      dup3\n        /* \"#utility.yul\":14749:14753   */\n      dup6\n        /* \"#utility.yul\":14703:14770   */\n      tag_162\n      jump\t// in\n    tag_333:\n        /* \"#utility.yul\":14797:14798   */\n      0x00\n        /* \"#utility.yul\":14821:14825   */\n      0x20\n        /* \"#utility.yul\":14808:14825   */\n      swap1\n      pop\n        /* \"#utility.yul\":14853:14855   */\n      0x1f\n        /* \"#utility.yul\":14845:14851   */\n      dup4\n        /* \"#utility.yul\":14842:14856   */\n      gt\n        /* \"#utility.yul\":14870:14871   */\n      0x01\n        /* \"#utility.yul\":14865:15483   */\n      dup2\n      eq\n      tag_335\n      jumpi\n        /* \"#utility.yul\":15527:15528   */\n      0x00\n        /* \"#utility.yul\":15544:15550   */\n      dup5\n        /* \"#utility.yul\":15541:15618   */\n      iszero\n      tag_336\n      jumpi\n        /* \"#utility.yul\":15593:15602   */\n      dup3\n        /* \"#utility.yul\":15588:15591   */\n      dup8\n        /* \"#utility.yul\":15584:15603   */\n      add\n        /* \"#utility.yul\":15578:15604   */\n      mload\n        /* \"#utility.yul\":15569:15604   */\n      swap1\n      pop\n        /* \"#utility.yul\":15541:15618   */\n    tag_336:\n        /* \"#utility.yul\":15644:15711   */\n      tag_337\n        /* \"#utility.yul\":15704:15710   */\n      dup6\n        /* \"#utility.yul\":15697:15702   */\n      dup3\n        /* \"#utility.yul\":15644:15711   */\n      tag_165\n      jump\t// in\n    tag_337:\n        /* \"#utility.yul\":15638:15642   */\n      dup7\n        /* \"#utility.yul\":15631:15712   */\n      sstore\n        /* \"#utility.yul\":15500:15722   */\n      pop\n        /* \"#utility.yul\":14835:15722   */\n      jump(tag_334)\n        /* \"#utility.yul\":14865:15483   */\n    tag_335:\n        /* \"#utility.yul\":14917:14921   */\n      0x1f\n        /* \"#utility.yul\":14913:14922   */\n      not\n        /* \"#utility.yul\":14905:14911   */\n      dup5\n        /* \"#utility.yul\":14901:14923   */\n      and\n        /* \"#utility.yul\":14951:14988   */\n      tag_338\n        /* \"#utility.yul\":14983:14987   */\n      dup7\n        /* \"#utility.yul\":14951:14988   */\n      tag_151\n      jump\t// in\n    tag_338:\n        /* \"#utility.yul\":15010:15011   */\n      0x00\n        /* \"#utility.yul\":15024:15232   */\n    tag_339:\n        /* \"#utility.yul\":15038:15045   */\n      dup3\n        /* \"#utility.yul\":15035:15036   */\n      dup2\n        /* \"#utility.yul\":15032:15046   */\n      lt\n        /* \"#utility.yul\":15024:15232   */\n      iszero\n      tag_341\n      jumpi\n        /* \"#utility.yul\":15117:15126   */\n      dup5\n        /* \"#utility.yul\":15112:15115   */\n      dup10\n        /* \"#utility.yul\":15108:15127   */\n      add\n        /* \"#utility.yul\":15102:15128   */\n      mload\n        /* \"#utility.yul\":15094:15100   */\n      dup3\n        /* \"#utility.yul\":15087:15129   */\n      sstore\n        /* \"#utility.yul\":15168:15169   */\n      0x01\n        /* \"#utility.yul\":15160:15166   */\n      dup3\n        /* \"#utility.yul\":15156:15170   */\n      add\n        /* \"#utility.yul\":15146:15170   */\n      swap2\n      pop\n        /* \"#utility.yul\":15215:15217   */\n      0x20\n        /* \"#utility.yul\":15204:15213   */\n      dup6\n        /* \"#utility.yul\":15200:15218   */\n      add\n        /* \"#utility.yul\":15187:15218   */\n      swap5\n      pop\n        /* \"#utility.yul\":15061:15065   */\n      0x20\n        /* \"#utility.yul\":15058:15059   */\n      dup2\n        /* \"#utility.yul\":15054:15066   */\n      add\n        /* \"#utility.yul\":15049:15066   */\n      swap1\n      pop\n        /* \"#utility.yul\":15024:15232   */\n      jump(tag_339)\n    tag_341:\n        /* \"#utility.yul\":15260:15266   */\n      dup7\n        /* \"#utility.yul\":15251:15258   */\n      dup4\n        /* \"#utility.yul\":15248:15267   */\n      lt\n        /* \"#utility.yul\":15245:15424   */\n      iszero\n      tag_342\n      jumpi\n        /* \"#utility.yul\":15318:15327   */\n      dup5\n        /* \"#utility.yul\":15313:15316   */\n      dup10\n        /* \"#utility.yul\":15309:15328   */\n      add\n        /* \"#utility.yul\":15303:15329   */\n      mload\n        /* \"#utility.yul\":15361:15409   */\n      tag_343\n        /* \"#utility.yul\":15403:15407   */\n      0x1f\n        /* \"#utility.yul\":15395:15401   */\n      dup10\n        /* \"#utility.yul\":15391:15408   */\n      and\n        /* \"#utility.yul\":15380:15389   */\n      dup3\n        /* \"#utility.yul\":15361:15409   */\n      tag_164\n      jump\t// in\n    tag_343:\n        /* \"#utility.yul\":15353:15359   */\n      dup4\n        /* \"#utility.yul\":15346:15410   */\n      sstore\n        /* \"#utility.yul\":15268:15424   */\n      pop\n        /* \"#utility.yul\":15245:15424   */\n    tag_342:\n        /* \"#utility.yul\":15470:15471   */\n      0x01\n        /* \"#utility.yul\":15466:15467   */\n      0x02\n        /* \"#utility.yul\":15458:15464   */\n      dup9\n        /* \"#utility.yul\":15454:15468   */\n      mul\n        /* \"#utility.yul\":15450:15472   */\n      add\n        /* \"#utility.yul\":15444:15448   */\n      dup9\n        /* \"#utility.yul\":15437:15473   */\n      sstore\n        /* \"#utility.yul\":14872:15483   */\n      pop\n      pop\n      pop\n        /* \"#utility.yul\":14835:15722   */\n    tag_334:\n      pop\n        /* \"#utility.yul\":14425:15728   */\n      pop\n      pop\n      pop\n        /* \"#utility.yul\":14333:15728   */\n      pop\n      pop\n      jump\t// out\n        /* \"#utility.yul\":15734:15914   */\n    tag_52:\n        /* \"#utility.yul\":15782:15859   */\n      0x4e487b7100000000000000000000000000000000000000000000000000000000\n        /* \"#utility.yul\":15779:15780   */\n      0x00\n        /* \"#utility.yul\":15772:15860   */\n      mstore\n        /* \"#utility.yul\":15879:15883   */\n      0x32\n        /* \"#utility.yul\":15876:15877   */\n      0x04\n        /* \"#utility.yul\":15869:15884   */\n      mstore\n        /* \"#utility.yul\":15903:15907   */\n      0x24\n        /* \"#utility.yul\":15900:15901   */\n      0x00\n        /* \"#utility.yul\":15893:15908   */\n      revert\n        /* \"#utility.yul\":15920:16146   */\n    tag_166:\n        /* \"#utility.yul\":16060:16094   */\n      0x50617961626c6520616d6f756e74206e6f74206571756c2070726f6a65637420\n        /* \"#utility.yul\":16056:16057   */\n      0x00\n        /* \"#utility.yul\":16048:16054   */\n      dup3\n        /* \"#utility.yul\":16044:16058   */\n      add\n        /* \"#utility.yul\":16037:16095   */\n      mstore\n        /* \"#utility.yul\":16129:16138   */\n      0x616d6f756e742e00000000000000000000000000000000000000000000000000\n        /* \"#utility.yul\":16124:16126   */\n      0x20\n        /* \"#utility.yul\":16116:16122   */\n      dup3\n        /* \"#utility.yul\":16112:16127   */\n      add\n        /* \"#utility.yul\":16105:16139   */\n      mstore\n        /* \"#utility.yul\":15920:16146   */\n      pop\n      jump\t// out\n        /* \"#utility.yul\":16152:16518   */\n    tag_167:\n        /* \"#utility.yul\":16294:16297   */\n      0x00\n        /* \"#utility.yul\":16315:16382   */\n      tag_347\n        /* \"#utility.yul\":16379:16381   */\n      0x27\n        /* \"#utility.yul\":16374:16377   */\n      dup4\n        /* \"#utility.yul\":16315:16382   */\n      tag_136\n      jump\t// in\n    tag_347:\n        /* \"#utility.yul\":16308:16382   */\n      swap2\n      pop\n        /* \"#utility.yul\":16391:16484   */\n      tag_348\n        /* \"#utility.yul\":16480:16483   */\n      dup3\n        /* \"#utility.yul\":16391:16484   */\n      tag_166\n      jump\t// in\n    tag_348:\n        /* \"#utility.yul\":16509:16511   */\n      0x40\n        /* \"#utility.yul\":16504:16507   */\n      dup3\n        /* \"#utility.yul\":16500:16512   */\n      add\n        /* \"#utility.yul\":16493:16512   */\n      swap1\n      pop\n        /* \"#utility.yul\":16152:16518   */\n      swap2\n      swap1\n      pop\n      jump\t// out\n        /* \"#utility.yul\":16524:16943   */\n    tag_56:\n        /* \"#utility.yul\":16690:16694   */\n      0x00\n        /* \"#utility.yul\":16728:16730   */\n      0x20\n        /* \"#utility.yul\":16717:16726   */\n      dup3\n        /* \"#utility.yul\":16713:16731   */\n      add\n        /* \"#utility.yul\":16705:16731   */\n      swap1\n      pop\n        /* \"#utility.yul\":16777:16786   */\n      dup2\n        /* \"#utility.yul\":16771:16775   */\n      dup2\n        /* \"#utility.yul\":16767:16787   */\n      sub\n        /* \"#utility.yul\":16763:16764   */\n      0x00\n        /* \"#utility.yul\":16752:16761   */\n      dup4\n        /* \"#utility.yul\":16748:16765   */\n      add\n        /* \"#utility.yul\":16741:16788   */\n      mstore\n        /* \"#utility.yul\":16805:16936   */\n      tag_350\n        /* \"#utility.yul\":16931:16935   */\n      dup2\n        /* \"#utility.yul\":16805:16936   */\n      tag_167\n      jump\t// in\n    tag_350:\n        /* \"#utility.yul\":16797:16936   */\n      swap1\n      pop\n        /* \"#utility.yul\":16524:16943   */\n      swap2\n      swap1\n      pop\n      jump\t// out\n        /* \"#utility.yul\":16949:17116   */\n    tag_168:\n        /* \"#utility.yul\":17089:17108   */\n      0x5265636f7264206e6f7420666f756e642e000000000000000000000000000000\n        /* \"#utility.yul\":17085:17086   */\n      0x00\n        /* \"#utility.yul\":17077:17083   */\n      dup3\n        /* \"#utility.yul\":17073:17087   */\n      add\n        /* \"#utility.yul\":17066:17109   */\n      mstore\n        /* \"#utility.yul\":16949:17116   */\n      pop\n      jump\t// out\n        /* \"#utility.yul\":17122:17488   */\n    tag_169:\n        /* \"#utility.yul\":17264:17267   */\n      0x00\n        /* \"#utility.yul\":17285:17352   */\n      tag_353\n        /* \"#utility.yul\":17349:17351   */\n      0x11\n        /* \"#utility.yul\":17344:17347   */\n      dup4\n        /* \"#utility.yul\":17285:17352   */\n      tag_136\n      jump\t// in\n    tag_353:\n        /* \"#utility.yul\":17278:17352   */\n      swap2\n      pop\n        /* \"#utility.yul\":17361:17454   */\n      tag_354\n        /* \"#utility.yul\":17450:17453   */\n      dup3\n        /* \"#utility.yul\":17361:17454   */\n      tag_168\n      jump\t// in\n    tag_354:\n        /* \"#utility.yul\":17479:17481   */\n      0x20\n        /* \"#utility.yul\":17474:17477   */\n      dup3\n        /* \"#utility.yul\":17470:17482   */\n      add\n        /* \"#utility.yul\":17463:17482   */\n      swap1\n      pop\n        /* \"#utility.yul\":17122:17488   */\n      swap2\n      swap1\n      pop\n      jump\t// out\n        /* \"#utility.yul\":17494:17913   */\n    tag_105:\n        /* \"#utility.yul\":17660:17664   */\n      0x00\n        /* \"#utility.yul\":17698:17700   */\n      0x20\n        /* \"#utility.yul\":17687:17696   */\n      dup3\n        /* \"#utility.yul\":17683:17701   */\n      add\n        /* \"#utility.yul\":17675:17701   */\n      swap1\n      pop\n        /* \"#utility.yul\":17747:17756   */\n      dup2\n        /* \"#utility.yul\":17741:17745   */\n      dup2\n        /* \"#utility.yul\":17737:17757   */\n      sub\n        /* \"#utility.yul\":17733:17734   */\n      0x00\n        /* \"#utility.yul\":17722:17731   */\n      dup4\n        /* \"#utility.yul\":17718:17735   */\n      add\n        /* \"#utility.yul\":17711:17758   */\n      mstore\n        /* \"#utility.yul\":17775:17906   */\n      tag_356\n        /* \"#utility.yul\":17901:17905   */\n      dup2\n        /* \"#utility.yul\":17775:17906   */\n      tag_169\n      jump\t// in\n    tag_356:\n        /* \"#utility.yul\":17767:17906   */\n      swap1\n      pop\n        /* \"#utility.yul\":17494:17913   */\n      swap2\n      swap1\n      pop\n      jump\t// out\n\n    auxdata: 0xa2646970667358221220bc3c6e806b6287ee003b49b17869432306c001161409e888b9099123bbb0e1b464736f6c63430008120033\n}\n",
				"bytecode": {
					"linkReferences": {},
					"object": "608060405234801561001057600080fd5b5061136d806100206000396000f3fe60806040526004361061004a5760003560e01c806309750dc11461004f57806333519c8614610078578063a7251947146100a3578063b4fed977146100bf578063f6e3fb0614610102575b600080fd5b34801561005b57600080fd5b5061007660048036038101906100719190610b31565b610142565b005b34801561008457600080fd5b5061008d6102fb565b60405161009a9190610bdf565b60405180910390f35b6100bd60048036038101906100b89190610bfa565b610307565b005b3480156100cb57600080fd5b506100e660048036038101906100e19190610c3a565b6104e1565b6040516100f99796959493929190610e5c565b60405180910390f35b34801561010e57600080fd5b5061012960048036038101906101249190610c3a565b6107a3565b6040516101399493929190610ee0565b60405180910390f35b60006040518060e001604052803373ffffffffffffffffffffffffffffffffffffffff16815260200186815260200185815260200184815260200183815260200160028054806020026020016040519081016040528092919081815260200182805480156101cf57602002820191906000526020600020905b8154815260200190600101908083116101bb575b50505050508152602001600060048111156101ed576101ec610de5565b5b8152509050600081908060018154018082558091505060019003906000526020600020906007020160009091909190915060008201518160000160006101000a81548173ffffffffffffffffffffffffffffffffffffffff021916908373ffffffffffffffffffffffffffffffffffffffff160217905550602082015181600101908161027a9190611138565b5060408201518160020190816102909190611138565b50606082015181600301556080820151816004015560a08201518160050190805190602001906102c1929190610937565b5060c08201518160060160006101000a81548160ff021916908360048111156102ed576102ec610de5565b5b021790555050505050505050565b60008080549050905090565b346000838154811061031c5761031b61120a565b5b9060005260206000209060070201600301541461036e576040517f08c379a0000000000000000000000000000000000000000000000000000000008152600401610365906112ab565b60405180910390fd5b60008083815481106103835761038261120a565b5b906000526020600020906007020160000160009054906101000a900473ffffffffffffffffffffffffffffffffffffffff169050600083815481106103cb576103ca61120a565b5b906000526020600020906007020160050182908060018154018082558091505060019003906000526020600020016000909190919091505560016000838152602001908152602001600020600101839080600181540180825580915050600190039060005260206000200160009091909190915055336001600084815260200190815260200160002060000160006101000a81548173ffffffffffffffffffffffffffffffffffffffff021916908373ffffffffffffffffffffffffffffffffffffffff1602179055508073ffffffffffffffffffffffffffffffffffffffff166108fc349081150290604051600060405180830381858888f193505050501580156104db573d6000803e3d6000fd5b50505050565b600060608060008060606000808881548110610500576104ff61120a565b5b906000526020600020906007020160000160009054906101000a900473ffffffffffffffffffffffffffffffffffffffff16600089815481106105465761054561120a565b5b906000526020600020906007020160010160008a8154811061056b5761056a61120a565b5b906000526020600020906007020160020160008b815481106105905761058f61120a565b5b90600052602060002090600702016003015460008c815481106105b6576105b561120a565b5b90600052602060002090600702016004015460008d815481106105dc576105db61120a565b5b906000526020600020906007020160050160008e815481106106015761060061120a565b5b906000526020600020906007020160060160009054906101000a900460ff1685805461062c90610f5b565b80601f016020809104026020016040519081016040528092919081815260200182805461065890610f5b565b80156106a55780601f1061067a576101008083540402835291602001916106a5565b820191906000526020600020905b81548152906001019060200180831161068857829003601f168201915b505050505095508480546106b890610f5b565b80601f01602080910402602001604051908101604052809291908181526020018280546106e490610f5b565b80156107315780601f1061070657610100808354040283529160200191610731565b820191906000526020600020905b81548152906001019060200180831161071457829003601f168201915b505050505094508180548060200260200160405190810160405280929190818152602001828054801561078357602002820191906000526020600020905b81548152602001906001019080831161076f575b505050505091509650965096509650965096509650919395979092949650565b606060008060003373ffffffffffffffffffffffffffffffffffffffff166001600087815260200190815260200160002060000160009054906101000a900473ffffffffffffffffffffffffffffffffffffffff1673ffffffffffffffffffffffffffffffffffffffff161461084e576040517f08c379a000000000000000000000000000000000000000000000000000000000815260040161084590611317565b60405180910390fd5b6001600086815260200190815260200160002060010160016000878152602001908152602001600020600201546001600088815260200190815260200160002060030160009054906101000a900460ff166001600089815260200190815260200160002060000160009054906101000a900473ffffffffffffffffffffffffffffffffffffffff168380548060200260200160405190810160405280929190818152602001828054801561092157602002820191906000526020600020905b81548152602001906001019080831161090d575b5050505050935093509350935093509193509193565b828054828255906000526020600020908101928215610973579160200282015b82811115610972578251825591602001919060010190610957565b5b5090506109809190610984565b5090565b5b8082111561099d576000816000905550600101610985565b5090565b6000604051905090565b600080fd5b600080fd5b600080fd5b600080fd5b6000601f19601f8301169050919050565b7f4e487b7100000000000000000000000000000000000000000000000000000000600052604160045260246000fd5b610a08826109bf565b810181811067ffffffffffffffff82111715610a2757610a266109d0565b5b80604052505050565b6000610a3a6109a1565b9050610a4682826109ff565b919050565b600067ffffffffffffffff821115610a6657610a656109d0565b5b610a6f826109bf565b9050602081019050919050565b82818337600083830152505050565b6000610a9e610a9984610a4b565b610a30565b905082815260208101848484011115610aba57610ab96109ba565b5b610ac5848285610a7c565b509392505050565b600082601f830112610ae257610ae16109b5565b5b8135610af2848260208601610a8b565b91505092915050565b6000819050919050565b610b0e81610afb565b8114610b1957600080fd5b50565b600081359050610b2b81610b05565b92915050565b60008060008060808587031215610b4b57610b4a6109ab565b5b600085013567ffffffffffffffff811115610b6957610b686109b0565b5b610b7587828801610acd565b945050602085013567ffffffffffffffff811115610b9657610b956109b0565b5b610ba287828801610acd565b9350506040610bb387828801610b1c565b9250506060610bc487828801610b1c565b91505092959194509250565b610bd981610afb565b82525050565b6000602082019050610bf46000830184610bd0565b92915050565b60008060408385031215610c1157610c106109ab565b5b6000610c1f85828601610b1c565b9250506020610c3085828601610b1c565b9150509250929050565b600060208284031215610c5057610c4f6109ab565b5b6000610c5e84828501610b1c565b91505092915050565b600073ffffffffffffffffffffffffffffffffffffffff82169050919050565b6000610c9282610c67565b9050919050565b610ca281610c87565b82525050565b600081519050919050565b600082825260208201905092915050565b60005b83811015610ce2578082015181840152602081019050610cc7565b60008484015250505050565b6000610cf982610ca8565b610d038185610cb3565b9350610d13818560208601610cc4565b610d1c816109bf565b840191505092915050565b600081519050919050565b600082825260208201905092915050565b6000819050602082019050919050565b610d5c81610afb565b82525050565b6000610d6e8383610d53565b60208301905092915050565b6000602082019050919050565b6000610d9282610d27565b610d9c8185610d32565b9350610da783610d43565b8060005b83811015610dd8578151610dbf8882610d62565b9750610dca83610d7a565b925050600181019050610dab565b5085935050505092915050565b7f4e487b7100000000000000000000000000000000000000000000000000000000600052602160045260246000fd5b60058110610e2557610e24610de5565b5b50565b6000819050610e3682610e14565b919050565b6000610e4682610e28565b9050919050565b610e5681610e3b565b82525050565b600060e082019050610e71600083018a610c99565b8181036020830152610e838189610cee565b90508181036040830152610e978188610cee565b9050610ea66060830187610bd0565b610eb36080830186610bd0565b81810360a0830152610ec58185610d87565b9050610ed460c0830184610e4d565b98975050505050505050565b60006080820190508181036000830152610efa8187610d87565b9050610f096020830186610bd0565b610f166040830185610e4d565b610f236060830184610c99565b95945050505050565b7f4e487b7100000000000000000000000000000000000000000000000000000000600052602260045260246000fd5b60006002820490506001821680610f7357607f821691505b602082108103610f8657610f85610f2c565b5b50919050565b60008190508160005260206000209050919050565b60006020601f8301049050919050565b600082821b905092915050565b600060088302610fee7fffffffffffffffffffffffffffffffffffffffffffffffffffffffffffffffff82610fb1565b610ff88683610fb1565b95508019841693508086168417925050509392505050565b6000819050919050565b600061103561103061102b84610afb565b611010565b610afb565b9050919050565b6000819050919050565b61104f8361101a565b61106361105b8261103c565b848454610fbe565b825550505050565b600090565b61107861106b565b611083818484611046565b505050565b5b818110156110a75761109c600082611070565b600181019050611089565b5050565b601f8211156110ec576110bd81610f8c565b6110c684610fa1565b810160208510156110d5578190505b6110e96110e185610fa1565b830182611088565b50505b505050565b600082821c905092915050565b600061110f600019846008026110f1565b1980831691505092915050565b600061112883836110fe565b9150826002028217905092915050565b61114182610ca8565b67ffffffffffffffff81111561115a576111596109d0565b5b6111648254610f5b565b61116f8282856110ab565b600060209050601f8311600181146111a25760008415611190578287015190505b61119a858261111c565b865550611202565b601f1984166111b086610f8c565b60005b828110156111d8578489015182556001820191506020850194506020810190506111b3565b868310156111f557848901516111f1601f8916826110fe565b8355505b6001600288020188555050505b505050505050565b7f4e487b7100000000000000000000000000000000000000000000000000000000600052603260045260246000fd5b7f50617961626c6520616d6f756e74206e6f74206571756c2070726f6a6563742060008201527f616d6f756e742e00000000000000000000000000000000000000000000000000602082015250565b6000611295602783610cb3565b91506112a082611239565b604082019050919050565b600060208201905081810360008301526112c481611288565b9050919050565b7f5265636f7264206e6f7420666f756e642e000000000000000000000000000000600082015250565b6000611301601183610cb3565b915061130c826112cb565b602082019050919050565b60006020820190508181036000830152611330816112f4565b905091905056fea2646970667358221220bc3c6e806b6287ee003b49b17869432306c001161409e888b9099123bbb0e1b464736f6c63430008120033",
					"opcodes": "PUSH1 0x80 PUSH1 0x40 MSTORE CALLVALUE DUP1 ISZERO PUSH2 0x10 JUMPI PUSH1 0x0 DUP1 REVERT JUMPDEST POP PUSH2 0x136D DUP1 PUSH2 0x20 PUSH1 0x0 CODECOPY PUSH1 0x0 RETURN INVALID PUSH1 0x80 PUSH1 0x40 MSTORE PUSH1 0x4 CALLDATASIZE LT PUSH2 0x4A JUMPI PUSH1 0x0 CALLDATALOAD PUSH1 0xE0 SHR DUP1 PUSH4 0x9750DC1 EQ PUSH2 0x4F JUMPI DUP1 PUSH4 0x33519C86 EQ PUSH2 0x78 JUMPI DUP1 PUSH4 0xA7251947 EQ PUSH2 0xA3 JUMPI DUP1 PUSH4 0xB4FED977 EQ PUSH2 0xBF JUMPI DUP1 PUSH4 0xF6E3FB06 EQ PUSH2 0x102 JUMPI JUMPDEST PUSH1 0x0 DUP1 REVERT JUMPDEST CALLVALUE DUP1 ISZERO PUSH2 0x5B JUMPI PUSH1 0x0 DUP1 REVERT JUMPDEST POP PUSH2 0x76 PUSH1 0x4 DUP1 CALLDATASIZE SUB DUP2 ADD SWAP1 PUSH2 0x71 SWAP2 SWAP1 PUSH2 0xB31 JUMP JUMPDEST PUSH2 0x142 JUMP JUMPDEST STOP JUMPDEST CALLVALUE DUP1 ISZERO PUSH2 0x84 JUMPI PUSH1 0x0 DUP1 REVERT JUMPDEST POP PUSH2 0x8D PUSH2 0x2FB JUMP JUMPDEST PUSH1 0x40 MLOAD PUSH2 0x9A SWAP2 SWAP1 PUSH2 0xBDF JUMP JUMPDEST PUSH1 0x40 MLOAD DUP1 SWAP2 SUB SWAP1 RETURN JUMPDEST PUSH2 0xBD PUSH1 0x4 DUP1 CALLDATASIZE SUB DUP2 ADD SWAP1 PUSH2 0xB8 SWAP2 SWAP1 PUSH2 0xBFA JUMP JUMPDEST PUSH2 0x307 JUMP JUMPDEST STOP JUMPDEST CALLVALUE DUP1 ISZERO PUSH2 0xCB JUMPI PUSH1 0x0 DUP1 REVERT JUMPDEST POP PUSH2 0xE6 PUSH1 0x4 DUP1 CALLDATASIZE SUB DUP2 ADD SWAP1 PUSH2 0xE1 SWAP2 SWAP1 PUSH2 0xC3A JUMP JUMPDEST PUSH2 0x4E1 JUMP JUMPDEST PUSH1 0x40 MLOAD PUSH2 0xF9 SWAP8 SWAP7 SWAP6 SWAP5 SWAP4 SWAP3 SWAP2 SWAP1 PUSH2 0xE5C JUMP JUMPDEST PUSH1 0x40 MLOAD DUP1 SWAP2 SUB SWAP1 RETURN JUMPDEST CALLVALUE DUP1 ISZERO PUSH2 0x10E JUMPI PUSH1 0x0 DUP1 REVERT JUMPDEST POP PUSH2 0x129 PUSH1 0x4 DUP1 CALLDATASIZE SUB DUP2 ADD SWAP1 PUSH2 0x124 SWAP2 SWAP1 PUSH2 0xC3A JUMP JUMPDEST PUSH2 0x7A3 JUMP JUMPDEST PUSH1 0x40 MLOAD PUSH2 0x139 SWAP5 SWAP4 SWAP3 SWAP2 SWAP1 PUSH2 0xEE0 JUMP JUMPDEST PUSH1 0x40 MLOAD DUP1 SWAP2 SUB SWAP1 RETURN JUMPDEST PUSH1 0x0 PUSH1 0x40 MLOAD DUP1 PUSH1 0xE0 ADD PUSH1 0x40 MSTORE DUP1 CALLER PUSH20 0xFFFFFFFFFFFFFFFFFFFFFFFFFFFFFFFFFFFFFFFF AND DUP2 MSTORE PUSH1 0x20 ADD DUP7 DUP2 MSTORE PUSH1 0x20 ADD DUP6 DUP2 MSTORE PUSH1 0x20 ADD DUP5 DUP2 MSTORE PUSH1 0x20 ADD DUP4 DUP2 MSTORE PUSH1 0x20 ADD PUSH1 0x2 DUP1 SLOAD DUP1 PUSH1 0x20 MUL PUSH1 0x20 ADD PUSH1 0x40 MLOAD SWAP1 DUP2 ADD PUSH1 0x40 MSTORE DUP1 SWAP3 SWAP2 SWAP1 DUP2 DUP2 MSTORE PUSH1 0x20 ADD DUP3 DUP1 SLOAD DUP1 ISZERO PUSH2 0x1CF JUMPI PUSH1 0x20 MUL DUP3 ADD SWAP2 SWAP1 PUSH1 0x0 MSTORE PUSH1 0x20 PUSH1 0x0 KECCAK256 SWAP1 JUMPDEST DUP2 SLOAD DUP2 MSTORE PUSH1 0x20 ADD SWAP1 PUSH1 0x1 ADD SWAP1 DUP1 DUP4 GT PUSH2 0x1BB JUMPI JUMPDEST POP POP POP POP POP DUP2 MSTORE PUSH1 0x20 ADD PUSH1 0x0 PUSH1 0x4 DUP2 GT ISZERO PUSH2 0x1ED JUMPI PUSH2 0x1EC PUSH2 0xDE5 JUMP JUMPDEST JUMPDEST DUP2 MSTORE POP SWAP1 POP PUSH1 0x0 DUP2 SWAP1 DUP1 PUSH1 0x1 DUP2 SLOAD ADD DUP1 DUP3 SSTORE DUP1 SWAP2 POP POP PUSH1 0x1 SWAP1 SUB SWAP1 PUSH1 0x0 MSTORE PUSH1 0x20 PUSH1 0x0 KECCAK256 SWAP1 PUSH1 0x7 MUL ADD PUSH1 0x0 SWAP1 SWAP2 SWAP1 SWAP2 SWAP1 SWAP2 POP PUSH1 0x0 DUP3 ADD MLOAD DUP2 PUSH1 0x0 ADD PUSH1 0x0 PUSH2 0x100 EXP DUP2 SLOAD DUP2 PUSH20 0xFFFFFFFFFFFFFFFFFFFFFFFFFFFFFFFFFFFFFFFF MUL NOT AND SWAP1 DUP4 PUSH20 0xFFFFFFFFFFFFFFFFFFFFFFFFFFFFFFFFFFFFFFFF AND MUL OR SWAP1 SSTORE POP PUSH1 0x20 DUP3 ADD MLOAD DUP2 PUSH1 0x1 ADD SWAP1 DUP2 PUSH2 0x27A SWAP2 SWAP1 PUSH2 0x1138 JUMP JUMPDEST POP PUSH1 0x40 DUP3 ADD MLOAD DUP2 PUSH1 0x2 ADD SWAP1 DUP2 PUSH2 0x290 SWAP2 SWAP1 PUSH2 0x1138 JUMP JUMPDEST POP PUSH1 0x60 DUP3 ADD MLOAD DUP2 PUSH1 0x3 ADD SSTORE PUSH1 0x80 DUP3 ADD MLOAD DUP2 PUSH1 0x4 ADD SSTORE PUSH1 0xA0 DUP3 ADD MLOAD DUP2 PUSH1 0x5 ADD SWAP1 DUP1 MLOAD SWAP1 PUSH1 0x20 ADD SWAP1 PUSH2 0x2C1 SWAP3 SWAP2 SWAP1 PUSH2 0x937 JUMP JUMPDEST POP PUSH1 0xC0 DUP3 ADD MLOAD DUP2 PUSH1 0x6 ADD PUSH1 0x0 PUSH2 0x100 EXP DUP2 SLOAD DUP2 PUSH1 0xFF MUL NOT AND SWAP1 DUP4 PUSH1 0x4 DUP2 GT ISZERO PUSH2 0x2ED JUMPI PUSH2 0x2EC PUSH2 0xDE5 JUMP JUMPDEST JUMPDEST MUL OR SWAP1 SSTORE POP POP POP POP POP POP POP POP JUMP JUMPDEST PUSH1 0x0 DUP1 DUP1 SLOAD SWAP1 POP SWAP1 POP SWAP1 JUMP JUMPDEST CALLVALUE PUSH1 0x0 DUP4 DUP2 SLOAD DUP2 LT PUSH2 0x31C JUMPI PUSH2 0x31B PUSH2 0x120A JUMP JUMPDEST JUMPDEST SWAP1 PUSH1 0x0 MSTORE PUSH1 0x20 PUSH1 0x0 KECCAK256 SWAP1 PUSH1 0x7 MUL ADD PUSH1 0x3 ADD SLOAD EQ PUSH2 0x36E JUMPI PUSH1 0x40 MLOAD PUSH32 0x8C379A000000000000000000000000000000000000000000000000000000000 DUP2 MSTORE PUSH1 0x4 ADD PUSH2 0x365 SWAP1 PUSH2 0x12AB JUMP JUMPDEST PUSH1 0x40 MLOAD DUP1 SWAP2 SUB SWAP1 REVERT JUMPDEST PUSH1 0x0 DUP1 DUP4 DUP2 SLOAD DUP2 LT PUSH2 0x383 JUMPI PUSH2 0x382 PUSH2 0x120A JUMP JUMPDEST JUMPDEST SWAP1 PUSH1 0x0 MSTORE PUSH1 0x20 PUSH1 0x0 KECCAK256 SWAP1 PUSH1 0x7 MUL ADD PUSH1 0x0 ADD PUSH1 0x0 SWAP1 SLOAD SWAP1 PUSH2 0x100 EXP SWAP1 DIV PUSH20 0xFFFFFFFFFFFFFFFFFFFFFFFFFFFFFFFFFFFFFFFF AND SWAP1 POP PUSH1 0x0 DUP4 DUP2 SLOAD DUP2 LT PUSH2 0x3CB JUMPI PUSH2 0x3CA PUSH2 0x120A JUMP JUMPDEST JUMPDEST SWAP1 PUSH1 0x0 MSTORE PUSH1 0x20 PUSH1 0x0 KECCAK256 SWAP1 PUSH1 0x7 MUL ADD PUSH1 0x5 ADD DUP3 SWAP1 DUP1 PUSH1 0x1 DUP2 SLOAD ADD DUP1 DUP3 SSTORE DUP1 SWAP2 POP POP PUSH1 0x1 SWAP1 SUB SWAP1 PUSH1 0x0 MSTORE PUSH1 0x20 PUSH1 0x0 KECCAK256 ADD PUSH1 0x0 SWAP1 SWAP2 SWAP1 SWAP2 SWAP1 SWAP2 POP SSTORE PUSH1 0x1 PUSH1 0x0 DUP4 DUP2 MSTORE PUSH1 0x20 ADD SWAP1 DUP2 MSTORE PUSH1 0x20 ADD PUSH1 0x0 KECCAK256 PUSH1 0x1 ADD DUP4 SWAP1 DUP1 PUSH1 0x1 DUP2 SLOAD ADD DUP1 DUP3 SSTORE DUP1 SWAP2 POP POP PUSH1 0x1 SWAP1 SUB SWAP1 PUSH1 0x0 MSTORE PUSH1 0x20 PUSH1 0x0 KECCAK256 ADD PUSH1 0x0 SWAP1 SWAP2 SWAP1 SWAP2 SWAP1 SWAP2 POP SSTORE CALLER PUSH1 0x1 PUSH1 0x0 DUP5 DUP2 MSTORE PUSH1 0x20 ADD SWAP1 DUP2 MSTORE PUSH1 0x20 ADD PUSH1 0x0 KECCAK256 PUSH1 0x0 ADD PUSH1 0x0 PUSH2 0x100 EXP DUP2 SLOAD DUP2 PUSH20 0xFFFFFFFFFFFFFFFFFFFFFFFFFFFFFFFFFFFFFFFF MUL NOT AND SWAP1 DUP4 PUSH20 0xFFFFFFFFFFFFFFFFFFFFFFFFFFFFFFFFFFFFFFFF AND MUL OR SWAP1 SSTORE POP DUP1 PUSH20 0xFFFFFFFFFFFFFFFFFFFFFFFFFFFFFFFFFFFFFFFF AND PUSH2 0x8FC CALLVALUE SWAP1 DUP2 ISZERO MUL SWAP1 PUSH1 0x40 MLOAD PUSH1 0x0 PUSH1 0x40 MLOAD DUP1 DUP4 SUB DUP2 DUP6 DUP9 DUP9 CALL SWAP4 POP POP POP POP ISZERO DUP1 ISZERO PUSH2 0x4DB JUMPI RETURNDATASIZE PUSH1 0x0 DUP1 RETURNDATACOPY RETURNDATASIZE PUSH1 0x0 REVERT JUMPDEST POP POP POP POP JUMP JUMPDEST PUSH1 0x0 PUSH1 0x60 DUP1 PUSH1 0x0 DUP1 PUSH1 0x60 PUSH1 0x0 DUP1 DUP9 DUP2 SLOAD DUP2 LT PUSH2 0x500 JUMPI PUSH2 0x4FF PUSH2 0x120A JUMP JUMPDEST JUMPDEST SWAP1 PUSH1 0x0 MSTORE PUSH1 0x20 PUSH1 0x0 KECCAK256 SWAP1 PUSH1 0x7 MUL ADD PUSH1 0x0 ADD PUSH1 0x0 SWAP1 SLOAD SWAP1 PUSH2 0x100 EXP SWAP1 DIV PUSH20 0xFFFFFFFFFFFFFFFFFFFFFFFFFFFFFFFFFFFFFFFF AND PUSH1 0x0 DUP10 DUP2 SLOAD DUP2 LT PUSH2 0x546 JUMPI PUSH2 0x545 PUSH2 0x120A JUMP JUMPDEST JUMPDEST SWAP1 PUSH1 0x0 MSTORE PUSH1 0x20 PUSH1 0x0 KECCAK256 SWAP1 PUSH1 0x7 MUL ADD PUSH1 0x1 ADD PUSH1 0x0 DUP11 DUP2 SLOAD DUP2 LT PUSH2 0x56B JUMPI PUSH2 0x56A PUSH2 0x120A JUMP JUMPDEST JUMPDEST SWAP1 PUSH1 0x0 MSTORE PUSH1 0x20 PUSH1 0x0 KECCAK256 SWAP1 PUSH1 0x7 MUL ADD PUSH1 0x2 ADD PUSH1 0x0 DUP12 DUP2 SLOAD DUP2 LT PUSH2 0x590 JUMPI PUSH2 0x58F PUSH2 0x120A JUMP JUMPDEST JUMPDEST SWAP1 PUSH1 0x0 MSTORE PUSH1 0x20 PUSH1 0x0 KECCAK256 SWAP1 PUSH1 0x7 MUL ADD PUSH1 0x3 ADD SLOAD PUSH1 0x0 DUP13 DUP2 SLOAD DUP2 LT PUSH2 0x5B6 JUMPI PUSH2 0x5B5 PUSH2 0x120A JUMP JUMPDEST JUMPDEST SWAP1 PUSH1 0x0 MSTORE PUSH1 0x20 PUSH1 0x0 KECCAK256 SWAP1 PUSH1 0x7 MUL ADD PUSH1 0x4 ADD SLOAD PUSH1 0x0 DUP14 DUP2 SLOAD DUP2 LT PUSH2 0x5DC JUMPI PUSH2 0x5DB PUSH2 0x120A JUMP JUMPDEST JUMPDEST SWAP1 PUSH1 0x0 MSTORE PUSH1 0x20 PUSH1 0x0 KECCAK256 SWAP1 PUSH1 0x7 MUL ADD PUSH1 0x5 ADD PUSH1 0x0 DUP15 DUP2 SLOAD DUP2 LT PUSH2 0x601 JUMPI PUSH2 0x600 PUSH2 0x120A JUMP JUMPDEST JUMPDEST SWAP1 PUSH1 0x0 MSTORE PUSH1 0x20 PUSH1 0x0 KECCAK256 SWAP1 PUSH1 0x7 MUL ADD PUSH1 0x6 ADD PUSH1 0x0 SWAP1 SLOAD SWAP1 PUSH2 0x100 EXP SWAP1 DIV PUSH1 0xFF AND DUP6 DUP1 SLOAD PUSH2 0x62C SWAP1 PUSH2 0xF5B JUMP JUMPDEST DUP1 PUSH1 0x1F ADD PUSH1 0x20 DUP1 SWAP2 DIV MUL PUSH1 0x20 ADD PUSH1 0x40 MLOAD SWAP1 DUP2 ADD PUSH1 0x40 MSTORE DUP1 SWAP3 SWAP2 SWAP1 DUP2 DUP2 MSTORE PUSH1 0x20 ADD DUP3 DUP1 SLOAD PUSH2 0x658 SWAP1 PUSH2 0xF5B JUMP JUMPDEST DUP1 ISZERO PUSH2 0x6A5 JUMPI DUP1 PUSH1 0x1F LT PUSH2 0x67A JUMPI PUSH2 0x100 DUP1 DUP4 SLOAD DIV MUL DUP4 MSTORE SWAP2 PUSH1 0x20 ADD SWAP2 PUSH2 0x6A5 JUMP JUMPDEST DUP3 ADD SWAP2 SWAP1 PUSH1 0x0 MSTORE PUSH1 0x20 PUSH1 0x0 KECCAK256 SWAP1 JUMPDEST DUP2 SLOAD DUP2 MSTORE SWAP1 PUSH1 0x1 ADD SWAP1 PUSH1 0x20 ADD DUP1 DUP4 GT PUSH2 0x688 JUMPI DUP3 SWAP1 SUB PUSH1 0x1F AND DUP3 ADD SWAP2 JUMPDEST POP POP POP POP POP SWAP6 POP DUP5 DUP1 SLOAD PUSH2 0x6B8 SWAP1 PUSH2 0xF5B JUMP JUMPDEST DUP1 PUSH1 0x1F ADD PUSH1 0x20 DUP1 SWAP2 DIV MUL PUSH1 0x20 ADD PUSH1 0x40 MLOAD SWAP1 DUP2 ADD PUSH1 0x40 MSTORE DUP1 SWAP3 SWAP2 SWAP1 DUP2 DUP2 MSTORE PUSH1 0x20 ADD DUP3 DUP1 SLOAD PUSH2 0x6E4 SWAP1 PUSH2 0xF5B JUMP JUMPDEST DUP1 ISZERO PUSH2 0x731 JUMPI DUP1 PUSH1 0x1F LT PUSH2 0x706 JUMPI PUSH2 0x100 DUP1 DUP4 SLOAD DIV MUL DUP4 MSTORE SWAP2 PUSH1 0x20 ADD SWAP2 PUSH2 0x731 JUMP JUMPDEST DUP3 ADD SWAP2 SWAP1 PUSH1 0x0 MSTORE PUSH1 0x20 PUSH1 0x0 KECCAK256 SWAP1 JUMPDEST DUP2 SLOAD DUP2 MSTORE SWAP1 PUSH1 0x1 ADD SWAP1 PUSH1 0x20 ADD DUP1 DUP4 GT PUSH2 0x714 JUMPI DUP3 SWAP1 SUB PUSH1 0x1F AND DUP3 ADD SWAP2 JUMPDEST POP POP POP POP POP SWAP5 POP DUP2 DUP1 SLOAD DUP1 PUSH1 0x20 MUL PUSH1 0x20 ADD PUSH1 0x40 MLOAD SWAP1 DUP2 ADD PUSH1 0x40 MSTORE DUP1 SWAP3 SWAP2 SWAP1 DUP2 DUP2 MSTORE PUSH1 0x20 ADD DUP3 DUP1 SLOAD DUP1 ISZERO PUSH2 0x783 JUMPI PUSH1 0x20 MUL DUP3 ADD SWAP2 SWAP1 PUSH1 0x0 MSTORE PUSH1 0x20 PUSH1 0x0 KECCAK256 SWAP1 JUMPDEST DUP2 SLOAD DUP2 MSTORE PUSH1 0x20 ADD SWAP1 PUSH1 0x1 ADD SWAP1 DUP1 DUP4 GT PUSH2 0x76F JUMPI JUMPDEST POP POP POP POP POP SWAP2 POP SWAP7 POP SWAP7 POP SWAP7 POP SWAP7 POP SWAP7 POP SWAP7 POP SWAP7 POP SWAP2 SWAP4 SWAP6 SWAP8 SWAP1 SWAP3 SWAP5 SWAP7 POP JUMP JUMPDEST PUSH1 0x60 PUSH1 0x0 DUP1 PUSH1 0x0 CALLER PUSH20 0xFFFFFFFFFFFFFFFFFFFFFFFFFFFFFFFFFFFFFFFF AND PUSH1 0x1 PUSH1 0x0 DUP8 DUP2 MSTORE PUSH1 0x20 ADD SWAP1 DUP2 MSTORE PUSH1 0x20 ADD PUSH1 0x0 KECCAK256 PUSH1 0x0 ADD PUSH1 0x0 SWAP1 SLOAD SWAP1 PUSH2 0x100 EXP SWAP1 DIV PUSH20 0xFFFFFFFFFFFFFFFFFFFFFFFFFFFFFFFFFFFFFFFF AND PUSH20 0xFFFFFFFFFFFFFFFFFFFFFFFFFFFFFFFFFFFFFFFF AND EQ PUSH2 0x84E JUMPI PUSH1 0x40 MLOAD PUSH32 0x8C379A000000000000000000000000000000000000000000000000000000000 DUP2 MSTORE PUSH1 0x4 ADD PUSH2 0x845 SWAP1 PUSH2 0x1317 JUMP JUMPDEST PUSH1 0x40 MLOAD DUP1 SWAP2 SUB SWAP1 REVERT JUMPDEST PUSH1 0x1 PUSH1 0x0 DUP7 DUP2 MSTORE PUSH1 0x20 ADD SWAP1 DUP2 MSTORE PUSH1 0x20 ADD PUSH1 0x0 KECCAK256 PUSH1 0x1 ADD PUSH1 0x1 PUSH1 0x0 DUP8 DUP2 MSTORE PUSH1 0x20 ADD SWAP1 DUP2 MSTORE PUSH1 0x20 ADD PUSH1 0x0 KECCAK256 PUSH1 0x2 ADD SLOAD PUSH1 0x1 PUSH1 0x0 DUP9 DUP2 MSTORE PUSH1 0x20 ADD SWAP1 DUP2 MSTORE PUSH1 0x20 ADD PUSH1 0x0 KECCAK256 PUSH1 0x3 ADD PUSH1 0x0 SWAP1 SLOAD SWAP1 PUSH2 0x100 EXP SWAP1 DIV PUSH1 0xFF AND PUSH1 0x1 PUSH1 0x0 DUP10 DUP2 MSTORE PUSH1 0x20 ADD SWAP1 DUP2 MSTORE PUSH1 0x20 ADD PUSH1 0x0 KECCAK256 PUSH1 0x0 ADD PUSH1 0x0 SWAP1 SLOAD SWAP1 PUSH2 0x100 EXP SWAP1 DIV PUSH20 0xFFFFFFFFFFFFFFFFFFFFFFFFFFFFFFFFFFFFFFFF AND DUP4 DUP1 SLOAD DUP1 PUSH1 0x20 MUL PUSH1 0x20 ADD PUSH1 0x40 MLOAD SWAP1 DUP2 ADD PUSH1 0x40 MSTORE DUP1 SWAP3 SWAP2 SWAP1 DUP2 DUP2 MSTORE PUSH1 0x20 ADD DUP3 DUP1 SLOAD DUP1 ISZERO PUSH2 0x921 JUMPI PUSH1 0x20 MUL DUP3 ADD SWAP2 SWAP1 PUSH1 0x0 MSTORE PUSH1 0x20 PUSH1 0x0 KECCAK256 SWAP1 JUMPDEST DUP2 SLOAD DUP2 MSTORE PUSH1 0x20 ADD SWAP1 PUSH1 0x1 ADD SWAP1 DUP1 DUP4 GT PUSH2 0x90D JUMPI JUMPDEST POP POP POP POP POP SWAP4 POP SWAP4 POP SWAP4 POP SWAP4 POP SWAP4 POP SWAP2 SWAP4 POP SWAP2 SWAP4 JUMP JUMPDEST DUP3 DUP1 SLOAD DUP3 DUP3 SSTORE SWAP1 PUSH1 0x0 MSTORE PUSH1 0x20 PUSH1 0x0 KECCAK256 SWAP1 DUP2 ADD SWAP3 DUP3 ISZERO PUSH2 0x973 JUMPI SWAP2 PUSH1 0x20 MUL DUP3 ADD JUMPDEST DUP3 DUP2 GT ISZERO PUSH2 0x972 JUMPI DUP3 MLOAD DUP3 SSTORE SWAP2 PUSH1 0x20 ADD SWAP2 SWAP1 PUSH1 0x1 ADD SWAP1 PUSH2 0x957 JUMP JUMPDEST JUMPDEST POP SWAP1 POP PUSH2 0x980 SWAP2 SWAP1 PUSH2 0x984 JUMP JUMPDEST POP SWAP1 JUMP JUMPDEST JUMPDEST DUP1 DUP3 GT ISZERO PUSH2 0x99D JUMPI PUSH1 0x0 DUP2 PUSH1 0x0 SWAP1 SSTORE POP PUSH1 0x1 ADD PUSH2 0x985 JUMP JUMPDEST POP SWAP1 JUMP JUMPDEST PUSH1 0x0 PUSH1 0x40 MLOAD SWAP1 POP SWAP1 JUMP JUMPDEST PUSH1 0x0 DUP1 REVERT JUMPDEST PUSH1 0x0 DUP1 REVERT JUMPDEST PUSH1 0x0 DUP1 REVERT JUMPDEST PUSH1 0x0 DUP1 REVERT JUMPDEST PUSH1 0x0 PUSH1 0x1F NOT PUSH1 0x1F DUP4 ADD AND SWAP1 POP SWAP2 SWAP1 POP JUMP JUMPDEST PUSH32 0x4E487B7100000000000000000000000000000000000000000000000000000000 PUSH1 0x0 MSTORE PUSH1 0x41 PUSH1 0x4 MSTORE PUSH1 0x24 PUSH1 0x0 REVERT JUMPDEST PUSH2 0xA08 DUP3 PUSH2 0x9BF JUMP JUMPDEST DUP2 ADD DUP2 DUP2 LT PUSH8 0xFFFFFFFFFFFFFFFF DUP3 GT OR ISZERO PUSH2 0xA27 JUMPI PUSH2 0xA26 PUSH2 0x9D0 JUMP JUMPDEST JUMPDEST DUP1 PUSH1 0x40 MSTORE POP POP POP JUMP JUMPDEST PUSH1 0x0 PUSH2 0xA3A PUSH2 0x9A1 JUMP JUMPDEST SWAP1 POP PUSH2 0xA46 DUP3 DUP3 PUSH2 0x9FF JUMP JUMPDEST SWAP2 SWAP1 POP JUMP JUMPDEST PUSH1 0x0 PUSH8 0xFFFFFFFFFFFFFFFF DUP3 GT ISZERO PUSH2 0xA66 JUMPI PUSH2 0xA65 PUSH2 0x9D0 JUMP JUMPDEST JUMPDEST PUSH2 0xA6F DUP3 PUSH2 0x9BF JUMP JUMPDEST SWAP1 POP PUSH1 0x20 DUP2 ADD SWAP1 POP SWAP2 SWAP1 POP JUMP JUMPDEST DUP3 DUP2 DUP4 CALLDATACOPY PUSH1 0x0 DUP4 DUP4 ADD MSTORE POP POP POP JUMP JUMPDEST PUSH1 0x0 PUSH2 0xA9E PUSH2 0xA99 DUP5 PUSH2 0xA4B JUMP JUMPDEST PUSH2 0xA30 JUMP JUMPDEST SWAP1 POP DUP3 DUP2 MSTORE PUSH1 0x20 DUP2 ADD DUP5 DUP5 DUP5 ADD GT ISZERO PUSH2 0xABA JUMPI PUSH2 0xAB9 PUSH2 0x9BA JUMP JUMPDEST JUMPDEST PUSH2 0xAC5 DUP5 DUP3 DUP6 PUSH2 0xA7C JUMP JUMPDEST POP SWAP4 SWAP3 POP POP POP JUMP JUMPDEST PUSH1 0x0 DUP3 PUSH1 0x1F DUP4 ADD SLT PUSH2 0xAE2 JUMPI PUSH2 0xAE1 PUSH2 0x9B5 JUMP JUMPDEST JUMPDEST DUP2 CALLDATALOAD PUSH2 0xAF2 DUP5 DUP3 PUSH1 0x20 DUP7 ADD PUSH2 0xA8B JUMP JUMPDEST SWAP2 POP POP SWAP3 SWAP2 POP POP JUMP JUMPDEST PUSH1 0x0 DUP2 SWAP1 POP SWAP2 SWAP1 POP JUMP JUMPDEST PUSH2 0xB0E DUP2 PUSH2 0xAFB JUMP JUMPDEST DUP2 EQ PUSH2 0xB19 JUMPI PUSH1 0x0 DUP1 REVERT JUMPDEST POP JUMP JUMPDEST PUSH1 0x0 DUP2 CALLDATALOAD SWAP1 POP PUSH2 0xB2B DUP2 PUSH2 0xB05 JUMP JUMPDEST SWAP3 SWAP2 POP POP JUMP JUMPDEST PUSH1 0x0 DUP1 PUSH1 0x0 DUP1 PUSH1 0x80 DUP6 DUP8 SUB SLT ISZERO PUSH2 0xB4B JUMPI PUSH2 0xB4A PUSH2 0x9AB JUMP JUMPDEST JUMPDEST PUSH1 0x0 DUP6 ADD CALLDATALOAD PUSH8 0xFFFFFFFFFFFFFFFF DUP2 GT ISZERO PUSH2 0xB69 JUMPI PUSH2 0xB68 PUSH2 0x9B0 JUMP JUMPDEST JUMPDEST PUSH2 0xB75 DUP8 DUP3 DUP9 ADD PUSH2 0xACD JUMP JUMPDEST SWAP5 POP POP PUSH1 0x20 DUP6 ADD CALLDATALOAD PUSH8 0xFFFFFFFFFFFFFFFF DUP2 GT ISZERO PUSH2 0xB96 JUMPI PUSH2 0xB95 PUSH2 0x9B0 JUMP JUMPDEST JUMPDEST PUSH2 0xBA2 DUP8 DUP3 DUP9 ADD PUSH2 0xACD JUMP JUMPDEST SWAP4 POP POP PUSH1 0x40 PUSH2 0xBB3 DUP8 DUP3 DUP9 ADD PUSH2 0xB1C JUMP JUMPDEST SWAP3 POP POP PUSH1 0x60 PUSH2 0xBC4 DUP8 DUP3 DUP9 ADD PUSH2 0xB1C JUMP JUMPDEST SWAP2 POP POP SWAP3 SWAP6 SWAP2 SWAP5 POP SWAP3 POP JUMP JUMPDEST PUSH2 0xBD9 DUP2 PUSH2 0xAFB JUMP JUMPDEST DUP3 MSTORE POP POP JUMP JUMPDEST PUSH1 0x0 PUSH1 0x20 DUP3 ADD SWAP1 POP PUSH2 0xBF4 PUSH1 0x0 DUP4 ADD DUP5 PUSH2 0xBD0 JUMP JUMPDEST SWAP3 SWAP2 POP POP JUMP JUMPDEST PUSH1 0x0 DUP1 PUSH1 0x40 DUP4 DUP6 SUB SLT ISZERO PUSH2 0xC11 JUMPI PUSH2 0xC10 PUSH2 0x9AB JUMP JUMPDEST JUMPDEST PUSH1 0x0 PUSH2 0xC1F DUP6 DUP3 DUP7 ADD PUSH2 0xB1C JUMP JUMPDEST SWAP3 POP POP PUSH1 0x20 PUSH2 0xC30 DUP6 DUP3 DUP7 ADD PUSH2 0xB1C JUMP JUMPDEST SWAP2 POP POP SWAP3 POP SWAP3 SWAP1 POP JUMP JUMPDEST PUSH1 0x0 PUSH1 0x20 DUP3 DUP5 SUB SLT ISZERO PUSH2 0xC50 JUMPI PUSH2 0xC4F PUSH2 0x9AB JUMP JUMPDEST JUMPDEST PUSH1 0x0 PUSH2 0xC5E DUP5 DUP3 DUP6 ADD PUSH2 0xB1C JUMP JUMPDEST SWAP2 POP POP SWAP3 SWAP2 POP POP JUMP JUMPDEST PUSH1 0x0 PUSH20 0xFFFFFFFFFFFFFFFFFFFFFFFFFFFFFFFFFFFFFFFF DUP3 AND SWAP1 POP SWAP2 SWAP1 POP JUMP JUMPDEST PUSH1 0x0 PUSH2 0xC92 DUP3 PUSH2 0xC67 JUMP JUMPDEST SWAP1 POP SWAP2 SWAP1 POP JUMP JUMPDEST PUSH2 0xCA2 DUP2 PUSH2 0xC87 JUMP JUMPDEST DUP3 MSTORE POP POP JUMP JUMPDEST PUSH1 0x0 DUP2 MLOAD SWAP1 POP SWAP2 SWAP1 POP JUMP JUMPDEST PUSH1 0x0 DUP3 DUP3 MSTORE PUSH1 0x20 DUP3 ADD SWAP1 POP SWAP3 SWAP2 POP POP JUMP JUMPDEST PUSH1 0x0 JUMPDEST DUP4 DUP2 LT ISZERO PUSH2 0xCE2 JUMPI DUP1 DUP3 ADD MLOAD DUP2 DUP5 ADD MSTORE PUSH1 0x20 DUP2 ADD SWAP1 POP PUSH2 0xCC7 JUMP JUMPDEST PUSH1 0x0 DUP5 DUP5 ADD MSTORE POP POP POP POP JUMP JUMPDEST PUSH1 0x0 PUSH2 0xCF9 DUP3 PUSH2 0xCA8 JUMP JUMPDEST PUSH2 0xD03 DUP2 DUP6 PUSH2 0xCB3 JUMP JUMPDEST SWAP4 POP PUSH2 0xD13 DUP2 DUP6 PUSH1 0x20 DUP7 ADD PUSH2 0xCC4 JUMP JUMPDEST PUSH2 0xD1C DUP2 PUSH2 0x9BF JUMP JUMPDEST DUP5 ADD SWAP2 POP POP SWAP3 SWAP2 POP POP JUMP JUMPDEST PUSH1 0x0 DUP2 MLOAD SWAP1 POP SWAP2 SWAP1 POP JUMP JUMPDEST PUSH1 0x0 DUP3 DUP3 MSTORE PUSH1 0x20 DUP3 ADD SWAP1 POP SWAP3 SWAP2 POP POP JUMP JUMPDEST PUSH1 0x0 DUP2 SWAP1 POP PUSH1 0x20 DUP3 ADD SWAP1 POP SWAP2 SWAP1 POP JUMP JUMPDEST PUSH2 0xD5C DUP2 PUSH2 0xAFB JUMP JUMPDEST DUP3 MSTORE POP POP JUMP JUMPDEST PUSH1 0x0 PUSH2 0xD6E DUP4 DUP4 PUSH2 0xD53 JUMP JUMPDEST PUSH1 0x20 DUP4 ADD SWAP1 POP SWAP3 SWAP2 POP POP JUMP JUMPDEST PUSH1 0x0 PUSH1 0x20 DUP3 ADD SWAP1 POP SWAP2 SWAP1 POP JUMP JUMPDEST PUSH1 0x0 PUSH2 0xD92 DUP3 PUSH2 0xD27 JUMP JUMPDEST PUSH2 0xD9C DUP2 DUP6 PUSH2 0xD32 JUMP JUMPDEST SWAP4 POP PUSH2 0xDA7 DUP4 PUSH2 0xD43 JUMP JUMPDEST DUP1 PUSH1 0x0 JUMPDEST DUP4 DUP2 LT ISZERO PUSH2 0xDD8 JUMPI DUP2 MLOAD PUSH2 0xDBF DUP9 DUP3 PUSH2 0xD62 JUMP JUMPDEST SWAP8 POP PUSH2 0xDCA DUP4 PUSH2 0xD7A JUMP JUMPDEST SWAP3 POP POP PUSH1 0x1 DUP2 ADD SWAP1 POP PUSH2 0xDAB JUMP JUMPDEST POP DUP6 SWAP4 POP POP POP POP SWAP3 SWAP2 POP POP JUMP JUMPDEST PUSH32 0x4E487B7100000000000000000000000000000000000000000000000000000000 PUSH1 0x0 MSTORE PUSH1 0x21 PUSH1 0x4 MSTORE PUSH1 0x24 PUSH1 0x0 REVERT JUMPDEST PUSH1 0x5 DUP2 LT PUSH2 0xE25 JUMPI PUSH2 0xE24 PUSH2 0xDE5 JUMP JUMPDEST JUMPDEST POP JUMP JUMPDEST PUSH1 0x0 DUP2 SWAP1 POP PUSH2 0xE36 DUP3 PUSH2 0xE14 JUMP JUMPDEST SWAP2 SWAP1 POP JUMP JUMPDEST PUSH1 0x0 PUSH2 0xE46 DUP3 PUSH2 0xE28 JUMP JUMPDEST SWAP1 POP SWAP2 SWAP1 POP JUMP JUMPDEST PUSH2 0xE56 DUP2 PUSH2 0xE3B JUMP JUMPDEST DUP3 MSTORE POP POP JUMP JUMPDEST PUSH1 0x0 PUSH1 0xE0 DUP3 ADD SWAP1 POP PUSH2 0xE71 PUSH1 0x0 DUP4 ADD DUP11 PUSH2 0xC99 JUMP JUMPDEST DUP2 DUP2 SUB PUSH1 0x20 DUP4 ADD MSTORE PUSH2 0xE83 DUP2 DUP10 PUSH2 0xCEE JUMP JUMPDEST SWAP1 POP DUP2 DUP2 SUB PUSH1 0x40 DUP4 ADD MSTORE PUSH2 0xE97 DUP2 DUP9 PUSH2 0xCEE JUMP JUMPDEST SWAP1 POP PUSH2 0xEA6 PUSH1 0x60 DUP4 ADD DUP8 PUSH2 0xBD0 JUMP JUMPDEST PUSH2 0xEB3 PUSH1 0x80 DUP4 ADD DUP7 PUSH2 0xBD0 JUMP JUMPDEST DUP2 DUP2 SUB PUSH1 0xA0 DUP4 ADD MSTORE PUSH2 0xEC5 DUP2 DUP6 PUSH2 0xD87 JUMP JUMPDEST SWAP1 POP PUSH2 0xED4 PUSH1 0xC0 DUP4 ADD DUP5 PUSH2 0xE4D JUMP JUMPDEST SWAP9 SWAP8 POP POP POP POP POP POP POP POP JUMP JUMPDEST PUSH1 0x0 PUSH1 0x80 DUP3 ADD SWAP1 POP DUP2 DUP2 SUB PUSH1 0x0 DUP4 ADD MSTORE PUSH2 0xEFA DUP2 DUP8 PUSH2 0xD87 JUMP JUMPDEST SWAP1 POP PUSH2 0xF09 PUSH1 0x20 DUP4 ADD DUP7 PUSH2 0xBD0 JUMP JUMPDEST PUSH2 0xF16 PUSH1 0x40 DUP4 ADD DUP6 PUSH2 0xE4D JUMP JUMPDEST PUSH2 0xF23 PUSH1 0x60 DUP4 ADD DUP5 PUSH2 0xC99 JUMP JUMPDEST SWAP6 SWAP5 POP POP POP POP POP JUMP JUMPDEST PUSH32 0x4E487B7100000000000000000000000000000000000000000000000000000000 PUSH1 0x0 MSTORE PUSH1 0x22 PUSH1 0x4 MSTORE PUSH1 0x24 PUSH1 0x0 REVERT JUMPDEST PUSH1 0x0 PUSH1 0x2 DUP3 DIV SWAP1 POP PUSH1 0x1 DUP3 AND DUP1 PUSH2 0xF73 JUMPI PUSH1 0x7F DUP3 AND SWAP2 POP JUMPDEST PUSH1 0x20 DUP3 LT DUP2 SUB PUSH2 0xF86 JUMPI PUSH2 0xF85 PUSH2 0xF2C JUMP JUMPDEST JUMPDEST POP SWAP2 SWAP1 POP JUMP JUMPDEST PUSH1 0x0 DUP2 SWAP1 POP DUP2 PUSH1 0x0 MSTORE PUSH1 0x20 PUSH1 0x0 KECCAK256 SWAP1 POP SWAP2 SWAP1 POP JUMP JUMPDEST PUSH1 0x0 PUSH1 0x20 PUSH1 0x1F DUP4 ADD DIV SWAP1 POP SWAP2 SWAP1 POP JUMP JUMPDEST PUSH1 0x0 DUP3 DUP3 SHL SWAP1 POP SWAP3 SWAP2 POP POP JUMP JUMPDEST PUSH1 0x0 PUSH1 0x8 DUP4 MUL PUSH2 0xFEE PUSH32 0xFFFFFFFFFFFFFFFFFFFFFFFFFFFFFFFFFFFFFFFFFFFFFFFFFFFFFFFFFFFFFFFF DUP3 PUSH2 0xFB1 JUMP JUMPDEST PUSH2 0xFF8 DUP7 DUP4 PUSH2 0xFB1 JUMP JUMPDEST SWAP6 POP DUP1 NOT DUP5 AND SWAP4 POP DUP1 DUP7 AND DUP5 OR SWAP3 POP POP POP SWAP4 SWAP3 POP POP POP JUMP JUMPDEST PUSH1 0x0 DUP2 SWAP1 POP SWAP2 SWAP1 POP JUMP JUMPDEST PUSH1 0x0 PUSH2 0x1035 PUSH2 0x1030 PUSH2 0x102B DUP5 PUSH2 0xAFB JUMP JUMPDEST PUSH2 0x1010 JUMP JUMPDEST PUSH2 0xAFB JUMP JUMPDEST SWAP1 POP SWAP2 SWAP1 POP JUMP JUMPDEST PUSH1 0x0 DUP2 SWAP1 POP SWAP2 SWAP1 POP JUMP JUMPDEST PUSH2 0x104F DUP4 PUSH2 0x101A JUMP JUMPDEST PUSH2 0x1063 PUSH2 0x105B DUP3 PUSH2 0x103C JUMP JUMPDEST DUP5 DUP5 SLOAD PUSH2 0xFBE JUMP JUMPDEST DUP3 SSTORE POP POP POP POP JUMP JUMPDEST PUSH1 0x0 SWAP1 JUMP JUMPDEST PUSH2 0x1078 PUSH2 0x106B JUMP JUMPDEST PUSH2 0x1083 DUP2 DUP5 DUP5 PUSH2 0x1046 JUMP JUMPDEST POP POP POP JUMP JUMPDEST JUMPDEST DUP2 DUP2 LT ISZERO PUSH2 0x10A7 JUMPI PUSH2 0x109C PUSH1 0x0 DUP3 PUSH2 0x1070 JUMP JUMPDEST PUSH1 0x1 DUP2 ADD SWAP1 POP PUSH2 0x1089 JUMP JUMPDEST POP POP JUMP JUMPDEST PUSH1 0x1F DUP3 GT ISZERO PUSH2 0x10EC JUMPI PUSH2 0x10BD DUP2 PUSH2 0xF8C JUMP JUMPDEST PUSH2 0x10C6 DUP5 PUSH2 0xFA1 JUMP JUMPDEST DUP2 ADD PUSH1 0x20 DUP6 LT ISZERO PUSH2 0x10D5 JUMPI DUP2 SWAP1 POP JUMPDEST PUSH2 0x10E9 PUSH2 0x10E1 DUP6 PUSH2 0xFA1 JUMP JUMPDEST DUP4 ADD DUP3 PUSH2 0x1088 JUMP JUMPDEST POP POP JUMPDEST POP POP POP JUMP JUMPDEST PUSH1 0x0 DUP3 DUP3 SHR SWAP1 POP SWAP3 SWAP2 POP POP JUMP JUMPDEST PUSH1 0x0 PUSH2 0x110F PUSH1 0x0 NOT DUP5 PUSH1 0x8 MUL PUSH2 0x10F1 JUMP JUMPDEST NOT DUP1 DUP4 AND SWAP2 POP POP SWAP3 SWAP2 POP POP JUMP JUMPDEST PUSH1 0x0 PUSH2 0x1128 DUP4 DUP4 PUSH2 0x10FE JUMP JUMPDEST SWAP2 POP DUP3 PUSH1 0x2 MUL DUP3 OR SWAP1 POP SWAP3 SWAP2 POP POP JUMP JUMPDEST PUSH2 0x1141 DUP3 PUSH2 0xCA8 JUMP JUMPDEST PUSH8 0xFFFFFFFFFFFFFFFF DUP2 GT ISZERO PUSH2 0x115A JUMPI PUSH2 0x1159 PUSH2 0x9D0 JUMP JUMPDEST JUMPDEST PUSH2 0x1164 DUP3 SLOAD PUSH2 0xF5B JUMP JUMPDEST PUSH2 0x116F DUP3 DUP3 DUP6 PUSH2 0x10AB JUMP JUMPDEST PUSH1 0x0 PUSH1 0x20 SWAP1 POP PUSH1 0x1F DUP4 GT PUSH1 0x1 DUP2 EQ PUSH2 0x11A2 JUMPI PUSH1 0x0 DUP5 ISZERO PUSH2 0x1190 JUMPI DUP3 DUP8 ADD MLOAD SWAP1 POP JUMPDEST PUSH2 0x119A DUP6 DUP3 PUSH2 0x111C JUMP JUMPDEST DUP7 SSTORE POP PUSH2 0x1202 JUMP JUMPDEST PUSH1 0x1F NOT DUP5 AND PUSH2 0x11B0 DUP7 PUSH2 0xF8C JUMP JUMPDEST PUSH1 0x0 JUMPDEST DUP3 DUP2 LT ISZERO PUSH2 0x11D8 JUMPI DUP5 DUP10 ADD MLOAD DUP3 SSTORE PUSH1 0x1 DUP3 ADD SWAP2 POP PUSH1 0x20 DUP6 ADD SWAP5 POP PUSH1 0x20 DUP2 ADD SWAP1 POP PUSH2 0x11B3 JUMP JUMPDEST DUP7 DUP4 LT ISZERO PUSH2 0x11F5 JUMPI DUP5 DUP10 ADD MLOAD PUSH2 0x11F1 PUSH1 0x1F DUP10 AND DUP3 PUSH2 0x10FE JUMP JUMPDEST DUP4 SSTORE POP JUMPDEST PUSH1 0x1 PUSH1 0x2 DUP9 MUL ADD DUP9 SSTORE POP POP POP JUMPDEST POP POP POP POP POP POP JUMP JUMPDEST PUSH32 0x4E487B7100000000000000000000000000000000000000000000000000000000 PUSH1 0x0 MSTORE PUSH1 0x32 PUSH1 0x4 MSTORE PUSH1 0x24 PUSH1 0x0 REVERT JUMPDEST PUSH32 0x50617961626C6520616D6F756E74206E6F74206571756C2070726F6A65637420 PUSH1 0x0 DUP3 ADD MSTORE PUSH32 0x616D6F756E742E00000000000000000000000000000000000000000000000000 PUSH1 0x20 DUP3 ADD MSTORE POP JUMP JUMPDEST PUSH1 0x0 PUSH2 0x1295 PUSH1 0x27 DUP4 PUSH2 0xCB3 JUMP JUMPDEST SWAP2 POP PUSH2 0x12A0 DUP3 PUSH2 0x1239 JUMP JUMPDEST PUSH1 0x40 DUP3 ADD SWAP1 POP SWAP2 SWAP1 POP JUMP JUMPDEST PUSH1 0x0 PUSH1 0x20 DUP3 ADD SWAP1 POP DUP2 DUP2 SUB PUSH1 0x0 DUP4 ADD MSTORE PUSH2 0x12C4 DUP2 PUSH2 0x1288 JUMP JUMPDEST SWAP1 POP SWAP2 SWAP1 POP JUMP JUMPDEST PUSH32 0x5265636F7264206E6F7420666F756E642E000000000000000000000000000000 PUSH1 0x0 DUP3 ADD MSTORE POP JUMP JUMPDEST PUSH1 0x0 PUSH2 0x1301 PUSH1 0x11 DUP4 PUSH2 0xCB3 JUMP JUMPDEST SWAP2 POP PUSH2 0x130C DUP3 PUSH2 0x12CB JUMP JUMPDEST PUSH1 0x20 DUP3 ADD SWAP1 POP SWAP2 SWAP1 POP JUMP JUMPDEST PUSH1 0x0 PUSH1 0x20 DUP3 ADD SWAP1 POP DUP2 DUP2 SUB PUSH1 0x0 DUP4 ADD MSTORE PUSH2 0x1330 DUP2 PUSH2 0x12F4 JUMP JUMPDEST SWAP1 POP SWAP2 SWAP1 POP JUMP INVALID LOG2 PUSH5 0x6970667358 0x22 SLT KECCAK256 0xBC EXTCODECOPY PUSH15 0x806B6287EE003B49B17869432306C0 ADD AND EQ MULMOD 0xE8 DUP9 0xB9 MULMOD SWAP2 0x23 0xBB 0xB0 0xE1 0xB4 PUSH5 0x736F6C6343 STOP ADDMOD SLT STOP CALLER "
				},
				"gasEstimates": {
					"creation": {
						"codeDepositCost": "994600",
						"executionCost": "1034",
						"totalCost": "995634"
					},
					"external": {
						"TotalProjetc()": "2445",
						"client(string,string,uint256,uint256)": "infinite",
						"freelancer(uint256,uint256)": "infinite",
						"getClicent(uint256)": "infinite",
						"getFreelancer(uint256)": "infinite"
					}
				},
				"methodIdentifiers": {
					"TotalProjetc()": "33519c86",
					"client(string,string,uint256,uint256)": "09750dc1",
					"freelancer(uint256,uint256)": "a7251947",
					"getClicent(uint256)": "b4fed977",
					"getFreelancer(uint256)": "f6e3fb06"
				}
			},
			"storageLayout": {
				"storage": [
					{
						"astId": 44,
						"contract": "contracts/freelancing.sol:freelancing",
						"label": "clicents",
						"offset": 0,
						"slot": "0",
						"type": "t_array(t_struct(clientInfo)29_storage)dyn_storage"
					},
					{
						"astId": 49,
						"contract": "contracts/freelancing.sol:freelancing",
						"label": "user",
						"offset": 0,
						"slot": "1",
						"type": "t_mapping(t_uint256,t_struct(freelancerInfo)40_storage)"
					},
					{
						"astId": 52,
						"contract": "contracts/freelancing.sol:freelancing",
						"label": "client_lancer",
						"offset": 0,
						"slot": "2",
						"type": "t_array(t_uint256)dyn_storage"
					}
				],
				"types": {
					"t_address": {
						"encoding": "inplace",
						"label": "address",
						"numberOfBytes": "20"
					},
					"t_array(t_struct(clientInfo)29_storage)dyn_storage": {
						"base": "t_struct(clientInfo)29_storage",
						"encoding": "dynamic_array",
						"label": "struct freelancing.clientInfo[]",
						"numberOfBytes": "32"
					},
					"t_array(t_uint256)dyn_storage": {
						"base": "t_uint256",
						"encoding": "dynamic_array",
						"label": "uint256[]",
						"numberOfBytes": "32"
					},
					"t_enum(ScheduleState)12": {
						"encoding": "inplace",
						"label": "enum freelancing.ScheduleState",
						"numberOfBytes": "1"
					},
					"t_mapping(t_uint256,t_struct(freelancerInfo)40_storage)": {
						"encoding": "mapping",
						"key": "t_uint256",
						"label": "mapping(uint256 => struct freelancing.freelancerInfo)",
						"numberOfBytes": "32",
						"value": "t_struct(freelancerInfo)40_storage"
					},
					"t_string_storage": {
						"encoding": "bytes",
						"label": "string",
						"numberOfBytes": "32"
					},
					"t_struct(clientInfo)29_storage": {
						"encoding": "inplace",
						"label": "struct freelancing.clientInfo",
						"members": [
							{
								"astId": 14,
								"contract": "contracts/freelancing.sol:freelancing",
								"label": "p_id",
								"offset": 0,
								"slot": "0",
								"type": "t_address"
							},
							{
								"astId": 16,
								"contract": "contracts/freelancing.sol:freelancing",
								"label": "shortCode",
								"offset": 0,
								"slot": "1",
								"type": "t_string_storage"
							},
							{
								"astId": 18,
								"contract": "contracts/freelancing.sol:freelancing",
								"label": "description",
								"offset": 0,
								"slot": "2",
								"type": "t_string_storage"
							},
							{
								"astId": 20,
								"contract": "contracts/freelancing.sol:freelancing",
								"label": "p_amt",
								"offset": 0,
								"slot": "3",
								"type": "t_uint256"
							},
							{
								"astId": 22,
								"contract": "contracts/freelancing.sol:freelancing",
								"label": "time_limit",
								"offset": 0,
								"slot": "4",
								"type": "t_uint256"
							},
							{
								"astId": 25,
								"contract": "contracts/freelancing.sol:freelancing",
								"label": "freelancer_id",
								"offset": 0,
								"slot": "5",
								"type": "t_array(t_uint256)dyn_storage"
							},
							{
								"astId": 28,
								"contract": "contracts/freelancing.sol:freelancing",
								"label": "scheduleState",
								"offset": 0,
								"slot": "6",
								"type": "t_enum(ScheduleState)12"
							}
						],
						"numberOfBytes": "224"
					},
					"t_struct(freelancerInfo)40_storage": {
						"encoding": "inplace",
						"label": "struct freelancing.freelancerInfo",
						"members": [
							{
								"astId": 31,
								"contract": "contracts/freelancing.sol:freelancing",
								"label": "lancer_add",
								"offset": 0,
								"slot": "0",
								"type": "t_address"
							},
							{
								"astId": 34,
								"contract": "contracts/freelancing.sol:freelancing",
								"label": "pro_id",
								"offset": 0,
								"slot": "1",
								"type": "t_array(t_uint256)dyn_storage"
							},
							{
								"astId": 36,
								"contract": "contracts/freelancing.sol:freelancing",
								"label": "pro_amt",
								"offset": 0,
								"slot": "2",
								"type": "t_uint256"
							},
							{
								"astId": 39,
								"contract": "contracts/freelancing.sol:freelancing",
								"label": "scheduleState",
								"offset": 0,
								"slot": "3",
								"type": "t_enum(ScheduleState)12"
							}
						],
						"numberOfBytes": "128"
					},
					"t_uint256": {
						"encoding": "inplace",
						"label": "uint256",
						"numberOfBytes": "32"
					}
				}
			},
			"userdoc": {
				"kind": "user",
				"methods": {},
				"version": 1
			}
		}
	}
}