{
	"contracts/freelancing.sol": {
		"freelancing": {
			"abi": [
				{
					"inputs": [],
					"name": "TotalProjetc",
					"outputs": [
						{
							"internalType": "uint256",
							"name": "",
							"type": "uint256"
						}
					],
					"stateMutability": "view",
					"type": "function"
				},
				{
					"inputs": [
						{
							"internalType": "string",
							"name": "p_name",
							"type": "string"
						},
						{
							"internalType": "uint256",
							"name": "amount",
							"type": "uint256"
						},
						{
							"internalType": "uint256",
							"name": "timelimit",
							"type": "uint256"
						}
					],
					"name": "client",
					"outputs": [],
					"stateMutability": "nonpayable",
					"type": "function"
				},
				{
					"inputs": [
						{
							"internalType": "uint256",
							"name": "user_id",
							"type": "uint256"
						},
						{
							"internalType": "uint256",
							"name": "clicent_id",
							"type": "uint256"
						}
					],
					"name": "freelancer",
					"outputs": [],
					"stateMutability": "payable",
					"type": "function"
				},
				{
					"inputs": [],
					"name": "getBalance",
					"outputs": [
						{
							"internalType": "uint256",
							"name": "",
							"type": "uint256"
						}
					],
					"stateMutability": "view",
					"type": "function"
				},
				{
					"inputs": [
						{
							"internalType": "uint256",
							"name": "clicentID",
							"type": "uint256"
						}
					],
					"name": "getClicent",
					"outputs": [
						{
							"internalType": "address",
							"name": "",
							"type": "address"
						},
						{
							"internalType": "string",
							"name": "",
							"type": "string"
						},
						{
							"internalType": "uint256",
							"name": "",
							"type": "uint256"
						},
						{
							"internalType": "uint256",
							"name": "",
							"type": "uint256"
						}
					],
					"stateMutability": "view",
					"type": "function"
				},
				{
					"inputs": [
						{
							"internalType": "uint256",
							"name": "u_id",
							"type": "uint256"
						}
					],
					"name": "getFreelancer",
					"outputs": [
						{
							"internalType": "uint256[]",
							"name": "",
							"type": "uint256[]"
						},
						{
							"internalType": "uint256",
							"name": "",
							"type": "uint256"
						}
					],
					"stateMutability": "view",
					"type": "function"
				}
			],
			"devdoc": {
				"kind": "dev",
				"methods": {},
				"version": 1
			},
			"evm": {
				"assembly": "    /* \"contracts/freelancing.sol\":72:1760  contract freelancing{... */\n  mstore(0x40, 0x80)\n  callvalue\n  dup1\n  iszero\n  tag_1\n  jumpi\n  0x00\n  dup1\n  revert\ntag_1:\n  pop\n  dataSize(sub_0)\n  dup1\n  dataOffset(sub_0)\n  0x00\n  codecopy\n  0x00\n  return\nstop\n\nsub_0: assembly {\n        /* \"contracts/freelancing.sol\":72:1760  contract freelancing{... */\n      mstore(0x40, 0x80)\n      jumpi(tag_1, lt(calldatasize, 0x04))\n      shr(0xe0, calldataload(0x00))\n      dup1\n      0x12065fe0\n      eq\n      tag_2\n      jumpi\n      dup1\n      0x33519c86\n      eq\n      tag_3\n      jumpi\n      dup1\n      0xa7251947\n      eq\n      tag_4\n      jumpi\n      dup1\n      0xb4fed977\n      eq\n      tag_5\n      jumpi\n      dup1\n      0xe8de958a\n      eq\n      tag_6\n      jumpi\n      dup1\n      0xf6e3fb06\n      eq\n      tag_7\n      jumpi\n    tag_1:\n      0x00\n      dup1\n      revert\n        /* \"contracts/freelancing.sol\":1499:1591  function getBalance() public view returns(uint){... */\n    tag_2:\n      callvalue\n      dup1\n      iszero\n      tag_8\n      jumpi\n      0x00\n      dup1\n      revert\n    tag_8:\n      pop\n      tag_9\n      tag_10\n      jump\t// in\n    tag_9:\n      mload(0x40)\n      tag_11\n      swap2\n      swap1\n      tag_12\n      jump\t// in\n    tag_11:\n      mload(0x40)\n      dup1\n      swap2\n      sub\n      swap1\n      return\n        /* \"contracts/freelancing.sol\":681:769  function TotalProjetc() public view returns(uint){... */\n    tag_3:\n      callvalue\n      dup1\n      iszero\n      tag_13\n      jumpi\n      0x00\n      dup1\n      revert\n    tag_13:\n      pop\n      tag_14\n      tag_15\n      jump\t// in\n    tag_14:\n      mload(0x40)\n      tag_16\n      swap2\n      swap1\n      tag_12\n      jump\t// in\n    tag_16:\n      mload(0x40)\n      dup1\n      swap2\n      sub\n      swap1\n      return\n        /* \"contracts/freelancing.sol\":1059:1492  function freelancer(uint user_id,uint clicent_id) public payable {... */\n    tag_4:\n      tag_17\n      0x04\n      dup1\n      calldatasize\n      sub\n      dup2\n      add\n      swap1\n      tag_18\n      swap2\n      swap1\n      tag_19\n      jump\t// in\n    tag_18:\n      tag_20\n      jump\t// in\n    tag_17:\n      stop\n        /* \"contracts/freelancing.sol\":776:1051  function getClicent(uint clicentID) public view returns(address, string memory, uint, uint) {... */\n    tag_5:\n      callvalue\n      dup1\n      iszero\n      tag_21\n      jumpi\n      0x00\n      dup1\n      revert\n    tag_21:\n      pop\n      tag_22\n      0x04\n      dup1\n      calldatasize\n      sub\n      dup2\n      add\n      swap1\n      tag_23\n      swap2\n      swap1\n      tag_24\n      jump\t// in\n    tag_23:\n      tag_25\n      jump\t// in\n    tag_22:\n      mload(0x40)\n      tag_26\n      swap5\n      swap4\n      swap3\n      swap2\n      swap1\n      tag_27\n      jump\t// in\n    tag_26:\n      mload(0x40)\n      dup1\n      swap2\n      sub\n      swap1\n      return\n        /* \"contracts/freelancing.sol\":437:675  function client(string memory p_name, uint amount, uint timelimit) public {... */\n    tag_6:\n      callvalue\n      dup1\n      iszero\n      tag_28\n      jumpi\n      0x00\n      dup1\n      revert\n    tag_28:\n      pop\n      tag_29\n      0x04\n      dup1\n      calldatasize\n      sub\n      dup2\n      add\n      swap1\n      tag_30\n      swap2\n      swap1\n      tag_31\n      jump\t// in\n    tag_30:\n      tag_32\n      jump\t// in\n    tag_29:\n      stop\n        /* \"contracts/freelancing.sol\":1597:1757  function getFreelancer(uint u_id) public view returns(uint[] memory, uint) {... */\n    tag_7:\n      callvalue\n      dup1\n      iszero\n      tag_33\n      jumpi\n      0x00\n      dup1\n      revert\n    tag_33:\n      pop\n      tag_34\n      0x04\n      dup1\n      calldatasize\n      sub\n      dup2\n      add\n      swap1\n      tag_35\n      swap2\n      swap1\n      tag_24\n      jump\t// in\n    tag_35:\n      tag_36\n      jump\t// in\n    tag_34:\n      mload(0x40)\n      tag_37\n      swap3\n      swap2\n      swap1\n      tag_38\n      jump\t// in\n    tag_37:\n      mload(0x40)\n      dup1\n      swap2\n      sub\n      swap1\n      return\n        /* \"contracts/freelancing.sol\":1499:1591  function getBalance() public view returns(uint){... */\n    tag_10:\n        /* \"contracts/freelancing.sol\":1541:1545  uint */\n      0x00\n        /* \"contracts/freelancing.sol\":1563:1584  address(this).balance */\n      selfbalance\n        /* \"contracts/freelancing.sol\":1556:1584  return address(this).balance */\n      swap1\n      pop\n        /* \"contracts/freelancing.sol\":1499:1591  function getBalance() public view returns(uint){... */\n      swap1\n      jump\t// out\n        /* \"contracts/freelancing.sol\":681:769  function TotalProjetc() public view returns(uint){... */\n    tag_15:\n        /* \"contracts/freelancing.sol\":725:729  uint */\n      0x00\n        /* \"contracts/freelancing.sol\":747:755  clicents */\n      dup1\n        /* \"contracts/freelancing.sol\":747:762  clicents.length */\n      dup1\n      sload\n      swap1\n      pop\n        /* \"contracts/freelancing.sol\":740:762  return clicents.length */\n      swap1\n      pop\n        /* \"contracts/freelancing.sol\":681:769  function TotalProjetc() public view returns(uint){... */\n      swap1\n      jump\t// out\n        /* \"contracts/freelancing.sol\":1059:1492  function freelancer(uint user_id,uint clicent_id) public payable {... */\n    tag_20:\n        /* \"contracts/freelancing.sol\":1172:1181  msg.value */\n      callvalue\n        /* \"contracts/freelancing.sol\":1142:1150  clicents */\n      0x00\n        /* \"contracts/freelancing.sol\":1151:1161  clicent_id */\n      dup3\n        /* \"contracts/freelancing.sol\":1142:1162  clicents[clicent_id] */\n      dup2\n      sload\n      dup2\n      lt\n      tag_42\n      jumpi\n      tag_43\n      tag_44\n      jump\t// in\n    tag_43:\n    tag_42:\n      swap1\n      0x00\n      mstore\n      keccak256(0x00, 0x20)\n      swap1\n      0x04\n      mul\n      add\n        /* \"contracts/freelancing.sol\":1142:1168  clicents[clicent_id].p_amt */\n      0x02\n      add\n      sload\n        /* \"contracts/freelancing.sol\":1142:1181  clicents[clicent_id].p_amt == msg.value */\n      eq\n        /* \"contracts/freelancing.sol\":1134:1225  require(clicents[clicent_id].p_amt == msg.value, \"Payable amount not equl project amount.\") */\n      tag_46\n      jumpi\n      mload(0x40)\n      0x08c379a000000000000000000000000000000000000000000000000000000000\n      dup2\n      mstore\n      0x04\n      add\n      tag_47\n      swap1\n      tag_48\n      jump\t// in\n    tag_47:\n      mload(0x40)\n      dup1\n      swap2\n      sub\n      swap1\n      revert\n    tag_46:\n        /* \"contracts/freelancing.sol\":1235:1239  user */\n      0x01\n        /* \"contracts/freelancing.sol\":1235:1248  user[user_id] */\n      0x00\n        /* \"contracts/freelancing.sol\":1240:1247  user_id */\n      dup4\n        /* \"contracts/freelancing.sol\":1235:1248  user[user_id] */\n      dup2\n      mstore\n      0x20\n      add\n      swap1\n      dup2\n      mstore\n      0x20\n      add\n      0x00\n      keccak256\n        /* \"contracts/freelancing.sol\":1235:1255  user[user_id].pro_id */\n      0x00\n      add\n        /* \"contracts/freelancing.sol\":1261:1271  clicent_id */\n      dup2\n        /* \"contracts/freelancing.sol\":1235:1272  user[user_id].pro_id.push(clicent_id) */\n      swap1\n      dup1\n      0x01\n      dup2\n      sload\n      add\n      dup1\n      dup3\n      sstore\n      dup1\n      swap2\n      pop\n      pop\n      0x01\n      swap1\n      sub\n      swap1\n      0x00\n      mstore\n      keccak256(0x00, 0x20)\n      add\n      0x00\n      swap1\n      swap2\n      swap1\n      swap2\n      swap1\n      swap2\n      pop\n      sstore\n        /* \"contracts/freelancing.sol\":1310:1311  0 */\n      0x00\n        /* \"contracts/freelancing.sol\":1285:1289  user */\n      0x01\n        /* \"contracts/freelancing.sol\":1285:1298  user[user_id] */\n      0x00\n        /* \"contracts/freelancing.sol\":1290:1297  user_id */\n      dup5\n        /* \"contracts/freelancing.sol\":1285:1298  user[user_id] */\n      dup2\n      mstore\n      0x20\n      add\n      swap1\n      dup2\n      mstore\n      0x20\n      add\n      0x00\n      keccak256\n        /* \"contracts/freelancing.sol\":1285:1306  user[user_id].pro_amt */\n      0x01\n      add\n      sload\n        /* \"contracts/freelancing.sol\":1285:1311  user[user_id].pro_amt == 0 */\n      sub\n        /* \"contracts/freelancing.sol\":1282:1440  if(user[user_id].pro_amt == 0) {... */\n      tag_50\n      jumpi\n        /* \"contracts/freelancing.sol\":1351:1360  msg.value */\n      callvalue\n        /* \"contracts/freelancing.sol\":1327:1331  user */\n      0x01\n        /* \"contracts/freelancing.sol\":1327:1340  user[user_id] */\n      0x00\n        /* \"contracts/freelancing.sol\":1332:1339  user_id */\n      dup5\n        /* \"contracts/freelancing.sol\":1327:1340  user[user_id] */\n      dup2\n      mstore\n      0x20\n      add\n      swap1\n      dup2\n      mstore\n      0x20\n      add\n      0x00\n      keccak256\n        /* \"contracts/freelancing.sol\":1327:1348  user[user_id].pro_amt */\n      0x01\n      add\n        /* \"contracts/freelancing.sol\":1327:1360  user[user_id].pro_amt = msg.value */\n      dup2\n      swap1\n      sstore\n      pop\n        /* \"contracts/freelancing.sol\":1282:1440  if(user[user_id].pro_amt == 0) {... */\n      jump(tag_51)\n    tag_50:\n        /* \"contracts/freelancing.sol\":1420:1429  msg.value */\n      callvalue\n        /* \"contracts/freelancing.sol\":1395:1399  user */\n      0x01\n        /* \"contracts/freelancing.sol\":1395:1408  user[user_id] */\n      0x00\n        /* \"contracts/freelancing.sol\":1400:1407  user_id */\n      dup5\n        /* \"contracts/freelancing.sol\":1395:1408  user[user_id] */\n      dup2\n      mstore\n      0x20\n      add\n      swap1\n      dup2\n      mstore\n      0x20\n      add\n      0x00\n      keccak256\n        /* \"contracts/freelancing.sol\":1395:1416  user[user_id].pro_amt */\n      0x01\n      add\n      0x00\n        /* \"contracts/freelancing.sol\":1395:1429  user[user_id].pro_amt += msg.value */\n      dup3\n      dup3\n      sload\n      tag_52\n      swap2\n      swap1\n      tag_53\n      jump\t// in\n    tag_52:\n      swap3\n      pop\n      pop\n      dup2\n      swap1\n      sstore\n      pop\n        /* \"contracts/freelancing.sol\":1282:1440  if(user[user_id].pro_amt == 0) {... */\n    tag_51:\n        /* \"contracts/freelancing.sol\":1059:1492  function freelancer(uint user_id,uint clicent_id) public payable {... */\n      pop\n      pop\n      jump\t// out\n        /* \"contracts/freelancing.sol\":776:1051  function getClicent(uint clicentID) public view returns(address, string memory, uint, uint) {... */\n    tag_25:\n        /* \"contracts/freelancing.sol\":832:839  address */\n      0x00\n        /* \"contracts/freelancing.sol\":841:854  string memory */\n      0x60\n        /* \"contracts/freelancing.sol\":856:860  uint */\n      0x00\n        /* \"contracts/freelancing.sol\":862:866  uint */\n      dup1\n        /* \"contracts/freelancing.sol\":886:894  clicents */\n      0x00\n        /* \"contracts/freelancing.sol\":895:904  clicentID */\n      dup6\n        /* \"contracts/freelancing.sol\":886:905  clicents[clicentID] */\n      dup2\n      sload\n      dup2\n      lt\n      tag_55\n      jumpi\n      tag_56\n      tag_44\n      jump\t// in\n    tag_56:\n    tag_55:\n      swap1\n      0x00\n      mstore\n      keccak256(0x00, 0x20)\n      swap1\n      0x04\n      mul\n      add\n        /* \"contracts/freelancing.sol\":886:910  clicents[clicentID].p_id */\n      0x00\n      add\n      0x00\n      swap1\n      sload\n      swap1\n      0x0100\n      exp\n      swap1\n      div\n      0xffffffffffffffffffffffffffffffffffffffff\n      and\n        /* \"contracts/freelancing.sol\":924:932  clicents */\n      0x00\n        /* \"contracts/freelancing.sol\":933:942  clicentID */\n      dup7\n        /* \"contracts/freelancing.sol\":924:943  clicents[clicentID] */\n      dup2\n      sload\n      dup2\n      lt\n      tag_58\n      jumpi\n      tag_59\n      tag_44\n      jump\t// in\n    tag_59:\n    tag_58:\n      swap1\n      0x00\n      mstore\n      keccak256(0x00, 0x20)\n      swap1\n      0x04\n      mul\n      add\n        /* \"contracts/freelancing.sol\":924:951  clicents[clicentID].project */\n      0x01\n      add\n        /* \"contracts/freelancing.sol\":965:973  clicents */\n      0x00\n        /* \"contracts/freelancing.sol\":974:983  clicentID */\n      dup8\n        /* \"contracts/freelancing.sol\":965:984  clicents[clicentID] */\n      dup2\n      sload\n      dup2\n      lt\n      tag_61\n      jumpi\n      tag_62\n      tag_44\n      jump\t// in\n    tag_62:\n    tag_61:\n      swap1\n      0x00\n      mstore\n      keccak256(0x00, 0x20)\n      swap1\n      0x04\n      mul\n      add\n        /* \"contracts/freelancing.sol\":965:990  clicents[clicentID].p_amt */\n      0x02\n      add\n      sload\n        /* \"contracts/freelancing.sol\":1004:1012  clicents */\n      0x00\n        /* \"contracts/freelancing.sol\":1013:1022  clicentID */\n      dup9\n        /* \"contracts/freelancing.sol\":1004:1023  clicents[clicentID] */\n      dup2\n      sload\n      dup2\n      lt\n      tag_64\n      jumpi\n      tag_65\n      tag_44\n      jump\t// in\n    tag_65:\n    tag_64:\n      swap1\n      0x00\n      mstore\n      keccak256(0x00, 0x20)\n      swap1\n      0x04\n      mul\n      add\n        /* \"contracts/freelancing.sol\":1004:1034  clicents[clicentID].time_limit */\n      0x03\n      add\n      sload\n        /* \"contracts/freelancing.sol\":878:1044  return( clicents[clicentID].p_id,... */\n      dup3\n      dup1\n      sload\n      tag_67\n      swap1\n      tag_68\n      jump\t// in\n    tag_67:\n      dup1\n      0x1f\n      add\n      0x20\n      dup1\n      swap2\n      div\n      mul\n      0x20\n      add\n      mload(0x40)\n      swap1\n      dup2\n      add\n      0x40\n      mstore\n      dup1\n      swap3\n      swap2\n      swap1\n      dup2\n      dup2\n      mstore\n      0x20\n      add\n      dup3\n      dup1\n      sload\n      tag_69\n      swap1\n      tag_68\n      jump\t// in\n    tag_69:\n      dup1\n      iszero\n      tag_70\n      jumpi\n      dup1\n      0x1f\n      lt\n      tag_71\n      jumpi\n      0x0100\n      dup1\n      dup4\n      sload\n      div\n      mul\n      dup4\n      mstore\n      swap2\n      0x20\n      add\n      swap2\n      jump(tag_70)\n    tag_71:\n      dup3\n      add\n      swap2\n      swap1\n      0x00\n      mstore\n      keccak256(0x00, 0x20)\n      swap1\n    tag_72:\n      dup2\n      sload\n      dup2\n      mstore\n      swap1\n      0x01\n      add\n      swap1\n      0x20\n      add\n      dup1\n      dup4\n      gt\n      tag_72\n      jumpi\n      dup3\n      swap1\n      sub\n      0x1f\n      and\n      dup3\n      add\n      swap2\n    tag_70:\n      pop\n      pop\n      pop\n      pop\n      pop\n      swap3\n      pop\n      swap4\n      pop\n      swap4\n      pop\n      swap4\n      pop\n      swap4\n      pop\n        /* \"contracts/freelancing.sol\":776:1051  function getClicent(uint clicentID) public view returns(address, string memory, uint, uint) {... */\n      swap2\n      swap4\n      pop\n      swap2\n      swap4\n      jump\t// out\n        /* \"contracts/freelancing.sol\":437:675  function client(string memory p_name, uint amount, uint timelimit) public {... */\n    tag_32:\n        /* \"contracts/freelancing.sol\":521:546  clientInfo memory clicent */\n      0x00\n        /* \"contracts/freelancing.sol\":549:636  clientInfo({ p_id: msg.sender, project: p_name, p_amt: amount, time_limit: timelimit }) */\n      mload(0x40)\n      dup1\n      0x80\n      add\n      0x40\n      mstore\n      dup1\n        /* \"contracts/freelancing.sol\":568:578  msg.sender */\n      caller\n        /* \"contracts/freelancing.sol\":549:636  clientInfo({ p_id: msg.sender, project: p_name, p_amt: amount, time_limit: timelimit }) */\n      0xffffffffffffffffffffffffffffffffffffffff\n      and\n      dup2\n      mstore\n      0x20\n      add\n        /* \"contracts/freelancing.sol\":589:595  p_name */\n      dup6\n        /* \"contracts/freelancing.sol\":549:636  clientInfo({ p_id: msg.sender, project: p_name, p_amt: amount, time_limit: timelimit }) */\n      dup2\n      mstore\n      0x20\n      add\n        /* \"contracts/freelancing.sol\":604:610  amount */\n      dup5\n        /* \"contracts/freelancing.sol\":549:636  clientInfo({ p_id: msg.sender, project: p_name, p_amt: amount, time_limit: timelimit }) */\n      dup2\n      mstore\n      0x20\n      add\n        /* \"contracts/freelancing.sol\":624:633  timelimit */\n      dup4\n        /* \"contracts/freelancing.sol\":549:636  clientInfo({ p_id: msg.sender, project: p_name, p_amt: amount, time_limit: timelimit }) */\n      dup2\n      mstore\n      pop\n        /* \"contracts/freelancing.sol\":521:636  clientInfo memory clicent = clientInfo({ p_id: msg.sender, project: p_name, p_amt: amount, time_limit: timelimit }) */\n      swap1\n      pop\n        /* \"contracts/freelancing.sol\":646:654  clicents */\n      0x00\n        /* \"contracts/freelancing.sol\":660:667  clicent */\n      dup2\n        /* \"contracts/freelancing.sol\":646:668  clicents.push(clicent) */\n      swap1\n      dup1\n      0x01\n      dup2\n      sload\n      add\n      dup1\n      dup3\n      sstore\n      dup1\n      swap2\n      pop\n      pop\n      0x01\n      swap1\n      sub\n      swap1\n      0x00\n      mstore\n      keccak256(0x00, 0x20)\n      swap1\n      0x04\n      mul\n      add\n      0x00\n      swap1\n      swap2\n      swap1\n      swap2\n      swap1\n      swap2\n      pop\n      0x00\n      dup3\n      add\n      mload\n      dup2\n      0x00\n      add\n      exp(0x0100, 0x00)\n      dup2\n      sload\n      dup2\n      0xffffffffffffffffffffffffffffffffffffffff\n      mul\n      not\n      and\n      swap1\n      dup4\n      0xffffffffffffffffffffffffffffffffffffffff\n      and\n      mul\n      or\n      swap1\n      sstore\n      pop\n      0x20\n      dup3\n      add\n      mload\n      dup2\n      0x01\n      add\n      swap1\n      dup2\n      tag_75\n      swap2\n      swap1\n      tag_76\n      jump\t// in\n    tag_75:\n      pop\n      0x40\n      dup3\n      add\n      mload\n      dup2\n      0x02\n      add\n      sstore\n      0x60\n      dup3\n      add\n      mload\n      dup2\n      0x03\n      add\n      sstore\n      pop\n      pop\n        /* \"contracts/freelancing.sol\":511:675  {... */\n      pop\n        /* \"contracts/freelancing.sol\":437:675  function client(string memory p_name, uint amount, uint timelimit) public {... */\n      pop\n      pop\n      pop\n      jump\t// out\n        /* \"contracts/freelancing.sol\":1597:1757  function getFreelancer(uint u_id) public view returns(uint[] memory, uint) {... */\n    tag_36:\n        /* \"contracts/freelancing.sol\":1651:1664  uint[] memory */\n      0x60\n        /* \"contracts/freelancing.sol\":1666:1670  uint */\n      0x00\n        /* \"contracts/freelancing.sol\":1691:1695  user */\n      0x01\n        /* \"contracts/freelancing.sol\":1691:1701  user[u_id] */\n      0x00\n        /* \"contracts/freelancing.sol\":1696:1700  u_id */\n      dup5\n        /* \"contracts/freelancing.sol\":1691:1701  user[u_id] */\n      dup2\n      mstore\n      0x20\n      add\n      swap1\n      dup2\n      mstore\n      0x20\n      add\n      0x00\n      keccak256\n        /* \"contracts/freelancing.sol\":1691:1708  user[u_id].pro_id */\n      0x00\n      add\n        /* \"contracts/freelancing.sol\":1722:1726  user */\n      0x01\n        /* \"contracts/freelancing.sol\":1722:1732  user[u_id] */\n      0x00\n        /* \"contracts/freelancing.sol\":1727:1731  u_id */\n      dup6\n        /* \"contracts/freelancing.sol\":1722:1732  user[u_id] */\n      dup2\n      mstore\n      0x20\n      add\n      swap1\n      dup2\n      mstore\n      0x20\n      add\n      0x00\n      keccak256\n        /* \"contracts/freelancing.sol\":1722:1740  user[u_id].pro_amt */\n      0x01\n      add\n      sload\n        /* \"contracts/freelancing.sol\":1682:1750  return ( user[u_id].pro_id,... */\n      dup2\n      dup1\n      sload\n      dup1\n      0x20\n      mul\n      0x20\n      add\n      mload(0x40)\n      swap1\n      dup2\n      add\n      0x40\n      mstore\n      dup1\n      swap3\n      swap2\n      swap1\n      dup2\n      dup2\n      mstore\n      0x20\n      add\n      dup3\n      dup1\n      sload\n      dup1\n      iszero\n      tag_78\n      jumpi\n      0x20\n      mul\n      dup3\n      add\n      swap2\n      swap1\n      0x00\n      mstore\n      keccak256(0x00, 0x20)\n      swap1\n    tag_79:\n      dup2\n      sload\n      dup2\n      mstore\n      0x20\n      add\n      swap1\n      0x01\n      add\n      swap1\n      dup1\n      dup4\n      gt\n      tag_79\n      jumpi\n    tag_78:\n      pop\n      pop\n      pop\n      pop\n      pop\n      swap2\n      pop\n      swap2\n      pop\n      swap2\n      pop\n        /* \"contracts/freelancing.sol\":1597:1757  function getFreelancer(uint u_id) public view returns(uint[] memory, uint) {... */\n      swap2\n      pop\n      swap2\n      jump\t// out\n        /* \"#utility.yul\":7:84   */\n    tag_80:\n        /* \"#utility.yul\":44:51   */\n      0x00\n        /* \"#utility.yul\":73:78   */\n      dup2\n        /* \"#utility.yul\":62:78   */\n      swap1\n      pop\n        /* \"#utility.yul\":7:84   */\n      swap2\n      swap1\n      pop\n      jump\t// out\n        /* \"#utility.yul\":90:208   */\n    tag_81:\n        /* \"#utility.yul\":177:201   */\n      tag_133\n        /* \"#utility.yul\":195:200   */\n      dup2\n        /* \"#utility.yul\":177:201   */\n      tag_80\n      jump\t// in\n    tag_133:\n        /* \"#utility.yul\":172:175   */\n      dup3\n        /* \"#utility.yul\":165:202   */\n      mstore\n        /* \"#utility.yul\":90:208   */\n      pop\n      pop\n      jump\t// out\n        /* \"#utility.yul\":214:436   */\n    tag_12:\n        /* \"#utility.yul\":307:311   */\n      0x00\n        /* \"#utility.yul\":345:347   */\n      0x20\n        /* \"#utility.yul\":334:343   */\n      dup3\n        /* \"#utility.yul\":330:348   */\n      add\n        /* \"#utility.yul\":322:348   */\n      swap1\n      pop\n        /* \"#utility.yul\":358:429   */\n      tag_135\n        /* \"#utility.yul\":426:427   */\n      0x00\n        /* \"#utility.yul\":415:424   */\n      dup4\n        /* \"#utility.yul\":411:428   */\n      add\n        /* \"#utility.yul\":402:408   */\n      dup5\n        /* \"#utility.yul\":358:429   */\n      tag_81\n      jump\t// in\n    tag_135:\n        /* \"#utility.yul\":214:436   */\n      swap3\n      swap2\n      pop\n      pop\n      jump\t// out\n        /* \"#utility.yul\":442:517   */\n    tag_82:\n        /* \"#utility.yul\":475:481   */\n      0x00\n        /* \"#utility.yul\":508:510   */\n      0x40\n        /* \"#utility.yul\":502:511   */\n      mload\n        /* \"#utility.yul\":492:511   */\n      swap1\n      pop\n        /* \"#utility.yul\":442:517   */\n      swap1\n      jump\t// out\n        /* \"#utility.yul\":523:640   */\n    tag_83:\n        /* \"#utility.yul\":632:633   */\n      0x00\n        /* \"#utility.yul\":629:630   */\n      dup1\n        /* \"#utility.yul\":622:634   */\n      revert\n        /* \"#utility.yul\":646:763   */\n    tag_84:\n        /* \"#utility.yul\":755:756   */\n      0x00\n        /* \"#utility.yul\":752:753   */\n      dup1\n        /* \"#utility.yul\":745:757   */\n      revert\n        /* \"#utility.yul\":769:891   */\n    tag_85:\n        /* \"#utility.yul\":842:866   */\n      tag_140\n        /* \"#utility.yul\":860:865   */\n      dup2\n        /* \"#utility.yul\":842:866   */\n      tag_80\n      jump\t// in\n    tag_140:\n        /* \"#utility.yul\":835:840   */\n      dup2\n        /* \"#utility.yul\":832:867   */\n      eq\n        /* \"#utility.yul\":822:885   */\n      tag_141\n      jumpi\n        /* \"#utility.yul\":881:882   */\n      0x00\n        /* \"#utility.yul\":878:879   */\n      dup1\n        /* \"#utility.yul\":871:883   */\n      revert\n        /* \"#utility.yul\":822:885   */\n    tag_141:\n        /* \"#utility.yul\":769:891   */\n      pop\n      jump\t// out\n        /* \"#utility.yul\":897:1036   */\n    tag_86:\n        /* \"#utility.yul\":943:948   */\n      0x00\n        /* \"#utility.yul\":981:987   */\n      dup2\n        /* \"#utility.yul\":968:988   */\n      calldataload\n        /* \"#utility.yul\":959:988   */\n      swap1\n      pop\n        /* \"#utility.yul\":997:1030   */\n      tag_143\n        /* \"#utility.yul\":1024:1029   */\n      dup2\n        /* \"#utility.yul\":997:1030   */\n      tag_85\n      jump\t// in\n    tag_143:\n        /* \"#utility.yul\":897:1036   */\n      swap3\n      swap2\n      pop\n      pop\n      jump\t// out\n        /* \"#utility.yul\":1042:1516   */\n    tag_19:\n        /* \"#utility.yul\":1110:1116   */\n      0x00\n        /* \"#utility.yul\":1118:1124   */\n      dup1\n        /* \"#utility.yul\":1167:1169   */\n      0x40\n        /* \"#utility.yul\":1155:1164   */\n      dup4\n        /* \"#utility.yul\":1146:1153   */\n      dup6\n        /* \"#utility.yul\":1142:1165   */\n      sub\n        /* \"#utility.yul\":1138:1170   */\n      slt\n        /* \"#utility.yul\":1135:1254   */\n      iszero\n      tag_145\n      jumpi\n        /* \"#utility.yul\":1173:1252   */\n      tag_146\n      tag_83\n      jump\t// in\n    tag_146:\n        /* \"#utility.yul\":1135:1254   */\n    tag_145:\n        /* \"#utility.yul\":1293:1294   */\n      0x00\n        /* \"#utility.yul\":1318:1371   */\n      tag_147\n        /* \"#utility.yul\":1363:1370   */\n      dup6\n        /* \"#utility.yul\":1354:1360   */\n      dup3\n        /* \"#utility.yul\":1343:1352   */\n      dup7\n        /* \"#utility.yul\":1339:1361   */\n      add\n        /* \"#utility.yul\":1318:1371   */\n      tag_86\n      jump\t// in\n    tag_147:\n        /* \"#utility.yul\":1308:1371   */\n      swap3\n      pop\n        /* \"#utility.yul\":1264:1381   */\n      pop\n        /* \"#utility.yul\":1420:1422   */\n      0x20\n        /* \"#utility.yul\":1446:1499   */\n      tag_148\n        /* \"#utility.yul\":1491:1498   */\n      dup6\n        /* \"#utility.yul\":1482:1488   */\n      dup3\n        /* \"#utility.yul\":1471:1480   */\n      dup7\n        /* \"#utility.yul\":1467:1489   */\n      add\n        /* \"#utility.yul\":1446:1499   */\n      tag_86\n      jump\t// in\n    tag_148:\n        /* \"#utility.yul\":1436:1499   */\n      swap2\n      pop\n        /* \"#utility.yul\":1391:1509   */\n      pop\n        /* \"#utility.yul\":1042:1516   */\n      swap3\n      pop\n      swap3\n      swap1\n      pop\n      jump\t// out\n        /* \"#utility.yul\":1522:1851   */\n    tag_24:\n        /* \"#utility.yul\":1581:1587   */\n      0x00\n        /* \"#utility.yul\":1630:1632   */\n      0x20\n        /* \"#utility.yul\":1618:1627   */\n      dup3\n        /* \"#utility.yul\":1609:1616   */\n      dup5\n        /* \"#utility.yul\":1605:1628   */\n      sub\n        /* \"#utility.yul\":1601:1633   */\n      slt\n        /* \"#utility.yul\":1598:1717   */\n      iszero\n      tag_150\n      jumpi\n        /* \"#utility.yul\":1636:1715   */\n      tag_151\n      tag_83\n      jump\t// in\n    tag_151:\n        /* \"#utility.yul\":1598:1717   */\n    tag_150:\n        /* \"#utility.yul\":1756:1757   */\n      0x00\n        /* \"#utility.yul\":1781:1834   */\n      tag_152\n        /* \"#utility.yul\":1826:1833   */\n      dup5\n        /* \"#utility.yul\":1817:1823   */\n      dup3\n        /* \"#utility.yul\":1806:1815   */\n      dup6\n        /* \"#utility.yul\":1802:1824   */\n      add\n        /* \"#utility.yul\":1781:1834   */\n      tag_86\n      jump\t// in\n    tag_152:\n        /* \"#utility.yul\":1771:1834   */\n      swap2\n      pop\n        /* \"#utility.yul\":1727:1844   */\n      pop\n        /* \"#utility.yul\":1522:1851   */\n      swap3\n      swap2\n      pop\n      pop\n      jump\t// out\n        /* \"#utility.yul\":1857:1983   */\n    tag_87:\n        /* \"#utility.yul\":1894:1901   */\n      0x00\n        /* \"#utility.yul\":1934:1976   */\n      0xffffffffffffffffffffffffffffffffffffffff\n        /* \"#utility.yul\":1927:1932   */\n      dup3\n        /* \"#utility.yul\":1923:1977   */\n      and\n        /* \"#utility.yul\":1912:1977   */\n      swap1\n      pop\n        /* \"#utility.yul\":1857:1983   */\n      swap2\n      swap1\n      pop\n      jump\t// out\n        /* \"#utility.yul\":1989:2085   */\n    tag_88:\n        /* \"#utility.yul\":2026:2033   */\n      0x00\n        /* \"#utility.yul\":2055:2079   */\n      tag_155\n        /* \"#utility.yul\":2073:2078   */\n      dup3\n        /* \"#utility.yul\":2055:2079   */\n      tag_87\n      jump\t// in\n    tag_155:\n        /* \"#utility.yul\":2044:2079   */\n      swap1\n      pop\n        /* \"#utility.yul\":1989:2085   */\n      swap2\n      swap1\n      pop\n      jump\t// out\n        /* \"#utility.yul\":2091:2209   */\n    tag_89:\n        /* \"#utility.yul\":2178:2202   */\n      tag_157\n        /* \"#utility.yul\":2196:2201   */\n      dup2\n        /* \"#utility.yul\":2178:2202   */\n      tag_88\n      jump\t// in\n    tag_157:\n        /* \"#utility.yul\":2173:2176   */\n      dup3\n        /* \"#utility.yul\":2166:2203   */\n      mstore\n        /* \"#utility.yul\":2091:2209   */\n      pop\n      pop\n      jump\t// out\n        /* \"#utility.yul\":2215:2314   */\n    tag_90:\n        /* \"#utility.yul\":2267:2273   */\n      0x00\n        /* \"#utility.yul\":2301:2306   */\n      dup2\n        /* \"#utility.yul\":2295:2307   */\n      mload\n        /* \"#utility.yul\":2285:2307   */\n      swap1\n      pop\n        /* \"#utility.yul\":2215:2314   */\n      swap2\n      swap1\n      pop\n      jump\t// out\n        /* \"#utility.yul\":2320:2489   */\n    tag_91:\n        /* \"#utility.yul\":2404:2415   */\n      0x00\n        /* \"#utility.yul\":2438:2444   */\n      dup3\n        /* \"#utility.yul\":2433:2436   */\n      dup3\n        /* \"#utility.yul\":2426:2445   */\n      mstore\n        /* \"#utility.yul\":2478:2482   */\n      0x20\n        /* \"#utility.yul\":2473:2476   */\n      dup3\n        /* \"#utility.yul\":2469:2483   */\n      add\n        /* \"#utility.yul\":2454:2483   */\n      swap1\n      pop\n        /* \"#utility.yul\":2320:2489   */\n      swap3\n      swap2\n      pop\n      pop\n      jump\t// out\n        /* \"#utility.yul\":2495:2741   */\n    tag_92:\n        /* \"#utility.yul\":2576:2577   */\n      0x00\n        /* \"#utility.yul\":2586:2699   */\n    tag_161:\n        /* \"#utility.yul\":2600:2606   */\n      dup4\n        /* \"#utility.yul\":2597:2598   */\n      dup2\n        /* \"#utility.yul\":2594:2607   */\n      lt\n        /* \"#utility.yul\":2586:2699   */\n      iszero\n      tag_163\n      jumpi\n        /* \"#utility.yul\":2685:2686   */\n      dup1\n        /* \"#utility.yul\":2680:2683   */\n      dup3\n        /* \"#utility.yul\":2676:2687   */\n      add\n        /* \"#utility.yul\":2670:2688   */\n      mload\n        /* \"#utility.yul\":2666:2667   */\n      dup2\n        /* \"#utility.yul\":2661:2664   */\n      dup5\n        /* \"#utility.yul\":2657:2668   */\n      add\n        /* \"#utility.yul\":2650:2689   */\n      mstore\n        /* \"#utility.yul\":2622:2624   */\n      0x20\n        /* \"#utility.yul\":2619:2620   */\n      dup2\n        /* \"#utility.yul\":2615:2625   */\n      add\n        /* \"#utility.yul\":2610:2625   */\n      swap1\n      pop\n        /* \"#utility.yul\":2586:2699   */\n      jump(tag_161)\n    tag_163:\n        /* \"#utility.yul\":2733:2734   */\n      0x00\n        /* \"#utility.yul\":2724:2730   */\n      dup5\n        /* \"#utility.yul\":2719:2722   */\n      dup5\n        /* \"#utility.yul\":2715:2731   */\n      add\n        /* \"#utility.yul\":2708:2735   */\n      mstore\n        /* \"#utility.yul\":2557:2741   */\n      pop\n        /* \"#utility.yul\":2495:2741   */\n      pop\n      pop\n      pop\n      jump\t// out\n        /* \"#utility.yul\":2747:2849   */\n    tag_93:\n        /* \"#utility.yul\":2788:2794   */\n      0x00\n        /* \"#utility.yul\":2839:2841   */\n      0x1f\n        /* \"#utility.yul\":2835:2842   */\n      not\n        /* \"#utility.yul\":2830:2832   */\n      0x1f\n        /* \"#utility.yul\":2823:2828   */\n      dup4\n        /* \"#utility.yul\":2819:2833   */\n      add\n        /* \"#utility.yul\":2815:2843   */\n      and\n        /* \"#utility.yul\":2805:2843   */\n      swap1\n      pop\n        /* \"#utility.yul\":2747:2849   */\n      swap2\n      swap1\n      pop\n      jump\t// out\n        /* \"#utility.yul\":2855:3232   */\n    tag_94:\n        /* \"#utility.yul\":2943:2946   */\n      0x00\n        /* \"#utility.yul\":2971:3010   */\n      tag_166\n        /* \"#utility.yul\":3004:3009   */\n      dup3\n        /* \"#utility.yul\":2971:3010   */\n      tag_90\n      jump\t// in\n    tag_166:\n        /* \"#utility.yul\":3026:3097   */\n      tag_167\n        /* \"#utility.yul\":3090:3096   */\n      dup2\n        /* \"#utility.yul\":3085:3088   */\n      dup6\n        /* \"#utility.yul\":3026:3097   */\n      tag_91\n      jump\t// in\n    tag_167:\n        /* \"#utility.yul\":3019:3097   */\n      swap4\n      pop\n        /* \"#utility.yul\":3106:3171   */\n      tag_168\n        /* \"#utility.yul\":3164:3170   */\n      dup2\n        /* \"#utility.yul\":3159:3162   */\n      dup6\n        /* \"#utility.yul\":3152:3156   */\n      0x20\n        /* \"#utility.yul\":3145:3150   */\n      dup7\n        /* \"#utility.yul\":3141:3157   */\n      add\n        /* \"#utility.yul\":3106:3171   */\n      tag_92\n      jump\t// in\n    tag_168:\n        /* \"#utility.yul\":3196:3225   */\n      tag_169\n        /* \"#utility.yul\":3218:3224   */\n      dup2\n        /* \"#utility.yul\":3196:3225   */\n      tag_93\n      jump\t// in\n    tag_169:\n        /* \"#utility.yul\":3191:3194   */\n      dup5\n        /* \"#utility.yul\":3187:3226   */\n      add\n        /* \"#utility.yul\":3180:3226   */\n      swap2\n      pop\n        /* \"#utility.yul\":2947:3232   */\n      pop\n        /* \"#utility.yul\":2855:3232   */\n      swap3\n      swap2\n      pop\n      pop\n      jump\t// out\n        /* \"#utility.yul\":3238:3882   */\n    tag_27:\n        /* \"#utility.yul\":3435:3439   */\n      0x00\n        /* \"#utility.yul\":3473:3476   */\n      0x80\n        /* \"#utility.yul\":3462:3471   */\n      dup3\n        /* \"#utility.yul\":3458:3477   */\n      add\n        /* \"#utility.yul\":3450:3477   */\n      swap1\n      pop\n        /* \"#utility.yul\":3487:3558   */\n      tag_171\n        /* \"#utility.yul\":3555:3556   */\n      0x00\n        /* \"#utility.yul\":3544:3553   */\n      dup4\n        /* \"#utility.yul\":3540:3557   */\n      add\n        /* \"#utility.yul\":3531:3537   */\n      dup8\n        /* \"#utility.yul\":3487:3558   */\n      tag_89\n      jump\t// in\n    tag_171:\n        /* \"#utility.yul\":3605:3614   */\n      dup2\n        /* \"#utility.yul\":3599:3603   */\n      dup2\n        /* \"#utility.yul\":3595:3615   */\n      sub\n        /* \"#utility.yul\":3590:3592   */\n      0x20\n        /* \"#utility.yul\":3579:3588   */\n      dup4\n        /* \"#utility.yul\":3575:3593   */\n      add\n        /* \"#utility.yul\":3568:3616   */\n      mstore\n        /* \"#utility.yul\":3633:3711   */\n      tag_172\n        /* \"#utility.yul\":3706:3710   */\n      dup2\n        /* \"#utility.yul\":3697:3703   */\n      dup7\n        /* \"#utility.yul\":3633:3711   */\n      tag_94\n      jump\t// in\n    tag_172:\n        /* \"#utility.yul\":3625:3711   */\n      swap1\n      pop\n        /* \"#utility.yul\":3721:3793   */\n      tag_173\n        /* \"#utility.yul\":3789:3791   */\n      0x40\n        /* \"#utility.yul\":3778:3787   */\n      dup4\n        /* \"#utility.yul\":3774:3792   */\n      add\n        /* \"#utility.yul\":3765:3771   */\n      dup6\n        /* \"#utility.yul\":3721:3793   */\n      tag_81\n      jump\t// in\n    tag_173:\n        /* \"#utility.yul\":3803:3875   */\n      tag_174\n        /* \"#utility.yul\":3871:3873   */\n      0x60\n        /* \"#utility.yul\":3860:3869   */\n      dup4\n        /* \"#utility.yul\":3856:3874   */\n      add\n        /* \"#utility.yul\":3847:3853   */\n      dup5\n        /* \"#utility.yul\":3803:3875   */\n      tag_81\n      jump\t// in\n    tag_174:\n        /* \"#utility.yul\":3238:3882   */\n      swap6\n      swap5\n      pop\n      pop\n      pop\n      pop\n      pop\n      jump\t// out\n        /* \"#utility.yul\":3888:4005   */\n    tag_95:\n        /* \"#utility.yul\":3997:3998   */\n      0x00\n        /* \"#utility.yul\":3994:3995   */\n      dup1\n        /* \"#utility.yul\":3987:3999   */\n      revert\n        /* \"#utility.yul\":4011:4128   */\n    tag_96:\n        /* \"#utility.yul\":4120:4121   */\n      0x00\n        /* \"#utility.yul\":4117:4118   */\n      dup1\n        /* \"#utility.yul\":4110:4122   */\n      revert\n        /* \"#utility.yul\":4134:4314   */\n    tag_97:\n        /* \"#utility.yul\":4182:4259   */\n      0x4e487b7100000000000000000000000000000000000000000000000000000000\n        /* \"#utility.yul\":4179:4180   */\n      0x00\n        /* \"#utility.yul\":4172:4260   */\n      mstore\n        /* \"#utility.yul\":4279:4283   */\n      0x41\n        /* \"#utility.yul\":4276:4277   */\n      0x04\n        /* \"#utility.yul\":4269:4284   */\n      mstore\n        /* \"#utility.yul\":4303:4307   */\n      0x24\n        /* \"#utility.yul\":4300:4301   */\n      0x00\n        /* \"#utility.yul\":4293:4308   */\n      revert\n        /* \"#utility.yul\":4320:4601   */\n    tag_98:\n        /* \"#utility.yul\":4403:4430   */\n      tag_179\n        /* \"#utility.yul\":4425:4429   */\n      dup3\n        /* \"#utility.yul\":4403:4430   */\n      tag_93\n      jump\t// in\n    tag_179:\n        /* \"#utility.yul\":4395:4401   */\n      dup2\n        /* \"#utility.yul\":4391:4431   */\n      add\n        /* \"#utility.yul\":4533:4539   */\n      dup2\n        /* \"#utility.yul\":4521:4531   */\n      dup2\n        /* \"#utility.yul\":4518:4540   */\n      lt\n        /* \"#utility.yul\":4497:4515   */\n      0xffffffffffffffff\n        /* \"#utility.yul\":4485:4495   */\n      dup3\n        /* \"#utility.yul\":4482:4516   */\n      gt\n        /* \"#utility.yul\":4479:4541   */\n      or\n        /* \"#utility.yul\":4476:4564   */\n      iszero\n      tag_180\n      jumpi\n        /* \"#utility.yul\":4544:4562   */\n      tag_181\n      tag_97\n      jump\t// in\n    tag_181:\n        /* \"#utility.yul\":4476:4564   */\n    tag_180:\n        /* \"#utility.yul\":4584:4594   */\n      dup1\n        /* \"#utility.yul\":4580:4582   */\n      0x40\n        /* \"#utility.yul\":4573:4595   */\n      mstore\n        /* \"#utility.yul\":4363:4601   */\n      pop\n        /* \"#utility.yul\":4320:4601   */\n      pop\n      pop\n      jump\t// out\n        /* \"#utility.yul\":4607:4736   */\n    tag_99:\n        /* \"#utility.yul\":4641:4647   */\n      0x00\n        /* \"#utility.yul\":4668:4688   */\n      tag_183\n      tag_82\n      jump\t// in\n    tag_183:\n        /* \"#utility.yul\":4658:4688   */\n      swap1\n      pop\n        /* \"#utility.yul\":4697:4730   */\n      tag_184\n        /* \"#utility.yul\":4725:4729   */\n      dup3\n        /* \"#utility.yul\":4717:4723   */\n      dup3\n        /* \"#utility.yul\":4697:4730   */\n      tag_98\n      jump\t// in\n    tag_184:\n        /* \"#utility.yul\":4607:4736   */\n      swap2\n      swap1\n      pop\n      jump\t// out\n        /* \"#utility.yul\":4742:5050   */\n    tag_100:\n        /* \"#utility.yul\":4804:4808   */\n      0x00\n        /* \"#utility.yul\":4894:4912   */\n      0xffffffffffffffff\n        /* \"#utility.yul\":4886:4892   */\n      dup3\n        /* \"#utility.yul\":4883:4913   */\n      gt\n        /* \"#utility.yul\":4880:4936   */\n      iszero\n      tag_186\n      jumpi\n        /* \"#utility.yul\":4916:4934   */\n      tag_187\n      tag_97\n      jump\t// in\n    tag_187:\n        /* \"#utility.yul\":4880:4936   */\n    tag_186:\n        /* \"#utility.yul\":4954:4983   */\n      tag_188\n        /* \"#utility.yul\":4976:4982   */\n      dup3\n        /* \"#utility.yul\":4954:4983   */\n      tag_93\n      jump\t// in\n    tag_188:\n        /* \"#utility.yul\":4946:4983   */\n      swap1\n      pop\n        /* \"#utility.yul\":5038:5042   */\n      0x20\n        /* \"#utility.yul\":5032:5036   */\n      dup2\n        /* \"#utility.yul\":5028:5043   */\n      add\n        /* \"#utility.yul\":5020:5043   */\n      swap1\n      pop\n        /* \"#utility.yul\":4742:5050   */\n      swap2\n      swap1\n      pop\n      jump\t// out\n        /* \"#utility.yul\":5056:5202   */\n    tag_101:\n        /* \"#utility.yul\":5153:5159   */\n      dup3\n        /* \"#utility.yul\":5148:5151   */\n      dup2\n        /* \"#utility.yul\":5143:5146   */\n      dup4\n        /* \"#utility.yul\":5130:5160   */\n      calldatacopy\n        /* \"#utility.yul\":5194:5195   */\n      0x00\n        /* \"#utility.yul\":5185:5191   */\n      dup4\n        /* \"#utility.yul\":5180:5183   */\n      dup4\n        /* \"#utility.yul\":5176:5192   */\n      add\n        /* \"#utility.yul\":5169:5196   */\n      mstore\n        /* \"#utility.yul\":5056:5202   */\n      pop\n      pop\n      pop\n      jump\t// out\n        /* \"#utility.yul\":5208:5633   */\n    tag_102:\n        /* \"#utility.yul\":5286:5291   */\n      0x00\n        /* \"#utility.yul\":5311:5377   */\n      tag_191\n        /* \"#utility.yul\":5327:5376   */\n      tag_192\n        /* \"#utility.yul\":5369:5375   */\n      dup5\n        /* \"#utility.yul\":5327:5376   */\n      tag_100\n      jump\t// in\n    tag_192:\n        /* \"#utility.yul\":5311:5377   */\n      tag_99\n      jump\t// in\n    tag_191:\n        /* \"#utility.yul\":5302:5377   */\n      swap1\n      pop\n        /* \"#utility.yul\":5400:5406   */\n      dup3\n        /* \"#utility.yul\":5393:5398   */\n      dup2\n        /* \"#utility.yul\":5386:5407   */\n      mstore\n        /* \"#utility.yul\":5438:5442   */\n      0x20\n        /* \"#utility.yul\":5431:5436   */\n      dup2\n        /* \"#utility.yul\":5427:5443   */\n      add\n        /* \"#utility.yul\":5476:5479   */\n      dup5\n        /* \"#utility.yul\":5467:5473   */\n      dup5\n        /* \"#utility.yul\":5462:5465   */\n      dup5\n        /* \"#utility.yul\":5458:5474   */\n      add\n        /* \"#utility.yul\":5455:5480   */\n      gt\n        /* \"#utility.yul\":5452:5564   */\n      iszero\n      tag_193\n      jumpi\n        /* \"#utility.yul\":5483:5562   */\n      tag_194\n      tag_96\n      jump\t// in\n    tag_194:\n        /* \"#utility.yul\":5452:5564   */\n    tag_193:\n        /* \"#utility.yul\":5573:5627   */\n      tag_195\n        /* \"#utility.yul\":5620:5626   */\n      dup5\n        /* \"#utility.yul\":5615:5618   */\n      dup3\n        /* \"#utility.yul\":5610:5613   */\n      dup6\n        /* \"#utility.yul\":5573:5627   */\n      tag_101\n      jump\t// in\n    tag_195:\n        /* \"#utility.yul\":5292:5633   */\n      pop\n        /* \"#utility.yul\":5208:5633   */\n      swap4\n      swap3\n      pop\n      pop\n      pop\n      jump\t// out\n        /* \"#utility.yul\":5653:5993   */\n    tag_103:\n        /* \"#utility.yul\":5709:5714   */\n      0x00\n        /* \"#utility.yul\":5758:5761   */\n      dup3\n        /* \"#utility.yul\":5751:5755   */\n      0x1f\n        /* \"#utility.yul\":5743:5749   */\n      dup4\n        /* \"#utility.yul\":5739:5756   */\n      add\n        /* \"#utility.yul\":5735:5762   */\n      slt\n        /* \"#utility.yul\":5725:5847   */\n      tag_197\n      jumpi\n        /* \"#utility.yul\":5766:5845   */\n      tag_198\n      tag_95\n      jump\t// in\n    tag_198:\n        /* \"#utility.yul\":5725:5847   */\n    tag_197:\n        /* \"#utility.yul\":5883:5889   */\n      dup2\n        /* \"#utility.yul\":5870:5890   */\n      calldataload\n        /* \"#utility.yul\":5908:5987   */\n      tag_199\n        /* \"#utility.yul\":5983:5986   */\n      dup5\n        /* \"#utility.yul\":5975:5981   */\n      dup3\n        /* \"#utility.yul\":5968:5972   */\n      0x20\n        /* \"#utility.yul\":5960:5966   */\n      dup7\n        /* \"#utility.yul\":5956:5973   */\n      add\n        /* \"#utility.yul\":5908:5987   */\n      tag_102\n      jump\t// in\n    tag_199:\n        /* \"#utility.yul\":5899:5987   */\n      swap2\n      pop\n        /* \"#utility.yul\":5715:5993   */\n      pop\n        /* \"#utility.yul\":5653:5993   */\n      swap3\n      swap2\n      pop\n      pop\n      jump\t// out\n        /* \"#utility.yul\":5999:6798   */\n    tag_31:\n        /* \"#utility.yul\":6086:6092   */\n      0x00\n        /* \"#utility.yul\":6094:6100   */\n      dup1\n        /* \"#utility.yul\":6102:6108   */\n      0x00\n        /* \"#utility.yul\":6151:6153   */\n      0x60\n        /* \"#utility.yul\":6139:6148   */\n      dup5\n        /* \"#utility.yul\":6130:6137   */\n      dup7\n        /* \"#utility.yul\":6126:6149   */\n      sub\n        /* \"#utility.yul\":6122:6154   */\n      slt\n        /* \"#utility.yul\":6119:6238   */\n      iszero\n      tag_201\n      jumpi\n        /* \"#utility.yul\":6157:6236   */\n      tag_202\n      tag_83\n      jump\t// in\n    tag_202:\n        /* \"#utility.yul\":6119:6238   */\n    tag_201:\n        /* \"#utility.yul\":6305:6306   */\n      0x00\n        /* \"#utility.yul\":6294:6303   */\n      dup5\n        /* \"#utility.yul\":6290:6307   */\n      add\n        /* \"#utility.yul\":6277:6308   */\n      calldataload\n        /* \"#utility.yul\":6335:6353   */\n      0xffffffffffffffff\n        /* \"#utility.yul\":6327:6333   */\n      dup2\n        /* \"#utility.yul\":6324:6354   */\n      gt\n        /* \"#utility.yul\":6321:6438   */\n      iszero\n      tag_203\n      jumpi\n        /* \"#utility.yul\":6357:6436   */\n      tag_204\n      tag_84\n      jump\t// in\n    tag_204:\n        /* \"#utility.yul\":6321:6438   */\n    tag_203:\n        /* \"#utility.yul\":6462:6525   */\n      tag_205\n        /* \"#utility.yul\":6517:6524   */\n      dup7\n        /* \"#utility.yul\":6508:6514   */\n      dup3\n        /* \"#utility.yul\":6497:6506   */\n      dup8\n        /* \"#utility.yul\":6493:6515   */\n      add\n        /* \"#utility.yul\":6462:6525   */\n      tag_103\n      jump\t// in\n    tag_205:\n        /* \"#utility.yul\":6452:6525   */\n      swap4\n      pop\n        /* \"#utility.yul\":6248:6535   */\n      pop\n        /* \"#utility.yul\":6574:6576   */\n      0x20\n        /* \"#utility.yul\":6600:6653   */\n      tag_206\n        /* \"#utility.yul\":6645:6652   */\n      dup7\n        /* \"#utility.yul\":6636:6642   */\n      dup3\n        /* \"#utility.yul\":6625:6634   */\n      dup8\n        /* \"#utility.yul\":6621:6643   */\n      add\n        /* \"#utility.yul\":6600:6653   */\n      tag_86\n      jump\t// in\n    tag_206:\n        /* \"#utility.yul\":6590:6653   */\n      swap3\n      pop\n        /* \"#utility.yul\":6545:6663   */\n      pop\n        /* \"#utility.yul\":6702:6704   */\n      0x40\n        /* \"#utility.yul\":6728:6781   */\n      tag_207\n        /* \"#utility.yul\":6773:6780   */\n      dup7\n        /* \"#utility.yul\":6764:6770   */\n      dup3\n        /* \"#utility.yul\":6753:6762   */\n      dup8\n        /* \"#utility.yul\":6749:6771   */\n      add\n        /* \"#utility.yul\":6728:6781   */\n      tag_86\n      jump\t// in\n    tag_207:\n        /* \"#utility.yul\":6718:6781   */\n      swap2\n      pop\n        /* \"#utility.yul\":6673:6791   */\n      pop\n        /* \"#utility.yul\":5999:6798   */\n      swap3\n      pop\n      swap3\n      pop\n      swap3\n      jump\t// out\n        /* \"#utility.yul\":6804:6918   */\n    tag_104:\n        /* \"#utility.yul\":6871:6877   */\n      0x00\n        /* \"#utility.yul\":6905:6910   */\n      dup2\n        /* \"#utility.yul\":6899:6911   */\n      mload\n        /* \"#utility.yul\":6889:6911   */\n      swap1\n      pop\n        /* \"#utility.yul\":6804:6918   */\n      swap2\n      swap1\n      pop\n      jump\t// out\n        /* \"#utility.yul\":6924:7108   */\n    tag_105:\n        /* \"#utility.yul\":7023:7034   */\n      0x00\n        /* \"#utility.yul\":7057:7063   */\n      dup3\n        /* \"#utility.yul\":7052:7055   */\n      dup3\n        /* \"#utility.yul\":7045:7064   */\n      mstore\n        /* \"#utility.yul\":7097:7101   */\n      0x20\n        /* \"#utility.yul\":7092:7095   */\n      dup3\n        /* \"#utility.yul\":7088:7102   */\n      add\n        /* \"#utility.yul\":7073:7102   */\n      swap1\n      pop\n        /* \"#utility.yul\":6924:7108   */\n      swap3\n      swap2\n      pop\n      pop\n      jump\t// out\n        /* \"#utility.yul\":7114:7246   */\n    tag_106:\n        /* \"#utility.yul\":7181:7185   */\n      0x00\n        /* \"#utility.yul\":7204:7207   */\n      dup2\n        /* \"#utility.yul\":7196:7207   */\n      swap1\n      pop\n        /* \"#utility.yul\":7234:7238   */\n      0x20\n        /* \"#utility.yul\":7229:7232   */\n      dup3\n        /* \"#utility.yul\":7225:7239   */\n      add\n        /* \"#utility.yul\":7217:7239   */\n      swap1\n      pop\n        /* \"#utility.yul\":7114:7246   */\n      swap2\n      swap1\n      pop\n      jump\t// out\n        /* \"#utility.yul\":7252:7360   */\n    tag_107:\n        /* \"#utility.yul\":7329:7353   */\n      tag_212\n        /* \"#utility.yul\":7347:7352   */\n      dup2\n        /* \"#utility.yul\":7329:7353   */\n      tag_80\n      jump\t// in\n    tag_212:\n        /* \"#utility.yul\":7324:7327   */\n      dup3\n        /* \"#utility.yul\":7317:7354   */\n      mstore\n        /* \"#utility.yul\":7252:7360   */\n      pop\n      pop\n      jump\t// out\n        /* \"#utility.yul\":7366:7545   */\n    tag_108:\n        /* \"#utility.yul\":7435:7445   */\n      0x00\n        /* \"#utility.yul\":7456:7502   */\n      tag_214\n        /* \"#utility.yul\":7498:7501   */\n      dup4\n        /* \"#utility.yul\":7490:7496   */\n      dup4\n        /* \"#utility.yul\":7456:7502   */\n      tag_107\n      jump\t// in\n    tag_214:\n        /* \"#utility.yul\":7534:7538   */\n      0x20\n        /* \"#utility.yul\":7529:7532   */\n      dup4\n        /* \"#utility.yul\":7525:7539   */\n      add\n        /* \"#utility.yul\":7511:7539   */\n      swap1\n      pop\n        /* \"#utility.yul\":7366:7545   */\n      swap3\n      swap2\n      pop\n      pop\n      jump\t// out\n        /* \"#utility.yul\":7551:7664   */\n    tag_109:\n        /* \"#utility.yul\":7621:7625   */\n      0x00\n        /* \"#utility.yul\":7653:7657   */\n      0x20\n        /* \"#utility.yul\":7648:7651   */\n      dup3\n        /* \"#utility.yul\":7644:7658   */\n      add\n        /* \"#utility.yul\":7636:7658   */\n      swap1\n      pop\n        /* \"#utility.yul\":7551:7664   */\n      swap2\n      swap1\n      pop\n      jump\t// out\n        /* \"#utility.yul\":7700:8432   */\n    tag_110:\n        /* \"#utility.yul\":7819:7822   */\n      0x00\n        /* \"#utility.yul\":7848:7902   */\n      tag_217\n        /* \"#utility.yul\":7896:7901   */\n      dup3\n        /* \"#utility.yul\":7848:7902   */\n      tag_104\n      jump\t// in\n    tag_217:\n        /* \"#utility.yul\":7918:8004   */\n      tag_218\n        /* \"#utility.yul\":7997:8003   */\n      dup2\n        /* \"#utility.yul\":7992:7995   */\n      dup6\n        /* \"#utility.yul\":7918:8004   */\n      tag_105\n      jump\t// in\n    tag_218:\n        /* \"#utility.yul\":7911:8004   */\n      swap4\n      pop\n        /* \"#utility.yul\":8028:8084   */\n      tag_219\n        /* \"#utility.yul\":8078:8083   */\n      dup4\n        /* \"#utility.yul\":8028:8084   */\n      tag_106\n      jump\t// in\n    tag_219:\n        /* \"#utility.yul\":8107:8114   */\n      dup1\n        /* \"#utility.yul\":8138:8139   */\n      0x00\n        /* \"#utility.yul\":8123:8407   */\n    tag_220:\n        /* \"#utility.yul\":8148:8154   */\n      dup4\n        /* \"#utility.yul\":8145:8146   */\n      dup2\n        /* \"#utility.yul\":8142:8155   */\n      lt\n        /* \"#utility.yul\":8123:8407   */\n      iszero\n      tag_222\n      jumpi\n        /* \"#utility.yul\":8224:8230   */\n      dup2\n        /* \"#utility.yul\":8218:8231   */\n      mload\n        /* \"#utility.yul\":8251:8314   */\n      tag_223\n        /* \"#utility.yul\":8310:8313   */\n      dup9\n        /* \"#utility.yul\":8295:8308   */\n      dup3\n        /* \"#utility.yul\":8251:8314   */\n      tag_108\n      jump\t// in\n    tag_223:\n        /* \"#utility.yul\":8244:8314   */\n      swap8\n      pop\n        /* \"#utility.yul\":8337:8397   */\n      tag_224\n        /* \"#utility.yul\":8390:8396   */\n      dup4\n        /* \"#utility.yul\":8337:8397   */\n      tag_109\n      jump\t// in\n    tag_224:\n        /* \"#utility.yul\":8327:8397   */\n      swap3\n      pop\n        /* \"#utility.yul\":8183:8407   */\n      pop\n        /* \"#utility.yul\":8170:8171   */\n      0x01\n        /* \"#utility.yul\":8167:8168   */\n      dup2\n        /* \"#utility.yul\":8163:8172   */\n      add\n        /* \"#utility.yul\":8158:8172   */\n      swap1\n      pop\n        /* \"#utility.yul\":8123:8407   */\n      jump(tag_220)\n    tag_222:\n        /* \"#utility.yul\":8127:8141   */\n      pop\n        /* \"#utility.yul\":8423:8426   */\n      dup6\n        /* \"#utility.yul\":8416:8426   */\n      swap4\n      pop\n        /* \"#utility.yul\":7824:8432   */\n      pop\n      pop\n      pop\n        /* \"#utility.yul\":7700:8432   */\n      swap3\n      swap2\n      pop\n      pop\n      jump\t// out\n        /* \"#utility.yul\":8438:8921   */\n    tag_38:\n        /* \"#utility.yul\":8609:8613   */\n      0x00\n        /* \"#utility.yul\":8647:8649   */\n      0x40\n        /* \"#utility.yul\":8636:8645   */\n      dup3\n        /* \"#utility.yul\":8632:8650   */\n      add\n        /* \"#utility.yul\":8624:8650   */\n      swap1\n      pop\n        /* \"#utility.yul\":8696:8705   */\n      dup2\n        /* \"#utility.yul\":8690:8694   */\n      dup2\n        /* \"#utility.yul\":8686:8706   */\n      sub\n        /* \"#utility.yul\":8682:8683   */\n      0x00\n        /* \"#utility.yul\":8671:8680   */\n      dup4\n        /* \"#utility.yul\":8667:8684   */\n      add\n        /* \"#utility.yul\":8660:8707   */\n      mstore\n        /* \"#utility.yul\":8724:8832   */\n      tag_226\n        /* \"#utility.yul\":8827:8831   */\n      dup2\n        /* \"#utility.yul\":8818:8824   */\n      dup6\n        /* \"#utility.yul\":8724:8832   */\n      tag_110\n      jump\t// in\n    tag_226:\n        /* \"#utility.yul\":8716:8832   */\n      swap1\n      pop\n        /* \"#utility.yul\":8842:8914   */\n      tag_227\n        /* \"#utility.yul\":8910:8912   */\n      0x20\n        /* \"#utility.yul\":8899:8908   */\n      dup4\n        /* \"#utility.yul\":8895:8913   */\n      add\n        /* \"#utility.yul\":8886:8892   */\n      dup5\n        /* \"#utility.yul\":8842:8914   */\n      tag_81\n      jump\t// in\n    tag_227:\n        /* \"#utility.yul\":8438:8921   */\n      swap4\n      swap3\n      pop\n      pop\n      pop\n      jump\t// out\n        /* \"#utility.yul\":8927:9107   */\n    tag_44:\n        /* \"#utility.yul\":8975:9052   */\n      0x4e487b7100000000000000000000000000000000000000000000000000000000\n        /* \"#utility.yul\":8972:8973   */\n      0x00\n        /* \"#utility.yul\":8965:9053   */\n      mstore\n        /* \"#utility.yul\":9072:9076   */\n      0x32\n        /* \"#utility.yul\":9069:9070   */\n      0x04\n        /* \"#utility.yul\":9062:9077   */\n      mstore\n        /* \"#utility.yul\":9096:9100   */\n      0x24\n        /* \"#utility.yul\":9093:9094   */\n      0x00\n        /* \"#utility.yul\":9086:9101   */\n      revert\n        /* \"#utility.yul\":9113:9339   */\n    tag_111:\n        /* \"#utility.yul\":9253:9287   */\n      0x50617961626c6520616d6f756e74206e6f74206571756c2070726f6a65637420\n        /* \"#utility.yul\":9249:9250   */\n      0x00\n        /* \"#utility.yul\":9241:9247   */\n      dup3\n        /* \"#utility.yul\":9237:9251   */\n      add\n        /* \"#utility.yul\":9230:9288   */\n      mstore\n        /* \"#utility.yul\":9322:9331   */\n      0x616d6f756e742e00000000000000000000000000000000000000000000000000\n        /* \"#utility.yul\":9317:9319   */\n      0x20\n        /* \"#utility.yul\":9309:9315   */\n      dup3\n        /* \"#utility.yul\":9305:9320   */\n      add\n        /* \"#utility.yul\":9298:9332   */\n      mstore\n        /* \"#utility.yul\":9113:9339   */\n      pop\n      jump\t// out\n        /* \"#utility.yul\":9345:9711   */\n    tag_112:\n        /* \"#utility.yul\":9487:9490   */\n      0x00\n        /* \"#utility.yul\":9508:9575   */\n      tag_231\n        /* \"#utility.yul\":9572:9574   */\n      0x27\n        /* \"#utility.yul\":9567:9570   */\n      dup4\n        /* \"#utility.yul\":9508:9575   */\n      tag_91\n      jump\t// in\n    tag_231:\n        /* \"#utility.yul\":9501:9575   */\n      swap2\n      pop\n        /* \"#utility.yul\":9584:9677   */\n      tag_232\n        /* \"#utility.yul\":9673:9676   */\n      dup3\n        /* \"#utility.yul\":9584:9677   */\n      tag_111\n      jump\t// in\n    tag_232:\n        /* \"#utility.yul\":9702:9704   */\n      0x40\n        /* \"#utility.yul\":9697:9700   */\n      dup3\n        /* \"#utility.yul\":9693:9705   */\n      add\n        /* \"#utility.yul\":9686:9705   */\n      swap1\n      pop\n        /* \"#utility.yul\":9345:9711   */\n      swap2\n      swap1\n      pop\n      jump\t// out\n        /* \"#utility.yul\":9717:10136   */\n    tag_48:\n        /* \"#utility.yul\":9883:9887   */\n      0x00\n        /* \"#utility.yul\":9921:9923   */\n      0x20\n        /* \"#utility.yul\":9910:9919   */\n      dup3\n        /* \"#utility.yul\":9906:9924   */\n      add\n        /* \"#utility.yul\":9898:9924   */\n      swap1\n      pop\n        /* \"#utility.yul\":9970:9979   */\n      dup2\n        /* \"#utility.yul\":9964:9968   */\n      dup2\n        /* \"#utility.yul\":9960:9980   */\n      sub\n        /* \"#utility.yul\":9956:9957   */\n      0x00\n        /* \"#utility.yul\":9945:9954   */\n      dup4\n        /* \"#utility.yul\":9941:9958   */\n      add\n        /* \"#utility.yul\":9934:9981   */\n      mstore\n        /* \"#utility.yul\":9998:10129   */\n      tag_234\n        /* \"#utility.yul\":10124:10128   */\n      dup2\n        /* \"#utility.yul\":9998:10129   */\n      tag_112\n      jump\t// in\n    tag_234:\n        /* \"#utility.yul\":9990:10129   */\n      swap1\n      pop\n        /* \"#utility.yul\":9717:10136   */\n      swap2\n      swap1\n      pop\n      jump\t// out\n        /* \"#utility.yul\":10142:10322   */\n    tag_113:\n        /* \"#utility.yul\":10190:10267   */\n      0x4e487b7100000000000000000000000000000000000000000000000000000000\n        /* \"#utility.yul\":10187:10188   */\n      0x00\n        /* \"#utility.yul\":10180:10268   */\n      mstore\n        /* \"#utility.yul\":10287:10291   */\n      0x11\n        /* \"#utility.yul\":10284:10285   */\n      0x04\n        /* \"#utility.yul\":10277:10292   */\n      mstore\n        /* \"#utility.yul\":10311:10315   */\n      0x24\n        /* \"#utility.yul\":10308:10309   */\n      0x00\n        /* \"#utility.yul\":10301:10316   */\n      revert\n        /* \"#utility.yul\":10328:10519   */\n    tag_53:\n        /* \"#utility.yul\":10368:10371   */\n      0x00\n        /* \"#utility.yul\":10387:10407   */\n      tag_237\n        /* \"#utility.yul\":10405:10406   */\n      dup3\n        /* \"#utility.yul\":10387:10407   */\n      tag_80\n      jump\t// in\n    tag_237:\n        /* \"#utility.yul\":10382:10407   */\n      swap2\n      pop\n        /* \"#utility.yul\":10421:10441   */\n      tag_238\n        /* \"#utility.yul\":10439:10440   */\n      dup4\n        /* \"#utility.yul\":10421:10441   */\n      tag_80\n      jump\t// in\n    tag_238:\n        /* \"#utility.yul\":10416:10441   */\n      swap3\n      pop\n        /* \"#utility.yul\":10464:10465   */\n      dup3\n        /* \"#utility.yul\":10461:10462   */\n      dup3\n        /* \"#utility.yul\":10457:10466   */\n      add\n        /* \"#utility.yul\":10450:10466   */\n      swap1\n      pop\n        /* \"#utility.yul\":10485:10488   */\n      dup1\n        /* \"#utility.yul\":10482:10483   */\n      dup3\n        /* \"#utility.yul\":10479:10489   */\n      gt\n        /* \"#utility.yul\":10476:10512   */\n      iszero\n      tag_239\n      jumpi\n        /* \"#utility.yul\":10492:10510   */\n      tag_240\n      tag_113\n      jump\t// in\n    tag_240:\n        /* \"#utility.yul\":10476:10512   */\n    tag_239:\n        /* \"#utility.yul\":10328:10519   */\n      swap3\n      swap2\n      pop\n      pop\n      jump\t// out\n        /* \"#utility.yul\":10525:10705   */\n    tag_114:\n        /* \"#utility.yul\":10573:10650   */\n      0x4e487b7100000000000000000000000000000000000000000000000000000000\n        /* \"#utility.yul\":10570:10571   */\n      0x00\n        /* \"#utility.yul\":10563:10651   */\n      mstore\n        /* \"#utility.yul\":10670:10674   */\n      0x22\n        /* \"#utility.yul\":10667:10668   */\n      0x04\n        /* \"#utility.yul\":10660:10675   */\n      mstore\n        /* \"#utility.yul\":10694:10698   */\n      0x24\n        /* \"#utility.yul\":10691:10692   */\n      0x00\n        /* \"#utility.yul\":10684:10699   */\n      revert\n        /* \"#utility.yul\":10711:11031   */\n    tag_68:\n        /* \"#utility.yul\":10755:10761   */\n      0x00\n        /* \"#utility.yul\":10792:10793   */\n      0x02\n        /* \"#utility.yul\":10786:10790   */\n      dup3\n        /* \"#utility.yul\":10782:10794   */\n      div\n        /* \"#utility.yul\":10772:10794   */\n      swap1\n      pop\n        /* \"#utility.yul\":10839:10840   */\n      0x01\n        /* \"#utility.yul\":10833:10837   */\n      dup3\n        /* \"#utility.yul\":10829:10841   */\n      and\n        /* \"#utility.yul\":10860:10878   */\n      dup1\n        /* \"#utility.yul\":10850:10931   */\n      tag_243\n      jumpi\n        /* \"#utility.yul\":10916:10920   */\n      0x7f\n        /* \"#utility.yul\":10908:10914   */\n      dup3\n        /* \"#utility.yul\":10904:10921   */\n      and\n        /* \"#utility.yul\":10894:10921   */\n      swap2\n      pop\n        /* \"#utility.yul\":10850:10931   */\n    tag_243:\n        /* \"#utility.yul\":10978:10980   */\n      0x20\n        /* \"#utility.yul\":10970:10976   */\n      dup3\n        /* \"#utility.yul\":10967:10981   */\n      lt\n        /* \"#utility.yul\":10947:10965   */\n      dup2\n        /* \"#utility.yul\":10944:10982   */\n      sub\n        /* \"#utility.yul\":10941:11025   */\n      tag_244\n      jumpi\n        /* \"#utility.yul\":10997:11015   */\n      tag_245\n      tag_114\n      jump\t// in\n    tag_245:\n        /* \"#utility.yul\":10941:11025   */\n    tag_244:\n        /* \"#utility.yul\":10762:11031   */\n      pop\n        /* \"#utility.yul\":10711:11031   */\n      swap2\n      swap1\n      pop\n      jump\t// out\n        /* \"#utility.yul\":11037:11178   */\n    tag_115:\n        /* \"#utility.yul\":11086:11090   */\n      0x00\n        /* \"#utility.yul\":11109:11112   */\n      dup2\n        /* \"#utility.yul\":11101:11112   */\n      swap1\n      pop\n        /* \"#utility.yul\":11132:11135   */\n      dup2\n        /* \"#utility.yul\":11129:11130   */\n      0x00\n        /* \"#utility.yul\":11122:11136   */\n      mstore\n        /* \"#utility.yul\":11166:11170   */\n      0x20\n        /* \"#utility.yul\":11163:11164   */\n      0x00\n        /* \"#utility.yul\":11153:11171   */\n      keccak256\n        /* \"#utility.yul\":11145:11171   */\n      swap1\n      pop\n        /* \"#utility.yul\":11037:11178   */\n      swap2\n      swap1\n      pop\n      jump\t// out\n        /* \"#utility.yul\":11184:11277   */\n    tag_116:\n        /* \"#utility.yul\":11221:11227   */\n      0x00\n        /* \"#utility.yul\":11268:11270   */\n      0x20\n        /* \"#utility.yul\":11263:11265   */\n      0x1f\n        /* \"#utility.yul\":11256:11261   */\n      dup4\n        /* \"#utility.yul\":11252:11266   */\n      add\n        /* \"#utility.yul\":11248:11271   */\n      div\n        /* \"#utility.yul\":11238:11271   */\n      swap1\n      pop\n        /* \"#utility.yul\":11184:11277   */\n      swap2\n      swap1\n      pop\n      jump\t// out\n        /* \"#utility.yul\":11283:11390   */\n    tag_117:\n        /* \"#utility.yul\":11327:11335   */\n      0x00\n        /* \"#utility.yul\":11377:11382   */\n      dup3\n        /* \"#utility.yul\":11371:11375   */\n      dup3\n        /* \"#utility.yul\":11367:11383   */\n      shl\n        /* \"#utility.yul\":11346:11383   */\n      swap1\n      pop\n        /* \"#utility.yul\":11283:11390   */\n      swap3\n      swap2\n      pop\n      pop\n      jump\t// out\n        /* \"#utility.yul\":11396:11789   */\n    tag_118:\n        /* \"#utility.yul\":11465:11471   */\n      0x00\n        /* \"#utility.yul\":11515:11516   */\n      0x08\n        /* \"#utility.yul\":11503:11513   */\n      dup4\n        /* \"#utility.yul\":11499:11517   */\n      mul\n        /* \"#utility.yul\":11538:11635   */\n      tag_250\n        /* \"#utility.yul\":11568:11634   */\n      0xffffffffffffffffffffffffffffffffffffffffffffffffffffffffffffffff\n        /* \"#utility.yul\":11557:11566   */\n      dup3\n        /* \"#utility.yul\":11538:11635   */\n      tag_117\n      jump\t// in\n    tag_250:\n        /* \"#utility.yul\":11656:11695   */\n      tag_251\n        /* \"#utility.yul\":11686:11694   */\n      dup7\n        /* \"#utility.yul\":11675:11684   */\n      dup4\n        /* \"#utility.yul\":11656:11695   */\n      tag_117\n      jump\t// in\n    tag_251:\n        /* \"#utility.yul\":11644:11695   */\n      swap6\n      pop\n        /* \"#utility.yul\":11728:11732   */\n      dup1\n        /* \"#utility.yul\":11724:11733   */\n      not\n        /* \"#utility.yul\":11717:11722   */\n      dup5\n        /* \"#utility.yul\":11713:11734   */\n      and\n        /* \"#utility.yul\":11704:11734   */\n      swap4\n      pop\n        /* \"#utility.yul\":11777:11781   */\n      dup1\n        /* \"#utility.yul\":11767:11775   */\n      dup7\n        /* \"#utility.yul\":11763:11782   */\n      and\n        /* \"#utility.yul\":11756:11761   */\n      dup5\n        /* \"#utility.yul\":11753:11783   */\n      or\n        /* \"#utility.yul\":11743:11783   */\n      swap3\n      pop\n        /* \"#utility.yul\":11472:11789   */\n      pop\n      pop\n        /* \"#utility.yul\":11396:11789   */\n      swap4\n      swap3\n      pop\n      pop\n      pop\n      jump\t// out\n        /* \"#utility.yul\":11795:11855   */\n    tag_119:\n        /* \"#utility.yul\":11823:11826   */\n      0x00\n        /* \"#utility.yul\":11844:11849   */\n      dup2\n        /* \"#utility.yul\":11837:11849   */\n      swap1\n      pop\n        /* \"#utility.yul\":11795:11855   */\n      swap2\n      swap1\n      pop\n      jump\t// out\n        /* \"#utility.yul\":11861:12003   */\n    tag_120:\n        /* \"#utility.yul\":11911:11920   */\n      0x00\n        /* \"#utility.yul\":11944:11997   */\n      tag_254\n        /* \"#utility.yul\":11962:11996   */\n      tag_255\n        /* \"#utility.yul\":11971:11995   */\n      tag_256\n        /* \"#utility.yul\":11989:11994   */\n      dup5\n        /* \"#utility.yul\":11971:11995   */\n      tag_80\n      jump\t// in\n    tag_256:\n        /* \"#utility.yul\":11962:11996   */\n      tag_119\n      jump\t// in\n    tag_255:\n        /* \"#utility.yul\":11944:11997   */\n      tag_80\n      jump\t// in\n    tag_254:\n        /* \"#utility.yul\":11931:11997   */\n      swap1\n      pop\n        /* \"#utility.yul\":11861:12003   */\n      swap2\n      swap1\n      pop\n      jump\t// out\n        /* \"#utility.yul\":12009:12084   */\n    tag_121:\n        /* \"#utility.yul\":12052:12055   */\n      0x00\n        /* \"#utility.yul\":12073:12078   */\n      dup2\n        /* \"#utility.yul\":12066:12078   */\n      swap1\n      pop\n        /* \"#utility.yul\":12009:12084   */\n      swap2\n      swap1\n      pop\n      jump\t// out\n        /* \"#utility.yul\":12090:12359   */\n    tag_122:\n        /* \"#utility.yul\":12200:12239   */\n      tag_259\n        /* \"#utility.yul\":12231:12238   */\n      dup4\n        /* \"#utility.yul\":12200:12239   */\n      tag_120\n      jump\t// in\n    tag_259:\n        /* \"#utility.yul\":12261:12352   */\n      tag_260\n        /* \"#utility.yul\":12310:12351   */\n      tag_261\n        /* \"#utility.yul\":12334:12350   */\n      dup3\n        /* \"#utility.yul\":12310:12351   */\n      tag_121\n      jump\t// in\n    tag_261:\n        /* \"#utility.yul\":12302:12308   */\n      dup5\n        /* \"#utility.yul\":12295:12299   */\n      dup5\n        /* \"#utility.yul\":12289:12300   */\n      sload\n        /* \"#utility.yul\":12261:12352   */\n      tag_118\n      jump\t// in\n    tag_260:\n        /* \"#utility.yul\":12255:12259   */\n      dup3\n        /* \"#utility.yul\":12248:12353   */\n      sstore\n        /* \"#utility.yul\":12166:12359   */\n      pop\n        /* \"#utility.yul\":12090:12359   */\n      pop\n      pop\n      pop\n      jump\t// out\n        /* \"#utility.yul\":12365:12438   */\n    tag_123:\n        /* \"#utility.yul\":12410:12413   */\n      0x00\n        /* \"#utility.yul\":12365:12438   */\n      swap1\n      jump\t// out\n        /* \"#utility.yul\":12444:12633   */\n    tag_124:\n        /* \"#utility.yul\":12521:12553   */\n      tag_264\n      tag_123\n      jump\t// in\n    tag_264:\n        /* \"#utility.yul\":12562:12627   */\n      tag_265\n        /* \"#utility.yul\":12620:12626   */\n      dup2\n        /* \"#utility.yul\":12612:12618   */\n      dup5\n        /* \"#utility.yul\":12606:12610   */\n      dup5\n        /* \"#utility.yul\":12562:12627   */\n      tag_122\n      jump\t// in\n    tag_265:\n        /* \"#utility.yul\":12497:12633   */\n      pop\n        /* \"#utility.yul\":12444:12633   */\n      pop\n      pop\n      jump\t// out\n        /* \"#utility.yul\":12639:12825   */\n    tag_125:\n        /* \"#utility.yul\":12699:12819   */\n    tag_267:\n        /* \"#utility.yul\":12716:12719   */\n      dup2\n        /* \"#utility.yul\":12709:12714   */\n      dup2\n        /* \"#utility.yul\":12706:12720   */\n      lt\n        /* \"#utility.yul\":12699:12819   */\n      iszero\n      tag_269\n      jumpi\n        /* \"#utility.yul\":12770:12809   */\n      tag_270\n        /* \"#utility.yul\":12807:12808   */\n      0x00\n        /* \"#utility.yul\":12800:12805   */\n      dup3\n        /* \"#utility.yul\":12770:12809   */\n      tag_124\n      jump\t// in\n    tag_270:\n        /* \"#utility.yul\":12743:12744   */\n      0x01\n        /* \"#utility.yul\":12736:12741   */\n      dup2\n        /* \"#utility.yul\":12732:12745   */\n      add\n        /* \"#utility.yul\":12723:12745   */\n      swap1\n      pop\n        /* \"#utility.yul\":12699:12819   */\n      jump(tag_267)\n    tag_269:\n        /* \"#utility.yul\":12639:12825   */\n      pop\n      pop\n      jump\t// out\n        /* \"#utility.yul\":12831:13374   */\n    tag_126:\n        /* \"#utility.yul\":12932:12934   */\n      0x1f\n        /* \"#utility.yul\":12927:12930   */\n      dup3\n        /* \"#utility.yul\":12924:12935   */\n      gt\n        /* \"#utility.yul\":12921:13367   */\n      iszero\n      tag_272\n      jumpi\n        /* \"#utility.yul\":12966:13004   */\n      tag_273\n        /* \"#utility.yul\":12998:13003   */\n      dup2\n        /* \"#utility.yul\":12966:13004   */\n      tag_115\n      jump\t// in\n    tag_273:\n        /* \"#utility.yul\":13050:13079   */\n      tag_274\n        /* \"#utility.yul\":13068:13078   */\n      dup5\n        /* \"#utility.yul\":13050:13079   */\n      tag_116\n      jump\t// in\n    tag_274:\n        /* \"#utility.yul\":13040:13048   */\n      dup2\n        /* \"#utility.yul\":13036:13080   */\n      add\n        /* \"#utility.yul\":13233:13235   */\n      0x20\n        /* \"#utility.yul\":13221:13231   */\n      dup6\n        /* \"#utility.yul\":13218:13236   */\n      lt\n        /* \"#utility.yul\":13215:13264   */\n      iszero\n      tag_275\n      jumpi\n        /* \"#utility.yul\":13254:13262   */\n      dup2\n        /* \"#utility.yul\":13239:13262   */\n      swap1\n      pop\n        /* \"#utility.yul\":13215:13264   */\n    tag_275:\n        /* \"#utility.yul\":13277:13357   */\n      tag_276\n        /* \"#utility.yul\":13333:13355   */\n      tag_277\n        /* \"#utility.yul\":13351:13354   */\n      dup6\n        /* \"#utility.yul\":13333:13355   */\n      tag_116\n      jump\t// in\n    tag_277:\n        /* \"#utility.yul\":13323:13331   */\n      dup4\n        /* \"#utility.yul\":13319:13356   */\n      add\n        /* \"#utility.yul\":13306:13317   */\n      dup3\n        /* \"#utility.yul\":13277:13357   */\n      tag_125\n      jump\t// in\n    tag_276:\n        /* \"#utility.yul\":12936:13367   */\n      pop\n      pop\n        /* \"#utility.yul\":12921:13367   */\n    tag_272:\n        /* \"#utility.yul\":12831:13374   */\n      pop\n      pop\n      pop\n      jump\t// out\n        /* \"#utility.yul\":13380:13497   */\n    tag_127:\n        /* \"#utility.yul\":13434:13442   */\n      0x00\n        /* \"#utility.yul\":13484:13489   */\n      dup3\n        /* \"#utility.yul\":13478:13482   */\n      dup3\n        /* \"#utility.yul\":13474:13490   */\n      shr\n        /* \"#utility.yul\":13453:13490   */\n      swap1\n      pop\n        /* \"#utility.yul\":13380:13497   */\n      swap3\n      swap2\n      pop\n      pop\n      jump\t// out\n        /* \"#utility.yul\":13503:13672   */\n    tag_128:\n        /* \"#utility.yul\":13547:13553   */\n      0x00\n        /* \"#utility.yul\":13580:13631   */\n      tag_280\n        /* \"#utility.yul\":13628:13629   */\n      0x00\n        /* \"#utility.yul\":13624:13630   */\n      not\n        /* \"#utility.yul\":13616:13621   */\n      dup5\n        /* \"#utility.yul\":13613:13614   */\n      0x08\n        /* \"#utility.yul\":13609:13622   */\n      mul\n        /* \"#utility.yul\":13580:13631   */\n      tag_127\n      jump\t// in\n    tag_280:\n        /* \"#utility.yul\":13576:13632   */\n      not\n        /* \"#utility.yul\":13661:13665   */\n      dup1\n        /* \"#utility.yul\":13655:13659   */\n      dup4\n        /* \"#utility.yul\":13651:13666   */\n      and\n        /* \"#utility.yul\":13641:13666   */\n      swap2\n      pop\n        /* \"#utility.yul\":13554:13672   */\n      pop\n        /* \"#utility.yul\":13503:13672   */\n      swap3\n      swap2\n      pop\n      pop\n      jump\t// out\n        /* \"#utility.yul\":13677:13972   */\n    tag_129:\n        /* \"#utility.yul\":13753:13757   */\n      0x00\n        /* \"#utility.yul\":13899:13928   */\n      tag_282\n        /* \"#utility.yul\":13924:13927   */\n      dup4\n        /* \"#utility.yul\":13918:13922   */\n      dup4\n        /* \"#utility.yul\":13899:13928   */\n      tag_128\n      jump\t// in\n    tag_282:\n        /* \"#utility.yul\":13891:13928   */\n      swap2\n      pop\n        /* \"#utility.yul\":13961:13964   */\n      dup3\n        /* \"#utility.yul\":13958:13959   */\n      0x02\n        /* \"#utility.yul\":13954:13965   */\n      mul\n        /* \"#utility.yul\":13948:13952   */\n      dup3\n        /* \"#utility.yul\":13945:13966   */\n      or\n        /* \"#utility.yul\":13937:13966   */\n      swap1\n      pop\n        /* \"#utility.yul\":13677:13972   */\n      swap3\n      swap2\n      pop\n      pop\n      jump\t// out\n        /* \"#utility.yul\":13977:15372   */\n    tag_76:\n        /* \"#utility.yul\":14094:14131   */\n      tag_284\n        /* \"#utility.yul\":14127:14130   */\n      dup3\n        /* \"#utility.yul\":14094:14131   */\n      tag_90\n      jump\t// in\n    tag_284:\n        /* \"#utility.yul\":14196:14214   */\n      0xffffffffffffffff\n        /* \"#utility.yul\":14188:14194   */\n      dup2\n        /* \"#utility.yul\":14185:14215   */\n      gt\n        /* \"#utility.yul\":14182:14238   */\n      iszero\n      tag_285\n      jumpi\n        /* \"#utility.yul\":14218:14236   */\n      tag_286\n      tag_97\n      jump\t// in\n    tag_286:\n        /* \"#utility.yul\":14182:14238   */\n    tag_285:\n        /* \"#utility.yul\":14262:14300   */\n      tag_287\n        /* \"#utility.yul\":14294:14298   */\n      dup3\n        /* \"#utility.yul\":14288:14299   */\n      sload\n        /* \"#utility.yul\":14262:14300   */\n      tag_68\n      jump\t// in\n    tag_287:\n        /* \"#utility.yul\":14347:14414   */\n      tag_288\n        /* \"#utility.yul\":14407:14413   */\n      dup3\n        /* \"#utility.yul\":14399:14405   */\n      dup3\n        /* \"#utility.yul\":14393:14397   */\n      dup6\n        /* \"#utility.yul\":14347:14414   */\n      tag_126\n      jump\t// in\n    tag_288:\n        /* \"#utility.yul\":14441:14442   */\n      0x00\n        /* \"#utility.yul\":14465:14469   */\n      0x20\n        /* \"#utility.yul\":14452:14469   */\n      swap1\n      pop\n        /* \"#utility.yul\":14497:14499   */\n      0x1f\n        /* \"#utility.yul\":14489:14495   */\n      dup4\n        /* \"#utility.yul\":14486:14500   */\n      gt\n        /* \"#utility.yul\":14514:14515   */\n      0x01\n        /* \"#utility.yul\":14509:15127   */\n      dup2\n      eq\n      tag_290\n      jumpi\n        /* \"#utility.yul\":15171:15172   */\n      0x00\n        /* \"#utility.yul\":15188:15194   */\n      dup5\n        /* \"#utility.yul\":15185:15262   */\n      iszero\n      tag_291\n      jumpi\n        /* \"#utility.yul\":15237:15246   */\n      dup3\n        /* \"#utility.yul\":15232:15235   */\n      dup8\n        /* \"#utility.yul\":15228:15247   */\n      add\n        /* \"#utility.yul\":15222:15248   */\n      mload\n        /* \"#utility.yul\":15213:15248   */\n      swap1\n      pop\n        /* \"#utility.yul\":15185:15262   */\n    tag_291:\n        /* \"#utility.yul\":15288:15355   */\n      tag_292\n        /* \"#utility.yul\":15348:15354   */\n      dup6\n        /* \"#utility.yul\":15341:15346   */\n      dup3\n        /* \"#utility.yul\":15288:15355   */\n      tag_129\n      jump\t// in\n    tag_292:\n        /* \"#utility.yul\":15282:15286   */\n      dup7\n        /* \"#utility.yul\":15275:15356   */\n      sstore\n        /* \"#utility.yul\":15144:15366   */\n      pop\n        /* \"#utility.yul\":14479:15366   */\n      jump(tag_289)\n        /* \"#utility.yul\":14509:15127   */\n    tag_290:\n        /* \"#utility.yul\":14561:14565   */\n      0x1f\n        /* \"#utility.yul\":14557:14566   */\n      not\n        /* \"#utility.yul\":14549:14555   */\n      dup5\n        /* \"#utility.yul\":14545:14567   */\n      and\n        /* \"#utility.yul\":14595:14632   */\n      tag_293\n        /* \"#utility.yul\":14627:14631   */\n      dup7\n        /* \"#utility.yul\":14595:14632   */\n      tag_115\n      jump\t// in\n    tag_293:\n        /* \"#utility.yul\":14654:14655   */\n      0x00\n        /* \"#utility.yul\":14668:14876   */\n    tag_294:\n        /* \"#utility.yul\":14682:14689   */\n      dup3\n        /* \"#utility.yul\":14679:14680   */\n      dup2\n        /* \"#utility.yul\":14676:14690   */\n      lt\n        /* \"#utility.yul\":14668:14876   */\n      iszero\n      tag_296\n      jumpi\n        /* \"#utility.yul\":14761:14770   */\n      dup5\n        /* \"#utility.yul\":14756:14759   */\n      dup10\n        /* \"#utility.yul\":14752:14771   */\n      add\n        /* \"#utility.yul\":14746:14772   */\n      mload\n        /* \"#utility.yul\":14738:14744   */\n      dup3\n        /* \"#utility.yul\":14731:14773   */\n      sstore\n        /* \"#utility.yul\":14812:14813   */\n      0x01\n        /* \"#utility.yul\":14804:14810   */\n      dup3\n        /* \"#utility.yul\":14800:14814   */\n      add\n        /* \"#utility.yul\":14790:14814   */\n      swap2\n      pop\n        /* \"#utility.yul\":14859:14861   */\n      0x20\n        /* \"#utility.yul\":14848:14857   */\n      dup6\n        /* \"#utility.yul\":14844:14862   */\n      add\n        /* \"#utility.yul\":14831:14862   */\n      swap5\n      pop\n        /* \"#utility.yul\":14705:14709   */\n      0x20\n        /* \"#utility.yul\":14702:14703   */\n      dup2\n        /* \"#utility.yul\":14698:14710   */\n      add\n        /* \"#utility.yul\":14693:14710   */\n      swap1\n      pop\n        /* \"#utility.yul\":14668:14876   */\n      jump(tag_294)\n    tag_296:\n        /* \"#utility.yul\":14904:14910   */\n      dup7\n        /* \"#utility.yul\":14895:14902   */\n      dup4\n        /* \"#utility.yul\":14892:14911   */\n      lt\n        /* \"#utility.yul\":14889:15068   */\n      iszero\n      tag_297\n      jumpi\n        /* \"#utility.yul\":14962:14971   */\n      dup5\n        /* \"#utility.yul\":14957:14960   */\n      dup10\n        /* \"#utility.yul\":14953:14972   */\n      add\n        /* \"#utility.yul\":14947:14973   */\n      mload\n        /* \"#utility.yul\":15005:15053   */\n      tag_298\n        /* \"#utility.yul\":15047:15051   */\n      0x1f\n        /* \"#utility.yul\":15039:15045   */\n      dup10\n        /* \"#utility.yul\":15035:15052   */\n      and\n        /* \"#utility.yul\":15024:15033   */\n      dup3\n        /* \"#utility.yul\":15005:15053   */\n      tag_128\n      jump\t// in\n    tag_298:\n        /* \"#utility.yul\":14997:15003   */\n      dup4\n        /* \"#utility.yul\":14990:15054   */\n      sstore\n        /* \"#utility.yul\":14912:15068   */\n      pop\n        /* \"#utility.yul\":14889:15068   */\n    tag_297:\n        /* \"#utility.yul\":15114:15115   */\n      0x01\n        /* \"#utility.yul\":15110:15111   */\n      0x02\n        /* \"#utility.yul\":15102:15108   */\n      dup9\n        /* \"#utility.yul\":15098:15112   */\n      mul\n        /* \"#utility.yul\":15094:15116   */\n      add\n        /* \"#utility.yul\":15088:15092   */\n      dup9\n        /* \"#utility.yul\":15081:15117   */\n      sstore\n        /* \"#utility.yul\":14516:15127   */\n      pop\n      pop\n      pop\n        /* \"#utility.yul\":14479:15366   */\n    tag_289:\n      pop\n        /* \"#utility.yul\":14069:15372   */\n      pop\n      pop\n      pop\n        /* \"#utility.yul\":13977:15372   */\n      pop\n      pop\n      jump\t// out\n\n    auxdata: 0xa2646970667358221220fe8c321ad190042f49d85ccfc67c021e8c7b59c4e1644a706339ad4dfaaf384164736f6c63430008120033\n}\n",
				"bytecode": {
					"linkReferences": {},
					"object": "608060405234801561001057600080fd5b50610e28806100206000396000f3fe6080604052600436106100555760003560e01c806312065fe01461005a57806333519c8614610085578063a7251947146100b0578063b4fed977146100cc578063e8de958a1461010c578063f6e3fb0614610135575b600080fd5b34801561006657600080fd5b5061006f610173565b60405161007c9190610579565b60405180910390f35b34801561009157600080fd5b5061009a61017b565b6040516100a79190610579565b60405180910390f35b6100ca60048036038101906100c591906105d4565b610187565b005b3480156100d857600080fd5b506100f360048036038101906100ee9190610614565b61029b565b6040516101039493929190610712565b60405180910390f35b34801561011857600080fd5b50610133600480360381019061012e9190610893565b6103f4565b005b34801561014157600080fd5b5061015c60048036038101906101579190610614565b6104d4565b60405161016a9291906109c0565b60405180910390f35b600047905090565b60008080549050905090565b346000828154811061019c5761019b6109f0565b5b906000526020600020906004020160020154146101ee576040517f08c379a00000000000000000000000000000000000000000000000000000000081526004016101e590610a91565b60405180910390fd5b60016000838152602001908152602001600020600001819080600181540180825580915050600190039060005260206000200160009091909190915055600060016000848152602001908152602001600020600101540361026957346001600084815260200190815260200160002060010181905550610297565b3460016000848152602001908152602001600020600101600082825461028f9190610ae0565b925050819055505b5050565b60006060600080600085815481106102b6576102b56109f0565b5b906000526020600020906004020160000160009054906101000a900473ffffffffffffffffffffffffffffffffffffffff16600086815481106102fc576102fb6109f0565b5b906000526020600020906004020160010160008781548110610321576103206109f0565b5b90600052602060002090600402016002015460008881548110610347576103466109f0565b5b90600052602060002090600402016003015482805461036590610b43565b80601f016020809104026020016040519081016040528092919081815260200182805461039190610b43565b80156103de5780601f106103b3576101008083540402835291602001916103de565b820191906000526020600020905b8154815290600101906020018083116103c157829003601f168201915b5050505050925093509350935093509193509193565b600060405180608001604052803373ffffffffffffffffffffffffffffffffffffffff168152602001858152602001848152602001838152509050600081908060018154018082558091505060019003906000526020600020906004020160009091909190915060008201518160000160006101000a81548173ffffffffffffffffffffffffffffffffffffffff021916908373ffffffffffffffffffffffffffffffffffffffff16021790555060208201518160010190816104b79190610d20565b506040820151816002015560608201518160030155505050505050565b606060006001600084815260200190815260200160002060000160016000858152602001908152602001600020600101548180548060200260200160405190810160405280929190818152602001828054801561055057602002820191906000526020600020905b81548152602001906001019080831161053c575b5050505050915091509150915091565b6000819050919050565b61057381610560565b82525050565b600060208201905061058e600083018461056a565b92915050565b6000604051905090565b600080fd5b600080fd5b6105b181610560565b81146105bc57600080fd5b50565b6000813590506105ce816105a8565b92915050565b600080604083850312156105eb576105ea61059e565b5b60006105f9858286016105bf565b925050602061060a858286016105bf565b9150509250929050565b60006020828403121561062a5761062961059e565b5b6000610638848285016105bf565b91505092915050565b600073ffffffffffffffffffffffffffffffffffffffff82169050919050565b600061066c82610641565b9050919050565b61067c81610661565b82525050565b600081519050919050565b600082825260208201905092915050565b60005b838110156106bc5780820151818401526020810190506106a1565b60008484015250505050565b6000601f19601f8301169050919050565b60006106e482610682565b6106ee818561068d565b93506106fe81856020860161069e565b610707816106c8565b840191505092915050565b60006080820190506107276000830187610673565b818103602083015261073981866106d9565b9050610748604083018561056a565b610755606083018461056a565b95945050505050565b600080fd5b600080fd5b7f4e487b7100000000000000000000000000000000000000000000000000000000600052604160045260246000fd5b6107a0826106c8565b810181811067ffffffffffffffff821117156107bf576107be610768565b5b80604052505050565b60006107d2610594565b90506107de8282610797565b919050565b600067ffffffffffffffff8211156107fe576107fd610768565b5b610807826106c8565b9050602081019050919050565b82818337600083830152505050565b6000610836610831846107e3565b6107c8565b90508281526020810184848401111561085257610851610763565b5b61085d848285610814565b509392505050565b600082601f83011261087a5761087961075e565b5b813561088a848260208601610823565b91505092915050565b6000806000606084860312156108ac576108ab61059e565b5b600084013567ffffffffffffffff8111156108ca576108c96105a3565b5b6108d686828701610865565b93505060206108e7868287016105bf565b92505060406108f8868287016105bf565b9150509250925092565b600081519050919050565b600082825260208201905092915050565b6000819050602082019050919050565b61093781610560565b82525050565b6000610949838361092e565b60208301905092915050565b6000602082019050919050565b600061096d82610902565b610977818561090d565b93506109828361091e565b8060005b838110156109b357815161099a888261093d565b97506109a583610955565b925050600181019050610986565b5085935050505092915050565b600060408201905081810360008301526109da8185610962565b90506109e9602083018461056a565b9392505050565b7f4e487b7100000000000000000000000000000000000000000000000000000000600052603260045260246000fd5b7f50617961626c6520616d6f756e74206e6f74206571756c2070726f6a6563742060008201527f616d6f756e742e00000000000000000000000000000000000000000000000000602082015250565b6000610a7b60278361068d565b9150610a8682610a1f565b604082019050919050565b60006020820190508181036000830152610aaa81610a6e565b9050919050565b7f4e487b7100000000000000000000000000000000000000000000000000000000600052601160045260246000fd5b6000610aeb82610560565b9150610af683610560565b9250828201905080821115610b0e57610b0d610ab1565b5b92915050565b7f4e487b7100000000000000000000000000000000000000000000000000000000600052602260045260246000fd5b60006002820490506001821680610b5b57607f821691505b602082108103610b6e57610b6d610b14565b5b50919050565b60008190508160005260206000209050919050565b60006020601f8301049050919050565b600082821b905092915050565b600060088302610bd67fffffffffffffffffffffffffffffffffffffffffffffffffffffffffffffffff82610b99565b610be08683610b99565b95508019841693508086168417925050509392505050565b6000819050919050565b6000610c1d610c18610c1384610560565b610bf8565b610560565b9050919050565b6000819050919050565b610c3783610c02565b610c4b610c4382610c24565b848454610ba6565b825550505050565b600090565b610c60610c53565b610c6b818484610c2e565b505050565b5b81811015610c8f57610c84600082610c58565b600181019050610c71565b5050565b601f821115610cd457610ca581610b74565b610cae84610b89565b81016020851015610cbd578190505b610cd1610cc985610b89565b830182610c70565b50505b505050565b600082821c905092915050565b6000610cf760001984600802610cd9565b1980831691505092915050565b6000610d108383610ce6565b9150826002028217905092915050565b610d2982610682565b67ffffffffffffffff811115610d4257610d41610768565b5b610d4c8254610b43565b610d57828285610c93565b600060209050601f831160018114610d8a5760008415610d78578287015190505b610d828582610d04565b865550610dea565b601f198416610d9886610b74565b60005b82811015610dc057848901518255600182019150602085019450602081019050610d9b565b86831015610ddd5784890151610dd9601f891682610ce6565b8355505b6001600288020188555050505b50505050505056fea2646970667358221220fe8c321ad190042f49d85ccfc67c021e8c7b59c4e1644a706339ad4dfaaf384164736f6c63430008120033",
					"opcodes": "PUSH1 0x80 PUSH1 0x40 MSTORE CALLVALUE DUP1 ISZERO PUSH2 0x10 JUMPI PUSH1 0x0 DUP1 REVERT JUMPDEST POP PUSH2 0xE28 DUP1 PUSH2 0x20 PUSH1 0x0 CODECOPY PUSH1 0x0 RETURN INVALID PUSH1 0x80 PUSH1 0x40 MSTORE PUSH1 0x4 CALLDATASIZE LT PUSH2 0x55 JUMPI PUSH1 0x0 CALLDATALOAD PUSH1 0xE0 SHR DUP1 PUSH4 0x12065FE0 EQ PUSH2 0x5A JUMPI DUP1 PUSH4 0x33519C86 EQ PUSH2 0x85 JUMPI DUP1 PUSH4 0xA7251947 EQ PUSH2 0xB0 JUMPI DUP1 PUSH4 0xB4FED977 EQ PUSH2 0xCC JUMPI DUP1 PUSH4 0xE8DE958A EQ PUSH2 0x10C JUMPI DUP1 PUSH4 0xF6E3FB06 EQ PUSH2 0x135 JUMPI JUMPDEST PUSH1 0x0 DUP1 REVERT JUMPDEST CALLVALUE DUP1 ISZERO PUSH2 0x66 JUMPI PUSH1 0x0 DUP1 REVERT JUMPDEST POP PUSH2 0x6F PUSH2 0x173 JUMP JUMPDEST PUSH1 0x40 MLOAD PUSH2 0x7C SWAP2 SWAP1 PUSH2 0x579 JUMP JUMPDEST PUSH1 0x40 MLOAD DUP1 SWAP2 SUB SWAP1 RETURN JUMPDEST CALLVALUE DUP1 ISZERO PUSH2 0x91 JUMPI PUSH1 0x0 DUP1 REVERT JUMPDEST POP PUSH2 0x9A PUSH2 0x17B JUMP JUMPDEST PUSH1 0x40 MLOAD PUSH2 0xA7 SWAP2 SWAP1 PUSH2 0x579 JUMP JUMPDEST PUSH1 0x40 MLOAD DUP1 SWAP2 SUB SWAP1 RETURN JUMPDEST PUSH2 0xCA PUSH1 0x4 DUP1 CALLDATASIZE SUB DUP2 ADD SWAP1 PUSH2 0xC5 SWAP2 SWAP1 PUSH2 0x5D4 JUMP JUMPDEST PUSH2 0x187 JUMP JUMPDEST STOP JUMPDEST CALLVALUE DUP1 ISZERO PUSH2 0xD8 JUMPI PUSH1 0x0 DUP1 REVERT JUMPDEST POP PUSH2 0xF3 PUSH1 0x4 DUP1 CALLDATASIZE SUB DUP2 ADD SWAP1 PUSH2 0xEE SWAP2 SWAP1 PUSH2 0x614 JUMP JUMPDEST PUSH2 0x29B JUMP JUMPDEST PUSH1 0x40 MLOAD PUSH2 0x103 SWAP5 SWAP4 SWAP3 SWAP2 SWAP1 PUSH2 0x712 JUMP JUMPDEST PUSH1 0x40 MLOAD DUP1 SWAP2 SUB SWAP1 RETURN JUMPDEST CALLVALUE DUP1 ISZERO PUSH2 0x118 JUMPI PUSH1 0x0 DUP1 REVERT JUMPDEST POP PUSH2 0x133 PUSH1 0x4 DUP1 CALLDATASIZE SUB DUP2 ADD SWAP1 PUSH2 0x12E SWAP2 SWAP1 PUSH2 0x893 JUMP JUMPDEST PUSH2 0x3F4 JUMP JUMPDEST STOP JUMPDEST CALLVALUE DUP1 ISZERO PUSH2 0x141 JUMPI PUSH1 0x0 DUP1 REVERT JUMPDEST POP PUSH2 0x15C PUSH1 0x4 DUP1 CALLDATASIZE SUB DUP2 ADD SWAP1 PUSH2 0x157 SWAP2 SWAP1 PUSH2 0x614 JUMP JUMPDEST PUSH2 0x4D4 JUMP JUMPDEST PUSH1 0x40 MLOAD PUSH2 0x16A SWAP3 SWAP2 SWAP1 PUSH2 0x9C0 JUMP JUMPDEST PUSH1 0x40 MLOAD DUP1 SWAP2 SUB SWAP1 RETURN JUMPDEST PUSH1 0x0 SELFBALANCE SWAP1 POP SWAP1 JUMP JUMPDEST PUSH1 0x0 DUP1 DUP1 SLOAD SWAP1 POP SWAP1 POP SWAP1 JUMP JUMPDEST CALLVALUE PUSH1 0x0 DUP3 DUP2 SLOAD DUP2 LT PUSH2 0x19C JUMPI PUSH2 0x19B PUSH2 0x9F0 JUMP JUMPDEST JUMPDEST SWAP1 PUSH1 0x0 MSTORE PUSH1 0x20 PUSH1 0x0 KECCAK256 SWAP1 PUSH1 0x4 MUL ADD PUSH1 0x2 ADD SLOAD EQ PUSH2 0x1EE JUMPI PUSH1 0x40 MLOAD PUSH32 0x8C379A000000000000000000000000000000000000000000000000000000000 DUP2 MSTORE PUSH1 0x4 ADD PUSH2 0x1E5 SWAP1 PUSH2 0xA91 JUMP JUMPDEST PUSH1 0x40 MLOAD DUP1 SWAP2 SUB SWAP1 REVERT JUMPDEST PUSH1 0x1 PUSH1 0x0 DUP4 DUP2 MSTORE PUSH1 0x20 ADD SWAP1 DUP2 MSTORE PUSH1 0x20 ADD PUSH1 0x0 KECCAK256 PUSH1 0x0 ADD DUP2 SWAP1 DUP1 PUSH1 0x1 DUP2 SLOAD ADD DUP1 DUP3 SSTORE DUP1 SWAP2 POP POP PUSH1 0x1 SWAP1 SUB SWAP1 PUSH1 0x0 MSTORE PUSH1 0x20 PUSH1 0x0 KECCAK256 ADD PUSH1 0x0 SWAP1 SWAP2 SWAP1 SWAP2 SWAP1 SWAP2 POP SSTORE PUSH1 0x0 PUSH1 0x1 PUSH1 0x0 DUP5 DUP2 MSTORE PUSH1 0x20 ADD SWAP1 DUP2 MSTORE PUSH1 0x20 ADD PUSH1 0x0 KECCAK256 PUSH1 0x1 ADD SLOAD SUB PUSH2 0x269 JUMPI CALLVALUE PUSH1 0x1 PUSH1 0x0 DUP5 DUP2 MSTORE PUSH1 0x20 ADD SWAP1 DUP2 MSTORE PUSH1 0x20 ADD PUSH1 0x0 KECCAK256 PUSH1 0x1 ADD DUP2 SWAP1 SSTORE POP PUSH2 0x297 JUMP JUMPDEST CALLVALUE PUSH1 0x1 PUSH1 0x0 DUP5 DUP2 MSTORE PUSH1 0x20 ADD SWAP1 DUP2 MSTORE PUSH1 0x20 ADD PUSH1 0x0 KECCAK256 PUSH1 0x1 ADD PUSH1 0x0 DUP3 DUP3 SLOAD PUSH2 0x28F SWAP2 SWAP1 PUSH2 0xAE0 JUMP JUMPDEST SWAP3 POP POP DUP2 SWAP1 SSTORE POP JUMPDEST POP POP JUMP JUMPDEST PUSH1 0x0 PUSH1 0x60 PUSH1 0x0 DUP1 PUSH1 0x0 DUP6 DUP2 SLOAD DUP2 LT PUSH2 0x2B6 JUMPI PUSH2 0x2B5 PUSH2 0x9F0 JUMP JUMPDEST JUMPDEST SWAP1 PUSH1 0x0 MSTORE PUSH1 0x20 PUSH1 0x0 KECCAK256 SWAP1 PUSH1 0x4 MUL ADD PUSH1 0x0 ADD PUSH1 0x0 SWAP1 SLOAD SWAP1 PUSH2 0x100 EXP SWAP1 DIV PUSH20 0xFFFFFFFFFFFFFFFFFFFFFFFFFFFFFFFFFFFFFFFF AND PUSH1 0x0 DUP7 DUP2 SLOAD DUP2 LT PUSH2 0x2FC JUMPI PUSH2 0x2FB PUSH2 0x9F0 JUMP JUMPDEST JUMPDEST SWAP1 PUSH1 0x0 MSTORE PUSH1 0x20 PUSH1 0x0 KECCAK256 SWAP1 PUSH1 0x4 MUL ADD PUSH1 0x1 ADD PUSH1 0x0 DUP8 DUP2 SLOAD DUP2 LT PUSH2 0x321 JUMPI PUSH2 0x320 PUSH2 0x9F0 JUMP JUMPDEST JUMPDEST SWAP1 PUSH1 0x0 MSTORE PUSH1 0x20 PUSH1 0x0 KECCAK256 SWAP1 PUSH1 0x4 MUL ADD PUSH1 0x2 ADD SLOAD PUSH1 0x0 DUP9 DUP2 SLOAD DUP2 LT PUSH2 0x347 JUMPI PUSH2 0x346 PUSH2 0x9F0 JUMP JUMPDEST JUMPDEST SWAP1 PUSH1 0x0 MSTORE PUSH1 0x20 PUSH1 0x0 KECCAK256 SWAP1 PUSH1 0x4 MUL ADD PUSH1 0x3 ADD SLOAD DUP3 DUP1 SLOAD PUSH2 0x365 SWAP1 PUSH2 0xB43 JUMP JUMPDEST DUP1 PUSH1 0x1F ADD PUSH1 0x20 DUP1 SWAP2 DIV MUL PUSH1 0x20 ADD PUSH1 0x40 MLOAD SWAP1 DUP2 ADD PUSH1 0x40 MSTORE DUP1 SWAP3 SWAP2 SWAP1 DUP2 DUP2 MSTORE PUSH1 0x20 ADD DUP3 DUP1 SLOAD PUSH2 0x391 SWAP1 PUSH2 0xB43 JUMP JUMPDEST DUP1 ISZERO PUSH2 0x3DE JUMPI DUP1 PUSH1 0x1F LT PUSH2 0x3B3 JUMPI PUSH2 0x100 DUP1 DUP4 SLOAD DIV MUL DUP4 MSTORE SWAP2 PUSH1 0x20 ADD SWAP2 PUSH2 0x3DE JUMP JUMPDEST DUP3 ADD SWAP2 SWAP1 PUSH1 0x0 MSTORE PUSH1 0x20 PUSH1 0x0 KECCAK256 SWAP1 JUMPDEST DUP2 SLOAD DUP2 MSTORE SWAP1 PUSH1 0x1 ADD SWAP1 PUSH1 0x20 ADD DUP1 DUP4 GT PUSH2 0x3C1 JUMPI DUP3 SWAP1 SUB PUSH1 0x1F AND DUP3 ADD SWAP2 JUMPDEST POP POP POP POP POP SWAP3 POP SWAP4 POP SWAP4 POP SWAP4 POP SWAP4 POP SWAP2 SWAP4 POP SWAP2 SWAP4 JUMP JUMPDEST PUSH1 0x0 PUSH1 0x40 MLOAD DUP1 PUSH1 0x80 ADD PUSH1 0x40 MSTORE DUP1 CALLER PUSH20 0xFFFFFFFFFFFFFFFFFFFFFFFFFFFFFFFFFFFFFFFF AND DUP2 MSTORE PUSH1 0x20 ADD DUP6 DUP2 MSTORE PUSH1 0x20 ADD DUP5 DUP2 MSTORE PUSH1 0x20 ADD DUP4 DUP2 MSTORE POP SWAP1 POP PUSH1 0x0 DUP2 SWAP1 DUP1 PUSH1 0x1 DUP2 SLOAD ADD DUP1 DUP3 SSTORE DUP1 SWAP2 POP POP PUSH1 0x1 SWAP1 SUB SWAP1 PUSH1 0x0 MSTORE PUSH1 0x20 PUSH1 0x0 KECCAK256 SWAP1 PUSH1 0x4 MUL ADD PUSH1 0x0 SWAP1 SWAP2 SWAP1 SWAP2 SWAP1 SWAP2 POP PUSH1 0x0 DUP3 ADD MLOAD DUP2 PUSH1 0x0 ADD PUSH1 0x0 PUSH2 0x100 EXP DUP2 SLOAD DUP2 PUSH20 0xFFFFFFFFFFFFFFFFFFFFFFFFFFFFFFFFFFFFFFFF MUL NOT AND SWAP1 DUP4 PUSH20 0xFFFFFFFFFFFFFFFFFFFFFFFFFFFFFFFFFFFFFFFF AND MUL OR SWAP1 SSTORE POP PUSH1 0x20 DUP3 ADD MLOAD DUP2 PUSH1 0x1 ADD SWAP1 DUP2 PUSH2 0x4B7 SWAP2 SWAP1 PUSH2 0xD20 JUMP JUMPDEST POP PUSH1 0x40 DUP3 ADD MLOAD DUP2 PUSH1 0x2 ADD SSTORE PUSH1 0x60 DUP3 ADD MLOAD DUP2 PUSH1 0x3 ADD SSTORE POP POP POP POP POP POP JUMP JUMPDEST PUSH1 0x60 PUSH1 0x0 PUSH1 0x1 PUSH1 0x0 DUP5 DUP2 MSTORE PUSH1 0x20 ADD SWAP1 DUP2 MSTORE PUSH1 0x20 ADD PUSH1 0x0 KECCAK256 PUSH1 0x0 ADD PUSH1 0x1 PUSH1 0x0 DUP6 DUP2 MSTORE PUSH1 0x20 ADD SWAP1 DUP2 MSTORE PUSH1 0x20 ADD PUSH1 0x0 KECCAK256 PUSH1 0x1 ADD SLOAD DUP2 DUP1 SLOAD DUP1 PUSH1 0x20 MUL PUSH1 0x20 ADD PUSH1 0x40 MLOAD SWAP1 DUP2 ADD PUSH1 0x40 MSTORE DUP1 SWAP3 SWAP2 SWAP1 DUP2 DUP2 MSTORE PUSH1 0x20 ADD DUP3 DUP1 SLOAD DUP1 ISZERO PUSH2 0x550 JUMPI PUSH1 0x20 MUL DUP3 ADD SWAP2 SWAP1 PUSH1 0x0 MSTORE PUSH1 0x20 PUSH1 0x0 KECCAK256 SWAP1 JUMPDEST DUP2 SLOAD DUP2 MSTORE PUSH1 0x20 ADD SWAP1 PUSH1 0x1 ADD SWAP1 DUP1 DUP4 GT PUSH2 0x53C JUMPI JUMPDEST POP POP POP POP POP SWAP2 POP SWAP2 POP SWAP2 POP SWAP2 POP SWAP2 JUMP JUMPDEST PUSH1 0x0 DUP2 SWAP1 POP SWAP2 SWAP1 POP JUMP JUMPDEST PUSH2 0x573 DUP2 PUSH2 0x560 JUMP JUMPDEST DUP3 MSTORE POP POP JUMP JUMPDEST PUSH1 0x0 PUSH1 0x20 DUP3 ADD SWAP1 POP PUSH2 0x58E PUSH1 0x0 DUP4 ADD DUP5 PUSH2 0x56A JUMP JUMPDEST SWAP3 SWAP2 POP POP JUMP JUMPDEST PUSH1 0x0 PUSH1 0x40 MLOAD SWAP1 POP SWAP1 JUMP JUMPDEST PUSH1 0x0 DUP1 REVERT JUMPDEST PUSH1 0x0 DUP1 REVERT JUMPDEST PUSH2 0x5B1 DUP2 PUSH2 0x560 JUMP JUMPDEST DUP2 EQ PUSH2 0x5BC JUMPI PUSH1 0x0 DUP1 REVERT JUMPDEST POP JUMP JUMPDEST PUSH1 0x0 DUP2 CALLDATALOAD SWAP1 POP PUSH2 0x5CE DUP2 PUSH2 0x5A8 JUMP JUMPDEST SWAP3 SWAP2 POP POP JUMP JUMPDEST PUSH1 0x0 DUP1 PUSH1 0x40 DUP4 DUP6 SUB SLT ISZERO PUSH2 0x5EB JUMPI PUSH2 0x5EA PUSH2 0x59E JUMP JUMPDEST JUMPDEST PUSH1 0x0 PUSH2 0x5F9 DUP6 DUP3 DUP7 ADD PUSH2 0x5BF JUMP JUMPDEST SWAP3 POP POP PUSH1 0x20 PUSH2 0x60A DUP6 DUP3 DUP7 ADD PUSH2 0x5BF JUMP JUMPDEST SWAP2 POP POP SWAP3 POP SWAP3 SWAP1 POP JUMP JUMPDEST PUSH1 0x0 PUSH1 0x20 DUP3 DUP5 SUB SLT ISZERO PUSH2 0x62A JUMPI PUSH2 0x629 PUSH2 0x59E JUMP JUMPDEST JUMPDEST PUSH1 0x0 PUSH2 0x638 DUP5 DUP3 DUP6 ADD PUSH2 0x5BF JUMP JUMPDEST SWAP2 POP POP SWAP3 SWAP2 POP POP JUMP JUMPDEST PUSH1 0x0 PUSH20 0xFFFFFFFFFFFFFFFFFFFFFFFFFFFFFFFFFFFFFFFF DUP3 AND SWAP1 POP SWAP2 SWAP1 POP JUMP JUMPDEST PUSH1 0x0 PUSH2 0x66C DUP3 PUSH2 0x641 JUMP JUMPDEST SWAP1 POP SWAP2 SWAP1 POP JUMP JUMPDEST PUSH2 0x67C DUP2 PUSH2 0x661 JUMP JUMPDEST DUP3 MSTORE POP POP JUMP JUMPDEST PUSH1 0x0 DUP2 MLOAD SWAP1 POP SWAP2 SWAP1 POP JUMP JUMPDEST PUSH1 0x0 DUP3 DUP3 MSTORE PUSH1 0x20 DUP3 ADD SWAP1 POP SWAP3 SWAP2 POP POP JUMP JUMPDEST PUSH1 0x0 JUMPDEST DUP4 DUP2 LT ISZERO PUSH2 0x6BC JUMPI DUP1 DUP3 ADD MLOAD DUP2 DUP5 ADD MSTORE PUSH1 0x20 DUP2 ADD SWAP1 POP PUSH2 0x6A1 JUMP JUMPDEST PUSH1 0x0 DUP5 DUP5 ADD MSTORE POP POP POP POP JUMP JUMPDEST PUSH1 0x0 PUSH1 0x1F NOT PUSH1 0x1F DUP4 ADD AND SWAP1 POP SWAP2 SWAP1 POP JUMP JUMPDEST PUSH1 0x0 PUSH2 0x6E4 DUP3 PUSH2 0x682 JUMP JUMPDEST PUSH2 0x6EE DUP2 DUP6 PUSH2 0x68D JUMP JUMPDEST SWAP4 POP PUSH2 0x6FE DUP2 DUP6 PUSH1 0x20 DUP7 ADD PUSH2 0x69E JUMP JUMPDEST PUSH2 0x707 DUP2 PUSH2 0x6C8 JUMP JUMPDEST DUP5 ADD SWAP2 POP POP SWAP3 SWAP2 POP POP JUMP JUMPDEST PUSH1 0x0 PUSH1 0x80 DUP3 ADD SWAP1 POP PUSH2 0x727 PUSH1 0x0 DUP4 ADD DUP8 PUSH2 0x673 JUMP JUMPDEST DUP2 DUP2 SUB PUSH1 0x20 DUP4 ADD MSTORE PUSH2 0x739 DUP2 DUP7 PUSH2 0x6D9 JUMP JUMPDEST SWAP1 POP PUSH2 0x748 PUSH1 0x40 DUP4 ADD DUP6 PUSH2 0x56A JUMP JUMPDEST PUSH2 0x755 PUSH1 0x60 DUP4 ADD DUP5 PUSH2 0x56A JUMP JUMPDEST SWAP6 SWAP5 POP POP POP POP POP JUMP JUMPDEST PUSH1 0x0 DUP1 REVERT JUMPDEST PUSH1 0x0 DUP1 REVERT JUMPDEST PUSH32 0x4E487B7100000000000000000000000000000000000000000000000000000000 PUSH1 0x0 MSTORE PUSH1 0x41 PUSH1 0x4 MSTORE PUSH1 0x24 PUSH1 0x0 REVERT JUMPDEST PUSH2 0x7A0 DUP3 PUSH2 0x6C8 JUMP JUMPDEST DUP2 ADD DUP2 DUP2 LT PUSH8 0xFFFFFFFFFFFFFFFF DUP3 GT OR ISZERO PUSH2 0x7BF JUMPI PUSH2 0x7BE PUSH2 0x768 JUMP JUMPDEST JUMPDEST DUP1 PUSH1 0x40 MSTORE POP POP POP JUMP JUMPDEST PUSH1 0x0 PUSH2 0x7D2 PUSH2 0x594 JUMP JUMPDEST SWAP1 POP PUSH2 0x7DE DUP3 DUP3 PUSH2 0x797 JUMP JUMPDEST SWAP2 SWAP1 POP JUMP JUMPDEST PUSH1 0x0 PUSH8 0xFFFFFFFFFFFFFFFF DUP3 GT ISZERO PUSH2 0x7FE JUMPI PUSH2 0x7FD PUSH2 0x768 JUMP JUMPDEST JUMPDEST PUSH2 0x807 DUP3 PUSH2 0x6C8 JUMP JUMPDEST SWAP1 POP PUSH1 0x20 DUP2 ADD SWAP1 POP SWAP2 SWAP1 POP JUMP JUMPDEST DUP3 DUP2 DUP4 CALLDATACOPY PUSH1 0x0 DUP4 DUP4 ADD MSTORE POP POP POP JUMP JUMPDEST PUSH1 0x0 PUSH2 0x836 PUSH2 0x831 DUP5 PUSH2 0x7E3 JUMP JUMPDEST PUSH2 0x7C8 JUMP JUMPDEST SWAP1 POP DUP3 DUP2 MSTORE PUSH1 0x20 DUP2 ADD DUP5 DUP5 DUP5 ADD GT ISZERO PUSH2 0x852 JUMPI PUSH2 0x851 PUSH2 0x763 JUMP JUMPDEST JUMPDEST PUSH2 0x85D DUP5 DUP3 DUP6 PUSH2 0x814 JUMP JUMPDEST POP SWAP4 SWAP3 POP POP POP JUMP JUMPDEST PUSH1 0x0 DUP3 PUSH1 0x1F DUP4 ADD SLT PUSH2 0x87A JUMPI PUSH2 0x879 PUSH2 0x75E JUMP JUMPDEST JUMPDEST DUP2 CALLDATALOAD PUSH2 0x88A DUP5 DUP3 PUSH1 0x20 DUP7 ADD PUSH2 0x823 JUMP JUMPDEST SWAP2 POP POP SWAP3 SWAP2 POP POP JUMP JUMPDEST PUSH1 0x0 DUP1 PUSH1 0x0 PUSH1 0x60 DUP5 DUP7 SUB SLT ISZERO PUSH2 0x8AC JUMPI PUSH2 0x8AB PUSH2 0x59E JUMP JUMPDEST JUMPDEST PUSH1 0x0 DUP5 ADD CALLDATALOAD PUSH8 0xFFFFFFFFFFFFFFFF DUP2 GT ISZERO PUSH2 0x8CA JUMPI PUSH2 0x8C9 PUSH2 0x5A3 JUMP JUMPDEST JUMPDEST PUSH2 0x8D6 DUP7 DUP3 DUP8 ADD PUSH2 0x865 JUMP JUMPDEST SWAP4 POP POP PUSH1 0x20 PUSH2 0x8E7 DUP7 DUP3 DUP8 ADD PUSH2 0x5BF JUMP JUMPDEST SWAP3 POP POP PUSH1 0x40 PUSH2 0x8F8 DUP7 DUP3 DUP8 ADD PUSH2 0x5BF JUMP JUMPDEST SWAP2 POP POP SWAP3 POP SWAP3 POP SWAP3 JUMP JUMPDEST PUSH1 0x0 DUP2 MLOAD SWAP1 POP SWAP2 SWAP1 POP JUMP JUMPDEST PUSH1 0x0 DUP3 DUP3 MSTORE PUSH1 0x20 DUP3 ADD SWAP1 POP SWAP3 SWAP2 POP POP JUMP JUMPDEST PUSH1 0x0 DUP2 SWAP1 POP PUSH1 0x20 DUP3 ADD SWAP1 POP SWAP2 SWAP1 POP JUMP JUMPDEST PUSH2 0x937 DUP2 PUSH2 0x560 JUMP JUMPDEST DUP3 MSTORE POP POP JUMP JUMPDEST PUSH1 0x0 PUSH2 0x949 DUP4 DUP4 PUSH2 0x92E JUMP JUMPDEST PUSH1 0x20 DUP4 ADD SWAP1 POP SWAP3 SWAP2 POP POP JUMP JUMPDEST PUSH1 0x0 PUSH1 0x20 DUP3 ADD SWAP1 POP SWAP2 SWAP1 POP JUMP JUMPDEST PUSH1 0x0 PUSH2 0x96D DUP3 PUSH2 0x902 JUMP JUMPDEST PUSH2 0x977 DUP2 DUP6 PUSH2 0x90D JUMP JUMPDEST SWAP4 POP PUSH2 0x982 DUP4 PUSH2 0x91E JUMP JUMPDEST DUP1 PUSH1 0x0 JUMPDEST DUP4 DUP2 LT ISZERO PUSH2 0x9B3 JUMPI DUP2 MLOAD PUSH2 0x99A DUP9 DUP3 PUSH2 0x93D JUMP JUMPDEST SWAP8 POP PUSH2 0x9A5 DUP4 PUSH2 0x955 JUMP JUMPDEST SWAP3 POP POP PUSH1 0x1 DUP2 ADD SWAP1 POP PUSH2 0x986 JUMP JUMPDEST POP DUP6 SWAP4 POP POP POP POP SWAP3 SWAP2 POP POP JUMP JUMPDEST PUSH1 0x0 PUSH1 0x40 DUP3 ADD SWAP1 POP DUP2 DUP2 SUB PUSH1 0x0 DUP4 ADD MSTORE PUSH2 0x9DA DUP2 DUP6 PUSH2 0x962 JUMP JUMPDEST SWAP1 POP PUSH2 0x9E9 PUSH1 0x20 DUP4 ADD DUP5 PUSH2 0x56A JUMP JUMPDEST SWAP4 SWAP3 POP POP POP JUMP JUMPDEST PUSH32 0x4E487B7100000000000000000000000000000000000000000000000000000000 PUSH1 0x0 MSTORE PUSH1 0x32 PUSH1 0x4 MSTORE PUSH1 0x24 PUSH1 0x0 REVERT JUMPDEST PUSH32 0x50617961626C6520616D6F756E74206E6F74206571756C2070726F6A65637420 PUSH1 0x0 DUP3 ADD MSTORE PUSH32 0x616D6F756E742E00000000000000000000000000000000000000000000000000 PUSH1 0x20 DUP3 ADD MSTORE POP JUMP JUMPDEST PUSH1 0x0 PUSH2 0xA7B PUSH1 0x27 DUP4 PUSH2 0x68D JUMP JUMPDEST SWAP2 POP PUSH2 0xA86 DUP3 PUSH2 0xA1F JUMP JUMPDEST PUSH1 0x40 DUP3 ADD SWAP1 POP SWAP2 SWAP1 POP JUMP JUMPDEST PUSH1 0x0 PUSH1 0x20 DUP3 ADD SWAP1 POP DUP2 DUP2 SUB PUSH1 0x0 DUP4 ADD MSTORE PUSH2 0xAAA DUP2 PUSH2 0xA6E JUMP JUMPDEST SWAP1 POP SWAP2 SWAP1 POP JUMP JUMPDEST PUSH32 0x4E487B7100000000000000000000000000000000000000000000000000000000 PUSH1 0x0 MSTORE PUSH1 0x11 PUSH1 0x4 MSTORE PUSH1 0x24 PUSH1 0x0 REVERT JUMPDEST PUSH1 0x0 PUSH2 0xAEB DUP3 PUSH2 0x560 JUMP JUMPDEST SWAP2 POP PUSH2 0xAF6 DUP4 PUSH2 0x560 JUMP JUMPDEST SWAP3 POP DUP3 DUP3 ADD SWAP1 POP DUP1 DUP3 GT ISZERO PUSH2 0xB0E JUMPI PUSH2 0xB0D PUSH2 0xAB1 JUMP JUMPDEST JUMPDEST SWAP3 SWAP2 POP POP JUMP JUMPDEST PUSH32 0x4E487B7100000000000000000000000000000000000000000000000000000000 PUSH1 0x0 MSTORE PUSH1 0x22 PUSH1 0x4 MSTORE PUSH1 0x24 PUSH1 0x0 REVERT JUMPDEST PUSH1 0x0 PUSH1 0x2 DUP3 DIV SWAP1 POP PUSH1 0x1 DUP3 AND DUP1 PUSH2 0xB5B JUMPI PUSH1 0x7F DUP3 AND SWAP2 POP JUMPDEST PUSH1 0x20 DUP3 LT DUP2 SUB PUSH2 0xB6E JUMPI PUSH2 0xB6D PUSH2 0xB14 JUMP JUMPDEST JUMPDEST POP SWAP2 SWAP1 POP JUMP JUMPDEST PUSH1 0x0 DUP2 SWAP1 POP DUP2 PUSH1 0x0 MSTORE PUSH1 0x20 PUSH1 0x0 KECCAK256 SWAP1 POP SWAP2 SWAP1 POP JUMP JUMPDEST PUSH1 0x0 PUSH1 0x20 PUSH1 0x1F DUP4 ADD DIV SWAP1 POP SWAP2 SWAP1 POP JUMP JUMPDEST PUSH1 0x0 DUP3 DUP3 SHL SWAP1 POP SWAP3 SWAP2 POP POP JUMP JUMPDEST PUSH1 0x0 PUSH1 0x8 DUP4 MUL PUSH2 0xBD6 PUSH32 0xFFFFFFFFFFFFFFFFFFFFFFFFFFFFFFFFFFFFFFFFFFFFFFFFFFFFFFFFFFFFFFFF DUP3 PUSH2 0xB99 JUMP JUMPDEST PUSH2 0xBE0 DUP7 DUP4 PUSH2 0xB99 JUMP JUMPDEST SWAP6 POP DUP1 NOT DUP5 AND SWAP4 POP DUP1 DUP7 AND DUP5 OR SWAP3 POP POP POP SWAP4 SWAP3 POP POP POP JUMP JUMPDEST PUSH1 0x0 DUP2 SWAP1 POP SWAP2 SWAP1 POP JUMP JUMPDEST PUSH1 0x0 PUSH2 0xC1D PUSH2 0xC18 PUSH2 0xC13 DUP5 PUSH2 0x560 JUMP JUMPDEST PUSH2 0xBF8 JUMP JUMPDEST PUSH2 0x560 JUMP JUMPDEST SWAP1 POP SWAP2 SWAP1 POP JUMP JUMPDEST PUSH1 0x0 DUP2 SWAP1 POP SWAP2 SWAP1 POP JUMP JUMPDEST PUSH2 0xC37 DUP4 PUSH2 0xC02 JUMP JUMPDEST PUSH2 0xC4B PUSH2 0xC43 DUP3 PUSH2 0xC24 JUMP JUMPDEST DUP5 DUP5 SLOAD PUSH2 0xBA6 JUMP JUMPDEST DUP3 SSTORE POP POP POP POP JUMP JUMPDEST PUSH1 0x0 SWAP1 JUMP JUMPDEST PUSH2 0xC60 PUSH2 0xC53 JUMP JUMPDEST PUSH2 0xC6B DUP2 DUP5 DUP5 PUSH2 0xC2E JUMP JUMPDEST POP POP POP JUMP JUMPDEST JUMPDEST DUP2 DUP2 LT ISZERO PUSH2 0xC8F JUMPI PUSH2 0xC84 PUSH1 0x0 DUP3 PUSH2 0xC58 JUMP JUMPDEST PUSH1 0x1 DUP2 ADD SWAP1 POP PUSH2 0xC71 JUMP JUMPDEST POP POP JUMP JUMPDEST PUSH1 0x1F DUP3 GT ISZERO PUSH2 0xCD4 JUMPI PUSH2 0xCA5 DUP2 PUSH2 0xB74 JUMP JUMPDEST PUSH2 0xCAE DUP5 PUSH2 0xB89 JUMP JUMPDEST DUP2 ADD PUSH1 0x20 DUP6 LT ISZERO PUSH2 0xCBD JUMPI DUP2 SWAP1 POP JUMPDEST PUSH2 0xCD1 PUSH2 0xCC9 DUP6 PUSH2 0xB89 JUMP JUMPDEST DUP4 ADD DUP3 PUSH2 0xC70 JUMP JUMPDEST POP POP JUMPDEST POP POP POP JUMP JUMPDEST PUSH1 0x0 DUP3 DUP3 SHR SWAP1 POP SWAP3 SWAP2 POP POP JUMP JUMPDEST PUSH1 0x0 PUSH2 0xCF7 PUSH1 0x0 NOT DUP5 PUSH1 0x8 MUL PUSH2 0xCD9 JUMP JUMPDEST NOT DUP1 DUP4 AND SWAP2 POP POP SWAP3 SWAP2 POP POP JUMP JUMPDEST PUSH1 0x0 PUSH2 0xD10 DUP4 DUP4 PUSH2 0xCE6 JUMP JUMPDEST SWAP2 POP DUP3 PUSH1 0x2 MUL DUP3 OR SWAP1 POP SWAP3 SWAP2 POP POP JUMP JUMPDEST PUSH2 0xD29 DUP3 PUSH2 0x682 JUMP JUMPDEST PUSH8 0xFFFFFFFFFFFFFFFF DUP2 GT ISZERO PUSH2 0xD42 JUMPI PUSH2 0xD41 PUSH2 0x768 JUMP JUMPDEST JUMPDEST PUSH2 0xD4C DUP3 SLOAD PUSH2 0xB43 JUMP JUMPDEST PUSH2 0xD57 DUP3 DUP3 DUP6 PUSH2 0xC93 JUMP JUMPDEST PUSH1 0x0 PUSH1 0x20 SWAP1 POP PUSH1 0x1F DUP4 GT PUSH1 0x1 DUP2 EQ PUSH2 0xD8A JUMPI PUSH1 0x0 DUP5 ISZERO PUSH2 0xD78 JUMPI DUP3 DUP8 ADD MLOAD SWAP1 POP JUMPDEST PUSH2 0xD82 DUP6 DUP3 PUSH2 0xD04 JUMP JUMPDEST DUP7 SSTORE POP PUSH2 0xDEA JUMP JUMPDEST PUSH1 0x1F NOT DUP5 AND PUSH2 0xD98 DUP7 PUSH2 0xB74 JUMP JUMPDEST PUSH1 0x0 JUMPDEST DUP3 DUP2 LT ISZERO PUSH2 0xDC0 JUMPI DUP5 DUP10 ADD MLOAD DUP3 SSTORE PUSH1 0x1 DUP3 ADD SWAP2 POP PUSH1 0x20 DUP6 ADD SWAP5 POP PUSH1 0x20 DUP2 ADD SWAP1 POP PUSH2 0xD9B JUMP JUMPDEST DUP7 DUP4 LT ISZERO PUSH2 0xDDD JUMPI DUP5 DUP10 ADD MLOAD PUSH2 0xDD9 PUSH1 0x1F DUP10 AND DUP3 PUSH2 0xCE6 JUMP JUMPDEST DUP4 SSTORE POP JUMPDEST PUSH1 0x1 PUSH1 0x2 DUP9 MUL ADD DUP9 SSTORE POP POP POP JUMPDEST POP POP POP POP POP POP JUMP INVALID LOG2 PUSH5 0x6970667358 0x22 SLT KECCAK256 INVALID DUP13 ORIGIN BYTE 0xD1 SWAP1 DIV 0x2F 0x49 0xD8 0x5C 0xCF 0xC6 PUSH29 0x21E8C7B59C4E1644A706339AD4DFAAF384164736F6C63430008120033 "
				},
				"gasEstimates": {
					"creation": {
						"codeDepositCost": "724800",
						"executionCost": "760",
						"totalCost": "725560"
					},
					"external": {
						"TotalProjetc()": "2445",
						"client(string,uint256,uint256)": "infinite",
						"freelancer(uint256,uint256)": "infinite",
						"getBalance()": "317",
						"getClicent(uint256)": "infinite",
						"getFreelancer(uint256)": "infinite"
					}
				},
				"methodIdentifiers": {
					"TotalProjetc()": "33519c86",
					"client(string,uint256,uint256)": "e8de958a",
					"freelancer(uint256,uint256)": "a7251947",
					"getBalance()": "12065fe0",
					"getClicent(uint256)": "b4fed977",
					"getFreelancer(uint256)": "f6e3fb06"
				}
			},
			"storageLayout": {
				"storage": [
					{
						"astId": 25,
						"contract": "contracts/freelancing.sol:freelancing",
						"label": "clicents",
						"offset": 0,
						"slot": "0",
						"type": "t_array(t_struct(clientInfo)15_storage)dyn_storage"
					},
					{
						"astId": 30,
						"contract": "contracts/freelancing.sol:freelancing",
						"label": "user",
						"offset": 0,
						"slot": "1",
						"type": "t_mapping(t_uint256,t_struct(freelancerInfo)21_storage)"
					}
				],
				"types": {
					"t_address": {
						"encoding": "inplace",
						"label": "address",
						"numberOfBytes": "20"
					},
					"t_array(t_struct(clientInfo)15_storage)dyn_storage": {
						"base": "t_struct(clientInfo)15_storage",
						"encoding": "dynamic_array",
						"label": "struct freelancing.clientInfo[]",
						"numberOfBytes": "32"
					},
					"t_array(t_uint256)dyn_storage": {
						"base": "t_uint256",
						"encoding": "dynamic_array",
						"label": "uint256[]",
						"numberOfBytes": "32"
					},
					"t_mapping(t_uint256,t_struct(freelancerInfo)21_storage)": {
						"encoding": "mapping",
						"key": "t_uint256",
						"label": "mapping(uint256 => struct freelancing.freelancerInfo)",
						"numberOfBytes": "32",
						"value": "t_struct(freelancerInfo)21_storage"
					},
					"t_string_storage": {
						"encoding": "bytes",
						"label": "string",
						"numberOfBytes": "32"
					},
					"t_struct(clientInfo)15_storage": {
						"encoding": "inplace",
						"label": "struct freelancing.clientInfo",
						"members": [
							{
								"astId": 8,
								"contract": "contracts/freelancing.sol:freelancing",
								"label": "p_id",
								"offset": 0,
								"slot": "0",
								"type": "t_address"
							},
							{
								"astId": 10,
								"contract": "contracts/freelancing.sol:freelancing",
								"label": "project",
								"offset": 0,
								"slot": "1",
								"type": "t_string_storage"
							},
							{
								"astId": 12,
								"contract": "contracts/freelancing.sol:freelancing",
								"label": "p_amt",
								"offset": 0,
								"slot": "2",
								"type": "t_uint256"
							},
							{
								"astId": 14,
								"contract": "contracts/freelancing.sol:freelancing",
								"label": "time_limit",
								"offset": 0,
								"slot": "3",
								"type": "t_uint256"
							}
						],
						"numberOfBytes": "128"
					},
					"t_struct(freelancerInfo)21_storage": {
						"encoding": "inplace",
						"label": "struct freelancing.freelancerInfo",
						"members": [
							{
								"astId": 18,
								"contract": "contracts/freelancing.sol:freelancing",
								"label": "pro_id",
								"offset": 0,
								"slot": "0",
								"type": "t_array(t_uint256)dyn_storage"
							},
							{
								"astId": 20,
								"contract": "contracts/freelancing.sol:freelancing",
								"label": "pro_amt",
								"offset": 0,
								"slot": "1",
								"type": "t_uint256"
							}
						],
						"numberOfBytes": "64"
					},
					"t_uint256": {
						"encoding": "inplace",
						"label": "uint256",
						"numberOfBytes": "32"
					}
				}
			},
			"userdoc": {
				"kind": "user",
				"methods": {},
				"version": 1
			}
		}
	}
}