{
	"contracts/bike_rent.sol": {
		"bikeRentel": {
			"abi": [
				{
					"inputs": [],
					"stateMutability": "nonpayable",
					"type": "constructor"
				},
				{
					"inputs": [
						{
							"internalType": "string",
							"name": "Bike_Name",
							"type": "string"
						},
						{
							"internalType": "uint256",
							"name": "Bike_No",
							"type": "uint256"
						}
					],
					"name": "AddBike",
					"outputs": [],
					"stateMutability": "nonpayable",
					"type": "function"
				},
				{
					"inputs": [
						{
							"internalType": "string",
							"name": "First_Name",
							"type": "string"
						},
						{
							"internalType": "string",
							"name": "Last_Name",
							"type": "string"
						}
					],
					"name": "AddRenter",
					"outputs": [],
					"stateMutability": "payable",
					"type": "function"
				},
				{
					"inputs": [
						{
							"internalType": "address",
							"name": "r_add",
							"type": "address"
						},
						{
							"internalType": "uint256",
							"name": "b_id",
							"type": "uint256"
						},
						{
							"internalType": "uint256",
							"name": "s_ride",
							"type": "uint256"
						},
						{
							"internalType": "uint256",
							"name": "e_ride",
							"type": "uint256"
						}
					],
					"name": "BookRide",
					"outputs": [],
					"stateMutability": "nonpayable",
					"type": "function"
				},
				{
					"inputs": [
						{
							"internalType": "address",
							"name": "renter_add",
							"type": "address"
						},
						{
							"internalType": "uint256",
							"name": "bike_id",
							"type": "uint256"
						},
						{
							"internalType": "uint256",
							"name": "s_ride",
							"type": "uint256"
						}
					],
					"name": "CheckIn",
					"outputs": [],
					"stateMutability": "nonpayable",
					"type": "function"
				},
				{
					"inputs": [
						{
							"internalType": "address",
							"name": "renter_add",
							"type": "address"
						},
						{
							"internalType": "uint256",
							"name": "bike_id",
							"type": "uint256"
						},
						{
							"internalType": "uint256",
							"name": "e_ride",
							"type": "uint256"
						}
					],
					"name": "CheckOut",
					"outputs": [],
					"stateMutability": "nonpayable",
					"type": "function"
				},
				{
					"inputs": [],
					"name": "GetBalance",
					"outputs": [
						{
							"internalType": "uint256",
							"name": "",
							"type": "uint256"
						}
					],
					"stateMutability": "view",
					"type": "function"
				},
				{
					"inputs": [
						{
							"internalType": "uint256",
							"name": "bike_",
							"type": "uint256"
						}
					],
					"name": "GetBike",
					"outputs": [
						{
							"internalType": "string",
							"name": "",
							"type": "string"
						},
						{
							"internalType": "uint256",
							"name": "",
							"type": "uint256"
						},
						{
							"internalType": "uint256",
							"name": "",
							"type": "uint256"
						},
						{
							"internalType": "enum bikeRentel.BikeStatus",
							"name": "",
							"type": "uint8"
						}
					],
					"stateMutability": "view",
					"type": "function"
				},
				{
					"inputs": [
						{
							"internalType": "address",
							"name": "r_address",
							"type": "address"
						}
					],
					"name": "GetRenter",
					"outputs": [
						{
							"internalType": "address",
							"name": "",
							"type": "address"
						},
						{
							"internalType": "string",
							"name": "",
							"type": "string"
						},
						{
							"internalType": "uint256",
							"name": "",
							"type": "uint256"
						},
						{
							"internalType": "uint256",
							"name": "",
							"type": "uint256"
						},
						{
							"internalType": "uint256",
							"name": "",
							"type": "uint256"
						},
						{
							"internalType": "uint256",
							"name": "",
							"type": "uint256"
						},
						{
							"internalType": "uint256",
							"name": "",
							"type": "uint256"
						}
					],
					"stateMutability": "view",
					"type": "function"
				},
				{
					"inputs": [
						{
							"internalType": "address",
							"name": "renter_add",
							"type": "address"
						}
					],
					"name": "GetRenterBalance",
					"outputs": [
						{
							"internalType": "uint256",
							"name": "",
							"type": "uint256"
						}
					],
					"stateMutability": "view",
					"type": "function"
				},
				{
					"inputs": [
						{
							"internalType": "address",
							"name": "renter_add",
							"type": "address"
						}
					],
					"name": "TimeDuration",
					"outputs": [
						{
							"internalType": "uint256",
							"name": "",
							"type": "uint256"
						}
					],
					"stateMutability": "view",
					"type": "function"
				}
			],
			"devdoc": {
				"kind": "dev",
				"methods": {},
				"version": 1
			},
			"evm": {
				"assembly": "    /* \"contracts/bike_rent.sol\":72:3781  contract bikeRentel {... */\n  mstore(0x40, 0x80)\n    /* \"contracts/bike_rent.sol\":119:168  constructor() {... */\n  callvalue\n  dup1\n  iszero\n  tag_1\n  jumpi\n  0x00\n  dup1\n  revert\ntag_1:\n  pop\n    /* \"contracts/bike_rent.sol\":151:161  msg.sender */\n  caller\n    /* \"contracts/bike_rent.sol\":143:148  admin */\n  0x00\n  dup1\n    /* \"contracts/bike_rent.sol\":143:161  admin = msg.sender */\n  0x0100\n  exp\n  dup2\n  sload\n  dup2\n  0xffffffffffffffffffffffffffffffffffffffff\n  mul\n  not\n  and\n  swap1\n  dup4\n  0xffffffffffffffffffffffffffffffffffffffff\n  and\n  mul\n  or\n  swap1\n  sstore\n  pop\n    /* \"contracts/bike_rent.sol\":72:3781  contract bikeRentel {... */\n  dataSize(sub_0)\n  dup1\n  dataOffset(sub_0)\n  0x00\n  codecopy\n  0x00\n  return\nstop\n\nsub_0: assembly {\n        /* \"contracts/bike_rent.sol\":72:3781  contract bikeRentel {... */\n      mstore(0x40, 0x80)\n      jumpi(tag_1, lt(calldatasize, 0x04))\n      shr(0xe0, calldataload(0x00))\n      dup1\n      0xa2a18f4d\n      gt\n      tag_12\n      jumpi\n      dup1\n      0xa2a18f4d\n      eq\n      tag_7\n      jumpi\n      dup1\n      0xb958b25b\n      eq\n      tag_8\n      jumpi\n      dup1\n      0xb9cfea47\n      eq\n      tag_9\n      jumpi\n      dup1\n      0xf1183c82\n      eq\n      tag_10\n      jumpi\n      dup1\n      0xf8f8a912\n      eq\n      tag_11\n      jumpi\n      jump(tag_1)\n    tag_12:\n      dup1\n      0x817f5e\n      eq\n      tag_2\n      jumpi\n      dup1\n      0x39d1b3ad\n      eq\n      tag_3\n      jumpi\n      dup1\n      0x52cc0e4f\n      eq\n      tag_4\n      jumpi\n      dup1\n      0x60c3dee3\n      eq\n      tag_5\n      jumpi\n      dup1\n      0x76dbe858\n      eq\n      tag_6\n      jumpi\n    tag_1:\n      0x00\n      dup1\n      revert\n        /* \"contracts/bike_rent.sol\":2838:3074  function CheckOut(address renter_add, uint bike_id, uint e_ride) public {... */\n    tag_2:\n      callvalue\n      dup1\n      iszero\n      tag_13\n      jumpi\n      0x00\n      dup1\n      revert\n    tag_13:\n      pop\n      tag_14\n      0x04\n      dup1\n      calldatasize\n      sub\n      dup2\n      add\n      swap1\n      tag_15\n      swap2\n      swap1\n      tag_16\n      jump\t// in\n    tag_15:\n      tag_17\n      jump\t// in\n    tag_14:\n      stop\n        /* \"contracts/bike_rent.sol\":604:969  function AddRenter(string memory First_Name, string memory Last_Name) public payable {... */\n    tag_3:\n      tag_18\n      0x04\n      dup1\n      calldatasize\n      sub\n      dup2\n      add\n      swap1\n      tag_19\n      swap2\n      swap1\n      tag_20\n      jump\t// in\n    tag_19:\n      tag_21\n      jump\t// in\n    tag_18:\n      stop\n        /* \"contracts/bike_rent.sol\":2088:2284  function GetRenterBalance(address renter_add) public view returns(uint) {... */\n    tag_4:\n      callvalue\n      dup1\n      iszero\n      tag_22\n      jumpi\n      0x00\n      dup1\n      revert\n    tag_22:\n      pop\n      tag_23\n      0x04\n      dup1\n      calldatasize\n      sub\n      dup2\n      add\n      swap1\n      tag_24\n      swap2\n      swap1\n      tag_25\n      jump\t// in\n    tag_24:\n      tag_26\n      jump\t// in\n    tag_23:\n      mload(0x40)\n      tag_27\n      swap2\n      swap1\n      tag_28\n      jump\t// in\n    tag_27:\n      mload(0x40)\n      dup1\n      swap2\n      sub\n      swap1\n      return\n        /* \"contracts/bike_rent.sol\":975:1409  function GetRenter(address r_address) public view returns(address, string memory, uint, uint, uint, uint, uint) {... */\n    tag_5:\n      callvalue\n      dup1\n      iszero\n      tag_29\n      jumpi\n      0x00\n      dup1\n      revert\n    tag_29:\n      pop\n      tag_30\n      0x04\n      dup1\n      calldatasize\n      sub\n      dup2\n      add\n      swap1\n      tag_31\n      swap2\n      swap1\n      tag_25\n      jump\t// in\n    tag_31:\n      tag_32\n      jump\t// in\n    tag_30:\n      mload(0x40)\n      tag_33\n      swap8\n      swap7\n      swap6\n      swap5\n      swap4\n      swap3\n      swap2\n      swap1\n      tag_34\n      jump\t// in\n    tag_33:\n      mload(0x40)\n      dup1\n      swap2\n      sub\n      swap1\n      return\n        /* \"contracts/bike_rent.sol\":3080:3778  function BookRide(address r_add, uint b_id, uint s_ride, uint e_ride) public {... */\n    tag_6:\n      callvalue\n      dup1\n      iszero\n      tag_35\n      jumpi\n      0x00\n      dup1\n      revert\n    tag_35:\n      pop\n      tag_36\n      0x04\n      dup1\n      calldatasize\n      sub\n      dup2\n      add\n      swap1\n      tag_37\n      swap2\n      swap1\n      tag_38\n      jump\t// in\n    tag_37:\n      tag_39\n      jump\t// in\n    tag_36:\n      stop\n        /* \"contracts/bike_rent.sol\":1668:1913  function GetBike(uint bike_) public view returns(string memory, uint, uint, BikeStatus) {... */\n    tag_7:\n      callvalue\n      dup1\n      iszero\n      tag_40\n      jumpi\n      0x00\n      dup1\n      revert\n    tag_40:\n      pop\n      tag_41\n      0x04\n      dup1\n      calldatasize\n      sub\n      dup2\n      add\n      swap1\n      tag_42\n      swap2\n      swap1\n      tag_43\n      jump\t// in\n    tag_42:\n      tag_44\n      jump\t// in\n    tag_41:\n      mload(0x40)\n      tag_45\n      swap5\n      swap4\n      swap3\n      swap2\n      swap1\n      tag_46\n      jump\t// in\n    tag_45:\n      mload(0x40)\n      dup1\n      swap2\n      sub\n      swap1\n      return\n        /* \"contracts/bike_rent.sol\":2290:2591  function TimeDuration(address renter_add) public view returns (uint) {... */\n    tag_8:\n      callvalue\n      dup1\n      iszero\n      tag_47\n      jumpi\n      0x00\n      dup1\n      revert\n    tag_47:\n      pop\n      tag_48\n      0x04\n      dup1\n      calldatasize\n      sub\n      dup2\n      add\n      swap1\n      tag_49\n      swap2\n      swap1\n      tag_25\n      jump\t// in\n    tag_49:\n      tag_50\n      jump\t// in\n    tag_48:\n      mload(0x40)\n      tag_51\n      swap2\n      swap1\n      tag_28\n      jump\t// in\n    tag_51:\n      mload(0x40)\n      dup1\n      swap2\n      sub\n      swap1\n      return\n        /* \"contracts/bike_rent.sol\":2597:2832  function CheckIn(address renter_add, uint bike_id, uint s_ride) public {... */\n    tag_9:\n      callvalue\n      dup1\n      iszero\n      tag_52\n      jumpi\n      0x00\n      dup1\n      revert\n    tag_52:\n      pop\n      tag_53\n      0x04\n      dup1\n      calldatasize\n      sub\n      dup2\n      add\n      swap1\n      tag_54\n      swap2\n      swap1\n      tag_16\n      jump\t// in\n    tag_54:\n      tag_55\n      jump\t// in\n    tag_53:\n      stop\n        /* \"contracts/bike_rent.sol\":1415:1662  function AddBike(string memory Bike_Name, uint Bike_No) public {... */\n    tag_10:\n      callvalue\n      dup1\n      iszero\n      tag_56\n      jumpi\n      0x00\n      dup1\n      revert\n    tag_56:\n      pop\n      tag_57\n      0x04\n      dup1\n      calldatasize\n      sub\n      dup2\n      add\n      swap1\n      tag_58\n      swap2\n      swap1\n      tag_59\n      jump\t// in\n    tag_58:\n      tag_60\n      jump\t// in\n    tag_57:\n      stop\n        /* \"contracts/bike_rent.sol\":1919:2082  function GetBalance() public view returns(uint) {... */\n    tag_11:\n      callvalue\n      dup1\n      iszero\n      tag_61\n      jumpi\n      0x00\n      dup1\n      revert\n    tag_61:\n      pop\n      tag_62\n      tag_63\n      jump\t// in\n    tag_62:\n      mload(0x40)\n      tag_64\n      swap2\n      swap1\n      tag_28\n      jump\t// in\n    tag_64:\n      mload(0x40)\n      dup1\n      swap2\n      sub\n      swap1\n      return\n        /* \"contracts/bike_rent.sol\":2838:3074  function CheckOut(address renter_add, uint bike_id, uint e_ride) public {... */\n    tag_17:\n        /* \"contracts/bike_rent.sol\":2963:2969  e_ride */\n      dup1\n        /* \"contracts/bike_rent.sol\":2928:2938  renterInfo */\n      0x02\n        /* \"contracts/bike_rent.sol\":2928:2950  renterInfo[renter_add] */\n      0x00\n        /* \"contracts/bike_rent.sol\":2939:2949  renter_add */\n      dup6\n        /* \"contracts/bike_rent.sol\":2928:2950  renterInfo[renter_add] */\n      0xffffffffffffffffffffffffffffffffffffffff\n      and\n      0xffffffffffffffffffffffffffffffffffffffff\n      and\n      dup2\n      mstore\n      0x20\n      add\n      swap1\n      dup2\n      mstore\n      0x20\n      add\n      0x00\n      keccak256\n        /* \"contracts/bike_rent.sol\":2928:2959  renterInfo[renter_add].ride_end */\n      0x07\n      add\n      sload\n        /* \"contracts/bike_rent.sol\":2928:2969  renterInfo[renter_add].ride_end == e_ride */\n      eq\n        /* \"contracts/bike_rent.sol\":2920:3012  require(renterInfo[renter_add].ride_end == e_ride, \"Bike is not avilable for this duration\") */\n      tag_66\n      jumpi\n      mload(0x40)\n      0x08c379a000000000000000000000000000000000000000000000000000000000\n      dup2\n      mstore\n      0x04\n      add\n      tag_67\n      swap1\n      tag_68\n      jump\t// in\n    tag_67:\n      mload(0x40)\n      dup1\n      swap2\n      sub\n      swap1\n      revert\n    tag_66:\n        /* \"contracts/bike_rent.sol\":3048:3067  BikeStatus.avilable */\n      0x00\n        /* \"contracts/bike_rent.sol\":3022:3027  bikes */\n      0x01\n        /* \"contracts/bike_rent.sol\":3028:3035  bike_id */\n      dup4\n        /* \"contracts/bike_rent.sol\":3022:3036  bikes[bike_id] */\n      dup2\n      sload\n      dup2\n      lt\n      tag_69\n      jumpi\n      tag_70\n      tag_71\n      jump\t// in\n    tag_70:\n    tag_69:\n      swap1\n      0x00\n      mstore\n      keccak256(0x00, 0x20)\n      swap1\n      0x04\n      mul\n      add\n        /* \"contracts/bike_rent.sol\":3022:3045  bikes[bike_id].b_status */\n      0x03\n      add\n      0x00\n        /* \"contracts/bike_rent.sol\":3022:3067  bikes[bike_id].b_status = BikeStatus.avilable */\n      0x0100\n      exp\n      dup2\n      sload\n      dup2\n      0xff\n      mul\n      not\n      and\n      swap1\n      dup4\n      0x01\n      dup2\n      gt\n      iszero\n      tag_73\n      jumpi\n      tag_74\n      tag_75\n      jump\t// in\n    tag_74:\n    tag_73:\n      mul\n      or\n      swap1\n      sstore\n      pop\n        /* \"contracts/bike_rent.sol\":2838:3074  function CheckOut(address renter_add, uint bike_id, uint e_ride) public {... */\n      pop\n      pop\n      pop\n      jump\t// out\n        /* \"contracts/bike_rent.sol\":604:969  function AddRenter(string memory First_Name, string memory Last_Name) public payable {... */\n    tag_21:\n        /* \"contracts/bike_rent.sol\":720:723  200 */\n      0xc8\n        /* \"contracts/bike_rent.sol\":707:716  msg.value */\n      callvalue\n        /* \"contracts/bike_rent.sol\":707:723  msg.value == 200 */\n      eq\n        /* \"contracts/bike_rent.sol\":699:752  require(msg.value == 200, \"Please pay 200 deposite.\") */\n      tag_77\n      jumpi\n      mload(0x40)\n      0x08c379a000000000000000000000000000000000000000000000000000000000\n      dup2\n      mstore\n      0x04\n      add\n      tag_78\n      swap1\n      tag_79\n      jump\t// in\n    tag_78:\n      mload(0x40)\n      dup1\n      swap2\n      sub\n      swap1\n      revert\n    tag_77:\n        /* \"contracts/bike_rent.sol\":797:807  msg.sender */\n      caller\n        /* \"contracts/bike_rent.sol\":762:772  renterInfo */\n      0x02\n        /* \"contracts/bike_rent.sol\":762:784  renterInfo[msg.sender] */\n      0x00\n        /* \"contracts/bike_rent.sol\":773:783  msg.sender */\n      caller\n        /* \"contracts/bike_rent.sol\":762:784  renterInfo[msg.sender] */\n      0xffffffffffffffffffffffffffffffffffffffff\n      and\n      0xffffffffffffffffffffffffffffffffffffffff\n      and\n      dup2\n      mstore\n      0x20\n      add\n      swap1\n      dup2\n      mstore\n      0x20\n      add\n      0x00\n      keccak256\n        /* \"contracts/bike_rent.sol\":762:794  renterInfo[msg.sender].w_address */\n      0x00\n      add\n      0x00\n        /* \"contracts/bike_rent.sol\":762:807  renterInfo[msg.sender].w_address = msg.sender */\n      0x0100\n      exp\n      dup2\n      sload\n      dup2\n      0xffffffffffffffffffffffffffffffffffffffff\n      mul\n      not\n      and\n      swap1\n      dup4\n      0xffffffffffffffffffffffffffffffffffffffff\n      and\n      mul\n      or\n      swap1\n      sstore\n      pop\n        /* \"contracts/bike_rent.sol\":849:859  First_Name */\n      dup2\n        /* \"contracts/bike_rent.sol\":817:827  renterInfo */\n      0x02\n        /* \"contracts/bike_rent.sol\":817:839  renterInfo[msg.sender] */\n      0x00\n        /* \"contracts/bike_rent.sol\":828:838  msg.sender */\n      caller\n        /* \"contracts/bike_rent.sol\":817:839  renterInfo[msg.sender] */\n      0xffffffffffffffffffffffffffffffffffffffff\n      and\n      0xffffffffffffffffffffffffffffffffffffffff\n      and\n      dup2\n      mstore\n      0x20\n      add\n      swap1\n      dup2\n      mstore\n      0x20\n      add\n      0x00\n      keccak256\n        /* \"contracts/bike_rent.sol\":817:846  renterInfo[msg.sender].f_name */\n      0x01\n      add\n        /* \"contracts/bike_rent.sol\":817:859  renterInfo[msg.sender].f_name = First_Name */\n      swap1\n      dup2\n      tag_80\n      swap2\n      swap1\n      tag_81\n      jump\t// in\n    tag_80:\n      pop\n        /* \"contracts/bike_rent.sol\":901:910  Last_Name */\n      dup1\n        /* \"contracts/bike_rent.sol\":869:879  renterInfo */\n      0x02\n        /* \"contracts/bike_rent.sol\":869:891  renterInfo[msg.sender] */\n      0x00\n        /* \"contracts/bike_rent.sol\":880:890  msg.sender */\n      caller\n        /* \"contracts/bike_rent.sol\":869:891  renterInfo[msg.sender] */\n      0xffffffffffffffffffffffffffffffffffffffff\n      and\n      0xffffffffffffffffffffffffffffffffffffffff\n      and\n      dup2\n      mstore\n      0x20\n      add\n      swap1\n      dup2\n      mstore\n      0x20\n      add\n      0x00\n      keccak256\n        /* \"contracts/bike_rent.sol\":869:898  renterInfo[msg.sender].l_name */\n      0x02\n      add\n        /* \"contracts/bike_rent.sol\":869:910  renterInfo[msg.sender].l_name = Last_Name */\n      swap1\n      dup2\n      tag_82\n      swap2\n      swap1\n      tag_81\n      jump\t// in\n    tag_82:\n      pop\n        /* \"contracts/bike_rent.sol\":953:962  msg.value */\n      callvalue\n        /* \"contracts/bike_rent.sol\":920:930  renterInfo */\n      0x02\n        /* \"contracts/bike_rent.sol\":920:942  renterInfo[msg.sender] */\n      0x00\n        /* \"contracts/bike_rent.sol\":931:941  msg.sender */\n      caller\n        /* \"contracts/bike_rent.sol\":920:942  renterInfo[msg.sender] */\n      0xffffffffffffffffffffffffffffffffffffffff\n      and\n      0xffffffffffffffffffffffffffffffffffffffff\n      and\n      dup2\n      mstore\n      0x20\n      add\n      swap1\n      dup2\n      mstore\n      0x20\n      add\n      0x00\n      keccak256\n        /* \"contracts/bike_rent.sol\":920:950  renterInfo[msg.sender].balance */\n      0x04\n      add\n        /* \"contracts/bike_rent.sol\":920:962  renterInfo[msg.sender].balance = msg.value */\n      dup2\n      swap1\n      sstore\n      pop\n        /* \"contracts/bike_rent.sol\":604:969  function AddRenter(string memory First_Name, string memory Last_Name) public payable {... */\n      pop\n      pop\n      jump\t// out\n        /* \"contracts/bike_rent.sol\":2088:2284  function GetRenterBalance(address renter_add) public view returns(uint) {... */\n    tag_26:\n        /* \"contracts/bike_rent.sol\":2154:2158  uint */\n      0x00\n        /* \"contracts/bike_rent.sol\":2192:2197  admin */\n      dup1\n      0x00\n      swap1\n      sload\n      swap1\n      0x0100\n      exp\n      swap1\n      div\n      0xffffffffffffffffffffffffffffffffffffffff\n      and\n        /* \"contracts/bike_rent.sol\":2178:2197  msg.sender == admin */\n      0xffffffffffffffffffffffffffffffffffffffff\n      and\n        /* \"contracts/bike_rent.sol\":2178:2188  msg.sender */\n      caller\n        /* \"contracts/bike_rent.sol\":2178:2197  msg.sender == admin */\n      0xffffffffffffffffffffffffffffffffffffffff\n      and\n      eq\n        /* \"contracts/bike_rent.sol\":2170:2230  require(msg.sender == admin, \"You don't have admin access.\") */\n      tag_84\n      jumpi\n      mload(0x40)\n      0x08c379a000000000000000000000000000000000000000000000000000000000\n      dup2\n      mstore\n      0x04\n      add\n      tag_85\n      swap1\n      tag_86\n      jump\t// in\n    tag_85:\n      mload(0x40)\n      dup1\n      swap2\n      sub\n      swap1\n      revert\n    tag_84:\n        /* \"contracts/bike_rent.sol\":2247:2257  renterInfo */\n      0x02\n        /* \"contracts/bike_rent.sol\":2247:2269  renterInfo[renter_add] */\n      0x00\n        /* \"contracts/bike_rent.sol\":2258:2268  renter_add */\n      dup4\n        /* \"contracts/bike_rent.sol\":2247:2269  renterInfo[renter_add] */\n      0xffffffffffffffffffffffffffffffffffffffff\n      and\n      0xffffffffffffffffffffffffffffffffffffffff\n      and\n      dup2\n      mstore\n      0x20\n      add\n      swap1\n      dup2\n      mstore\n      0x20\n      add\n      0x00\n      keccak256\n        /* \"contracts/bike_rent.sol\":2247:2277  renterInfo[renter_add].balance */\n      0x04\n      add\n      sload\n        /* \"contracts/bike_rent.sol\":2240:2277  return renterInfo[renter_add].balance */\n      swap1\n      pop\n        /* \"contracts/bike_rent.sol\":2088:2284  function GetRenterBalance(address renter_add) public view returns(uint) {... */\n      swap2\n      swap1\n      pop\n      jump\t// out\n        /* \"contracts/bike_rent.sol\":975:1409  function GetRenter(address r_address) public view returns(address, string memory, uint, uint, uint, uint, uint) {... */\n    tag_32:\n        /* \"contracts/bike_rent.sol\":1033:1040  address */\n      0x00\n        /* \"contracts/bike_rent.sol\":1042:1055  string memory */\n      0x60\n        /* \"contracts/bike_rent.sol\":1057:1061  uint */\n      0x00\n        /* \"contracts/bike_rent.sol\":1063:1067  uint */\n      dup1\n        /* \"contracts/bike_rent.sol\":1069:1073  uint */\n      0x00\n        /* \"contracts/bike_rent.sol\":1075:1079  uint */\n      dup1\n        /* \"contracts/bike_rent.sol\":1081:1085  uint */\n      0x00\n        /* \"contracts/bike_rent.sol\":1105:1115  renterInfo */\n      0x02\n        /* \"contracts/bike_rent.sol\":1105:1126  renterInfo[r_address] */\n      0x00\n        /* \"contracts/bike_rent.sol\":1116:1125  r_address */\n      dup10\n        /* \"contracts/bike_rent.sol\":1105:1126  renterInfo[r_address] */\n      0xffffffffffffffffffffffffffffffffffffffff\n      and\n      0xffffffffffffffffffffffffffffffffffffffff\n      and\n      dup2\n      mstore\n      0x20\n      add\n      swap1\n      dup2\n      mstore\n      0x20\n      add\n      0x00\n      keccak256\n        /* \"contracts/bike_rent.sol\":1105:1136  renterInfo[r_address].w_address */\n      0x00\n      add\n      0x00\n      swap1\n      sload\n      swap1\n      0x0100\n      exp\n      swap1\n      div\n      0xffffffffffffffffffffffffffffffffffffffff\n      and\n        /* \"contracts/bike_rent.sol\":1150:1160  renterInfo */\n      0x02\n        /* \"contracts/bike_rent.sol\":1150:1171  renterInfo[r_address] */\n      0x00\n        /* \"contracts/bike_rent.sol\":1161:1170  r_address */\n      dup11\n        /* \"contracts/bike_rent.sol\":1150:1171  renterInfo[r_address] */\n      0xffffffffffffffffffffffffffffffffffffffff\n      and\n      0xffffffffffffffffffffffffffffffffffffffff\n      and\n      dup2\n      mstore\n      0x20\n      add\n      swap1\n      dup2\n      mstore\n      0x20\n      add\n      0x00\n      keccak256\n        /* \"contracts/bike_rent.sol\":1150:1178  renterInfo[r_address].l_name */\n      0x02\n      add\n        /* \"contracts/bike_rent.sol\":1192:1202  renterInfo */\n      0x02\n        /* \"contracts/bike_rent.sol\":1192:1213  renterInfo[r_address] */\n      0x00\n        /* \"contracts/bike_rent.sol\":1203:1212  r_address */\n      dup12\n        /* \"contracts/bike_rent.sol\":1192:1213  renterInfo[r_address] */\n      0xffffffffffffffffffffffffffffffffffffffff\n      and\n      0xffffffffffffffffffffffffffffffffffffffff\n      and\n      dup2\n      mstore\n      0x20\n      add\n      swap1\n      dup2\n      mstore\n      0x20\n      add\n      0x00\n      keccak256\n        /* \"contracts/bike_rent.sol\":1192:1220  renterInfo[r_address].active */\n      0x03\n      add\n      sload\n        /* \"contracts/bike_rent.sol\":1234:1244  renterInfo */\n      0x02\n        /* \"contracts/bike_rent.sol\":1234:1255  renterInfo[r_address] */\n      0x00\n        /* \"contracts/bike_rent.sol\":1245:1254  r_address */\n      dup13\n        /* \"contracts/bike_rent.sol\":1234:1255  renterInfo[r_address] */\n      0xffffffffffffffffffffffffffffffffffffffff\n      and\n      0xffffffffffffffffffffffffffffffffffffffff\n      and\n      dup2\n      mstore\n      0x20\n      add\n      swap1\n      dup2\n      mstore\n      0x20\n      add\n      0x00\n      keccak256\n        /* \"contracts/bike_rent.sol\":1234:1263  renterInfo[r_address].balance */\n      0x04\n      add\n      sload\n        /* \"contracts/bike_rent.sol\":1277:1287  renterInfo */\n      0x02\n        /* \"contracts/bike_rent.sol\":1277:1298  renterInfo[r_address] */\n      0x00\n        /* \"contracts/bike_rent.sol\":1288:1297  r_address */\n      dup14\n        /* \"contracts/bike_rent.sol\":1277:1298  renterInfo[r_address] */\n      0xffffffffffffffffffffffffffffffffffffffff\n      and\n      0xffffffffffffffffffffffffffffffffffffffff\n      and\n      dup2\n      mstore\n      0x20\n      add\n      swap1\n      dup2\n      mstore\n      0x20\n      add\n      0x00\n      keccak256\n        /* \"contracts/bike_rent.sol\":1277:1302  renterInfo[r_address].due */\n      0x05\n      add\n      sload\n        /* \"contracts/bike_rent.sol\":1316:1326  renterInfo */\n      0x02\n        /* \"contracts/bike_rent.sol\":1316:1337  renterInfo[r_address] */\n      0x00\n        /* \"contracts/bike_rent.sol\":1327:1336  r_address */\n      dup15\n        /* \"contracts/bike_rent.sol\":1316:1337  renterInfo[r_address] */\n      0xffffffffffffffffffffffffffffffffffffffff\n      and\n      0xffffffffffffffffffffffffffffffffffffffff\n      and\n      dup2\n      mstore\n      0x20\n      add\n      swap1\n      dup2\n      mstore\n      0x20\n      add\n      0x00\n      keccak256\n        /* \"contracts/bike_rent.sol\":1316:1346  renterInfo[r_address].ride_end */\n      0x07\n      add\n      sload\n        /* \"contracts/bike_rent.sol\":1360:1370  renterInfo */\n      0x02\n        /* \"contracts/bike_rent.sol\":1360:1381  renterInfo[r_address] */\n      0x00\n        /* \"contracts/bike_rent.sol\":1371:1380  r_address */\n      dup16\n        /* \"contracts/bike_rent.sol\":1360:1381  renterInfo[r_address] */\n      0xffffffffffffffffffffffffffffffffffffffff\n      and\n      0xffffffffffffffffffffffffffffffffffffffff\n      and\n      dup2\n      mstore\n      0x20\n      add\n      swap1\n      dup2\n      mstore\n      0x20\n      add\n      0x00\n      keccak256\n        /* \"contracts/bike_rent.sol\":1360:1392  renterInfo[r_address].ride_start */\n      0x06\n      add\n      sload\n        /* \"contracts/bike_rent.sol\":1097:1402  return( renterInfo[r_address].w_address,... */\n      dup6\n      dup1\n      sload\n      tag_88\n      swap1\n      tag_89\n      jump\t// in\n    tag_88:\n      dup1\n      0x1f\n      add\n      0x20\n      dup1\n      swap2\n      div\n      mul\n      0x20\n      add\n      mload(0x40)\n      swap1\n      dup2\n      add\n      0x40\n      mstore\n      dup1\n      swap3\n      swap2\n      swap1\n      dup2\n      dup2\n      mstore\n      0x20\n      add\n      dup3\n      dup1\n      sload\n      tag_90\n      swap1\n      tag_89\n      jump\t// in\n    tag_90:\n      dup1\n      iszero\n      tag_91\n      jumpi\n      dup1\n      0x1f\n      lt\n      tag_92\n      jumpi\n      0x0100\n      dup1\n      dup4\n      sload\n      div\n      mul\n      dup4\n      mstore\n      swap2\n      0x20\n      add\n      swap2\n      jump(tag_91)\n    tag_92:\n      dup3\n      add\n      swap2\n      swap1\n      0x00\n      mstore\n      keccak256(0x00, 0x20)\n      swap1\n    tag_93:\n      dup2\n      sload\n      dup2\n      mstore\n      swap1\n      0x01\n      add\n      swap1\n      0x20\n      add\n      dup1\n      dup4\n      gt\n      tag_93\n      jumpi\n      dup3\n      swap1\n      sub\n      0x1f\n      and\n      dup3\n      add\n      swap2\n    tag_91:\n      pop\n      pop\n      pop\n      pop\n      pop\n      swap6\n      pop\n      swap7\n      pop\n      swap7\n      pop\n      swap7\n      pop\n      swap7\n      pop\n      swap7\n      pop\n      swap7\n      pop\n      swap7\n      pop\n        /* \"contracts/bike_rent.sol\":975:1409  function GetRenter(address r_address) public view returns(address, string memory, uint, uint, uint, uint, uint) {... */\n      swap2\n      swap4\n      swap6\n      swap8\n      swap1\n      swap3\n      swap5\n      swap7\n      pop\n      jump\t// out\n        /* \"contracts/bike_rent.sol\":3080:3778  function BookRide(address r_add, uint b_id, uint s_ride, uint e_ride) public {... */\n    tag_39:\n        /* \"contracts/bike_rent.sol\":3355:3374  BikeStatus.avilable */\n      0x00\n        /* \"contracts/bike_rent.sol\":3331:3374  bikes[b_id].b_status == BikeStatus.avilable */\n      0x01\n      dup2\n      gt\n      iszero\n      tag_95\n      jumpi\n      tag_96\n      tag_75\n      jump\t// in\n    tag_96:\n    tag_95:\n        /* \"contracts/bike_rent.sol\":3331:3336  bikes */\n      0x01\n        /* \"contracts/bike_rent.sol\":3337:3341  b_id */\n      dup5\n        /* \"contracts/bike_rent.sol\":3331:3342  bikes[b_id] */\n      dup2\n      sload\n      dup2\n      lt\n      tag_97\n      jumpi\n      tag_98\n      tag_71\n      jump\t// in\n    tag_98:\n    tag_97:\n      swap1\n      0x00\n      mstore\n      keccak256(0x00, 0x20)\n      swap1\n      0x04\n      mul\n      add\n        /* \"contracts/bike_rent.sol\":3331:3351  bikes[b_id].b_status */\n      0x03\n      add\n      0x00\n      swap1\n      sload\n      swap1\n      0x0100\n      exp\n      swap1\n      div\n      0xff\n      and\n        /* \"contracts/bike_rent.sol\":3331:3374  bikes[b_id].b_status == BikeStatus.avilable */\n      0x01\n      dup2\n      gt\n      iszero\n      tag_100\n      jumpi\n      tag_101\n      tag_75\n      jump\t// in\n    tag_101:\n    tag_100:\n      eq\n        /* \"contracts/bike_rent.sol\":3323:3417  require(bikes[b_id].b_status == BikeStatus.avilable, \"Bike is not avilable for this duration\") */\n      tag_102\n      jumpi\n      mload(0x40)\n      0x08c379a000000000000000000000000000000000000000000000000000000000\n      dup2\n      mstore\n      0x04\n      add\n      tag_103\n      swap1\n      tag_68\n      jump\t// in\n    tag_103:\n      mload(0x40)\n      dup1\n      swap2\n      sub\n      swap1\n      revert\n    tag_102:\n        /* \"contracts/bike_rent.sol\":3489:3491  50 */\n      0x32\n        /* \"contracts/bike_rent.sol\":3460:3470  renterInfo */\n      0x02\n        /* \"contracts/bike_rent.sol\":3460:3477  renterInfo[r_add] */\n      0x00\n        /* \"contracts/bike_rent.sol\":3471:3476  r_add */\n      dup7\n        /* \"contracts/bike_rent.sol\":3460:3477  renterInfo[r_add] */\n      0xffffffffffffffffffffffffffffffffffffffff\n      and\n      0xffffffffffffffffffffffffffffffffffffffff\n      and\n      dup2\n      mstore\n      0x20\n      add\n      swap1\n      dup2\n      mstore\n      0x20\n      add\n      0x00\n      keccak256\n        /* \"contracts/bike_rent.sol\":3460:3485  renterInfo[r_add].balance */\n      0x04\n      add\n      sload\n        /* \"contracts/bike_rent.sol\":3460:3491  renterInfo[r_add].balance == 50 */\n      eq\n        /* \"contracts/bike_rent.sol\":3460:3526  renterInfo[r_add].balance == 50 || renterInfo[r_add].balance >= 50 */\n      dup1\n      tag_104\n      jumpi\n      pop\n        /* \"contracts/bike_rent.sol\":3524:3526  50 */\n      0x32\n        /* \"contracts/bike_rent.sol\":3495:3505  renterInfo */\n      0x02\n        /* \"contracts/bike_rent.sol\":3495:3512  renterInfo[r_add] */\n      0x00\n        /* \"contracts/bike_rent.sol\":3506:3511  r_add */\n      dup7\n        /* \"contracts/bike_rent.sol\":3495:3512  renterInfo[r_add] */\n      0xffffffffffffffffffffffffffffffffffffffff\n      and\n      0xffffffffffffffffffffffffffffffffffffffff\n      and\n      dup2\n      mstore\n      0x20\n      add\n      swap1\n      dup2\n      mstore\n      0x20\n      add\n      0x00\n      keccak256\n        /* \"contracts/bike_rent.sol\":3495:3520  renterInfo[r_add].balance */\n      0x04\n      add\n      sload\n        /* \"contracts/bike_rent.sol\":3495:3526  renterInfo[r_add].balance >= 50 */\n      lt\n      iszero\n        /* \"contracts/bike_rent.sol\":3460:3526  renterInfo[r_add].balance == 50 || renterInfo[r_add].balance >= 50 */\n    tag_104:\n        /* \"contracts/bike_rent.sol\":3457:3680  if(renterInfo[r_add].balance == 50 || renterInfo[r_add].balance >= 50) {... */\n      iszero\n      tag_105\n      jumpi\n        /* \"contracts/bike_rent.sol\":3591:3592  2 */\n      0x02\n        /* \"contracts/bike_rent.sol\":3581:3587  e_ride */\n      dup2\n        /* \"contracts/bike_rent.sol\":3572:3578  s_ride */\n      dup4\n        /* \"contracts/bike_rent.sol\":3572:3587  s_ride - e_ride */\n      tag_106\n      swap2\n      swap1\n      tag_107\n      jump\t// in\n    tag_106:\n        /* \"contracts/bike_rent.sol\":3571:3592  (s_ride - e_ride) * 2 */\n      tag_108\n      swap2\n      swap1\n      tag_109\n      jump\t// in\n    tag_108:\n        /* \"contracts/bike_rent.sol\":3542:3552  renterInfo */\n      0x02\n        /* \"contracts/bike_rent.sol\":3542:3559  renterInfo[r_add] */\n      0x00\n        /* \"contracts/bike_rent.sol\":3553:3558  r_add */\n      dup7\n        /* \"contracts/bike_rent.sol\":3542:3559  renterInfo[r_add] */\n      0xffffffffffffffffffffffffffffffffffffffff\n      and\n      0xffffffffffffffffffffffffffffffffffffffff\n      and\n      dup2\n      mstore\n      0x20\n      add\n      swap1\n      dup2\n      mstore\n      0x20\n      add\n      0x00\n      keccak256\n        /* \"contracts/bike_rent.sol\":3542:3567  renterInfo[r_add].balance */\n      0x04\n      add\n      0x00\n        /* \"contracts/bike_rent.sol\":3542:3592  renterInfo[r_add].balance -= (s_ride - e_ride) * 2 */\n      dup3\n      dup3\n      sload\n      tag_110\n      swap2\n      swap1\n      tag_107\n      jump\t// in\n    tag_110:\n      swap3\n      pop\n      pop\n      dup2\n      swap1\n      sstore\n      pop\n        /* \"contracts/bike_rent.sol\":3457:3680  if(renterInfo[r_add].balance == 50 || renterInfo[r_add].balance >= 50) {... */\n      jump(tag_111)\n    tag_105:\n        /* \"contracts/bike_rent.sol\":3668:3669  2 */\n      0x02\n        /* \"contracts/bike_rent.sol\":3658:3664  e_ride */\n      dup2\n        /* \"contracts/bike_rent.sol\":3649:3655  s_ride */\n      dup4\n        /* \"contracts/bike_rent.sol\":3649:3664  s_ride - e_ride */\n      tag_112\n      swap2\n      swap1\n      tag_107\n      jump\t// in\n    tag_112:\n        /* \"contracts/bike_rent.sol\":3648:3669  (s_ride - e_ride) * 2 */\n      tag_113\n      swap2\n      swap1\n      tag_109\n      jump\t// in\n    tag_113:\n        /* \"contracts/bike_rent.sol\":3624:3634  renterInfo */\n      0x02\n        /* \"contracts/bike_rent.sol\":3624:3641  renterInfo[r_add] */\n      0x00\n        /* \"contracts/bike_rent.sol\":3635:3640  r_add */\n      dup7\n        /* \"contracts/bike_rent.sol\":3624:3641  renterInfo[r_add] */\n      0xffffffffffffffffffffffffffffffffffffffff\n      and\n      0xffffffffffffffffffffffffffffffffffffffff\n      and\n      dup2\n      mstore\n      0x20\n      add\n      swap1\n      dup2\n      mstore\n      0x20\n      add\n      0x00\n      keccak256\n        /* \"contracts/bike_rent.sol\":3624:3645  renterInfo[r_add].due */\n      0x05\n      add\n        /* \"contracts/bike_rent.sol\":3624:3669  renterInfo[r_add].due = (s_ride - e_ride) * 2 */\n      dup2\n      swap1\n      sstore\n      pop\n        /* \"contracts/bike_rent.sol\":3457:3680  if(renterInfo[r_add].balance == 50 || renterInfo[r_add].balance >= 50) {... */\n    tag_111:\n        /* \"contracts/bike_rent.sol\":3720:3726  s_ride */\n      dup2\n        /* \"contracts/bike_rent.sol\":3689:3699  renterInfo */\n      0x02\n        /* \"contracts/bike_rent.sol\":3689:3706  renterInfo[r_add] */\n      0x00\n        /* \"contracts/bike_rent.sol\":3700:3705  r_add */\n      dup7\n        /* \"contracts/bike_rent.sol\":3689:3706  renterInfo[r_add] */\n      0xffffffffffffffffffffffffffffffffffffffff\n      and\n      0xffffffffffffffffffffffffffffffffffffffff\n      and\n      dup2\n      mstore\n      0x20\n      add\n      swap1\n      dup2\n      mstore\n      0x20\n      add\n      0x00\n      keccak256\n        /* \"contracts/bike_rent.sol\":3689:3717  renterInfo[r_add].ride_start */\n      0x06\n      add\n        /* \"contracts/bike_rent.sol\":3689:3726  renterInfo[r_add].ride_start = s_ride */\n      dup2\n      swap1\n      sstore\n      pop\n        /* \"contracts/bike_rent.sol\":3765:3771  e_ride */\n      dup1\n        /* \"contracts/bike_rent.sol\":3736:3746  renterInfo */\n      0x02\n        /* \"contracts/bike_rent.sol\":3736:3753  renterInfo[r_add] */\n      0x00\n        /* \"contracts/bike_rent.sol\":3747:3752  r_add */\n      dup7\n        /* \"contracts/bike_rent.sol\":3736:3753  renterInfo[r_add] */\n      0xffffffffffffffffffffffffffffffffffffffff\n      and\n      0xffffffffffffffffffffffffffffffffffffffff\n      and\n      dup2\n      mstore\n      0x20\n      add\n      swap1\n      dup2\n      mstore\n      0x20\n      add\n      0x00\n      keccak256\n        /* \"contracts/bike_rent.sol\":3736:3762  renterInfo[r_add].ride_end */\n      0x07\n      add\n        /* \"contracts/bike_rent.sol\":3736:3771  renterInfo[r_add].ride_end = e_ride */\n      dup2\n      swap1\n      sstore\n      pop\n        /* \"contracts/bike_rent.sol\":3080:3778  function BookRide(address r_add, uint b_id, uint s_ride, uint e_ride) public {... */\n      pop\n      pop\n      pop\n      pop\n      jump\t// out\n        /* \"contracts/bike_rent.sol\":1668:1913  function GetBike(uint bike_) public view returns(string memory, uint, uint, BikeStatus) {... */\n    tag_44:\n        /* \"contracts/bike_rent.sol\":1717:1730  string memory */\n      0x60\n        /* \"contracts/bike_rent.sol\":1732:1736  uint */\n      0x00\n        /* \"contracts/bike_rent.sol\":1738:1742  uint */\n      dup1\n        /* \"contracts/bike_rent.sol\":1744:1754  BikeStatus */\n      0x00\n        /* \"contracts/bike_rent.sol\":1774:1779  bikes */\n      0x01\n        /* \"contracts/bike_rent.sol\":1780:1785  bike_ */\n      dup6\n        /* \"contracts/bike_rent.sol\":1774:1786  bikes[bike_] */\n      dup2\n      sload\n      dup2\n      lt\n      tag_115\n      jumpi\n      tag_116\n      tag_71\n      jump\t// in\n    tag_116:\n    tag_115:\n      swap1\n      0x00\n      mstore\n      keccak256(0x00, 0x20)\n      swap1\n      0x04\n      mul\n      add\n        /* \"contracts/bike_rent.sol\":1774:1791  bikes[bike_].name */\n      0x00\n      add\n        /* \"contracts/bike_rent.sol\":1805:1810  bikes */\n      0x01\n        /* \"contracts/bike_rent.sol\":1811:1816  bike_ */\n      dup7\n        /* \"contracts/bike_rent.sol\":1805:1817  bikes[bike_] */\n      dup2\n      sload\n      dup2\n      lt\n      tag_118\n      jumpi\n      tag_119\n      tag_71\n      jump\t// in\n    tag_119:\n    tag_118:\n      swap1\n      0x00\n      mstore\n      keccak256(0x00, 0x20)\n      swap1\n      0x04\n      mul\n      add\n        /* \"contracts/bike_rent.sol\":1805:1822  bikes[bike_].b_no */\n      0x01\n      add\n      sload\n        /* \"contracts/bike_rent.sol\":1836:1841  bikes */\n      0x01\n        /* \"contracts/bike_rent.sol\":1842:1847  bike_ */\n      dup8\n        /* \"contracts/bike_rent.sol\":1836:1848  bikes[bike_] */\n      dup2\n      sload\n      dup2\n      lt\n      tag_121\n      jumpi\n      tag_122\n      tag_71\n      jump\t// in\n    tag_122:\n    tag_121:\n      swap1\n      0x00\n      mstore\n      keccak256(0x00, 0x20)\n      swap1\n      0x04\n      mul\n      add\n        /* \"contracts/bike_rent.sol\":1836:1861  bikes[bike_].renter_count */\n      0x02\n      add\n      sload\n        /* \"contracts/bike_rent.sol\":1875:1880  bikes */\n      0x01\n        /* \"contracts/bike_rent.sol\":1881:1886  bike_ */\n      dup9\n        /* \"contracts/bike_rent.sol\":1875:1887  bikes[bike_] */\n      dup2\n      sload\n      dup2\n      lt\n      tag_124\n      jumpi\n      tag_125\n      tag_71\n      jump\t// in\n    tag_125:\n    tag_124:\n      swap1\n      0x00\n      mstore\n      keccak256(0x00, 0x20)\n      swap1\n      0x04\n      mul\n      add\n        /* \"contracts/bike_rent.sol\":1875:1896  bikes[bike_].b_status */\n      0x03\n      add\n      0x00\n      swap1\n      sload\n      swap1\n      0x0100\n      exp\n      swap1\n      div\n      0xff\n      and\n        /* \"contracts/bike_rent.sol\":1766:1906  return( bikes[bike_].name,... */\n      dup4\n      dup1\n      sload\n      tag_127\n      swap1\n      tag_89\n      jump\t// in\n    tag_127:\n      dup1\n      0x1f\n      add\n      0x20\n      dup1\n      swap2\n      div\n      mul\n      0x20\n      add\n      mload(0x40)\n      swap1\n      dup2\n      add\n      0x40\n      mstore\n      dup1\n      swap3\n      swap2\n      swap1\n      dup2\n      dup2\n      mstore\n      0x20\n      add\n      dup3\n      dup1\n      sload\n      tag_128\n      swap1\n      tag_89\n      jump\t// in\n    tag_128:\n      dup1\n      iszero\n      tag_129\n      jumpi\n      dup1\n      0x1f\n      lt\n      tag_130\n      jumpi\n      0x0100\n      dup1\n      dup4\n      sload\n      div\n      mul\n      dup4\n      mstore\n      swap2\n      0x20\n      add\n      swap2\n      jump(tag_129)\n    tag_130:\n      dup3\n      add\n      swap2\n      swap1\n      0x00\n      mstore\n      keccak256(0x00, 0x20)\n      swap1\n    tag_131:\n      dup2\n      sload\n      dup2\n      mstore\n      swap1\n      0x01\n      add\n      swap1\n      0x20\n      add\n      dup1\n      dup4\n      gt\n      tag_131\n      jumpi\n      dup3\n      swap1\n      sub\n      0x1f\n      and\n      dup3\n      add\n      swap2\n    tag_129:\n      pop\n      pop\n      pop\n      pop\n      pop\n      swap4\n      pop\n      swap4\n      pop\n      swap4\n      pop\n      swap4\n      pop\n      swap4\n      pop\n        /* \"contracts/bike_rent.sol\":1668:1913  function GetBike(uint bike_) public view returns(string memory, uint, uint, BikeStatus) {... */\n      swap2\n      swap4\n      pop\n      swap2\n      swap4\n      jump\t// out\n        /* \"contracts/bike_rent.sol\":2290:2591  function TimeDuration(address renter_add) public view returns (uint) {... */\n    tag_50:\n        /* \"contracts/bike_rent.sol\":2353:2357  uint */\n      0x00\n        /* \"contracts/bike_rent.sol\":2391:2396  admin */\n      dup1\n      0x00\n      swap1\n      sload\n      swap1\n      0x0100\n      exp\n      swap1\n      div\n      0xffffffffffffffffffffffffffffffffffffffff\n      and\n        /* \"contracts/bike_rent.sol\":2377:2396  msg.sender == admin */\n      0xffffffffffffffffffffffffffffffffffffffff\n      and\n        /* \"contracts/bike_rent.sol\":2377:2387  msg.sender */\n      caller\n        /* \"contracts/bike_rent.sol\":2377:2396  msg.sender == admin */\n      0xffffffffffffffffffffffffffffffffffffffff\n      and\n      eq\n        /* \"contracts/bike_rent.sol\":2369:2429  require(msg.sender == admin, \"You don't have admin access.\") */\n      tag_133\n      jumpi\n      mload(0x40)\n      0x08c379a000000000000000000000000000000000000000000000000000000000\n      dup2\n      mstore\n      0x04\n      add\n      tag_134\n      swap1\n      tag_86\n      jump\t// in\n    tag_134:\n      mload(0x40)\n      dup1\n      swap2\n      sub\n      swap1\n      revert\n    tag_133:\n        /* \"contracts/bike_rent.sol\":2484:2485  0 */\n      0x00\n        /* \"contracts/bike_rent.sol\":2447:2457  renterInfo */\n      0x02\n        /* \"contracts/bike_rent.sol\":2447:2469  renterInfo[renter_add] */\n      0x00\n        /* \"contracts/bike_rent.sol\":2458:2468  renter_add */\n      dup5\n        /* \"contracts/bike_rent.sol\":2447:2469  renterInfo[renter_add] */\n      0xffffffffffffffffffffffffffffffffffffffff\n      and\n      0xffffffffffffffffffffffffffffffffffffffff\n      and\n      dup2\n      mstore\n      0x20\n      add\n      swap1\n      dup2\n      mstore\n      0x20\n      add\n      0x00\n      keccak256\n        /* \"contracts/bike_rent.sol\":2447:2480  renterInfo[renter_add].ride_start */\n      0x06\n      add\n      sload\n        /* \"contracts/bike_rent.sol\":2447:2485  renterInfo[renter_add].ride_start != 0 */\n      sub\n        /* \"contracts/bike_rent.sol\":2439:2500  require(renterInfo[renter_add].ride_start != 0, \"Not found.\") */\n      tag_135\n      jumpi\n      mload(0x40)\n      0x08c379a000000000000000000000000000000000000000000000000000000000\n      dup2\n      mstore\n      0x04\n      add\n      tag_136\n      swap1\n      tag_137\n      jump\t// in\n    tag_136:\n      mload(0x40)\n      dup1\n      swap2\n      sub\n      swap1\n      revert\n    tag_135:\n        /* \"contracts/bike_rent.sol\":2553:2563  renterInfo */\n      0x02\n        /* \"contracts/bike_rent.sol\":2553:2575  renterInfo[renter_add] */\n      0x00\n        /* \"contracts/bike_rent.sol\":2564:2574  renter_add */\n      dup4\n        /* \"contracts/bike_rent.sol\":2553:2575  renterInfo[renter_add] */\n      0xffffffffffffffffffffffffffffffffffffffff\n      and\n      0xffffffffffffffffffffffffffffffffffffffff\n      and\n      dup2\n      mstore\n      0x20\n      add\n      swap1\n      dup2\n      mstore\n      0x20\n      add\n      0x00\n      keccak256\n        /* \"contracts/bike_rent.sol\":2553:2584  renterInfo[renter_add].ride_end */\n      0x07\n      add\n      sload\n        /* \"contracts/bike_rent.sol\":2517:2527  renterInfo */\n      0x02\n        /* \"contracts/bike_rent.sol\":2517:2539  renterInfo[renter_add] */\n      0x00\n        /* \"contracts/bike_rent.sol\":2528:2538  renter_add */\n      dup5\n        /* \"contracts/bike_rent.sol\":2517:2539  renterInfo[renter_add] */\n      0xffffffffffffffffffffffffffffffffffffffff\n      and\n      0xffffffffffffffffffffffffffffffffffffffff\n      and\n      dup2\n      mstore\n      0x20\n      add\n      swap1\n      dup2\n      mstore\n      0x20\n      add\n      0x00\n      keccak256\n        /* \"contracts/bike_rent.sol\":2517:2550  renterInfo[renter_add].ride_start */\n      0x06\n      add\n      sload\n        /* \"contracts/bike_rent.sol\":2517:2584  renterInfo[renter_add].ride_start - renterInfo[renter_add].ride_end */\n      tag_138\n      swap2\n      swap1\n      tag_107\n      jump\t// in\n    tag_138:\n        /* \"contracts/bike_rent.sol\":2510:2584  return renterInfo[renter_add].ride_start - renterInfo[renter_add].ride_end */\n      swap1\n      pop\n        /* \"contracts/bike_rent.sol\":2290:2591  function TimeDuration(address renter_add) public view returns (uint) {... */\n      swap2\n      swap1\n      pop\n      jump\t// out\n        /* \"contracts/bike_rent.sol\":2597:2832  function CheckIn(address renter_add, uint bike_id, uint s_ride) public {... */\n    tag_55:\n        /* \"contracts/bike_rent.sol\":2723:2729  s_ride */\n      dup1\n        /* \"contracts/bike_rent.sol\":2686:2696  renterInfo */\n      0x02\n        /* \"contracts/bike_rent.sol\":2686:2708  renterInfo[renter_add] */\n      0x00\n        /* \"contracts/bike_rent.sol\":2697:2707  renter_add */\n      dup6\n        /* \"contracts/bike_rent.sol\":2686:2708  renterInfo[renter_add] */\n      0xffffffffffffffffffffffffffffffffffffffff\n      and\n      0xffffffffffffffffffffffffffffffffffffffff\n      and\n      dup2\n      mstore\n      0x20\n      add\n      swap1\n      dup2\n      mstore\n      0x20\n      add\n      0x00\n      keccak256\n        /* \"contracts/bike_rent.sol\":2686:2719  renterInfo[renter_add].ride_start */\n      0x06\n      add\n      sload\n        /* \"contracts/bike_rent.sol\":2686:2729  renterInfo[renter_add].ride_start == s_ride */\n      eq\n        /* \"contracts/bike_rent.sol\":2678:2772  require(renterInfo[renter_add].ride_start == s_ride, \"Bike is not avilable for this duration\") */\n      tag_140\n      jumpi\n      mload(0x40)\n      0x08c379a000000000000000000000000000000000000000000000000000000000\n      dup2\n      mstore\n      0x04\n      add\n      tag_141\n      swap1\n      tag_68\n      jump\t// in\n    tag_141:\n      mload(0x40)\n      dup1\n      swap2\n      sub\n      swap1\n      revert\n    tag_140:\n        /* \"contracts/bike_rent.sol\":2808:2825  BikeStatus.rented */\n      0x01\n        /* \"contracts/bike_rent.sol\":2782:2787  bikes */\n      dup1\n        /* \"contracts/bike_rent.sol\":2788:2795  bike_id */\n      dup4\n        /* \"contracts/bike_rent.sol\":2782:2796  bikes[bike_id] */\n      dup2\n      sload\n      dup2\n      lt\n      tag_142\n      jumpi\n      tag_143\n      tag_71\n      jump\t// in\n    tag_143:\n    tag_142:\n      swap1\n      0x00\n      mstore\n      keccak256(0x00, 0x20)\n      swap1\n      0x04\n      mul\n      add\n        /* \"contracts/bike_rent.sol\":2782:2805  bikes[bike_id].b_status */\n      0x03\n      add\n      0x00\n        /* \"contracts/bike_rent.sol\":2782:2825  bikes[bike_id].b_status = BikeStatus.rented */\n      0x0100\n      exp\n      dup2\n      sload\n      dup2\n      0xff\n      mul\n      not\n      and\n      swap1\n      dup4\n      0x01\n      dup2\n      gt\n      iszero\n      tag_145\n      jumpi\n      tag_146\n      tag_75\n      jump\t// in\n    tag_146:\n    tag_145:\n      mul\n      or\n      swap1\n      sstore\n      pop\n        /* \"contracts/bike_rent.sol\":2597:2832  function CheckIn(address renter_add, uint bike_id, uint s_ride) public {... */\n      pop\n      pop\n      pop\n      jump\t// out\n        /* \"contracts/bike_rent.sol\":1415:1662  function AddBike(string memory Bike_Name, uint Bike_No) public {... */\n    tag_60:\n        /* \"contracts/bike_rent.sol\":1510:1515  admin */\n      0x00\n      dup1\n      sload\n      swap1\n      0x0100\n      exp\n      swap1\n      div\n      0xffffffffffffffffffffffffffffffffffffffff\n      and\n        /* \"contracts/bike_rent.sol\":1496:1515  msg.sender == admin */\n      0xffffffffffffffffffffffffffffffffffffffff\n      and\n        /* \"contracts/bike_rent.sol\":1496:1506  msg.sender */\n      caller\n        /* \"contracts/bike_rent.sol\":1496:1515  msg.sender == admin */\n      0xffffffffffffffffffffffffffffffffffffffff\n      and\n      eq\n        /* \"contracts/bike_rent.sol\":1488:1548  require(msg.sender == admin, \"You don't have admin access.\") */\n      tag_148\n      jumpi\n      mload(0x40)\n      0x08c379a000000000000000000000000000000000000000000000000000000000\n      dup2\n      mstore\n      0x04\n      add\n      tag_149\n      swap1\n      tag_86\n      jump\t// in\n    tag_149:\n      mload(0x40)\n      dup1\n      swap2\n      sub\n      swap1\n      revert\n    tag_148:\n        /* \"contracts/bike_rent.sol\":1558:1576  bike memory bikess */\n      0x00\n        /* \"contracts/bike_rent.sol\":1579:1627  bike(Bike_Name, Bike_No, 0, BikeStatus.avilable) */\n      mload(0x40)\n      dup1\n      0x80\n      add\n      0x40\n      mstore\n      dup1\n        /* \"contracts/bike_rent.sol\":1584:1593  Bike_Name */\n      dup5\n        /* \"contracts/bike_rent.sol\":1579:1627  bike(Bike_Name, Bike_No, 0, BikeStatus.avilable) */\n      dup2\n      mstore\n      0x20\n      add\n        /* \"contracts/bike_rent.sol\":1595:1602  Bike_No */\n      dup4\n        /* \"contracts/bike_rent.sol\":1579:1627  bike(Bike_Name, Bike_No, 0, BikeStatus.avilable) */\n      dup2\n      mstore\n      0x20\n      add\n        /* \"contracts/bike_rent.sol\":1604:1605  0 */\n      0x00\n        /* \"contracts/bike_rent.sol\":1579:1627  bike(Bike_Name, Bike_No, 0, BikeStatus.avilable) */\n      dup2\n      mstore\n      0x20\n      add\n        /* \"contracts/bike_rent.sol\":1607:1626  BikeStatus.avilable */\n      0x00\n        /* \"contracts/bike_rent.sol\":1579:1627  bike(Bike_Name, Bike_No, 0, BikeStatus.avilable) */\n      0x01\n      dup2\n      gt\n      iszero\n      tag_150\n      jumpi\n      tag_151\n      tag_75\n      jump\t// in\n    tag_151:\n    tag_150:\n      dup2\n      mstore\n      pop\n        /* \"contracts/bike_rent.sol\":1558:1627  bike memory bikess = bike(Bike_Name, Bike_No, 0, BikeStatus.avilable) */\n      swap1\n      pop\n        /* \"contracts/bike_rent.sol\":1637:1642  bikes */\n      0x01\n        /* \"contracts/bike_rent.sol\":1648:1654  bikess */\n      dup2\n        /* \"contracts/bike_rent.sol\":1637:1655  bikes.push(bikess) */\n      swap1\n      dup1\n      0x01\n      dup2\n      sload\n      add\n      dup1\n      dup3\n      sstore\n      dup1\n      swap2\n      pop\n      pop\n      0x01\n      swap1\n      sub\n      swap1\n      0x00\n      mstore\n      keccak256(0x00, 0x20)\n      swap1\n      0x04\n      mul\n      add\n      0x00\n      swap1\n      swap2\n      swap1\n      swap2\n      swap1\n      swap2\n      pop\n      0x00\n      dup3\n      add\n      mload\n      dup2\n      0x00\n      add\n      swap1\n      dup2\n      tag_153\n      swap2\n      swap1\n      tag_81\n      jump\t// in\n    tag_153:\n      pop\n      0x20\n      dup3\n      add\n      mload\n      dup2\n      0x01\n      add\n      sstore\n      0x40\n      dup3\n      add\n      mload\n      dup2\n      0x02\n      add\n      sstore\n      0x60\n      dup3\n      add\n      mload\n      dup2\n      0x03\n      add\n      exp(0x0100, 0x00)\n      dup2\n      sload\n      dup2\n      0xff\n      mul\n      not\n      and\n      swap1\n      dup4\n      0x01\n      dup2\n      gt\n      iszero\n      tag_154\n      jumpi\n      tag_155\n      tag_75\n      jump\t// in\n    tag_155:\n    tag_154:\n      mul\n      or\n      swap1\n      sstore\n      pop\n      pop\n      pop\n        /* \"contracts/bike_rent.sol\":1478:1662  {... */\n      pop\n        /* \"contracts/bike_rent.sol\":1415:1662  function AddBike(string memory Bike_Name, uint Bike_No) public {... */\n      pop\n      pop\n      jump\t// out\n        /* \"contracts/bike_rent.sol\":1919:2082  function GetBalance() public view returns(uint) {... */\n    tag_63:\n        /* \"contracts/bike_rent.sol\":1961:1965  uint */\n      0x00\n        /* \"contracts/bike_rent.sol\":1999:2004  admin */\n      dup1\n      0x00\n      swap1\n      sload\n      swap1\n      0x0100\n      exp\n      swap1\n      div\n      0xffffffffffffffffffffffffffffffffffffffff\n      and\n        /* \"contracts/bike_rent.sol\":1985:2004  msg.sender == admin */\n      0xffffffffffffffffffffffffffffffffffffffff\n      and\n        /* \"contracts/bike_rent.sol\":1985:1995  msg.sender */\n      caller\n        /* \"contracts/bike_rent.sol\":1985:2004  msg.sender == admin */\n      0xffffffffffffffffffffffffffffffffffffffff\n      and\n      eq\n        /* \"contracts/bike_rent.sol\":1977:2037  require(msg.sender == admin, \"You don't have admin access.\") */\n      tag_157\n      jumpi\n      mload(0x40)\n      0x08c379a000000000000000000000000000000000000000000000000000000000\n      dup2\n      mstore\n      0x04\n      add\n      tag_158\n      swap1\n      tag_86\n      jump\t// in\n    tag_158:\n      mload(0x40)\n      dup1\n      swap2\n      sub\n      swap1\n      revert\n    tag_157:\n        /* \"contracts/bike_rent.sol\":2054:2075  address(this).balance */\n      selfbalance\n        /* \"contracts/bike_rent.sol\":2047:2075  return address(this).balance */\n      swap1\n      pop\n        /* \"contracts/bike_rent.sol\":1919:2082  function GetBalance() public view returns(uint) {... */\n      swap1\n      jump\t// out\n        /* \"#utility.yul\":7:82   */\n    tag_159:\n        /* \"#utility.yul\":40:46   */\n      0x00\n        /* \"#utility.yul\":73:75   */\n      0x40\n        /* \"#utility.yul\":67:76   */\n      mload\n        /* \"#utility.yul\":57:76   */\n      swap1\n      pop\n        /* \"#utility.yul\":7:82   */\n      swap1\n      jump\t// out\n        /* \"#utility.yul\":88:205   */\n    tag_160:\n        /* \"#utility.yul\":197:198   */\n      0x00\n        /* \"#utility.yul\":194:195   */\n      dup1\n        /* \"#utility.yul\":187:199   */\n      revert\n        /* \"#utility.yul\":211:328   */\n    tag_161:\n        /* \"#utility.yul\":320:321   */\n      0x00\n        /* \"#utility.yul\":317:318   */\n      dup1\n        /* \"#utility.yul\":310:322   */\n      revert\n        /* \"#utility.yul\":334:460   */\n    tag_162:\n        /* \"#utility.yul\":371:378   */\n      0x00\n        /* \"#utility.yul\":411:453   */\n      0xffffffffffffffffffffffffffffffffffffffff\n        /* \"#utility.yul\":404:409   */\n      dup3\n        /* \"#utility.yul\":400:454   */\n      and\n        /* \"#utility.yul\":389:454   */\n      swap1\n      pop\n        /* \"#utility.yul\":334:460   */\n      swap2\n      swap1\n      pop\n      jump\t// out\n        /* \"#utility.yul\":466:562   */\n    tag_163:\n        /* \"#utility.yul\":503:510   */\n      0x00\n        /* \"#utility.yul\":532:556   */\n      tag_220\n        /* \"#utility.yul\":550:555   */\n      dup3\n        /* \"#utility.yul\":532:556   */\n      tag_162\n      jump\t// in\n    tag_220:\n        /* \"#utility.yul\":521:556   */\n      swap1\n      pop\n        /* \"#utility.yul\":466:562   */\n      swap2\n      swap1\n      pop\n      jump\t// out\n        /* \"#utility.yul\":568:690   */\n    tag_164:\n        /* \"#utility.yul\":641:665   */\n      tag_222\n        /* \"#utility.yul\":659:664   */\n      dup2\n        /* \"#utility.yul\":641:665   */\n      tag_163\n      jump\t// in\n    tag_222:\n        /* \"#utility.yul\":634:639   */\n      dup2\n        /* \"#utility.yul\":631:666   */\n      eq\n        /* \"#utility.yul\":621:684   */\n      tag_223\n      jumpi\n        /* \"#utility.yul\":680:681   */\n      0x00\n        /* \"#utility.yul\":677:678   */\n      dup1\n        /* \"#utility.yul\":670:682   */\n      revert\n        /* \"#utility.yul\":621:684   */\n    tag_223:\n        /* \"#utility.yul\":568:690   */\n      pop\n      jump\t// out\n        /* \"#utility.yul\":696:835   */\n    tag_165:\n        /* \"#utility.yul\":742:747   */\n      0x00\n        /* \"#utility.yul\":780:786   */\n      dup2\n        /* \"#utility.yul\":767:787   */\n      calldataload\n        /* \"#utility.yul\":758:787   */\n      swap1\n      pop\n        /* \"#utility.yul\":796:829   */\n      tag_225\n        /* \"#utility.yul\":823:828   */\n      dup2\n        /* \"#utility.yul\":796:829   */\n      tag_164\n      jump\t// in\n    tag_225:\n        /* \"#utility.yul\":696:835   */\n      swap3\n      swap2\n      pop\n      pop\n      jump\t// out\n        /* \"#utility.yul\":841:918   */\n    tag_166:\n        /* \"#utility.yul\":878:885   */\n      0x00\n        /* \"#utility.yul\":907:912   */\n      dup2\n        /* \"#utility.yul\":896:912   */\n      swap1\n      pop\n        /* \"#utility.yul\":841:918   */\n      swap2\n      swap1\n      pop\n      jump\t// out\n        /* \"#utility.yul\":924:1046   */\n    tag_167:\n        /* \"#utility.yul\":997:1021   */\n      tag_228\n        /* \"#utility.yul\":1015:1020   */\n      dup2\n        /* \"#utility.yul\":997:1021   */\n      tag_166\n      jump\t// in\n    tag_228:\n        /* \"#utility.yul\":990:995   */\n      dup2\n        /* \"#utility.yul\":987:1022   */\n      eq\n        /* \"#utility.yul\":977:1040   */\n      tag_229\n      jumpi\n        /* \"#utility.yul\":1036:1037   */\n      0x00\n        /* \"#utility.yul\":1033:1034   */\n      dup1\n        /* \"#utility.yul\":1026:1038   */\n      revert\n        /* \"#utility.yul\":977:1040   */\n    tag_229:\n        /* \"#utility.yul\":924:1046   */\n      pop\n      jump\t// out\n        /* \"#utility.yul\":1052:1191   */\n    tag_168:\n        /* \"#utility.yul\":1098:1103   */\n      0x00\n        /* \"#utility.yul\":1136:1142   */\n      dup2\n        /* \"#utility.yul\":1123:1143   */\n      calldataload\n        /* \"#utility.yul\":1114:1143   */\n      swap1\n      pop\n        /* \"#utility.yul\":1152:1185   */\n      tag_231\n        /* \"#utility.yul\":1179:1184   */\n      dup2\n        /* \"#utility.yul\":1152:1185   */\n      tag_167\n      jump\t// in\n    tag_231:\n        /* \"#utility.yul\":1052:1191   */\n      swap3\n      swap2\n      pop\n      pop\n      jump\t// out\n        /* \"#utility.yul\":1197:1816   */\n    tag_16:\n        /* \"#utility.yul\":1274:1280   */\n      0x00\n        /* \"#utility.yul\":1282:1288   */\n      dup1\n        /* \"#utility.yul\":1290:1296   */\n      0x00\n        /* \"#utility.yul\":1339:1341   */\n      0x60\n        /* \"#utility.yul\":1327:1336   */\n      dup5\n        /* \"#utility.yul\":1318:1325   */\n      dup7\n        /* \"#utility.yul\":1314:1337   */\n      sub\n        /* \"#utility.yul\":1310:1342   */\n      slt\n        /* \"#utility.yul\":1307:1426   */\n      iszero\n      tag_233\n      jumpi\n        /* \"#utility.yul\":1345:1424   */\n      tag_234\n      tag_160\n      jump\t// in\n    tag_234:\n        /* \"#utility.yul\":1307:1426   */\n    tag_233:\n        /* \"#utility.yul\":1465:1466   */\n      0x00\n        /* \"#utility.yul\":1490:1543   */\n      tag_235\n        /* \"#utility.yul\":1535:1542   */\n      dup7\n        /* \"#utility.yul\":1526:1532   */\n      dup3\n        /* \"#utility.yul\":1515:1524   */\n      dup8\n        /* \"#utility.yul\":1511:1533   */\n      add\n        /* \"#utility.yul\":1490:1543   */\n      tag_165\n      jump\t// in\n    tag_235:\n        /* \"#utility.yul\":1480:1543   */\n      swap4\n      pop\n        /* \"#utility.yul\":1436:1553   */\n      pop\n        /* \"#utility.yul\":1592:1594   */\n      0x20\n        /* \"#utility.yul\":1618:1671   */\n      tag_236\n        /* \"#utility.yul\":1663:1670   */\n      dup7\n        /* \"#utility.yul\":1654:1660   */\n      dup3\n        /* \"#utility.yul\":1643:1652   */\n      dup8\n        /* \"#utility.yul\":1639:1661   */\n      add\n        /* \"#utility.yul\":1618:1671   */\n      tag_168\n      jump\t// in\n    tag_236:\n        /* \"#utility.yul\":1608:1671   */\n      swap3\n      pop\n        /* \"#utility.yul\":1563:1681   */\n      pop\n        /* \"#utility.yul\":1720:1722   */\n      0x40\n        /* \"#utility.yul\":1746:1799   */\n      tag_237\n        /* \"#utility.yul\":1791:1798   */\n      dup7\n        /* \"#utility.yul\":1782:1788   */\n      dup3\n        /* \"#utility.yul\":1771:1780   */\n      dup8\n        /* \"#utility.yul\":1767:1789   */\n      add\n        /* \"#utility.yul\":1746:1799   */\n      tag_168\n      jump\t// in\n    tag_237:\n        /* \"#utility.yul\":1736:1799   */\n      swap2\n      pop\n        /* \"#utility.yul\":1691:1809   */\n      pop\n        /* \"#utility.yul\":1197:1816   */\n      swap3\n      pop\n      swap3\n      pop\n      swap3\n      jump\t// out\n        /* \"#utility.yul\":1822:1939   */\n    tag_169:\n        /* \"#utility.yul\":1931:1932   */\n      0x00\n        /* \"#utility.yul\":1928:1929   */\n      dup1\n        /* \"#utility.yul\":1921:1933   */\n      revert\n        /* \"#utility.yul\":1945:2062   */\n    tag_170:\n        /* \"#utility.yul\":2054:2055   */\n      0x00\n        /* \"#utility.yul\":2051:2052   */\n      dup1\n        /* \"#utility.yul\":2044:2056   */\n      revert\n        /* \"#utility.yul\":2068:2170   */\n    tag_171:\n        /* \"#utility.yul\":2109:2115   */\n      0x00\n        /* \"#utility.yul\":2160:2162   */\n      0x1f\n        /* \"#utility.yul\":2156:2163   */\n      not\n        /* \"#utility.yul\":2151:2153   */\n      0x1f\n        /* \"#utility.yul\":2144:2149   */\n      dup4\n        /* \"#utility.yul\":2140:2154   */\n      add\n        /* \"#utility.yul\":2136:2164   */\n      and\n        /* \"#utility.yul\":2126:2164   */\n      swap1\n      pop\n        /* \"#utility.yul\":2068:2170   */\n      swap2\n      swap1\n      pop\n      jump\t// out\n        /* \"#utility.yul\":2176:2356   */\n    tag_172:\n        /* \"#utility.yul\":2224:2301   */\n      0x4e487b7100000000000000000000000000000000000000000000000000000000\n        /* \"#utility.yul\":2221:2222   */\n      0x00\n        /* \"#utility.yul\":2214:2302   */\n      mstore\n        /* \"#utility.yul\":2321:2325   */\n      0x41\n        /* \"#utility.yul\":2318:2319   */\n      0x04\n        /* \"#utility.yul\":2311:2326   */\n      mstore\n        /* \"#utility.yul\":2345:2349   */\n      0x24\n        /* \"#utility.yul\":2342:2343   */\n      0x00\n        /* \"#utility.yul\":2335:2350   */\n      revert\n        /* \"#utility.yul\":2362:2643   */\n    tag_173:\n        /* \"#utility.yul\":2445:2472   */\n      tag_243\n        /* \"#utility.yul\":2467:2471   */\n      dup3\n        /* \"#utility.yul\":2445:2472   */\n      tag_171\n      jump\t// in\n    tag_243:\n        /* \"#utility.yul\":2437:2443   */\n      dup2\n        /* \"#utility.yul\":2433:2473   */\n      add\n        /* \"#utility.yul\":2575:2581   */\n      dup2\n        /* \"#utility.yul\":2563:2573   */\n      dup2\n        /* \"#utility.yul\":2560:2582   */\n      lt\n        /* \"#utility.yul\":2539:2557   */\n      0xffffffffffffffff\n        /* \"#utility.yul\":2527:2537   */\n      dup3\n        /* \"#utility.yul\":2524:2558   */\n      gt\n        /* \"#utility.yul\":2521:2583   */\n      or\n        /* \"#utility.yul\":2518:2606   */\n      iszero\n      tag_244\n      jumpi\n        /* \"#utility.yul\":2586:2604   */\n      tag_245\n      tag_172\n      jump\t// in\n    tag_245:\n        /* \"#utility.yul\":2518:2606   */\n    tag_244:\n        /* \"#utility.yul\":2626:2636   */\n      dup1\n        /* \"#utility.yul\":2622:2624   */\n      0x40\n        /* \"#utility.yul\":2615:2637   */\n      mstore\n        /* \"#utility.yul\":2405:2643   */\n      pop\n        /* \"#utility.yul\":2362:2643   */\n      pop\n      pop\n      jump\t// out\n        /* \"#utility.yul\":2649:2778   */\n    tag_174:\n        /* \"#utility.yul\":2683:2689   */\n      0x00\n        /* \"#utility.yul\":2710:2730   */\n      tag_247\n      tag_159\n      jump\t// in\n    tag_247:\n        /* \"#utility.yul\":2700:2730   */\n      swap1\n      pop\n        /* \"#utility.yul\":2739:2772   */\n      tag_248\n        /* \"#utility.yul\":2767:2771   */\n      dup3\n        /* \"#utility.yul\":2759:2765   */\n      dup3\n        /* \"#utility.yul\":2739:2772   */\n      tag_173\n      jump\t// in\n    tag_248:\n        /* \"#utility.yul\":2649:2778   */\n      swap2\n      swap1\n      pop\n      jump\t// out\n        /* \"#utility.yul\":2784:3092   */\n    tag_175:\n        /* \"#utility.yul\":2846:2850   */\n      0x00\n        /* \"#utility.yul\":2936:2954   */\n      0xffffffffffffffff\n        /* \"#utility.yul\":2928:2934   */\n      dup3\n        /* \"#utility.yul\":2925:2955   */\n      gt\n        /* \"#utility.yul\":2922:2978   */\n      iszero\n      tag_250\n      jumpi\n        /* \"#utility.yul\":2958:2976   */\n      tag_251\n      tag_172\n      jump\t// in\n    tag_251:\n        /* \"#utility.yul\":2922:2978   */\n    tag_250:\n        /* \"#utility.yul\":2996:3025   */\n      tag_252\n        /* \"#utility.yul\":3018:3024   */\n      dup3\n        /* \"#utility.yul\":2996:3025   */\n      tag_171\n      jump\t// in\n    tag_252:\n        /* \"#utility.yul\":2988:3025   */\n      swap1\n      pop\n        /* \"#utility.yul\":3080:3084   */\n      0x20\n        /* \"#utility.yul\":3074:3078   */\n      dup2\n        /* \"#utility.yul\":3070:3085   */\n      add\n        /* \"#utility.yul\":3062:3085   */\n      swap1\n      pop\n        /* \"#utility.yul\":2784:3092   */\n      swap2\n      swap1\n      pop\n      jump\t// out\n        /* \"#utility.yul\":3098:3244   */\n    tag_176:\n        /* \"#utility.yul\":3195:3201   */\n      dup3\n        /* \"#utility.yul\":3190:3193   */\n      dup2\n        /* \"#utility.yul\":3185:3188   */\n      dup4\n        /* \"#utility.yul\":3172:3202   */\n      calldatacopy\n        /* \"#utility.yul\":3236:3237   */\n      0x00\n        /* \"#utility.yul\":3227:3233   */\n      dup4\n        /* \"#utility.yul\":3222:3225   */\n      dup4\n        /* \"#utility.yul\":3218:3234   */\n      add\n        /* \"#utility.yul\":3211:3238   */\n      mstore\n        /* \"#utility.yul\":3098:3244   */\n      pop\n      pop\n      pop\n      jump\t// out\n        /* \"#utility.yul\":3250:3675   */\n    tag_177:\n        /* \"#utility.yul\":3328:3333   */\n      0x00\n        /* \"#utility.yul\":3353:3419   */\n      tag_255\n        /* \"#utility.yul\":3369:3418   */\n      tag_256\n        /* \"#utility.yul\":3411:3417   */\n      dup5\n        /* \"#utility.yul\":3369:3418   */\n      tag_175\n      jump\t// in\n    tag_256:\n        /* \"#utility.yul\":3353:3419   */\n      tag_174\n      jump\t// in\n    tag_255:\n        /* \"#utility.yul\":3344:3419   */\n      swap1\n      pop\n        /* \"#utility.yul\":3442:3448   */\n      dup3\n        /* \"#utility.yul\":3435:3440   */\n      dup2\n        /* \"#utility.yul\":3428:3449   */\n      mstore\n        /* \"#utility.yul\":3480:3484   */\n      0x20\n        /* \"#utility.yul\":3473:3478   */\n      dup2\n        /* \"#utility.yul\":3469:3485   */\n      add\n        /* \"#utility.yul\":3518:3521   */\n      dup5\n        /* \"#utility.yul\":3509:3515   */\n      dup5\n        /* \"#utility.yul\":3504:3507   */\n      dup5\n        /* \"#utility.yul\":3500:3516   */\n      add\n        /* \"#utility.yul\":3497:3522   */\n      gt\n        /* \"#utility.yul\":3494:3606   */\n      iszero\n      tag_257\n      jumpi\n        /* \"#utility.yul\":3525:3604   */\n      tag_258\n      tag_170\n      jump\t// in\n    tag_258:\n        /* \"#utility.yul\":3494:3606   */\n    tag_257:\n        /* \"#utility.yul\":3615:3669   */\n      tag_259\n        /* \"#utility.yul\":3662:3668   */\n      dup5\n        /* \"#utility.yul\":3657:3660   */\n      dup3\n        /* \"#utility.yul\":3652:3655   */\n      dup6\n        /* \"#utility.yul\":3615:3669   */\n      tag_176\n      jump\t// in\n    tag_259:\n        /* \"#utility.yul\":3334:3675   */\n      pop\n        /* \"#utility.yul\":3250:3675   */\n      swap4\n      swap3\n      pop\n      pop\n      pop\n      jump\t// out\n        /* \"#utility.yul\":3695:4035   */\n    tag_178:\n        /* \"#utility.yul\":3751:3756   */\n      0x00\n        /* \"#utility.yul\":3800:3803   */\n      dup3\n        /* \"#utility.yul\":3793:3797   */\n      0x1f\n        /* \"#utility.yul\":3785:3791   */\n      dup4\n        /* \"#utility.yul\":3781:3798   */\n      add\n        /* \"#utility.yul\":3777:3804   */\n      slt\n        /* \"#utility.yul\":3767:3889   */\n      tag_261\n      jumpi\n        /* \"#utility.yul\":3808:3887   */\n      tag_262\n      tag_169\n      jump\t// in\n    tag_262:\n        /* \"#utility.yul\":3767:3889   */\n    tag_261:\n        /* \"#utility.yul\":3925:3931   */\n      dup2\n        /* \"#utility.yul\":3912:3932   */\n      calldataload\n        /* \"#utility.yul\":3950:4029   */\n      tag_263\n        /* \"#utility.yul\":4025:4028   */\n      dup5\n        /* \"#utility.yul\":4017:4023   */\n      dup3\n        /* \"#utility.yul\":4010:4014   */\n      0x20\n        /* \"#utility.yul\":4002:4008   */\n      dup7\n        /* \"#utility.yul\":3998:4015   */\n      add\n        /* \"#utility.yul\":3950:4029   */\n      tag_177\n      jump\t// in\n    tag_263:\n        /* \"#utility.yul\":3941:4029   */\n      swap2\n      pop\n        /* \"#utility.yul\":3757:4035   */\n      pop\n        /* \"#utility.yul\":3695:4035   */\n      swap3\n      swap2\n      pop\n      pop\n      jump\t// out\n        /* \"#utility.yul\":4041:4875   */\n    tag_20:\n        /* \"#utility.yul\":4129:4135   */\n      0x00\n        /* \"#utility.yul\":4137:4143   */\n      dup1\n        /* \"#utility.yul\":4186:4188   */\n      0x40\n        /* \"#utility.yul\":4174:4183   */\n      dup4\n        /* \"#utility.yul\":4165:4172   */\n      dup6\n        /* \"#utility.yul\":4161:4184   */\n      sub\n        /* \"#utility.yul\":4157:4189   */\n      slt\n        /* \"#utility.yul\":4154:4273   */\n      iszero\n      tag_265\n      jumpi\n        /* \"#utility.yul\":4192:4271   */\n      tag_266\n      tag_160\n      jump\t// in\n    tag_266:\n        /* \"#utility.yul\":4154:4273   */\n    tag_265:\n        /* \"#utility.yul\":4340:4341   */\n      0x00\n        /* \"#utility.yul\":4329:4338   */\n      dup4\n        /* \"#utility.yul\":4325:4342   */\n      add\n        /* \"#utility.yul\":4312:4343   */\n      calldataload\n        /* \"#utility.yul\":4370:4388   */\n      0xffffffffffffffff\n        /* \"#utility.yul\":4362:4368   */\n      dup2\n        /* \"#utility.yul\":4359:4389   */\n      gt\n        /* \"#utility.yul\":4356:4473   */\n      iszero\n      tag_267\n      jumpi\n        /* \"#utility.yul\":4392:4471   */\n      tag_268\n      tag_161\n      jump\t// in\n    tag_268:\n        /* \"#utility.yul\":4356:4473   */\n    tag_267:\n        /* \"#utility.yul\":4497:4560   */\n      tag_269\n        /* \"#utility.yul\":4552:4559   */\n      dup6\n        /* \"#utility.yul\":4543:4549   */\n      dup3\n        /* \"#utility.yul\":4532:4541   */\n      dup7\n        /* \"#utility.yul\":4528:4550   */\n      add\n        /* \"#utility.yul\":4497:4560   */\n      tag_178\n      jump\t// in\n    tag_269:\n        /* \"#utility.yul\":4487:4560   */\n      swap3\n      pop\n        /* \"#utility.yul\":4283:4570   */\n      pop\n        /* \"#utility.yul\":4637:4639   */\n      0x20\n        /* \"#utility.yul\":4626:4635   */\n      dup4\n        /* \"#utility.yul\":4622:4640   */\n      add\n        /* \"#utility.yul\":4609:4641   */\n      calldataload\n        /* \"#utility.yul\":4668:4686   */\n      0xffffffffffffffff\n        /* \"#utility.yul\":4660:4666   */\n      dup2\n        /* \"#utility.yul\":4657:4687   */\n      gt\n        /* \"#utility.yul\":4654:4771   */\n      iszero\n      tag_270\n      jumpi\n        /* \"#utility.yul\":4690:4769   */\n      tag_271\n      tag_161\n      jump\t// in\n    tag_271:\n        /* \"#utility.yul\":4654:4771   */\n    tag_270:\n        /* \"#utility.yul\":4795:4858   */\n      tag_272\n        /* \"#utility.yul\":4850:4857   */\n      dup6\n        /* \"#utility.yul\":4841:4847   */\n      dup3\n        /* \"#utility.yul\":4830:4839   */\n      dup7\n        /* \"#utility.yul\":4826:4848   */\n      add\n        /* \"#utility.yul\":4795:4858   */\n      tag_178\n      jump\t// in\n    tag_272:\n        /* \"#utility.yul\":4785:4858   */\n      swap2\n      pop\n        /* \"#utility.yul\":4580:4868   */\n      pop\n        /* \"#utility.yul\":4041:4875   */\n      swap3\n      pop\n      swap3\n      swap1\n      pop\n      jump\t// out\n        /* \"#utility.yul\":4881:5210   */\n    tag_25:\n        /* \"#utility.yul\":4940:4946   */\n      0x00\n        /* \"#utility.yul\":4989:4991   */\n      0x20\n        /* \"#utility.yul\":4977:4986   */\n      dup3\n        /* \"#utility.yul\":4968:4975   */\n      dup5\n        /* \"#utility.yul\":4964:4987   */\n      sub\n        /* \"#utility.yul\":4960:4992   */\n      slt\n        /* \"#utility.yul\":4957:5076   */\n      iszero\n      tag_274\n      jumpi\n        /* \"#utility.yul\":4995:5074   */\n      tag_275\n      tag_160\n      jump\t// in\n    tag_275:\n        /* \"#utility.yul\":4957:5076   */\n    tag_274:\n        /* \"#utility.yul\":5115:5116   */\n      0x00\n        /* \"#utility.yul\":5140:5193   */\n      tag_276\n        /* \"#utility.yul\":5185:5192   */\n      dup5\n        /* \"#utility.yul\":5176:5182   */\n      dup3\n        /* \"#utility.yul\":5165:5174   */\n      dup6\n        /* \"#utility.yul\":5161:5183   */\n      add\n        /* \"#utility.yul\":5140:5193   */\n      tag_165\n      jump\t// in\n    tag_276:\n        /* \"#utility.yul\":5130:5193   */\n      swap2\n      pop\n        /* \"#utility.yul\":5086:5203   */\n      pop\n        /* \"#utility.yul\":4881:5210   */\n      swap3\n      swap2\n      pop\n      pop\n      jump\t// out\n        /* \"#utility.yul\":5216:5334   */\n    tag_179:\n        /* \"#utility.yul\":5303:5327   */\n      tag_278\n        /* \"#utility.yul\":5321:5326   */\n      dup2\n        /* \"#utility.yul\":5303:5327   */\n      tag_166\n      jump\t// in\n    tag_278:\n        /* \"#utility.yul\":5298:5301   */\n      dup3\n        /* \"#utility.yul\":5291:5328   */\n      mstore\n        /* \"#utility.yul\":5216:5334   */\n      pop\n      pop\n      jump\t// out\n        /* \"#utility.yul\":5340:5562   */\n    tag_28:\n        /* \"#utility.yul\":5433:5437   */\n      0x00\n        /* \"#utility.yul\":5471:5473   */\n      0x20\n        /* \"#utility.yul\":5460:5469   */\n      dup3\n        /* \"#utility.yul\":5456:5474   */\n      add\n        /* \"#utility.yul\":5448:5474   */\n      swap1\n      pop\n        /* \"#utility.yul\":5484:5555   */\n      tag_280\n        /* \"#utility.yul\":5552:5553   */\n      0x00\n        /* \"#utility.yul\":5541:5550   */\n      dup4\n        /* \"#utility.yul\":5537:5554   */\n      add\n        /* \"#utility.yul\":5528:5534   */\n      dup5\n        /* \"#utility.yul\":5484:5555   */\n      tag_179\n      jump\t// in\n    tag_280:\n        /* \"#utility.yul\":5340:5562   */\n      swap3\n      swap2\n      pop\n      pop\n      jump\t// out\n        /* \"#utility.yul\":5568:5686   */\n    tag_180:\n        /* \"#utility.yul\":5655:5679   */\n      tag_282\n        /* \"#utility.yul\":5673:5678   */\n      dup2\n        /* \"#utility.yul\":5655:5679   */\n      tag_163\n      jump\t// in\n    tag_282:\n        /* \"#utility.yul\":5650:5653   */\n      dup3\n        /* \"#utility.yul\":5643:5680   */\n      mstore\n        /* \"#utility.yul\":5568:5686   */\n      pop\n      pop\n      jump\t// out\n        /* \"#utility.yul\":5692:5791   */\n    tag_181:\n        /* \"#utility.yul\":5744:5750   */\n      0x00\n        /* \"#utility.yul\":5778:5783   */\n      dup2\n        /* \"#utility.yul\":5772:5784   */\n      mload\n        /* \"#utility.yul\":5762:5784   */\n      swap1\n      pop\n        /* \"#utility.yul\":5692:5791   */\n      swap2\n      swap1\n      pop\n      jump\t// out\n        /* \"#utility.yul\":5797:5966   */\n    tag_182:\n        /* \"#utility.yul\":5881:5892   */\n      0x00\n        /* \"#utility.yul\":5915:5921   */\n      dup3\n        /* \"#utility.yul\":5910:5913   */\n      dup3\n        /* \"#utility.yul\":5903:5922   */\n      mstore\n        /* \"#utility.yul\":5955:5959   */\n      0x20\n        /* \"#utility.yul\":5950:5953   */\n      dup3\n        /* \"#utility.yul\":5946:5960   */\n      add\n        /* \"#utility.yul\":5931:5960   */\n      swap1\n      pop\n        /* \"#utility.yul\":5797:5966   */\n      swap3\n      swap2\n      pop\n      pop\n      jump\t// out\n        /* \"#utility.yul\":5972:6218   */\n    tag_183:\n        /* \"#utility.yul\":6053:6054   */\n      0x00\n        /* \"#utility.yul\":6063:6176   */\n    tag_286:\n        /* \"#utility.yul\":6077:6083   */\n      dup4\n        /* \"#utility.yul\":6074:6075   */\n      dup2\n        /* \"#utility.yul\":6071:6084   */\n      lt\n        /* \"#utility.yul\":6063:6176   */\n      iszero\n      tag_288\n      jumpi\n        /* \"#utility.yul\":6162:6163   */\n      dup1\n        /* \"#utility.yul\":6157:6160   */\n      dup3\n        /* \"#utility.yul\":6153:6164   */\n      add\n        /* \"#utility.yul\":6147:6165   */\n      mload\n        /* \"#utility.yul\":6143:6144   */\n      dup2\n        /* \"#utility.yul\":6138:6141   */\n      dup5\n        /* \"#utility.yul\":6134:6145   */\n      add\n        /* \"#utility.yul\":6127:6166   */\n      mstore\n        /* \"#utility.yul\":6099:6101   */\n      0x20\n        /* \"#utility.yul\":6096:6097   */\n      dup2\n        /* \"#utility.yul\":6092:6102   */\n      add\n        /* \"#utility.yul\":6087:6102   */\n      swap1\n      pop\n        /* \"#utility.yul\":6063:6176   */\n      jump(tag_286)\n    tag_288:\n        /* \"#utility.yul\":6210:6211   */\n      0x00\n        /* \"#utility.yul\":6201:6207   */\n      dup5\n        /* \"#utility.yul\":6196:6199   */\n      dup5\n        /* \"#utility.yul\":6192:6208   */\n      add\n        /* \"#utility.yul\":6185:6212   */\n      mstore\n        /* \"#utility.yul\":6034:6218   */\n      pop\n        /* \"#utility.yul\":5972:6218   */\n      pop\n      pop\n      pop\n      jump\t// out\n        /* \"#utility.yul\":6224:6601   */\n    tag_184:\n        /* \"#utility.yul\":6312:6315   */\n      0x00\n        /* \"#utility.yul\":6340:6379   */\n      tag_290\n        /* \"#utility.yul\":6373:6378   */\n      dup3\n        /* \"#utility.yul\":6340:6379   */\n      tag_181\n      jump\t// in\n    tag_290:\n        /* \"#utility.yul\":6395:6466   */\n      tag_291\n        /* \"#utility.yul\":6459:6465   */\n      dup2\n        /* \"#utility.yul\":6454:6457   */\n      dup6\n        /* \"#utility.yul\":6395:6466   */\n      tag_182\n      jump\t// in\n    tag_291:\n        /* \"#utility.yul\":6388:6466   */\n      swap4\n      pop\n        /* \"#utility.yul\":6475:6540   */\n      tag_292\n        /* \"#utility.yul\":6533:6539   */\n      dup2\n        /* \"#utility.yul\":6528:6531   */\n      dup6\n        /* \"#utility.yul\":6521:6525   */\n      0x20\n        /* \"#utility.yul\":6514:6519   */\n      dup7\n        /* \"#utility.yul\":6510:6526   */\n      add\n        /* \"#utility.yul\":6475:6540   */\n      tag_183\n      jump\t// in\n    tag_292:\n        /* \"#utility.yul\":6565:6594   */\n      tag_293\n        /* \"#utility.yul\":6587:6593   */\n      dup2\n        /* \"#utility.yul\":6565:6594   */\n      tag_171\n      jump\t// in\n    tag_293:\n        /* \"#utility.yul\":6560:6563   */\n      dup5\n        /* \"#utility.yul\":6556:6595   */\n      add\n        /* \"#utility.yul\":6549:6595   */\n      swap2\n      pop\n        /* \"#utility.yul\":6316:6601   */\n      pop\n        /* \"#utility.yul\":6224:6601   */\n      swap3\n      swap2\n      pop\n      pop\n      jump\t// out\n        /* \"#utility.yul\":6607:7584   */\n    tag_34:\n        /* \"#utility.yul\":6888:6892   */\n      0x00\n        /* \"#utility.yul\":6926:6929   */\n      0xe0\n        /* \"#utility.yul\":6915:6924   */\n      dup3\n        /* \"#utility.yul\":6911:6930   */\n      add\n        /* \"#utility.yul\":6903:6930   */\n      swap1\n      pop\n        /* \"#utility.yul\":6940:7011   */\n      tag_295\n        /* \"#utility.yul\":7008:7009   */\n      0x00\n        /* \"#utility.yul\":6997:7006   */\n      dup4\n        /* \"#utility.yul\":6993:7010   */\n      add\n        /* \"#utility.yul\":6984:6990   */\n      dup11\n        /* \"#utility.yul\":6940:7011   */\n      tag_180\n      jump\t// in\n    tag_295:\n        /* \"#utility.yul\":7058:7067   */\n      dup2\n        /* \"#utility.yul\":7052:7056   */\n      dup2\n        /* \"#utility.yul\":7048:7068   */\n      sub\n        /* \"#utility.yul\":7043:7045   */\n      0x20\n        /* \"#utility.yul\":7032:7041   */\n      dup4\n        /* \"#utility.yul\":7028:7046   */\n      add\n        /* \"#utility.yul\":7021:7069   */\n      mstore\n        /* \"#utility.yul\":7086:7164   */\n      tag_296\n        /* \"#utility.yul\":7159:7163   */\n      dup2\n        /* \"#utility.yul\":7150:7156   */\n      dup10\n        /* \"#utility.yul\":7086:7164   */\n      tag_184\n      jump\t// in\n    tag_296:\n        /* \"#utility.yul\":7078:7164   */\n      swap1\n      pop\n        /* \"#utility.yul\":7174:7246   */\n      tag_297\n        /* \"#utility.yul\":7242:7244   */\n      0x40\n        /* \"#utility.yul\":7231:7240   */\n      dup4\n        /* \"#utility.yul\":7227:7245   */\n      add\n        /* \"#utility.yul\":7218:7224   */\n      dup9\n        /* \"#utility.yul\":7174:7246   */\n      tag_179\n      jump\t// in\n    tag_297:\n        /* \"#utility.yul\":7256:7328   */\n      tag_298\n        /* \"#utility.yul\":7324:7326   */\n      0x60\n        /* \"#utility.yul\":7313:7322   */\n      dup4\n        /* \"#utility.yul\":7309:7327   */\n      add\n        /* \"#utility.yul\":7300:7306   */\n      dup8\n        /* \"#utility.yul\":7256:7328   */\n      tag_179\n      jump\t// in\n    tag_298:\n        /* \"#utility.yul\":7338:7411   */\n      tag_299\n        /* \"#utility.yul\":7406:7409   */\n      0x80\n        /* \"#utility.yul\":7395:7404   */\n      dup4\n        /* \"#utility.yul\":7391:7410   */\n      add\n        /* \"#utility.yul\":7382:7388   */\n      dup7\n        /* \"#utility.yul\":7338:7411   */\n      tag_179\n      jump\t// in\n    tag_299:\n        /* \"#utility.yul\":7421:7494   */\n      tag_300\n        /* \"#utility.yul\":7489:7492   */\n      0xa0\n        /* \"#utility.yul\":7478:7487   */\n      dup4\n        /* \"#utility.yul\":7474:7493   */\n      add\n        /* \"#utility.yul\":7465:7471   */\n      dup6\n        /* \"#utility.yul\":7421:7494   */\n      tag_179\n      jump\t// in\n    tag_300:\n        /* \"#utility.yul\":7504:7577   */\n      tag_301\n        /* \"#utility.yul\":7572:7575   */\n      0xc0\n        /* \"#utility.yul\":7561:7570   */\n      dup4\n        /* \"#utility.yul\":7557:7576   */\n      add\n        /* \"#utility.yul\":7548:7554   */\n      dup5\n        /* \"#utility.yul\":7504:7577   */\n      tag_179\n      jump\t// in\n    tag_301:\n        /* \"#utility.yul\":6607:7584   */\n      swap9\n      swap8\n      pop\n      pop\n      pop\n      pop\n      pop\n      pop\n      pop\n      pop\n      jump\t// out\n        /* \"#utility.yul\":7590:8355   */\n    tag_38:\n        /* \"#utility.yul\":7676:7682   */\n      0x00\n        /* \"#utility.yul\":7684:7690   */\n      dup1\n        /* \"#utility.yul\":7692:7698   */\n      0x00\n        /* \"#utility.yul\":7700:7706   */\n      dup1\n        /* \"#utility.yul\":7749:7752   */\n      0x80\n        /* \"#utility.yul\":7737:7746   */\n      dup6\n        /* \"#utility.yul\":7728:7735   */\n      dup8\n        /* \"#utility.yul\":7724:7747   */\n      sub\n        /* \"#utility.yul\":7720:7753   */\n      slt\n        /* \"#utility.yul\":7717:7837   */\n      iszero\n      tag_303\n      jumpi\n        /* \"#utility.yul\":7756:7835   */\n      tag_304\n      tag_160\n      jump\t// in\n    tag_304:\n        /* \"#utility.yul\":7717:7837   */\n    tag_303:\n        /* \"#utility.yul\":7876:7877   */\n      0x00\n        /* \"#utility.yul\":7901:7954   */\n      tag_305\n        /* \"#utility.yul\":7946:7953   */\n      dup8\n        /* \"#utility.yul\":7937:7943   */\n      dup3\n        /* \"#utility.yul\":7926:7935   */\n      dup9\n        /* \"#utility.yul\":7922:7944   */\n      add\n        /* \"#utility.yul\":7901:7954   */\n      tag_165\n      jump\t// in\n    tag_305:\n        /* \"#utility.yul\":7891:7954   */\n      swap5\n      pop\n        /* \"#utility.yul\":7847:7964   */\n      pop\n        /* \"#utility.yul\":8003:8005   */\n      0x20\n        /* \"#utility.yul\":8029:8082   */\n      tag_306\n        /* \"#utility.yul\":8074:8081   */\n      dup8\n        /* \"#utility.yul\":8065:8071   */\n      dup3\n        /* \"#utility.yul\":8054:8063   */\n      dup9\n        /* \"#utility.yul\":8050:8072   */\n      add\n        /* \"#utility.yul\":8029:8082   */\n      tag_168\n      jump\t// in\n    tag_306:\n        /* \"#utility.yul\":8019:8082   */\n      swap4\n      pop\n        /* \"#utility.yul\":7974:8092   */\n      pop\n        /* \"#utility.yul\":8131:8133   */\n      0x40\n        /* \"#utility.yul\":8157:8210   */\n      tag_307\n        /* \"#utility.yul\":8202:8209   */\n      dup8\n        /* \"#utility.yul\":8193:8199   */\n      dup3\n        /* \"#utility.yul\":8182:8191   */\n      dup9\n        /* \"#utility.yul\":8178:8200   */\n      add\n        /* \"#utility.yul\":8157:8210   */\n      tag_168\n      jump\t// in\n    tag_307:\n        /* \"#utility.yul\":8147:8210   */\n      swap3\n      pop\n        /* \"#utility.yul\":8102:8220   */\n      pop\n        /* \"#utility.yul\":8259:8261   */\n      0x60\n        /* \"#utility.yul\":8285:8338   */\n      tag_308\n        /* \"#utility.yul\":8330:8337   */\n      dup8\n        /* \"#utility.yul\":8321:8327   */\n      dup3\n        /* \"#utility.yul\":8310:8319   */\n      dup9\n        /* \"#utility.yul\":8306:8328   */\n      add\n        /* \"#utility.yul\":8285:8338   */\n      tag_168\n      jump\t// in\n    tag_308:\n        /* \"#utility.yul\":8275:8338   */\n      swap2\n      pop\n        /* \"#utility.yul\":8230:8348   */\n      pop\n        /* \"#utility.yul\":7590:8355   */\n      swap3\n      swap6\n      swap2\n      swap5\n      pop\n      swap3\n      pop\n      jump\t// out\n        /* \"#utility.yul\":8361:8690   */\n    tag_43:\n        /* \"#utility.yul\":8420:8426   */\n      0x00\n        /* \"#utility.yul\":8469:8471   */\n      0x20\n        /* \"#utility.yul\":8457:8466   */\n      dup3\n        /* \"#utility.yul\":8448:8455   */\n      dup5\n        /* \"#utility.yul\":8444:8467   */\n      sub\n        /* \"#utility.yul\":8440:8472   */\n      slt\n        /* \"#utility.yul\":8437:8556   */\n      iszero\n      tag_310\n      jumpi\n        /* \"#utility.yul\":8475:8554   */\n      tag_311\n      tag_160\n      jump\t// in\n    tag_311:\n        /* \"#utility.yul\":8437:8556   */\n    tag_310:\n        /* \"#utility.yul\":8595:8596   */\n      0x00\n        /* \"#utility.yul\":8620:8673   */\n      tag_312\n        /* \"#utility.yul\":8665:8672   */\n      dup5\n        /* \"#utility.yul\":8656:8662   */\n      dup3\n        /* \"#utility.yul\":8645:8654   */\n      dup6\n        /* \"#utility.yul\":8641:8663   */\n      add\n        /* \"#utility.yul\":8620:8673   */\n      tag_168\n      jump\t// in\n    tag_312:\n        /* \"#utility.yul\":8610:8673   */\n      swap2\n      pop\n        /* \"#utility.yul\":8566:8683   */\n      pop\n        /* \"#utility.yul\":8361:8690   */\n      swap3\n      swap2\n      pop\n      pop\n      jump\t// out\n        /* \"#utility.yul\":8696:8876   */\n    tag_75:\n        /* \"#utility.yul\":8744:8821   */\n      0x4e487b7100000000000000000000000000000000000000000000000000000000\n        /* \"#utility.yul\":8741:8742   */\n      0x00\n        /* \"#utility.yul\":8734:8822   */\n      mstore\n        /* \"#utility.yul\":8841:8845   */\n      0x21\n        /* \"#utility.yul\":8838:8839   */\n      0x04\n        /* \"#utility.yul\":8831:8846   */\n      mstore\n        /* \"#utility.yul\":8865:8869   */\n      0x24\n        /* \"#utility.yul\":8862:8863   */\n      0x00\n        /* \"#utility.yul\":8855:8870   */\n      revert\n        /* \"#utility.yul\":8882:9000   */\n    tag_185:\n        /* \"#utility.yul\":8968:8969   */\n      0x02\n        /* \"#utility.yul\":8961:8966   */\n      dup2\n        /* \"#utility.yul\":8958:8970   */\n      lt\n        /* \"#utility.yul\":8948:8994   */\n      tag_315\n      jumpi\n        /* \"#utility.yul\":8974:8992   */\n      tag_316\n      tag_75\n      jump\t// in\n    tag_316:\n        /* \"#utility.yul\":8948:8994   */\n    tag_315:\n        /* \"#utility.yul\":8882:9000   */\n      pop\n      jump\t// out\n        /* \"#utility.yul\":9006:9143   */\n    tag_186:\n        /* \"#utility.yul\":9056:9063   */\n      0x00\n        /* \"#utility.yul\":9085:9090   */\n      dup2\n        /* \"#utility.yul\":9074:9090   */\n      swap1\n      pop\n        /* \"#utility.yul\":9091:9137   */\n      tag_318\n        /* \"#utility.yul\":9131:9136   */\n      dup3\n        /* \"#utility.yul\":9091:9137   */\n      tag_185\n      jump\t// in\n    tag_318:\n        /* \"#utility.yul\":9006:9143   */\n      swap2\n      swap1\n      pop\n      jump\t// out\n        /* \"#utility.yul\":9149:9286   */\n    tag_187:\n        /* \"#utility.yul\":9210:9219   */\n      0x00\n        /* \"#utility.yul\":9243:9280   */\n      tag_320\n        /* \"#utility.yul\":9274:9279   */\n      dup3\n        /* \"#utility.yul\":9243:9280   */\n      tag_186\n      jump\t// in\n    tag_320:\n        /* \"#utility.yul\":9230:9280   */\n      swap1\n      pop\n        /* \"#utility.yul\":9149:9286   */\n      swap2\n      swap1\n      pop\n      jump\t// out\n        /* \"#utility.yul\":9292:9445   */\n    tag_188:\n        /* \"#utility.yul\":9390:9438   */\n      tag_322\n        /* \"#utility.yul\":9432:9437   */\n      dup2\n        /* \"#utility.yul\":9390:9438   */\n      tag_187\n      jump\t// in\n    tag_322:\n        /* \"#utility.yul\":9385:9388   */\n      dup3\n        /* \"#utility.yul\":9378:9439   */\n      mstore\n        /* \"#utility.yul\":9292:9445   */\n      pop\n      pop\n      jump\t// out\n        /* \"#utility.yul\":9451:10117   */\n    tag_46:\n        /* \"#utility.yul\":9659:9663   */\n      0x00\n        /* \"#utility.yul\":9697:9700   */\n      0x80\n        /* \"#utility.yul\":9686:9695   */\n      dup3\n        /* \"#utility.yul\":9682:9701   */\n      add\n        /* \"#utility.yul\":9674:9701   */\n      swap1\n      pop\n        /* \"#utility.yul\":9747:9756   */\n      dup2\n        /* \"#utility.yul\":9741:9745   */\n      dup2\n        /* \"#utility.yul\":9737:9757   */\n      sub\n        /* \"#utility.yul\":9733:9734   */\n      0x00\n        /* \"#utility.yul\":9722:9731   */\n      dup4\n        /* \"#utility.yul\":9718:9735   */\n      add\n        /* \"#utility.yul\":9711:9758   */\n      mstore\n        /* \"#utility.yul\":9775:9853   */\n      tag_324\n        /* \"#utility.yul\":9848:9852   */\n      dup2\n        /* \"#utility.yul\":9839:9845   */\n      dup8\n        /* \"#utility.yul\":9775:9853   */\n      tag_184\n      jump\t// in\n    tag_324:\n        /* \"#utility.yul\":9767:9853   */\n      swap1\n      pop\n        /* \"#utility.yul\":9863:9935   */\n      tag_325\n        /* \"#utility.yul\":9931:9933   */\n      0x20\n        /* \"#utility.yul\":9920:9929   */\n      dup4\n        /* \"#utility.yul\":9916:9934   */\n      add\n        /* \"#utility.yul\":9907:9913   */\n      dup7\n        /* \"#utility.yul\":9863:9935   */\n      tag_179\n      jump\t// in\n    tag_325:\n        /* \"#utility.yul\":9945:10017   */\n      tag_326\n        /* \"#utility.yul\":10013:10015   */\n      0x40\n        /* \"#utility.yul\":10002:10011   */\n      dup4\n        /* \"#utility.yul\":9998:10016   */\n      add\n        /* \"#utility.yul\":9989:9995   */\n      dup6\n        /* \"#utility.yul\":9945:10017   */\n      tag_179\n      jump\t// in\n    tag_326:\n        /* \"#utility.yul\":10027:10110   */\n      tag_327\n        /* \"#utility.yul\":10106:10108   */\n      0x60\n        /* \"#utility.yul\":10095:10104   */\n      dup4\n        /* \"#utility.yul\":10091:10109   */\n      add\n        /* \"#utility.yul\":10082:10088   */\n      dup5\n        /* \"#utility.yul\":10027:10110   */\n      tag_188\n      jump\t// in\n    tag_327:\n        /* \"#utility.yul\":9451:10117   */\n      swap6\n      swap5\n      pop\n      pop\n      pop\n      pop\n      pop\n      jump\t// out\n        /* \"#utility.yul\":10123:10777   */\n    tag_59:\n        /* \"#utility.yul\":10201:10207   */\n      0x00\n        /* \"#utility.yul\":10209:10215   */\n      dup1\n        /* \"#utility.yul\":10258:10260   */\n      0x40\n        /* \"#utility.yul\":10246:10255   */\n      dup4\n        /* \"#utility.yul\":10237:10244   */\n      dup6\n        /* \"#utility.yul\":10233:10256   */\n      sub\n        /* \"#utility.yul\":10229:10261   */\n      slt\n        /* \"#utility.yul\":10226:10345   */\n      iszero\n      tag_329\n      jumpi\n        /* \"#utility.yul\":10264:10343   */\n      tag_330\n      tag_160\n      jump\t// in\n    tag_330:\n        /* \"#utility.yul\":10226:10345   */\n    tag_329:\n        /* \"#utility.yul\":10412:10413   */\n      0x00\n        /* \"#utility.yul\":10401:10410   */\n      dup4\n        /* \"#utility.yul\":10397:10414   */\n      add\n        /* \"#utility.yul\":10384:10415   */\n      calldataload\n        /* \"#utility.yul\":10442:10460   */\n      0xffffffffffffffff\n        /* \"#utility.yul\":10434:10440   */\n      dup2\n        /* \"#utility.yul\":10431:10461   */\n      gt\n        /* \"#utility.yul\":10428:10545   */\n      iszero\n      tag_331\n      jumpi\n        /* \"#utility.yul\":10464:10543   */\n      tag_332\n      tag_161\n      jump\t// in\n    tag_332:\n        /* \"#utility.yul\":10428:10545   */\n    tag_331:\n        /* \"#utility.yul\":10569:10632   */\n      tag_333\n        /* \"#utility.yul\":10624:10631   */\n      dup6\n        /* \"#utility.yul\":10615:10621   */\n      dup3\n        /* \"#utility.yul\":10604:10613   */\n      dup7\n        /* \"#utility.yul\":10600:10622   */\n      add\n        /* \"#utility.yul\":10569:10632   */\n      tag_178\n      jump\t// in\n    tag_333:\n        /* \"#utility.yul\":10559:10632   */\n      swap3\n      pop\n        /* \"#utility.yul\":10355:10642   */\n      pop\n        /* \"#utility.yul\":10681:10683   */\n      0x20\n        /* \"#utility.yul\":10707:10760   */\n      tag_334\n        /* \"#utility.yul\":10752:10759   */\n      dup6\n        /* \"#utility.yul\":10743:10749   */\n      dup3\n        /* \"#utility.yul\":10732:10741   */\n      dup7\n        /* \"#utility.yul\":10728:10750   */\n      add\n        /* \"#utility.yul\":10707:10760   */\n      tag_168\n      jump\t// in\n    tag_334:\n        /* \"#utility.yul\":10697:10760   */\n      swap2\n      pop\n        /* \"#utility.yul\":10652:10770   */\n      pop\n        /* \"#utility.yul\":10123:10777   */\n      swap3\n      pop\n      swap3\n      swap1\n      pop\n      jump\t// out\n        /* \"#utility.yul\":10783:11008   */\n    tag_189:\n        /* \"#utility.yul\":10923:10957   */\n      0x42696b65206973206e6f74206176696c61626c6520666f722074686973206475\n        /* \"#utility.yul\":10919:10920   */\n      0x00\n        /* \"#utility.yul\":10911:10917   */\n      dup3\n        /* \"#utility.yul\":10907:10921   */\n      add\n        /* \"#utility.yul\":10900:10958   */\n      mstore\n        /* \"#utility.yul\":10992:11000   */\n      0x726174696f6e0000000000000000000000000000000000000000000000000000\n        /* \"#utility.yul\":10987:10989   */\n      0x20\n        /* \"#utility.yul\":10979:10985   */\n      dup3\n        /* \"#utility.yul\":10975:10990   */\n      add\n        /* \"#utility.yul\":10968:11001   */\n      mstore\n        /* \"#utility.yul\":10783:11008   */\n      pop\n      jump\t// out\n        /* \"#utility.yul\":11014:11380   */\n    tag_190:\n        /* \"#utility.yul\":11156:11159   */\n      0x00\n        /* \"#utility.yul\":11177:11244   */\n      tag_337\n        /* \"#utility.yul\":11241:11243   */\n      0x26\n        /* \"#utility.yul\":11236:11239   */\n      dup4\n        /* \"#utility.yul\":11177:11244   */\n      tag_182\n      jump\t// in\n    tag_337:\n        /* \"#utility.yul\":11170:11244   */\n      swap2\n      pop\n        /* \"#utility.yul\":11253:11346   */\n      tag_338\n        /* \"#utility.yul\":11342:11345   */\n      dup3\n        /* \"#utility.yul\":11253:11346   */\n      tag_189\n      jump\t// in\n    tag_338:\n        /* \"#utility.yul\":11371:11373   */\n      0x40\n        /* \"#utility.yul\":11366:11369   */\n      dup3\n        /* \"#utility.yul\":11362:11374   */\n      add\n        /* \"#utility.yul\":11355:11374   */\n      swap1\n      pop\n        /* \"#utility.yul\":11014:11380   */\n      swap2\n      swap1\n      pop\n      jump\t// out\n        /* \"#utility.yul\":11386:11805   */\n    tag_68:\n        /* \"#utility.yul\":11552:11556   */\n      0x00\n        /* \"#utility.yul\":11590:11592   */\n      0x20\n        /* \"#utility.yul\":11579:11588   */\n      dup3\n        /* \"#utility.yul\":11575:11593   */\n      add\n        /* \"#utility.yul\":11567:11593   */\n      swap1\n      pop\n        /* \"#utility.yul\":11639:11648   */\n      dup2\n        /* \"#utility.yul\":11633:11637   */\n      dup2\n        /* \"#utility.yul\":11629:11649   */\n      sub\n        /* \"#utility.yul\":11625:11626   */\n      0x00\n        /* \"#utility.yul\":11614:11623   */\n      dup4\n        /* \"#utility.yul\":11610:11627   */\n      add\n        /* \"#utility.yul\":11603:11650   */\n      mstore\n        /* \"#utility.yul\":11667:11798   */\n      tag_340\n        /* \"#utility.yul\":11793:11797   */\n      dup2\n        /* \"#utility.yul\":11667:11798   */\n      tag_190\n      jump\t// in\n    tag_340:\n        /* \"#utility.yul\":11659:11798   */\n      swap1\n      pop\n        /* \"#utility.yul\":11386:11805   */\n      swap2\n      swap1\n      pop\n      jump\t// out\n        /* \"#utility.yul\":11811:11991   */\n    tag_71:\n        /* \"#utility.yul\":11859:11936   */\n      0x4e487b7100000000000000000000000000000000000000000000000000000000\n        /* \"#utility.yul\":11856:11857   */\n      0x00\n        /* \"#utility.yul\":11849:11937   */\n      mstore\n        /* \"#utility.yul\":11956:11960   */\n      0x32\n        /* \"#utility.yul\":11953:11954   */\n      0x04\n        /* \"#utility.yul\":11946:11961   */\n      mstore\n        /* \"#utility.yul\":11980:11984   */\n      0x24\n        /* \"#utility.yul\":11977:11978   */\n      0x00\n        /* \"#utility.yul\":11970:11985   */\n      revert\n        /* \"#utility.yul\":11997:12171   */\n    tag_191:\n        /* \"#utility.yul\":12137:12163   */\n      0x506c656173652070617920323030206465706f736974652e0000000000000000\n        /* \"#utility.yul\":12133:12134   */\n      0x00\n        /* \"#utility.yul\":12125:12131   */\n      dup3\n        /* \"#utility.yul\":12121:12135   */\n      add\n        /* \"#utility.yul\":12114:12164   */\n      mstore\n        /* \"#utility.yul\":11997:12171   */\n      pop\n      jump\t// out\n        /* \"#utility.yul\":12177:12543   */\n    tag_192:\n        /* \"#utility.yul\":12319:12322   */\n      0x00\n        /* \"#utility.yul\":12340:12407   */\n      tag_344\n        /* \"#utility.yul\":12404:12406   */\n      0x18\n        /* \"#utility.yul\":12399:12402   */\n      dup4\n        /* \"#utility.yul\":12340:12407   */\n      tag_182\n      jump\t// in\n    tag_344:\n        /* \"#utility.yul\":12333:12407   */\n      swap2\n      pop\n        /* \"#utility.yul\":12416:12509   */\n      tag_345\n        /* \"#utility.yul\":12505:12508   */\n      dup3\n        /* \"#utility.yul\":12416:12509   */\n      tag_191\n      jump\t// in\n    tag_345:\n        /* \"#utility.yul\":12534:12536   */\n      0x20\n        /* \"#utility.yul\":12529:12532   */\n      dup3\n        /* \"#utility.yul\":12525:12537   */\n      add\n        /* \"#utility.yul\":12518:12537   */\n      swap1\n      pop\n        /* \"#utility.yul\":12177:12543   */\n      swap2\n      swap1\n      pop\n      jump\t// out\n        /* \"#utility.yul\":12549:12968   */\n    tag_79:\n        /* \"#utility.yul\":12715:12719   */\n      0x00\n        /* \"#utility.yul\":12753:12755   */\n      0x20\n        /* \"#utility.yul\":12742:12751   */\n      dup3\n        /* \"#utility.yul\":12738:12756   */\n      add\n        /* \"#utility.yul\":12730:12756   */\n      swap1\n      pop\n        /* \"#utility.yul\":12802:12811   */\n      dup2\n        /* \"#utility.yul\":12796:12800   */\n      dup2\n        /* \"#utility.yul\":12792:12812   */\n      sub\n        /* \"#utility.yul\":12788:12789   */\n      0x00\n        /* \"#utility.yul\":12777:12786   */\n      dup4\n        /* \"#utility.yul\":12773:12790   */\n      add\n        /* \"#utility.yul\":12766:12813   */\n      mstore\n        /* \"#utility.yul\":12830:12961   */\n      tag_347\n        /* \"#utility.yul\":12956:12960   */\n      dup2\n        /* \"#utility.yul\":12830:12961   */\n      tag_192\n      jump\t// in\n    tag_347:\n        /* \"#utility.yul\":12822:12961   */\n      swap1\n      pop\n        /* \"#utility.yul\":12549:12968   */\n      swap2\n      swap1\n      pop\n      jump\t// out\n        /* \"#utility.yul\":12974:13154   */\n    tag_193:\n        /* \"#utility.yul\":13022:13099   */\n      0x4e487b7100000000000000000000000000000000000000000000000000000000\n        /* \"#utility.yul\":13019:13020   */\n      0x00\n        /* \"#utility.yul\":13012:13100   */\n      mstore\n        /* \"#utility.yul\":13119:13123   */\n      0x22\n        /* \"#utility.yul\":13116:13117   */\n      0x04\n        /* \"#utility.yul\":13109:13124   */\n      mstore\n        /* \"#utility.yul\":13143:13147   */\n      0x24\n        /* \"#utility.yul\":13140:13141   */\n      0x00\n        /* \"#utility.yul\":13133:13148   */\n      revert\n        /* \"#utility.yul\":13160:13480   */\n    tag_89:\n        /* \"#utility.yul\":13204:13210   */\n      0x00\n        /* \"#utility.yul\":13241:13242   */\n      0x02\n        /* \"#utility.yul\":13235:13239   */\n      dup3\n        /* \"#utility.yul\":13231:13243   */\n      div\n        /* \"#utility.yul\":13221:13243   */\n      swap1\n      pop\n        /* \"#utility.yul\":13288:13289   */\n      0x01\n        /* \"#utility.yul\":13282:13286   */\n      dup3\n        /* \"#utility.yul\":13278:13290   */\n      and\n        /* \"#utility.yul\":13309:13327   */\n      dup1\n        /* \"#utility.yul\":13299:13380   */\n      tag_350\n      jumpi\n        /* \"#utility.yul\":13365:13369   */\n      0x7f\n        /* \"#utility.yul\":13357:13363   */\n      dup3\n        /* \"#utility.yul\":13353:13370   */\n      and\n        /* \"#utility.yul\":13343:13370   */\n      swap2\n      pop\n        /* \"#utility.yul\":13299:13380   */\n    tag_350:\n        /* \"#utility.yul\":13427:13429   */\n      0x20\n        /* \"#utility.yul\":13419:13425   */\n      dup3\n        /* \"#utility.yul\":13416:13430   */\n      lt\n        /* \"#utility.yul\":13396:13414   */\n      dup2\n        /* \"#utility.yul\":13393:13431   */\n      sub\n        /* \"#utility.yul\":13390:13474   */\n      tag_351\n      jumpi\n        /* \"#utility.yul\":13446:13464   */\n      tag_352\n      tag_193\n      jump\t// in\n    tag_352:\n        /* \"#utility.yul\":13390:13474   */\n    tag_351:\n        /* \"#utility.yul\":13211:13480   */\n      pop\n        /* \"#utility.yul\":13160:13480   */\n      swap2\n      swap1\n      pop\n      jump\t// out\n        /* \"#utility.yul\":13486:13627   */\n    tag_194:\n        /* \"#utility.yul\":13535:13539   */\n      0x00\n        /* \"#utility.yul\":13558:13561   */\n      dup2\n        /* \"#utility.yul\":13550:13561   */\n      swap1\n      pop\n        /* \"#utility.yul\":13581:13584   */\n      dup2\n        /* \"#utility.yul\":13578:13579   */\n      0x00\n        /* \"#utility.yul\":13571:13585   */\n      mstore\n        /* \"#utility.yul\":13615:13619   */\n      0x20\n        /* \"#utility.yul\":13612:13613   */\n      0x00\n        /* \"#utility.yul\":13602:13620   */\n      keccak256\n        /* \"#utility.yul\":13594:13620   */\n      swap1\n      pop\n        /* \"#utility.yul\":13486:13627   */\n      swap2\n      swap1\n      pop\n      jump\t// out\n        /* \"#utility.yul\":13633:13726   */\n    tag_195:\n        /* \"#utility.yul\":13670:13676   */\n      0x00\n        /* \"#utility.yul\":13717:13719   */\n      0x20\n        /* \"#utility.yul\":13712:13714   */\n      0x1f\n        /* \"#utility.yul\":13705:13710   */\n      dup4\n        /* \"#utility.yul\":13701:13715   */\n      add\n        /* \"#utility.yul\":13697:13720   */\n      div\n        /* \"#utility.yul\":13687:13720   */\n      swap1\n      pop\n        /* \"#utility.yul\":13633:13726   */\n      swap2\n      swap1\n      pop\n      jump\t// out\n        /* \"#utility.yul\":13732:13839   */\n    tag_196:\n        /* \"#utility.yul\":13776:13784   */\n      0x00\n        /* \"#utility.yul\":13826:13831   */\n      dup3\n        /* \"#utility.yul\":13820:13824   */\n      dup3\n        /* \"#utility.yul\":13816:13832   */\n      shl\n        /* \"#utility.yul\":13795:13832   */\n      swap1\n      pop\n        /* \"#utility.yul\":13732:13839   */\n      swap3\n      swap2\n      pop\n      pop\n      jump\t// out\n        /* \"#utility.yul\":13845:14238   */\n    tag_197:\n        /* \"#utility.yul\":13914:13920   */\n      0x00\n        /* \"#utility.yul\":13964:13965   */\n      0x08\n        /* \"#utility.yul\":13952:13962   */\n      dup4\n        /* \"#utility.yul\":13948:13966   */\n      mul\n        /* \"#utility.yul\":13987:14084   */\n      tag_357\n        /* \"#utility.yul\":14017:14083   */\n      0xffffffffffffffffffffffffffffffffffffffffffffffffffffffffffffffff\n        /* \"#utility.yul\":14006:14015   */\n      dup3\n        /* \"#utility.yul\":13987:14084   */\n      tag_196\n      jump\t// in\n    tag_357:\n        /* \"#utility.yul\":14105:14144   */\n      tag_358\n        /* \"#utility.yul\":14135:14143   */\n      dup7\n        /* \"#utility.yul\":14124:14133   */\n      dup4\n        /* \"#utility.yul\":14105:14144   */\n      tag_196\n      jump\t// in\n    tag_358:\n        /* \"#utility.yul\":14093:14144   */\n      swap6\n      pop\n        /* \"#utility.yul\":14177:14181   */\n      dup1\n        /* \"#utility.yul\":14173:14182   */\n      not\n        /* \"#utility.yul\":14166:14171   */\n      dup5\n        /* \"#utility.yul\":14162:14183   */\n      and\n        /* \"#utility.yul\":14153:14183   */\n      swap4\n      pop\n        /* \"#utility.yul\":14226:14230   */\n      dup1\n        /* \"#utility.yul\":14216:14224   */\n      dup7\n        /* \"#utility.yul\":14212:14231   */\n      and\n        /* \"#utility.yul\":14205:14210   */\n      dup5\n        /* \"#utility.yul\":14202:14232   */\n      or\n        /* \"#utility.yul\":14192:14232   */\n      swap3\n      pop\n        /* \"#utility.yul\":13921:14238   */\n      pop\n      pop\n        /* \"#utility.yul\":13845:14238   */\n      swap4\n      swap3\n      pop\n      pop\n      pop\n      jump\t// out\n        /* \"#utility.yul\":14244:14304   */\n    tag_198:\n        /* \"#utility.yul\":14272:14275   */\n      0x00\n        /* \"#utility.yul\":14293:14298   */\n      dup2\n        /* \"#utility.yul\":14286:14298   */\n      swap1\n      pop\n        /* \"#utility.yul\":14244:14304   */\n      swap2\n      swap1\n      pop\n      jump\t// out\n        /* \"#utility.yul\":14310:14452   */\n    tag_199:\n        /* \"#utility.yul\":14360:14369   */\n      0x00\n        /* \"#utility.yul\":14393:14446   */\n      tag_361\n        /* \"#utility.yul\":14411:14445   */\n      tag_362\n        /* \"#utility.yul\":14420:14444   */\n      tag_363\n        /* \"#utility.yul\":14438:14443   */\n      dup5\n        /* \"#utility.yul\":14420:14444   */\n      tag_166\n      jump\t// in\n    tag_363:\n        /* \"#utility.yul\":14411:14445   */\n      tag_198\n      jump\t// in\n    tag_362:\n        /* \"#utility.yul\":14393:14446   */\n      tag_166\n      jump\t// in\n    tag_361:\n        /* \"#utility.yul\":14380:14446   */\n      swap1\n      pop\n        /* \"#utility.yul\":14310:14452   */\n      swap2\n      swap1\n      pop\n      jump\t// out\n        /* \"#utility.yul\":14458:14533   */\n    tag_200:\n        /* \"#utility.yul\":14501:14504   */\n      0x00\n        /* \"#utility.yul\":14522:14527   */\n      dup2\n        /* \"#utility.yul\":14515:14527   */\n      swap1\n      pop\n        /* \"#utility.yul\":14458:14533   */\n      swap2\n      swap1\n      pop\n      jump\t// out\n        /* \"#utility.yul\":14539:14808   */\n    tag_201:\n        /* \"#utility.yul\":14649:14688   */\n      tag_366\n        /* \"#utility.yul\":14680:14687   */\n      dup4\n        /* \"#utility.yul\":14649:14688   */\n      tag_199\n      jump\t// in\n    tag_366:\n        /* \"#utility.yul\":14710:14801   */\n      tag_367\n        /* \"#utility.yul\":14759:14800   */\n      tag_368\n        /* \"#utility.yul\":14783:14799   */\n      dup3\n        /* \"#utility.yul\":14759:14800   */\n      tag_200\n      jump\t// in\n    tag_368:\n        /* \"#utility.yul\":14751:14757   */\n      dup5\n        /* \"#utility.yul\":14744:14748   */\n      dup5\n        /* \"#utility.yul\":14738:14749   */\n      sload\n        /* \"#utility.yul\":14710:14801   */\n      tag_197\n      jump\t// in\n    tag_367:\n        /* \"#utility.yul\":14704:14708   */\n      dup3\n        /* \"#utility.yul\":14697:14802   */\n      sstore\n        /* \"#utility.yul\":14615:14808   */\n      pop\n        /* \"#utility.yul\":14539:14808   */\n      pop\n      pop\n      pop\n      jump\t// out\n        /* \"#utility.yul\":14814:14887   */\n    tag_202:\n        /* \"#utility.yul\":14859:14862   */\n      0x00\n        /* \"#utility.yul\":14814:14887   */\n      swap1\n      jump\t// out\n        /* \"#utility.yul\":14893:15082   */\n    tag_203:\n        /* \"#utility.yul\":14970:15002   */\n      tag_371\n      tag_202\n      jump\t// in\n    tag_371:\n        /* \"#utility.yul\":15011:15076   */\n      tag_372\n        /* \"#utility.yul\":15069:15075   */\n      dup2\n        /* \"#utility.yul\":15061:15067   */\n      dup5\n        /* \"#utility.yul\":15055:15059   */\n      dup5\n        /* \"#utility.yul\":15011:15076   */\n      tag_201\n      jump\t// in\n    tag_372:\n        /* \"#utility.yul\":14946:15082   */\n      pop\n        /* \"#utility.yul\":14893:15082   */\n      pop\n      pop\n      jump\t// out\n        /* \"#utility.yul\":15088:15274   */\n    tag_204:\n        /* \"#utility.yul\":15148:15268   */\n    tag_374:\n        /* \"#utility.yul\":15165:15168   */\n      dup2\n        /* \"#utility.yul\":15158:15163   */\n      dup2\n        /* \"#utility.yul\":15155:15169   */\n      lt\n        /* \"#utility.yul\":15148:15268   */\n      iszero\n      tag_376\n      jumpi\n        /* \"#utility.yul\":15219:15258   */\n      tag_377\n        /* \"#utility.yul\":15256:15257   */\n      0x00\n        /* \"#utility.yul\":15249:15254   */\n      dup3\n        /* \"#utility.yul\":15219:15258   */\n      tag_203\n      jump\t// in\n    tag_377:\n        /* \"#utility.yul\":15192:15193   */\n      0x01\n        /* \"#utility.yul\":15185:15190   */\n      dup2\n        /* \"#utility.yul\":15181:15194   */\n      add\n        /* \"#utility.yul\":15172:15194   */\n      swap1\n      pop\n        /* \"#utility.yul\":15148:15268   */\n      jump(tag_374)\n    tag_376:\n        /* \"#utility.yul\":15088:15274   */\n      pop\n      pop\n      jump\t// out\n        /* \"#utility.yul\":15280:15823   */\n    tag_205:\n        /* \"#utility.yul\":15381:15383   */\n      0x1f\n        /* \"#utility.yul\":15376:15379   */\n      dup3\n        /* \"#utility.yul\":15373:15384   */\n      gt\n        /* \"#utility.yul\":15370:15816   */\n      iszero\n      tag_379\n      jumpi\n        /* \"#utility.yul\":15415:15453   */\n      tag_380\n        /* \"#utility.yul\":15447:15452   */\n      dup2\n        /* \"#utility.yul\":15415:15453   */\n      tag_194\n      jump\t// in\n    tag_380:\n        /* \"#utility.yul\":15499:15528   */\n      tag_381\n        /* \"#utility.yul\":15517:15527   */\n      dup5\n        /* \"#utility.yul\":15499:15528   */\n      tag_195\n      jump\t// in\n    tag_381:\n        /* \"#utility.yul\":15489:15497   */\n      dup2\n        /* \"#utility.yul\":15485:15529   */\n      add\n        /* \"#utility.yul\":15682:15684   */\n      0x20\n        /* \"#utility.yul\":15670:15680   */\n      dup6\n        /* \"#utility.yul\":15667:15685   */\n      lt\n        /* \"#utility.yul\":15664:15713   */\n      iszero\n      tag_382\n      jumpi\n        /* \"#utility.yul\":15703:15711   */\n      dup2\n        /* \"#utility.yul\":15688:15711   */\n      swap1\n      pop\n        /* \"#utility.yul\":15664:15713   */\n    tag_382:\n        /* \"#utility.yul\":15726:15806   */\n      tag_383\n        /* \"#utility.yul\":15782:15804   */\n      tag_384\n        /* \"#utility.yul\":15800:15803   */\n      dup6\n        /* \"#utility.yul\":15782:15804   */\n      tag_195\n      jump\t// in\n    tag_384:\n        /* \"#utility.yul\":15772:15780   */\n      dup4\n        /* \"#utility.yul\":15768:15805   */\n      add\n        /* \"#utility.yul\":15755:15766   */\n      dup3\n        /* \"#utility.yul\":15726:15806   */\n      tag_204\n      jump\t// in\n    tag_383:\n        /* \"#utility.yul\":15385:15816   */\n      pop\n      pop\n        /* \"#utility.yul\":15370:15816   */\n    tag_379:\n        /* \"#utility.yul\":15280:15823   */\n      pop\n      pop\n      pop\n      jump\t// out\n        /* \"#utility.yul\":15829:15946   */\n    tag_206:\n        /* \"#utility.yul\":15883:15891   */\n      0x00\n        /* \"#utility.yul\":15933:15938   */\n      dup3\n        /* \"#utility.yul\":15927:15931   */\n      dup3\n        /* \"#utility.yul\":15923:15939   */\n      shr\n        /* \"#utility.yul\":15902:15939   */\n      swap1\n      pop\n        /* \"#utility.yul\":15829:15946   */\n      swap3\n      swap2\n      pop\n      pop\n      jump\t// out\n        /* \"#utility.yul\":15952:16121   */\n    tag_207:\n        /* \"#utility.yul\":15996:16002   */\n      0x00\n        /* \"#utility.yul\":16029:16080   */\n      tag_387\n        /* \"#utility.yul\":16077:16078   */\n      0x00\n        /* \"#utility.yul\":16073:16079   */\n      not\n        /* \"#utility.yul\":16065:16070   */\n      dup5\n        /* \"#utility.yul\":16062:16063   */\n      0x08\n        /* \"#utility.yul\":16058:16071   */\n      mul\n        /* \"#utility.yul\":16029:16080   */\n      tag_206\n      jump\t// in\n    tag_387:\n        /* \"#utility.yul\":16025:16081   */\n      not\n        /* \"#utility.yul\":16110:16114   */\n      dup1\n        /* \"#utility.yul\":16104:16108   */\n      dup4\n        /* \"#utility.yul\":16100:16115   */\n      and\n        /* \"#utility.yul\":16090:16115   */\n      swap2\n      pop\n        /* \"#utility.yul\":16003:16121   */\n      pop\n        /* \"#utility.yul\":15952:16121   */\n      swap3\n      swap2\n      pop\n      pop\n      jump\t// out\n        /* \"#utility.yul\":16126:16421   */\n    tag_208:\n        /* \"#utility.yul\":16202:16206   */\n      0x00\n        /* \"#utility.yul\":16348:16377   */\n      tag_389\n        /* \"#utility.yul\":16373:16376   */\n      dup4\n        /* \"#utility.yul\":16367:16371   */\n      dup4\n        /* \"#utility.yul\":16348:16377   */\n      tag_207\n      jump\t// in\n    tag_389:\n        /* \"#utility.yul\":16340:16377   */\n      swap2\n      pop\n        /* \"#utility.yul\":16410:16413   */\n      dup3\n        /* \"#utility.yul\":16407:16408   */\n      0x02\n        /* \"#utility.yul\":16403:16414   */\n      mul\n        /* \"#utility.yul\":16397:16401   */\n      dup3\n        /* \"#utility.yul\":16394:16415   */\n      or\n        /* \"#utility.yul\":16386:16415   */\n      swap1\n      pop\n        /* \"#utility.yul\":16126:16421   */\n      swap3\n      swap2\n      pop\n      pop\n      jump\t// out\n        /* \"#utility.yul\":16426:17821   */\n    tag_81:\n        /* \"#utility.yul\":16543:16580   */\n      tag_391\n        /* \"#utility.yul\":16576:16579   */\n      dup3\n        /* \"#utility.yul\":16543:16580   */\n      tag_181\n      jump\t// in\n    tag_391:\n        /* \"#utility.yul\":16645:16663   */\n      0xffffffffffffffff\n        /* \"#utility.yul\":16637:16643   */\n      dup2\n        /* \"#utility.yul\":16634:16664   */\n      gt\n        /* \"#utility.yul\":16631:16687   */\n      iszero\n      tag_392\n      jumpi\n        /* \"#utility.yul\":16667:16685   */\n      tag_393\n      tag_172\n      jump\t// in\n    tag_393:\n        /* \"#utility.yul\":16631:16687   */\n    tag_392:\n        /* \"#utility.yul\":16711:16749   */\n      tag_394\n        /* \"#utility.yul\":16743:16747   */\n      dup3\n        /* \"#utility.yul\":16737:16748   */\n      sload\n        /* \"#utility.yul\":16711:16749   */\n      tag_89\n      jump\t// in\n    tag_394:\n        /* \"#utility.yul\":16796:16863   */\n      tag_395\n        /* \"#utility.yul\":16856:16862   */\n      dup3\n        /* \"#utility.yul\":16848:16854   */\n      dup3\n        /* \"#utility.yul\":16842:16846   */\n      dup6\n        /* \"#utility.yul\":16796:16863   */\n      tag_205\n      jump\t// in\n    tag_395:\n        /* \"#utility.yul\":16890:16891   */\n      0x00\n        /* \"#utility.yul\":16914:16918   */\n      0x20\n        /* \"#utility.yul\":16901:16918   */\n      swap1\n      pop\n        /* \"#utility.yul\":16946:16948   */\n      0x1f\n        /* \"#utility.yul\":16938:16944   */\n      dup4\n        /* \"#utility.yul\":16935:16949   */\n      gt\n        /* \"#utility.yul\":16963:16964   */\n      0x01\n        /* \"#utility.yul\":16958:17576   */\n      dup2\n      eq\n      tag_397\n      jumpi\n        /* \"#utility.yul\":17620:17621   */\n      0x00\n        /* \"#utility.yul\":17637:17643   */\n      dup5\n        /* \"#utility.yul\":17634:17711   */\n      iszero\n      tag_398\n      jumpi\n        /* \"#utility.yul\":17686:17695   */\n      dup3\n        /* \"#utility.yul\":17681:17684   */\n      dup8\n        /* \"#utility.yul\":17677:17696   */\n      add\n        /* \"#utility.yul\":17671:17697   */\n      mload\n        /* \"#utility.yul\":17662:17697   */\n      swap1\n      pop\n        /* \"#utility.yul\":17634:17711   */\n    tag_398:\n        /* \"#utility.yul\":17737:17804   */\n      tag_399\n        /* \"#utility.yul\":17797:17803   */\n      dup6\n        /* \"#utility.yul\":17790:17795   */\n      dup3\n        /* \"#utility.yul\":17737:17804   */\n      tag_208\n      jump\t// in\n    tag_399:\n        /* \"#utility.yul\":17731:17735   */\n      dup7\n        /* \"#utility.yul\":17724:17805   */\n      sstore\n        /* \"#utility.yul\":17593:17815   */\n      pop\n        /* \"#utility.yul\":16928:17815   */\n      jump(tag_396)\n        /* \"#utility.yul\":16958:17576   */\n    tag_397:\n        /* \"#utility.yul\":17010:17014   */\n      0x1f\n        /* \"#utility.yul\":17006:17015   */\n      not\n        /* \"#utility.yul\":16998:17004   */\n      dup5\n        /* \"#utility.yul\":16994:17016   */\n      and\n        /* \"#utility.yul\":17044:17081   */\n      tag_400\n        /* \"#utility.yul\":17076:17080   */\n      dup7\n        /* \"#utility.yul\":17044:17081   */\n      tag_194\n      jump\t// in\n    tag_400:\n        /* \"#utility.yul\":17103:17104   */\n      0x00\n        /* \"#utility.yul\":17117:17325   */\n    tag_401:\n        /* \"#utility.yul\":17131:17138   */\n      dup3\n        /* \"#utility.yul\":17128:17129   */\n      dup2\n        /* \"#utility.yul\":17125:17139   */\n      lt\n        /* \"#utility.yul\":17117:17325   */\n      iszero\n      tag_403\n      jumpi\n        /* \"#utility.yul\":17210:17219   */\n      dup5\n        /* \"#utility.yul\":17205:17208   */\n      dup10\n        /* \"#utility.yul\":17201:17220   */\n      add\n        /* \"#utility.yul\":17195:17221   */\n      mload\n        /* \"#utility.yul\":17187:17193   */\n      dup3\n        /* \"#utility.yul\":17180:17222   */\n      sstore\n        /* \"#utility.yul\":17261:17262   */\n      0x01\n        /* \"#utility.yul\":17253:17259   */\n      dup3\n        /* \"#utility.yul\":17249:17263   */\n      add\n        /* \"#utility.yul\":17239:17263   */\n      swap2\n      pop\n        /* \"#utility.yul\":17308:17310   */\n      0x20\n        /* \"#utility.yul\":17297:17306   */\n      dup6\n        /* \"#utility.yul\":17293:17311   */\n      add\n        /* \"#utility.yul\":17280:17311   */\n      swap5\n      pop\n        /* \"#utility.yul\":17154:17158   */\n      0x20\n        /* \"#utility.yul\":17151:17152   */\n      dup2\n        /* \"#utility.yul\":17147:17159   */\n      add\n        /* \"#utility.yul\":17142:17159   */\n      swap1\n      pop\n        /* \"#utility.yul\":17117:17325   */\n      jump(tag_401)\n    tag_403:\n        /* \"#utility.yul\":17353:17359   */\n      dup7\n        /* \"#utility.yul\":17344:17351   */\n      dup4\n        /* \"#utility.yul\":17341:17360   */\n      lt\n        /* \"#utility.yul\":17338:17517   */\n      iszero\n      tag_404\n      jumpi\n        /* \"#utility.yul\":17411:17420   */\n      dup5\n        /* \"#utility.yul\":17406:17409   */\n      dup10\n        /* \"#utility.yul\":17402:17421   */\n      add\n        /* \"#utility.yul\":17396:17422   */\n      mload\n        /* \"#utility.yul\":17454:17502   */\n      tag_405\n        /* \"#utility.yul\":17496:17500   */\n      0x1f\n        /* \"#utility.yul\":17488:17494   */\n      dup10\n        /* \"#utility.yul\":17484:17501   */\n      and\n        /* \"#utility.yul\":17473:17482   */\n      dup3\n        /* \"#utility.yul\":17454:17502   */\n      tag_207\n      jump\t// in\n    tag_405:\n        /* \"#utility.yul\":17446:17452   */\n      dup4\n        /* \"#utility.yul\":17439:17503   */\n      sstore\n        /* \"#utility.yul\":17361:17517   */\n      pop\n        /* \"#utility.yul\":17338:17517   */\n    tag_404:\n        /* \"#utility.yul\":17563:17564   */\n      0x01\n        /* \"#utility.yul\":17559:17560   */\n      0x02\n        /* \"#utility.yul\":17551:17557   */\n      dup9\n        /* \"#utility.yul\":17547:17561   */\n      mul\n        /* \"#utility.yul\":17543:17565   */\n      add\n        /* \"#utility.yul\":17537:17541   */\n      dup9\n        /* \"#utility.yul\":17530:17566   */\n      sstore\n        /* \"#utility.yul\":16965:17576   */\n      pop\n      pop\n      pop\n        /* \"#utility.yul\":16928:17815   */\n    tag_396:\n      pop\n        /* \"#utility.yul\":16518:17821   */\n      pop\n      pop\n      pop\n        /* \"#utility.yul\":16426:17821   */\n      pop\n      pop\n      jump\t// out\n        /* \"#utility.yul\":17827:18005   */\n    tag_209:\n        /* \"#utility.yul\":17967:17997   */\n      0x596f7520646f6e277420686176652061646d696e206163636573732e00000000\n        /* \"#utility.yul\":17963:17964   */\n      0x00\n        /* \"#utility.yul\":17955:17961   */\n      dup3\n        /* \"#utility.yul\":17951:17965   */\n      add\n        /* \"#utility.yul\":17944:17998   */\n      mstore\n        /* \"#utility.yul\":17827:18005   */\n      pop\n      jump\t// out\n        /* \"#utility.yul\":18011:18377   */\n    tag_210:\n        /* \"#utility.yul\":18153:18156   */\n      0x00\n        /* \"#utility.yul\":18174:18241   */\n      tag_408\n        /* \"#utility.yul\":18238:18240   */\n      0x1c\n        /* \"#utility.yul\":18233:18236   */\n      dup4\n        /* \"#utility.yul\":18174:18241   */\n      tag_182\n      jump\t// in\n    tag_408:\n        /* \"#utility.yul\":18167:18241   */\n      swap2\n      pop\n        /* \"#utility.yul\":18250:18343   */\n      tag_409\n        /* \"#utility.yul\":18339:18342   */\n      dup3\n        /* \"#utility.yul\":18250:18343   */\n      tag_209\n      jump\t// in\n    tag_409:\n        /* \"#utility.yul\":18368:18370   */\n      0x20\n        /* \"#utility.yul\":18363:18366   */\n      dup3\n        /* \"#utility.yul\":18359:18371   */\n      add\n        /* \"#utility.yul\":18352:18371   */\n      swap1\n      pop\n        /* \"#utility.yul\":18011:18377   */\n      swap2\n      swap1\n      pop\n      jump\t// out\n        /* \"#utility.yul\":18383:18802   */\n    tag_86:\n        /* \"#utility.yul\":18549:18553   */\n      0x00\n        /* \"#utility.yul\":18587:18589   */\n      0x20\n        /* \"#utility.yul\":18576:18585   */\n      dup3\n        /* \"#utility.yul\":18572:18590   */\n      add\n        /* \"#utility.yul\":18564:18590   */\n      swap1\n      pop\n        /* \"#utility.yul\":18636:18645   */\n      dup2\n        /* \"#utility.yul\":18630:18634   */\n      dup2\n        /* \"#utility.yul\":18626:18646   */\n      sub\n        /* \"#utility.yul\":18622:18623   */\n      0x00\n        /* \"#utility.yul\":18611:18620   */\n      dup4\n        /* \"#utility.yul\":18607:18624   */\n      add\n        /* \"#utility.yul\":18600:18647   */\n      mstore\n        /* \"#utility.yul\":18664:18795   */\n      tag_411\n        /* \"#utility.yul\":18790:18794   */\n      dup2\n        /* \"#utility.yul\":18664:18795   */\n      tag_210\n      jump\t// in\n    tag_411:\n        /* \"#utility.yul\":18656:18795   */\n      swap1\n      pop\n        /* \"#utility.yul\":18383:18802   */\n      swap2\n      swap1\n      pop\n      jump\t// out\n        /* \"#utility.yul\":18808:18988   */\n    tag_211:\n        /* \"#utility.yul\":18856:18933   */\n      0x4e487b7100000000000000000000000000000000000000000000000000000000\n        /* \"#utility.yul\":18853:18854   */\n      0x00\n        /* \"#utility.yul\":18846:18934   */\n      mstore\n        /* \"#utility.yul\":18953:18957   */\n      0x11\n        /* \"#utility.yul\":18950:18951   */\n      0x04\n        /* \"#utility.yul\":18943:18958   */\n      mstore\n        /* \"#utility.yul\":18977:18981   */\n      0x24\n        /* \"#utility.yul\":18974:18975   */\n      0x00\n        /* \"#utility.yul\":18967:18982   */\n      revert\n        /* \"#utility.yul\":18994:19188   */\n    tag_107:\n        /* \"#utility.yul\":19034:19038   */\n      0x00\n        /* \"#utility.yul\":19054:19074   */\n      tag_414\n        /* \"#utility.yul\":19072:19073   */\n      dup3\n        /* \"#utility.yul\":19054:19074   */\n      tag_166\n      jump\t// in\n    tag_414:\n        /* \"#utility.yul\":19049:19074   */\n      swap2\n      pop\n        /* \"#utility.yul\":19088:19108   */\n      tag_415\n        /* \"#utility.yul\":19106:19107   */\n      dup4\n        /* \"#utility.yul\":19088:19108   */\n      tag_166\n      jump\t// in\n    tag_415:\n        /* \"#utility.yul\":19083:19108   */\n      swap3\n      pop\n        /* \"#utility.yul\":19132:19133   */\n      dup3\n        /* \"#utility.yul\":19129:19130   */\n      dup3\n        /* \"#utility.yul\":19125:19134   */\n      sub\n        /* \"#utility.yul\":19117:19134   */\n      swap1\n      pop\n        /* \"#utility.yul\":19156:19157   */\n      dup2\n        /* \"#utility.yul\":19150:19154   */\n      dup2\n        /* \"#utility.yul\":19147:19158   */\n      gt\n        /* \"#utility.yul\":19144:19181   */\n      iszero\n      tag_416\n      jumpi\n        /* \"#utility.yul\":19161:19179   */\n      tag_417\n      tag_211\n      jump\t// in\n    tag_417:\n        /* \"#utility.yul\":19144:19181   */\n    tag_416:\n        /* \"#utility.yul\":18994:19188   */\n      swap3\n      swap2\n      pop\n      pop\n      jump\t// out\n        /* \"#utility.yul\":19194:19604   */\n    tag_109:\n        /* \"#utility.yul\":19234:19241   */\n      0x00\n        /* \"#utility.yul\":19257:19277   */\n      tag_419\n        /* \"#utility.yul\":19275:19276   */\n      dup3\n        /* \"#utility.yul\":19257:19277   */\n      tag_166\n      jump\t// in\n    tag_419:\n        /* \"#utility.yul\":19252:19277   */\n      swap2\n      pop\n        /* \"#utility.yul\":19291:19311   */\n      tag_420\n        /* \"#utility.yul\":19309:19310   */\n      dup4\n        /* \"#utility.yul\":19291:19311   */\n      tag_166\n      jump\t// in\n    tag_420:\n        /* \"#utility.yul\":19286:19311   */\n      swap3\n      pop\n        /* \"#utility.yul\":19346:19347   */\n      dup3\n        /* \"#utility.yul\":19343:19344   */\n      dup3\n        /* \"#utility.yul\":19339:19348   */\n      mul\n        /* \"#utility.yul\":19368:19398   */\n      tag_421\n        /* \"#utility.yul\":19386:19397   */\n      dup2\n        /* \"#utility.yul\":19368:19398   */\n      tag_166\n      jump\t// in\n    tag_421:\n        /* \"#utility.yul\":19357:19398   */\n      swap2\n      pop\n        /* \"#utility.yul\":19547:19548   */\n      dup3\n        /* \"#utility.yul\":19538:19545   */\n      dup3\n        /* \"#utility.yul\":19534:19549   */\n      div\n        /* \"#utility.yul\":19531:19532   */\n      dup5\n        /* \"#utility.yul\":19528:19550   */\n      eq\n        /* \"#utility.yul\":19508:19509   */\n      dup4\n        /* \"#utility.yul\":19501:19510   */\n      iszero\n        /* \"#utility.yul\":19481:19564   */\n      or\n        /* \"#utility.yul\":19458:19597   */\n      tag_422\n      jumpi\n        /* \"#utility.yul\":19577:19595   */\n      tag_423\n      tag_211\n      jump\t// in\n    tag_423:\n        /* \"#utility.yul\":19458:19597   */\n    tag_422:\n        /* \"#utility.yul\":19242:19604   */\n      pop\n        /* \"#utility.yul\":19194:19604   */\n      swap3\n      swap2\n      pop\n      pop\n      jump\t// out\n        /* \"#utility.yul\":19610:19770   */\n    tag_212:\n        /* \"#utility.yul\":19750:19762   */\n      0x4e6f7420666f756e642e00000000000000000000000000000000000000000000\n        /* \"#utility.yul\":19746:19747   */\n      0x00\n        /* \"#utility.yul\":19738:19744   */\n      dup3\n        /* \"#utility.yul\":19734:19748   */\n      add\n        /* \"#utility.yul\":19727:19763   */\n      mstore\n        /* \"#utility.yul\":19610:19770   */\n      pop\n      jump\t// out\n        /* \"#utility.yul\":19776:20142   */\n    tag_213:\n        /* \"#utility.yul\":19918:19921   */\n      0x00\n        /* \"#utility.yul\":19939:20006   */\n      tag_426\n        /* \"#utility.yul\":20003:20005   */\n      0x0a\n        /* \"#utility.yul\":19998:20001   */\n      dup4\n        /* \"#utility.yul\":19939:20006   */\n      tag_182\n      jump\t// in\n    tag_426:\n        /* \"#utility.yul\":19932:20006   */\n      swap2\n      pop\n        /* \"#utility.yul\":20015:20108   */\n      tag_427\n        /* \"#utility.yul\":20104:20107   */\n      dup3\n        /* \"#utility.yul\":20015:20108   */\n      tag_212\n      jump\t// in\n    tag_427:\n        /* \"#utility.yul\":20133:20135   */\n      0x20\n        /* \"#utility.yul\":20128:20131   */\n      dup3\n        /* \"#utility.yul\":20124:20136   */\n      add\n        /* \"#utility.yul\":20117:20136   */\n      swap1\n      pop\n        /* \"#utility.yul\":19776:20142   */\n      swap2\n      swap1\n      pop\n      jump\t// out\n        /* \"#utility.yul\":20148:20567   */\n    tag_137:\n        /* \"#utility.yul\":20314:20318   */\n      0x00\n        /* \"#utility.yul\":20352:20354   */\n      0x20\n        /* \"#utility.yul\":20341:20350   */\n      dup3\n        /* \"#utility.yul\":20337:20355   */\n      add\n        /* \"#utility.yul\":20329:20355   */\n      swap1\n      pop\n        /* \"#utility.yul\":20401:20410   */\n      dup2\n        /* \"#utility.yul\":20395:20399   */\n      dup2\n        /* \"#utility.yul\":20391:20411   */\n      sub\n        /* \"#utility.yul\":20387:20388   */\n      0x00\n        /* \"#utility.yul\":20376:20385   */\n      dup4\n        /* \"#utility.yul\":20372:20389   */\n      add\n        /* \"#utility.yul\":20365:20412   */\n      mstore\n        /* \"#utility.yul\":20429:20560   */\n      tag_429\n        /* \"#utility.yul\":20555:20559   */\n      dup2\n        /* \"#utility.yul\":20429:20560   */\n      tag_213\n      jump\t// in\n    tag_429:\n        /* \"#utility.yul\":20421:20560   */\n      swap1\n      pop\n        /* \"#utility.yul\":20148:20567   */\n      swap2\n      swap1\n      pop\n      jump\t// out\n\n    auxdata: 0xa2646970667358221220f969128aa9f209ce5f3dc04fb00478a4e89ac34d96ae451e0adbb84c98f1d14564736f6c63430008120033\n}\n",
				"bytecode": {
					"linkReferences": {},
					"object": "608060405234801561001057600080fd5b50336000806101000a81548173ffffffffffffffffffffffffffffffffffffffff021916908373ffffffffffffffffffffffffffffffffffffffff160217905550611c56806100606000396000f3fe6080604052600436106100905760003560e01c8063a2a18f4d11610059578063a2a18f4d14610183578063b958b25b146101c3578063b9cfea4714610200578063f1183c8214610229578063f8f8a9121461025257610090565b8062817f5e1461009557806339d1b3ad146100be57806352cc0e4f146100da57806360c3dee31461011757806376dbe8581461015a575b600080fd5b3480156100a157600080fd5b506100bc60048036038101906100b79190611179565b61027d565b005b6100d860048036038101906100d39190611312565b610354565b005b3480156100e657600080fd5b5061010160048036038101906100fc919061138a565b610503565b60405161010e91906113c6565b60405180910390f35b34801561012357600080fd5b5061013e6004803603810190610139919061138a565b6105de565b604051610151979695949392919061146f565b60405180910390f35b34801561016657600080fd5b50610181600480360381019061017c91906114e5565b610883565b005b34801561018f57600080fd5b506101aa60048036038101906101a5919061154c565b610b1d565b6040516101ba94939291906115f0565b60405180910390f35b3480156101cf57600080fd5b506101ea60048036038101906101e5919061138a565b610c63565b6040516101f791906113c6565b60405180910390f35b34801561020c57600080fd5b5061022760048036038101906102229190611179565b610e10565b005b34801561023557600080fd5b50610250600480360381019061024b919061163c565b610ee6565b005b34801561025e57600080fd5b5061026761103a565b60405161027491906113c6565b60405180910390f35b80600260008573ffffffffffffffffffffffffffffffffffffffff1673ffffffffffffffffffffffffffffffffffffffff1681526020019081526020016000206007015414610301576040517f08c379a00000000000000000000000000000000000000000000000000000000081526004016102f89061170a565b60405180910390fd5b6000600183815481106103175761031661172a565b5b906000526020600020906004020160030160006101000a81548160ff0219169083600181111561034a57610349611579565b5b0217905550505050565b60c83414610397576040517f08c379a000000000000000000000000000000000000000000000000000000000815260040161038e906117a5565b60405180910390fd5b33600260003373ffffffffffffffffffffffffffffffffffffffff1673ffffffffffffffffffffffffffffffffffffffff16815260200190815260200160002060000160006101000a81548173ffffffffffffffffffffffffffffffffffffffff021916908373ffffffffffffffffffffffffffffffffffffffff16021790555081600260003373ffffffffffffffffffffffffffffffffffffffff1673ffffffffffffffffffffffffffffffffffffffff168152602001908152602001600020600101908161046791906119d1565b5080600260003373ffffffffffffffffffffffffffffffffffffffff1673ffffffffffffffffffffffffffffffffffffffff16815260200190815260200160002060020190816104b791906119d1565b5034600260003373ffffffffffffffffffffffffffffffffffffffff1673ffffffffffffffffffffffffffffffffffffffff168152602001908152602001600020600401819055505050565b60008060009054906101000a900473ffffffffffffffffffffffffffffffffffffffff1673ffffffffffffffffffffffffffffffffffffffff163373ffffffffffffffffffffffffffffffffffffffff1614610594576040517f08c379a000000000000000000000000000000000000000000000000000000000815260040161058b90611aef565b60405180910390fd5b600260008373ffffffffffffffffffffffffffffffffffffffff1673ffffffffffffffffffffffffffffffffffffffff168152602001908152602001600020600401549050919050565b600060606000806000806000600260008973ffffffffffffffffffffffffffffffffffffffff1673ffffffffffffffffffffffffffffffffffffffff16815260200190815260200160002060000160009054906101000a900473ffffffffffffffffffffffffffffffffffffffff16600260008a73ffffffffffffffffffffffffffffffffffffffff1673ffffffffffffffffffffffffffffffffffffffff168152602001908152602001600020600201600260008b73ffffffffffffffffffffffffffffffffffffffff1673ffffffffffffffffffffffffffffffffffffffff16815260200190815260200160002060030154600260008c73ffffffffffffffffffffffffffffffffffffffff1673ffffffffffffffffffffffffffffffffffffffff16815260200190815260200160002060040154600260008d73ffffffffffffffffffffffffffffffffffffffff1673ffffffffffffffffffffffffffffffffffffffff16815260200190815260200160002060050154600260008e73ffffffffffffffffffffffffffffffffffffffff1673ffffffffffffffffffffffffffffffffffffffff16815260200190815260200160002060070154600260008f73ffffffffffffffffffffffffffffffffffffffff1673ffffffffffffffffffffffffffffffffffffffff168152602001908152602001600020600601548580546107ea906117f4565b80601f0160208091040260200160405190810160405280929190818152602001828054610816906117f4565b80156108635780601f1061083857610100808354040283529160200191610863565b820191906000526020600020905b81548152906001019060200180831161084657829003601f168201915b505050505095509650965096509650965096509650919395979092949650565b6000600181111561089757610896611579565b5b600184815481106108ab576108aa61172a565b5b906000526020600020906004020160030160009054906101000a900460ff1660018111156108dc576108db611579565b5b1461091c576040517f08c379a00000000000000000000000000000000000000000000000000000000081526004016109139061170a565b60405180910390fd5b6032600260008673ffffffffffffffffffffffffffffffffffffffff1673ffffffffffffffffffffffffffffffffffffffff1681526020019081526020016000206004015414806109b057506032600260008673ffffffffffffffffffffffffffffffffffffffff1673ffffffffffffffffffffffffffffffffffffffff1681526020019081526020016000206004015410155b15610a2a57600281836109c39190611b3e565b6109cd9190611b72565b600260008673ffffffffffffffffffffffffffffffffffffffff1673ffffffffffffffffffffffffffffffffffffffff1681526020019081526020016000206004016000828254610a1e9190611b3e565b92505081905550610a89565b60028183610a389190611b3e565b610a429190611b72565b600260008673ffffffffffffffffffffffffffffffffffffffff1673ffffffffffffffffffffffffffffffffffffffff168152602001908152602001600020600501819055505b81600260008673ffffffffffffffffffffffffffffffffffffffff1673ffffffffffffffffffffffffffffffffffffffff1681526020019081526020016000206006018190555080600260008673ffffffffffffffffffffffffffffffffffffffff1673ffffffffffffffffffffffffffffffffffffffff1681526020019081526020016000206007018190555050505050565b6060600080600060018581548110610b3857610b3761172a565b5b906000526020600020906004020160000160018681548110610b5d57610b5c61172a565b5b90600052602060002090600402016001015460018781548110610b8357610b8261172a565b5b90600052602060002090600402016002015460018881548110610ba957610ba861172a565b5b906000526020600020906004020160030160009054906101000a900460ff16838054610bd4906117f4565b80601f0160208091040260200160405190810160405280929190818152602001828054610c00906117f4565b8015610c4d5780601f10610c2257610100808354040283529160200191610c4d565b820191906000526020600020905b815481529060010190602001808311610c3057829003601f168201915b5050505050935093509350935093509193509193565b60008060009054906101000a900473ffffffffffffffffffffffffffffffffffffffff1673ffffffffffffffffffffffffffffffffffffffff163373ffffffffffffffffffffffffffffffffffffffff1614610cf4576040517f08c379a0000000000000000000000000000000000000000000000000000000008152600401610ceb90611aef565b60405180910390fd5b6000600260008473ffffffffffffffffffffffffffffffffffffffff1673ffffffffffffffffffffffffffffffffffffffff1681526020019081526020016000206006015403610d79576040517f08c379a0000000000000000000000000000000000000000000000000000000008152600401610d7090611c00565b60405180910390fd5b600260008373ffffffffffffffffffffffffffffffffffffffff1673ffffffffffffffffffffffffffffffffffffffff16815260200190815260200160002060070154600260008473ffffffffffffffffffffffffffffffffffffffff1673ffffffffffffffffffffffffffffffffffffffff16815260200190815260200160002060060154610e099190611b3e565b9050919050565b80600260008573ffffffffffffffffffffffffffffffffffffffff1673ffffffffffffffffffffffffffffffffffffffff1681526020019081526020016000206006015414610e94576040517f08c379a0000000000000000000000000000000000000000000000000000000008152600401610e8b9061170a565b60405180910390fd5b6001808381548110610ea957610ea861172a565b5b906000526020600020906004020160030160006101000a81548160ff02191690836001811115610edc57610edb611579565b5b0217905550505050565b60008054906101000a900473ffffffffffffffffffffffffffffffffffffffff1673ffffffffffffffffffffffffffffffffffffffff163373ffffffffffffffffffffffffffffffffffffffff1614610f74576040517f08c379a0000000000000000000000000000000000000000000000000000000008152600401610f6b90611aef565b60405180910390fd5b600060405180608001604052808481526020018381526020016000815260200160006001811115610fa857610fa7611579565b5b815250905060018190806001815401808255809150506001900390600052602060002090600402016000909190919091506000820151816000019081610fee91906119d1565b50602082015181600101556040820151816002015560608201518160030160006101000a81548160ff0219169083600181111561102e5761102d611579565b5b02179055505050505050565b60008060009054906101000a900473ffffffffffffffffffffffffffffffffffffffff1673ffffffffffffffffffffffffffffffffffffffff163373ffffffffffffffffffffffffffffffffffffffff16146110cb576040517f08c379a00000000000000000000000000000000000000000000000000000000081526004016110c290611aef565b60405180910390fd5b47905090565b6000604051905090565b600080fd5b600080fd5b600073ffffffffffffffffffffffffffffffffffffffff82169050919050565b6000611110826110e5565b9050919050565b61112081611105565b811461112b57600080fd5b50565b60008135905061113d81611117565b92915050565b6000819050919050565b61115681611143565b811461116157600080fd5b50565b6000813590506111738161114d565b92915050565b600080600060608486031215611192576111916110db565b5b60006111a08682870161112e565b93505060206111b186828701611164565b92505060406111c286828701611164565b9150509250925092565b600080fd5b600080fd5b6000601f19601f8301169050919050565b7f4e487b7100000000000000000000000000000000000000000000000000000000600052604160045260246000fd5b61121f826111d6565b810181811067ffffffffffffffff8211171561123e5761123d6111e7565b5b80604052505050565b60006112516110d1565b905061125d8282611216565b919050565b600067ffffffffffffffff82111561127d5761127c6111e7565b5b611286826111d6565b9050602081019050919050565b82818337600083830152505050565b60006112b56112b084611262565b611247565b9050828152602081018484840111156112d1576112d06111d1565b5b6112dc848285611293565b509392505050565b600082601f8301126112f9576112f86111cc565b5b81356113098482602086016112a2565b91505092915050565b60008060408385031215611329576113286110db565b5b600083013567ffffffffffffffff811115611347576113466110e0565b5b611353858286016112e4565b925050602083013567ffffffffffffffff811115611374576113736110e0565b5b611380858286016112e4565b9150509250929050565b6000602082840312156113a05761139f6110db565b5b60006113ae8482850161112e565b91505092915050565b6113c081611143565b82525050565b60006020820190506113db60008301846113b7565b92915050565b6113ea81611105565b82525050565b600081519050919050565b600082825260208201905092915050565b60005b8381101561142a57808201518184015260208101905061140f565b60008484015250505050565b6000611441826113f0565b61144b81856113fb565b935061145b81856020860161140c565b611464816111d6565b840191505092915050565b600060e082019050611484600083018a6113e1565b81810360208301526114968189611436565b90506114a560408301886113b7565b6114b260608301876113b7565b6114bf60808301866113b7565b6114cc60a08301856113b7565b6114d960c08301846113b7565b98975050505050505050565b600080600080608085870312156114ff576114fe6110db565b5b600061150d8782880161112e565b945050602061151e87828801611164565b935050604061152f87828801611164565b925050606061154087828801611164565b91505092959194509250565b600060208284031215611562576115616110db565b5b600061157084828501611164565b91505092915050565b7f4e487b7100000000000000000000000000000000000000000000000000000000600052602160045260246000fd5b600281106115b9576115b8611579565b5b50565b60008190506115ca826115a8565b919050565b60006115da826115bc565b9050919050565b6115ea816115cf565b82525050565b6000608082019050818103600083015261160a8187611436565b905061161960208301866113b7565b61162660408301856113b7565b61163360608301846115e1565b95945050505050565b60008060408385031215611653576116526110db565b5b600083013567ffffffffffffffff811115611671576116706110e0565b5b61167d858286016112e4565b925050602061168e85828601611164565b9150509250929050565b7f42696b65206973206e6f74206176696c61626c6520666f72207468697320647560008201527f726174696f6e0000000000000000000000000000000000000000000000000000602082015250565b60006116f46026836113fb565b91506116ff82611698565b604082019050919050565b60006020820190508181036000830152611723816116e7565b9050919050565b7f4e487b7100000000000000000000000000000000000000000000000000000000600052603260045260246000fd5b7f506c656173652070617920323030206465706f736974652e0000000000000000600082015250565b600061178f6018836113fb565b915061179a82611759565b602082019050919050565b600060208201905081810360008301526117be81611782565b9050919050565b7f4e487b7100000000000000000000000000000000000000000000000000000000600052602260045260246000fd5b6000600282049050600182168061180c57607f821691505b60208210810361181f5761181e6117c5565b5b50919050565b60008190508160005260206000209050919050565b60006020601f8301049050919050565b600082821b905092915050565b6000600883026118877fffffffffffffffffffffffffffffffffffffffffffffffffffffffffffffffff8261184a565b611891868361184a565b95508019841693508086168417925050509392505050565b6000819050919050565b60006118ce6118c96118c484611143565b6118a9565b611143565b9050919050565b6000819050919050565b6118e8836118b3565b6118fc6118f4826118d5565b848454611857565b825550505050565b600090565b611911611904565b61191c8184846118df565b505050565b5b8181101561194057611935600082611909565b600181019050611922565b5050565b601f8211156119855761195681611825565b61195f8461183a565b8101602085101561196e578190505b61198261197a8561183a565b830182611921565b50505b505050565b600082821c905092915050565b60006119a86000198460080261198a565b1980831691505092915050565b60006119c18383611997565b9150826002028217905092915050565b6119da826113f0565b67ffffffffffffffff8111156119f3576119f26111e7565b5b6119fd82546117f4565b611a08828285611944565b600060209050601f831160018114611a3b5760008415611a29578287015190505b611a3385826119b5565b865550611a9b565b601f198416611a4986611825565b60005b82811015611a7157848901518255600182019150602085019450602081019050611a4c565b86831015611a8e5784890151611a8a601f891682611997565b8355505b6001600288020188555050505b505050505050565b7f596f7520646f6e277420686176652061646d696e206163636573732e00000000600082015250565b6000611ad9601c836113fb565b9150611ae482611aa3565b602082019050919050565b60006020820190508181036000830152611b0881611acc565b9050919050565b7f4e487b7100000000000000000000000000000000000000000000000000000000600052601160045260246000fd5b6000611b4982611143565b9150611b5483611143565b9250828203905081811115611b6c57611b6b611b0f565b5b92915050565b6000611b7d82611143565b9150611b8883611143565b9250828202611b9681611143565b91508282048414831517611bad57611bac611b0f565b5b5092915050565b7f4e6f7420666f756e642e00000000000000000000000000000000000000000000600082015250565b6000611bea600a836113fb565b9150611bf582611bb4565b602082019050919050565b60006020820190508181036000830152611c1981611bdd565b905091905056fea2646970667358221220f969128aa9f209ce5f3dc04fb00478a4e89ac34d96ae451e0adbb84c98f1d14564736f6c63430008120033",
					"opcodes": "PUSH1 0x80 PUSH1 0x40 MSTORE CALLVALUE DUP1 ISZERO PUSH2 0x10 JUMPI PUSH1 0x0 DUP1 REVERT JUMPDEST POP CALLER PUSH1 0x0 DUP1 PUSH2 0x100 EXP DUP2 SLOAD DUP2 PUSH20 0xFFFFFFFFFFFFFFFFFFFFFFFFFFFFFFFFFFFFFFFF MUL NOT AND SWAP1 DUP4 PUSH20 0xFFFFFFFFFFFFFFFFFFFFFFFFFFFFFFFFFFFFFFFF AND MUL OR SWAP1 SSTORE POP PUSH2 0x1C56 DUP1 PUSH2 0x60 PUSH1 0x0 CODECOPY PUSH1 0x0 RETURN INVALID PUSH1 0x80 PUSH1 0x40 MSTORE PUSH1 0x4 CALLDATASIZE LT PUSH2 0x90 JUMPI PUSH1 0x0 CALLDATALOAD PUSH1 0xE0 SHR DUP1 PUSH4 0xA2A18F4D GT PUSH2 0x59 JUMPI DUP1 PUSH4 0xA2A18F4D EQ PUSH2 0x183 JUMPI DUP1 PUSH4 0xB958B25B EQ PUSH2 0x1C3 JUMPI DUP1 PUSH4 0xB9CFEA47 EQ PUSH2 0x200 JUMPI DUP1 PUSH4 0xF1183C82 EQ PUSH2 0x229 JUMPI DUP1 PUSH4 0xF8F8A912 EQ PUSH2 0x252 JUMPI PUSH2 0x90 JUMP JUMPDEST DUP1 PUSH3 0x817F5E EQ PUSH2 0x95 JUMPI DUP1 PUSH4 0x39D1B3AD EQ PUSH2 0xBE JUMPI DUP1 PUSH4 0x52CC0E4F EQ PUSH2 0xDA JUMPI DUP1 PUSH4 0x60C3DEE3 EQ PUSH2 0x117 JUMPI DUP1 PUSH4 0x76DBE858 EQ PUSH2 0x15A JUMPI JUMPDEST PUSH1 0x0 DUP1 REVERT JUMPDEST CALLVALUE DUP1 ISZERO PUSH2 0xA1 JUMPI PUSH1 0x0 DUP1 REVERT JUMPDEST POP PUSH2 0xBC PUSH1 0x4 DUP1 CALLDATASIZE SUB DUP2 ADD SWAP1 PUSH2 0xB7 SWAP2 SWAP1 PUSH2 0x1179 JUMP JUMPDEST PUSH2 0x27D JUMP JUMPDEST STOP JUMPDEST PUSH2 0xD8 PUSH1 0x4 DUP1 CALLDATASIZE SUB DUP2 ADD SWAP1 PUSH2 0xD3 SWAP2 SWAP1 PUSH2 0x1312 JUMP JUMPDEST PUSH2 0x354 JUMP JUMPDEST STOP JUMPDEST CALLVALUE DUP1 ISZERO PUSH2 0xE6 JUMPI PUSH1 0x0 DUP1 REVERT JUMPDEST POP PUSH2 0x101 PUSH1 0x4 DUP1 CALLDATASIZE SUB DUP2 ADD SWAP1 PUSH2 0xFC SWAP2 SWAP1 PUSH2 0x138A JUMP JUMPDEST PUSH2 0x503 JUMP JUMPDEST PUSH1 0x40 MLOAD PUSH2 0x10E SWAP2 SWAP1 PUSH2 0x13C6 JUMP JUMPDEST PUSH1 0x40 MLOAD DUP1 SWAP2 SUB SWAP1 RETURN JUMPDEST CALLVALUE DUP1 ISZERO PUSH2 0x123 JUMPI PUSH1 0x0 DUP1 REVERT JUMPDEST POP PUSH2 0x13E PUSH1 0x4 DUP1 CALLDATASIZE SUB DUP2 ADD SWAP1 PUSH2 0x139 SWAP2 SWAP1 PUSH2 0x138A JUMP JUMPDEST PUSH2 0x5DE JUMP JUMPDEST PUSH1 0x40 MLOAD PUSH2 0x151 SWAP8 SWAP7 SWAP6 SWAP5 SWAP4 SWAP3 SWAP2 SWAP1 PUSH2 0x146F JUMP JUMPDEST PUSH1 0x40 MLOAD DUP1 SWAP2 SUB SWAP1 RETURN JUMPDEST CALLVALUE DUP1 ISZERO PUSH2 0x166 JUMPI PUSH1 0x0 DUP1 REVERT JUMPDEST POP PUSH2 0x181 PUSH1 0x4 DUP1 CALLDATASIZE SUB DUP2 ADD SWAP1 PUSH2 0x17C SWAP2 SWAP1 PUSH2 0x14E5 JUMP JUMPDEST PUSH2 0x883 JUMP JUMPDEST STOP JUMPDEST CALLVALUE DUP1 ISZERO PUSH2 0x18F JUMPI PUSH1 0x0 DUP1 REVERT JUMPDEST POP PUSH2 0x1AA PUSH1 0x4 DUP1 CALLDATASIZE SUB DUP2 ADD SWAP1 PUSH2 0x1A5 SWAP2 SWAP1 PUSH2 0x154C JUMP JUMPDEST PUSH2 0xB1D JUMP JUMPDEST PUSH1 0x40 MLOAD PUSH2 0x1BA SWAP5 SWAP4 SWAP3 SWAP2 SWAP1 PUSH2 0x15F0 JUMP JUMPDEST PUSH1 0x40 MLOAD DUP1 SWAP2 SUB SWAP1 RETURN JUMPDEST CALLVALUE DUP1 ISZERO PUSH2 0x1CF JUMPI PUSH1 0x0 DUP1 REVERT JUMPDEST POP PUSH2 0x1EA PUSH1 0x4 DUP1 CALLDATASIZE SUB DUP2 ADD SWAP1 PUSH2 0x1E5 SWAP2 SWAP1 PUSH2 0x138A JUMP JUMPDEST PUSH2 0xC63 JUMP JUMPDEST PUSH1 0x40 MLOAD PUSH2 0x1F7 SWAP2 SWAP1 PUSH2 0x13C6 JUMP JUMPDEST PUSH1 0x40 MLOAD DUP1 SWAP2 SUB SWAP1 RETURN JUMPDEST CALLVALUE DUP1 ISZERO PUSH2 0x20C JUMPI PUSH1 0x0 DUP1 REVERT JUMPDEST POP PUSH2 0x227 PUSH1 0x4 DUP1 CALLDATASIZE SUB DUP2 ADD SWAP1 PUSH2 0x222 SWAP2 SWAP1 PUSH2 0x1179 JUMP JUMPDEST PUSH2 0xE10 JUMP JUMPDEST STOP JUMPDEST CALLVALUE DUP1 ISZERO PUSH2 0x235 JUMPI PUSH1 0x0 DUP1 REVERT JUMPDEST POP PUSH2 0x250 PUSH1 0x4 DUP1 CALLDATASIZE SUB DUP2 ADD SWAP1 PUSH2 0x24B SWAP2 SWAP1 PUSH2 0x163C JUMP JUMPDEST PUSH2 0xEE6 JUMP JUMPDEST STOP JUMPDEST CALLVALUE DUP1 ISZERO PUSH2 0x25E JUMPI PUSH1 0x0 DUP1 REVERT JUMPDEST POP PUSH2 0x267 PUSH2 0x103A JUMP JUMPDEST PUSH1 0x40 MLOAD PUSH2 0x274 SWAP2 SWAP1 PUSH2 0x13C6 JUMP JUMPDEST PUSH1 0x40 MLOAD DUP1 SWAP2 SUB SWAP1 RETURN JUMPDEST DUP1 PUSH1 0x2 PUSH1 0x0 DUP6 PUSH20 0xFFFFFFFFFFFFFFFFFFFFFFFFFFFFFFFFFFFFFFFF AND PUSH20 0xFFFFFFFFFFFFFFFFFFFFFFFFFFFFFFFFFFFFFFFF AND DUP2 MSTORE PUSH1 0x20 ADD SWAP1 DUP2 MSTORE PUSH1 0x20 ADD PUSH1 0x0 KECCAK256 PUSH1 0x7 ADD SLOAD EQ PUSH2 0x301 JUMPI PUSH1 0x40 MLOAD PUSH32 0x8C379A000000000000000000000000000000000000000000000000000000000 DUP2 MSTORE PUSH1 0x4 ADD PUSH2 0x2F8 SWAP1 PUSH2 0x170A JUMP JUMPDEST PUSH1 0x40 MLOAD DUP1 SWAP2 SUB SWAP1 REVERT JUMPDEST PUSH1 0x0 PUSH1 0x1 DUP4 DUP2 SLOAD DUP2 LT PUSH2 0x317 JUMPI PUSH2 0x316 PUSH2 0x172A JUMP JUMPDEST JUMPDEST SWAP1 PUSH1 0x0 MSTORE PUSH1 0x20 PUSH1 0x0 KECCAK256 SWAP1 PUSH1 0x4 MUL ADD PUSH1 0x3 ADD PUSH1 0x0 PUSH2 0x100 EXP DUP2 SLOAD DUP2 PUSH1 0xFF MUL NOT AND SWAP1 DUP4 PUSH1 0x1 DUP2 GT ISZERO PUSH2 0x34A JUMPI PUSH2 0x349 PUSH2 0x1579 JUMP JUMPDEST JUMPDEST MUL OR SWAP1 SSTORE POP POP POP POP JUMP JUMPDEST PUSH1 0xC8 CALLVALUE EQ PUSH2 0x397 JUMPI PUSH1 0x40 MLOAD PUSH32 0x8C379A000000000000000000000000000000000000000000000000000000000 DUP2 MSTORE PUSH1 0x4 ADD PUSH2 0x38E SWAP1 PUSH2 0x17A5 JUMP JUMPDEST PUSH1 0x40 MLOAD DUP1 SWAP2 SUB SWAP1 REVERT JUMPDEST CALLER PUSH1 0x2 PUSH1 0x0 CALLER PUSH20 0xFFFFFFFFFFFFFFFFFFFFFFFFFFFFFFFFFFFFFFFF AND PUSH20 0xFFFFFFFFFFFFFFFFFFFFFFFFFFFFFFFFFFFFFFFF AND DUP2 MSTORE PUSH1 0x20 ADD SWAP1 DUP2 MSTORE PUSH1 0x20 ADD PUSH1 0x0 KECCAK256 PUSH1 0x0 ADD PUSH1 0x0 PUSH2 0x100 EXP DUP2 SLOAD DUP2 PUSH20 0xFFFFFFFFFFFFFFFFFFFFFFFFFFFFFFFFFFFFFFFF MUL NOT AND SWAP1 DUP4 PUSH20 0xFFFFFFFFFFFFFFFFFFFFFFFFFFFFFFFFFFFFFFFF AND MUL OR SWAP1 SSTORE POP DUP2 PUSH1 0x2 PUSH1 0x0 CALLER PUSH20 0xFFFFFFFFFFFFFFFFFFFFFFFFFFFFFFFFFFFFFFFF AND PUSH20 0xFFFFFFFFFFFFFFFFFFFFFFFFFFFFFFFFFFFFFFFF AND DUP2 MSTORE PUSH1 0x20 ADD SWAP1 DUP2 MSTORE PUSH1 0x20 ADD PUSH1 0x0 KECCAK256 PUSH1 0x1 ADD SWAP1 DUP2 PUSH2 0x467 SWAP2 SWAP1 PUSH2 0x19D1 JUMP JUMPDEST POP DUP1 PUSH1 0x2 PUSH1 0x0 CALLER PUSH20 0xFFFFFFFFFFFFFFFFFFFFFFFFFFFFFFFFFFFFFFFF AND PUSH20 0xFFFFFFFFFFFFFFFFFFFFFFFFFFFFFFFFFFFFFFFF AND DUP2 MSTORE PUSH1 0x20 ADD SWAP1 DUP2 MSTORE PUSH1 0x20 ADD PUSH1 0x0 KECCAK256 PUSH1 0x2 ADD SWAP1 DUP2 PUSH2 0x4B7 SWAP2 SWAP1 PUSH2 0x19D1 JUMP JUMPDEST POP CALLVALUE PUSH1 0x2 PUSH1 0x0 CALLER PUSH20 0xFFFFFFFFFFFFFFFFFFFFFFFFFFFFFFFFFFFFFFFF AND PUSH20 0xFFFFFFFFFFFFFFFFFFFFFFFFFFFFFFFFFFFFFFFF AND DUP2 MSTORE PUSH1 0x20 ADD SWAP1 DUP2 MSTORE PUSH1 0x20 ADD PUSH1 0x0 KECCAK256 PUSH1 0x4 ADD DUP2 SWAP1 SSTORE POP POP POP JUMP JUMPDEST PUSH1 0x0 DUP1 PUSH1 0x0 SWAP1 SLOAD SWAP1 PUSH2 0x100 EXP SWAP1 DIV PUSH20 0xFFFFFFFFFFFFFFFFFFFFFFFFFFFFFFFFFFFFFFFF AND PUSH20 0xFFFFFFFFFFFFFFFFFFFFFFFFFFFFFFFFFFFFFFFF AND CALLER PUSH20 0xFFFFFFFFFFFFFFFFFFFFFFFFFFFFFFFFFFFFFFFF AND EQ PUSH2 0x594 JUMPI PUSH1 0x40 MLOAD PUSH32 0x8C379A000000000000000000000000000000000000000000000000000000000 DUP2 MSTORE PUSH1 0x4 ADD PUSH2 0x58B SWAP1 PUSH2 0x1AEF JUMP JUMPDEST PUSH1 0x40 MLOAD DUP1 SWAP2 SUB SWAP1 REVERT JUMPDEST PUSH1 0x2 PUSH1 0x0 DUP4 PUSH20 0xFFFFFFFFFFFFFFFFFFFFFFFFFFFFFFFFFFFFFFFF AND PUSH20 0xFFFFFFFFFFFFFFFFFFFFFFFFFFFFFFFFFFFFFFFF AND DUP2 MSTORE PUSH1 0x20 ADD SWAP1 DUP2 MSTORE PUSH1 0x20 ADD PUSH1 0x0 KECCAK256 PUSH1 0x4 ADD SLOAD SWAP1 POP SWAP2 SWAP1 POP JUMP JUMPDEST PUSH1 0x0 PUSH1 0x60 PUSH1 0x0 DUP1 PUSH1 0x0 DUP1 PUSH1 0x0 PUSH1 0x2 PUSH1 0x0 DUP10 PUSH20 0xFFFFFFFFFFFFFFFFFFFFFFFFFFFFFFFFFFFFFFFF AND PUSH20 0xFFFFFFFFFFFFFFFFFFFFFFFFFFFFFFFFFFFFFFFF AND DUP2 MSTORE PUSH1 0x20 ADD SWAP1 DUP2 MSTORE PUSH1 0x20 ADD PUSH1 0x0 KECCAK256 PUSH1 0x0 ADD PUSH1 0x0 SWAP1 SLOAD SWAP1 PUSH2 0x100 EXP SWAP1 DIV PUSH20 0xFFFFFFFFFFFFFFFFFFFFFFFFFFFFFFFFFFFFFFFF AND PUSH1 0x2 PUSH1 0x0 DUP11 PUSH20 0xFFFFFFFFFFFFFFFFFFFFFFFFFFFFFFFFFFFFFFFF AND PUSH20 0xFFFFFFFFFFFFFFFFFFFFFFFFFFFFFFFFFFFFFFFF AND DUP2 MSTORE PUSH1 0x20 ADD SWAP1 DUP2 MSTORE PUSH1 0x20 ADD PUSH1 0x0 KECCAK256 PUSH1 0x2 ADD PUSH1 0x2 PUSH1 0x0 DUP12 PUSH20 0xFFFFFFFFFFFFFFFFFFFFFFFFFFFFFFFFFFFFFFFF AND PUSH20 0xFFFFFFFFFFFFFFFFFFFFFFFFFFFFFFFFFFFFFFFF AND DUP2 MSTORE PUSH1 0x20 ADD SWAP1 DUP2 MSTORE PUSH1 0x20 ADD PUSH1 0x0 KECCAK256 PUSH1 0x3 ADD SLOAD PUSH1 0x2 PUSH1 0x0 DUP13 PUSH20 0xFFFFFFFFFFFFFFFFFFFFFFFFFFFFFFFFFFFFFFFF AND PUSH20 0xFFFFFFFFFFFFFFFFFFFFFFFFFFFFFFFFFFFFFFFF AND DUP2 MSTORE PUSH1 0x20 ADD SWAP1 DUP2 MSTORE PUSH1 0x20 ADD PUSH1 0x0 KECCAK256 PUSH1 0x4 ADD SLOAD PUSH1 0x2 PUSH1 0x0 DUP14 PUSH20 0xFFFFFFFFFFFFFFFFFFFFFFFFFFFFFFFFFFFFFFFF AND PUSH20 0xFFFFFFFFFFFFFFFFFFFFFFFFFFFFFFFFFFFFFFFF AND DUP2 MSTORE PUSH1 0x20 ADD SWAP1 DUP2 MSTORE PUSH1 0x20 ADD PUSH1 0x0 KECCAK256 PUSH1 0x5 ADD SLOAD PUSH1 0x2 PUSH1 0x0 DUP15 PUSH20 0xFFFFFFFFFFFFFFFFFFFFFFFFFFFFFFFFFFFFFFFF AND PUSH20 0xFFFFFFFFFFFFFFFFFFFFFFFFFFFFFFFFFFFFFFFF AND DUP2 MSTORE PUSH1 0x20 ADD SWAP1 DUP2 MSTORE PUSH1 0x20 ADD PUSH1 0x0 KECCAK256 PUSH1 0x7 ADD SLOAD PUSH1 0x2 PUSH1 0x0 DUP16 PUSH20 0xFFFFFFFFFFFFFFFFFFFFFFFFFFFFFFFFFFFFFFFF AND PUSH20 0xFFFFFFFFFFFFFFFFFFFFFFFFFFFFFFFFFFFFFFFF AND DUP2 MSTORE PUSH1 0x20 ADD SWAP1 DUP2 MSTORE PUSH1 0x20 ADD PUSH1 0x0 KECCAK256 PUSH1 0x6 ADD SLOAD DUP6 DUP1 SLOAD PUSH2 0x7EA SWAP1 PUSH2 0x17F4 JUMP JUMPDEST DUP1 PUSH1 0x1F ADD PUSH1 0x20 DUP1 SWAP2 DIV MUL PUSH1 0x20 ADD PUSH1 0x40 MLOAD SWAP1 DUP2 ADD PUSH1 0x40 MSTORE DUP1 SWAP3 SWAP2 SWAP1 DUP2 DUP2 MSTORE PUSH1 0x20 ADD DUP3 DUP1 SLOAD PUSH2 0x816 SWAP1 PUSH2 0x17F4 JUMP JUMPDEST DUP1 ISZERO PUSH2 0x863 JUMPI DUP1 PUSH1 0x1F LT PUSH2 0x838 JUMPI PUSH2 0x100 DUP1 DUP4 SLOAD DIV MUL DUP4 MSTORE SWAP2 PUSH1 0x20 ADD SWAP2 PUSH2 0x863 JUMP JUMPDEST DUP3 ADD SWAP2 SWAP1 PUSH1 0x0 MSTORE PUSH1 0x20 PUSH1 0x0 KECCAK256 SWAP1 JUMPDEST DUP2 SLOAD DUP2 MSTORE SWAP1 PUSH1 0x1 ADD SWAP1 PUSH1 0x20 ADD DUP1 DUP4 GT PUSH2 0x846 JUMPI DUP3 SWAP1 SUB PUSH1 0x1F AND DUP3 ADD SWAP2 JUMPDEST POP POP POP POP POP SWAP6 POP SWAP7 POP SWAP7 POP SWAP7 POP SWAP7 POP SWAP7 POP SWAP7 POP SWAP7 POP SWAP2 SWAP4 SWAP6 SWAP8 SWAP1 SWAP3 SWAP5 SWAP7 POP JUMP JUMPDEST PUSH1 0x0 PUSH1 0x1 DUP2 GT ISZERO PUSH2 0x897 JUMPI PUSH2 0x896 PUSH2 0x1579 JUMP JUMPDEST JUMPDEST PUSH1 0x1 DUP5 DUP2 SLOAD DUP2 LT PUSH2 0x8AB JUMPI PUSH2 0x8AA PUSH2 0x172A JUMP JUMPDEST JUMPDEST SWAP1 PUSH1 0x0 MSTORE PUSH1 0x20 PUSH1 0x0 KECCAK256 SWAP1 PUSH1 0x4 MUL ADD PUSH1 0x3 ADD PUSH1 0x0 SWAP1 SLOAD SWAP1 PUSH2 0x100 EXP SWAP1 DIV PUSH1 0xFF AND PUSH1 0x1 DUP2 GT ISZERO PUSH2 0x8DC JUMPI PUSH2 0x8DB PUSH2 0x1579 JUMP JUMPDEST JUMPDEST EQ PUSH2 0x91C JUMPI PUSH1 0x40 MLOAD PUSH32 0x8C379A000000000000000000000000000000000000000000000000000000000 DUP2 MSTORE PUSH1 0x4 ADD PUSH2 0x913 SWAP1 PUSH2 0x170A JUMP JUMPDEST PUSH1 0x40 MLOAD DUP1 SWAP2 SUB SWAP1 REVERT JUMPDEST PUSH1 0x32 PUSH1 0x2 PUSH1 0x0 DUP7 PUSH20 0xFFFFFFFFFFFFFFFFFFFFFFFFFFFFFFFFFFFFFFFF AND PUSH20 0xFFFFFFFFFFFFFFFFFFFFFFFFFFFFFFFFFFFFFFFF AND DUP2 MSTORE PUSH1 0x20 ADD SWAP1 DUP2 MSTORE PUSH1 0x20 ADD PUSH1 0x0 KECCAK256 PUSH1 0x4 ADD SLOAD EQ DUP1 PUSH2 0x9B0 JUMPI POP PUSH1 0x32 PUSH1 0x2 PUSH1 0x0 DUP7 PUSH20 0xFFFFFFFFFFFFFFFFFFFFFFFFFFFFFFFFFFFFFFFF AND PUSH20 0xFFFFFFFFFFFFFFFFFFFFFFFFFFFFFFFFFFFFFFFF AND DUP2 MSTORE PUSH1 0x20 ADD SWAP1 DUP2 MSTORE PUSH1 0x20 ADD PUSH1 0x0 KECCAK256 PUSH1 0x4 ADD SLOAD LT ISZERO JUMPDEST ISZERO PUSH2 0xA2A JUMPI PUSH1 0x2 DUP2 DUP4 PUSH2 0x9C3 SWAP2 SWAP1 PUSH2 0x1B3E JUMP JUMPDEST PUSH2 0x9CD SWAP2 SWAP1 PUSH2 0x1B72 JUMP JUMPDEST PUSH1 0x2 PUSH1 0x0 DUP7 PUSH20 0xFFFFFFFFFFFFFFFFFFFFFFFFFFFFFFFFFFFFFFFF AND PUSH20 0xFFFFFFFFFFFFFFFFFFFFFFFFFFFFFFFFFFFFFFFF AND DUP2 MSTORE PUSH1 0x20 ADD SWAP1 DUP2 MSTORE PUSH1 0x20 ADD PUSH1 0x0 KECCAK256 PUSH1 0x4 ADD PUSH1 0x0 DUP3 DUP3 SLOAD PUSH2 0xA1E SWAP2 SWAP1 PUSH2 0x1B3E JUMP JUMPDEST SWAP3 POP POP DUP2 SWAP1 SSTORE POP PUSH2 0xA89 JUMP JUMPDEST PUSH1 0x2 DUP2 DUP4 PUSH2 0xA38 SWAP2 SWAP1 PUSH2 0x1B3E JUMP JUMPDEST PUSH2 0xA42 SWAP2 SWAP1 PUSH2 0x1B72 JUMP JUMPDEST PUSH1 0x2 PUSH1 0x0 DUP7 PUSH20 0xFFFFFFFFFFFFFFFFFFFFFFFFFFFFFFFFFFFFFFFF AND PUSH20 0xFFFFFFFFFFFFFFFFFFFFFFFFFFFFFFFFFFFFFFFF AND DUP2 MSTORE PUSH1 0x20 ADD SWAP1 DUP2 MSTORE PUSH1 0x20 ADD PUSH1 0x0 KECCAK256 PUSH1 0x5 ADD DUP2 SWAP1 SSTORE POP JUMPDEST DUP2 PUSH1 0x2 PUSH1 0x0 DUP7 PUSH20 0xFFFFFFFFFFFFFFFFFFFFFFFFFFFFFFFFFFFFFFFF AND PUSH20 0xFFFFFFFFFFFFFFFFFFFFFFFFFFFFFFFFFFFFFFFF AND DUP2 MSTORE PUSH1 0x20 ADD SWAP1 DUP2 MSTORE PUSH1 0x20 ADD PUSH1 0x0 KECCAK256 PUSH1 0x6 ADD DUP2 SWAP1 SSTORE POP DUP1 PUSH1 0x2 PUSH1 0x0 DUP7 PUSH20 0xFFFFFFFFFFFFFFFFFFFFFFFFFFFFFFFFFFFFFFFF AND PUSH20 0xFFFFFFFFFFFFFFFFFFFFFFFFFFFFFFFFFFFFFFFF AND DUP2 MSTORE PUSH1 0x20 ADD SWAP1 DUP2 MSTORE PUSH1 0x20 ADD PUSH1 0x0 KECCAK256 PUSH1 0x7 ADD DUP2 SWAP1 SSTORE POP POP POP POP POP JUMP JUMPDEST PUSH1 0x60 PUSH1 0x0 DUP1 PUSH1 0x0 PUSH1 0x1 DUP6 DUP2 SLOAD DUP2 LT PUSH2 0xB38 JUMPI PUSH2 0xB37 PUSH2 0x172A JUMP JUMPDEST JUMPDEST SWAP1 PUSH1 0x0 MSTORE PUSH1 0x20 PUSH1 0x0 KECCAK256 SWAP1 PUSH1 0x4 MUL ADD PUSH1 0x0 ADD PUSH1 0x1 DUP7 DUP2 SLOAD DUP2 LT PUSH2 0xB5D JUMPI PUSH2 0xB5C PUSH2 0x172A JUMP JUMPDEST JUMPDEST SWAP1 PUSH1 0x0 MSTORE PUSH1 0x20 PUSH1 0x0 KECCAK256 SWAP1 PUSH1 0x4 MUL ADD PUSH1 0x1 ADD SLOAD PUSH1 0x1 DUP8 DUP2 SLOAD DUP2 LT PUSH2 0xB83 JUMPI PUSH2 0xB82 PUSH2 0x172A JUMP JUMPDEST JUMPDEST SWAP1 PUSH1 0x0 MSTORE PUSH1 0x20 PUSH1 0x0 KECCAK256 SWAP1 PUSH1 0x4 MUL ADD PUSH1 0x2 ADD SLOAD PUSH1 0x1 DUP9 DUP2 SLOAD DUP2 LT PUSH2 0xBA9 JUMPI PUSH2 0xBA8 PUSH2 0x172A JUMP JUMPDEST JUMPDEST SWAP1 PUSH1 0x0 MSTORE PUSH1 0x20 PUSH1 0x0 KECCAK256 SWAP1 PUSH1 0x4 MUL ADD PUSH1 0x3 ADD PUSH1 0x0 SWAP1 SLOAD SWAP1 PUSH2 0x100 EXP SWAP1 DIV PUSH1 0xFF AND DUP4 DUP1 SLOAD PUSH2 0xBD4 SWAP1 PUSH2 0x17F4 JUMP JUMPDEST DUP1 PUSH1 0x1F ADD PUSH1 0x20 DUP1 SWAP2 DIV MUL PUSH1 0x20 ADD PUSH1 0x40 MLOAD SWAP1 DUP2 ADD PUSH1 0x40 MSTORE DUP1 SWAP3 SWAP2 SWAP1 DUP2 DUP2 MSTORE PUSH1 0x20 ADD DUP3 DUP1 SLOAD PUSH2 0xC00 SWAP1 PUSH2 0x17F4 JUMP JUMPDEST DUP1 ISZERO PUSH2 0xC4D JUMPI DUP1 PUSH1 0x1F LT PUSH2 0xC22 JUMPI PUSH2 0x100 DUP1 DUP4 SLOAD DIV MUL DUP4 MSTORE SWAP2 PUSH1 0x20 ADD SWAP2 PUSH2 0xC4D JUMP JUMPDEST DUP3 ADD SWAP2 SWAP1 PUSH1 0x0 MSTORE PUSH1 0x20 PUSH1 0x0 KECCAK256 SWAP1 JUMPDEST DUP2 SLOAD DUP2 MSTORE SWAP1 PUSH1 0x1 ADD SWAP1 PUSH1 0x20 ADD DUP1 DUP4 GT PUSH2 0xC30 JUMPI DUP3 SWAP1 SUB PUSH1 0x1F AND DUP3 ADD SWAP2 JUMPDEST POP POP POP POP POP SWAP4 POP SWAP4 POP SWAP4 POP SWAP4 POP SWAP4 POP SWAP2 SWAP4 POP SWAP2 SWAP4 JUMP JUMPDEST PUSH1 0x0 DUP1 PUSH1 0x0 SWAP1 SLOAD SWAP1 PUSH2 0x100 EXP SWAP1 DIV PUSH20 0xFFFFFFFFFFFFFFFFFFFFFFFFFFFFFFFFFFFFFFFF AND PUSH20 0xFFFFFFFFFFFFFFFFFFFFFFFFFFFFFFFFFFFFFFFF AND CALLER PUSH20 0xFFFFFFFFFFFFFFFFFFFFFFFFFFFFFFFFFFFFFFFF AND EQ PUSH2 0xCF4 JUMPI PUSH1 0x40 MLOAD PUSH32 0x8C379A000000000000000000000000000000000000000000000000000000000 DUP2 MSTORE PUSH1 0x4 ADD PUSH2 0xCEB SWAP1 PUSH2 0x1AEF JUMP JUMPDEST PUSH1 0x40 MLOAD DUP1 SWAP2 SUB SWAP1 REVERT JUMPDEST PUSH1 0x0 PUSH1 0x2 PUSH1 0x0 DUP5 PUSH20 0xFFFFFFFFFFFFFFFFFFFFFFFFFFFFFFFFFFFFFFFF AND PUSH20 0xFFFFFFFFFFFFFFFFFFFFFFFFFFFFFFFFFFFFFFFF AND DUP2 MSTORE PUSH1 0x20 ADD SWAP1 DUP2 MSTORE PUSH1 0x20 ADD PUSH1 0x0 KECCAK256 PUSH1 0x6 ADD SLOAD SUB PUSH2 0xD79 JUMPI PUSH1 0x40 MLOAD PUSH32 0x8C379A000000000000000000000000000000000000000000000000000000000 DUP2 MSTORE PUSH1 0x4 ADD PUSH2 0xD70 SWAP1 PUSH2 0x1C00 JUMP JUMPDEST PUSH1 0x40 MLOAD DUP1 SWAP2 SUB SWAP1 REVERT JUMPDEST PUSH1 0x2 PUSH1 0x0 DUP4 PUSH20 0xFFFFFFFFFFFFFFFFFFFFFFFFFFFFFFFFFFFFFFFF AND PUSH20 0xFFFFFFFFFFFFFFFFFFFFFFFFFFFFFFFFFFFFFFFF AND DUP2 MSTORE PUSH1 0x20 ADD SWAP1 DUP2 MSTORE PUSH1 0x20 ADD PUSH1 0x0 KECCAK256 PUSH1 0x7 ADD SLOAD PUSH1 0x2 PUSH1 0x0 DUP5 PUSH20 0xFFFFFFFFFFFFFFFFFFFFFFFFFFFFFFFFFFFFFFFF AND PUSH20 0xFFFFFFFFFFFFFFFFFFFFFFFFFFFFFFFFFFFFFFFF AND DUP2 MSTORE PUSH1 0x20 ADD SWAP1 DUP2 MSTORE PUSH1 0x20 ADD PUSH1 0x0 KECCAK256 PUSH1 0x6 ADD SLOAD PUSH2 0xE09 SWAP2 SWAP1 PUSH2 0x1B3E JUMP JUMPDEST SWAP1 POP SWAP2 SWAP1 POP JUMP JUMPDEST DUP1 PUSH1 0x2 PUSH1 0x0 DUP6 PUSH20 0xFFFFFFFFFFFFFFFFFFFFFFFFFFFFFFFFFFFFFFFF AND PUSH20 0xFFFFFFFFFFFFFFFFFFFFFFFFFFFFFFFFFFFFFFFF AND DUP2 MSTORE PUSH1 0x20 ADD SWAP1 DUP2 MSTORE PUSH1 0x20 ADD PUSH1 0x0 KECCAK256 PUSH1 0x6 ADD SLOAD EQ PUSH2 0xE94 JUMPI PUSH1 0x40 MLOAD PUSH32 0x8C379A000000000000000000000000000000000000000000000000000000000 DUP2 MSTORE PUSH1 0x4 ADD PUSH2 0xE8B SWAP1 PUSH2 0x170A JUMP JUMPDEST PUSH1 0x40 MLOAD DUP1 SWAP2 SUB SWAP1 REVERT JUMPDEST PUSH1 0x1 DUP1 DUP4 DUP2 SLOAD DUP2 LT PUSH2 0xEA9 JUMPI PUSH2 0xEA8 PUSH2 0x172A JUMP JUMPDEST JUMPDEST SWAP1 PUSH1 0x0 MSTORE PUSH1 0x20 PUSH1 0x0 KECCAK256 SWAP1 PUSH1 0x4 MUL ADD PUSH1 0x3 ADD PUSH1 0x0 PUSH2 0x100 EXP DUP2 SLOAD DUP2 PUSH1 0xFF MUL NOT AND SWAP1 DUP4 PUSH1 0x1 DUP2 GT ISZERO PUSH2 0xEDC JUMPI PUSH2 0xEDB PUSH2 0x1579 JUMP JUMPDEST JUMPDEST MUL OR SWAP1 SSTORE POP POP POP POP JUMP JUMPDEST PUSH1 0x0 DUP1 SLOAD SWAP1 PUSH2 0x100 EXP SWAP1 DIV PUSH20 0xFFFFFFFFFFFFFFFFFFFFFFFFFFFFFFFFFFFFFFFF AND PUSH20 0xFFFFFFFFFFFFFFFFFFFFFFFFFFFFFFFFFFFFFFFF AND CALLER PUSH20 0xFFFFFFFFFFFFFFFFFFFFFFFFFFFFFFFFFFFFFFFF AND EQ PUSH2 0xF74 JUMPI PUSH1 0x40 MLOAD PUSH32 0x8C379A000000000000000000000000000000000000000000000000000000000 DUP2 MSTORE PUSH1 0x4 ADD PUSH2 0xF6B SWAP1 PUSH2 0x1AEF JUMP JUMPDEST PUSH1 0x40 MLOAD DUP1 SWAP2 SUB SWAP1 REVERT JUMPDEST PUSH1 0x0 PUSH1 0x40 MLOAD DUP1 PUSH1 0x80 ADD PUSH1 0x40 MSTORE DUP1 DUP5 DUP2 MSTORE PUSH1 0x20 ADD DUP4 DUP2 MSTORE PUSH1 0x20 ADD PUSH1 0x0 DUP2 MSTORE PUSH1 0x20 ADD PUSH1 0x0 PUSH1 0x1 DUP2 GT ISZERO PUSH2 0xFA8 JUMPI PUSH2 0xFA7 PUSH2 0x1579 JUMP JUMPDEST JUMPDEST DUP2 MSTORE POP SWAP1 POP PUSH1 0x1 DUP2 SWAP1 DUP1 PUSH1 0x1 DUP2 SLOAD ADD DUP1 DUP3 SSTORE DUP1 SWAP2 POP POP PUSH1 0x1 SWAP1 SUB SWAP1 PUSH1 0x0 MSTORE PUSH1 0x20 PUSH1 0x0 KECCAK256 SWAP1 PUSH1 0x4 MUL ADD PUSH1 0x0 SWAP1 SWAP2 SWAP1 SWAP2 SWAP1 SWAP2 POP PUSH1 0x0 DUP3 ADD MLOAD DUP2 PUSH1 0x0 ADD SWAP1 DUP2 PUSH2 0xFEE SWAP2 SWAP1 PUSH2 0x19D1 JUMP JUMPDEST POP PUSH1 0x20 DUP3 ADD MLOAD DUP2 PUSH1 0x1 ADD SSTORE PUSH1 0x40 DUP3 ADD MLOAD DUP2 PUSH1 0x2 ADD SSTORE PUSH1 0x60 DUP3 ADD MLOAD DUP2 PUSH1 0x3 ADD PUSH1 0x0 PUSH2 0x100 EXP DUP2 SLOAD DUP2 PUSH1 0xFF MUL NOT AND SWAP1 DUP4 PUSH1 0x1 DUP2 GT ISZERO PUSH2 0x102E JUMPI PUSH2 0x102D PUSH2 0x1579 JUMP JUMPDEST JUMPDEST MUL OR SWAP1 SSTORE POP POP POP POP POP POP JUMP JUMPDEST PUSH1 0x0 DUP1 PUSH1 0x0 SWAP1 SLOAD SWAP1 PUSH2 0x100 EXP SWAP1 DIV PUSH20 0xFFFFFFFFFFFFFFFFFFFFFFFFFFFFFFFFFFFFFFFF AND PUSH20 0xFFFFFFFFFFFFFFFFFFFFFFFFFFFFFFFFFFFFFFFF AND CALLER PUSH20 0xFFFFFFFFFFFFFFFFFFFFFFFFFFFFFFFFFFFFFFFF AND EQ PUSH2 0x10CB JUMPI PUSH1 0x40 MLOAD PUSH32 0x8C379A000000000000000000000000000000000000000000000000000000000 DUP2 MSTORE PUSH1 0x4 ADD PUSH2 0x10C2 SWAP1 PUSH2 0x1AEF JUMP JUMPDEST PUSH1 0x40 MLOAD DUP1 SWAP2 SUB SWAP1 REVERT JUMPDEST SELFBALANCE SWAP1 POP SWAP1 JUMP JUMPDEST PUSH1 0x0 PUSH1 0x40 MLOAD SWAP1 POP SWAP1 JUMP JUMPDEST PUSH1 0x0 DUP1 REVERT JUMPDEST PUSH1 0x0 DUP1 REVERT JUMPDEST PUSH1 0x0 PUSH20 0xFFFFFFFFFFFFFFFFFFFFFFFFFFFFFFFFFFFFFFFF DUP3 AND SWAP1 POP SWAP2 SWAP1 POP JUMP JUMPDEST PUSH1 0x0 PUSH2 0x1110 DUP3 PUSH2 0x10E5 JUMP JUMPDEST SWAP1 POP SWAP2 SWAP1 POP JUMP JUMPDEST PUSH2 0x1120 DUP2 PUSH2 0x1105 JUMP JUMPDEST DUP2 EQ PUSH2 0x112B JUMPI PUSH1 0x0 DUP1 REVERT JUMPDEST POP JUMP JUMPDEST PUSH1 0x0 DUP2 CALLDATALOAD SWAP1 POP PUSH2 0x113D DUP2 PUSH2 0x1117 JUMP JUMPDEST SWAP3 SWAP2 POP POP JUMP JUMPDEST PUSH1 0x0 DUP2 SWAP1 POP SWAP2 SWAP1 POP JUMP JUMPDEST PUSH2 0x1156 DUP2 PUSH2 0x1143 JUMP JUMPDEST DUP2 EQ PUSH2 0x1161 JUMPI PUSH1 0x0 DUP1 REVERT JUMPDEST POP JUMP JUMPDEST PUSH1 0x0 DUP2 CALLDATALOAD SWAP1 POP PUSH2 0x1173 DUP2 PUSH2 0x114D JUMP JUMPDEST SWAP3 SWAP2 POP POP JUMP JUMPDEST PUSH1 0x0 DUP1 PUSH1 0x0 PUSH1 0x60 DUP5 DUP7 SUB SLT ISZERO PUSH2 0x1192 JUMPI PUSH2 0x1191 PUSH2 0x10DB JUMP JUMPDEST JUMPDEST PUSH1 0x0 PUSH2 0x11A0 DUP7 DUP3 DUP8 ADD PUSH2 0x112E JUMP JUMPDEST SWAP4 POP POP PUSH1 0x20 PUSH2 0x11B1 DUP7 DUP3 DUP8 ADD PUSH2 0x1164 JUMP JUMPDEST SWAP3 POP POP PUSH1 0x40 PUSH2 0x11C2 DUP7 DUP3 DUP8 ADD PUSH2 0x1164 JUMP JUMPDEST SWAP2 POP POP SWAP3 POP SWAP3 POP SWAP3 JUMP JUMPDEST PUSH1 0x0 DUP1 REVERT JUMPDEST PUSH1 0x0 DUP1 REVERT JUMPDEST PUSH1 0x0 PUSH1 0x1F NOT PUSH1 0x1F DUP4 ADD AND SWAP1 POP SWAP2 SWAP1 POP JUMP JUMPDEST PUSH32 0x4E487B7100000000000000000000000000000000000000000000000000000000 PUSH1 0x0 MSTORE PUSH1 0x41 PUSH1 0x4 MSTORE PUSH1 0x24 PUSH1 0x0 REVERT JUMPDEST PUSH2 0x121F DUP3 PUSH2 0x11D6 JUMP JUMPDEST DUP2 ADD DUP2 DUP2 LT PUSH8 0xFFFFFFFFFFFFFFFF DUP3 GT OR ISZERO PUSH2 0x123E JUMPI PUSH2 0x123D PUSH2 0x11E7 JUMP JUMPDEST JUMPDEST DUP1 PUSH1 0x40 MSTORE POP POP POP JUMP JUMPDEST PUSH1 0x0 PUSH2 0x1251 PUSH2 0x10D1 JUMP JUMPDEST SWAP1 POP PUSH2 0x125D DUP3 DUP3 PUSH2 0x1216 JUMP JUMPDEST SWAP2 SWAP1 POP JUMP JUMPDEST PUSH1 0x0 PUSH8 0xFFFFFFFFFFFFFFFF DUP3 GT ISZERO PUSH2 0x127D JUMPI PUSH2 0x127C PUSH2 0x11E7 JUMP JUMPDEST JUMPDEST PUSH2 0x1286 DUP3 PUSH2 0x11D6 JUMP JUMPDEST SWAP1 POP PUSH1 0x20 DUP2 ADD SWAP1 POP SWAP2 SWAP1 POP JUMP JUMPDEST DUP3 DUP2 DUP4 CALLDATACOPY PUSH1 0x0 DUP4 DUP4 ADD MSTORE POP POP POP JUMP JUMPDEST PUSH1 0x0 PUSH2 0x12B5 PUSH2 0x12B0 DUP5 PUSH2 0x1262 JUMP JUMPDEST PUSH2 0x1247 JUMP JUMPDEST SWAP1 POP DUP3 DUP2 MSTORE PUSH1 0x20 DUP2 ADD DUP5 DUP5 DUP5 ADD GT ISZERO PUSH2 0x12D1 JUMPI PUSH2 0x12D0 PUSH2 0x11D1 JUMP JUMPDEST JUMPDEST PUSH2 0x12DC DUP5 DUP3 DUP6 PUSH2 0x1293 JUMP JUMPDEST POP SWAP4 SWAP3 POP POP POP JUMP JUMPDEST PUSH1 0x0 DUP3 PUSH1 0x1F DUP4 ADD SLT PUSH2 0x12F9 JUMPI PUSH2 0x12F8 PUSH2 0x11CC JUMP JUMPDEST JUMPDEST DUP2 CALLDATALOAD PUSH2 0x1309 DUP5 DUP3 PUSH1 0x20 DUP7 ADD PUSH2 0x12A2 JUMP JUMPDEST SWAP2 POP POP SWAP3 SWAP2 POP POP JUMP JUMPDEST PUSH1 0x0 DUP1 PUSH1 0x40 DUP4 DUP6 SUB SLT ISZERO PUSH2 0x1329 JUMPI PUSH2 0x1328 PUSH2 0x10DB JUMP JUMPDEST JUMPDEST PUSH1 0x0 DUP4 ADD CALLDATALOAD PUSH8 0xFFFFFFFFFFFFFFFF DUP2 GT ISZERO PUSH2 0x1347 JUMPI PUSH2 0x1346 PUSH2 0x10E0 JUMP JUMPDEST JUMPDEST PUSH2 0x1353 DUP6 DUP3 DUP7 ADD PUSH2 0x12E4 JUMP JUMPDEST SWAP3 POP POP PUSH1 0x20 DUP4 ADD CALLDATALOAD PUSH8 0xFFFFFFFFFFFFFFFF DUP2 GT ISZERO PUSH2 0x1374 JUMPI PUSH2 0x1373 PUSH2 0x10E0 JUMP JUMPDEST JUMPDEST PUSH2 0x1380 DUP6 DUP3 DUP7 ADD PUSH2 0x12E4 JUMP JUMPDEST SWAP2 POP POP SWAP3 POP SWAP3 SWAP1 POP JUMP JUMPDEST PUSH1 0x0 PUSH1 0x20 DUP3 DUP5 SUB SLT ISZERO PUSH2 0x13A0 JUMPI PUSH2 0x139F PUSH2 0x10DB JUMP JUMPDEST JUMPDEST PUSH1 0x0 PUSH2 0x13AE DUP5 DUP3 DUP6 ADD PUSH2 0x112E JUMP JUMPDEST SWAP2 POP POP SWAP3 SWAP2 POP POP JUMP JUMPDEST PUSH2 0x13C0 DUP2 PUSH2 0x1143 JUMP JUMPDEST DUP3 MSTORE POP POP JUMP JUMPDEST PUSH1 0x0 PUSH1 0x20 DUP3 ADD SWAP1 POP PUSH2 0x13DB PUSH1 0x0 DUP4 ADD DUP5 PUSH2 0x13B7 JUMP JUMPDEST SWAP3 SWAP2 POP POP JUMP JUMPDEST PUSH2 0x13EA DUP2 PUSH2 0x1105 JUMP JUMPDEST DUP3 MSTORE POP POP JUMP JUMPDEST PUSH1 0x0 DUP2 MLOAD SWAP1 POP SWAP2 SWAP1 POP JUMP JUMPDEST PUSH1 0x0 DUP3 DUP3 MSTORE PUSH1 0x20 DUP3 ADD SWAP1 POP SWAP3 SWAP2 POP POP JUMP JUMPDEST PUSH1 0x0 JUMPDEST DUP4 DUP2 LT ISZERO PUSH2 0x142A JUMPI DUP1 DUP3 ADD MLOAD DUP2 DUP5 ADD MSTORE PUSH1 0x20 DUP2 ADD SWAP1 POP PUSH2 0x140F JUMP JUMPDEST PUSH1 0x0 DUP5 DUP5 ADD MSTORE POP POP POP POP JUMP JUMPDEST PUSH1 0x0 PUSH2 0x1441 DUP3 PUSH2 0x13F0 JUMP JUMPDEST PUSH2 0x144B DUP2 DUP6 PUSH2 0x13FB JUMP JUMPDEST SWAP4 POP PUSH2 0x145B DUP2 DUP6 PUSH1 0x20 DUP7 ADD PUSH2 0x140C JUMP JUMPDEST PUSH2 0x1464 DUP2 PUSH2 0x11D6 JUMP JUMPDEST DUP5 ADD SWAP2 POP POP SWAP3 SWAP2 POP POP JUMP JUMPDEST PUSH1 0x0 PUSH1 0xE0 DUP3 ADD SWAP1 POP PUSH2 0x1484 PUSH1 0x0 DUP4 ADD DUP11 PUSH2 0x13E1 JUMP JUMPDEST DUP2 DUP2 SUB PUSH1 0x20 DUP4 ADD MSTORE PUSH2 0x1496 DUP2 DUP10 PUSH2 0x1436 JUMP JUMPDEST SWAP1 POP PUSH2 0x14A5 PUSH1 0x40 DUP4 ADD DUP9 PUSH2 0x13B7 JUMP JUMPDEST PUSH2 0x14B2 PUSH1 0x60 DUP4 ADD DUP8 PUSH2 0x13B7 JUMP JUMPDEST PUSH2 0x14BF PUSH1 0x80 DUP4 ADD DUP7 PUSH2 0x13B7 JUMP JUMPDEST PUSH2 0x14CC PUSH1 0xA0 DUP4 ADD DUP6 PUSH2 0x13B7 JUMP JUMPDEST PUSH2 0x14D9 PUSH1 0xC0 DUP4 ADD DUP5 PUSH2 0x13B7 JUMP JUMPDEST SWAP9 SWAP8 POP POP POP POP POP POP POP POP JUMP JUMPDEST PUSH1 0x0 DUP1 PUSH1 0x0 DUP1 PUSH1 0x80 DUP6 DUP8 SUB SLT ISZERO PUSH2 0x14FF JUMPI PUSH2 0x14FE PUSH2 0x10DB JUMP JUMPDEST JUMPDEST PUSH1 0x0 PUSH2 0x150D DUP8 DUP3 DUP9 ADD PUSH2 0x112E JUMP JUMPDEST SWAP5 POP POP PUSH1 0x20 PUSH2 0x151E DUP8 DUP3 DUP9 ADD PUSH2 0x1164 JUMP JUMPDEST SWAP4 POP POP PUSH1 0x40 PUSH2 0x152F DUP8 DUP3 DUP9 ADD PUSH2 0x1164 JUMP JUMPDEST SWAP3 POP POP PUSH1 0x60 PUSH2 0x1540 DUP8 DUP3 DUP9 ADD PUSH2 0x1164 JUMP JUMPDEST SWAP2 POP POP SWAP3 SWAP6 SWAP2 SWAP5 POP SWAP3 POP JUMP JUMPDEST PUSH1 0x0 PUSH1 0x20 DUP3 DUP5 SUB SLT ISZERO PUSH2 0x1562 JUMPI PUSH2 0x1561 PUSH2 0x10DB JUMP JUMPDEST JUMPDEST PUSH1 0x0 PUSH2 0x1570 DUP5 DUP3 DUP6 ADD PUSH2 0x1164 JUMP JUMPDEST SWAP2 POP POP SWAP3 SWAP2 POP POP JUMP JUMPDEST PUSH32 0x4E487B7100000000000000000000000000000000000000000000000000000000 PUSH1 0x0 MSTORE PUSH1 0x21 PUSH1 0x4 MSTORE PUSH1 0x24 PUSH1 0x0 REVERT JUMPDEST PUSH1 0x2 DUP2 LT PUSH2 0x15B9 JUMPI PUSH2 0x15B8 PUSH2 0x1579 JUMP JUMPDEST JUMPDEST POP JUMP JUMPDEST PUSH1 0x0 DUP2 SWAP1 POP PUSH2 0x15CA DUP3 PUSH2 0x15A8 JUMP JUMPDEST SWAP2 SWAP1 POP JUMP JUMPDEST PUSH1 0x0 PUSH2 0x15DA DUP3 PUSH2 0x15BC JUMP JUMPDEST SWAP1 POP SWAP2 SWAP1 POP JUMP JUMPDEST PUSH2 0x15EA DUP2 PUSH2 0x15CF JUMP JUMPDEST DUP3 MSTORE POP POP JUMP JUMPDEST PUSH1 0x0 PUSH1 0x80 DUP3 ADD SWAP1 POP DUP2 DUP2 SUB PUSH1 0x0 DUP4 ADD MSTORE PUSH2 0x160A DUP2 DUP8 PUSH2 0x1436 JUMP JUMPDEST SWAP1 POP PUSH2 0x1619 PUSH1 0x20 DUP4 ADD DUP7 PUSH2 0x13B7 JUMP JUMPDEST PUSH2 0x1626 PUSH1 0x40 DUP4 ADD DUP6 PUSH2 0x13B7 JUMP JUMPDEST PUSH2 0x1633 PUSH1 0x60 DUP4 ADD DUP5 PUSH2 0x15E1 JUMP JUMPDEST SWAP6 SWAP5 POP POP POP POP POP JUMP JUMPDEST PUSH1 0x0 DUP1 PUSH1 0x40 DUP4 DUP6 SUB SLT ISZERO PUSH2 0x1653 JUMPI PUSH2 0x1652 PUSH2 0x10DB JUMP JUMPDEST JUMPDEST PUSH1 0x0 DUP4 ADD CALLDATALOAD PUSH8 0xFFFFFFFFFFFFFFFF DUP2 GT ISZERO PUSH2 0x1671 JUMPI PUSH2 0x1670 PUSH2 0x10E0 JUMP JUMPDEST JUMPDEST PUSH2 0x167D DUP6 DUP3 DUP7 ADD PUSH2 0x12E4 JUMP JUMPDEST SWAP3 POP POP PUSH1 0x20 PUSH2 0x168E DUP6 DUP3 DUP7 ADD PUSH2 0x1164 JUMP JUMPDEST SWAP2 POP POP SWAP3 POP SWAP3 SWAP1 POP JUMP JUMPDEST PUSH32 0x42696B65206973206E6F74206176696C61626C6520666F722074686973206475 PUSH1 0x0 DUP3 ADD MSTORE PUSH32 0x726174696F6E0000000000000000000000000000000000000000000000000000 PUSH1 0x20 DUP3 ADD MSTORE POP JUMP JUMPDEST PUSH1 0x0 PUSH2 0x16F4 PUSH1 0x26 DUP4 PUSH2 0x13FB JUMP JUMPDEST SWAP2 POP PUSH2 0x16FF DUP3 PUSH2 0x1698 JUMP JUMPDEST PUSH1 0x40 DUP3 ADD SWAP1 POP SWAP2 SWAP1 POP JUMP JUMPDEST PUSH1 0x0 PUSH1 0x20 DUP3 ADD SWAP1 POP DUP2 DUP2 SUB PUSH1 0x0 DUP4 ADD MSTORE PUSH2 0x1723 DUP2 PUSH2 0x16E7 JUMP JUMPDEST SWAP1 POP SWAP2 SWAP1 POP JUMP JUMPDEST PUSH32 0x4E487B7100000000000000000000000000000000000000000000000000000000 PUSH1 0x0 MSTORE PUSH1 0x32 PUSH1 0x4 MSTORE PUSH1 0x24 PUSH1 0x0 REVERT JUMPDEST PUSH32 0x506C656173652070617920323030206465706F736974652E0000000000000000 PUSH1 0x0 DUP3 ADD MSTORE POP JUMP JUMPDEST PUSH1 0x0 PUSH2 0x178F PUSH1 0x18 DUP4 PUSH2 0x13FB JUMP JUMPDEST SWAP2 POP PUSH2 0x179A DUP3 PUSH2 0x1759 JUMP JUMPDEST PUSH1 0x20 DUP3 ADD SWAP1 POP SWAP2 SWAP1 POP JUMP JUMPDEST PUSH1 0x0 PUSH1 0x20 DUP3 ADD SWAP1 POP DUP2 DUP2 SUB PUSH1 0x0 DUP4 ADD MSTORE PUSH2 0x17BE DUP2 PUSH2 0x1782 JUMP JUMPDEST SWAP1 POP SWAP2 SWAP1 POP JUMP JUMPDEST PUSH32 0x4E487B7100000000000000000000000000000000000000000000000000000000 PUSH1 0x0 MSTORE PUSH1 0x22 PUSH1 0x4 MSTORE PUSH1 0x24 PUSH1 0x0 REVERT JUMPDEST PUSH1 0x0 PUSH1 0x2 DUP3 DIV SWAP1 POP PUSH1 0x1 DUP3 AND DUP1 PUSH2 0x180C JUMPI PUSH1 0x7F DUP3 AND SWAP2 POP JUMPDEST PUSH1 0x20 DUP3 LT DUP2 SUB PUSH2 0x181F JUMPI PUSH2 0x181E PUSH2 0x17C5 JUMP JUMPDEST JUMPDEST POP SWAP2 SWAP1 POP JUMP JUMPDEST PUSH1 0x0 DUP2 SWAP1 POP DUP2 PUSH1 0x0 MSTORE PUSH1 0x20 PUSH1 0x0 KECCAK256 SWAP1 POP SWAP2 SWAP1 POP JUMP JUMPDEST PUSH1 0x0 PUSH1 0x20 PUSH1 0x1F DUP4 ADD DIV SWAP1 POP SWAP2 SWAP1 POP JUMP JUMPDEST PUSH1 0x0 DUP3 DUP3 SHL SWAP1 POP SWAP3 SWAP2 POP POP JUMP JUMPDEST PUSH1 0x0 PUSH1 0x8 DUP4 MUL PUSH2 0x1887 PUSH32 0xFFFFFFFFFFFFFFFFFFFFFFFFFFFFFFFFFFFFFFFFFFFFFFFFFFFFFFFFFFFFFFFF DUP3 PUSH2 0x184A JUMP JUMPDEST PUSH2 0x1891 DUP7 DUP4 PUSH2 0x184A JUMP JUMPDEST SWAP6 POP DUP1 NOT DUP5 AND SWAP4 POP DUP1 DUP7 AND DUP5 OR SWAP3 POP POP POP SWAP4 SWAP3 POP POP POP JUMP JUMPDEST PUSH1 0x0 DUP2 SWAP1 POP SWAP2 SWAP1 POP JUMP JUMPDEST PUSH1 0x0 PUSH2 0x18CE PUSH2 0x18C9 PUSH2 0x18C4 DUP5 PUSH2 0x1143 JUMP JUMPDEST PUSH2 0x18A9 JUMP JUMPDEST PUSH2 0x1143 JUMP JUMPDEST SWAP1 POP SWAP2 SWAP1 POP JUMP JUMPDEST PUSH1 0x0 DUP2 SWAP1 POP SWAP2 SWAP1 POP JUMP JUMPDEST PUSH2 0x18E8 DUP4 PUSH2 0x18B3 JUMP JUMPDEST PUSH2 0x18FC PUSH2 0x18F4 DUP3 PUSH2 0x18D5 JUMP JUMPDEST DUP5 DUP5 SLOAD PUSH2 0x1857 JUMP JUMPDEST DUP3 SSTORE POP POP POP POP JUMP JUMPDEST PUSH1 0x0 SWAP1 JUMP JUMPDEST PUSH2 0x1911 PUSH2 0x1904 JUMP JUMPDEST PUSH2 0x191C DUP2 DUP5 DUP5 PUSH2 0x18DF JUMP JUMPDEST POP POP POP JUMP JUMPDEST JUMPDEST DUP2 DUP2 LT ISZERO PUSH2 0x1940 JUMPI PUSH2 0x1935 PUSH1 0x0 DUP3 PUSH2 0x1909 JUMP JUMPDEST PUSH1 0x1 DUP2 ADD SWAP1 POP PUSH2 0x1922 JUMP JUMPDEST POP POP JUMP JUMPDEST PUSH1 0x1F DUP3 GT ISZERO PUSH2 0x1985 JUMPI PUSH2 0x1956 DUP2 PUSH2 0x1825 JUMP JUMPDEST PUSH2 0x195F DUP5 PUSH2 0x183A JUMP JUMPDEST DUP2 ADD PUSH1 0x20 DUP6 LT ISZERO PUSH2 0x196E JUMPI DUP2 SWAP1 POP JUMPDEST PUSH2 0x1982 PUSH2 0x197A DUP6 PUSH2 0x183A JUMP JUMPDEST DUP4 ADD DUP3 PUSH2 0x1921 JUMP JUMPDEST POP POP JUMPDEST POP POP POP JUMP JUMPDEST PUSH1 0x0 DUP3 DUP3 SHR SWAP1 POP SWAP3 SWAP2 POP POP JUMP JUMPDEST PUSH1 0x0 PUSH2 0x19A8 PUSH1 0x0 NOT DUP5 PUSH1 0x8 MUL PUSH2 0x198A JUMP JUMPDEST NOT DUP1 DUP4 AND SWAP2 POP POP SWAP3 SWAP2 POP POP JUMP JUMPDEST PUSH1 0x0 PUSH2 0x19C1 DUP4 DUP4 PUSH2 0x1997 JUMP JUMPDEST SWAP2 POP DUP3 PUSH1 0x2 MUL DUP3 OR SWAP1 POP SWAP3 SWAP2 POP POP JUMP JUMPDEST PUSH2 0x19DA DUP3 PUSH2 0x13F0 JUMP JUMPDEST PUSH8 0xFFFFFFFFFFFFFFFF DUP2 GT ISZERO PUSH2 0x19F3 JUMPI PUSH2 0x19F2 PUSH2 0x11E7 JUMP JUMPDEST JUMPDEST PUSH2 0x19FD DUP3 SLOAD PUSH2 0x17F4 JUMP JUMPDEST PUSH2 0x1A08 DUP3 DUP3 DUP6 PUSH2 0x1944 JUMP JUMPDEST PUSH1 0x0 PUSH1 0x20 SWAP1 POP PUSH1 0x1F DUP4 GT PUSH1 0x1 DUP2 EQ PUSH2 0x1A3B JUMPI PUSH1 0x0 DUP5 ISZERO PUSH2 0x1A29 JUMPI DUP3 DUP8 ADD MLOAD SWAP1 POP JUMPDEST PUSH2 0x1A33 DUP6 DUP3 PUSH2 0x19B5 JUMP JUMPDEST DUP7 SSTORE POP PUSH2 0x1A9B JUMP JUMPDEST PUSH1 0x1F NOT DUP5 AND PUSH2 0x1A49 DUP7 PUSH2 0x1825 JUMP JUMPDEST PUSH1 0x0 JUMPDEST DUP3 DUP2 LT ISZERO PUSH2 0x1A71 JUMPI DUP5 DUP10 ADD MLOAD DUP3 SSTORE PUSH1 0x1 DUP3 ADD SWAP2 POP PUSH1 0x20 DUP6 ADD SWAP5 POP PUSH1 0x20 DUP2 ADD SWAP1 POP PUSH2 0x1A4C JUMP JUMPDEST DUP7 DUP4 LT ISZERO PUSH2 0x1A8E JUMPI DUP5 DUP10 ADD MLOAD PUSH2 0x1A8A PUSH1 0x1F DUP10 AND DUP3 PUSH2 0x1997 JUMP JUMPDEST DUP4 SSTORE POP JUMPDEST PUSH1 0x1 PUSH1 0x2 DUP9 MUL ADD DUP9 SSTORE POP POP POP JUMPDEST POP POP POP POP POP POP JUMP JUMPDEST PUSH32 0x596F7520646F6E277420686176652061646D696E206163636573732E00000000 PUSH1 0x0 DUP3 ADD MSTORE POP JUMP JUMPDEST PUSH1 0x0 PUSH2 0x1AD9 PUSH1 0x1C DUP4 PUSH2 0x13FB JUMP JUMPDEST SWAP2 POP PUSH2 0x1AE4 DUP3 PUSH2 0x1AA3 JUMP JUMPDEST PUSH1 0x20 DUP3 ADD SWAP1 POP SWAP2 SWAP1 POP JUMP JUMPDEST PUSH1 0x0 PUSH1 0x20 DUP3 ADD SWAP1 POP DUP2 DUP2 SUB PUSH1 0x0 DUP4 ADD MSTORE PUSH2 0x1B08 DUP2 PUSH2 0x1ACC JUMP JUMPDEST SWAP1 POP SWAP2 SWAP1 POP JUMP JUMPDEST PUSH32 0x4E487B7100000000000000000000000000000000000000000000000000000000 PUSH1 0x0 MSTORE PUSH1 0x11 PUSH1 0x4 MSTORE PUSH1 0x24 PUSH1 0x0 REVERT JUMPDEST PUSH1 0x0 PUSH2 0x1B49 DUP3 PUSH2 0x1143 JUMP JUMPDEST SWAP2 POP PUSH2 0x1B54 DUP4 PUSH2 0x1143 JUMP JUMPDEST SWAP3 POP DUP3 DUP3 SUB SWAP1 POP DUP2 DUP2 GT ISZERO PUSH2 0x1B6C JUMPI PUSH2 0x1B6B PUSH2 0x1B0F JUMP JUMPDEST JUMPDEST SWAP3 SWAP2 POP POP JUMP JUMPDEST PUSH1 0x0 PUSH2 0x1B7D DUP3 PUSH2 0x1143 JUMP JUMPDEST SWAP2 POP PUSH2 0x1B88 DUP4 PUSH2 0x1143 JUMP JUMPDEST SWAP3 POP DUP3 DUP3 MUL PUSH2 0x1B96 DUP2 PUSH2 0x1143 JUMP JUMPDEST SWAP2 POP DUP3 DUP3 DIV DUP5 EQ DUP4 ISZERO OR PUSH2 0x1BAD JUMPI PUSH2 0x1BAC PUSH2 0x1B0F JUMP JUMPDEST JUMPDEST POP SWAP3 SWAP2 POP POP JUMP JUMPDEST PUSH32 0x4E6F7420666F756E642E00000000000000000000000000000000000000000000 PUSH1 0x0 DUP3 ADD MSTORE POP JUMP JUMPDEST PUSH1 0x0 PUSH2 0x1BEA PUSH1 0xA DUP4 PUSH2 0x13FB JUMP JUMPDEST SWAP2 POP PUSH2 0x1BF5 DUP3 PUSH2 0x1BB4 JUMP JUMPDEST PUSH1 0x20 DUP3 ADD SWAP1 POP SWAP2 SWAP1 POP JUMP JUMPDEST PUSH1 0x0 PUSH1 0x20 DUP3 ADD SWAP1 POP DUP2 DUP2 SUB PUSH1 0x0 DUP4 ADD MSTORE PUSH2 0x1C19 DUP2 PUSH2 0x1BDD JUMP JUMPDEST SWAP1 POP SWAP2 SWAP1 POP JUMP INVALID LOG2 PUSH5 0x6970667358 0x22 SLT KECCAK256 0xF9 PUSH10 0x128AA9F209CE5F3DC04F 0xB0 DIV PUSH25 0xA4E89AC34D96AE451E0ADBB84C98F1D14564736F6C63430008 SLT STOP CALLER "
				},
				"gasEstimates": {
					"creation": {
						"codeDepositCost": "1450800",
						"executionCost": "25779",
						"totalCost": "1476579"
					},
					"external": {
						"AddBike(string,uint256)": "infinite",
						"AddRenter(string,string)": "infinite",
						"BookRide(address,uint256,uint256,uint256)": "infinite",
						"CheckIn(address,uint256,uint256)": "infinite",
						"CheckOut(address,uint256,uint256)": "infinite",
						"GetBalance()": "2694",
						"GetBike(uint256)": "infinite",
						"GetRenter(address)": "infinite",
						"GetRenterBalance(address)": "5062",
						"TimeDuration(address)": "infinite"
					}
				},
				"methodIdentifiers": {
					"AddBike(string,uint256)": "f1183c82",
					"AddRenter(string,string)": "39d1b3ad",
					"BookRide(address,uint256,uint256,uint256)": "76dbe858",
					"CheckIn(address,uint256,uint256)": "b9cfea47",
					"CheckOut(address,uint256,uint256)": "00817f5e",
					"GetBalance()": "f8f8a912",
					"GetBike(uint256)": "a2a18f4d",
					"GetRenter(address)": "60c3dee3",
					"GetRenterBalance(address)": "52cc0e4f",
					"TimeDuration(address)": "b958b25b"
				}
			},
			"storageLayout": {
				"storage": [
					{
						"astId": 3,
						"contract": "contracts/bike_rent.sol:bikeRentel",
						"label": "admin",
						"offset": 0,
						"slot": "0",
						"type": "t_address"
					},
					{
						"astId": 46,
						"contract": "contracts/bike_rent.sol:bikeRentel",
						"label": "bikes",
						"offset": 0,
						"slot": "1",
						"type": "t_array(t_struct(bike)25_storage)dyn_storage"
					},
					{
						"astId": 51,
						"contract": "contracts/bike_rent.sol:bikeRentel",
						"label": "renterInfo",
						"offset": 0,
						"slot": "2",
						"type": "t_mapping(t_address,t_struct(renter)42_storage)"
					}
				],
				"types": {
					"t_address": {
						"encoding": "inplace",
						"label": "address",
						"numberOfBytes": "20"
					},
					"t_array(t_struct(bike)25_storage)dyn_storage": {
						"base": "t_struct(bike)25_storage",
						"encoding": "dynamic_array",
						"label": "struct bikeRentel.bike[]",
						"numberOfBytes": "32"
					},
					"t_enum(BikeStatus)15": {
						"encoding": "inplace",
						"label": "enum bikeRentel.BikeStatus",
						"numberOfBytes": "1"
					},
					"t_mapping(t_address,t_struct(renter)42_storage)": {
						"encoding": "mapping",
						"key": "t_address",
						"label": "mapping(address => struct bikeRentel.renter)",
						"numberOfBytes": "32",
						"value": "t_struct(renter)42_storage"
					},
					"t_string_storage": {
						"encoding": "bytes",
						"label": "string",
						"numberOfBytes": "32"
					},
					"t_struct(bike)25_storage": {
						"encoding": "inplace",
						"label": "struct bikeRentel.bike",
						"members": [
							{
								"astId": 17,
								"contract": "contracts/bike_rent.sol:bikeRentel",
								"label": "name",
								"offset": 0,
								"slot": "0",
								"type": "t_string_storage"
							},
							{
								"astId": 19,
								"contract": "contracts/bike_rent.sol:bikeRentel",
								"label": "b_no",
								"offset": 0,
								"slot": "1",
								"type": "t_uint256"
							},
							{
								"astId": 21,
								"contract": "contracts/bike_rent.sol:bikeRentel",
								"label": "renter_count",
								"offset": 0,
								"slot": "2",
								"type": "t_uint256"
							},
							{
								"astId": 24,
								"contract": "contracts/bike_rent.sol:bikeRentel",
								"label": "b_status",
								"offset": 0,
								"slot": "3",
								"type": "t_enum(BikeStatus)15"
							}
						],
						"numberOfBytes": "128"
					},
					"t_struct(renter)42_storage": {
						"encoding": "inplace",
						"label": "struct bikeRentel.renter",
						"members": [
							{
								"astId": 27,
								"contract": "contracts/bike_rent.sol:bikeRentel",
								"label": "w_address",
								"offset": 0,
								"slot": "0",
								"type": "t_address"
							},
							{
								"astId": 29,
								"contract": "contracts/bike_rent.sol:bikeRentel",
								"label": "f_name",
								"offset": 0,
								"slot": "1",
								"type": "t_string_storage"
							},
							{
								"astId": 31,
								"contract": "contracts/bike_rent.sol:bikeRentel",
								"label": "l_name",
								"offset": 0,
								"slot": "2",
								"type": "t_string_storage"
							},
							{
								"astId": 33,
								"contract": "contracts/bike_rent.sol:bikeRentel",
								"label": "active",
								"offset": 0,
								"slot": "3",
								"type": "t_uint256"
							},
							{
								"astId": 35,
								"contract": "contracts/bike_rent.sol:bikeRentel",
								"label": "balance",
								"offset": 0,
								"slot": "4",
								"type": "t_uint256"
							},
							{
								"astId": 37,
								"contract": "contracts/bike_rent.sol:bikeRentel",
								"label": "due",
								"offset": 0,
								"slot": "5",
								"type": "t_uint256"
							},
							{
								"astId": 39,
								"contract": "contracts/bike_rent.sol:bikeRentel",
								"label": "ride_start",
								"offset": 0,
								"slot": "6",
								"type": "t_uint256"
							},
							{
								"astId": 41,
								"contract": "contracts/bike_rent.sol:bikeRentel",
								"label": "ride_end",
								"offset": 0,
								"slot": "7",
								"type": "t_uint256"
							}
						],
						"numberOfBytes": "256"
					},
					"t_uint256": {
						"encoding": "inplace",
						"label": "uint256",
						"numberOfBytes": "32"
					}
				}
			},
			"userdoc": {
				"kind": "user",
				"methods": {},
				"version": 1
			}
		}
	}
}