{
	"data": {
		"bytecode": {
			"linkReferences": {},
			"object": "608060405234801561001057600080fd5b50611162806100206000396000f3fe6080604052600436106100555760003560e01c80632e828d721461005a57806381c2adc014610076578063b824fbf0146100a1578063c3321363146100ca578063dae7a13c1461010d578063f45337491461014a575b600080fd5b610074600480360381019061006f9190610849565b610166565b005b34801561008257600080fd5b5061008b610276565b60405161009891906108ab565b60405180910390f35b3480156100ad57600080fd5b506100c860048036038101906100c39190610a0c565b61027e565b005b3480156100d657600080fd5b506100f160048036038101906100ec9190610aed565b610385565b6040516101049796959493929190610b99565b60405180910390f35b34801561011957600080fd5b50610134600480360381019061012f9190610c1d565b61055f565b60405161014191906108ab565b60405180910390f35b610164600480360381019061015f9190610c5d565b610584565b005b6000600260003373ffffffffffffffffffffffffffffffffffffffff1673ffffffffffffffffffffffffffffffffffffffff168152602001908152602001600020600083815260200190815260200160002054905082816101c79190610ccc565b600260003373ffffffffffffffffffffffffffffffffffffffff1673ffffffffffffffffffffffffffffffffffffffff16815260200190815260200160002060008481526020019081526020016000208190555082600260008673ffffffffffffffffffffffffffffffffffffffff1673ffffffffffffffffffffffffffffffffffffffff16815260200190815260200160002060008481526020019081526020016000208190555050505050565b600047905090565b60006001600088815260200190815260200160002060030154905060008082146102b85784905081856102b19190610d00565b94506102bc565b8490505b600081905060004290506040518060e001604052808a815260200189815260200182815260200188815260200183815260200187815260200186815250600160008c815260200190815260200160002060008201518160000190816103219190610f40565b5060208201518160010190816103379190610f40565b5060408201518160020155606082015181600301556080820151816004015560a082015181600501908161036b9190610f40565b5060c0820151816006015590505050505050505050505050565b60016020528060005260406000206000915090508060000180546103a890610d63565b80601f01602080910402602001604051908101604052809291908181526020018280546103d490610d63565b80156104215780601f106103f657610100808354040283529160200191610421565b820191906000526020600020905b81548152906001019060200180831161040457829003601f168201915b50505050509080600101805461043690610d63565b80601f016020809104026020016040519081016040528092919081815260200182805461046290610d63565b80156104af5780601f10610484576101008083540402835291602001916104af565b820191906000526020600020905b81548152906001019060200180831161049257829003601f168201915b5050505050908060020154908060030154908060040154908060050180546104d690610d63565b80601f016020809104026020016040519081016040528092919081815260200182805461050290610d63565b801561054f5780601f106105245761010080835404028352916020019161054f565b820191906000526020600020905b81548152906001019060200180831161053257829003601f168201915b5050505050908060060154905087565b6002602052816000526040600020602052806000526040600020600091509150505481565b600060016000848152602001908152602001600020600601549050600060016000858152602001908152602001600020600401549050600081036105fd576040517f08c379a00000000000000000000000000000000000000000000000000000000081526004016105f49061105e565b60405180910390fd5b34838361060a919061107e565b1461064a576040517f08c379a00000000000000000000000000000000000000000000000000000000081526004016106419061110c565b60405180910390fd5b82816106569190610ccc565b6001600086815260200190815260200160002060040181905550828261067c919061107e565b6000819055506000600260003373ffffffffffffffffffffffffffffffffffffffff1673ffffffffffffffffffffffffffffffffffffffff1681526020019081526020016000206000868152602001908152602001600020549050600081146107445783816106eb9190610d00565b600260003373ffffffffffffffffffffffffffffffffffffffff1673ffffffffffffffffffffffffffffffffffffffff16815260200190815260200160002060008781526020019081526020016000208190555061079a565b83600260003373ffffffffffffffffffffffffffffffffffffffff1673ffffffffffffffffffffffffffffffffffffffff1681526020019081526020016000206000878152602001908152602001600020819055505b5050505050565b6000604051905090565b600080fd5b600080fd5b600073ffffffffffffffffffffffffffffffffffffffff82169050919050565b60006107e0826107b5565b9050919050565b6107f0816107d5565b81146107fb57600080fd5b50565b60008135905061080d816107e7565b92915050565b6000819050919050565b61082681610813565b811461083157600080fd5b50565b6000813590506108438161081d565b92915050565b600080600060608486031215610862576108616107ab565b5b6000610870868287016107fe565b935050602061088186828701610834565b925050604061089286828701610834565b9150509250925092565b6108a581610813565b82525050565b60006020820190506108c0600083018461089c565b92915050565b600080fd5b600080fd5b6000601f19601f8301169050919050565b7f4e487b7100000000000000000000000000000000000000000000000000000000600052604160045260246000fd5b610919826108d0565b810181811067ffffffffffffffff82111715610938576109376108e1565b5b80604052505050565b600061094b6107a1565b90506109578282610910565b919050565b600067ffffffffffffffff821115610977576109766108e1565b5b610980826108d0565b9050602081019050919050565b82818337600083830152505050565b60006109af6109aa8461095c565b610941565b9050828152602081018484840111156109cb576109ca6108cb565b5b6109d684828561098d565b509392505050565b600082601f8301126109f3576109f26108c6565b5b8135610a0384826020860161099c565b91505092915050565b60008060008060008060c08789031215610a2957610a286107ab565b5b6000610a3789828a01610834565b965050602087013567ffffffffffffffff811115610a5857610a576107b0565b5b610a6489828a016109de565b955050604087013567ffffffffffffffff811115610a8557610a846107b0565b5b610a9189828a016109de565b9450506060610aa289828a01610834565b935050608087013567ffffffffffffffff811115610ac357610ac26107b0565b5b610acf89828a016109de565b92505060a0610ae089828a01610834565b9150509295509295509295565b600060208284031215610b0357610b026107ab565b5b6000610b1184828501610834565b91505092915050565b600081519050919050565b600082825260208201905092915050565b60005b83811015610b54578082015181840152602081019050610b39565b60008484015250505050565b6000610b6b82610b1a565b610b758185610b25565b9350610b85818560208601610b36565b610b8e816108d0565b840191505092915050565b600060e0820190508181036000830152610bb3818a610b60565b90508181036020830152610bc78189610b60565b9050610bd6604083018861089c565b610be3606083018761089c565b610bf0608083018661089c565b81810360a0830152610c028185610b60565b9050610c1160c083018461089c565b98975050505050505050565b60008060408385031215610c3457610c336107ab565b5b6000610c42858286016107fe565b9250506020610c5385828601610834565b9150509250929050565b60008060408385031215610c7457610c736107ab565b5b6000610c8285828601610834565b9250506020610c9385828601610834565b9150509250929050565b7f4e487b7100000000000000000000000000000000000000000000000000000000600052601160045260246000fd5b6000610cd782610813565b9150610ce283610813565b9250828203905081811115610cfa57610cf9610c9d565b5b92915050565b6000610d0b82610813565b9150610d1683610813565b9250828201905080821115610d2e57610d2d610c9d565b5b92915050565b7f4e487b7100000000000000000000000000000000000000000000000000000000600052602260045260246000fd5b60006002820490506001821680610d7b57607f821691505b602082108103610d8e57610d8d610d34565b5b50919050565b60008190508160005260206000209050919050565b60006020601f8301049050919050565b600082821b905092915050565b600060088302610df67fffffffffffffffffffffffffffffffffffffffffffffffffffffffffffffffff82610db9565b610e008683610db9565b95508019841693508086168417925050509392505050565b6000819050919050565b6000610e3d610e38610e3384610813565b610e18565b610813565b9050919050565b6000819050919050565b610e5783610e22565b610e6b610e6382610e44565b848454610dc6565b825550505050565b600090565b610e80610e73565b610e8b818484610e4e565b505050565b5b81811015610eaf57610ea4600082610e78565b600181019050610e91565b5050565b601f821115610ef457610ec581610d94565b610ece84610da9565b81016020851015610edd578190505b610ef1610ee985610da9565b830182610e90565b50505b505050565b600082821c905092915050565b6000610f1760001984600802610ef9565b1980831691505092915050565b6000610f308383610f06565b9150826002028217905092915050565b610f4982610b1a565b67ffffffffffffffff811115610f6257610f616108e1565b5b610f6c8254610d63565b610f77828285610eb3565b600060209050601f831160018114610faa5760008415610f98578287015190505b610fa28582610f24565b86555061100a565b601f198416610fb886610d94565b60005b82811015610fe057848901518255600182019150602085019450602081019050610fbb565b86831015610ffd5784890151610ff9601f891682610f06565b8355505b6001600288020188555050505b505050505050565b7f4576656e742053657473204172652046756c6c00000000000000000000000000600082015250565b6000611048601383610b25565b915061105382611012565b602082019050919050565b600060208201905081810360008301526110778161103b565b9050919050565b600061108982610813565b915061109483610813565b92508282026110a281610813565b915082820484148315176110b9576110b8610c9d565b5b5092915050565b7f46656573204e6f742066756c6c207061792e0000000000000000000000000000600082015250565b60006110f6601283610b25565b9150611101826110c0565b602082019050919050565b60006020820190508181036000830152611125816110e9565b905091905056fea264697066735822122010cae96b821311742efd03fefeeae3a44f9af758de53fb4790f682f8cc8755ab64736f6c63430008120033",
			"opcodes": "PUSH1 0x80 PUSH1 0x40 MSTORE CALLVALUE DUP1 ISZERO PUSH2 0x10 JUMPI PUSH1 0x0 DUP1 REVERT JUMPDEST POP PUSH2 0x1162 DUP1 PUSH2 0x20 PUSH1 0x0 CODECOPY PUSH1 0x0 RETURN INVALID PUSH1 0x80 PUSH1 0x40 MSTORE PUSH1 0x4 CALLDATASIZE LT PUSH2 0x55 JUMPI PUSH1 0x0 CALLDATALOAD PUSH1 0xE0 SHR DUP1 PUSH4 0x2E828D72 EQ PUSH2 0x5A JUMPI DUP1 PUSH4 0x81C2ADC0 EQ PUSH2 0x76 JUMPI DUP1 PUSH4 0xB824FBF0 EQ PUSH2 0xA1 JUMPI DUP1 PUSH4 0xC3321363 EQ PUSH2 0xCA JUMPI DUP1 PUSH4 0xDAE7A13C EQ PUSH2 0x10D JUMPI DUP1 PUSH4 0xF4533749 EQ PUSH2 0x14A JUMPI JUMPDEST PUSH1 0x0 DUP1 REVERT JUMPDEST PUSH2 0x74 PUSH1 0x4 DUP1 CALLDATASIZE SUB DUP2 ADD SWAP1 PUSH2 0x6F SWAP2 SWAP1 PUSH2 0x849 JUMP JUMPDEST PUSH2 0x166 JUMP JUMPDEST STOP JUMPDEST CALLVALUE DUP1 ISZERO PUSH2 0x82 JUMPI PUSH1 0x0 DUP1 REVERT JUMPDEST POP PUSH2 0x8B PUSH2 0x276 JUMP JUMPDEST PUSH1 0x40 MLOAD PUSH2 0x98 SWAP2 SWAP1 PUSH2 0x8AB JUMP JUMPDEST PUSH1 0x40 MLOAD DUP1 SWAP2 SUB SWAP1 RETURN JUMPDEST CALLVALUE DUP1 ISZERO PUSH2 0xAD JUMPI PUSH1 0x0 DUP1 REVERT JUMPDEST POP PUSH2 0xC8 PUSH1 0x4 DUP1 CALLDATASIZE SUB DUP2 ADD SWAP1 PUSH2 0xC3 SWAP2 SWAP1 PUSH2 0xA0C JUMP JUMPDEST PUSH2 0x27E JUMP JUMPDEST STOP JUMPDEST CALLVALUE DUP1 ISZERO PUSH2 0xD6 JUMPI PUSH1 0x0 DUP1 REVERT JUMPDEST POP PUSH2 0xF1 PUSH1 0x4 DUP1 CALLDATASIZE SUB DUP2 ADD SWAP1 PUSH2 0xEC SWAP2 SWAP1 PUSH2 0xAED JUMP JUMPDEST PUSH2 0x385 JUMP JUMPDEST PUSH1 0x40 MLOAD PUSH2 0x104 SWAP8 SWAP7 SWAP6 SWAP5 SWAP4 SWAP3 SWAP2 SWAP1 PUSH2 0xB99 JUMP JUMPDEST PUSH1 0x40 MLOAD DUP1 SWAP2 SUB SWAP1 RETURN JUMPDEST CALLVALUE DUP1 ISZERO PUSH2 0x119 JUMPI PUSH1 0x0 DUP1 REVERT JUMPDEST POP PUSH2 0x134 PUSH1 0x4 DUP1 CALLDATASIZE SUB DUP2 ADD SWAP1 PUSH2 0x12F SWAP2 SWAP1 PUSH2 0xC1D JUMP JUMPDEST PUSH2 0x55F JUMP JUMPDEST PUSH1 0x40 MLOAD PUSH2 0x141 SWAP2 SWAP1 PUSH2 0x8AB JUMP JUMPDEST PUSH1 0x40 MLOAD DUP1 SWAP2 SUB SWAP1 RETURN JUMPDEST PUSH2 0x164 PUSH1 0x4 DUP1 CALLDATASIZE SUB DUP2 ADD SWAP1 PUSH2 0x15F SWAP2 SWAP1 PUSH2 0xC5D JUMP JUMPDEST PUSH2 0x584 JUMP JUMPDEST STOP JUMPDEST PUSH1 0x0 PUSH1 0x2 PUSH1 0x0 CALLER PUSH20 0xFFFFFFFFFFFFFFFFFFFFFFFFFFFFFFFFFFFFFFFF AND PUSH20 0xFFFFFFFFFFFFFFFFFFFFFFFFFFFFFFFFFFFFFFFF AND DUP2 MSTORE PUSH1 0x20 ADD SWAP1 DUP2 MSTORE PUSH1 0x20 ADD PUSH1 0x0 KECCAK256 PUSH1 0x0 DUP4 DUP2 MSTORE PUSH1 0x20 ADD SWAP1 DUP2 MSTORE PUSH1 0x20 ADD PUSH1 0x0 KECCAK256 SLOAD SWAP1 POP DUP3 DUP2 PUSH2 0x1C7 SWAP2 SWAP1 PUSH2 0xCCC JUMP JUMPDEST PUSH1 0x2 PUSH1 0x0 CALLER PUSH20 0xFFFFFFFFFFFFFFFFFFFFFFFFFFFFFFFFFFFFFFFF AND PUSH20 0xFFFFFFFFFFFFFFFFFFFFFFFFFFFFFFFFFFFFFFFF AND DUP2 MSTORE PUSH1 0x20 ADD SWAP1 DUP2 MSTORE PUSH1 0x20 ADD PUSH1 0x0 KECCAK256 PUSH1 0x0 DUP5 DUP2 MSTORE PUSH1 0x20 ADD SWAP1 DUP2 MSTORE PUSH1 0x20 ADD PUSH1 0x0 KECCAK256 DUP2 SWAP1 SSTORE POP DUP3 PUSH1 0x2 PUSH1 0x0 DUP7 PUSH20 0xFFFFFFFFFFFFFFFFFFFFFFFFFFFFFFFFFFFFFFFF AND PUSH20 0xFFFFFFFFFFFFFFFFFFFFFFFFFFFFFFFFFFFFFFFF AND DUP2 MSTORE PUSH1 0x20 ADD SWAP1 DUP2 MSTORE PUSH1 0x20 ADD PUSH1 0x0 KECCAK256 PUSH1 0x0 DUP5 DUP2 MSTORE PUSH1 0x20 ADD SWAP1 DUP2 MSTORE PUSH1 0x20 ADD PUSH1 0x0 KECCAK256 DUP2 SWAP1 SSTORE POP POP POP POP POP JUMP JUMPDEST PUSH1 0x0 SELFBALANCE SWAP1 POP SWAP1 JUMP JUMPDEST PUSH1 0x0 PUSH1 0x1 PUSH1 0x0 DUP9 DUP2 MSTORE PUSH1 0x20 ADD SWAP1 DUP2 MSTORE PUSH1 0x20 ADD PUSH1 0x0 KECCAK256 PUSH1 0x3 ADD SLOAD SWAP1 POP PUSH1 0x0 DUP1 DUP3 EQ PUSH2 0x2B8 JUMPI DUP5 SWAP1 POP DUP2 DUP6 PUSH2 0x2B1 SWAP2 SWAP1 PUSH2 0xD00 JUMP JUMPDEST SWAP5 POP PUSH2 0x2BC JUMP JUMPDEST DUP5 SWAP1 POP JUMPDEST PUSH1 0x0 DUP2 SWAP1 POP PUSH1 0x0 TIMESTAMP SWAP1 POP PUSH1 0x40 MLOAD DUP1 PUSH1 0xE0 ADD PUSH1 0x40 MSTORE DUP1 DUP11 DUP2 MSTORE PUSH1 0x20 ADD DUP10 DUP2 MSTORE PUSH1 0x20 ADD DUP3 DUP2 MSTORE PUSH1 0x20 ADD DUP9 DUP2 MSTORE PUSH1 0x20 ADD DUP4 DUP2 MSTORE PUSH1 0x20 ADD DUP8 DUP2 MSTORE PUSH1 0x20 ADD DUP7 DUP2 MSTORE POP PUSH1 0x1 PUSH1 0x0 DUP13 DUP2 MSTORE PUSH1 0x20 ADD SWAP1 DUP2 MSTORE PUSH1 0x20 ADD PUSH1 0x0 KECCAK256 PUSH1 0x0 DUP3 ADD MLOAD DUP2 PUSH1 0x0 ADD SWAP1 DUP2 PUSH2 0x321 SWAP2 SWAP1 PUSH2 0xF40 JUMP JUMPDEST POP PUSH1 0x20 DUP3 ADD MLOAD DUP2 PUSH1 0x1 ADD SWAP1 DUP2 PUSH2 0x337 SWAP2 SWAP1 PUSH2 0xF40 JUMP JUMPDEST POP PUSH1 0x40 DUP3 ADD MLOAD DUP2 PUSH1 0x2 ADD SSTORE PUSH1 0x60 DUP3 ADD MLOAD DUP2 PUSH1 0x3 ADD SSTORE PUSH1 0x80 DUP3 ADD MLOAD DUP2 PUSH1 0x4 ADD SSTORE PUSH1 0xA0 DUP3 ADD MLOAD DUP2 PUSH1 0x5 ADD SWAP1 DUP2 PUSH2 0x36B SWAP2 SWAP1 PUSH2 0xF40 JUMP JUMPDEST POP PUSH1 0xC0 DUP3 ADD MLOAD DUP2 PUSH1 0x6 ADD SSTORE SWAP1 POP POP POP POP POP POP POP POP POP POP POP POP JUMP JUMPDEST PUSH1 0x1 PUSH1 0x20 MSTORE DUP1 PUSH1 0x0 MSTORE PUSH1 0x40 PUSH1 0x0 KECCAK256 PUSH1 0x0 SWAP2 POP SWAP1 POP DUP1 PUSH1 0x0 ADD DUP1 SLOAD PUSH2 0x3A8 SWAP1 PUSH2 0xD63 JUMP JUMPDEST DUP1 PUSH1 0x1F ADD PUSH1 0x20 DUP1 SWAP2 DIV MUL PUSH1 0x20 ADD PUSH1 0x40 MLOAD SWAP1 DUP2 ADD PUSH1 0x40 MSTORE DUP1 SWAP3 SWAP2 SWAP1 DUP2 DUP2 MSTORE PUSH1 0x20 ADD DUP3 DUP1 SLOAD PUSH2 0x3D4 SWAP1 PUSH2 0xD63 JUMP JUMPDEST DUP1 ISZERO PUSH2 0x421 JUMPI DUP1 PUSH1 0x1F LT PUSH2 0x3F6 JUMPI PUSH2 0x100 DUP1 DUP4 SLOAD DIV MUL DUP4 MSTORE SWAP2 PUSH1 0x20 ADD SWAP2 PUSH2 0x421 JUMP JUMPDEST DUP3 ADD SWAP2 SWAP1 PUSH1 0x0 MSTORE PUSH1 0x20 PUSH1 0x0 KECCAK256 SWAP1 JUMPDEST DUP2 SLOAD DUP2 MSTORE SWAP1 PUSH1 0x1 ADD SWAP1 PUSH1 0x20 ADD DUP1 DUP4 GT PUSH2 0x404 JUMPI DUP3 SWAP1 SUB PUSH1 0x1F AND DUP3 ADD SWAP2 JUMPDEST POP POP POP POP POP SWAP1 DUP1 PUSH1 0x1 ADD DUP1 SLOAD PUSH2 0x436 SWAP1 PUSH2 0xD63 JUMP JUMPDEST DUP1 PUSH1 0x1F ADD PUSH1 0x20 DUP1 SWAP2 DIV MUL PUSH1 0x20 ADD PUSH1 0x40 MLOAD SWAP1 DUP2 ADD PUSH1 0x40 MSTORE DUP1 SWAP3 SWAP2 SWAP1 DUP2 DUP2 MSTORE PUSH1 0x20 ADD DUP3 DUP1 SLOAD PUSH2 0x462 SWAP1 PUSH2 0xD63 JUMP JUMPDEST DUP1 ISZERO PUSH2 0x4AF JUMPI DUP1 PUSH1 0x1F LT PUSH2 0x484 JUMPI PUSH2 0x100 DUP1 DUP4 SLOAD DIV MUL DUP4 MSTORE SWAP2 PUSH1 0x20 ADD SWAP2 PUSH2 0x4AF JUMP JUMPDEST DUP3 ADD SWAP2 SWAP1 PUSH1 0x0 MSTORE PUSH1 0x20 PUSH1 0x0 KECCAK256 SWAP1 JUMPDEST DUP2 SLOAD DUP2 MSTORE SWAP1 PUSH1 0x1 ADD SWAP1 PUSH1 0x20 ADD DUP1 DUP4 GT PUSH2 0x492 JUMPI DUP3 SWAP1 SUB PUSH1 0x1F AND DUP3 ADD SWAP2 JUMPDEST POP POP POP POP POP SWAP1 DUP1 PUSH1 0x2 ADD SLOAD SWAP1 DUP1 PUSH1 0x3 ADD SLOAD SWAP1 DUP1 PUSH1 0x4 ADD SLOAD SWAP1 DUP1 PUSH1 0x5 ADD DUP1 SLOAD PUSH2 0x4D6 SWAP1 PUSH2 0xD63 JUMP JUMPDEST DUP1 PUSH1 0x1F ADD PUSH1 0x20 DUP1 SWAP2 DIV MUL PUSH1 0x20 ADD PUSH1 0x40 MLOAD SWAP1 DUP2 ADD PUSH1 0x40 MSTORE DUP1 SWAP3 SWAP2 SWAP1 DUP2 DUP2 MSTORE PUSH1 0x20 ADD DUP3 DUP1 SLOAD PUSH2 0x502 SWAP1 PUSH2 0xD63 JUMP JUMPDEST DUP1 ISZERO PUSH2 0x54F JUMPI DUP1 PUSH1 0x1F LT PUSH2 0x524 JUMPI PUSH2 0x100 DUP1 DUP4 SLOAD DIV MUL DUP4 MSTORE SWAP2 PUSH1 0x20 ADD SWAP2 PUSH2 0x54F JUMP JUMPDEST DUP3 ADD SWAP2 SWAP1 PUSH1 0x0 MSTORE PUSH1 0x20 PUSH1 0x0 KECCAK256 SWAP1 JUMPDEST DUP2 SLOAD DUP2 MSTORE SWAP1 PUSH1 0x1 ADD SWAP1 PUSH1 0x20 ADD DUP1 DUP4 GT PUSH2 0x532 JUMPI DUP3 SWAP1 SUB PUSH1 0x1F AND DUP3 ADD SWAP2 JUMPDEST POP POP POP POP POP SWAP1 DUP1 PUSH1 0x6 ADD SLOAD SWAP1 POP DUP8 JUMP JUMPDEST PUSH1 0x2 PUSH1 0x20 MSTORE DUP2 PUSH1 0x0 MSTORE PUSH1 0x40 PUSH1 0x0 KECCAK256 PUSH1 0x20 MSTORE DUP1 PUSH1 0x0 MSTORE PUSH1 0x40 PUSH1 0x0 KECCAK256 PUSH1 0x0 SWAP2 POP SWAP2 POP POP SLOAD DUP2 JUMP JUMPDEST PUSH1 0x0 PUSH1 0x1 PUSH1 0x0 DUP5 DUP2 MSTORE PUSH1 0x20 ADD SWAP1 DUP2 MSTORE PUSH1 0x20 ADD PUSH1 0x0 KECCAK256 PUSH1 0x6 ADD SLOAD SWAP1 POP PUSH1 0x0 PUSH1 0x1 PUSH1 0x0 DUP6 DUP2 MSTORE PUSH1 0x20 ADD SWAP1 DUP2 MSTORE PUSH1 0x20 ADD PUSH1 0x0 KECCAK256 PUSH1 0x4 ADD SLOAD SWAP1 POP PUSH1 0x0 DUP2 SUB PUSH2 0x5FD JUMPI PUSH1 0x40 MLOAD PUSH32 0x8C379A000000000000000000000000000000000000000000000000000000000 DUP2 MSTORE PUSH1 0x4 ADD PUSH2 0x5F4 SWAP1 PUSH2 0x105E JUMP JUMPDEST PUSH1 0x40 MLOAD DUP1 SWAP2 SUB SWAP1 REVERT JUMPDEST CALLVALUE DUP4 DUP4 PUSH2 0x60A SWAP2 SWAP1 PUSH2 0x107E JUMP JUMPDEST EQ PUSH2 0x64A JUMPI PUSH1 0x40 MLOAD PUSH32 0x8C379A000000000000000000000000000000000000000000000000000000000 DUP2 MSTORE PUSH1 0x4 ADD PUSH2 0x641 SWAP1 PUSH2 0x110C JUMP JUMPDEST PUSH1 0x40 MLOAD DUP1 SWAP2 SUB SWAP1 REVERT JUMPDEST DUP3 DUP2 PUSH2 0x656 SWAP2 SWAP1 PUSH2 0xCCC JUMP JUMPDEST PUSH1 0x1 PUSH1 0x0 DUP7 DUP2 MSTORE PUSH1 0x20 ADD SWAP1 DUP2 MSTORE PUSH1 0x20 ADD PUSH1 0x0 KECCAK256 PUSH1 0x4 ADD DUP2 SWAP1 SSTORE POP DUP3 DUP3 PUSH2 0x67C SWAP2 SWAP1 PUSH2 0x107E JUMP JUMPDEST PUSH1 0x0 DUP2 SWAP1 SSTORE POP PUSH1 0x0 PUSH1 0x2 PUSH1 0x0 CALLER PUSH20 0xFFFFFFFFFFFFFFFFFFFFFFFFFFFFFFFFFFFFFFFF AND PUSH20 0xFFFFFFFFFFFFFFFFFFFFFFFFFFFFFFFFFFFFFFFF AND DUP2 MSTORE PUSH1 0x20 ADD SWAP1 DUP2 MSTORE PUSH1 0x20 ADD PUSH1 0x0 KECCAK256 PUSH1 0x0 DUP7 DUP2 MSTORE PUSH1 0x20 ADD SWAP1 DUP2 MSTORE PUSH1 0x20 ADD PUSH1 0x0 KECCAK256 SLOAD SWAP1 POP PUSH1 0x0 DUP2 EQ PUSH2 0x744 JUMPI DUP4 DUP2 PUSH2 0x6EB SWAP2 SWAP1 PUSH2 0xD00 JUMP JUMPDEST PUSH1 0x2 PUSH1 0x0 CALLER PUSH20 0xFFFFFFFFFFFFFFFFFFFFFFFFFFFFFFFFFFFFFFFF AND PUSH20 0xFFFFFFFFFFFFFFFFFFFFFFFFFFFFFFFFFFFFFFFF AND DUP2 MSTORE PUSH1 0x20 ADD SWAP1 DUP2 MSTORE PUSH1 0x20 ADD PUSH1 0x0 KECCAK256 PUSH1 0x0 DUP8 DUP2 MSTORE PUSH1 0x20 ADD SWAP1 DUP2 MSTORE PUSH1 0x20 ADD PUSH1 0x0 KECCAK256 DUP2 SWAP1 SSTORE POP PUSH2 0x79A JUMP JUMPDEST DUP4 PUSH1 0x2 PUSH1 0x0 CALLER PUSH20 0xFFFFFFFFFFFFFFFFFFFFFFFFFFFFFFFFFFFFFFFF AND PUSH20 0xFFFFFFFFFFFFFFFFFFFFFFFFFFFFFFFFFFFFFFFF AND DUP2 MSTORE PUSH1 0x20 ADD SWAP1 DUP2 MSTORE PUSH1 0x20 ADD PUSH1 0x0 KECCAK256 PUSH1 0x0 DUP8 DUP2 MSTORE PUSH1 0x20 ADD SWAP1 DUP2 MSTORE PUSH1 0x20 ADD PUSH1 0x0 KECCAK256 DUP2 SWAP1 SSTORE POP JUMPDEST POP POP POP POP POP JUMP JUMPDEST PUSH1 0x0 PUSH1 0x40 MLOAD SWAP1 POP SWAP1 JUMP JUMPDEST PUSH1 0x0 DUP1 REVERT JUMPDEST PUSH1 0x0 DUP1 REVERT JUMPDEST PUSH1 0x0 PUSH20 0xFFFFFFFFFFFFFFFFFFFFFFFFFFFFFFFFFFFFFFFF DUP3 AND SWAP1 POP SWAP2 SWAP1 POP JUMP JUMPDEST PUSH1 0x0 PUSH2 0x7E0 DUP3 PUSH2 0x7B5 JUMP JUMPDEST SWAP1 POP SWAP2 SWAP1 POP JUMP JUMPDEST PUSH2 0x7F0 DUP2 PUSH2 0x7D5 JUMP JUMPDEST DUP2 EQ PUSH2 0x7FB JUMPI PUSH1 0x0 DUP1 REVERT JUMPDEST POP JUMP JUMPDEST PUSH1 0x0 DUP2 CALLDATALOAD SWAP1 POP PUSH2 0x80D DUP2 PUSH2 0x7E7 JUMP JUMPDEST SWAP3 SWAP2 POP POP JUMP JUMPDEST PUSH1 0x0 DUP2 SWAP1 POP SWAP2 SWAP1 POP JUMP JUMPDEST PUSH2 0x826 DUP2 PUSH2 0x813 JUMP JUMPDEST DUP2 EQ PUSH2 0x831 JUMPI PUSH1 0x0 DUP1 REVERT JUMPDEST POP JUMP JUMPDEST PUSH1 0x0 DUP2 CALLDATALOAD SWAP1 POP PUSH2 0x843 DUP2 PUSH2 0x81D JUMP JUMPDEST SWAP3 SWAP2 POP POP JUMP JUMPDEST PUSH1 0x0 DUP1 PUSH1 0x0 PUSH1 0x60 DUP5 DUP7 SUB SLT ISZERO PUSH2 0x862 JUMPI PUSH2 0x861 PUSH2 0x7AB JUMP JUMPDEST JUMPDEST PUSH1 0x0 PUSH2 0x870 DUP7 DUP3 DUP8 ADD PUSH2 0x7FE JUMP JUMPDEST SWAP4 POP POP PUSH1 0x20 PUSH2 0x881 DUP7 DUP3 DUP8 ADD PUSH2 0x834 JUMP JUMPDEST SWAP3 POP POP PUSH1 0x40 PUSH2 0x892 DUP7 DUP3 DUP8 ADD PUSH2 0x834 JUMP JUMPDEST SWAP2 POP POP SWAP3 POP SWAP3 POP SWAP3 JUMP JUMPDEST PUSH2 0x8A5 DUP2 PUSH2 0x813 JUMP JUMPDEST DUP3 MSTORE POP POP JUMP JUMPDEST PUSH1 0x0 PUSH1 0x20 DUP3 ADD SWAP1 POP PUSH2 0x8C0 PUSH1 0x0 DUP4 ADD DUP5 PUSH2 0x89C JUMP JUMPDEST SWAP3 SWAP2 POP POP JUMP JUMPDEST PUSH1 0x0 DUP1 REVERT JUMPDEST PUSH1 0x0 DUP1 REVERT JUMPDEST PUSH1 0x0 PUSH1 0x1F NOT PUSH1 0x1F DUP4 ADD AND SWAP1 POP SWAP2 SWAP1 POP JUMP JUMPDEST PUSH32 0x4E487B7100000000000000000000000000000000000000000000000000000000 PUSH1 0x0 MSTORE PUSH1 0x41 PUSH1 0x4 MSTORE PUSH1 0x24 PUSH1 0x0 REVERT JUMPDEST PUSH2 0x919 DUP3 PUSH2 0x8D0 JUMP JUMPDEST DUP2 ADD DUP2 DUP2 LT PUSH8 0xFFFFFFFFFFFFFFFF DUP3 GT OR ISZERO PUSH2 0x938 JUMPI PUSH2 0x937 PUSH2 0x8E1 JUMP JUMPDEST JUMPDEST DUP1 PUSH1 0x40 MSTORE POP POP POP JUMP JUMPDEST PUSH1 0x0 PUSH2 0x94B PUSH2 0x7A1 JUMP JUMPDEST SWAP1 POP PUSH2 0x957 DUP3 DUP3 PUSH2 0x910 JUMP JUMPDEST SWAP2 SWAP1 POP JUMP JUMPDEST PUSH1 0x0 PUSH8 0xFFFFFFFFFFFFFFFF DUP3 GT ISZERO PUSH2 0x977 JUMPI PUSH2 0x976 PUSH2 0x8E1 JUMP JUMPDEST JUMPDEST PUSH2 0x980 DUP3 PUSH2 0x8D0 JUMP JUMPDEST SWAP1 POP PUSH1 0x20 DUP2 ADD SWAP1 POP SWAP2 SWAP1 POP JUMP JUMPDEST DUP3 DUP2 DUP4 CALLDATACOPY PUSH1 0x0 DUP4 DUP4 ADD MSTORE POP POP POP JUMP JUMPDEST PUSH1 0x0 PUSH2 0x9AF PUSH2 0x9AA DUP5 PUSH2 0x95C JUMP JUMPDEST PUSH2 0x941 JUMP JUMPDEST SWAP1 POP DUP3 DUP2 MSTORE PUSH1 0x20 DUP2 ADD DUP5 DUP5 DUP5 ADD GT ISZERO PUSH2 0x9CB JUMPI PUSH2 0x9CA PUSH2 0x8CB JUMP JUMPDEST JUMPDEST PUSH2 0x9D6 DUP5 DUP3 DUP6 PUSH2 0x98D JUMP JUMPDEST POP SWAP4 SWAP3 POP POP POP JUMP JUMPDEST PUSH1 0x0 DUP3 PUSH1 0x1F DUP4 ADD SLT PUSH2 0x9F3 JUMPI PUSH2 0x9F2 PUSH2 0x8C6 JUMP JUMPDEST JUMPDEST DUP2 CALLDATALOAD PUSH2 0xA03 DUP5 DUP3 PUSH1 0x20 DUP7 ADD PUSH2 0x99C JUMP JUMPDEST SWAP2 POP POP SWAP3 SWAP2 POP POP JUMP JUMPDEST PUSH1 0x0 DUP1 PUSH1 0x0 DUP1 PUSH1 0x0 DUP1 PUSH1 0xC0 DUP8 DUP10 SUB SLT ISZERO PUSH2 0xA29 JUMPI PUSH2 0xA28 PUSH2 0x7AB JUMP JUMPDEST JUMPDEST PUSH1 0x0 PUSH2 0xA37 DUP10 DUP3 DUP11 ADD PUSH2 0x834 JUMP JUMPDEST SWAP7 POP POP PUSH1 0x20 DUP8 ADD CALLDATALOAD PUSH8 0xFFFFFFFFFFFFFFFF DUP2 GT ISZERO PUSH2 0xA58 JUMPI PUSH2 0xA57 PUSH2 0x7B0 JUMP JUMPDEST JUMPDEST PUSH2 0xA64 DUP10 DUP3 DUP11 ADD PUSH2 0x9DE JUMP JUMPDEST SWAP6 POP POP PUSH1 0x40 DUP8 ADD CALLDATALOAD PUSH8 0xFFFFFFFFFFFFFFFF DUP2 GT ISZERO PUSH2 0xA85 JUMPI PUSH2 0xA84 PUSH2 0x7B0 JUMP JUMPDEST JUMPDEST PUSH2 0xA91 DUP10 DUP3 DUP11 ADD PUSH2 0x9DE JUMP JUMPDEST SWAP5 POP POP PUSH1 0x60 PUSH2 0xAA2 DUP10 DUP3 DUP11 ADD PUSH2 0x834 JUMP JUMPDEST SWAP4 POP POP PUSH1 0x80 DUP8 ADD CALLDATALOAD PUSH8 0xFFFFFFFFFFFFFFFF DUP2 GT ISZERO PUSH2 0xAC3 JUMPI PUSH2 0xAC2 PUSH2 0x7B0 JUMP JUMPDEST JUMPDEST PUSH2 0xACF DUP10 DUP3 DUP11 ADD PUSH2 0x9DE JUMP JUMPDEST SWAP3 POP POP PUSH1 0xA0 PUSH2 0xAE0 DUP10 DUP3 DUP11 ADD PUSH2 0x834 JUMP JUMPDEST SWAP2 POP POP SWAP3 SWAP6 POP SWAP3 SWAP6 POP SWAP3 SWAP6 JUMP JUMPDEST PUSH1 0x0 PUSH1 0x20 DUP3 DUP5 SUB SLT ISZERO PUSH2 0xB03 JUMPI PUSH2 0xB02 PUSH2 0x7AB JUMP JUMPDEST JUMPDEST PUSH1 0x0 PUSH2 0xB11 DUP5 DUP3 DUP6 ADD PUSH2 0x834 JUMP JUMPDEST SWAP2 POP POP SWAP3 SWAP2 POP POP JUMP JUMPDEST PUSH1 0x0 DUP2 MLOAD SWAP1 POP SWAP2 SWAP1 POP JUMP JUMPDEST PUSH1 0x0 DUP3 DUP3 MSTORE PUSH1 0x20 DUP3 ADD SWAP1 POP SWAP3 SWAP2 POP POP JUMP JUMPDEST PUSH1 0x0 JUMPDEST DUP4 DUP2 LT ISZERO PUSH2 0xB54 JUMPI DUP1 DUP3 ADD MLOAD DUP2 DUP5 ADD MSTORE PUSH1 0x20 DUP2 ADD SWAP1 POP PUSH2 0xB39 JUMP JUMPDEST PUSH1 0x0 DUP5 DUP5 ADD MSTORE POP POP POP POP JUMP JUMPDEST PUSH1 0x0 PUSH2 0xB6B DUP3 PUSH2 0xB1A JUMP JUMPDEST PUSH2 0xB75 DUP2 DUP6 PUSH2 0xB25 JUMP JUMPDEST SWAP4 POP PUSH2 0xB85 DUP2 DUP6 PUSH1 0x20 DUP7 ADD PUSH2 0xB36 JUMP JUMPDEST PUSH2 0xB8E DUP2 PUSH2 0x8D0 JUMP JUMPDEST DUP5 ADD SWAP2 POP POP SWAP3 SWAP2 POP POP JUMP JUMPDEST PUSH1 0x0 PUSH1 0xE0 DUP3 ADD SWAP1 POP DUP2 DUP2 SUB PUSH1 0x0 DUP4 ADD MSTORE PUSH2 0xBB3 DUP2 DUP11 PUSH2 0xB60 JUMP JUMPDEST SWAP1 POP DUP2 DUP2 SUB PUSH1 0x20 DUP4 ADD MSTORE PUSH2 0xBC7 DUP2 DUP10 PUSH2 0xB60 JUMP JUMPDEST SWAP1 POP PUSH2 0xBD6 PUSH1 0x40 DUP4 ADD DUP9 PUSH2 0x89C JUMP JUMPDEST PUSH2 0xBE3 PUSH1 0x60 DUP4 ADD DUP8 PUSH2 0x89C JUMP JUMPDEST PUSH2 0xBF0 PUSH1 0x80 DUP4 ADD DUP7 PUSH2 0x89C JUMP JUMPDEST DUP2 DUP2 SUB PUSH1 0xA0 DUP4 ADD MSTORE PUSH2 0xC02 DUP2 DUP6 PUSH2 0xB60 JUMP JUMPDEST SWAP1 POP PUSH2 0xC11 PUSH1 0xC0 DUP4 ADD DUP5 PUSH2 0x89C JUMP JUMPDEST SWAP9 SWAP8 POP POP POP POP POP POP POP POP JUMP JUMPDEST PUSH1 0x0 DUP1 PUSH1 0x40 DUP4 DUP6 SUB SLT ISZERO PUSH2 0xC34 JUMPI PUSH2 0xC33 PUSH2 0x7AB JUMP JUMPDEST JUMPDEST PUSH1 0x0 PUSH2 0xC42 DUP6 DUP3 DUP7 ADD PUSH2 0x7FE JUMP JUMPDEST SWAP3 POP POP PUSH1 0x20 PUSH2 0xC53 DUP6 DUP3 DUP7 ADD PUSH2 0x834 JUMP JUMPDEST SWAP2 POP POP SWAP3 POP SWAP3 SWAP1 POP JUMP JUMPDEST PUSH1 0x0 DUP1 PUSH1 0x40 DUP4 DUP6 SUB SLT ISZERO PUSH2 0xC74 JUMPI PUSH2 0xC73 PUSH2 0x7AB JUMP JUMPDEST JUMPDEST PUSH1 0x0 PUSH2 0xC82 DUP6 DUP3 DUP7 ADD PUSH2 0x834 JUMP JUMPDEST SWAP3 POP POP PUSH1 0x20 PUSH2 0xC93 DUP6 DUP3 DUP7 ADD PUSH2 0x834 JUMP JUMPDEST SWAP2 POP POP SWAP3 POP SWAP3 SWAP1 POP JUMP JUMPDEST PUSH32 0x4E487B7100000000000000000000000000000000000000000000000000000000 PUSH1 0x0 MSTORE PUSH1 0x11 PUSH1 0x4 MSTORE PUSH1 0x24 PUSH1 0x0 REVERT JUMPDEST PUSH1 0x0 PUSH2 0xCD7 DUP3 PUSH2 0x813 JUMP JUMPDEST SWAP2 POP PUSH2 0xCE2 DUP4 PUSH2 0x813 JUMP JUMPDEST SWAP3 POP DUP3 DUP3 SUB SWAP1 POP DUP2 DUP2 GT ISZERO PUSH2 0xCFA JUMPI PUSH2 0xCF9 PUSH2 0xC9D JUMP JUMPDEST JUMPDEST SWAP3 SWAP2 POP POP JUMP JUMPDEST PUSH1 0x0 PUSH2 0xD0B DUP3 PUSH2 0x813 JUMP JUMPDEST SWAP2 POP PUSH2 0xD16 DUP4 PUSH2 0x813 JUMP JUMPDEST SWAP3 POP DUP3 DUP3 ADD SWAP1 POP DUP1 DUP3 GT ISZERO PUSH2 0xD2E JUMPI PUSH2 0xD2D PUSH2 0xC9D JUMP JUMPDEST JUMPDEST SWAP3 SWAP2 POP POP JUMP JUMPDEST PUSH32 0x4E487B7100000000000000000000000000000000000000000000000000000000 PUSH1 0x0 MSTORE PUSH1 0x22 PUSH1 0x4 MSTORE PUSH1 0x24 PUSH1 0x0 REVERT JUMPDEST PUSH1 0x0 PUSH1 0x2 DUP3 DIV SWAP1 POP PUSH1 0x1 DUP3 AND DUP1 PUSH2 0xD7B JUMPI PUSH1 0x7F DUP3 AND SWAP2 POP JUMPDEST PUSH1 0x20 DUP3 LT DUP2 SUB PUSH2 0xD8E JUMPI PUSH2 0xD8D PUSH2 0xD34 JUMP JUMPDEST JUMPDEST POP SWAP2 SWAP1 POP JUMP JUMPDEST PUSH1 0x0 DUP2 SWAP1 POP DUP2 PUSH1 0x0 MSTORE PUSH1 0x20 PUSH1 0x0 KECCAK256 SWAP1 POP SWAP2 SWAP1 POP JUMP JUMPDEST PUSH1 0x0 PUSH1 0x20 PUSH1 0x1F DUP4 ADD DIV SWAP1 POP SWAP2 SWAP1 POP JUMP JUMPDEST PUSH1 0x0 DUP3 DUP3 SHL SWAP1 POP SWAP3 SWAP2 POP POP JUMP JUMPDEST PUSH1 0x0 PUSH1 0x8 DUP4 MUL PUSH2 0xDF6 PUSH32 0xFFFFFFFFFFFFFFFFFFFFFFFFFFFFFFFFFFFFFFFFFFFFFFFFFFFFFFFFFFFFFFFF DUP3 PUSH2 0xDB9 JUMP JUMPDEST PUSH2 0xE00 DUP7 DUP4 PUSH2 0xDB9 JUMP JUMPDEST SWAP6 POP DUP1 NOT DUP5 AND SWAP4 POP DUP1 DUP7 AND DUP5 OR SWAP3 POP POP POP SWAP4 SWAP3 POP POP POP JUMP JUMPDEST PUSH1 0x0 DUP2 SWAP1 POP SWAP2 SWAP1 POP JUMP JUMPDEST PUSH1 0x0 PUSH2 0xE3D PUSH2 0xE38 PUSH2 0xE33 DUP5 PUSH2 0x813 JUMP JUMPDEST PUSH2 0xE18 JUMP JUMPDEST PUSH2 0x813 JUMP JUMPDEST SWAP1 POP SWAP2 SWAP1 POP JUMP JUMPDEST PUSH1 0x0 DUP2 SWAP1 POP SWAP2 SWAP1 POP JUMP JUMPDEST PUSH2 0xE57 DUP4 PUSH2 0xE22 JUMP JUMPDEST PUSH2 0xE6B PUSH2 0xE63 DUP3 PUSH2 0xE44 JUMP JUMPDEST DUP5 DUP5 SLOAD PUSH2 0xDC6 JUMP JUMPDEST DUP3 SSTORE POP POP POP POP JUMP JUMPDEST PUSH1 0x0 SWAP1 JUMP JUMPDEST PUSH2 0xE80 PUSH2 0xE73 JUMP JUMPDEST PUSH2 0xE8B DUP2 DUP5 DUP5 PUSH2 0xE4E JUMP JUMPDEST POP POP POP JUMP JUMPDEST JUMPDEST DUP2 DUP2 LT ISZERO PUSH2 0xEAF JUMPI PUSH2 0xEA4 PUSH1 0x0 DUP3 PUSH2 0xE78 JUMP JUMPDEST PUSH1 0x1 DUP2 ADD SWAP1 POP PUSH2 0xE91 JUMP JUMPDEST POP POP JUMP JUMPDEST PUSH1 0x1F DUP3 GT ISZERO PUSH2 0xEF4 JUMPI PUSH2 0xEC5 DUP2 PUSH2 0xD94 JUMP JUMPDEST PUSH2 0xECE DUP5 PUSH2 0xDA9 JUMP JUMPDEST DUP2 ADD PUSH1 0x20 DUP6 LT ISZERO PUSH2 0xEDD JUMPI DUP2 SWAP1 POP JUMPDEST PUSH2 0xEF1 PUSH2 0xEE9 DUP6 PUSH2 0xDA9 JUMP JUMPDEST DUP4 ADD DUP3 PUSH2 0xE90 JUMP JUMPDEST POP POP JUMPDEST POP POP POP JUMP JUMPDEST PUSH1 0x0 DUP3 DUP3 SHR SWAP1 POP SWAP3 SWAP2 POP POP JUMP JUMPDEST PUSH1 0x0 PUSH2 0xF17 PUSH1 0x0 NOT DUP5 PUSH1 0x8 MUL PUSH2 0xEF9 JUMP JUMPDEST NOT DUP1 DUP4 AND SWAP2 POP POP SWAP3 SWAP2 POP POP JUMP JUMPDEST PUSH1 0x0 PUSH2 0xF30 DUP4 DUP4 PUSH2 0xF06 JUMP JUMPDEST SWAP2 POP DUP3 PUSH1 0x2 MUL DUP3 OR SWAP1 POP SWAP3 SWAP2 POP POP JUMP JUMPDEST PUSH2 0xF49 DUP3 PUSH2 0xB1A JUMP JUMPDEST PUSH8 0xFFFFFFFFFFFFFFFF DUP2 GT ISZERO PUSH2 0xF62 JUMPI PUSH2 0xF61 PUSH2 0x8E1 JUMP JUMPDEST JUMPDEST PUSH2 0xF6C DUP3 SLOAD PUSH2 0xD63 JUMP JUMPDEST PUSH2 0xF77 DUP3 DUP3 DUP6 PUSH2 0xEB3 JUMP JUMPDEST PUSH1 0x0 PUSH1 0x20 SWAP1 POP PUSH1 0x1F DUP4 GT PUSH1 0x1 DUP2 EQ PUSH2 0xFAA JUMPI PUSH1 0x0 DUP5 ISZERO PUSH2 0xF98 JUMPI DUP3 DUP8 ADD MLOAD SWAP1 POP JUMPDEST PUSH2 0xFA2 DUP6 DUP3 PUSH2 0xF24 JUMP JUMPDEST DUP7 SSTORE POP PUSH2 0x100A JUMP JUMPDEST PUSH1 0x1F NOT DUP5 AND PUSH2 0xFB8 DUP7 PUSH2 0xD94 JUMP JUMPDEST PUSH1 0x0 JUMPDEST DUP3 DUP2 LT ISZERO PUSH2 0xFE0 JUMPI DUP5 DUP10 ADD MLOAD DUP3 SSTORE PUSH1 0x1 DUP3 ADD SWAP2 POP PUSH1 0x20 DUP6 ADD SWAP5 POP PUSH1 0x20 DUP2 ADD SWAP1 POP PUSH2 0xFBB JUMP JUMPDEST DUP7 DUP4 LT ISZERO PUSH2 0xFFD JUMPI DUP5 DUP10 ADD MLOAD PUSH2 0xFF9 PUSH1 0x1F DUP10 AND DUP3 PUSH2 0xF06 JUMP JUMPDEST DUP4 SSTORE POP JUMPDEST PUSH1 0x1 PUSH1 0x2 DUP9 MUL ADD DUP9 SSTORE POP POP POP JUMPDEST POP POP POP POP POP POP JUMP JUMPDEST PUSH32 0x4576656E742053657473204172652046756C6C00000000000000000000000000 PUSH1 0x0 DUP3 ADD MSTORE POP JUMP JUMPDEST PUSH1 0x0 PUSH2 0x1048 PUSH1 0x13 DUP4 PUSH2 0xB25 JUMP JUMPDEST SWAP2 POP PUSH2 0x1053 DUP3 PUSH2 0x1012 JUMP JUMPDEST PUSH1 0x20 DUP3 ADD SWAP1 POP SWAP2 SWAP1 POP JUMP JUMPDEST PUSH1 0x0 PUSH1 0x20 DUP3 ADD SWAP1 POP DUP2 DUP2 SUB PUSH1 0x0 DUP4 ADD MSTORE PUSH2 0x1077 DUP2 PUSH2 0x103B JUMP JUMPDEST SWAP1 POP SWAP2 SWAP1 POP JUMP JUMPDEST PUSH1 0x0 PUSH2 0x1089 DUP3 PUSH2 0x813 JUMP JUMPDEST SWAP2 POP PUSH2 0x1094 DUP4 PUSH2 0x813 JUMP JUMPDEST SWAP3 POP DUP3 DUP3 MUL PUSH2 0x10A2 DUP2 PUSH2 0x813 JUMP JUMPDEST SWAP2 POP DUP3 DUP3 DIV DUP5 EQ DUP4 ISZERO OR PUSH2 0x10B9 JUMPI PUSH2 0x10B8 PUSH2 0xC9D JUMP JUMPDEST JUMPDEST POP SWAP3 SWAP2 POP POP JUMP JUMPDEST PUSH32 0x46656573204E6F742066756C6C207061792E0000000000000000000000000000 PUSH1 0x0 DUP3 ADD MSTORE POP JUMP JUMPDEST PUSH1 0x0 PUSH2 0x10F6 PUSH1 0x12 DUP4 PUSH2 0xB25 JUMP JUMPDEST SWAP2 POP PUSH2 0x1101 DUP3 PUSH2 0x10C0 JUMP JUMPDEST PUSH1 0x20 DUP3 ADD SWAP1 POP SWAP2 SWAP1 POP JUMP JUMPDEST PUSH1 0x0 PUSH1 0x20 DUP3 ADD SWAP1 POP DUP2 DUP2 SUB PUSH1 0x0 DUP4 ADD MSTORE PUSH2 0x1125 DUP2 PUSH2 0x10E9 JUMP JUMPDEST SWAP1 POP SWAP2 SWAP1 POP JUMP INVALID LOG2 PUSH5 0x6970667358 0x22 SLT KECCAK256 LT 0xCA 0xE9 PUSH12 0x821311742EFD03FEFEEAE3A4 0x4F SWAP11 0xF7 PC 0xDE MSTORE8 0xFB SELFBALANCE SWAP1 0xF6 DUP3 0xF8 0xCC DUP8 SSTORE 0xAB PUSH5 0x736F6C6343 STOP ADDMOD SLT STOP CALLER "
		},
		"gasEstimates": {
			"creation": {
				"codeDepositCost": "890000",
				"executionCost": "929",
				"totalCost": "890929"
			},
			"external": {
				"CreateEvent(uint256,string,string,uint256,string,uint256)": "infinite",
				"eventData(uint256)": "infinite",
				"getPurAmount()": "339",
				"joinEvent(uint256,uint256)": "infinite",
				"tickets(address,uint256)": "infinite",
				"traticket(address,uint256,uint256)": "infinite"
			}
		},
		"methodIdentifiers": {
			"CreateEvent(uint256,string,string,uint256,string,uint256)": "b824fbf0",
			"eventData(uint256)": "c3321363",
			"getPurAmount()": "81c2adc0",
			"joinEvent(uint256,uint256)": "f4533749",
			"tickets(address,uint256)": "dae7a13c",
			"traticket(address,uint256,uint256)": "2e828d72"
		}
	},
	"abi": [
		{
			"inputs": [
				{
					"internalType": "uint256",
					"name": "eventid",
					"type": "uint256"
				},
				{
					"internalType": "string",
					"name": "organiser",
					"type": "string"
				},
				{
					"internalType": "string",
					"name": "eventname",
					"type": "string"
				},
				{
					"internalType": "uint256",
					"name": "eventticket",
					"type": "uint256"
				},
				{
					"internalType": "string",
					"name": "evnetcity",
					"type": "string"
				},
				{
					"internalType": "uint256",
					"name": "eventfee",
					"type": "uint256"
				}
			],
			"name": "CreateEvent",
			"outputs": [],
			"stateMutability": "nonpayable",
			"type": "function"
		},
		{
			"inputs": [
				{
					"internalType": "uint256",
					"name": "",
					"type": "uint256"
				}
			],
			"name": "eventData",
			"outputs": [
				{
					"internalType": "string",
					"name": "organiser",
					"type": "string"
				},
				{
					"internalType": "string",
					"name": "eventname",
					"type": "string"
				},
				{
					"internalType": "uint256",
					"name": "eventdate",
					"type": "uint256"
				},
				{
					"internalType": "uint256",
					"name": "eventticket",
					"type": "uint256"
				},
				{
					"internalType": "uint256",
					"name": "eventRemticket",
					"type": "uint256"
				},
				{
					"internalType": "string",
					"name": "evnetcity",
					"type": "string"
				},
				{
					"internalType": "uint256",
					"name": "eventfee",
					"type": "uint256"
				}
			],
			"stateMutability": "view",
			"type": "function"
		},
		{
			"inputs": [],
			"name": "getPurAmount",
			"outputs": [
				{
					"internalType": "uint256",
					"name": "",
					"type": "uint256"
				}
			],
			"stateMutability": "view",
			"type": "function"
		},
		{
			"inputs": [
				{
					"internalType": "uint256",
					"name": "eventid",
					"type": "uint256"
				},
				{
					"internalType": "uint256",
					"name": "ticket",
					"type": "uint256"
				}
			],
			"name": "joinEvent",
			"outputs": [],
			"stateMutability": "payable",
			"type": "function"
		},
		{
			"inputs": [
				{
					"internalType": "address",
					"name": "",
					"type": "address"
				},
				{
					"internalType": "uint256",
					"name": "",
					"type": "uint256"
				}
			],
			"name": "tickets",
			"outputs": [
				{
					"internalType": "uint256",
					"name": "",
					"type": "uint256"
				}
			],
			"stateMutability": "view",
			"type": "function"
		},
		{
			"inputs": [
				{
					"internalType": "address",
					"name": "traUser",
					"type": "address"
				},
				{
					"internalType": "uint256",
					"name": "traTicket",
					"type": "uint256"
				},
				{
					"internalType": "uint256",
					"name": "traEvent",
					"type": "uint256"
				}
			],
			"name": "traticket",
			"outputs": [],
			"stateMutability": "payable",
			"type": "function"
		}
	]
}