{
	"data": {
		"bytecode": {
			"linkReferences": {},
			"object": "608060405234801561001057600080fd5b506111d6806100206000396000f3fe6080604052600436106100555760003560e01c80632e828d721461005a57806381c2adc014610076578063b824fbf0146100a1578063c3321363146100ca578063dae7a13c1461010d578063f45337491461014a575b600080fd5b610074600480360381019061006f91906108bd565b610166565b005b34801561008257600080fd5b5061008b6102ea565b604051610098919061091f565b60405180910390f35b3480156100ad57600080fd5b506100c860048036038101906100c39190610a80565b6102f2565b005b3480156100d657600080fd5b506100f160048036038101906100ec9190610b61565b6103f9565b6040516101049796959493929190610c0d565b60405180910390f35b34801561011957600080fd5b50610134600480360381019061012f9190610c91565b6105d3565b604051610141919061091f565b60405180910390f35b610164600480360381019061015f9190610cd1565b6105f8565b005b60006001600083815260200190815260200160002060060154905060003090506000600260003373ffffffffffffffffffffffffffffffffffffffff1673ffffffffffffffffffffffffffffffffffffffff168152602001908152602001600020600085815260200190815260200160002054905084816101e79190610d40565b600260003373ffffffffffffffffffffffffffffffffffffffff1673ffffffffffffffffffffffffffffffffffffffff16815260200190815260200160002060008681526020019081526020016000208190555084600260008873ffffffffffffffffffffffffffffffffffffffff1673ffffffffffffffffffffffffffffffffffffffff1681526020019081526020016000206000868152602001908152602001600020819055508173ffffffffffffffffffffffffffffffffffffffff166108fc86856102b69190610d74565b9081150290604051600060405180830381858888f193505050501580156102e1573d6000803e3d6000fd5b50505050505050565b600047905090565b600060016000888152602001908152602001600020600301549050600080821461032c5784905081856103259190610db6565b9450610330565b8490505b600081905060004290506040518060e001604052808a815260200189815260200182815260200188815260200183815260200187815260200186815250600160008c815260200190815260200160002060008201518160000190816103959190610ff6565b5060208201518160010190816103ab9190610ff6565b5060408201518160020155606082015181600301556080820151816004015560a08201518160050190816103df9190610ff6565b5060c0820151816006015590505050505050505050505050565b600160205280600052604060002060009150905080600001805461041c90610e19565b80601f016020809104026020016040519081016040528092919081815260200182805461044890610e19565b80156104955780601f1061046a57610100808354040283529160200191610495565b820191906000526020600020905b81548152906001019060200180831161047857829003601f168201915b5050505050908060010180546104aa90610e19565b80601f01602080910402602001604051908101604052809291908181526020018280546104d690610e19565b80156105235780601f106104f857610100808354040283529160200191610523565b820191906000526020600020905b81548152906001019060200180831161050657829003601f168201915b50505050509080600201549080600301549080600401549080600501805461054a90610e19565b80601f016020809104026020016040519081016040528092919081815260200182805461057690610e19565b80156105c35780601f10610598576101008083540402835291602001916105c3565b820191906000526020600020905b8154815290600101906020018083116105a657829003601f168201915b5050505050908060060154905087565b6002602052816000526040600020602052806000526040600020600091509150505481565b60006001600084815260200190815260200160002060060154905060006001600085815260200190815260200160002060040154905060008103610671576040517f08c379a000000000000000000000000000000000000000000000000000000000815260040161066890611114565b60405180910390fd5b34838361067e9190610d74565b146106be576040517f08c379a00000000000000000000000000000000000000000000000000000000081526004016106b590611180565b60405180910390fd5b82816106ca9190610d40565b600160008681526020019081526020016000206004018190555082826106f09190610d74565b6000819055506000600260003373ffffffffffffffffffffffffffffffffffffffff1673ffffffffffffffffffffffffffffffffffffffff1681526020019081526020016000206000868152602001908152602001600020549050600081146107b857838161075f9190610db6565b600260003373ffffffffffffffffffffffffffffffffffffffff1673ffffffffffffffffffffffffffffffffffffffff16815260200190815260200160002060008781526020019081526020016000208190555061080e565b83600260003373ffffffffffffffffffffffffffffffffffffffff1673ffffffffffffffffffffffffffffffffffffffff1681526020019081526020016000206000878152602001908152602001600020819055505b5050505050565b6000604051905090565b600080fd5b600080fd5b600073ffffffffffffffffffffffffffffffffffffffff82169050919050565b600061085482610829565b9050919050565b61086481610849565b811461086f57600080fd5b50565b6000813590506108818161085b565b92915050565b6000819050919050565b61089a81610887565b81146108a557600080fd5b50565b6000813590506108b781610891565b92915050565b6000806000606084860312156108d6576108d561081f565b5b60006108e486828701610872565b93505060206108f5868287016108a8565b9250506040610906868287016108a8565b9150509250925092565b61091981610887565b82525050565b60006020820190506109346000830184610910565b92915050565b600080fd5b600080fd5b6000601f19601f8301169050919050565b7f4e487b7100000000000000000000000000000000000000000000000000000000600052604160045260246000fd5b61098d82610944565b810181811067ffffffffffffffff821117156109ac576109ab610955565b5b80604052505050565b60006109bf610815565b90506109cb8282610984565b919050565b600067ffffffffffffffff8211156109eb576109ea610955565b5b6109f482610944565b9050602081019050919050565b82818337600083830152505050565b6000610a23610a1e846109d0565b6109b5565b905082815260208101848484011115610a3f57610a3e61093f565b5b610a4a848285610a01565b509392505050565b600082601f830112610a6757610a6661093a565b5b8135610a77848260208601610a10565b91505092915050565b60008060008060008060c08789031215610a9d57610a9c61081f565b5b6000610aab89828a016108a8565b965050602087013567ffffffffffffffff811115610acc57610acb610824565b5b610ad889828a01610a52565b955050604087013567ffffffffffffffff811115610af957610af8610824565b5b610b0589828a01610a52565b9450506060610b1689828a016108a8565b935050608087013567ffffffffffffffff811115610b3757610b36610824565b5b610b4389828a01610a52565b92505060a0610b5489828a016108a8565b9150509295509295509295565b600060208284031215610b7757610b7661081f565b5b6000610b85848285016108a8565b91505092915050565b600081519050919050565b600082825260208201905092915050565b60005b83811015610bc8578082015181840152602081019050610bad565b60008484015250505050565b6000610bdf82610b8e565b610be98185610b99565b9350610bf9818560208601610baa565b610c0281610944565b840191505092915050565b600060e0820190508181036000830152610c27818a610bd4565b90508181036020830152610c3b8189610bd4565b9050610c4a6040830188610910565b610c576060830187610910565b610c646080830186610910565b81810360a0830152610c768185610bd4565b9050610c8560c0830184610910565b98975050505050505050565b60008060408385031215610ca857610ca761081f565b5b6000610cb685828601610872565b9250506020610cc7858286016108a8565b9150509250929050565b60008060408385031215610ce857610ce761081f565b5b6000610cf6858286016108a8565b9250506020610d07858286016108a8565b9150509250929050565b7f4e487b7100000000000000000000000000000000000000000000000000000000600052601160045260246000fd5b6000610d4b82610887565b9150610d5683610887565b9250828203905081811115610d6e57610d6d610d11565b5b92915050565b6000610d7f82610887565b9150610d8a83610887565b9250828202610d9881610887565b91508282048414831517610daf57610dae610d11565b5b5092915050565b6000610dc182610887565b9150610dcc83610887565b9250828201905080821115610de457610de3610d11565b5b92915050565b7f4e487b7100000000000000000000000000000000000000000000000000000000600052602260045260246000fd5b60006002820490506001821680610e3157607f821691505b602082108103610e4457610e43610dea565b5b50919050565b60008190508160005260206000209050919050565b60006020601f8301049050919050565b600082821b905092915050565b600060088302610eac7fffffffffffffffffffffffffffffffffffffffffffffffffffffffffffffffff82610e6f565b610eb68683610e6f565b95508019841693508086168417925050509392505050565b6000819050919050565b6000610ef3610eee610ee984610887565b610ece565b610887565b9050919050565b6000819050919050565b610f0d83610ed8565b610f21610f1982610efa565b848454610e7c565b825550505050565b600090565b610f36610f29565b610f41818484610f04565b505050565b5b81811015610f6557610f5a600082610f2e565b600181019050610f47565b5050565b601f821115610faa57610f7b81610e4a565b610f8484610e5f565b81016020851015610f93578190505b610fa7610f9f85610e5f565b830182610f46565b50505b505050565b600082821c905092915050565b6000610fcd60001984600802610faf565b1980831691505092915050565b6000610fe68383610fbc565b9150826002028217905092915050565b610fff82610b8e565b67ffffffffffffffff81111561101857611017610955565b5b6110228254610e19565b61102d828285610f69565b600060209050601f831160018114611060576000841561104e578287015190505b6110588582610fda565b8655506110c0565b601f19841661106e86610e4a565b60005b8281101561109657848901518255600182019150602085019450602081019050611071565b868310156110b357848901516110af601f891682610fbc565b8355505b6001600288020188555050505b505050505050565b7f4576656e742053657473204172652046756c6c00000000000000000000000000600082015250565b60006110fe601383610b99565b9150611109826110c8565b602082019050919050565b6000602082019050818103600083015261112d816110f1565b9050919050565b7f46656573204e6f742066756c6c207061792e0000000000000000000000000000600082015250565b600061116a601283610b99565b915061117582611134565b602082019050919050565b600060208201905081810360008301526111998161115d565b905091905056fea2646970667358221220bbc8e71cb93cd61ffc0c9cfed5fff4807a291270f99c9c58384d6e1519a206bd64736f6c63430008120033",
			"opcodes": "PUSH1 0x80 PUSH1 0x40 MSTORE CALLVALUE DUP1 ISZERO PUSH2 0x10 JUMPI PUSH1 0x0 DUP1 REVERT JUMPDEST POP PUSH2 0x11D6 DUP1 PUSH2 0x20 PUSH1 0x0 CODECOPY PUSH1 0x0 RETURN INVALID PUSH1 0x80 PUSH1 0x40 MSTORE PUSH1 0x4 CALLDATASIZE LT PUSH2 0x55 JUMPI PUSH1 0x0 CALLDATALOAD PUSH1 0xE0 SHR DUP1 PUSH4 0x2E828D72 EQ PUSH2 0x5A JUMPI DUP1 PUSH4 0x81C2ADC0 EQ PUSH2 0x76 JUMPI DUP1 PUSH4 0xB824FBF0 EQ PUSH2 0xA1 JUMPI DUP1 PUSH4 0xC3321363 EQ PUSH2 0xCA JUMPI DUP1 PUSH4 0xDAE7A13C EQ PUSH2 0x10D JUMPI DUP1 PUSH4 0xF4533749 EQ PUSH2 0x14A JUMPI JUMPDEST PUSH1 0x0 DUP1 REVERT JUMPDEST PUSH2 0x74 PUSH1 0x4 DUP1 CALLDATASIZE SUB DUP2 ADD SWAP1 PUSH2 0x6F SWAP2 SWAP1 PUSH2 0x8BD JUMP JUMPDEST PUSH2 0x166 JUMP JUMPDEST STOP JUMPDEST CALLVALUE DUP1 ISZERO PUSH2 0x82 JUMPI PUSH1 0x0 DUP1 REVERT JUMPDEST POP PUSH2 0x8B PUSH2 0x2EA JUMP JUMPDEST PUSH1 0x40 MLOAD PUSH2 0x98 SWAP2 SWAP1 PUSH2 0x91F JUMP JUMPDEST PUSH1 0x40 MLOAD DUP1 SWAP2 SUB SWAP1 RETURN JUMPDEST CALLVALUE DUP1 ISZERO PUSH2 0xAD JUMPI PUSH1 0x0 DUP1 REVERT JUMPDEST POP PUSH2 0xC8 PUSH1 0x4 DUP1 CALLDATASIZE SUB DUP2 ADD SWAP1 PUSH2 0xC3 SWAP2 SWAP1 PUSH2 0xA80 JUMP JUMPDEST PUSH2 0x2F2 JUMP JUMPDEST STOP JUMPDEST CALLVALUE DUP1 ISZERO PUSH2 0xD6 JUMPI PUSH1 0x0 DUP1 REVERT JUMPDEST POP PUSH2 0xF1 PUSH1 0x4 DUP1 CALLDATASIZE SUB DUP2 ADD SWAP1 PUSH2 0xEC SWAP2 SWAP1 PUSH2 0xB61 JUMP JUMPDEST PUSH2 0x3F9 JUMP JUMPDEST PUSH1 0x40 MLOAD PUSH2 0x104 SWAP8 SWAP7 SWAP6 SWAP5 SWAP4 SWAP3 SWAP2 SWAP1 PUSH2 0xC0D JUMP JUMPDEST PUSH1 0x40 MLOAD DUP1 SWAP2 SUB SWAP1 RETURN JUMPDEST CALLVALUE DUP1 ISZERO PUSH2 0x119 JUMPI PUSH1 0x0 DUP1 REVERT JUMPDEST POP PUSH2 0x134 PUSH1 0x4 DUP1 CALLDATASIZE SUB DUP2 ADD SWAP1 PUSH2 0x12F SWAP2 SWAP1 PUSH2 0xC91 JUMP JUMPDEST PUSH2 0x5D3 JUMP JUMPDEST PUSH1 0x40 MLOAD PUSH2 0x141 SWAP2 SWAP1 PUSH2 0x91F JUMP JUMPDEST PUSH1 0x40 MLOAD DUP1 SWAP2 SUB SWAP1 RETURN JUMPDEST PUSH2 0x164 PUSH1 0x4 DUP1 CALLDATASIZE SUB DUP2 ADD SWAP1 PUSH2 0x15F SWAP2 SWAP1 PUSH2 0xCD1 JUMP JUMPDEST PUSH2 0x5F8 JUMP JUMPDEST STOP JUMPDEST PUSH1 0x0 PUSH1 0x1 PUSH1 0x0 DUP4 DUP2 MSTORE PUSH1 0x20 ADD SWAP1 DUP2 MSTORE PUSH1 0x20 ADD PUSH1 0x0 KECCAK256 PUSH1 0x6 ADD SLOAD SWAP1 POP PUSH1 0x0 ADDRESS SWAP1 POP PUSH1 0x0 PUSH1 0x2 PUSH1 0x0 CALLER PUSH20 0xFFFFFFFFFFFFFFFFFFFFFFFFFFFFFFFFFFFFFFFF AND PUSH20 0xFFFFFFFFFFFFFFFFFFFFFFFFFFFFFFFFFFFFFFFF AND DUP2 MSTORE PUSH1 0x20 ADD SWAP1 DUP2 MSTORE PUSH1 0x20 ADD PUSH1 0x0 KECCAK256 PUSH1 0x0 DUP6 DUP2 MSTORE PUSH1 0x20 ADD SWAP1 DUP2 MSTORE PUSH1 0x20 ADD PUSH1 0x0 KECCAK256 SLOAD SWAP1 POP DUP5 DUP2 PUSH2 0x1E7 SWAP2 SWAP1 PUSH2 0xD40 JUMP JUMPDEST PUSH1 0x2 PUSH1 0x0 CALLER PUSH20 0xFFFFFFFFFFFFFFFFFFFFFFFFFFFFFFFFFFFFFFFF AND PUSH20 0xFFFFFFFFFFFFFFFFFFFFFFFFFFFFFFFFFFFFFFFF AND DUP2 MSTORE PUSH1 0x20 ADD SWAP1 DUP2 MSTORE PUSH1 0x20 ADD PUSH1 0x0 KECCAK256 PUSH1 0x0 DUP7 DUP2 MSTORE PUSH1 0x20 ADD SWAP1 DUP2 MSTORE PUSH1 0x20 ADD PUSH1 0x0 KECCAK256 DUP2 SWAP1 SSTORE POP DUP5 PUSH1 0x2 PUSH1 0x0 DUP9 PUSH20 0xFFFFFFFFFFFFFFFFFFFFFFFFFFFFFFFFFFFFFFFF AND PUSH20 0xFFFFFFFFFFFFFFFFFFFFFFFFFFFFFFFFFFFFFFFF AND DUP2 MSTORE PUSH1 0x20 ADD SWAP1 DUP2 MSTORE PUSH1 0x20 ADD PUSH1 0x0 KECCAK256 PUSH1 0x0 DUP7 DUP2 MSTORE PUSH1 0x20 ADD SWAP1 DUP2 MSTORE PUSH1 0x20 ADD PUSH1 0x0 KECCAK256 DUP2 SWAP1 SSTORE POP DUP2 PUSH20 0xFFFFFFFFFFFFFFFFFFFFFFFFFFFFFFFFFFFFFFFF AND PUSH2 0x8FC DUP7 DUP6 PUSH2 0x2B6 SWAP2 SWAP1 PUSH2 0xD74 JUMP JUMPDEST SWAP1 DUP2 ISZERO MUL SWAP1 PUSH1 0x40 MLOAD PUSH1 0x0 PUSH1 0x40 MLOAD DUP1 DUP4 SUB DUP2 DUP6 DUP9 DUP9 CALL SWAP4 POP POP POP POP ISZERO DUP1 ISZERO PUSH2 0x2E1 JUMPI RETURNDATASIZE PUSH1 0x0 DUP1 RETURNDATACOPY RETURNDATASIZE PUSH1 0x0 REVERT JUMPDEST POP POP POP POP POP POP POP JUMP JUMPDEST PUSH1 0x0 SELFBALANCE SWAP1 POP SWAP1 JUMP JUMPDEST PUSH1 0x0 PUSH1 0x1 PUSH1 0x0 DUP9 DUP2 MSTORE PUSH1 0x20 ADD SWAP1 DUP2 MSTORE PUSH1 0x20 ADD PUSH1 0x0 KECCAK256 PUSH1 0x3 ADD SLOAD SWAP1 POP PUSH1 0x0 DUP1 DUP3 EQ PUSH2 0x32C JUMPI DUP5 SWAP1 POP DUP2 DUP6 PUSH2 0x325 SWAP2 SWAP1 PUSH2 0xDB6 JUMP JUMPDEST SWAP5 POP PUSH2 0x330 JUMP JUMPDEST DUP5 SWAP1 POP JUMPDEST PUSH1 0x0 DUP2 SWAP1 POP PUSH1 0x0 TIMESTAMP SWAP1 POP PUSH1 0x40 MLOAD DUP1 PUSH1 0xE0 ADD PUSH1 0x40 MSTORE DUP1 DUP11 DUP2 MSTORE PUSH1 0x20 ADD DUP10 DUP2 MSTORE PUSH1 0x20 ADD DUP3 DUP2 MSTORE PUSH1 0x20 ADD DUP9 DUP2 MSTORE PUSH1 0x20 ADD DUP4 DUP2 MSTORE PUSH1 0x20 ADD DUP8 DUP2 MSTORE PUSH1 0x20 ADD DUP7 DUP2 MSTORE POP PUSH1 0x1 PUSH1 0x0 DUP13 DUP2 MSTORE PUSH1 0x20 ADD SWAP1 DUP2 MSTORE PUSH1 0x20 ADD PUSH1 0x0 KECCAK256 PUSH1 0x0 DUP3 ADD MLOAD DUP2 PUSH1 0x0 ADD SWAP1 DUP2 PUSH2 0x395 SWAP2 SWAP1 PUSH2 0xFF6 JUMP JUMPDEST POP PUSH1 0x20 DUP3 ADD MLOAD DUP2 PUSH1 0x1 ADD SWAP1 DUP2 PUSH2 0x3AB SWAP2 SWAP1 PUSH2 0xFF6 JUMP JUMPDEST POP PUSH1 0x40 DUP3 ADD MLOAD DUP2 PUSH1 0x2 ADD SSTORE PUSH1 0x60 DUP3 ADD MLOAD DUP2 PUSH1 0x3 ADD SSTORE PUSH1 0x80 DUP3 ADD MLOAD DUP2 PUSH1 0x4 ADD SSTORE PUSH1 0xA0 DUP3 ADD MLOAD DUP2 PUSH1 0x5 ADD SWAP1 DUP2 PUSH2 0x3DF SWAP2 SWAP1 PUSH2 0xFF6 JUMP JUMPDEST POP PUSH1 0xC0 DUP3 ADD MLOAD DUP2 PUSH1 0x6 ADD SSTORE SWAP1 POP POP POP POP POP POP POP POP POP POP POP POP JUMP JUMPDEST PUSH1 0x1 PUSH1 0x20 MSTORE DUP1 PUSH1 0x0 MSTORE PUSH1 0x40 PUSH1 0x0 KECCAK256 PUSH1 0x0 SWAP2 POP SWAP1 POP DUP1 PUSH1 0x0 ADD DUP1 SLOAD PUSH2 0x41C SWAP1 PUSH2 0xE19 JUMP JUMPDEST DUP1 PUSH1 0x1F ADD PUSH1 0x20 DUP1 SWAP2 DIV MUL PUSH1 0x20 ADD PUSH1 0x40 MLOAD SWAP1 DUP2 ADD PUSH1 0x40 MSTORE DUP1 SWAP3 SWAP2 SWAP1 DUP2 DUP2 MSTORE PUSH1 0x20 ADD DUP3 DUP1 SLOAD PUSH2 0x448 SWAP1 PUSH2 0xE19 JUMP JUMPDEST DUP1 ISZERO PUSH2 0x495 JUMPI DUP1 PUSH1 0x1F LT PUSH2 0x46A JUMPI PUSH2 0x100 DUP1 DUP4 SLOAD DIV MUL DUP4 MSTORE SWAP2 PUSH1 0x20 ADD SWAP2 PUSH2 0x495 JUMP JUMPDEST DUP3 ADD SWAP2 SWAP1 PUSH1 0x0 MSTORE PUSH1 0x20 PUSH1 0x0 KECCAK256 SWAP1 JUMPDEST DUP2 SLOAD DUP2 MSTORE SWAP1 PUSH1 0x1 ADD SWAP1 PUSH1 0x20 ADD DUP1 DUP4 GT PUSH2 0x478 JUMPI DUP3 SWAP1 SUB PUSH1 0x1F AND DUP3 ADD SWAP2 JUMPDEST POP POP POP POP POP SWAP1 DUP1 PUSH1 0x1 ADD DUP1 SLOAD PUSH2 0x4AA SWAP1 PUSH2 0xE19 JUMP JUMPDEST DUP1 PUSH1 0x1F ADD PUSH1 0x20 DUP1 SWAP2 DIV MUL PUSH1 0x20 ADD PUSH1 0x40 MLOAD SWAP1 DUP2 ADD PUSH1 0x40 MSTORE DUP1 SWAP3 SWAP2 SWAP1 DUP2 DUP2 MSTORE PUSH1 0x20 ADD DUP3 DUP1 SLOAD PUSH2 0x4D6 SWAP1 PUSH2 0xE19 JUMP JUMPDEST DUP1 ISZERO PUSH2 0x523 JUMPI DUP1 PUSH1 0x1F LT PUSH2 0x4F8 JUMPI PUSH2 0x100 DUP1 DUP4 SLOAD DIV MUL DUP4 MSTORE SWAP2 PUSH1 0x20 ADD SWAP2 PUSH2 0x523 JUMP JUMPDEST DUP3 ADD SWAP2 SWAP1 PUSH1 0x0 MSTORE PUSH1 0x20 PUSH1 0x0 KECCAK256 SWAP1 JUMPDEST DUP2 SLOAD DUP2 MSTORE SWAP1 PUSH1 0x1 ADD SWAP1 PUSH1 0x20 ADD DUP1 DUP4 GT PUSH2 0x506 JUMPI DUP3 SWAP1 SUB PUSH1 0x1F AND DUP3 ADD SWAP2 JUMPDEST POP POP POP POP POP SWAP1 DUP1 PUSH1 0x2 ADD SLOAD SWAP1 DUP1 PUSH1 0x3 ADD SLOAD SWAP1 DUP1 PUSH1 0x4 ADD SLOAD SWAP1 DUP1 PUSH1 0x5 ADD DUP1 SLOAD PUSH2 0x54A SWAP1 PUSH2 0xE19 JUMP JUMPDEST DUP1 PUSH1 0x1F ADD PUSH1 0x20 DUP1 SWAP2 DIV MUL PUSH1 0x20 ADD PUSH1 0x40 MLOAD SWAP1 DUP2 ADD PUSH1 0x40 MSTORE DUP1 SWAP3 SWAP2 SWAP1 DUP2 DUP2 MSTORE PUSH1 0x20 ADD DUP3 DUP1 SLOAD PUSH2 0x576 SWAP1 PUSH2 0xE19 JUMP JUMPDEST DUP1 ISZERO PUSH2 0x5C3 JUMPI DUP1 PUSH1 0x1F LT PUSH2 0x598 JUMPI PUSH2 0x100 DUP1 DUP4 SLOAD DIV MUL DUP4 MSTORE SWAP2 PUSH1 0x20 ADD SWAP2 PUSH2 0x5C3 JUMP JUMPDEST DUP3 ADD SWAP2 SWAP1 PUSH1 0x0 MSTORE PUSH1 0x20 PUSH1 0x0 KECCAK256 SWAP1 JUMPDEST DUP2 SLOAD DUP2 MSTORE SWAP1 PUSH1 0x1 ADD SWAP1 PUSH1 0x20 ADD DUP1 DUP4 GT PUSH2 0x5A6 JUMPI DUP3 SWAP1 SUB PUSH1 0x1F AND DUP3 ADD SWAP2 JUMPDEST POP POP POP POP POP SWAP1 DUP1 PUSH1 0x6 ADD SLOAD SWAP1 POP DUP8 JUMP JUMPDEST PUSH1 0x2 PUSH1 0x20 MSTORE DUP2 PUSH1 0x0 MSTORE PUSH1 0x40 PUSH1 0x0 KECCAK256 PUSH1 0x20 MSTORE DUP1 PUSH1 0x0 MSTORE PUSH1 0x40 PUSH1 0x0 KECCAK256 PUSH1 0x0 SWAP2 POP SWAP2 POP POP SLOAD DUP2 JUMP JUMPDEST PUSH1 0x0 PUSH1 0x1 PUSH1 0x0 DUP5 DUP2 MSTORE PUSH1 0x20 ADD SWAP1 DUP2 MSTORE PUSH1 0x20 ADD PUSH1 0x0 KECCAK256 PUSH1 0x6 ADD SLOAD SWAP1 POP PUSH1 0x0 PUSH1 0x1 PUSH1 0x0 DUP6 DUP2 MSTORE PUSH1 0x20 ADD SWAP1 DUP2 MSTORE PUSH1 0x20 ADD PUSH1 0x0 KECCAK256 PUSH1 0x4 ADD SLOAD SWAP1 POP PUSH1 0x0 DUP2 SUB PUSH2 0x671 JUMPI PUSH1 0x40 MLOAD PUSH32 0x8C379A000000000000000000000000000000000000000000000000000000000 DUP2 MSTORE PUSH1 0x4 ADD PUSH2 0x668 SWAP1 PUSH2 0x1114 JUMP JUMPDEST PUSH1 0x40 MLOAD DUP1 SWAP2 SUB SWAP1 REVERT JUMPDEST CALLVALUE DUP4 DUP4 PUSH2 0x67E SWAP2 SWAP1 PUSH2 0xD74 JUMP JUMPDEST EQ PUSH2 0x6BE JUMPI PUSH1 0x40 MLOAD PUSH32 0x8C379A000000000000000000000000000000000000000000000000000000000 DUP2 MSTORE PUSH1 0x4 ADD PUSH2 0x6B5 SWAP1 PUSH2 0x1180 JUMP JUMPDEST PUSH1 0x40 MLOAD DUP1 SWAP2 SUB SWAP1 REVERT JUMPDEST DUP3 DUP2 PUSH2 0x6CA SWAP2 SWAP1 PUSH2 0xD40 JUMP JUMPDEST PUSH1 0x1 PUSH1 0x0 DUP7 DUP2 MSTORE PUSH1 0x20 ADD SWAP1 DUP2 MSTORE PUSH1 0x20 ADD PUSH1 0x0 KECCAK256 PUSH1 0x4 ADD DUP2 SWAP1 SSTORE POP DUP3 DUP3 PUSH2 0x6F0 SWAP2 SWAP1 PUSH2 0xD74 JUMP JUMPDEST PUSH1 0x0 DUP2 SWAP1 SSTORE POP PUSH1 0x0 PUSH1 0x2 PUSH1 0x0 CALLER PUSH20 0xFFFFFFFFFFFFFFFFFFFFFFFFFFFFFFFFFFFFFFFF AND PUSH20 0xFFFFFFFFFFFFFFFFFFFFFFFFFFFFFFFFFFFFFFFF AND DUP2 MSTORE PUSH1 0x20 ADD SWAP1 DUP2 MSTORE PUSH1 0x20 ADD PUSH1 0x0 KECCAK256 PUSH1 0x0 DUP7 DUP2 MSTORE PUSH1 0x20 ADD SWAP1 DUP2 MSTORE PUSH1 0x20 ADD PUSH1 0x0 KECCAK256 SLOAD SWAP1 POP PUSH1 0x0 DUP2 EQ PUSH2 0x7B8 JUMPI DUP4 DUP2 PUSH2 0x75F SWAP2 SWAP1 PUSH2 0xDB6 JUMP JUMPDEST PUSH1 0x2 PUSH1 0x0 CALLER PUSH20 0xFFFFFFFFFFFFFFFFFFFFFFFFFFFFFFFFFFFFFFFF AND PUSH20 0xFFFFFFFFFFFFFFFFFFFFFFFFFFFFFFFFFFFFFFFF AND DUP2 MSTORE PUSH1 0x20 ADD SWAP1 DUP2 MSTORE PUSH1 0x20 ADD PUSH1 0x0 KECCAK256 PUSH1 0x0 DUP8 DUP2 MSTORE PUSH1 0x20 ADD SWAP1 DUP2 MSTORE PUSH1 0x20 ADD PUSH1 0x0 KECCAK256 DUP2 SWAP1 SSTORE POP PUSH2 0x80E JUMP JUMPDEST DUP4 PUSH1 0x2 PUSH1 0x0 CALLER PUSH20 0xFFFFFFFFFFFFFFFFFFFFFFFFFFFFFFFFFFFFFFFF AND PUSH20 0xFFFFFFFFFFFFFFFFFFFFFFFFFFFFFFFFFFFFFFFF AND DUP2 MSTORE PUSH1 0x20 ADD SWAP1 DUP2 MSTORE PUSH1 0x20 ADD PUSH1 0x0 KECCAK256 PUSH1 0x0 DUP8 DUP2 MSTORE PUSH1 0x20 ADD SWAP1 DUP2 MSTORE PUSH1 0x20 ADD PUSH1 0x0 KECCAK256 DUP2 SWAP1 SSTORE POP JUMPDEST POP POP POP POP POP JUMP JUMPDEST PUSH1 0x0 PUSH1 0x40 MLOAD SWAP1 POP SWAP1 JUMP JUMPDEST PUSH1 0x0 DUP1 REVERT JUMPDEST PUSH1 0x0 DUP1 REVERT JUMPDEST PUSH1 0x0 PUSH20 0xFFFFFFFFFFFFFFFFFFFFFFFFFFFFFFFFFFFFFFFF DUP3 AND SWAP1 POP SWAP2 SWAP1 POP JUMP JUMPDEST PUSH1 0x0 PUSH2 0x854 DUP3 PUSH2 0x829 JUMP JUMPDEST SWAP1 POP SWAP2 SWAP1 POP JUMP JUMPDEST PUSH2 0x864 DUP2 PUSH2 0x849 JUMP JUMPDEST DUP2 EQ PUSH2 0x86F JUMPI PUSH1 0x0 DUP1 REVERT JUMPDEST POP JUMP JUMPDEST PUSH1 0x0 DUP2 CALLDATALOAD SWAP1 POP PUSH2 0x881 DUP2 PUSH2 0x85B JUMP JUMPDEST SWAP3 SWAP2 POP POP JUMP JUMPDEST PUSH1 0x0 DUP2 SWAP1 POP SWAP2 SWAP1 POP JUMP JUMPDEST PUSH2 0x89A DUP2 PUSH2 0x887 JUMP JUMPDEST DUP2 EQ PUSH2 0x8A5 JUMPI PUSH1 0x0 DUP1 REVERT JUMPDEST POP JUMP JUMPDEST PUSH1 0x0 DUP2 CALLDATALOAD SWAP1 POP PUSH2 0x8B7 DUP2 PUSH2 0x891 JUMP JUMPDEST SWAP3 SWAP2 POP POP JUMP JUMPDEST PUSH1 0x0 DUP1 PUSH1 0x0 PUSH1 0x60 DUP5 DUP7 SUB SLT ISZERO PUSH2 0x8D6 JUMPI PUSH2 0x8D5 PUSH2 0x81F JUMP JUMPDEST JUMPDEST PUSH1 0x0 PUSH2 0x8E4 DUP7 DUP3 DUP8 ADD PUSH2 0x872 JUMP JUMPDEST SWAP4 POP POP PUSH1 0x20 PUSH2 0x8F5 DUP7 DUP3 DUP8 ADD PUSH2 0x8A8 JUMP JUMPDEST SWAP3 POP POP PUSH1 0x40 PUSH2 0x906 DUP7 DUP3 DUP8 ADD PUSH2 0x8A8 JUMP JUMPDEST SWAP2 POP POP SWAP3 POP SWAP3 POP SWAP3 JUMP JUMPDEST PUSH2 0x919 DUP2 PUSH2 0x887 JUMP JUMPDEST DUP3 MSTORE POP POP JUMP JUMPDEST PUSH1 0x0 PUSH1 0x20 DUP3 ADD SWAP1 POP PUSH2 0x934 PUSH1 0x0 DUP4 ADD DUP5 PUSH2 0x910 JUMP JUMPDEST SWAP3 SWAP2 POP POP JUMP JUMPDEST PUSH1 0x0 DUP1 REVERT JUMPDEST PUSH1 0x0 DUP1 REVERT JUMPDEST PUSH1 0x0 PUSH1 0x1F NOT PUSH1 0x1F DUP4 ADD AND SWAP1 POP SWAP2 SWAP1 POP JUMP JUMPDEST PUSH32 0x4E487B7100000000000000000000000000000000000000000000000000000000 PUSH1 0x0 MSTORE PUSH1 0x41 PUSH1 0x4 MSTORE PUSH1 0x24 PUSH1 0x0 REVERT JUMPDEST PUSH2 0x98D DUP3 PUSH2 0x944 JUMP JUMPDEST DUP2 ADD DUP2 DUP2 LT PUSH8 0xFFFFFFFFFFFFFFFF DUP3 GT OR ISZERO PUSH2 0x9AC JUMPI PUSH2 0x9AB PUSH2 0x955 JUMP JUMPDEST JUMPDEST DUP1 PUSH1 0x40 MSTORE POP POP POP JUMP JUMPDEST PUSH1 0x0 PUSH2 0x9BF PUSH2 0x815 JUMP JUMPDEST SWAP1 POP PUSH2 0x9CB DUP3 DUP3 PUSH2 0x984 JUMP JUMPDEST SWAP2 SWAP1 POP JUMP JUMPDEST PUSH1 0x0 PUSH8 0xFFFFFFFFFFFFFFFF DUP3 GT ISZERO PUSH2 0x9EB JUMPI PUSH2 0x9EA PUSH2 0x955 JUMP JUMPDEST JUMPDEST PUSH2 0x9F4 DUP3 PUSH2 0x944 JUMP JUMPDEST SWAP1 POP PUSH1 0x20 DUP2 ADD SWAP1 POP SWAP2 SWAP1 POP JUMP JUMPDEST DUP3 DUP2 DUP4 CALLDATACOPY PUSH1 0x0 DUP4 DUP4 ADD MSTORE POP POP POP JUMP JUMPDEST PUSH1 0x0 PUSH2 0xA23 PUSH2 0xA1E DUP5 PUSH2 0x9D0 JUMP JUMPDEST PUSH2 0x9B5 JUMP JUMPDEST SWAP1 POP DUP3 DUP2 MSTORE PUSH1 0x20 DUP2 ADD DUP5 DUP5 DUP5 ADD GT ISZERO PUSH2 0xA3F JUMPI PUSH2 0xA3E PUSH2 0x93F JUMP JUMPDEST JUMPDEST PUSH2 0xA4A DUP5 DUP3 DUP6 PUSH2 0xA01 JUMP JUMPDEST POP SWAP4 SWAP3 POP POP POP JUMP JUMPDEST PUSH1 0x0 DUP3 PUSH1 0x1F DUP4 ADD SLT PUSH2 0xA67 JUMPI PUSH2 0xA66 PUSH2 0x93A JUMP JUMPDEST JUMPDEST DUP2 CALLDATALOAD PUSH2 0xA77 DUP5 DUP3 PUSH1 0x20 DUP7 ADD PUSH2 0xA10 JUMP JUMPDEST SWAP2 POP POP SWAP3 SWAP2 POP POP JUMP JUMPDEST PUSH1 0x0 DUP1 PUSH1 0x0 DUP1 PUSH1 0x0 DUP1 PUSH1 0xC0 DUP8 DUP10 SUB SLT ISZERO PUSH2 0xA9D JUMPI PUSH2 0xA9C PUSH2 0x81F JUMP JUMPDEST JUMPDEST PUSH1 0x0 PUSH2 0xAAB DUP10 DUP3 DUP11 ADD PUSH2 0x8A8 JUMP JUMPDEST SWAP7 POP POP PUSH1 0x20 DUP8 ADD CALLDATALOAD PUSH8 0xFFFFFFFFFFFFFFFF DUP2 GT ISZERO PUSH2 0xACC JUMPI PUSH2 0xACB PUSH2 0x824 JUMP JUMPDEST JUMPDEST PUSH2 0xAD8 DUP10 DUP3 DUP11 ADD PUSH2 0xA52 JUMP JUMPDEST SWAP6 POP POP PUSH1 0x40 DUP8 ADD CALLDATALOAD PUSH8 0xFFFFFFFFFFFFFFFF DUP2 GT ISZERO PUSH2 0xAF9 JUMPI PUSH2 0xAF8 PUSH2 0x824 JUMP JUMPDEST JUMPDEST PUSH2 0xB05 DUP10 DUP3 DUP11 ADD PUSH2 0xA52 JUMP JUMPDEST SWAP5 POP POP PUSH1 0x60 PUSH2 0xB16 DUP10 DUP3 DUP11 ADD PUSH2 0x8A8 JUMP JUMPDEST SWAP4 POP POP PUSH1 0x80 DUP8 ADD CALLDATALOAD PUSH8 0xFFFFFFFFFFFFFFFF DUP2 GT ISZERO PUSH2 0xB37 JUMPI PUSH2 0xB36 PUSH2 0x824 JUMP JUMPDEST JUMPDEST PUSH2 0xB43 DUP10 DUP3 DUP11 ADD PUSH2 0xA52 JUMP JUMPDEST SWAP3 POP POP PUSH1 0xA0 PUSH2 0xB54 DUP10 DUP3 DUP11 ADD PUSH2 0x8A8 JUMP JUMPDEST SWAP2 POP POP SWAP3 SWAP6 POP SWAP3 SWAP6 POP SWAP3 SWAP6 JUMP JUMPDEST PUSH1 0x0 PUSH1 0x20 DUP3 DUP5 SUB SLT ISZERO PUSH2 0xB77 JUMPI PUSH2 0xB76 PUSH2 0x81F JUMP JUMPDEST JUMPDEST PUSH1 0x0 PUSH2 0xB85 DUP5 DUP3 DUP6 ADD PUSH2 0x8A8 JUMP JUMPDEST SWAP2 POP POP SWAP3 SWAP2 POP POP JUMP JUMPDEST PUSH1 0x0 DUP2 MLOAD SWAP1 POP SWAP2 SWAP1 POP JUMP JUMPDEST PUSH1 0x0 DUP3 DUP3 MSTORE PUSH1 0x20 DUP3 ADD SWAP1 POP SWAP3 SWAP2 POP POP JUMP JUMPDEST PUSH1 0x0 JUMPDEST DUP4 DUP2 LT ISZERO PUSH2 0xBC8 JUMPI DUP1 DUP3 ADD MLOAD DUP2 DUP5 ADD MSTORE PUSH1 0x20 DUP2 ADD SWAP1 POP PUSH2 0xBAD JUMP JUMPDEST PUSH1 0x0 DUP5 DUP5 ADD MSTORE POP POP POP POP JUMP JUMPDEST PUSH1 0x0 PUSH2 0xBDF DUP3 PUSH2 0xB8E JUMP JUMPDEST PUSH2 0xBE9 DUP2 DUP6 PUSH2 0xB99 JUMP JUMPDEST SWAP4 POP PUSH2 0xBF9 DUP2 DUP6 PUSH1 0x20 DUP7 ADD PUSH2 0xBAA JUMP JUMPDEST PUSH2 0xC02 DUP2 PUSH2 0x944 JUMP JUMPDEST DUP5 ADD SWAP2 POP POP SWAP3 SWAP2 POP POP JUMP JUMPDEST PUSH1 0x0 PUSH1 0xE0 DUP3 ADD SWAP1 POP DUP2 DUP2 SUB PUSH1 0x0 DUP4 ADD MSTORE PUSH2 0xC27 DUP2 DUP11 PUSH2 0xBD4 JUMP JUMPDEST SWAP1 POP DUP2 DUP2 SUB PUSH1 0x20 DUP4 ADD MSTORE PUSH2 0xC3B DUP2 DUP10 PUSH2 0xBD4 JUMP JUMPDEST SWAP1 POP PUSH2 0xC4A PUSH1 0x40 DUP4 ADD DUP9 PUSH2 0x910 JUMP JUMPDEST PUSH2 0xC57 PUSH1 0x60 DUP4 ADD DUP8 PUSH2 0x910 JUMP JUMPDEST PUSH2 0xC64 PUSH1 0x80 DUP4 ADD DUP7 PUSH2 0x910 JUMP JUMPDEST DUP2 DUP2 SUB PUSH1 0xA0 DUP4 ADD MSTORE PUSH2 0xC76 DUP2 DUP6 PUSH2 0xBD4 JUMP JUMPDEST SWAP1 POP PUSH2 0xC85 PUSH1 0xC0 DUP4 ADD DUP5 PUSH2 0x910 JUMP JUMPDEST SWAP9 SWAP8 POP POP POP POP POP POP POP POP JUMP JUMPDEST PUSH1 0x0 DUP1 PUSH1 0x40 DUP4 DUP6 SUB SLT ISZERO PUSH2 0xCA8 JUMPI PUSH2 0xCA7 PUSH2 0x81F JUMP JUMPDEST JUMPDEST PUSH1 0x0 PUSH2 0xCB6 DUP6 DUP3 DUP7 ADD PUSH2 0x872 JUMP JUMPDEST SWAP3 POP POP PUSH1 0x20 PUSH2 0xCC7 DUP6 DUP3 DUP7 ADD PUSH2 0x8A8 JUMP JUMPDEST SWAP2 POP POP SWAP3 POP SWAP3 SWAP1 POP JUMP JUMPDEST PUSH1 0x0 DUP1 PUSH1 0x40 DUP4 DUP6 SUB SLT ISZERO PUSH2 0xCE8 JUMPI PUSH2 0xCE7 PUSH2 0x81F JUMP JUMPDEST JUMPDEST PUSH1 0x0 PUSH2 0xCF6 DUP6 DUP3 DUP7 ADD PUSH2 0x8A8 JUMP JUMPDEST SWAP3 POP POP PUSH1 0x20 PUSH2 0xD07 DUP6 DUP3 DUP7 ADD PUSH2 0x8A8 JUMP JUMPDEST SWAP2 POP POP SWAP3 POP SWAP3 SWAP1 POP JUMP JUMPDEST PUSH32 0x4E487B7100000000000000000000000000000000000000000000000000000000 PUSH1 0x0 MSTORE PUSH1 0x11 PUSH1 0x4 MSTORE PUSH1 0x24 PUSH1 0x0 REVERT JUMPDEST PUSH1 0x0 PUSH2 0xD4B DUP3 PUSH2 0x887 JUMP JUMPDEST SWAP2 POP PUSH2 0xD56 DUP4 PUSH2 0x887 JUMP JUMPDEST SWAP3 POP DUP3 DUP3 SUB SWAP1 POP DUP2 DUP2 GT ISZERO PUSH2 0xD6E JUMPI PUSH2 0xD6D PUSH2 0xD11 JUMP JUMPDEST JUMPDEST SWAP3 SWAP2 POP POP JUMP JUMPDEST PUSH1 0x0 PUSH2 0xD7F DUP3 PUSH2 0x887 JUMP JUMPDEST SWAP2 POP PUSH2 0xD8A DUP4 PUSH2 0x887 JUMP JUMPDEST SWAP3 POP DUP3 DUP3 MUL PUSH2 0xD98 DUP2 PUSH2 0x887 JUMP JUMPDEST SWAP2 POP DUP3 DUP3 DIV DUP5 EQ DUP4 ISZERO OR PUSH2 0xDAF JUMPI PUSH2 0xDAE PUSH2 0xD11 JUMP JUMPDEST JUMPDEST POP SWAP3 SWAP2 POP POP JUMP JUMPDEST PUSH1 0x0 PUSH2 0xDC1 DUP3 PUSH2 0x887 JUMP JUMPDEST SWAP2 POP PUSH2 0xDCC DUP4 PUSH2 0x887 JUMP JUMPDEST SWAP3 POP DUP3 DUP3 ADD SWAP1 POP DUP1 DUP3 GT ISZERO PUSH2 0xDE4 JUMPI PUSH2 0xDE3 PUSH2 0xD11 JUMP JUMPDEST JUMPDEST SWAP3 SWAP2 POP POP JUMP JUMPDEST PUSH32 0x4E487B7100000000000000000000000000000000000000000000000000000000 PUSH1 0x0 MSTORE PUSH1 0x22 PUSH1 0x4 MSTORE PUSH1 0x24 PUSH1 0x0 REVERT JUMPDEST PUSH1 0x0 PUSH1 0x2 DUP3 DIV SWAP1 POP PUSH1 0x1 DUP3 AND DUP1 PUSH2 0xE31 JUMPI PUSH1 0x7F DUP3 AND SWAP2 POP JUMPDEST PUSH1 0x20 DUP3 LT DUP2 SUB PUSH2 0xE44 JUMPI PUSH2 0xE43 PUSH2 0xDEA JUMP JUMPDEST JUMPDEST POP SWAP2 SWAP1 POP JUMP JUMPDEST PUSH1 0x0 DUP2 SWAP1 POP DUP2 PUSH1 0x0 MSTORE PUSH1 0x20 PUSH1 0x0 KECCAK256 SWAP1 POP SWAP2 SWAP1 POP JUMP JUMPDEST PUSH1 0x0 PUSH1 0x20 PUSH1 0x1F DUP4 ADD DIV SWAP1 POP SWAP2 SWAP1 POP JUMP JUMPDEST PUSH1 0x0 DUP3 DUP3 SHL SWAP1 POP SWAP3 SWAP2 POP POP JUMP JUMPDEST PUSH1 0x0 PUSH1 0x8 DUP4 MUL PUSH2 0xEAC PUSH32 0xFFFFFFFFFFFFFFFFFFFFFFFFFFFFFFFFFFFFFFFFFFFFFFFFFFFFFFFFFFFFFFFF DUP3 PUSH2 0xE6F JUMP JUMPDEST PUSH2 0xEB6 DUP7 DUP4 PUSH2 0xE6F JUMP JUMPDEST SWAP6 POP DUP1 NOT DUP5 AND SWAP4 POP DUP1 DUP7 AND DUP5 OR SWAP3 POP POP POP SWAP4 SWAP3 POP POP POP JUMP JUMPDEST PUSH1 0x0 DUP2 SWAP1 POP SWAP2 SWAP1 POP JUMP JUMPDEST PUSH1 0x0 PUSH2 0xEF3 PUSH2 0xEEE PUSH2 0xEE9 DUP5 PUSH2 0x887 JUMP JUMPDEST PUSH2 0xECE JUMP JUMPDEST PUSH2 0x887 JUMP JUMPDEST SWAP1 POP SWAP2 SWAP1 POP JUMP JUMPDEST PUSH1 0x0 DUP2 SWAP1 POP SWAP2 SWAP1 POP JUMP JUMPDEST PUSH2 0xF0D DUP4 PUSH2 0xED8 JUMP JUMPDEST PUSH2 0xF21 PUSH2 0xF19 DUP3 PUSH2 0xEFA JUMP JUMPDEST DUP5 DUP5 SLOAD PUSH2 0xE7C JUMP JUMPDEST DUP3 SSTORE POP POP POP POP JUMP JUMPDEST PUSH1 0x0 SWAP1 JUMP JUMPDEST PUSH2 0xF36 PUSH2 0xF29 JUMP JUMPDEST PUSH2 0xF41 DUP2 DUP5 DUP5 PUSH2 0xF04 JUMP JUMPDEST POP POP POP JUMP JUMPDEST JUMPDEST DUP2 DUP2 LT ISZERO PUSH2 0xF65 JUMPI PUSH2 0xF5A PUSH1 0x0 DUP3 PUSH2 0xF2E JUMP JUMPDEST PUSH1 0x1 DUP2 ADD SWAP1 POP PUSH2 0xF47 JUMP JUMPDEST POP POP JUMP JUMPDEST PUSH1 0x1F DUP3 GT ISZERO PUSH2 0xFAA JUMPI PUSH2 0xF7B DUP2 PUSH2 0xE4A JUMP JUMPDEST PUSH2 0xF84 DUP5 PUSH2 0xE5F JUMP JUMPDEST DUP2 ADD PUSH1 0x20 DUP6 LT ISZERO PUSH2 0xF93 JUMPI DUP2 SWAP1 POP JUMPDEST PUSH2 0xFA7 PUSH2 0xF9F DUP6 PUSH2 0xE5F JUMP JUMPDEST DUP4 ADD DUP3 PUSH2 0xF46 JUMP JUMPDEST POP POP JUMPDEST POP POP POP JUMP JUMPDEST PUSH1 0x0 DUP3 DUP3 SHR SWAP1 POP SWAP3 SWAP2 POP POP JUMP JUMPDEST PUSH1 0x0 PUSH2 0xFCD PUSH1 0x0 NOT DUP5 PUSH1 0x8 MUL PUSH2 0xFAF JUMP JUMPDEST NOT DUP1 DUP4 AND SWAP2 POP POP SWAP3 SWAP2 POP POP JUMP JUMPDEST PUSH1 0x0 PUSH2 0xFE6 DUP4 DUP4 PUSH2 0xFBC JUMP JUMPDEST SWAP2 POP DUP3 PUSH1 0x2 MUL DUP3 OR SWAP1 POP SWAP3 SWAP2 POP POP JUMP JUMPDEST PUSH2 0xFFF DUP3 PUSH2 0xB8E JUMP JUMPDEST PUSH8 0xFFFFFFFFFFFFFFFF DUP2 GT ISZERO PUSH2 0x1018 JUMPI PUSH2 0x1017 PUSH2 0x955 JUMP JUMPDEST JUMPDEST PUSH2 0x1022 DUP3 SLOAD PUSH2 0xE19 JUMP JUMPDEST PUSH2 0x102D DUP3 DUP3 DUP6 PUSH2 0xF69 JUMP JUMPDEST PUSH1 0x0 PUSH1 0x20 SWAP1 POP PUSH1 0x1F DUP4 GT PUSH1 0x1 DUP2 EQ PUSH2 0x1060 JUMPI PUSH1 0x0 DUP5 ISZERO PUSH2 0x104E JUMPI DUP3 DUP8 ADD MLOAD SWAP1 POP JUMPDEST PUSH2 0x1058 DUP6 DUP3 PUSH2 0xFDA JUMP JUMPDEST DUP7 SSTORE POP PUSH2 0x10C0 JUMP JUMPDEST PUSH1 0x1F NOT DUP5 AND PUSH2 0x106E DUP7 PUSH2 0xE4A JUMP JUMPDEST PUSH1 0x0 JUMPDEST DUP3 DUP2 LT ISZERO PUSH2 0x1096 JUMPI DUP5 DUP10 ADD MLOAD DUP3 SSTORE PUSH1 0x1 DUP3 ADD SWAP2 POP PUSH1 0x20 DUP6 ADD SWAP5 POP PUSH1 0x20 DUP2 ADD SWAP1 POP PUSH2 0x1071 JUMP JUMPDEST DUP7 DUP4 LT ISZERO PUSH2 0x10B3 JUMPI DUP5 DUP10 ADD MLOAD PUSH2 0x10AF PUSH1 0x1F DUP10 AND DUP3 PUSH2 0xFBC JUMP JUMPDEST DUP4 SSTORE POP JUMPDEST PUSH1 0x1 PUSH1 0x2 DUP9 MUL ADD DUP9 SSTORE POP POP POP JUMPDEST POP POP POP POP POP POP JUMP JUMPDEST PUSH32 0x4576656E742053657473204172652046756C6C00000000000000000000000000 PUSH1 0x0 DUP3 ADD MSTORE POP JUMP JUMPDEST PUSH1 0x0 PUSH2 0x10FE PUSH1 0x13 DUP4 PUSH2 0xB99 JUMP JUMPDEST SWAP2 POP PUSH2 0x1109 DUP3 PUSH2 0x10C8 JUMP JUMPDEST PUSH1 0x20 DUP3 ADD SWAP1 POP SWAP2 SWAP1 POP JUMP JUMPDEST PUSH1 0x0 PUSH1 0x20 DUP3 ADD SWAP1 POP DUP2 DUP2 SUB PUSH1 0x0 DUP4 ADD MSTORE PUSH2 0x112D DUP2 PUSH2 0x10F1 JUMP JUMPDEST SWAP1 POP SWAP2 SWAP1 POP JUMP JUMPDEST PUSH32 0x46656573204E6F742066756C6C207061792E0000000000000000000000000000 PUSH1 0x0 DUP3 ADD MSTORE POP JUMP JUMPDEST PUSH1 0x0 PUSH2 0x116A PUSH1 0x12 DUP4 PUSH2 0xB99 JUMP JUMPDEST SWAP2 POP PUSH2 0x1175 DUP3 PUSH2 0x1134 JUMP JUMPDEST PUSH1 0x20 DUP3 ADD SWAP1 POP SWAP2 SWAP1 POP JUMP JUMPDEST PUSH1 0x0 PUSH1 0x20 DUP3 ADD SWAP1 POP DUP2 DUP2 SUB PUSH1 0x0 DUP4 ADD MSTORE PUSH2 0x1199 DUP2 PUSH2 0x115D JUMP JUMPDEST SWAP1 POP SWAP2 SWAP1 POP JUMP INVALID LOG2 PUSH5 0x6970667358 0x22 SLT KECCAK256 0xBB 0xC8 0xE7 SHR 0xB9 EXTCODECOPY 0xD6 0x1F 0xFC 0xC SWAP13 INVALID 0xD5 SELFDESTRUCT DELEGATECALL DUP1 PUSH27 0x291270F99C9C58384D6E1519A206BD64736F6C6343000812003300 "
		},
		"gasEstimates": {
			"creation": {
				"codeDepositCost": "913200",
				"executionCost": "948",
				"totalCost": "914148"
			},
			"external": {
				"CreateEvent(uint256,string,string,uint256,string,uint256)": "infinite",
				"eventData(uint256)": "infinite",
				"getPurAmount()": "339",
				"joinEvent(uint256,uint256)": "infinite",
				"tickets(address,uint256)": "infinite",
				"traticket(address,uint256,uint256)": "infinite"
			}
		},
		"methodIdentifiers": {
			"CreateEvent(uint256,string,string,uint256,string,uint256)": "b824fbf0",
			"eventData(uint256)": "c3321363",
			"getPurAmount()": "81c2adc0",
			"joinEvent(uint256,uint256)": "f4533749",
			"tickets(address,uint256)": "dae7a13c",
			"traticket(address,uint256,uint256)": "2e828d72"
		}
	},
	"abi": [
		{
			"inputs": [
				{
					"internalType": "uint256",
					"name": "eventid",
					"type": "uint256"
				},
				{
					"internalType": "string",
					"name": "organiser",
					"type": "string"
				},
				{
					"internalType": "string",
					"name": "eventname",
					"type": "string"
				},
				{
					"internalType": "uint256",
					"name": "eventticket",
					"type": "uint256"
				},
				{
					"internalType": "string",
					"name": "evnetcity",
					"type": "string"
				},
				{
					"internalType": "uint256",
					"name": "eventfee",
					"type": "uint256"
				}
			],
			"name": "CreateEvent",
			"outputs": [],
			"stateMutability": "nonpayable",
			"type": "function"
		},
		{
			"inputs": [
				{
					"internalType": "uint256",
					"name": "",
					"type": "uint256"
				}
			],
			"name": "eventData",
			"outputs": [
				{
					"internalType": "string",
					"name": "organiser",
					"type": "string"
				},
				{
					"internalType": "string",
					"name": "eventname",
					"type": "string"
				},
				{
					"internalType": "uint256",
					"name": "eventdate",
					"type": "uint256"
				},
				{
					"internalType": "uint256",
					"name": "eventticket",
					"type": "uint256"
				},
				{
					"internalType": "uint256",
					"name": "eventRemticket",
					"type": "uint256"
				},
				{
					"internalType": "string",
					"name": "evnetcity",
					"type": "string"
				},
				{
					"internalType": "uint256",
					"name": "eventfee",
					"type": "uint256"
				}
			],
			"stateMutability": "view",
			"type": "function"
		},
		{
			"inputs": [],
			"name": "getPurAmount",
			"outputs": [
				{
					"internalType": "uint256",
					"name": "",
					"type": "uint256"
				}
			],
			"stateMutability": "view",
			"type": "function"
		},
		{
			"inputs": [
				{
					"internalType": "uint256",
					"name": "eventid",
					"type": "uint256"
				},
				{
					"internalType": "uint256",
					"name": "ticket",
					"type": "uint256"
				}
			],
			"name": "joinEvent",
			"outputs": [],
			"stateMutability": "payable",
			"type": "function"
		},
		{
			"inputs": [
				{
					"internalType": "address",
					"name": "",
					"type": "address"
				},
				{
					"internalType": "uint256",
					"name": "",
					"type": "uint256"
				}
			],
			"name": "tickets",
			"outputs": [
				{
					"internalType": "uint256",
					"name": "",
					"type": "uint256"
				}
			],
			"stateMutability": "view",
			"type": "function"
		},
		{
			"inputs": [
				{
					"internalType": "address",
					"name": "traUser",
					"type": "address"
				},
				{
					"internalType": "uint256",
					"name": "traTicket",
					"type": "uint256"
				},
				{
					"internalType": "uint256",
					"name": "traEvent",
					"type": "uint256"
				}
			],
			"name": "traticket",
			"outputs": [],
			"stateMutability": "payable",
			"type": "function"
		}
	]
}