{
	"data": {
		"bytecode": {
			"linkReferences": {},
			"object": "608060405234801561001057600080fd5b50610922806100206000396000f3fe608060405234801561001057600080fd5b50600436106100415760003560e01c806329f002f514610046578063cc5ba34014610062578063fedf2b8b14610096575b600080fd5b610060600480360381019061005b9190610496565b6100b2565b005b61007c600480360381019061007791906104f2565b61017f565b60405161008d9594939291906105ad565b60405180910390f35b6100b060048036038101906100ab9190610496565b6102c5565b005b60004290506000806040518060400160405280600281526020017f4e4f00000000000000000000000000000000000000000000000000000000000081525090506040518060a001604052808681526020018581526020018481526020018281526020018381525060008087815260200190815260200160002060008201518160000155602082015181600101908161014a919061081a565b5060408201518160020155606082015181600301908161016a919061081a565b50608082015181600401559050505050505050565b60006020528060005260406000206000915090508060000154908060010180546101a89061063d565b80601f01602080910402602001604051908101604052809291908181526020018280546101d49061063d565b80156102215780601f106101f657610100808354040283529160200191610221565b820191906000526020600020905b81548152906001019060200180831161020457829003601f168201915b50505050509080600201549080600301805461023c9061063d565b80601f01602080910402602001604051908101604052809291908181526020018280546102689061063d565b80156102b55780601f1061028a576101008083540402835291602001916102b5565b820191906000526020600020905b81548152906001019060200180831161029857829003601f168201915b5050505050908060040154905085565b8060008084815260200190815260200160002060030190816102e7919061081a565b5042600080848152602001908152602001600020600401819055505050565b6000604051905090565b600080fd5b600080fd5b6000819050919050565b61032d8161031a565b811461033857600080fd5b50565b60008135905061034a81610324565b92915050565b600080fd5b600080fd5b6000601f19601f8301169050919050565b7f4e487b7100000000000000000000000000000000000000000000000000000000600052604160045260246000fd5b6103a38261035a565b810181811067ffffffffffffffff821117156103c2576103c161036b565b5b80604052505050565b60006103d5610306565b90506103e1828261039a565b919050565b600067ffffffffffffffff8211156104015761040061036b565b5b61040a8261035a565b9050602081019050919050565b82818337600083830152505050565b6000610439610434846103e6565b6103cb565b90508281526020810184848401111561045557610454610355565b5b610460848285610417565b509392505050565b600082601f83011261047d5761047c610350565b5b813561048d848260208601610426565b91505092915050565b600080604083850312156104ad576104ac610310565b5b60006104bb8582860161033b565b925050602083013567ffffffffffffffff8111156104dc576104db610315565b5b6104e885828601610468565b9150509250929050565b60006020828403121561050857610507610310565b5b60006105168482850161033b565b91505092915050565b6105288161031a565b82525050565b600081519050919050565b600082825260208201905092915050565b60005b8381101561056857808201518184015260208101905061054d565b60008484015250505050565b600061057f8261052e565b6105898185610539565b935061059981856020860161054a565b6105a28161035a565b840191505092915050565b600060a0820190506105c2600083018861051f565b81810360208301526105d48187610574565b90506105e3604083018661051f565b81810360608301526105f58185610574565b9050610604608083018461051f565b9695505050505050565b7f4e487b7100000000000000000000000000000000000000000000000000000000600052602260045260246000fd5b6000600282049050600182168061065557607f821691505b6020821081036106685761066761060e565b5b50919050565b60008190508160005260206000209050919050565b60006020601f8301049050919050565b600082821b905092915050565b6000600883026106d07fffffffffffffffffffffffffffffffffffffffffffffffffffffffffffffffff82610693565b6106da8683610693565b95508019841693508086168417925050509392505050565b6000819050919050565b600061071761071261070d8461031a565b6106f2565b61031a565b9050919050565b6000819050919050565b610731836106fc565b61074561073d8261071e565b8484546106a0565b825550505050565b600090565b61075a61074d565b610765818484610728565b505050565b5b818110156107895761077e600082610752565b60018101905061076b565b5050565b601f8211156107ce5761079f8161066e565b6107a884610683565b810160208510156107b7578190505b6107cb6107c385610683565b83018261076a565b50505b505050565b600082821c905092915050565b60006107f1600019846008026107d3565b1980831691505092915050565b600061080a83836107e0565b9150826002028217905092915050565b6108238261052e565b67ffffffffffffffff81111561083c5761083b61036b565b5b610846825461063d565b61085182828561078d565b600060209050601f8311600181146108845760008415610872578287015190505b61087c85826107fe565b8655506108e4565b601f1984166108928661066e565b60005b828110156108ba57848901518255600182019150602085019450602081019050610895565b868310156108d757848901516108d3601f8916826107e0565b8355505b6001600288020188555050505b50505050505056fea2646970667358221220fac374ef80f2aab755d39b4a8bb80fccfc28222496be9fa3a0fb82b7d353773864736f6c63430008120033",
			"opcodes": "PUSH1 0x80 PUSH1 0x40 MSTORE CALLVALUE DUP1 ISZERO PUSH2 0x10 JUMPI PUSH1 0x0 DUP1 REVERT JUMPDEST POP PUSH2 0x922 DUP1 PUSH2 0x20 PUSH1 0x0 CODECOPY PUSH1 0x0 RETURN INVALID PUSH1 0x80 PUSH1 0x40 MSTORE CALLVALUE DUP1 ISZERO PUSH2 0x10 JUMPI PUSH1 0x0 DUP1 REVERT JUMPDEST POP PUSH1 0x4 CALLDATASIZE LT PUSH2 0x41 JUMPI PUSH1 0x0 CALLDATALOAD PUSH1 0xE0 SHR DUP1 PUSH4 0x29F002F5 EQ PUSH2 0x46 JUMPI DUP1 PUSH4 0xCC5BA340 EQ PUSH2 0x62 JUMPI DUP1 PUSH4 0xFEDF2B8B EQ PUSH2 0x96 JUMPI JUMPDEST PUSH1 0x0 DUP1 REVERT JUMPDEST PUSH2 0x60 PUSH1 0x4 DUP1 CALLDATASIZE SUB DUP2 ADD SWAP1 PUSH2 0x5B SWAP2 SWAP1 PUSH2 0x496 JUMP JUMPDEST PUSH2 0xB2 JUMP JUMPDEST STOP JUMPDEST PUSH2 0x7C PUSH1 0x4 DUP1 CALLDATASIZE SUB DUP2 ADD SWAP1 PUSH2 0x77 SWAP2 SWAP1 PUSH2 0x4F2 JUMP JUMPDEST PUSH2 0x17F JUMP JUMPDEST PUSH1 0x40 MLOAD PUSH2 0x8D SWAP6 SWAP5 SWAP4 SWAP3 SWAP2 SWAP1 PUSH2 0x5AD JUMP JUMPDEST PUSH1 0x40 MLOAD DUP1 SWAP2 SUB SWAP1 RETURN JUMPDEST PUSH2 0xB0 PUSH1 0x4 DUP1 CALLDATASIZE SUB DUP2 ADD SWAP1 PUSH2 0xAB SWAP2 SWAP1 PUSH2 0x496 JUMP JUMPDEST PUSH2 0x2C5 JUMP JUMPDEST STOP JUMPDEST PUSH1 0x0 TIMESTAMP SWAP1 POP PUSH1 0x0 DUP1 PUSH1 0x40 MLOAD DUP1 PUSH1 0x40 ADD PUSH1 0x40 MSTORE DUP1 PUSH1 0x2 DUP2 MSTORE PUSH1 0x20 ADD PUSH32 0x4E4F000000000000000000000000000000000000000000000000000000000000 DUP2 MSTORE POP SWAP1 POP PUSH1 0x40 MLOAD DUP1 PUSH1 0xA0 ADD PUSH1 0x40 MSTORE DUP1 DUP7 DUP2 MSTORE PUSH1 0x20 ADD DUP6 DUP2 MSTORE PUSH1 0x20 ADD DUP5 DUP2 MSTORE PUSH1 0x20 ADD DUP3 DUP2 MSTORE PUSH1 0x20 ADD DUP4 DUP2 MSTORE POP PUSH1 0x0 DUP1 DUP8 DUP2 MSTORE PUSH1 0x20 ADD SWAP1 DUP2 MSTORE PUSH1 0x20 ADD PUSH1 0x0 KECCAK256 PUSH1 0x0 DUP3 ADD MLOAD DUP2 PUSH1 0x0 ADD SSTORE PUSH1 0x20 DUP3 ADD MLOAD DUP2 PUSH1 0x1 ADD SWAP1 DUP2 PUSH2 0x14A SWAP2 SWAP1 PUSH2 0x81A JUMP JUMPDEST POP PUSH1 0x40 DUP3 ADD MLOAD DUP2 PUSH1 0x2 ADD SSTORE PUSH1 0x60 DUP3 ADD MLOAD DUP2 PUSH1 0x3 ADD SWAP1 DUP2 PUSH2 0x16A SWAP2 SWAP1 PUSH2 0x81A JUMP JUMPDEST POP PUSH1 0x80 DUP3 ADD MLOAD DUP2 PUSH1 0x4 ADD SSTORE SWAP1 POP POP POP POP POP POP POP JUMP JUMPDEST PUSH1 0x0 PUSH1 0x20 MSTORE DUP1 PUSH1 0x0 MSTORE PUSH1 0x40 PUSH1 0x0 KECCAK256 PUSH1 0x0 SWAP2 POP SWAP1 POP DUP1 PUSH1 0x0 ADD SLOAD SWAP1 DUP1 PUSH1 0x1 ADD DUP1 SLOAD PUSH2 0x1A8 SWAP1 PUSH2 0x63D JUMP JUMPDEST DUP1 PUSH1 0x1F ADD PUSH1 0x20 DUP1 SWAP2 DIV MUL PUSH1 0x20 ADD PUSH1 0x40 MLOAD SWAP1 DUP2 ADD PUSH1 0x40 MSTORE DUP1 SWAP3 SWAP2 SWAP1 DUP2 DUP2 MSTORE PUSH1 0x20 ADD DUP3 DUP1 SLOAD PUSH2 0x1D4 SWAP1 PUSH2 0x63D JUMP JUMPDEST DUP1 ISZERO PUSH2 0x221 JUMPI DUP1 PUSH1 0x1F LT PUSH2 0x1F6 JUMPI PUSH2 0x100 DUP1 DUP4 SLOAD DIV MUL DUP4 MSTORE SWAP2 PUSH1 0x20 ADD SWAP2 PUSH2 0x221 JUMP JUMPDEST DUP3 ADD SWAP2 SWAP1 PUSH1 0x0 MSTORE PUSH1 0x20 PUSH1 0x0 KECCAK256 SWAP1 JUMPDEST DUP2 SLOAD DUP2 MSTORE SWAP1 PUSH1 0x1 ADD SWAP1 PUSH1 0x20 ADD DUP1 DUP4 GT PUSH2 0x204 JUMPI DUP3 SWAP1 SUB PUSH1 0x1F AND DUP3 ADD SWAP2 JUMPDEST POP POP POP POP POP SWAP1 DUP1 PUSH1 0x2 ADD SLOAD SWAP1 DUP1 PUSH1 0x3 ADD DUP1 SLOAD PUSH2 0x23C SWAP1 PUSH2 0x63D JUMP JUMPDEST DUP1 PUSH1 0x1F ADD PUSH1 0x20 DUP1 SWAP2 DIV MUL PUSH1 0x20 ADD PUSH1 0x40 MLOAD SWAP1 DUP2 ADD PUSH1 0x40 MSTORE DUP1 SWAP3 SWAP2 SWAP1 DUP2 DUP2 MSTORE PUSH1 0x20 ADD DUP3 DUP1 SLOAD PUSH2 0x268 SWAP1 PUSH2 0x63D JUMP JUMPDEST DUP1 ISZERO PUSH2 0x2B5 JUMPI DUP1 PUSH1 0x1F LT PUSH2 0x28A JUMPI PUSH2 0x100 DUP1 DUP4 SLOAD DIV MUL DUP4 MSTORE SWAP2 PUSH1 0x20 ADD SWAP2 PUSH2 0x2B5 JUMP JUMPDEST DUP3 ADD SWAP2 SWAP1 PUSH1 0x0 MSTORE PUSH1 0x20 PUSH1 0x0 KECCAK256 SWAP1 JUMPDEST DUP2 SLOAD DUP2 MSTORE SWAP1 PUSH1 0x1 ADD SWAP1 PUSH1 0x20 ADD DUP1 DUP4 GT PUSH2 0x298 JUMPI DUP3 SWAP1 SUB PUSH1 0x1F AND DUP3 ADD SWAP2 JUMPDEST POP POP POP POP POP SWAP1 DUP1 PUSH1 0x4 ADD SLOAD SWAP1 POP DUP6 JUMP JUMPDEST DUP1 PUSH1 0x0 DUP1 DUP5 DUP2 MSTORE PUSH1 0x20 ADD SWAP1 DUP2 MSTORE PUSH1 0x20 ADD PUSH1 0x0 KECCAK256 PUSH1 0x3 ADD SWAP1 DUP2 PUSH2 0x2E7 SWAP2 SWAP1 PUSH2 0x81A JUMP JUMPDEST POP TIMESTAMP PUSH1 0x0 DUP1 DUP5 DUP2 MSTORE PUSH1 0x20 ADD SWAP1 DUP2 MSTORE PUSH1 0x20 ADD PUSH1 0x0 KECCAK256 PUSH1 0x4 ADD DUP2 SWAP1 SSTORE POP POP POP JUMP JUMPDEST PUSH1 0x0 PUSH1 0x40 MLOAD SWAP1 POP SWAP1 JUMP JUMPDEST PUSH1 0x0 DUP1 REVERT JUMPDEST PUSH1 0x0 DUP1 REVERT JUMPDEST PUSH1 0x0 DUP2 SWAP1 POP SWAP2 SWAP1 POP JUMP JUMPDEST PUSH2 0x32D DUP2 PUSH2 0x31A JUMP JUMPDEST DUP2 EQ PUSH2 0x338 JUMPI PUSH1 0x0 DUP1 REVERT JUMPDEST POP JUMP JUMPDEST PUSH1 0x0 DUP2 CALLDATALOAD SWAP1 POP PUSH2 0x34A DUP2 PUSH2 0x324 JUMP JUMPDEST SWAP3 SWAP2 POP POP JUMP JUMPDEST PUSH1 0x0 DUP1 REVERT JUMPDEST PUSH1 0x0 DUP1 REVERT JUMPDEST PUSH1 0x0 PUSH1 0x1F NOT PUSH1 0x1F DUP4 ADD AND SWAP1 POP SWAP2 SWAP1 POP JUMP JUMPDEST PUSH32 0x4E487B7100000000000000000000000000000000000000000000000000000000 PUSH1 0x0 MSTORE PUSH1 0x41 PUSH1 0x4 MSTORE PUSH1 0x24 PUSH1 0x0 REVERT JUMPDEST PUSH2 0x3A3 DUP3 PUSH2 0x35A JUMP JUMPDEST DUP2 ADD DUP2 DUP2 LT PUSH8 0xFFFFFFFFFFFFFFFF DUP3 GT OR ISZERO PUSH2 0x3C2 JUMPI PUSH2 0x3C1 PUSH2 0x36B JUMP JUMPDEST JUMPDEST DUP1 PUSH1 0x40 MSTORE POP POP POP JUMP JUMPDEST PUSH1 0x0 PUSH2 0x3D5 PUSH2 0x306 JUMP JUMPDEST SWAP1 POP PUSH2 0x3E1 DUP3 DUP3 PUSH2 0x39A JUMP JUMPDEST SWAP2 SWAP1 POP JUMP JUMPDEST PUSH1 0x0 PUSH8 0xFFFFFFFFFFFFFFFF DUP3 GT ISZERO PUSH2 0x401 JUMPI PUSH2 0x400 PUSH2 0x36B JUMP JUMPDEST JUMPDEST PUSH2 0x40A DUP3 PUSH2 0x35A JUMP JUMPDEST SWAP1 POP PUSH1 0x20 DUP2 ADD SWAP1 POP SWAP2 SWAP1 POP JUMP JUMPDEST DUP3 DUP2 DUP4 CALLDATACOPY PUSH1 0x0 DUP4 DUP4 ADD MSTORE POP POP POP JUMP JUMPDEST PUSH1 0x0 PUSH2 0x439 PUSH2 0x434 DUP5 PUSH2 0x3E6 JUMP JUMPDEST PUSH2 0x3CB JUMP JUMPDEST SWAP1 POP DUP3 DUP2 MSTORE PUSH1 0x20 DUP2 ADD DUP5 DUP5 DUP5 ADD GT ISZERO PUSH2 0x455 JUMPI PUSH2 0x454 PUSH2 0x355 JUMP JUMPDEST JUMPDEST PUSH2 0x460 DUP5 DUP3 DUP6 PUSH2 0x417 JUMP JUMPDEST POP SWAP4 SWAP3 POP POP POP JUMP JUMPDEST PUSH1 0x0 DUP3 PUSH1 0x1F DUP4 ADD SLT PUSH2 0x47D JUMPI PUSH2 0x47C PUSH2 0x350 JUMP JUMPDEST JUMPDEST DUP2 CALLDATALOAD PUSH2 0x48D DUP5 DUP3 PUSH1 0x20 DUP7 ADD PUSH2 0x426 JUMP JUMPDEST SWAP2 POP POP SWAP3 SWAP2 POP POP JUMP JUMPDEST PUSH1 0x0 DUP1 PUSH1 0x40 DUP4 DUP6 SUB SLT ISZERO PUSH2 0x4AD JUMPI PUSH2 0x4AC PUSH2 0x310 JUMP JUMPDEST JUMPDEST PUSH1 0x0 PUSH2 0x4BB DUP6 DUP3 DUP7 ADD PUSH2 0x33B JUMP JUMPDEST SWAP3 POP POP PUSH1 0x20 DUP4 ADD CALLDATALOAD PUSH8 0xFFFFFFFFFFFFFFFF DUP2 GT ISZERO PUSH2 0x4DC JUMPI PUSH2 0x4DB PUSH2 0x315 JUMP JUMPDEST JUMPDEST PUSH2 0x4E8 DUP6 DUP3 DUP7 ADD PUSH2 0x468 JUMP JUMPDEST SWAP2 POP POP SWAP3 POP SWAP3 SWAP1 POP JUMP JUMPDEST PUSH1 0x0 PUSH1 0x20 DUP3 DUP5 SUB SLT ISZERO PUSH2 0x508 JUMPI PUSH2 0x507 PUSH2 0x310 JUMP JUMPDEST JUMPDEST PUSH1 0x0 PUSH2 0x516 DUP5 DUP3 DUP6 ADD PUSH2 0x33B JUMP JUMPDEST SWAP2 POP POP SWAP3 SWAP2 POP POP JUMP JUMPDEST PUSH2 0x528 DUP2 PUSH2 0x31A JUMP JUMPDEST DUP3 MSTORE POP POP JUMP JUMPDEST PUSH1 0x0 DUP2 MLOAD SWAP1 POP SWAP2 SWAP1 POP JUMP JUMPDEST PUSH1 0x0 DUP3 DUP3 MSTORE PUSH1 0x20 DUP3 ADD SWAP1 POP SWAP3 SWAP2 POP POP JUMP JUMPDEST PUSH1 0x0 JUMPDEST DUP4 DUP2 LT ISZERO PUSH2 0x568 JUMPI DUP1 DUP3 ADD MLOAD DUP2 DUP5 ADD MSTORE PUSH1 0x20 DUP2 ADD SWAP1 POP PUSH2 0x54D JUMP JUMPDEST PUSH1 0x0 DUP5 DUP5 ADD MSTORE POP POP POP POP JUMP JUMPDEST PUSH1 0x0 PUSH2 0x57F DUP3 PUSH2 0x52E JUMP JUMPDEST PUSH2 0x589 DUP2 DUP6 PUSH2 0x539 JUMP JUMPDEST SWAP4 POP PUSH2 0x599 DUP2 DUP6 PUSH1 0x20 DUP7 ADD PUSH2 0x54A JUMP JUMPDEST PUSH2 0x5A2 DUP2 PUSH2 0x35A JUMP JUMPDEST DUP5 ADD SWAP2 POP POP SWAP3 SWAP2 POP POP JUMP JUMPDEST PUSH1 0x0 PUSH1 0xA0 DUP3 ADD SWAP1 POP PUSH2 0x5C2 PUSH1 0x0 DUP4 ADD DUP9 PUSH2 0x51F JUMP JUMPDEST DUP2 DUP2 SUB PUSH1 0x20 DUP4 ADD MSTORE PUSH2 0x5D4 DUP2 DUP8 PUSH2 0x574 JUMP JUMPDEST SWAP1 POP PUSH2 0x5E3 PUSH1 0x40 DUP4 ADD DUP7 PUSH2 0x51F JUMP JUMPDEST DUP2 DUP2 SUB PUSH1 0x60 DUP4 ADD MSTORE PUSH2 0x5F5 DUP2 DUP6 PUSH2 0x574 JUMP JUMPDEST SWAP1 POP PUSH2 0x604 PUSH1 0x80 DUP4 ADD DUP5 PUSH2 0x51F JUMP JUMPDEST SWAP7 SWAP6 POP POP POP POP POP POP JUMP JUMPDEST PUSH32 0x4E487B7100000000000000000000000000000000000000000000000000000000 PUSH1 0x0 MSTORE PUSH1 0x22 PUSH1 0x4 MSTORE PUSH1 0x24 PUSH1 0x0 REVERT JUMPDEST PUSH1 0x0 PUSH1 0x2 DUP3 DIV SWAP1 POP PUSH1 0x1 DUP3 AND DUP1 PUSH2 0x655 JUMPI PUSH1 0x7F DUP3 AND SWAP2 POP JUMPDEST PUSH1 0x20 DUP3 LT DUP2 SUB PUSH2 0x668 JUMPI PUSH2 0x667 PUSH2 0x60E JUMP JUMPDEST JUMPDEST POP SWAP2 SWAP1 POP JUMP JUMPDEST PUSH1 0x0 DUP2 SWAP1 POP DUP2 PUSH1 0x0 MSTORE PUSH1 0x20 PUSH1 0x0 KECCAK256 SWAP1 POP SWAP2 SWAP1 POP JUMP JUMPDEST PUSH1 0x0 PUSH1 0x20 PUSH1 0x1F DUP4 ADD DIV SWAP1 POP SWAP2 SWAP1 POP JUMP JUMPDEST PUSH1 0x0 DUP3 DUP3 SHL SWAP1 POP SWAP3 SWAP2 POP POP JUMP JUMPDEST PUSH1 0x0 PUSH1 0x8 DUP4 MUL PUSH2 0x6D0 PUSH32 0xFFFFFFFFFFFFFFFFFFFFFFFFFFFFFFFFFFFFFFFFFFFFFFFFFFFFFFFFFFFFFFFF DUP3 PUSH2 0x693 JUMP JUMPDEST PUSH2 0x6DA DUP7 DUP4 PUSH2 0x693 JUMP JUMPDEST SWAP6 POP DUP1 NOT DUP5 AND SWAP4 POP DUP1 DUP7 AND DUP5 OR SWAP3 POP POP POP SWAP4 SWAP3 POP POP POP JUMP JUMPDEST PUSH1 0x0 DUP2 SWAP1 POP SWAP2 SWAP1 POP JUMP JUMPDEST PUSH1 0x0 PUSH2 0x717 PUSH2 0x712 PUSH2 0x70D DUP5 PUSH2 0x31A JUMP JUMPDEST PUSH2 0x6F2 JUMP JUMPDEST PUSH2 0x31A JUMP JUMPDEST SWAP1 POP SWAP2 SWAP1 POP JUMP JUMPDEST PUSH1 0x0 DUP2 SWAP1 POP SWAP2 SWAP1 POP JUMP JUMPDEST PUSH2 0x731 DUP4 PUSH2 0x6FC JUMP JUMPDEST PUSH2 0x745 PUSH2 0x73D DUP3 PUSH2 0x71E JUMP JUMPDEST DUP5 DUP5 SLOAD PUSH2 0x6A0 JUMP JUMPDEST DUP3 SSTORE POP POP POP POP JUMP JUMPDEST PUSH1 0x0 SWAP1 JUMP JUMPDEST PUSH2 0x75A PUSH2 0x74D JUMP JUMPDEST PUSH2 0x765 DUP2 DUP5 DUP5 PUSH2 0x728 JUMP JUMPDEST POP POP POP JUMP JUMPDEST JUMPDEST DUP2 DUP2 LT ISZERO PUSH2 0x789 JUMPI PUSH2 0x77E PUSH1 0x0 DUP3 PUSH2 0x752 JUMP JUMPDEST PUSH1 0x1 DUP2 ADD SWAP1 POP PUSH2 0x76B JUMP JUMPDEST POP POP JUMP JUMPDEST PUSH1 0x1F DUP3 GT ISZERO PUSH2 0x7CE JUMPI PUSH2 0x79F DUP2 PUSH2 0x66E JUMP JUMPDEST PUSH2 0x7A8 DUP5 PUSH2 0x683 JUMP JUMPDEST DUP2 ADD PUSH1 0x20 DUP6 LT ISZERO PUSH2 0x7B7 JUMPI DUP2 SWAP1 POP JUMPDEST PUSH2 0x7CB PUSH2 0x7C3 DUP6 PUSH2 0x683 JUMP JUMPDEST DUP4 ADD DUP3 PUSH2 0x76A JUMP JUMPDEST POP POP JUMPDEST POP POP POP JUMP JUMPDEST PUSH1 0x0 DUP3 DUP3 SHR SWAP1 POP SWAP3 SWAP2 POP POP JUMP JUMPDEST PUSH1 0x0 PUSH2 0x7F1 PUSH1 0x0 NOT DUP5 PUSH1 0x8 MUL PUSH2 0x7D3 JUMP JUMPDEST NOT DUP1 DUP4 AND SWAP2 POP POP SWAP3 SWAP2 POP POP JUMP JUMPDEST PUSH1 0x0 PUSH2 0x80A DUP4 DUP4 PUSH2 0x7E0 JUMP JUMPDEST SWAP2 POP DUP3 PUSH1 0x2 MUL DUP3 OR SWAP1 POP SWAP3 SWAP2 POP POP JUMP JUMPDEST PUSH2 0x823 DUP3 PUSH2 0x52E JUMP JUMPDEST PUSH8 0xFFFFFFFFFFFFFFFF DUP2 GT ISZERO PUSH2 0x83C JUMPI PUSH2 0x83B PUSH2 0x36B JUMP JUMPDEST JUMPDEST PUSH2 0x846 DUP3 SLOAD PUSH2 0x63D JUMP JUMPDEST PUSH2 0x851 DUP3 DUP3 DUP6 PUSH2 0x78D JUMP JUMPDEST PUSH1 0x0 PUSH1 0x20 SWAP1 POP PUSH1 0x1F DUP4 GT PUSH1 0x1 DUP2 EQ PUSH2 0x884 JUMPI PUSH1 0x0 DUP5 ISZERO PUSH2 0x872 JUMPI DUP3 DUP8 ADD MLOAD SWAP1 POP JUMPDEST PUSH2 0x87C DUP6 DUP3 PUSH2 0x7FE JUMP JUMPDEST DUP7 SSTORE POP PUSH2 0x8E4 JUMP JUMPDEST PUSH1 0x1F NOT DUP5 AND PUSH2 0x892 DUP7 PUSH2 0x66E JUMP JUMPDEST PUSH1 0x0 JUMPDEST DUP3 DUP2 LT ISZERO PUSH2 0x8BA JUMPI DUP5 DUP10 ADD MLOAD DUP3 SSTORE PUSH1 0x1 DUP3 ADD SWAP2 POP PUSH1 0x20 DUP6 ADD SWAP5 POP PUSH1 0x20 DUP2 ADD SWAP1 POP PUSH2 0x895 JUMP JUMPDEST DUP7 DUP4 LT ISZERO PUSH2 0x8D7 JUMPI DUP5 DUP10 ADD MLOAD PUSH2 0x8D3 PUSH1 0x1F DUP10 AND DUP3 PUSH2 0x7E0 JUMP JUMPDEST DUP4 SSTORE POP JUMPDEST PUSH1 0x1 PUSH1 0x2 DUP9 MUL ADD DUP9 SSTORE POP POP POP JUMPDEST POP POP POP POP POP POP JUMP INVALID LOG2 PUSH5 0x6970667358 0x22 SLT KECCAK256 STATICCALL 0xC3 PUSH21 0xEF80F2AAB755D39B4A8BB80FCCFC28222496BE9FA3 LOG0 0xFB DUP3 0xB7 0xD3 MSTORE8 PUSH24 0x3864736F6C63430008120033000000000000000000000000 "
		},
		"gasEstimates": {
			"creation": {
				"codeDepositCost": "467600",
				"executionCost": "505",
				"totalCost": "468105"
			},
			"external": {
				"GetFirInfo(uint256)": "infinite",
				"resolveFIR(uint256,string)": "infinite",
				"submitFIR(uint256,string)": "infinite"
			}
		},
		"methodIdentifiers": {
			"GetFirInfo(uint256)": "cc5ba340",
			"resolveFIR(uint256,string)": "fedf2b8b",
			"submitFIR(uint256,string)": "29f002f5"
		}
	},
	"abi": [
		{
			"inputs": [
				{
					"internalType": "uint256",
					"name": "",
					"type": "uint256"
				}
			],
			"name": "GetFirInfo",
			"outputs": [
				{
					"internalType": "uint256",
					"name": "fir_id",
					"type": "uint256"
				},
				{
					"internalType": "string",
					"name": "report",
					"type": "string"
				},
				{
					"internalType": "uint256",
					"name": "report_date",
					"type": "uint256"
				},
				{
					"internalType": "string",
					"name": "resolve",
					"type": "string"
				},
				{
					"internalType": "uint256",
					"name": "solve_date",
					"type": "uint256"
				}
			],
			"stateMutability": "view",
			"type": "function"
		},
		{
			"inputs": [
				{
					"internalType": "uint256",
					"name": "id",
					"type": "uint256"
				},
				{
					"internalType": "string",
					"name": "reso",
					"type": "string"
				}
			],
			"name": "resolveFIR",
			"outputs": [],
			"stateMutability": "nonpayable",
			"type": "function"
		},
		{
			"inputs": [
				{
					"internalType": "uint256",
					"name": "id",
					"type": "uint256"
				},
				{
					"internalType": "string",
					"name": "rep",
					"type": "string"
				}
			],
			"name": "submitFIR",
			"outputs": [],
			"stateMutability": "nonpayable",
			"type": "function"
		}
	]
}