{
	"data": {
		"bytecode": {
			"linkReferences": {},
			"object": "608060405234801561001057600080fd5b50610a6f806100206000396000f3fe608060405234801561001057600080fd5b506004361061004c5760003560e01c806308d9350a146100515780632c60dc3f1461006f578063cce042bb1461008b578063cf15ee02146100a7575b600080fd5b6100596100c3565b6040516100669190610399565b60405180910390f35b6100896004803603810190610084919061042c565b6100cf565b005b6100a560048036038101906100a09190610698565b61013e565b005b6100c160048036038101906100bc9190610723565b6101ce565b005b60008080549050905090565b80600160003373ffffffffffffffffffffffffffffffffffffffff1673ffffffffffffffffffffffffffffffffffffffff168152602001908152602001600020600101600084815260200190815260200160002060006101000a81548160ff0219169083151502179055505050565b6000604051806060016040528085815260200184815260200183815250905060008190806001815401808255809150506001900390600052602060002090600302016000909190919091506000820151816000015560208201518160010190816101a89190610967565b5060408201518160020190805190602001906101c59291906102a6565b50505050505050565b600160003373ffffffffffffffffffffffffffffffffffffffff1673ffffffffffffffffffffffffffffffffffffffff1681526020019081526020016000206000018190806001815401808255809150506001900390600052602060002001600090919091909150556000600160003373ffffffffffffffffffffffffffffffffffffffff1673ffffffffffffffffffffffffffffffffffffffff168152602001908152602001600020600101600083815260200190815260200160002060006101000a81548160ff02191690831515021790555050565b8280548282559060005260206000209081019282156102ee579160200282015b828111156102ed5782518290816102dd9190610967565b50916020019190600101906102c6565b5b5090506102fb91906102ff565b5090565b5b8082111561031f57600081816103169190610323565b50600101610300565b5090565b50805461032f9061078a565b6000825580601f106103415750610360565b601f01602090049060005260206000209081019061035f9190610363565b5b50565b5b8082111561037c576000816000905550600101610364565b5090565b6000819050919050565b61039381610380565b82525050565b60006020820190506103ae600083018461038a565b92915050565b6000604051905090565b600080fd5b600080fd5b6103d181610380565b81146103dc57600080fd5b50565b6000813590506103ee816103c8565b92915050565b60008115159050919050565b610409816103f4565b811461041457600080fd5b50565b60008135905061042681610400565b92915050565b60008060408385031215610443576104426103be565b5b6000610451858286016103df565b925050602061046285828601610417565b9150509250929050565b600080fd5b600080fd5b6000601f19601f8301169050919050565b7f4e487b7100000000000000000000000000000000000000000000000000000000600052604160045260246000fd5b6104bf82610476565b810181811067ffffffffffffffff821117156104de576104dd610487565b5b80604052505050565b60006104f16103b4565b90506104fd82826104b6565b919050565b600067ffffffffffffffff82111561051d5761051c610487565b5b61052682610476565b9050602081019050919050565b82818337600083830152505050565b600061055561055084610502565b6104e7565b90508281526020810184848401111561057157610570610471565b5b61057c848285610533565b509392505050565b600082601f8301126105995761059861046c565b5b81356105a9848260208601610542565b91505092915050565b600067ffffffffffffffff8211156105cd576105cc610487565b5b602082029050602081019050919050565b600080fd5b60006105f66105f1846105b2565b6104e7565b90508083825260208201905060208402830185811115610619576106186105de565b5b835b8181101561066057803567ffffffffffffffff81111561063e5761063d61046c565b5b80860161064b8982610584565b8552602085019450505060208101905061061b565b5050509392505050565b600082601f83011261067f5761067e61046c565b5b813561068f8482602086016105e3565b91505092915050565b6000806000606084860312156106b1576106b06103be565b5b60006106bf868287016103df565b935050602084013567ffffffffffffffff8111156106e0576106df6103c3565b5b6106ec86828701610584565b925050604084013567ffffffffffffffff81111561070d5761070c6103c3565b5b6107198682870161066a565b9150509250925092565b600060208284031215610739576107386103be565b5b6000610747848285016103df565b91505092915050565b600081519050919050565b7f4e487b7100000000000000000000000000000000000000000000000000000000600052602260045260246000fd5b600060028204905060018216806107a257607f821691505b6020821081036107b5576107b461075b565b5b50919050565b60008190508160005260206000209050919050565b60006020601f8301049050919050565b600082821b905092915050565b60006008830261081d7fffffffffffffffffffffffffffffffffffffffffffffffffffffffffffffffff826107e0565b61082786836107e0565b95508019841693508086168417925050509392505050565b6000819050919050565b600061086461085f61085a84610380565b61083f565b610380565b9050919050565b6000819050919050565b61087e83610849565b61089261088a8261086b565b8484546107ed565b825550505050565b600090565b6108a761089a565b6108b2818484610875565b505050565b5b818110156108d6576108cb60008261089f565b6001810190506108b8565b5050565b601f82111561091b576108ec816107bb565b6108f5846107d0565b81016020851015610904578190505b610918610910856107d0565b8301826108b7565b50505b505050565b600082821c905092915050565b600061093e60001984600802610920565b1980831691505092915050565b6000610957838361092d565b9150826002028217905092915050565b61097082610750565b67ffffffffffffffff81111561098957610988610487565b5b610993825461078a565b61099e8282856108da565b600060209050601f8311600181146109d157600084156109bf578287015190505b6109c9858261094b565b865550610a31565b601f1984166109df866107bb565b60005b82811015610a07578489015182556001820191506020850194506020810190506109e2565b86831015610a245784890151610a20601f89168261092d565b8355505b6001600288020188555050505b50505050505056fea264697066735822122074bcf7f37b4b079a5e9952df4afba7cce9ed20da9057b82cc4406c5dca49c90364736f6c63430008120033",
			"opcodes": "PUSH1 0x80 PUSH1 0x40 MSTORE CALLVALUE DUP1 ISZERO PUSH2 0x10 JUMPI PUSH1 0x0 DUP1 REVERT JUMPDEST POP PUSH2 0xA6F DUP1 PUSH2 0x20 PUSH1 0x0 CODECOPY PUSH1 0x0 RETURN INVALID PUSH1 0x80 PUSH1 0x40 MSTORE CALLVALUE DUP1 ISZERO PUSH2 0x10 JUMPI PUSH1 0x0 DUP1 REVERT JUMPDEST POP PUSH1 0x4 CALLDATASIZE LT PUSH2 0x4C JUMPI PUSH1 0x0 CALLDATALOAD PUSH1 0xE0 SHR DUP1 PUSH4 0x8D9350A EQ PUSH2 0x51 JUMPI DUP1 PUSH4 0x2C60DC3F EQ PUSH2 0x6F JUMPI DUP1 PUSH4 0xCCE042BB EQ PUSH2 0x8B JUMPI DUP1 PUSH4 0xCF15EE02 EQ PUSH2 0xA7 JUMPI JUMPDEST PUSH1 0x0 DUP1 REVERT JUMPDEST PUSH2 0x59 PUSH2 0xC3 JUMP JUMPDEST PUSH1 0x40 MLOAD PUSH2 0x66 SWAP2 SWAP1 PUSH2 0x399 JUMP JUMPDEST PUSH1 0x40 MLOAD DUP1 SWAP2 SUB SWAP1 RETURN JUMPDEST PUSH2 0x89 PUSH1 0x4 DUP1 CALLDATASIZE SUB DUP2 ADD SWAP1 PUSH2 0x84 SWAP2 SWAP1 PUSH2 0x42C JUMP JUMPDEST PUSH2 0xCF JUMP JUMPDEST STOP JUMPDEST PUSH2 0xA5 PUSH1 0x4 DUP1 CALLDATASIZE SUB DUP2 ADD SWAP1 PUSH2 0xA0 SWAP2 SWAP1 PUSH2 0x698 JUMP JUMPDEST PUSH2 0x13E JUMP JUMPDEST STOP JUMPDEST PUSH2 0xC1 PUSH1 0x4 DUP1 CALLDATASIZE SUB DUP2 ADD SWAP1 PUSH2 0xBC SWAP2 SWAP1 PUSH2 0x723 JUMP JUMPDEST PUSH2 0x1CE JUMP JUMPDEST STOP JUMPDEST PUSH1 0x0 DUP1 DUP1 SLOAD SWAP1 POP SWAP1 POP SWAP1 JUMP JUMPDEST DUP1 PUSH1 0x1 PUSH1 0x0 CALLER PUSH20 0xFFFFFFFFFFFFFFFFFFFFFFFFFFFFFFFFFFFFFFFF AND PUSH20 0xFFFFFFFFFFFFFFFFFFFFFFFFFFFFFFFFFFFFFFFF AND DUP2 MSTORE PUSH1 0x20 ADD SWAP1 DUP2 MSTORE PUSH1 0x20 ADD PUSH1 0x0 KECCAK256 PUSH1 0x1 ADD PUSH1 0x0 DUP5 DUP2 MSTORE PUSH1 0x20 ADD SWAP1 DUP2 MSTORE PUSH1 0x20 ADD PUSH1 0x0 KECCAK256 PUSH1 0x0 PUSH2 0x100 EXP DUP2 SLOAD DUP2 PUSH1 0xFF MUL NOT AND SWAP1 DUP4 ISZERO ISZERO MUL OR SWAP1 SSTORE POP POP POP JUMP JUMPDEST PUSH1 0x0 PUSH1 0x40 MLOAD DUP1 PUSH1 0x60 ADD PUSH1 0x40 MSTORE DUP1 DUP6 DUP2 MSTORE PUSH1 0x20 ADD DUP5 DUP2 MSTORE PUSH1 0x20 ADD DUP4 DUP2 MSTORE POP SWAP1 POP PUSH1 0x0 DUP2 SWAP1 DUP1 PUSH1 0x1 DUP2 SLOAD ADD DUP1 DUP3 SSTORE DUP1 SWAP2 POP POP PUSH1 0x1 SWAP1 SUB SWAP1 PUSH1 0x0 MSTORE PUSH1 0x20 PUSH1 0x0 KECCAK256 SWAP1 PUSH1 0x3 MUL ADD PUSH1 0x0 SWAP1 SWAP2 SWAP1 SWAP2 SWAP1 SWAP2 POP PUSH1 0x0 DUP3 ADD MLOAD DUP2 PUSH1 0x0 ADD SSTORE PUSH1 0x20 DUP3 ADD MLOAD DUP2 PUSH1 0x1 ADD SWAP1 DUP2 PUSH2 0x1A8 SWAP2 SWAP1 PUSH2 0x967 JUMP JUMPDEST POP PUSH1 0x40 DUP3 ADD MLOAD DUP2 PUSH1 0x2 ADD SWAP1 DUP1 MLOAD SWAP1 PUSH1 0x20 ADD SWAP1 PUSH2 0x1C5 SWAP3 SWAP2 SWAP1 PUSH2 0x2A6 JUMP JUMPDEST POP POP POP POP POP POP POP JUMP JUMPDEST PUSH1 0x1 PUSH1 0x0 CALLER PUSH20 0xFFFFFFFFFFFFFFFFFFFFFFFFFFFFFFFFFFFFFFFF AND PUSH20 0xFFFFFFFFFFFFFFFFFFFFFFFFFFFFFFFFFFFFFFFF AND DUP2 MSTORE PUSH1 0x20 ADD SWAP1 DUP2 MSTORE PUSH1 0x20 ADD PUSH1 0x0 KECCAK256 PUSH1 0x0 ADD DUP2 SWAP1 DUP1 PUSH1 0x1 DUP2 SLOAD ADD DUP1 DUP3 SSTORE DUP1 SWAP2 POP POP PUSH1 0x1 SWAP1 SUB SWAP1 PUSH1 0x0 MSTORE PUSH1 0x20 PUSH1 0x0 KECCAK256 ADD PUSH1 0x0 SWAP1 SWAP2 SWAP1 SWAP2 SWAP1 SWAP2 POP SSTORE PUSH1 0x0 PUSH1 0x1 PUSH1 0x0 CALLER PUSH20 0xFFFFFFFFFFFFFFFFFFFFFFFFFFFFFFFFFFFFFFFF AND PUSH20 0xFFFFFFFFFFFFFFFFFFFFFFFFFFFFFFFFFFFFFFFF AND DUP2 MSTORE PUSH1 0x20 ADD SWAP1 DUP2 MSTORE PUSH1 0x20 ADD PUSH1 0x0 KECCAK256 PUSH1 0x1 ADD PUSH1 0x0 DUP4 DUP2 MSTORE PUSH1 0x20 ADD SWAP1 DUP2 MSTORE PUSH1 0x20 ADD PUSH1 0x0 KECCAK256 PUSH1 0x0 PUSH2 0x100 EXP DUP2 SLOAD DUP2 PUSH1 0xFF MUL NOT AND SWAP1 DUP4 ISZERO ISZERO MUL OR SWAP1 SSTORE POP POP JUMP JUMPDEST DUP3 DUP1 SLOAD DUP3 DUP3 SSTORE SWAP1 PUSH1 0x0 MSTORE PUSH1 0x20 PUSH1 0x0 KECCAK256 SWAP1 DUP2 ADD SWAP3 DUP3 ISZERO PUSH2 0x2EE JUMPI SWAP2 PUSH1 0x20 MUL DUP3 ADD JUMPDEST DUP3 DUP2 GT ISZERO PUSH2 0x2ED JUMPI DUP3 MLOAD DUP3 SWAP1 DUP2 PUSH2 0x2DD SWAP2 SWAP1 PUSH2 0x967 JUMP JUMPDEST POP SWAP2 PUSH1 0x20 ADD SWAP2 SWAP1 PUSH1 0x1 ADD SWAP1 PUSH2 0x2C6 JUMP JUMPDEST JUMPDEST POP SWAP1 POP PUSH2 0x2FB SWAP2 SWAP1 PUSH2 0x2FF JUMP JUMPDEST POP SWAP1 JUMP JUMPDEST JUMPDEST DUP1 DUP3 GT ISZERO PUSH2 0x31F JUMPI PUSH1 0x0 DUP2 DUP2 PUSH2 0x316 SWAP2 SWAP1 PUSH2 0x323 JUMP JUMPDEST POP PUSH1 0x1 ADD PUSH2 0x300 JUMP JUMPDEST POP SWAP1 JUMP JUMPDEST POP DUP1 SLOAD PUSH2 0x32F SWAP1 PUSH2 0x78A JUMP JUMPDEST PUSH1 0x0 DUP3 SSTORE DUP1 PUSH1 0x1F LT PUSH2 0x341 JUMPI POP PUSH2 0x360 JUMP JUMPDEST PUSH1 0x1F ADD PUSH1 0x20 SWAP1 DIV SWAP1 PUSH1 0x0 MSTORE PUSH1 0x20 PUSH1 0x0 KECCAK256 SWAP1 DUP2 ADD SWAP1 PUSH2 0x35F SWAP2 SWAP1 PUSH2 0x363 JUMP JUMPDEST JUMPDEST POP JUMP JUMPDEST JUMPDEST DUP1 DUP3 GT ISZERO PUSH2 0x37C JUMPI PUSH1 0x0 DUP2 PUSH1 0x0 SWAP1 SSTORE POP PUSH1 0x1 ADD PUSH2 0x364 JUMP JUMPDEST POP SWAP1 JUMP JUMPDEST PUSH1 0x0 DUP2 SWAP1 POP SWAP2 SWAP1 POP JUMP JUMPDEST PUSH2 0x393 DUP2 PUSH2 0x380 JUMP JUMPDEST DUP3 MSTORE POP POP JUMP JUMPDEST PUSH1 0x0 PUSH1 0x20 DUP3 ADD SWAP1 POP PUSH2 0x3AE PUSH1 0x0 DUP4 ADD DUP5 PUSH2 0x38A JUMP JUMPDEST SWAP3 SWAP2 POP POP JUMP JUMPDEST PUSH1 0x0 PUSH1 0x40 MLOAD SWAP1 POP SWAP1 JUMP JUMPDEST PUSH1 0x0 DUP1 REVERT JUMPDEST PUSH1 0x0 DUP1 REVERT JUMPDEST PUSH2 0x3D1 DUP2 PUSH2 0x380 JUMP JUMPDEST DUP2 EQ PUSH2 0x3DC JUMPI PUSH1 0x0 DUP1 REVERT JUMPDEST POP JUMP JUMPDEST PUSH1 0x0 DUP2 CALLDATALOAD SWAP1 POP PUSH2 0x3EE DUP2 PUSH2 0x3C8 JUMP JUMPDEST SWAP3 SWAP2 POP POP JUMP JUMPDEST PUSH1 0x0 DUP2 ISZERO ISZERO SWAP1 POP SWAP2 SWAP1 POP JUMP JUMPDEST PUSH2 0x409 DUP2 PUSH2 0x3F4 JUMP JUMPDEST DUP2 EQ PUSH2 0x414 JUMPI PUSH1 0x0 DUP1 REVERT JUMPDEST POP JUMP JUMPDEST PUSH1 0x0 DUP2 CALLDATALOAD SWAP1 POP PUSH2 0x426 DUP2 PUSH2 0x400 JUMP JUMPDEST SWAP3 SWAP2 POP POP JUMP JUMPDEST PUSH1 0x0 DUP1 PUSH1 0x40 DUP4 DUP6 SUB SLT ISZERO PUSH2 0x443 JUMPI PUSH2 0x442 PUSH2 0x3BE JUMP JUMPDEST JUMPDEST PUSH1 0x0 PUSH2 0x451 DUP6 DUP3 DUP7 ADD PUSH2 0x3DF JUMP JUMPDEST SWAP3 POP POP PUSH1 0x20 PUSH2 0x462 DUP6 DUP3 DUP7 ADD PUSH2 0x417 JUMP JUMPDEST SWAP2 POP POP SWAP3 POP SWAP3 SWAP1 POP JUMP JUMPDEST PUSH1 0x0 DUP1 REVERT JUMPDEST PUSH1 0x0 DUP1 REVERT JUMPDEST PUSH1 0x0 PUSH1 0x1F NOT PUSH1 0x1F DUP4 ADD AND SWAP1 POP SWAP2 SWAP1 POP JUMP JUMPDEST PUSH32 0x4E487B7100000000000000000000000000000000000000000000000000000000 PUSH1 0x0 MSTORE PUSH1 0x41 PUSH1 0x4 MSTORE PUSH1 0x24 PUSH1 0x0 REVERT JUMPDEST PUSH2 0x4BF DUP3 PUSH2 0x476 JUMP JUMPDEST DUP2 ADD DUP2 DUP2 LT PUSH8 0xFFFFFFFFFFFFFFFF DUP3 GT OR ISZERO PUSH2 0x4DE JUMPI PUSH2 0x4DD PUSH2 0x487 JUMP JUMPDEST JUMPDEST DUP1 PUSH1 0x40 MSTORE POP POP POP JUMP JUMPDEST PUSH1 0x0 PUSH2 0x4F1 PUSH2 0x3B4 JUMP JUMPDEST SWAP1 POP PUSH2 0x4FD DUP3 DUP3 PUSH2 0x4B6 JUMP JUMPDEST SWAP2 SWAP1 POP JUMP JUMPDEST PUSH1 0x0 PUSH8 0xFFFFFFFFFFFFFFFF DUP3 GT ISZERO PUSH2 0x51D JUMPI PUSH2 0x51C PUSH2 0x487 JUMP JUMPDEST JUMPDEST PUSH2 0x526 DUP3 PUSH2 0x476 JUMP JUMPDEST SWAP1 POP PUSH1 0x20 DUP2 ADD SWAP1 POP SWAP2 SWAP1 POP JUMP JUMPDEST DUP3 DUP2 DUP4 CALLDATACOPY PUSH1 0x0 DUP4 DUP4 ADD MSTORE POP POP POP JUMP JUMPDEST PUSH1 0x0 PUSH2 0x555 PUSH2 0x550 DUP5 PUSH2 0x502 JUMP JUMPDEST PUSH2 0x4E7 JUMP JUMPDEST SWAP1 POP DUP3 DUP2 MSTORE PUSH1 0x20 DUP2 ADD DUP5 DUP5 DUP5 ADD GT ISZERO PUSH2 0x571 JUMPI PUSH2 0x570 PUSH2 0x471 JUMP JUMPDEST JUMPDEST PUSH2 0x57C DUP5 DUP3 DUP6 PUSH2 0x533 JUMP JUMPDEST POP SWAP4 SWAP3 POP POP POP JUMP JUMPDEST PUSH1 0x0 DUP3 PUSH1 0x1F DUP4 ADD SLT PUSH2 0x599 JUMPI PUSH2 0x598 PUSH2 0x46C JUMP JUMPDEST JUMPDEST DUP2 CALLDATALOAD PUSH2 0x5A9 DUP5 DUP3 PUSH1 0x20 DUP7 ADD PUSH2 0x542 JUMP JUMPDEST SWAP2 POP POP SWAP3 SWAP2 POP POP JUMP JUMPDEST PUSH1 0x0 PUSH8 0xFFFFFFFFFFFFFFFF DUP3 GT ISZERO PUSH2 0x5CD JUMPI PUSH2 0x5CC PUSH2 0x487 JUMP JUMPDEST JUMPDEST PUSH1 0x20 DUP3 MUL SWAP1 POP PUSH1 0x20 DUP2 ADD SWAP1 POP SWAP2 SWAP1 POP JUMP JUMPDEST PUSH1 0x0 DUP1 REVERT JUMPDEST PUSH1 0x0 PUSH2 0x5F6 PUSH2 0x5F1 DUP5 PUSH2 0x5B2 JUMP JUMPDEST PUSH2 0x4E7 JUMP JUMPDEST SWAP1 POP DUP1 DUP4 DUP3 MSTORE PUSH1 0x20 DUP3 ADD SWAP1 POP PUSH1 0x20 DUP5 MUL DUP4 ADD DUP6 DUP2 GT ISZERO PUSH2 0x619 JUMPI PUSH2 0x618 PUSH2 0x5DE JUMP JUMPDEST JUMPDEST DUP4 JUMPDEST DUP2 DUP2 LT ISZERO PUSH2 0x660 JUMPI DUP1 CALLDATALOAD PUSH8 0xFFFFFFFFFFFFFFFF DUP2 GT ISZERO PUSH2 0x63E JUMPI PUSH2 0x63D PUSH2 0x46C JUMP JUMPDEST JUMPDEST DUP1 DUP7 ADD PUSH2 0x64B DUP10 DUP3 PUSH2 0x584 JUMP JUMPDEST DUP6 MSTORE PUSH1 0x20 DUP6 ADD SWAP5 POP POP POP PUSH1 0x20 DUP2 ADD SWAP1 POP PUSH2 0x61B JUMP JUMPDEST POP POP POP SWAP4 SWAP3 POP POP POP JUMP JUMPDEST PUSH1 0x0 DUP3 PUSH1 0x1F DUP4 ADD SLT PUSH2 0x67F JUMPI PUSH2 0x67E PUSH2 0x46C JUMP JUMPDEST JUMPDEST DUP2 CALLDATALOAD PUSH2 0x68F DUP5 DUP3 PUSH1 0x20 DUP7 ADD PUSH2 0x5E3 JUMP JUMPDEST SWAP2 POP POP SWAP3 SWAP2 POP POP JUMP JUMPDEST PUSH1 0x0 DUP1 PUSH1 0x0 PUSH1 0x60 DUP5 DUP7 SUB SLT ISZERO PUSH2 0x6B1 JUMPI PUSH2 0x6B0 PUSH2 0x3BE JUMP JUMPDEST JUMPDEST PUSH1 0x0 PUSH2 0x6BF DUP7 DUP3 DUP8 ADD PUSH2 0x3DF JUMP JUMPDEST SWAP4 POP POP PUSH1 0x20 DUP5 ADD CALLDATALOAD PUSH8 0xFFFFFFFFFFFFFFFF DUP2 GT ISZERO PUSH2 0x6E0 JUMPI PUSH2 0x6DF PUSH2 0x3C3 JUMP JUMPDEST JUMPDEST PUSH2 0x6EC DUP7 DUP3 DUP8 ADD PUSH2 0x584 JUMP JUMPDEST SWAP3 POP POP PUSH1 0x40 DUP5 ADD CALLDATALOAD PUSH8 0xFFFFFFFFFFFFFFFF DUP2 GT ISZERO PUSH2 0x70D JUMPI PUSH2 0x70C PUSH2 0x3C3 JUMP JUMPDEST JUMPDEST PUSH2 0x719 DUP7 DUP3 DUP8 ADD PUSH2 0x66A JUMP JUMPDEST SWAP2 POP POP SWAP3 POP SWAP3 POP SWAP3 JUMP JUMPDEST PUSH1 0x0 PUSH1 0x20 DUP3 DUP5 SUB SLT ISZERO PUSH2 0x739 JUMPI PUSH2 0x738 PUSH2 0x3BE JUMP JUMPDEST JUMPDEST PUSH1 0x0 PUSH2 0x747 DUP5 DUP3 DUP6 ADD PUSH2 0x3DF JUMP JUMPDEST SWAP2 POP POP SWAP3 SWAP2 POP POP JUMP JUMPDEST PUSH1 0x0 DUP2 MLOAD SWAP1 POP SWAP2 SWAP1 POP JUMP JUMPDEST PUSH32 0x4E487B7100000000000000000000000000000000000000000000000000000000 PUSH1 0x0 MSTORE PUSH1 0x22 PUSH1 0x4 MSTORE PUSH1 0x24 PUSH1 0x0 REVERT JUMPDEST PUSH1 0x0 PUSH1 0x2 DUP3 DIV SWAP1 POP PUSH1 0x1 DUP3 AND DUP1 PUSH2 0x7A2 JUMPI PUSH1 0x7F DUP3 AND SWAP2 POP JUMPDEST PUSH1 0x20 DUP3 LT DUP2 SUB PUSH2 0x7B5 JUMPI PUSH2 0x7B4 PUSH2 0x75B JUMP JUMPDEST JUMPDEST POP SWAP2 SWAP1 POP JUMP JUMPDEST PUSH1 0x0 DUP2 SWAP1 POP DUP2 PUSH1 0x0 MSTORE PUSH1 0x20 PUSH1 0x0 KECCAK256 SWAP1 POP SWAP2 SWAP1 POP JUMP JUMPDEST PUSH1 0x0 PUSH1 0x20 PUSH1 0x1F DUP4 ADD DIV SWAP1 POP SWAP2 SWAP1 POP JUMP JUMPDEST PUSH1 0x0 DUP3 DUP3 SHL SWAP1 POP SWAP3 SWAP2 POP POP JUMP JUMPDEST PUSH1 0x0 PUSH1 0x8 DUP4 MUL PUSH2 0x81D PUSH32 0xFFFFFFFFFFFFFFFFFFFFFFFFFFFFFFFFFFFFFFFFFFFFFFFFFFFFFFFFFFFFFFFF DUP3 PUSH2 0x7E0 JUMP JUMPDEST PUSH2 0x827 DUP7 DUP4 PUSH2 0x7E0 JUMP JUMPDEST SWAP6 POP DUP1 NOT DUP5 AND SWAP4 POP DUP1 DUP7 AND DUP5 OR SWAP3 POP POP POP SWAP4 SWAP3 POP POP POP JUMP JUMPDEST PUSH1 0x0 DUP2 SWAP1 POP SWAP2 SWAP1 POP JUMP JUMPDEST PUSH1 0x0 PUSH2 0x864 PUSH2 0x85F PUSH2 0x85A DUP5 PUSH2 0x380 JUMP JUMPDEST PUSH2 0x83F JUMP JUMPDEST PUSH2 0x380 JUMP JUMPDEST SWAP1 POP SWAP2 SWAP1 POP JUMP JUMPDEST PUSH1 0x0 DUP2 SWAP1 POP SWAP2 SWAP1 POP JUMP JUMPDEST PUSH2 0x87E DUP4 PUSH2 0x849 JUMP JUMPDEST PUSH2 0x892 PUSH2 0x88A DUP3 PUSH2 0x86B JUMP JUMPDEST DUP5 DUP5 SLOAD PUSH2 0x7ED JUMP JUMPDEST DUP3 SSTORE POP POP POP POP JUMP JUMPDEST PUSH1 0x0 SWAP1 JUMP JUMPDEST PUSH2 0x8A7 PUSH2 0x89A JUMP JUMPDEST PUSH2 0x8B2 DUP2 DUP5 DUP5 PUSH2 0x875 JUMP JUMPDEST POP POP POP JUMP JUMPDEST JUMPDEST DUP2 DUP2 LT ISZERO PUSH2 0x8D6 JUMPI PUSH2 0x8CB PUSH1 0x0 DUP3 PUSH2 0x89F JUMP JUMPDEST PUSH1 0x1 DUP2 ADD SWAP1 POP PUSH2 0x8B8 JUMP JUMPDEST POP POP JUMP JUMPDEST PUSH1 0x1F DUP3 GT ISZERO PUSH2 0x91B JUMPI PUSH2 0x8EC DUP2 PUSH2 0x7BB JUMP JUMPDEST PUSH2 0x8F5 DUP5 PUSH2 0x7D0 JUMP JUMPDEST DUP2 ADD PUSH1 0x20 DUP6 LT ISZERO PUSH2 0x904 JUMPI DUP2 SWAP1 POP JUMPDEST PUSH2 0x918 PUSH2 0x910 DUP6 PUSH2 0x7D0 JUMP JUMPDEST DUP4 ADD DUP3 PUSH2 0x8B7 JUMP JUMPDEST POP POP JUMPDEST POP POP POP JUMP JUMPDEST PUSH1 0x0 DUP3 DUP3 SHR SWAP1 POP SWAP3 SWAP2 POP POP JUMP JUMPDEST PUSH1 0x0 PUSH2 0x93E PUSH1 0x0 NOT DUP5 PUSH1 0x8 MUL PUSH2 0x920 JUMP JUMPDEST NOT DUP1 DUP4 AND SWAP2 POP POP SWAP3 SWAP2 POP POP JUMP JUMPDEST PUSH1 0x0 PUSH2 0x957 DUP4 DUP4 PUSH2 0x92D JUMP JUMPDEST SWAP2 POP DUP3 PUSH1 0x2 MUL DUP3 OR SWAP1 POP SWAP3 SWAP2 POP POP JUMP JUMPDEST PUSH2 0x970 DUP3 PUSH2 0x750 JUMP JUMPDEST PUSH8 0xFFFFFFFFFFFFFFFF DUP2 GT ISZERO PUSH2 0x989 JUMPI PUSH2 0x988 PUSH2 0x487 JUMP JUMPDEST JUMPDEST PUSH2 0x993 DUP3 SLOAD PUSH2 0x78A JUMP JUMPDEST PUSH2 0x99E DUP3 DUP3 DUP6 PUSH2 0x8DA JUMP JUMPDEST PUSH1 0x0 PUSH1 0x20 SWAP1 POP PUSH1 0x1F DUP4 GT PUSH1 0x1 DUP2 EQ PUSH2 0x9D1 JUMPI PUSH1 0x0 DUP5 ISZERO PUSH2 0x9BF JUMPI DUP3 DUP8 ADD MLOAD SWAP1 POP JUMPDEST PUSH2 0x9C9 DUP6 DUP3 PUSH2 0x94B JUMP JUMPDEST DUP7 SSTORE POP PUSH2 0xA31 JUMP JUMPDEST PUSH1 0x1F NOT DUP5 AND PUSH2 0x9DF DUP7 PUSH2 0x7BB JUMP JUMPDEST PUSH1 0x0 JUMPDEST DUP3 DUP2 LT ISZERO PUSH2 0xA07 JUMPI DUP5 DUP10 ADD MLOAD DUP3 SSTORE PUSH1 0x1 DUP3 ADD SWAP2 POP PUSH1 0x20 DUP6 ADD SWAP5 POP PUSH1 0x20 DUP2 ADD SWAP1 POP PUSH2 0x9E2 JUMP JUMPDEST DUP7 DUP4 LT ISZERO PUSH2 0xA24 JUMPI DUP5 DUP10 ADD MLOAD PUSH2 0xA20 PUSH1 0x1F DUP10 AND DUP3 PUSH2 0x92D JUMP JUMPDEST DUP4 SSTORE POP JUMPDEST PUSH1 0x1 PUSH1 0x2 DUP9 MUL ADD DUP9 SSTORE POP POP POP JUMPDEST POP POP POP POP POP POP JUMP INVALID LOG2 PUSH5 0x6970667358 0x22 SLT KECCAK256 PUSH21 0xBCF7F37B4B079A5E9952DF4AFBA7CCE9ED20DA9057 0xB8 0x2C 0xC4 BLOCKHASH PUSH13 0x5DCA49C90364736F6C63430008 SLT STOP CALLER "
		},
		"gasEstimates": {
			"creation": {
				"codeDepositCost": "534200",
				"executionCost": "568",
				"totalCost": "534768"
			},
			"external": {
				"CreatePoll(uint256,string,string[])": "infinite",
				"CreateVoter(uint256)": "71408",
				"getLengthPoll()": "2423",
				"pollAns(uint256,bool)": "25025"
			}
		},
		"methodIdentifiers": {
			"CreatePoll(uint256,string,string[])": "cce042bb",
			"CreateVoter(uint256)": "cf15ee02",
			"getLengthPoll()": "08d9350a",
			"pollAns(uint256,bool)": "2c60dc3f"
		}
	},
	"abi": [
		{
			"inputs": [
				{
					"internalType": "uint256",
					"name": "id",
					"type": "uint256"
				},
				{
					"internalType": "string",
					"name": "question",
					"type": "string"
				},
				{
					"internalType": "string[]",
					"name": "option",
					"type": "string[]"
				}
			],
			"name": "CreatePoll",
			"outputs": [],
			"stateMutability": "nonpayable",
			"type": "function"
		},
		{
			"inputs": [
				{
					"internalType": "uint256",
					"name": "id",
					"type": "uint256"
				}
			],
			"name": "CreateVoter",
			"outputs": [],
			"stateMutability": "nonpayable",
			"type": "function"
		},
		{
			"inputs": [],
			"name": "getLengthPoll",
			"outputs": [
				{
					"internalType": "uint256",
					"name": "",
					"type": "uint256"
				}
			],
			"stateMutability": "view",
			"type": "function"
		},
		{
			"inputs": [
				{
					"internalType": "uint256",
					"name": "pollId",
					"type": "uint256"
				},
				{
					"internalType": "bool",
					"name": "ans",
					"type": "bool"
				}
			],
			"name": "pollAns",
			"outputs": [],
			"stateMutability": "nonpayable",
			"type": "function"
		}
	]
}