{
	"data": {
		"bytecode": {
			"linkReferences": {},
			"object": "608060405234801561001057600080fd5b50610798806100206000396000f3fe608060405234801561001057600080fd5b506004361061009e5760003560e01c80637b54a72f116100665780637b54a72f1461012f5780638d306fe91461014d578063cdf8bcc314610169578063ea2005b814610187578063fce69179146101a35761009e565b806304814f8f146100a35780632311b275146100bf5780635ac31968146100db5780635b494cda146100f75780636445e5a114610113575b600080fd5b6100bd60048036038101906100b89190610596565b6101c1565b005b6100d960048036038101906100d49190610596565b6101cb565b005b6100f560048036038101906100f09190610596565b6101d5565b005b610111600480360381019061010c9190610596565b6101df565b005b61012d60048036038101906101289190610596565b6101e9565b005b6101376101f3565b60405161014491906105d2565b60405180910390f35b61016760048036038101906101629190610596565b61024b565b005b610171610255565b60405161017e919061067d565b60405180910390f35b6101a1600480360381019061019c9190610596565b6104ed565b005b6101ab6104f7565b6040516101b891906105d2565b60405180910390f35b8060058190555050565b8060018190555050565b8060068190555050565b8060008190555050565b8060038190555050565b600060065460055460045460035460025460015460005461021491906106ce565b61021e91906106ce565b61022891906106ce565b61023291906106ce565b61023c91906106ce565b61024691906106ce565b905090565b8060048190555050565b60606000600760065460055460045460035460025460015460005461027a91906106ce565b61028491906106ce565b61028e91906106ce565b61029891906106ce565b6102a291906106ce565b6102ac91906106ce565b6102b69190610731565b9050602881116102fd576040518060400160405280600481526020017f4661696c0000000000000000000000000000000000000000000000000000000081525091506104e9565b6032811015801561030f575060288111155b15610351576040518060400160405280600181526020017f420000000000000000000000000000000000000000000000000000000000000081525091506104e8565b603281101580156103635750603c8111155b156103a5576040518060400160405280600281526020017f422b00000000000000000000000000000000000000000000000000000000000081525091506104e7565b603c81101580156103b7575060468111155b156103f9576040518060400160405280600181526020017f410000000000000000000000000000000000000000000000000000000000000081525091506104e6565b6046811015801561040b575060508111155b1561044d576040518060400160405280600281526020017f412b00000000000000000000000000000000000000000000000000000000000081525091506104e5565b6050811015801561045f5750605a8111155b156104a1576040518060400160405280600381526020017f412b2b000000000000000000000000000000000000000000000000000000000081525091506104e4565b605a8111156104e3576040518060400160405280600381526020017f546f70000000000000000000000000000000000000000000000000000000000081525091505b5b5b5b5b5b5b5090565b8060028190555050565b6000600760065460055460045460035460025460015460005461051a91906106ce565b61052491906106ce565b61052e91906106ce565b61053891906106ce565b61054291906106ce565b61054c91906106ce565b6105569190610731565b905090565b600080fd5b6000819050919050565b61057381610560565b811461057e57600080fd5b50565b6000813590506105908161056a565b92915050565b6000602082840312156105ac576105ab61055b565b5b60006105ba84828501610581565b91505092915050565b6105cc81610560565b82525050565b60006020820190506105e760008301846105c3565b92915050565b600081519050919050565b600082825260208201905092915050565b60005b8381101561062757808201518184015260208101905061060c565b60008484015250505050565b6000601f19601f8301169050919050565b600061064f826105ed565b61065981856105f8565b9350610669818560208601610609565b61067281610633565b840191505092915050565b600060208201905081810360008301526106978184610644565b905092915050565b7f4e487b7100000000000000000000000000000000000000000000000000000000600052601160045260246000fd5b60006106d982610560565b91506106e483610560565b92508282019050808211156106fc576106fb61069f565b5b92915050565b7f4e487b7100000000000000000000000000000000000000000000000000000000600052601260045260246000fd5b600061073c82610560565b915061074783610560565b92508261075757610756610702565b5b82820490509291505056fea2646970667358221220c78d7ebc682897adbb08897401f73f379f359286a0e69fbdb1c5055fbfcd2e1464736f6c63430008130033",
			"opcodes": "PUSH1 0x80 PUSH1 0x40 MSTORE CALLVALUE DUP1 ISZERO PUSH2 0x10 JUMPI PUSH1 0x0 DUP1 REVERT JUMPDEST POP PUSH2 0x798 DUP1 PUSH2 0x20 PUSH1 0x0 CODECOPY PUSH1 0x0 RETURN INVALID PUSH1 0x80 PUSH1 0x40 MSTORE CALLVALUE DUP1 ISZERO PUSH2 0x10 JUMPI PUSH1 0x0 DUP1 REVERT JUMPDEST POP PUSH1 0x4 CALLDATASIZE LT PUSH2 0x9E JUMPI PUSH1 0x0 CALLDATALOAD PUSH1 0xE0 SHR DUP1 PUSH4 0x7B54A72F GT PUSH2 0x66 JUMPI DUP1 PUSH4 0x7B54A72F EQ PUSH2 0x12F JUMPI DUP1 PUSH4 0x8D306FE9 EQ PUSH2 0x14D JUMPI DUP1 PUSH4 0xCDF8BCC3 EQ PUSH2 0x169 JUMPI DUP1 PUSH4 0xEA2005B8 EQ PUSH2 0x187 JUMPI DUP1 PUSH4 0xFCE69179 EQ PUSH2 0x1A3 JUMPI PUSH2 0x9E JUMP JUMPDEST DUP1 PUSH4 0x4814F8F EQ PUSH2 0xA3 JUMPI DUP1 PUSH4 0x2311B275 EQ PUSH2 0xBF JUMPI DUP1 PUSH4 0x5AC31968 EQ PUSH2 0xDB JUMPI DUP1 PUSH4 0x5B494CDA EQ PUSH2 0xF7 JUMPI DUP1 PUSH4 0x6445E5A1 EQ PUSH2 0x113 JUMPI JUMPDEST PUSH1 0x0 DUP1 REVERT JUMPDEST PUSH2 0xBD PUSH1 0x4 DUP1 CALLDATASIZE SUB DUP2 ADD SWAP1 PUSH2 0xB8 SWAP2 SWAP1 PUSH2 0x596 JUMP JUMPDEST PUSH2 0x1C1 JUMP JUMPDEST STOP JUMPDEST PUSH2 0xD9 PUSH1 0x4 DUP1 CALLDATASIZE SUB DUP2 ADD SWAP1 PUSH2 0xD4 SWAP2 SWAP1 PUSH2 0x596 JUMP JUMPDEST PUSH2 0x1CB JUMP JUMPDEST STOP JUMPDEST PUSH2 0xF5 PUSH1 0x4 DUP1 CALLDATASIZE SUB DUP2 ADD SWAP1 PUSH2 0xF0 SWAP2 SWAP1 PUSH2 0x596 JUMP JUMPDEST PUSH2 0x1D5 JUMP JUMPDEST STOP JUMPDEST PUSH2 0x111 PUSH1 0x4 DUP1 CALLDATASIZE SUB DUP2 ADD SWAP1 PUSH2 0x10C SWAP2 SWAP1 PUSH2 0x596 JUMP JUMPDEST PUSH2 0x1DF JUMP JUMPDEST STOP JUMPDEST PUSH2 0x12D PUSH1 0x4 DUP1 CALLDATASIZE SUB DUP2 ADD SWAP1 PUSH2 0x128 SWAP2 SWAP1 PUSH2 0x596 JUMP JUMPDEST PUSH2 0x1E9 JUMP JUMPDEST STOP JUMPDEST PUSH2 0x137 PUSH2 0x1F3 JUMP JUMPDEST PUSH1 0x40 MLOAD PUSH2 0x144 SWAP2 SWAP1 PUSH2 0x5D2 JUMP JUMPDEST PUSH1 0x40 MLOAD DUP1 SWAP2 SUB SWAP1 RETURN JUMPDEST PUSH2 0x167 PUSH1 0x4 DUP1 CALLDATASIZE SUB DUP2 ADD SWAP1 PUSH2 0x162 SWAP2 SWAP1 PUSH2 0x596 JUMP JUMPDEST PUSH2 0x24B JUMP JUMPDEST STOP JUMPDEST PUSH2 0x171 PUSH2 0x255 JUMP JUMPDEST PUSH1 0x40 MLOAD PUSH2 0x17E SWAP2 SWAP1 PUSH2 0x67D JUMP JUMPDEST PUSH1 0x40 MLOAD DUP1 SWAP2 SUB SWAP1 RETURN JUMPDEST PUSH2 0x1A1 PUSH1 0x4 DUP1 CALLDATASIZE SUB DUP2 ADD SWAP1 PUSH2 0x19C SWAP2 SWAP1 PUSH2 0x596 JUMP JUMPDEST PUSH2 0x4ED JUMP JUMPDEST STOP JUMPDEST PUSH2 0x1AB PUSH2 0x4F7 JUMP JUMPDEST PUSH1 0x40 MLOAD PUSH2 0x1B8 SWAP2 SWAP1 PUSH2 0x5D2 JUMP JUMPDEST PUSH1 0x40 MLOAD DUP1 SWAP2 SUB SWAP1 RETURN JUMPDEST DUP1 PUSH1 0x5 DUP2 SWAP1 SSTORE POP POP JUMP JUMPDEST DUP1 PUSH1 0x1 DUP2 SWAP1 SSTORE POP POP JUMP JUMPDEST DUP1 PUSH1 0x6 DUP2 SWAP1 SSTORE POP POP JUMP JUMPDEST DUP1 PUSH1 0x0 DUP2 SWAP1 SSTORE POP POP JUMP JUMPDEST DUP1 PUSH1 0x3 DUP2 SWAP1 SSTORE POP POP JUMP JUMPDEST PUSH1 0x0 PUSH1 0x6 SLOAD PUSH1 0x5 SLOAD PUSH1 0x4 SLOAD PUSH1 0x3 SLOAD PUSH1 0x2 SLOAD PUSH1 0x1 SLOAD PUSH1 0x0 SLOAD PUSH2 0x214 SWAP2 SWAP1 PUSH2 0x6CE JUMP JUMPDEST PUSH2 0x21E SWAP2 SWAP1 PUSH2 0x6CE JUMP JUMPDEST PUSH2 0x228 SWAP2 SWAP1 PUSH2 0x6CE JUMP JUMPDEST PUSH2 0x232 SWAP2 SWAP1 PUSH2 0x6CE JUMP JUMPDEST PUSH2 0x23C SWAP2 SWAP1 PUSH2 0x6CE JUMP JUMPDEST PUSH2 0x246 SWAP2 SWAP1 PUSH2 0x6CE JUMP JUMPDEST SWAP1 POP SWAP1 JUMP JUMPDEST DUP1 PUSH1 0x4 DUP2 SWAP1 SSTORE POP POP JUMP JUMPDEST PUSH1 0x60 PUSH1 0x0 PUSH1 0x7 PUSH1 0x6 SLOAD PUSH1 0x5 SLOAD PUSH1 0x4 SLOAD PUSH1 0x3 SLOAD PUSH1 0x2 SLOAD PUSH1 0x1 SLOAD PUSH1 0x0 SLOAD PUSH2 0x27A SWAP2 SWAP1 PUSH2 0x6CE JUMP JUMPDEST PUSH2 0x284 SWAP2 SWAP1 PUSH2 0x6CE JUMP JUMPDEST PUSH2 0x28E SWAP2 SWAP1 PUSH2 0x6CE JUMP JUMPDEST PUSH2 0x298 SWAP2 SWAP1 PUSH2 0x6CE JUMP JUMPDEST PUSH2 0x2A2 SWAP2 SWAP1 PUSH2 0x6CE JUMP JUMPDEST PUSH2 0x2AC SWAP2 SWAP1 PUSH2 0x6CE JUMP JUMPDEST PUSH2 0x2B6 SWAP2 SWAP1 PUSH2 0x731 JUMP JUMPDEST SWAP1 POP PUSH1 0x28 DUP2 GT PUSH2 0x2FD JUMPI PUSH1 0x40 MLOAD DUP1 PUSH1 0x40 ADD PUSH1 0x40 MSTORE DUP1 PUSH1 0x4 DUP2 MSTORE PUSH1 0x20 ADD PUSH32 0x4661696C00000000000000000000000000000000000000000000000000000000 DUP2 MSTORE POP SWAP2 POP PUSH2 0x4E9 JUMP JUMPDEST PUSH1 0x32 DUP2 LT ISZERO DUP1 ISZERO PUSH2 0x30F JUMPI POP PUSH1 0x28 DUP2 GT ISZERO JUMPDEST ISZERO PUSH2 0x351 JUMPI PUSH1 0x40 MLOAD DUP1 PUSH1 0x40 ADD PUSH1 0x40 MSTORE DUP1 PUSH1 0x1 DUP2 MSTORE PUSH1 0x20 ADD PUSH32 0x4200000000000000000000000000000000000000000000000000000000000000 DUP2 MSTORE POP SWAP2 POP PUSH2 0x4E8 JUMP JUMPDEST PUSH1 0x32 DUP2 LT ISZERO DUP1 ISZERO PUSH2 0x363 JUMPI POP PUSH1 0x3C DUP2 GT ISZERO JUMPDEST ISZERO PUSH2 0x3A5 JUMPI PUSH1 0x40 MLOAD DUP1 PUSH1 0x40 ADD PUSH1 0x40 MSTORE DUP1 PUSH1 0x2 DUP2 MSTORE PUSH1 0x20 ADD PUSH32 0x422B000000000000000000000000000000000000000000000000000000000000 DUP2 MSTORE POP SWAP2 POP PUSH2 0x4E7 JUMP JUMPDEST PUSH1 0x3C DUP2 LT ISZERO DUP1 ISZERO PUSH2 0x3B7 JUMPI POP PUSH1 0x46 DUP2 GT ISZERO JUMPDEST ISZERO PUSH2 0x3F9 JUMPI PUSH1 0x40 MLOAD DUP1 PUSH1 0x40 ADD PUSH1 0x40 MSTORE DUP1 PUSH1 0x1 DUP2 MSTORE PUSH1 0x20 ADD PUSH32 0x4100000000000000000000000000000000000000000000000000000000000000 DUP2 MSTORE POP SWAP2 POP PUSH2 0x4E6 JUMP JUMPDEST PUSH1 0x46 DUP2 LT ISZERO DUP1 ISZERO PUSH2 0x40B JUMPI POP PUSH1 0x50 DUP2 GT ISZERO JUMPDEST ISZERO PUSH2 0x44D JUMPI PUSH1 0x40 MLOAD DUP1 PUSH1 0x40 ADD PUSH1 0x40 MSTORE DUP1 PUSH1 0x2 DUP2 MSTORE PUSH1 0x20 ADD PUSH32 0x412B000000000000000000000000000000000000000000000000000000000000 DUP2 MSTORE POP SWAP2 POP PUSH2 0x4E5 JUMP JUMPDEST PUSH1 0x50 DUP2 LT ISZERO DUP1 ISZERO PUSH2 0x45F JUMPI POP PUSH1 0x5A DUP2 GT ISZERO JUMPDEST ISZERO PUSH2 0x4A1 JUMPI PUSH1 0x40 MLOAD DUP1 PUSH1 0x40 ADD PUSH1 0x40 MSTORE DUP1 PUSH1 0x3 DUP2 MSTORE PUSH1 0x20 ADD PUSH32 0x412B2B0000000000000000000000000000000000000000000000000000000000 DUP2 MSTORE POP SWAP2 POP PUSH2 0x4E4 JUMP JUMPDEST PUSH1 0x5A DUP2 GT ISZERO PUSH2 0x4E3 JUMPI PUSH1 0x40 MLOAD DUP1 PUSH1 0x40 ADD PUSH1 0x40 MSTORE DUP1 PUSH1 0x3 DUP2 MSTORE PUSH1 0x20 ADD PUSH32 0x546F700000000000000000000000000000000000000000000000000000000000 DUP2 MSTORE POP SWAP2 POP JUMPDEST JUMPDEST JUMPDEST JUMPDEST JUMPDEST JUMPDEST JUMPDEST POP SWAP1 JUMP JUMPDEST DUP1 PUSH1 0x2 DUP2 SWAP1 SSTORE POP POP JUMP JUMPDEST PUSH1 0x0 PUSH1 0x7 PUSH1 0x6 SLOAD PUSH1 0x5 SLOAD PUSH1 0x4 SLOAD PUSH1 0x3 SLOAD PUSH1 0x2 SLOAD PUSH1 0x1 SLOAD PUSH1 0x0 SLOAD PUSH2 0x51A SWAP2 SWAP1 PUSH2 0x6CE JUMP JUMPDEST PUSH2 0x524 SWAP2 SWAP1 PUSH2 0x6CE JUMP JUMPDEST PUSH2 0x52E SWAP2 SWAP1 PUSH2 0x6CE JUMP JUMPDEST PUSH2 0x538 SWAP2 SWAP1 PUSH2 0x6CE JUMP JUMPDEST PUSH2 0x542 SWAP2 SWAP1 PUSH2 0x6CE JUMP JUMPDEST PUSH2 0x54C SWAP2 SWAP1 PUSH2 0x6CE JUMP JUMPDEST PUSH2 0x556 SWAP2 SWAP1 PUSH2 0x731 JUMP JUMPDEST SWAP1 POP SWAP1 JUMP JUMPDEST PUSH1 0x0 DUP1 REVERT JUMPDEST PUSH1 0x0 DUP2 SWAP1 POP SWAP2 SWAP1 POP JUMP JUMPDEST PUSH2 0x573 DUP2 PUSH2 0x560 JUMP JUMPDEST DUP2 EQ PUSH2 0x57E JUMPI PUSH1 0x0 DUP1 REVERT JUMPDEST POP JUMP JUMPDEST PUSH1 0x0 DUP2 CALLDATALOAD SWAP1 POP PUSH2 0x590 DUP2 PUSH2 0x56A JUMP JUMPDEST SWAP3 SWAP2 POP POP JUMP JUMPDEST PUSH1 0x0 PUSH1 0x20 DUP3 DUP5 SUB SLT ISZERO PUSH2 0x5AC JUMPI PUSH2 0x5AB PUSH2 0x55B JUMP JUMPDEST JUMPDEST PUSH1 0x0 PUSH2 0x5BA DUP5 DUP3 DUP6 ADD PUSH2 0x581 JUMP JUMPDEST SWAP2 POP POP SWAP3 SWAP2 POP POP JUMP JUMPDEST PUSH2 0x5CC DUP2 PUSH2 0x560 JUMP JUMPDEST DUP3 MSTORE POP POP JUMP JUMPDEST PUSH1 0x0 PUSH1 0x20 DUP3 ADD SWAP1 POP PUSH2 0x5E7 PUSH1 0x0 DUP4 ADD DUP5 PUSH2 0x5C3 JUMP JUMPDEST SWAP3 SWAP2 POP POP JUMP JUMPDEST PUSH1 0x0 DUP2 MLOAD SWAP1 POP SWAP2 SWAP1 POP JUMP JUMPDEST PUSH1 0x0 DUP3 DUP3 MSTORE PUSH1 0x20 DUP3 ADD SWAP1 POP SWAP3 SWAP2 POP POP JUMP JUMPDEST PUSH1 0x0 JUMPDEST DUP4 DUP2 LT ISZERO PUSH2 0x627 JUMPI DUP1 DUP3 ADD MLOAD DUP2 DUP5 ADD MSTORE PUSH1 0x20 DUP2 ADD SWAP1 POP PUSH2 0x60C JUMP JUMPDEST PUSH1 0x0 DUP5 DUP5 ADD MSTORE POP POP POP POP JUMP JUMPDEST PUSH1 0x0 PUSH1 0x1F NOT PUSH1 0x1F DUP4 ADD AND SWAP1 POP SWAP2 SWAP1 POP JUMP JUMPDEST PUSH1 0x0 PUSH2 0x64F DUP3 PUSH2 0x5ED JUMP JUMPDEST PUSH2 0x659 DUP2 DUP6 PUSH2 0x5F8 JUMP JUMPDEST SWAP4 POP PUSH2 0x669 DUP2 DUP6 PUSH1 0x20 DUP7 ADD PUSH2 0x609 JUMP JUMPDEST PUSH2 0x672 DUP2 PUSH2 0x633 JUMP JUMPDEST DUP5 ADD SWAP2 POP POP SWAP3 SWAP2 POP POP JUMP JUMPDEST PUSH1 0x0 PUSH1 0x20 DUP3 ADD SWAP1 POP DUP2 DUP2 SUB PUSH1 0x0 DUP4 ADD MSTORE PUSH2 0x697 DUP2 DUP5 PUSH2 0x644 JUMP JUMPDEST SWAP1 POP SWAP3 SWAP2 POP POP JUMP JUMPDEST PUSH32 0x4E487B7100000000000000000000000000000000000000000000000000000000 PUSH1 0x0 MSTORE PUSH1 0x11 PUSH1 0x4 MSTORE PUSH1 0x24 PUSH1 0x0 REVERT JUMPDEST PUSH1 0x0 PUSH2 0x6D9 DUP3 PUSH2 0x560 JUMP JUMPDEST SWAP2 POP PUSH2 0x6E4 DUP4 PUSH2 0x560 JUMP JUMPDEST SWAP3 POP DUP3 DUP3 ADD SWAP1 POP DUP1 DUP3 GT ISZERO PUSH2 0x6FC JUMPI PUSH2 0x6FB PUSH2 0x69F JUMP JUMPDEST JUMPDEST SWAP3 SWAP2 POP POP JUMP JUMPDEST PUSH32 0x4E487B7100000000000000000000000000000000000000000000000000000000 PUSH1 0x0 MSTORE PUSH1 0x12 PUSH1 0x4 MSTORE PUSH1 0x24 PUSH1 0x0 REVERT JUMPDEST PUSH1 0x0 PUSH2 0x73C DUP3 PUSH2 0x560 JUMP JUMPDEST SWAP2 POP PUSH2 0x747 DUP4 PUSH2 0x560 JUMP JUMPDEST SWAP3 POP DUP3 PUSH2 0x757 JUMPI PUSH2 0x756 PUSH2 0x702 JUMP JUMPDEST JUMPDEST DUP3 DUP3 DIV SWAP1 POP SWAP3 SWAP2 POP POP JUMP INVALID LOG2 PUSH5 0x6970667358 0x22 SLT KECCAK256 0xC7 DUP14 PUSH31 0xBC682897ADBB08897401F73F379F359286A0E69FBDB1C5055FBFCD2E146473 PUSH16 0x6C634300081300330000000000000000 "
		},
		"gasEstimates": {
			"creation": {
				"codeDepositCost": "388800",
				"executionCost": "424",
				"totalCost": "389224"
			},
			"external": {
				"Getgrade()": "infinite",
				"Getmark()": "infinite",
				"Getper()": "infinite",
				"Setcomputer(uint256)": "22565",
				"Setgujrati(uint256)": "22542",
				"Sethind(uint256)": "22543",
				"Setmathe(uint256)": "22587",
				"Setsanskrit(uint256)": "22521",
				"Setscince(uint256)": "22586",
				"Setsocial_scince(uint256)": "22609"
			}
		},
		"methodIdentifiers": {
			"Getgrade()": "cdf8bcc3",
			"Getmark()": "7b54a72f",
			"Getper()": "fce69179",
			"Setcomputer(uint256)": "5ac31968",
			"Setgujrati(uint256)": "8d306fe9",
			"Sethind(uint256)": "2311b275",
			"Setmathe(uint256)": "5b494cda",
			"Setsanskrit(uint256)": "04814f8f",
			"Setscince(uint256)": "ea2005b8",
			"Setsocial_scince(uint256)": "6445e5a1"
		}
	},
	"abi": [
		{
			"inputs": [],
			"name": "Getgrade",
			"outputs": [
				{
					"internalType": "string",
					"name": "grade",
					"type": "string"
				}
			],
			"stateMutability": "view",
			"type": "function"
		},
		{
			"inputs": [],
			"name": "Getmark",
			"outputs": [
				{
					"internalType": "uint256",
					"name": "total",
					"type": "uint256"
				}
			],
			"stateMutability": "view",
			"type": "function"
		},
		{
			"inputs": [],
			"name": "Getper",
			"outputs": [
				{
					"internalType": "uint256",
					"name": "per",
					"type": "uint256"
				}
			],
			"stateMutability": "view",
			"type": "function"
		},
		{
			"inputs": [
				{
					"internalType": "uint256",
					"name": "m_computer",
					"type": "uint256"
				}
			],
			"name": "Setcomputer",
			"outputs": [],
			"stateMutability": "nonpayable",
			"type": "function"
		},
		{
			"inputs": [
				{
					"internalType": "uint256",
					"name": "m_gujrati",
					"type": "uint256"
				}
			],
			"name": "Setgujrati",
			"outputs": [],
			"stateMutability": "nonpayable",
			"type": "function"
		},
		{
			"inputs": [
				{
					"internalType": "uint256",
					"name": "m_hind",
					"type": "uint256"
				}
			],
			"name": "Sethind",
			"outputs": [],
			"stateMutability": "nonpayable",
			"type": "function"
		},
		{
			"inputs": [
				{
					"internalType": "uint256",
					"name": "m_mathe",
					"type": "uint256"
				}
			],
			"name": "Setmathe",
			"outputs": [],
			"stateMutability": "nonpayable",
			"type": "function"
		},
		{
			"inputs": [
				{
					"internalType": "uint256",
					"name": "m_sanskrit",
					"type": "uint256"
				}
			],
			"name": "Setsanskrit",
			"outputs": [],
			"stateMutability": "nonpayable",
			"type": "function"
		},
		{
			"inputs": [
				{
					"internalType": "uint256",
					"name": "m_scince",
					"type": "uint256"
				}
			],
			"name": "Setscince",
			"outputs": [],
			"stateMutability": "nonpayable",
			"type": "function"
		},
		{
			"inputs": [
				{
					"internalType": "uint256",
					"name": "m_social_scince",
					"type": "uint256"
				}
			],
			"name": "Setsocial_scince",
			"outputs": [],
			"stateMutability": "nonpayable",
			"type": "function"
		}
	]
}