{
	"data": {
		"bytecode": {
			"linkReferences": {},
			"object": "608060405234801561001057600080fd5b50610579806100206000396000f3fe608060405234801561001057600080fd5b506004361061009e5760003560e01c80637b54a72f116100665780637b54a72f146101895780638d306fe9146101a7578063cdf8bcc3146101d5578063ea2005b814610258578063fce69179146102865761009e565b806304814f8f146100a35780632311b275146100d15780635ac31968146100ff5780635b494cda1461012d5780636445e5a11461015b575b600080fd5b6100cf600480360360208110156100b957600080fd5b81019080803590602001909291905050506102a4565b005b6100fd600480360360208110156100e757600080fd5b81019080803590602001909291905050506102ae565b005b61012b6004803603602081101561011557600080fd5b81019080803590602001909291905050506102b8565b005b6101596004803603602081101561014357600080fd5b81019080803590602001909291905050506102c2565b005b6101876004803603602081101561017157600080fd5b81019080803590602001909291905050506102cc565b005b6101916102d6565b6040518082815260200191505060405180910390f35b6101d3600480360360208110156101bd57600080fd5b81019080803590602001909291905050506102f8565b005b6101dd610302565b6040518080602001828103825283818151815260200191508051906020019080838360005b8381101561021d578082015181840152602081019050610202565b50505050905090810190601f16801561024a5780820380516001836020036101000a031916815260200191505b509250505060405180910390f35b6102846004803603602081101561026e57600080fd5b810190808035906020019092919050505061050d565b005b61028e610517565b6040518082815260200191505060405180910390f35b8060058190555050565b8060018190555050565b8060068190555050565b8060008190555050565b8060038190555050565b6000600654600554600454600354600254600154600054010101010101905090565b8060048190555050565b6060600060076006546005546004546003546002546001546000540101010101018161032a57fe5b04905060328111610372576040518060400160405280600181526020017f43000000000000000000000000000000000000000000000000000000000000008152509150610509565b603281101580156103845750603c8111155b156103c6576040518060400160405280600181526020017f42000000000000000000000000000000000000000000000000000000000000008152509150610508565b603c81101580156103d8575060468111155b1561041a576040518060400160405280600181526020017f41000000000000000000000000000000000000000000000000000000000000008152509150610507565b6046811015801561042c575060508111155b1561046e576040518060400160405280600281526020017f412b0000000000000000000000000000000000000000000000000000000000008152509150610506565b605081101580156104805750605a8111155b156104c2576040518060400160405280600381526020017f412b2b00000000000000000000000000000000000000000000000000000000008152509150610505565b605a811115610504576040518060400160405280600381526020017f546f70000000000000000000000000000000000000000000000000000000000081525091505b5b5b5b5b5b5090565b8060028190555050565b600060076006546005546004546003546002546001546000540101010101018161053d57fe5b0490509056fea26469706673582212203112621ec9b2408b6c9519cf4a982b3d604d0fd927860de6be15e684c68ae05d64736f6c63430007060033",
			"opcodes": "PUSH1 0x80 PUSH1 0x40 MSTORE CALLVALUE DUP1 ISZERO PUSH2 0x10 JUMPI PUSH1 0x0 DUP1 REVERT JUMPDEST POP PUSH2 0x579 DUP1 PUSH2 0x20 PUSH1 0x0 CODECOPY PUSH1 0x0 RETURN INVALID PUSH1 0x80 PUSH1 0x40 MSTORE CALLVALUE DUP1 ISZERO PUSH2 0x10 JUMPI PUSH1 0x0 DUP1 REVERT JUMPDEST POP PUSH1 0x4 CALLDATASIZE LT PUSH2 0x9E JUMPI PUSH1 0x0 CALLDATALOAD PUSH1 0xE0 SHR DUP1 PUSH4 0x7B54A72F GT PUSH2 0x66 JUMPI DUP1 PUSH4 0x7B54A72F EQ PUSH2 0x189 JUMPI DUP1 PUSH4 0x8D306FE9 EQ PUSH2 0x1A7 JUMPI DUP1 PUSH4 0xCDF8BCC3 EQ PUSH2 0x1D5 JUMPI DUP1 PUSH4 0xEA2005B8 EQ PUSH2 0x258 JUMPI DUP1 PUSH4 0xFCE69179 EQ PUSH2 0x286 JUMPI PUSH2 0x9E JUMP JUMPDEST DUP1 PUSH4 0x4814F8F EQ PUSH2 0xA3 JUMPI DUP1 PUSH4 0x2311B275 EQ PUSH2 0xD1 JUMPI DUP1 PUSH4 0x5AC31968 EQ PUSH2 0xFF JUMPI DUP1 PUSH4 0x5B494CDA EQ PUSH2 0x12D JUMPI DUP1 PUSH4 0x6445E5A1 EQ PUSH2 0x15B JUMPI JUMPDEST PUSH1 0x0 DUP1 REVERT JUMPDEST PUSH2 0xCF PUSH1 0x4 DUP1 CALLDATASIZE SUB PUSH1 0x20 DUP2 LT ISZERO PUSH2 0xB9 JUMPI PUSH1 0x0 DUP1 REVERT JUMPDEST DUP2 ADD SWAP1 DUP1 DUP1 CALLDATALOAD SWAP1 PUSH1 0x20 ADD SWAP1 SWAP3 SWAP2 SWAP1 POP POP POP PUSH2 0x2A4 JUMP JUMPDEST STOP JUMPDEST PUSH2 0xFD PUSH1 0x4 DUP1 CALLDATASIZE SUB PUSH1 0x20 DUP2 LT ISZERO PUSH2 0xE7 JUMPI PUSH1 0x0 DUP1 REVERT JUMPDEST DUP2 ADD SWAP1 DUP1 DUP1 CALLDATALOAD SWAP1 PUSH1 0x20 ADD SWAP1 SWAP3 SWAP2 SWAP1 POP POP POP PUSH2 0x2AE JUMP JUMPDEST STOP JUMPDEST PUSH2 0x12B PUSH1 0x4 DUP1 CALLDATASIZE SUB PUSH1 0x20 DUP2 LT ISZERO PUSH2 0x115 JUMPI PUSH1 0x0 DUP1 REVERT JUMPDEST DUP2 ADD SWAP1 DUP1 DUP1 CALLDATALOAD SWAP1 PUSH1 0x20 ADD SWAP1 SWAP3 SWAP2 SWAP1 POP POP POP PUSH2 0x2B8 JUMP JUMPDEST STOP JUMPDEST PUSH2 0x159 PUSH1 0x4 DUP1 CALLDATASIZE SUB PUSH1 0x20 DUP2 LT ISZERO PUSH2 0x143 JUMPI PUSH1 0x0 DUP1 REVERT JUMPDEST DUP2 ADD SWAP1 DUP1 DUP1 CALLDATALOAD SWAP1 PUSH1 0x20 ADD SWAP1 SWAP3 SWAP2 SWAP1 POP POP POP PUSH2 0x2C2 JUMP JUMPDEST STOP JUMPDEST PUSH2 0x187 PUSH1 0x4 DUP1 CALLDATASIZE SUB PUSH1 0x20 DUP2 LT ISZERO PUSH2 0x171 JUMPI PUSH1 0x0 DUP1 REVERT JUMPDEST DUP2 ADD SWAP1 DUP1 DUP1 CALLDATALOAD SWAP1 PUSH1 0x20 ADD SWAP1 SWAP3 SWAP2 SWAP1 POP POP POP PUSH2 0x2CC JUMP JUMPDEST STOP JUMPDEST PUSH2 0x191 PUSH2 0x2D6 JUMP JUMPDEST PUSH1 0x40 MLOAD DUP1 DUP3 DUP2 MSTORE PUSH1 0x20 ADD SWAP2 POP POP PUSH1 0x40 MLOAD DUP1 SWAP2 SUB SWAP1 RETURN JUMPDEST PUSH2 0x1D3 PUSH1 0x4 DUP1 CALLDATASIZE SUB PUSH1 0x20 DUP2 LT ISZERO PUSH2 0x1BD JUMPI PUSH1 0x0 DUP1 REVERT JUMPDEST DUP2 ADD SWAP1 DUP1 DUP1 CALLDATALOAD SWAP1 PUSH1 0x20 ADD SWAP1 SWAP3 SWAP2 SWAP1 POP POP POP PUSH2 0x2F8 JUMP JUMPDEST STOP JUMPDEST PUSH2 0x1DD PUSH2 0x302 JUMP JUMPDEST PUSH1 0x40 MLOAD DUP1 DUP1 PUSH1 0x20 ADD DUP3 DUP2 SUB DUP3 MSTORE DUP4 DUP2 DUP2 MLOAD DUP2 MSTORE PUSH1 0x20 ADD SWAP2 POP DUP1 MLOAD SWAP1 PUSH1 0x20 ADD SWAP1 DUP1 DUP4 DUP4 PUSH1 0x0 JUMPDEST DUP4 DUP2 LT ISZERO PUSH2 0x21D JUMPI DUP1 DUP3 ADD MLOAD DUP2 DUP5 ADD MSTORE PUSH1 0x20 DUP2 ADD SWAP1 POP PUSH2 0x202 JUMP JUMPDEST POP POP POP POP SWAP1 POP SWAP1 DUP2 ADD SWAP1 PUSH1 0x1F AND DUP1 ISZERO PUSH2 0x24A JUMPI DUP1 DUP3 SUB DUP1 MLOAD PUSH1 0x1 DUP4 PUSH1 0x20 SUB PUSH2 0x100 EXP SUB NOT AND DUP2 MSTORE PUSH1 0x20 ADD SWAP2 POP JUMPDEST POP SWAP3 POP POP POP PUSH1 0x40 MLOAD DUP1 SWAP2 SUB SWAP1 RETURN JUMPDEST PUSH2 0x284 PUSH1 0x4 DUP1 CALLDATASIZE SUB PUSH1 0x20 DUP2 LT ISZERO PUSH2 0x26E JUMPI PUSH1 0x0 DUP1 REVERT JUMPDEST DUP2 ADD SWAP1 DUP1 DUP1 CALLDATALOAD SWAP1 PUSH1 0x20 ADD SWAP1 SWAP3 SWAP2 SWAP1 POP POP POP PUSH2 0x50D JUMP JUMPDEST STOP JUMPDEST PUSH2 0x28E PUSH2 0x517 JUMP JUMPDEST PUSH1 0x40 MLOAD DUP1 DUP3 DUP2 MSTORE PUSH1 0x20 ADD SWAP2 POP POP PUSH1 0x40 MLOAD DUP1 SWAP2 SUB SWAP1 RETURN JUMPDEST DUP1 PUSH1 0x5 DUP2 SWAP1 SSTORE POP POP JUMP JUMPDEST DUP1 PUSH1 0x1 DUP2 SWAP1 SSTORE POP POP JUMP JUMPDEST DUP1 PUSH1 0x6 DUP2 SWAP1 SSTORE POP POP JUMP JUMPDEST DUP1 PUSH1 0x0 DUP2 SWAP1 SSTORE POP POP JUMP JUMPDEST DUP1 PUSH1 0x3 DUP2 SWAP1 SSTORE POP POP JUMP JUMPDEST PUSH1 0x0 PUSH1 0x6 SLOAD PUSH1 0x5 SLOAD PUSH1 0x4 SLOAD PUSH1 0x3 SLOAD PUSH1 0x2 SLOAD PUSH1 0x1 SLOAD PUSH1 0x0 SLOAD ADD ADD ADD ADD ADD ADD SWAP1 POP SWAP1 JUMP JUMPDEST DUP1 PUSH1 0x4 DUP2 SWAP1 SSTORE POP POP JUMP JUMPDEST PUSH1 0x60 PUSH1 0x0 PUSH1 0x7 PUSH1 0x6 SLOAD PUSH1 0x5 SLOAD PUSH1 0x4 SLOAD PUSH1 0x3 SLOAD PUSH1 0x2 SLOAD PUSH1 0x1 SLOAD PUSH1 0x0 SLOAD ADD ADD ADD ADD ADD ADD DUP2 PUSH2 0x32A JUMPI INVALID JUMPDEST DIV SWAP1 POP PUSH1 0x32 DUP2 GT PUSH2 0x372 JUMPI PUSH1 0x40 MLOAD DUP1 PUSH1 0x40 ADD PUSH1 0x40 MSTORE DUP1 PUSH1 0x1 DUP2 MSTORE PUSH1 0x20 ADD PUSH32 0x4300000000000000000000000000000000000000000000000000000000000000 DUP2 MSTORE POP SWAP2 POP PUSH2 0x509 JUMP JUMPDEST PUSH1 0x32 DUP2 LT ISZERO DUP1 ISZERO PUSH2 0x384 JUMPI POP PUSH1 0x3C DUP2 GT ISZERO JUMPDEST ISZERO PUSH2 0x3C6 JUMPI PUSH1 0x40 MLOAD DUP1 PUSH1 0x40 ADD PUSH1 0x40 MSTORE DUP1 PUSH1 0x1 DUP2 MSTORE PUSH1 0x20 ADD PUSH32 0x4200000000000000000000000000000000000000000000000000000000000000 DUP2 MSTORE POP SWAP2 POP PUSH2 0x508 JUMP JUMPDEST PUSH1 0x3C DUP2 LT ISZERO DUP1 ISZERO PUSH2 0x3D8 JUMPI POP PUSH1 0x46 DUP2 GT ISZERO JUMPDEST ISZERO PUSH2 0x41A JUMPI PUSH1 0x40 MLOAD DUP1 PUSH1 0x40 ADD PUSH1 0x40 MSTORE DUP1 PUSH1 0x1 DUP2 MSTORE PUSH1 0x20 ADD PUSH32 0x4100000000000000000000000000000000000000000000000000000000000000 DUP2 MSTORE POP SWAP2 POP PUSH2 0x507 JUMP JUMPDEST PUSH1 0x46 DUP2 LT ISZERO DUP1 ISZERO PUSH2 0x42C JUMPI POP PUSH1 0x50 DUP2 GT ISZERO JUMPDEST ISZERO PUSH2 0x46E JUMPI PUSH1 0x40 MLOAD DUP1 PUSH1 0x40 ADD PUSH1 0x40 MSTORE DUP1 PUSH1 0x2 DUP2 MSTORE PUSH1 0x20 ADD PUSH32 0x412B000000000000000000000000000000000000000000000000000000000000 DUP2 MSTORE POP SWAP2 POP PUSH2 0x506 JUMP JUMPDEST PUSH1 0x50 DUP2 LT ISZERO DUP1 ISZERO PUSH2 0x480 JUMPI POP PUSH1 0x5A DUP2 GT ISZERO JUMPDEST ISZERO PUSH2 0x4C2 JUMPI PUSH1 0x40 MLOAD DUP1 PUSH1 0x40 ADD PUSH1 0x40 MSTORE DUP1 PUSH1 0x3 DUP2 MSTORE PUSH1 0x20 ADD PUSH32 0x412B2B0000000000000000000000000000000000000000000000000000000000 DUP2 MSTORE POP SWAP2 POP PUSH2 0x505 JUMP JUMPDEST PUSH1 0x5A DUP2 GT ISZERO PUSH2 0x504 JUMPI PUSH1 0x40 MLOAD DUP1 PUSH1 0x40 ADD PUSH1 0x40 MSTORE DUP1 PUSH1 0x3 DUP2 MSTORE PUSH1 0x20 ADD PUSH32 0x546F700000000000000000000000000000000000000000000000000000000000 DUP2 MSTORE POP SWAP2 POP JUMPDEST JUMPDEST JUMPDEST JUMPDEST JUMPDEST JUMPDEST POP SWAP1 JUMP JUMPDEST DUP1 PUSH1 0x2 DUP2 SWAP1 SSTORE POP POP JUMP JUMPDEST PUSH1 0x0 PUSH1 0x7 PUSH1 0x6 SLOAD PUSH1 0x5 SLOAD PUSH1 0x4 SLOAD PUSH1 0x3 SLOAD PUSH1 0x2 SLOAD PUSH1 0x1 SLOAD PUSH1 0x0 SLOAD ADD ADD ADD ADD ADD ADD DUP2 PUSH2 0x53D JUMPI INVALID JUMPDEST DIV SWAP1 POP SWAP1 JUMP INVALID LOG2 PUSH5 0x6970667358 0x22 SLT KECCAK256 BALANCE SLT PUSH3 0x1EC9B2 BLOCKHASH DUP12 PUSH13 0x9519CF4A982B3D604D0FD92786 0xD 0xE6 0xBE ISZERO 0xE6 DUP5 0xC6 DUP11 0xE0 0x5D PUSH5 0x736F6C6343 STOP SMOD MOD STOP CALLER "
		},
		"gasEstimates": {
			"creation": {
				"codeDepositCost": "280200",
				"executionCost": "318",
				"totalCost": "280518"
			},
			"external": {
				"Getgrade()": "infinite",
				"Getmark()": "5849",
				"Getper()": "5962",
				"Setcomputer(uint256)": "20287",
				"Setgujrati(uint256)": "20264",
				"Sethind(uint256)": "20265",
				"Setmathe(uint256)": "20309",
				"Setsanskrit(uint256)": "20243",
				"Setscince(uint256)": "20308",
				"Setsocial_scince(uint256)": "20331"
			}
		},
		"methodIdentifiers": {
			"Getgrade()": "cdf8bcc3",
			"Getmark()": "7b54a72f",
			"Getper()": "fce69179",
			"Setcomputer(uint256)": "5ac31968",
			"Setgujrati(uint256)": "8d306fe9",
			"Sethind(uint256)": "2311b275",
			"Setmathe(uint256)": "5b494cda",
			"Setsanskrit(uint256)": "04814f8f",
			"Setscince(uint256)": "ea2005b8",
			"Setsocial_scince(uint256)": "6445e5a1"
		}
	},
	"abi": [
		{
			"inputs": [],
			"name": "Getgrade",
			"outputs": [
				{
					"internalType": "string",
					"name": "grade",
					"type": "string"
				}
			],
			"stateMutability": "view",
			"type": "function"
		},
		{
			"inputs": [],
			"name": "Getmark",
			"outputs": [
				{
					"internalType": "uint256",
					"name": "total",
					"type": "uint256"
				}
			],
			"stateMutability": "view",
			"type": "function"
		},
		{
			"inputs": [],
			"name": "Getper",
			"outputs": [
				{
					"internalType": "uint256",
					"name": "per",
					"type": "uint256"
				}
			],
			"stateMutability": "view",
			"type": "function"
		},
		{
			"inputs": [
				{
					"internalType": "uint256",
					"name": "m_computer",
					"type": "uint256"
				}
			],
			"name": "Setcomputer",
			"outputs": [],
			"stateMutability": "nonpayable",
			"type": "function"
		},
		{
			"inputs": [
				{
					"internalType": "uint256",
					"name": "m_gujrati",
					"type": "uint256"
				}
			],
			"name": "Setgujrati",
			"outputs": [],
			"stateMutability": "nonpayable",
			"type": "function"
		},
		{
			"inputs": [
				{
					"internalType": "uint256",
					"name": "m_hind",
					"type": "uint256"
				}
			],
			"name": "Sethind",
			"outputs": [],
			"stateMutability": "nonpayable",
			"type": "function"
		},
		{
			"inputs": [
				{
					"internalType": "uint256",
					"name": "m_mathe",
					"type": "uint256"
				}
			],
			"name": "Setmathe",
			"outputs": [],
			"stateMutability": "nonpayable",
			"type": "function"
		},
		{
			"inputs": [
				{
					"internalType": "uint256",
					"name": "m_sanskrit",
					"type": "uint256"
				}
			],
			"name": "Setsanskrit",
			"outputs": [],
			"stateMutability": "nonpayable",
			"type": "function"
		},
		{
			"inputs": [
				{
					"internalType": "uint256",
					"name": "m_scince",
					"type": "uint256"
				}
			],
			"name": "Setscince",
			"outputs": [],
			"stateMutability": "nonpayable",
			"type": "function"
		},
		{
			"inputs": [
				{
					"internalType": "uint256",
					"name": "m_social_scince",
					"type": "uint256"
				}
			],
			"name": "Setsocial_scince",
			"outputs": [],
			"stateMutability": "nonpayable",
			"type": "function"
		}
	]
}